{
  "contractName": "Array",
  "abi": [
    {
      "inputs": [
        {
          "internalType": "uint256[]",
          "name": "array",
          "type": "uint256[]"
        },
        {
          "internalType": "uint256",
          "name": "id",
          "type": "uint256"
        }
      ],
      "name": "uintExists",
      "outputs": [
        {
          "internalType": "bool",
          "name": "",
          "type": "bool"
        }
      ],
      "stateMutability": "pure",
      "type": "function"
    }
  ],
  "bytecode": "0x608060405234801561001057600080fd5b506103c8806100206000396000f3fe608060405234801561001057600080fd5b506004361061002b5760003560e01c8063930fff0414610030575b600080fd5b61004a6004803603810190610045919061025a565b610060565b60405161005791906102d1565b60405180910390f35b6000805b83518110156100ab5782848281518110610081576100806102ec565b5b6020026020010151036100985760019150506100b1565b80806100a39061034a565b915050610064565b50600090505b92915050565b6000604051905090565b600080fd5b600080fd5b600080fd5b6000601f19601f8301169050919050565b7f4e487b7100000000000000000000000000000000000000000000000000000000600052604160045260246000fd5b610119826100d0565b810181811067ffffffffffffffff82111715610138576101376100e1565b5b80604052505050565b600061014b6100b7565b90506101578282610110565b919050565b600067ffffffffffffffff821115610177576101766100e1565b5b602082029050602081019050919050565b600080fd5b6000819050919050565b6101a08161018d565b81146101ab57600080fd5b50565b6000813590506101bd81610197565b92915050565b60006101d66101d18461015c565b610141565b905080838252602082019050602084028301858111156101f9576101f8610188565b5b835b81811015610222578061020e88826101ae565b8452602084019350506020810190506101fb565b5050509392505050565b600082601f830112610241576102406100cb565b5b81356102518482602086016101c3565b91505092915050565b60008060408385031215610271576102706100c1565b5b600083013567ffffffffffffffff81111561028f5761028e6100c6565b5b61029b8582860161022c565b92505060206102ac858286016101ae565b9150509250929050565b60008115159050919050565b6102cb816102b6565b82525050565b60006020820190506102e660008301846102c2565b92915050565b7f4e487b7100000000000000000000000000000000000000000000000000000000600052603260045260246000fd5b7f4e487b7100000000000000000000000000000000000000000000000000000000600052601160045260246000fd5b60006103558261018d565b91507fffffffffffffffffffffffffffffffffffffffffffffffffffffffffffffffff82036103875761038661031b565b5b60018201905091905056fea26469706673582212206c09f189485f3a9a6e6faf92d06511b17e1b470527f02070722a374bdd0e844e64736f6c63430008110033",
  "immutableReferences": {},
  "source": "// SPDX-License-Identifier: MIT\r\npragma solidity ^0.8.17;\r\n\r\ncontract Array {\r\n\r\n    function uintExists(uint[] memory array, uint id) public pure returns (bool){\r\n        for (uint i; i < array.length; i++){\r\n            if (array[i] == id)\r\n            return true;\r\n        }\r\n        return false;\r\n    }\r\n\r\n}",
  "sourcePath": "C:\\Users\\Arogundade Ibrahim\\Documents\\web3\\Buidl\\contracts\\utils\\Array.sol",
  "compiler": {
    "name": "solc",
    "version": "0.8.17+commit.8df45f5f.Emscripten.clang"
  },
  "schemaVersion": "3.4.10",
  "updatedAt": "2022-10-11T02:34:17.933Z",
  "devdoc": {
    "kind": "dev",
    "methods": {},
    "version": 1
  },
  "userdoc": {
    "kind": "user",
    "methods": {},
    "version": 1
  }
}