{
  "contractName": "BaseSuperToken",
  "abi": [
    {
      "inputs": [
        {
          "internalType": "contract ISuperfluid",
          "name": "host",
          "type": "address"
        },
        {
          "internalType": "string",
          "name": "tokenName",
          "type": "string"
        },
        {
          "internalType": "string",
          "name": "tokenSymbol",
          "type": "string"
        },
        {
          "internalType": "uint256",
          "name": "tokenTotalSupply",
          "type": "uint256"
        }
      ],
      "stateMutability": "nonpayable",
      "type": "constructor"
    },
    {
      "inputs": [
        {
          "internalType": "uint256",
          "name": "_code",
          "type": "uint256"
        }
      ],
      "name": "ALREADY_EXISTS",
      "type": "error"
    },
    {
      "inputs": [
        {
          "internalType": "uint256",
          "name": "_code",
          "type": "uint256"
        }
      ],
      "name": "DOES_NOT_EXIST",
      "type": "error"
    },
    {
      "inputs": [
        {
          "internalType": "uint256",
          "name": "_code",
          "type": "uint256"
        }
      ],
      "name": "INSUFFICIENT_BALANCE",
      "type": "error"
    },
    {
      "inputs": [
        {
          "internalType": "uint256",
          "name": "_code",
          "type": "uint256"
        }
      ],
      "name": "ONLY_HOST",
      "type": "error"
    },
    {
      "inputs": [
        {
          "internalType": "uint256",
          "name": "_code",
          "type": "uint256"
        }
      ],
      "name": "ONLY_LISTED_AGREEMENT",
      "type": "error"
    },
    {
      "inputs": [],
      "name": "SUPER_TOKEN_CALLER_IS_NOT_OPERATOR_FOR_HOLDER",
      "type": "error"
    },
    {
      "inputs": [],
      "name": "SUPER_TOKEN_INFLATIONARY_DEFLATIONARY_NOT_SUPPORTED",
      "type": "error"
    },
    {
      "inputs": [],
      "name": "SUPER_TOKEN_NOT_ERC777_TOKENS_RECIPIENT",
      "type": "error"
    },
    {
      "inputs": [],
      "name": "SUPER_TOKEN_NO_UNDERLYING_TOKEN",
      "type": "error"
    },
    {
      "inputs": [],
      "name": "SUPER_TOKEN_ONLY_SELF",
      "type": "error"
    },
    {
      "inputs": [
        {
          "internalType": "uint256",
          "name": "_code",
          "type": "uint256"
        }
      ],
      "name": "ZERO_ADDRESS",
      "type": "error"
    },
    {
      "anonymous": false,
      "inputs": [
        {
          "indexed": true,
          "internalType": "address",
          "name": "agreementClass",
          "type": "address"
        },
        {
          "indexed": false,
          "internalType": "bytes32",
          "name": "id",
          "type": "bytes32"
        },
        {
          "indexed": false,
          "internalType": "bytes32[]",
          "name": "data",
          "type": "bytes32[]"
        }
      ],
      "name": "AgreementCreated",
      "type": "event"
    },
    {
      "anonymous": false,
      "inputs": [
        {
          "indexed": true,
          "internalType": "address",
          "name": "agreementClass",
          "type": "address"
        },
        {
          "indexed": false,
          "internalType": "bytes32",
          "name": "id",
          "type": "bytes32"
        },
        {
          "indexed": true,
          "internalType": "address",
          "name": "penaltyAccount",
          "type": "address"
        },
        {
          "indexed": true,
          "internalType": "address",
          "name": "rewardAccount",
          "type": "address"
        },
        {
          "indexed": false,
          "internalType": "uint256",
          "name": "rewardAmount",
          "type": "uint256"
        }
      ],
      "name": "AgreementLiquidated",
      "type": "event"
    },
    {
      "anonymous": false,
      "inputs": [
        {
          "indexed": false,
          "internalType": "address",
          "name": "liquidatorAccount",
          "type": "address"
        },
        {
          "indexed": true,
          "internalType": "address",
          "name": "agreementClass",
          "type": "address"
        },
        {
          "indexed": false,
          "internalType": "bytes32",
          "name": "id",
          "type": "bytes32"
        },
        {
          "indexed": true,
          "internalType": "address",
          "name": "penaltyAccount",
          "type": "address"
        },
        {
          "indexed": true,
          "internalType": "address",
          "name": "bondAccount",
          "type": "address"
        },
        {
          "indexed": false,
          "internalType": "uint256",
          "name": "rewardAmount",
          "type": "uint256"
        },
        {
          "indexed": false,
          "internalType": "uint256",
          "name": "bailoutAmount",
          "type": "uint256"
        }
      ],
      "name": "AgreementLiquidatedBy",
      "type": "event"
    },
    {
      "anonymous": false,
      "inputs": [
        {
          "indexed": true,
          "internalType": "address",
          "name": "agreementClass",
          "type": "address"
        },
        {
          "indexed": false,
          "internalType": "bytes32",
          "name": "id",
          "type": "bytes32"
        },
        {
          "indexed": true,
          "internalType": "address",
          "name": "liquidatorAccount",
          "type": "address"
        },
        {
          "indexed": true,
          "internalType": "address",
          "name": "targetAccount",
          "type": "address"
        },
        {
          "indexed": false,
          "internalType": "address",
          "name": "rewardAmountReceiver",
          "type": "address"
        },
        {
          "indexed": false,
          "internalType": "uint256",
          "name": "rewardAmount",
          "type": "uint256"
        },
        {
          "indexed": false,
          "internalType": "int256",
          "name": "targetAccountBalanceDelta",
          "type": "int256"
        },
        {
          "indexed": false,
          "internalType": "bytes",
          "name": "liquidationTypeData",
          "type": "bytes"
        }
      ],
      "name": "AgreementLiquidatedV2",
      "type": "event"
    },
    {
      "anonymous": false,
      "inputs": [
        {
          "indexed": true,
          "internalType": "address",
          "name": "agreementClass",
          "type": "address"
        },
        {
          "indexed": true,
          "internalType": "address",
          "name": "account",
          "type": "address"
        },
        {
          "indexed": false,
          "internalType": "uint256",
          "name": "slotId",
          "type": "uint256"
        }
      ],
      "name": "AgreementStateUpdated",
      "type": "event"
    },
    {
      "anonymous": false,
      "inputs": [
        {
          "indexed": true,
          "internalType": "address",
          "name": "agreementClass",
          "type": "address"
        },
        {
          "indexed": false,
          "internalType": "bytes32",
          "name": "id",
          "type": "bytes32"
        }
      ],
      "name": "AgreementTerminated",
      "type": "event"
    },
    {
      "anonymous": false,
      "inputs": [
        {
          "indexed": true,
          "internalType": "address",
          "name": "agreementClass",
          "type": "address"
        },
        {
          "indexed": false,
          "internalType": "bytes32",
          "name": "id",
          "type": "bytes32"
        },
        {
          "indexed": false,
          "internalType": "bytes32[]",
          "name": "data",
          "type": "bytes32[]"
        }
      ],
      "name": "AgreementUpdated",
      "type": "event"
    },
    {
      "anonymous": false,
      "inputs": [
        {
          "indexed": true,
          "internalType": "address",
          "name": "owner",
          "type": "address"
        },
        {
          "indexed": true,
          "internalType": "address",
          "name": "spender",
          "type": "address"
        },
        {
          "indexed": false,
          "internalType": "uint256",
          "name": "value",
          "type": "uint256"
        }
      ],
      "name": "Approval",
      "type": "event"
    },
    {
      "anonymous": false,
      "inputs": [
        {
          "indexed": true,
          "internalType": "address",
          "name": "operator",
          "type": "address"
        },
        {
          "indexed": true,
          "internalType": "address",
          "name": "tokenHolder",
          "type": "address"
        }
      ],
      "name": "AuthorizedOperator",
      "type": "event"
    },
    {
      "anonymous": false,
      "inputs": [
        {
          "indexed": true,
          "internalType": "address",
          "name": "bailoutAccount",
          "type": "address"
        },
        {
          "indexed": false,
          "internalType": "uint256",
          "name": "bailoutAmount",
          "type": "uint256"
        }
      ],
      "name": "Bailout",
      "type": "event"
    },
    {
      "anonymous": false,
      "inputs": [
        {
          "indexed": true,
          "internalType": "address",
          "name": "operator",
          "type": "address"
        },
        {
          "indexed": true,
          "internalType": "address",
          "name": "from",
          "type": "address"
        },
        {
          "indexed": false,
          "internalType": "uint256",
          "name": "amount",
          "type": "uint256"
        },
        {
          "indexed": false,
          "internalType": "bytes",
          "name": "data",
          "type": "bytes"
        },
        {
          "indexed": false,
          "internalType": "bytes",
          "name": "operatorData",
          "type": "bytes"
        }
      ],
      "name": "Burned",
      "type": "event"
    },
    {
      "anonymous": false,
      "inputs": [
        {
          "indexed": false,
          "internalType": "bytes32",
          "name": "uuid",
          "type": "bytes32"
        },
        {
          "indexed": false,
          "internalType": "address",
          "name": "codeAddress",
          "type": "address"
        }
      ],
      "name": "CodeUpdated",
      "type": "event"
    },
    {
      "anonymous": false,
      "inputs": [
        {
          "indexed": false,
          "internalType": "uint8",
          "name": "version",
          "type": "uint8"
        }
      ],
      "name": "Initialized",
      "type": "event"
    },
    {
      "anonymous": false,
      "inputs": [
        {
          "indexed": true,
          "internalType": "address",
          "name": "operator",
          "type": "address"
        },
        {
          "indexed": true,
          "internalType": "address",
          "name": "to",
          "type": "address"
        },
        {
          "indexed": false,
          "internalType": "uint256",
          "name": "amount",
          "type": "uint256"
        },
        {
          "indexed": false,
          "internalType": "bytes",
          "name": "data",
          "type": "bytes"
        },
        {
          "indexed": false,
          "internalType": "bytes",
          "name": "operatorData",
          "type": "bytes"
        }
      ],
      "name": "Minted",
      "type": "event"
    },
    {
      "anonymous": false,
      "inputs": [
        {
          "indexed": true,
          "internalType": "address",
          "name": "operator",
          "type": "address"
        },
        {
          "indexed": true,
          "internalType": "address",
          "name": "tokenHolder",
          "type": "address"
        }
      ],
      "name": "RevokedOperator",
      "type": "event"
    },
    {
      "anonymous": false,
      "inputs": [
        {
          "indexed": true,
          "internalType": "address",
          "name": "operator",
          "type": "address"
        },
        {
          "indexed": true,
          "internalType": "address",
          "name": "from",
          "type": "address"
        },
        {
          "indexed": true,
          "internalType": "address",
          "name": "to",
          "type": "address"
        },
        {
          "indexed": false,
          "internalType": "uint256",
          "name": "amount",
          "type": "uint256"
        },
        {
          "indexed": false,
          "internalType": "bytes",
          "name": "data",
          "type": "bytes"
        },
        {
          "indexed": false,
          "internalType": "bytes",
          "name": "operatorData",
          "type": "bytes"
        }
      ],
      "name": "Sent",
      "type": "event"
    },
    {
      "anonymous": false,
      "inputs": [
        {
          "indexed": true,
          "internalType": "address",
          "name": "account",
          "type": "address"
        },
        {
          "indexed": false,
          "internalType": "uint256",
          "name": "amount",
          "type": "uint256"
        }
      ],
      "name": "TokenDowngraded",
      "type": "event"
    },
    {
      "anonymous": false,
      "inputs": [
        {
          "indexed": true,
          "internalType": "address",
          "name": "account",
          "type": "address"
        },
        {
          "indexed": false,
          "internalType": "uint256",
          "name": "amount",
          "type": "uint256"
        }
      ],
      "name": "TokenUpgraded",
      "type": "event"
    },
    {
      "anonymous": false,
      "inputs": [
        {
          "indexed": true,
          "internalType": "address",
          "name": "from",
          "type": "address"
        },
        {
          "indexed": true,
          "internalType": "address",
          "name": "to",
          "type": "address"
        },
        {
          "indexed": false,
          "internalType": "uint256",
          "name": "value",
          "type": "uint256"
        }
      ],
      "name": "Transfer",
      "type": "event"
    },
    {
      "inputs": [],
      "name": "castrate",
      "outputs": [],
      "stateMutability": "nonpayable",
      "type": "function"
    },
    {
      "inputs": [
        {
          "internalType": "bytes32",
          "name": "id",
          "type": "bytes32"
        },
        {
          "internalType": "bytes32[]",
          "name": "data",
          "type": "bytes32[]"
        }
      ],
      "name": "createAgreement",
      "outputs": [],
      "stateMutability": "nonpayable",
      "type": "function"
    },
    {
      "inputs": [
        {
          "internalType": "address",
          "name": "account",
          "type": "address"
        }
      ],
      "name": "getAccountActiveAgreements",
      "outputs": [
        {
          "internalType": "contract ISuperAgreement[]",
          "name": "",
          "type": "address[]"
        }
      ],
      "stateMutability": "view",
      "type": "function"
    },
    {
      "inputs": [
        {
          "internalType": "address",
          "name": "agreementClass",
          "type": "address"
        },
        {
          "internalType": "bytes32",
          "name": "id",
          "type": "bytes32"
        },
        {
          "internalType": "uint256",
          "name": "dataLength",
          "type": "uint256"
        }
      ],
      "name": "getAgreementData",
      "outputs": [
        {
          "internalType": "bytes32[]",
          "name": "data",
          "type": "bytes32[]"
        }
      ],
      "stateMutability": "view",
      "type": "function"
    },
    {
      "inputs": [
        {
          "internalType": "address",
          "name": "agreementClass",
          "type": "address"
        },
        {
          "internalType": "address",
          "name": "account",
          "type": "address"
        },
        {
          "internalType": "uint256",
          "name": "slotId",
          "type": "uint256"
        },
        {
          "internalType": "uint256",
          "name": "dataLength",
          "type": "uint256"
        }
      ],
      "name": "getAgreementStateSlot",
      "outputs": [
        {
          "internalType": "bytes32[]",
          "name": "slotData",
          "type": "bytes32[]"
        }
      ],
      "stateMutability": "view",
      "type": "function"
    },
    {
      "inputs": [],
      "name": "getCodeAddress",
      "outputs": [
        {
          "internalType": "address",
          "name": "codeAddress",
          "type": "address"
        }
      ],
      "stateMutability": "view",
      "type": "function"
    },
    {
      "inputs": [],
      "name": "getHost",
      "outputs": [
        {
          "internalType": "address",
          "name": "host",
          "type": "address"
        }
      ],
      "stateMutability": "view",
      "type": "function"
    },
    {
      "inputs": [
        {
          "internalType": "address",
          "name": "account",
          "type": "address"
        },
        {
          "internalType": "uint256",
          "name": "timestamp",
          "type": "uint256"
        }
      ],
      "name": "isAccountCritical",
      "outputs": [
        {
          "internalType": "bool",
          "name": "isCritical",
          "type": "bool"
        }
      ],
      "stateMutability": "view",
      "type": "function"
    },
    {
      "inputs": [
        {
          "internalType": "address",
          "name": "account",
          "type": "address"
        }
      ],
      "name": "isAccountCriticalNow",
      "outputs": [
        {
          "internalType": "bool",
          "name": "isCritical",
          "type": "bool"
        }
      ],
      "stateMutability": "view",
      "type": "function"
    },
    {
      "inputs": [
        {
          "internalType": "address",
          "name": "account",
          "type": "address"
        },
        {
          "internalType": "uint256",
          "name": "timestamp",
          "type": "uint256"
        }
      ],
      "name": "isAccountSolvent",
      "outputs": [
        {
          "internalType": "bool",
          "name": "isSolvent",
          "type": "bool"
        }
      ],
      "stateMutability": "view",
      "type": "function"
    },
    {
      "inputs": [
        {
          "internalType": "address",
          "name": "account",
          "type": "address"
        }
      ],
      "name": "isAccountSolventNow",
      "outputs": [
        {
          "internalType": "bool",
          "name": "isSolvent",
          "type": "bool"
        }
      ],
      "stateMutability": "view",
      "type": "function"
    },
    {
      "inputs": [
        {
          "internalType": "bytes32",
          "name": "id",
          "type": "bytes32"
        },
        {
          "internalType": "bytes",
          "name": "liquidationTypeData",
          "type": "bytes"
        },
        {
          "internalType": "address",
          "name": "liquidatorAccount",
          "type": "address"
        },
        {
          "internalType": "bool",
          "name": "useDefaultRewardAccount",
          "type": "bool"
        },
        {
          "internalType": "address",
          "name": "targetAccount",
          "type": "address"
        },
        {
          "internalType": "uint256",
          "name": "rewardAmount",
          "type": "uint256"
        },
        {
          "internalType": "int256",
          "name": "targetAccountBalanceDelta",
          "type": "int256"
        }
      ],
      "name": "makeLiquidationPayoutsV2",
      "outputs": [],
      "stateMutability": "nonpayable",
      "type": "function"
    },
    {
      "inputs": [
        {
          "internalType": "address",
          "name": "account",
          "type": "address"
        },
        {
          "internalType": "uint256",
          "name": "timestamp",
          "type": "uint256"
        }
      ],
      "name": "realtimeBalanceOf",
      "outputs": [
        {
          "internalType": "int256",
          "name": "availableBalance",
          "type": "int256"
        },
        {
          "internalType": "uint256",
          "name": "deposit",
          "type": "uint256"
        },
        {
          "internalType": "uint256",
          "name": "owedDeposit",
          "type": "uint256"
        }
      ],
      "stateMutability": "view",
      "type": "function"
    },
    {
      "inputs": [
        {
          "internalType": "address",
          "name": "account",
          "type": "address"
        }
      ],
      "name": "realtimeBalanceOfNow",
      "outputs": [
        {
          "internalType": "int256",
          "name": "availableBalance",
          "type": "int256"
        },
        {
          "internalType": "uint256",
          "name": "deposit",
          "type": "uint256"
        },
        {
          "internalType": "uint256",
          "name": "owedDeposit",
          "type": "uint256"
        },
        {
          "internalType": "uint256",
          "name": "timestamp",
          "type": "uint256"
        }
      ],
      "stateMutability": "view",
      "type": "function"
    },
    {
      "inputs": [
        {
          "internalType": "address",
          "name": "account",
          "type": "address"
        },
        {
          "internalType": "int256",
          "name": "delta",
          "type": "int256"
        }
      ],
      "name": "settleBalance",
      "outputs": [],
      "stateMutability": "nonpayable",
      "type": "function"
    },
    {
      "inputs": [
        {
          "internalType": "bytes32",
          "name": "id",
          "type": "bytes32"
        },
        {
          "internalType": "uint256",
          "name": "dataLength",
          "type": "uint256"
        }
      ],
      "name": "terminateAgreement",
      "outputs": [],
      "stateMutability": "nonpayable",
      "type": "function"
    },
    {
      "inputs": [
        {
          "internalType": "bytes32",
          "name": "id",
          "type": "bytes32"
        },
        {
          "internalType": "bytes32[]",
          "name": "data",
          "type": "bytes32[]"
        }
      ],
      "name": "updateAgreementData",
      "outputs": [],
      "stateMutability": "nonpayable",
      "type": "function"
    },
    {
      "inputs": [
        {
          "internalType": "address",
          "name": "account",
          "type": "address"
        },
        {
          "internalType": "uint256",
          "name": "slotId",
          "type": "uint256"
        },
        {
          "internalType": "bytes32[]",
          "name": "slotData",
          "type": "bytes32[]"
        }
      ],
      "name": "updateAgreementStateSlot",
      "outputs": [],
      "stateMutability": "nonpayable",
      "type": "function"
    },
    {
      "inputs": [
        {
          "internalType": "contract IERC20",
          "name": "underlyingToken",
          "type": "address"
        },
        {
          "internalType": "uint8",
          "name": "underlyingDecimals",
          "type": "uint8"
        },
        {
          "internalType": "string",
          "name": "n",
          "type": "string"
        },
        {
          "internalType": "string",
          "name": "s",
          "type": "string"
        }
      ],
      "name": "initialize",
      "outputs": [],
      "stateMutability": "nonpayable",
      "type": "function"
    },
    {
      "inputs": [],
      "name": "proxiableUUID",
      "outputs": [
        {
          "internalType": "bytes32",
          "name": "",
          "type": "bytes32"
        }
      ],
      "stateMutability": "pure",
      "type": "function"
    },
    {
      "inputs": [
        {
          "internalType": "address",
          "name": "newAddress",
          "type": "address"
        }
      ],
      "name": "updateCode",
      "outputs": [],
      "stateMutability": "nonpayable",
      "type": "function"
    },
    {
      "inputs": [],
      "name": "name",
      "outputs": [
        {
          "internalType": "string",
          "name": "",
          "type": "string"
        }
      ],
      "stateMutability": "view",
      "type": "function"
    },
    {
      "inputs": [],
      "name": "symbol",
      "outputs": [
        {
          "internalType": "string",
          "name": "",
          "type": "string"
        }
      ],
      "stateMutability": "view",
      "type": "function"
    },
    {
      "inputs": [],
      "name": "decimals",
      "outputs": [
        {
          "internalType": "uint8",
          "name": "",
          "type": "uint8"
        }
      ],
      "stateMutability": "pure",
      "type": "function"
    },
    {
      "inputs": [],
      "name": "totalSupply",
      "outputs": [
        {
          "internalType": "uint256",
          "name": "",
          "type": "uint256"
        }
      ],
      "stateMutability": "view",
      "type": "function"
    },
    {
      "inputs": [
        {
          "internalType": "address",
          "name": "account",
          "type": "address"
        }
      ],
      "name": "balanceOf",
      "outputs": [
        {
          "internalType": "uint256",
          "name": "balance",
          "type": "uint256"
        }
      ],
      "stateMutability": "view",
      "type": "function"
    },
    {
      "inputs": [
        {
          "internalType": "address",
          "name": "recipient",
          "type": "address"
        },
        {
          "internalType": "uint256",
          "name": "amount",
          "type": "uint256"
        }
      ],
      "name": "transfer",
      "outputs": [
        {
          "internalType": "bool",
          "name": "",
          "type": "bool"
        }
      ],
      "stateMutability": "nonpayable",
      "type": "function"
    },
    {
      "inputs": [
        {
          "internalType": "address",
          "name": "account",
          "type": "address"
        },
        {
          "internalType": "address",
          "name": "spender",
          "type": "address"
        }
      ],
      "name": "allowance",
      "outputs": [
        {
          "internalType": "uint256",
          "name": "",
          "type": "uint256"
        }
      ],
      "stateMutability": "view",
      "type": "function"
    },
    {
      "inputs": [
        {
          "internalType": "address",
          "name": "spender",
          "type": "address"
        },
        {
          "internalType": "uint256",
          "name": "amount",
          "type": "uint256"
        }
      ],
      "name": "approve",
      "outputs": [
        {
          "internalType": "bool",
          "name": "",
          "type": "bool"
        }
      ],
      "stateMutability": "nonpayable",
      "type": "function"
    },
    {
      "inputs": [
        {
          "internalType": "address",
          "name": "holder",
          "type": "address"
        },
        {
          "internalType": "address",
          "name": "recipient",
          "type": "address"
        },
        {
          "internalType": "uint256",
          "name": "amount",
          "type": "uint256"
        }
      ],
      "name": "transferFrom",
      "outputs": [
        {
          "internalType": "bool",
          "name": "",
          "type": "bool"
        }
      ],
      "stateMutability": "nonpayable",
      "type": "function"
    },
    {
      "inputs": [
        {
          "internalType": "address",
          "name": "spender",
          "type": "address"
        },
        {
          "internalType": "uint256",
          "name": "addedValue",
          "type": "uint256"
        }
      ],
      "name": "increaseAllowance",
      "outputs": [
        {
          "internalType": "bool",
          "name": "",
          "type": "bool"
        }
      ],
      "stateMutability": "nonpayable",
      "type": "function"
    },
    {
      "inputs": [
        {
          "internalType": "address",
          "name": "spender",
          "type": "address"
        },
        {
          "internalType": "uint256",
          "name": "subtractedValue",
          "type": "uint256"
        }
      ],
      "name": "decreaseAllowance",
      "outputs": [
        {
          "internalType": "bool",
          "name": "",
          "type": "bool"
        }
      ],
      "stateMutability": "nonpayable",
      "type": "function"
    },
    {
      "inputs": [],
      "name": "granularity",
      "outputs": [
        {
          "internalType": "uint256",
          "name": "",
          "type": "uint256"
        }
      ],
      "stateMutability": "pure",
      "type": "function"
    },
    {
      "inputs": [
        {
          "internalType": "address",
          "name": "recipient",
          "type": "address"
        },
        {
          "internalType": "uint256",
          "name": "amount",
          "type": "uint256"
        },
        {
          "internalType": "bytes",
          "name": "data",
          "type": "bytes"
        }
      ],
      "name": "send",
      "outputs": [],
      "stateMutability": "nonpayable",
      "type": "function"
    },
    {
      "inputs": [
        {
          "internalType": "uint256",
          "name": "amount",
          "type": "uint256"
        },
        {
          "internalType": "bytes",
          "name": "data",
          "type": "bytes"
        }
      ],
      "name": "burn",
      "outputs": [],
      "stateMutability": "nonpayable",
      "type": "function"
    },
    {
      "inputs": [
        {
          "internalType": "address",
          "name": "operator",
          "type": "address"
        },
        {
          "internalType": "address",
          "name": "tokenHolder",
          "type": "address"
        }
      ],
      "name": "isOperatorFor",
      "outputs": [
        {
          "internalType": "bool",
          "name": "",
          "type": "bool"
        }
      ],
      "stateMutability": "view",
      "type": "function"
    },
    {
      "inputs": [
        {
          "internalType": "address",
          "name": "operator",
          "type": "address"
        }
      ],
      "name": "authorizeOperator",
      "outputs": [],
      "stateMutability": "nonpayable",
      "type": "function"
    },
    {
      "inputs": [
        {
          "internalType": "address",
          "name": "operator",
          "type": "address"
        }
      ],
      "name": "revokeOperator",
      "outputs": [],
      "stateMutability": "nonpayable",
      "type": "function"
    },
    {
      "inputs": [],
      "name": "defaultOperators",
      "outputs": [
        {
          "internalType": "address[]",
          "name": "",
          "type": "address[]"
        }
      ],
      "stateMutability": "view",
      "type": "function"
    },
    {
      "inputs": [
        {
          "internalType": "address",
          "name": "sender",
          "type": "address"
        },
        {
          "internalType": "address",
          "name": "recipient",
          "type": "address"
        },
        {
          "internalType": "uint256",
          "name": "amount",
          "type": "uint256"
        },
        {
          "internalType": "bytes",
          "name": "data",
          "type": "bytes"
        },
        {
          "internalType": "bytes",
          "name": "operatorData",
          "type": "bytes"
        }
      ],
      "name": "operatorSend",
      "outputs": [],
      "stateMutability": "nonpayable",
      "type": "function"
    },
    {
      "inputs": [
        {
          "internalType": "address",
          "name": "account",
          "type": "address"
        },
        {
          "internalType": "uint256",
          "name": "amount",
          "type": "uint256"
        },
        {
          "internalType": "bytes",
          "name": "data",
          "type": "bytes"
        },
        {
          "internalType": "bytes",
          "name": "operatorData",
          "type": "bytes"
        }
      ],
      "name": "operatorBurn",
      "outputs": [],
      "stateMutability": "nonpayable",
      "type": "function"
    },
    {
      "inputs": [
        {
          "internalType": "address",
          "name": "account",
          "type": "address"
        },
        {
          "internalType": "uint256",
          "name": "amount",
          "type": "uint256"
        },
        {
          "internalType": "bytes",
          "name": "userData",
          "type": "bytes"
        }
      ],
      "name": "selfMint",
      "outputs": [],
      "stateMutability": "nonpayable",
      "type": "function"
    },
    {
      "inputs": [
        {
          "internalType": "address",
          "name": "account",
          "type": "address"
        },
        {
          "internalType": "uint256",
          "name": "amount",
          "type": "uint256"
        },
        {
          "internalType": "bytes",
          "name": "userData",
          "type": "bytes"
        }
      ],
      "name": "selfBurn",
      "outputs": [],
      "stateMutability": "nonpayable",
      "type": "function"
    },
    {
      "inputs": [
        {
          "internalType": "address",
          "name": "account",
          "type": "address"
        },
        {
          "internalType": "address",
          "name": "spender",
          "type": "address"
        },
        {
          "internalType": "uint256",
          "name": "amount",
          "type": "uint256"
        }
      ],
      "name": "selfApproveFor",
      "outputs": [],
      "stateMutability": "nonpayable",
      "type": "function"
    },
    {
      "inputs": [
        {
          "internalType": "address",
          "name": "holder",
          "type": "address"
        },
        {
          "internalType": "address",
          "name": "spender",
          "type": "address"
        },
        {
          "internalType": "address",
          "name": "recipient",
          "type": "address"
        },
        {
          "internalType": "uint256",
          "name": "amount",
          "type": "uint256"
        }
      ],
      "name": "selfTransferFrom",
      "outputs": [],
      "stateMutability": "nonpayable",
      "type": "function"
    },
    {
      "inputs": [
        {
          "internalType": "address",
          "name": "recipient",
          "type": "address"
        }
      ],
      "name": "transferAll",
      "outputs": [],
      "stateMutability": "nonpayable",
      "type": "function"
    },
    {
      "inputs": [],
      "name": "getUnderlyingToken",
      "outputs": [
        {
          "internalType": "address",
          "name": "",
          "type": "address"
        }
      ],
      "stateMutability": "view",
      "type": "function"
    },
    {
      "inputs": [
        {
          "internalType": "uint256",
          "name": "amount",
          "type": "uint256"
        }
      ],
      "name": "upgrade",
      "outputs": [],
      "stateMutability": "nonpayable",
      "type": "function"
    },
    {
      "inputs": [
        {
          "internalType": "address",
          "name": "to",
          "type": "address"
        },
        {
          "internalType": "uint256",
          "name": "amount",
          "type": "uint256"
        },
        {
          "internalType": "bytes",
          "name": "data",
          "type": "bytes"
        }
      ],
      "name": "upgradeTo",
      "outputs": [],
      "stateMutability": "nonpayable",
      "type": "function"
    },
    {
      "inputs": [
        {
          "internalType": "uint256",
          "name": "amount",
          "type": "uint256"
        }
      ],
      "name": "downgrade",
      "outputs": [],
      "stateMutability": "nonpayable",
      "type": "function"
    },
    {
      "inputs": [
        {
          "internalType": "address",
          "name": "account",
          "type": "address"
        },
        {
          "internalType": "address",
          "name": "spender",
          "type": "address"
        },
        {
          "internalType": "uint256",
          "name": "amount",
          "type": "uint256"
        }
      ],
      "name": "operationApprove",
      "outputs": [],
      "stateMutability": "nonpayable",
      "type": "function"
    },
    {
      "inputs": [
        {
          "internalType": "address",
          "name": "account",
          "type": "address"
        },
        {
          "internalType": "address",
          "name": "spender",
          "type": "address"
        },
        {
          "internalType": "address",
          "name": "recipient",
          "type": "address"
        },
        {
          "internalType": "uint256",
          "name": "amount",
          "type": "uint256"
        }
      ],
      "name": "operationTransferFrom",
      "outputs": [],
      "stateMutability": "nonpayable",
      "type": "function"
    },
    {
      "inputs": [
        {
          "internalType": "address",
          "name": "account",
          "type": "address"
        },
        {
          "internalType": "uint256",
          "name": "amount",
          "type": "uint256"
        }
      ],
      "name": "operationUpgrade",
      "outputs": [],
      "stateMutability": "nonpayable",
      "type": "function"
    },
    {
      "inputs": [
        {
          "internalType": "address",
          "name": "account",
          "type": "address"
        },
        {
          "internalType": "uint256",
          "name": "amount",
          "type": "uint256"
        }
      ],
      "name": "operationDowngrade",
      "outputs": [],
      "stateMutability": "nonpayable",
      "type": "function"
    }
  ],
  "bytecode": "0x60a06040523480156200001157600080fd5b5060405162004bf238038062004bf2833981016040819052620000349162000143565b6001600160a01b038416608052600e80546001600160a01b03191633179055601062000061848262000264565b50601162000070838262000264565b506003555062000330915050565b634e487b7160e01b600052604160045260246000fd5b600082601f830112620000a657600080fd5b81516001600160401b0380821115620000c357620000c36200007e565b604051601f8301601f19908116603f01168101908282118183101715620000ee57620000ee6200007e565b816040528381526020925086838588010111156200010b57600080fd5b600091505b838210156200012f578582018301518183018401529082019062000110565b600093810190920192909252949350505050565b600080600080608085870312156200015a57600080fd5b84516001600160a01b03811681146200017257600080fd5b60208601519094506001600160401b03808211156200019057600080fd5b6200019e8883890162000094565b94506040870151915080821115620001b557600080fd5b50620001c48782880162000094565b606096909601519497939650505050565b600181811c90821680620001ea57607f821691505b6020821081036200020b57634e487b7160e01b600052602260045260246000fd5b50919050565b601f8211156200025f57600081815260208120601f850160051c810160208610156200023a5750805b601f850160051c820191505b818110156200025b5782815560010162000246565b5050505b505050565b81516001600160401b038111156200028057620002806200007e565b6200029881620002918454620001d5565b8462000211565b602080601f831160018114620002d05760008415620002b75750858301515b600019600386901b1c1916600185901b1785556200025b565b600085815260208120601f198616915b828110156200030157888601518255948401946001909101908401620002e0565b5085821015620003205787850151600019600388901b60f8161c191681555b5050505050600190811b01905550565b60805161483d620003b56000396000818161043201528181610b0901528181610b7c01528181610e2501528181610f840152818161106c0152818161135d015281816114bd0152818161168801528181611aac01528181611b6f01528181611bfb01528181612410015281816124c00152818161370101526138fa015261483d6000f3fe608060405234801561001057600080fd5b50600436106103625760003560e01c806362ad1b83116101c8578063a9059cbb11610104578063d9d078d6116100a2578063ee719bc81161007c578063ee719bc8146107b2578063fad8b32a146107c3578063fc673c4f146107d6578063fe9d9303146107e957600080fd5b8063d9d078d614610738578063dd62ed3e1461074b578063eb3537cc1461078457600080fd5b8063c68d4283116100de578063c68d4283146106ec578063ca789464146106ff578063cf97256d14610712578063d95b63711461072557600080fd5b8063a9059cbb146106b3578063b84cdd4a146106c6578063bb0d196e146106d957600080fd5b806395d89b41116101715780639d8767411161014b5780639d87674114610667578063a1b2bf8b1461067a578063a3a7e7f31461068d578063a457c2d7146106a057600080fd5b806395d89b41146106445780639903ad381461064c5780639bd9bbc61461065457600080fd5b806370a08231116101a257806370a082311461060b57806379359f6f1461061e578063959b8c3f1461063157600080fd5b806362ad1b83146105d257806366a12fb6146105e55780636c2d9f2f146105f857600080fd5b80632ec8eec7116102a2578063469519541161024057806352d1902d1161021a57806352d1902d1461057f578063556f0dc7146105a55780635b9d09cc146105ac57806362aa5287146105bf57600080fd5b806346951954146105445780634b61cc331461055757806350d75d251461057757600080fd5b8063395093511161027c57806339509351146104f857806341b706be1461050b57806342fe09801461051e57806345977d031461053157600080fd5b80632ec8eec7146104a3578063313ce567146104d6578063386fa221146104e557600080fd5b806316d055d61161030f57806320bc4425116102e957806320bc44251461043057806323b872dd1461046a578063245887fc1461047d578063270483971461049057600080fd5b806316d055d6146103f857806318160ddd1461040b5780631863e8091461041d57600080fd5b8063095ea7b311610340578063095ea7b3146103af57806311bcc81e146103d257806312a6a3f8146103e557600080fd5b806306e485381461036757806306fdde0314610385578063090c415e1461039a575b600080fd5b61036f6107fc565b60405161037c9190613b09565b60405180910390f35b61038d61080d565b60405161037c9190613ba6565b6103ad6103a8366004613c1a565b61089f565b005b6103c26103bd366004613c76565b610999565b604051901515815260200161037c565b6103ad6103e0366004613ca2565b6109b0565b6103ad6103f3366004613cbb565b6109de565b6103ad610406366004613d07565b610b07565b6003545b60405190815260200161037c565b6103ad61042b366004613e1d565b610b67565b7f00000000000000000000000000000000000000000000000000000000000000005b6040516001600160a01b03909116815260200161037c565b6103c2610478366004613eb0565b610e0b565b6103ad61048b366004613c76565b610e23565b6103ad61049e366004613ef1565b610e9f565b6104b66104b1366004613f13565b610f7c565b60408051948552602085019390935291830152606082015260800161037c565b6040516012815260200161037c565b61036f6104f3366004613f13565b61101f565b6103c2610506366004613c76565b6110db565b6103ad610519366004613d07565b611117565b6103ad61052c366004613f72565b611143565b6103ad61053f366004613ca2565b611326565b6103ad610552366004613f13565b611352565b61056a61056536600461400d565b6113a8565b60405161037c9190614053565b610452611438565b7f6bfbb132610e56cb96575dba244667b9d6dbfeffe22b68a79fa16f2d18eb001961040f565b600161040f565b6103ad6105ba36600461408b565b611462565b6103ad6105cd366004613eb0565b6114bb565b6103ad6105e03660046140db565b611518565b6103ad6105f3366004613eb0565b6115c6565b61056a61060636600461417a565b6115e6565b61040f610619366004613f13565b611658565b6103c261062c366004613f13565b611680565b6103ad61063f366004613f13565b611708565b61038d611759565b6103ad611768565b6103ad61066236600461408b565b611880565b6103ad6106753660046141af565b6118d4565b6103ad610688366004613cbb565b611914565b6103ad61069b366004613f13565b6119e2565b6103c26106ae366004613c76565b6119f6565b6103c26106c1366004613c76565b611a45565b6103c26106d4366004613c76565b611a53565b6103c26106e7366004613f13565b611aa4565b6103ad6106fa3660046141af565b611b2c565b6103ad61070d366004613c76565b611b6d565b6103ad610720366004613c76565b611be6565b6103c2610733366004614208565b611cd3565b6103c2610746366004613c76565b611ce1565b61040f610759366004614208565b6001600160a01b03918216600090815260126020908152604080832093909416825291909152205490565b610797610792366004613c76565b611cfb565b6040805193845260208401929092529082015260600161037c565b600f546001600160a01b0316610452565b6103ad6107d1366004613f13565b611e4e565b6103ad6107e4366004614241565b611e9f565b6103ad6107f7366004614289565b611f3f565b60606108086013611f8f565b905090565b60606010805461081c906142c8565b80601f0160208091040260200160405190810160405280929190818152602001828054610848906142c8565b80156108955780601f1061086a57610100808354040283529160200191610895565b820191906000526020600020905b81548152906001019060200180831161087857829003601f168201915b5050505050905090565b60408051608060208201819052600e60a08301527f41677265656d656e74537461746500000000000000000000000000000000000060c083015233928201929092526001600160a01b038616606082015290810184905260009060e00160405160208183030381529060405280519060200120905061095181848480806020026020016040519081016040528093929190818152602001838360200280828437600092019190915250611ff592505050565b6040518481526001600160a01b0386169033907f30f416fa68fca014a0f334464c64b000ba53e99b6d2afdea9d5ca756372d5985906020015b60405180910390a35050505050565b60006109a6338484612036565b5060015b92915050565b6109db33338360405180602001604052806000815250604051806020016040528060008152506120ee565b50565b60408051606060208201819052600d60808301526c41677265656d656e744461746160981b60a083015233928201839052810185905260009060c00160408051601f1981840301815291905280516020909101209050610a3e81846122a7565b15610a7e576040517f5b5b42a500000000000000000000000000000000000000000000000000000000815261138860048201526024015b60405180910390fd5b610abb81858580806020026020016040519081016040528093929190818152602001838360200280828437600092019190915250611ff592505050565b816001600160a01b03167f770ea40a13a4644573ed785e5c7116890709947918747febc5add46feb531e2d868686604051610af893929190614302565b60405180910390a25050505050565b7f00000000000000000000000000000000000000000000000000000000000000006001600160a01b03163314610b5457604051632a94f67960e21b81526115186004820152602401610a75565b610b60848484846122e3565b5050505050565b604051632329212160e21b81523360048201527f00000000000000000000000000000000000000000000000000000000000000006001600160a01b031690638ca4848490602401602060405180830381865afa158015610bcb573d6000803e3d6000fd5b505050506040513d601f19601f82011682018060405250810190610bef919061435b565b610c1057604051639aca506b60e01b81526114b46004820152602401610a75565b6000610c1a61240b565b90506001600160a01b038116610c2d5750845b600085610c3a5786610c3c565b815b905060008313610cd957610c4f8361438e565b610c5885612569565b14610c6557610c656143c6565b610c6e84612569565b6001600160a01b03821660009081526002602052604081208054909190610c969084906143dc565b90915550506001600160a01b03851660009081526002602052604081208054859290610cc39084906143dc565b90915550610cd49050858286612605565b610da3565b8515610ce757610ce76143c6565b82610cf185612569565b610cfb91906143dc565b6001600160a01b03831660009081526002602052604081208054909190610d23908490614404565b90915550610d32905084612569565b6001600160a01b03881660009081526002602052604081208054909190610d5a9084906143dc565b90915550506001600160a01b03851660009081526002602052604081208054859290610d879084906143dc565b90915550610d989050828886612605565b610da3828685612605565b846001600160a01b0316876001600160a01b0316336001600160a01b03167fb8381a3ce157650e06186e3e8f4dd4dc29236f2688b6eed1893d0a60d7c6386f8c8589898f604051610df8959493929190614424565b60405180910390a4505050505050505050565b6000610e19338585856122e3565b90505b9392505050565b7f00000000000000000000000000000000000000000000000000000000000000006001600160a01b03163314610e7057604051632a94f67960e21b81526115186004820152602401610a75565b610e9b33838360405180602001604052806000815250604051806020016040528060008152506120ee565b5050565b60408051606060208201819052600d60808301526c41677265656d656e744461746160981b60a083015233928201839052810184905260009060c001604051602081830303815290604052805190602001209050610efd81846122a7565b610f37576040517f9995b0c10000000000000000000000000000000000000000000000000000000081526113896004820152602401610a75565b610f41818461264a565b60405184815233907f71a63dc095de07aa5512ad57a7596a39516317e316981a1cd71000057be1537b9060200160405180910390a250505050565b6000806000807f00000000000000000000000000000000000000000000000000000000000000006001600160a01b031663bbe4fd506040518163ffffffff1660e01b8152600401602060405180830381865afa158015610fe0573d6000803e3d6000fd5b505050506040513d601f19601f820116820180604052508101906110049190614458565b90506110108582611cfb565b91979096509094509092509050565b6001600160a01b03818116600090815260016020526040908190205490517fc56a069d000000000000000000000000000000000000000000000000000000008152901960048201526060917f0000000000000000000000000000000000000000000000000000000000000000169063c56a069d90602401600060405180830381865afa1580156110b3573d6000803e3d6000fd5b505050506040513d6000823e601f3d908101601f191682016040526109aa9190810190614471565b3360008181526012602090815260408083206001600160a01b038716845290915281205490916109a6918590611112908690614523565b612036565b33301461113757604051630fff4cc960e31b815260040160405180910390fd5b610b60838584846122e3565b600054610100900460ff16158080156111635750600054600160ff909116105b8061117d5750303b15801561117d575060005460ff166001145b6111ef5760405162461bcd60e51b815260206004820152602e60248201527f496e697469616c697a61626c653a20636f6e747261637420697320616c72656160448201527f647920696e697469616c697a65640000000000000000000000000000000000006064820152608401610a75565b6000805460ff191660011790558015611212576000805461ff0019166101001790555b600f805460ff8816600160a01b027fffffffffffffffffffffff0000000000000000000000000000000000000000009091166001600160a01b038a161717905561125b3061266b565b60405160008082529081907fddf252ad1be2c89b69c2b068fc378daa952ba7f163c4a11628f55a4df523b3ef9060200160405180910390a36112d730600e60009054906101000a90046001600160a01b031660035460006040518060200160405280600081525060405180602001604052806000815250612799565b801561131d576000805461ff0019169055604051600181527f7f26b83ff96e1f2b6a682f133852f6798a09c465da95921460cefb38474024989060200160405180910390a15b50505050505050565b6109db333333846040518060200160405280600081525060405180602001604052806000815250612877565b336001600160a01b037f0000000000000000000000000000000000000000000000000000000000000000161461139f57604051632a94f67960e21b81526119006004820152602401610a75565b6109db81612a4c565b60408051608060208201819052600e60a08301527f41677265656d656e74537461746500000000000000000000000000000000000060c08301526001600160a01b038088169383019390935291851660608281019190915291810184905260009060e00160405160208183030381529060405280519060200120905061142e8184612ca0565b9695505050505050565b60006108087f360894a13ba1a3210667c828492db98dca3e2076cc3735a920a3ca505d382bbc5490565b6114b5333386866040518060200160405280600081525087878080601f01602080910402602001604051908101604052809392919081815260200183838082843760009201919091525061287792505050565b50505050565b7f00000000000000000000000000000000000000000000000000000000000000006001600160a01b0316331461150857604051632a94f67960e21b81526115186004820152602401610a75565b611513838383612036565b505050565b336115256013828a612d30565b6115425760405163f7f0222760e01b815260040160405180910390fd5b6115bc8189898989898080601f01602080910402602001604051908101604052809392919081815260200183838082843760009201919091525050604080516020601f8d018190048102820181019092528b815292508b91508a908190840183828082843760009201919091525060019250612dd9915050565b5050505050505050565b33301461150857604051630fff4cc960e31b815260040160405180910390fd5b60408051606060208201819052600d60808301526c41677265656d656e744461746160981b60a08301526001600160a01b0386169282019290925280820184905260009060c00160405160208183030381529060405280519060200120905061164f8184612ca0565b95945050505050565b60008061166483610f7c565b5050509050600081126116775780610e1c565b60009392505050565b60006109aa827f00000000000000000000000000000000000000000000000000000000000000006001600160a01b031663bbe4fd506040518163ffffffff1660e01b8152600401602060405180830381865afa1580156116e4573d6000803e3d6000fd5b505050506040513d601f19601f820116820180604052508101906107469190614458565b3361171560138284612e5a565b806001600160a01b0316826001600160a01b03167ff4caeb2d6ca8932a215a353d0703c326ec2d81fc68170f320eb2ab49e9df61f960405160405180910390a35050565b60606011805461081c906142c8565b600054610100900460ff16158080156117885750600054600160ff909116105b806117a25750303b1580156117a2575060005460ff166001145b6118145760405162461bcd60e51b815260206004820152602e60248201527f496e697469616c697a61626c653a20636f6e747261637420697320616c72656160448201527f647920696e697469616c697a65640000000000000000000000000000000000006064820152608401610a75565b6000805460ff191660011790558015611837576000805461ff0019166101001790555b80156109db576000805461ff0019169055604051600181527f7f26b83ff96e1f2b6a682f133852f6798a09c465da95921460cefb3847402498906020015b60405180910390a150565b6114b53333868686868080601f01602080910402602001604051908101604052809392919081815260200183838082843760009201829052506040805160208101909152908152925060019150612dd99050565b3330146118f457604051630fff4cc960e31b815260040160405180910390fd5b604080516000815260208101909152611513903390859085908590612f6e565b60408051606060208201819052600d60808301526c41677265656d656e744461746160981b60a083015233928201839052810185905260009060c0016040516020818303038152906040528051906020012090506119a581858580806020026020016040519081016040528093929190818152602001838360200280828437600092019190915250611ff592505050565b336001600160a01b03167f0c4c547b3a4fcaa5be8353b3111472b124155bccc86de811d4a481c9e6e9faca868686604051610af893929190614302565b610e9b3333836119f133611658565b6122e3565b60006109a63384611112856040518060600160405280602a81526020016147b1602a91393360009081526012602090815260408083206001600160a01b038d168452909152902054919061303f565b6000610e1c333385856122e3565b600080600080611a638686611cfb565b9250925092506000611a8b828411611a7c576000612569565b611a868385614536565b612569565b611a9590856143dc565b60001315979650505050505050565b60006109aa827f00000000000000000000000000000000000000000000000000000000000000006001600160a01b031663bbe4fd506040518163ffffffff1660e01b8152600401602060405180830381865afa158015611b08573d6000803e3d6000fd5b505050506040513d601f19601f820116820180604052508101906106d49190614458565b333014611b4c57604051630fff4cc960e31b815260040160405180910390fd5b60408051600080825260208201909252611513913391869186918690612799565b7f00000000000000000000000000000000000000000000000000000000000000006001600160a01b03163314611bba57604051632a94f67960e21b81526115186004820152602401610a75565b610e9b338384846040518060200160405280600081525060405180602001604052806000815250612877565b604051632329212160e21b81523360048201527f00000000000000000000000000000000000000000000000000000000000000006001600160a01b031690638ca4848490602401602060405180830381865afa158015611c4a573d6000803e3d6000fd5b505050506040513d601f19601f82011682018060405250810190611c6e919061435b565b611c8f57604051639aca506b60e01b81526114b46004820152602401610a75565b6001600160a01b038216600090815260026020526040902054611cb39082906143dc565b6001600160a01b0390921660009081526002602052604090209190915550565b6000610e1c60138484612d30565b600080611cee8484611cfb565b5050600013949350505050565b6001600160a01b038216600090815260026020526040812054908080611d208661101f565b905060005b8151811015611e45576000806000848481518110611d4557611d45614549565b60209081029190910101516040517f9b2e48bc0000000000000000000000000000000000000000000000000000000081523060048201526001600160a01b038c81166024830152604482018c905290911690639b2e48bc90606401606060405180830381865afa158015611dbd573d6000803e3d6000fd5b505050506040513d601f19601f82011682018060405250810190611de1919061455f565b91945092509050611df28288614523565b9650611dfe8187614523565b9550611e1b818311611e11576000612569565b611a868284614536565b611e25848a6143dc565b611e2f9190614404565b975050505080611e3e9061458d565b9050611d25565b50509250925092565b33611e5b6013828461306b565b806001600160a01b0316826001600160a01b03167f50546e66e5f44d728365dc3908c63bc5cfeeab470722c1677e3073a6ac294aa160405160405180910390a35050565b33611eac60138289612d30565b611ec95760405163f7f0222760e01b815260040160405180910390fd5b61131d81888888888080601f01602080910402602001604051908101604052809392919081815260200183838082843760009201919091525050604080516020601f8c018190048102820181019092528a815292508a91508990819084018382808284376000920191909152506120ee92505050565b61151333338585858080601f0160208091040260200160405190810160405280939291908181526020018383808284376000920182905250604080516020810190915290815292506120ee915050565b606081600001805480602002602001604051908101604052809291908181526020018280548015611fe957602002820191906000526020600020905b81546001600160a01b03168152600190910190602001808311611fcb575b50505050509050919050565b60005b815181101561151357600082828151811061201557612015614549565b602002602001015190508082850155508061202f9061458d565b9050611ff8565b6001600160a01b0383166120615760405163e961d6ff60e01b81526119646004820152602401610a75565b6001600160a01b03821661208c5760405163e961d6ff60e01b81526119656004820152602401610a75565b6001600160a01b0383811660008181526012602090815260408083209487168084529482529182902085905590518481527f8c5be1e5ebec7d5bd14f71427d1e84f3dd0314c0f7b2291e5b200ac8c7c3b92591015b60405180910390a3505050565b600f546001600160a01b031661211757604051637bce7b2b60e11b815260040160405180910390fd5b60008061212385613176565b915091506121348787838787612f6e565b600f546040516370a0823160e01b81523060048201526000916001600160a01b0316906370a0823190602401602060405180830381865afa15801561217d573d6000803e3d6000fd5b505050506040513d601f19601f820116820180604052508101906121a19190614458565b600f549091506121bb906001600160a01b03168885613232565b600f546040516370a0823160e01b81523060048201526000916001600160a01b0316906370a0823190602401602060405180830381865afa158015612204573d6000803e3d6000fd5b505050506040513d601f19601f820116820180604052508101906122289190614458565b905060006122368284614536565b905080851461225857604051631c7c26d360e31b815260040160405180910390fd5b886001600160a01b03167f3bc27981aebbb57f9247dc00fde9d6cd91e4b230083fec3238fedbcba1f9ab3d8560405161229391815260200190565b60405180910390a250505050505050505050565b6000805b828110156122d9578381015480156122c8576001925050506109aa565b506122d28161458d565b90506122ab565b5060009392505050565b60006001600160a01b0384166123105760405163e961d6ff60e01b81526119686004820152602401610a75565b6001600160a01b03831661233b5760405163e961d6ff60e01b81526119696004820152602401610a75565b600033905061236c8186868660405180602001604052806000815250604051806020016040528060008152506132db565b846001600160a01b0316866001600160a01b0316146123ff576123ff8587611112866040518060600160405280602d81526020016147db602d9139601260008c6001600160a01b03166001600160a01b0316815260200190815260200160002060008d6001600160a01b03166001600160a01b031681526020019081526020016000205461303f9092919063ffffffff16565b50600195945050505050565b6000807f00000000000000000000000000000000000000000000000000000000000000006001600160a01b031663289b3c0d6040518163ffffffff1660e01b8152600401602060405180830381865afa15801561246c573d6000803e3d6000fd5b505050506040513d601f19601f8201168201806040525081019061249091906145a6565b6040517f8369a0f10000000000000000000000000000000000000000000000000000000081526001600160a01b037f0000000000000000000000000000000000000000000000000000000000000000811660048301523060248301527f9f60ae461adf056670e03ae602566409933242392cb06744f5747c9f38b05d09604483015291925090821690638369a0f190606401602060405180830381865afa15801561253f573d6000803e3d6000fd5b505050506040513d601f19601f8201168201806040525081019061256391906145a6565b91505090565b60007f7fffffffffffffffffffffffffffffffffffffffffffffffffffffffffffffff8211156126015760405162461bcd60e51b815260206004820152602860248201527f53616665436173743a2076616c756520646f65736e27742066697420696e206160448201527f6e20696e743235360000000000000000000000000000000000000000000000006064820152608401610a75565b5090565b816001600160a01b0316836001600160a01b03167fddf252ad1be2c89b69c2b068fc378daa952ba7f163c4a11628f55a4df523b3ef836040516120e191815260200190565b60005b81811015611513576000838201556126648161458d565b905061264d565b6040516329965a1d60e01b81526001600160a01b03821660048201527fac7fbab5f54a3ca8194167523c6753bfeb96a445279294b6125b68cce21770546024820152306044820152731820a4b7618bde71dce8cdc73aab6c95905fad24906329965a1d90606401600060405180830381600087803b1580156126ec57600080fd5b505af1158015612700573d6000803e3d6000fd5b50506040516329965a1d60e01b81526001600160a01b03841660048201527faea199e31a596269b42cdafd93407f14436db6e4cad65417994c2eb37381e05a6024820152306044820152731820a4b7618bde71dce8cdc73aab6c95905fad2492506329965a1d9150606401600060405180830381600087803b15801561278557600080fd5b505af1158015610b60573d6000803e3d6000fd5b6001600160a01b0385166127c45760405163e961d6ff60e01b81526119676004820152602401610a75565b6127ce858561338c565b6127de86600087878686896133e6565b846001600160a01b0316866001600160a01b03167f2fe5be0146f74c5bce36c0b80911af6c7d86ff27e89d5cfa61fc681327954e5d868585604051612825939291906145c3565b60405180910390a36040518481526001600160a01b038616906000907fddf252ad1be2c89b69c2b068fc378daa952ba7f163c4a11628f55a4df523b3ef906020015b60405180910390a3505050505050565b600f546001600160a01b03166128a057604051637bce7b2b60e11b815260040160405180910390fd5b6000806128ac85613176565b600f546040516370a0823160e01b81523060048201529294509092506000916001600160a01b03909116906370a0823190602401602060405180830381865afa1580156128fd573d6000803e3d6000fd5b505050506040513d601f19601f820116820180604052508101906129219190614458565b600f5490915061293c906001600160a01b0316893086613568565b600f546040516370a0823160e01b81523060048201526000916001600160a01b0316906370a0823190602401602060405180830381865afa158015612985573d6000803e3d6000fd5b505050506040513d601f19601f820116820180604052508101906129a99190614458565b905060006129b78383614536565b90508085146129d957604051631c7c26d360e31b815260040160405180910390fd5b6129fc8b8a868c6001600160a01b03168e6001600160a01b031614158b8b612799565b886001600160a01b03167f25ca84076773b0455db53621c459ddc84fe40840e4932a62706a032566f399df85604051612a3791815260200190565b60405180910390a25050505050505050505050565b6000612a767f360894a13ba1a3210667c828492db98dca3e2076cc3735a920a3ca505d382bbc5490565b6001600160a01b031603612acc5760405162461bcd60e51b815260206004820152601d60248201527f5555505350726f786961626c653a206e6f742075706772616461626c650000006044820152606401610a75565b806001600160a01b03166352d1902d6040518163ffffffff1660e01b8152600401602060405180830381865afa158015612b0a573d6000803e3d6000fd5b505050506040513d601f19601f82011682018060405250810190612b2e9190614458565b7f6bfbb132610e56cb96575dba244667b9d6dbfeffe22b68a79fa16f2d18eb001914612bc25760405162461bcd60e51b815260206004820152602360248201527f5555505350726f786961626c653a206e6f7420636f6d70617469626c65206c6f60448201527f67696300000000000000000000000000000000000000000000000000000000006064820152608401610a75565b6001600160a01b0381163003612c1a5760405162461bcd60e51b815260206004820152601960248201527f5555505350726f786961626c653a2070726f7879206c6f6f70000000000000006044820152606401610a75565b612c42817f360894a13ba1a3210667c828492db98dca3e2076cc3735a920a3ca505d382bbc55565b7fe011bc04c286c344a8fcbb8de77f953da762c3e25d8cdea984147fc4168a5dcc7f6bfbb132610e56cb96575dba244667b9d6dbfeffe22b68a79fa16f2d18eb0019604080519182526001600160a01b038416602083015201611875565b60608167ffffffffffffffff811115612cbb57612cbb613d58565b604051908082528060200260200182016040528015612ce4578160200160208202803683370190505b50905060005b82811015612d2957600081850154905080838381518110612d0d57612d0d614549565b602090810291909101015250612d228161458d565b9050612cea565b5092915050565b6000816001600160a01b0316836001600160a01b03161480612d9f57506001600160a01b038316600090815260018501602052604090205460ff168015612d9f57506001600160a01b03808316600090815260038601602090815260408083209387168352929052205460ff16155b80610e1957506001600160a01b03808316600090815260028601602090815260408083209387168352929052205460ff1690509392505050565b6001600160a01b038616612e045760405163e961d6ff60e01b81526119686004820152602401610a75565b6001600160a01b038516612e2f5760405163e961d6ff60e01b81526119696004820152602401610a75565b612e3d8787878787876135b9565b612e4b8787878787876132db565b61131d878787878787876133e6565b806001600160a01b0316826001600160a01b031603612ee15760405162461bcd60e51b815260206004820152602d60248201527f4552433737374f70657261746f72733a20617574686f72697a696e672073656c60448201527f66206173206f70657261746f72000000000000000000000000000000000000006064820152608401610a75565b6001600160a01b038116600090815260018401602052604090205460ff1615612f37576001600160a01b03918216600090815260039390930160209081526040808520929093168452529020805460ff19169055565b6001600160a01b0380831660009081526002850160209081526040808320938516835292905220805460ff19166001179055505050565b6001600160a01b038416612f995760405163e961d6ff60e01b81526119666004820152602401610a75565b612fa8858560008686866135b9565b612fb284846136f9565b836001600160a01b0316856001600160a01b03167fa78a9be3a7b862d26933ad85fb11d80ef66b8f972d7cbba06621d583943a4098858585604051612ff9939291906145c3565b60405180910390a36040518381526000906001600160a01b038616907fddf252ad1be2c89b69c2b068fc378daa952ba7f163c4a11628f55a4df523b3ef9060200161098a565b600081848411156130635760405162461bcd60e51b8152600401610a759190613ba6565b505050900390565b336001600160a01b038216036130e95760405162461bcd60e51b815260206004820152602a60248201527f4552433737374f70657261746f72733a207265766f6b696e672073656c66206160448201527f73206f70657261746f72000000000000000000000000000000000000000000006064820152608401610a75565b6001600160a01b038116600090815260018401602052604090205460ff1615613143576001600160a01b0380831660009081526003850160209081526040808320938516835292905220805460ff19166001179055505050565b6001600160a01b03918216600090815260029390930160209081526040808520929093168452529020805460ff19169055565b600f54600090819081906012600160a01b90910460ff1610156131d557600f546131ab90600160a01b900460ff1660126145ee565b6131b690600a6146eb565b90506131c281856146fa565b92506131ce818461471c565b915061322c565b600f546012600160a01b90910460ff16111561322557600f5461320490601290600160a01b900460ff166145ee565b61320f90600a6146eb565b905061321b818561471c565b925083915061322c565b8391508192505b50915091565b6040516001600160a01b0383166024820152604481018290526115139084907fa9059cbb00000000000000000000000000000000000000000000000000000000906064015b60408051601f198184030181529190526020810180517bffffffffffffffffffffffffffffffffffffffffffffffffffffffff167fffffffff000000000000000000000000000000000000000000000000000000009093169290921790915261380d565b6132ee85856132e986612569565b6138f2565b836001600160a01b0316856001600160a01b0316876001600160a01b03167f06b541ddaa720db2b10a4d0cdac39b8d360425fc073085fac19bc8261467798786868660405161333f939291906145c3565b60405180910390a4836001600160a01b0316856001600160a01b03167fddf252ad1be2c89b69c2b068fc378daa952ba7f163c4a11628f55a4df523b3ef8560405161286791815260200190565b61339581612569565b6001600160a01b0383166000908152600260205260409020546133b891906143dc565b6001600160a01b0383166000908152600260205260409020556003546133df908290614523565b6003555050565b60405163555ddc6560e11b81526001600160a01b03861660048201527fb281fc8c12954d22544db45de3159a39272895b169a852b314f9cc762e44c53b6024820152600090731820a4b7618bde71dce8cdc73aab6c95905fad249063aabbb8ca90604401602060405180830381865afa158015613467573d6000803e3d6000fd5b505050506040513d601f19601f8201168201806040525081019061348b91906145a6565b90506001600160a01b03811615613520576040517e23de290000000000000000000000000000000000000000000000000000000081526001600160a01b038216906223de29906134e9908b908b908b908b908b908b9060040161473b565b600060405180830381600087803b15801561350357600080fd5b505af1158015613517573d6000803e3d6000fd5b505050506115bc565b81156115bc576001600160a01b0386163b156115bc576040517ffe737d0500000000000000000000000000000000000000000000000000000000815260040160405180910390fd5b6040516001600160a01b03808516602483015283166044820152606481018290526114b59085907f23b872dd0000000000000000000000000000000000000000000000000000000090608401613277565b60405163555ddc6560e11b81526001600160a01b03861660048201527f29ddb589b1fb5fc7cf394961c1adf5f8c6454761adf795e67fe149f658abe8956024820152600090731820a4b7618bde71dce8cdc73aab6c95905fad249063aabbb8ca90604401602060405180830381865afa15801561363a573d6000803e3d6000fd5b505050506040513d601f19601f8201168201806040525081019061365e91906145a6565b90506001600160a01b0381161561131d576040517f75ab97820000000000000000000000000000000000000000000000000000000081526001600160a01b038216906375ab9782906136be908a908a908a908a908a908a9060040161473b565b600060405180830381600087803b1580156136d857600080fd5b505af11580156136ec573d6000803e3d6000fd5b5050505050505050505050565b6000613781837f00000000000000000000000000000000000000000000000000000000000000006001600160a01b031663bbe4fd506040518163ffffffff1660e01b8152600401602060405180830381865afa15801561375d573d6000803e3d6000fd5b505050506040513d601f19601f820116820180604052508101906107929190614458565b5050905061378e82612569565b8112156137b257604051636212897360e01b81526113ec6004820152602401610a75565b6137bb82612569565b6001600160a01b0384166000908152600260205260409020546137de9190614404565b6001600160a01b038416600090815260026020526040902055600354613805908390614536565b600355505050565b6000613862826040518060400160405280602081526020017f5361666545524332303a206c6f772d6c6576656c2063616c6c206661696c6564815250856001600160a01b03166139f59092919063ffffffff16565b8051909150156115135780806020019051810190613880919061435b565b6115135760405162461bcd60e51b815260206004820152602a60248201527f5361666545524332303a204552433230206f7065726174696f6e20646964206e60448201527f6f742073756363656564000000000000000000000000000000000000000000006064820152608401610a75565b6000613956847f00000000000000000000000000000000000000000000000000000000000000006001600160a01b031663bbe4fd506040518163ffffffff1660e01b8152600401602060405180830381865afa15801561375d573d6000803e3d6000fd5b505090508181121561397f57604051636212897360e01b81526113ed6004820152602401610a75565b6001600160a01b0384166000908152600260205260409020546139a3908390614404565b6001600160a01b0380861660009081526002602052604080822093909355908516815220546139d39083906143dc565b6001600160a01b03909316600090815260026020526040902092909255505050565b6060610e198484600085856001600160a01b0385163b613a575760405162461bcd60e51b815260206004820152601d60248201527f416464726573733a2063616c6c20746f206e6f6e2d636f6e74726163740000006044820152606401610a75565b600080866001600160a01b03168587604051613a739190614794565b60006040518083038185875af1925050503d8060008114613ab0576040519150601f19603f3d011682016040523d82523d6000602084013e613ab5565b606091505b5091509150613ac5828286613ad0565b979650505050505050565b60608315613adf575081610e1c565b825115613aef5782518084602001fd5b8160405162461bcd60e51b8152600401610a759190613ba6565b6020808252825182820181905260009190848201906040850190845b81811015613b4a5783516001600160a01b031683529284019291840191600101613b25565b50909695505050505050565b60005b83811015613b71578181015183820152602001613b59565b50506000910152565b60008151808452613b92816020860160208601613b56565b601f01601f19169290920160200192915050565b602081526000610e1c6020830184613b7a565b6001600160a01b03811681146109db57600080fd5b60008083601f840112613be057600080fd5b50813567ffffffffffffffff811115613bf857600080fd5b6020830191508360208260051b8501011115613c1357600080fd5b9250929050565b60008060008060608587031215613c3057600080fd5b8435613c3b81613bb9565b935060208501359250604085013567ffffffffffffffff811115613c5e57600080fd5b613c6a87828801613bce565b95989497509550505050565b60008060408385031215613c8957600080fd5b8235613c9481613bb9565b946020939093013593505050565b600060208284031215613cb457600080fd5b5035919050565b600080600060408486031215613cd057600080fd5b83359250602084013567ffffffffffffffff811115613cee57600080fd5b613cfa86828701613bce565b9497909650939450505050565b60008060008060808587031215613d1d57600080fd5b8435613d2881613bb9565b93506020850135613d3881613bb9565b92506040850135613d4881613bb9565b9396929550929360600135925050565b634e487b7160e01b600052604160045260246000fd5b604051601f8201601f1916810167ffffffffffffffff81118282101715613d9757613d97613d58565b604052919050565b600082601f830112613db057600080fd5b813567ffffffffffffffff811115613dca57613dca613d58565b613ddd601f8201601f1916602001613d6e565b818152846020838601011115613df257600080fd5b816020850160208301376000918101602001919091529392505050565b80151581146109db57600080fd5b600080600080600080600060e0888a031215613e3857600080fd5b87359650602088013567ffffffffffffffff811115613e5657600080fd5b613e628a828b01613d9f565b9650506040880135613e7381613bb9565b94506060880135613e8381613e0f565b93506080880135613e9381613bb9565b9699959850939692959460a0840135945060c09093013592915050565b600080600060608486031215613ec557600080fd5b8335613ed081613bb9565b92506020840135613ee081613bb9565b929592945050506040919091013590565b60008060408385031215613f0457600080fd5b50508035926020909101359150565b600060208284031215613f2557600080fd5b8135610e1c81613bb9565b60008083601f840112613f4257600080fd5b50813567ffffffffffffffff811115613f5a57600080fd5b602083019150836020828501011115613c1357600080fd5b60008060008060008060808789031215613f8b57600080fd5b8635613f9681613bb9565b9550602087013560ff81168114613fac57600080fd5b9450604087013567ffffffffffffffff80821115613fc957600080fd5b613fd58a838b01613f30565b90965094506060890135915080821115613fee57600080fd5b50613ffb89828a01613f30565b979a9699509497509295939492505050565b6000806000806080858703121561402357600080fd5b843561402e81613bb9565b9350602085013561403e81613bb9565b93969395505050506040820135916060013590565b6020808252825182820181905260009190848201906040850190845b81811015613b4a5783518352928401929184019160010161406f565b600080600080606085870312156140a157600080fd5b84356140ac81613bb9565b935060208501359250604085013567ffffffffffffffff8111156140cf57600080fd5b613c6a87828801613f30565b600080600080600080600060a0888a0312156140f657600080fd5b873561410181613bb9565b9650602088013561411181613bb9565b955060408801359450606088013567ffffffffffffffff8082111561413557600080fd5b6141418b838c01613f30565b909650945060808a013591508082111561415a57600080fd5b506141678a828b01613f30565b989b979a50959850939692959293505050565b60008060006060848603121561418f57600080fd5b833561419a81613bb9565b95602085013595506040909401359392505050565b6000806000606084860312156141c457600080fd5b83356141cf81613bb9565b925060208401359150604084013567ffffffffffffffff8111156141f257600080fd5b6141fe86828701613d9f565b9150509250925092565b6000806040838503121561421b57600080fd5b823561422681613bb9565b9150602083013561423681613bb9565b809150509250929050565b6000806000806000806080878903121561425a57600080fd5b863561426581613bb9565b955060208701359450604087013567ffffffffffffffff80821115613fc957600080fd5b60008060006040848603121561429e57600080fd5b83359250602084013567ffffffffffffffff8111156142bc57600080fd5b613cfa86828701613f30565b600181811c908216806142dc57607f821691505b6020821081036142fc57634e487b7160e01b600052602260045260246000fd5b50919050565b8381526040602082015281604082015260007f07ffffffffffffffffffffffffffffffffffffffffffffffffffffffffffffff83111561434157600080fd5b8260051b8085606085013791909101606001949350505050565b60006020828403121561436d57600080fd5b8151610e1c81613e0f565b634e487b7160e01b600052601160045260246000fd5b60007f800000000000000000000000000000000000000000000000000000000000000082036143bf576143bf614378565b5060000390565b634e487b7160e01b600052600160045260246000fd5b80820182811260008312801582168215821617156143fc576143fc614378565b505092915050565b8181036000831280158383131683831282161715612d2957612d29614378565b8581526001600160a01b038516602082015283604082015282606082015260a060808201526000613ac560a0830184613b7a565b60006020828403121561446a57600080fd5b5051919050565b6000602080838503121561448457600080fd5b825167ffffffffffffffff8082111561449c57600080fd5b818501915085601f8301126144b057600080fd5b8151818111156144c2576144c2613d58565b8060051b91506144d3848301613d6e565b81815291830184019184810190888411156144ed57600080fd5b938501935b83851015614517578451925061450783613bb9565b82825293850193908501906144f2565b98975050505050505050565b808201808211156109aa576109aa614378565b818103818111156109aa576109aa614378565b634e487b7160e01b600052603260045260246000fd5b60008060006060848603121561457457600080fd5b8351925060208401519150604084015190509250925092565b60006001820161459f5761459f614378565b5060010190565b6000602082840312156145b857600080fd5b8151610e1c81613bb9565b8381526060602082015260006145dc6060830185613b7a565b828103604084015261142e8185613b7a565b60ff82811682821603908111156109aa576109aa614378565b600181815b8085111561464257816000190482111561462857614628614378565b8085161561463557918102915b93841c939080029061460c565b509250929050565b600082614659575060016109aa565b81614666575060006109aa565b816001811461467c5760028114614686576146a2565b60019150506109aa565b60ff84111561469757614697614378565b50506001821b6109aa565b5060208310610133831016604e8410600b84101617156146c5575081810a6109aa565b6146cf8383614607565b80600019048211156146e3576146e3614378565b029392505050565b6000610e1c60ff84168361464a565b60008261471757634e487b7160e01b600052601260045260246000fd5b500490565b600081600019048311821515161561473657614736614378565b500290565b60006001600160a01b038089168352808816602084015280871660408401525084606083015260c0608083015261477560c0830185613b7a565b82810360a08401526147878185613b7a565b9998505050505050505050565b600082516147a6818460208701613b56565b919091019291505056fe5375706572546f6b656e3a2064656372656173656420616c6c6f77616e63652062656c6f77207a65726f5375706572546f6b656e3a207472616e7366657220616d6f756e74206578636565647320616c6c6f77616e6365a26469706673582212203a7b70ef6c06588e826e4961dcf8ab88416a0ea036e8b44af481f7a53e8eea9b64736f6c63430008100033",
  "immutableReferences": {
    "9216": [
      {
        "length": 32,
        "start": 1074
      },
      {
        "length": 32,
        "start": 2825
      },
      {
        "length": 32,
        "start": 2940
      },
      {
        "length": 32,
        "start": 3621
      },
      {
        "length": 32,
        "start": 3972
      },
      {
        "length": 32,
        "start": 4204
      },
      {
        "length": 32,
        "start": 4957
      },
      {
        "length": 32,
        "start": 5309
      },
      {
        "length": 32,
        "start": 5768
      },
      {
        "length": 32,
        "start": 6828
      },
      {
        "length": 32,
        "start": 7023
      },
      {
        "length": 32,
        "start": 7163
      },
      {
        "length": 32,
        "start": 9232
      },
      {
        "length": 32,
        "start": 9408
      },
      {
        "length": 32,
        "start": 14081
      },
      {
        "length": 32,
        "start": 14586
      }
    ]
  },
  "source": "// SPDX-License-Identifier: GPL-3.0\npragma solidity >=0.7.0 <0.9.0;\n\nimport {UUPSProxiable} from \"@superfluid-finance/ethereum-contracts/contracts/upgradability/UUPSProxiable.sol\";\n\nimport {ISuperfluid, ISuperfluidGovernance, ISuperToken, ISuperAgreement, IERC20, IERC777, TokenInfo} from \"@superfluid-finance/ethereum-contracts/contracts/interfaces/superfluid/ISuperfluid.sol\";\nimport {ISuperfluidToken, SuperfluidToken} from \"@superfluid-finance/ethereum-contracts/contracts/superfluid/SuperfluidToken.sol\";\n\nimport {ERC777Helper} from \"@superfluid-finance/ethereum-contracts/contracts/libs/ERC777Helper.sol\";\n\nimport {SafeERC20} from \"@openzeppelin/contracts/token/ERC20/utils/SafeERC20.sol\";\nimport {SafeMath} from \"@openzeppelin/contracts/utils/math/SafeMath.sol\";\nimport {SafeCast} from \"@openzeppelin/contracts/utils/math/SafeCast.sol\";\nimport {IERC777Recipient} from \"@openzeppelin/contracts/token/ERC777/IERC777Recipient.sol\";\nimport {IERC777Sender} from \"@openzeppelin/contracts/token/ERC777/IERC777Sender.sol\";\nimport {Address} from \"@openzeppelin/contracts/utils/Address.sol\";\nimport {SuperfluidErrors} from \"@superfluid-finance/ethereum-contracts/contracts/interfaces/superfluid/Definitions.sol\";\n\n/**\n * @title Superfluid's super token implementation\n *\n * @author Superfluid\n */\ncontract BaseSuperToken is UUPSProxiable, SuperfluidToken, ISuperToken {\n    using SafeMath for uint256;\n    using SafeCast for uint256;\n    using Address for address;\n    using ERC777Helper for ERC777Helper.Operators;\n    using SafeERC20 for IERC20;\n\n    uint8 private constant _STANDARD_DECIMALS = 18;\n\n    address private deployer;\n\n    /* WARNING: NEVER RE-ORDER VARIABLES! Including the base contracts.\n       Always double-check that new\n       variables are added APPEND-ONLY. Re-ordering variables can\n       permanently BREAK the deployed proxy contract. */\n\n    /// @dev The underlying ERC20 token\n    IERC20 internal _underlyingToken;\n\n    /// @dev Decimals of the underlying token\n    uint8 internal _underlyingDecimals;\n\n    /// @dev TokenInfo Name property\n    string internal _name;\n\n    /// @dev TokenInfo Symbol property\n    string internal _symbol;\n\n    /// @dev ERC20 Allowances Storage\n    mapping(address => mapping(address => uint256)) internal _allowances;\n\n    /// @dev ERC777 operators support data\n    ERC777Helper.Operators internal _operators;\n\n    constructor(ISuperfluid host, string memory tokenName, string memory tokenSymbol, uint256 tokenTotalSupply) SuperfluidToken(host) {\n        deployer = msg.sender;\n        _name = tokenName;\n        _symbol = tokenSymbol;\n        _totalSupply = tokenTotalSupply;\n    }\n\n    function initialize(\n        IERC20 underlyingToken,\n        uint8 underlyingDecimals,\n        string calldata n,\n        string calldata s\n    )\n        external\n        override\n        initializer // OpenZeppelin Initializable\n    {\n        _underlyingToken = underlyingToken;\n        _underlyingDecimals = underlyingDecimals;\n\n        // register interfaces\n        ERC777Helper.register(address(this));\n\n        // help tools like explorers detect the token contract\n        emit Transfer(address(0), address(0), 0);\n\n        _mint(address(this), deployer, _totalSupply, false, \"\", \"\");\n    }\n\n    function proxiableUUID() public pure override returns (bytes32) {\n        return\n            keccak256(\n                \"org.superfluid-finance.contracts.SuperToken.implementation\"\n            );\n    }\n\n    function updateCode(address newAddress) external override {\n        if (msg.sender != address(_host))\n            revert SuperfluidErrors.ONLY_HOST(\n                SuperfluidErrors.SUPER_TOKEN_ONLY_HOST\n            );\n        UUPSProxiable._updateCodeAddress(newAddress);\n    }\n\n    /**************************************************************************\n     * ERC20 Token Info\n     *************************************************************************/\n\n    function name() external view override returns (string memory) {\n        return _name;\n    }\n\n    function symbol() external view override returns (string memory) {\n        return _symbol;\n    }\n\n    function decimals() external pure override returns (uint8) {\n        return _STANDARD_DECIMALS;\n    }\n\n    /**************************************************************************\n     * (private) Token Logics\n     *************************************************************************/\n\n    /**\n     * @notice in the original openzeppelin implementation, transfer() and transferFrom()\n     * did invoke the send and receive hooks, as required by ERC777.\n     * This hooks were removed from super tokens for ERC20 transfers in order to protect\n     * interfacing contracts which don't expect invocations of ERC20 transfers to potentially reenter.\n     * Interactions relying on ERC777 hooks need to use the ERC777 interface.\n     * For more context, see https://github.com/superfluid-finance/protocol-monorepo/wiki/About-ERC-777\n     */\n    function _transferFrom(\n        address spender,\n        address holder,\n        address recipient,\n        uint amount\n    ) internal returns (bool) {\n        if (holder == address(0)) {\n            revert SuperfluidErrors.ZERO_ADDRESS(\n                SuperfluidErrors.SUPER_TOKEN_TRANSFER_FROM_ZERO_ADDRESS\n            );\n        }\n        if (recipient == address(0)) {\n            revert SuperfluidErrors.ZERO_ADDRESS(\n                SuperfluidErrors.SUPER_TOKEN_TRANSFER_TO_ZERO_ADDRESS\n            );\n        }\n        address operator = msg.sender;\n\n        _move(operator, holder, recipient, amount, \"\", \"\");\n\n        if (spender != holder) {\n            _approve(\n                holder,\n                spender,\n                _allowances[holder][spender].sub(\n                    amount,\n                    \"SuperToken: transfer amount exceeds allowance\"\n                )\n            );\n        }\n\n        return true;\n    }\n\n    /**\n     * @dev Send tokens\n     * @param operator address operator address\n     * @param from address token holder address\n     * @param to address recipient address\n     * @param amount uint256 amount of tokens to transfer\n     * @param userData bytes extra information provided by the token holder (if any)\n     * @param operatorData bytes extra information provided by the operator (if any)\n     * @param requireReceptionAck if true, contract recipients are required to implement ERC777TokensRecipient\n     */\n    function _send(\n        address operator,\n        address from,\n        address to,\n        uint256 amount,\n        bytes memory userData,\n        bytes memory operatorData,\n        bool requireReceptionAck\n    ) private {\n        if (from == address(0)) {\n            revert SuperfluidErrors.ZERO_ADDRESS(\n                SuperfluidErrors.SUPER_TOKEN_TRANSFER_FROM_ZERO_ADDRESS\n            );\n        }\n        if (to == address(0)) {\n            revert SuperfluidErrors.ZERO_ADDRESS(\n                SuperfluidErrors.SUPER_TOKEN_TRANSFER_TO_ZERO_ADDRESS\n            );\n        }\n\n        _callTokensToSend(operator, from, to, amount, userData, operatorData);\n\n        _move(operator, from, to, amount, userData, operatorData);\n\n        _callTokensReceived(\n            operator,\n            from,\n            to,\n            amount,\n            userData,\n            operatorData,\n            requireReceptionAck\n        );\n    }\n\n    function _move(\n        address operator,\n        address from,\n        address to,\n        uint256 amount,\n        bytes memory userData,\n        bytes memory operatorData\n    ) private {\n        SuperfluidToken._move(from, to, amount.toInt256());\n\n        emit Sent(operator, from, to, amount, userData, operatorData);\n        emit Transfer(from, to, amount);\n    }\n\n    /**\n     * @dev Creates `amount` tokens and assigns them to `account`, increasing\n     * the total supply.\n     *\n     * If a send hook is registered for `account`, the corresponding function\n     * will be called with `operator`, `data` and `operatorData`.\n     *\n     * See {IERC777Sender} and {IERC777Recipient}.\n     *\n     * Emits {Minted} and {IERC20-Transfer} events.\n     *\n     * Requirements\n     *\n     * - `account` cannot be the zero address.\n     * - if `account` is a contract, it must implement the {IERC777Recipient}\n     * interface.\n     */\n    function _mint(\n        address operator,\n        address account,\n        uint256 amount,\n        bool requireReceptionAck,\n        bytes memory userData,\n        bytes memory operatorData\n    ) internal {\n        if (account == address(0)) {\n            revert SuperfluidErrors.ZERO_ADDRESS(\n                SuperfluidErrors.SUPER_TOKEN_MINT_TO_ZERO_ADDRESS\n            );\n        }\n\n        SuperfluidToken._mint(account, amount);\n\n        _callTokensReceived(\n            operator,\n            address(0),\n            account,\n            amount,\n            userData,\n            operatorData,\n            requireReceptionAck\n        );\n\n        emit Minted(operator, account, amount, userData, operatorData);\n        emit Transfer(address(0), account, amount);\n    }\n\n    /**\n     * @dev Burn tokens\n     * @param from address token holder address\n     * @param amount uint256 amount of tokens to burn\n     * @param userData bytes extra information provided by the token holder\n     * @param operatorData bytes extra information provided by the operator (if any)\n     */\n    function _burn(\n        address operator,\n        address from,\n        uint256 amount,\n        bytes memory userData,\n        bytes memory operatorData\n    ) internal {\n        if (from == address(0)) {\n            revert SuperfluidErrors.ZERO_ADDRESS(\n                SuperfluidErrors.SUPER_TOKEN_BURN_FROM_ZERO_ADDRESS\n            );\n        }\n\n        _callTokensToSend(\n            operator,\n            from,\n            address(0),\n            amount,\n            userData,\n            operatorData\n        );\n\n        SuperfluidToken._burn(from, amount);\n\n        emit Burned(operator, from, amount, userData, operatorData);\n        emit Transfer(from, address(0), amount);\n    }\n\n    /**\n     * @notice Sets `amount` as the allowance of `spender` over the `account`s tokens.\n     *\n     * This is internal function is equivalent to `approve`, and can be used to\n     * e.g. set automatic allowances for certain subsystems, etc.\n     *\n     * Emits an {Approval} event.\n     *\n     * Requirements:\n     *\n     * - `account` cannot be the zero address.\n     * - `spender` cannot be the zero address.\n     */\n    function _approve(\n        address account,\n        address spender,\n        uint256 amount\n    ) internal {\n        if (account == address(0)) {\n            revert SuperfluidErrors.ZERO_ADDRESS(\n                SuperfluidErrors.SUPER_TOKEN_APPROVE_FROM_ZERO_ADDRESS\n            );\n        }\n        if (spender == address(0)) {\n            revert SuperfluidErrors.ZERO_ADDRESS(\n                SuperfluidErrors.SUPER_TOKEN_APPROVE_TO_ZERO_ADDRESS\n            );\n        }\n\n        _allowances[account][spender] = amount;\n        emit Approval(account, spender, amount);\n    }\n\n    /**\n     * @dev Call from.tokensToSend() if the interface is registered\n     * @param operator address operator requesting the transfer\n     * @param from address token holder address\n     * @param to address recipient address\n     * @param amount uint256 amount of tokens to transfer\n     * @param userData bytes extra information provided by the token holder (if any)\n     * @param operatorData bytes extra information provided by the operator (if any)\n     */\n    function _callTokensToSend(\n        address operator,\n        address from,\n        address to,\n        uint256 amount,\n        bytes memory userData,\n        bytes memory operatorData\n    ) private {\n        address implementer = ERC777Helper\n            ._ERC1820_REGISTRY\n            .getInterfaceImplementer(\n                from,\n                ERC777Helper._TOKENS_SENDER_INTERFACE_HASH\n            );\n        if (implementer != address(0)) {\n            IERC777Sender(implementer).tokensToSend(\n                operator,\n                from,\n                to,\n                amount,\n                userData,\n                operatorData\n            );\n        }\n    }\n\n    /**\n     * @dev Call to.tokensReceived() if the interface is registered. Reverts if the recipient is a contract but\n     * tokensReceived() was not registered for the recipient\n     * @param operator address operator requesting the transfer\n     * @param from address token holder address\n     * @param to address recipient address\n     * @param amount uint256 amount of tokens to transfer\n     * @param userData bytes extra information provided by the token holder (if any)\n     * @param operatorData bytes extra information provided by the operator (if any)\n     * @param requireReceptionAck if true, contract recipients are required to implement ERC777TokensRecipient\n     */\n    function _callTokensReceived(\n        address operator,\n        address from,\n        address to,\n        uint256 amount,\n        bytes memory userData,\n        bytes memory operatorData,\n        bool requireReceptionAck\n    ) private {\n        address implementer = ERC777Helper\n            ._ERC1820_REGISTRY\n            .getInterfaceImplementer(\n                to,\n                ERC777Helper._TOKENS_RECIPIENT_INTERFACE_HASH\n            );\n        if (implementer != address(0)) {\n            IERC777Recipient(implementer).tokensReceived(\n                operator,\n                from,\n                to,\n                amount,\n                userData,\n                operatorData\n            );\n        } else if (requireReceptionAck) {\n            if (to.isContract())\n                revert SUPER_TOKEN_NOT_ERC777_TOKENS_RECIPIENT();\n        }\n    }\n\n    /**************************************************************************\n     * ERC20 Implementations\n     *************************************************************************/\n\n    function totalSupply() public view override returns (uint256) {\n        return _totalSupply;\n    }\n\n    function balanceOf(address account)\n        public\n        view\n        override\n        returns (uint256 balance)\n    {\n        // solhint-disable-next-line not-rely-on-time\n        (int256 availableBalance, , , ) = super.realtimeBalanceOfNow(account);\n        return availableBalance < 0 ? 0 : uint256(availableBalance);\n    }\n\n    function transfer(address recipient, uint256 amount)\n        public\n        override\n        returns (bool)\n    {\n        return _transferFrom(msg.sender, msg.sender, recipient, amount);\n    }\n\n    function allowance(address account, address spender)\n        public\n        view\n        override\n        returns (uint256)\n    {\n        return _allowances[account][spender];\n    }\n\n    function approve(address spender, uint256 amount)\n        public\n        override\n        returns (bool)\n    {\n        _approve(msg.sender, spender, amount);\n        return true;\n    }\n\n    function transferFrom(\n        address holder,\n        address recipient,\n        uint256 amount\n    ) public override returns (bool) {\n        return _transferFrom(msg.sender, holder, recipient, amount);\n    }\n\n    function increaseAllowance(address spender, uint256 addedValue)\n        public\n        override\n        returns (bool)\n    {\n        _approve(\n            msg.sender,\n            spender,\n            _allowances[msg.sender][spender] + addedValue\n        );\n        return true;\n    }\n\n    function decreaseAllowance(address spender, uint256 subtractedValue)\n        public\n        override\n        returns (bool)\n    {\n        _approve(\n            msg.sender,\n            spender,\n            _allowances[msg.sender][spender].sub(\n                subtractedValue,\n                \"SuperToken: decreased allowance below zero\"\n            )\n        );\n        return true;\n    }\n\n    /**************************************************************************\n     * ERC-777 functions\n     *************************************************************************/\n\n    function granularity() external pure override returns (uint256) {\n        return 1;\n    }\n\n    function send(\n        address recipient,\n        uint256 amount,\n        bytes calldata data\n    ) external override {\n        _send(msg.sender, msg.sender, recipient, amount, data, \"\", true);\n    }\n\n    function burn(uint256 amount, bytes calldata data) external override {\n        _downgrade(msg.sender, msg.sender, amount, data, \"\");\n    }\n\n    function isOperatorFor(address operator, address tokenHolder)\n        external\n        view\n        override\n        returns (bool)\n    {\n        return _operators.isOperatorFor(operator, tokenHolder);\n    }\n\n    function authorizeOperator(address operator) external override {\n        address holder = msg.sender;\n        _operators.authorizeOperator(holder, operator);\n        emit AuthorizedOperator(operator, holder);\n    }\n\n    function revokeOperator(address operator) external override {\n        address holder = msg.sender;\n        _operators.revokeOperator(holder, operator);\n        emit RevokedOperator(operator, holder);\n    }\n\n    function defaultOperators()\n        external\n        view\n        override\n        returns (address[] memory)\n    {\n        return ERC777Helper.defaultOperators(_operators);\n    }\n\n    function operatorSend(\n        address sender,\n        address recipient,\n        uint256 amount,\n        bytes calldata data,\n        bytes calldata operatorData\n    ) external override {\n        address operator = msg.sender;\n        if (!_operators.isOperatorFor(operator, sender))\n            revert SUPER_TOKEN_CALLER_IS_NOT_OPERATOR_FOR_HOLDER();\n        _send(operator, sender, recipient, amount, data, operatorData, true);\n    }\n\n    function operatorBurn(\n        address account,\n        uint256 amount,\n        bytes calldata data,\n        bytes calldata operatorData\n    ) external override {\n        address operator = msg.sender;\n        if (!_operators.isOperatorFor(operator, account))\n            revert SUPER_TOKEN_CALLER_IS_NOT_OPERATOR_FOR_HOLDER();\n        _downgrade(operator, account, amount, data, operatorData);\n    }\n\n    function _setupDefaultOperators(address[] memory operators) internal {\n        _operators.setupDefaultOperators(operators);\n    }\n\n    /**************************************************************************\n     * SuperToken custom token functions\n     *************************************************************************/\n\n    function selfMint(\n        address account,\n        uint256 amount,\n        bytes memory userData\n    ) external override onlySelf {\n        _mint(\n            msg.sender,\n            account,\n            amount,\n            false, /* requireReceptionAck */\n            userData,\n            new bytes(0)\n        );\n    }\n\n    function selfBurn(\n        address account,\n        uint256 amount,\n        bytes memory userData\n    ) external override onlySelf {\n        _burn(msg.sender, account, amount, userData, new bytes(0));\n    }\n\n    function selfApproveFor(\n        address account,\n        address spender,\n        uint256 amount\n    ) external override onlySelf {\n        _approve(account, spender, amount);\n    }\n\n    function selfTransferFrom(\n        address holder,\n        address spender,\n        address recipient,\n        uint256 amount\n    ) external override onlySelf {\n        _transferFrom(spender, holder, recipient, amount);\n    }\n\n    /**************************************************************************\n     * SuperToken extra functions\n     *************************************************************************/\n\n    function transferAll(address recipient) external override {\n        _transferFrom(msg.sender, msg.sender, recipient, balanceOf(msg.sender));\n    }\n\n    /**************************************************************************\n     * ERC20 wrapping\n     *************************************************************************/\n\n    /// @dev ISuperfluidGovernance.getUnderlyingToken implementation\n    function getUnderlyingToken() external view override returns (address) {\n        return address(_underlyingToken);\n    }\n\n    /// @dev ISuperToken.upgrade implementation\n    function upgrade(uint256 amount) external override {\n        _upgrade(msg.sender, msg.sender, msg.sender, amount, \"\", \"\");\n    }\n\n    /// @dev ISuperToken.upgradeTo implementation\n    function upgradeTo(\n        address to,\n        uint256 amount,\n        bytes calldata data\n    ) external override {\n        _upgrade(msg.sender, msg.sender, to, amount, \"\", data);\n    }\n\n    /// @dev ISuperToken.downgrade implementation\n    function downgrade(uint256 amount) external override {\n        _downgrade(msg.sender, msg.sender, amount, \"\", \"\");\n    }\n\n    function _upgrade(\n        address operator,\n        address account,\n        address to,\n        uint256 amount,\n        bytes memory userData,\n        bytes memory operatorData\n    ) private {\n        if (address(_underlyingToken) == address(0))\n            revert SUPER_TOKEN_NO_UNDERLYING_TOKEN();\n\n        (\n            uint256 underlyingAmount,\n            uint256 adjustedAmount\n        ) = _toUnderlyingAmount(amount);\n\n        uint256 amountBefore = _underlyingToken.balanceOf(address(this));\n        _underlyingToken.safeTransferFrom(\n            account,\n            address(this),\n            underlyingAmount\n        );\n        uint256 amountAfter = _underlyingToken.balanceOf(address(this));\n        uint256 actualUpgradedAmount = amountAfter - amountBefore;\n        if (underlyingAmount != actualUpgradedAmount)\n            revert SUPER_TOKEN_INFLATIONARY_DEFLATIONARY_NOT_SUPPORTED();\n\n        _mint(\n            operator,\n            to,\n            adjustedAmount,\n            // if `to` is diffferent from `account`, we requireReceptionAck\n            account != to,\n            userData,\n            operatorData\n        );\n\n        emit TokenUpgraded(to, adjustedAmount);\n    }\n\n    function _downgrade(\n        address operator,\n        address account,\n        uint256 amount,\n        bytes memory data,\n        bytes memory operatorData\n    ) private {\n        if (address(_underlyingToken) == address(0))\n            revert SUPER_TOKEN_NO_UNDERLYING_TOKEN();\n\n        (\n            uint256 underlyingAmount,\n            uint256 adjustedAmount\n        ) = _toUnderlyingAmount(amount);\n\n        // _burn will check the (actual) amount availability again\n        _burn(operator, account, adjustedAmount, data, operatorData);\n\n        uint256 amountBefore = _underlyingToken.balanceOf(address(this));\n        _underlyingToken.safeTransfer(account, underlyingAmount);\n        uint256 amountAfter = _underlyingToken.balanceOf(address(this));\n        uint256 actualDowngradedAmount = amountBefore - amountAfter;\n        if (underlyingAmount != actualDowngradedAmount)\n            revert SUPER_TOKEN_INFLATIONARY_DEFLATIONARY_NOT_SUPPORTED();\n\n        emit TokenDowngraded(account, adjustedAmount);\n    }\n\n    /**\n     * @dev Handle decimal differences between underlying token and super token\n     */\n    function _toUnderlyingAmount(uint256 amount)\n        private\n        view\n        returns (uint256 underlyingAmount, uint256 adjustedAmount)\n    {\n        uint256 factor;\n        if (_underlyingDecimals < _STANDARD_DECIMALS) {\n            // if underlying has less decimals\n            // one can upgrade less \"granualar\" amount of tokens\n            factor = 10**(_STANDARD_DECIMALS - _underlyingDecimals);\n            underlyingAmount = amount / factor;\n            // remove precision errors\n            adjustedAmount = underlyingAmount * factor;\n        } else if (_underlyingDecimals > _STANDARD_DECIMALS) {\n            // if underlying has more decimals\n            // one can upgrade more \"granualar\" amount of tokens\n            factor = 10**(_underlyingDecimals - _STANDARD_DECIMALS);\n            underlyingAmount = amount * factor;\n            adjustedAmount = amount;\n        } else {\n            underlyingAmount = adjustedAmount = amount;\n        }\n    }\n\n    /**************************************************************************\n     * Superfluid Batch Operations\n     *************************************************************************/\n\n    function operationApprove(\n        address account,\n        address spender,\n        uint256 amount\n    ) external override onlyHost {\n        _approve(account, spender, amount);\n    }\n\n    function operationTransferFrom(\n        address account,\n        address spender,\n        address recipient,\n        uint256 amount\n    ) external override onlyHost {\n        _transferFrom(account, spender, recipient, amount);\n    }\n\n    function operationUpgrade(address account, uint256 amount)\n        external\n        override\n        onlyHost\n    {\n        _upgrade(msg.sender, account, account, amount, \"\", \"\");\n    }\n\n    function operationDowngrade(address account, uint256 amount)\n        external\n        override\n        onlyHost\n    {\n        _downgrade(msg.sender, account, amount, \"\", \"\");\n    }\n\n    /**************************************************************************\n     * Modifiers\n     *************************************************************************/\n\n    modifier onlySelf() {\n        if (msg.sender != address(this)) revert SUPER_TOKEN_ONLY_SELF();\n        _;\n    }\n}\n",
  "sourcePath": "C:\\Users\\Arogundade Ibrahim\\Documents\\web3\\Buidl\\contracts\\BaseSuperToken.sol",
  "compiler": {
    "name": "solc",
    "version": "0.8.16+commit.07a7930e.Emscripten.clang"
  },
  "schemaVersion": "3.4.10",
  "updatedAt": "2022-10-23T20:33:59.890Z",
  "devdoc": {
    "author": "Superfluid",
    "kind": "dev",
    "methods": {
      "approve(address,uint256)": {
        "details": "Sets `amount` as the allowance of `spender` over the caller's tokens.",
        "returns": {
          "_0": "Returns Success a boolean value indicating whether the operation succeeded."
        }
      },
      "authorizeOperator(address)": {
        "details": "Make an account an operator of the caller. See {isOperatorFor}."
      },
      "balanceOf(address)": {
        "details": "Returns the amount of tokens owned by an account (`owner`)."
      },
      "burn(uint256,bytes)": {
        "details": "Destroys `amount` tokens from the caller's account, reducing the total supply. If a send hook is registered for the caller, the corresponding function will be called with `data` and empty `operatorData`. See {IERC777Sender}."
      },
      "createAgreement(bytes32,bytes32[])": {
        "details": "ISuperfluidToken.createAgreement implementation"
      },
      "decimals()": {
        "details": "Returns the number of decimals used to get its user representation. For example, if `decimals` equals `2`, a balance of `505` tokens should be displayed to a user as `5,05` (`505 / 10 ** 2`). Tokens usually opt for a value of 18, imitating the relationship between Ether and Wei. This is the value {ERC20} uses, unless {_setupDecimals} is called."
      },
      "decreaseAllowance(address,uint256)": {
        "details": "Atomically decreases the allowance granted to `spender` by the caller. This is an alternative to {approve} that can be used as a mitigation for problems described in {IERC20-approve}."
      },
      "defaultOperators()": {
        "details": "Returns the list of default operators. These accounts are operators for all token holders, even if {authorizeOperator} was never called on them. This list is immutable, but individual holders may revoke these via {revokeOperator}, in which case {isOperatorFor} will return false."
      },
      "downgrade(uint256)": {
        "details": "ISuperToken.downgrade implementation"
      },
      "getAccountActiveAgreements(address)": {
        "details": "ISuperfluidToken.getAccountActiveAgreements implementation"
      },
      "getAgreementData(address,bytes32,uint256)": {
        "details": "ISuperfluidToken.getAgreementData implementation"
      },
      "getAgreementStateSlot(address,address,uint256,uint256)": {
        "details": "ISuperfluidToken.getAgreementState implementation"
      },
      "getCodeAddress()": {
        "details": "Get current implementation code address."
      },
      "getHost()": {
        "details": "ISuperfluidToken.getHost implementation"
      },
      "getUnderlyingToken()": {
        "details": "ISuperfluidGovernance.getUnderlyingToken implementation"
      },
      "granularity()": {
        "details": "Returns the smallest part of the token that is not divisible. This         means all token operations (creation, movement and destruction) must have         amounts that are a multiple of this number."
      },
      "increaseAllowance(address,uint256)": {
        "details": "Atomically increases the allowance granted to `spender` by the caller. This is an alternative to {approve} that can be used as a mitigation for problems described in {IERC20-approve}."
      },
      "initialize(address,uint8,string,string)": {
        "details": "Initialize the contract"
      },
      "isAccountCritical(address,uint256)": {
        "details": "A critical account is when availableBalance < 0",
        "params": {
          "account": "The account to check",
          "timestamp": "The time we'd like to check if the account is critical (should use future)"
        },
        "returns": {
          "isCritical": "Whether the account is critical"
        }
      },
      "isAccountCriticalNow(address)": {
        "details": "A critical account is when availableBalance < 0",
        "params": {
          "account": "The account to check"
        },
        "returns": {
          "isCritical": "Whether the account is critical"
        }
      },
      "isAccountSolvent(address,uint256)": {
        "details": "An account is insolvent when the sum of deposits for a token can't cover the negative availableBalance",
        "params": {
          "account": "The account to check",
          "timestamp": "The time we'd like to check if the account is solvent (should use future)"
        },
        "returns": {
          "isSolvent": "True if the account is solvent, false otherwise"
        }
      },
      "isAccountSolventNow(address)": {
        "details": "An account is insolvent when the sum of deposits for a token can't cover the negative availableBalance",
        "params": {
          "account": "The account to check"
        },
        "returns": {
          "isSolvent": "True if the account is solvent, false otherwise"
        }
      },
      "isOperatorFor(address,address)": {
        "details": "Returns true if an account is an operator of `tokenHolder`. Operators can send and burn tokens on behalf of their owners. All accounts are their own operator. See {operatorSend} and {operatorBurn}."
      },
      "makeLiquidationPayoutsV2(bytes32,bytes,address,bool,address,uint256,int256)": {
        "details": "ISuperfluidToken.makeLiquidationPayoutsV2 implementation"
      },
      "name()": {
        "details": "Returns the name of the token."
      },
      "operationApprove(address,address,uint256)": {
        "details": "Perform ERC20 approve by host contract.",
        "params": {
          "account": "The account owner to be approved.",
          "amount": "Number of tokens to be approved.",
          "spender": "The spender of account owner's funds."
        }
      },
      "operationDowngrade(address,uint256)": {
        "details": "Downgrade ERC20 to SuperToken by host contract.",
        "params": {
          "account": "The account to be changed.",
          "amount": "Number of tokens to be downgraded (in 18 decimals)"
        }
      },
      "operationTransferFrom(address,address,address,uint256)": {
        "details": "Perform ERC20 transfer from by host contract.",
        "params": {
          "account": "The account to spend sender's funds.",
          "amount": "Number of tokens to be transferred.",
          "recipient": "The recipient of thefunds.",
          "spender": "The account where the funds is sent from."
        }
      },
      "operationUpgrade(address,uint256)": {
        "details": "Upgrade ERC20 to SuperToken by host contract.",
        "params": {
          "account": "The account to be changed.",
          "amount": "Number of tokens to be upgraded (in 18 decimals)"
        }
      },
      "operatorBurn(address,uint256,bytes,bytes)": {
        "details": "Destroys `amount` tokens from `account`, reducing the total supply. The caller must be an operator of `account`. If a send hook is registered for `account`, the corresponding function will be called with `data` and `operatorData`. See {IERC777Sender}."
      },
      "operatorSend(address,address,uint256,bytes,bytes)": {
        "details": "Moves `amount` tokens from `sender` to `recipient`. The caller must be an operator of `sender`. If send or receive hooks are registered for `sender` and `recipient`, the corresponding functions will be called with `data` and `operatorData`. See {IERC777Sender} and {IERC777Recipient}."
      },
      "proxiableUUID()": {
        "details": "Proxiable UUID marker function, this would help to avoid wrong logic      contract to be used for upgrading. NOTE: The semantics of the UUID deviates from the actual UUPS standard,       where it is equivalent of _IMPLEMENTATION_SLOT."
      },
      "realtimeBalanceOf(address,uint256)": {
        "details": "ISuperfluidToken.realtimeBalanceOf implementation"
      },
      "realtimeBalanceOfNow(address)": {
        "details": "ISuperfluidToken.realtimeBalanceOfNow implementation"
      },
      "revokeOperator(address)": {
        "details": "Revoke an account's operator status for the caller. See {isOperatorFor} and {defaultOperators}."
      },
      "selfApproveFor(address,address,uint256)": {
        "details": "Give `spender`, `amount` allowance to spend the tokens of `account`."
      },
      "selfBurn(address,uint256,bytes)": {
        "details": "Burn existing tokens for the account"
      },
      "selfMint(address,uint256,bytes)": {
        "details": "Mint new tokens for the account"
      },
      "send(address,uint256,bytes)": {
        "details": "Moves `amount` tokens from the caller's account to `recipient`.If send or receive hooks are registered for the caller and `recipient`,      the corresponding functions will be called with `data` and empty      `operatorData`. See {IERC777Sender} and {IERC777Recipient}."
      },
      "settleBalance(address,int256)": {
        "details": "ISuperfluidToken.settleBalance implementation"
      },
      "symbol()": {
        "details": "Returns the symbol of the token, usually a shorter version of the name."
      },
      "terminateAgreement(bytes32,uint256)": {
        "details": "ISuperfluidToken.terminateAgreement implementation"
      },
      "totalSupply()": {
        "details": "See {IERC20-totalSupply}."
      },
      "transfer(address,uint256)": {
        "details": "Moves `amount` tokens from the caller's account to `recipient`.",
        "returns": {
          "_0": "Returns Success a boolean value indicating whether the operation succeeded."
        }
      },
      "transferAll(address)": {
        "details": "Transfer all available balance from `msg.sender` to `recipient`"
      },
      "updateAgreementData(bytes32,bytes32[])": {
        "details": "ISuperfluidToken.updateAgreementData implementation"
      },
      "updateAgreementStateSlot(address,uint256,bytes32[])": {
        "details": "ISuperfluidToken.updateAgreementState implementation"
      },
      "upgrade(uint256)": {
        "details": "ISuperToken.upgrade implementation"
      },
      "upgradeTo(address,uint256,bytes)": {
        "details": "ISuperToken.upgradeTo implementation"
      }
    },
    "stateVariables": {
      "_allowances": {
        "details": "ERC20 Allowances Storage"
      },
      "_name": {
        "details": "TokenInfo Name property"
      },
      "_operators": {
        "details": "ERC777 operators support data"
      },
      "_symbol": {
        "details": "TokenInfo Symbol property"
      },
      "_underlyingDecimals": {
        "details": "Decimals of the underlying token"
      },
      "_underlyingToken": {
        "details": "The underlying ERC20 token"
      }
    },
    "title": "Superfluid's super token implementation",
    "version": 1
  },
  "userdoc": {
    "kind": "user",
    "methods": {
      "isAccountCritical(address,uint256)": {
        "notice": "Check if account is critical"
      },
      "isAccountCriticalNow(address)": {
        "notice": "Check if account is critical now (current host.getNow())"
      },
      "isAccountSolvent(address,uint256)": {
        "notice": "Check if account is solvent"
      },
      "isAccountSolventNow(address)": {
        "notice": "Check if account is solvent now"
      }
    },
    "version": 1
  }
}