{
  "contractName": "BdlCertificate",
  "abi": [
    {
      "inputs": [],
      "stateMutability": "nonpayable",
      "type": "constructor"
    },
    {
      "anonymous": false,
      "inputs": [
        {
          "indexed": true,
          "internalType": "address",
          "name": "_to",
          "type": "address"
        },
        {
          "indexed": true,
          "internalType": "uint256",
          "name": "_tokenId",
          "type": "uint256"
        }
      ],
      "name": "Attest",
      "type": "event"
    },
    {
      "anonymous": false,
      "inputs": [
        {
          "indexed": true,
          "internalType": "address",
          "name": "_to",
          "type": "address"
        },
        {
          "indexed": true,
          "internalType": "uint256",
          "name": "_tokenId",
          "type": "uint256"
        }
      ],
      "name": "Revoke",
      "type": "event"
    },
    {
      "inputs": [],
      "name": "certificatesCount",
      "outputs": [
        {
          "internalType": "uint256",
          "name": "",
          "type": "uint256"
        }
      ],
      "stateMutability": "view",
      "type": "function"
    },
    {
      "inputs": [],
      "name": "deployer",
      "outputs": [
        {
          "internalType": "address",
          "name": "",
          "type": "address"
        }
      ],
      "stateMutability": "view",
      "type": "function"
    },
    {
      "inputs": [],
      "name": "name",
      "outputs": [
        {
          "internalType": "string",
          "name": "",
          "type": "string"
        }
      ],
      "stateMutability": "view",
      "type": "function"
    },
    {
      "inputs": [
        {
          "internalType": "uint256",
          "name": "tokenId",
          "type": "uint256"
        }
      ],
      "name": "ownerOf",
      "outputs": [
        {
          "internalType": "address",
          "name": "",
          "type": "address"
        }
      ],
      "stateMutability": "view",
      "type": "function"
    },
    {
      "inputs": [
        {
          "internalType": "bytes4",
          "name": "interfaceId",
          "type": "bytes4"
        }
      ],
      "name": "supportsInterface",
      "outputs": [
        {
          "internalType": "bool",
          "name": "",
          "type": "bool"
        }
      ],
      "stateMutability": "view",
      "type": "function"
    },
    {
      "inputs": [],
      "name": "symbol",
      "outputs": [
        {
          "internalType": "string",
          "name": "",
          "type": "string"
        }
      ],
      "stateMutability": "view",
      "type": "function"
    },
    {
      "inputs": [
        {
          "internalType": "uint256",
          "name": "tokenId",
          "type": "uint256"
        }
      ],
      "name": "tokenURI",
      "outputs": [
        {
          "internalType": "string",
          "name": "",
          "type": "string"
        }
      ],
      "stateMutability": "view",
      "type": "function"
    },
    {
      "inputs": [
        {
          "internalType": "uint256",
          "name": "certificateId",
          "type": "uint256"
        }
      ],
      "name": "burn",
      "outputs": [],
      "stateMutability": "nonpayable",
      "type": "function"
    },
    {
      "inputs": [
        {
          "internalType": "address",
          "name": "student",
          "type": "address"
        },
        {
          "internalType": "string",
          "name": "uri",
          "type": "string"
        }
      ],
      "name": "issue",
      "outputs": [],
      "stateMutability": "nonpayable",
      "type": "function"
    }
  ],
  "bytecode": "0x608060405260006005553480156200001657600080fd5b506040518060400160405280601181526020017f427569646c2043657274696669636174650000000000000000000000000000008152506040518060400160405280600481526020017f4243544b0000000000000000000000000000000000000000000000000000000081525081600090816200009491906200036a565b508060019081620000a691906200036a565b50505033600460006101000a81548173ffffffffffffffffffffffffffffffffffffffff021916908373ffffffffffffffffffffffffffffffffffffffff16021790555062000451565b600081519050919050565b7f4e487b7100000000000000000000000000000000000000000000000000000000600052604160045260246000fd5b7f4e487b7100000000000000000000000000000000000000000000000000000000600052602260045260246000fd5b600060028204905060018216806200017257607f821691505b6020821081036200018857620001876200012a565b5b50919050565b60008190508160005260206000209050919050565b60006020601f8301049050919050565b600082821b905092915050565b600060088302620001f27fffffffffffffffffffffffffffffffffffffffffffffffffffffffffffffffff82620001b3565b620001fe8683620001b3565b95508019841693508086168417925050509392505050565b6000819050919050565b6000819050919050565b60006200024b620002456200023f8462000216565b62000220565b62000216565b9050919050565b6000819050919050565b62000267836200022a565b6200027f620002768262000252565b848454620001c0565b825550505050565b600090565b6200029662000287565b620002a38184846200025c565b505050565b5b81811015620002cb57620002bf6000826200028c565b600181019050620002a9565b5050565b601f8211156200031a57620002e4816200018e565b620002ef84620001a3565b81016020851015620002ff578190505b620003176200030e85620001a3565b830182620002a8565b50505b505050565b600082821c905092915050565b60006200033f600019846008026200031f565b1980831691505092915050565b60006200035a83836200032c565b9150826002028217905092915050565b6200037582620000f0565b67ffffffffffffffff811115620003915762000390620000fb565b5b6200039d825462000159565b620003aa828285620002cf565b600060209050601f831160018114620003e25760008415620003cd578287015190505b620003d985826200034c565b86555062000449565b601f198416620003f2866200018e565b60005b828110156200041c57848901518255600182019150602085019450602081019050620003f5565b868310156200043c578489015162000438601f8916826200032c565b8355505b6001600288020188555050505b505050505050565b61127280620004616000396000f3fe608060405234801561001057600080fd5b50600436106100935760003560e01c80636352211e116100665780636352211e1461011e57806395d89b411461014e578063b34b46481461016c578063c87b56dd1461018a578063d5f39488146101ba57610093565b806301ffc9a71461009857806304b444d9146100c857806306fdde03146100e457806342966c6814610102575b600080fd5b6100b260048036038101906100ad91906109fe565b6101d8565b6040516100bf9190610a46565b60405180910390f35b6100e260048036038101906100dd9190610b24565b6102ba565b005b6100ec6102e8565b6040516100f99190610c14565b60405180910390f35b61011c60048036038101906101179190610c6c565b61037a565b005b61013860048036038101906101339190610c6c565b610454565b6040516101459190610ca8565b60405180910390f35b610156610505565b6040516101639190610c14565b60405180910390f35b610174610597565b6040516101819190610cd2565b60405180910390f35b6101a4600480360381019061019f9190610c6c565b61059d565b6040516101b19190610c14565b60405180910390f35b6101c261068a565b6040516101cf9190610ca8565b60405180910390f35b60007f5b5e139f000000000000000000000000000000000000000000000000000000007bffffffffffffffffffffffffffffffffffffffffffffffffffffffff1916827bffffffffffffffffffffffffffffffffffffffffffffffffffffffff191614806102a357507f21c44d76000000000000000000000000000000000000000000000000000000007bffffffffffffffffffffffffffffffffffffffffffffffffffffffff1916827bffffffffffffffffffffffffffffffffffffffffffffffffffffffff1916145b806102b357506102b2826106b0565b5b9050919050565b6102c883600554848461071a565b506001600560008282546102dc9190610d1c565b92505081905550505050565b6060600080546102f790610d7f565b80601f016020809104026020016040519081016040528092919081815260200182805461032390610d7f565b80156103705780601f1061034557610100808354040283529160200191610370565b820191906000526020600020905b81548152906001019060200180831161035357829003601f168201915b5050505050905090565b3373ffffffffffffffffffffffffffffffffffffffff1661039a82610454565b73ffffffffffffffffffffffffffffffffffffffff1614806104095750600460009054906101000a900473ffffffffffffffffffffffffffffffffffffffff1673ffffffffffffffffffffffffffffffffffffffff163373ffffffffffffffffffffffffffffffffffffffff16145b610448576040517f08c379a000000000000000000000000000000000000000000000000000000000815260040161043f90610e22565b60405180910390fd5b61045181610829565b50565b6000806002600084815260200190815260200160002060009054906101000a900473ffffffffffffffffffffffffffffffffffffffff169050600073ffffffffffffffffffffffffffffffffffffffff168173ffffffffffffffffffffffffffffffffffffffff16036104fc576040517f08c379a00000000000000000000000000000000000000000000000000000000081526004016104f390610e8e565b60405180910390fd5b80915050919050565b60606001805461051490610d7f565b80601f016020809104026020016040519081016040528092919081815260200182805461054090610d7f565b801561058d5780601f106105625761010080835404028352916020019161058d565b820191906000526020600020905b81548152906001019060200180831161057057829003601f168201915b5050505050905090565b60055481565b60606105a8826108d3565b6105e7576040517f08c379a00000000000000000000000000000000000000000000000000000000081526004016105de90610efa565b60405180910390fd5b60036000838152602001908152602001600020805461060590610d7f565b80601f016020809104026020016040519081016040528092919081815260200182805461063190610d7f565b801561067e5780601f106106535761010080835404028352916020019161067e565b820191906000526020600020905b81548152906001019060200180831161066157829003601f168201915b50505050509050919050565b600460009054906101000a900473ffffffffffffffffffffffffffffffffffffffff1681565b60007f01ffc9a7000000000000000000000000000000000000000000000000000000007bffffffffffffffffffffffffffffffffffffffffffffffffffffffff1916827bffffffffffffffffffffffffffffffffffffffffffffffffffffffff1916149050919050565b6000610725846108d3565b15610765576040517f08c379a000000000000000000000000000000000000000000000000000000000815260040161075c90610f66565b60405180910390fd5b846002600086815260200190815260200160002060006101000a81548173ffffffffffffffffffffffffffffffffffffffff021916908373ffffffffffffffffffffffffffffffffffffffff16021790555082826003600087815260200190815260200160002091826107d992919061116c565b50838573ffffffffffffffffffffffffffffffffffffffff167fe9274a84b19e9428826de6bae8c48329354f8f0e73f771b97cae2d9dccd45a2760405160405180910390a3839050949350505050565b600061083482610454565b90506002600083815260200190815260200160002060006101000a81549073ffffffffffffffffffffffffffffffffffffffff021916905560036000838152602001908152602001600020600061088b919061093f565b818173ffffffffffffffffffffffffffffffffffffffff167fec9ab91322523c899ede7830ec9bfc992b5981cdcc27b91162fb23de5791117b60405160405180910390a35050565b60008073ffffffffffffffffffffffffffffffffffffffff166002600084815260200190815260200160002060009054906101000a900473ffffffffffffffffffffffffffffffffffffffff1673ffffffffffffffffffffffffffffffffffffffff1614159050919050565b50805461094b90610d7f565b6000825580601f1061095d575061097c565b601f01602090049060005260206000209081019061097b919061097f565b5b50565b5b80821115610998576000816000905550600101610980565b5090565b600080fd5b600080fd5b60007fffffffff0000000000000000000000000000000000000000000000000000000082169050919050565b6109db816109a6565b81146109e657600080fd5b50565b6000813590506109f8816109d2565b92915050565b600060208284031215610a1457610a1361099c565b5b6000610a22848285016109e9565b91505092915050565b60008115159050919050565b610a4081610a2b565b82525050565b6000602082019050610a5b6000830184610a37565b92915050565b600073ffffffffffffffffffffffffffffffffffffffff82169050919050565b6000610a8c82610a61565b9050919050565b610a9c81610a81565b8114610aa757600080fd5b50565b600081359050610ab981610a93565b92915050565b600080fd5b600080fd5b600080fd5b60008083601f840112610ae457610ae3610abf565b5b8235905067ffffffffffffffff811115610b0157610b00610ac4565b5b602083019150836001820283011115610b1d57610b1c610ac9565b5b9250929050565b600080600060408486031215610b3d57610b3c61099c565b5b6000610b4b86828701610aaa565b935050602084013567ffffffffffffffff811115610b6c57610b6b6109a1565b5b610b7886828701610ace565b92509250509250925092565b600081519050919050565b600082825260208201905092915050565b60005b83811015610bbe578082015181840152602081019050610ba3565b60008484015250505050565b6000601f19601f8301169050919050565b6000610be682610b84565b610bf08185610b8f565b9350610c00818560208601610ba0565b610c0981610bca565b840191505092915050565b60006020820190508181036000830152610c2e8184610bdb565b905092915050565b6000819050919050565b610c4981610c36565b8114610c5457600080fd5b50565b600081359050610c6681610c40565b92915050565b600060208284031215610c8257610c8161099c565b5b6000610c9084828501610c57565b91505092915050565b610ca281610a81565b82525050565b6000602082019050610cbd6000830184610c99565b92915050565b610ccc81610c36565b82525050565b6000602082019050610ce76000830184610cc3565b92915050565b7f4e487b7100000000000000000000000000000000000000000000000000000000600052601160045260246000fd5b6000610d2782610c36565b9150610d3283610c36565b9250828201905080821115610d4a57610d49610ced565b5b92915050565b7f4e487b7100000000000000000000000000000000000000000000000000000000600052602260045260246000fd5b60006002820490506001821680610d9757607f821691505b602082108103610daa57610da9610d50565b5b50919050565b7f596f752063616e2774207265766f6b652074686973206365727469666963617460008201527f6500000000000000000000000000000000000000000000000000000000000000602082015250565b6000610e0c602183610b8f565b9150610e1782610db0565b604082019050919050565b60006020820190508181036000830152610e3b81610dff565b9050919050565b7f6f776e65724f663a20746f6b656e20646f65736e277420657869737400000000600082015250565b6000610e78601c83610b8f565b9150610e8382610e42565b602082019050919050565b60006020820190508181036000830152610ea781610e6b565b9050919050565b7f746f6b656e5552493a20746f6b656e20646f65736e2774206578697374000000600082015250565b6000610ee4601d83610b8f565b9150610eef82610eae565b602082019050919050565b60006020820190508181036000830152610f1381610ed7565b9050919050565b7f6d696e743a20746f6b656e494420657869737473000000000000000000000000600082015250565b6000610f50601483610b8f565b9150610f5b82610f1a565b602082019050919050565b60006020820190508181036000830152610f7f81610f43565b9050919050565b600082905092915050565b7f4e487b7100000000000000000000000000000000000000000000000000000000600052604160045260246000fd5b60008190508160005260206000209050919050565b60006020601f8301049050919050565b600082821b905092915050565b6000600883026110227fffffffffffffffffffffffffffffffffffffffffffffffffffffffffffffffff82610fe5565b61102c8683610fe5565b95508019841693508086168417925050509392505050565b6000819050919050565b600061106961106461105f84610c36565b611044565b610c36565b9050919050565b6000819050919050565b6110838361104e565b61109761108f82611070565b848454610ff2565b825550505050565b600090565b6110ac61109f565b6110b781848461107a565b505050565b5b818110156110db576110d06000826110a4565b6001810190506110bd565b5050565b601f821115611120576110f181610fc0565b6110fa84610fd5565b81016020851015611109578190505b61111d61111585610fd5565b8301826110bc565b50505b505050565b600082821c905092915050565b600061114360001984600802611125565b1980831691505092915050565b600061115c8383611132565b9150826002028217905092915050565b6111768383610f86565b67ffffffffffffffff81111561118f5761118e610f91565b5b6111998254610d7f565b6111a48282856110df565b6000601f8311600181146111d357600084156111c1578287013590505b6111cb8582611150565b865550611233565b601f1984166111e186610fc0565b60005b82811015611209578489013582556001820191506020850194506020810190506111e4565b868310156112265784890135611222601f891682611132565b8355505b6001600288020188555050505b5050505050505056fea2646970667358221220fceb9da284619dcee8e6c82e7a4f8916bd506ac311e0ec27e6ab707a09b595fa64736f6c63430008110033",
  "immutableReferences": {},
  "source": "// SPDX-License-Identifier: GPL-3.0\n\npragma solidity >=0.7.0 <0.9.0;\n\nimport \"./ERC4973.sol\";\n\ncontract BdlCertificate is ERC4973 {\n    address public deployer;\n    uint256 public certificatesCount = 0;\n\n    constructor() ERC4973(\"Buidl Certificate\", \"BCTK\") {\n        deployer = msg.sender;\n    }\n\n    function burn(uint256 certificateId) external override {\n        require(ownerOf(certificateId) == msg.sender || msg.sender == deployer, \"You can't revoke this certificate\");\n        _burn(certificateId);\n    }\n\n    function issue(address student, string calldata uri) external {\n        _mint(student, certificatesCount, uri);\n        certificatesCount += 1;\n    }\n\n    modifier onlyOwner() {\n        require(msg.sender == deployer, \"!authorized\");\n        _;\n    }\n}\n",
  "sourcePath": "C:\\Users\\Arogundade Ibrahim\\Documents\\web3\\Buidl\\contracts\\BdlCertificate.sol",
  "compiler": {
    "name": "solc",
    "version": "0.8.17+commit.8df45f5f.Emscripten.clang"
  },
  "schemaVersion": "3.4.10",
  "updatedAt": "2022-10-21T09:29:58.138Z",
  "devdoc": {
    "kind": "dev",
    "methods": {
      "supportsInterface(bytes4)": {
        "details": "See {IERC165-supportsInterface}."
      }
    },
    "version": 1
  },
  "userdoc": {
    "kind": "user",
    "methods": {},
    "version": 1
  }
}