{
  "contractName": "BdlCourse",
  "abi": [
    {
      "anonymous": false,
      "inputs": [
        {
          "indexed": false,
          "internalType": "uint256",
          "name": "id",
          "type": "uint256"
        },
        {
          "indexed": false,
          "internalType": "address",
          "name": "creator",
          "type": "address"
        },
        {
          "indexed": false,
          "internalType": "address",
          "name": "learner",
          "type": "address"
        }
      ],
      "name": "CourseSubscribe",
      "type": "event"
    },
    {
      "anonymous": false,
      "inputs": [
        {
          "indexed": false,
          "internalType": "uint256",
          "name": "id",
          "type": "uint256"
        },
        {
          "indexed": false,
          "internalType": "address",
          "name": "creator",
          "type": "address"
        },
        {
          "indexed": false,
          "internalType": "address",
          "name": "receiver",
          "type": "address"
        }
      ],
      "name": "CourseTransfer",
      "type": "event"
    },
    {
      "anonymous": false,
      "inputs": [
        {
          "indexed": false,
          "internalType": "uint256",
          "name": "id",
          "type": "uint256"
        },
        {
          "indexed": false,
          "internalType": "uint256",
          "name": "sId",
          "type": "uint256"
        },
        {
          "indexed": false,
          "internalType": "address",
          "name": "learner",
          "type": "address"
        }
      ],
      "name": "CourseUnSubscribe",
      "type": "event"
    },
    {
      "inputs": [
        {
          "internalType": "uint256",
          "name": "",
          "type": "uint256"
        }
      ],
      "name": "courses",
      "outputs": [
        {
          "internalType": "uint256",
          "name": "id",
          "type": "uint256"
        },
        {
          "internalType": "uint256",
          "name": "category",
          "type": "uint256"
        },
        {
          "internalType": "address",
          "name": "creator",
          "type": "address"
        },
        {
          "internalType": "uint256",
          "name": "price",
          "type": "uint256"
        },
        {
          "internalType": "uint256",
          "name": "createdAt",
          "type": "uint256"
        },
        {
          "internalType": "uint256",
          "name": "updatedAt",
          "type": "uint256"
        }
      ],
      "stateMutability": "view",
      "type": "function"
    },
    {
      "inputs": [
        {
          "internalType": "address",
          "name": "",
          "type": "address"
        },
        {
          "internalType": "uint256",
          "name": "",
          "type": "uint256"
        }
      ],
      "name": "createdCourses",
      "outputs": [
        {
          "internalType": "uint256",
          "name": "",
          "type": "uint256"
        }
      ],
      "stateMutability": "view",
      "type": "function"
    },
    {
      "inputs": [
        {
          "internalType": "address",
          "name": "",
          "type": "address"
        },
        {
          "internalType": "uint256",
          "name": "",
          "type": "uint256"
        }
      ],
      "name": "subscribeds",
      "outputs": [
        {
          "internalType": "uint256",
          "name": "",
          "type": "uint256"
        }
      ],
      "stateMutability": "view",
      "type": "function"
    },
    {
      "inputs": [
        {
          "internalType": "uint256",
          "name": "",
          "type": "uint256"
        },
        {
          "internalType": "uint256",
          "name": "",
          "type": "uint256"
        }
      ],
      "name": "subscriptions",
      "outputs": [
        {
          "internalType": "uint256",
          "name": "course",
          "type": "uint256"
        },
        {
          "internalType": "uint256",
          "name": "time",
          "type": "uint256"
        },
        {
          "internalType": "uint256",
          "name": "price",
          "type": "uint256"
        },
        {
          "internalType": "address",
          "name": "owner",
          "type": "address"
        }
      ],
      "stateMutability": "view",
      "type": "function"
    },
    {
      "inputs": [
        {
          "internalType": "uint256",
          "name": "id",
          "type": "uint256"
        },
        {
          "internalType": "address",
          "name": "learner",
          "type": "address"
        }
      ],
      "name": "subscribe",
      "outputs": [],
      "stateMutability": "nonpayable",
      "type": "function"
    },
    {
      "inputs": [
        {
          "internalType": "uint256",
          "name": "id",
          "type": "uint256"
        },
        {
          "internalType": "uint256",
          "name": "sId",
          "type": "uint256"
        },
        {
          "internalType": "address",
          "name": "learner",
          "type": "address"
        }
      ],
      "name": "unSubscribe",
      "outputs": [],
      "stateMutability": "nonpayable",
      "type": "function"
    },
    {
      "inputs": [
        {
          "internalType": "uint256",
          "name": "id",
          "type": "uint256"
        },
        {
          "internalType": "uint256",
          "name": "category",
          "type": "uint256"
        },
        {
          "internalType": "uint256",
          "name": "price",
          "type": "uint256"
        },
        {
          "internalType": "address",
          "name": "creator",
          "type": "address"
        }
      ],
      "name": "createCourse",
      "outputs": [],
      "stateMutability": "nonpayable",
      "type": "function"
    },
    {
      "inputs": [
        {
          "internalType": "uint256",
          "name": "id",
          "type": "uint256"
        },
        {
          "internalType": "uint256",
          "name": "category",
          "type": "uint256"
        },
        {
          "internalType": "uint256",
          "name": "price",
          "type": "uint256"
        },
        {
          "internalType": "address",
          "name": "creator",
          "type": "address"
        }
      ],
      "name": "updateCourse",
      "outputs": [],
      "stateMutability": "nonpayable",
      "type": "function"
    },
    {
      "inputs": [
        {
          "internalType": "uint256",
          "name": "id",
          "type": "uint256"
        },
        {
          "internalType": "address",
          "name": "creator",
          "type": "address"
        },
        {
          "internalType": "address",
          "name": "receiver",
          "type": "address"
        }
      ],
      "name": "tranfersCourse",
      "outputs": [],
      "stateMutability": "nonpayable",
      "type": "function"
    }
  ],
  "bytecode": "0x608060405234801561001057600080fd5b50610b89806100206000396000f3fe608060405234801561001057600080fd5b50600436106100a35760003560e01c80638529934b11610076578063a6bdd8151161005b578063a6bdd815146101cd578063c856e7ee146101e0578063cc7a56a0146101f357600080fd5b80638529934b1461013257806396f979d21461014557600080fd5b8063036d6718146100a857806335986b2d146100bd578063365cfcbf146100e357806359e6951d1461011f575b600080fd5b6100bb6100b63660046109ec565b610206565b005b6100d06100cb366004610a2b565b610399565b6040519081526020015b60405180910390f35b6100f66100f1366004610a55565b6103ca565b604080519485526020850193909352918301526001600160a01b031660608201526080016100da565b6100bb61012d366004610a77565b610419565b6100bb610140366004610aa3565b61061f565b610192610153366004610adf565b600060208190529081526040902080546001820154600283015460038401546004850154600590950154939492936001600160a01b0390921692909186565b6040805196875260208701959095526001600160a01b03909316938501939093526060840152608083019190915260a082015260c0016100da565b6100bb6101db3660046109ec565b61074a565b6100d06101ee366004610a2b565b610853565b6100bb610201366004610af8565b61086f565b600084815260208181526040808320815160c081018352815480825260018301549482019490945260028201546001600160a01b03169281019290925260038101546060830152600481015460808301526005015460a082015291036102b35760405162461bcd60e51b815260206004820152600760248201527f216578697374730000000000000000000000000000000000000000000000000060448201526064015b60405180910390fd5b816001600160a01b031681604001516001600160a01b0316146103065760405162461bcd60e51b815260206004820152600b60248201526a08585d5d1a1bdc9a5e995960aa1b60448201526064016102aa565b506040805160c08101825285815260208082019586526001600160a01b0393841682840190815260608301958652426080840181815260a085019182526000998a5292899052939097209151825594516001820155945160028601805473ffffffffffffffffffffffffffffffffffffffff19169190931617909155905160038401559051600483015551600590910155565b600160205281600052604060002081815481106103b557600080fd5b90600052602060002001600091509150505481565b600260205281600052604060002081815481106103e657600080fd5b6000918252602090912060049091020180546001820154600283015460039093015491945092506001600160a01b031684565b600082815260208181526040808320815160c081018352815480825260018301549482019490945260028201546001600160a01b03169281019290925260038101546060830152600481015460808301526005015460a082015291036104c15760405162461bcd60e51b815260206004820152600760248201527f216578697374730000000000000000000000000000000000000000000000000060448201526064016102aa565b816001600160a01b031681604001516001600160a01b0316036105265760405162461bcd60e51b815260206004820152601c60248201527f2163616e5f7375627363726962655f746f5f6f776e5f636f757273650000000060448201526064016102aa565b60008381526002602081815260408084208151608081018352888152428185019081526060888101518386019081526001600160a01b038b8116838601818152875460018082018a55988d528a8d209751600490910290970196875594518688015591519885019890985591516003938401805473ffffffffffffffffffffffffffffffffffffffff1916918916919091179055818852918552838720805493840181558752958490209091018890558582015182518981529416928401929092528201929092527fa8c4d61ab1b2283bd08c63be6951a0a0beb8bc1eafda7f7fccbeb6a7df01307891015b60405180910390a1505050565b6000838152602081905260409020600201546001600160a01b038381169116146106795760405162461bcd60e51b815260206004820152600b60248201526a08585d5d1a1bdc9a5e995960aa1b60448201526064016102aa565b600083815260208181526040808320600201805473ffffffffffffffffffffffffffffffffffffffff19166001600160a01b038681169190911790915585168352600190915290208054849081106106d3576106d3610b24565b60009182526020808320919091018290556001600160a01b03838116808452600180845260408086208054928301815586529484902001879055835187815291861692820192909252918201527f2fd7dc3aeb254842908e4dc655cdfd549a0d3825eaf02e31cd71b1c3df1c751a90606001610612565b600084815260208190526040902054156107a65760405162461bcd60e51b815260206004820152600660248201527f657869737473000000000000000000000000000000000000000000000000000060448201526064016102aa565b6040805160c08101825285815260208082019586526001600160a01b0393841682840181815260608401968752426080850181815260a0860191825260008b8152808652878120965187559951600180880191909155925160028701805473ffffffffffffffffffffffffffffffffffffffff1916919099161790975596516003850155945160048401559451600590920191909155928452818352832080549182018155835291200155565b600360205281600052604060002081815481106103b557600080fd5b600083815260026020526040902080546001600160a01b03831691908490811061089b5761089b610b24565b60009182526020909120600360049092020101546001600160a01b0316146108f35760405162461bcd60e51b815260206004820152600b60248201526a08585d5d1a1bdc9a5e995960aa1b60448201526064016102aa565b600083815260026020526040902080548390811061091357610913610b24565b60009182526020808320600490920290910182815560018101839055600281018390556003908101805473ffffffffffffffffffffffffffffffffffffffff191690556001600160a01b038416835290526040902080548490811061097a5761097a610b24565b6000918252602080832090910191909155604080518581529182018490526001600160a01b038316908201527fbd5eec3fc06fe6a176d98dd87610bec6872af33e524e949929a3c2725648032790606001610612565b80356001600160a01b03811681146109e757600080fd5b919050565b60008060008060808587031215610a0257600080fd5b843593506020850135925060408501359150610a20606086016109d0565b905092959194509250565b60008060408385031215610a3e57600080fd5b610a47836109d0565b946020939093013593505050565b60008060408385031215610a6857600080fd5b50508035926020909101359150565b60008060408385031215610a8a57600080fd5b82359150610a9a602084016109d0565b90509250929050565b600080600060608486031215610ab857600080fd5b83359250610ac8602085016109d0565b9150610ad6604085016109d0565b90509250925092565b600060208284031215610af157600080fd5b5035919050565b600080600060608486031215610b0d57600080fd5b8335925060208401359150610ad6604085016109d0565b7f4e487b7100000000000000000000000000000000000000000000000000000000600052603260045260246000fdfea26469706673582212200db0a6266b1e0227f6597b47243fa67f2006f8c2926e8d72a878557c5f4b9bcf64736f6c63430008100033",
  "immutableReferences": {},
  "source": "// SPDX-License-Identifier: GPL-3.0\npragma solidity >=0.7.0 <0.9.0;\n\nimport {Models} from \"./base/Models.sol\";\n\ncontract BdlCourse {\n    /* all ecosystem courses */\n    mapping(uint => Models.Course) public courses;\n\n    // creator => course id\n    mapping(address => uint[]) public createdCourses;\n\n    /* holds all course subscriptions */\n    mapping(uint => Models.Subscription[]) public subscriptions;\n\n    // learner => course id\n    mapping(address => uint[]) public subscribeds;\n\n    // == learner related functions == //\n\n    /* function to subscribe to a course */\n    function subscribe(uint id, address learner) external {\n        Models.Course memory course = courses[id];\n\n        require(course.id != 0, \"!exists\");\n        require(course.creator != learner, \"!can_subscribe_to_own_course\");\n\n        subscriptions[id].push(\n            Models.Subscription(id, block.timestamp, course.price, learner)\n        );\n\n        subscribeds[learner].push(id);\n\n        emit CourseSubscribe(id, course.creator, learner);\n    }\n\n    /* function to unsubscribe from a course */\n    function unSubscribe(\n        uint id,\n        uint sId,\n        address learner\n    ) external {\n        require(subscriptions[id][sId].owner == learner, \"!authorized\");\n        delete subscriptions[id][sId];\n        delete subscribeds[learner][id];\n\n        emit CourseUnSubscribe(id, sId, learner);\n    }\n\n    // == creator related functions == //\n\n    /* create a new course */\n    function createCourse(\n        uint id,\n        uint category,\n        uint256 price,\n        address creator\n    ) external {\n        require(courses[id].id == 0, \"exists\");\n\n        courses[id] = Models.Course(\n            id,\n            category,\n            creator,\n            price,\n            block.timestamp,\n            block.timestamp\n        );\n\n        createdCourses[creator].push(id);\n    }\n\n    /* updates an existing course */\n    function updateCourse(\n        uint id,\n        uint category,\n        uint256 price,\n        address creator\n    ) external {\n        Models.Course memory course = courses[id];\n\n        require(course.id != 0, \"!exists\");\n        require(course.creator == creator, \"!authorized\");\n\n        courses[id] = Models.Course(\n            id,\n            category,\n            creator,\n            price,\n            block.timestamp,\n            block.timestamp\n        );\n    }\n\n    /* transfer course onwership */\n    function tranfersCourse(\n        uint id,\n        address creator,\n        address receiver\n    ) external {\n        require(courses[id].creator == creator, \"!authorized\");\n        courses[id].creator = receiver;\n\n        delete createdCourses[creator][id];\n        createdCourses[receiver].push(id);\n\n        emit CourseTransfer(id, creator, receiver);\n    }\n\n    // == events == //\n    event CourseSubscribe(uint id, address creator, address learner);\n    event CourseUnSubscribe(uint id, uint sId, address learner);\n    event CourseTransfer(uint id, address creator, address receiver);\n}\n",
  "sourcePath": "C:\\Users\\Arogundade Ibrahim\\Documents\\web3\\Buidl\\contracts\\BdlCourse.sol",
  "compiler": {
    "name": "solc",
    "version": "0.8.16+commit.07a7930e.Emscripten.clang"
  },
  "schemaVersion": "3.4.10",
  "updatedAt": "2022-10-24T18:30:09.062Z",
  "devdoc": {
    "kind": "dev",
    "methods": {},
    "version": 1
  },
  "userdoc": {
    "kind": "user",
    "methods": {},
    "version": 1
  }
}