{
  "contractName": "BdlCertificate",
  "abi": [
    {
      "inputs": [
        {
          "internalType": "string",
          "name": "name",
          "type": "string"
        },
        {
          "internalType": "string",
          "name": "symbol",
          "type": "string"
        }
      ],
      "stateMutability": "nonpayable",
      "type": "constructor"
    },
    {
      "anonymous": false,
      "inputs": [
        {
          "indexed": true,
          "internalType": "address",
          "name": "_to",
          "type": "address"
        },
        {
          "indexed": true,
          "internalType": "uint256",
          "name": "_tokenId",
          "type": "uint256"
        }
      ],
      "name": "Attest",
      "type": "event"
    },
    {
      "anonymous": false,
      "inputs": [
        {
          "indexed": false,
          "internalType": "uint256",
          "name": "id",
          "type": "uint256"
        },
        {
          "indexed": false,
          "internalType": "address",
          "name": "owner",
          "type": "address"
        },
        {
          "indexed": false,
          "internalType": "string",
          "name": "uri",
          "type": "string"
        }
      ],
      "name": "Issued",
      "type": "event"
    },
    {
      "anonymous": false,
      "inputs": [
        {
          "indexed": true,
          "internalType": "address",
          "name": "_to",
          "type": "address"
        },
        {
          "indexed": true,
          "internalType": "uint256",
          "name": "_tokenId",
          "type": "uint256"
        }
      ],
      "name": "Revoke",
      "type": "event"
    },
    {
      "inputs": [],
      "name": "name",
      "outputs": [
        {
          "internalType": "string",
          "name": "",
          "type": "string"
        }
      ],
      "stateMutability": "view",
      "type": "function"
    },
    {
      "inputs": [
        {
          "internalType": "uint256",
          "name": "tokenId",
          "type": "uint256"
        }
      ],
      "name": "ownerOf",
      "outputs": [
        {
          "internalType": "address",
          "name": "",
          "type": "address"
        }
      ],
      "stateMutability": "view",
      "type": "function"
    },
    {
      "inputs": [
        {
          "internalType": "bytes4",
          "name": "interfaceId",
          "type": "bytes4"
        }
      ],
      "name": "supportsInterface",
      "outputs": [
        {
          "internalType": "bool",
          "name": "",
          "type": "bool"
        }
      ],
      "stateMutability": "view",
      "type": "function"
    },
    {
      "inputs": [],
      "name": "symbol",
      "outputs": [
        {
          "internalType": "string",
          "name": "",
          "type": "string"
        }
      ],
      "stateMutability": "view",
      "type": "function"
    },
    {
      "inputs": [
        {
          "internalType": "uint256",
          "name": "tokenId",
          "type": "uint256"
        }
      ],
      "name": "tokenURI",
      "outputs": [
        {
          "internalType": "string",
          "name": "",
          "type": "string"
        }
      ],
      "stateMutability": "view",
      "type": "function"
    },
    {
      "inputs": [
        {
          "internalType": "uint256",
          "name": "certificateId",
          "type": "uint256"
        }
      ],
      "name": "burn",
      "outputs": [],
      "stateMutability": "nonpayable",
      "type": "function"
    },
    {
      "inputs": [
        {
          "internalType": "address",
          "name": "learner",
          "type": "address"
        },
        {
          "internalType": "string",
          "name": "uri",
          "type": "string"
        }
      ],
      "name": "issue",
      "outputs": [],
      "stateMutability": "nonpayable",
      "type": "function"
    }
  ],
  "bytecode": "0x608060405260016005553480156200001657600080fd5b5060405162000da438038062000da483398101604081905262000039916200013b565b8181600062000049838262000234565b50600162000058828262000234565b5050600480546001600160a01b031916331790555062000300915050565b634e487b7160e01b600052604160045260246000fd5b600082601f8301126200009e57600080fd5b81516001600160401b0380821115620000bb57620000bb62000076565b604051601f8301601f19908116603f01168101908282118183101715620000e657620000e662000076565b816040528381526020925086838588010111156200010357600080fd5b600091505b8382101562000127578582018301518183018401529082019062000108565b600093810190920192909252949350505050565b600080604083850312156200014f57600080fd5b82516001600160401b03808211156200016757600080fd5b62000175868387016200008c565b935060208501519150808211156200018c57600080fd5b506200019b858286016200008c565b9150509250929050565b600181811c90821680620001ba57607f821691505b602082108103620001db57634e487b7160e01b600052602260045260246000fd5b50919050565b601f8211156200022f57600081815260208120601f850160051c810160208610156200020a5750805b601f850160051c820191505b818110156200022b5782815560010162000216565b5050505b505050565b81516001600160401b0381111562000250576200025062000076565b6200026881620002618454620001a5565b84620001e1565b602080601f831160018114620002a05760008415620002875750858301515b600019600386901b1c1916600185901b1785556200022b565b600085815260208120601f198616915b82811015620002d157888601518255948401946001909101908401620002b0565b5085821015620002f05787850151600019600388901b60f8161c191681555b5050505050600190811b01905550565b610a9480620003106000396000f3fe608060405234801561001057600080fd5b506004361061007d5760003560e01c806342966c681161005b57806342966c68146100d45780636352211e146100e757806395d89b4114610112578063c87b56dd1461011a57600080fd5b806301ffc9a71461008257806304b444d9146100aa57806306fdde03146100bf575b600080fd5b610095610090366004610750565b61012d565b60405190151581526020015b60405180910390f35b6100bd6100b8366004610799565b610212565b005b6100c76102ce565b6040516100a1919061082a565b6100bd6100e2366004610878565b610360565b6100fa6100f5366004610878565b6103f8565b6040516001600160a01b0390911681526020016100a1565b6100c761045d565b6100c7610128366004610878565b61046c565b60007fffffffff0000000000000000000000000000000000000000000000000000000082167f5b5e139f0000000000000000000000000000000000000000000000000000000014806101c057507fffffffff0000000000000000000000000000000000000000000000000000000082167f21c44d7600000000000000000000000000000000000000000000000000000000145b8061020c57507f01ffc9a7000000000000000000000000000000000000000000000000000000007fffffffff000000000000000000000000000000000000000000000000000000008316145b92915050565b610220836005548484610571565b50600554600090815260066020526040902061023d828483610930565b506005546040516001600160a01b038516907fe9274a84b19e9428826de6bae8c48329354f8f0e73f771b97cae2d9dccd45a2790600090a37f381b3c2768bc16c7296e77b51cac213d6e8331455193be573ca09ebc9808d71f6005548484846040516102ac94939291906109f1565b60405180910390a1600580549060006102c483610a37565b9190505550505050565b6060600080546102dd906108a7565b80601f0160208091040260200160405190810160405280929190818152602001828054610309906108a7565b80156103565780601f1061032b57610100808354040283529160200191610356565b820191906000526020600020905b81548152906001019060200180831161033957829003601f168201915b5050505050905090565b6004546001600160a01b031633146103bf5760405162461bcd60e51b815260206004820152600b60248201527f21617574686f72697a656400000000000000000000000000000000000000000060448201526064015b60405180910390fd5b6103c88161066a565b60405181906000907fec9ab91322523c899ede7830ec9bfc992b5981cdcc27b91162fb23de5791117b908290a350565b6000818152600260205260408120546001600160a01b03168061020c5760405162461bcd60e51b815260206004820152601c60248201527f6f776e65724f663a20746f6b656e20646f65736e27742065786973740000000060448201526064016103b6565b6060600180546102dd906108a7565b6000818152600260205260409020546060906001600160a01b03166104d35760405162461bcd60e51b815260206004820152601d60248201527f746f6b656e5552493a20746f6b656e20646f65736e277420657869737400000060448201526064016103b6565b600082815260036020526040902080546104ec906108a7565b80601f0160208091040260200160405190810160405280929190818152602001828054610518906108a7565b80156105655780601f1061053a57610100808354040283529160200191610565565b820191906000526020600020905b81548152906001019060200180831161054857829003601f168201915b50505050509050919050565b6000838152600260205260408120546001600160a01b0316156105d65760405162461bcd60e51b815260206004820152601460248201527f6d696e743a20746f6b656e49442065786973747300000000000000000000000060448201526064016103b6565b600084815260026020908152604080832080547fffffffffffffffffffffffff0000000000000000000000000000000000000000166001600160a01b038a161790556003909152902061062a838583610930565b5060405184906001600160a01b038716907fe9274a84b19e9428826de6bae8c48329354f8f0e73f771b97cae2d9dccd45a2790600090a350919392505050565b6000610675826103f8565b600083815260026020908152604080832080547fffffffffffffffffffffffff0000000000000000000000000000000000000000169055600390915281209192506106c091906106fa565b60405182906001600160a01b038316907fec9ab91322523c899ede7830ec9bfc992b5981cdcc27b91162fb23de5791117b90600090a35050565b508054610706906108a7565b6000825580601f10610716575050565b601f0160209004906000526020600020908101906107349190610737565b50565b5b8082111561074c5760008155600101610738565b5090565b60006020828403121561076257600080fd5b81357fffffffff000000000000000000000000000000000000000000000000000000008116811461079257600080fd5b9392505050565b6000806000604084860312156107ae57600080fd5b83356001600160a01b03811681146107c557600080fd5b9250602084013567ffffffffffffffff808211156107e257600080fd5b818601915086601f8301126107f657600080fd5b81358181111561080557600080fd5b87602082850101111561081757600080fd5b6020830194508093505050509250925092565b600060208083528351808285015260005b818110156108575785810183015185820160400152820161083b565b506000604082860101526040601f19601f8301168501019250505092915050565b60006020828403121561088a57600080fd5b5035919050565b634e487b7160e01b600052604160045260246000fd5b600181811c908216806108bb57607f821691505b6020821081036108db57634e487b7160e01b600052602260045260246000fd5b50919050565b601f82111561092b57600081815260208120601f850160051c810160208610156109085750805b601f850160051c820191505b8181101561092757828155600101610914565b5050505b505050565b67ffffffffffffffff83111561094857610948610891565b61095c8361095683546108a7565b836108e1565b6000601f84116001811461099057600085156109785750838201355b600019600387901b1c1916600186901b1783556109ea565b600083815260209020601f19861690835b828110156109c157868501358255602094850194600190920191016109a1565b50868210156109de5760001960f88860031b161c19848701351681555b505060018560011b0183555b5050505050565b8481526001600160a01b038416602082015260606040820152816060820152818360808301376000818301608090810191909152601f909201601f191601019392505050565b600060018201610a5757634e487b7160e01b600052601160045260246000fd5b506001019056fea2646970667358221220337779ba88b29505b39153b1d3c15cf55221a4d2dabacf6eb3ca85dc7947952c64736f6c63430008100033",
  "immutableReferences": {},
  "source": "// SPDX-License-Identifier: GPL-3.0\npragma solidity >=0.7.0 <0.9.0;\n\nimport \"./../base/ERC4973.sol\";\n\ncontract BdlCertificate is ERC4973 {\n    address deployer;\n    uint certificateID = 1;\n\n    mapping(uint256 => string) private certificateURIs;\n\n    constructor(string memory name, string memory symbol)\n        ERC4973(name, symbol)\n    {\n        deployer = msg.sender;\n    }\n\n    function burn(uint256 certificateId) external override onlyOwner {\n        _burn(certificateId);\n\n        emit Revoke(address(0), certificateId);\n    }\n\n    function issue(address learner, string calldata uri) external {\n        _mint(learner, certificateID, uri);\n        certificateURIs[certificateID] = uri;\n\n        emit Attest(learner, certificateID);\n        emit Issued(certificateID, learner, uri);\n        certificateID++;\n    }\n\n    modifier onlyOwner() {\n        require(msg.sender == deployer, \"!authorized\");\n        _;\n    }\n\n    event Issued(uint id, address owner, string uri);\n}\n",
  "sourcePath": "C:\\Users\\Arogundade Ibrahim\\Documents\\web3\\Buidl\\contracts\\buidl\\BdlCertificate.sol",
  "compiler": {
    "name": "solc",
    "version": "0.8.16+commit.07a7930e.Emscripten.clang"
  },
  "schemaVersion": "3.4.10",
  "updatedAt": "2022-11-07T20:36:46.415Z",
  "devdoc": {
    "kind": "dev",
    "methods": {
      "supportsInterface(bytes4)": {
        "details": "See {IERC165-supportsInterface}."
      }
    },
    "version": 1
  },
  "userdoc": {
    "kind": "user",
    "methods": {},
    "version": 1
  }
}