{
  "contractName": "BdlCertificate",
  "abi": [
    {
      "inputs": [],
      "stateMutability": "nonpayable",
      "type": "constructor"
    },
    {
      "anonymous": false,
      "inputs": [
        {
          "indexed": true,
          "internalType": "address",
          "name": "_to",
          "type": "address"
        },
        {
          "indexed": true,
          "internalType": "uint256",
          "name": "_tokenId",
          "type": "uint256"
        }
      ],
      "name": "Attest",
      "type": "event"
    },
    {
      "anonymous": false,
      "inputs": [
        {
          "indexed": true,
          "internalType": "address",
          "name": "_to",
          "type": "address"
        },
        {
          "indexed": true,
          "internalType": "uint256",
          "name": "_tokenId",
          "type": "uint256"
        }
      ],
      "name": "Revoke",
      "type": "event"
    },
    {
      "inputs": [],
      "name": "name",
      "outputs": [
        {
          "internalType": "string",
          "name": "",
          "type": "string"
        }
      ],
      "stateMutability": "view",
      "type": "function"
    },
    {
      "inputs": [
        {
          "internalType": "uint256",
          "name": "tokenId",
          "type": "uint256"
        }
      ],
      "name": "ownerOf",
      "outputs": [
        {
          "internalType": "address",
          "name": "",
          "type": "address"
        }
      ],
      "stateMutability": "view",
      "type": "function"
    },
    {
      "inputs": [
        {
          "internalType": "bytes4",
          "name": "interfaceId",
          "type": "bytes4"
        }
      ],
      "name": "supportsInterface",
      "outputs": [
        {
          "internalType": "bool",
          "name": "",
          "type": "bool"
        }
      ],
      "stateMutability": "view",
      "type": "function"
    },
    {
      "inputs": [],
      "name": "symbol",
      "outputs": [
        {
          "internalType": "string",
          "name": "",
          "type": "string"
        }
      ],
      "stateMutability": "view",
      "type": "function"
    },
    {
      "inputs": [
        {
          "internalType": "uint256",
          "name": "tokenId",
          "type": "uint256"
        }
      ],
      "name": "tokenURI",
      "outputs": [
        {
          "internalType": "string",
          "name": "",
          "type": "string"
        }
      ],
      "stateMutability": "view",
      "type": "function"
    },
    {
      "inputs": [
        {
          "internalType": "uint256",
          "name": "certificateId",
          "type": "uint256"
        }
      ],
      "name": "burn",
      "outputs": [],
      "stateMutability": "nonpayable",
      "type": "function"
    },
    {
      "inputs": [
        {
          "internalType": "address",
          "name": "student",
          "type": "address"
        },
        {
          "internalType": "string",
          "name": "uri",
          "type": "string"
        }
      ],
      "name": "issue",
      "outputs": [],
      "stateMutability": "nonpayable",
      "type": "function"
    }
  ],
  "bytecode": "0x6080604052600160055534801561001557600080fd5b5060405180604001604052806011815260200170427569646c20436572746966696361746560781b815250604051806040016040528060048152602001634243544b60e01b815250816000908161006c9190610132565b5060016100798282610132565b5050600480546001600160a01b03191633179055506101f1565b634e487b7160e01b600052604160045260246000fd5b600181811c908216806100bd57607f821691505b6020821081036100dd57634e487b7160e01b600052602260045260246000fd5b50919050565b601f82111561012d57600081815260208120601f850160051c8101602086101561010a5750805b601f850160051c820191505b8181101561012957828155600101610116565b5050505b505050565b81516001600160401b0381111561014b5761014b610093565b61015f8161015984546100a9565b846100e3565b602080601f831160018114610194576000841561017c5750858301515b600019600386901b1c1916600185901b178555610129565b600085815260208120601f198616915b828110156101c3578886015182559484019460019091019084016101a4565b50858210156101e15787850151600019600388901b60f8161c191681555b5050505050600190811b01905550565b6109f280620002016000396000f3fe608060405234801561001057600080fd5b506004361061007d5760003560e01c806342966c681161005b57806342966c68146100d45780636352211e146100e757806395d89b4114610112578063c87b56dd1461011a57600080fd5b806301ffc9a71461008257806304b444d9146100aa57806306fdde03146100bf575b600080fd5b6100956100903660046106f4565b61012d565b60405190151581526020015b60405180910390f35b6100bd6100b836600461073d565b610212565b005b6100c7610272565b6040516100a191906107ce565b6100bd6100e236600461081c565b610304565b6100fa6100f536600461081c565b61039c565b6040516001600160a01b0390911681526020016100a1565b6100c7610401565b6100c761012836600461081c565b610410565b60007fffffffff0000000000000000000000000000000000000000000000000000000082167f5b5e139f0000000000000000000000000000000000000000000000000000000014806101c057507fffffffff0000000000000000000000000000000000000000000000000000000082167f21c44d7600000000000000000000000000000000000000000000000000000000145b8061020c57507f01ffc9a7000000000000000000000000000000000000000000000000000000007fffffffff000000000000000000000000000000000000000000000000000000008316145b92915050565b610220836005548484610515565b506005546040516001600160a01b038516907fe9274a84b19e9428826de6bae8c48329354f8f0e73f771b97cae2d9dccd45a2790600090a36005805490600061026883610835565b9190505550505050565b6060600080546102819061085c565b80601f01602080910402602001604051908101604052809291908181526020018280546102ad9061085c565b80156102fa5780601f106102cf576101008083540402835291602001916102fa565b820191906000526020600020905b8154815290600101906020018083116102dd57829003601f168201915b5050505050905090565b6004546001600160a01b031633146103635760405162461bcd60e51b815260206004820152600b60248201527f21617574686f72697a656400000000000000000000000000000000000000000060448201526064015b60405180910390fd5b61036c8161060e565b60405181906000907fec9ab91322523c899ede7830ec9bfc992b5981cdcc27b91162fb23de5791117b908290a350565b6000818152600260205260408120546001600160a01b03168061020c5760405162461bcd60e51b815260206004820152601c60248201527f6f776e65724f663a20746f6b656e20646f65736e277420657869737400000000604482015260640161035a565b6060600180546102819061085c565b6000818152600260205260409020546060906001600160a01b03166104775760405162461bcd60e51b815260206004820152601d60248201527f746f6b656e5552493a20746f6b656e20646f65736e2774206578697374000000604482015260640161035a565b600082815260036020526040902080546104909061085c565b80601f01602080910402602001604051908101604052809291908181526020018280546104bc9061085c565b80156105095780601f106104de57610100808354040283529160200191610509565b820191906000526020600020905b8154815290600101906020018083116104ec57829003601f168201915b50505050509050919050565b6000838152600260205260408120546001600160a01b03161561057a5760405162461bcd60e51b815260206004820152601460248201527f6d696e743a20746f6b656e494420657869737473000000000000000000000000604482015260640161035a565b600084815260026020908152604080832080547fffffffffffffffffffffffff0000000000000000000000000000000000000000166001600160a01b038a16179055600390915290206105ce8385836108fb565b5060405184906001600160a01b038716907fe9274a84b19e9428826de6bae8c48329354f8f0e73f771b97cae2d9dccd45a2790600090a350919392505050565b60006106198261039c565b600083815260026020908152604080832080547fffffffffffffffffffffffff000000000000000000000000000000000000000016905560039091528120919250610664919061069e565b60405182906001600160a01b038316907fec9ab91322523c899ede7830ec9bfc992b5981cdcc27b91162fb23de5791117b90600090a35050565b5080546106aa9061085c565b6000825580601f106106ba575050565b601f0160209004906000526020600020908101906106d891906106db565b50565b5b808211156106f057600081556001016106dc565b5090565b60006020828403121561070657600080fd5b81357fffffffff000000000000000000000000000000000000000000000000000000008116811461073657600080fd5b9392505050565b60008060006040848603121561075257600080fd5b83356001600160a01b038116811461076957600080fd5b9250602084013567ffffffffffffffff8082111561078657600080fd5b818601915086601f83011261079a57600080fd5b8135818111156107a957600080fd5b8760208285010111156107bb57600080fd5b6020830194508093505050509250925092565b600060208083528351808285015260005b818110156107fb578581018301518582016040015282016107df565b506000604082860101526040601f19601f8301168501019250505092915050565b60006020828403121561082e57600080fd5b5035919050565b60006001820161085557634e487b7160e01b600052601160045260246000fd5b5060010190565b600181811c9082168061087057607f821691505b60208210810361089057634e487b7160e01b600052602260045260246000fd5b50919050565b634e487b7160e01b600052604160045260246000fd5b601f8211156108f657600081815260208120601f850160051c810160208610156108d35750805b601f850160051c820191505b818110156108f2578281556001016108df565b5050505b505050565b67ffffffffffffffff83111561091357610913610896565b61092783610921835461085c565b836108ac565b6000601f84116001811461095b57600085156109435750838201355b600019600387901b1c1916600186901b1783556109b5565b600083815260209020601f19861690835b8281101561098c578685013582556020948501946001909201910161096c565b50868210156109a95760001960f88860031b161c19848701351681555b505060018560011b0183555b505050505056fea2646970667358221220377cc85bc9fe8065328336829aea884f59e8003427f702f45f0a592a41ce6b2c64736f6c63430008100033",
  "immutableReferences": {},
  "source": "// SPDX-License-Identifier: GPL-3.0\npragma solidity >=0.7.0 <0.9.0;\n\nimport \"./ERC4973.sol\";\n\ncontract BdlCertificate is ERC4973 {\n    address deployer;\n    uint256 certificatesCount = 1;\n\n    constructor() ERC4973(\"Buidl Certificate\", \"BCTK\") {\n        deployer = msg.sender;\n    }\n\n    function burn(uint256 certificateId) external override onlyOwner {\n        _burn(certificateId);\n\n        emit Revoke(address(0), certificateId);\n    }\n\n    function issue(address student, string calldata uri) external {\n        _mint(student, certificatesCount, uri);\n\n        emit Attest(student, certificatesCount);\n        certificatesCount++;\n    }\n\n    modifier onlyOwner() {\n        require(msg.sender == deployer, \"!authorized\");\n        _;\n    }\n}\n",
  "sourcePath": "C:\\Users\\Arogundade Ibrahim\\Documents\\web3\\Buidl\\contracts\\BdlCertificate.sol",
  "compiler": {
    "name": "solc",
    "version": "0.8.16+commit.07a7930e.Emscripten.clang"
  },
  "schemaVersion": "3.4.10",
  "updatedAt": "2022-10-24T10:30:53.984Z",
  "devdoc": {
    "kind": "dev",
    "methods": {
      "supportsInterface(bytes4)": {
        "details": "See {IERC165-supportsInterface}."
      }
    },
    "version": 1
  },
  "userdoc": {
    "kind": "user",
    "methods": {},
    "version": 1
  }
}