{
  "contractName": "BdlCertificate",
  "abi": [
    {
      "inputs": [],
      "stateMutability": "nonpayable",
      "type": "constructor"
    },
    {
      "anonymous": false,
      "inputs": [
        {
          "indexed": true,
          "internalType": "address",
          "name": "_to",
          "type": "address"
        },
        {
          "indexed": true,
          "internalType": "uint256",
          "name": "_tokenId",
          "type": "uint256"
        }
      ],
      "name": "Attest",
      "type": "event"
    },
    {
      "anonymous": false,
      "inputs": [
        {
          "indexed": true,
          "internalType": "address",
          "name": "_to",
          "type": "address"
        },
        {
          "indexed": true,
          "internalType": "uint256",
          "name": "_tokenId",
          "type": "uint256"
        }
      ],
      "name": "Revoke",
      "type": "event"
    },
    {
      "inputs": [],
      "name": "certificatesCount",
      "outputs": [
        {
          "internalType": "uint256",
          "name": "",
          "type": "uint256"
        }
      ],
      "stateMutability": "view",
      "type": "function",
      "constant": true
    },
    {
      "inputs": [],
      "name": "deployer",
      "outputs": [
        {
          "internalType": "address",
          "name": "",
          "type": "address"
        }
      ],
      "stateMutability": "view",
      "type": "function",
      "constant": true
    },
    {
      "inputs": [],
      "name": "name",
      "outputs": [
        {
          "internalType": "string",
          "name": "",
          "type": "string"
        }
      ],
      "stateMutability": "view",
      "type": "function",
      "constant": true
    },
    {
      "inputs": [
        {
          "internalType": "uint256",
          "name": "tokenId",
          "type": "uint256"
        }
      ],
      "name": "ownerOf",
      "outputs": [
        {
          "internalType": "address",
          "name": "",
          "type": "address"
        }
      ],
      "stateMutability": "view",
      "type": "function",
      "constant": true
    },
    {
      "inputs": [
        {
          "internalType": "bytes4",
          "name": "interfaceId",
          "type": "bytes4"
        }
      ],
      "name": "supportsInterface",
      "outputs": [
        {
          "internalType": "bool",
          "name": "",
          "type": "bool"
        }
      ],
      "stateMutability": "view",
      "type": "function",
      "constant": true
    },
    {
      "inputs": [],
      "name": "symbol",
      "outputs": [
        {
          "internalType": "string",
          "name": "",
          "type": "string"
        }
      ],
      "stateMutability": "view",
      "type": "function",
      "constant": true
    },
    {
      "inputs": [
        {
          "internalType": "uint256",
          "name": "tokenId",
          "type": "uint256"
        }
      ],
      "name": "tokenURI",
      "outputs": [
        {
          "internalType": "string",
          "name": "",
          "type": "string"
        }
      ],
      "stateMutability": "view",
      "type": "function",
      "constant": true
    },
    {
      "inputs": [
        {
          "internalType": "uint256",
          "name": "certificateId",
          "type": "uint256"
        }
      ],
      "name": "burn",
      "outputs": [],
      "stateMutability": "nonpayable",
      "type": "function"
    },
    {
      "inputs": [
        {
          "internalType": "address",
          "name": "student",
          "type": "address"
        },
        {
          "internalType": "string",
          "name": "uri",
          "type": "string"
        }
      ],
      "name": "issue",
      "outputs": [],
      "stateMutability": "nonpayable",
      "type": "function"
    }
  ],
  "bytecode": "0x608060405260006005553480156200001657600080fd5b506040518060400160405280601181526020017f427569646c2043657274696669636174650000000000000000000000000000008152506040518060400160405280600481526020017f4243544b0000000000000000000000000000000000000000000000000000000081525081600090816200009491906200036a565b508060019081620000a691906200036a565b50505033600460006101000a81548173ffffffffffffffffffffffffffffffffffffffff021916908373ffffffffffffffffffffffffffffffffffffffff16021790555062000451565b600081519050919050565b7f4e487b7100000000000000000000000000000000000000000000000000000000600052604160045260246000fd5b7f4e487b7100000000000000000000000000000000000000000000000000000000600052602260045260246000fd5b600060028204905060018216806200017257607f821691505b6020821081036200018857620001876200012a565b5b50919050565b60008190508160005260206000209050919050565b60006020601f8301049050919050565b600082821b905092915050565b600060088302620001f27fffffffffffffffffffffffffffffffffffffffffffffffffffffffffffffffff82620001b3565b620001fe8683620001b3565b95508019841693508086168417925050509392505050565b6000819050919050565b6000819050919050565b60006200024b620002456200023f8462000216565b62000220565b62000216565b9050919050565b6000819050919050565b62000267836200022a565b6200027f620002768262000252565b848454620001c0565b825550505050565b600090565b6200029662000287565b620002a38184846200025c565b505050565b5b81811015620002cb57620002bf6000826200028c565b600181019050620002a9565b5050565b601f8211156200031a57620002e4816200018e565b620002ef84620001a3565b81016020851015620002ff578190505b620003176200030e85620001a3565b830182620002a8565b50505b505050565b600082821c905092915050565b60006200033f600019846008026200031f565b1980831691505092915050565b60006200035a83836200032c565b9150826002028217905092915050565b6200037582620000f0565b67ffffffffffffffff811115620003915762000390620000fb565b5b6200039d825462000159565b620003aa828285620002cf565b600060209050601f831160018114620003e25760008415620003cd578287015190505b620003d985826200034c565b86555062000449565b601f198416620003f2866200018e565b60005b828110156200041c57848901518255600182019150602085019450602081019050620003f5565b868310156200043c578489015162000438601f8916826200032c565b8355505b6001600288020188555050505b505050505050565b61136e80620004616000396000f3fe608060405234801561001057600080fd5b50600436106100935760003560e01c80636352211e116100665780636352211e1461011e57806395d89b411461014e578063b34b46481461016c578063c87b56dd1461018a578063d5f39488146101ba57610093565b806301ffc9a71461009857806304b444d9146100c857806306fdde03146100e457806342966c6814610102575b600080fd5b6100b260048036038101906100ad9190610a8e565b6101d8565b6040516100bf9190610ad6565b60405180910390f35b6100e260048036038101906100dd9190610bb4565b6102ba565b005b6100ec610378565b6040516100f99190610ca4565b60405180910390f35b61011c60048036038101906101179190610cfc565b61040a565b005b61013860048036038101906101339190610cfc565b6104e4565b6040516101459190610d38565b60405180910390f35b610156610595565b6040516101639190610ca4565b60405180910390f35b610174610627565b6040516101819190610d62565b60405180910390f35b6101a4600480360381019061019f9190610cfc565b61062d565b6040516101b19190610ca4565b60405180910390f35b6101c261071a565b6040516101cf9190610d38565b60405180910390f35b60007f5b5e139f000000000000000000000000000000000000000000000000000000007bffffffffffffffffffffffffffffffffffffffffffffffffffffffff1916827bffffffffffffffffffffffffffffffffffffffffffffffffffffffff191614806102a357507f21c44d76000000000000000000000000000000000000000000000000000000007bffffffffffffffffffffffffffffffffffffffffffffffffffffffff1916827bffffffffffffffffffffffffffffffffffffffffffffffffffffffff1916145b806102b357506102b282610740565b5b9050919050565b600460009054906101000a900473ffffffffffffffffffffffffffffffffffffffff1673ffffffffffffffffffffffffffffffffffffffff163373ffffffffffffffffffffffffffffffffffffffff161461034a576040517f08c379a000000000000000000000000000000000000000000000000000000000815260040161034190610dc9565b60405180910390fd5b6103588360055484846107aa565b5060016005600082825461036c9190610e18565b92505081905550505050565b60606000805461038790610e7b565b80601f01602080910402602001604051908101604052809291908181526020018280546103b390610e7b565b80156104005780601f106103d557610100808354040283529160200191610400565b820191906000526020600020905b8154815290600101906020018083116103e357829003601f168201915b5050505050905090565b3373ffffffffffffffffffffffffffffffffffffffff1661042a826104e4565b73ffffffffffffffffffffffffffffffffffffffff1614806104995750600460009054906101000a900473ffffffffffffffffffffffffffffffffffffffff1673ffffffffffffffffffffffffffffffffffffffff163373ffffffffffffffffffffffffffffffffffffffff16145b6104d8576040517f08c379a00000000000000000000000000000000000000000000000000000000081526004016104cf90610f1e565b60405180910390fd5b6104e1816108b9565b50565b6000806002600084815260200190815260200160002060009054906101000a900473ffffffffffffffffffffffffffffffffffffffff169050600073ffffffffffffffffffffffffffffffffffffffff168173ffffffffffffffffffffffffffffffffffffffff160361058c576040517f08c379a000000000000000000000000000000000000000000000000000000000815260040161058390610f8a565b60405180910390fd5b80915050919050565b6060600180546105a490610e7b565b80601f01602080910402602001604051908101604052809291908181526020018280546105d090610e7b565b801561061d5780601f106105f25761010080835404028352916020019161061d565b820191906000526020600020905b81548152906001019060200180831161060057829003601f168201915b5050505050905090565b60055481565b606061063882610963565b610677576040517f08c379a000000000000000000000000000000000000000000000000000000000815260040161066e90610ff6565b60405180910390fd5b60036000838152602001908152602001600020805461069590610e7b565b80601f01602080910402602001604051908101604052809291908181526020018280546106c190610e7b565b801561070e5780601f106106e35761010080835404028352916020019161070e565b820191906000526020600020905b8154815290600101906020018083116106f157829003601f168201915b50505050509050919050565b600460009054906101000a900473ffffffffffffffffffffffffffffffffffffffff1681565b60007f01ffc9a7000000000000000000000000000000000000000000000000000000007bffffffffffffffffffffffffffffffffffffffffffffffffffffffff1916827bffffffffffffffffffffffffffffffffffffffffffffffffffffffff1916149050919050565b60006107b584610963565b156107f5576040517f08c379a00000000000000000000000000000000000000000000000000000000081526004016107ec90611062565b60405180910390fd5b846002600086815260200190815260200160002060006101000a81548173ffffffffffffffffffffffffffffffffffffffff021916908373ffffffffffffffffffffffffffffffffffffffff1602179055508282600360008781526020019081526020016000209182610869929190611268565b50838573ffffffffffffffffffffffffffffffffffffffff167fe9274a84b19e9428826de6bae8c48329354f8f0e73f771b97cae2d9dccd45a2760405160405180910390a3839050949350505050565b60006108c4826104e4565b90506002600083815260200190815260200160002060006101000a81549073ffffffffffffffffffffffffffffffffffffffff021916905560036000838152602001908152602001600020600061091b91906109cf565b818173ffffffffffffffffffffffffffffffffffffffff167fec9ab91322523c899ede7830ec9bfc992b5981cdcc27b91162fb23de5791117b60405160405180910390a35050565b60008073ffffffffffffffffffffffffffffffffffffffff166002600084815260200190815260200160002060009054906101000a900473ffffffffffffffffffffffffffffffffffffffff1673ffffffffffffffffffffffffffffffffffffffff1614159050919050565b5080546109db90610e7b565b6000825580601f106109ed5750610a0c565b601f016020900490600052602060002090810190610a0b9190610a0f565b5b50565b5b80821115610a28576000816000905550600101610a10565b5090565b600080fd5b600080fd5b60007fffffffff0000000000000000000000000000000000000000000000000000000082169050919050565b610a6b81610a36565b8114610a7657600080fd5b50565b600081359050610a8881610a62565b92915050565b600060208284031215610aa457610aa3610a2c565b5b6000610ab284828501610a79565b91505092915050565b60008115159050919050565b610ad081610abb565b82525050565b6000602082019050610aeb6000830184610ac7565b92915050565b600073ffffffffffffffffffffffffffffffffffffffff82169050919050565b6000610b1c82610af1565b9050919050565b610b2c81610b11565b8114610b3757600080fd5b50565b600081359050610b4981610b23565b92915050565b600080fd5b600080fd5b600080fd5b60008083601f840112610b7457610b73610b4f565b5b8235905067ffffffffffffffff811115610b9157610b90610b54565b5b602083019150836001820283011115610bad57610bac610b59565b5b9250929050565b600080600060408486031215610bcd57610bcc610a2c565b5b6000610bdb86828701610b3a565b935050602084013567ffffffffffffffff811115610bfc57610bfb610a31565b5b610c0886828701610b5e565b92509250509250925092565b600081519050919050565b600082825260208201905092915050565b60005b83811015610c4e578082015181840152602081019050610c33565b60008484015250505050565b6000601f19601f8301169050919050565b6000610c7682610c14565b610c808185610c1f565b9350610c90818560208601610c30565b610c9981610c5a565b840191505092915050565b60006020820190508181036000830152610cbe8184610c6b565b905092915050565b6000819050919050565b610cd981610cc6565b8114610ce457600080fd5b50565b600081359050610cf681610cd0565b92915050565b600060208284031215610d1257610d11610a2c565b5b6000610d2084828501610ce7565b91505092915050565b610d3281610b11565b82525050565b6000602082019050610d4d6000830184610d29565b92915050565b610d5c81610cc6565b82525050565b6000602082019050610d776000830184610d53565b92915050565b7f4e6f7420746865206f776e657200000000000000000000000000000000000000600082015250565b6000610db3600d83610c1f565b9150610dbe82610d7d565b602082019050919050565b60006020820190508181036000830152610de281610da6565b9050919050565b7f4e487b7100000000000000000000000000000000000000000000000000000000600052601160045260246000fd5b6000610e2382610cc6565b9150610e2e83610cc6565b9250828201905080821115610e4657610e45610de9565b5b92915050565b7f4e487b7100000000000000000000000000000000000000000000000000000000600052602260045260246000fd5b60006002820490506001821680610e9357607f821691505b602082108103610ea657610ea5610e4c565b5b50919050565b7f596f752063616e2774207265766f6b652074686973206365727469666963617460008201527f6500000000000000000000000000000000000000000000000000000000000000602082015250565b6000610f08602183610c1f565b9150610f1382610eac565b604082019050919050565b60006020820190508181036000830152610f3781610efb565b9050919050565b7f6f776e65724f663a20746f6b656e20646f65736e277420657869737400000000600082015250565b6000610f74601c83610c1f565b9150610f7f82610f3e565b602082019050919050565b60006020820190508181036000830152610fa381610f67565b9050919050565b7f746f6b656e5552493a20746f6b656e20646f65736e2774206578697374000000600082015250565b6000610fe0601d83610c1f565b9150610feb82610faa565b602082019050919050565b6000602082019050818103600083015261100f81610fd3565b9050919050565b7f6d696e743a20746f6b656e494420657869737473000000000000000000000000600082015250565b600061104c601483610c1f565b915061105782611016565b602082019050919050565b6000602082019050818103600083015261107b8161103f565b9050919050565b600082905092915050565b7f4e487b7100000000000000000000000000000000000000000000000000000000600052604160045260246000fd5b60008190508160005260206000209050919050565b60006020601f8301049050919050565b600082821b905092915050565b60006008830261111e7fffffffffffffffffffffffffffffffffffffffffffffffffffffffffffffffff826110e1565b61112886836110e1565b95508019841693508086168417925050509392505050565b6000819050919050565b600061116561116061115b84610cc6565b611140565b610cc6565b9050919050565b6000819050919050565b61117f8361114a565b61119361118b8261116c565b8484546110ee565b825550505050565b600090565b6111a861119b565b6111b3818484611176565b505050565b5b818110156111d7576111cc6000826111a0565b6001810190506111b9565b5050565b601f82111561121c576111ed816110bc565b6111f6846110d1565b81016020851015611205578190505b611219611211856110d1565b8301826111b8565b50505b505050565b600082821c905092915050565b600061123f60001984600802611221565b1980831691505092915050565b6000611258838361122e565b9150826002028217905092915050565b6112728383611082565b67ffffffffffffffff81111561128b5761128a61108d565b5b6112958254610e7b565b6112a08282856111db565b6000601f8311600181146112cf57600084156112bd578287013590505b6112c7858261124c565b86555061132f565b601f1984166112dd866110bc565b60005b82811015611305578489013582556001820191506020850194506020810190506112e0565b86831015611322578489013561131e601f89168261122e565b8355505b6001600288020188555050505b5050505050505056fea2646970667358221220c6a5d0d41e0207dcd7c605b6348d6424454a0d1d1cd6c1039b800c96d930045864736f6c63430008110033",
  "immutableReferences": {},
  "source": "// SPDX-License-Identifier: GPL-3.0\r\n\r\npragma solidity >=0.7.0 <0.9.0;\r\n\r\nimport \"./ERC4973.sol\";\r\n\r\ncontract BdlCertificate is ERC4973 {\r\n    address public deployer;\r\n    uint256 public certificatesCount = 0;\r\n\r\n    constructor() ERC4973(\"Buidl Certificate\", \"BCTK\") {\r\n        deployer = msg.sender;\r\n    }\r\n\r\n    function burn(uint256 certificateId) external override {\r\n        require(ownerOf(certificateId) == msg.sender || msg.sender == deployer, \"You can't revoke this certificate\");\r\n        _burn(certificateId);\r\n    }\r\n\r\n    function issue(address student, string calldata uri) external onlyOwner {\r\n        _mint(student, certificatesCount, uri);\r\n        certificatesCount += 1;\r\n    }\r\n\r\n    modifier onlyOwner() {\r\n        require(msg.sender == deployer, \"Not the owner\");\r\n        _;\r\n    }\r\n}",
  "sourcePath": "C:\\Users\\Arogundade Ibrahim\\Documents\\web3\\Buidl\\contracts\\BdlCertificate.sol",
  "compiler": {
    "name": "solc",
    "version": "0.8.17+commit.8df45f5f.Emscripten.clang"
  },
  "schemaVersion": "3.4.10",
  "updatedAt": "2022-10-18T12:29:43.196Z",
  "networkType": "ethereum",
  "devdoc": {
    "kind": "dev",
    "methods": {
      "supportsInterface(bytes4)": {
        "details": "See {IERC165-supportsInterface}."
      }
    },
    "version": 1
  },
  "userdoc": {
    "kind": "user",
    "methods": {},
    "version": 1
  }
}