{
  "contractName": "BdlCertificate",
  "abi": [
    {
      "inputs": [
        {
          "internalType": "string",
          "name": "name",
          "type": "string"
        },
        {
          "internalType": "string",
          "name": "symbol",
          "type": "string"
        }
      ],
      "stateMutability": "nonpayable",
      "type": "constructor"
    },
    {
      "anonymous": false,
      "inputs": [
        {
          "indexed": true,
          "internalType": "address",
          "name": "_to",
          "type": "address"
        },
        {
          "indexed": true,
          "internalType": "uint256",
          "name": "_tokenId",
          "type": "uint256"
        },
        {
          "indexed": false,
          "internalType": "string",
          "name": "_uri",
          "type": "string"
        }
      ],
      "name": "Attest",
      "type": "event"
    },
    {
      "anonymous": false,
      "inputs": [
        {
          "indexed": true,
          "internalType": "address",
          "name": "_to",
          "type": "address"
        },
        {
          "indexed": true,
          "internalType": "uint256",
          "name": "_tokenId",
          "type": "uint256"
        }
      ],
      "name": "Revoke",
      "type": "event"
    },
    {
      "inputs": [],
      "name": "name",
      "outputs": [
        {
          "internalType": "string",
          "name": "",
          "type": "string"
        }
      ],
      "stateMutability": "view",
      "type": "function"
    },
    {
      "inputs": [
        {
          "internalType": "uint256",
          "name": "tokenId",
          "type": "uint256"
        }
      ],
      "name": "ownerOf",
      "outputs": [
        {
          "internalType": "address",
          "name": "",
          "type": "address"
        }
      ],
      "stateMutability": "view",
      "type": "function"
    },
    {
      "inputs": [
        {
          "internalType": "bytes4",
          "name": "interfaceId",
          "type": "bytes4"
        }
      ],
      "name": "supportsInterface",
      "outputs": [
        {
          "internalType": "bool",
          "name": "",
          "type": "bool"
        }
      ],
      "stateMutability": "view",
      "type": "function"
    },
    {
      "inputs": [],
      "name": "symbol",
      "outputs": [
        {
          "internalType": "string",
          "name": "",
          "type": "string"
        }
      ],
      "stateMutability": "view",
      "type": "function"
    },
    {
      "inputs": [
        {
          "internalType": "uint256",
          "name": "tokenId",
          "type": "uint256"
        }
      ],
      "name": "tokenURI",
      "outputs": [
        {
          "internalType": "string",
          "name": "",
          "type": "string"
        }
      ],
      "stateMutability": "view",
      "type": "function"
    },
    {
      "inputs": [
        {
          "internalType": "string",
          "name": "baseURI",
          "type": "string"
        }
      ],
      "name": "setBaseURI",
      "outputs": [],
      "stateMutability": "nonpayable",
      "type": "function"
    },
    {
      "inputs": [
        {
          "internalType": "uint256",
          "name": "certificateId",
          "type": "uint256"
        }
      ],
      "name": "burn",
      "outputs": [],
      "stateMutability": "nonpayable",
      "type": "function"
    },
    {
      "inputs": [
        {
          "internalType": "address",
          "name": "learner",
          "type": "address"
        },
        {
          "internalType": "string",
          "name": "uri",
          "type": "string"
        }
      ],
      "name": "issue",
      "outputs": [],
      "stateMutability": "nonpayable",
      "type": "function"
    }
  ],
  "bytecode": "0x608060405260016005553480156200001657600080fd5b5060405162000f4738038062000f4783398101604081905262000039916200013b565b8181600062000049838262000234565b50600162000058828262000234565b5050600480546001600160a01b031916331790555062000300915050565b634e487b7160e01b600052604160045260246000fd5b600082601f8301126200009e57600080fd5b81516001600160401b0380821115620000bb57620000bb62000076565b604051601f8301601f19908116603f01168101908282118183101715620000e657620000e662000076565b816040528381526020925086838588010111156200010357600080fd5b600091505b8382101562000127578582018301518183018401529082019062000108565b600093810190920192909252949350505050565b600080604083850312156200014f57600080fd5b82516001600160401b03808211156200016757600080fd5b62000175868387016200008c565b935060208501519150808211156200018c57600080fd5b506200019b858286016200008c565b9150509250929050565b600181811c90821680620001ba57607f821691505b602082108103620001db57634e487b7160e01b600052602260045260246000fd5b50919050565b601f8211156200022f57600081815260208120601f850160051c810160208610156200020a5750805b601f850160051c820191505b818110156200022b5782815560010162000216565b5050505b505050565b81516001600160401b0381111562000250576200025062000076565b6200026881620002618454620001a5565b84620001e1565b602080601f831160018114620002a05760008415620002875750858301515b600019600386901b1c1916600185901b1785556200022b565b600085815260208120601f198616915b82811015620002d157888601518255948401946001909101908401620002b0565b5085821015620002f05787850151600019600388901b60f8161c191681555b5050505050600190811b01905550565b610c3780620003106000396000f3fe608060405234801561001057600080fd5b50600436106100885760003560e01c806355f804b31161005b57806355f804b3146100f25780636352211e1461010557806395d89b4114610130578063c87b56dd1461013857600080fd5b806301ffc9a71461008d57806304b444d9146100b557806306fdde03146100ca57806342966c68146100df575b600080fd5b6100a061009b366004610799565b61014b565b60405190151581526020015b60405180910390f35b6100c86100c33660046107e2565b610230565b005b6100d261029f565b6040516100ac9190610873565b6100c86100ed3660046108c1565b610331565b6100c86101003660046108f0565b6103c9565b6101186101133660046108c1565b610433565b6040516001600160a01b0390911681526020016100ac565b6100d2610498565b6100d26101463660046108c1565b6104a7565b60007fffffffff0000000000000000000000000000000000000000000000000000000082167f5b5e139f0000000000000000000000000000000000000000000000000000000014806101de57507fffffffff0000000000000000000000000000000000000000000000000000000082167f21c44d7600000000000000000000000000000000000000000000000000000000145b8061022a57507f01ffc9a7000000000000000000000000000000000000000000000000000000007fffffffff000000000000000000000000000000000000000000000000000000008316145b92915050565b61023e8360055484846105ac565b50600554836001600160a01b03167f511b2a66dd7f95a19dc49a88e996eb88326487622dbc9c843fc1531879058791848460405161027d9291906109a1565b60405180910390a360058054906000610295836109d0565b9190505550505050565b6060600080546102ae906109f7565b80601f01602080910402602001604051908101604052809291908181526020018280546102da906109f7565b80156103275780601f106102fc57610100808354040283529160200191610327565b820191906000526020600020905b81548152906001019060200180831161030a57829003601f168201915b5050505050905090565b6004546001600160a01b031633146103905760405162461bcd60e51b815260206004820152600b60248201527f21617574686f72697a656400000000000000000000000000000000000000000060448201526064015b60405180910390fd5b610399816106b3565b60405181906000907fec9ab91322523c899ede7830ec9bfc992b5981cdcc27b91162fb23de5791117b908290a350565b6004546001600160a01b031633146104235760405162461bcd60e51b815260206004820152600b60248201527f21617574686f72697a65640000000000000000000000000000000000000000006044820152606401610387565b600761042f8282610a80565b5050565b6000818152600260205260408120546001600160a01b03168061022a5760405162461bcd60e51b815260206004820152601c60248201527f6f776e65724f663a20746f6b656e20646f65736e2774206578697374000000006044820152606401610387565b6060600180546102ae906109f7565b6000818152600260205260409020546060906001600160a01b031661050e5760405162461bcd60e51b815260206004820152601d60248201527f746f6b656e5552493a20746f6b656e20646f65736e27742065786973740000006044820152606401610387565b60008281526003602052604090208054610527906109f7565b80601f0160208091040260200160405190810160405280929190818152602001828054610553906109f7565b80156105a05780601f10610575576101008083540402835291602001916105a0565b820191906000526020600020905b81548152906001019060200180831161058357829003601f168201915b50505050509050919050565b6000838152600260205260408120546001600160a01b0316156106115760405162461bcd60e51b815260206004820152601460248201527f6d696e743a20746f6b656e4944206578697374730000000000000000000000006044820152606401610387565b600084815260026020908152604080832080547fffffffffffffffffffffffff0000000000000000000000000000000000000000166001600160a01b038a1617905560039091529020610665838583610b40565b5083856001600160a01b03167f511b2a66dd7f95a19dc49a88e996eb88326487622dbc9c843fc153187905879185856040516106a29291906109a1565b60405180910390a350919392505050565b60006106be82610433565b600083815260026020908152604080832080547fffffffffffffffffffffffff0000000000000000000000000000000000000000169055600390915281209192506107099190610743565b60405182906001600160a01b038316907fec9ab91322523c899ede7830ec9bfc992b5981cdcc27b91162fb23de5791117b90600090a35050565b50805461074f906109f7565b6000825580601f1061075f575050565b601f01602090049060005260206000209081019061077d9190610780565b50565b5b808211156107955760008155600101610781565b5090565b6000602082840312156107ab57600080fd5b81357fffffffff00000000000000000000000000000000000000000000000000000000811681146107db57600080fd5b9392505050565b6000806000604084860312156107f757600080fd5b83356001600160a01b038116811461080e57600080fd5b9250602084013567ffffffffffffffff8082111561082b57600080fd5b818601915086601f83011261083f57600080fd5b81358181111561084e57600080fd5b87602082850101111561086057600080fd5b6020830194508093505050509250925092565b600060208083528351808285015260005b818110156108a057858101830151858201604001528201610884565b506000604082860101526040601f19601f8301168501019250505092915050565b6000602082840312156108d357600080fd5b5035919050565b634e487b7160e01b600052604160045260246000fd5b60006020828403121561090257600080fd5b813567ffffffffffffffff8082111561091a57600080fd5b818401915084601f83011261092e57600080fd5b813581811115610940576109406108da565b604051601f8201601f19908116603f01168101908382118183101715610968576109686108da565b8160405282815287602084870101111561098157600080fd5b826020860160208301376000928101602001929092525095945050505050565b60208152816020820152818360408301376000818301604090810191909152601f909201601f19160101919050565b6000600182016109f057634e487b7160e01b600052601160045260246000fd5b5060010190565b600181811c90821680610a0b57607f821691505b602082108103610a2b57634e487b7160e01b600052602260045260246000fd5b50919050565b601f821115610a7b57600081815260208120601f850160051c81016020861015610a585750805b601f850160051c820191505b81811015610a7757828155600101610a64565b5050505b505050565b815167ffffffffffffffff811115610a9a57610a9a6108da565b610aae81610aa884546109f7565b84610a31565b602080601f831160018114610ae35760008415610acb5750858301515b600019600386901b1c1916600185901b178555610a77565b600085815260208120601f198616915b82811015610b1257888601518255948401946001909101908401610af3565b5085821015610b305787850151600019600388901b60f8161c191681555b5050505050600190811b01905550565b67ffffffffffffffff831115610b5857610b586108da565b610b6c83610b6683546109f7565b83610a31565b6000601f841160018114610ba05760008515610b885750838201355b600019600387901b1c1916600186901b178355610bfa565b600083815260209020601f19861690835b82811015610bd15786850135825560209485019460019092019101610bb1565b5086821015610bee5760001960f88860031b161c19848701351681555b505060018560011b0183555b505050505056fea2646970667358221220f6afddd918173e4e52950075536cc485ba9171c7fd35fc8e2e2c42617a67ed5f64736f6c63430008100033",
  "immutableReferences": {},
  "source": "// SPDX-License-Identifier: GPL-3.0\npragma solidity >=0.7.0 <0.9.0;\n\nimport \"./base/ERC4973.sol\";\n// import \"@openzeppelin/contracts/access/Ownable.sol\";\n\ncontract BdlCertificate is ERC4973 {\n    address deployer;\n    uint256 certificateID = 1;\n\n    mapping(uint256 => string) private tokenURIs;\n    string private baseURIextended;\n\n    constructor(string memory name, string memory symbol)\n        ERC4973(name, symbol)\n    {\n        deployer = msg.sender;\n    }\n\n    function setBaseURI(string memory baseURI) external onlyOwner {\n        baseURIextended = baseURI;\n    }\n\n    function _setTokenURI(uint256 tokenId, string memory _tokenURI)\n        internal\n        virtual\n    {\n        require(_exists(tokenId), \"!exist\");\n        tokenURIs[tokenId] = _tokenURI;\n    }\n\n    function burn(uint256 certificateId) external override onlyOwner {\n        _burn(certificateId);\n\n        emit Revoke(address(0), certificateId);\n    }\n\n    function issue(address learner, string calldata uri) external {\n        _mint(learner, certificateID, uri);\n\n        emit Attest(learner, certificateID, uri);\n        certificateID++;\n    }\n\n    modifier onlyOwner() {\n        require(msg.sender == deployer, \"!authorized\");\n        _;\n    }\n}\n",
  "sourcePath": "C:\\Users\\Arogundade Ibrahim\\Documents\\web3\\Buidl\\contracts\\BdlCertificate.sol",
  "compiler": {
    "name": "solc",
    "version": "0.8.16+commit.07a7930e.Emscripten.clang"
  },
  "schemaVersion": "3.4.10",
  "updatedAt": "2022-11-02T13:47:30.048Z",
  "devdoc": {
    "kind": "dev",
    "methods": {
      "supportsInterface(bytes4)": {
        "details": "See {IERC165-supportsInterface}."
      }
    },
    "version": 1
  },
  "userdoc": {
    "kind": "user",
    "methods": {},
    "version": 1
  }
}