{
  "contractName": "BdlCertificate",
  "abi": [
    {
      "inputs": [
        {
          "internalType": "string",
          "name": "name",
          "type": "string"
        },
        {
          "internalType": "string",
          "name": "symbol",
          "type": "string"
        }
      ],
      "stateMutability": "nonpayable",
      "type": "constructor"
    },
    {
      "anonymous": false,
      "inputs": [
        {
          "indexed": true,
          "internalType": "address",
          "name": "_to",
          "type": "address"
        },
        {
          "indexed": true,
          "internalType": "uint256",
          "name": "_tokenId",
          "type": "uint256"
        }
      ],
      "name": "Attest",
      "type": "event"
    },
    {
      "anonymous": false,
      "inputs": [
        {
          "indexed": true,
          "internalType": "address",
          "name": "_to",
          "type": "address"
        },
        {
          "indexed": true,
          "internalType": "uint256",
          "name": "_tokenId",
          "type": "uint256"
        }
      ],
      "name": "Revoke",
      "type": "event"
    },
    {
      "inputs": [],
      "name": "name",
      "outputs": [
        {
          "internalType": "string",
          "name": "",
          "type": "string"
        }
      ],
      "stateMutability": "view",
      "type": "function",
      "constant": true
    },
    {
      "inputs": [
        {
          "internalType": "uint256",
          "name": "tokenId",
          "type": "uint256"
        }
      ],
      "name": "ownerOf",
      "outputs": [
        {
          "internalType": "address",
          "name": "",
          "type": "address"
        }
      ],
      "stateMutability": "view",
      "type": "function",
      "constant": true
    },
    {
      "inputs": [
        {
          "internalType": "bytes4",
          "name": "interfaceId",
          "type": "bytes4"
        }
      ],
      "name": "supportsInterface",
      "outputs": [
        {
          "internalType": "bool",
          "name": "",
          "type": "bool"
        }
      ],
      "stateMutability": "view",
      "type": "function",
      "constant": true
    },
    {
      "inputs": [],
      "name": "symbol",
      "outputs": [
        {
          "internalType": "string",
          "name": "",
          "type": "string"
        }
      ],
      "stateMutability": "view",
      "type": "function",
      "constant": true
    },
    {
      "inputs": [
        {
          "internalType": "uint256",
          "name": "tokenId",
          "type": "uint256"
        }
      ],
      "name": "tokenURI",
      "outputs": [
        {
          "internalType": "string",
          "name": "",
          "type": "string"
        }
      ],
      "stateMutability": "view",
      "type": "function",
      "constant": true
    },
    {
      "inputs": [
        {
          "internalType": "string",
          "name": "baseURI",
          "type": "string"
        }
      ],
      "name": "setBaseURI",
      "outputs": [],
      "stateMutability": "nonpayable",
      "type": "function"
    },
    {
      "inputs": [
        {
          "internalType": "uint256",
          "name": "certificateId",
          "type": "uint256"
        }
      ],
      "name": "burn",
      "outputs": [],
      "stateMutability": "nonpayable",
      "type": "function"
    },
    {
      "inputs": [
        {
          "internalType": "address",
          "name": "student",
          "type": "address"
        },
        {
          "internalType": "string",
          "name": "uri",
          "type": "string"
        }
      ],
      "name": "issue",
      "outputs": [],
      "stateMutability": "nonpayable",
      "type": "function"
    }
  ],
  "bytecode": "0x608060405260016005553480156200001657600080fd5b5060405162000efb38038062000efb83398101604081905262000039916200013b565b8181600062000049838262000234565b50600162000058828262000234565b5050600480546001600160a01b031916331790555062000300915050565b634e487b7160e01b600052604160045260246000fd5b600082601f8301126200009e57600080fd5b81516001600160401b0380821115620000bb57620000bb62000076565b604051601f8301601f19908116603f01168101908282118183101715620000e657620000e662000076565b816040528381526020925086838588010111156200010357600080fd5b600091505b8382101562000127578582018301518183018401529082019062000108565b600093810190920192909252949350505050565b600080604083850312156200014f57600080fd5b82516001600160401b03808211156200016757600080fd5b62000175868387016200008c565b935060208501519150808211156200018c57600080fd5b506200019b858286016200008c565b9150509250929050565b600181811c90821680620001ba57607f821691505b602082108103620001db57634e487b7160e01b600052602260045260246000fd5b50919050565b601f8211156200022f57600081815260208120601f850160051c810160208610156200020a5750805b601f850160051c820191505b818110156200022b5782815560010162000216565b5050505b505050565b81516001600160401b0381111562000250576200025062000076565b6200026881620002618454620001a5565b84620001e1565b602080601f831160018114620002a05760008415620002875750858301515b600019600386901b1c1916600185901b1785556200022b565b600085815260208120601f198616915b82811015620002d157888601518255948401946001909101908401620002b0565b5085821015620002f05787850151600019600388901b60f8161c191681555b5050505050600190811b01905550565b610beb80620003106000396000f3fe608060405234801561001057600080fd5b50600436106100885760003560e01c806355f804b31161005b57806355f804b3146100f25780636352211e1461010557806395d89b4114610130578063c87b56dd1461013857600080fd5b806301ffc9a71461008d57806304b444d9146100b557806306fdde03146100ca57806342966c68146100df575b600080fd5b6100a061009b36600461077c565b61014b565b60405190151581526020015b60405180910390f35b6100c86100c33660046107c5565b610230565b005b6100d2610290565b6040516100ac9190610856565b6100c86100ed3660046108a4565b610322565b6100c86101003660046108d3565b6103ba565b6101186101133660046108a4565b610424565b6040516001600160a01b0390911681526020016100ac565b6100d2610489565b6100d26101463660046108a4565b610498565b60007fffffffff0000000000000000000000000000000000000000000000000000000082167f5b5e139f0000000000000000000000000000000000000000000000000000000014806101de57507fffffffff0000000000000000000000000000000000000000000000000000000082167f21c44d7600000000000000000000000000000000000000000000000000000000145b8061022a57507f01ffc9a7000000000000000000000000000000000000000000000000000000007fffffffff000000000000000000000000000000000000000000000000000000008316145b92915050565b61023e83600554848461059d565b506005546040516001600160a01b038516907fe9274a84b19e9428826de6bae8c48329354f8f0e73f771b97cae2d9dccd45a2790600090a36005805490600061028683610984565b9190505550505050565b60606000805461029f906109ab565b80601f01602080910402602001604051908101604052809291908181526020018280546102cb906109ab565b80156103185780601f106102ed57610100808354040283529160200191610318565b820191906000526020600020905b8154815290600101906020018083116102fb57829003601f168201915b5050505050905090565b6004546001600160a01b031633146103815760405162461bcd60e51b815260206004820152600b60248201527f21617574686f72697a656400000000000000000000000000000000000000000060448201526064015b60405180910390fd5b61038a81610696565b60405181906000907fec9ab91322523c899ede7830ec9bfc992b5981cdcc27b91162fb23de5791117b908290a350565b6004546001600160a01b031633146104145760405162461bcd60e51b815260206004820152600b60248201527f21617574686f72697a65640000000000000000000000000000000000000000006044820152606401610378565b60076104208282610a34565b5050565b6000818152600260205260408120546001600160a01b03168061022a5760405162461bcd60e51b815260206004820152601c60248201527f6f776e65724f663a20746f6b656e20646f65736e2774206578697374000000006044820152606401610378565b60606001805461029f906109ab565b6000818152600260205260409020546060906001600160a01b03166104ff5760405162461bcd60e51b815260206004820152601d60248201527f746f6b656e5552493a20746f6b656e20646f65736e27742065786973740000006044820152606401610378565b60008281526003602052604090208054610518906109ab565b80601f0160208091040260200160405190810160405280929190818152602001828054610544906109ab565b80156105915780601f1061056657610100808354040283529160200191610591565b820191906000526020600020905b81548152906001019060200180831161057457829003601f168201915b50505050509050919050565b6000838152600260205260408120546001600160a01b0316156106025760405162461bcd60e51b815260206004820152601460248201527f6d696e743a20746f6b656e4944206578697374730000000000000000000000006044820152606401610378565b600084815260026020908152604080832080547fffffffffffffffffffffffff0000000000000000000000000000000000000000166001600160a01b038a1617905560039091529020610656838583610af4565b5060405184906001600160a01b038716907fe9274a84b19e9428826de6bae8c48329354f8f0e73f771b97cae2d9dccd45a2790600090a350919392505050565b60006106a182610424565b600083815260026020908152604080832080547fffffffffffffffffffffffff0000000000000000000000000000000000000000169055600390915281209192506106ec9190610726565b60405182906001600160a01b038316907fec9ab91322523c899ede7830ec9bfc992b5981cdcc27b91162fb23de5791117b90600090a35050565b508054610732906109ab565b6000825580601f10610742575050565b601f0160209004906000526020600020908101906107609190610763565b50565b5b808211156107785760008155600101610764565b5090565b60006020828403121561078e57600080fd5b81357fffffffff00000000000000000000000000000000000000000000000000000000811681146107be57600080fd5b9392505050565b6000806000604084860312156107da57600080fd5b83356001600160a01b03811681146107f157600080fd5b9250602084013567ffffffffffffffff8082111561080e57600080fd5b818601915086601f83011261082257600080fd5b81358181111561083157600080fd5b87602082850101111561084357600080fd5b6020830194508093505050509250925092565b600060208083528351808285015260005b8181101561088357858101830151858201604001528201610867565b506000604082860101526040601f19601f8301168501019250505092915050565b6000602082840312156108b657600080fd5b5035919050565b634e487b7160e01b600052604160045260246000fd5b6000602082840312156108e557600080fd5b813567ffffffffffffffff808211156108fd57600080fd5b818401915084601f83011261091157600080fd5b813581811115610923576109236108bd565b604051601f8201601f19908116603f0116810190838211818310171561094b5761094b6108bd565b8160405282815287602084870101111561096457600080fd5b826020860160208301376000928101602001929092525095945050505050565b6000600182016109a457634e487b7160e01b600052601160045260246000fd5b5060010190565b600181811c908216806109bf57607f821691505b6020821081036109df57634e487b7160e01b600052602260045260246000fd5b50919050565b601f821115610a2f57600081815260208120601f850160051c81016020861015610a0c5750805b601f850160051c820191505b81811015610a2b57828155600101610a18565b5050505b505050565b815167ffffffffffffffff811115610a4e57610a4e6108bd565b610a6281610a5c84546109ab565b846109e5565b602080601f831160018114610a975760008415610a7f5750858301515b600019600386901b1c1916600185901b178555610a2b565b600085815260208120601f198616915b82811015610ac657888601518255948401946001909101908401610aa7565b5085821015610ae45787850151600019600388901b60f8161c191681555b5050505050600190811b01905550565b67ffffffffffffffff831115610b0c57610b0c6108bd565b610b2083610b1a83546109ab565b836109e5565b6000601f841160018114610b545760008515610b3c5750838201355b600019600387901b1c1916600186901b178355610bae565b600083815260209020601f19861690835b82811015610b855786850135825560209485019460019092019101610b65565b5086821015610ba25760001960f88860031b161c19848701351681555b505060018560011b0183555b505050505056fea2646970667358221220f91974ac690ab4ba64c363e0b2f7bdc2698c011439bd1a097369b5a8d848c18564736f6c63430008100033",
  "immutableReferences": {},
  "source": "// SPDX-License-Identifier: GPL-3.0\npragma solidity >=0.7.0 <0.9.0;\n\nimport \"./base/ERC4973.sol\";\n// import \"@openzeppelin/contracts/access/Ownable.sol\";\n\ncontract BdlCertificate is ERC4973 {\n    address deployer;\n    uint256 certificateID = 1;\n\n    mapping(uint256 => string) private tokenURIs;\n    string private baseURIextended;\n\n    constructor(string memory name, string memory symbol)\n        ERC4973(name, symbol)\n    {\n        deployer = msg.sender;\n    }\n\n    function setBaseURI(string memory baseURI) external onlyOwner {\n        baseURIextended = baseURI;\n    }\n\n    function _setTokenURI(uint256 tokenId, string memory _tokenURI)\n        internal\n        virtual\n    {\n        require(_exists(tokenId), \"!exist\");\n        tokenURIs[tokenId] = _tokenURI;\n    }\n\n    function burn(uint256 certificateId) external override onlyOwner {\n        _burn(certificateId);\n\n        emit Revoke(address(0), certificateId);\n    }\n\n    function issue(address student, string calldata uri) external {\n        _mint(student, certificateID, uri);\n\n        emit Attest(student, certificateID);\n        certificateID++;\n    }\n\n    modifier onlyOwner() {\n        require(msg.sender == deployer, \"!authorized\");\n        _;\n    }\n}\n",
  "sourcePath": "C:\\Users\\Arogundade Ibrahim\\Documents\\web3\\Buidl\\contracts\\BdlCertificate.sol",
  "compiler": {
    "name": "solc",
    "version": "0.8.16+commit.07a7930e.Emscripten.clang"
  },
  "schemaVersion": "3.4.10",
  "updatedAt": "2022-10-28T08:33:37.643Z",
  "networkType": "ethereum",
  "devdoc": {
    "kind": "dev",
    "methods": {
      "supportsInterface(bytes4)": {
        "details": "See {IERC165-supportsInterface}."
      }
    },
    "version": 1
  },
  "userdoc": {
    "kind": "user",
    "methods": {},
    "version": 1
  }
}