{
  "contractName": "BdlCourse",
  "abi": [
    {
      "inputs": [],
      "stateMutability": "nonpayable",
      "type": "constructor"
    },
    {
      "anonymous": false,
      "inputs": [
        {
          "indexed": false,
          "internalType": "uint256",
          "name": "id",
          "type": "uint256"
        },
        {
          "indexed": false,
          "internalType": "string",
          "name": "name",
          "type": "string"
        },
        {
          "indexed": false,
          "internalType": "string",
          "name": "image",
          "type": "string"
        }
      ],
      "name": "Category",
      "type": "event"
    },
    {
      "anonymous": false,
      "inputs": [
        {
          "indexed": false,
          "internalType": "uint256",
          "name": "id",
          "type": "uint256"
        },
        {
          "indexed": false,
          "internalType": "string",
          "name": "name",
          "type": "string"
        },
        {
          "indexed": false,
          "internalType": "string",
          "name": "description",
          "type": "string"
        },
        {
          "indexed": false,
          "internalType": "uint256",
          "name": "category",
          "type": "uint256"
        },
        {
          "indexed": false,
          "internalType": "string",
          "name": "thumbnail",
          "type": "string"
        },
        {
          "indexed": false,
          "internalType": "string",
          "name": "previewSrc",
          "type": "string"
        },
        {
          "indexed": false,
          "internalType": "address",
          "name": "creator",
          "type": "address"
        },
        {
          "indexed": false,
          "internalType": "uint256",
          "name": "price",
          "type": "uint256"
        },
        {
          "indexed": false,
          "internalType": "uint256",
          "name": "updatedAt",
          "type": "uint256"
        }
      ],
      "name": "Course",
      "type": "event"
    },
    {
      "anonymous": false,
      "inputs": [
        {
          "indexed": false,
          "internalType": "uint256",
          "name": "id",
          "type": "uint256"
        },
        {
          "indexed": false,
          "internalType": "string",
          "name": "title",
          "type": "string"
        },
        {
          "indexed": false,
          "internalType": "string",
          "name": "content",
          "type": "string"
        },
        {
          "indexed": false,
          "internalType": "string",
          "name": "src",
          "type": "string"
        }
      ],
      "name": "CourseSection",
      "type": "event"
    },
    {
      "anonymous": false,
      "inputs": [
        {
          "indexed": false,
          "internalType": "uint256",
          "name": "id",
          "type": "uint256"
        },
        {
          "indexed": false,
          "internalType": "address",
          "name": "creator",
          "type": "address"
        },
        {
          "indexed": false,
          "internalType": "address",
          "name": "receiver",
          "type": "address"
        }
      ],
      "name": "CourseTransfer",
      "type": "event"
    },
    {
      "anonymous": false,
      "inputs": [
        {
          "indexed": false,
          "internalType": "uint256",
          "name": "courseId",
          "type": "uint256"
        },
        {
          "indexed": false,
          "internalType": "address",
          "name": "learner",
          "type": "address"
        },
        {
          "indexed": false,
          "internalType": "bool",
          "name": "status",
          "type": "bool"
        }
      ],
      "name": "Subscription",
      "type": "event"
    },
    {
      "inputs": [
        {
          "internalType": "uint256",
          "name": "",
          "type": "uint256"
        }
      ],
      "name": "courses",
      "outputs": [
        {
          "internalType": "uint256",
          "name": "id",
          "type": "uint256"
        },
        {
          "internalType": "uint256",
          "name": "category",
          "type": "uint256"
        },
        {
          "internalType": "address",
          "name": "creator",
          "type": "address"
        },
        {
          "internalType": "uint256",
          "name": "price",
          "type": "uint256"
        },
        {
          "internalType": "uint256",
          "name": "createdAt",
          "type": "uint256"
        },
        {
          "internalType": "uint256",
          "name": "updatedAt",
          "type": "uint256"
        },
        {
          "internalType": "uint256",
          "name": "sections",
          "type": "uint256"
        }
      ],
      "stateMutability": "view",
      "type": "function",
      "constant": true
    },
    {
      "inputs": [
        {
          "internalType": "address",
          "name": "",
          "type": "address"
        },
        {
          "internalType": "uint256",
          "name": "",
          "type": "uint256"
        }
      ],
      "name": "createdCourses",
      "outputs": [
        {
          "internalType": "uint256",
          "name": "",
          "type": "uint256"
        }
      ],
      "stateMutability": "view",
      "type": "function",
      "constant": true
    },
    {
      "inputs": [
        {
          "internalType": "address",
          "name": "",
          "type": "address"
        },
        {
          "internalType": "uint256",
          "name": "",
          "type": "uint256"
        }
      ],
      "name": "subscribeds",
      "outputs": [
        {
          "internalType": "uint256",
          "name": "",
          "type": "uint256"
        }
      ],
      "stateMutability": "view",
      "type": "function",
      "constant": true
    },
    {
      "inputs": [
        {
          "internalType": "uint256",
          "name": "",
          "type": "uint256"
        },
        {
          "internalType": "uint256",
          "name": "",
          "type": "uint256"
        }
      ],
      "name": "subscriptions",
      "outputs": [
        {
          "internalType": "uint256",
          "name": "course",
          "type": "uint256"
        },
        {
          "internalType": "uint256",
          "name": "time",
          "type": "uint256"
        },
        {
          "internalType": "uint256",
          "name": "price",
          "type": "uint256"
        },
        {
          "internalType": "address",
          "name": "owner",
          "type": "address"
        },
        {
          "internalType": "uint256",
          "name": "sections",
          "type": "uint256"
        }
      ],
      "stateMutability": "view",
      "type": "function",
      "constant": true
    },
    {
      "inputs": [
        {
          "internalType": "uint256",
          "name": "id",
          "type": "uint256"
        },
        {
          "internalType": "address",
          "name": "learner",
          "type": "address"
        }
      ],
      "name": "subscribe",
      "outputs": [
        {
          "internalType": "uint256",
          "name": "",
          "type": "uint256"
        },
        {
          "internalType": "address",
          "name": "",
          "type": "address"
        }
      ],
      "stateMutability": "nonpayable",
      "type": "function"
    },
    {
      "inputs": [
        {
          "internalType": "uint256",
          "name": "id",
          "type": "uint256"
        },
        {
          "internalType": "uint256",
          "name": "sId",
          "type": "uint256"
        },
        {
          "internalType": "address",
          "name": "learner",
          "type": "address"
        }
      ],
      "name": "unSubscribe",
      "outputs": [
        {
          "internalType": "uint256",
          "name": "",
          "type": "uint256"
        },
        {
          "internalType": "address",
          "name": "",
          "type": "address"
        },
        {
          "internalType": "uint256",
          "name": "",
          "type": "uint256"
        }
      ],
      "stateMutability": "nonpayable",
      "type": "function"
    },
    {
      "inputs": [],
      "name": "mintCategories",
      "outputs": [],
      "stateMutability": "nonpayable",
      "type": "function"
    },
    {
      "inputs": [
        {
          "internalType": "string",
          "name": "name",
          "type": "string"
        },
        {
          "internalType": "string",
          "name": "image",
          "type": "string"
        }
      ],
      "name": "createCategory",
      "outputs": [],
      "stateMutability": "nonpayable",
      "type": "function"
    },
    {
      "inputs": [
        {
          "internalType": "uint256",
          "name": "id",
          "type": "uint256"
        },
        {
          "internalType": "uint256",
          "name": "category",
          "type": "uint256"
        },
        {
          "internalType": "uint256",
          "name": "price",
          "type": "uint256"
        },
        {
          "internalType": "string",
          "name": "name",
          "type": "string"
        },
        {
          "internalType": "string",
          "name": "description",
          "type": "string"
        },
        {
          "internalType": "string",
          "name": "thumbnail",
          "type": "string"
        },
        {
          "internalType": "string",
          "name": "previewSrc",
          "type": "string"
        }
      ],
      "name": "createCourse",
      "outputs": [],
      "stateMutability": "nonpayable",
      "type": "function"
    },
    {
      "inputs": [
        {
          "internalType": "uint256",
          "name": "id",
          "type": "uint256"
        },
        {
          "internalType": "uint256",
          "name": "category",
          "type": "uint256"
        },
        {
          "internalType": "uint256",
          "name": "price",
          "type": "uint256"
        },
        {
          "internalType": "string",
          "name": "name",
          "type": "string"
        },
        {
          "internalType": "string",
          "name": "description",
          "type": "string"
        },
        {
          "internalType": "string",
          "name": "thumbnail",
          "type": "string"
        },
        {
          "internalType": "string",
          "name": "previewSrc",
          "type": "string"
        }
      ],
      "name": "updateCourse",
      "outputs": [],
      "stateMutability": "nonpayable",
      "type": "function"
    },
    {
      "inputs": [
        {
          "internalType": "uint256",
          "name": "id",
          "type": "uint256"
        },
        {
          "internalType": "string",
          "name": "title",
          "type": "string"
        },
        {
          "internalType": "string",
          "name": "content",
          "type": "string"
        },
        {
          "internalType": "string",
          "name": "src",
          "type": "string"
        }
      ],
      "name": "createCourseSection",
      "outputs": [],
      "stateMutability": "nonpayable",
      "type": "function"
    },
    {
      "inputs": [
        {
          "internalType": "uint256",
          "name": "id",
          "type": "uint256"
        },
        {
          "internalType": "address",
          "name": "creator",
          "type": "address"
        },
        {
          "internalType": "address",
          "name": "receiver",
          "type": "address"
        }
      ],
      "name": "tranfersCourse",
      "outputs": [],
      "stateMutability": "nonpayable",
      "type": "function"
    }
  ],
  "bytecode": "0x6080604052612710600455600060055534801561001b57600080fd5b50600680546001600160a01b03191633179055611a008061003d6000396000f3fe608060405234801561001057600080fd5b50600436106100d45760003560e01c80639a7eb1c911610081578063cc7a56a01161005b578063cc7a56a01461026c578063ed939fa9146102a2578063f8e7ef93146102b557600080fd5b80639a7eb1c914610233578063b224b4e914610246578063c856e7ee1461025957600080fd5b806367ebbe8b116100b257806367ebbe8b146101735780638529934b1461018857806396f979d21461019b57600080fd5b806335986b2d146100d9578063365cfcbf146100ff57806359e6951d14610143575b600080fd5b6100ec6100e73660046114a1565b6102bd565b6040519081526020015b60405180910390f35b61011261010d3660046114cb565b6102ee565b604080519586526020860194909452928401919091526001600160a01b03166060830152608082015260a0016100f6565b6101566101513660046114ed565b610345565b604080519283526001600160a01b039091166020830152016100f6565b6101866101813660046115bc565b6105b4565b005b61018661019636600461164e565b610682565b6101f06101a936600461168a565b6000602081905290815260409020805460018201546002830154600384015460048501546005860154600690960154949593946001600160a01b0390931693919290919087565b6040805197885260208801969096526001600160a01b03909416948601949094526060850191909152608084015260a083019190915260c082015260e0016100f6565b6101866102413660046116a3565b6107b5565b61018661025436600461176d565b61097c565b6100ec6102673660046114a1565b610a1a565b61027f61027a3660046117d1565b610a36565b604080519384526001600160a01b039092166020840152908201526060016100f6565b6101866102b03660046116a3565b610da6565b610186610f32565b600160205281600052604060002081815481106102d957600080fd5b90600052602060002001600091509150505481565b6002602052816000526040600020818154811061030a57600080fd5b600091825260209091206006909102018054600182015460028301546003840154600590940154929550909350916001600160a01b03169085565b600082815260208181526040808320815160e081018352815480825260018301549482019490945260028201546001600160a01b0316928101929092526003810154606083015260048101546080830152600581015460a08301526006015460c0820152829182036103fe5760405162461bcd60e51b815260206004820152600760248201527f216578697374730000000000000000000000000000000000000000000000000060448201526064015b60405180910390fd5b836001600160a01b031681604001516001600160a01b0316036104635760405162461bcd60e51b815260206004820152601c60248201527f2163616e5f7375627363726962655f746f5f6f776e5f636f757273650000000060448201526064016103f5565b6000858152600260208181526040808420815160c080820184528b8252428286019081526060898101519584019586526001600160a01b038d811682860190815260808601838152948c015160a0870152865460018082018955978c529a89902086516006909c02019a8b559251958a0195909555945196880196909655945160038701805473ffffffffffffffffffffffffffffffffffffffff191691909316179091559251805191949261052192600485019290910190611404565b5060a091909101516005909101556001600160a01b0385166000818152600360209081526040808320805460018082018355918552938390209093018a905580518a815291820193909352918201527ffc3ced06dca988f1666d0ec0f7c1170397e5e5876cfc381a64fbff0f322790849060600160405180910390a1816060015182604001519350935050509250929050565b6000848152602081905260409020600201546001600160a01b0316331461061d5760405162461bcd60e51b815260206004820152600c60248201527f21756e6174686f72697a6564000000000000000000000000000000000000000060448201526064016103f5565b600084815260208190526040812060060180549161063a83611813565b91905055507fb4a02b53b9459cfd4b284dbaa10ce9611353d1a19845a062d6848ba0615c0bba848484846040516106749493929190611872565b60405180910390a150505050565b6000838152602081905260409020600201546001600160a01b038381169116146106dc5760405162461bcd60e51b815260206004820152600b60248201526a08585d5d1a1bdc9a5e995960aa1b60448201526064016103f5565b600083815260208181526040808320600201805473ffffffffffffffffffffffffffffffffffffffff19166001600160a01b03868116919091179091558516835260019091529020805484908110610736576107366118bc565b60009182526020808320919091018290556001600160a01b03838116808452600180845260408086208054928301815586529484902001879055835187815291861692820192909252918201527f2fd7dc3aeb254842908e4dc655cdfd549a0d3825eaf02e31cd71b1c3df1c751a9060600160405180910390a1505050565b600087815260208190526040902054156108115760405162461bcd60e51b815260206004820152600660248201527f657869737473000000000000000000000000000000000000000000000000000060448201526064016103f5565b6040518060e00160405280888152602001878152602001336001600160a01b031681526020018681526020014281526020014281526020016000808a815260200190815260200160002060060154815250600080898152602001908152602001600020600082015181600001556020820151816001015560408201518160020160006101000a8154816001600160a01b0302191690836001600160a01b03160217905550606082015181600301556080820151816004015560a0820151816005015560c0820151816006015590505060016000336001600160a01b03166001600160a01b031681526020019081526020016000208790806001815401808255809150506001900390600052602060002001600090919091909150557f60cd06f5e535451a631f4f384e8844896365676953a412852e17b2f46687839d878585898686338c4260405161096b999897969594939291906118d2565b60405180910390a150505050505050565b6006546001600160a01b031633146109c45760405162461bcd60e51b815260206004820152600b60248201526a08585d5d1a1bdc9a5e995960aa1b60448201526064016103f5565b600580549060006109d483611813565b91905055507f2a65d0fe76508fb4e604d4804927dce75b70f82e64a2025e3bffb2fc003418506005548383604051610a0e9392919061195a565b60405180910390a15050565b600360205281600052604060002081815481106102d957600080fd5b600080600080600260008881526020019081526020016000208681548110610a6057610a606118bc565b60009182526020918290206040805160c08101825260069093029091018054835260018101548385015260028101548383015260038101546001600160a01b0316606084015260048101805483518187028101870190945280845293949193608086019392830182828015610af457602002820191906000526020600020905b815481526020019060010190808311610ae0575b505050918352505060059182015460209182015260008a81528082526040808220815160e081018352815480825260018301549582019590955260028201546001600160a01b03169281019290925260038101546060830152600481015460808301529384015460a082015260069093015460c0840152929350909103610bbd5760405162461bcd60e51b815260206004820152600760248201527f216578697374730000000000000000000000000000000000000000000000000060448201526064016103f5565b856001600160a01b031682606001516001600160a01b031614610c105760405162461bcd60e51b815260206004820152600b60248201526a08585d5d1a1bdc9a5e995960aa1b60448201526064016103f5565b600060045442610c20919061198f565b905080836020015110610c755760405162461bcd60e51b815260206004820152600760248201527f3e327765656b730000000000000000000000000000000000000000000000000060448201526064016103f5565b60008360a00151846080015151610c8c91906119a8565b60008b81526002602052604090208054919250908a908110610cb057610cb06118bc565b600091825260208220600690910201818155600181018290556002810182905560038101805473ffffffffffffffffffffffffffffffffffffffff1916905590610cfd600483018261144f565b5060006005919091018190556001600160a01b038916815260036020526040902080548b908110610d3057610d306118bc565b60009182526020808320909101829055604080518d81526001600160a01b038c16928101929092528101919091527ffc3ced06dca988f1666d0ec0f7c1170397e5e5876cfc381a64fbff0f322790849060600160405180910390a160409384015192909301519199919850919650945050505050565b6000878152602081905260409020600201546001600160a01b03163314610e0f5760405162461bcd60e51b815260206004820152600c60248201527f21756e6174686f72697a6564000000000000000000000000000000000000000060448201526064016103f5565b6040518060e00160405280888152602001878152602001336001600160a01b031681526020018681526020016000808a81526020019081526020016000206004015481526020014281526020016000808a815260200190815260200160002060060154815250600080898152602001908152602001600020600082015181600001556020820151816001015560408201518160020160006101000a8154816001600160a01b0302191690836001600160a01b03160217905550606082015181600301556080820151816004015560a0820151816005015560c082015181600601559050507f60cd06f5e535451a631f4f384e8844896365676953a412852e17b2f46687839d878585898686338c4260405161096b999897969594939291906118d2565b6006546001600160a01b03163314610f7a5760405162461bcd60e51b815260206004820152600b60248201526a08585d5d1a1bdc9a5e995960aa1b60448201526064016103f5565b610fee6040518060400160405280600e81526020017f57656220446576656c6f70656e740000000000000000000000000000000000008152506040518060400160405280601481526020017f7765622d646576656c6f706d656e742e7765627000000000000000000000000081525061097c565b6110626040518060400160405280600681526020017f47616d696e6700000000000000000000000000000000000000000000000000008152506040518060400160405280600b81526020017f67616d696e672e7765627000000000000000000000000000000000000000000081525061097c565b6110d66040518060400160405280600781526020017f436f6f6b696e67000000000000000000000000000000000000000000000000008152506040518060400160405280600c81526020017f636f6f6b696e672e77656270000000000000000000000000000000000000000081525061097c565b61114a6040518060400160405280600981526020017f416e696d6174696f6e00000000000000000000000000000000000000000000008152506040518060400160405280600e81526020017f616e696d6174696f6e2e7765627000000000000000000000000000000000000081525061097c565b6111be6040518060400160405280600981526020017f4d61726b6574696e6700000000000000000000000000000000000000000000008152506040518060400160405280600e81526020017f6d61726b6574696e672e7765627000000000000000000000000000000000000081525061097c565b6112326040518060400160405280600c81526020017f4461746120536369656e636500000000000000000000000000000000000000008152506040518060400160405280601181526020017f646174612d736369656e63652e7765627000000000000000000000000000000081525061097c565b6112a66040518060400160405280600b81526020017f50686f746f6772617068790000000000000000000000000000000000000000008152506040518060400160405280601081526020017f70686f746f6772617068792e776562700000000000000000000000000000000081525061097c565b61131a6040518060400160405280600581526020017f4d757369630000000000000000000000000000000000000000000000000000008152506040518060400160405280600a81526020017f6d757369632e776562700000000000000000000000000000000000000000000081525061097c565b61138e6040518060400160405280600881526020017f537065616b696e670000000000000000000000000000000000000000000000008152506040518060400160405280600d81526020017f737065616b696e672e776562700000000000000000000000000000000000000081525061097c565b6114026040518060400160405280600f81526020017f55492f55582044657369676e696e6700000000000000000000000000000000008152506040518060400160405280600a81526020017f75692d75782e776562700000000000000000000000000000000000000000000081525061097c565b565b82805482825590600052602060002090810192821561143f579160200282015b8281111561143f578251825591602001919060010190611424565b5061144b929150611470565b5090565b508054600082559060005260206000209081019061146d9190611470565b50565b5b8082111561144b5760008155600101611471565b80356001600160a01b038116811461149c57600080fd5b919050565b600080604083850312156114b457600080fd5b6114bd83611485565b946020939093013593505050565b600080604083850312156114de57600080fd5b50508035926020909101359150565b6000806040838503121561150057600080fd5b8235915061151060208401611485565b90509250929050565b634e487b7160e01b600052604160045260246000fd5b600082601f83011261154057600080fd5b813567ffffffffffffffff8082111561155b5761155b611519565b604051601f8301601f19908116603f0116810190828211818310171561158357611583611519565b8160405283815286602085880101111561159c57600080fd5b836020870160208301376000602085830101528094505050505092915050565b600080600080608085870312156115d257600080fd5b84359350602085013567ffffffffffffffff808211156115f157600080fd5b6115fd8883890161152f565b9450604087013591508082111561161357600080fd5b61161f8883890161152f565b9350606087013591508082111561163557600080fd5b506116428782880161152f565b91505092959194509250565b60008060006060848603121561166357600080fd5b8335925061167360208501611485565b915061168160408501611485565b90509250925092565b60006020828403121561169c57600080fd5b5035919050565b600080600080600080600060e0888a0312156116be57600080fd5b873596506020880135955060408801359450606088013567ffffffffffffffff808211156116eb57600080fd5b6116f78b838c0161152f565b955060808a013591508082111561170d57600080fd5b6117198b838c0161152f565b945060a08a013591508082111561172f57600080fd5b61173b8b838c0161152f565b935060c08a013591508082111561175157600080fd5b5061175e8a828b0161152f565b91505092959891949750929550565b6000806040838503121561178057600080fd5b823567ffffffffffffffff8082111561179857600080fd5b6117a48683870161152f565b935060208501359150808211156117ba57600080fd5b506117c78582860161152f565b9150509250929050565b6000806000606084860312156117e657600080fd5b833592506020840135915061168160408501611485565b634e487b7160e01b600052601160045260246000fd5b600060018201611825576118256117fd565b5060010190565b6000815180845260005b8181101561185257602081850181015186830182015201611836565b506000602082860101526020601f19601f83011685010191505092915050565b84815260806020820152600061188b608083018661182c565b828103604084015261189d818661182c565b905082810360608401526118b1818561182c565b979650505050505050565b634e487b7160e01b600052603260045260246000fd5b60006101208b83528060208401526118ec8184018c61182c565b90508281036040840152611900818b61182c565b9050886060840152828103608084015261191a818961182c565b905082810360a084015261192e818861182c565b6001600160a01b039690961660c0840152505060e0810192909252610100909101529695505050505050565b838152606060208201526000611973606083018561182c565b8281036040840152611985818561182c565b9695505050505050565b808201808211156119a2576119a26117fd565b92915050565b6000826119c557634e487b7160e01b600052601260045260246000fd5b50049056fea2646970667358221220dc6d2e5f76e4f75ddce9969b917ce88d074fc62354086faf04ad5e20fbe76b9764736f6c63430008100033",
  "immutableReferences": {},
  "source": "// SPDX-License-Identifier: GPL-3.0\npragma solidity >=0.7.0 <0.9.0;\n\nimport {Models} from \"./base/Models.sol\";\n\ncontract BdlCourse {\n    /* all ecosystem courses */\n    mapping(uint => Models.Course) public courses;\n\n    /* creator => course id */\n    mapping(address => uint[]) public createdCourses;\n\n    /* holds all course subscriptions */\n    mapping(uint => Models.Subscription[]) public subscriptions;\n\n    /* learner => course id */\n    mapping(address => uint[]) public subscribeds;\n\n    /* 2 weeks */\n    uint private refundableDuration = 10000;\n\n    uint private categoryCount = 0;\n\n    address private deployer;\n\n    constructor() {\n        deployer = msg.sender;\n    }\n\n    // == learner related functions == //\n\n    /* function to subscribe to a course */\n    function subscribe(uint id, address learner)\n        external\n        returns (uint256, address)\n    {\n        Models.Course memory course = courses[id];\n\n        require(course.id != 0, \"!exists\");\n        require(course.creator != learner, \"!can_subscribe_to_own_course\");\n\n        uint[] memory viewed;\n\n        subscriptions[id].push(\n            Models.Subscription(\n                id,\n                block.timestamp,\n                course.price,\n                learner,\n                viewed,\n                course.sections\n            )\n        );\n\n        subscribeds[learner].push(id);\n\n        emit Subscription(id, learner, true);\n        return (course.price, course.creator);\n    }\n\n    /* function to unsubscribe from a course */\n    function unSubscribe(\n        uint id,\n        uint sId,\n        address learner\n    ) external returns (uint256, address, uint) {\n        Models.Subscription memory subscription = subscriptions[id][sId];\n        Models.Course memory course = courses[id];\n\n        require(course.id != 0, \"!exists\");\n        require(subscription.owner == learner, \"!authorized\");\n\n        uint dueTime = (block.timestamp + refundableDuration);\n        require(subscription.time < dueTime, \">2weeks\");\n\n        uint weight = (subscription.viewed.length / subscription.sections);\n\n        delete subscriptions[id][sId];\n        delete subscribeds[learner][id];\n\n        emit Subscription(id, learner, false);\n        return (subscription.price, course.creator, weight);\n    }\n\n    // == creator related functions == //\n\n    // testing purpose\n    function mintCategories() public onlyOwner {\n        createCategory(\"Web Developent\", \"web-development.webp\");\n        createCategory(\"Gaming\", \"gaming.webp\");\n        createCategory(\"Cooking\", \"cooking.webp\");\n        createCategory(\"Animation\", \"animation.webp\");\n        createCategory(\"Marketing\", \"marketing.webp\");\n        createCategory(\"Data Science\", \"data-science.webp\");\n        createCategory(\"Photography\", \"photography.webp\");\n        createCategory(\"Music\", \"music.webp\");\n        createCategory(\"Speaking\", \"speaking.webp\");\n        createCategory(\"UI/UX Designing\", \"ui-ux.webp\");\n    }\n\n    function createCategory(string memory name, string memory image)\n        public\n        onlyOwner\n    {\n        categoryCount++;\n        emit Category(categoryCount, name, image);\n    }\n\n    /* create a new course */\n    function createCourse(\n        uint id,\n        uint category,\n        uint256 price,\n        /* course metadata */\n        string memory name,\n        string memory description,\n        string memory thumbnail,\n        string memory previewSrc\n    ) external {\n        require(courses[id].id == 0, \"exists\");\n\n        courses[id] = Models.Course(\n            id,\n            category,\n            msg.sender,\n            price,\n            block.timestamp,\n            block.timestamp,\n            courses[id].sections\n        );\n\n        createdCourses[msg.sender].push(id);\n\n        emit Course(\n            id,\n            name,\n            description,\n            category,\n            thumbnail,\n            previewSrc,\n            msg.sender,\n            price,\n            block.timestamp\n        );\n    }\n\n    /* updates existing course */\n    function updateCourse(\n        uint id,\n        uint category,\n        uint256 price,\n        /* course metadata */\n        string memory name,\n        string memory description,\n        string memory thumbnail,\n        string memory previewSrc\n    ) external {\n        require(courses[id].creator == msg.sender, \"!unathorized\");\n\n        courses[id] = Models.Course(\n            id,\n            category,\n            msg.sender,\n            price,\n            courses[id].createdAt,\n            block.timestamp,\n            courses[id].sections\n        );\n\n        emit Course(\n            id,\n            name,\n            description,\n            category,\n            thumbnail,\n            previewSrc,\n            msg.sender,\n            price,\n            block.timestamp\n        );\n    }\n\n    /* creates a course section */\n    function createCourseSection(\n        uint id,\n        string memory title,\n        string memory content,\n        string memory src\n    ) public {\n        require(courses[id].creator == msg.sender, \"!unathorized\");\n        courses[id].sections++;\n        emit CourseSection(id, title, content, src);\n    }\n\n    /* transfer course onwership */\n    function tranfersCourse(\n        uint id,\n        address creator,\n        address receiver\n    ) external {\n        require(courses[id].creator == creator, \"!authorized\");\n        courses[id].creator = receiver;\n\n        delete createdCourses[creator][id];\n        createdCourses[receiver].push(id);\n\n        emit CourseTransfer(id, creator, receiver);\n    }\n\n    // == events == //\n    event Subscription(uint courseId, address learner, bool status);\n    event CourseTransfer(uint id, address creator, address receiver);\n    event Category(uint id, string name, string image);\n    event Course(\n        uint id,\n        string name,\n        string description,\n        uint category,\n        string thumbnail,\n        string previewSrc,\n        address creator,\n        uint256 price,\n        uint updatedAt\n    );\n    event CourseSection(uint id, string title, string content, string src);\n\n    // == modifiers == //\n    modifier onlyOwner() {\n        require(msg.sender == deployer, \"!authorized\");\n        _;\n    }\n}\n",
  "sourcePath": "C:\\Users\\Arogundade Ibrahim\\Documents\\web3\\Buidl\\contracts\\BdlCourse.sol",
  "compiler": {
    "name": "solc",
    "version": "0.8.16+commit.07a7930e.Emscripten.clang"
  },
  "schemaVersion": "3.4.10",
  "updatedAt": "2022-10-30T06:47:57.060Z",
  "networkType": "ethereum",
  "devdoc": {
    "kind": "dev",
    "methods": {},
    "version": 1
  },
  "userdoc": {
    "kind": "user",
    "methods": {},
    "version": 1
  }
}