{
  "contractName": "BdlCourse",
  "abi": [
    {
      "inputs": [],
      "stateMutability": "nonpayable",
      "type": "constructor"
    },
    {
      "anonymous": false,
      "inputs": [
        {
          "indexed": false,
          "internalType": "uint256",
          "name": "id",
          "type": "uint256"
        },
        {
          "indexed": false,
          "internalType": "string",
          "name": "name",
          "type": "string"
        },
        {
          "indexed": false,
          "internalType": "string",
          "name": "image",
          "type": "string"
        }
      ],
      "name": "Category",
      "type": "event"
    },
    {
      "anonymous": false,
      "inputs": [
        {
          "indexed": false,
          "internalType": "uint256",
          "name": "id",
          "type": "uint256"
        },
        {
          "indexed": false,
          "internalType": "string",
          "name": "name",
          "type": "string"
        },
        {
          "indexed": false,
          "internalType": "string",
          "name": "description",
          "type": "string"
        },
        {
          "indexed": false,
          "internalType": "uint256",
          "name": "category",
          "type": "uint256"
        },
        {
          "indexed": false,
          "internalType": "string",
          "name": "thumbnail",
          "type": "string"
        },
        {
          "indexed": false,
          "internalType": "string",
          "name": "previewSrc",
          "type": "string"
        },
        {
          "indexed": false,
          "internalType": "address",
          "name": "creator",
          "type": "address"
        },
        {
          "indexed": false,
          "internalType": "uint256",
          "name": "price",
          "type": "uint256"
        },
        {
          "indexed": false,
          "internalType": "bool",
          "name": "publish",
          "type": "bool"
        },
        {
          "indexed": false,
          "internalType": "uint256",
          "name": "updatedAt",
          "type": "uint256"
        }
      ],
      "name": "Course",
      "type": "event"
    },
    {
      "anonymous": false,
      "inputs": [
        {
          "indexed": false,
          "internalType": "uint256",
          "name": "id",
          "type": "uint256"
        },
        {
          "indexed": false,
          "internalType": "string",
          "name": "title",
          "type": "string"
        },
        {
          "indexed": false,
          "internalType": "string",
          "name": "content",
          "type": "string"
        },
        {
          "indexed": false,
          "internalType": "string",
          "name": "src",
          "type": "string"
        }
      ],
      "name": "CourseSection",
      "type": "event"
    },
    {
      "anonymous": false,
      "inputs": [
        {
          "indexed": false,
          "internalType": "uint256",
          "name": "id",
          "type": "uint256"
        },
        {
          "indexed": false,
          "internalType": "address",
          "name": "creator",
          "type": "address"
        },
        {
          "indexed": false,
          "internalType": "address",
          "name": "receiver",
          "type": "address"
        }
      ],
      "name": "CourseTransfer",
      "type": "event"
    },
    {
      "anonymous": false,
      "inputs": [
        {
          "indexed": false,
          "internalType": "uint256",
          "name": "id",
          "type": "uint256"
        },
        {
          "indexed": false,
          "internalType": "uint256",
          "name": "sectionIndex",
          "type": "uint256"
        }
      ],
      "name": "SectionViewed",
      "type": "event"
    },
    {
      "anonymous": false,
      "inputs": [
        {
          "indexed": false,
          "internalType": "uint256",
          "name": "courseId",
          "type": "uint256"
        },
        {
          "indexed": false,
          "internalType": "address",
          "name": "learner",
          "type": "address"
        },
        {
          "indexed": false,
          "internalType": "bool",
          "name": "status",
          "type": "bool"
        }
      ],
      "name": "Subscription",
      "type": "event"
    },
    {
      "inputs": [
        {
          "internalType": "uint256",
          "name": "",
          "type": "uint256"
        }
      ],
      "name": "courses",
      "outputs": [
        {
          "internalType": "uint256",
          "name": "id",
          "type": "uint256"
        },
        {
          "internalType": "uint256",
          "name": "category",
          "type": "uint256"
        },
        {
          "internalType": "address",
          "name": "creator",
          "type": "address"
        },
        {
          "internalType": "uint256",
          "name": "price",
          "type": "uint256"
        },
        {
          "internalType": "uint256",
          "name": "createdAt",
          "type": "uint256"
        },
        {
          "internalType": "uint256",
          "name": "updatedAt",
          "type": "uint256"
        },
        {
          "internalType": "uint256",
          "name": "sections",
          "type": "uint256"
        }
      ],
      "stateMutability": "view",
      "type": "function"
    },
    {
      "inputs": [
        {
          "internalType": "address",
          "name": "",
          "type": "address"
        },
        {
          "internalType": "uint256",
          "name": "",
          "type": "uint256"
        }
      ],
      "name": "createdCourses",
      "outputs": [
        {
          "internalType": "uint256",
          "name": "",
          "type": "uint256"
        }
      ],
      "stateMutability": "view",
      "type": "function"
    },
    {
      "inputs": [
        {
          "internalType": "address",
          "name": "",
          "type": "address"
        },
        {
          "internalType": "uint256",
          "name": "",
          "type": "uint256"
        }
      ],
      "name": "subscribeds",
      "outputs": [
        {
          "internalType": "uint256",
          "name": "",
          "type": "uint256"
        }
      ],
      "stateMutability": "view",
      "type": "function"
    },
    {
      "inputs": [
        {
          "internalType": "uint256",
          "name": "",
          "type": "uint256"
        },
        {
          "internalType": "uint256",
          "name": "",
          "type": "uint256"
        }
      ],
      "name": "subscriptions",
      "outputs": [
        {
          "internalType": "uint256",
          "name": "course",
          "type": "uint256"
        },
        {
          "internalType": "uint256",
          "name": "time",
          "type": "uint256"
        },
        {
          "internalType": "uint256",
          "name": "price",
          "type": "uint256"
        },
        {
          "internalType": "address",
          "name": "owner",
          "type": "address"
        },
        {
          "internalType": "uint256",
          "name": "sections",
          "type": "uint256"
        }
      ],
      "stateMutability": "view",
      "type": "function"
    },
    {
      "inputs": [
        {
          "internalType": "uint256",
          "name": "id",
          "type": "uint256"
        },
        {
          "internalType": "address",
          "name": "learner",
          "type": "address"
        }
      ],
      "name": "subscribe",
      "outputs": [
        {
          "internalType": "uint256",
          "name": "",
          "type": "uint256"
        },
        {
          "internalType": "address",
          "name": "",
          "type": "address"
        }
      ],
      "stateMutability": "nonpayable",
      "type": "function"
    },
    {
      "inputs": [
        {
          "internalType": "uint256",
          "name": "id",
          "type": "uint256"
        },
        {
          "internalType": "uint256",
          "name": "sId",
          "type": "uint256"
        },
        {
          "internalType": "address",
          "name": "learner",
          "type": "address"
        }
      ],
      "name": "unSubscribe",
      "outputs": [
        {
          "internalType": "uint256",
          "name": "",
          "type": "uint256"
        },
        {
          "internalType": "address",
          "name": "",
          "type": "address"
        },
        {
          "internalType": "uint256",
          "name": "",
          "type": "uint256"
        }
      ],
      "stateMutability": "nonpayable",
      "type": "function"
    },
    {
      "inputs": [],
      "name": "mintCategories",
      "outputs": [],
      "stateMutability": "nonpayable",
      "type": "function"
    },
    {
      "inputs": [
        {
          "internalType": "string",
          "name": "name",
          "type": "string"
        },
        {
          "internalType": "string",
          "name": "image",
          "type": "string"
        }
      ],
      "name": "createCategory",
      "outputs": [],
      "stateMutability": "nonpayable",
      "type": "function"
    },
    {
      "inputs": [
        {
          "internalType": "uint256",
          "name": "id",
          "type": "uint256"
        },
        {
          "internalType": "uint256",
          "name": "category",
          "type": "uint256"
        },
        {
          "internalType": "uint256",
          "name": "price",
          "type": "uint256"
        },
        {
          "internalType": "string",
          "name": "name",
          "type": "string"
        },
        {
          "internalType": "string",
          "name": "description",
          "type": "string"
        },
        {
          "internalType": "string",
          "name": "thumbnail",
          "type": "string"
        },
        {
          "internalType": "string",
          "name": "previewSrc",
          "type": "string"
        },
        {
          "internalType": "bool",
          "name": "publish",
          "type": "bool"
        }
      ],
      "name": "createCourse",
      "outputs": [],
      "stateMutability": "nonpayable",
      "type": "function"
    },
    {
      "inputs": [
        {
          "internalType": "uint256",
          "name": "id",
          "type": "uint256"
        },
        {
          "internalType": "uint256",
          "name": "category",
          "type": "uint256"
        },
        {
          "internalType": "uint256",
          "name": "price",
          "type": "uint256"
        },
        {
          "internalType": "string",
          "name": "name",
          "type": "string"
        },
        {
          "internalType": "string",
          "name": "description",
          "type": "string"
        },
        {
          "internalType": "string",
          "name": "thumbnail",
          "type": "string"
        },
        {
          "internalType": "string",
          "name": "previewSrc",
          "type": "string"
        },
        {
          "internalType": "bool",
          "name": "publish",
          "type": "bool"
        }
      ],
      "name": "updateCourse",
      "outputs": [],
      "stateMutability": "nonpayable",
      "type": "function"
    },
    {
      "inputs": [
        {
          "internalType": "uint256",
          "name": "id",
          "type": "uint256"
        },
        {
          "internalType": "string",
          "name": "title",
          "type": "string"
        },
        {
          "internalType": "string",
          "name": "content",
          "type": "string"
        },
        {
          "internalType": "string",
          "name": "src",
          "type": "string"
        }
      ],
      "name": "createCourseSection",
      "outputs": [],
      "stateMutability": "nonpayable",
      "type": "function"
    },
    {
      "inputs": [
        {
          "internalType": "uint256",
          "name": "id",
          "type": "uint256"
        },
        {
          "internalType": "address",
          "name": "creator",
          "type": "address"
        },
        {
          "internalType": "address",
          "name": "receiver",
          "type": "address"
        }
      ],
      "name": "tranfersCourse",
      "outputs": [],
      "stateMutability": "nonpayable",
      "type": "function"
    },
    {
      "inputs": [
        {
          "internalType": "uint256",
          "name": "id",
          "type": "uint256"
        },
        {
          "internalType": "uint256",
          "name": "sectionIndex",
          "type": "uint256"
        }
      ],
      "name": "viewSection",
      "outputs": [],
      "stateMutability": "nonpayable",
      "type": "function"
    },
    {
      "inputs": [
        {
          "internalType": "uint256",
          "name": "id",
          "type": "uint256"
        },
        {
          "internalType": "address",
          "name": "owner",
          "type": "address"
        }
      ],
      "name": "refund",
      "outputs": [
        {
          "internalType": "uint256",
          "name": "",
          "type": "uint256"
        },
        {
          "internalType": "uint256",
          "name": "",
          "type": "uint256"
        },
        {
          "internalType": "address",
          "name": "",
          "type": "address"
        },
        {
          "internalType": "uint256",
          "name": "",
          "type": "uint256"
        }
      ],
      "stateMutability": "view",
      "type": "function"
    }
  ],
  "bytecode": "0x60806040526127106004556000600555600860065534801561002057600080fd5b50600780546001600160a01b03191633179055611f30806100426000396000f3fe608060405234801561001057600080fd5b50600436106100ea5760003560e01c8063961d00f11161008c578063c856e7ee11610066578063c856e7ee146102c4578063cc7a56a0146102d7578063ce70be761461030d578063f8e7ef931461032057600080fd5b8063961d00f11461020657806396f979d214610219578063b224b4e9146102b157600080fd5b806367ebbe8b116100c857806367ebbe8b146101895780637ad226dc1461019e5780637f7d6eba146101e05780638529934b146101f357600080fd5b806335986b2d146100ef578063365cfcbf1461011557806359e6951d14610159575b600080fd5b6101026100fd36600461194a565b610328565b6040519081526020015b60405180910390f35b610128610123366004611974565b610359565b604080519586526020860194909452928401919091526001600160a01b03166060830152608082015260a00161010c565b61016c610167366004611996565b6103b0565b604080519283526001600160a01b0390911660208301520161010c565b61019c610197366004611a65565b61061f565b005b6101b16101ac366004611996565b6106ed565b60405161010c949392919093845260208401929092526001600160a01b03166040830152606082015260800190565b61019c6101ee366004611974565b6108be565b61019c610201366004611af7565b61095d565b61019c610214366004611b43565b610a88565b61026e610227366004611c1e565b6000602081905290815260409020805460018201546002830154600384015460048501546005860154600690960154949593946001600160a01b0390931693919290919087565b6040805197885260208801969096526001600160a01b03909416948601949094526060850191909152608084015260a083019190915260c082015260e00161010c565b61019c6102bf366004611c37565b610c52565b6101026102d236600461194a565b610cf0565b6102ea6102e5366004611c9b565b610d0c565b604080519384526001600160a01b0390921660208401529082015260600161010c565b61019c61031b366004611b43565b61107c565b61019c61120a565b6001602052816000526040600020818154811061034457600080fd5b90600052602060002001600091509150505481565b6002602052816000526040600020818154811061037557600080fd5b600091825260209091206006909102018054600182015460028301546003840154600590940154929550909350916001600160a01b03169085565b600082815260208181526040808320815160e081018352815480825260018301549482019490945260028201546001600160a01b0316928101929092526003810154606083015260048101546080830152600581015460a08301526006015460c0820152829182036104695760405162461bcd60e51b815260206004820152600760248201527f216578697374730000000000000000000000000000000000000000000000000060448201526064015b60405180910390fd5b836001600160a01b031681604001516001600160a01b0316036104ce5760405162461bcd60e51b815260206004820152601c60248201527f2163616e5f7375627363726962655f746f5f6f776e5f636f75727365000000006044820152606401610460565b6000858152600260208181526040808420815160c080820184528b8252428286019081526060898101519584019586526001600160a01b038d811682860190815260808601838152948c015160a0870152865460018082018955978c529a89902086516006909c02019a8b559251958a0195909555945196880196909655945160038701805473ffffffffffffffffffffffffffffffffffffffff191691909316179091559251805191949261058c926004850192909101906118ad565b5060a091909101516005909101556001600160a01b0385166000818152600360209081526040808320805460018082018355918552938390209093018a905580518a815291820193909352918201527ffc3ced06dca988f1666d0ec0f7c1170397e5e5876cfc381a64fbff0f322790849060600160405180910390a1816060015182604001519350935050509250929050565b6000848152602081905260409020600201546001600160a01b031633146106885760405162461bcd60e51b815260206004820152600c60248201527f21756e6174686f72697a656400000000000000000000000000000000000000006044820152606401610460565b60008481526020819052604081206006018054916106a583611cdd565b91905055507fb4a02b53b9459cfd4b284dbaa10ce9611353d1a19845a062d6848ba0615c0bba848484846040516106df9493929190611d3c565b60405180910390a150505050565b60008060008060006106ff87876116dc565b6000888152600260205260408120805492935090918390811061072457610724611d86565b60009182526020918290206040805160c08101825260069093029091018054835260018101548385015260028101548383015260038101546001600160a01b03166060840152600481018054835181870281018701909452808452939491936080860193928301828280156107b857602002820191906000526020600020905b8154815260200190600101908083116107a4575b50505050508152602001600582015481525050905060008160800151518260a001516107e49190611d9c565b9050600081116108365760405162461bcd60e51b815260206004820152601c60248201527f21796f755f63616e745f726566756e645f746869735f636f75727365000000006044820152606401610460565b600082604001518360a001518361084d9190611daf565b6108579190611dd1565b9050600083604001518261086b9190611d9c565b90506000606460065461087e9190611daf565b6108889083611dd1565b60009c8d5260208d905260409c8d90206002015495909c0151929c6001600160a01b039095169a50919850929650505050505050565b60006108ca83336116dc565b6000848152600260205260409020805491925090829081106108ee576108ee611d86565b6000918252602080832060046006909302019190910180546001810182559083529120018290556040517fb3ffbf473064ef97c9dfff7d9cb6d54b11eb91726fdb6e7804931583f9b739a5906109509085908590918252602082015260400190565b60405180910390a1505050565b6000838152602081905260409020600201546001600160a01b038381169116146109b75760405162461bcd60e51b815260206004820152600b60248201526a08585d5d1a1bdc9a5e995960aa1b6044820152606401610460565b600083815260208181526040808320600201805473ffffffffffffffffffffffffffffffffffffffff19166001600160a01b03868116919091179091558516835260019091529020805484908110610a1157610a11611d86565b60009182526020808320919091018290556001600160a01b03838116808452600180845260408086208054928301815586529484902001879055835187815291861692820192909252918201527f2fd7dc3aeb254842908e4dc655cdfd549a0d3825eaf02e31cd71b1c3df1c751a90606001610950565b60008881526020819052604090205415610ae45760405162461bcd60e51b815260206004820152600660248201527f65786973747300000000000000000000000000000000000000000000000000006044820152606401610460565b6040518060e00160405280898152602001888152602001336001600160a01b031681526020018781526020014281526020014281526020016000808b8152602001908152602001600020600601548152506000808a8152602001908152602001600020600082015181600001556020820151816001015560408201518160020160006101000a8154816001600160a01b0302191690836001600160a01b03160217905550606082015181600301556080820151816004015560a0820151816005015560c0820151816006015590505060016000336001600160a01b03166001600160a01b031681526020019081526020016000208890806001815401808255809150506001900390600052602060002001600090919091909150557f488034406293bf721e96d002a170591a3e896f7e941dee78d9f10a8dc20d58868886868a8787338d8942604051610c409a99989796959493929190611df0565b60405180910390a15050505050505050565b6007546001600160a01b03163314610c9a5760405162461bcd60e51b815260206004820152600b60248201526a08585d5d1a1bdc9a5e995960aa1b6044820152606401610460565b60058054906000610caa83611cdd565b91905055507f2a65d0fe76508fb4e604d4804927dce75b70f82e64a2025e3bffb2fc003418506005548383604051610ce493929190611e81565b60405180910390a15050565b6003602052816000526040600020818154811061034457600080fd5b600080600080600260008881526020019081526020016000208681548110610d3657610d36611d86565b60009182526020918290206040805160c08101825260069093029091018054835260018101548385015260028101548383015260038101546001600160a01b0316606084015260048101805483518187028101870190945280845293949193608086019392830182828015610dca57602002820191906000526020600020905b815481526020019060010190808311610db6575b505050918352505060059182015460209182015260008a81528082526040808220815160e081018352815480825260018301549582019590955260028201546001600160a01b03169281019290925260038101546060830152600481015460808301529384015460a082015260069093015460c0840152929350909103610e935760405162461bcd60e51b815260206004820152600760248201527f21657869737473000000000000000000000000000000000000000000000000006044820152606401610460565b856001600160a01b031682606001516001600160a01b031614610ee65760405162461bcd60e51b815260206004820152600b60248201526a08585d5d1a1bdc9a5e995960aa1b6044820152606401610460565b600060045442610ef69190611eb6565b905080836020015110610f4b5760405162461bcd60e51b815260206004820152600760248201527f3e327765656b73000000000000000000000000000000000000000000000000006044820152606401610460565b60008360a00151846080015151610f629190611daf565b60008b81526002602052604090208054919250908a908110610f8657610f86611d86565b600091825260208220600690910201818155600181018290556002810182905560038101805473ffffffffffffffffffffffffffffffffffffffff1916905590610fd360048301826118f8565b5060006005919091018190556001600160a01b038916815260036020526040902080548b90811061100657611006611d86565b60009182526020808320909101829055604080518d81526001600160a01b038c16928101929092528101919091527ffc3ced06dca988f1666d0ec0f7c1170397e5e5876cfc381a64fbff0f322790849060600160405180910390a160409384015192909301519199919850919650945050505050565b6000888152602081905260409020600201546001600160a01b031633146110e55760405162461bcd60e51b815260206004820152600c60248201527f21756e6174686f72697a656400000000000000000000000000000000000000006044820152606401610460565b6040518060e00160405280898152602001888152602001336001600160a01b031681526020018781526020016000808b81526020019081526020016000206004015481526020014281526020016000808b8152602001908152602001600020600601548152506000808a8152602001908152602001600020600082015181600001556020820151816001015560408201518160020160006101000a8154816001600160a01b0302191690836001600160a01b03160217905550606082015181600301556080820151816004015560a0820151816005015560c082015181600601559050507f488034406293bf721e96d002a170591a3e896f7e941dee78d9f10a8dc20d58868886868a8787338d8942604051610c409a99989796959493929190611df0565b6007546001600160a01b031633146112525760405162461bcd60e51b815260206004820152600b60248201526a08585d5d1a1bdc9a5e995960aa1b6044820152606401610460565b6112c66040518060400160405280600e81526020017f57656220446576656c6f70656e740000000000000000000000000000000000008152506040518060400160405280601481526020017f7765622d646576656c6f706d656e742e77656270000000000000000000000000815250610c52565b61133a6040518060400160405280600681526020017f47616d696e6700000000000000000000000000000000000000000000000000008152506040518060400160405280600b81526020017f67616d696e672e77656270000000000000000000000000000000000000000000815250610c52565b6113ae6040518060400160405280600781526020017f436f6f6b696e67000000000000000000000000000000000000000000000000008152506040518060400160405280600c81526020017f636f6f6b696e672e776562700000000000000000000000000000000000000000815250610c52565b6114226040518060400160405280600981526020017f416e696d6174696f6e00000000000000000000000000000000000000000000008152506040518060400160405280600e81526020017f616e696d6174696f6e2e77656270000000000000000000000000000000000000815250610c52565b6114966040518060400160405280600981526020017f4d61726b6574696e6700000000000000000000000000000000000000000000008152506040518060400160405280600e81526020017f6d61726b6574696e672e77656270000000000000000000000000000000000000815250610c52565b61150a6040518060400160405280600c81526020017f4461746120536369656e636500000000000000000000000000000000000000008152506040518060400160405280601181526020017f646174612d736369656e63652e77656270000000000000000000000000000000815250610c52565b61157e6040518060400160405280600b81526020017f50686f746f6772617068790000000000000000000000000000000000000000008152506040518060400160405280601081526020017f70686f746f6772617068792e7765627000000000000000000000000000000000815250610c52565b6115f26040518060400160405280600581526020017f4d757369630000000000000000000000000000000000000000000000000000008152506040518060400160405280600a81526020017f6d757369632e7765627000000000000000000000000000000000000000000000815250610c52565b6116666040518060400160405280600881526020017f537065616b696e670000000000000000000000000000000000000000000000008152506040518060400160405280600d81526020017f737065616b696e672e7765627000000000000000000000000000000000000000815250610c52565b6116da6040518060400160405280600f81526020017f55492f55582044657369676e696e6700000000000000000000000000000000008152506040518060400160405280600a81526020017f75692d75782e7765627000000000000000000000000000000000000000000000815250610c52565b565b600082815260026020908152604080832080548251818502810185019093528083528493849084015b828210156117c25760008481526020908190206040805160c081018252600686029092018054835260018101548385015260028101548383015260038101546001600160a01b03166060840152600481018054835181870281018701909452808452939491936080860193928301828280156117a057602002820191906000526020600020905b81548152602001906001019080831161178c575b5050505050815260200160058201548152505081526020019060010190611705565b5050505090506000600019905060005b825181101561182b57846001600160a01b03168382815181106117f7576117f7611d86565b6020026020010151606001516001600160a01b0316036118195780915061182b565b8061182381611ec9565b9150506117d2565b5060008112156118a35760405162461bcd60e51b815260206004820152602660248201527f21796f755f6172655f6e6f745f737562736372696265645f746f5f746869735f60448201527f636f7572736500000000000000000000000000000000000000000000000000006064820152608401610460565b9150505b92915050565b8280548282559060005260206000209081019282156118e8579160200282015b828111156118e85782518255916020019190600101906118cd565b506118f4929150611919565b5090565b50805460008255906000526020600020908101906119169190611919565b50565b5b808211156118f4576000815560010161191a565b80356001600160a01b038116811461194557600080fd5b919050565b6000806040838503121561195d57600080fd5b6119668361192e565b946020939093013593505050565b6000806040838503121561198757600080fd5b50508035926020909101359150565b600080604083850312156119a957600080fd5b823591506119b96020840161192e565b90509250929050565b634e487b7160e01b600052604160045260246000fd5b600082601f8301126119e957600080fd5b813567ffffffffffffffff80821115611a0457611a046119c2565b604051601f8301601f19908116603f01168101908282118183101715611a2c57611a2c6119c2565b81604052838152866020858801011115611a4557600080fd5b836020870160208301376000602085830101528094505050505092915050565b60008060008060808587031215611a7b57600080fd5b84359350602085013567ffffffffffffffff80821115611a9a57600080fd5b611aa6888389016119d8565b94506040870135915080821115611abc57600080fd5b611ac8888389016119d8565b93506060870135915080821115611ade57600080fd5b50611aeb878288016119d8565b91505092959194509250565b600080600060608486031215611b0c57600080fd5b83359250611b1c6020850161192e565b9150611b2a6040850161192e565b90509250925092565b8035801515811461194557600080fd5b600080600080600080600080610100898b031215611b6057600080fd5b883597506020890135965060408901359550606089013567ffffffffffffffff80821115611b8d57600080fd5b611b998c838d016119d8565b965060808b0135915080821115611baf57600080fd5b611bbb8c838d016119d8565b955060a08b0135915080821115611bd157600080fd5b611bdd8c838d016119d8565b945060c08b0135915080821115611bf357600080fd5b50611c008b828c016119d8565b925050611c0f60e08a01611b33565b90509295985092959890939650565b600060208284031215611c3057600080fd5b5035919050565b60008060408385031215611c4a57600080fd5b823567ffffffffffffffff80821115611c6257600080fd5b611c6e868387016119d8565b93506020850135915080821115611c8457600080fd5b50611c91858286016119d8565b9150509250929050565b600080600060608486031215611cb057600080fd5b8335925060208401359150611b2a6040850161192e565b634e487b7160e01b600052601160045260246000fd5b600060018201611cef57611cef611cc7565b5060010190565b6000815180845260005b81811015611d1c57602081850181015186830182015201611d00565b506000602082860101526020601f19601f83011685010191505092915050565b848152608060208201526000611d556080830186611cf6565b8281036040840152611d678186611cf6565b90508281036060840152611d7b8185611cf6565b979650505050505050565b634e487b7160e01b600052603260045260246000fd5b818103818111156118a7576118a7611cc7565b600082611dcc57634e487b7160e01b600052601260045260246000fd5b500490565b6000816000190483118215151615611deb57611deb611cc7565b500290565b60006101408c8352806020840152611e0a8184018d611cf6565b90508281036040840152611e1e818c611cf6565b90508960608401528281036080840152611e38818a611cf6565b905082810360a0840152611e4c8189611cf6565b6001600160a01b039790971660c0840152505060e0810193909352901515610100830152610120909101529695505050505050565b838152606060208201526000611e9a6060830185611cf6565b8281036040840152611eac8185611cf6565b9695505050505050565b808201808211156118a7576118a7611cc7565b60007f7fffffffffffffffffffffffffffffffffffffffffffffffffffffffffffffff8203611cef57611cef611cc756fea264697066735822122059a25434d9b5cd47b5e94acebfc9d16c2e22353027e496730d429ac67292d6e964736f6c63430008100033",
  "immutableReferences": {},
  "source": "// SPDX-License-Identifier: GPL-3.0\npragma solidity >=0.7.0 <0.9.0;\n\nimport {Models} from \"./base/Models.sol\";\n\ncontract BdlCourse {\n    /* all ecosystem courses */\n    mapping(uint => Models.Course) public courses;\n\n    /* creator => course id */\n    mapping(address => uint[]) public createdCourses;\n\n    /* holds all course subscriptions */\n    mapping(uint => Models.Subscription[]) public subscriptions;\n\n    /* learner => course id */\n    mapping(address => uint[]) public subscribeds;\n\n    /* 2 weeks */\n    uint private refundableDuration = 10000;\n\n    uint private categoryCount = 0;\n\n    uint private salesFee = 8; // eight percent\n\n    address private deployer;\n\n    constructor() {\n        deployer = msg.sender;\n    }\n\n    // == learner related functions == //\n\n    /* function to subscribe to a course */\n    function subscribe(uint id, address learner)\n        external\n        returns (uint256, address)\n    {\n        Models.Course memory course = courses[id];\n\n        require(course.id != 0, \"!exists\");\n        require(course.creator != learner, \"!can_subscribe_to_own_course\");\n\n        uint[] memory viewed;\n\n        subscriptions[id].push(\n            Models.Subscription(\n                id,\n                block.timestamp,\n                course.price,\n                learner,\n                viewed,\n                course.sections\n            )\n        );\n\n        subscribeds[learner].push(id);\n\n        emit Subscription(id, learner, true);\n        return (course.price, course.creator);\n    }\n\n    /* function to unsubscribe from a course */\n    function unSubscribe(\n        uint id,\n        uint sId,\n        address learner\n    )\n        external\n        returns (\n            uint256,\n            address,\n            uint\n        )\n    {\n        Models.Subscription memory subscription = subscriptions[id][sId];\n        Models.Course memory course = courses[id];\n\n        require(course.id != 0, \"!exists\");\n        require(subscription.owner == learner, \"!authorized\");\n\n        uint dueTime = (block.timestamp + refundableDuration);\n        require(subscription.time < dueTime, \">2weeks\");\n\n        uint weight = (subscription.viewed.length / subscription.sections);\n\n        delete subscriptions[id][sId];\n        delete subscribeds[learner][id];\n\n        emit Subscription(id, learner, false);\n        return (subscription.price, course.creator, weight);\n    }\n\n    // == creator related functions == //\n\n    // testing purpose\n    function mintCategories() public onlyOwner {\n        createCategory(\"Web Developent\", \"web-development.webp\");\n        createCategory(\"Gaming\", \"gaming.webp\");\n        createCategory(\"Cooking\", \"cooking.webp\");\n        createCategory(\"Animation\", \"animation.webp\");\n        createCategory(\"Marketing\", \"marketing.webp\");\n        createCategory(\"Data Science\", \"data-science.webp\");\n        createCategory(\"Photography\", \"photography.webp\");\n        createCategory(\"Music\", \"music.webp\");\n        createCategory(\"Speaking\", \"speaking.webp\");\n        createCategory(\"UI/UX Designing\", \"ui-ux.webp\");\n    }\n\n    function createCategory(string memory name, string memory image)\n        public\n        onlyOwner\n    {\n        categoryCount++;\n        emit Category(categoryCount, name, image);\n    }\n\n    /* create a new course */\n    function createCourse(\n        uint id,\n        uint category,\n        uint256 price,\n        /* course metadata */\n        string memory name,\n        string memory description,\n        string memory thumbnail,\n        string memory previewSrc,\n        bool publish\n    ) external {\n        require(courses[id].id == 0, \"exists\");\n\n        courses[id] = Models.Course(\n            id,\n            category,\n            msg.sender,\n            price,\n            block.timestamp,\n            block.timestamp,\n            courses[id].sections\n        );\n\n        createdCourses[msg.sender].push(id);\n\n        emit Course(\n            id,\n            name,\n            description,\n            category,\n            thumbnail,\n            previewSrc,\n            msg.sender,\n            price,\n            publish,\n            block.timestamp\n        );\n    }\n\n    /* updates existing course */\n    function updateCourse(\n        uint id,\n        uint category,\n        uint256 price,\n        /* course metadata */\n        string memory name,\n        string memory description,\n        string memory thumbnail,\n        string memory previewSrc,\n        bool publish\n    ) external {\n        require(courses[id].creator == msg.sender, \"!unathorized\");\n\n        courses[id] = Models.Course(\n            id,\n            category,\n            msg.sender,\n            price,\n            courses[id].createdAt,\n            block.timestamp,\n            courses[id].sections\n        );\n\n        emit Course(\n            id,\n            name,\n            description,\n            category,\n            thumbnail,\n            previewSrc,\n            msg.sender,\n            price,\n            publish,\n            block.timestamp\n        );\n    }\n\n    /* creates a course section */\n    function createCourseSection(\n        uint id,\n        string memory title,\n        string memory content,\n        string memory src\n    ) public {\n        require(courses[id].creator == msg.sender, \"!unathorized\");\n        courses[id].sections++;\n        emit CourseSection(id, title, content, src);\n    }\n\n    /* transfer course onwership */\n    function tranfersCourse(\n        uint id,\n        address creator,\n        address receiver\n    ) external {\n        require(courses[id].creator == creator, \"!authorized\");\n        courses[id].creator = receiver;\n\n        delete createdCourses[creator][id];\n        createdCourses[receiver].push(id);\n\n        emit CourseTransfer(id, creator, receiver);\n    }\n\n    /* view section */\n    function viewSection(uint id, uint sectionIndex) public {\n        int index = getSubscriptionIndex(id, msg.sender);\n        subscriptions[id][uint(index)].viewed.push(sectionIndex);\n        emit SectionViewed(id, sectionIndex);\n    }\n\n    function refund(uint id, address owner)\n        external\n        view\n        returns (\n            uint256,\n            uint256,\n            address,\n            uint256\n        )\n    {\n        int index = getSubscriptionIndex(id, owner);\n\n        Models.Subscription memory subscription = subscriptions[id][\n            uint(index)\n        ];\n\n        uint payableSections = (subscription.sections -\n            subscription.viewed.length);\n        require(payableSections > 0, \"!you_cant_refund_this_course\");\n\n        uint256 payableAmount = ((payableSections / subscription.sections) *\n            subscription.price);\n        uint256 netEarnings = (payableAmount - subscription.price);\n        uint256 earnings = (netEarnings * (salesFee / 100));\n\n        return (\n            payableAmount,\n            earnings,\n            courses[id].creator,\n            subscription.price\n        );\n    }\n\n    function getSubscriptionIndex(uint courseId, address owner)\n        private\n        view\n        returns (int)\n    {\n        Models.Subscription[] memory _subscriptions = subscriptions[courseId];\n        int _index = -1;\n\n        for (int index = 0; uint(index) < _subscriptions.length; index++) {\n            if (_subscriptions[uint(index)].owner == owner) {\n                _index = index;\n                break;\n            }\n        }\n\n        require(_index >= 0, \"!you_are_not_subscribed_to_this_course\");\n        return _index;\n    }\n\n    // == events == //\n    event Subscription(uint courseId, address learner, bool status);\n    event CourseTransfer(uint id, address creator, address receiver);\n    event Category(uint id, string name, string image);\n    event Course(\n        uint id,\n        string name,\n        string description,\n        uint category,\n        string thumbnail,\n        string previewSrc,\n        address creator,\n        uint256 price,\n        bool publish,\n        uint updatedAt\n    );\n    event CourseSection(uint id, string title, string content, string src);\n    event SectionViewed(uint id, uint sectionIndex);\n\n    // == modifiers == //\n    modifier onlyOwner() {\n        require(msg.sender == deployer, \"!authorized\");\n        _;\n    }\n}\n",
  "sourcePath": "C:\\Users\\Arogundade Ibrahim\\Documents\\web3\\Buidl\\contracts\\BdlCourse.sol",
  "compiler": {
    "name": "solc",
    "version": "0.8.16+commit.07a7930e.Emscripten.clang"
  },
  "schemaVersion": "3.4.10",
  "updatedAt": "2022-10-31T17:09:58.498Z",
  "devdoc": {
    "kind": "dev",
    "methods": {},
    "version": 1
  },
  "userdoc": {
    "kind": "user",
    "methods": {},
    "version": 1
  }
}