{
  "contractName": "BdlCourse",
  "abi": [
    {
      "inputs": [],
      "stateMutability": "nonpayable",
      "type": "constructor"
    },
    {
      "anonymous": false,
      "inputs": [
        {
          "indexed": false,
          "internalType": "uint256",
          "name": "id",
          "type": "uint256"
        },
        {
          "indexed": false,
          "internalType": "string",
          "name": "name",
          "type": "string"
        },
        {
          "indexed": false,
          "internalType": "string",
          "name": "image",
          "type": "string"
        }
      ],
      "name": "Category",
      "type": "event"
    },
    {
      "anonymous": false,
      "inputs": [
        {
          "indexed": false,
          "internalType": "uint256",
          "name": "id",
          "type": "uint256"
        },
        {
          "indexed": false,
          "internalType": "string",
          "name": "name",
          "type": "string"
        },
        {
          "indexed": false,
          "internalType": "string",
          "name": "description",
          "type": "string"
        },
        {
          "indexed": false,
          "internalType": "uint256",
          "name": "category",
          "type": "uint256"
        },
        {
          "indexed": false,
          "internalType": "string",
          "name": "thumbnail",
          "type": "string"
        },
        {
          "indexed": false,
          "internalType": "string",
          "name": "previewSrc",
          "type": "string"
        },
        {
          "indexed": false,
          "internalType": "address",
          "name": "creator",
          "type": "address"
        },
        {
          "indexed": false,
          "internalType": "uint256",
          "name": "price",
          "type": "uint256"
        },
        {
          "indexed": false,
          "internalType": "bool",
          "name": "certificate",
          "type": "bool"
        },
        {
          "indexed": false,
          "internalType": "bool",
          "name": "publish",
          "type": "bool"
        },
        {
          "indexed": false,
          "internalType": "uint256",
          "name": "updatedAt",
          "type": "uint256"
        }
      ],
      "name": "Course",
      "type": "event"
    },
    {
      "anonymous": false,
      "inputs": [
        {
          "indexed": false,
          "internalType": "uint256",
          "name": "id",
          "type": "uint256"
        },
        {
          "indexed": false,
          "internalType": "string",
          "name": "title",
          "type": "string"
        },
        {
          "indexed": false,
          "internalType": "string",
          "name": "content",
          "type": "string"
        },
        {
          "indexed": false,
          "internalType": "string",
          "name": "src",
          "type": "string"
        },
        {
          "indexed": false,
          "internalType": "uint256",
          "name": "duration",
          "type": "uint256"
        },
        {
          "indexed": false,
          "internalType": "uint256",
          "name": "sectionId",
          "type": "uint256"
        }
      ],
      "name": "CourseSection",
      "type": "event"
    },
    {
      "anonymous": false,
      "inputs": [
        {
          "indexed": false,
          "internalType": "uint256",
          "name": "id",
          "type": "uint256"
        },
        {
          "indexed": false,
          "internalType": "address",
          "name": "creator",
          "type": "address"
        },
        {
          "indexed": false,
          "internalType": "address",
          "name": "receiver",
          "type": "address"
        }
      ],
      "name": "CourseTransfer",
      "type": "event"
    },
    {
      "anonymous": false,
      "inputs": [
        {
          "indexed": false,
          "internalType": "uint256",
          "name": "id",
          "type": "uint256"
        },
        {
          "indexed": false,
          "internalType": "uint256",
          "name": "sectionId",
          "type": "uint256"
        }
      ],
      "name": "SectionViewed",
      "type": "event"
    },
    {
      "anonymous": false,
      "inputs": [
        {
          "indexed": false,
          "internalType": "uint256",
          "name": "courseId",
          "type": "uint256"
        },
        {
          "indexed": false,
          "internalType": "address",
          "name": "learner",
          "type": "address"
        },
        {
          "indexed": false,
          "internalType": "bool",
          "name": "status",
          "type": "bool"
        }
      ],
      "name": "Subscription",
      "type": "event"
    },
    {
      "inputs": [
        {
          "internalType": "uint256",
          "name": "",
          "type": "uint256"
        }
      ],
      "name": "courses",
      "outputs": [
        {
          "internalType": "uint256",
          "name": "id",
          "type": "uint256"
        },
        {
          "internalType": "uint256",
          "name": "category",
          "type": "uint256"
        },
        {
          "internalType": "address",
          "name": "creator",
          "type": "address"
        },
        {
          "internalType": "uint256",
          "name": "price",
          "type": "uint256"
        },
        {
          "internalType": "uint256",
          "name": "createdAt",
          "type": "uint256"
        },
        {
          "internalType": "uint256",
          "name": "updatedAt",
          "type": "uint256"
        },
        {
          "internalType": "uint256",
          "name": "sections",
          "type": "uint256"
        },
        {
          "internalType": "bool",
          "name": "certificate",
          "type": "bool"
        }
      ],
      "stateMutability": "view",
      "type": "function"
    },
    {
      "inputs": [
        {
          "internalType": "address",
          "name": "",
          "type": "address"
        },
        {
          "internalType": "uint256",
          "name": "",
          "type": "uint256"
        }
      ],
      "name": "createdCourses",
      "outputs": [
        {
          "internalType": "uint256",
          "name": "",
          "type": "uint256"
        }
      ],
      "stateMutability": "view",
      "type": "function"
    },
    {
      "inputs": [
        {
          "internalType": "uint256",
          "name": "",
          "type": "uint256"
        },
        {
          "internalType": "uint256",
          "name": "",
          "type": "uint256"
        }
      ],
      "name": "subscriptions",
      "outputs": [
        {
          "internalType": "uint256",
          "name": "course",
          "type": "uint256"
        },
        {
          "internalType": "uint256",
          "name": "time",
          "type": "uint256"
        },
        {
          "internalType": "uint256",
          "name": "price",
          "type": "uint256"
        },
        {
          "internalType": "address",
          "name": "owner",
          "type": "address"
        },
        {
          "internalType": "uint256",
          "name": "sections",
          "type": "uint256"
        }
      ],
      "stateMutability": "view",
      "type": "function"
    },
    {
      "inputs": [
        {
          "internalType": "uint256",
          "name": "id",
          "type": "uint256"
        },
        {
          "internalType": "address",
          "name": "learner",
          "type": "address"
        }
      ],
      "name": "subscribe",
      "outputs": [
        {
          "internalType": "uint256",
          "name": "",
          "type": "uint256"
        },
        {
          "internalType": "address",
          "name": "",
          "type": "address"
        }
      ],
      "stateMutability": "nonpayable",
      "type": "function"
    },
    {
      "inputs": [],
      "name": "mintCategories",
      "outputs": [],
      "stateMutability": "nonpayable",
      "type": "function"
    },
    {
      "inputs": [
        {
          "internalType": "string",
          "name": "name",
          "type": "string"
        },
        {
          "internalType": "string",
          "name": "image",
          "type": "string"
        }
      ],
      "name": "createCategory",
      "outputs": [],
      "stateMutability": "nonpayable",
      "type": "function"
    },
    {
      "inputs": [
        {
          "internalType": "uint256",
          "name": "id",
          "type": "uint256"
        },
        {
          "internalType": "uint256",
          "name": "category",
          "type": "uint256"
        },
        {
          "internalType": "uint256",
          "name": "price",
          "type": "uint256"
        },
        {
          "internalType": "string",
          "name": "key",
          "type": "string"
        },
        {
          "internalType": "string",
          "name": "name",
          "type": "string"
        },
        {
          "internalType": "string",
          "name": "description",
          "type": "string"
        },
        {
          "internalType": "string",
          "name": "thumbnail",
          "type": "string"
        },
        {
          "internalType": "string",
          "name": "previewSrc",
          "type": "string"
        },
        {
          "internalType": "bool",
          "name": "certificate",
          "type": "bool"
        },
        {
          "internalType": "bool",
          "name": "publish",
          "type": "bool"
        }
      ],
      "name": "createCourse",
      "outputs": [],
      "stateMutability": "nonpayable",
      "type": "function"
    },
    {
      "inputs": [
        {
          "internalType": "uint256",
          "name": "id",
          "type": "uint256"
        },
        {
          "internalType": "uint256",
          "name": "category",
          "type": "uint256"
        },
        {
          "internalType": "uint256",
          "name": "price",
          "type": "uint256"
        },
        {
          "internalType": "string",
          "name": "name",
          "type": "string"
        },
        {
          "internalType": "string",
          "name": "description",
          "type": "string"
        },
        {
          "internalType": "string",
          "name": "thumbnail",
          "type": "string"
        },
        {
          "internalType": "string",
          "name": "previewSrc",
          "type": "string"
        },
        {
          "internalType": "bool",
          "name": "certificate",
          "type": "bool"
        },
        {
          "internalType": "bool",
          "name": "publish",
          "type": "bool"
        }
      ],
      "name": "updateCourse",
      "outputs": [],
      "stateMutability": "nonpayable",
      "type": "function"
    },
    {
      "inputs": [
        {
          "internalType": "uint256",
          "name": "id",
          "type": "uint256"
        },
        {
          "internalType": "string",
          "name": "title",
          "type": "string"
        },
        {
          "internalType": "string",
          "name": "content",
          "type": "string"
        },
        {
          "internalType": "string",
          "name": "src",
          "type": "string"
        },
        {
          "internalType": "uint256",
          "name": "duration",
          "type": "uint256"
        }
      ],
      "name": "createCourseSection",
      "outputs": [],
      "stateMutability": "nonpayable",
      "type": "function"
    },
    {
      "inputs": [
        {
          "internalType": "uint256",
          "name": "id",
          "type": "uint256"
        },
        {
          "internalType": "string",
          "name": "title",
          "type": "string"
        },
        {
          "internalType": "string",
          "name": "content",
          "type": "string"
        },
        {
          "internalType": "string",
          "name": "src",
          "type": "string"
        },
        {
          "internalType": "uint256",
          "name": "duration",
          "type": "uint256"
        },
        {
          "internalType": "uint256",
          "name": "sectionId",
          "type": "uint256"
        }
      ],
      "name": "updateCourseSection",
      "outputs": [],
      "stateMutability": "nonpayable",
      "type": "function"
    },
    {
      "inputs": [
        {
          "internalType": "uint256",
          "name": "id",
          "type": "uint256"
        },
        {
          "internalType": "address",
          "name": "creator",
          "type": "address"
        },
        {
          "internalType": "address",
          "name": "receiver",
          "type": "address"
        }
      ],
      "name": "tranfersCourse",
      "outputs": [],
      "stateMutability": "nonpayable",
      "type": "function"
    },
    {
      "inputs": [
        {
          "internalType": "uint256",
          "name": "id",
          "type": "uint256"
        }
      ],
      "name": "getEncryptionKeyAsSubscriber",
      "outputs": [
        {
          "internalType": "string",
          "name": "",
          "type": "string"
        }
      ],
      "stateMutability": "view",
      "type": "function"
    },
    {
      "inputs": [
        {
          "internalType": "uint256",
          "name": "id",
          "type": "uint256"
        }
      ],
      "name": "getEncryptionKeyAsCreator",
      "outputs": [
        {
          "internalType": "string",
          "name": "",
          "type": "string"
        }
      ],
      "stateMutability": "view",
      "type": "function"
    },
    {
      "inputs": [
        {
          "internalType": "uint256",
          "name": "id",
          "type": "uint256"
        },
        {
          "internalType": "uint256",
          "name": "sectionId",
          "type": "uint256"
        }
      ],
      "name": "viewSection",
      "outputs": [],
      "stateMutability": "nonpayable",
      "type": "function"
    },
    {
      "inputs": [
        {
          "internalType": "uint256",
          "name": "id",
          "type": "uint256"
        },
        {
          "internalType": "address",
          "name": "owner",
          "type": "address"
        }
      ],
      "name": "unSubscribe",
      "outputs": [
        {
          "internalType": "uint256",
          "name": "",
          "type": "uint256"
        },
        {
          "internalType": "uint256",
          "name": "",
          "type": "uint256"
        },
        {
          "internalType": "address",
          "name": "",
          "type": "address"
        },
        {
          "internalType": "uint256",
          "name": "",
          "type": "uint256"
        },
        {
          "internalType": "uint256",
          "name": "",
          "type": "uint256"
        }
      ],
      "stateMutability": "nonpayable",
      "type": "function"
    },
    {
      "inputs": [
        {
          "internalType": "uint256",
          "name": "id",
          "type": "uint256"
        },
        {
          "internalType": "address",
          "name": "owner",
          "type": "address"
        }
      ],
      "name": "onCourseComplete",
      "outputs": [
        {
          "internalType": "bool",
          "name": "",
          "type": "bool"
        },
        {
          "internalType": "uint256",
          "name": "",
          "type": "uint256"
        }
      ],
      "stateMutability": "view",
      "type": "function"
    }
  ],
  "bytecode": "0x608060405261271060035560006005556000600655600860075534801561002557600080fd5b50600880546001600160a01b031916331790556124cc806100476000396000f3fe608060405234801561001057600080fd5b50600436106101005760003560e01c80638529934b11610097578063c96258e811610066578063c96258e814610306578063cd57831414610319578063f30e6e9b1461032c578063f8e7ef931461037557600080fd5b80638529934b1461022457806396f979d214610237578063af1d7cbd146102e0578063b224b4e9146102f357600080fd5b8063365cfcbf116100d3578063365cfcbf1461018a57806359e6951d146101ce5780637f725cfa146101fe5780637f7d6eba1461021157600080fd5b80630172a3431461010557806331dfcb1f1461013457806334e076d41461015457806335986b2d14610169575b600080fd5b610118610113366004611bcd565b61037d565b6040805192151583526020830191909152015b60405180910390f35b610147610142366004611bf9565b610565565b60405161012b9190611c58565b610167610162366004611d25565b61065e565b005b61017c610177366004611e11565b610819565b60405190815260200161012b565b61019d610198366004611e3b565b61084a565b604080519586526020860194909452928401919091526001600160a01b03166060830152608082015260a00161012b565b6101e16101dc366004611bcd565b6108a1565b604080519283526001600160a01b0390911660208301520161012b565b61016761020c366004611e5d565b610af5565b61016761021f366004611e3b565b610b96565b610167610232366004611f01565b610c35565b610295610245366004611bf9565b60006020819052908152604090208054600182015460028301546003840154600485015460058601546006870154600790970154959694956001600160a01b039094169492939192909160ff1688565b6040805198895260208901979097526001600160a01b03909516958701959095526060860192909252608085015260a084015260c0830191909152151560e08201526101000161012b565b6101476102ee366004611bf9565b610d60565b610167610301366004611f3d565b610d86565b610167610314366004611fa1565b610e24565b6101676103273660046120b3565b61103c565b61033f61033a366004611bcd565b611115565b6040805195865260208601949094526001600160a01b03909216928401929092526060830191909152608082015260a00161012b565b61016761148d565b600080600061038c858561195f565b600086815260026020526040812080549293509091839081106103b1576103b161214d565b60009182526020918290206040805160c08101825260069093029091018054835260018101548385015260028101548383015260038101546001600160a01b031660608401526004810180548351818702810187019094528084529394919360808601939283018282801561044557602002820191906000526020600020905b815481526020019060010190808311610431575b5050505050815260200160058201548152505090508060a0015181608001515110156104de5760405162461bcd60e51b815260206004820152602160248201527f596f7520686176656e277420636f6d706c65746564207468697320636f75727360448201527f650000000000000000000000000000000000000000000000000000000000000060648201526084015b60405180910390fd5b600095865260208681526040968790208751610100810189528154815260018201549281019290925260028101546001600160a01b03168289015260038101546060830181905260048201546080840152600582015460a0840152600682015460c084015260079091015460ff16151560e090920191909152950151941515959350505050565b6000818152602081905260409020600201546060906001600160a01b031633146105c05760405162461bcd60e51b815260206004820152600c60248201526b085d5b985d1a1bdc9a5e995960a21b60448201526064016104d5565b600082815260046020526040902080546105d990612163565b80601f016020809104026020016040519081016040528092919081815260200182805461060590612163565b80156106525780601f1061062757610100808354040283529160200191610652565b820191906000526020600020905b81548152906001019060200180831161063557829003601f168201915b50505050509050919050565b6000898152602081905260409020600201546001600160a01b031633146106b65760405162461bcd60e51b815260206004820152600c60248201526b085d5b985d1a1bdc9a5e995960a21b60448201526064016104d5565b6040518061010001604052808a8152602001898152602001336001600160a01b031681526020018881526020016000808c81526020019081526020016000206004015481526020014281526020016000808c81526020019081526020016000206006015481526020018315158152506000808b8152602001908152602001600020600082015181600001556020820151816001015560408201518160020160006101000a8154816001600160a01b0302191690836001600160a01b03160217905550606082015181600301556080820151816004015560a0820151816005015560c0820151816006015560e08201518160070160006101000a81548160ff0219169083151502179055509050507fa94aa32e169e42f49bacdfc46295bb8be3af3d288419f9ffc94f79cde74e090a8987878b8888338e8a8a426040516108069b9a9998979695949392919061219d565b60405180910390a1505050505050505050565b6001602052816000526040600020818154811061083557600080fd5b90600052602060002001600091509150505481565b6002602052816000526040600020818154811061086657600080fd5b600091825260209091206006909102018054600182015460028301546003840154600590940154929550909350916001600160a01b03169085565b600082815260208181526040808320815161010081018352815480825260018301549482019490945260028201546001600160a01b0316928101929092526003810154606083015260048101546080830152600581015460a0830152600681015460c08301526007015460ff16151560e0820152829182036109655760405162461bcd60e51b815260206004820152600760248201527f216578697374730000000000000000000000000000000000000000000000000060448201526064016104d5565b836001600160a01b031681604001516001600160a01b0316036109ca5760405162461bcd60e51b815260206004820152601c60248201527f2163616e5f7375627363726962655f746f5f6f776e5f636f757273650000000060448201526064016104d5565b6000858152600260208181526040808420815160c080820184528b8252428286019081526060898101519584019586526001600160a01b038d811682860190815260808601838152948c015160a0870152865460018082018955978c529a89902086516006909c02019a8b559251958a0195909555945196880196909655945160038701805473ffffffffffffffffffffffffffffffffffffffff1916919093161790915592518051919492610a8892600485019290910190611b30565b5060a09190910151600590910155604080518781526001600160a01b038716602082015260018183015290517ffc3ced06dca988f1666d0ec0f7c1170397e5e5876cfc381a64fbff0f322790849181900360600190a1816060015182604001519350935050509250929050565b6000868152602081905260409020600201546001600160a01b03163314610b4d5760405162461bcd60e51b815260206004820152600c60248201526b085d5b985d1a1bdc9a5e995960a21b60448201526064016104d5565b7f2192f72c75220c2c61bb3cd95e52bce92f8961f415f3bfe834a9bc2ca23ec863868686868686604051610b8696959493929190612236565b60405180910390a1505050505050565b6000610ba2833361195f565b600084815260026020526040902080549192509082908110610bc657610bc661214d565b6000918252602080832060046006909302019190910180546001810182559083529120018290556040517fb3ffbf473064ef97c9dfff7d9cb6d54b11eb91726fdb6e7804931583f9b739a590610c289085908590918252602082015260400190565b60405180910390a1505050565b6000838152602081905260409020600201546001600160a01b03838116911614610c8f5760405162461bcd60e51b815260206004820152600b60248201526a08585d5d1a1bdc9a5e995960aa1b60448201526064016104d5565b600083815260208181526040808320600201805473ffffffffffffffffffffffffffffffffffffffff19166001600160a01b03868116919091179091558516835260019091529020805484908110610ce957610ce961214d565b60009182526020808320919091018290556001600160a01b03838116808452600180845260408086208054928301815586529484902001879055835187815291861692820192909252918201527f2fd7dc3aeb254842908e4dc655cdfd549a0d3825eaf02e31cd71b1c3df1c751a90606001610c28565b6060610d6c823361195f565b50600082815260046020526040902080546105d990612163565b6008546001600160a01b03163314610dce5760405162461bcd60e51b815260206004820152600b60248201526a08585d5d1a1bdc9a5e995960aa1b60448201526064016104d5565b60058054906000610dde836122a1565b91905055507f2a65d0fe76508fb4e604d4804927dce75b70f82e64a2025e3bffb2fc003418506005548383604051610e18939291906122ba565b60405180910390a15050565b60008a81526020819052604090205415610e805760405162461bcd60e51b815260206004820152600660248201527f657869737473000000000000000000000000000000000000000000000000000060448201526064016104d5565b6040518061010001604052808b81526020018a8152602001336001600160a01b031681526020018981526020014281526020014281526020016000808d81526020019081526020016000206006015481526020018315158152506000808c8152602001908152602001600020600082015181600001556020820151816001015560408201518160020160006101000a8154816001600160a01b0302191690836001600160a01b03160217905550606082015181600301556080820151816004015560a0820151816005015560c0820151816006015560e08201518160070160006101000a81548160ff02191690831515021790555090505086600460008c81526020019081526020016000209081610f98919061233e565b5060016000336001600160a01b03166001600160a01b031681526020019081526020016000208a90806001815401808255809150506001900390600052602060002001600090919091909150557fa94aa32e169e42f49bacdfc46295bb8be3af3d288419f9ffc94f79cde74e090a8a87878c8888338f8a8a426040516110289b9a9998979695949392919061219d565b60405180910390a150505050505050505050565b6000858152602081905260409020600201546001600160a01b031633146110945760405162461bcd60e51b815260206004820152600c60248201526b085d5b985d1a1bdc9a5e995960a21b60448201526064016104d5565b60008581526020819052604081206006018054916110b1836122a1565b9091555050600680549060006110c6836122a1565b91905055507f2192f72c75220c2c61bb3cd95e52bce92f8961f415f3bfe834a9bc2ca23ec863858585858560065460405161110696959493929190612236565b60405180910390a15050505050565b600080600080600080611128888861195f565b6000898152600260205260408120805492935090918390811061114d5761114d61214d565b60009182526020918290206040805160c08101825260069093029091018054835260018101548385015260028101548383015260038101546001600160a01b03166060840152600481018054835181870281018701909452808452939491936080860193928301828280156111e157602002820191906000526020600020905b8154815260200190600101908083116111cd575b505050918352505060059182015460209182015260008c81528082526040908190208151610100810183528154815260018201549381019390935260028101546001600160a01b03169183019190915260038101546060830152600481015460808301529182015460a0820152600682015460c082015260079091015460ff16151560e082015290915061127842621275006123fe565b8260200151106112ca5760405162461bcd60e51b815260206004820152600760248201527f3e327765656b730000000000000000000000000000000000000000000000000060448201526064016104d5565b60008260800151518360a001516112e19190612411565b9050600081116113335760405162461bcd60e51b815260206004820152601c60248201527f21796f755f63616e745f726566756e645f746869735f636f757273650000000060448201526064016104d5565b60008b81526002602052604090208054859081106113535761135361214d565b600091825260208220600690910201818155600181018290556002810182905560038101805473ffffffffffffffffffffffffffffffffffffffff19169055906113a06004830182611b7b565b60058201600090555050600083604001518460a00151836113c19190612424565b6113cb9190612446565b905060008460400151826113df9190612411565b905060008082156114125760646007546113f99190612424565b6114039084612446565b915061140f8284612411565b90505b7ffc3ced06dca988f1666d0ec0f7c1170397e5e5876cfc381a64fbff0f322790848f8f6000604051611462939291909283526001600160a01b039190911660208301521515604082015260600190565b60405180910390a16040958601519690950151929e909d50949b509099509197509195505050505050565b6008546001600160a01b031633146114d55760405162461bcd60e51b815260206004820152600b60248201526a08585d5d1a1bdc9a5e995960aa1b60448201526064016104d5565b6115496040518060400160405280600e81526020017f57656220446576656c6f70656e740000000000000000000000000000000000008152506040518060400160405280601481526020017f7765622d646576656c6f706d656e742e77656270000000000000000000000000815250610d86565b6115bd6040518060400160405280600681526020017f47616d696e6700000000000000000000000000000000000000000000000000008152506040518060400160405280600b81526020017f67616d696e672e77656270000000000000000000000000000000000000000000815250610d86565b6116316040518060400160405280600781526020017f436f6f6b696e67000000000000000000000000000000000000000000000000008152506040518060400160405280600c81526020017f636f6f6b696e672e776562700000000000000000000000000000000000000000815250610d86565b6116a56040518060400160405280600981526020017f416e696d6174696f6e00000000000000000000000000000000000000000000008152506040518060400160405280600e81526020017f616e696d6174696f6e2e77656270000000000000000000000000000000000000815250610d86565b6117196040518060400160405280600981526020017f4d61726b6574696e6700000000000000000000000000000000000000000000008152506040518060400160405280600e81526020017f6d61726b6574696e672e77656270000000000000000000000000000000000000815250610d86565b61178d6040518060400160405280600c81526020017f4461746120536369656e636500000000000000000000000000000000000000008152506040518060400160405280601181526020017f646174612d736369656e63652e77656270000000000000000000000000000000815250610d86565b6118016040518060400160405280600b81526020017f50686f746f6772617068790000000000000000000000000000000000000000008152506040518060400160405280601081526020017f70686f746f6772617068792e7765627000000000000000000000000000000000815250610d86565b6118756040518060400160405280600581526020017f4d757369630000000000000000000000000000000000000000000000000000008152506040518060400160405280600a81526020017f6d757369632e7765627000000000000000000000000000000000000000000000815250610d86565b6118e96040518060400160405280600881526020017f537065616b696e670000000000000000000000000000000000000000000000008152506040518060400160405280600d81526020017f737065616b696e672e7765627000000000000000000000000000000000000000815250610d86565b61195d6040518060400160405280600f81526020017f55492f55582044657369676e696e6700000000000000000000000000000000008152506040518060400160405280600a81526020017f75692d75782e7765627000000000000000000000000000000000000000000000815250610d86565b565b600082815260026020908152604080832080548251818502810185019093528083528493849084015b82821015611a455760008481526020908190206040805160c081018252600686029092018054835260018101548385015260028101548383015260038101546001600160a01b0316606084015260048101805483518187028101870190945280845293949193608086019392830182828015611a2357602002820191906000526020600020905b815481526020019060010190808311611a0f575b5050505050815260200160058201548152505081526020019060010190611988565b5050505090506000600019905060005b8251811015611aae57846001600160a01b0316838281518110611a7a57611a7a61214d565b6020026020010151606001516001600160a01b031603611a9c57809150611aae565b80611aa681612465565b915050611a55565b506000811215611b265760405162461bcd60e51b815260206004820152602660248201527f21796f755f6172655f6e6f745f737562736372696265645f746f5f746869735f60448201527f636f75727365000000000000000000000000000000000000000000000000000060648201526084016104d5565b9150505b92915050565b828054828255906000526020600020908101928215611b6b579160200282015b82811115611b6b578251825591602001919060010190611b50565b50611b77929150611b9c565b5090565b5080546000825590600052602060002090810190611b999190611b9c565b50565b5b80821115611b775760008155600101611b9d565b80356001600160a01b0381168114611bc857600080fd5b919050565b60008060408385031215611be057600080fd5b82359150611bf060208401611bb1565b90509250929050565b600060208284031215611c0b57600080fd5b5035919050565b6000815180845260005b81811015611c3857602081850181015186830182015201611c1c565b506000602082860101526020601f19601f83011685010191505092915050565b602081526000611c6b6020830184611c12565b9392505050565b634e487b7160e01b600052604160045260246000fd5b600082601f830112611c9957600080fd5b813567ffffffffffffffff80821115611cb457611cb4611c72565b604051601f8301601f19908116603f01168101908282118183101715611cdc57611cdc611c72565b81604052838152866020858801011115611cf557600080fd5b836020870160208301376000602085830101528094505050505092915050565b80358015158114611bc857600080fd5b60008060008060008060008060006101208a8c031215611d4457600080fd5b8935985060208a0135975060408a0135965060608a013567ffffffffffffffff80821115611d7157600080fd5b611d7d8d838e01611c88565b975060808c0135915080821115611d9357600080fd5b611d9f8d838e01611c88565b965060a08c0135915080821115611db557600080fd5b611dc18d838e01611c88565b955060c08c0135915080821115611dd757600080fd5b50611de48c828d01611c88565b935050611df360e08b01611d15565b9150611e026101008b01611d15565b90509295985092959850929598565b60008060408385031215611e2457600080fd5b611e2d83611bb1565b946020939093013593505050565b60008060408385031215611e4e57600080fd5b50508035926020909101359150565b60008060008060008060c08789031215611e7657600080fd5b86359550602087013567ffffffffffffffff80821115611e9557600080fd5b611ea18a838b01611c88565b96506040890135915080821115611eb757600080fd5b611ec38a838b01611c88565b95506060890135915080821115611ed957600080fd5b50611ee689828a01611c88565b9350506080870135915060a087013590509295509295509295565b600080600060608486031215611f1657600080fd5b83359250611f2660208501611bb1565b9150611f3460408501611bb1565b90509250925092565b60008060408385031215611f5057600080fd5b823567ffffffffffffffff80821115611f6857600080fd5b611f7486838701611c88565b93506020850135915080821115611f8a57600080fd5b50611f9785828601611c88565b9150509250929050565b6000806000806000806000806000806101408b8d031215611fc157600080fd5b8a35995060208b0135985060408b0135975060608b013567ffffffffffffffff80821115611fee57600080fd5b611ffa8e838f01611c88565b985060808d013591508082111561201057600080fd5b61201c8e838f01611c88565b975060a08d013591508082111561203257600080fd5b61203e8e838f01611c88565b965060c08d013591508082111561205457600080fd5b6120608e838f01611c88565b955060e08d013591508082111561207657600080fd5b506120838d828e01611c88565b9350506120936101008c01611d15565b91506120a26101208c01611d15565b90509295989b9194979a5092959850565b600080600080600060a086880312156120cb57600080fd5b85359450602086013567ffffffffffffffff808211156120ea57600080fd5b6120f689838a01611c88565b9550604088013591508082111561210c57600080fd5b61211889838a01611c88565b9450606088013591508082111561212e57600080fd5b5061213b88828901611c88565b95989497509295608001359392505050565b634e487b7160e01b600052603260045260246000fd5b600181811c9082168061217757607f821691505b60208210810361219757634e487b7160e01b600052602260045260246000fd5b50919050565b60006101608d83528060208401526121b78184018e611c12565b905082810360408401526121cb818d611c12565b90508a606084015282810360808401526121e5818b611c12565b905082810360a08401526121f9818a611c12565b6001600160a01b039890981660c0840152505060e08101949094529115156101008401521515610120830152610140909101529695505050505050565b86815260c06020820152600061224f60c0830188611c12565b82810360408401526122618188611c12565b905082810360608401526122758187611c12565b6080840195909552505060a00152949350505050565b634e487b7160e01b600052601160045260246000fd5b6000600182016122b3576122b361228b565b5060010190565b8381526060602082015260006122d36060830185611c12565b82810360408401526122e58185611c12565b9695505050505050565b601f82111561233957600081815260208120601f850160051c810160208610156123165750805b601f850160051c820191505b8181101561233557828155600101612322565b5050505b505050565b815167ffffffffffffffff81111561235857612358611c72565b61236c816123668454612163565b846122ef565b602080601f8311600181146123a157600084156123895750858301515b600019600386901b1c1916600185901b178555612335565b600085815260208120601f198616915b828110156123d0578886015182559484019460019091019084016123b1565b50858210156123ee5787850151600019600388901b60f8161c191681555b5050505050600190811b01905550565b80820180821115611b2a57611b2a61228b565b81810381811115611b2a57611b2a61228b565b60008261244157634e487b7160e01b600052601260045260246000fd5b500490565b60008160001904831182151516156124605761246061228b565b500290565b60007f7fffffffffffffffffffffffffffffffffffffffffffffffffffffffffffffff82036122b3576122b361228b56fea264697066735822122097bf7982d195cd47e9962d6fcdecdcf542d5b24e3a6fd155054925879c2cf7fe64736f6c63430008100033",
  "immutableReferences": {},
  "source": "// SPDX-License-Identifier: GPL-3.0\npragma solidity >=0.7.0 <0.9.0;\n\nimport {Models} from \"./base/Models.sol\";\n\ncontract BdlCourse {\n    /* all ecosystem courses */\n    mapping(uint => Models.Course) public courses;\n\n    /* creator => course id */\n    mapping(address => uint[]) public createdCourses;\n\n    /* holds all course subscriptions */\n    mapping(uint => Models.Subscription[]) public subscriptions;\n\n    /* 2 weeks */\n    uint private refundableDuration = 10000;\n\n    /* encryptions keys to premium contents */\n    mapping(uint => string) private encryptionKeys;\n\n    uint private categoryCount = 0;\n    uint private sectionsCount = 0;\n\n    uint private salesFee = 8; // eight percent\n\n    address private deployer;\n\n    constructor() {\n        deployer = msg.sender;\n    }\n\n    // == learner related functions == //\n\n    /* function to subscribe to a course */\n    function subscribe(uint id, address learner)\n        external\n        returns (uint256, address)\n    {\n        Models.Course memory course = courses[id];\n\n        require(course.id != 0, \"!exists\");\n        require(course.creator != learner, \"!can_subscribe_to_own_course\");\n\n        uint[] memory viewed;\n\n        subscriptions[id].push(\n            Models.Subscription(\n                id,\n                block.timestamp,\n                course.price,\n                learner,\n                viewed,\n                course.sections\n            )\n        );\n\n        emit Subscription(id, learner, true);\n        return (course.price, course.creator);\n    }\n\n    // == creator related functions == //\n\n    // testing purpose\n    function mintCategories() public onlyOwner {\n        createCategory(\"Web Developent\", \"web-development.webp\");\n        createCategory(\"Gaming\", \"gaming.webp\");\n        createCategory(\"Cooking\", \"cooking.webp\");\n        createCategory(\"Animation\", \"animation.webp\");\n        createCategory(\"Marketing\", \"marketing.webp\");\n        createCategory(\"Data Science\", \"data-science.webp\");\n        createCategory(\"Photography\", \"photography.webp\");\n        createCategory(\"Music\", \"music.webp\");\n        createCategory(\"Speaking\", \"speaking.webp\");\n        createCategory(\"UI/UX Designing\", \"ui-ux.webp\");\n    }\n\n    function createCategory(string memory name, string memory image)\n        public\n        onlyOwner\n    {\n        categoryCount++;\n        emit Category(categoryCount, name, image);\n    }\n\n    /* create a new course */\n    function createCourse(\n        uint id,\n        uint category,\n        uint256 price,\n        string memory key,\n        /* course metadata */\n        string memory name,\n        string memory description,\n        string memory thumbnail,\n        string memory previewSrc,\n        bool certificate,\n        bool publish\n    ) external {\n        require(courses[id].id == 0, \"exists\");\n\n        courses[id] = Models.Course(\n            id,\n            category,\n            msg.sender,\n            price,\n            block.timestamp,\n            block.timestamp,\n            courses[id].sections,\n            certificate\n        );\n\n        // creates course encryption key\n        encryptionKeys[id] = key;\n\n        // assign course to creator\n        createdCourses[msg.sender].push(id);\n\n        emit Course(\n            id,\n            name,\n            description,\n            category,\n            thumbnail,\n            previewSrc,\n            msg.sender,\n            price,\n            certificate,\n            publish,\n            block.timestamp\n        );\n    }\n\n    /* updates existing course */\n    function updateCourse(\n        uint id,\n        uint category,\n        uint256 price,\n        /* course metadata */\n        string memory name,\n        string memory description,\n        string memory thumbnail,\n        string memory previewSrc,\n        bool certificate,\n        bool publish\n    ) external {\n        require(courses[id].creator == msg.sender, \"!unathorized\");\n\n        courses[id] = Models.Course(\n            id,\n            category,\n            msg.sender,\n            price,\n            courses[id].createdAt,\n            block.timestamp,\n            courses[id].sections,\n            certificate\n        );\n\n        emit Course(\n            id,\n            name,\n            description,\n            category,\n            thumbnail,\n            previewSrc,\n            msg.sender,\n            price,\n            certificate,\n            publish,\n            block.timestamp\n        );\n    }\n\n    /* creates a course section */\n    function createCourseSection(\n        uint id,\n        string memory title,\n        string memory content,\n        string memory src,\n        uint duration\n    ) public {\n        require(courses[id].creator == msg.sender, \"!unathorized\");\n        courses[id].sections++;\n        sectionsCount++;\n        emit CourseSection(id, title, content, src, duration, sectionsCount);\n    }\n\n    /* updates a course section */\n    function updateCourseSection(\n        uint id,\n        string memory title,\n        string memory content,\n        string memory src,\n        uint duration,\n        uint sectionId\n    ) public {\n        require(courses[id].creator == msg.sender, \"!unathorized\");\n        emit CourseSection(id, title, content, src, duration, sectionId);\n    }\n\n    /* transfer course onwership */\n    function tranfersCourse(\n        uint id,\n        address creator,\n        address receiver\n    ) external {\n        require(courses[id].creator == creator, \"!authorized\");\n        courses[id].creator = receiver;\n\n        delete createdCourses[creator][id];\n        createdCourses[receiver].push(id);\n\n        emit CourseTransfer(id, creator, receiver);\n    }\n\n    /* get encryption key as subscriber */\n    function getEncryptionKeyAsSubscriber(uint id)\n        public\n        view\n        returns (string memory)\n    {\n        // verifies user has a active subscription to course\n        getSubscriptionIndex(id, msg.sender);\n        return encryptionKeys[id];\n    }\n\n    /* get encryption key as creator */\n    function getEncryptionKeyAsCreator(uint id)\n        public\n        view\n        returns (string memory)\n    {\n        require(courses[id].creator == msg.sender, \"!unathorized\");\n        return encryptionKeys[id];\n    }\n\n    /* view section */\n    function viewSection(uint id, uint sectionId) public {\n        int index = getSubscriptionIndex(id, msg.sender);\n        subscriptions[id][uint(index)].viewed.push(sectionId);\n        emit SectionViewed(id, sectionId);\n    }\n\n    /* unsubscribe/refund from a course */\n    function unSubscribe(uint id, address owner)\n        external\n        returns (\n            uint256,\n            uint256,\n            address,\n            uint256,\n            uint256\n        )\n    {\n        int index = getSubscriptionIndex(id, owner);\n\n        Models.Subscription memory subscription = subscriptions[id][\n            uint(index)\n        ];\n        Models.Course memory course = courses[id];\n\n        require(subscription.time < (block.timestamp + 2 weeks), \">2weeks\");\n\n        uint payableSections = (subscription.sections -\n            subscription.viewed.length);\n\n        require(payableSections > 0, \"!you_cant_refund_this_course\");\n\n        /* user has unsubscribe */\n        delete subscriptions[id][uint(index)];\n\n        uint256 payableAmount = ((payableSections / subscription.sections) *\n            subscription.price);\n\n        uint256 netEarnings = (payableAmount - subscription.price);\n\n        uint256 earnings;\n        uint256 platformEarnings;\n        if (netEarnings > 0) {\n            earnings = (netEarnings * (salesFee / 100));\n            platformEarnings = netEarnings - earnings;\n        }\n\n        emit Subscription(id, owner, false);\n\n        return (\n            payableAmount,\n            earnings,\n            course.creator,\n            subscription.price,\n            platformEarnings\n        );\n    }\n\n    /* mint reward and certificate for user */\n    function onCourseComplete(uint id, address owner)\n        external\n        view\n        returns (bool, uint256)\n    {\n        // verifies user has subscribe to course\n        int index = getSubscriptionIndex(id, owner);\n\n        Models.Subscription memory subscription = subscriptions[id][\n            uint(index)\n        ];\n\n        require(\n            subscription.viewed.length >= subscription.sections,\n            \"You haven't completed this course\"\n        );\n\n        Models.Course memory course = courses[id];\n\n        /* returns course is premium or free */\n        return ((course.price > 0), subscription.price);\n    }\n\n    function getSubscriptionIndex(uint courseId, address owner)\n        private\n        view\n        returns (int)\n    {\n        Models.Subscription[] memory _subscriptions = subscriptions[courseId];\n        int _index = -1;\n\n        for (int index = 0; uint(index) < _subscriptions.length; index++) {\n            if (_subscriptions[uint(index)].owner == owner) {\n                _index = index;\n                break;\n            }\n        }\n\n        require(_index >= 0, \"!you_are_not_subscribed_to_this_course\");\n        return _index;\n    }\n\n    // == events == //\n    event Subscription(uint courseId, address learner, bool status);\n    event CourseTransfer(uint id, address creator, address receiver);\n    event Category(uint id, string name, string image);\n    event Course(\n        uint id,\n        string name,\n        string description,\n        uint category,\n        string thumbnail,\n        string previewSrc,\n        address creator,\n        uint256 price,\n        bool certificate,\n        bool publish,\n        uint updatedAt\n    );\n    event CourseSection(\n        uint id,\n        string title,\n        string content,\n        string src,\n        uint duration,\n        uint sectionId\n    );\n    event SectionViewed(uint id, uint sectionId);\n\n    // == modifiers == //\n    modifier onlyOwner() {\n        require(msg.sender == deployer, \"!authorized\");\n        _;\n    }\n}\n",
  "sourcePath": "C:\\Users\\Arogundade Ibrahim\\Documents\\web3\\Buidl\\contracts\\BdlCourse.sol",
  "compiler": {
    "name": "solc",
    "version": "0.8.16+commit.07a7930e.Emscripten.clang"
  },
  "schemaVersion": "3.4.10",
  "updatedAt": "2022-11-02T18:36:51.364Z",
  "devdoc": {
    "kind": "dev",
    "methods": {},
    "version": 1
  },
  "userdoc": {
    "kind": "user",
    "methods": {},
    "version": 1
  }
}