{
  "contractName": "BdlCourse",
  "abi": [
    {
      "inputs": [],
      "stateMutability": "nonpayable",
      "type": "constructor"
    },
    {
      "anonymous": false,
      "inputs": [
        {
          "indexed": false,
          "internalType": "uint256",
          "name": "id",
          "type": "uint256"
        },
        {
          "indexed": false,
          "internalType": "string",
          "name": "name",
          "type": "string"
        },
        {
          "indexed": false,
          "internalType": "string",
          "name": "image",
          "type": "string"
        }
      ],
      "name": "Category",
      "type": "event"
    },
    {
      "anonymous": false,
      "inputs": [
        {
          "indexed": false,
          "internalType": "uint256",
          "name": "id",
          "type": "uint256"
        },
        {
          "indexed": false,
          "internalType": "string",
          "name": "name",
          "type": "string"
        },
        {
          "indexed": false,
          "internalType": "string",
          "name": "description",
          "type": "string"
        },
        {
          "indexed": false,
          "internalType": "uint256",
          "name": "category",
          "type": "uint256"
        },
        {
          "indexed": false,
          "internalType": "string",
          "name": "thumbnail",
          "type": "string"
        },
        {
          "indexed": false,
          "internalType": "string",
          "name": "previewSrc",
          "type": "string"
        },
        {
          "indexed": false,
          "internalType": "address",
          "name": "creator",
          "type": "address"
        },
        {
          "indexed": false,
          "internalType": "uint256",
          "name": "price",
          "type": "uint256"
        },
        {
          "indexed": false,
          "internalType": "uint256",
          "name": "updatedAt",
          "type": "uint256"
        }
      ],
      "name": "Course",
      "type": "event"
    },
    {
      "anonymous": false,
      "inputs": [
        {
          "indexed": false,
          "internalType": "uint256",
          "name": "id",
          "type": "uint256"
        },
        {
          "indexed": false,
          "internalType": "string",
          "name": "title",
          "type": "string"
        },
        {
          "indexed": false,
          "internalType": "string",
          "name": "content",
          "type": "string"
        },
        {
          "indexed": false,
          "internalType": "string",
          "name": "src",
          "type": "string"
        }
      ],
      "name": "CourseSection",
      "type": "event"
    },
    {
      "anonymous": false,
      "inputs": [
        {
          "indexed": false,
          "internalType": "uint256",
          "name": "id",
          "type": "uint256"
        },
        {
          "indexed": false,
          "internalType": "address",
          "name": "creator",
          "type": "address"
        },
        {
          "indexed": false,
          "internalType": "address",
          "name": "receiver",
          "type": "address"
        }
      ],
      "name": "CourseTransfer",
      "type": "event"
    },
    {
      "anonymous": false,
      "inputs": [
        {
          "indexed": false,
          "internalType": "uint256",
          "name": "id",
          "type": "uint256"
        },
        {
          "indexed": false,
          "internalType": "uint256",
          "name": "sectionIndex",
          "type": "uint256"
        }
      ],
      "name": "SectionViewed",
      "type": "event"
    },
    {
      "anonymous": false,
      "inputs": [
        {
          "indexed": false,
          "internalType": "uint256",
          "name": "courseId",
          "type": "uint256"
        },
        {
          "indexed": false,
          "internalType": "address",
          "name": "learner",
          "type": "address"
        },
        {
          "indexed": false,
          "internalType": "bool",
          "name": "status",
          "type": "bool"
        }
      ],
      "name": "Subscription",
      "type": "event"
    },
    {
      "inputs": [
        {
          "internalType": "uint256",
          "name": "",
          "type": "uint256"
        }
      ],
      "name": "courses",
      "outputs": [
        {
          "internalType": "uint256",
          "name": "id",
          "type": "uint256"
        },
        {
          "internalType": "uint256",
          "name": "category",
          "type": "uint256"
        },
        {
          "internalType": "address",
          "name": "creator",
          "type": "address"
        },
        {
          "internalType": "uint256",
          "name": "price",
          "type": "uint256"
        },
        {
          "internalType": "uint256",
          "name": "createdAt",
          "type": "uint256"
        },
        {
          "internalType": "uint256",
          "name": "updatedAt",
          "type": "uint256"
        },
        {
          "internalType": "uint256",
          "name": "sections",
          "type": "uint256"
        }
      ],
      "stateMutability": "view",
      "type": "function"
    },
    {
      "inputs": [
        {
          "internalType": "address",
          "name": "",
          "type": "address"
        },
        {
          "internalType": "uint256",
          "name": "",
          "type": "uint256"
        }
      ],
      "name": "createdCourses",
      "outputs": [
        {
          "internalType": "uint256",
          "name": "",
          "type": "uint256"
        }
      ],
      "stateMutability": "view",
      "type": "function"
    },
    {
      "inputs": [
        {
          "internalType": "address",
          "name": "",
          "type": "address"
        },
        {
          "internalType": "uint256",
          "name": "",
          "type": "uint256"
        }
      ],
      "name": "subscribeds",
      "outputs": [
        {
          "internalType": "uint256",
          "name": "",
          "type": "uint256"
        }
      ],
      "stateMutability": "view",
      "type": "function"
    },
    {
      "inputs": [
        {
          "internalType": "uint256",
          "name": "",
          "type": "uint256"
        },
        {
          "internalType": "uint256",
          "name": "",
          "type": "uint256"
        }
      ],
      "name": "subscriptions",
      "outputs": [
        {
          "internalType": "uint256",
          "name": "course",
          "type": "uint256"
        },
        {
          "internalType": "uint256",
          "name": "time",
          "type": "uint256"
        },
        {
          "internalType": "uint256",
          "name": "price",
          "type": "uint256"
        },
        {
          "internalType": "address",
          "name": "owner",
          "type": "address"
        },
        {
          "internalType": "uint256",
          "name": "sections",
          "type": "uint256"
        }
      ],
      "stateMutability": "view",
      "type": "function"
    },
    {
      "inputs": [
        {
          "internalType": "uint256",
          "name": "id",
          "type": "uint256"
        },
        {
          "internalType": "address",
          "name": "learner",
          "type": "address"
        }
      ],
      "name": "subscribe",
      "outputs": [
        {
          "internalType": "uint256",
          "name": "",
          "type": "uint256"
        },
        {
          "internalType": "address",
          "name": "",
          "type": "address"
        }
      ],
      "stateMutability": "nonpayable",
      "type": "function"
    },
    {
      "inputs": [
        {
          "internalType": "uint256",
          "name": "id",
          "type": "uint256"
        },
        {
          "internalType": "uint256",
          "name": "sId",
          "type": "uint256"
        },
        {
          "internalType": "address",
          "name": "learner",
          "type": "address"
        }
      ],
      "name": "unSubscribe",
      "outputs": [
        {
          "internalType": "uint256",
          "name": "",
          "type": "uint256"
        },
        {
          "internalType": "address",
          "name": "",
          "type": "address"
        },
        {
          "internalType": "uint256",
          "name": "",
          "type": "uint256"
        }
      ],
      "stateMutability": "nonpayable",
      "type": "function"
    },
    {
      "inputs": [],
      "name": "mintCategories",
      "outputs": [],
      "stateMutability": "nonpayable",
      "type": "function"
    },
    {
      "inputs": [
        {
          "internalType": "string",
          "name": "name",
          "type": "string"
        },
        {
          "internalType": "string",
          "name": "image",
          "type": "string"
        }
      ],
      "name": "createCategory",
      "outputs": [],
      "stateMutability": "nonpayable",
      "type": "function"
    },
    {
      "inputs": [
        {
          "internalType": "uint256",
          "name": "id",
          "type": "uint256"
        },
        {
          "internalType": "uint256",
          "name": "category",
          "type": "uint256"
        },
        {
          "internalType": "uint256",
          "name": "price",
          "type": "uint256"
        },
        {
          "internalType": "string",
          "name": "name",
          "type": "string"
        },
        {
          "internalType": "string",
          "name": "description",
          "type": "string"
        },
        {
          "internalType": "string",
          "name": "thumbnail",
          "type": "string"
        },
        {
          "internalType": "string",
          "name": "previewSrc",
          "type": "string"
        }
      ],
      "name": "createCourse",
      "outputs": [],
      "stateMutability": "nonpayable",
      "type": "function"
    },
    {
      "inputs": [
        {
          "internalType": "uint256",
          "name": "id",
          "type": "uint256"
        },
        {
          "internalType": "uint256",
          "name": "category",
          "type": "uint256"
        },
        {
          "internalType": "uint256",
          "name": "price",
          "type": "uint256"
        },
        {
          "internalType": "string",
          "name": "name",
          "type": "string"
        },
        {
          "internalType": "string",
          "name": "description",
          "type": "string"
        },
        {
          "internalType": "string",
          "name": "thumbnail",
          "type": "string"
        },
        {
          "internalType": "string",
          "name": "previewSrc",
          "type": "string"
        }
      ],
      "name": "updateCourse",
      "outputs": [],
      "stateMutability": "nonpayable",
      "type": "function"
    },
    {
      "inputs": [
        {
          "internalType": "uint256",
          "name": "id",
          "type": "uint256"
        },
        {
          "internalType": "string",
          "name": "title",
          "type": "string"
        },
        {
          "internalType": "string",
          "name": "content",
          "type": "string"
        },
        {
          "internalType": "string",
          "name": "src",
          "type": "string"
        }
      ],
      "name": "createCourseSection",
      "outputs": [],
      "stateMutability": "nonpayable",
      "type": "function"
    },
    {
      "inputs": [
        {
          "internalType": "uint256",
          "name": "id",
          "type": "uint256"
        },
        {
          "internalType": "address",
          "name": "creator",
          "type": "address"
        },
        {
          "internalType": "address",
          "name": "receiver",
          "type": "address"
        }
      ],
      "name": "tranfersCourse",
      "outputs": [],
      "stateMutability": "nonpayable",
      "type": "function"
    },
    {
      "inputs": [
        {
          "internalType": "uint256",
          "name": "id",
          "type": "uint256"
        },
        {
          "internalType": "uint256",
          "name": "sectionIndex",
          "type": "uint256"
        }
      ],
      "name": "viewSection",
      "outputs": [],
      "stateMutability": "nonpayable",
      "type": "function"
    },
    {
      "inputs": [
        {
          "internalType": "uint256",
          "name": "id",
          "type": "uint256"
        },
        {
          "internalType": "address",
          "name": "owner",
          "type": "address"
        }
      ],
      "name": "refund",
      "outputs": [
        {
          "internalType": "uint256",
          "name": "",
          "type": "uint256"
        },
        {
          "internalType": "uint256",
          "name": "",
          "type": "uint256"
        },
        {
          "internalType": "address",
          "name": "",
          "type": "address"
        },
        {
          "internalType": "uint256",
          "name": "",
          "type": "uint256"
        }
      ],
      "stateMutability": "view",
      "type": "function"
    }
  ],
  "bytecode": "0x60806040526127106004556000600555600860065534801561002057600080fd5b50600780546001600160a01b03191633179055611f01806100426000396000f3fe608060405234801561001057600080fd5b50600436106100ea5760003560e01c806396f979d21161008c578063c856e7ee11610066578063c856e7ee146102c4578063cc7a56a0146102d7578063ed939fa91461030d578063f8e7ef931461032057600080fd5b806396f979d2146102065780639a7eb1c91461029e578063b224b4e9146102b157600080fd5b806367ebbe8b116100c857806367ebbe8b146101895780637ad226dc1461019e5780637f7d6eba146101e05780638529934b146101f357600080fd5b806335986b2d146100ef578063365cfcbf1461011557806359e6951d14610159575b600080fd5b6101026100fd366004611945565b610328565b6040519081526020015b60405180910390f35b61012861012336600461196f565b610359565b604080519586526020860194909452928401919091526001600160a01b03166060830152608082015260a00161010c565b61016c610167366004611991565b6103b0565b604080519283526001600160a01b0390911660208301520161010c565b61019c610197366004611a60565b61061f565b005b6101b16101ac366004611991565b6106ed565b60405161010c949392919093845260208401929092526001600160a01b03166040830152606082015260800190565b61019c6101ee36600461196f565b6108be565b61019c610201366004611af2565b61095d565b61025b610214366004611b2e565b6000602081905290815260409020805460018201546002830154600384015460048501546005860154600690960154949593946001600160a01b0390931693919290919087565b6040805197885260208801969096526001600160a01b03909416948601949094526060850191909152608084015260a083019190915260c082015260e00161010c565b61019c6102ac366004611b47565b610a88565b61019c6102bf366004611c11565b610c4f565b6101026102d2366004611945565b610ced565b6102ea6102e5366004611c75565b610d09565b604080519384526001600160a01b0390921660208401529082015260600161010c565b61019c61031b366004611b47565b611079565b61019c611205565b6001602052816000526040600020818154811061034457600080fd5b90600052602060002001600091509150505481565b6002602052816000526040600020818154811061037557600080fd5b600091825260209091206006909102018054600182015460028301546003840154600590940154929550909350916001600160a01b03169085565b600082815260208181526040808320815160e081018352815480825260018301549482019490945260028201546001600160a01b0316928101929092526003810154606083015260048101546080830152600581015460a08301526006015460c0820152829182036104695760405162461bcd60e51b815260206004820152600760248201527f216578697374730000000000000000000000000000000000000000000000000060448201526064015b60405180910390fd5b836001600160a01b031681604001516001600160a01b0316036104ce5760405162461bcd60e51b815260206004820152601c60248201527f2163616e5f7375627363726962655f746f5f6f776e5f636f75727365000000006044820152606401610460565b6000858152600260208181526040808420815160c080820184528b8252428286019081526060898101519584019586526001600160a01b038d811682860190815260808601838152948c015160a0870152865460018082018955978c529a89902086516006909c02019a8b559251958a0195909555945196880196909655945160038701805473ffffffffffffffffffffffffffffffffffffffff191691909316179091559251805191949261058c926004850192909101906118a8565b5060a091909101516005909101556001600160a01b0385166000818152600360209081526040808320805460018082018355918552938390209093018a905580518a815291820193909352918201527ffc3ced06dca988f1666d0ec0f7c1170397e5e5876cfc381a64fbff0f322790849060600160405180910390a1816060015182604001519350935050509250929050565b6000848152602081905260409020600201546001600160a01b031633146106885760405162461bcd60e51b815260206004820152600c60248201527f21756e6174686f72697a656400000000000000000000000000000000000000006044820152606401610460565b60008481526020819052604081206006018054916106a583611cb7565b91905055507fb4a02b53b9459cfd4b284dbaa10ce9611353d1a19845a062d6848ba0615c0bba848484846040516106df9493929190611d16565b60405180910390a150505050565b60008060008060006106ff87876116d7565b6000888152600260205260408120805492935090918390811061072457610724611d60565b60009182526020918290206040805160c08101825260069093029091018054835260018101548385015260028101548383015260038101546001600160a01b03166060840152600481018054835181870281018701909452808452939491936080860193928301828280156107b857602002820191906000526020600020905b8154815260200190600101908083116107a4575b50505050508152602001600582015481525050905060008160800151518260a001516107e49190611d76565b9050600081116108365760405162461bcd60e51b815260206004820152601c60248201527f21796f755f63616e745f726566756e645f746869735f636f75727365000000006044820152606401610460565b600082604001518360a001518361084d9190611d89565b6108579190611dab565b9050600083604001518261086b9190611d76565b90506000606460065461087e9190611d89565b6108889083611dab565b60009c8d5260208d905260409c8d90206002015495909c0151929c6001600160a01b039095169a50919850929650505050505050565b60006108ca83336116d7565b6000848152600260205260409020805491925090829081106108ee576108ee611d60565b6000918252602080832060046006909302019190910180546001810182559083529120018290556040517fb3ffbf473064ef97c9dfff7d9cb6d54b11eb91726fdb6e7804931583f9b739a5906109509085908590918252602082015260400190565b60405180910390a1505050565b6000838152602081905260409020600201546001600160a01b038381169116146109b75760405162461bcd60e51b815260206004820152600b60248201526a08585d5d1a1bdc9a5e995960aa1b6044820152606401610460565b600083815260208181526040808320600201805473ffffffffffffffffffffffffffffffffffffffff19166001600160a01b03868116919091179091558516835260019091529020805484908110610a1157610a11611d60565b60009182526020808320919091018290556001600160a01b03838116808452600180845260408086208054928301815586529484902001879055835187815291861692820192909252918201527f2fd7dc3aeb254842908e4dc655cdfd549a0d3825eaf02e31cd71b1c3df1c751a90606001610950565b60008781526020819052604090205415610ae45760405162461bcd60e51b815260206004820152600660248201527f65786973747300000000000000000000000000000000000000000000000000006044820152606401610460565b6040518060e00160405280888152602001878152602001336001600160a01b031681526020018681526020014281526020014281526020016000808a815260200190815260200160002060060154815250600080898152602001908152602001600020600082015181600001556020820151816001015560408201518160020160006101000a8154816001600160a01b0302191690836001600160a01b03160217905550606082015181600301556080820151816004015560a0820151816005015560c0820151816006015590505060016000336001600160a01b03166001600160a01b031681526020019081526020016000208790806001815401808255809150506001900390600052602060002001600090919091909150557f60cd06f5e535451a631f4f384e8844896365676953a412852e17b2f46687839d878585898686338c42604051610c3e99989796959493929190611dca565b60405180910390a150505050505050565b6007546001600160a01b03163314610c975760405162461bcd60e51b815260206004820152600b60248201526a08585d5d1a1bdc9a5e995960aa1b6044820152606401610460565b60058054906000610ca783611cb7565b91905055507f2a65d0fe76508fb4e604d4804927dce75b70f82e64a2025e3bffb2fc003418506005548383604051610ce193929190611e52565b60405180910390a15050565b6003602052816000526040600020818154811061034457600080fd5b600080600080600260008881526020019081526020016000208681548110610d3357610d33611d60565b60009182526020918290206040805160c08101825260069093029091018054835260018101548385015260028101548383015260038101546001600160a01b0316606084015260048101805483518187028101870190945280845293949193608086019392830182828015610dc757602002820191906000526020600020905b815481526020019060010190808311610db3575b505050918352505060059182015460209182015260008a81528082526040808220815160e081018352815480825260018301549582019590955260028201546001600160a01b03169281019290925260038101546060830152600481015460808301529384015460a082015260069093015460c0840152929350909103610e905760405162461bcd60e51b815260206004820152600760248201527f21657869737473000000000000000000000000000000000000000000000000006044820152606401610460565b856001600160a01b031682606001516001600160a01b031614610ee35760405162461bcd60e51b815260206004820152600b60248201526a08585d5d1a1bdc9a5e995960aa1b6044820152606401610460565b600060045442610ef39190611e87565b905080836020015110610f485760405162461bcd60e51b815260206004820152600760248201527f3e327765656b73000000000000000000000000000000000000000000000000006044820152606401610460565b60008360a00151846080015151610f5f9190611d89565b60008b81526002602052604090208054919250908a908110610f8357610f83611d60565b600091825260208220600690910201818155600181018290556002810182905560038101805473ffffffffffffffffffffffffffffffffffffffff1916905590610fd060048301826118f3565b5060006005919091018190556001600160a01b038916815260036020526040902080548b90811061100357611003611d60565b60009182526020808320909101829055604080518d81526001600160a01b038c16928101929092528101919091527ffc3ced06dca988f1666d0ec0f7c1170397e5e5876cfc381a64fbff0f322790849060600160405180910390a160409384015192909301519199919850919650945050505050565b6000878152602081905260409020600201546001600160a01b031633146110e25760405162461bcd60e51b815260206004820152600c60248201527f21756e6174686f72697a656400000000000000000000000000000000000000006044820152606401610460565b6040518060e00160405280888152602001878152602001336001600160a01b031681526020018681526020016000808a81526020019081526020016000206004015481526020014281526020016000808a815260200190815260200160002060060154815250600080898152602001908152602001600020600082015181600001556020820151816001015560408201518160020160006101000a8154816001600160a01b0302191690836001600160a01b03160217905550606082015181600301556080820151816004015560a0820151816005015560c082015181600601559050507f60cd06f5e535451a631f4f384e8844896365676953a412852e17b2f46687839d878585898686338c42604051610c3e99989796959493929190611dca565b6007546001600160a01b0316331461124d5760405162461bcd60e51b815260206004820152600b60248201526a08585d5d1a1bdc9a5e995960aa1b6044820152606401610460565b6112c16040518060400160405280600e81526020017f57656220446576656c6f70656e740000000000000000000000000000000000008152506040518060400160405280601481526020017f7765622d646576656c6f706d656e742e77656270000000000000000000000000815250610c4f565b6113356040518060400160405280600681526020017f47616d696e6700000000000000000000000000000000000000000000000000008152506040518060400160405280600b81526020017f67616d696e672e77656270000000000000000000000000000000000000000000815250610c4f565b6113a96040518060400160405280600781526020017f436f6f6b696e67000000000000000000000000000000000000000000000000008152506040518060400160405280600c81526020017f636f6f6b696e672e776562700000000000000000000000000000000000000000815250610c4f565b61141d6040518060400160405280600981526020017f416e696d6174696f6e00000000000000000000000000000000000000000000008152506040518060400160405280600e81526020017f616e696d6174696f6e2e77656270000000000000000000000000000000000000815250610c4f565b6114916040518060400160405280600981526020017f4d61726b6574696e6700000000000000000000000000000000000000000000008152506040518060400160405280600e81526020017f6d61726b6574696e672e77656270000000000000000000000000000000000000815250610c4f565b6115056040518060400160405280600c81526020017f4461746120536369656e636500000000000000000000000000000000000000008152506040518060400160405280601181526020017f646174612d736369656e63652e77656270000000000000000000000000000000815250610c4f565b6115796040518060400160405280600b81526020017f50686f746f6772617068790000000000000000000000000000000000000000008152506040518060400160405280601081526020017f70686f746f6772617068792e7765627000000000000000000000000000000000815250610c4f565b6115ed6040518060400160405280600581526020017f4d757369630000000000000000000000000000000000000000000000000000008152506040518060400160405280600a81526020017f6d757369632e7765627000000000000000000000000000000000000000000000815250610c4f565b6116616040518060400160405280600881526020017f537065616b696e670000000000000000000000000000000000000000000000008152506040518060400160405280600d81526020017f737065616b696e672e7765627000000000000000000000000000000000000000815250610c4f565b6116d56040518060400160405280600f81526020017f55492f55582044657369676e696e6700000000000000000000000000000000008152506040518060400160405280600a81526020017f75692d75782e7765627000000000000000000000000000000000000000000000815250610c4f565b565b600082815260026020908152604080832080548251818502810185019093528083528493849084015b828210156117bd5760008481526020908190206040805160c081018252600686029092018054835260018101548385015260028101548383015260038101546001600160a01b031660608401526004810180548351818702810187019094528084529394919360808601939283018282801561179b57602002820191906000526020600020905b815481526020019060010190808311611787575b5050505050815260200160058201548152505081526020019060010190611700565b5050505090506000600019905060005b825181101561182657846001600160a01b03168382815181106117f2576117f2611d60565b6020026020010151606001516001600160a01b03160361181457809150611826565b8061181e81611e9a565b9150506117cd565b50600081121561189e5760405162461bcd60e51b815260206004820152602660248201527f21796f755f6172655f6e6f745f737562736372696265645f746f5f746869735f60448201527f636f7572736500000000000000000000000000000000000000000000000000006064820152608401610460565b9150505b92915050565b8280548282559060005260206000209081019282156118e3579160200282015b828111156118e35782518255916020019190600101906118c8565b506118ef929150611914565b5090565b50805460008255906000526020600020908101906119119190611914565b50565b5b808211156118ef5760008155600101611915565b80356001600160a01b038116811461194057600080fd5b919050565b6000806040838503121561195857600080fd5b61196183611929565b946020939093013593505050565b6000806040838503121561198257600080fd5b50508035926020909101359150565b600080604083850312156119a457600080fd5b823591506119b460208401611929565b90509250929050565b634e487b7160e01b600052604160045260246000fd5b600082601f8301126119e457600080fd5b813567ffffffffffffffff808211156119ff576119ff6119bd565b604051601f8301601f19908116603f01168101908282118183101715611a2757611a276119bd565b81604052838152866020858801011115611a4057600080fd5b836020870160208301376000602085830101528094505050505092915050565b60008060008060808587031215611a7657600080fd5b84359350602085013567ffffffffffffffff80821115611a9557600080fd5b611aa1888389016119d3565b94506040870135915080821115611ab757600080fd5b611ac3888389016119d3565b93506060870135915080821115611ad957600080fd5b50611ae6878288016119d3565b91505092959194509250565b600080600060608486031215611b0757600080fd5b83359250611b1760208501611929565b9150611b2560408501611929565b90509250925092565b600060208284031215611b4057600080fd5b5035919050565b600080600080600080600060e0888a031215611b6257600080fd5b873596506020880135955060408801359450606088013567ffffffffffffffff80821115611b8f57600080fd5b611b9b8b838c016119d3565b955060808a0135915080821115611bb157600080fd5b611bbd8b838c016119d3565b945060a08a0135915080821115611bd357600080fd5b611bdf8b838c016119d3565b935060c08a0135915080821115611bf557600080fd5b50611c028a828b016119d3565b91505092959891949750929550565b60008060408385031215611c2457600080fd5b823567ffffffffffffffff80821115611c3c57600080fd5b611c48868387016119d3565b93506020850135915080821115611c5e57600080fd5b50611c6b858286016119d3565b9150509250929050565b600080600060608486031215611c8a57600080fd5b8335925060208401359150611b2560408501611929565b634e487b7160e01b600052601160045260246000fd5b600060018201611cc957611cc9611ca1565b5060010190565b6000815180845260005b81811015611cf657602081850181015186830182015201611cda565b506000602082860101526020601f19601f83011685010191505092915050565b848152608060208201526000611d2f6080830186611cd0565b8281036040840152611d418186611cd0565b90508281036060840152611d558185611cd0565b979650505050505050565b634e487b7160e01b600052603260045260246000fd5b818103818111156118a2576118a2611ca1565b600082611da657634e487b7160e01b600052601260045260246000fd5b500490565b6000816000190483118215151615611dc557611dc5611ca1565b500290565b60006101208b8352806020840152611de48184018c611cd0565b90508281036040840152611df8818b611cd0565b90508860608401528281036080840152611e128189611cd0565b905082810360a0840152611e268188611cd0565b6001600160a01b039690961660c0840152505060e0810192909252610100909101529695505050505050565b838152606060208201526000611e6b6060830185611cd0565b8281036040840152611e7d8185611cd0565b9695505050505050565b808201808211156118a2576118a2611ca1565b60007f7fffffffffffffffffffffffffffffffffffffffffffffffffffffffffffffff8203611cc957611cc9611ca156fea264697066735822122094047db7716bcd8a7bfc53de784ee8312ea5ae8e54f95297d5db44bcb395406364736f6c63430008100033",
  "immutableReferences": {},
  "source": "// SPDX-License-Identifier: GPL-3.0\npragma solidity >=0.7.0 <0.9.0;\n\nimport {Models} from \"./base/Models.sol\";\n\ncontract BdlCourse {\n    /* all ecosystem courses */\n    mapping(uint => Models.Course) public courses;\n\n    /* creator => course id */\n    mapping(address => uint[]) public createdCourses;\n\n    /* holds all course subscriptions */\n    mapping(uint => Models.Subscription[]) public subscriptions;\n\n    /* learner => course id */\n    mapping(address => uint[]) public subscribeds;\n\n    /* 2 weeks */\n    uint private refundableDuration = 10000;\n\n    uint private categoryCount = 0;\n\n    uint private salesFee = 8; // eight percent\n\n    address private deployer;\n\n    constructor() {\n        deployer = msg.sender;\n    }\n\n    // == learner related functions == //\n\n    /* function to subscribe to a course */\n    function subscribe(uint id, address learner)\n        external\n        returns (uint256, address)\n    {\n        Models.Course memory course = courses[id];\n\n        require(course.id != 0, \"!exists\");\n        require(course.creator != learner, \"!can_subscribe_to_own_course\");\n\n        uint[] memory viewed;\n\n        subscriptions[id].push(\n            Models.Subscription(\n                id,\n                block.timestamp,\n                course.price,\n                learner,\n                viewed,\n                course.sections\n            )\n        );\n\n        subscribeds[learner].push(id);\n\n        emit Subscription(id, learner, true);\n        return (course.price, course.creator);\n    }\n\n    /* function to unsubscribe from a course */\n    function unSubscribe(\n        uint id,\n        uint sId,\n        address learner\n    )\n        external\n        returns (\n            uint256,\n            address,\n            uint\n        )\n    {\n        Models.Subscription memory subscription = subscriptions[id][sId];\n        Models.Course memory course = courses[id];\n\n        require(course.id != 0, \"!exists\");\n        require(subscription.owner == learner, \"!authorized\");\n\n        uint dueTime = (block.timestamp + refundableDuration);\n        require(subscription.time < dueTime, \">2weeks\");\n\n        uint weight = (subscription.viewed.length / subscription.sections);\n\n        delete subscriptions[id][sId];\n        delete subscribeds[learner][id];\n\n        emit Subscription(id, learner, false);\n        return (subscription.price, course.creator, weight);\n    }\n\n    // == creator related functions == //\n\n    // testing purpose\n    function mintCategories() public onlyOwner {\n        createCategory(\"Web Developent\", \"web-development.webp\");\n        createCategory(\"Gaming\", \"gaming.webp\");\n        createCategory(\"Cooking\", \"cooking.webp\");\n        createCategory(\"Animation\", \"animation.webp\");\n        createCategory(\"Marketing\", \"marketing.webp\");\n        createCategory(\"Data Science\", \"data-science.webp\");\n        createCategory(\"Photography\", \"photography.webp\");\n        createCategory(\"Music\", \"music.webp\");\n        createCategory(\"Speaking\", \"speaking.webp\");\n        createCategory(\"UI/UX Designing\", \"ui-ux.webp\");\n    }\n\n    function createCategory(string memory name, string memory image)\n        public\n        onlyOwner\n    {\n        categoryCount++;\n        emit Category(categoryCount, name, image);\n    }\n\n    /* create a new course */\n    function createCourse(\n        uint id,\n        uint category,\n        uint256 price,\n        /* course metadata */\n        string memory name,\n        string memory description,\n        string memory thumbnail,\n        string memory previewSrc\n    ) external {\n        require(courses[id].id == 0, \"exists\");\n\n        courses[id] = Models.Course(\n            id,\n            category,\n            msg.sender,\n            price,\n            block.timestamp,\n            block.timestamp,\n            courses[id].sections\n        );\n\n        createdCourses[msg.sender].push(id);\n\n        emit Course(\n            id,\n            name,\n            description,\n            category,\n            thumbnail,\n            previewSrc,\n            msg.sender,\n            price,\n            block.timestamp\n        );\n    }\n\n    /* updates existing course */\n    function updateCourse(\n        uint id,\n        uint category,\n        uint256 price,\n        /* course metadata */\n        string memory name,\n        string memory description,\n        string memory thumbnail,\n        string memory previewSrc\n    ) external {\n        require(courses[id].creator == msg.sender, \"!unathorized\");\n\n        courses[id] = Models.Course(\n            id,\n            category,\n            msg.sender,\n            price,\n            courses[id].createdAt,\n            block.timestamp,\n            courses[id].sections\n        );\n\n        emit Course(\n            id,\n            name,\n            description,\n            category,\n            thumbnail,\n            previewSrc,\n            msg.sender,\n            price,\n            block.timestamp\n        );\n    }\n\n    /* creates a course section */\n    function createCourseSection(\n        uint id,\n        string memory title,\n        string memory content,\n        string memory src\n    ) public {\n        require(courses[id].creator == msg.sender, \"!unathorized\");\n        courses[id].sections++;\n        emit CourseSection(id, title, content, src);\n    }\n\n    /* transfer course onwership */\n    function tranfersCourse(\n        uint id,\n        address creator,\n        address receiver\n    ) external {\n        require(courses[id].creator == creator, \"!authorized\");\n        courses[id].creator = receiver;\n\n        delete createdCourses[creator][id];\n        createdCourses[receiver].push(id);\n\n        emit CourseTransfer(id, creator, receiver);\n    }\n\n    /* view section */\n    function viewSection(uint id, uint sectionIndex) public {\n        int index = getSubscriptionIndex(id, msg.sender);\n        subscriptions[id][uint(index)].viewed.push(sectionIndex);\n        emit SectionViewed(id, sectionIndex);\n    }\n\n    function refund(uint id, address owner)\n        external view\n        returns (\n            uint256,\n            uint256,\n            address,\n            uint256\n        )\n    {\n        int index = getSubscriptionIndex(id, owner);\n\n        Models.Subscription memory subscription = subscriptions[id][uint(index)];\n\n        uint payableSections = (subscription.sections -\n            subscription.viewed.length);\n        require(payableSections > 0, \"!you_cant_refund_this_course\");\n\n        uint256 payableAmount = ((payableSections / subscription.sections) *\n            subscription.price);\n        uint256 netEarnings = (payableAmount - subscription.price);\n        uint256 earnings = (netEarnings * (salesFee / 100));\n\n        return (\n            payableAmount,\n            earnings,\n            courses[id].creator,\n            subscription.price\n        );\n    }\n\n    function getSubscriptionIndex(uint courseId, address owner)\n        private view\n        returns (int)\n    {\n        Models.Subscription[] memory _subscriptions = subscriptions[courseId];\n        int _index = -1;\n\n        for (int index = 0; uint(index) < _subscriptions.length; index++) {\n            if (_subscriptions[uint(index)].owner == owner) {\n                _index = index;\n                break;\n            }\n        }\n\n        require(_index >= 0, \"!you_are_not_subscribed_to_this_course\");\n        return _index;\n    }\n\n    // == events == //\n    event Subscription(uint courseId, address learner, bool status);\n    event CourseTransfer(uint id, address creator, address receiver);\n    event Category(uint id, string name, string image);\n    event Course(\n        uint id,\n        string name,\n        string description,\n        uint category,\n        string thumbnail,\n        string previewSrc,\n        address creator,\n        uint256 price,\n        uint updatedAt\n    );\n    event CourseSection(uint id, string title, string content, string src);\n    event SectionViewed(uint id, uint sectionIndex);\n\n    // == modifiers == //\n    modifier onlyOwner() {\n        require(msg.sender == deployer, \"!authorized\");\n        _;\n    }\n}\n",
  "sourcePath": "C:\\Users\\Arogundade Ibrahim\\Documents\\web3\\Buidl\\contracts\\BdlCourse.sol",
  "compiler": {
    "name": "solc",
    "version": "0.8.16+commit.07a7930e.Emscripten.clang"
  },
  "schemaVersion": "3.4.10",
  "updatedAt": "2022-10-31T14:29:38.730Z",
  "devdoc": {
    "kind": "dev",
    "methods": {},
    "version": 1
  },
  "userdoc": {
    "kind": "user",
    "methods": {},
    "version": 1
  }
}