{
  "contractName": "BdlCourse",
  "abi": [
    {
      "inputs": [],
      "stateMutability": "nonpayable",
      "type": "constructor"
    },
    {
      "anonymous": false,
      "inputs": [
        {
          "indexed": false,
          "internalType": "uint256",
          "name": "id",
          "type": "uint256"
        },
        {
          "indexed": false,
          "internalType": "string",
          "name": "name",
          "type": "string"
        },
        {
          "indexed": false,
          "internalType": "string",
          "name": "image",
          "type": "string"
        }
      ],
      "name": "Category",
      "type": "event"
    },
    {
      "anonymous": false,
      "inputs": [
        {
          "indexed": false,
          "internalType": "uint256",
          "name": "id",
          "type": "uint256"
        },
        {
          "indexed": false,
          "internalType": "string",
          "name": "name",
          "type": "string"
        },
        {
          "indexed": false,
          "internalType": "string",
          "name": "description",
          "type": "string"
        },
        {
          "indexed": false,
          "internalType": "uint256",
          "name": "category",
          "type": "uint256"
        },
        {
          "indexed": false,
          "internalType": "string",
          "name": "thumbnail",
          "type": "string"
        },
        {
          "indexed": false,
          "internalType": "string",
          "name": "previewSrc",
          "type": "string"
        },
        {
          "indexed": false,
          "internalType": "address",
          "name": "creator",
          "type": "address"
        },
        {
          "indexed": false,
          "internalType": "uint256",
          "name": "price",
          "type": "uint256"
        },
        {
          "indexed": false,
          "internalType": "bool",
          "name": "publish",
          "type": "bool"
        },
        {
          "indexed": false,
          "internalType": "uint256",
          "name": "updatedAt",
          "type": "uint256"
        }
      ],
      "name": "Course",
      "type": "event"
    },
    {
      "anonymous": false,
      "inputs": [
        {
          "indexed": false,
          "internalType": "uint256",
          "name": "id",
          "type": "uint256"
        },
        {
          "indexed": false,
          "internalType": "string",
          "name": "title",
          "type": "string"
        },
        {
          "indexed": false,
          "internalType": "string",
          "name": "content",
          "type": "string"
        },
        {
          "indexed": false,
          "internalType": "string",
          "name": "src",
          "type": "string"
        },
        {
          "indexed": false,
          "internalType": "uint256",
          "name": "duration",
          "type": "uint256"
        },
        {
          "indexed": false,
          "internalType": "uint256",
          "name": "sectionId",
          "type": "uint256"
        }
      ],
      "name": "CourseSection",
      "type": "event"
    },
    {
      "anonymous": false,
      "inputs": [
        {
          "indexed": false,
          "internalType": "uint256",
          "name": "id",
          "type": "uint256"
        },
        {
          "indexed": false,
          "internalType": "address",
          "name": "creator",
          "type": "address"
        },
        {
          "indexed": false,
          "internalType": "address",
          "name": "receiver",
          "type": "address"
        }
      ],
      "name": "CourseTransfer",
      "type": "event"
    },
    {
      "anonymous": false,
      "inputs": [
        {
          "indexed": false,
          "internalType": "uint256",
          "name": "id",
          "type": "uint256"
        },
        {
          "indexed": false,
          "internalType": "uint256",
          "name": "sectionId",
          "type": "uint256"
        }
      ],
      "name": "SectionViewed",
      "type": "event"
    },
    {
      "anonymous": false,
      "inputs": [
        {
          "indexed": false,
          "internalType": "uint256",
          "name": "courseId",
          "type": "uint256"
        },
        {
          "indexed": false,
          "internalType": "address",
          "name": "learner",
          "type": "address"
        },
        {
          "indexed": false,
          "internalType": "bool",
          "name": "status",
          "type": "bool"
        }
      ],
      "name": "Subscription",
      "type": "event"
    },
    {
      "inputs": [
        {
          "internalType": "uint256",
          "name": "",
          "type": "uint256"
        }
      ],
      "name": "courses",
      "outputs": [
        {
          "internalType": "uint256",
          "name": "id",
          "type": "uint256"
        },
        {
          "internalType": "uint256",
          "name": "category",
          "type": "uint256"
        },
        {
          "internalType": "address",
          "name": "creator",
          "type": "address"
        },
        {
          "internalType": "uint256",
          "name": "price",
          "type": "uint256"
        },
        {
          "internalType": "uint256",
          "name": "createdAt",
          "type": "uint256"
        },
        {
          "internalType": "uint256",
          "name": "updatedAt",
          "type": "uint256"
        },
        {
          "internalType": "uint256",
          "name": "sections",
          "type": "uint256"
        }
      ],
      "stateMutability": "view",
      "type": "function"
    },
    {
      "inputs": [
        {
          "internalType": "address",
          "name": "",
          "type": "address"
        },
        {
          "internalType": "uint256",
          "name": "",
          "type": "uint256"
        }
      ],
      "name": "createdCourses",
      "outputs": [
        {
          "internalType": "uint256",
          "name": "",
          "type": "uint256"
        }
      ],
      "stateMutability": "view",
      "type": "function"
    },
    {
      "inputs": [
        {
          "internalType": "uint256",
          "name": "",
          "type": "uint256"
        },
        {
          "internalType": "uint256",
          "name": "",
          "type": "uint256"
        }
      ],
      "name": "subscriptions",
      "outputs": [
        {
          "internalType": "uint256",
          "name": "course",
          "type": "uint256"
        },
        {
          "internalType": "uint256",
          "name": "time",
          "type": "uint256"
        },
        {
          "internalType": "uint256",
          "name": "price",
          "type": "uint256"
        },
        {
          "internalType": "address",
          "name": "owner",
          "type": "address"
        },
        {
          "internalType": "uint256",
          "name": "sections",
          "type": "uint256"
        }
      ],
      "stateMutability": "view",
      "type": "function"
    },
    {
      "inputs": [
        {
          "internalType": "uint256",
          "name": "id",
          "type": "uint256"
        },
        {
          "internalType": "address",
          "name": "learner",
          "type": "address"
        }
      ],
      "name": "subscribe",
      "outputs": [
        {
          "internalType": "uint256",
          "name": "",
          "type": "uint256"
        },
        {
          "internalType": "address",
          "name": "",
          "type": "address"
        }
      ],
      "stateMutability": "nonpayable",
      "type": "function"
    },
    {
      "inputs": [],
      "name": "mintCategories",
      "outputs": [],
      "stateMutability": "nonpayable",
      "type": "function"
    },
    {
      "inputs": [
        {
          "internalType": "string",
          "name": "name",
          "type": "string"
        },
        {
          "internalType": "string",
          "name": "image",
          "type": "string"
        }
      ],
      "name": "createCategory",
      "outputs": [],
      "stateMutability": "nonpayable",
      "type": "function"
    },
    {
      "inputs": [
        {
          "internalType": "uint256",
          "name": "id",
          "type": "uint256"
        },
        {
          "internalType": "uint256",
          "name": "category",
          "type": "uint256"
        },
        {
          "internalType": "uint256",
          "name": "price",
          "type": "uint256"
        },
        {
          "internalType": "string",
          "name": "name",
          "type": "string"
        },
        {
          "internalType": "string",
          "name": "description",
          "type": "string"
        },
        {
          "internalType": "string",
          "name": "thumbnail",
          "type": "string"
        },
        {
          "internalType": "string",
          "name": "previewSrc",
          "type": "string"
        },
        {
          "internalType": "bool",
          "name": "publish",
          "type": "bool"
        },
        {
          "internalType": "string",
          "name": "key",
          "type": "string"
        }
      ],
      "name": "createCourse",
      "outputs": [],
      "stateMutability": "nonpayable",
      "type": "function"
    },
    {
      "inputs": [
        {
          "internalType": "uint256",
          "name": "id",
          "type": "uint256"
        },
        {
          "internalType": "uint256",
          "name": "category",
          "type": "uint256"
        },
        {
          "internalType": "uint256",
          "name": "price",
          "type": "uint256"
        },
        {
          "internalType": "string",
          "name": "name",
          "type": "string"
        },
        {
          "internalType": "string",
          "name": "description",
          "type": "string"
        },
        {
          "internalType": "string",
          "name": "thumbnail",
          "type": "string"
        },
        {
          "internalType": "string",
          "name": "previewSrc",
          "type": "string"
        },
        {
          "internalType": "bool",
          "name": "publish",
          "type": "bool"
        }
      ],
      "name": "updateCourse",
      "outputs": [],
      "stateMutability": "nonpayable",
      "type": "function"
    },
    {
      "inputs": [
        {
          "internalType": "uint256",
          "name": "id",
          "type": "uint256"
        },
        {
          "internalType": "string",
          "name": "title",
          "type": "string"
        },
        {
          "internalType": "string",
          "name": "content",
          "type": "string"
        },
        {
          "internalType": "string",
          "name": "src",
          "type": "string"
        },
        {
          "internalType": "uint256",
          "name": "duration",
          "type": "uint256"
        }
      ],
      "name": "createCourseSection",
      "outputs": [],
      "stateMutability": "nonpayable",
      "type": "function"
    },
    {
      "inputs": [
        {
          "internalType": "uint256",
          "name": "id",
          "type": "uint256"
        },
        {
          "internalType": "string",
          "name": "title",
          "type": "string"
        },
        {
          "internalType": "string",
          "name": "content",
          "type": "string"
        },
        {
          "internalType": "string",
          "name": "src",
          "type": "string"
        },
        {
          "internalType": "uint256",
          "name": "duration",
          "type": "uint256"
        },
        {
          "internalType": "uint256",
          "name": "sectionId",
          "type": "uint256"
        }
      ],
      "name": "updateCourseSection",
      "outputs": [],
      "stateMutability": "nonpayable",
      "type": "function"
    },
    {
      "inputs": [
        {
          "internalType": "uint256",
          "name": "id",
          "type": "uint256"
        },
        {
          "internalType": "address",
          "name": "creator",
          "type": "address"
        },
        {
          "internalType": "address",
          "name": "receiver",
          "type": "address"
        }
      ],
      "name": "tranfersCourse",
      "outputs": [],
      "stateMutability": "nonpayable",
      "type": "function"
    },
    {
      "inputs": [
        {
          "internalType": "uint256",
          "name": "id",
          "type": "uint256"
        }
      ],
      "name": "getEncryptionKeyAsSubscriber",
      "outputs": [
        {
          "internalType": "string",
          "name": "",
          "type": "string"
        }
      ],
      "stateMutability": "view",
      "type": "function"
    },
    {
      "inputs": [
        {
          "internalType": "uint256",
          "name": "id",
          "type": "uint256"
        }
      ],
      "name": "getEncryptionKeyAsCreator",
      "outputs": [
        {
          "internalType": "string",
          "name": "",
          "type": "string"
        }
      ],
      "stateMutability": "view",
      "type": "function"
    },
    {
      "inputs": [
        {
          "internalType": "uint256",
          "name": "id",
          "type": "uint256"
        },
        {
          "internalType": "uint256",
          "name": "sectionId",
          "type": "uint256"
        }
      ],
      "name": "viewSection",
      "outputs": [],
      "stateMutability": "nonpayable",
      "type": "function"
    },
    {
      "inputs": [
        {
          "internalType": "uint256",
          "name": "id",
          "type": "uint256"
        },
        {
          "internalType": "address",
          "name": "owner",
          "type": "address"
        }
      ],
      "name": "unSubscribe",
      "outputs": [
        {
          "internalType": "uint256",
          "name": "",
          "type": "uint256"
        },
        {
          "internalType": "uint256",
          "name": "",
          "type": "uint256"
        },
        {
          "internalType": "address",
          "name": "",
          "type": "address"
        },
        {
          "internalType": "uint256",
          "name": "",
          "type": "uint256"
        },
        {
          "internalType": "uint256",
          "name": "",
          "type": "uint256"
        }
      ],
      "stateMutability": "nonpayable",
      "type": "function"
    },
    {
      "inputs": [
        {
          "internalType": "uint256",
          "name": "id",
          "type": "uint256"
        },
        {
          "internalType": "address",
          "name": "owner",
          "type": "address"
        }
      ],
      "name": "onCourseComplete",
      "outputs": [
        {
          "internalType": "bool",
          "name": "",
          "type": "bool"
        },
        {
          "internalType": "uint256",
          "name": "",
          "type": "uint256"
        }
      ],
      "stateMutability": "view",
      "type": "function"
    }
  ],
  "bytecode": "0x608060405261271060035560006005556000600655600860075534801561002557600080fd5b50600880546001600160a01b03191633179055612408806100476000396000f3fe608060405234801561001057600080fd5b50600436106101005760003560e01c80638529934b11610097578063cd57831411610066578063cd578314146102f5578063ce70be7614610308578063f30e6e9b1461031b578063f8e7ef931461036457600080fd5b80638529934b1461022457806396f979d214610237578063af1d7cbd146102cf578063b224b4e9146102e257600080fd5b806346d9b2bf116100d357806346d9b2bf146101b957806359e6951d146101ce5780637f725cfa146101fe5780637f7d6eba1461021157600080fd5b80630172a3431461010557806331dfcb1f1461013457806335986b2d14610154578063365cfcbf14610175575b600080fd5b610118610113366004611b34565b61036c565b6040805192151583526020830191909152015b60405180910390f35b610147610142366004611b60565b610544565b60405161012b9190611bbf565b610167610162366004611bd9565b61063d565b60405190815260200161012b565b610188610183366004611c03565b61066e565b604080519586526020860194909452928401919091526001600160a01b03166060830152608082015260a00161012b565b6101cc6101c7366004611cd8565b6106c5565b005b6101e16101dc366004611b34565b6108b1565b604080519283526001600160a01b0390911660208301520161012b565b6101cc61020c366004611dd8565b610af5565b6101cc61021f366004611c03565b610b96565b6101cc610232366004611e7c565b610c35565b61028c610245366004611b60565b6000602081905290815260409020805460018201546002830154600384015460048501546005860154600690960154949593946001600160a01b0390931693919290919087565b6040805197885260208801969096526001600160a01b03909416948601949094526060850191909152608084015260a083019190915260c082015260e00161012b565b6101476102dd366004611b60565b610d60565b6101cc6102f0366004611eb8565b610d86565b6101cc610303366004611f1c565b610e24565b6101cc610316366004611fb6565b610efd565b61032e610329366004611b34565b61108c565b6040805195865260208601949094526001600160a01b03909216928401929092526060830191909152608082015260a00161012b565b6101cc6113f4565b600080600061037b85856118c6565b600086815260026020526040812080549293509091839081106103a0576103a0612091565b60009182526020918290206040805160c08101825260069093029091018054835260018101548385015260028101548383015260038101546001600160a01b031660608401526004810180548351818702810187019094528084529394919360808601939283018282801561043457602002820191906000526020600020905b815481526020019060010190808311610420575b5050505050815260200160058201548152505090508060a0015181608001515110156104cd5760405162461bcd60e51b815260206004820152602160248201527f596f7520686176656e277420636f6d706c65746564207468697320636f75727360448201527f650000000000000000000000000000000000000000000000000000000000000060648201526084015b60405180910390fd5b60009586526020868152604096879020875160e0810189528154815260018201549281019290925260028101546001600160a01b03168289015260038101546060830181905260048201546080840152600582015460a084015260069091015460c090920191909152950151941515959350505050565b6000818152602081905260409020600201546060906001600160a01b0316331461059f5760405162461bcd60e51b815260206004820152600c60248201526b085d5b985d1a1bdc9a5e995960a21b60448201526064016104c4565b600082815260046020526040902080546105b8906120a7565b80601f01602080910402602001604051908101604052809291908181526020018280546105e4906120a7565b80156106315780601f1061060657610100808354040283529160200191610631565b820191906000526020600020905b81548152906001019060200180831161061457829003601f168201915b50505050509050919050565b6001602052816000526040600020818154811061065957600080fd5b90600052602060002001600091509150505481565b6002602052816000526040600020818154811061068a57600080fd5b600091825260209091206006909102018054600182015460028301546003840154600590940154929550909350916001600160a01b03169085565b600089815260208190526040902054156107215760405162461bcd60e51b815260206004820152600660248201527f657869737473000000000000000000000000000000000000000000000000000060448201526064016104c4565b6040518060e001604052808a8152602001898152602001336001600160a01b031681526020018881526020014281526020014281526020016000808c8152602001908152602001600020600601548152506000808b8152602001908152602001600020600082015181600001556020820151816001015560408201518160020160006101000a8154816001600160a01b0302191690836001600160a01b03160217905550606082015181600301556080820151816004015560a0820151816005015560c0820151816006015590505080600460008b815260200190815260200160002090816108109190612130565b5060016000336001600160a01b03166001600160a01b031681526020019081526020016000208990806001815401808255809150506001900390600052602060002001600090919091909150557f488034406293bf721e96d002a170591a3e896f7e941dee78d9f10a8dc20d58868987878b8888338e8a4260405161089e9a999897969594939291906121f0565b60405180910390a1505050505050505050565b600082815260208181526040808320815160e081018352815480825260018301549482019490945260028201546001600160a01b0316928101929092526003810154606083015260048101546080830152600581015460a08301526006015460c0820152829182036109655760405162461bcd60e51b815260206004820152600760248201527f216578697374730000000000000000000000000000000000000000000000000060448201526064016104c4565b836001600160a01b031681604001516001600160a01b0316036109ca5760405162461bcd60e51b815260206004820152601c60248201527f2163616e5f7375627363726962655f746f5f6f776e5f636f757273650000000060448201526064016104c4565b6000858152600260208181526040808420815160c080820184528b8252428286019081526060898101519584019586526001600160a01b038d811682860190815260808601838152948c015160a0870152865460018082018955978c529a89902086516006909c02019a8b559251958a0195909555945196880196909655945160038701805473ffffffffffffffffffffffffffffffffffffffff1916919093161790915592518051919492610a8892600485019290910190611a97565b5060a09190910151600590910155604080518781526001600160a01b038716602082015260018183015290517ffc3ced06dca988f1666d0ec0f7c1170397e5e5876cfc381a64fbff0f322790849181900360600190a1816060015182604001519350935050509250929050565b6000868152602081905260409020600201546001600160a01b03163314610b4d5760405162461bcd60e51b815260206004820152600c60248201526b085d5b985d1a1bdc9a5e995960a21b60448201526064016104c4565b7f2192f72c75220c2c61bb3cd95e52bce92f8961f415f3bfe834a9bc2ca23ec863868686868686604051610b8696959493929190612281565b60405180910390a1505050505050565b6000610ba283336118c6565b600084815260026020526040902080549192509082908110610bc657610bc6612091565b6000918252602080832060046006909302019190910180546001810182559083529120018290556040517fb3ffbf473064ef97c9dfff7d9cb6d54b11eb91726fdb6e7804931583f9b739a590610c289085908590918252602082015260400190565b60405180910390a1505050565b6000838152602081905260409020600201546001600160a01b03838116911614610c8f5760405162461bcd60e51b815260206004820152600b60248201526a08585d5d1a1bdc9a5e995960aa1b60448201526064016104c4565b600083815260208181526040808320600201805473ffffffffffffffffffffffffffffffffffffffff19166001600160a01b03868116919091179091558516835260019091529020805484908110610ce957610ce9612091565b60009182526020808320919091018290556001600160a01b03838116808452600180845260408086208054928301815586529484902001879055835187815291861692820192909252918201527f2fd7dc3aeb254842908e4dc655cdfd549a0d3825eaf02e31cd71b1c3df1c751a90606001610c28565b6060610d6c82336118c6565b50600082815260046020526040902080546105b8906120a7565b6008546001600160a01b03163314610dce5760405162461bcd60e51b815260206004820152600b60248201526a08585d5d1a1bdc9a5e995960aa1b60448201526064016104c4565b60058054906000610dde836122ec565b91905055507f2a65d0fe76508fb4e604d4804927dce75b70f82e64a2025e3bffb2fc003418506005548383604051610e1893929190612305565b60405180910390a15050565b6000858152602081905260409020600201546001600160a01b03163314610e7c5760405162461bcd60e51b815260206004820152600c60248201526b085d5b985d1a1bdc9a5e995960a21b60448201526064016104c4565b6000858152602081905260408120600601805491610e99836122ec565b909155505060068054906000610eae836122ec565b91905055507f2192f72c75220c2c61bb3cd95e52bce92f8961f415f3bfe834a9bc2ca23ec8638585858585600654604051610eee96959493929190612281565b60405180910390a15050505050565b6000888152602081905260409020600201546001600160a01b03163314610f555760405162461bcd60e51b815260206004820152600c60248201526b085d5b985d1a1bdc9a5e995960a21b60448201526064016104c4565b6040518060e00160405280898152602001888152602001336001600160a01b031681526020018781526020016000808b81526020019081526020016000206004015481526020014281526020016000808b8152602001908152602001600020600601548152506000808a8152602001908152602001600020600082015181600001556020820151816001015560408201518160020160006101000a8154816001600160a01b0302191690836001600160a01b03160217905550606082015181600301556080820151816004015560a0820151816005015560c082015181600601559050507f488034406293bf721e96d002a170591a3e896f7e941dee78d9f10a8dc20d58868886868a8787338d894260405161107a9a999897969594939291906121f0565b60405180910390a15050505050505050565b60008060008060008061109f88886118c6565b600089815260026020526040812080549293509091839081106110c4576110c4612091565b60009182526020918290206040805160c08101825260069093029091018054835260018101548385015260028101548383015260038101546001600160a01b031660608401526004810180548351818702810187019094528084529394919360808601939283018282801561115857602002820191906000526020600020905b815481526020019060010190808311611144575b505050918352505060059182015460209182015260008c8152808252604090819020815160e0810183528154815260018201549381019390935260028101546001600160a01b03169183019190915260038101546060830152600481015460808301529182015460a082015260069091015460c08201529091506111df426212750061233a565b8260200151106112315760405162461bcd60e51b815260206004820152600760248201527f3e327765656b730000000000000000000000000000000000000000000000000060448201526064016104c4565b60008260800151518360a00151611248919061234d565b90506000811161129a5760405162461bcd60e51b815260206004820152601c60248201527f21796f755f63616e745f726566756e645f746869735f636f757273650000000060448201526064016104c4565b60008b81526002602052604090208054859081106112ba576112ba612091565b600091825260208220600690910201818155600181018290556002810182905560038101805473ffffffffffffffffffffffffffffffffffffffff19169055906113076004830182611ae2565b60058201600090555050600083604001518460a00151836113289190612360565b6113329190612382565b90506000846040015182611346919061234d565b905060008082156113795760646007546113609190612360565b61136a9084612382565b9150611376828461234d565b90505b7ffc3ced06dca988f1666d0ec0f7c1170397e5e5876cfc381a64fbff0f322790848f8f60006040516113c9939291909283526001600160a01b039190911660208301521515604082015260600190565b60405180910390a16040958601519690950151929e909d50949b509099509197509195505050505050565b6008546001600160a01b0316331461143c5760405162461bcd60e51b815260206004820152600b60248201526a08585d5d1a1bdc9a5e995960aa1b60448201526064016104c4565b6114b06040518060400160405280600e81526020017f57656220446576656c6f70656e740000000000000000000000000000000000008152506040518060400160405280601481526020017f7765622d646576656c6f706d656e742e77656270000000000000000000000000815250610d86565b6115246040518060400160405280600681526020017f47616d696e6700000000000000000000000000000000000000000000000000008152506040518060400160405280600b81526020017f67616d696e672e77656270000000000000000000000000000000000000000000815250610d86565b6115986040518060400160405280600781526020017f436f6f6b696e67000000000000000000000000000000000000000000000000008152506040518060400160405280600c81526020017f636f6f6b696e672e776562700000000000000000000000000000000000000000815250610d86565b61160c6040518060400160405280600981526020017f416e696d6174696f6e00000000000000000000000000000000000000000000008152506040518060400160405280600e81526020017f616e696d6174696f6e2e77656270000000000000000000000000000000000000815250610d86565b6116806040518060400160405280600981526020017f4d61726b6574696e6700000000000000000000000000000000000000000000008152506040518060400160405280600e81526020017f6d61726b6574696e672e77656270000000000000000000000000000000000000815250610d86565b6116f46040518060400160405280600c81526020017f4461746120536369656e636500000000000000000000000000000000000000008152506040518060400160405280601181526020017f646174612d736369656e63652e77656270000000000000000000000000000000815250610d86565b6117686040518060400160405280600b81526020017f50686f746f6772617068790000000000000000000000000000000000000000008152506040518060400160405280601081526020017f70686f746f6772617068792e7765627000000000000000000000000000000000815250610d86565b6117dc6040518060400160405280600581526020017f4d757369630000000000000000000000000000000000000000000000000000008152506040518060400160405280600a81526020017f6d757369632e7765627000000000000000000000000000000000000000000000815250610d86565b6118506040518060400160405280600881526020017f537065616b696e670000000000000000000000000000000000000000000000008152506040518060400160405280600d81526020017f737065616b696e672e7765627000000000000000000000000000000000000000815250610d86565b6118c46040518060400160405280600f81526020017f55492f55582044657369676e696e6700000000000000000000000000000000008152506040518060400160405280600a81526020017f75692d75782e7765627000000000000000000000000000000000000000000000815250610d86565b565b600082815260026020908152604080832080548251818502810185019093528083528493849084015b828210156119ac5760008481526020908190206040805160c081018252600686029092018054835260018101548385015260028101548383015260038101546001600160a01b031660608401526004810180548351818702810187019094528084529394919360808601939283018282801561198a57602002820191906000526020600020905b815481526020019060010190808311611976575b50505050508152602001600582015481525050815260200190600101906118ef565b5050505090506000600019905060005b8251811015611a1557846001600160a01b03168382815181106119e1576119e1612091565b6020026020010151606001516001600160a01b031603611a0357809150611a15565b80611a0d816123a1565b9150506119bc565b506000811215611a8d5760405162461bcd60e51b815260206004820152602660248201527f21796f755f6172655f6e6f745f737562736372696265645f746f5f746869735f60448201527f636f75727365000000000000000000000000000000000000000000000000000060648201526084016104c4565b9150505b92915050565b828054828255906000526020600020908101928215611ad2579160200282015b82811115611ad2578251825591602001919060010190611ab7565b50611ade929150611b03565b5090565b5080546000825590600052602060002090810190611b009190611b03565b50565b5b80821115611ade5760008155600101611b04565b80356001600160a01b0381168114611b2f57600080fd5b919050565b60008060408385031215611b4757600080fd5b82359150611b5760208401611b18565b90509250929050565b600060208284031215611b7257600080fd5b5035919050565b6000815180845260005b81811015611b9f57602081850181015186830182015201611b83565b506000602082860101526020601f19601f83011685010191505092915050565b602081526000611bd26020830184611b79565b9392505050565b60008060408385031215611bec57600080fd5b611bf583611b18565b946020939093013593505050565b60008060408385031215611c1657600080fd5b50508035926020909101359150565b634e487b7160e01b600052604160045260246000fd5b600082601f830112611c4c57600080fd5b813567ffffffffffffffff80821115611c6757611c67611c25565b604051601f8301601f19908116603f01168101908282118183101715611c8f57611c8f611c25565b81604052838152866020858801011115611ca857600080fd5b836020870160208301376000602085830101528094505050505092915050565b80358015158114611b2f57600080fd5b60008060008060008060008060006101208a8c031215611cf757600080fd5b8935985060208a0135975060408a0135965060608a013567ffffffffffffffff80821115611d2457600080fd5b611d308d838e01611c3b565b975060808c0135915080821115611d4657600080fd5b611d528d838e01611c3b565b965060a08c0135915080821115611d6857600080fd5b611d748d838e01611c3b565b955060c08c0135915080821115611d8a57600080fd5b611d968d838e01611c3b565b9450611da460e08d01611cc8565b93506101008c0135915080821115611dbb57600080fd5b50611dc88c828d01611c3b565b9150509295985092959850929598565b60008060008060008060c08789031215611df157600080fd5b86359550602087013567ffffffffffffffff80821115611e1057600080fd5b611e1c8a838b01611c3b565b96506040890135915080821115611e3257600080fd5b611e3e8a838b01611c3b565b95506060890135915080821115611e5457600080fd5b50611e6189828a01611c3b565b9350506080870135915060a087013590509295509295509295565b600080600060608486031215611e9157600080fd5b83359250611ea160208501611b18565b9150611eaf60408501611b18565b90509250925092565b60008060408385031215611ecb57600080fd5b823567ffffffffffffffff80821115611ee357600080fd5b611eef86838701611c3b565b93506020850135915080821115611f0557600080fd5b50611f1285828601611c3b565b9150509250929050565b600080600080600060a08688031215611f3457600080fd5b85359450602086013567ffffffffffffffff80821115611f5357600080fd5b611f5f89838a01611c3b565b95506040880135915080821115611f7557600080fd5b611f8189838a01611c3b565b94506060880135915080821115611f9757600080fd5b50611fa488828901611c3b565b95989497509295608001359392505050565b600080600080600080600080610100898b031215611fd357600080fd5b883597506020890135965060408901359550606089013567ffffffffffffffff8082111561200057600080fd5b61200c8c838d01611c3b565b965060808b013591508082111561202257600080fd5b61202e8c838d01611c3b565b955060a08b013591508082111561204457600080fd5b6120508c838d01611c3b565b945060c08b013591508082111561206657600080fd5b506120738b828c01611c3b565b92505061208260e08a01611cc8565b90509295985092959890939650565b634e487b7160e01b600052603260045260246000fd5b600181811c908216806120bb57607f821691505b6020821081036120db57634e487b7160e01b600052602260045260246000fd5b50919050565b601f82111561212b57600081815260208120601f850160051c810160208610156121085750805b601f850160051c820191505b8181101561212757828155600101612114565b5050505b505050565b815167ffffffffffffffff81111561214a5761214a611c25565b61215e8161215884546120a7565b846120e1565b602080601f831160018114612193576000841561217b5750858301515b600019600386901b1c1916600185901b178555612127565b600085815260208120601f198616915b828110156121c2578886015182559484019460019091019084016121a3565b50858210156121e05787850151600019600388901b60f8161c191681555b5050505050600190811b01905550565b60006101408c835280602084015261220a8184018d611b79565b9050828103604084015261221e818c611b79565b90508960608401528281036080840152612238818a611b79565b905082810360a084015261224c8189611b79565b6001600160a01b039790971660c0840152505060e0810193909352901515610100830152610120909101529695505050505050565b86815260c06020820152600061229a60c0830188611b79565b82810360408401526122ac8188611b79565b905082810360608401526122c08187611b79565b6080840195909552505060a00152949350505050565b634e487b7160e01b600052601160045260246000fd5b6000600182016122fe576122fe6122d6565b5060010190565b83815260606020820152600061231e6060830185611b79565b82810360408401526123308185611b79565b9695505050505050565b80820180821115611a9157611a916122d6565b81810381811115611a9157611a916122d6565b60008261237d57634e487b7160e01b600052601260045260246000fd5b500490565b600081600019048311821515161561239c5761239c6122d6565b500290565b60007f7fffffffffffffffffffffffffffffffffffffffffffffffffffffffffffffff82036122fe576122fe6122d656fea26469706673582212206c52b7280f4cbb52f3ff6f17c0cec2d029fa4bf6bde0953a5739dbb57c7551d464736f6c63430008100033",
  "immutableReferences": {},
  "source": "// SPDX-License-Identifier: GPL-3.0\npragma solidity >=0.7.0 <0.9.0;\n\nimport {Models} from \"./base/Models.sol\";\n\ncontract BdlCourse {\n    /* all ecosystem courses */\n    mapping(uint => Models.Course) public courses;\n\n    /* creator => course id */\n    mapping(address => uint[]) public createdCourses;\n\n    /* holds all course subscriptions */\n    mapping(uint => Models.Subscription[]) public subscriptions;\n\n    /* 2 weeks */\n    uint private refundableDuration = 10000;\n\n    /* encryptions keys to premium contents */\n    mapping(uint => string) private encryptionKeys;\n\n    uint private categoryCount = 0;\n    uint private sectionsCount = 0;\n\n    uint private salesFee = 8; // eight percent\n\n    address private deployer;\n\n    constructor() {\n        deployer = msg.sender;\n    }\n\n    // == learner related functions == //\n\n    /* function to subscribe to a course */\n    function subscribe(uint id, address learner)\n        external\n        returns (uint256, address)\n    {\n        Models.Course memory course = courses[id];\n\n        require(course.id != 0, \"!exists\");\n        require(course.creator != learner, \"!can_subscribe_to_own_course\");\n\n        uint[] memory viewed;\n\n        subscriptions[id].push(\n            Models.Subscription(\n                id,\n                block.timestamp,\n                course.price,\n                learner,\n                viewed,\n                course.sections\n            )\n        );\n\n        emit Subscription(id, learner, true);\n        return (course.price, course.creator);\n    }\n\n    // == creator related functions == //\n\n    // testing purpose\n    function mintCategories() public onlyOwner {\n        createCategory(\"Web Developent\", \"web-development.webp\");\n        createCategory(\"Gaming\", \"gaming.webp\");\n        createCategory(\"Cooking\", \"cooking.webp\");\n        createCategory(\"Animation\", \"animation.webp\");\n        createCategory(\"Marketing\", \"marketing.webp\");\n        createCategory(\"Data Science\", \"data-science.webp\");\n        createCategory(\"Photography\", \"photography.webp\");\n        createCategory(\"Music\", \"music.webp\");\n        createCategory(\"Speaking\", \"speaking.webp\");\n        createCategory(\"UI/UX Designing\", \"ui-ux.webp\");\n    }\n\n    function createCategory(string memory name, string memory image)\n        public\n        onlyOwner\n    {\n        categoryCount++;\n        emit Category(categoryCount, name, image);\n    }\n\n    /* create a new course */\n    function createCourse(\n        uint id,\n        uint category,\n        uint256 price,\n        /* course metadata */\n        string memory name,\n        string memory description,\n        string memory thumbnail,\n        string memory previewSrc,\n        bool publish,\n        string memory key\n    ) external {\n        require(courses[id].id == 0, \"exists\");\n\n        courses[id] = Models.Course(\n            id,\n            category,\n            msg.sender,\n            price,\n            block.timestamp,\n            block.timestamp,\n            courses[id].sections\n        );\n\n        encryptionKeys[id] = key;\n\n        createdCourses[msg.sender].push(id);\n\n        emit Course(\n            id,\n            name,\n            description,\n            category,\n            thumbnail,\n            previewSrc,\n            msg.sender,\n            price,\n            publish,\n            block.timestamp\n        );\n    }\n\n    /* updates existing course */\n    function updateCourse(\n        uint id,\n        uint category,\n        uint256 price,\n        /* course metadata */\n        string memory name,\n        string memory description,\n        string memory thumbnail,\n        string memory previewSrc,\n        bool publish\n    ) external {\n        require(courses[id].creator == msg.sender, \"!unathorized\");\n\n        courses[id] = Models.Course(\n            id,\n            category,\n            msg.sender,\n            price,\n            courses[id].createdAt,\n            block.timestamp,\n            courses[id].sections\n        );\n\n        emit Course(\n            id,\n            name,\n            description,\n            category,\n            thumbnail,\n            previewSrc,\n            msg.sender,\n            price,\n            publish,\n            block.timestamp\n        );\n    }\n\n    /* creates a course section */\n    function createCourseSection(\n        uint id,\n        string memory title,\n        string memory content,\n        string memory src,\n        uint duration\n    ) public {\n        require(courses[id].creator == msg.sender, \"!unathorized\");\n        courses[id].sections++;\n        sectionsCount++;\n        emit CourseSection(id, title, content, src, duration, sectionsCount);\n    }\n\n    /* updates a course section */\n    function updateCourseSection(\n        uint id,\n        string memory title,\n        string memory content,\n        string memory src,\n        uint duration,\n        uint sectionId\n    ) public {\n        require(courses[id].creator == msg.sender, \"!unathorized\");\n        emit CourseSection(id, title, content, src, duration, sectionId);\n    }\n\n    /* transfer course onwership */\n    function tranfersCourse(\n        uint id,\n        address creator,\n        address receiver\n    ) external {\n        require(courses[id].creator == creator, \"!authorized\");\n        courses[id].creator = receiver;\n\n        delete createdCourses[creator][id];\n        createdCourses[receiver].push(id);\n\n        emit CourseTransfer(id, creator, receiver);\n    }\n\n    /* get encryption key as subscriber */\n    function getEncryptionKeyAsSubscriber(uint id)\n        public view\n        returns (string memory)\n    {\n        // verifies user has a active subscription to course\n        getSubscriptionIndex(id, msg.sender);\n        return encryptionKeys[id];\n    }\n\n    /* get encryption key as creator */\n    function getEncryptionKeyAsCreator(uint id) public view returns (string memory) {\n        require(courses[id].creator == msg.sender, \"!unathorized\");\n        return encryptionKeys[id];\n    }\n\n    /* view section */\n    function viewSection(uint id, uint sectionId) public {\n        int index = getSubscriptionIndex(id, msg.sender);\n        subscriptions[id][uint(index)].viewed.push(sectionId);\n        emit SectionViewed(id, sectionId);\n    }\n\n    /* unsubscribe/refund from a course */\n    function unSubscribe(uint id, address owner)\n        external\n        returns (\n            uint256,\n            uint256,\n            address,\n            uint256,\n            uint256\n        )\n    {\n        int index = getSubscriptionIndex(id, owner);\n\n        Models.Subscription memory subscription = subscriptions[id][\n            uint(index)\n        ];\n        Models.Course memory course = courses[id];\n\n        require(subscription.time < (block.timestamp + 2 weeks), \">2weeks\");\n\n        uint payableSections = (subscription.sections -\n            subscription.viewed.length);\n\n        require(payableSections > 0, \"!you_cant_refund_this_course\");\n\n        /* user has unsubscribe */\n        delete subscriptions[id][uint(index)];\n\n        uint256 payableAmount = ((payableSections / subscription.sections) *\n            subscription.price);\n\n        uint256 netEarnings = (payableAmount - subscription.price);\n\n        uint256 earnings;\n        uint256 platformEarnings;\n        if (netEarnings > 0) {\n            earnings = (netEarnings * (salesFee / 100));\n            platformEarnings = netEarnings - earnings;\n        }\n\n        emit Subscription(id, owner, false);\n\n        return (\n            payableAmount,\n            earnings,\n            course.creator,\n            subscription.price,\n            platformEarnings\n        );\n    }\n\n    /* mint reward and certificate for user */\n    function onCourseComplete(uint id, address owner) external view returns (bool, uint256) {\n        // verifies user has subscribe to course\n        int index = getSubscriptionIndex(id, owner);\n\n        Models.Subscription memory subscription = subscriptions[id][\n            uint(index)\n        ];\n\n        require(\n            subscription.viewed.length >= subscription.sections,\n            \"You haven't completed this course\"\n        );\n\n        Models.Course memory course = courses[id];\n\n        /* returns course is premium or free */\n        return ((course.price > 0), subscription.price);\n    }\n\n    function getSubscriptionIndex(uint courseId, address owner)\n        private\n        view\n        returns (int)\n    {\n        Models.Subscription[] memory _subscriptions = subscriptions[courseId];\n        int _index = -1;\n\n        for (int index = 0; uint(index) < _subscriptions.length; index++) {\n            if (_subscriptions[uint(index)].owner == owner) {\n                _index = index;\n                break;\n            }\n        }\n\n        require(_index >= 0, \"!you_are_not_subscribed_to_this_course\");\n        return _index;\n    }\n\n    // == events == //\n    event Subscription(uint courseId, address learner, bool status);\n    event CourseTransfer(uint id, address creator, address receiver);\n    event Category(uint id, string name, string image);\n    event Course(\n        uint id,\n        string name,\n        string description,\n        uint category,\n        string thumbnail,\n        string previewSrc,\n        address creator,\n        uint256 price,\n        bool publish,\n        uint updatedAt\n    );\n    event CourseSection(\n        uint id,\n        string title,\n        string content,\n        string src,\n        uint duration,\n        uint sectionId\n    );\n    event SectionViewed(uint id, uint sectionId);\n\n    // == modifiers == //\n    modifier onlyOwner() {\n        require(msg.sender == deployer, \"!authorized\");\n        _;\n    }\n}\n",
  "sourcePath": "C:\\Users\\Arogundade Ibrahim\\Documents\\web3\\Buidl\\contracts\\BdlCourse.sol",
  "compiler": {
    "name": "solc",
    "version": "0.8.16+commit.07a7930e.Emscripten.clang"
  },
  "schemaVersion": "3.4.10",
  "updatedAt": "2022-11-02T13:47:30.091Z",
  "devdoc": {
    "kind": "dev",
    "methods": {},
    "version": 1
  },
  "userdoc": {
    "kind": "user",
    "methods": {},
    "version": 1
  }
}