{
  "contractName": "BdlCourse",
  "abi": [
    {
      "anonymous": false,
      "inputs": [
        {
          "indexed": false,
          "internalType": "uint256",
          "name": "id",
          "type": "uint256"
        },
        {
          "indexed": false,
          "internalType": "string",
          "name": "name",
          "type": "string"
        },
        {
          "indexed": false,
          "internalType": "string",
          "name": "description",
          "type": "string"
        },
        {
          "indexed": false,
          "internalType": "uint256",
          "name": "category",
          "type": "uint256"
        },
        {
          "indexed": false,
          "internalType": "string",
          "name": "thumbnail",
          "type": "string"
        },
        {
          "indexed": false,
          "internalType": "string",
          "name": "previewSrc",
          "type": "string"
        },
        {
          "indexed": false,
          "internalType": "address",
          "name": "creator",
          "type": "address"
        }
      ],
      "name": "CourseCreated",
      "type": "event"
    },
    {
      "anonymous": false,
      "inputs": [
        {
          "indexed": false,
          "internalType": "uint256",
          "name": "id",
          "type": "uint256"
        },
        {
          "indexed": false,
          "internalType": "address",
          "name": "creator",
          "type": "address"
        },
        {
          "indexed": false,
          "internalType": "address",
          "name": "learner",
          "type": "address"
        }
      ],
      "name": "CourseSubscribe",
      "type": "event"
    },
    {
      "anonymous": false,
      "inputs": [
        {
          "indexed": false,
          "internalType": "uint256",
          "name": "id",
          "type": "uint256"
        },
        {
          "indexed": false,
          "internalType": "address",
          "name": "creator",
          "type": "address"
        },
        {
          "indexed": false,
          "internalType": "address",
          "name": "receiver",
          "type": "address"
        }
      ],
      "name": "CourseTransfer",
      "type": "event"
    },
    {
      "anonymous": false,
      "inputs": [
        {
          "indexed": false,
          "internalType": "uint256",
          "name": "id",
          "type": "uint256"
        },
        {
          "indexed": false,
          "internalType": "uint256",
          "name": "sId",
          "type": "uint256"
        },
        {
          "indexed": false,
          "internalType": "address",
          "name": "learner",
          "type": "address"
        }
      ],
      "name": "CourseUnSubscribe",
      "type": "event"
    },
    {
      "inputs": [
        {
          "internalType": "uint256",
          "name": "",
          "type": "uint256"
        }
      ],
      "name": "courses",
      "outputs": [
        {
          "internalType": "uint256",
          "name": "id",
          "type": "uint256"
        },
        {
          "internalType": "uint256",
          "name": "category",
          "type": "uint256"
        },
        {
          "internalType": "address",
          "name": "creator",
          "type": "address"
        },
        {
          "internalType": "uint256",
          "name": "price",
          "type": "uint256"
        },
        {
          "internalType": "uint256",
          "name": "createdAt",
          "type": "uint256"
        },
        {
          "internalType": "uint256",
          "name": "updatedAt",
          "type": "uint256"
        }
      ],
      "stateMutability": "view",
      "type": "function"
    },
    {
      "inputs": [
        {
          "internalType": "address",
          "name": "",
          "type": "address"
        },
        {
          "internalType": "uint256",
          "name": "",
          "type": "uint256"
        }
      ],
      "name": "createdCourses",
      "outputs": [
        {
          "internalType": "uint256",
          "name": "",
          "type": "uint256"
        }
      ],
      "stateMutability": "view",
      "type": "function"
    },
    {
      "inputs": [
        {
          "internalType": "address",
          "name": "",
          "type": "address"
        },
        {
          "internalType": "uint256",
          "name": "",
          "type": "uint256"
        }
      ],
      "name": "subscribeds",
      "outputs": [
        {
          "internalType": "uint256",
          "name": "",
          "type": "uint256"
        }
      ],
      "stateMutability": "view",
      "type": "function"
    },
    {
      "inputs": [
        {
          "internalType": "uint256",
          "name": "",
          "type": "uint256"
        },
        {
          "internalType": "uint256",
          "name": "",
          "type": "uint256"
        }
      ],
      "name": "subscriptions",
      "outputs": [
        {
          "internalType": "uint256",
          "name": "course",
          "type": "uint256"
        },
        {
          "internalType": "uint256",
          "name": "time",
          "type": "uint256"
        },
        {
          "internalType": "uint256",
          "name": "price",
          "type": "uint256"
        },
        {
          "internalType": "address",
          "name": "owner",
          "type": "address"
        }
      ],
      "stateMutability": "view",
      "type": "function"
    },
    {
      "inputs": [
        {
          "internalType": "uint256",
          "name": "id",
          "type": "uint256"
        },
        {
          "internalType": "address",
          "name": "learner",
          "type": "address"
        }
      ],
      "name": "subscribe",
      "outputs": [
        {
          "internalType": "uint256",
          "name": "",
          "type": "uint256"
        },
        {
          "internalType": "address",
          "name": "",
          "type": "address"
        }
      ],
      "stateMutability": "nonpayable",
      "type": "function"
    },
    {
      "inputs": [
        {
          "internalType": "uint256",
          "name": "id",
          "type": "uint256"
        },
        {
          "internalType": "uint256",
          "name": "sId",
          "type": "uint256"
        },
        {
          "internalType": "address",
          "name": "learner",
          "type": "address"
        }
      ],
      "name": "unSubscribe",
      "outputs": [
        {
          "internalType": "uint256",
          "name": "",
          "type": "uint256"
        },
        {
          "internalType": "address",
          "name": "",
          "type": "address"
        }
      ],
      "stateMutability": "nonpayable",
      "type": "function"
    },
    {
      "inputs": [
        {
          "internalType": "uint256",
          "name": "id",
          "type": "uint256"
        },
        {
          "internalType": "uint256",
          "name": "category",
          "type": "uint256"
        },
        {
          "internalType": "uint256",
          "name": "price",
          "type": "uint256"
        },
        {
          "internalType": "address",
          "name": "creator",
          "type": "address"
        },
        {
          "internalType": "string",
          "name": "name",
          "type": "string"
        },
        {
          "internalType": "string",
          "name": "description",
          "type": "string"
        },
        {
          "internalType": "string",
          "name": "thumbnail",
          "type": "string"
        },
        {
          "internalType": "string",
          "name": "previewSrc",
          "type": "string"
        }
      ],
      "name": "createCourse",
      "outputs": [],
      "stateMutability": "nonpayable",
      "type": "function"
    },
    {
      "inputs": [
        {
          "internalType": "uint256",
          "name": "id",
          "type": "uint256"
        },
        {
          "internalType": "uint256",
          "name": "category",
          "type": "uint256"
        },
        {
          "internalType": "address",
          "name": "creator",
          "type": "address"
        },
        {
          "internalType": "uint256",
          "name": "price",
          "type": "uint256"
        }
      ],
      "name": "updateCourse",
      "outputs": [],
      "stateMutability": "nonpayable",
      "type": "function"
    },
    {
      "inputs": [
        {
          "internalType": "uint256",
          "name": "id",
          "type": "uint256"
        },
        {
          "internalType": "address",
          "name": "creator",
          "type": "address"
        },
        {
          "internalType": "address",
          "name": "receiver",
          "type": "address"
        }
      ],
      "name": "tranfersCourse",
      "outputs": [],
      "stateMutability": "nonpayable",
      "type": "function"
    }
  ],
  "bytecode": "0x608060405261271060045534801561001657600080fd5b5061100c806100266000396000f3fe608060405234801561001057600080fd5b50600436106100a35760003560e01c80638529934b11610076578063c856e7ee1161005b578063c856e7ee146101ea578063c89664b4146101fd578063cc7a56a01461021057600080fd5b80638529934b1461014f57806396f979d21461016257600080fd5b806335986b2d146100a8578063365cfcbf146100ce57806359e6951d1461010a5780635c719cba1461013a575b600080fd5b6100bb6100b6366004610c28565b610223565b6040519081526020015b60405180910390f35b6100e16100dc366004610c52565b610254565b604080519485526020850193909352918301526001600160a01b031660608201526080016100c5565b61011d610118366004610c74565b6102a3565b604080519283526001600160a01b039091166020830152016100c5565b61014d610148366004610ca0565b6104aa565b005b61014d61015d366004610cdd565b610624565b6101af610170366004610d19565b600060208190529081526040902080546001820154600283015460038401546004850154600590950154939492936001600160a01b0390921692909186565b6040805196875260208701959095526001600160a01b03909316938501939093526060840152608083019190915260a082015260c0016100c5565b6100bb6101f8366004610c28565b610757565b61014d61020b366004610dd5565b610773565b61011d61021e366004610eb0565b610912565b6001602052816000526040600020818154811061023f57600080fd5b90600052602060002001600091509150505481565b6002602052816000526040600020818154811061027057600080fd5b6000918252602090912060049091020180546001820154600283015460039093015491945092506001600160a01b031684565b600082815260208181526040808320815160c081018352815480825260018301549482019490945260028201546001600160a01b03169281019290925260038101546060830152600481015460808301526005015460a08201528291820361033c5760405162461bcd60e51b81526020600482015260076024820152662165786973747360c81b60448201526064015b60405180910390fd5b836001600160a01b031681604001516001600160a01b0316036103a15760405162461bcd60e51b815260206004820152601c60248201527f2163616e5f7375627363726962655f746f5f6f776e5f636f75727365000000006044820152606401610333565b600085815260026020818152604080842081516080810183528a8152428185019081526060888101518386019081526001600160a01b038d8116838601818152875460018082018a55988d528a8d209751600490910290970196875594518688015591519885019890985591516003938401805473ffffffffffffffffffffffffffffffffffffffff1916918916919091179055818852918552838720805493840181558752958490209091018a90558582015182518b81529416928401929092528201929092527fa8c4d61ab1b2283bd08c63be6951a0a0beb8bc1eafda7f7fccbeb6a7df013078910160405180910390a18060600151816040015192509250509250929050565b600084815260208181526040808320815160c081018352815480825260018301549482019490945260028201546001600160a01b03169281019290925260038101546060830152600481015460808301526005015460a0820152910361053c5760405162461bcd60e51b81526020600482015260076024820152662165786973747360c81b6044820152606401610333565b826001600160a01b031681604001516001600160a01b03161461058f5760405162461bcd60e51b815260206004820152600b60248201526a08585d5d1a1bdc9a5e995960aa1b6044820152606401610333565b6040805160c08101825286815260208082019687526001600160a01b03958616828401908152606083019586526080948501519483019485524260a084019081526000998a52918990529290972090518155945160018601555160028501805473ffffffffffffffffffffffffffffffffffffffff191691909416179092555160038301555160048201559051600590910155565b6000838152602081905260409020600201546001600160a01b0383811691161461067e5760405162461bcd60e51b815260206004820152600b60248201526a08585d5d1a1bdc9a5e995960aa1b6044820152606401610333565b600083815260208181526040808320600201805473ffffffffffffffffffffffffffffffffffffffff19166001600160a01b038681169190911790915585168352600190915290208054849081106106d8576106d8610edc565b60009182526020808320919091018290556001600160a01b03838116808452600180845260408086208054928301815586529484902001879055835187815291861692820192909252918201527f2fd7dc3aeb254842908e4dc655cdfd549a0d3825eaf02e31cd71b1c3df1c751a9060600160405180910390a1505050565b6003602052816000526040600020818154811061023f57600080fd5b600088815260208190526040902054156107cf5760405162461bcd60e51b815260206004820152600660248201527f65786973747300000000000000000000000000000000000000000000000000006044820152606401610333565b6040518060c00160405280898152602001888152602001866001600160a01b03168152602001878152602001428152602001428152506000808a8152602001908152602001600020600082015181600001556020820151816001015560408201518160020160006101000a8154816001600160a01b0302191690836001600160a01b03160217905550606082015181600301556080820151816004015560a0820151816005015590505060016000866001600160a01b03166001600160a01b031681526020019081526020016000208890806001815401808255809150506001900390600052602060002001600090919091909150557f3cb9902525f5e5badb0a491dd72c39f8d7cf402218a05865cc1972d0aa1aa7308885858a86868b6040516109009796959493929190610f38565b60405180910390a15050505050505050565b60008381526002602052604081208054829182918690811061093657610936610edc565b90600052602060002090600402016040518060800160405290816000820154815260200160018201548152602001600282015481526020016003820160009054906101000a90046001600160a01b03166001600160a01b03166001600160a01b031681525050905060008060008881526020019081526020016000206040518060c001604052908160008201548152602001600182015481526020016002820160009054906101000a90046001600160a01b03166001600160a01b03166001600160a01b03168152602001600382015481526020016004820154815260200160058201548152505090508060000151600003610a5e5760405162461bcd60e51b81526020600482015260076024820152662165786973747360c81b6044820152606401610333565b846001600160a01b031682606001516001600160a01b031614610ab15760405162461bcd60e51b815260206004820152600b60248201526a08585d5d1a1bdc9a5e995960aa1b6044820152606401610333565b600060045442610ac19190610faf565b905080836020015110610b165760405162461bcd60e51b815260206004820152600760248201527f3e327765656b73000000000000000000000000000000000000000000000000006044820152606401610333565b6000888152600260205260409020805488908110610b3657610b36610edc565b60009182526020808320600490920290910182815560018101839055600281018390556003908101805473ffffffffffffffffffffffffffffffffffffffff191690556001600160a01b0389168352905260409020805489908110610b9d57610b9d610edc565b6000918252602080832090910191909155604080518a81529182018990526001600160a01b038816908201527fbd5eec3fc06fe6a176d98dd87610bec6872af33e524e949929a3c272564803279060600160405180910390a15060409182015191015190969095509350505050565b80356001600160a01b0381168114610c2357600080fd5b919050565b60008060408385031215610c3b57600080fd5b610c4483610c0c565b946020939093013593505050565b60008060408385031215610c6557600080fd5b50508035926020909101359150565b60008060408385031215610c8757600080fd5b82359150610c9760208401610c0c565b90509250929050565b60008060008060808587031215610cb657600080fd5b8435935060208501359250610ccd60408601610c0c565b9396929550929360600135925050565b600080600060608486031215610cf257600080fd5b83359250610d0260208501610c0c565b9150610d1060408501610c0c565b90509250925092565b600060208284031215610d2b57600080fd5b5035919050565b634e487b7160e01b600052604160045260246000fd5b600082601f830112610d5957600080fd5b813567ffffffffffffffff80821115610d7457610d74610d32565b604051601f8301601f19908116603f01168101908282118183101715610d9c57610d9c610d32565b81604052838152866020858801011115610db557600080fd5b836020870160208301376000602085830101528094505050505092915050565b600080600080600080600080610100898b031215610df257600080fd5b883597506020890135965060408901359550610e1060608a01610c0c565b9450608089013567ffffffffffffffff80821115610e2d57600080fd5b610e398c838d01610d48565b955060a08b0135915080821115610e4f57600080fd5b610e5b8c838d01610d48565b945060c08b0135915080821115610e7157600080fd5b610e7d8c838d01610d48565b935060e08b0135915080821115610e9357600080fd5b50610ea08b828c01610d48565b9150509295985092959890939650565b600080600060608486031215610ec557600080fd5b8335925060208401359150610d1060408501610c0c565b634e487b7160e01b600052603260045260246000fd5b6000815180845260005b81811015610f1857602081850181015186830182015201610efc565b506000602082860101526020601f19601f83011685010191505092915050565b87815260e060208201526000610f5160e0830189610ef2565b8281036040840152610f638189610ef2565b90508660608401528281036080840152610f7d8187610ef2565b905082810360a0840152610f918186610ef2565b9150506001600160a01b03831660c083015298975050505050505050565b80820180821115610fd057634e487b7160e01b600052601160045260246000fd5b9291505056fea26469706673582212203cbd9c9fb20299350f6a5a7983367453dc522ed156064e42140d9200d23979b864736f6c63430008100033",
  "immutableReferences": {},
  "source": "// SPDX-License-Identifier: GPL-3.0\npragma solidity >=0.7.0 <0.9.0;\n\nimport {Models} from \"./base/Models.sol\";\n\ncontract BdlCourse {\n    /* all ecosystem courses */\n    mapping(uint => Models.Course) public courses;\n\n    /* creator => course id */\n    mapping(address => uint[]) public createdCourses;\n\n    /* holds all course subscriptions */\n    mapping(uint => Models.Subscription[]) public subscriptions;\n\n    /* learner => course id */\n    mapping(address => uint[]) public subscribeds;\n\n    /* 2 weeks */\n    uint private refundableDuration = 10000;\n\n    // == learner related functions == //\n\n    /* function to subscribe to a course */\n    function subscribe(uint id, address learner) external returns (uint256, address) {\n        Models.Course memory course = courses[id];\n\n        require(course.id != 0, \"!exists\");\n        require(course.creator != learner, \"!can_subscribe_to_own_course\");\n\n        subscriptions[id].push(\n            Models.Subscription(id, block.timestamp, course.price, learner)\n        );\n\n        subscribeds[learner].push(id);\n\n        emit CourseSubscribe(id, course.creator, learner);\n        return (course.price, course.creator);\n    }\n\n    /* function to unsubscribe from a course */\n    function unSubscribe(\n        uint id,\n        uint sId,\n        address learner\n    ) external returns (uint256, address) {\n        Models.Subscription memory subscription = subscriptions[id][sId];\n        Models.Course memory course = courses[id];\n\n        require(course.id != 0, \"!exists\");\n        require(subscription.owner == learner, \"!authorized\");\n\n        uint dueTime = (block.timestamp + refundableDuration);\n        require(subscription.time < dueTime, \">2weeks\");\n\n        delete subscriptions[id][sId];\n        delete subscribeds[learner][id];\n\n        emit CourseUnSubscribe(id, sId, learner);\n        return (subscription.price, course.creator);\n    }\n\n    // == creator related functions == //\n\n    /* create a new course */\n    function createCourse(\n        uint id,\n        uint category,\n        uint256 price,\n        address creator,\n        /* course metadata */\n        string memory name,\n        string memory description,\n        string memory thumbnail,\n        string memory previewSrc\n    ) external {\n        require(courses[id].id == 0, \"exists\");\n\n        courses[id] = Models.Course(\n            id,\n            category,\n            creator,\n            price,\n            block.timestamp,\n            block.timestamp\n        );\n\n        createdCourses[creator].push(id);\n\n        emit CourseCreated(\n            id,\n            name,\n            description,\n            category,\n            thumbnail,\n            previewSrc,\n            creator\n        );\n    }\n\n    /* updates an existing course */\n    function updateCourse(\n        uint id,\n        uint category,\n        address creator,\n        uint256 price\n    ) external {\n        Models.Course memory course = courses[id];\n\n        require(course.id != 0, \"!exists\");\n        require(course.creator == creator, \"!authorized\");\n\n        courses[id] = Models.Course(\n            id,\n            category,\n            creator,\n            price,\n            course.createdAt,\n            block.timestamp\n        );\n    }\n\n    /* transfer course onwership */\n    function tranfersCourse(\n        uint id,\n        address creator,\n        address receiver\n    ) external {\n        require(courses[id].creator == creator, \"!authorized\");\n        courses[id].creator = receiver;\n\n        delete createdCourses[creator][id];\n        createdCourses[receiver].push(id);\n\n        emit CourseTransfer(id, creator, receiver);\n    }\n\n    // == events == //\n    event CourseSubscribe(uint id, address creator, address learner);\n    event CourseUnSubscribe(uint id, uint sId, address learner);\n    event CourseTransfer(uint id, address creator, address receiver);\n    event CourseCreated(\n        uint id,\n        string name,\n        string description,\n        uint category,\n        string thumbnail,\n        string previewSrc,\n        address creator\n    );\n}\n",
  "sourcePath": "C:\\Users\\Arogundade Ibrahim\\Documents\\web3\\Buidl\\contracts\\BdlCourse.sol",
  "compiler": {
    "name": "solc",
    "version": "0.8.16+commit.07a7930e.Emscripten.clang"
  },
  "schemaVersion": "3.4.10",
  "updatedAt": "2022-10-25T09:08:39.892Z",
  "devdoc": {
    "kind": "dev",
    "methods": {},
    "version": 1
  },
  "userdoc": {
    "kind": "user",
    "methods": {},
    "version": 1
  }
}