{
  "contractName": "BdlCourse",
  "abi": [
    {
      "inputs": [],
      "stateMutability": "nonpayable",
      "type": "constructor"
    },
    {
      "anonymous": false,
      "inputs": [
        {
          "indexed": false,
          "internalType": "uint256",
          "name": "id",
          "type": "uint256"
        },
        {
          "indexed": false,
          "internalType": "string",
          "name": "name",
          "type": "string"
        },
        {
          "indexed": false,
          "internalType": "string",
          "name": "image",
          "type": "string"
        }
      ],
      "name": "Category",
      "type": "event"
    },
    {
      "anonymous": false,
      "inputs": [
        {
          "indexed": false,
          "internalType": "uint256",
          "name": "id",
          "type": "uint256"
        },
        {
          "indexed": false,
          "internalType": "string",
          "name": "name",
          "type": "string"
        },
        {
          "indexed": false,
          "internalType": "string",
          "name": "description",
          "type": "string"
        },
        {
          "indexed": false,
          "internalType": "uint256",
          "name": "category",
          "type": "uint256"
        },
        {
          "indexed": false,
          "internalType": "string",
          "name": "thumbnail",
          "type": "string"
        },
        {
          "indexed": false,
          "internalType": "string",
          "name": "previewSrc",
          "type": "string"
        },
        {
          "indexed": false,
          "internalType": "address",
          "name": "creator",
          "type": "address"
        },
        {
          "indexed": false,
          "internalType": "uint256",
          "name": "price",
          "type": "uint256"
        },
        {
          "indexed": false,
          "internalType": "bool",
          "name": "publish",
          "type": "bool"
        },
        {
          "indexed": false,
          "internalType": "uint256",
          "name": "updatedAt",
          "type": "uint256"
        }
      ],
      "name": "Course",
      "type": "event"
    },
    {
      "anonymous": false,
      "inputs": [
        {
          "indexed": false,
          "internalType": "uint256",
          "name": "id",
          "type": "uint256"
        },
        {
          "indexed": false,
          "internalType": "string",
          "name": "title",
          "type": "string"
        },
        {
          "indexed": false,
          "internalType": "string",
          "name": "content",
          "type": "string"
        },
        {
          "indexed": false,
          "internalType": "string",
          "name": "src",
          "type": "string"
        },
        {
          "indexed": false,
          "internalType": "uint256",
          "name": "duration",
          "type": "uint256"
        },
        {
          "indexed": false,
          "internalType": "uint256",
          "name": "sectionId",
          "type": "uint256"
        }
      ],
      "name": "CourseSection",
      "type": "event"
    },
    {
      "anonymous": false,
      "inputs": [
        {
          "indexed": false,
          "internalType": "uint256",
          "name": "id",
          "type": "uint256"
        },
        {
          "indexed": false,
          "internalType": "address",
          "name": "creator",
          "type": "address"
        },
        {
          "indexed": false,
          "internalType": "address",
          "name": "receiver",
          "type": "address"
        }
      ],
      "name": "CourseTransfer",
      "type": "event"
    },
    {
      "anonymous": false,
      "inputs": [
        {
          "indexed": false,
          "internalType": "uint256",
          "name": "id",
          "type": "uint256"
        },
        {
          "indexed": false,
          "internalType": "uint256",
          "name": "sectionId",
          "type": "uint256"
        }
      ],
      "name": "SectionViewed",
      "type": "event"
    },
    {
      "anonymous": false,
      "inputs": [
        {
          "indexed": false,
          "internalType": "uint256",
          "name": "courseId",
          "type": "uint256"
        },
        {
          "indexed": false,
          "internalType": "address",
          "name": "learner",
          "type": "address"
        },
        {
          "indexed": false,
          "internalType": "bool",
          "name": "status",
          "type": "bool"
        }
      ],
      "name": "Subscription",
      "type": "event"
    },
    {
      "inputs": [
        {
          "internalType": "uint256",
          "name": "",
          "type": "uint256"
        }
      ],
      "name": "courses",
      "outputs": [
        {
          "internalType": "uint256",
          "name": "id",
          "type": "uint256"
        },
        {
          "internalType": "uint256",
          "name": "category",
          "type": "uint256"
        },
        {
          "internalType": "address",
          "name": "creator",
          "type": "address"
        },
        {
          "internalType": "uint256",
          "name": "price",
          "type": "uint256"
        },
        {
          "internalType": "uint256",
          "name": "createdAt",
          "type": "uint256"
        },
        {
          "internalType": "uint256",
          "name": "updatedAt",
          "type": "uint256"
        },
        {
          "internalType": "uint256",
          "name": "sections",
          "type": "uint256"
        }
      ],
      "stateMutability": "view",
      "type": "function"
    },
    {
      "inputs": [
        {
          "internalType": "address",
          "name": "",
          "type": "address"
        },
        {
          "internalType": "uint256",
          "name": "",
          "type": "uint256"
        }
      ],
      "name": "createdCourses",
      "outputs": [
        {
          "internalType": "uint256",
          "name": "",
          "type": "uint256"
        }
      ],
      "stateMutability": "view",
      "type": "function"
    },
    {
      "inputs": [
        {
          "internalType": "uint256",
          "name": "",
          "type": "uint256"
        },
        {
          "internalType": "uint256",
          "name": "",
          "type": "uint256"
        }
      ],
      "name": "subscriptions",
      "outputs": [
        {
          "internalType": "uint256",
          "name": "course",
          "type": "uint256"
        },
        {
          "internalType": "uint256",
          "name": "time",
          "type": "uint256"
        },
        {
          "internalType": "uint256",
          "name": "price",
          "type": "uint256"
        },
        {
          "internalType": "address",
          "name": "owner",
          "type": "address"
        },
        {
          "internalType": "uint256",
          "name": "sections",
          "type": "uint256"
        }
      ],
      "stateMutability": "view",
      "type": "function"
    },
    {
      "inputs": [
        {
          "internalType": "uint256",
          "name": "id",
          "type": "uint256"
        },
        {
          "internalType": "address",
          "name": "learner",
          "type": "address"
        }
      ],
      "name": "subscribe",
      "outputs": [
        {
          "internalType": "uint256",
          "name": "",
          "type": "uint256"
        },
        {
          "internalType": "address",
          "name": "",
          "type": "address"
        }
      ],
      "stateMutability": "nonpayable",
      "type": "function"
    },
    {
      "inputs": [],
      "name": "mintCategories",
      "outputs": [],
      "stateMutability": "nonpayable",
      "type": "function"
    },
    {
      "inputs": [
        {
          "internalType": "string",
          "name": "name",
          "type": "string"
        },
        {
          "internalType": "string",
          "name": "image",
          "type": "string"
        }
      ],
      "name": "createCategory",
      "outputs": [],
      "stateMutability": "nonpayable",
      "type": "function"
    },
    {
      "inputs": [
        {
          "internalType": "uint256",
          "name": "id",
          "type": "uint256"
        },
        {
          "internalType": "uint256",
          "name": "category",
          "type": "uint256"
        },
        {
          "internalType": "uint256",
          "name": "price",
          "type": "uint256"
        },
        {
          "internalType": "string",
          "name": "name",
          "type": "string"
        },
        {
          "internalType": "string",
          "name": "description",
          "type": "string"
        },
        {
          "internalType": "string",
          "name": "thumbnail",
          "type": "string"
        },
        {
          "internalType": "string",
          "name": "previewSrc",
          "type": "string"
        },
        {
          "internalType": "bool",
          "name": "publish",
          "type": "bool"
        }
      ],
      "name": "createCourse",
      "outputs": [],
      "stateMutability": "nonpayable",
      "type": "function"
    },
    {
      "inputs": [
        {
          "internalType": "uint256",
          "name": "id",
          "type": "uint256"
        },
        {
          "internalType": "uint256",
          "name": "category",
          "type": "uint256"
        },
        {
          "internalType": "uint256",
          "name": "price",
          "type": "uint256"
        },
        {
          "internalType": "string",
          "name": "name",
          "type": "string"
        },
        {
          "internalType": "string",
          "name": "description",
          "type": "string"
        },
        {
          "internalType": "string",
          "name": "thumbnail",
          "type": "string"
        },
        {
          "internalType": "string",
          "name": "previewSrc",
          "type": "string"
        },
        {
          "internalType": "bool",
          "name": "publish",
          "type": "bool"
        }
      ],
      "name": "updateCourse",
      "outputs": [],
      "stateMutability": "nonpayable",
      "type": "function"
    },
    {
      "inputs": [
        {
          "internalType": "uint256",
          "name": "id",
          "type": "uint256"
        },
        {
          "internalType": "string",
          "name": "title",
          "type": "string"
        },
        {
          "internalType": "string",
          "name": "content",
          "type": "string"
        },
        {
          "internalType": "string",
          "name": "src",
          "type": "string"
        },
        {
          "internalType": "uint256",
          "name": "duration",
          "type": "uint256"
        }
      ],
      "name": "createCourseSection",
      "outputs": [],
      "stateMutability": "nonpayable",
      "type": "function"
    },
    {
      "inputs": [
        {
          "internalType": "uint256",
          "name": "id",
          "type": "uint256"
        },
        {
          "internalType": "string",
          "name": "title",
          "type": "string"
        },
        {
          "internalType": "string",
          "name": "content",
          "type": "string"
        },
        {
          "internalType": "string",
          "name": "src",
          "type": "string"
        },
        {
          "internalType": "uint256",
          "name": "duration",
          "type": "uint256"
        },
        {
          "internalType": "uint256",
          "name": "sectionId",
          "type": "uint256"
        }
      ],
      "name": "updateCourseSection",
      "outputs": [],
      "stateMutability": "nonpayable",
      "type": "function"
    },
    {
      "inputs": [
        {
          "internalType": "uint256",
          "name": "id",
          "type": "uint256"
        },
        {
          "internalType": "address",
          "name": "creator",
          "type": "address"
        },
        {
          "internalType": "address",
          "name": "receiver",
          "type": "address"
        }
      ],
      "name": "tranfersCourse",
      "outputs": [],
      "stateMutability": "nonpayable",
      "type": "function"
    },
    {
      "inputs": [
        {
          "internalType": "uint256",
          "name": "id",
          "type": "uint256"
        },
        {
          "internalType": "uint256",
          "name": "sectionId",
          "type": "uint256"
        }
      ],
      "name": "viewSection",
      "outputs": [],
      "stateMutability": "nonpayable",
      "type": "function"
    },
    {
      "inputs": [
        {
          "internalType": "uint256",
          "name": "id",
          "type": "uint256"
        },
        {
          "internalType": "address",
          "name": "owner",
          "type": "address"
        }
      ],
      "name": "unSubscribe",
      "outputs": [
        {
          "internalType": "uint256",
          "name": "",
          "type": "uint256"
        },
        {
          "internalType": "uint256",
          "name": "",
          "type": "uint256"
        },
        {
          "internalType": "address",
          "name": "",
          "type": "address"
        },
        {
          "internalType": "uint256",
          "name": "",
          "type": "uint256"
        },
        {
          "internalType": "uint256",
          "name": "",
          "type": "uint256"
        }
      ],
      "stateMutability": "nonpayable",
      "type": "function"
    }
  ],
  "bytecode": "0x608060405261271060035560006004556000600555600860065534801561002557600080fd5b50600780546001600160a01b03191633179055611e01806100476000396000f3fe608060405234801561001057600080fd5b50600436106100df5760003560e01c8063961d00f11161008c578063cd57831411610066578063cd57831414610277578063ce70be761461028a578063f30e6e9b1461029d578063f8e7ef93146102e657600080fd5b8063961d00f1146101b957806396f979d2146101cc578063b224b4e91461026457600080fd5b80637f725cfa116100bd5780637f725cfa1461017e5780637f7d6eba146101935780638529934b146101a657600080fd5b806335986b2d146100e4578063365cfcbf1461010a57806359e6951d1461014e575b600080fd5b6100f76100f2366004611790565b6102ee565b6040519081526020015b60405180910390f35b61011d6101183660046117ba565b61031f565b604080519586526020860194909452928401919091526001600160a01b03166060830152608082015260a001610101565b61016161015c3660046117dc565b610376565b604080519283526001600160a01b03909116602083015201610101565b61019161018c3660046118ab565b6105bf565b005b6101916101a13660046117ba565b610660565b6101916101b436600461194f565b6106ff565b6101916101c736600461199b565b61082a565b6102216101da366004611a76565b6000602081905290815260409020805460018201546002830154600384015460048501546005860154600690960154949593946001600160a01b0390931693919290919087565b6040805197885260208801969096526001600160a01b03909416948601949094526060850191909152608084015260a083019190915260c082015260e001610101565b610191610272366004611a8f565b6109f4565b610191610285366004611af3565b610a92565b61019161029836600461199b565b610b6b565b6102b06102ab3660046117dc565b610ce8565b6040805195865260208601949094526001600160a01b03909216928401929092526060830191909152608082015260a001610101565b610191611050565b6001602052816000526040600020818154811061030a57600080fd5b90600052602060002001600091509150505481565b6002602052816000526040600020818154811061033b57600080fd5b600091825260209091206006909102018054600182015460028301546003840154600590940154929550909350916001600160a01b03169085565b600082815260208181526040808320815160e081018352815480825260018301549482019490945260028201546001600160a01b0316928101929092526003810154606083015260048101546080830152600581015460a08301526006015460c08201528291820361042f5760405162461bcd60e51b815260206004820152600760248201527f216578697374730000000000000000000000000000000000000000000000000060448201526064015b60405180910390fd5b836001600160a01b031681604001516001600160a01b0316036104945760405162461bcd60e51b815260206004820152601c60248201527f2163616e5f7375627363726962655f746f5f6f776e5f636f75727365000000006044820152606401610426565b6000858152600260208181526040808420815160c080820184528b8252428286019081526060898101519584019586526001600160a01b038d811682860190815260808601838152948c015160a0870152865460018082018955978c529a89902086516006909c02019a8b559251958a0195909555945196880196909655945160038701805473ffffffffffffffffffffffffffffffffffffffff1916919093161790915592518051919492610552926004850192909101906116f3565b5060a09190910151600590910155604080518781526001600160a01b038716602082015260018183015290517ffc3ced06dca988f1666d0ec0f7c1170397e5e5876cfc381a64fbff0f322790849181900360600190a1816060015182604001519350935050509250929050565b6000868152602081905260409020600201546001600160a01b031633146106175760405162461bcd60e51b815260206004820152600c60248201526b085d5b985d1a1bdc9a5e995960a21b6044820152606401610426565b7f2192f72c75220c2c61bb3cd95e52bce92f8961f415f3bfe834a9bc2ca23ec86386868686868660405161065096959493929190611bd3565b60405180910390a1505050505050565b600061066c8333611522565b60008481526002602052604090208054919250908290811061069057610690611c28565b6000918252602080832060046006909302019190910180546001810182559083529120018290556040517fb3ffbf473064ef97c9dfff7d9cb6d54b11eb91726fdb6e7804931583f9b739a5906106f29085908590918252602082015260400190565b60405180910390a1505050565b6000838152602081905260409020600201546001600160a01b038381169116146107595760405162461bcd60e51b815260206004820152600b60248201526a08585d5d1a1bdc9a5e995960aa1b6044820152606401610426565b600083815260208181526040808320600201805473ffffffffffffffffffffffffffffffffffffffff19166001600160a01b038681169190911790915585168352600190915290208054849081106107b3576107b3611c28565b60009182526020808320919091018290556001600160a01b03838116808452600180845260408086208054928301815586529484902001879055835187815291861692820192909252918201527f2fd7dc3aeb254842908e4dc655cdfd549a0d3825eaf02e31cd71b1c3df1c751a906060016106f2565b600088815260208190526040902054156108865760405162461bcd60e51b815260206004820152600660248201527f65786973747300000000000000000000000000000000000000000000000000006044820152606401610426565b6040518060e00160405280898152602001888152602001336001600160a01b031681526020018781526020014281526020014281526020016000808b8152602001908152602001600020600601548152506000808a8152602001908152602001600020600082015181600001556020820151816001015560408201518160020160006101000a8154816001600160a01b0302191690836001600160a01b03160217905550606082015181600301556080820151816004015560a0820151816005015560c0820151816006015590505060016000336001600160a01b03166001600160a01b031681526020019081526020016000208890806001815401808255809150506001900390600052602060002001600090919091909150557f488034406293bf721e96d002a170591a3e896f7e941dee78d9f10a8dc20d58868886868a8787338d89426040516109e29a99989796959493929190611c3e565b60405180910390a15050505050505050565b6007546001600160a01b03163314610a3c5760405162461bcd60e51b815260206004820152600b60248201526a08585d5d1a1bdc9a5e995960aa1b6044820152606401610426565b60048054906000610a4c83611ce5565b91905055507f2a65d0fe76508fb4e604d4804927dce75b70f82e64a2025e3bffb2fc003418506004548383604051610a8693929190611cfe565b60405180910390a15050565b6000858152602081905260409020600201546001600160a01b03163314610aea5760405162461bcd60e51b815260206004820152600c60248201526b085d5b985d1a1bdc9a5e995960a21b6044820152606401610426565b6000858152602081905260408120600601805491610b0783611ce5565b909155505060058054906000610b1c83611ce5565b91905055507f2192f72c75220c2c61bb3cd95e52bce92f8961f415f3bfe834a9bc2ca23ec8638585858585600554604051610b5c96959493929190611bd3565b60405180910390a15050505050565b6000888152602081905260409020600201546001600160a01b03163314610bc35760405162461bcd60e51b815260206004820152600c60248201526b085d5b985d1a1bdc9a5e995960a21b6044820152606401610426565b6040518060e00160405280898152602001888152602001336001600160a01b031681526020018781526020016000808b81526020019081526020016000206004015481526020014281526020016000808b8152602001908152602001600020600601548152506000808a8152602001908152602001600020600082015181600001556020820151816001015560408201518160020160006101000a8154816001600160a01b0302191690836001600160a01b03160217905550606082015181600301556080820151816004015560a0820151816005015560c082015181600601559050507f488034406293bf721e96d002a170591a3e896f7e941dee78d9f10a8dc20d58868886868a8787338d89426040516109e29a99989796959493929190611c3e565b600080600080600080610cfb8888611522565b60008981526002602052604081208054929350909183908110610d2057610d20611c28565b60009182526020918290206040805160c08101825260069093029091018054835260018101548385015260028101548383015260038101546001600160a01b0316606084015260048101805483518187028101870190945280845293949193608086019392830182828015610db457602002820191906000526020600020905b815481526020019060010190808311610da0575b505050918352505060059182015460209182015260008c8152808252604090819020815160e0810183528154815260018201549381019390935260028101546001600160a01b03169183019190915260038101546060830152600481015460808301529182015460a082015260069091015460c0820152909150610e3b4262127500611d33565b826020015110610e8d5760405162461bcd60e51b815260206004820152600760248201527f3e327765656b73000000000000000000000000000000000000000000000000006044820152606401610426565b60008260800151518360a00151610ea49190611d46565b905060008111610ef65760405162461bcd60e51b815260206004820152601c60248201527f21796f755f63616e745f726566756e645f746869735f636f75727365000000006044820152606401610426565b60008b8152600260205260409020805485908110610f1657610f16611c28565b600091825260208220600690910201818155600181018290556002810182905560038101805473ffffffffffffffffffffffffffffffffffffffff1916905590610f63600483018261173e565b60058201600090555050600083604001518460a0015183610f849190611d59565b610f8e9190611d7b565b90506000846040015182610fa29190611d46565b90506000808215610fd5576064600654610fbc9190611d59565b610fc69084611d7b565b9150610fd28284611d46565b90505b7ffc3ced06dca988f1666d0ec0f7c1170397e5e5876cfc381a64fbff0f322790848f8f6000604051611025939291909283526001600160a01b039190911660208301521515604082015260600190565b60405180910390a16040958601519690950151929e909d50949b509099509197509195505050505050565b6007546001600160a01b031633146110985760405162461bcd60e51b815260206004820152600b60248201526a08585d5d1a1bdc9a5e995960aa1b6044820152606401610426565b61110c6040518060400160405280600e81526020017f57656220446576656c6f70656e740000000000000000000000000000000000008152506040518060400160405280601481526020017f7765622d646576656c6f706d656e742e776562700000000000000000000000008152506109f4565b6111806040518060400160405280600681526020017f47616d696e6700000000000000000000000000000000000000000000000000008152506040518060400160405280600b81526020017f67616d696e672e776562700000000000000000000000000000000000000000008152506109f4565b6111f46040518060400160405280600781526020017f436f6f6b696e67000000000000000000000000000000000000000000000000008152506040518060400160405280600c81526020017f636f6f6b696e672e7765627000000000000000000000000000000000000000008152506109f4565b6112686040518060400160405280600981526020017f416e696d6174696f6e00000000000000000000000000000000000000000000008152506040518060400160405280600e81526020017f616e696d6174696f6e2e776562700000000000000000000000000000000000008152506109f4565b6112dc6040518060400160405280600981526020017f4d61726b6574696e6700000000000000000000000000000000000000000000008152506040518060400160405280600e81526020017f6d61726b6574696e672e776562700000000000000000000000000000000000008152506109f4565b6113506040518060400160405280600c81526020017f4461746120536369656e636500000000000000000000000000000000000000008152506040518060400160405280601181526020017f646174612d736369656e63652e776562700000000000000000000000000000008152506109f4565b6113c46040518060400160405280600b81526020017f50686f746f6772617068790000000000000000000000000000000000000000008152506040518060400160405280601081526020017f70686f746f6772617068792e77656270000000000000000000000000000000008152506109f4565b6114386040518060400160405280600581526020017f4d757369630000000000000000000000000000000000000000000000000000008152506040518060400160405280600a81526020017f6d757369632e77656270000000000000000000000000000000000000000000008152506109f4565b6114ac6040518060400160405280600881526020017f537065616b696e670000000000000000000000000000000000000000000000008152506040518060400160405280600d81526020017f737065616b696e672e77656270000000000000000000000000000000000000008152506109f4565b6115206040518060400160405280600f81526020017f55492f55582044657369676e696e6700000000000000000000000000000000008152506040518060400160405280600a81526020017f75692d75782e77656270000000000000000000000000000000000000000000008152506109f4565b565b600082815260026020908152604080832080548251818502810185019093528083528493849084015b828210156116085760008481526020908190206040805160c081018252600686029092018054835260018101548385015260028101548383015260038101546001600160a01b03166060840152600481018054835181870281018701909452808452939491936080860193928301828280156115e657602002820191906000526020600020905b8154815260200190600101908083116115d2575b505050505081526020016005820154815250508152602001906001019061154b565b5050505090506000600019905060005b825181101561167157846001600160a01b031683828151811061163d5761163d611c28565b6020026020010151606001516001600160a01b03160361165f57809150611671565b8061166981611d9a565b915050611618565b5060008112156116e95760405162461bcd60e51b815260206004820152602660248201527f21796f755f6172655f6e6f745f737562736372696265645f746f5f746869735f60448201527f636f7572736500000000000000000000000000000000000000000000000000006064820152608401610426565b9150505b92915050565b82805482825590600052602060002090810192821561172e579160200282015b8281111561172e578251825591602001919060010190611713565b5061173a92915061175f565b5090565b508054600082559060005260206000209081019061175c919061175f565b50565b5b8082111561173a5760008155600101611760565b80356001600160a01b038116811461178b57600080fd5b919050565b600080604083850312156117a357600080fd5b6117ac83611774565b946020939093013593505050565b600080604083850312156117cd57600080fd5b50508035926020909101359150565b600080604083850312156117ef57600080fd5b823591506117ff60208401611774565b90509250929050565b634e487b7160e01b600052604160045260246000fd5b600082601f83011261182f57600080fd5b813567ffffffffffffffff8082111561184a5761184a611808565b604051601f8301601f19908116603f0116810190828211818310171561187257611872611808565b8160405283815286602085880101111561188b57600080fd5b836020870160208301376000602085830101528094505050505092915050565b60008060008060008060c087890312156118c457600080fd5b86359550602087013567ffffffffffffffff808211156118e357600080fd5b6118ef8a838b0161181e565b9650604089013591508082111561190557600080fd5b6119118a838b0161181e565b9550606089013591508082111561192757600080fd5b5061193489828a0161181e565b9350506080870135915060a087013590509295509295509295565b60008060006060848603121561196457600080fd5b8335925061197460208501611774565b915061198260408501611774565b90509250925092565b8035801515811461178b57600080fd5b600080600080600080600080610100898b0312156119b857600080fd5b883597506020890135965060408901359550606089013567ffffffffffffffff808211156119e557600080fd5b6119f18c838d0161181e565b965060808b0135915080821115611a0757600080fd5b611a138c838d0161181e565b955060a08b0135915080821115611a2957600080fd5b611a358c838d0161181e565b945060c08b0135915080821115611a4b57600080fd5b50611a588b828c0161181e565b925050611a6760e08a0161198b565b90509295985092959890939650565b600060208284031215611a8857600080fd5b5035919050565b60008060408385031215611aa257600080fd5b823567ffffffffffffffff80821115611aba57600080fd5b611ac68683870161181e565b93506020850135915080821115611adc57600080fd5b50611ae98582860161181e565b9150509250929050565b600080600080600060a08688031215611b0b57600080fd5b85359450602086013567ffffffffffffffff80821115611b2a57600080fd5b611b3689838a0161181e565b95506040880135915080821115611b4c57600080fd5b611b5889838a0161181e565b94506060880135915080821115611b6e57600080fd5b50611b7b8882890161181e565b95989497509295608001359392505050565b6000815180845260005b81811015611bb357602081850181015186830182015201611b97565b506000602082860101526020601f19601f83011685010191505092915050565b86815260c060208201526000611bec60c0830188611b8d565b8281036040840152611bfe8188611b8d565b90508281036060840152611c128187611b8d565b6080840195909552505060a00152949350505050565b634e487b7160e01b600052603260045260246000fd5b60006101408c8352806020840152611c588184018d611b8d565b90508281036040840152611c6c818c611b8d565b90508960608401528281036080840152611c86818a611b8d565b905082810360a0840152611c9a8189611b8d565b6001600160a01b039790971660c0840152505060e0810193909352901515610100830152610120909101529695505050505050565b634e487b7160e01b600052601160045260246000fd5b600060018201611cf757611cf7611ccf565b5060010190565b838152606060208201526000611d176060830185611b8d565b8281036040840152611d298185611b8d565b9695505050505050565b808201808211156116ed576116ed611ccf565b818103818111156116ed576116ed611ccf565b600082611d7657634e487b7160e01b600052601260045260246000fd5b500490565b6000816000190483118215151615611d9557611d95611ccf565b500290565b60007f7fffffffffffffffffffffffffffffffffffffffffffffffffffffffffffffff8203611cf757611cf7611ccf56fea26469706673582212200ae49b0363ecba2d0fa2cbd1b51075afe56900d8be99775741d123999d48c92b64736f6c63430008100033",
  "immutableReferences": {},
  "source": "// SPDX-License-Identifier: GPL-3.0\npragma solidity >=0.7.0 <0.9.0;\n\nimport {Models} from \"./base/Models.sol\";\n\ncontract BdlCourse {\n    /* all ecosystem courses */\n    mapping(uint => Models.Course) public courses;\n\n    /* creator => course id */\n    mapping(address => uint[]) public createdCourses;\n\n    /* holds all course subscriptions */\n    mapping(uint => Models.Subscription[]) public subscriptions;\n\n    /* 2 weeks */\n    uint private refundableDuration = 10000;\n\n    uint private categoryCount = 0;\n    uint private sectionsCount = 0;\n\n    uint private salesFee = 8; // eight percent\n\n    address private deployer;\n\n    constructor() {\n        deployer = msg.sender;\n    }\n\n    // == learner related functions == //\n\n    /* function to subscribe to a course */\n    function subscribe(uint id, address learner)\n        external\n        returns (uint256, address)\n    {\n        Models.Course memory course = courses[id];\n\n        require(course.id != 0, \"!exists\");\n        require(course.creator != learner, \"!can_subscribe_to_own_course\");\n\n        uint[] memory viewed;\n\n        subscriptions[id].push(\n            Models.Subscription(\n                id,\n                block.timestamp,\n                course.price,\n                learner,\n                viewed,\n                course.sections\n            )\n        );\n\n        emit Subscription(id, learner, true);\n        return (course.price, course.creator);\n    }\n\n    // == creator related functions == //\n\n    // testing purpose\n    function mintCategories() public onlyOwner {\n        createCategory(\"Web Developent\", \"web-development.webp\");\n        createCategory(\"Gaming\", \"gaming.webp\");\n        createCategory(\"Cooking\", \"cooking.webp\");\n        createCategory(\"Animation\", \"animation.webp\");\n        createCategory(\"Marketing\", \"marketing.webp\");\n        createCategory(\"Data Science\", \"data-science.webp\");\n        createCategory(\"Photography\", \"photography.webp\");\n        createCategory(\"Music\", \"music.webp\");\n        createCategory(\"Speaking\", \"speaking.webp\");\n        createCategory(\"UI/UX Designing\", \"ui-ux.webp\");\n    }\n\n    function createCategory(string memory name, string memory image)\n        public\n        onlyOwner\n    {\n        categoryCount++;\n        emit Category(categoryCount, name, image);\n    }\n\n    /* create a new course */\n    function createCourse(\n        uint id,\n        uint category,\n        uint256 price,\n        /* course metadata */\n        string memory name,\n        string memory description,\n        string memory thumbnail,\n        string memory previewSrc,\n        bool publish\n    ) external {\n        require(courses[id].id == 0, \"exists\");\n\n        courses[id] = Models.Course(\n            id,\n            category,\n            msg.sender,\n            price,\n            block.timestamp,\n            block.timestamp,\n            courses[id].sections\n        );\n\n        createdCourses[msg.sender].push(id);\n\n        emit Course(\n            id,\n            name,\n            description,\n            category,\n            thumbnail,\n            previewSrc,\n            msg.sender,\n            price,\n            publish,\n            block.timestamp\n        );\n    }\n\n    /* updates existing course */\n    function updateCourse(\n        uint id,\n        uint category,\n        uint256 price,\n        /* course metadata */\n        string memory name,\n        string memory description,\n        string memory thumbnail,\n        string memory previewSrc,\n        bool publish\n    ) external {\n        require(courses[id].creator == msg.sender, \"!unathorized\");\n\n        courses[id] = Models.Course(\n            id,\n            category,\n            msg.sender,\n            price,\n            courses[id].createdAt,\n            block.timestamp,\n            courses[id].sections\n        );\n\n        emit Course(\n            id,\n            name,\n            description,\n            category,\n            thumbnail,\n            previewSrc,\n            msg.sender,\n            price,\n            publish,\n            block.timestamp\n        );\n    }\n\n    /* creates a course section */\n    function createCourseSection(\n        uint id,\n        string memory title,\n        string memory content,\n        string memory src,\n        uint duration\n    ) public {\n        require(courses[id].creator == msg.sender, \"!unathorized\");\n        courses[id].sections++;\n        sectionsCount++;\n        emit CourseSection(id, title, content, src, duration, sectionsCount);\n    }\n\n    /* updates a course section */\n    function updateCourseSection(\n        uint id,\n        string memory title,\n        string memory content,\n        string memory src,\n        uint duration,\n        uint sectionId\n    ) public {\n        require(courses[id].creator == msg.sender, \"!unathorized\");\n        emit CourseSection(id, title, content, src, duration, sectionId);\n    }\n\n    /* transfer course onwership */\n    function tranfersCourse(\n        uint id,\n        address creator,\n        address receiver\n    ) external {\n        require(courses[id].creator == creator, \"!authorized\");\n        courses[id].creator = receiver;\n\n        delete createdCourses[creator][id];\n        createdCourses[receiver].push(id);\n\n        emit CourseTransfer(id, creator, receiver);\n    }\n\n    /* view section */\n    function viewSection(uint id, uint sectionId) public {\n        int index = getSubscriptionIndex(id, msg.sender);\n        subscriptions[id][uint(index)].viewed.push(sectionId);\n        emit SectionViewed(id, sectionId);\n    }\n\n    function unSubscribe(uint id, address owner)\n        external\n        returns (\n            uint256,\n            uint256,\n            address,\n            uint256,\n            uint256\n        )\n    {\n        int index = getSubscriptionIndex(id, owner);\n\n        Models.Subscription memory subscription = subscriptions[id][\n            uint(index)\n        ];\n        Models.Course memory course = courses[id];\n\n        require(subscription.time < (block.timestamp + 2 weeks), \">2weeks\");\n\n        uint payableSections = (subscription.sections -\n            subscription.viewed.length);\n\n        require(payableSections > 0, \"!you_cant_refund_this_course\");\n\n        /* user has unsubscribe */\n        delete subscriptions[id][uint(index)];\n\n        uint256 payableAmount = ((payableSections / subscription.sections) *\n            subscription.price);\n\n        uint256 netEarnings = (payableAmount - subscription.price);\n\n        uint256 earnings;\n        uint256 platformEarnings;\n        if (netEarnings > 0) {\n            earnings = (netEarnings * (salesFee / 100));\n            platformEarnings = netEarnings - earnings;\n        }\n\n        emit Subscription(id, owner, false);\n\n        return (\n            payableAmount,\n            earnings,\n            course.creator,\n            subscription.price,\n            platformEarnings\n        );\n    }\n\n    function getSubscriptionIndex(uint courseId, address owner)\n        private\n        view\n        returns (int)\n    {\n        Models.Subscription[] memory _subscriptions = subscriptions[courseId];\n        int _index = -1;\n\n        for (int index = 0; uint(index) < _subscriptions.length; index++) {\n            if (_subscriptions[uint(index)].owner == owner) {\n                _index = index;\n                break;\n            }\n        }\n\n        require(_index >= 0, \"!you_are_not_subscribed_to_this_course\");\n        return _index;\n    }\n\n    // == events == //\n    event Subscription(uint courseId, address learner, bool status);\n    event CourseTransfer(uint id, address creator, address receiver);\n    event Category(uint id, string name, string image);\n    event Course(\n        uint id,\n        string name,\n        string description,\n        uint category,\n        string thumbnail,\n        string previewSrc,\n        address creator,\n        uint256 price,\n        bool publish,\n        uint updatedAt\n    );\n    event CourseSection(\n        uint id,\n        string title,\n        string content,\n        string src,\n        uint duration,\n        uint sectionId\n    );\n    event SectionViewed(uint id, uint sectionId);\n\n    // == modifiers == //\n    modifier onlyOwner() {\n        require(msg.sender == deployer, \"!authorized\");\n        _;\n    }\n}\n",
  "sourcePath": "C:\\Users\\Arogundade Ibrahim\\Documents\\web3\\Buidl\\contracts\\BdlCourse.sol",
  "compiler": {
    "name": "solc",
    "version": "0.8.16+commit.07a7930e.Emscripten.clang"
  },
  "schemaVersion": "3.4.10",
  "updatedAt": "2022-11-01T18:13:48.347Z",
  "devdoc": {
    "kind": "dev",
    "methods": {},
    "version": 1
  },
  "userdoc": {
    "kind": "user",
    "methods": {},
    "version": 1
  }
}