{
  "contractName": "BdlCourse",
  "abi": [
    {
      "inputs": [],
      "stateMutability": "nonpayable",
      "type": "constructor"
    },
    {
      "anonymous": false,
      "inputs": [
        {
          "indexed": false,
          "internalType": "uint256",
          "name": "id",
          "type": "uint256"
        },
        {
          "indexed": false,
          "internalType": "string",
          "name": "name",
          "type": "string"
        },
        {
          "indexed": false,
          "internalType": "string",
          "name": "image",
          "type": "string"
        }
      ],
      "name": "Category",
      "type": "event"
    },
    {
      "anonymous": false,
      "inputs": [
        {
          "indexed": false,
          "internalType": "uint256",
          "name": "id",
          "type": "uint256"
        },
        {
          "indexed": false,
          "internalType": "string",
          "name": "name",
          "type": "string"
        },
        {
          "indexed": false,
          "internalType": "string",
          "name": "description",
          "type": "string"
        },
        {
          "indexed": false,
          "internalType": "uint256",
          "name": "category",
          "type": "uint256"
        },
        {
          "indexed": false,
          "internalType": "string",
          "name": "thumbnail",
          "type": "string"
        },
        {
          "indexed": false,
          "internalType": "string",
          "name": "previewSrc",
          "type": "string"
        },
        {
          "indexed": false,
          "internalType": "address",
          "name": "creator",
          "type": "address"
        },
        {
          "indexed": false,
          "internalType": "uint256",
          "name": "price",
          "type": "uint256"
        },
        {
          "indexed": false,
          "internalType": "bool",
          "name": "publish",
          "type": "bool"
        },
        {
          "indexed": false,
          "internalType": "uint256",
          "name": "updatedAt",
          "type": "uint256"
        }
      ],
      "name": "Course",
      "type": "event"
    },
    {
      "anonymous": false,
      "inputs": [
        {
          "indexed": false,
          "internalType": "uint256",
          "name": "id",
          "type": "uint256"
        },
        {
          "indexed": false,
          "internalType": "string",
          "name": "title",
          "type": "string"
        },
        {
          "indexed": false,
          "internalType": "string",
          "name": "content",
          "type": "string"
        },
        {
          "indexed": false,
          "internalType": "string",
          "name": "src",
          "type": "string"
        },
        {
          "indexed": false,
          "internalType": "uint256",
          "name": "duration",
          "type": "uint256"
        },
        {
          "indexed": false,
          "internalType": "uint256",
          "name": "sectionId",
          "type": "uint256"
        }
      ],
      "name": "CourseSection",
      "type": "event"
    },
    {
      "anonymous": false,
      "inputs": [
        {
          "indexed": false,
          "internalType": "uint256",
          "name": "id",
          "type": "uint256"
        },
        {
          "indexed": false,
          "internalType": "address",
          "name": "creator",
          "type": "address"
        },
        {
          "indexed": false,
          "internalType": "address",
          "name": "receiver",
          "type": "address"
        }
      ],
      "name": "CourseTransfer",
      "type": "event"
    },
    {
      "anonymous": false,
      "inputs": [
        {
          "indexed": false,
          "internalType": "uint256",
          "name": "id",
          "type": "uint256"
        },
        {
          "indexed": false,
          "internalType": "uint256",
          "name": "sectionId",
          "type": "uint256"
        }
      ],
      "name": "SectionViewed",
      "type": "event"
    },
    {
      "anonymous": false,
      "inputs": [
        {
          "indexed": false,
          "internalType": "uint256",
          "name": "courseId",
          "type": "uint256"
        },
        {
          "indexed": false,
          "internalType": "address",
          "name": "learner",
          "type": "address"
        },
        {
          "indexed": false,
          "internalType": "bool",
          "name": "status",
          "type": "bool"
        }
      ],
      "name": "Subscription",
      "type": "event"
    },
    {
      "inputs": [
        {
          "internalType": "uint256",
          "name": "",
          "type": "uint256"
        }
      ],
      "name": "courses",
      "outputs": [
        {
          "internalType": "uint256",
          "name": "id",
          "type": "uint256"
        },
        {
          "internalType": "uint256",
          "name": "category",
          "type": "uint256"
        },
        {
          "internalType": "address",
          "name": "creator",
          "type": "address"
        },
        {
          "internalType": "uint256",
          "name": "price",
          "type": "uint256"
        },
        {
          "internalType": "uint256",
          "name": "createdAt",
          "type": "uint256"
        },
        {
          "internalType": "uint256",
          "name": "updatedAt",
          "type": "uint256"
        },
        {
          "internalType": "uint256",
          "name": "sections",
          "type": "uint256"
        }
      ],
      "stateMutability": "view",
      "type": "function"
    },
    {
      "inputs": [
        {
          "internalType": "address",
          "name": "",
          "type": "address"
        },
        {
          "internalType": "uint256",
          "name": "",
          "type": "uint256"
        }
      ],
      "name": "createdCourses",
      "outputs": [
        {
          "internalType": "uint256",
          "name": "",
          "type": "uint256"
        }
      ],
      "stateMutability": "view",
      "type": "function"
    },
    {
      "inputs": [
        {
          "internalType": "uint256",
          "name": "",
          "type": "uint256"
        },
        {
          "internalType": "uint256",
          "name": "",
          "type": "uint256"
        }
      ],
      "name": "subscriptions",
      "outputs": [
        {
          "internalType": "uint256",
          "name": "course",
          "type": "uint256"
        },
        {
          "internalType": "uint256",
          "name": "time",
          "type": "uint256"
        },
        {
          "internalType": "uint256",
          "name": "price",
          "type": "uint256"
        },
        {
          "internalType": "address",
          "name": "owner",
          "type": "address"
        },
        {
          "internalType": "uint256",
          "name": "sections",
          "type": "uint256"
        }
      ],
      "stateMutability": "view",
      "type": "function"
    },
    {
      "inputs": [
        {
          "internalType": "uint256",
          "name": "id",
          "type": "uint256"
        },
        {
          "internalType": "address",
          "name": "learner",
          "type": "address"
        }
      ],
      "name": "subscribe",
      "outputs": [
        {
          "internalType": "uint256",
          "name": "",
          "type": "uint256"
        },
        {
          "internalType": "address",
          "name": "",
          "type": "address"
        }
      ],
      "stateMutability": "nonpayable",
      "type": "function"
    },
    {
      "inputs": [],
      "name": "mintCategories",
      "outputs": [],
      "stateMutability": "nonpayable",
      "type": "function"
    },
    {
      "inputs": [
        {
          "internalType": "string",
          "name": "name",
          "type": "string"
        },
        {
          "internalType": "string",
          "name": "image",
          "type": "string"
        }
      ],
      "name": "createCategory",
      "outputs": [],
      "stateMutability": "nonpayable",
      "type": "function"
    },
    {
      "inputs": [
        {
          "internalType": "uint256",
          "name": "id",
          "type": "uint256"
        },
        {
          "internalType": "uint256",
          "name": "category",
          "type": "uint256"
        },
        {
          "internalType": "uint256",
          "name": "price",
          "type": "uint256"
        },
        {
          "internalType": "string",
          "name": "name",
          "type": "string"
        },
        {
          "internalType": "string",
          "name": "description",
          "type": "string"
        },
        {
          "internalType": "string",
          "name": "thumbnail",
          "type": "string"
        },
        {
          "internalType": "string",
          "name": "previewSrc",
          "type": "string"
        },
        {
          "internalType": "bool",
          "name": "publish",
          "type": "bool"
        }
      ],
      "name": "createCourse",
      "outputs": [],
      "stateMutability": "nonpayable",
      "type": "function"
    },
    {
      "inputs": [
        {
          "internalType": "uint256",
          "name": "id",
          "type": "uint256"
        },
        {
          "internalType": "uint256",
          "name": "category",
          "type": "uint256"
        },
        {
          "internalType": "uint256",
          "name": "price",
          "type": "uint256"
        },
        {
          "internalType": "string",
          "name": "name",
          "type": "string"
        },
        {
          "internalType": "string",
          "name": "description",
          "type": "string"
        },
        {
          "internalType": "string",
          "name": "thumbnail",
          "type": "string"
        },
        {
          "internalType": "string",
          "name": "previewSrc",
          "type": "string"
        },
        {
          "internalType": "bool",
          "name": "publish",
          "type": "bool"
        }
      ],
      "name": "updateCourse",
      "outputs": [],
      "stateMutability": "nonpayable",
      "type": "function"
    },
    {
      "inputs": [
        {
          "internalType": "uint256",
          "name": "id",
          "type": "uint256"
        },
        {
          "internalType": "string",
          "name": "title",
          "type": "string"
        },
        {
          "internalType": "string",
          "name": "content",
          "type": "string"
        },
        {
          "internalType": "string",
          "name": "src",
          "type": "string"
        },
        {
          "internalType": "uint256",
          "name": "duration",
          "type": "uint256"
        }
      ],
      "name": "createCourseSection",
      "outputs": [],
      "stateMutability": "nonpayable",
      "type": "function"
    },
    {
      "inputs": [
        {
          "internalType": "uint256",
          "name": "id",
          "type": "uint256"
        },
        {
          "internalType": "string",
          "name": "title",
          "type": "string"
        },
        {
          "internalType": "string",
          "name": "content",
          "type": "string"
        },
        {
          "internalType": "string",
          "name": "src",
          "type": "string"
        },
        {
          "internalType": "uint256",
          "name": "duration",
          "type": "uint256"
        },
        {
          "internalType": "uint256",
          "name": "sectionId",
          "type": "uint256"
        }
      ],
      "name": "updateCourseSection",
      "outputs": [],
      "stateMutability": "nonpayable",
      "type": "function"
    },
    {
      "inputs": [
        {
          "internalType": "uint256",
          "name": "id",
          "type": "uint256"
        },
        {
          "internalType": "address",
          "name": "creator",
          "type": "address"
        },
        {
          "internalType": "address",
          "name": "receiver",
          "type": "address"
        }
      ],
      "name": "tranfersCourse",
      "outputs": [],
      "stateMutability": "nonpayable",
      "type": "function"
    },
    {
      "inputs": [
        {
          "internalType": "uint256",
          "name": "id",
          "type": "uint256"
        },
        {
          "internalType": "uint256",
          "name": "sectionId",
          "type": "uint256"
        }
      ],
      "name": "viewSection",
      "outputs": [],
      "stateMutability": "nonpayable",
      "type": "function"
    },
    {
      "inputs": [
        {
          "internalType": "uint256",
          "name": "id",
          "type": "uint256"
        },
        {
          "internalType": "address",
          "name": "owner",
          "type": "address"
        }
      ],
      "name": "unSubscribe",
      "outputs": [
        {
          "internalType": "uint256",
          "name": "",
          "type": "uint256"
        },
        {
          "internalType": "uint256",
          "name": "",
          "type": "uint256"
        },
        {
          "internalType": "address",
          "name": "",
          "type": "address"
        },
        {
          "internalType": "uint256",
          "name": "",
          "type": "uint256"
        }
      ],
      "stateMutability": "nonpayable",
      "type": "function"
    }
  ],
  "bytecode": "0x608060405261271060035560006004556000600555600860065534801561002557600080fd5b50600780546001600160a01b03191633179055611deb806100476000396000f3fe608060405234801561001057600080fd5b50600436106100df5760003560e01c8063961d00f11161008c578063cd57831411610066578063cd57831414610277578063ce70be761461028a578063f30e6e9b1461029d578063f8e7ef93146102df57600080fd5b8063961d00f1146101b957806396f979d2146101cc578063b224b4e91461026457600080fd5b80637f725cfa116100bd5780637f725cfa1461017e5780637f7d6eba146101935780638529934b146101a657600080fd5b806335986b2d146100e4578063365cfcbf1461010a57806359e6951d1461014e575b600080fd5b6100f76100f236600461177a565b6102e7565b6040519081526020015b60405180910390f35b61011d6101183660046117a4565b610318565b604080519586526020860194909452928401919091526001600160a01b03166060830152608082015260a001610101565b61016161015c3660046117c6565b61036f565b604080519283526001600160a01b03909116602083015201610101565b61019161018c366004611895565b6105b8565b005b6101916101a13660046117a4565b610659565b6101916101b4366004611939565b6106f8565b6101916101c7366004611985565b610823565b6102216101da366004611a60565b6000602081905290815260409020805460018201546002830154600384015460048501546005860154600690960154949593946001600160a01b0390931693919290919087565b6040805197885260208801969096526001600160a01b03909416948601949094526060850191909152608084015260a083019190915260c082015260e001610101565b610191610272366004611a79565b6109ed565b610191610285366004611add565b610a8b565b610191610298366004611985565b610b64565b6102b06102ab3660046117c6565b610ce1565b604051610101949392919093845260208401929092526001600160a01b03166040830152606082015260800190565b61019161103a565b6001602052816000526040600020818154811061030357600080fd5b90600052602060002001600091509150505481565b6002602052816000526040600020818154811061033457600080fd5b600091825260209091206006909102018054600182015460028301546003840154600590940154929550909350916001600160a01b03169085565b600082815260208181526040808320815160e081018352815480825260018301549482019490945260028201546001600160a01b0316928101929092526003810154606083015260048101546080830152600581015460a08301526006015460c0820152829182036104285760405162461bcd60e51b815260206004820152600760248201527f216578697374730000000000000000000000000000000000000000000000000060448201526064015b60405180910390fd5b836001600160a01b031681604001516001600160a01b03160361048d5760405162461bcd60e51b815260206004820152601c60248201527f2163616e5f7375627363726962655f746f5f6f776e5f636f7572736500000000604482015260640161041f565b6000858152600260208181526040808420815160c080820184528b8252428286019081526060898101519584019586526001600160a01b038d811682860190815260808601838152948c015160a0870152865460018082018955978c529a89902086516006909c02019a8b559251958a0195909555945196880196909655945160038701805473ffffffffffffffffffffffffffffffffffffffff191691909316179091559251805191949261054b926004850192909101906116dd565b5060a09190910151600590910155604080518781526001600160a01b038716602082015260018183015290517ffc3ced06dca988f1666d0ec0f7c1170397e5e5876cfc381a64fbff0f322790849181900360600190a1816060015182604001519350935050509250929050565b6000868152602081905260409020600201546001600160a01b031633146106105760405162461bcd60e51b815260206004820152600c60248201526b085d5b985d1a1bdc9a5e995960a21b604482015260640161041f565b7f2192f72c75220c2c61bb3cd95e52bce92f8961f415f3bfe834a9bc2ca23ec86386868686868660405161064996959493929190611bbd565b60405180910390a1505050505050565b6000610665833361150c565b60008481526002602052604090208054919250908290811061068957610689611c12565b6000918252602080832060046006909302019190910180546001810182559083529120018290556040517fb3ffbf473064ef97c9dfff7d9cb6d54b11eb91726fdb6e7804931583f9b739a5906106eb9085908590918252602082015260400190565b60405180910390a1505050565b6000838152602081905260409020600201546001600160a01b038381169116146107525760405162461bcd60e51b815260206004820152600b60248201526a08585d5d1a1bdc9a5e995960aa1b604482015260640161041f565b600083815260208181526040808320600201805473ffffffffffffffffffffffffffffffffffffffff19166001600160a01b038681169190911790915585168352600190915290208054849081106107ac576107ac611c12565b60009182526020808320919091018290556001600160a01b03838116808452600180845260408086208054928301815586529484902001879055835187815291861692820192909252918201527f2fd7dc3aeb254842908e4dc655cdfd549a0d3825eaf02e31cd71b1c3df1c751a906060016106eb565b6000888152602081905260409020541561087f5760405162461bcd60e51b815260206004820152600660248201527f6578697374730000000000000000000000000000000000000000000000000000604482015260640161041f565b6040518060e00160405280898152602001888152602001336001600160a01b031681526020018781526020014281526020014281526020016000808b8152602001908152602001600020600601548152506000808a8152602001908152602001600020600082015181600001556020820151816001015560408201518160020160006101000a8154816001600160a01b0302191690836001600160a01b03160217905550606082015181600301556080820151816004015560a0820151816005015560c0820151816006015590505060016000336001600160a01b03166001600160a01b031681526020019081526020016000208890806001815401808255809150506001900390600052602060002001600090919091909150557f488034406293bf721e96d002a170591a3e896f7e941dee78d9f10a8dc20d58868886868a8787338d89426040516109db9a99989796959493929190611c28565b60405180910390a15050505050505050565b6007546001600160a01b03163314610a355760405162461bcd60e51b815260206004820152600b60248201526a08585d5d1a1bdc9a5e995960aa1b604482015260640161041f565b60048054906000610a4583611ccf565b91905055507f2a65d0fe76508fb4e604d4804927dce75b70f82e64a2025e3bffb2fc003418506004548383604051610a7f93929190611ce8565b60405180910390a15050565b6000858152602081905260409020600201546001600160a01b03163314610ae35760405162461bcd60e51b815260206004820152600c60248201526b085d5b985d1a1bdc9a5e995960a21b604482015260640161041f565b6000858152602081905260408120600601805491610b0083611ccf565b909155505060058054906000610b1583611ccf565b91905055507f2192f72c75220c2c61bb3cd95e52bce92f8961f415f3bfe834a9bc2ca23ec8638585858585600554604051610b5596959493929190611bbd565b60405180910390a15050505050565b6000888152602081905260409020600201546001600160a01b03163314610bbc5760405162461bcd60e51b815260206004820152600c60248201526b085d5b985d1a1bdc9a5e995960a21b604482015260640161041f565b6040518060e00160405280898152602001888152602001336001600160a01b031681526020018781526020016000808b81526020019081526020016000206004015481526020014281526020016000808b8152602001908152602001600020600601548152506000808a8152602001908152602001600020600082015181600001556020820151816001015560408201518160020160006101000a8154816001600160a01b0302191690836001600160a01b03160217905550606082015181600301556080820151816004015560a0820151816005015560c082015181600601559050507f488034406293bf721e96d002a170591a3e896f7e941dee78d9f10a8dc20d58868886868a8787338d89426040516109db9a99989796959493929190611c28565b6000806000806000610cf3878761150c565b60008881526002602052604081208054929350909183908110610d1857610d18611c12565b60009182526020918290206040805160c08101825260069093029091018054835260018101548385015260028101548383015260038101546001600160a01b0316606084015260048101805483518187028101870190945280845293949193608086019392830182828015610dac57602002820191906000526020600020905b815481526020019060010190808311610d98575b505050918352505060059182015460209182015260008b81528082526040808220815160e0810183528154815260018201549481019490945260028101546001600160a01b03169184019190915260038101546060840152600481015460808401529283015460a083015260069092015460c0820152919250610e324262127500611d1d565b905080836020015110610e875760405162461bcd60e51b815260206004820152600760248201527f3e327765656b7300000000000000000000000000000000000000000000000000604482015260640161041f565b60008360800151518460a00151610e9e9190611d30565b905060008111610ef05760405162461bcd60e51b815260206004820152601c60248201527f21796f755f63616e745f726566756e645f746869735f636f7572736500000000604482015260640161041f565b600084604001518560a0015183610f079190611d43565b610f119190611d65565b90506000856040015182610f259190611d30565b905060008115610f4b576064600654610f3e9190611d43565b610f489083611d65565b90505b60008e8152600260205260409020805489908110610f6b57610f6b611c12565b600091825260208220600690910201818155600181018290556002810182905560038101805473ffffffffffffffffffffffffffffffffffffffff1916905590610fb86004830182611728565b600582016000905550507ffc3ced06dca988f1666d0ec0f7c1170397e5e5876cfc381a64fbff0f322790848e8e6000604051611012939291909283526001600160a01b039190911660208301521515604082015260600190565b60405180910390a16040958601519690950151919d949c50949a509850919650505050505050565b6007546001600160a01b031633146110825760405162461bcd60e51b815260206004820152600b60248201526a08585d5d1a1bdc9a5e995960aa1b604482015260640161041f565b6110f66040518060400160405280600e81526020017f57656220446576656c6f70656e740000000000000000000000000000000000008152506040518060400160405280601481526020017f7765622d646576656c6f706d656e742e776562700000000000000000000000008152506109ed565b61116a6040518060400160405280600681526020017f47616d696e6700000000000000000000000000000000000000000000000000008152506040518060400160405280600b81526020017f67616d696e672e776562700000000000000000000000000000000000000000008152506109ed565b6111de6040518060400160405280600781526020017f436f6f6b696e67000000000000000000000000000000000000000000000000008152506040518060400160405280600c81526020017f636f6f6b696e672e7765627000000000000000000000000000000000000000008152506109ed565b6112526040518060400160405280600981526020017f416e696d6174696f6e00000000000000000000000000000000000000000000008152506040518060400160405280600e81526020017f616e696d6174696f6e2e776562700000000000000000000000000000000000008152506109ed565b6112c66040518060400160405280600981526020017f4d61726b6574696e6700000000000000000000000000000000000000000000008152506040518060400160405280600e81526020017f6d61726b6574696e672e776562700000000000000000000000000000000000008152506109ed565b61133a6040518060400160405280600c81526020017f4461746120536369656e636500000000000000000000000000000000000000008152506040518060400160405280601181526020017f646174612d736369656e63652e776562700000000000000000000000000000008152506109ed565b6113ae6040518060400160405280600b81526020017f50686f746f6772617068790000000000000000000000000000000000000000008152506040518060400160405280601081526020017f70686f746f6772617068792e77656270000000000000000000000000000000008152506109ed565b6114226040518060400160405280600581526020017f4d757369630000000000000000000000000000000000000000000000000000008152506040518060400160405280600a81526020017f6d757369632e77656270000000000000000000000000000000000000000000008152506109ed565b6114966040518060400160405280600881526020017f537065616b696e670000000000000000000000000000000000000000000000008152506040518060400160405280600d81526020017f737065616b696e672e77656270000000000000000000000000000000000000008152506109ed565b61150a6040518060400160405280600f81526020017f55492f55582044657369676e696e6700000000000000000000000000000000008152506040518060400160405280600a81526020017f75692d75782e77656270000000000000000000000000000000000000000000008152506109ed565b565b600082815260026020908152604080832080548251818502810185019093528083528493849084015b828210156115f25760008481526020908190206040805160c081018252600686029092018054835260018101548385015260028101548383015260038101546001600160a01b03166060840152600481018054835181870281018701909452808452939491936080860193928301828280156115d057602002820191906000526020600020905b8154815260200190600101908083116115bc575b5050505050815260200160058201548152505081526020019060010190611535565b5050505090506000600019905060005b825181101561165b57846001600160a01b031683828151811061162757611627611c12565b6020026020010151606001516001600160a01b0316036116495780915061165b565b8061165381611d84565b915050611602565b5060008112156116d35760405162461bcd60e51b815260206004820152602660248201527f21796f755f6172655f6e6f745f737562736372696265645f746f5f746869735f60448201527f636f757273650000000000000000000000000000000000000000000000000000606482015260840161041f565b9150505b92915050565b828054828255906000526020600020908101928215611718579160200282015b828111156117185782518255916020019190600101906116fd565b50611724929150611749565b5090565b50805460008255906000526020600020908101906117469190611749565b50565b5b80821115611724576000815560010161174a565b80356001600160a01b038116811461177557600080fd5b919050565b6000806040838503121561178d57600080fd5b6117968361175e565b946020939093013593505050565b600080604083850312156117b757600080fd5b50508035926020909101359150565b600080604083850312156117d957600080fd5b823591506117e96020840161175e565b90509250929050565b634e487b7160e01b600052604160045260246000fd5b600082601f83011261181957600080fd5b813567ffffffffffffffff80821115611834576118346117f2565b604051601f8301601f19908116603f0116810190828211818310171561185c5761185c6117f2565b8160405283815286602085880101111561187557600080fd5b836020870160208301376000602085830101528094505050505092915050565b60008060008060008060c087890312156118ae57600080fd5b86359550602087013567ffffffffffffffff808211156118cd57600080fd5b6118d98a838b01611808565b965060408901359150808211156118ef57600080fd5b6118fb8a838b01611808565b9550606089013591508082111561191157600080fd5b5061191e89828a01611808565b9350506080870135915060a087013590509295509295509295565b60008060006060848603121561194e57600080fd5b8335925061195e6020850161175e565b915061196c6040850161175e565b90509250925092565b8035801515811461177557600080fd5b600080600080600080600080610100898b0312156119a257600080fd5b883597506020890135965060408901359550606089013567ffffffffffffffff808211156119cf57600080fd5b6119db8c838d01611808565b965060808b01359150808211156119f157600080fd5b6119fd8c838d01611808565b955060a08b0135915080821115611a1357600080fd5b611a1f8c838d01611808565b945060c08b0135915080821115611a3557600080fd5b50611a428b828c01611808565b925050611a5160e08a01611975565b90509295985092959890939650565b600060208284031215611a7257600080fd5b5035919050565b60008060408385031215611a8c57600080fd5b823567ffffffffffffffff80821115611aa457600080fd5b611ab086838701611808565b93506020850135915080821115611ac657600080fd5b50611ad385828601611808565b9150509250929050565b600080600080600060a08688031215611af557600080fd5b85359450602086013567ffffffffffffffff80821115611b1457600080fd5b611b2089838a01611808565b95506040880135915080821115611b3657600080fd5b611b4289838a01611808565b94506060880135915080821115611b5857600080fd5b50611b6588828901611808565b95989497509295608001359392505050565b6000815180845260005b81811015611b9d57602081850181015186830182015201611b81565b506000602082860101526020601f19601f83011685010191505092915050565b86815260c060208201526000611bd660c0830188611b77565b8281036040840152611be88188611b77565b90508281036060840152611bfc8187611b77565b6080840195909552505060a00152949350505050565b634e487b7160e01b600052603260045260246000fd5b60006101408c8352806020840152611c428184018d611b77565b90508281036040840152611c56818c611b77565b90508960608401528281036080840152611c70818a611b77565b905082810360a0840152611c848189611b77565b6001600160a01b039790971660c0840152505060e0810193909352901515610100830152610120909101529695505050505050565b634e487b7160e01b600052601160045260246000fd5b600060018201611ce157611ce1611cb9565b5060010190565b838152606060208201526000611d016060830185611b77565b8281036040840152611d138185611b77565b9695505050505050565b808201808211156116d7576116d7611cb9565b818103818111156116d7576116d7611cb9565b600082611d6057634e487b7160e01b600052601260045260246000fd5b500490565b6000816000190483118215151615611d7f57611d7f611cb9565b500290565b60007f7fffffffffffffffffffffffffffffffffffffffffffffffffffffffffffffff8203611ce157611ce1611cb956fea26469706673582212209a435557e6078cd0dfa8cb7f652446f8942e31d6eb465ae686ae584eca6e4e6664736f6c63430008100033",
  "immutableReferences": {},
  "source": "// SPDX-License-Identifier: GPL-3.0\npragma solidity >=0.7.0 <0.9.0;\n\nimport {Models} from \"./base/Models.sol\";\n\ncontract BdlCourse {\n    /* all ecosystem courses */\n    mapping(uint => Models.Course) public courses;\n\n    /* creator => course id */\n    mapping(address => uint[]) public createdCourses;\n\n    /* holds all course subscriptions */\n    mapping(uint => Models.Subscription[]) public subscriptions;\n\n    /* 2 weeks */\n    uint private refundableDuration = 10000;\n\n    uint private categoryCount = 0;\n    uint private sectionsCount = 0;\n\n    uint private salesFee = 8; // eight percent\n\n    address private deployer;\n\n    constructor() {\n        deployer = msg.sender;\n    }\n\n    // == learner related functions == //\n\n    /* function to subscribe to a course */\n    function subscribe(uint id, address learner)\n        external\n        returns (uint256, address)\n    {\n        Models.Course memory course = courses[id];\n\n        require(course.id != 0, \"!exists\");\n        require(course.creator != learner, \"!can_subscribe_to_own_course\");\n\n        uint[] memory viewed;\n\n        subscriptions[id].push(\n            Models.Subscription(\n                id,\n                block.timestamp,\n                course.price,\n                learner,\n                viewed,\n                course.sections\n            )\n        );\n\n        emit Subscription(id, learner, true);\n        return (course.price, course.creator);\n    }\n\n    // == creator related functions == //\n\n    // testing purpose\n    function mintCategories() public onlyOwner {\n        createCategory(\"Web Developent\", \"web-development.webp\");\n        createCategory(\"Gaming\", \"gaming.webp\");\n        createCategory(\"Cooking\", \"cooking.webp\");\n        createCategory(\"Animation\", \"animation.webp\");\n        createCategory(\"Marketing\", \"marketing.webp\");\n        createCategory(\"Data Science\", \"data-science.webp\");\n        createCategory(\"Photography\", \"photography.webp\");\n        createCategory(\"Music\", \"music.webp\");\n        createCategory(\"Speaking\", \"speaking.webp\");\n        createCategory(\"UI/UX Designing\", \"ui-ux.webp\");\n    }\n\n    function createCategory(string memory name, string memory image)\n        public\n        onlyOwner\n    {\n        categoryCount++;\n        emit Category(categoryCount, name, image);\n    }\n\n    /* create a new course */\n    function createCourse(\n        uint id,\n        uint category,\n        uint256 price,\n        /* course metadata */\n        string memory name,\n        string memory description,\n        string memory thumbnail,\n        string memory previewSrc,\n        bool publish\n    ) external {\n        require(courses[id].id == 0, \"exists\");\n\n        courses[id] = Models.Course(\n            id,\n            category,\n            msg.sender,\n            price,\n            block.timestamp,\n            block.timestamp,\n            courses[id].sections\n        );\n\n        createdCourses[msg.sender].push(id);\n\n        emit Course(\n            id,\n            name,\n            description,\n            category,\n            thumbnail,\n            previewSrc,\n            msg.sender,\n            price,\n            publish,\n            block.timestamp\n        );\n    }\n\n    /* updates existing course */\n    function updateCourse(\n        uint id,\n        uint category,\n        uint256 price,\n        /* course metadata */\n        string memory name,\n        string memory description,\n        string memory thumbnail,\n        string memory previewSrc,\n        bool publish\n    ) external {\n        require(courses[id].creator == msg.sender, \"!unathorized\");\n\n        courses[id] = Models.Course(\n            id,\n            category,\n            msg.sender,\n            price,\n            courses[id].createdAt,\n            block.timestamp,\n            courses[id].sections\n        );\n\n        emit Course(\n            id,\n            name,\n            description,\n            category,\n            thumbnail,\n            previewSrc,\n            msg.sender,\n            price,\n            publish,\n            block.timestamp\n        );\n    }\n\n    /* creates a course section */\n    function createCourseSection(\n        uint id,\n        string memory title,\n        string memory content,\n        string memory src,\n        uint duration\n    ) public {\n        require(courses[id].creator == msg.sender, \"!unathorized\");\n        courses[id].sections++;\n        sectionsCount++;\n        emit CourseSection(id, title, content, src, duration, sectionsCount);\n    }\n\n    /* updates a course section */\n    function updateCourseSection(\n        uint id,\n        string memory title,\n        string memory content,\n        string memory src,\n        uint duration,\n        uint sectionId\n    ) public {\n        require(courses[id].creator == msg.sender, \"!unathorized\");\n        emit CourseSection(id, title, content, src, duration, sectionId);\n    }\n\n    /* transfer course onwership */\n    function tranfersCourse(\n        uint id,\n        address creator,\n        address receiver\n    ) external {\n        require(courses[id].creator == creator, \"!authorized\");\n        courses[id].creator = receiver;\n\n        delete createdCourses[creator][id];\n        createdCourses[receiver].push(id);\n\n        emit CourseTransfer(id, creator, receiver);\n    }\n\n    /* view section */\n    function viewSection(uint id, uint sectionId) public {\n        int index = getSubscriptionIndex(id, msg.sender);\n        subscriptions[id][uint(index)].viewed.push(sectionId);\n        emit SectionViewed(id, sectionId);\n    }\n\n    function unSubscribe(uint id, address owner)\n        external\n        returns (\n            uint256,\n            uint256,\n            address,\n            uint256\n        )\n    {\n        int index = getSubscriptionIndex(id, owner);\n\n        Models.Subscription memory subscription = subscriptions[id][\n            uint(index)\n        ];\n        Models.Course memory course = courses[id];\n\n        uint dueTime = (block.timestamp + 2 weeks);\n        require(subscription.time < dueTime, \">2weeks\");\n\n        uint payableSections = (subscription.sections -\n            subscription.viewed.length);\n\n        require(payableSections > 0, \"!you_cant_refund_this_course\");\n\n        uint256 payableAmount = ((payableSections / subscription.sections) *\n            subscription.price);\n\n        uint256 netEarnings = (payableAmount - subscription.price);\n        uint256 earnings;\n        if (netEarnings > 0) {\n            earnings = (netEarnings * (salesFee / 100));\n        }\n\n        /* user has unsubscribe */\n        delete subscriptions[id][uint(index)];\n\n        emit Subscription(id, owner, false);\n\n        return (\n            payableAmount,\n            earnings,\n            course.creator,\n            subscription.price\n        );\n    }\n\n    function getSubscriptionIndex(uint courseId, address owner)\n        private\n        view\n        returns (int)\n    {\n        Models.Subscription[] memory _subscriptions = subscriptions[courseId];\n        int _index = -1;\n\n        for (int index = 0; uint(index) < _subscriptions.length; index++) {\n            if (_subscriptions[uint(index)].owner == owner) {\n                _index = index;\n                break;\n            }\n        }\n\n        require(_index >= 0, \"!you_are_not_subscribed_to_this_course\");\n        return _index;\n    }\n\n    // == events == //\n    event Subscription(uint courseId, address learner, bool status);\n    event CourseTransfer(uint id, address creator, address receiver);\n    event Category(uint id, string name, string image);\n    event Course(\n        uint id,\n        string name,\n        string description,\n        uint category,\n        string thumbnail,\n        string previewSrc,\n        address creator,\n        uint256 price,\n        bool publish,\n        uint updatedAt\n    );\n    event CourseSection(uint id, string title, string content, string src, uint duration, uint sectionId);\n    event SectionViewed(uint id, uint sectionId);\n\n    // == modifiers == //\n    modifier onlyOwner() {\n        require(msg.sender == deployer, \"!authorized\");\n        _;\n    }\n}\n",
  "sourcePath": "C:\\Users\\Arogundade Ibrahim\\Documents\\web3\\Buidl\\contracts\\BdlCourse.sol",
  "compiler": {
    "name": "solc",
    "version": "0.8.16+commit.07a7930e.Emscripten.clang"
  },
  "schemaVersion": "3.4.10",
  "updatedAt": "2022-11-01T09:07:49.786Z",
  "devdoc": {
    "kind": "dev",
    "methods": {},
    "version": 1
  },
  "userdoc": {
    "kind": "user",
    "methods": {},
    "version": 1
  }
}