{
  "contractName": "BdlCourse",
  "abi": [
    {
      "inputs": [],
      "stateMutability": "nonpayable",
      "type": "constructor"
    },
    {
      "anonymous": false,
      "inputs": [
        {
          "indexed": false,
          "internalType": "uint256",
          "name": "id",
          "type": "uint256"
        },
        {
          "indexed": false,
          "internalType": "string",
          "name": "name",
          "type": "string"
        },
        {
          "indexed": false,
          "internalType": "string",
          "name": "image",
          "type": "string"
        }
      ],
      "name": "CourseCategoryCreated",
      "type": "event"
    },
    {
      "anonymous": false,
      "inputs": [
        {
          "indexed": false,
          "internalType": "uint256",
          "name": "id",
          "type": "uint256"
        },
        {
          "indexed": false,
          "internalType": "string",
          "name": "name",
          "type": "string"
        },
        {
          "indexed": false,
          "internalType": "string",
          "name": "description",
          "type": "string"
        },
        {
          "indexed": false,
          "internalType": "uint256",
          "name": "category",
          "type": "uint256"
        },
        {
          "indexed": false,
          "internalType": "string",
          "name": "thumbnail",
          "type": "string"
        },
        {
          "indexed": false,
          "internalType": "string",
          "name": "previewSrc",
          "type": "string"
        },
        {
          "indexed": false,
          "internalType": "address",
          "name": "creator",
          "type": "address"
        }
      ],
      "name": "CourseCreated",
      "type": "event"
    },
    {
      "anonymous": false,
      "inputs": [
        {
          "indexed": false,
          "internalType": "uint256",
          "name": "id",
          "type": "uint256"
        },
        {
          "indexed": false,
          "internalType": "string",
          "name": "title",
          "type": "string"
        },
        {
          "indexed": false,
          "internalType": "string",
          "name": "content",
          "type": "string"
        },
        {
          "indexed": false,
          "internalType": "string",
          "name": "src",
          "type": "string"
        }
      ],
      "name": "CourseSectionCreates",
      "type": "event"
    },
    {
      "anonymous": false,
      "inputs": [
        {
          "indexed": false,
          "internalType": "uint256",
          "name": "id",
          "type": "uint256"
        },
        {
          "indexed": false,
          "internalType": "address",
          "name": "creator",
          "type": "address"
        },
        {
          "indexed": false,
          "internalType": "address",
          "name": "learner",
          "type": "address"
        }
      ],
      "name": "CourseSubscribe",
      "type": "event"
    },
    {
      "anonymous": false,
      "inputs": [
        {
          "indexed": false,
          "internalType": "uint256",
          "name": "id",
          "type": "uint256"
        },
        {
          "indexed": false,
          "internalType": "address",
          "name": "creator",
          "type": "address"
        },
        {
          "indexed": false,
          "internalType": "address",
          "name": "receiver",
          "type": "address"
        }
      ],
      "name": "CourseTransfer",
      "type": "event"
    },
    {
      "anonymous": false,
      "inputs": [
        {
          "indexed": false,
          "internalType": "uint256",
          "name": "id",
          "type": "uint256"
        },
        {
          "indexed": false,
          "internalType": "uint256",
          "name": "sId",
          "type": "uint256"
        },
        {
          "indexed": false,
          "internalType": "address",
          "name": "learner",
          "type": "address"
        }
      ],
      "name": "CourseUnSubscribe",
      "type": "event"
    },
    {
      "inputs": [
        {
          "internalType": "uint256",
          "name": "",
          "type": "uint256"
        }
      ],
      "name": "courses",
      "outputs": [
        {
          "internalType": "uint256",
          "name": "id",
          "type": "uint256"
        },
        {
          "internalType": "uint256",
          "name": "category",
          "type": "uint256"
        },
        {
          "internalType": "address",
          "name": "creator",
          "type": "address"
        },
        {
          "internalType": "uint256",
          "name": "price",
          "type": "uint256"
        },
        {
          "internalType": "uint256",
          "name": "createdAt",
          "type": "uint256"
        },
        {
          "internalType": "uint256",
          "name": "updatedAt",
          "type": "uint256"
        }
      ],
      "stateMutability": "view",
      "type": "function",
      "constant": true
    },
    {
      "inputs": [
        {
          "internalType": "address",
          "name": "",
          "type": "address"
        },
        {
          "internalType": "uint256",
          "name": "",
          "type": "uint256"
        }
      ],
      "name": "createdCourses",
      "outputs": [
        {
          "internalType": "uint256",
          "name": "",
          "type": "uint256"
        }
      ],
      "stateMutability": "view",
      "type": "function",
      "constant": true
    },
    {
      "inputs": [
        {
          "internalType": "address",
          "name": "",
          "type": "address"
        },
        {
          "internalType": "uint256",
          "name": "",
          "type": "uint256"
        }
      ],
      "name": "subscribeds",
      "outputs": [
        {
          "internalType": "uint256",
          "name": "",
          "type": "uint256"
        }
      ],
      "stateMutability": "view",
      "type": "function",
      "constant": true
    },
    {
      "inputs": [
        {
          "internalType": "uint256",
          "name": "",
          "type": "uint256"
        },
        {
          "internalType": "uint256",
          "name": "",
          "type": "uint256"
        }
      ],
      "name": "subscriptions",
      "outputs": [
        {
          "internalType": "uint256",
          "name": "course",
          "type": "uint256"
        },
        {
          "internalType": "uint256",
          "name": "time",
          "type": "uint256"
        },
        {
          "internalType": "uint256",
          "name": "price",
          "type": "uint256"
        },
        {
          "internalType": "address",
          "name": "owner",
          "type": "address"
        }
      ],
      "stateMutability": "view",
      "type": "function",
      "constant": true
    },
    {
      "inputs": [
        {
          "internalType": "uint256",
          "name": "id",
          "type": "uint256"
        },
        {
          "internalType": "address",
          "name": "learner",
          "type": "address"
        }
      ],
      "name": "subscribe",
      "outputs": [
        {
          "internalType": "uint256",
          "name": "",
          "type": "uint256"
        },
        {
          "internalType": "address",
          "name": "",
          "type": "address"
        }
      ],
      "stateMutability": "nonpayable",
      "type": "function"
    },
    {
      "inputs": [
        {
          "internalType": "uint256",
          "name": "id",
          "type": "uint256"
        },
        {
          "internalType": "uint256",
          "name": "sId",
          "type": "uint256"
        },
        {
          "internalType": "address",
          "name": "learner",
          "type": "address"
        }
      ],
      "name": "unSubscribe",
      "outputs": [
        {
          "internalType": "uint256",
          "name": "",
          "type": "uint256"
        },
        {
          "internalType": "address",
          "name": "",
          "type": "address"
        }
      ],
      "stateMutability": "nonpayable",
      "type": "function"
    },
    {
      "inputs": [
        {
          "internalType": "string",
          "name": "name",
          "type": "string"
        },
        {
          "internalType": "string",
          "name": "image",
          "type": "string"
        }
      ],
      "name": "createCategory",
      "outputs": [],
      "stateMutability": "nonpayable",
      "type": "function"
    },
    {
      "inputs": [
        {
          "internalType": "uint256",
          "name": "id",
          "type": "uint256"
        },
        {
          "internalType": "uint256",
          "name": "category",
          "type": "uint256"
        },
        {
          "internalType": "uint256",
          "name": "price",
          "type": "uint256"
        },
        {
          "internalType": "address",
          "name": "creator",
          "type": "address"
        },
        {
          "internalType": "string",
          "name": "name",
          "type": "string"
        },
        {
          "internalType": "string",
          "name": "description",
          "type": "string"
        },
        {
          "internalType": "string",
          "name": "thumbnail",
          "type": "string"
        },
        {
          "internalType": "string",
          "name": "previewSrc",
          "type": "string"
        }
      ],
      "name": "createCourse",
      "outputs": [],
      "stateMutability": "nonpayable",
      "type": "function"
    },
    {
      "inputs": [
        {
          "internalType": "uint256",
          "name": "id",
          "type": "uint256"
        },
        {
          "internalType": "uint256",
          "name": "category",
          "type": "uint256"
        },
        {
          "internalType": "address",
          "name": "creator",
          "type": "address"
        },
        {
          "internalType": "uint256",
          "name": "price",
          "type": "uint256"
        }
      ],
      "name": "updateCourse",
      "outputs": [],
      "stateMutability": "nonpayable",
      "type": "function"
    },
    {
      "inputs": [
        {
          "internalType": "uint256",
          "name": "id",
          "type": "uint256"
        },
        {
          "internalType": "string",
          "name": "title",
          "type": "string"
        },
        {
          "internalType": "string",
          "name": "content",
          "type": "string"
        },
        {
          "internalType": "string",
          "name": "src",
          "type": "string"
        }
      ],
      "name": "createCourseSection",
      "outputs": [],
      "stateMutability": "nonpayable",
      "type": "function"
    },
    {
      "inputs": [
        {
          "internalType": "uint256",
          "name": "id",
          "type": "uint256"
        },
        {
          "internalType": "address",
          "name": "creator",
          "type": "address"
        },
        {
          "internalType": "address",
          "name": "receiver",
          "type": "address"
        }
      ],
      "name": "tranfersCourse",
      "outputs": [],
      "stateMutability": "nonpayable",
      "type": "function"
    }
  ],
  "bytecode": "0x608060405261271060045560006005553480156200001c57600080fd5b50600680546001600160a01b03191633179055604080518082018252600e81526d15d9588811195d995b1bdc195b9d60921b6020808301919091528251808401909352601483527f7765622d646576656c6f706d656e742e77656270000000000000000000000000908301526200009391620003b2565b620000e66040518060400160405280600681526020016547616d696e6760d01b8152506040518060400160405280600b81526020016a067616d696e672e776562760ac1b815250620003b260201b60201c565b6200013b60405180604001604052806007815260200166436f6f6b696e6760c81b8152506040518060400160405280600c81526020016b0636f6f6b696e672e776562760a41b815250620003b260201b60201c565b620001946040518060400160405280600981526020016820b734b6b0ba34b7b760b91b8152506040518060400160405280600e81526020016d0616e696d6174696f6e2e776562760941b815250620003b260201b60201c565b620001ed604051806040016040528060098152602001684d61726b6574696e6760b81b8152506040518060400160405280600e81526020016d06d61726b6574696e672e776562760941b815250620003b260201b60201c565b6200024c6040518060400160405280600c81526020016b4461746120536369656e636560a01b815250604051806040016040528060118152602001700646174612d736369656e63652e7765627607c1b815250620003b260201b60201c565b620002a96040518060400160405280600b81526020016a50686f746f67726170687960a81b8152506040518060400160405280601081526020016f070686f746f6772617068792e776562760841b815250620003b260201b60201c565b620002fa604051806040016040528060058152602001644d7573696360d81b8152506040518060400160405280600a81526020016906d757369632e776562760b41b815250620003b260201b60201c565b6200035160405180604001604052806008815260200167537065616b696e6760c01b8152506040518060400160405280600d81526020016c0737065616b696e672e7765627609c1b815250620003b260201b60201c565b620003ac6040518060400160405280600f81526020016e55492f55582044657369676e696e6760881b8152506040518060400160405280600a815260200169075692d75782e776562760b41b815250620003b260201b60201c565b62000502565b6006546001600160a01b03163314620003ff5760405162461bcd60e51b815260206004820152600b60248201526a08585d5d1a1bdc9a5e995960aa1b604482015260640160405180910390fd5b60058054906000620004118362000459565b91905055507fa865f766f43e24c919310fbd80f222886c052fe9b24f74a689a953bbe781705760055483836040516200044d93929190620004c9565b60405180910390a15050565b6000600182016200047a57634e487b7160e01b600052601160045260246000fd5b5060010190565b6000815180845260005b81811015620004a9576020818501810151868301820152016200048b565b506000602082860101526020601f19601f83011685010191505092915050565b838152606060208201526000620004e4606083018562000481565b8281036040840152620004f8818562000481565b9695505050505050565b6112cf80620005126000396000f3fe608060405234801561001057600080fd5b50600436106100c95760003560e01c80638529934b11610081578063c856e7ee1161005b578063c856e7ee14610236578063c89664b414610249578063cc7a56a01461025c57600080fd5b80638529934b1461018857806396f979d21461019b578063b224b4e91461022357600080fd5b806359e6951d116100b257806359e6951d146101305780635c719cba1461016057806367ebbe8b1461017557600080fd5b806335986b2d146100ce578063365cfcbf146100f4575b600080fd5b6100e16100dc366004610d55565b61026f565b6040519081526020015b60405180910390f35b610107610102366004610d7f565b6102a0565b604080519485526020850193909352918301526001600160a01b031660608201526080016100eb565b61014361013e366004610da1565b6102ef565b604080519283526001600160a01b039091166020830152016100eb565b61017361016e366004610dcd565b6104f6565b005b610173610183366004610ead565b610670565b610173610196366004610f3f565b6106b3565b6101e86101a9366004610f7b565b600060208190529081526040902080546001820154600283015460038401546004850154600590950154939492936001600160a01b0390921692909186565b6040805196875260208701959095526001600160a01b03909316938501939093526060840152608083019190915260a082015260c0016100eb565b610173610231366004610f94565b6107e6565b6100e1610244366004610d55565b610884565b610173610257366004610ff8565b6108a0565b61014361026a3660046110d3565b610a3f565b6001602052816000526040600020818154811061028b57600080fd5b90600052602060002001600091509150505481565b600260205281600052604060002081815481106102bc57600080fd5b6000918252602090912060049091020180546001820154600283015460039093015491945092506001600160a01b031684565b600082815260208181526040808320815160c081018352815480825260018301549482019490945260028201546001600160a01b03169281019290925260038101546060830152600481015460808301526005015460a0820152829182036103885760405162461bcd60e51b81526020600482015260076024820152662165786973747360c81b60448201526064015b60405180910390fd5b836001600160a01b031681604001516001600160a01b0316036103ed5760405162461bcd60e51b815260206004820152601c60248201527f2163616e5f7375627363726962655f746f5f6f776e5f636f7572736500000000604482015260640161037f565b600085815260026020818152604080842081516080810183528a8152428185019081526060888101518386019081526001600160a01b038d8116838601818152875460018082018a55988d528a8d209751600490910290970196875594518688015591519885019890985591516003938401805473ffffffffffffffffffffffffffffffffffffffff1916918916919091179055818852918552838720805493840181558752958490209091018a90558582015182518b81529416928401929092528201929092527fa8c4d61ab1b2283bd08c63be6951a0a0beb8bc1eafda7f7fccbeb6a7df013078910160405180910390a18060600151816040015192509250509250929050565b600084815260208181526040808320815160c081018352815480825260018301549482019490945260028201546001600160a01b03169281019290925260038101546060830152600481015460808301526005015460a082015291036105885760405162461bcd60e51b81526020600482015260076024820152662165786973747360c81b604482015260640161037f565b826001600160a01b031681604001516001600160a01b0316146105db5760405162461bcd60e51b815260206004820152600b60248201526a08585d5d1a1bdc9a5e995960aa1b604482015260640161037f565b6040805160c08101825286815260208082019687526001600160a01b03958616828401908152606083019586526080948501519483019485524260a084019081526000998a52918990529290972090518155945160018601555160028501805473ffffffffffffffffffffffffffffffffffffffff191691909416179092555160038301555160048201559051600590910155565b7f65efc9f235a2612801075a43c5780378c0ee61e8c0ec1725b8d633dc9b2e38a9848484846040516106a59493929190611145565b60405180910390a150505050565b6000838152602081905260409020600201546001600160a01b0383811691161461070d5760405162461bcd60e51b815260206004820152600b60248201526a08585d5d1a1bdc9a5e995960aa1b604482015260640161037f565b600083815260208181526040808320600201805473ffffffffffffffffffffffffffffffffffffffff19166001600160a01b038681169190911790915585168352600190915290208054849081106107675761076761118f565b60009182526020808320919091018290556001600160a01b03838116808452600180845260408086208054928301815586529484902001879055835187815291861692820192909252918201527f2fd7dc3aeb254842908e4dc655cdfd549a0d3825eaf02e31cd71b1c3df1c751a9060600160405180910390a1505050565b6006546001600160a01b0316331461082e5760405162461bcd60e51b815260206004820152600b60248201526a08585d5d1a1bdc9a5e995960aa1b604482015260640161037f565b6005805490600061083e836111bb565b91905055507fa865f766f43e24c919310fbd80f222886c052fe9b24f74a689a953bbe78170576005548383604051610878939291906111d4565b60405180910390a15050565b6003602052816000526040600020818154811061028b57600080fd5b600088815260208190526040902054156108fc5760405162461bcd60e51b815260206004820152600660248201527f6578697374730000000000000000000000000000000000000000000000000000604482015260640161037f565b6040518060c00160405280898152602001888152602001866001600160a01b03168152602001878152602001428152602001428152506000808a8152602001908152602001600020600082015181600001556020820151816001015560408201518160020160006101000a8154816001600160a01b0302191690836001600160a01b03160217905550606082015181600301556080820151816004015560a0820151816005015590505060016000866001600160a01b03166001600160a01b031681526020019081526020016000208890806001815401808255809150506001900390600052602060002001600090919091909150557f3cb9902525f5e5badb0a491dd72c39f8d7cf402218a05865cc1972d0aa1aa7308885858a86868b604051610a2d9796959493929190611209565b60405180910390a15050505050505050565b600083815260026020526040812080548291829186908110610a6357610a6361118f565b90600052602060002090600402016040518060800160405290816000820154815260200160018201548152602001600282015481526020016003820160009054906101000a90046001600160a01b03166001600160a01b03166001600160a01b031681525050905060008060008881526020019081526020016000206040518060c001604052908160008201548152602001600182015481526020016002820160009054906101000a90046001600160a01b03166001600160a01b03166001600160a01b03168152602001600382015481526020016004820154815260200160058201548152505090508060000151600003610b8b5760405162461bcd60e51b81526020600482015260076024820152662165786973747360c81b604482015260640161037f565b846001600160a01b031682606001516001600160a01b031614610bde5760405162461bcd60e51b815260206004820152600b60248201526a08585d5d1a1bdc9a5e995960aa1b604482015260640161037f565b600060045442610bee9190611280565b905080836020015110610c435760405162461bcd60e51b815260206004820152600760248201527f3e327765656b7300000000000000000000000000000000000000000000000000604482015260640161037f565b6000888152600260205260409020805488908110610c6357610c6361118f565b60009182526020808320600490920290910182815560018101839055600281018390556003908101805473ffffffffffffffffffffffffffffffffffffffff191690556001600160a01b0389168352905260409020805489908110610cca57610cca61118f565b6000918252602080832090910191909155604080518a81529182018990526001600160a01b038816908201527fbd5eec3fc06fe6a176d98dd87610bec6872af33e524e949929a3c272564803279060600160405180910390a15060409182015191015190969095509350505050565b80356001600160a01b0381168114610d5057600080fd5b919050565b60008060408385031215610d6857600080fd5b610d7183610d39565b946020939093013593505050565b60008060408385031215610d9257600080fd5b50508035926020909101359150565b60008060408385031215610db457600080fd5b82359150610dc460208401610d39565b90509250929050565b60008060008060808587031215610de357600080fd5b8435935060208501359250610dfa60408601610d39565b9396929550929360600135925050565b634e487b7160e01b600052604160045260246000fd5b600082601f830112610e3157600080fd5b813567ffffffffffffffff80821115610e4c57610e4c610e0a565b604051601f8301601f19908116603f01168101908282118183101715610e7457610e74610e0a565b81604052838152866020858801011115610e8d57600080fd5b836020870160208301376000602085830101528094505050505092915050565b60008060008060808587031215610ec357600080fd5b84359350602085013567ffffffffffffffff80821115610ee257600080fd5b610eee88838901610e20565b94506040870135915080821115610f0457600080fd5b610f1088838901610e20565b93506060870135915080821115610f2657600080fd5b50610f3387828801610e20565b91505092959194509250565b600080600060608486031215610f5457600080fd5b83359250610f6460208501610d39565b9150610f7260408501610d39565b90509250925092565b600060208284031215610f8d57600080fd5b5035919050565b60008060408385031215610fa757600080fd5b823567ffffffffffffffff80821115610fbf57600080fd5b610fcb86838701610e20565b93506020850135915080821115610fe157600080fd5b50610fee85828601610e20565b9150509250929050565b600080600080600080600080610100898b03121561101557600080fd5b88359750602089013596506040890135955061103360608a01610d39565b9450608089013567ffffffffffffffff8082111561105057600080fd5b61105c8c838d01610e20565b955060a08b013591508082111561107257600080fd5b61107e8c838d01610e20565b945060c08b013591508082111561109457600080fd5b6110a08c838d01610e20565b935060e08b01359150808211156110b657600080fd5b506110c38b828c01610e20565b9150509295985092959890939650565b6000806000606084860312156110e857600080fd5b8335925060208401359150610f7260408501610d39565b6000815180845260005b8181101561112557602081850181015186830182015201611109565b506000602082860101526020601f19601f83011685010191505092915050565b84815260806020820152600061115e60808301866110ff565b828103604084015261117081866110ff565b9050828103606084015261118481856110ff565b979650505050505050565b634e487b7160e01b600052603260045260246000fd5b634e487b7160e01b600052601160045260246000fd5b6000600182016111cd576111cd6111a5565b5060010190565b8381526060602082015260006111ed60608301856110ff565b82810360408401526111ff81856110ff565b9695505050505050565b87815260e06020820152600061122260e08301896110ff565b828103604084015261123481896110ff565b9050866060840152828103608084015261124e81876110ff565b905082810360a084015261126281866110ff565b9150506001600160a01b03831660c083015298975050505050505050565b80820180821115611293576112936111a5565b9291505056fea2646970667358221220153421fa9df75ed2fb837cd34a778eb84a8640f5880ec63f5ef03e8a514a88e864736f6c63430008100033",
  "immutableReferences": {},
  "source": "// SPDX-License-Identifier: GPL-3.0\npragma solidity >=0.7.0 <0.9.0;\n\nimport {Models} from \"./base/Models.sol\";\n\ncontract BdlCourse {\n    /* all ecosystem courses */\n    mapping(uint => Models.Course) public courses;\n\n    /* creator => course id */\n    mapping(address => uint[]) public createdCourses;\n\n    /* holds all course subscriptions */\n    mapping(uint => Models.Subscription[]) public subscriptions;\n\n    /* learner => course id */\n    mapping(address => uint[]) public subscribeds;\n\n    /* 2 weeks */\n    uint private refundableDuration = 10000;\n\n    uint private categoryCount = 0;\n\n    address private deployer;\n\n    constructor() {\n        deployer = msg.sender;\n\n        // initial categories\n        createCategory(\"Web Developent\", \"web-development.webp\");\n        createCategory(\"Gaming\", \"gaming.webp\");\n        createCategory(\"Cooking\", \"cooking.webp\");\n        createCategory(\"Animation\", \"animation.webp\");\n        createCategory(\"Marketing\", \"marketing.webp\");\n        createCategory(\"Data Science\", \"data-science.webp\");\n        createCategory(\"Photography\", \"photography.webp\");\n        createCategory(\"Music\", \"music.webp\");\n        createCategory(\"Speaking\", \"speaking.webp\");\n        createCategory(\"UI/UX Designing\", \"ui-ux.webp\");\n    }\n\n    // == learner related functions == //\n\n    /* function to subscribe to a course */\n    function subscribe(uint id, address learner)\n        external\n        returns (uint256, address)\n    {\n        Models.Course memory course = courses[id];\n\n        require(course.id != 0, \"!exists\");\n        require(course.creator != learner, \"!can_subscribe_to_own_course\");\n\n        subscriptions[id].push(\n            Models.Subscription(id, block.timestamp, course.price, learner)\n        );\n\n        subscribeds[learner].push(id);\n\n        emit CourseSubscribe(id, course.creator, learner);\n        return (course.price, course.creator);\n    }\n\n    /* function to unsubscribe from a course */\n    function unSubscribe(\n        uint id,\n        uint sId,\n        address learner\n    ) external returns (uint256, address) {\n        Models.Subscription memory subscription = subscriptions[id][sId];\n        Models.Course memory course = courses[id];\n\n        require(course.id != 0, \"!exists\");\n        require(subscription.owner == learner, \"!authorized\");\n\n        uint dueTime = (block.timestamp + refundableDuration);\n        require(subscription.time < dueTime, \">2weeks\");\n\n        delete subscriptions[id][sId];\n        delete subscribeds[learner][id];\n\n        emit CourseUnSubscribe(id, sId, learner);\n        return (subscription.price, course.creator);\n    }\n\n    // == creator related functions == //\n\n    function createCategory(string memory name, string memory image)\n        public\n        onlyOwner\n    {\n        categoryCount++;\n        emit CourseCategoryCreated(categoryCount, name, image);\n    }\n\n    /* create a new course */\n    function createCourse(\n        uint id,\n        uint category,\n        uint256 price,\n        address creator,\n        /* course metadata */\n        string memory name,\n        string memory description,\n        string memory thumbnail,\n        string memory previewSrc\n    ) external {\n        require(courses[id].id == 0, \"exists\");\n\n        courses[id] = Models.Course(\n            id,\n            category,\n            creator,\n            price,\n            block.timestamp,\n            block.timestamp\n        );\n\n        createdCourses[creator].push(id);\n\n        emit CourseCreated(\n            id,\n            name,\n            description,\n            category,\n            thumbnail,\n            previewSrc,\n            creator\n        );\n    }\n\n    /* updates an existing course */\n    function updateCourse(\n        uint id,\n        uint category,\n        address creator,\n        uint256 price\n    ) external {\n        Models.Course memory course = courses[id];\n\n        require(course.id != 0, \"!exists\");\n        require(course.creator == creator, \"!authorized\");\n\n        courses[id] = Models.Course(\n            id,\n            category,\n            creator,\n            price,\n            course.createdAt,\n            block.timestamp\n        );\n    }\n\n    /* creates a course section */\n    function createCourseSection(\n        uint id,\n        string memory title,\n        string memory content,\n        string memory src\n    ) public {\n        emit CourseSectionCreates(id, title, content, src);\n    }\n\n    /* transfer course onwership */\n    function tranfersCourse(\n        uint id,\n        address creator,\n        address receiver\n    ) external {\n        require(courses[id].creator == creator, \"!authorized\");\n        courses[id].creator = receiver;\n\n        delete createdCourses[creator][id];\n        createdCourses[receiver].push(id);\n\n        emit CourseTransfer(id, creator, receiver);\n    }\n\n    // == events == //\n    event CourseSubscribe(uint id, address creator, address learner);\n    event CourseUnSubscribe(uint id, uint sId, address learner);\n    event CourseTransfer(uint id, address creator, address receiver);\n    event CourseCategoryCreated(uint id, string name, string image);\n    event CourseCreated(\n        uint id,\n        string name,\n        string description,\n        uint category,\n        string thumbnail,\n        string previewSrc,\n        address creator\n    );\n    event CourseSectionCreates(\n        uint id,\n        string title,\n        string content,\n        string src\n    );\n\n    // == modifiers == //\n    modifier onlyOwner() {\n        require(msg.sender == deployer, \"!authorized\");\n        _;\n    }\n}\n",
  "sourcePath": "C:\\Users\\Arogundade Ibrahim\\Documents\\web3\\Buidl\\contracts\\BdlCourse.sol",
  "compiler": {
    "name": "solc",
    "version": "0.8.16+commit.07a7930e.Emscripten.clang"
  },
  "schemaVersion": "3.4.10",
  "updatedAt": "2022-10-25T14:36:18.048Z",
  "networkType": "ethereum",
  "devdoc": {
    "kind": "dev",
    "methods": {},
    "version": 1
  },
  "userdoc": {
    "kind": "user",
    "methods": {},
    "version": 1
  }
}