{
  "contractName": "BdlNftStaking",
  "abi": [
    {
      "inputs": [
        {
          "internalType": "address",
          "name": "_bdlNft",
          "type": "address"
        },
        {
          "internalType": "address",
          "name": "_bdlToken",
          "type": "address"
        },
        {
          "internalType": "uint256",
          "name": "_rewardsDuration",
          "type": "uint256"
        }
      ],
      "stateMutability": "nonpayable",
      "type": "constructor"
    },
    {
      "anonymous": false,
      "inputs": [
        {
          "indexed": true,
          "internalType": "address",
          "name": "previousOwner",
          "type": "address"
        },
        {
          "indexed": true,
          "internalType": "address",
          "name": "newOwner",
          "type": "address"
        }
      ],
      "name": "OwnershipTransferred",
      "type": "event"
    },
    {
      "anonymous": false,
      "inputs": [
        {
          "indexed": false,
          "internalType": "address",
          "name": "account",
          "type": "address"
        }
      ],
      "name": "Paused",
      "type": "event"
    },
    {
      "anonymous": false,
      "inputs": [
        {
          "indexed": false,
          "internalType": "uint256",
          "name": "reward",
          "type": "uint256"
        }
      ],
      "name": "RewardAdded",
      "type": "event"
    },
    {
      "anonymous": false,
      "inputs": [
        {
          "indexed": true,
          "internalType": "address",
          "name": "user",
          "type": "address"
        },
        {
          "indexed": false,
          "internalType": "uint256",
          "name": "reward",
          "type": "uint256"
        }
      ],
      "name": "RewardPaid",
      "type": "event"
    },
    {
      "anonymous": false,
      "inputs": [
        {
          "indexed": false,
          "internalType": "uint256",
          "name": "newDuration",
          "type": "uint256"
        }
      ],
      "name": "RewardsDurationUpdated",
      "type": "event"
    },
    {
      "anonymous": false,
      "inputs": [
        {
          "indexed": true,
          "internalType": "address",
          "name": "user",
          "type": "address"
        },
        {
          "indexed": false,
          "internalType": "uint256",
          "name": "amount",
          "type": "uint256"
        },
        {
          "indexed": false,
          "internalType": "uint256[]",
          "name": "tokenIds",
          "type": "uint256[]"
        }
      ],
      "name": "Staked",
      "type": "event"
    },
    {
      "anonymous": false,
      "inputs": [
        {
          "indexed": false,
          "internalType": "address",
          "name": "account",
          "type": "address"
        }
      ],
      "name": "Unpaused",
      "type": "event"
    },
    {
      "anonymous": false,
      "inputs": [
        {
          "indexed": true,
          "internalType": "address",
          "name": "user",
          "type": "address"
        },
        {
          "indexed": false,
          "internalType": "uint256",
          "name": "amount",
          "type": "uint256"
        },
        {
          "indexed": false,
          "internalType": "uint256[]",
          "name": "tokenIds",
          "type": "uint256[]"
        }
      ],
      "name": "Withdrawn",
      "type": "event"
    },
    {
      "inputs": [
        {
          "internalType": "address",
          "name": "",
          "type": "address"
        }
      ],
      "name": "balances",
      "outputs": [
        {
          "internalType": "uint256",
          "name": "",
          "type": "uint256"
        }
      ],
      "stateMutability": "view",
      "type": "function"
    },
    {
      "inputs": [],
      "name": "lastUpdateTime",
      "outputs": [
        {
          "internalType": "uint256",
          "name": "",
          "type": "uint256"
        }
      ],
      "stateMutability": "view",
      "type": "function"
    },
    {
      "inputs": [
        {
          "internalType": "address",
          "name": "",
          "type": "address"
        },
        {
          "internalType": "address",
          "name": "",
          "type": "address"
        },
        {
          "internalType": "uint256",
          "name": "",
          "type": "uint256"
        },
        {
          "internalType": "bytes",
          "name": "",
          "type": "bytes"
        }
      ],
      "name": "onERC721Received",
      "outputs": [
        {
          "internalType": "bytes4",
          "name": "",
          "type": "bytes4"
        }
      ],
      "stateMutability": "nonpayable",
      "type": "function"
    },
    {
      "inputs": [],
      "name": "owner",
      "outputs": [
        {
          "internalType": "address",
          "name": "",
          "type": "address"
        }
      ],
      "stateMutability": "view",
      "type": "function"
    },
    {
      "inputs": [],
      "name": "paused",
      "outputs": [
        {
          "internalType": "bool",
          "name": "",
          "type": "bool"
        }
      ],
      "stateMutability": "view",
      "type": "function"
    },
    {
      "inputs": [],
      "name": "periodFinish",
      "outputs": [
        {
          "internalType": "uint256",
          "name": "",
          "type": "uint256"
        }
      ],
      "stateMutability": "view",
      "type": "function"
    },
    {
      "inputs": [],
      "name": "renounceOwnership",
      "outputs": [],
      "stateMutability": "nonpayable",
      "type": "function"
    },
    {
      "inputs": [],
      "name": "rewardPerTokenStored",
      "outputs": [
        {
          "internalType": "uint256",
          "name": "",
          "type": "uint256"
        }
      ],
      "stateMutability": "view",
      "type": "function"
    },
    {
      "inputs": [],
      "name": "rewardRate",
      "outputs": [
        {
          "internalType": "uint256",
          "name": "",
          "type": "uint256"
        }
      ],
      "stateMutability": "view",
      "type": "function"
    },
    {
      "inputs": [
        {
          "internalType": "address",
          "name": "",
          "type": "address"
        }
      ],
      "name": "rewards",
      "outputs": [
        {
          "internalType": "uint256",
          "name": "",
          "type": "uint256"
        }
      ],
      "stateMutability": "view",
      "type": "function"
    },
    {
      "inputs": [],
      "name": "rewardsDuration",
      "outputs": [
        {
          "internalType": "uint256",
          "name": "",
          "type": "uint256"
        }
      ],
      "stateMutability": "view",
      "type": "function"
    },
    {
      "inputs": [
        {
          "internalType": "uint256",
          "name": "",
          "type": "uint256"
        }
      ],
      "name": "stakedAssets",
      "outputs": [
        {
          "internalType": "address",
          "name": "",
          "type": "address"
        }
      ],
      "stateMutability": "view",
      "type": "function"
    },
    {
      "inputs": [],
      "name": "totalSupply",
      "outputs": [
        {
          "internalType": "uint256",
          "name": "",
          "type": "uint256"
        }
      ],
      "stateMutability": "view",
      "type": "function"
    },
    {
      "inputs": [
        {
          "internalType": "address",
          "name": "newOwner",
          "type": "address"
        }
      ],
      "name": "transferOwnership",
      "outputs": [],
      "stateMutability": "nonpayable",
      "type": "function"
    },
    {
      "inputs": [
        {
          "internalType": "address",
          "name": "",
          "type": "address"
        }
      ],
      "name": "userRewardPerTokenPaid",
      "outputs": [
        {
          "internalType": "uint256",
          "name": "",
          "type": "uint256"
        }
      ],
      "stateMutability": "view",
      "type": "function"
    },
    {
      "inputs": [],
      "name": "lastTimeRewardApplicable",
      "outputs": [
        {
          "internalType": "uint256",
          "name": "",
          "type": "uint256"
        }
      ],
      "stateMutability": "view",
      "type": "function"
    },
    {
      "inputs": [],
      "name": "rewardPerToken",
      "outputs": [
        {
          "internalType": "uint256",
          "name": "",
          "type": "uint256"
        }
      ],
      "stateMutability": "view",
      "type": "function"
    },
    {
      "inputs": [
        {
          "internalType": "address",
          "name": "account",
          "type": "address"
        }
      ],
      "name": "earned",
      "outputs": [
        {
          "internalType": "uint256",
          "name": "",
          "type": "uint256"
        }
      ],
      "stateMutability": "view",
      "type": "function"
    },
    {
      "inputs": [],
      "name": "getRewardForDuration",
      "outputs": [
        {
          "internalType": "uint256",
          "name": "",
          "type": "uint256"
        }
      ],
      "stateMutability": "view",
      "type": "function"
    },
    {
      "inputs": [
        {
          "internalType": "uint256[]",
          "name": "tokenIds",
          "type": "uint256[]"
        }
      ],
      "name": "stake",
      "outputs": [],
      "stateMutability": "nonpayable",
      "type": "function"
    },
    {
      "inputs": [
        {
          "internalType": "uint256[]",
          "name": "tokenIds",
          "type": "uint256[]"
        }
      ],
      "name": "withdraw",
      "outputs": [],
      "stateMutability": "nonpayable",
      "type": "function"
    },
    {
      "inputs": [],
      "name": "getReward",
      "outputs": [],
      "stateMutability": "nonpayable",
      "type": "function"
    },
    {
      "inputs": [
        {
          "internalType": "uint256[]",
          "name": "tokenIds",
          "type": "uint256[]"
        }
      ],
      "name": "exit",
      "outputs": [],
      "stateMutability": "nonpayable",
      "type": "function"
    },
    {
      "inputs": [
        {
          "internalType": "uint256",
          "name": "reward",
          "type": "uint256"
        }
      ],
      "name": "notifyRewardAmount",
      "outputs": [],
      "stateMutability": "nonpayable",
      "type": "function"
    },
    {
      "inputs": [
        {
          "internalType": "uint256",
          "name": "_rewardsDuration",
          "type": "uint256"
        }
      ],
      "name": "setRewardsDuration",
      "outputs": [],
      "stateMutability": "nonpayable",
      "type": "function"
    },
    {
      "inputs": [],
      "name": "pause",
      "outputs": [],
      "stateMutability": "nonpayable",
      "type": "function"
    },
    {
      "inputs": [],
      "name": "unpause",
      "outputs": [],
      "stateMutability": "nonpayable",
      "type": "function"
    }
  ],
  "bytecode": "0x6080604052600060045560006005553480156200001b57600080fd5b50604051620028c6380380620028c6833981810160405281019062000041919062000289565b6001600081905550620000696200005d6200011660201b60201c565b6200011e60201b60201c565b6000600160146101000a81548160ff02191690831515021790555082600360006101000a81548173ffffffffffffffffffffffffffffffffffffffff021916908373ffffffffffffffffffffffffffffffffffffffff16021790555081600260006101000a81548173ffffffffffffffffffffffffffffffffffffffff021916908373ffffffffffffffffffffffffffffffffffffffff16021790555080600681905550505050620002e5565b600033905090565b6000600160009054906101000a900473ffffffffffffffffffffffffffffffffffffffff16905081600160006101000a81548173ffffffffffffffffffffffffffffffffffffffff021916908373ffffffffffffffffffffffffffffffffffffffff1602179055508173ffffffffffffffffffffffffffffffffffffffff168173ffffffffffffffffffffffffffffffffffffffff167f8be0079c531659141344cd1fd0a4f28419497f9722a3daafe3b4186f6b6457e060405160405180910390a35050565b600080fd5b600073ffffffffffffffffffffffffffffffffffffffff82169050919050565b60006200021682620001e9565b9050919050565b620002288162000209565b81146200023457600080fd5b50565b60008151905062000248816200021d565b92915050565b6000819050919050565b62000263816200024e565b81146200026f57600080fd5b50565b600081519050620002838162000258565b92915050565b600080600060608486031215620002a557620002a4620001e4565b5b6000620002b58682870162000237565b9350506020620002c88682870162000237565b9250506040620002db8682870162000272565b9150509250925092565b6125d180620002f56000396000f3fe608060405234801561001057600080fd5b50600436106101a85760003560e01c8063715018a6116100f9578063983d95ce11610097578063cd3daf9d11610071578063cd3daf9d14610471578063df136d651461048f578063ebe2b12b146104ad578063f2fde38b146104cb576101a8565b8063983d95ce1461041b578063c8f33c9114610437578063cc1a378f14610455576101a8565b806380faa57d116100d357806380faa57d146103a55780638456cb59146103c35780638b876347146103cd5780638da5cb5b146103fd576101a8565b8063715018a61461034d5780637b0a47ee146103575780637d8fc88e14610375576101a8565b80631c1f78eb116101665780633c6b16ab116101405780633c6b16ab146102ff5780633d18b9121461031b5780633f4ba83a146103255780635c975abb1461032f576101a8565b80631c1f78eb1461029357806327e235e3146102b1578063386a9525146102e1576101a8565b80628cc262146101ad5780630700037d146101dd5780630fbf0a931461020d578063150b7a021461022957806318160ddd1461025957806318c08f2614610277575b600080fd5b6101c760048036038101906101c2919061193f565b6104e7565b6040516101d49190611985565b60405180910390f35b6101f760048036038101906101f2919061193f565b6105e9565b6040516102049190611985565b60405180910390f35b61022760048036038101906102229190611b25565b610601565b005b610243600480360381019061023e9190611c23565b610930565b6040516102509190611ce1565b60405180910390f35b610261610944565b60405161026e9190611985565b60405180910390f35b610291600480360381019061028c9190611b25565b61094a565b005b61029b61095e565b6040516102a89190611985565b60405180910390f35b6102cb60048036038101906102c6919061193f565b610975565b6040516102d89190611985565b60405180910390f35b6102e961098d565b6040516102f69190611985565b60405180910390f35b61031960048036038101906103149190611cfc565b610993565b005b610323610c31565b005b61032d610ef0565b005b610337610f02565b6040516103449190611d44565b60405180910390f35b610355610f19565b005b61035f610f2d565b60405161036c9190611985565b60405180910390f35b61038f600480360381019061038a9190611cfc565b610f33565b60405161039c9190611d6e565b60405180910390f35b6103ad610f66565b6040516103ba9190611985565b60405180910390f35b6103cb610f80565b005b6103e760048036038101906103e2919061193f565b610f92565b6040516103f49190611985565b60405180910390f35b610405610faa565b6040516104129190611d6e565b60405180910390f35b61043560048036038101906104309190611b25565b610fd4565b005b61043f6113b7565b60405161044c9190611985565b60405180910390f35b61046f600480360381019061046a9190611cfc565b6113bd565b005b61047961144c565b6040516104869190611985565b60405180910390f35b6104976114b6565b6040516104a49190611985565b60405180910390f35b6104b56114bc565b6040516104c29190611985565b60405180910390f35b6104e560048036038101906104e0919061193f565b6114c2565b005b6000600a60008373ffffffffffffffffffffffffffffffffffffffff1673ffffffffffffffffffffffffffffffffffffffff16815260200190815260200160002054670de0b6b3a7640000600960008573ffffffffffffffffffffffffffffffffffffffff1673ffffffffffffffffffffffffffffffffffffffff1681526020019081526020016000205461057a61144c565b6105849190611db8565b600c60008673ffffffffffffffffffffffffffffffffffffffff1673ffffffffffffffffffffffffffffffffffffffff168152602001908152602001600020546105ce9190611dec565b6105d89190611e5d565b6105e29190611e8e565b9050919050565b600a6020528060005260406000206000915090505481565b600260005403610646576040517f08c379a000000000000000000000000000000000000000000000000000000000815260040161063d90611f1f565b60405180910390fd5b6002600081905550610656611545565b3361065f61144c565b60088190555061066d610f66565b600781905550600073ffffffffffffffffffffffffffffffffffffffff168173ffffffffffffffffffffffffffffffffffffffff161461073a576106b0816104e7565b600a60008373ffffffffffffffffffffffffffffffffffffffff1673ffffffffffffffffffffffffffffffffffffffff16815260200190815260200160002081905550600854600960008373ffffffffffffffffffffffffffffffffffffffff1673ffffffffffffffffffffffffffffffffffffffff168152602001908152602001600020819055505b600082510361077e576040517f08c379a000000000000000000000000000000000000000000000000000000000815260040161077590611f8b565b60405180910390fd5b600080600090505b83518110156108c957600360009054906101000a900473ffffffffffffffffffffffffffffffffffffffff1673ffffffffffffffffffffffffffffffffffffffff166323b872dd33308785815181106107e2576107e1611fab565b5b60200260200101516040518463ffffffff1660e01b815260040161080893929190611fda565b600060405180830381600087803b15801561082257600080fd5b505af1158015610836573d6000803e3d6000fd5b505050506001826108479190611e8e565b915033600d600086848151811061086157610860611fab565b5b6020026020010151815260200190815260200160002060006101000a81548173ffffffffffffffffffffffffffffffffffffffff021916908373ffffffffffffffffffffffffffffffffffffffff1602179055506001816108c29190611e8e565b9050610786565b506108d38161158f565b3373ffffffffffffffffffffffffffffffffffffffff167fb18ab713c223cf8d1394fb3018faad3e87f34414cc9d74b6eff3510d05359d85828560405161091b9291906120cf565b60405180910390a25050600160008190555050565b600063150b7a0260e01b9050949350505050565b600b5481565b61095381610fd4565b61095b610c31565b50565b60006006546005546109709190611dec565b905090565b600c6020528060005260406000206000915090505481565b60065481565b61099b611601565b60006109a561144c565b6008819055506109b3610f66565b600781905550600073ffffffffffffffffffffffffffffffffffffffff168173ffffffffffffffffffffffffffffffffffffffff1614610a80576109f6816104e7565b600a60008373ffffffffffffffffffffffffffffffffffffffff1673ffffffffffffffffffffffffffffffffffffffff16815260200190815260200160002081905550600854600960008373ffffffffffffffffffffffffffffffffffffffff1673ffffffffffffffffffffffffffffffffffffffff168152602001908152602001600020819055505b6004544210610aa25760065482610a979190611e5d565b600581905550610ae8565b600042600454610ab29190611db8565b9050600060055482610ac49190611dec565b90506006548185610ad59190611e8e565b610adf9190611e5d565b60058190555050505b6000600260009054906101000a900473ffffffffffffffffffffffffffffffffffffffff1673ffffffffffffffffffffffffffffffffffffffff166370a08231306040518263ffffffff1660e01b8152600401610b459190611d6e565b602060405180830381865afa158015610b62573d6000803e3d6000fd5b505050506040513d601f19601f82011682018060405250810190610b869190612114565b905060065481610b969190611e5d565b6005541115610bda576040517f08c379a0000000000000000000000000000000000000000000000000000000008152600401610bd1906121b3565b60405180910390fd5b4260078190555060065442610bef9190611e8e565b6004819055507fde88a922e0d3b88b24e9623efeb464919c6bf9f66857a65e2bfcf2ce87a9433d83604051610c249190611985565b60405180910390a1505050565b600260005403610c76576040517f08c379a0000000000000000000000000000000000000000000000000000000008152600401610c6d90611f1f565b60405180910390fd5b600260008190555033610c8761144c565b600881905550610c95610f66565b600781905550600073ffffffffffffffffffffffffffffffffffffffff168173ffffffffffffffffffffffffffffffffffffffff1614610d6257610cd8816104e7565b600a60008373ffffffffffffffffffffffffffffffffffffffff1673ffffffffffffffffffffffffffffffffffffffff16815260200190815260200160002081905550600854600960008373ffffffffffffffffffffffffffffffffffffffff1673ffffffffffffffffffffffffffffffffffffffff168152602001908152602001600020819055505b6000600a60003373ffffffffffffffffffffffffffffffffffffffff1673ffffffffffffffffffffffffffffffffffffffff1681526020019081526020016000205490506000811115610ee4576000600a60003373ffffffffffffffffffffffffffffffffffffffff1673ffffffffffffffffffffffffffffffffffffffff16815260200190815260200160002081905550600260009054906101000a900473ffffffffffffffffffffffffffffffffffffffff1673ffffffffffffffffffffffffffffffffffffffff1663a9059cbb33836040518363ffffffff1660e01b8152600401610e519291906121d3565b6020604051808303816000875af1158015610e70573d6000803e3d6000fd5b505050506040513d601f19601f82011682018060405250810190610e949190612228565b503373ffffffffffffffffffffffffffffffffffffffff167fe2403640ba68fed3a2f88b7557551d1993f84b99bb10ff833f0cf8db0c5e048682604051610edb9190611985565b60405180910390a25b50506001600081905550565b610ef8611601565b610f0061167f565b565b6000600160149054906101000a900460ff16905090565b610f21611601565b610f2b60006116e2565b565b60055481565b600d6020528060005260406000206000915054906101000a900473ffffffffffffffffffffffffffffffffffffffff1681565b60006004544210610f7957600454610f7b565b425b905090565b610f88611601565b610f906117a8565b565b60096020528060005260406000206000915090505481565b6000600160009054906101000a900473ffffffffffffffffffffffffffffffffffffffff16905090565b600260005403611019576040517f08c379a000000000000000000000000000000000000000000000000000000000815260040161101090611f1f565b60405180910390fd5b60026000819055503361102a61144c565b600881905550611038610f66565b600781905550600073ffffffffffffffffffffffffffffffffffffffff168173ffffffffffffffffffffffffffffffffffffffff16146111055761107b816104e7565b600a60008373ffffffffffffffffffffffffffffffffffffffff1673ffffffffffffffffffffffffffffffffffffffff16815260200190815260200160002081905550600854600960008373ffffffffffffffffffffffffffffffffffffffff1673ffffffffffffffffffffffffffffffffffffffff168152602001908152602001600020819055505b6000825103611149576040517f08c379a000000000000000000000000000000000000000000000000000000000815260040161114090611f8b565b60405180910390fd5b600080600090505b8351811015611350573373ffffffffffffffffffffffffffffffffffffffff16600d600086848151811061118857611187611fab565b5b6020026020010151815260200190815260200160002060009054906101000a900473ffffffffffffffffffffffffffffffffffffffff1673ffffffffffffffffffffffffffffffffffffffff1614611215576040517f08c379a000000000000000000000000000000000000000000000000000000000815260040161120c906122c7565b60405180910390fd5b600360009054906101000a900473ffffffffffffffffffffffffffffffffffffffff1673ffffffffffffffffffffffffffffffffffffffff166323b872dd303387858151811061126857611267611fab565b5b60200260200101516040518463ffffffff1660e01b815260040161128e93929190611fda565b600060405180830381600087803b1580156112a857600080fd5b505af11580156112bc573d6000803e3d6000fd5b505050506001826112cd9190611e8e565b91506000600d60008684815181106112e8576112e7611fab565b5b6020026020010151815260200190815260200160002060006101000a81548173ffffffffffffffffffffffffffffffffffffffff021916908373ffffffffffffffffffffffffffffffffffffffff1602179055506001816113499190611e8e565b9050611151565b5061135a8161180a565b3373ffffffffffffffffffffffffffffffffffffffff167fd40a9786b597b88b3426158112e3930e09cb031c138a150e367cfe17ff20e30282856040516113a29291906120cf565b60405180910390a25050600160008190555050565b60075481565b6113c5611601565b6004544211611409576040517f08c379a0000000000000000000000000000000000000000000000000000000008152600401611400906123a5565b60405180910390fd5b806006819055507ffb46ca5a5e06d4540d6387b930a7c978bce0db5f449ec6b3f5d07c6e1d44f2d36006546040516114419190611985565b60405180910390a150565b600080600b54036114615760085490506114b3565b600b54670de0b6b3a764000060055460075461147b610f66565b6114859190611db8565b61148f9190611dec565b6114999190611dec565b6114a39190611e5d565b6008546114b09190611e8e565b90505b90565b60085481565b60045481565b6114ca611601565b600073ffffffffffffffffffffffffffffffffffffffff168173ffffffffffffffffffffffffffffffffffffffff1603611539576040517f08c379a000000000000000000000000000000000000000000000000000000000815260040161153090612437565b60405180910390fd5b611542816116e2565b50565b61154d610f02565b1561158d576040517f08c379a0000000000000000000000000000000000000000000000000000000008152600401611584906124a3565b60405180910390fd5b565b80600b60008282546115a19190611e8e565b9250508190555080600c60003373ffffffffffffffffffffffffffffffffffffffff1673ffffffffffffffffffffffffffffffffffffffff16815260200190815260200160002060008282546115f79190611e8e565b9250508190555050565b61160961187c565b73ffffffffffffffffffffffffffffffffffffffff16611627610faa565b73ffffffffffffffffffffffffffffffffffffffff161461167d576040517f08c379a00000000000000000000000000000000000000000000000000000000081526004016116749061250f565b60405180910390fd5b565b611687611884565b6000600160146101000a81548160ff0219169083151502179055507f5db9ee0a495bf2e6ff9c91a7834c1ba4fdd244a5e8aa4e537bd38aeae4b073aa6116cb61187c565b6040516116d89190611d6e565b60405180910390a1565b6000600160009054906101000a900473ffffffffffffffffffffffffffffffffffffffff16905081600160006101000a81548173ffffffffffffffffffffffffffffffffffffffff021916908373ffffffffffffffffffffffffffffffffffffffff1602179055508173ffffffffffffffffffffffffffffffffffffffff168173ffffffffffffffffffffffffffffffffffffffff167f8be0079c531659141344cd1fd0a4f28419497f9722a3daafe3b4186f6b6457e060405160405180910390a35050565b6117b0611545565b60018060146101000a81548160ff0219169083151502179055507f62e78cea01bee320cd4e420270b5ea74000d11b0c9f74754ebdbfc544b05a2586117f361187c565b6040516118009190611d6e565b60405180910390a1565b80600b600082825461181c9190611db8565b9250508190555080600c60003373ffffffffffffffffffffffffffffffffffffffff1673ffffffffffffffffffffffffffffffffffffffff16815260200190815260200160002060008282546118729190611db8565b9250508190555050565b600033905090565b61188c610f02565b6118cb576040517f08c379a00000000000000000000000000000000000000000000000000000000081526004016118c29061257b565b60405180910390fd5b565b6000604051905090565b600080fd5b600080fd5b600073ffffffffffffffffffffffffffffffffffffffff82169050919050565b600061190c826118e1565b9050919050565b61191c81611901565b811461192757600080fd5b50565b60008135905061193981611913565b92915050565b600060208284031215611955576119546118d7565b5b60006119638482850161192a565b91505092915050565b6000819050919050565b61197f8161196c565b82525050565b600060208201905061199a6000830184611976565b92915050565b600080fd5b6000601f19601f8301169050919050565b7f4e487b7100000000000000000000000000000000000000000000000000000000600052604160045260246000fd5b6119ee826119a5565b810181811067ffffffffffffffff82111715611a0d57611a0c6119b6565b5b80604052505050565b6000611a206118cd565b9050611a2c82826119e5565b919050565b600067ffffffffffffffff821115611a4c57611a4b6119b6565b5b602082029050602081019050919050565b600080fd5b611a6b8161196c565b8114611a7657600080fd5b50565b600081359050611a8881611a62565b92915050565b6000611aa1611a9c84611a31565b611a16565b90508083825260208201905060208402830185811115611ac457611ac3611a5d565b5b835b81811015611aed5780611ad98882611a79565b845260208401935050602081019050611ac6565b5050509392505050565b600082601f830112611b0c57611b0b6119a0565b5b8135611b1c848260208601611a8e565b91505092915050565b600060208284031215611b3b57611b3a6118d7565b5b600082013567ffffffffffffffff811115611b5957611b586118dc565b5b611b6584828501611af7565b91505092915050565b600080fd5b600067ffffffffffffffff821115611b8e57611b8d6119b6565b5b611b97826119a5565b9050602081019050919050565b82818337600083830152505050565b6000611bc6611bc184611b73565b611a16565b905082815260208101848484011115611be257611be1611b6e565b5b611bed848285611ba4565b509392505050565b600082601f830112611c0a57611c096119a0565b5b8135611c1a848260208601611bb3565b91505092915050565b60008060008060808587031215611c3d57611c3c6118d7565b5b6000611c4b8782880161192a565b9450506020611c5c8782880161192a565b9350506040611c6d87828801611a79565b925050606085013567ffffffffffffffff811115611c8e57611c8d6118dc565b5b611c9a87828801611bf5565b91505092959194509250565b60007fffffffff0000000000000000000000000000000000000000000000000000000082169050919050565b611cdb81611ca6565b82525050565b6000602082019050611cf66000830184611cd2565b92915050565b600060208284031215611d1257611d116118d7565b5b6000611d2084828501611a79565b91505092915050565b60008115159050919050565b611d3e81611d29565b82525050565b6000602082019050611d596000830184611d35565b92915050565b611d6881611901565b82525050565b6000602082019050611d836000830184611d5f565b92915050565b7f4e487b7100000000000000000000000000000000000000000000000000000000600052601160045260246000fd5b6000611dc38261196c565b9150611dce8361196c565b9250828203905081811115611de657611de5611d89565b5b92915050565b6000611df78261196c565b9150611e028361196c565b9250828202611e108161196c565b91508282048414831517611e2757611e26611d89565b5b5092915050565b7f4e487b7100000000000000000000000000000000000000000000000000000000600052601260045260246000fd5b6000611e688261196c565b9150611e738361196c565b925082611e8357611e82611e2e565b5b828204905092915050565b6000611e998261196c565b9150611ea48361196c565b9250828201905080821115611ebc57611ebb611d89565b5b92915050565b600082825260208201905092915050565b7f5265656e7472616e637947756172643a207265656e7472616e742063616c6c00600082015250565b6000611f09601f83611ec2565b9150611f1482611ed3565b602082019050919050565b60006020820190508181036000830152611f3881611efc565b9050919050565b7f5374616b696e673a204e6f20746f6b656e4964732070726f7669646564000000600082015250565b6000611f75601d83611ec2565b9150611f8082611f3f565b602082019050919050565b60006020820190508181036000830152611fa481611f68565b9050919050565b7f4e487b7100000000000000000000000000000000000000000000000000000000600052603260045260246000fd5b6000606082019050611fef6000830186611d5f565b611ffc6020830185611d5f565b6120096040830184611976565b949350505050565b600081519050919050565b600082825260208201905092915050565b6000819050602082019050919050565b6120468161196c565b82525050565b6000612058838361203d565b60208301905092915050565b6000602082019050919050565b600061207c82612011565b612086818561201c565b93506120918361202d565b8060005b838110156120c25781516120a9888261204c565b97506120b483612064565b925050600181019050612095565b5085935050505092915050565b60006040820190506120e46000830185611976565b81810360208301526120f68184612071565b90509392505050565b60008151905061210e81611a62565b92915050565b60006020828403121561212a576121296118d7565b5b6000612138848285016120ff565b91505092915050565b7f5374616b696e673a2050726f76696465642072657761726420746f6f2068696760008201527f6800000000000000000000000000000000000000000000000000000000000000602082015250565b600061219d602183611ec2565b91506121a882612141565b604082019050919050565b600060208201905081810360008301526121cc81612190565b9050919050565b60006040820190506121e86000830185611d5f565b6121f56020830184611976565b9392505050565b61220581611d29565b811461221057600080fd5b50565b600081519050612222816121fc565b92915050565b60006020828403121561223e5761223d6118d7565b5b600061224c84828501612213565b91505092915050565b7f5374616b696e673a204e6f7420746865207374616b6572206f6620746865207460008201527f6f6b656e00000000000000000000000000000000000000000000000000000000602082015250565b60006122b1602483611ec2565b91506122bc82612255565b604082019050919050565b600060208201905081810360008301526122e0816122a4565b9050919050565b7f5374616b696e673a2050726576696f7573207265776172647320706572696f6460008201527f206d75737420626520636f6d706c657465206265666f7265206368616e67696e60208201527f6720746865206475726174696f6e20666f7220746865206e657720706572696f60408201527f6400000000000000000000000000000000000000000000000000000000000000606082015250565b600061238f606183611ec2565b915061239a826122e7565b608082019050919050565b600060208201905081810360008301526123be81612382565b9050919050565b7f4f776e61626c653a206e6577206f776e657220697320746865207a65726f206160008201527f6464726573730000000000000000000000000000000000000000000000000000602082015250565b6000612421602683611ec2565b915061242c826123c5565b604082019050919050565b6000602082019050818103600083015261245081612414565b9050919050565b7f5061757361626c653a2070617573656400000000000000000000000000000000600082015250565b600061248d601083611ec2565b915061249882612457565b602082019050919050565b600060208201905081810360008301526124bc81612480565b9050919050565b7f4f776e61626c653a2063616c6c6572206973206e6f7420746865206f776e6572600082015250565b60006124f9602083611ec2565b9150612504826124c3565b602082019050919050565b60006020820190508181036000830152612528816124ec565b9050919050565b7f5061757361626c653a206e6f7420706175736564000000000000000000000000600082015250565b6000612565601483611ec2565b91506125708261252f565b602082019050919050565b6000602082019050818103600083015261259481612558565b905091905056fea2646970667358221220aa84280c20d23ba1823d14345fe4e7e27421cbd08bf78f7ff82782e671b3908d64736f6c63430008110033",
  "immutableReferences": {},
  "source": "// SPDX-License-Identifier: GPL-3.0\n\npragma solidity >=0.7.0 <0.9.0;\n\nimport \"./BdlNft.sol\";\nimport \"./BdlToken.sol\";\nimport \"@openzeppelin/contracts/token/ERC721/utils/ERC721Holder.sol\";\nimport \"@openzeppelin/contracts/security/ReentrancyGuard.sol\";\nimport \"@openzeppelin/contracts/security/Pausable.sol\";\nimport \"@openzeppelin/contracts/access/Ownable.sol\";\n\ncontract BdlNftStaking is ERC721Holder, ReentrancyGuard, Ownable, Pausable {\n    // state variable\n    BdlToken bdlToken;\n    BdlNft bdlNft;\n\n    uint256 public periodFinish = 0;\n    uint256 public rewardRate = 0;\n    uint256 public rewardsDuration;\n    uint256 public lastUpdateTime;\n    uint256 public rewardPerTokenStored;\n\n    mapping(address => uint256) public userRewardPerTokenPaid;\n    mapping(address => uint256) public rewards;\n\n    uint256 public totalSupply;\n    mapping(address => uint256) public balances;\n    mapping(uint256 => address) public stakedAssets;\n\n    // contructor\n    constructor(\n        address _bdlNft,\n        address _bdlToken,\n        uint256 _rewardsDuration\n    ) {\n        bdlNft = BdlNft(_bdlNft);\n        bdlToken = BdlToken(_bdlToken);\n        rewardsDuration = _rewardsDuration;\n    }\n\n    // views\n    function lastTimeRewardApplicable() public view returns (uint256) {\n        return block.timestamp < periodFinish ? block.timestamp : periodFinish;\n    }\n\n    function rewardPerToken() public view returns (uint256) {\n        if (totalSupply == 0) {\n            return rewardPerTokenStored;\n        }\n        return\n            rewardPerTokenStored +\n            (((lastTimeRewardApplicable() - lastUpdateTime) *\n                rewardRate *\n                1e18) / totalSupply);\n    }\n\n    function earned(address account) public view returns (uint256) {\n        return\n            ((balances[account] *\n                (rewardPerToken() - userRewardPerTokenPaid[account])) / 1e18) +\n            rewards[account];\n    }\n\n    function getRewardForDuration() external view returns (uint256) {\n        return rewardRate * rewardsDuration;\n    }\n\n    // mutative functions\n    /// @notice Stakes user's NFTs\n    /// @param tokenIds The tokenIds of the NFTs which will be staked\n    function stake(uint256[] memory tokenIds)\n        external\n        nonReentrant\n        whenNotPaused\n        updateReward(msg.sender)\n    {\n        require(tokenIds.length != 0, \"Staking: No tokenIds provided\");\n\n        uint256 amount;\n        for (uint256 i = 0; i < tokenIds.length; i += 1) {\n            // Transfer user's NFTs to the staking contract\n            bdlNft.transferFrom(msg.sender, address(this), tokenIds[i]);\n            // Increment the amount which will be staked\n            amount += 1;\n            // Save who is the staker/depositor of the token\n            stakedAssets[tokenIds[i]] = msg.sender;\n        }\n        _stake(amount);\n        emit Staked(msg.sender, amount, tokenIds);\n    }\n\n    /// @notice Withdraws staked user's NFTs\n    /// @param tokenIds The tokenIds of the NFTs which will be withdrawn\n    function withdraw(uint256[] memory tokenIds)\n        public\n        nonReentrant\n        updateReward(msg.sender)\n    {\n        require(tokenIds.length != 0, \"Staking: No tokenIds provided\");\n\n        uint256 amount;\n        for (uint256 i = 0; i < tokenIds.length; i += 1) {\n            // Check if the user who withdraws is the owner\n            require(\n                stakedAssets[tokenIds[i]] == msg.sender,\n                \"Staking: Not the staker of the token\"\n            );\n            // Transfer NFTs back to the owner\n            bdlNft.transferFrom(address(this), msg.sender, tokenIds[i]);\n            // Increment the amount which will be withdrawn\n            amount += 1;\n            // Cleanup stakedAssets for the current tokenId\n            stakedAssets[tokenIds[i]] = address(0);\n        }\n        _withdraw(amount);\n\n        emit Withdrawn(msg.sender, amount, tokenIds);\n    }\n\n    function getReward() public nonReentrant updateReward(msg.sender) {\n        uint256 reward = rewards[msg.sender];\n        if (reward > 0) {\n            rewards[msg.sender] = 0;\n            bdlToken.transfer(msg.sender, reward);\n            emit RewardPaid(msg.sender, reward);\n        }\n    }\n\n    function exit(uint256[] memory tokenIds) external {\n        withdraw(tokenIds);\n        getReward();\n    }\n\n    function _stake(uint256 _amount) internal {\n        totalSupply += _amount;\n        balances[msg.sender] += _amount;\n    }\n\n    function _withdraw(uint256 _amount) internal {\n        totalSupply -= _amount;\n        balances[msg.sender] -= _amount;\n    }\n\n    // retricted functions\n    /// @notice Calculates and sets the reward rate\n    /// @param reward The amount of the reward which will be distributed during the entire period\n    function notifyRewardAmount(uint256 reward)\n        external\n        onlyOwner\n        updateReward(address(0))\n    {\n        if (block.timestamp >= periodFinish) {\n            rewardRate = reward / rewardsDuration;\n        } else {\n            uint256 remaining = periodFinish - block.timestamp;\n            uint256 leftover = remaining * rewardRate;\n            rewardRate = (reward + leftover) / rewardsDuration;\n        }\n\n        // Ensure the provided reward amount is not more than the balance in the contract.\n        // This keeps the reward rate in the right range, preventing overflows due to\n        // very high values of rewardRate in the earned and rewardsPerToken functions;\n        // Reward + leftover must be less than 2^256 / 10^18 to avoid overflow.\n        uint balance = bdlToken.balanceOf(address(this));\n        require(\n            rewardRate <= balance / rewardsDuration,\n            \"Staking: Provided reward too high\"\n        );\n\n        lastUpdateTime = block.timestamp;\n        periodFinish = block.timestamp + rewardsDuration;\n        emit RewardAdded(reward);\n    }\n\n    function setRewardsDuration(uint256 _rewardsDuration) external onlyOwner {\n        require(\n            block.timestamp > periodFinish,\n            \"Staking: Previous rewards period must be complete before changing the duration for the new period\"\n        );\n        rewardsDuration = _rewardsDuration;\n        emit RewardsDurationUpdated(rewardsDuration);\n    }\n\n    function pause() external onlyOwner {\n        _pause();\n    }\n\n    function unpause() external onlyOwner {\n        _unpause();\n    }\n\n    // modifiers\n    modifier updateReward(address account) {\n        rewardPerTokenStored = rewardPerToken();\n        lastUpdateTime = lastTimeRewardApplicable();\n        if (account != address(0)) {\n            rewards[account] = earned(account);\n            userRewardPerTokenPaid[account] = rewardPerTokenStored;\n        }\n        _;\n    }\n\n    // events\n    event RewardAdded(uint256 reward);\n    event Staked(address indexed user, uint256 amount, uint256[] tokenIds);\n    event Withdrawn(address indexed user, uint256 amount, uint256[] tokenIds);\n    event RewardPaid(address indexed user, uint256 reward);\n    event RewardsDurationUpdated(uint256 newDuration);\n}\n",
  "sourcePath": "C:\\Users\\Arogundade Ibrahim\\Documents\\web3\\Buidl\\contracts\\BdlNftStaking.sol",
  "compiler": {
    "name": "solc",
    "version": "0.8.17+commit.8df45f5f.Emscripten.clang"
  },
  "schemaVersion": "3.4.10",
  "updatedAt": "2022-10-22T16:58:19.977Z",
  "devdoc": {
    "kind": "dev",
    "methods": {
      "notifyRewardAmount(uint256)": {
        "params": {
          "reward": "The amount of the reward which will be distributed during the entire period"
        }
      },
      "onERC721Received(address,address,uint256,bytes)": {
        "details": "See {IERC721Receiver-onERC721Received}. Always returns `IERC721Receiver.onERC721Received.selector`."
      },
      "owner()": {
        "details": "Returns the address of the current owner."
      },
      "paused()": {
        "details": "Returns true if the contract is paused, and false otherwise."
      },
      "renounceOwnership()": {
        "details": "Leaves the contract without owner. It will not be possible to call `onlyOwner` functions anymore. Can only be called by the current owner. NOTE: Renouncing ownership will leave the contract without an owner, thereby removing any functionality that is only available to the owner."
      },
      "stake(uint256[])": {
        "params": {
          "tokenIds": "The tokenIds of the NFTs which will be staked"
        }
      },
      "transferOwnership(address)": {
        "details": "Transfers ownership of the contract to a new account (`newOwner`). Can only be called by the current owner."
      },
      "withdraw(uint256[])": {
        "params": {
          "tokenIds": "The tokenIds of the NFTs which will be withdrawn"
        }
      }
    },
    "version": 1
  },
  "userdoc": {
    "kind": "user",
    "methods": {
      "notifyRewardAmount(uint256)": {
        "notice": "Calculates and sets the reward rate"
      },
      "stake(uint256[])": {
        "notice": "Stakes user's NFTs"
      },
      "withdraw(uint256[])": {
        "notice": "Withdraws staked user's NFTs"
      }
    },
    "version": 1
  }
}