{
  "contractName": "BdlNft",
  "abi": [
    {
      "inputs": [
        {
          "internalType": "string",
          "name": "name",
          "type": "string"
        },
        {
          "internalType": "string",
          "name": "symbol",
          "type": "string"
        }
      ],
      "stateMutability": "nonpayable",
      "type": "constructor"
    },
    {
      "anonymous": false,
      "inputs": [
        {
          "indexed": true,
          "internalType": "address",
          "name": "owner",
          "type": "address"
        },
        {
          "indexed": true,
          "internalType": "address",
          "name": "approved",
          "type": "address"
        },
        {
          "indexed": true,
          "internalType": "uint256",
          "name": "tokenId",
          "type": "uint256"
        }
      ],
      "name": "Approval",
      "type": "event"
    },
    {
      "anonymous": false,
      "inputs": [
        {
          "indexed": true,
          "internalType": "address",
          "name": "owner",
          "type": "address"
        },
        {
          "indexed": true,
          "internalType": "address",
          "name": "operator",
          "type": "address"
        },
        {
          "indexed": false,
          "internalType": "bool",
          "name": "approved",
          "type": "bool"
        }
      ],
      "name": "ApprovalForAll",
      "type": "event"
    },
    {
      "anonymous": false,
      "inputs": [
        {
          "indexed": true,
          "internalType": "address",
          "name": "previousOwner",
          "type": "address"
        },
        {
          "indexed": true,
          "internalType": "address",
          "name": "newOwner",
          "type": "address"
        }
      ],
      "name": "OwnershipTransferred",
      "type": "event"
    },
    {
      "anonymous": false,
      "inputs": [
        {
          "indexed": true,
          "internalType": "address",
          "name": "from",
          "type": "address"
        },
        {
          "indexed": true,
          "internalType": "address",
          "name": "to",
          "type": "address"
        },
        {
          "indexed": true,
          "internalType": "uint256",
          "name": "tokenId",
          "type": "uint256"
        }
      ],
      "name": "Transfer",
      "type": "event"
    },
    {
      "inputs": [
        {
          "internalType": "address",
          "name": "to",
          "type": "address"
        },
        {
          "internalType": "uint256",
          "name": "tokenId",
          "type": "uint256"
        }
      ],
      "name": "approve",
      "outputs": [],
      "stateMutability": "nonpayable",
      "type": "function"
    },
    {
      "inputs": [
        {
          "internalType": "address",
          "name": "owner",
          "type": "address"
        }
      ],
      "name": "balanceOf",
      "outputs": [
        {
          "internalType": "uint256",
          "name": "",
          "type": "uint256"
        }
      ],
      "stateMutability": "view",
      "type": "function",
      "constant": true
    },
    {
      "inputs": [
        {
          "internalType": "uint256",
          "name": "tokenId",
          "type": "uint256"
        }
      ],
      "name": "getApproved",
      "outputs": [
        {
          "internalType": "address",
          "name": "",
          "type": "address"
        }
      ],
      "stateMutability": "view",
      "type": "function",
      "constant": true
    },
    {
      "inputs": [
        {
          "internalType": "address",
          "name": "owner",
          "type": "address"
        },
        {
          "internalType": "address",
          "name": "operator",
          "type": "address"
        }
      ],
      "name": "isApprovedForAll",
      "outputs": [
        {
          "internalType": "bool",
          "name": "",
          "type": "bool"
        }
      ],
      "stateMutability": "view",
      "type": "function",
      "constant": true
    },
    {
      "inputs": [],
      "name": "name",
      "outputs": [
        {
          "internalType": "string",
          "name": "",
          "type": "string"
        }
      ],
      "stateMutability": "view",
      "type": "function",
      "constant": true
    },
    {
      "inputs": [],
      "name": "owner",
      "outputs": [
        {
          "internalType": "address",
          "name": "",
          "type": "address"
        }
      ],
      "stateMutability": "view",
      "type": "function",
      "constant": true
    },
    {
      "inputs": [
        {
          "internalType": "uint256",
          "name": "tokenId",
          "type": "uint256"
        }
      ],
      "name": "ownerOf",
      "outputs": [
        {
          "internalType": "address",
          "name": "",
          "type": "address"
        }
      ],
      "stateMutability": "view",
      "type": "function",
      "constant": true
    },
    {
      "inputs": [],
      "name": "renounceOwnership",
      "outputs": [],
      "stateMutability": "nonpayable",
      "type": "function"
    },
    {
      "inputs": [
        {
          "internalType": "address",
          "name": "from",
          "type": "address"
        },
        {
          "internalType": "address",
          "name": "to",
          "type": "address"
        },
        {
          "internalType": "uint256",
          "name": "tokenId",
          "type": "uint256"
        }
      ],
      "name": "safeTransferFrom",
      "outputs": [],
      "stateMutability": "nonpayable",
      "type": "function"
    },
    {
      "inputs": [
        {
          "internalType": "address",
          "name": "from",
          "type": "address"
        },
        {
          "internalType": "address",
          "name": "to",
          "type": "address"
        },
        {
          "internalType": "uint256",
          "name": "tokenId",
          "type": "uint256"
        },
        {
          "internalType": "bytes",
          "name": "data",
          "type": "bytes"
        }
      ],
      "name": "safeTransferFrom",
      "outputs": [],
      "stateMutability": "nonpayable",
      "type": "function"
    },
    {
      "inputs": [
        {
          "internalType": "address",
          "name": "operator",
          "type": "address"
        },
        {
          "internalType": "bool",
          "name": "approved",
          "type": "bool"
        }
      ],
      "name": "setApprovalForAll",
      "outputs": [],
      "stateMutability": "nonpayable",
      "type": "function"
    },
    {
      "inputs": [
        {
          "internalType": "bytes4",
          "name": "interfaceId",
          "type": "bytes4"
        }
      ],
      "name": "supportsInterface",
      "outputs": [
        {
          "internalType": "bool",
          "name": "",
          "type": "bool"
        }
      ],
      "stateMutability": "view",
      "type": "function",
      "constant": true
    },
    {
      "inputs": [],
      "name": "symbol",
      "outputs": [
        {
          "internalType": "string",
          "name": "",
          "type": "string"
        }
      ],
      "stateMutability": "view",
      "type": "function",
      "constant": true
    },
    {
      "inputs": [
        {
          "internalType": "uint256",
          "name": "",
          "type": "uint256"
        }
      ],
      "name": "tokenPercentages",
      "outputs": [
        {
          "internalType": "uint256",
          "name": "",
          "type": "uint256"
        }
      ],
      "stateMutability": "view",
      "type": "function",
      "constant": true
    },
    {
      "inputs": [
        {
          "internalType": "address",
          "name": "from",
          "type": "address"
        },
        {
          "internalType": "address",
          "name": "to",
          "type": "address"
        },
        {
          "internalType": "uint256",
          "name": "tokenId",
          "type": "uint256"
        }
      ],
      "name": "transferFrom",
      "outputs": [],
      "stateMutability": "nonpayable",
      "type": "function"
    },
    {
      "inputs": [
        {
          "internalType": "address",
          "name": "newOwner",
          "type": "address"
        }
      ],
      "name": "transferOwnership",
      "outputs": [],
      "stateMutability": "nonpayable",
      "type": "function"
    },
    {
      "inputs": [
        {
          "internalType": "string",
          "name": "baseURI",
          "type": "string"
        }
      ],
      "name": "setBaseURI",
      "outputs": [],
      "stateMutability": "nonpayable",
      "type": "function"
    },
    {
      "inputs": [
        {
          "internalType": "uint256",
          "name": "tokenId",
          "type": "uint256"
        }
      ],
      "name": "tokenURI",
      "outputs": [
        {
          "internalType": "string",
          "name": "",
          "type": "string"
        }
      ],
      "stateMutability": "view",
      "type": "function",
      "constant": true
    },
    {
      "inputs": [
        {
          "internalType": "address",
          "name": "to",
          "type": "address"
        },
        {
          "internalType": "uint256",
          "name": "",
          "type": "uint256"
        }
      ],
      "name": "mint",
      "outputs": [],
      "stateMutability": "nonpayable",
      "type": "function"
    },
    {
      "inputs": [
        {
          "internalType": "uint256",
          "name": "tokenId",
          "type": "uint256"
        }
      ],
      "name": "burn",
      "outputs": [],
      "stateMutability": "nonpayable",
      "type": "function"
    }
  ],
  "bytecode": "0x608060405260016008553480156200001657600080fd5b5060405162002164380380620021648339810160408190526200003991620001aa565b81816000620000498382620002a3565b506001620000588282620002a3565b505050620000756200006f6200008f60201b60201c565b62000093565b5050600780546001600160a01b031916331790556200036f565b3390565b600680546001600160a01b038381166001600160a01b0319831681179093556040519116919082907f8be0079c531659141344cd1fd0a4f28419497f9722a3daafe3b4186f6b6457e090600090a35050565b634e487b7160e01b600052604160045260246000fd5b600082601f8301126200010d57600080fd5b81516001600160401b03808211156200012a576200012a620000e5565b604051601f8301601f19908116603f01168101908282118183101715620001555762000155620000e5565b816040528381526020925086838588010111156200017257600080fd5b600091505b8382101562000196578582018301518183018401529082019062000177565b600093810190920192909252949350505050565b60008060408385031215620001be57600080fd5b82516001600160401b0380821115620001d657600080fd5b620001e486838701620000fb565b93506020850151915080821115620001fb57600080fd5b506200020a85828601620000fb565b9150509250929050565b600181811c908216806200022957607f821691505b6020821081036200024a57634e487b7160e01b600052602260045260246000fd5b50919050565b601f8211156200029e57600081815260208120601f850160051c81016020861015620002795750805b601f850160051c820191505b818110156200029a5782815560010162000285565b5050505b505050565b81516001600160401b03811115620002bf57620002bf620000e5565b620002d781620002d0845462000214565b8462000250565b602080601f8311600181146200030f5760008415620002f65750858301515b600019600386901b1c1916600185901b1785556200029a565b600085815260208120601f198616915b8281101562000340578886015182559484019460019091019084016200031f565b50858210156200035f5787850151600019600388901b60f8161c191681555b5050505050600190811b01905550565b611de5806200037f6000396000f3fe608060405234801561001057600080fd5b506004361061016c5760003560e01c806370a08231116100cd578063b88d4fde11610081578063e985e9c511610066578063e985e9c5146102db578063f2fde38b14610317578063fece2b4a1461032a57600080fd5b8063b88d4fde146102b5578063c87b56dd146102c857600080fd5b80638da5cb5b116100b25780638da5cb5b1461028957806395d89b411461029a578063a22cb465146102a257600080fd5b806370a0823114610260578063715018a61461028157600080fd5b806340c10f191161012457806342966c681161010957806342966c681461022757806355f804b31461023a5780636352211e1461024d57600080fd5b806340c10f191461020157806342842e0e1461021457600080fd5b8063081812fc11610155578063081812fc146101ae578063095ea7b3146101d957806323b872dd146101ee57600080fd5b806301ffc9a71461017157806306fdde0314610199575b600080fd5b61018461017f36600461175c565b61034a565b60405190151581526020015b60405180910390f35b6101a16103e7565b60405161019091906117d0565b6101c16101bc3660046117e3565b610479565b6040516001600160a01b039091168152602001610190565b6101ec6101e7366004611818565b6104a0565b005b6101ec6101fc366004611842565b6105f4565b6101ec61020f366004611818565b61067b565b6101ec610222366004611842565b6106be565b6101ec6102353660046117e3565b6106d9565b6101ec61024836600461192b565b6106e5565b6101c161025b3660046117e3565b6106fd565b61027361026e366004611974565b610762565b604051908152602001610190565b6101ec6107fc565b6006546001600160a01b03166101c1565b6101a1610810565b6101ec6102b036600461198f565b61081f565b6101ec6102c33660046119cb565b61082a565b6101a16102d63660046117e3565b6108b8565b6101846102e9366004611a47565b6001600160a01b03918216600090815260056020908152604080832093909416825291909152205460ff1690565b6101ec610325366004611974565b610a0a565b6102736103383660046117e3565b600a6020526000908152604090205481565b60006001600160e01b031982167f80ac58cd0000000000000000000000000000000000000000000000000000000014806103ad57506001600160e01b031982167f5b5e139f00000000000000000000000000000000000000000000000000000000145b806103e157507f01ffc9a7000000000000000000000000000000000000000000000000000000006001600160e01b03198316145b92915050565b6060600080546103f690611a7a565b80601f016020809104026020016040519081016040528092919081815260200182805461042290611a7a565b801561046f5780601f106104445761010080835404028352916020019161046f565b820191906000526020600020905b81548152906001019060200180831161045257829003601f168201915b5050505050905090565b600061048482610a97565b506000908152600460205260409020546001600160a01b031690565b60006104ab826106fd565b9050806001600160a01b0316836001600160a01b0316036105395760405162461bcd60e51b815260206004820152602160248201527f4552433732313a20617070726f76616c20746f2063757272656e74206f776e6560448201527f720000000000000000000000000000000000000000000000000000000000000060648201526084015b60405180910390fd5b336001600160a01b038216148061057357506001600160a01b038116600090815260056020908152604080832033845290915290205460ff165b6105e55760405162461bcd60e51b815260206004820152603e60248201527f4552433732313a20617070726f76652063616c6c6572206973206e6f7420746f60448201527f6b656e206f776e6572206e6f7220617070726f76656420666f7220616c6c00006064820152608401610530565b6105ef8383610afb565b505050565b6105fe3382610b76565b6106705760405162461bcd60e51b815260206004820152602e60248201527f4552433732313a2063616c6c6572206973206e6f7420746f6b656e206f776e6560448201527f72206e6f7220617070726f7665640000000000000000000000000000000000006064820152608401610530565b6105ef838383610bf5565b6004600061068882610dcf565b905061069684600854611028565b6106a36008548284611177565b600880549060006106b383611aca565b919050555050505050565b6105ef8383836040518060200160405280600081525061082a565b6106e2816111f3565b50565b6106ed61129b565b600b6106f98282611b31565b5050565b6000818152600260205260408120546001600160a01b0316806103e15760405162461bcd60e51b815260206004820152601860248201527f4552433732313a20696e76616c696420746f6b656e20494400000000000000006044820152606401610530565b60006001600160a01b0382166107e05760405162461bcd60e51b815260206004820152602960248201527f4552433732313a2061646472657373207a65726f206973206e6f74206120766160448201527f6c6964206f776e657200000000000000000000000000000000000000000000006064820152608401610530565b506001600160a01b031660009081526003602052604090205490565b61080461129b565b61080e60006112f5565b565b6060600180546103f690611a7a565b6106f9338383611354565b6108343383610b76565b6108a65760405162461bcd60e51b815260206004820152602e60248201527f4552433732313a2063616c6c6572206973206e6f7420746f6b656e206f776e6560448201527f72206e6f7220617070726f7665640000000000000000000000000000000000006064820152608401610530565b6108b284848484611422565b50505050565b6000818152600260205260409020546060906001600160a01b03166109085760405162461bcd60e51b815260206004820152600660248201526508595e1a5cdd60d21b6044820152606401610530565b6000828152600960205260408120805461092190611a7a565b80601f016020809104026020016040519081016040528092919081815260200182805461094d90611a7a565b801561099a5780601f1061096f5761010080835404028352916020019161099a565b820191906000526020600020905b81548152906001019060200180831161097d57829003601f168201915b5050505050905060006109ab6114ab565b905080516000036109bd575092915050565b8151156109ef5780826040516020016109d7929190611bf1565b60405160208183030381529060405292505050919050565b806109f9856114ba565b6040516020016109d7929190611bf1565b610a1261129b565b6001600160a01b038116610a8e5760405162461bcd60e51b815260206004820152602660248201527f4f776e61626c653a206e6577206f776e657220697320746865207a65726f206160448201527f64647265737300000000000000000000000000000000000000000000000000006064820152608401610530565b6106e2816112f5565b6000818152600260205260409020546001600160a01b03166106e25760405162461bcd60e51b815260206004820152601860248201527f4552433732313a20696e76616c696420746f6b656e20494400000000000000006044820152606401610530565b6000818152600460205260409020805473ffffffffffffffffffffffffffffffffffffffff19166001600160a01b0384169081179091558190610b3d826106fd565b6001600160a01b03167f8c5be1e5ebec7d5bd14f71427d1e84f3dd0314c0f7b2291e5b200ac8c7c3b92560405160405180910390a45050565b600080610b82836106fd565b9050806001600160a01b0316846001600160a01b03161480610bc957506001600160a01b0380821660009081526005602090815260408083209388168352929052205460ff165b80610bed5750836001600160a01b0316610be284610479565b6001600160a01b0316145b949350505050565b826001600160a01b0316610c08826106fd565b6001600160a01b031614610c845760405162461bcd60e51b815260206004820152602560248201527f4552433732313a207472616e736665722066726f6d20696e636f72726563742060448201527f6f776e65720000000000000000000000000000000000000000000000000000006064820152608401610530565b6001600160a01b038216610cff5760405162461bcd60e51b8152602060048201526024808201527f4552433732313a207472616e7366657220746f20746865207a65726f2061646460448201527f72657373000000000000000000000000000000000000000000000000000000006064820152608401610530565b610d0a600082610afb565b6001600160a01b0383166000908152600360205260408120805460019290610d33908490611c20565b90915550506001600160a01b0382166000908152600360205260408120805460019290610d61908490611c33565b9091555050600081815260026020526040808220805473ffffffffffffffffffffffffffffffffffffffff19166001600160a01b0386811691821790925591518493918716917fddf252ad1be2c89b69c2b068fc378daa952ba7f163c4a11628f55a4df523b3ef91a4505050565b60606000604051602001610f5c907f7b226e616d65223a20224d72204d6f6e6b65790000000000000000000000000081527f222c2022696d616765223a202268747470733a2f2f627569646c2e6e65746c6960138201527f66792e6170702f696d616765732f6e6674322e6a7067222c202264657363726960338201527f7074696f6e223a202254686973206973204e46542069732061206d6f6e6b657960538201527f204e465420666f7220427569646c20636f75706f6e222c20226174747269627560738201527f746573223a00000000000000000000000000000000000000000000000000000060938201527f5b7b22646973706c61795f74797065223a22626f6f73745f6e756d626572222c60988201527f2274726169745f74797065223a2250657263656e74616765222c2276616c756560b88201527f223a2234227d5d0000000000000000000000000000000000000000000000000060d88201527f7d0000000000000000000000000000000000000000000000000000000000000060df82015260e00190565b60408051601f19818403018152908290527fdaa68c21000000000000000000000000000000000000000000000000000000008252915073__Base64________________________________9063daa68c2190610fbc9084906004016117d0565b600060405180830381865af4158015610fd9573d6000803e3d6000fd5b505050506040513d6000823e601f3d908101601f191682016040526110019190810190611c46565b6040516020016110119190611cbd565b604051602081830303815290604052915050919050565b6001600160a01b03821661107e5760405162461bcd60e51b815260206004820181905260248201527f4552433732313a206d696e7420746f20746865207a65726f20616464726573736044820152606401610530565b6000818152600260205260409020546001600160a01b0316156110e35760405162461bcd60e51b815260206004820152601c60248201527f4552433732313a20746f6b656e20616c7265616479206d696e746564000000006044820152606401610530565b6001600160a01b038216600090815260036020526040812080546001929061110c908490611c33565b9091555050600081815260026020526040808220805473ffffffffffffffffffffffffffffffffffffffff19166001600160a01b03861690811790915590518392907fddf252ad1be2c89b69c2b068fc378daa952ba7f163c4a11628f55a4df523b3ef908290a45050565b6000838152600260205260409020546001600160a01b03166111c45760405162461bcd60e51b815260206004820152600660248201526508595e1a5cdd60d21b6044820152606401610530565b60008381526009602052604090206111dc8382611b31565b506008546000908152600a60205260409020555050565b60006111fe826106fd565b905061120b600083610afb565b6001600160a01b0381166000908152600360205260408120805460019290611234908490611c20565b9091555050600082815260026020526040808220805473ffffffffffffffffffffffffffffffffffffffff19169055518391906001600160a01b038416907fddf252ad1be2c89b69c2b068fc378daa952ba7f163c4a11628f55a4df523b3ef908390a45050565b6006546001600160a01b0316331461080e5760405162461bcd60e51b815260206004820181905260248201527f4f776e61626c653a2063616c6c6572206973206e6f7420746865206f776e65726044820152606401610530565b600680546001600160a01b0383811673ffffffffffffffffffffffffffffffffffffffff19831681179093556040519116919082907f8be0079c531659141344cd1fd0a4f28419497f9722a3daafe3b4186f6b6457e090600090a35050565b816001600160a01b0316836001600160a01b0316036113b55760405162461bcd60e51b815260206004820152601960248201527f4552433732313a20617070726f766520746f2063616c6c6572000000000000006044820152606401610530565b6001600160a01b03838116600081815260056020908152604080832094871680845294825291829020805460ff191686151590811790915591519182527f17307eab39ab6107e8899845ad3d59bd9653f200f220920489ca2b5937696c31910160405180910390a3505050565b61142d848484610bf5565b611439848484846115ef565b6108b25760405162461bcd60e51b815260206004820152603260248201527f4552433732313a207472616e7366657220746f206e6f6e20455243373231526560448201527f63656976657220696d706c656d656e74657200000000000000000000000000006064820152608401610530565b6060600b80546103f690611a7a565b6060816000036114fd57505060408051808201909152600181527f3000000000000000000000000000000000000000000000000000000000000000602082015290565b8160005b8115611527578061151181611aca565b91506115209050600a83611d18565b9150611501565b60008167ffffffffffffffff8111156115425761154261187e565b6040519080825280601f01601f19166020018201604052801561156c576020820181803683370190505b5090505b8415610bed57611581600183611c20565b915061158e600a86611d2c565b611599906030611c33565b60f81b8183815181106115ae576115ae611d40565b60200101907effffffffffffffffffffffffffffffffffffffffffffffffffffffffffffff1916908160001a9053506115e8600a86611d18565b9450611570565b60006001600160a01b0384163b1561173b57604051630a85bd0160e11b81526001600160a01b0385169063150b7a0290611633903390899088908890600401611d56565b6020604051808303816000875af192505050801561166e575060408051601f3d908101601f1916820190925261166b91810190611d92565b60015b611721573d80801561169c576040519150601f19603f3d011682016040523d82523d6000602084013e6116a1565b606091505b5080516000036117195760405162461bcd60e51b815260206004820152603260248201527f4552433732313a207472616e7366657220746f206e6f6e20455243373231526560448201527f63656976657220696d706c656d656e74657200000000000000000000000000006064820152608401610530565b805181602001fd5b6001600160e01b031916630a85bd0160e11b149050610bed565b506001949350505050565b6001600160e01b0319811681146106e257600080fd5b60006020828403121561176e57600080fd5b813561177981611746565b9392505050565b60005b8381101561179b578181015183820152602001611783565b50506000910152565b600081518084526117bc816020860160208601611780565b601f01601f19169290920160200192915050565b60208152600061177960208301846117a4565b6000602082840312156117f557600080fd5b5035919050565b80356001600160a01b038116811461181357600080fd5b919050565b6000806040838503121561182b57600080fd5b611834836117fc565b946020939093013593505050565b60008060006060848603121561185757600080fd5b611860846117fc565b925061186e602085016117fc565b9150604084013590509250925092565b634e487b7160e01b600052604160045260246000fd5b604051601f8201601f1916810167ffffffffffffffff811182821017156118bd576118bd61187e565b604052919050565b600067ffffffffffffffff8211156118df576118df61187e565b50601f01601f191660200190565b60006119006118fb846118c5565b611894565b905082815283838301111561191457600080fd5b828260208301376000602084830101529392505050565b60006020828403121561193d57600080fd5b813567ffffffffffffffff81111561195457600080fd5b8201601f8101841361196557600080fd5b610bed848235602084016118ed565b60006020828403121561198657600080fd5b611779826117fc565b600080604083850312156119a257600080fd5b6119ab836117fc565b9150602083013580151581146119c057600080fd5b809150509250929050565b600080600080608085870312156119e157600080fd5b6119ea856117fc565b93506119f8602086016117fc565b925060408501359150606085013567ffffffffffffffff811115611a1b57600080fd5b8501601f81018713611a2c57600080fd5b611a3b878235602084016118ed565b91505092959194509250565b60008060408385031215611a5a57600080fd5b611a63836117fc565b9150611a71602084016117fc565b90509250929050565b600181811c90821680611a8e57607f821691505b602082108103611aae57634e487b7160e01b600052602260045260246000fd5b50919050565b634e487b7160e01b600052601160045260246000fd5b600060018201611adc57611adc611ab4565b5060010190565b601f8211156105ef57600081815260208120601f850160051c81016020861015611b0a5750805b601f850160051c820191505b81811015611b2957828155600101611b16565b505050505050565b815167ffffffffffffffff811115611b4b57611b4b61187e565b611b5f81611b598454611a7a565b84611ae3565b602080601f831160018114611b945760008415611b7c5750858301515b600019600386901b1c1916600185901b178555611b29565b600085815260208120601f198616915b82811015611bc357888601518255948401946001909101908401611ba4565b5085821015611be15787850151600019600388901b60f8161c191681555b5050505050600190811b01905550565b60008351611c03818460208801611780565b835190830190611c17818360208801611780565b01949350505050565b818103818111156103e1576103e1611ab4565b808201808211156103e1576103e1611ab4565b600060208284031215611c5857600080fd5b815167ffffffffffffffff811115611c6f57600080fd5b8201601f81018413611c8057600080fd5b8051611c8e6118fb826118c5565b818152856020838501011115611ca357600080fd5b611cb4826020830160208601611780565b95945050505050565b7f646174613a6170706c69636174696f6e2f6a736f6e3b6261736536342c000000815260008251611cf581601d850160208701611780565b91909101601d0192915050565b634e487b7160e01b600052601260045260246000fd5b600082611d2757611d27611d02565b500490565b600082611d3b57611d3b611d02565b500690565b634e487b7160e01b600052603260045260246000fd5b60006001600160a01b03808716835280861660208401525083604083015260806060830152611d8860808301846117a4565b9695505050505050565b600060208284031215611da457600080fd5b81516117798161174656fea2646970667358221220ef6c8cfe1111f427525e48600479e9a47c1d1a1971a32094c6215323dd4d829264736f6c63430008100033",
  "immutableReferences": {},
  "source": "// SPDX-License-Identifier: GPL-3.0\npragma solidity >=0.7.0 <0.9.0;\n\nimport \"@openzeppelin/contracts/token/ERC721/ERC721.sol\";\nimport \"@openzeppelin/contracts/access/Ownable.sol\";\nimport {Base64} from \"./../base/Base64.sol\";\n\ncontract BdlNft is ERC721, Ownable {\n    address deployer;\n    uint256 tokenID = 1;\n\n    using Strings for uint256;\n\n    mapping(uint256 => string) private tokenURIs;\n    mapping(uint256 => uint) public tokenPercentages;\n\n    string private baseURIextended;\n\n    constructor(string memory name, string memory symbol) ERC721(name, symbol) {\n        deployer = msg.sender;\n    }\n\n    function setBaseURI(string memory baseURI) external onlyOwner {\n        baseURIextended = baseURI;\n    }\n\n    function _setTokenURI(uint256 tokenId, string memory _tokenURI, uint percentage)\n        internal\n        virtual\n    {\n        require(_exists(tokenId), \"!exist\");\n        tokenURIs[tokenId] = _tokenURI;\n        tokenPercentages[tokenID] = percentage;\n    }\n\n    function _baseURI() internal view virtual override returns (string memory) {\n        return baseURIextended;\n    }\n\n    function tokenURI(uint256 tokenId)\n        public\n        view\n        virtual\n        override\n        returns (string memory)\n    {\n        require(_exists(tokenId), \"!exist\");\n\n        string memory _tokenURI = tokenURIs[tokenId];\n        string memory base = _baseURI();\n\n        // if there is no base URI, return the token URI.\n        if (bytes(base).length == 0) {\n            return _tokenURI;\n        }\n\n        // if both are set, concatenate the baseURI and tokenURI (via abi.encodePacked).\n        if (bytes(_tokenURI).length > 0) {\n            return string(abi.encodePacked(base, _tokenURI));\n        }\n\n        // if there is a baseURI but no tokenURI, concatenate the tokenID to the baseURI.\n        return string(abi.encodePacked(base, tokenId.toString()));\n    }\n\n    function mint(address to, uint256 /* coursePrice */) external {\n        // TO DO random generation from chainlink base on coursePrice\n        uint percentage = 4;\n\n        /* generate a random nft based on price as reward to subscriber */\n        string memory nftUri = generateNftMetadata(percentage);\n\n        _mint(to, tokenID);\n        _setTokenURI(tokenID, nftUri, percentage);\n\n        tokenID++;\n    }\n\n    function burn(uint256 tokenId) external {\n        _burn(tokenId);\n    }\n\n    function generateNftMetadata(uint /* percentage */)\n        private\n        pure\n        returns (string memory)\n    {\n        string memory metadata = string(\n            abi.encodePacked(\n                '{\"name\": \"Mr Monkey',\n                '\", \"image\": \"https://buidl.netlify.app/images/nft2.jpg\", \"description\": \"This is NFT is a monkey NFT for Buidl coupon\", \"attributes\":',\n                '[{\"display_type\":\"boost_number\",\"trait_type\":\"Percentage\",\"value\":\"4\"}]',\n                \"}\"\n            )\n        );\n\n        return\n            string(\n                abi.encodePacked(\n                    \"data:application/json;base64,\",\n                    Base64.base64(bytes(metadata))\n                )\n            );\n    }\n}\n",
  "sourcePath": "C:\\Users\\Arogundade Ibrahim\\Documents\\web3\\Buidl\\contracts\\buidl\\BdlNft.sol",
  "compiler": {
    "name": "solc",
    "version": "0.8.16+commit.07a7930e.Emscripten.clang"
  },
  "schemaVersion": "3.4.10",
  "updatedAt": "2022-11-09T03:32:16.478Z",
  "networkType": "ethereum",
  "devdoc": {
    "kind": "dev",
    "methods": {
      "approve(address,uint256)": {
        "details": "See {IERC721-approve}."
      },
      "balanceOf(address)": {
        "details": "See {IERC721-balanceOf}."
      },
      "getApproved(uint256)": {
        "details": "See {IERC721-getApproved}."
      },
      "isApprovedForAll(address,address)": {
        "details": "See {IERC721-isApprovedForAll}."
      },
      "name()": {
        "details": "See {IERC721Metadata-name}."
      },
      "owner()": {
        "details": "Returns the address of the current owner."
      },
      "ownerOf(uint256)": {
        "details": "See {IERC721-ownerOf}."
      },
      "renounceOwnership()": {
        "details": "Leaves the contract without owner. It will not be possible to call `onlyOwner` functions anymore. Can only be called by the current owner. NOTE: Renouncing ownership will leave the contract without an owner, thereby removing any functionality that is only available to the owner."
      },
      "safeTransferFrom(address,address,uint256)": {
        "details": "See {IERC721-safeTransferFrom}."
      },
      "safeTransferFrom(address,address,uint256,bytes)": {
        "details": "See {IERC721-safeTransferFrom}."
      },
      "setApprovalForAll(address,bool)": {
        "details": "See {IERC721-setApprovalForAll}."
      },
      "supportsInterface(bytes4)": {
        "details": "See {IERC165-supportsInterface}."
      },
      "symbol()": {
        "details": "See {IERC721Metadata-symbol}."
      },
      "tokenURI(uint256)": {
        "details": "See {IERC721Metadata-tokenURI}."
      },
      "transferFrom(address,address,uint256)": {
        "details": "See {IERC721-transferFrom}."
      },
      "transferOwnership(address)": {
        "details": "Transfers ownership of the contract to a new account (`newOwner`). Can only be called by the current owner."
      }
    },
    "version": 1
  },
  "userdoc": {
    "kind": "user",
    "methods": {},
    "version": 1
  }
}