{
  "contractName": "BdlNft",
  "abi": [
    {
      "inputs": [],
      "stateMutability": "nonpayable",
      "type": "constructor"
    },
    {
      "anonymous": false,
      "inputs": [
        {
          "indexed": true,
          "internalType": "address",
          "name": "owner",
          "type": "address"
        },
        {
          "indexed": true,
          "internalType": "address",
          "name": "approved",
          "type": "address"
        },
        {
          "indexed": true,
          "internalType": "uint256",
          "name": "tokenId",
          "type": "uint256"
        }
      ],
      "name": "Approval",
      "type": "event"
    },
    {
      "anonymous": false,
      "inputs": [
        {
          "indexed": true,
          "internalType": "address",
          "name": "owner",
          "type": "address"
        },
        {
          "indexed": true,
          "internalType": "address",
          "name": "operator",
          "type": "address"
        },
        {
          "indexed": false,
          "internalType": "bool",
          "name": "approved",
          "type": "bool"
        }
      ],
      "name": "ApprovalForAll",
      "type": "event"
    },
    {
      "anonymous": false,
      "inputs": [
        {
          "indexed": true,
          "internalType": "address",
          "name": "from",
          "type": "address"
        },
        {
          "indexed": true,
          "internalType": "address",
          "name": "to",
          "type": "address"
        },
        {
          "indexed": true,
          "internalType": "uint256",
          "name": "tokenId",
          "type": "uint256"
        }
      ],
      "name": "Transfer",
      "type": "event"
    },
    {
      "inputs": [
        {
          "internalType": "address",
          "name": "to",
          "type": "address"
        },
        {
          "internalType": "uint256",
          "name": "tokenId",
          "type": "uint256"
        }
      ],
      "name": "approve",
      "outputs": [],
      "stateMutability": "nonpayable",
      "type": "function"
    },
    {
      "inputs": [
        {
          "internalType": "address",
          "name": "owner",
          "type": "address"
        }
      ],
      "name": "balanceOf",
      "outputs": [
        {
          "internalType": "uint256",
          "name": "",
          "type": "uint256"
        }
      ],
      "stateMutability": "view",
      "type": "function"
    },
    {
      "inputs": [
        {
          "internalType": "uint256",
          "name": "tokenId",
          "type": "uint256"
        }
      ],
      "name": "getApproved",
      "outputs": [
        {
          "internalType": "address",
          "name": "",
          "type": "address"
        }
      ],
      "stateMutability": "view",
      "type": "function"
    },
    {
      "inputs": [
        {
          "internalType": "address",
          "name": "owner",
          "type": "address"
        },
        {
          "internalType": "address",
          "name": "operator",
          "type": "address"
        }
      ],
      "name": "isApprovedForAll",
      "outputs": [
        {
          "internalType": "bool",
          "name": "",
          "type": "bool"
        }
      ],
      "stateMutability": "view",
      "type": "function"
    },
    {
      "inputs": [],
      "name": "name",
      "outputs": [
        {
          "internalType": "string",
          "name": "",
          "type": "string"
        }
      ],
      "stateMutability": "view",
      "type": "function"
    },
    {
      "inputs": [
        {
          "internalType": "uint256",
          "name": "tokenId",
          "type": "uint256"
        }
      ],
      "name": "ownerOf",
      "outputs": [
        {
          "internalType": "address",
          "name": "",
          "type": "address"
        }
      ],
      "stateMutability": "view",
      "type": "function"
    },
    {
      "inputs": [
        {
          "internalType": "address",
          "name": "from",
          "type": "address"
        },
        {
          "internalType": "address",
          "name": "to",
          "type": "address"
        },
        {
          "internalType": "uint256",
          "name": "tokenId",
          "type": "uint256"
        }
      ],
      "name": "safeTransferFrom",
      "outputs": [],
      "stateMutability": "nonpayable",
      "type": "function"
    },
    {
      "inputs": [
        {
          "internalType": "address",
          "name": "from",
          "type": "address"
        },
        {
          "internalType": "address",
          "name": "to",
          "type": "address"
        },
        {
          "internalType": "uint256",
          "name": "tokenId",
          "type": "uint256"
        },
        {
          "internalType": "bytes",
          "name": "data",
          "type": "bytes"
        }
      ],
      "name": "safeTransferFrom",
      "outputs": [],
      "stateMutability": "nonpayable",
      "type": "function"
    },
    {
      "inputs": [
        {
          "internalType": "address",
          "name": "operator",
          "type": "address"
        },
        {
          "internalType": "bool",
          "name": "approved",
          "type": "bool"
        }
      ],
      "name": "setApprovalForAll",
      "outputs": [],
      "stateMutability": "nonpayable",
      "type": "function"
    },
    {
      "inputs": [
        {
          "internalType": "bytes4",
          "name": "interfaceId",
          "type": "bytes4"
        }
      ],
      "name": "supportsInterface",
      "outputs": [
        {
          "internalType": "bool",
          "name": "",
          "type": "bool"
        }
      ],
      "stateMutability": "view",
      "type": "function"
    },
    {
      "inputs": [],
      "name": "symbol",
      "outputs": [
        {
          "internalType": "string",
          "name": "",
          "type": "string"
        }
      ],
      "stateMutability": "view",
      "type": "function"
    },
    {
      "inputs": [
        {
          "internalType": "uint256",
          "name": "tokenId",
          "type": "uint256"
        }
      ],
      "name": "tokenURI",
      "outputs": [
        {
          "internalType": "string",
          "name": "",
          "type": "string"
        }
      ],
      "stateMutability": "view",
      "type": "function"
    },
    {
      "inputs": [
        {
          "internalType": "address",
          "name": "from",
          "type": "address"
        },
        {
          "internalType": "address",
          "name": "to",
          "type": "address"
        },
        {
          "internalType": "uint256",
          "name": "tokenId",
          "type": "uint256"
        }
      ],
      "name": "transferFrom",
      "outputs": [],
      "stateMutability": "nonpayable",
      "type": "function"
    },
    {
      "inputs": [
        {
          "internalType": "address",
          "name": "beneficiary",
          "type": "address"
        },
        {
          "internalType": "bytes",
          "name": "data",
          "type": "bytes"
        }
      ],
      "name": "mint",
      "outputs": [],
      "stateMutability": "nonpayable",
      "type": "function"
    }
  ],
  "bytecode": "0x608060405260016007553480156200001657600080fd5b506040518060400160405280600981526020017f427569646c204e465400000000000000000000000000000000000000000000008152506040518060400160405280600481526020017f424e46540000000000000000000000000000000000000000000000000000000081525081600090816200009491906200036a565b508060019081620000a691906200036a565b50505033600660006101000a81548173ffffffffffffffffffffffffffffffffffffffff021916908373ffffffffffffffffffffffffffffffffffffffff16021790555062000451565b600081519050919050565b7f4e487b7100000000000000000000000000000000000000000000000000000000600052604160045260246000fd5b7f4e487b7100000000000000000000000000000000000000000000000000000000600052602260045260246000fd5b600060028204905060018216806200017257607f821691505b6020821081036200018857620001876200012a565b5b50919050565b60008190508160005260206000209050919050565b60006020601f8301049050919050565b600082821b905092915050565b600060088302620001f27fffffffffffffffffffffffffffffffffffffffffffffffffffffffffffffffff82620001b3565b620001fe8683620001b3565b95508019841693508086168417925050509392505050565b6000819050919050565b6000819050919050565b60006200024b620002456200023f8462000216565b62000220565b62000216565b9050919050565b6000819050919050565b62000267836200022a565b6200027f620002768262000252565b848454620001c0565b825550505050565b600090565b6200029662000287565b620002a38184846200025c565b505050565b5b81811015620002cb57620002bf6000826200028c565b600181019050620002a9565b5050565b601f8211156200031a57620002e4816200018e565b620002ef84620001a3565b81016020851015620002ff578190505b620003176200030e85620001a3565b830182620002a8565b50505b505050565b600082821c905092915050565b60006200033f600019846008026200031f565b1980831691505092915050565b60006200035a83836200032c565b9150826002028217905092915050565b6200037582620000f0565b67ffffffffffffffff811115620003915762000390620000fb565b5b6200039d825462000159565b620003aa828285620002cf565b600060209050601f831160018114620003e25760008415620003cd578287015190505b620003d985826200034c565b86555062000449565b601f198416620003f2866200018e565b60005b828110156200041c57848901518255600182019150602085019450602081019050620003f5565b868310156200043c578489015162000438601f8916826200032c565b8355505b6001600288020188555050505b505050505050565b61261780620004616000396000f3fe608060405234801561001057600080fd5b50600436106100ea5760003560e01c806370a082311161008c578063b510391f11610066578063b510391f1461025b578063b88d4fde14610277578063c87b56dd14610293578063e985e9c5146102c3576100ea565b806370a08231146101f157806395d89b4114610221578063a22cb4651461023f576100ea565b8063095ea7b3116100c8578063095ea7b31461016d57806323b872dd1461018957806342842e0e146101a55780636352211e146101c1576100ea565b806301ffc9a7146100ef57806306fdde031461011f578063081812fc1461013d575b600080fd5b610109600480360381019061010491906116db565b6102f3565b6040516101169190611723565b60405180910390f35b6101276103d5565b60405161013491906117ce565b60405180910390f35b61015760048036038101906101529190611826565b610467565b6040516101649190611894565b60405180910390f35b610187600480360381019061018291906118db565b6104ad565b005b6101a3600480360381019061019e919061191b565b6105c4565b005b6101bf60048036038101906101ba919061191b565b610624565b005b6101db60048036038101906101d69190611826565b610644565b6040516101e89190611894565b60405180910390f35b61020b6004803603810190610206919061196e565b6106f5565b60405161021891906119aa565b60405180910390f35b6102296107ac565b60405161023691906117ce565b60405180910390f35b610259600480360381019061025491906119f1565b61083e565b005b61027560048036038101906102709190611b66565b610854565b005b610291600480360381019061028c9190611bc2565b61090d565b005b6102ad60048036038101906102a89190611826565b61096f565b6040516102ba91906117ce565b60405180910390f35b6102dd60048036038101906102d89190611c45565b6109d7565b6040516102ea9190611723565b60405180910390f35b60007f80ac58cd000000000000000000000000000000000000000000000000000000007bffffffffffffffffffffffffffffffffffffffffffffffffffffffff1916827bffffffffffffffffffffffffffffffffffffffffffffffffffffffff191614806103be57507f5b5e139f000000000000000000000000000000000000000000000000000000007bffffffffffffffffffffffffffffffffffffffffffffffffffffffff1916827bffffffffffffffffffffffffffffffffffffffffffffffffffffffff1916145b806103ce57506103cd82610a6b565b5b9050919050565b6060600080546103e490611cb4565b80601f016020809104026020016040519081016040528092919081815260200182805461041090611cb4565b801561045d5780601f106104325761010080835404028352916020019161045d565b820191906000526020600020905b81548152906001019060200180831161044057829003601f168201915b5050505050905090565b600061047282610ad5565b6004600083815260200190815260200160002060009054906101000a900473ffffffffffffffffffffffffffffffffffffffff169050919050565b60006104b882610644565b90508073ffffffffffffffffffffffffffffffffffffffff168373ffffffffffffffffffffffffffffffffffffffff1603610528576040517f08c379a000000000000000000000000000000000000000000000000000000000815260040161051f90611d57565b60405180910390fd5b8073ffffffffffffffffffffffffffffffffffffffff16610547610b20565b73ffffffffffffffffffffffffffffffffffffffff161480610576575061057581610570610b20565b6109d7565b5b6105b5576040517f08c379a00000000000000000000000000000000000000000000000000000000081526004016105ac90611de9565b60405180910390fd5b6105bf8383610b28565b505050565b6105d56105cf610b20565b82610be1565b610614576040517f08c379a000000000000000000000000000000000000000000000000000000000815260040161060b90611e7b565b60405180910390fd5b61061f838383610c76565b505050565b61063f8383836040518060200160405280600081525061090d565b505050565b6000806002600084815260200190815260200160002060009054906101000a900473ffffffffffffffffffffffffffffffffffffffff169050600073ffffffffffffffffffffffffffffffffffffffff168173ffffffffffffffffffffffffffffffffffffffff16036106ec576040517f08c379a00000000000000000000000000000000000000000000000000000000081526004016106e390611ee7565b60405180910390fd5b80915050919050565b60008073ffffffffffffffffffffffffffffffffffffffff168273ffffffffffffffffffffffffffffffffffffffff1603610765576040517f08c379a000000000000000000000000000000000000000000000000000000000815260040161075c90611f79565b60405180910390fd5b600360008373ffffffffffffffffffffffffffffffffffffffff1673ffffffffffffffffffffffffffffffffffffffff168152602001908152602001600020549050919050565b6060600180546107bb90611cb4565b80601f01602080910402602001604051908101604052809291908181526020018280546107e790611cb4565b80156108345780601f1061080957610100808354040283529160200191610834565b820191906000526020600020905b81548152906001019060200180831161081757829003601f168201915b5050505050905090565b610850610849610b20565b8383610edc565b5050565b600660009054906101000a900473ffffffffffffffffffffffffffffffffffffffff1673ffffffffffffffffffffffffffffffffffffffff163373ffffffffffffffffffffffffffffffffffffffff16146108e4576040517f08c379a00000000000000000000000000000000000000000000000000000000081526004016108db90611fe5565b60405180910390fd5b6108f18260075483611048565b6007600081548092919061090490612034565b91905055505050565b61091e610918610b20565b83610be1565b61095d576040517f08c379a000000000000000000000000000000000000000000000000000000000815260040161095490611e7b565b60405180910390fd5b610969848484846110a3565b50505050565b606061097a82610ad5565b60006109846110ff565b905060008151116109a457604051806020016040528060008152506109cf565b806109ae84611116565b6040516020016109bf9291906120b8565b6040516020818303038152906040525b915050919050565b6000600560008473ffffffffffffffffffffffffffffffffffffffff1673ffffffffffffffffffffffffffffffffffffffff16815260200190815260200160002060008373ffffffffffffffffffffffffffffffffffffffff1673ffffffffffffffffffffffffffffffffffffffff16815260200190815260200160002060009054906101000a900460ff16905092915050565b60007f01ffc9a7000000000000000000000000000000000000000000000000000000007bffffffffffffffffffffffffffffffffffffffffffffffffffffffff1916827bffffffffffffffffffffffffffffffffffffffffffffffffffffffff1916149050919050565b610ade81611276565b610b1d576040517f08c379a0000000000000000000000000000000000000000000000000000000008152600401610b1490611ee7565b60405180910390fd5b50565b600033905090565b816004600083815260200190815260200160002060006101000a81548173ffffffffffffffffffffffffffffffffffffffff021916908373ffffffffffffffffffffffffffffffffffffffff160217905550808273ffffffffffffffffffffffffffffffffffffffff16610b9b83610644565b73ffffffffffffffffffffffffffffffffffffffff167f8c5be1e5ebec7d5bd14f71427d1e84f3dd0314c0f7b2291e5b200ac8c7c3b92560405160405180910390a45050565b600080610bed83610644565b90508073ffffffffffffffffffffffffffffffffffffffff168473ffffffffffffffffffffffffffffffffffffffff161480610c2f5750610c2e81856109d7565b5b80610c6d57508373ffffffffffffffffffffffffffffffffffffffff16610c5584610467565b73ffffffffffffffffffffffffffffffffffffffff16145b91505092915050565b8273ffffffffffffffffffffffffffffffffffffffff16610c9682610644565b73ffffffffffffffffffffffffffffffffffffffff1614610cec576040517f08c379a0000000000000000000000000000000000000000000000000000000008152600401610ce39061214e565b60405180910390fd5b600073ffffffffffffffffffffffffffffffffffffffff168273ffffffffffffffffffffffffffffffffffffffff1603610d5b576040517f08c379a0000000000000000000000000000000000000000000000000000000008152600401610d52906121e0565b60405180910390fd5b610d668383836112e2565b610d71600082610b28565b6001600360008573ffffffffffffffffffffffffffffffffffffffff1673ffffffffffffffffffffffffffffffffffffffff1681526020019081526020016000206000828254610dc19190612200565b925050819055506001600360008473ffffffffffffffffffffffffffffffffffffffff1673ffffffffffffffffffffffffffffffffffffffff1681526020019081526020016000206000828254610e189190612234565b92505081905550816002600083815260200190815260200160002060006101000a81548173ffffffffffffffffffffffffffffffffffffffff021916908373ffffffffffffffffffffffffffffffffffffffff160217905550808273ffffffffffffffffffffffffffffffffffffffff168473ffffffffffffffffffffffffffffffffffffffff167fddf252ad1be2c89b69c2b068fc378daa952ba7f163c4a11628f55a4df523b3ef60405160405180910390a4610ed78383836112e7565b505050565b8173ffffffffffffffffffffffffffffffffffffffff168373ffffffffffffffffffffffffffffffffffffffff1603610f4a576040517f08c379a0000000000000000000000000000000000000000000000000000000008152600401610f41906122b4565b60405180910390fd5b80600560008573ffffffffffffffffffffffffffffffffffffffff1673ffffffffffffffffffffffffffffffffffffffff16815260200190815260200160002060008473ffffffffffffffffffffffffffffffffffffffff1673ffffffffffffffffffffffffffffffffffffffff16815260200190815260200160002060006101000a81548160ff0219169083151502179055508173ffffffffffffffffffffffffffffffffffffffff168373ffffffffffffffffffffffffffffffffffffffff167f17307eab39ab6107e8899845ad3d59bd9653f200f220920489ca2b5937696c318360405161103b9190611723565b60405180910390a3505050565b61105283836112ec565b61105f60008484846114c5565b61109e576040517f08c379a000000000000000000000000000000000000000000000000000000000815260040161109590612346565b60405180910390fd5b505050565b6110ae848484610c76565b6110ba848484846114c5565b6110f9576040517f08c379a00000000000000000000000000000000000000000000000000000000081526004016110f090612346565b60405180910390fd5b50505050565b606060405180602001604052806000815250905090565b60606000820361115d576040518060400160405280600181526020017f30000000000000000000000000000000000000000000000000000000000000008152509050611271565b600082905060005b6000821461118f57808061117890612034565b915050600a826111889190612395565b9150611165565b60008167ffffffffffffffff8111156111ab576111aa611a3b565b5b6040519080825280601f01601f1916602001820160405280156111dd5781602001600182028036833780820191505090505b5090505b6000851461126a576001826111f69190612200565b9150600a8561120591906123c6565b60306112119190612234565b60f81b818381518110611227576112266123f7565b5b60200101907effffffffffffffffffffffffffffffffffffffffffffffffffffffffffffff1916908160001a905350600a856112639190612395565b94506111e1565b8093505050505b919050565b60008073ffffffffffffffffffffffffffffffffffffffff166002600084815260200190815260200160002060009054906101000a900473ffffffffffffffffffffffffffffffffffffffff1673ffffffffffffffffffffffffffffffffffffffff1614159050919050565b505050565b505050565b600073ffffffffffffffffffffffffffffffffffffffff168273ffffffffffffffffffffffffffffffffffffffff160361135b576040517f08c379a000000000000000000000000000000000000000000000000000000000815260040161135290612472565b60405180910390fd5b61136481611276565b156113a4576040517f08c379a000000000000000000000000000000000000000000000000000000000815260040161139b906124de565b60405180910390fd5b6113b0600083836112e2565b6001600360008473ffffffffffffffffffffffffffffffffffffffff1673ffffffffffffffffffffffffffffffffffffffff16815260200190815260200160002060008282546114009190612234565b92505081905550816002600083815260200190815260200160002060006101000a81548173ffffffffffffffffffffffffffffffffffffffff021916908373ffffffffffffffffffffffffffffffffffffffff160217905550808273ffffffffffffffffffffffffffffffffffffffff16600073ffffffffffffffffffffffffffffffffffffffff167fddf252ad1be2c89b69c2b068fc378daa952ba7f163c4a11628f55a4df523b3ef60405160405180910390a46114c1600083836112e7565b5050565b60006114e68473ffffffffffffffffffffffffffffffffffffffff1661164c565b1561163f578373ffffffffffffffffffffffffffffffffffffffff1663150b7a0261150f610b20565b8786866040518563ffffffff1660e01b81526004016115319493929190612553565b6020604051808303816000875af192505050801561156d57506040513d601f19601f8201168201806040525081019061156a91906125b4565b60015b6115ef573d806000811461159d576040519150601f19603f3d011682016040523d82523d6000602084013e6115a2565b606091505b5060008151036115e7576040517f08c379a00000000000000000000000000000000000000000000000000000000081526004016115de90612346565b60405180910390fd5b805181602001fd5b63150b7a0260e01b7bffffffffffffffffffffffffffffffffffffffffffffffffffffffff1916817bffffffffffffffffffffffffffffffffffffffffffffffffffffffff191614915050611644565b600190505b949350505050565b6000808273ffffffffffffffffffffffffffffffffffffffff163b119050919050565b6000604051905090565b600080fd5b600080fd5b60007fffffffff0000000000000000000000000000000000000000000000000000000082169050919050565b6116b881611683565b81146116c357600080fd5b50565b6000813590506116d5816116af565b92915050565b6000602082840312156116f1576116f0611679565b5b60006116ff848285016116c6565b91505092915050565b60008115159050919050565b61171d81611708565b82525050565b60006020820190506117386000830184611714565b92915050565b600081519050919050565b600082825260208201905092915050565b60005b8381101561177857808201518184015260208101905061175d565b60008484015250505050565b6000601f19601f8301169050919050565b60006117a08261173e565b6117aa8185611749565b93506117ba81856020860161175a565b6117c381611784565b840191505092915050565b600060208201905081810360008301526117e88184611795565b905092915050565b6000819050919050565b611803816117f0565b811461180e57600080fd5b50565b600081359050611820816117fa565b92915050565b60006020828403121561183c5761183b611679565b5b600061184a84828501611811565b91505092915050565b600073ffffffffffffffffffffffffffffffffffffffff82169050919050565b600061187e82611853565b9050919050565b61188e81611873565b82525050565b60006020820190506118a96000830184611885565b92915050565b6118b881611873565b81146118c357600080fd5b50565b6000813590506118d5816118af565b92915050565b600080604083850312156118f2576118f1611679565b5b6000611900858286016118c6565b925050602061191185828601611811565b9150509250929050565b60008060006060848603121561193457611933611679565b5b6000611942868287016118c6565b9350506020611953868287016118c6565b925050604061196486828701611811565b9150509250925092565b60006020828403121561198457611983611679565b5b6000611992848285016118c6565b91505092915050565b6119a4816117f0565b82525050565b60006020820190506119bf600083018461199b565b92915050565b6119ce81611708565b81146119d957600080fd5b50565b6000813590506119eb816119c5565b92915050565b60008060408385031215611a0857611a07611679565b5b6000611a16858286016118c6565b9250506020611a27858286016119dc565b9150509250929050565b600080fd5b600080fd5b7f4e487b7100000000000000000000000000000000000000000000000000000000600052604160045260246000fd5b611a7382611784565b810181811067ffffffffffffffff82111715611a9257611a91611a3b565b5b80604052505050565b6000611aa561166f565b9050611ab18282611a6a565b919050565b600067ffffffffffffffff821115611ad157611ad0611a3b565b5b611ada82611784565b9050602081019050919050565b82818337600083830152505050565b6000611b09611b0484611ab6565b611a9b565b905082815260208101848484011115611b2557611b24611a36565b5b611b30848285611ae7565b509392505050565b600082601f830112611b4d57611b4c611a31565b5b8135611b5d848260208601611af6565b91505092915050565b60008060408385031215611b7d57611b7c611679565b5b6000611b8b858286016118c6565b925050602083013567ffffffffffffffff811115611bac57611bab61167e565b5b611bb885828601611b38565b9150509250929050565b60008060008060808587031215611bdc57611bdb611679565b5b6000611bea878288016118c6565b9450506020611bfb878288016118c6565b9350506040611c0c87828801611811565b925050606085013567ffffffffffffffff811115611c2d57611c2c61167e565b5b611c3987828801611b38565b91505092959194509250565b60008060408385031215611c5c57611c5b611679565b5b6000611c6a858286016118c6565b9250506020611c7b858286016118c6565b9150509250929050565b7f4e487b7100000000000000000000000000000000000000000000000000000000600052602260045260246000fd5b60006002820490506001821680611ccc57607f821691505b602082108103611cdf57611cde611c85565b5b50919050565b7f4552433732313a20617070726f76616c20746f2063757272656e74206f776e6560008201527f7200000000000000000000000000000000000000000000000000000000000000602082015250565b6000611d41602183611749565b9150611d4c82611ce5565b604082019050919050565b60006020820190508181036000830152611d7081611d34565b9050919050565b7f4552433732313a20617070726f76652063616c6c6572206973206e6f7420746f60008201527f6b656e206f776e6572206e6f7220617070726f76656420666f7220616c6c0000602082015250565b6000611dd3603e83611749565b9150611dde82611d77565b604082019050919050565b60006020820190508181036000830152611e0281611dc6565b9050919050565b7f4552433732313a2063616c6c6572206973206e6f7420746f6b656e206f776e6560008201527f72206e6f7220617070726f766564000000000000000000000000000000000000602082015250565b6000611e65602e83611749565b9150611e7082611e09565b604082019050919050565b60006020820190508181036000830152611e9481611e58565b9050919050565b7f4552433732313a20696e76616c696420746f6b656e2049440000000000000000600082015250565b6000611ed1601883611749565b9150611edc82611e9b565b602082019050919050565b60006020820190508181036000830152611f0081611ec4565b9050919050565b7f4552433732313a2061646472657373207a65726f206973206e6f74206120766160008201527f6c6964206f776e65720000000000000000000000000000000000000000000000602082015250565b6000611f63602983611749565b9150611f6e82611f07565b604082019050919050565b60006020820190508181036000830152611f9281611f56565b9050919050565b7f556e617574686f72697a65640000000000000000000000000000000000000000600082015250565b6000611fcf600c83611749565b9150611fda82611f99565b602082019050919050565b60006020820190508181036000830152611ffe81611fc2565b9050919050565b7f4e487b7100000000000000000000000000000000000000000000000000000000600052601160045260246000fd5b600061203f826117f0565b91507fffffffffffffffffffffffffffffffffffffffffffffffffffffffffffffffff820361207157612070612005565b5b600182019050919050565b600081905092915050565b60006120928261173e565b61209c818561207c565b93506120ac81856020860161175a565b80840191505092915050565b60006120c48285612087565b91506120d08284612087565b91508190509392505050565b7f4552433732313a207472616e736665722066726f6d20696e636f72726563742060008201527f6f776e6572000000000000000000000000000000000000000000000000000000602082015250565b6000612138602583611749565b9150612143826120dc565b604082019050919050565b600060208201905081810360008301526121678161212b565b9050919050565b7f4552433732313a207472616e7366657220746f20746865207a65726f2061646460008201527f7265737300000000000000000000000000000000000000000000000000000000602082015250565b60006121ca602483611749565b91506121d58261216e565b604082019050919050565b600060208201905081810360008301526121f9816121bd565b9050919050565b600061220b826117f0565b9150612216836117f0565b925082820390508181111561222e5761222d612005565b5b92915050565b600061223f826117f0565b915061224a836117f0565b925082820190508082111561226257612261612005565b5b92915050565b7f4552433732313a20617070726f766520746f2063616c6c657200000000000000600082015250565b600061229e601983611749565b91506122a982612268565b602082019050919050565b600060208201905081810360008301526122cd81612291565b9050919050565b7f4552433732313a207472616e7366657220746f206e6f6e20455243373231526560008201527f63656976657220696d706c656d656e7465720000000000000000000000000000602082015250565b6000612330603283611749565b915061233b826122d4565b604082019050919050565b6000602082019050818103600083015261235f81612323565b9050919050565b7f4e487b7100000000000000000000000000000000000000000000000000000000600052601260045260246000fd5b60006123a0826117f0565b91506123ab836117f0565b9250826123bb576123ba612366565b5b828204905092915050565b60006123d1826117f0565b91506123dc836117f0565b9250826123ec576123eb612366565b5b828206905092915050565b7f4e487b7100000000000000000000000000000000000000000000000000000000600052603260045260246000fd5b7f4552433732313a206d696e7420746f20746865207a65726f2061646472657373600082015250565b600061245c602083611749565b915061246782612426565b602082019050919050565b6000602082019050818103600083015261248b8161244f565b9050919050565b7f4552433732313a20746f6b656e20616c7265616479206d696e74656400000000600082015250565b60006124c8601c83611749565b91506124d382612492565b602082019050919050565b600060208201905081810360008301526124f7816124bb565b9050919050565b600081519050919050565b600082825260208201905092915050565b6000612525826124fe565b61252f8185612509565b935061253f81856020860161175a565b61254881611784565b840191505092915050565b60006080820190506125686000830187611885565b6125756020830186611885565b612582604083018561199b565b8181036060830152612594818461251a565b905095945050505050565b6000815190506125ae816116af565b92915050565b6000602082840312156125ca576125c9611679565b5b60006125d88482850161259f565b9150509291505056fea26469706673582212205cd45aaef7e11efe2ec89d9617ed3be00717ada871a5cccb318fbb101628fecc64736f6c63430008110033",
  "immutableReferences": {},
  "source": "// SPDX-License-Identifier: GPL-3.0\n\npragma solidity >=0.7.0 <0.9.0;\n\nimport \"@openzeppelin/contracts/token/ERC721/ERC721.sol\";\n\ncontract BdlNft is ERC721 {\n\n    address deployer;\n    uint256 tokenID = 1;\n\n    constructor() ERC721(\"Buidl NFT\", \"BNFT\") {\n        deployer = msg.sender;\n    }\n\n    function mint(address beneficiary, bytes memory data) public onlyOwner {\n        _safeMint(\n            beneficiary,\n            tokenID,\n            data\n        );\n\n        tokenID++;\n    }\n\n    modifier onlyOwner() {\n        require(msg.sender == deployer, \"Unauthorized\");\n        _;\n    }\n\n}\n",
  "sourcePath": "C:\\Users\\Arogundade Ibrahim\\Documents\\web3\\Buidl\\contracts\\BdlNft.sol",
  "compiler": {
    "name": "solc",
    "version": "0.8.17+commit.8df45f5f.Emscripten.clang"
  },
  "schemaVersion": "3.4.10",
  "updatedAt": "2022-10-19T11:26:39.077Z",
  "devdoc": {
    "kind": "dev",
    "methods": {
      "approve(address,uint256)": {
        "details": "See {IERC721-approve}."
      },
      "balanceOf(address)": {
        "details": "See {IERC721-balanceOf}."
      },
      "getApproved(uint256)": {
        "details": "See {IERC721-getApproved}."
      },
      "isApprovedForAll(address,address)": {
        "details": "See {IERC721-isApprovedForAll}."
      },
      "name()": {
        "details": "See {IERC721Metadata-name}."
      },
      "ownerOf(uint256)": {
        "details": "See {IERC721-ownerOf}."
      },
      "safeTransferFrom(address,address,uint256)": {
        "details": "See {IERC721-safeTransferFrom}."
      },
      "safeTransferFrom(address,address,uint256,bytes)": {
        "details": "See {IERC721-safeTransferFrom}."
      },
      "setApprovalForAll(address,bool)": {
        "details": "See {IERC721-setApprovalForAll}."
      },
      "supportsInterface(bytes4)": {
        "details": "See {IERC165-supportsInterface}."
      },
      "symbol()": {
        "details": "See {IERC721Metadata-symbol}."
      },
      "tokenURI(uint256)": {
        "details": "See {IERC721Metadata-tokenURI}."
      },
      "transferFrom(address,address,uint256)": {
        "details": "See {IERC721-transferFrom}."
      }
    },
    "version": 1
  },
  "userdoc": {
    "kind": "user",
    "methods": {},
    "version": 1
  }
}