{
  "contractName": "BdlNftStaking",
  "abi": [
    {
      "anonymous": false,
      "inputs": [
        {
          "indexed": true,
          "internalType": "address",
          "name": "previousOwner",
          "type": "address"
        },
        {
          "indexed": true,
          "internalType": "address",
          "name": "newOwner",
          "type": "address"
        }
      ],
      "name": "OwnershipTransferred",
      "type": "event"
    },
    {
      "anonymous": false,
      "inputs": [
        {
          "indexed": false,
          "internalType": "address",
          "name": "account",
          "type": "address"
        }
      ],
      "name": "Paused",
      "type": "event"
    },
    {
      "anonymous": false,
      "inputs": [
        {
          "indexed": false,
          "internalType": "address",
          "name": "account",
          "type": "address"
        }
      ],
      "name": "Unpaused",
      "type": "event"
    },
    {
      "inputs": [
        {
          "internalType": "address",
          "name": "",
          "type": "address"
        },
        {
          "internalType": "address",
          "name": "",
          "type": "address"
        },
        {
          "internalType": "uint256",
          "name": "",
          "type": "uint256"
        },
        {
          "internalType": "bytes",
          "name": "",
          "type": "bytes"
        }
      ],
      "name": "onERC721Received",
      "outputs": [
        {
          "internalType": "bytes4",
          "name": "",
          "type": "bytes4"
        }
      ],
      "stateMutability": "nonpayable",
      "type": "function"
    },
    {
      "inputs": [],
      "name": "owner",
      "outputs": [
        {
          "internalType": "address",
          "name": "",
          "type": "address"
        }
      ],
      "stateMutability": "view",
      "type": "function"
    },
    {
      "inputs": [],
      "name": "paused",
      "outputs": [
        {
          "internalType": "bool",
          "name": "",
          "type": "bool"
        }
      ],
      "stateMutability": "view",
      "type": "function"
    },
    {
      "inputs": [],
      "name": "renounceOwnership",
      "outputs": [],
      "stateMutability": "nonpayable",
      "type": "function"
    },
    {
      "inputs": [
        {
          "internalType": "address",
          "name": "newOwner",
          "type": "address"
        }
      ],
      "name": "transferOwnership",
      "outputs": [],
      "stateMutability": "nonpayable",
      "type": "function"
    }
  ],
  "bytecode": "0x608060405234801561001057600080fd5b50600160005561001f33610031565b6001805460ff60a01b19169055610083565b600180546001600160a01b038381166001600160a01b0319831681179093556040519116919082907f8be0079c531659141344cd1fd0a4f28419497f9722a3daafe3b4186f6b6457e090600090a35050565b61046c806100926000396000f3fe608060405234801561001057600080fd5b50600436106100675760003560e01c8063715018a611610050578063715018a6146101075780638da5cb5b14610111578063f2fde38b1461013957600080fd5b8063150b7a021461006c5780635c975abb146100d9575b600080fd5b6100a361007a366004610338565b7f150b7a0200000000000000000000000000000000000000000000000000000000949350505050565b6040517fffffffff0000000000000000000000000000000000000000000000000000000090911681526020015b60405180910390f35b60015474010000000000000000000000000000000000000000900460ff1660405190151581526020016100d0565b61010f61014c565b005b60015460405173ffffffffffffffffffffffffffffffffffffffff90911681526020016100d0565b61010f610147366004610414565b610160565b610154610202565b61015e6000610269565b565b610168610202565b73ffffffffffffffffffffffffffffffffffffffff81166101f65760405162461bcd60e51b815260206004820152602660248201527f4f776e61626c653a206e6577206f776e657220697320746865207a65726f206160448201527f646472657373000000000000000000000000000000000000000000000000000060648201526084015b60405180910390fd5b6101ff81610269565b50565b60015473ffffffffffffffffffffffffffffffffffffffff16331461015e5760405162461bcd60e51b815260206004820181905260248201527f4f776e61626c653a2063616c6c6572206973206e6f7420746865206f776e657260448201526064016101ed565b6001805473ffffffffffffffffffffffffffffffffffffffff8381167fffffffffffffffffffffffff0000000000000000000000000000000000000000831681179093556040519116919082907f8be0079c531659141344cd1fd0a4f28419497f9722a3daafe3b4186f6b6457e090600090a35050565b803573ffffffffffffffffffffffffffffffffffffffff8116811461030457600080fd5b919050565b7f4e487b7100000000000000000000000000000000000000000000000000000000600052604160045260246000fd5b6000806000806080858703121561034e57600080fd5b610357856102e0565b9350610365602086016102e0565b925060408501359150606085013567ffffffffffffffff8082111561038957600080fd5b818701915087601f83011261039d57600080fd5b8135818111156103af576103af610309565b604051601f8201601f19908116603f011681019083821181831017156103d7576103d7610309565b816040528281528a60208487010111156103f057600080fd5b82602086016020830137600060208483010152809550505050505092959194509250565b60006020828403121561042657600080fd5b61042f826102e0565b939250505056fea264697066735822122040c769214a4a178a91c69b49368303fcab08f340203fca84dc129012f7ca7ab064736f6c63430008100033",
  "immutableReferences": {},
  "source": "// SPDX-License-Identifier: GPL-3.0\npragma solidity >=0.7.0 <0.9.0;\n\nimport \"./BdlNft.sol\";\n// import \"./BdlToken.sol\";\nimport \"@openzeppelin/contracts/token/ERC721/utils/ERC721Holder.sol\";\nimport \"@openzeppelin/contracts/security/ReentrancyGuard.sol\";\nimport \"@openzeppelin/contracts/security/Pausable.sol\";\nimport \"@openzeppelin/contracts/access/Ownable.sol\";\n\ncontract BdlNftStaking is ERC721Holder, ReentrancyGuard, Ownable, Pausable {\n    // // state variable\n    // BdlToken bdlToken;\n    // BdlNft bdlNft;\n\n    // uint256 public periodFinish = 0;\n    // uint256 public rewardRate = 0;\n    // uint256 public rewardsDuration;\n    // uint256 public lastUpdateTime;\n    // uint256 public rewardPerTokenStored;\n\n    // mapping(address => uint256) public userRewardPerTokenPaid;\n    // mapping(address => uint256) public rewards;\n\n    // uint256 public totalSupply;\n    // mapping(address => uint256) public balances;\n    // mapping(uint256 => address) public stakedAssets;\n\n    // // contructor\n    // constructor(\n    //     address _bdlNft,\n    //     address _bdlToken,\n    //     uint256 _rewardsDuration\n    // ) {\n    //     bdlNft = BdlNft(_bdlNft);\n    //     bdlToken = BdlToken(_bdlToken);\n    //     rewardsDuration = _rewardsDuration;\n    // }\n\n    // // views\n    // function lastTimeRewardApplicable() public view returns (uint256) {\n    //     return block.timestamp < periodFinish ? block.timestamp : periodFinish;\n    // }\n\n    // function rewardPerToken() public view returns (uint256) {\n    //     if (totalSupply == 0) {\n    //         return rewardPerTokenStored;\n    //     }\n    //     return\n    //         rewardPerTokenStored +\n    //         (((lastTimeRewardApplicable() - lastUpdateTime) *\n    //             rewardRate *\n    //             1e18) / totalSupply);\n    // }\n\n    // function earned(address account) public view returns (uint256) {\n    //     return\n    //         ((balances[account] *\n    //             (rewardPerToken() - userRewardPerTokenPaid[account])) / 1e18) +\n    //         rewards[account];\n    // }\n\n    // function getRewardForDuration() external view returns (uint256) {\n    //     return rewardRate * rewardsDuration;\n    // }\n\n    // // mutative functions\n    // /// @notice Stakes user's NFTs\n    // /// @param tokenIds The tokenIds of the NFTs which will be staked\n    // function stake(uint256[] memory tokenIds)\n    //     external\n    //     nonReentrant\n    //     whenNotPaused\n    //     updateReward(msg.sender)\n    // {\n    //     require(tokenIds.length != 0, \"Staking: No tokenIds provided\");\n\n    //     uint256 amount;\n    //     for (uint256 i = 0; i < tokenIds.length; i += 1) {\n    //         // Transfer user's NFTs to the staking contract\n    //         bdlNft.transferFrom(msg.sender, address(this), tokenIds[i]);\n    //         // Increment the amount which will be staked\n    //         amount += 1;\n    //         // Save who is the staker/depositor of the token\n    //         stakedAssets[tokenIds[i]] = msg.sender;\n    //     }\n    //     _stake(amount);\n    //     emit Staked(msg.sender, amount, tokenIds);\n    // }\n\n    // /// @notice Withdraws staked user's NFTs\n    // /// @param tokenIds The tokenIds of the NFTs which will be withdrawn\n    // function withdraw(uint256[] memory tokenIds)\n    //     public\n    //     nonReentrant\n    //     updateReward(msg.sender)\n    // {\n    //     require(tokenIds.length != 0, \"Staking: No tokenIds provided\");\n\n    //     uint256 amount;\n    //     for (uint256 i = 0; i < tokenIds.length; i += 1) {\n    //         // Check if the user who withdraws is the owner\n    //         require(\n    //             stakedAssets[tokenIds[i]] == msg.sender,\n    //             \"Staking: Not the staker of the token\"\n    //         );\n    //         // Transfer NFTs back to the owner\n    //         bdlNft.transferFrom(address(this), msg.sender, tokenIds[i]);\n    //         // Increment the amount which will be withdrawn\n    //         amount += 1;\n    //         // Cleanup stakedAssets for the current tokenId\n    //         stakedAssets[tokenIds[i]] = address(0);\n    //     }\n    //     _withdraw(amount);\n\n    //     emit Withdrawn(msg.sender, amount, tokenIds);\n    // }\n\n    // function getReward() public nonReentrant updateReward(msg.sender) {\n    //     uint256 reward = rewards[msg.sender];\n    //     if (reward > 0) {\n    //         rewards[msg.sender] = 0;\n    //         bdlToken.transfer(msg.sender, reward);\n    //         emit RewardPaid(msg.sender, reward);\n    //     }\n    // }\n\n    // function exit(uint256[] memory tokenIds) external {\n    //     withdraw(tokenIds);\n    //     getReward();\n    // }\n\n    // function _stake(uint256 _amount) internal {\n    //     totalSupply += _amount;\n    //     balances[msg.sender] += _amount;\n    // }\n\n    // function _withdraw(uint256 _amount) internal {\n    //     totalSupply -= _amount;\n    //     balances[msg.sender] -= _amount;\n    // }\n\n    // // retricted functions\n    // /// @notice Calculates and sets the reward rate\n    // /// @param reward The amount of the reward which will be distributed during the entire period\n    // function notifyRewardAmount(uint256 reward)\n    //     external\n    //     onlyOwner\n    //     updateReward(address(0))\n    // {\n    //     if (block.timestamp >= periodFinish) {\n    //         rewardRate = reward / rewardsDuration;\n    //     } else {\n    //         uint256 remaining = periodFinish - block.timestamp;\n    //         uint256 leftover = remaining * rewardRate;\n    //         rewardRate = (reward + leftover) / rewardsDuration;\n    //     }\n\n    //     // Ensure the provided reward amount is not more than the balance in the contract.\n    //     // This keeps the reward rate in the right range, preventing overflows due to\n    //     // very high values of rewardRate in the earned and rewardsPerToken functions;\n    //     // Reward + leftover must be less than 2^256 / 10^18 to avoid overflow.\n    //     uint balance = bdlToken.balanceOf(address(this));\n    //     require(\n    //         rewardRate <= balance / rewardsDuration,\n    //         \"Staking: Provided reward too high\"\n    //     );\n\n    //     lastUpdateTime = block.timestamp;\n    //     periodFinish = block.timestamp + rewardsDuration;\n    //     emit RewardAdded(reward);\n    // }\n\n    // function setRewardsDuration(uint256 _rewardsDuration) external onlyOwner {\n    //     require(\n    //         block.timestamp > periodFinish,\n    //         \"Staking: Previous rewards period must be complete before changing the duration for the new period\"\n    //     );\n    //     rewardsDuration = _rewardsDuration;\n    //     emit RewardsDurationUpdated(rewardsDuration);\n    // }\n\n    // function pause() external onlyOwner {\n    //     _pause();\n    // }\n\n    // function unpause() external onlyOwner {\n    //     _unpause();\n    // }\n\n    // // modifiers\n    // modifier updateReward(address account) {\n    //     rewardPerTokenStored = rewardPerToken();\n    //     lastUpdateTime = lastTimeRewardApplicable();\n    //     if (account != address(0)) {\n    //         rewards[account] = earned(account);\n    //         userRewardPerTokenPaid[account] = rewardPerTokenStored;\n    //     }\n    //     _;\n    // }\n\n    // // events\n    // event RewardAdded(uint256 reward);\n    // event Staked(address indexed user, uint256 amount, uint256[] tokenIds);\n    // event Withdrawn(address indexed user, uint256 amount, uint256[] tokenIds);\n    // event RewardPaid(address indexed user, uint256 reward);\n    // event RewardsDurationUpdated(uint256 newDuration);\n}\n",
  "sourcePath": "C:\\Users\\Arogundade Ibrahim\\Documents\\web3\\Buidl\\contracts\\BdlNftStaking.sol",
  "compiler": {
    "name": "solc",
    "version": "0.8.16+commit.07a7930e.Emscripten.clang"
  },
  "schemaVersion": "3.4.10",
  "updatedAt": "2022-10-23T20:33:59.963Z",
  "devdoc": {
    "kind": "dev",
    "methods": {
      "onERC721Received(address,address,uint256,bytes)": {
        "details": "See {IERC721Receiver-onERC721Received}. Always returns `IERC721Receiver.onERC721Received.selector`."
      },
      "owner()": {
        "details": "Returns the address of the current owner."
      },
      "paused()": {
        "details": "Returns true if the contract is paused, and false otherwise."
      },
      "renounceOwnership()": {
        "details": "Leaves the contract without owner. It will not be possible to call `onlyOwner` functions anymore. Can only be called by the current owner. NOTE: Renouncing ownership will leave the contract without an owner, thereby removing any functionality that is only available to the owner."
      },
      "transferOwnership(address)": {
        "details": "Transfers ownership of the contract to a new account (`newOwner`). Can only be called by the current owner."
      }
    },
    "version": 1
  },
  "userdoc": {
    "kind": "user",
    "methods": {},
    "version": 1
  }
}