{
  "contractName": "BdlNft",
  "abi": [
    {
      "inputs": [],
      "stateMutability": "nonpayable",
      "type": "constructor"
    },
    {
      "anonymous": false,
      "inputs": [
        {
          "indexed": true,
          "internalType": "address",
          "name": "owner",
          "type": "address"
        },
        {
          "indexed": true,
          "internalType": "address",
          "name": "approved",
          "type": "address"
        },
        {
          "indexed": true,
          "internalType": "uint256",
          "name": "tokenId",
          "type": "uint256"
        }
      ],
      "name": "Approval",
      "type": "event"
    },
    {
      "anonymous": false,
      "inputs": [
        {
          "indexed": true,
          "internalType": "address",
          "name": "owner",
          "type": "address"
        },
        {
          "indexed": true,
          "internalType": "address",
          "name": "operator",
          "type": "address"
        },
        {
          "indexed": false,
          "internalType": "bool",
          "name": "approved",
          "type": "bool"
        }
      ],
      "name": "ApprovalForAll",
      "type": "event"
    },
    {
      "anonymous": false,
      "inputs": [
        {
          "indexed": true,
          "internalType": "address",
          "name": "previousOwner",
          "type": "address"
        },
        {
          "indexed": true,
          "internalType": "address",
          "name": "newOwner",
          "type": "address"
        }
      ],
      "name": "OwnershipTransferred",
      "type": "event"
    },
    {
      "anonymous": false,
      "inputs": [
        {
          "indexed": true,
          "internalType": "address",
          "name": "from",
          "type": "address"
        },
        {
          "indexed": true,
          "internalType": "address",
          "name": "to",
          "type": "address"
        },
        {
          "indexed": true,
          "internalType": "uint256",
          "name": "tokenId",
          "type": "uint256"
        }
      ],
      "name": "Transfer",
      "type": "event"
    },
    {
      "inputs": [
        {
          "internalType": "address",
          "name": "to",
          "type": "address"
        },
        {
          "internalType": "uint256",
          "name": "tokenId",
          "type": "uint256"
        }
      ],
      "name": "approve",
      "outputs": [],
      "stateMutability": "nonpayable",
      "type": "function"
    },
    {
      "inputs": [
        {
          "internalType": "address",
          "name": "owner",
          "type": "address"
        }
      ],
      "name": "balanceOf",
      "outputs": [
        {
          "internalType": "uint256",
          "name": "",
          "type": "uint256"
        }
      ],
      "stateMutability": "view",
      "type": "function",
      "constant": true
    },
    {
      "inputs": [
        {
          "internalType": "uint256",
          "name": "tokenId",
          "type": "uint256"
        }
      ],
      "name": "getApproved",
      "outputs": [
        {
          "internalType": "address",
          "name": "",
          "type": "address"
        }
      ],
      "stateMutability": "view",
      "type": "function",
      "constant": true
    },
    {
      "inputs": [
        {
          "internalType": "address",
          "name": "owner",
          "type": "address"
        },
        {
          "internalType": "address",
          "name": "operator",
          "type": "address"
        }
      ],
      "name": "isApprovedForAll",
      "outputs": [
        {
          "internalType": "bool",
          "name": "",
          "type": "bool"
        }
      ],
      "stateMutability": "view",
      "type": "function",
      "constant": true
    },
    {
      "inputs": [],
      "name": "name",
      "outputs": [
        {
          "internalType": "string",
          "name": "",
          "type": "string"
        }
      ],
      "stateMutability": "view",
      "type": "function",
      "constant": true
    },
    {
      "inputs": [],
      "name": "owner",
      "outputs": [
        {
          "internalType": "address",
          "name": "",
          "type": "address"
        }
      ],
      "stateMutability": "view",
      "type": "function",
      "constant": true
    },
    {
      "inputs": [
        {
          "internalType": "uint256",
          "name": "tokenId",
          "type": "uint256"
        }
      ],
      "name": "ownerOf",
      "outputs": [
        {
          "internalType": "address",
          "name": "",
          "type": "address"
        }
      ],
      "stateMutability": "view",
      "type": "function",
      "constant": true
    },
    {
      "inputs": [],
      "name": "renounceOwnership",
      "outputs": [],
      "stateMutability": "nonpayable",
      "type": "function"
    },
    {
      "inputs": [
        {
          "internalType": "address",
          "name": "from",
          "type": "address"
        },
        {
          "internalType": "address",
          "name": "to",
          "type": "address"
        },
        {
          "internalType": "uint256",
          "name": "tokenId",
          "type": "uint256"
        }
      ],
      "name": "safeTransferFrom",
      "outputs": [],
      "stateMutability": "nonpayable",
      "type": "function"
    },
    {
      "inputs": [
        {
          "internalType": "address",
          "name": "from",
          "type": "address"
        },
        {
          "internalType": "address",
          "name": "to",
          "type": "address"
        },
        {
          "internalType": "uint256",
          "name": "tokenId",
          "type": "uint256"
        },
        {
          "internalType": "bytes",
          "name": "data",
          "type": "bytes"
        }
      ],
      "name": "safeTransferFrom",
      "outputs": [],
      "stateMutability": "nonpayable",
      "type": "function"
    },
    {
      "inputs": [
        {
          "internalType": "address",
          "name": "operator",
          "type": "address"
        },
        {
          "internalType": "bool",
          "name": "approved",
          "type": "bool"
        }
      ],
      "name": "setApprovalForAll",
      "outputs": [],
      "stateMutability": "nonpayable",
      "type": "function"
    },
    {
      "inputs": [
        {
          "internalType": "bytes4",
          "name": "interfaceId",
          "type": "bytes4"
        }
      ],
      "name": "supportsInterface",
      "outputs": [
        {
          "internalType": "bool",
          "name": "",
          "type": "bool"
        }
      ],
      "stateMutability": "view",
      "type": "function",
      "constant": true
    },
    {
      "inputs": [],
      "name": "symbol",
      "outputs": [
        {
          "internalType": "string",
          "name": "",
          "type": "string"
        }
      ],
      "stateMutability": "view",
      "type": "function",
      "constant": true
    },
    {
      "inputs": [
        {
          "internalType": "address",
          "name": "from",
          "type": "address"
        },
        {
          "internalType": "address",
          "name": "to",
          "type": "address"
        },
        {
          "internalType": "uint256",
          "name": "tokenId",
          "type": "uint256"
        }
      ],
      "name": "transferFrom",
      "outputs": [],
      "stateMutability": "nonpayable",
      "type": "function"
    },
    {
      "inputs": [
        {
          "internalType": "address",
          "name": "newOwner",
          "type": "address"
        }
      ],
      "name": "transferOwnership",
      "outputs": [],
      "stateMutability": "nonpayable",
      "type": "function"
    },
    {
      "inputs": [
        {
          "internalType": "string",
          "name": "baseURI",
          "type": "string"
        }
      ],
      "name": "setBaseURI",
      "outputs": [],
      "stateMutability": "nonpayable",
      "type": "function"
    },
    {
      "inputs": [
        {
          "internalType": "uint256",
          "name": "tokenId",
          "type": "uint256"
        }
      ],
      "name": "tokenURI",
      "outputs": [
        {
          "internalType": "string",
          "name": "",
          "type": "string"
        }
      ],
      "stateMutability": "view",
      "type": "function",
      "constant": true
    },
    {
      "inputs": [
        {
          "internalType": "address",
          "name": "to",
          "type": "address"
        },
        {
          "internalType": "string",
          "name": "uri",
          "type": "string"
        }
      ],
      "name": "mint",
      "outputs": [],
      "stateMutability": "nonpayable",
      "type": "function"
    },
    {
      "inputs": [
        {
          "internalType": "uint256",
          "name": "tokenId",
          "type": "uint256"
        }
      ],
      "name": "burn",
      "outputs": [],
      "stateMutability": "nonpayable",
      "type": "function"
    }
  ],
  "bytecode": "0x608060405260016008553480156200001657600080fd5b5060405180604001604052806009815260200168109d5a591b0813919560ba1b815250604051806040016040528060048152602001631093919560e21b8152508160009081620000679190620001a6565b506001620000768282620001a6565b505050620000936200008d620000ab60201b60201c565b620000af565b600780546001600160a01b0319163317905562000272565b3390565b600680546001600160a01b038381166001600160a01b0319831681179093556040519116919082907f8be0079c531659141344cd1fd0a4f28419497f9722a3daafe3b4186f6b6457e090600090a35050565b634e487b7160e01b600052604160045260246000fd5b600181811c908216806200012c57607f821691505b6020821081036200014d57634e487b7160e01b600052602260045260246000fd5b50919050565b601f821115620001a157600081815260208120601f850160051c810160208610156200017c5750805b601f850160051c820191505b818110156200019d5782815560010162000188565b5050505b505050565b81516001600160401b03811115620001c257620001c262000101565b620001da81620001d3845462000117565b8462000153565b602080601f831160018114620002125760008415620001f95750858301515b600019600386901b1c1916600185901b1785556200019d565b600085815260208120601f198616915b82811015620002435788860151825594840194600190910190840162000222565b5085821015620002625787850151600019600388901b60f8161c191681555b5050505050600190811b01905550565b611aa580620002826000396000f3fe608060405234801561001057600080fd5b50600436106101515760003560e01c806370a08231116100cd578063b88d4fde11610081578063d0def52111610066578063d0def521146102ad578063e985e9c5146102c0578063f2fde38b146102fc57600080fd5b8063b88d4fde14610287578063c87b56dd1461029a57600080fd5b80638da5cb5b116100b25780638da5cb5b1461025b57806395d89b411461026c578063a22cb4651461027457600080fd5b806370a0823114610232578063715018a61461025357600080fd5b806323b872dd1161012457806342966c681161010957806342966c68146101f957806355f804b31461020c5780636352211e1461021f57600080fd5b806323b872dd146101d357806342842e0e146101e657600080fd5b806301ffc9a71461015657806306fdde031461017e578063081812fc14610193578063095ea7b3146101be575b600080fd5b61016961016436600461149f565b61030f565b60405190151581526020015b60405180910390f35b6101866103ac565b6040516101759190611513565b6101a66101a1366004611526565b61043e565b6040516001600160a01b039091168152602001610175565b6101d16101cc36600461155b565b610465565b005b6101d16101e1366004611585565b6105b9565b6101d16101f4366004611585565b610640565b6101d1610207366004611526565b61065b565b6101d161021a36600461166d565b610667565b6101a661022d366004611526565b61067f565b6102456102403660046116a2565b6106e4565b604051908152602001610175565b6101d161077e565b6006546001600160a01b03166101a6565b610186610792565b6101d16102823660046116bd565b6107a1565b6101d16102953660046116f9565b6107ac565b6101866102a8366004611526565b61083a565b6101d16102bb366004611775565b61098c565b6101696102ce3660046117c3565b6001600160a01b03918216600090815260056020908152604080832093909416825291909152205460ff1690565b6101d161030a3660046116a2565b6109bd565b60006001600160e01b031982167f80ac58cd00000000000000000000000000000000000000000000000000000000148061037257506001600160e01b031982167f5b5e139f00000000000000000000000000000000000000000000000000000000145b806103a657507f01ffc9a7000000000000000000000000000000000000000000000000000000006001600160e01b03198316145b92915050565b6060600080546103bb906117f6565b80601f01602080910402602001604051908101604052809291908181526020018280546103e7906117f6565b80156104345780601f1061040957610100808354040283529160200191610434565b820191906000526020600020905b81548152906001019060200180831161041757829003601f168201915b5050505050905090565b600061044982610a4a565b506000908152600460205260409020546001600160a01b031690565b60006104708261067f565b9050806001600160a01b0316836001600160a01b0316036104fe5760405162461bcd60e51b815260206004820152602160248201527f4552433732313a20617070726f76616c20746f2063757272656e74206f776e6560448201527f720000000000000000000000000000000000000000000000000000000000000060648201526084015b60405180910390fd5b336001600160a01b038216148061053857506001600160a01b038116600090815260056020908152604080832033845290915290205460ff165b6105aa5760405162461bcd60e51b815260206004820152603e60248201527f4552433732313a20617070726f76652063616c6c6572206973206e6f7420746f60448201527f6b656e206f776e6572206e6f7220617070726f76656420666f7220616c6c000060648201526084016104f5565b6105b48383610aae565b505050565b6105c33382610b29565b6106355760405162461bcd60e51b815260206004820152602e60248201527f4552433732313a2063616c6c6572206973206e6f7420746f6b656e206f776e6560448201527f72206e6f7220617070726f76656400000000000000000000000000000000000060648201526084016104f5565b6105b4838383610ba8565b6105b4838383604051806020016040528060008152506107ac565b61066481610d82565b50565b61066f610e2a565b600a61067b828261187e565b5050565b6000818152600260205260408120546001600160a01b0316806103a65760405162461bcd60e51b815260206004820152601860248201527f4552433732313a20696e76616c696420746f6b656e204944000000000000000060448201526064016104f5565b60006001600160a01b0382166107625760405162461bcd60e51b815260206004820152602960248201527f4552433732313a2061646472657373207a65726f206973206e6f74206120766160448201527f6c6964206f776e6572000000000000000000000000000000000000000000000060648201526084016104f5565b506001600160a01b031660009081526003602052604090205490565b610786610e2a565b6107906000610e84565b565b6060600180546103bb906117f6565b61067b338383610ee3565b6107b63383610b29565b6108285760405162461bcd60e51b815260206004820152602e60248201527f4552433732313a2063616c6c6572206973206e6f7420746f6b656e206f776e6560448201527f72206e6f7220617070726f76656400000000000000000000000000000000000060648201526084016104f5565b61083484848484610fb1565b50505050565b6000818152600260205260409020546060906001600160a01b031661088a5760405162461bcd60e51b815260206004820152600660248201526508595e1a5cdd60d21b60448201526064016104f5565b600082815260096020526040812080546108a3906117f6565b80601f01602080910402602001604051908101604052809291908181526020018280546108cf906117f6565b801561091c5780601f106108f15761010080835404028352916020019161091c565b820191906000526020600020905b8154815290600101906020018083116108ff57829003601f168201915b50505050509050600061092d61103a565b9050805160000361093f575092915050565b81511561097157808260405160200161095992919061193e565b60405160208183030381529060405292505050919050565b8061097b85611049565b60405160200161095992919061193e565b6109988260085461117e565b6109a4600854826112cd565b600880549060006109b483611983565b91905055505050565b6109c5610e2a565b6001600160a01b038116610a415760405162461bcd60e51b815260206004820152602660248201527f4f776e61626c653a206e6577206f776e657220697320746865207a65726f206160448201527f646472657373000000000000000000000000000000000000000000000000000060648201526084016104f5565b61066481610e84565b6000818152600260205260409020546001600160a01b03166106645760405162461bcd60e51b815260206004820152601860248201527f4552433732313a20696e76616c696420746f6b656e204944000000000000000060448201526064016104f5565b6000818152600460205260409020805473ffffffffffffffffffffffffffffffffffffffff19166001600160a01b0384169081179091558190610af08261067f565b6001600160a01b03167f8c5be1e5ebec7d5bd14f71427d1e84f3dd0314c0f7b2291e5b200ac8c7c3b92560405160405180910390a45050565b600080610b358361067f565b9050806001600160a01b0316846001600160a01b03161480610b7c57506001600160a01b0380821660009081526005602090815260408083209388168352929052205460ff165b80610ba05750836001600160a01b0316610b958461043e565b6001600160a01b0316145b949350505050565b826001600160a01b0316610bbb8261067f565b6001600160a01b031614610c375760405162461bcd60e51b815260206004820152602560248201527f4552433732313a207472616e736665722066726f6d20696e636f72726563742060448201527f6f776e657200000000000000000000000000000000000000000000000000000060648201526084016104f5565b6001600160a01b038216610cb25760405162461bcd60e51b8152602060048201526024808201527f4552433732313a207472616e7366657220746f20746865207a65726f2061646460448201527f726573730000000000000000000000000000000000000000000000000000000060648201526084016104f5565b610cbd600082610aae565b6001600160a01b0383166000908152600360205260408120805460019290610ce690849061199c565b90915550506001600160a01b0382166000908152600360205260408120805460019290610d149084906119af565b9091555050600081815260026020526040808220805473ffffffffffffffffffffffffffffffffffffffff19166001600160a01b0386811691821790925591518493918716917fddf252ad1be2c89b69c2b068fc378daa952ba7f163c4a11628f55a4df523b3ef91a4505050565b6000610d8d8261067f565b9050610d9a600083610aae565b6001600160a01b0381166000908152600360205260408120805460019290610dc390849061199c565b9091555050600082815260026020526040808220805473ffffffffffffffffffffffffffffffffffffffff19169055518391906001600160a01b038416907fddf252ad1be2c89b69c2b068fc378daa952ba7f163c4a11628f55a4df523b3ef908390a45050565b6006546001600160a01b031633146107905760405162461bcd60e51b815260206004820181905260248201527f4f776e61626c653a2063616c6c6572206973206e6f7420746865206f776e657260448201526064016104f5565b600680546001600160a01b0383811673ffffffffffffffffffffffffffffffffffffffff19831681179093556040519116919082907f8be0079c531659141344cd1fd0a4f28419497f9722a3daafe3b4186f6b6457e090600090a35050565b816001600160a01b0316836001600160a01b031603610f445760405162461bcd60e51b815260206004820152601960248201527f4552433732313a20617070726f766520746f2063616c6c65720000000000000060448201526064016104f5565b6001600160a01b03838116600081815260056020908152604080832094871680845294825291829020805460ff191686151590811790915591519182527f17307eab39ab6107e8899845ad3d59bd9653f200f220920489ca2b5937696c31910160405180910390a3505050565b610fbc848484610ba8565b610fc884848484611332565b6108345760405162461bcd60e51b815260206004820152603260248201527f4552433732313a207472616e7366657220746f206e6f6e20455243373231526560448201527f63656976657220696d706c656d656e746572000000000000000000000000000060648201526084016104f5565b6060600a80546103bb906117f6565b60608160000361108c57505060408051808201909152600181527f3000000000000000000000000000000000000000000000000000000000000000602082015290565b8160005b81156110b657806110a081611983565b91506110af9050600a836119d8565b9150611090565b60008167ffffffffffffffff8111156110d1576110d16115c1565b6040519080825280601f01601f1916602001820160405280156110fb576020820181803683370190505b5090505b8415610ba05761111060018361199c565b915061111d600a866119ec565b6111289060306119af565b60f81b81838151811061113d5761113d611a00565b60200101907effffffffffffffffffffffffffffffffffffffffffffffffffffffffffffff1916908160001a905350611177600a866119d8565b94506110ff565b6001600160a01b0382166111d45760405162461bcd60e51b815260206004820181905260248201527f4552433732313a206d696e7420746f20746865207a65726f206164647265737360448201526064016104f5565b6000818152600260205260409020546001600160a01b0316156112395760405162461bcd60e51b815260206004820152601c60248201527f4552433732313a20746f6b656e20616c7265616479206d696e7465640000000060448201526064016104f5565b6001600160a01b03821660009081526003602052604081208054600192906112629084906119af565b9091555050600081815260026020526040808220805473ffffffffffffffffffffffffffffffffffffffff19166001600160a01b03861690811790915590518392907fddf252ad1be2c89b69c2b068fc378daa952ba7f163c4a11628f55a4df523b3ef908290a45050565b6000828152600260205260409020546001600160a01b031661131a5760405162461bcd60e51b815260206004820152600660248201526508595e1a5cdd60d21b60448201526064016104f5565b60008281526009602052604090206105b4828261187e565b60006001600160a01b0384163b1561147e57604051630a85bd0160e11b81526001600160a01b0385169063150b7a0290611376903390899088908890600401611a16565b6020604051808303816000875af19250505080156113b1575060408051601f3d908101601f191682019092526113ae91810190611a52565b60015b611464573d8080156113df576040519150601f19603f3d011682016040523d82523d6000602084013e6113e4565b606091505b50805160000361145c5760405162461bcd60e51b815260206004820152603260248201527f4552433732313a207472616e7366657220746f206e6f6e20455243373231526560448201527f63656976657220696d706c656d656e746572000000000000000000000000000060648201526084016104f5565b805181602001fd5b6001600160e01b031916630a85bd0160e11b149050610ba0565b506001949350505050565b6001600160e01b03198116811461066457600080fd5b6000602082840312156114b157600080fd5b81356114bc81611489565b9392505050565b60005b838110156114de5781810151838201526020016114c6565b50506000910152565b600081518084526114ff8160208601602086016114c3565b601f01601f19169290920160200192915050565b6020815260006114bc60208301846114e7565b60006020828403121561153857600080fd5b5035919050565b80356001600160a01b038116811461155657600080fd5b919050565b6000806040838503121561156e57600080fd5b6115778361153f565b946020939093013593505050565b60008060006060848603121561159a57600080fd5b6115a38461153f565b92506115b16020850161153f565b9150604084013590509250925092565b634e487b7160e01b600052604160045260246000fd5b600067ffffffffffffffff808411156115f2576115f26115c1565b604051601f8501601f19908116603f0116810190828211818310171561161a5761161a6115c1565b8160405280935085815286868601111561163357600080fd5b858560208301376000602087830101525050509392505050565b600082601f83011261165e57600080fd5b6114bc838335602085016115d7565b60006020828403121561167f57600080fd5b813567ffffffffffffffff81111561169657600080fd5b610ba08482850161164d565b6000602082840312156116b457600080fd5b6114bc8261153f565b600080604083850312156116d057600080fd5b6116d98361153f565b9150602083013580151581146116ee57600080fd5b809150509250929050565b6000806000806080858703121561170f57600080fd5b6117188561153f565b93506117266020860161153f565b925060408501359150606085013567ffffffffffffffff81111561174957600080fd5b8501601f8101871361175a57600080fd5b611769878235602084016115d7565b91505092959194509250565b6000806040838503121561178857600080fd5b6117918361153f565b9150602083013567ffffffffffffffff8111156117ad57600080fd5b6117b98582860161164d565b9150509250929050565b600080604083850312156117d657600080fd5b6117df8361153f565b91506117ed6020840161153f565b90509250929050565b600181811c9082168061180a57607f821691505b60208210810361182a57634e487b7160e01b600052602260045260246000fd5b50919050565b601f8211156105b457600081815260208120601f850160051c810160208610156118575750805b601f850160051c820191505b8181101561187657828155600101611863565b505050505050565b815167ffffffffffffffff811115611898576118986115c1565b6118ac816118a684546117f6565b84611830565b602080601f8311600181146118e157600084156118c95750858301515b600019600386901b1c1916600185901b178555611876565b600085815260208120601f198616915b82811015611910578886015182559484019460019091019084016118f1565b508582101561192e5787850151600019600388901b60f8161c191681555b5050505050600190811b01905550565b600083516119508184602088016114c3565b8351908301906119648183602088016114c3565b01949350505050565b634e487b7160e01b600052601160045260246000fd5b6000600182016119955761199561196d565b5060010190565b818103818111156103a6576103a661196d565b808201808211156103a6576103a661196d565b634e487b7160e01b600052601260045260246000fd5b6000826119e7576119e76119c2565b500490565b6000826119fb576119fb6119c2565b500690565b634e487b7160e01b600052603260045260246000fd5b60006001600160a01b03808716835280861660208401525083604083015260806060830152611a4860808301846114e7565b9695505050505050565b600060208284031215611a6457600080fd5b81516114bc8161148956fea26469706673582212204ad31cbf79bb047afe0b8e47a3e7a880c8b691dc9a0dc00fb88215596b9d3d6764736f6c63430008100033",
  "immutableReferences": {},
  "source": "// SPDX-License-Identifier: GPL-3.0\npragma solidity >=0.7.0 <0.9.0;\n\nimport \"@openzeppelin/contracts/token/ERC721/ERC721.sol\";\nimport \"@openzeppelin/contracts/access/Ownable.sol\";\n\ncontract BdlNft is ERC721, Ownable {\n    address deployer;\n    uint256 tokenID = 1;\n\n    using Strings for uint256;\n\n    mapping(uint256 => string) private tokenURIs;\n    string private baseURIextended;\n\n    constructor() ERC721(\"Buidl NFT\", \"BNFT\") {\n        deployer = msg.sender;\n    }\n\n    function setBaseURI(string memory baseURI) external onlyOwner {\n        baseURIextended = baseURI;\n    }\n\n    function _setTokenURI(uint256 tokenId, string memory _tokenURI)\n        internal\n        virtual\n    {\n        require(_exists(tokenId), \"!exist\");\n        tokenURIs[tokenId] = _tokenURI;\n    }\n\n    function _baseURI() internal view virtual override returns (string memory) {\n        return baseURIextended;\n    }\n\n    function tokenURI(uint256 tokenId)\n        public\n        view\n        virtual\n        override\n        returns (string memory)\n    {\n        require(_exists(tokenId), \"!exist\");\n\n        string memory _tokenURI = tokenURIs[tokenId];\n        string memory base = _baseURI();\n\n        // if there is no base URI, return the token URI.\n        if (bytes(base).length == 0) {\n            return _tokenURI;\n        }\n\n        // if both are set, concatenate the baseURI and tokenURI (via abi.encodePacked).\n        if (bytes(_tokenURI).length > 0) {\n            return string(abi.encodePacked(base, _tokenURI));\n        }\n\n        // if there is a baseURI but no tokenURI, concatenate the tokenID to the baseURI.\n        return string(abi.encodePacked(base, tokenId.toString()));\n    }\n\n    function mint(\n        address to,\n        string memory uri\n    ) external {\n        _mint(to, tokenID);\n        _setTokenURI(tokenID, uri);\n\n        tokenID++;\n    }\n\n    function burn(uint256 tokenId) external {\n      _burn(tokenId);\n    }\n}\n",
  "sourcePath": "C:\\Users\\Arogundade Ibrahim\\Documents\\web3\\Buidl\\contracts\\BdlNft.sol",
  "compiler": {
    "name": "solc",
    "version": "0.8.16+commit.07a7930e.Emscripten.clang"
  },
  "schemaVersion": "3.4.10",
  "updatedAt": "2022-10-24T09:51:45.555Z",
  "networkType": "ethereum",
  "devdoc": {
    "kind": "dev",
    "methods": {
      "approve(address,uint256)": {
        "details": "See {IERC721-approve}."
      },
      "balanceOf(address)": {
        "details": "See {IERC721-balanceOf}."
      },
      "getApproved(uint256)": {
        "details": "See {IERC721-getApproved}."
      },
      "isApprovedForAll(address,address)": {
        "details": "See {IERC721-isApprovedForAll}."
      },
      "name()": {
        "details": "See {IERC721Metadata-name}."
      },
      "owner()": {
        "details": "Returns the address of the current owner."
      },
      "ownerOf(uint256)": {
        "details": "See {IERC721-ownerOf}."
      },
      "renounceOwnership()": {
        "details": "Leaves the contract without owner. It will not be possible to call `onlyOwner` functions anymore. Can only be called by the current owner. NOTE: Renouncing ownership will leave the contract without an owner, thereby removing any functionality that is only available to the owner."
      },
      "safeTransferFrom(address,address,uint256)": {
        "details": "See {IERC721-safeTransferFrom}."
      },
      "safeTransferFrom(address,address,uint256,bytes)": {
        "details": "See {IERC721-safeTransferFrom}."
      },
      "setApprovalForAll(address,bool)": {
        "details": "See {IERC721-setApprovalForAll}."
      },
      "supportsInterface(bytes4)": {
        "details": "See {IERC165-supportsInterface}."
      },
      "symbol()": {
        "details": "See {IERC721Metadata-symbol}."
      },
      "tokenURI(uint256)": {
        "details": "See {IERC721Metadata-tokenURI}."
      },
      "transferFrom(address,address,uint256)": {
        "details": "See {IERC721-transferFrom}."
      },
      "transferOwnership(address)": {
        "details": "Transfers ownership of the contract to a new account (`newOwner`). Can only be called by the current owner."
      }
    },
    "version": 1
  },
  "userdoc": {
    "kind": "user",
    "methods": {},
    "version": 1
  }
}