{
  "contractName": "BdlNft",
  "abi": [
    {
      "inputs": [],
      "stateMutability": "nonpayable",
      "type": "constructor"
    },
    {
      "anonymous": false,
      "inputs": [
        {
          "indexed": true,
          "internalType": "address",
          "name": "owner",
          "type": "address"
        },
        {
          "indexed": true,
          "internalType": "address",
          "name": "approved",
          "type": "address"
        },
        {
          "indexed": true,
          "internalType": "uint256",
          "name": "tokenId",
          "type": "uint256"
        }
      ],
      "name": "Approval",
      "type": "event"
    },
    {
      "anonymous": false,
      "inputs": [
        {
          "indexed": true,
          "internalType": "address",
          "name": "owner",
          "type": "address"
        },
        {
          "indexed": true,
          "internalType": "address",
          "name": "operator",
          "type": "address"
        },
        {
          "indexed": false,
          "internalType": "bool",
          "name": "approved",
          "type": "bool"
        }
      ],
      "name": "ApprovalForAll",
      "type": "event"
    },
    {
      "anonymous": false,
      "inputs": [
        {
          "indexed": true,
          "internalType": "address",
          "name": "previousOwner",
          "type": "address"
        },
        {
          "indexed": true,
          "internalType": "address",
          "name": "newOwner",
          "type": "address"
        }
      ],
      "name": "OwnershipTransferred",
      "type": "event"
    },
    {
      "anonymous": false,
      "inputs": [
        {
          "indexed": true,
          "internalType": "address",
          "name": "from",
          "type": "address"
        },
        {
          "indexed": true,
          "internalType": "address",
          "name": "to",
          "type": "address"
        },
        {
          "indexed": true,
          "internalType": "uint256",
          "name": "tokenId",
          "type": "uint256"
        }
      ],
      "name": "Transfer",
      "type": "event"
    },
    {
      "inputs": [
        {
          "internalType": "address",
          "name": "to",
          "type": "address"
        },
        {
          "internalType": "uint256",
          "name": "tokenId",
          "type": "uint256"
        }
      ],
      "name": "approve",
      "outputs": [],
      "stateMutability": "nonpayable",
      "type": "function"
    },
    {
      "inputs": [
        {
          "internalType": "address",
          "name": "owner",
          "type": "address"
        }
      ],
      "name": "balanceOf",
      "outputs": [
        {
          "internalType": "uint256",
          "name": "",
          "type": "uint256"
        }
      ],
      "stateMutability": "view",
      "type": "function",
      "constant": true
    },
    {
      "inputs": [
        {
          "internalType": "uint256",
          "name": "tokenId",
          "type": "uint256"
        }
      ],
      "name": "getApproved",
      "outputs": [
        {
          "internalType": "address",
          "name": "",
          "type": "address"
        }
      ],
      "stateMutability": "view",
      "type": "function",
      "constant": true
    },
    {
      "inputs": [
        {
          "internalType": "address",
          "name": "owner",
          "type": "address"
        },
        {
          "internalType": "address",
          "name": "operator",
          "type": "address"
        }
      ],
      "name": "isApprovedForAll",
      "outputs": [
        {
          "internalType": "bool",
          "name": "",
          "type": "bool"
        }
      ],
      "stateMutability": "view",
      "type": "function",
      "constant": true
    },
    {
      "inputs": [],
      "name": "name",
      "outputs": [
        {
          "internalType": "string",
          "name": "",
          "type": "string"
        }
      ],
      "stateMutability": "view",
      "type": "function",
      "constant": true
    },
    {
      "inputs": [],
      "name": "owner",
      "outputs": [
        {
          "internalType": "address",
          "name": "",
          "type": "address"
        }
      ],
      "stateMutability": "view",
      "type": "function",
      "constant": true
    },
    {
      "inputs": [
        {
          "internalType": "uint256",
          "name": "tokenId",
          "type": "uint256"
        }
      ],
      "name": "ownerOf",
      "outputs": [
        {
          "internalType": "address",
          "name": "",
          "type": "address"
        }
      ],
      "stateMutability": "view",
      "type": "function",
      "constant": true
    },
    {
      "inputs": [],
      "name": "renounceOwnership",
      "outputs": [],
      "stateMutability": "nonpayable",
      "type": "function"
    },
    {
      "inputs": [
        {
          "internalType": "address",
          "name": "from",
          "type": "address"
        },
        {
          "internalType": "address",
          "name": "to",
          "type": "address"
        },
        {
          "internalType": "uint256",
          "name": "tokenId",
          "type": "uint256"
        }
      ],
      "name": "safeTransferFrom",
      "outputs": [],
      "stateMutability": "nonpayable",
      "type": "function"
    },
    {
      "inputs": [
        {
          "internalType": "address",
          "name": "from",
          "type": "address"
        },
        {
          "internalType": "address",
          "name": "to",
          "type": "address"
        },
        {
          "internalType": "uint256",
          "name": "tokenId",
          "type": "uint256"
        },
        {
          "internalType": "bytes",
          "name": "data",
          "type": "bytes"
        }
      ],
      "name": "safeTransferFrom",
      "outputs": [],
      "stateMutability": "nonpayable",
      "type": "function"
    },
    {
      "inputs": [
        {
          "internalType": "address",
          "name": "operator",
          "type": "address"
        },
        {
          "internalType": "bool",
          "name": "approved",
          "type": "bool"
        }
      ],
      "name": "setApprovalForAll",
      "outputs": [],
      "stateMutability": "nonpayable",
      "type": "function"
    },
    {
      "inputs": [
        {
          "internalType": "bytes4",
          "name": "interfaceId",
          "type": "bytes4"
        }
      ],
      "name": "supportsInterface",
      "outputs": [
        {
          "internalType": "bool",
          "name": "",
          "type": "bool"
        }
      ],
      "stateMutability": "view",
      "type": "function",
      "constant": true
    },
    {
      "inputs": [],
      "name": "symbol",
      "outputs": [
        {
          "internalType": "string",
          "name": "",
          "type": "string"
        }
      ],
      "stateMutability": "view",
      "type": "function",
      "constant": true
    },
    {
      "inputs": [
        {
          "internalType": "address",
          "name": "from",
          "type": "address"
        },
        {
          "internalType": "address",
          "name": "to",
          "type": "address"
        },
        {
          "internalType": "uint256",
          "name": "tokenId",
          "type": "uint256"
        }
      ],
      "name": "transferFrom",
      "outputs": [],
      "stateMutability": "nonpayable",
      "type": "function"
    },
    {
      "inputs": [
        {
          "internalType": "address",
          "name": "newOwner",
          "type": "address"
        }
      ],
      "name": "transferOwnership",
      "outputs": [],
      "stateMutability": "nonpayable",
      "type": "function"
    },
    {
      "inputs": [
        {
          "internalType": "string",
          "name": "baseURI",
          "type": "string"
        }
      ],
      "name": "setBaseURI",
      "outputs": [],
      "stateMutability": "nonpayable",
      "type": "function"
    },
    {
      "inputs": [
        {
          "internalType": "uint256",
          "name": "tokenId",
          "type": "uint256"
        }
      ],
      "name": "tokenURI",
      "outputs": [
        {
          "internalType": "string",
          "name": "",
          "type": "string"
        }
      ],
      "stateMutability": "view",
      "type": "function",
      "constant": true
    },
    {
      "inputs": [
        {
          "internalType": "address",
          "name": "to",
          "type": "address"
        },
        {
          "internalType": "string",
          "name": "uri",
          "type": "string"
        }
      ],
      "name": "mint",
      "outputs": [],
      "stateMutability": "nonpayable",
      "type": "function"
    },
    {
      "inputs": [
        {
          "internalType": "uint256",
          "name": "tokenId",
          "type": "uint256"
        }
      ],
      "name": "burn",
      "outputs": [],
      "stateMutability": "nonpayable",
      "type": "function"
    }
  ],
  "bytecode": "0x608060405260016008553480156200001657600080fd5b506040518060400160405280600981526020017f427569646c204e465400000000000000000000000000000000000000000000008152506040518060400160405280600481526020017f424e465400000000000000000000000000000000000000000000000000000000815250816000908162000094919062000458565b508060019081620000a6919062000458565b505050620000c9620000bd6200011060201b60201c565b6200011860201b60201c565b33600760006101000a81548173ffffffffffffffffffffffffffffffffffffffff021916908373ffffffffffffffffffffffffffffffffffffffff1602179055506200053f565b600033905090565b6000600660009054906101000a900473ffffffffffffffffffffffffffffffffffffffff16905081600660006101000a81548173ffffffffffffffffffffffffffffffffffffffff021916908373ffffffffffffffffffffffffffffffffffffffff1602179055508173ffffffffffffffffffffffffffffffffffffffff168173ffffffffffffffffffffffffffffffffffffffff167f8be0079c531659141344cd1fd0a4f28419497f9722a3daafe3b4186f6b6457e060405160405180910390a35050565b600081519050919050565b7f4e487b7100000000000000000000000000000000000000000000000000000000600052604160045260246000fd5b7f4e487b7100000000000000000000000000000000000000000000000000000000600052602260045260246000fd5b600060028204905060018216806200026057607f821691505b60208210810362000276576200027562000218565b5b50919050565b60008190508160005260206000209050919050565b60006020601f8301049050919050565b600082821b905092915050565b600060088302620002e07fffffffffffffffffffffffffffffffffffffffffffffffffffffffffffffffff82620002a1565b620002ec8683620002a1565b95508019841693508086168417925050509392505050565b6000819050919050565b6000819050919050565b600062000339620003336200032d8462000304565b6200030e565b62000304565b9050919050565b6000819050919050565b620003558362000318565b6200036d620003648262000340565b848454620002ae565b825550505050565b600090565b6200038462000375565b620003918184846200034a565b505050565b5b81811015620003b957620003ad6000826200037a565b60018101905062000397565b5050565b601f8211156200040857620003d2816200027c565b620003dd8462000291565b81016020851015620003ed578190505b62000405620003fc8562000291565b83018262000396565b50505b505050565b600082821c905092915050565b60006200042d600019846008026200040d565b1980831691505092915050565b60006200044883836200041a565b9150826002028217905092915050565b6200046382620001de565b67ffffffffffffffff8111156200047f576200047e620001e9565b5b6200048b825462000247565b62000498828285620003bd565b600060209050601f831160018114620004d05760008415620004bb578287015190505b620004c785826200043a565b86555062000537565b601f198416620004e0866200027c565b60005b828110156200050a57848901518255600182019150602085019450602081019050620004e3565b868310156200052a578489015162000526601f8916826200041a565b8355505b6001600288020188555050505b505050505050565b612f8b806200054f6000396000f3fe608060405234801561001057600080fd5b50600436106101215760003560e01c806370a08231116100ad578063b88d4fde11610071578063b88d4fde146102f2578063c87b56dd1461030e578063d0def5211461033e578063e985e9c51461035a578063f2fde38b1461038a57610121565b806370a0823114610260578063715018a6146102905780638da5cb5b1461029a57806395d89b41146102b8578063a22cb465146102d657610121565b806323b872dd116100f457806323b872dd146101c057806342842e0e146101dc57806342966c68146101f857806355f804b3146102145780636352211e1461023057610121565b806301ffc9a71461012657806306fdde0314610156578063081812fc14610174578063095ea7b3146101a4575b600080fd5b610140600480360381019061013b9190611be9565b6103a6565b60405161014d9190611c31565b60405180910390f35b61015e610488565b60405161016b9190611cdc565b60405180910390f35b61018e60048036038101906101899190611d34565b61051a565b60405161019b9190611da2565b60405180910390f35b6101be60048036038101906101b99190611de9565b610560565b005b6101da60048036038101906101d59190611e29565b610677565b005b6101f660048036038101906101f19190611e29565b6106d7565b005b610212600480360381019061020d9190611d34565b6106f7565b005b61022e60048036038101906102299190611fb1565b610703565b005b61024a60048036038101906102459190611d34565b61071e565b6040516102579190611da2565b60405180910390f35b61027a60048036038101906102759190611ffa565b6107cf565b6040516102879190612036565b60405180910390f35b610298610886565b005b6102a261089a565b6040516102af9190611da2565b60405180910390f35b6102c06108c4565b6040516102cd9190611cdc565b60405180910390f35b6102f060048036038101906102eb919061207d565b610956565b005b61030c6004803603810190610307919061215e565b61096c565b005b61032860048036038101906103239190611d34565b6109ce565b6040516103359190611cdc565b60405180910390f35b610358600480360381019061035391906121e1565b610b40565b005b610374600480360381019061036f919061223d565b610b74565b6040516103819190611c31565b60405180910390f35b6103a4600480360381019061039f9190611ffa565b610c08565b005b60007f80ac58cd000000000000000000000000000000000000000000000000000000007bffffffffffffffffffffffffffffffffffffffffffffffffffffffff1916827bffffffffffffffffffffffffffffffffffffffffffffffffffffffff1916148061047157507f5b5e139f000000000000000000000000000000000000000000000000000000007bffffffffffffffffffffffffffffffffffffffffffffffffffffffff1916827bffffffffffffffffffffffffffffffffffffffffffffffffffffffff1916145b80610481575061048082610c8b565b5b9050919050565b606060008054610497906122ac565b80601f01602080910402602001604051908101604052809291908181526020018280546104c3906122ac565b80156105105780601f106104e557610100808354040283529160200191610510565b820191906000526020600020905b8154815290600101906020018083116104f357829003601f168201915b5050505050905090565b600061052582610cf5565b6004600083815260200190815260200160002060009054906101000a900473ffffffffffffffffffffffffffffffffffffffff169050919050565b600061056b8261071e565b90508073ffffffffffffffffffffffffffffffffffffffff168373ffffffffffffffffffffffffffffffffffffffff16036105db576040517f08c379a00000000000000000000000000000000000000000000000000000000081526004016105d29061234f565b60405180910390fd5b8073ffffffffffffffffffffffffffffffffffffffff166105fa610d40565b73ffffffffffffffffffffffffffffffffffffffff161480610629575061062881610623610d40565b610b74565b5b610668576040517f08c379a000000000000000000000000000000000000000000000000000000000815260040161065f906123e1565b60405180910390fd5b6106728383610d48565b505050565b610688610682610d40565b82610e01565b6106c7576040517f08c379a00000000000000000000000000000000000000000000000000000000081526004016106be90612473565b60405180910390fd5b6106d2838383610e96565b505050565b6106f28383836040518060200160405280600081525061096c565b505050565b610700816110fc565b50565b61070b611219565b80600a908161071a919061263f565b5050565b6000806002600084815260200190815260200160002060009054906101000a900473ffffffffffffffffffffffffffffffffffffffff169050600073ffffffffffffffffffffffffffffffffffffffff168173ffffffffffffffffffffffffffffffffffffffff16036107c6576040517f08c379a00000000000000000000000000000000000000000000000000000000081526004016107bd9061275d565b60405180910390fd5b80915050919050565b60008073ffffffffffffffffffffffffffffffffffffffff168273ffffffffffffffffffffffffffffffffffffffff160361083f576040517f08c379a0000000000000000000000000000000000000000000000000000000008152600401610836906127ef565b60405180910390fd5b600360008373ffffffffffffffffffffffffffffffffffffffff1673ffffffffffffffffffffffffffffffffffffffff168152602001908152602001600020549050919050565b61088e611219565b6108986000611297565b565b6000600660009054906101000a900473ffffffffffffffffffffffffffffffffffffffff16905090565b6060600180546108d3906122ac565b80601f01602080910402602001604051908101604052809291908181526020018280546108ff906122ac565b801561094c5780601f106109215761010080835404028352916020019161094c565b820191906000526020600020905b81548152906001019060200180831161092f57829003601f168201915b5050505050905090565b610968610961610d40565b838361135d565b5050565b61097d610977610d40565b83610e01565b6109bc576040517f08c379a00000000000000000000000000000000000000000000000000000000081526004016109b390612473565b60405180910390fd5b6109c8848484846114c9565b50505050565b60606109d982611525565b610a18576040517f08c379a0000000000000000000000000000000000000000000000000000000008152600401610a0f9061285b565b60405180910390fd5b6000600960008481526020019081526020016000208054610a38906122ac565b80601f0160208091040260200160405190810160405280929190818152602001828054610a64906122ac565b8015610ab15780601f10610a8657610100808354040283529160200191610ab1565b820191906000526020600020905b815481529060010190602001808311610a9457829003601f168201915b505050505090506000610ac2611591565b90506000815103610ad7578192505050610b3b565b600082511115610b0c578082604051602001610af49291906128b7565b60405160208183030381529060405292505050610b3b565b80610b1685611623565b604051602001610b279291906128b7565b604051602081830303815290604052925050505b919050565b610b4c82600854611783565b610b586008548261195c565b60086000815480929190610b6b9061290a565b91905055505050565b6000600560008473ffffffffffffffffffffffffffffffffffffffff1673ffffffffffffffffffffffffffffffffffffffff16815260200190815260200160002060008373ffffffffffffffffffffffffffffffffffffffff1673ffffffffffffffffffffffffffffffffffffffff16815260200190815260200160002060009054906101000a900460ff16905092915050565b610c10611219565b600073ffffffffffffffffffffffffffffffffffffffff168173ffffffffffffffffffffffffffffffffffffffff1603610c7f576040517f08c379a0000000000000000000000000000000000000000000000000000000008152600401610c76906129c4565b60405180910390fd5b610c8881611297565b50565b60007f01ffc9a7000000000000000000000000000000000000000000000000000000007bffffffffffffffffffffffffffffffffffffffffffffffffffffffff1916827bffffffffffffffffffffffffffffffffffffffffffffffffffffffff1916149050919050565b610cfe81611525565b610d3d576040517f08c379a0000000000000000000000000000000000000000000000000000000008152600401610d349061275d565b60405180910390fd5b50565b600033905090565b816004600083815260200190815260200160002060006101000a81548173ffffffffffffffffffffffffffffffffffffffff021916908373ffffffffffffffffffffffffffffffffffffffff160217905550808273ffffffffffffffffffffffffffffffffffffffff16610dbb8361071e565b73ffffffffffffffffffffffffffffffffffffffff167f8c5be1e5ebec7d5bd14f71427d1e84f3dd0314c0f7b2291e5b200ac8c7c3b92560405160405180910390a45050565b600080610e0d8361071e565b90508073ffffffffffffffffffffffffffffffffffffffff168473ffffffffffffffffffffffffffffffffffffffff161480610e4f5750610e4e8185610b74565b5b80610e8d57508373ffffffffffffffffffffffffffffffffffffffff16610e758461051a565b73ffffffffffffffffffffffffffffffffffffffff16145b91505092915050565b8273ffffffffffffffffffffffffffffffffffffffff16610eb68261071e565b73ffffffffffffffffffffffffffffffffffffffff1614610f0c576040517f08c379a0000000000000000000000000000000000000000000000000000000008152600401610f0390612a56565b60405180910390fd5b600073ffffffffffffffffffffffffffffffffffffffff168273ffffffffffffffffffffffffffffffffffffffff1603610f7b576040517f08c379a0000000000000000000000000000000000000000000000000000000008152600401610f7290612ae8565b60405180910390fd5b610f868383836119c9565b610f91600082610d48565b6001600360008573ffffffffffffffffffffffffffffffffffffffff1673ffffffffffffffffffffffffffffffffffffffff1681526020019081526020016000206000828254610fe19190612b08565b925050819055506001600360008473ffffffffffffffffffffffffffffffffffffffff1673ffffffffffffffffffffffffffffffffffffffff16815260200190815260200160002060008282546110389190612b3c565b92505081905550816002600083815260200190815260200160002060006101000a81548173ffffffffffffffffffffffffffffffffffffffff021916908373ffffffffffffffffffffffffffffffffffffffff160217905550808273ffffffffffffffffffffffffffffffffffffffff168473ffffffffffffffffffffffffffffffffffffffff167fddf252ad1be2c89b69c2b068fc378daa952ba7f163c4a11628f55a4df523b3ef60405160405180910390a46110f78383836119ce565b505050565b60006111078261071e565b9050611115816000846119c9565b611120600083610d48565b6001600360008373ffffffffffffffffffffffffffffffffffffffff1673ffffffffffffffffffffffffffffffffffffffff16815260200190815260200160002060008282546111709190612b08565b925050819055506002600083815260200190815260200160002060006101000a81549073ffffffffffffffffffffffffffffffffffffffff021916905581600073ffffffffffffffffffffffffffffffffffffffff168273ffffffffffffffffffffffffffffffffffffffff167fddf252ad1be2c89b69c2b068fc378daa952ba7f163c4a11628f55a4df523b3ef60405160405180910390a4611215816000846119ce565b5050565b611221610d40565b73ffffffffffffffffffffffffffffffffffffffff1661123f61089a565b73ffffffffffffffffffffffffffffffffffffffff1614611295576040517f08c379a000000000000000000000000000000000000000000000000000000000815260040161128c90612bbc565b60405180910390fd5b565b6000600660009054906101000a900473ffffffffffffffffffffffffffffffffffffffff16905081600660006101000a81548173ffffffffffffffffffffffffffffffffffffffff021916908373ffffffffffffffffffffffffffffffffffffffff1602179055508173ffffffffffffffffffffffffffffffffffffffff168173ffffffffffffffffffffffffffffffffffffffff167f8be0079c531659141344cd1fd0a4f28419497f9722a3daafe3b4186f6b6457e060405160405180910390a35050565b8173ffffffffffffffffffffffffffffffffffffffff168373ffffffffffffffffffffffffffffffffffffffff16036113cb576040517f08c379a00000000000000000000000000000000000000000000000000000000081526004016113c290612c28565b60405180910390fd5b80600560008573ffffffffffffffffffffffffffffffffffffffff1673ffffffffffffffffffffffffffffffffffffffff16815260200190815260200160002060008473ffffffffffffffffffffffffffffffffffffffff1673ffffffffffffffffffffffffffffffffffffffff16815260200190815260200160002060006101000a81548160ff0219169083151502179055508173ffffffffffffffffffffffffffffffffffffffff168373ffffffffffffffffffffffffffffffffffffffff167f17307eab39ab6107e8899845ad3d59bd9653f200f220920489ca2b5937696c31836040516114bc9190611c31565b60405180910390a3505050565b6114d4848484610e96565b6114e0848484846119d3565b61151f576040517f08c379a000000000000000000000000000000000000000000000000000000000815260040161151690612cba565b60405180910390fd5b50505050565b60008073ffffffffffffffffffffffffffffffffffffffff166002600084815260200190815260200160002060009054906101000a900473ffffffffffffffffffffffffffffffffffffffff1673ffffffffffffffffffffffffffffffffffffffff1614159050919050565b6060600a80546115a0906122ac565b80601f01602080910402602001604051908101604052809291908181526020018280546115cc906122ac565b80156116195780601f106115ee57610100808354040283529160200191611619565b820191906000526020600020905b8154815290600101906020018083116115fc57829003601f168201915b5050505050905090565b60606000820361166a576040518060400160405280600181526020017f3000000000000000000000000000000000000000000000000000000000000000815250905061177e565b600082905060005b6000821461169c5780806116859061290a565b915050600a826116959190612d09565b9150611672565b60008167ffffffffffffffff8111156116b8576116b7611e86565b5b6040519080825280601f01601f1916602001820160405280156116ea5781602001600182028036833780820191505090505b5090505b60008514611777576001826117039190612b08565b9150600a856117129190612d3a565b603061171e9190612b3c565b60f81b81838151811061173457611733612d6b565b5b60200101907effffffffffffffffffffffffffffffffffffffffffffffffffffffffffffff1916908160001a905350600a856117709190612d09565b94506116ee565b8093505050505b919050565b600073ffffffffffffffffffffffffffffffffffffffff168273ffffffffffffffffffffffffffffffffffffffff16036117f2576040517f08c379a00000000000000000000000000000000000000000000000000000000081526004016117e990612de6565b60405180910390fd5b6117fb81611525565b1561183b576040517f08c379a000000000000000000000000000000000000000000000000000000000815260040161183290612e52565b60405180910390fd5b611847600083836119c9565b6001600360008473ffffffffffffffffffffffffffffffffffffffff1673ffffffffffffffffffffffffffffffffffffffff16815260200190815260200160002060008282546118979190612b3c565b92505081905550816002600083815260200190815260200160002060006101000a81548173ffffffffffffffffffffffffffffffffffffffff021916908373ffffffffffffffffffffffffffffffffffffffff160217905550808273ffffffffffffffffffffffffffffffffffffffff16600073ffffffffffffffffffffffffffffffffffffffff167fddf252ad1be2c89b69c2b068fc378daa952ba7f163c4a11628f55a4df523b3ef60405160405180910390a4611958600083836119ce565b5050565b61196582611525565b6119a4576040517f08c379a000000000000000000000000000000000000000000000000000000000815260040161199b9061285b565b60405180910390fd5b806009600084815260200190815260200160002090816119c4919061263f565b505050565b505050565b505050565b60006119f48473ffffffffffffffffffffffffffffffffffffffff16611b5a565b15611b4d578373ffffffffffffffffffffffffffffffffffffffff1663150b7a02611a1d610d40565b8786866040518563ffffffff1660e01b8152600401611a3f9493929190612ec7565b6020604051808303816000875af1925050508015611a7b57506040513d601f19601f82011682018060405250810190611a789190612f28565b60015b611afd573d8060008114611aab576040519150601f19603f3d011682016040523d82523d6000602084013e611ab0565b606091505b506000815103611af5576040517f08c379a0000000000000000000000000000000000000000000000000000000008152600401611aec90612cba565b60405180910390fd5b805181602001fd5b63150b7a0260e01b7bffffffffffffffffffffffffffffffffffffffffffffffffffffffff1916817bffffffffffffffffffffffffffffffffffffffffffffffffffffffff191614915050611b52565b600190505b949350505050565b6000808273ffffffffffffffffffffffffffffffffffffffff163b119050919050565b6000604051905090565b600080fd5b600080fd5b60007fffffffff0000000000000000000000000000000000000000000000000000000082169050919050565b611bc681611b91565b8114611bd157600080fd5b50565b600081359050611be381611bbd565b92915050565b600060208284031215611bff57611bfe611b87565b5b6000611c0d84828501611bd4565b91505092915050565b60008115159050919050565b611c2b81611c16565b82525050565b6000602082019050611c466000830184611c22565b92915050565b600081519050919050565b600082825260208201905092915050565b60005b83811015611c86578082015181840152602081019050611c6b565b60008484015250505050565b6000601f19601f8301169050919050565b6000611cae82611c4c565b611cb88185611c57565b9350611cc8818560208601611c68565b611cd181611c92565b840191505092915050565b60006020820190508181036000830152611cf68184611ca3565b905092915050565b6000819050919050565b611d1181611cfe565b8114611d1c57600080fd5b50565b600081359050611d2e81611d08565b92915050565b600060208284031215611d4a57611d49611b87565b5b6000611d5884828501611d1f565b91505092915050565b600073ffffffffffffffffffffffffffffffffffffffff82169050919050565b6000611d8c82611d61565b9050919050565b611d9c81611d81565b82525050565b6000602082019050611db76000830184611d93565b92915050565b611dc681611d81565b8114611dd157600080fd5b50565b600081359050611de381611dbd565b92915050565b60008060408385031215611e0057611dff611b87565b5b6000611e0e85828601611dd4565b9250506020611e1f85828601611d1f565b9150509250929050565b600080600060608486031215611e4257611e41611b87565b5b6000611e5086828701611dd4565b9350506020611e6186828701611dd4565b9250506040611e7286828701611d1f565b9150509250925092565b600080fd5b600080fd5b7f4e487b7100000000000000000000000000000000000000000000000000000000600052604160045260246000fd5b611ebe82611c92565b810181811067ffffffffffffffff82111715611edd57611edc611e86565b5b80604052505050565b6000611ef0611b7d565b9050611efc8282611eb5565b919050565b600067ffffffffffffffff821115611f1c57611f1b611e86565b5b611f2582611c92565b9050602081019050919050565b82818337600083830152505050565b6000611f54611f4f84611f01565b611ee6565b905082815260208101848484011115611f7057611f6f611e81565b5b611f7b848285611f32565b509392505050565b600082601f830112611f9857611f97611e7c565b5b8135611fa8848260208601611f41565b91505092915050565b600060208284031215611fc757611fc6611b87565b5b600082013567ffffffffffffffff811115611fe557611fe4611b8c565b5b611ff184828501611f83565b91505092915050565b6000602082840312156120105761200f611b87565b5b600061201e84828501611dd4565b91505092915050565b61203081611cfe565b82525050565b600060208201905061204b6000830184612027565b92915050565b61205a81611c16565b811461206557600080fd5b50565b60008135905061207781612051565b92915050565b6000806040838503121561209457612093611b87565b5b60006120a285828601611dd4565b92505060206120b385828601612068565b9150509250929050565b600067ffffffffffffffff8211156120d8576120d7611e86565b5b6120e182611c92565b9050602081019050919050565b60006121016120fc846120bd565b611ee6565b90508281526020810184848401111561211d5761211c611e81565b5b612128848285611f32565b509392505050565b600082601f83011261214557612144611e7c565b5b81356121558482602086016120ee565b91505092915050565b6000806000806080858703121561217857612177611b87565b5b600061218687828801611dd4565b945050602061219787828801611dd4565b93505060406121a887828801611d1f565b925050606085013567ffffffffffffffff8111156121c9576121c8611b8c565b5b6121d587828801612130565b91505092959194509250565b600080604083850312156121f8576121f7611b87565b5b600061220685828601611dd4565b925050602083013567ffffffffffffffff81111561222757612226611b8c565b5b61223385828601611f83565b9150509250929050565b6000806040838503121561225457612253611b87565b5b600061226285828601611dd4565b925050602061227385828601611dd4565b9150509250929050565b7f4e487b7100000000000000000000000000000000000000000000000000000000600052602260045260246000fd5b600060028204905060018216806122c457607f821691505b6020821081036122d7576122d661227d565b5b50919050565b7f4552433732313a20617070726f76616c20746f2063757272656e74206f776e6560008201527f7200000000000000000000000000000000000000000000000000000000000000602082015250565b6000612339602183611c57565b9150612344826122dd565b604082019050919050565b600060208201905081810360008301526123688161232c565b9050919050565b7f4552433732313a20617070726f76652063616c6c6572206973206e6f7420746f60008201527f6b656e206f776e6572206e6f7220617070726f76656420666f7220616c6c0000602082015250565b60006123cb603e83611c57565b91506123d68261236f565b604082019050919050565b600060208201905081810360008301526123fa816123be565b9050919050565b7f4552433732313a2063616c6c6572206973206e6f7420746f6b656e206f776e6560008201527f72206e6f7220617070726f766564000000000000000000000000000000000000602082015250565b600061245d602e83611c57565b915061246882612401565b604082019050919050565b6000602082019050818103600083015261248c81612450565b9050919050565b60008190508160005260206000209050919050565b60006020601f8301049050919050565b600082821b905092915050565b6000600883026124f57fffffffffffffffffffffffffffffffffffffffffffffffffffffffffffffffff826124b8565b6124ff86836124b8565b95508019841693508086168417925050509392505050565b6000819050919050565b600061253c61253761253284611cfe565b612517565b611cfe565b9050919050565b6000819050919050565b61255683612521565b61256a61256282612543565b8484546124c5565b825550505050565b600090565b61257f612572565b61258a81848461254d565b505050565b5b818110156125ae576125a3600082612577565b600181019050612590565b5050565b601f8211156125f3576125c481612493565b6125cd846124a8565b810160208510156125dc578190505b6125f06125e8856124a8565b83018261258f565b50505b505050565b600082821c905092915050565b6000612616600019846008026125f8565b1980831691505092915050565b600061262f8383612605565b9150826002028217905092915050565b61264882611c4c565b67ffffffffffffffff81111561266157612660611e86565b5b61266b82546122ac565b6126768282856125b2565b600060209050601f8311600181146126a95760008415612697578287015190505b6126a18582612623565b865550612709565b601f1984166126b786612493565b60005b828110156126df578489015182556001820191506020850194506020810190506126ba565b868310156126fc57848901516126f8601f891682612605565b8355505b6001600288020188555050505b505050505050565b7f4552433732313a20696e76616c696420746f6b656e2049440000000000000000600082015250565b6000612747601883611c57565b915061275282612711565b602082019050919050565b600060208201905081810360008301526127768161273a565b9050919050565b7f4552433732313a2061646472657373207a65726f206973206e6f74206120766160008201527f6c6964206f776e65720000000000000000000000000000000000000000000000602082015250565b60006127d9602983611c57565b91506127e48261277d565b604082019050919050565b60006020820190508181036000830152612808816127cc565b9050919050565b7f2165786973740000000000000000000000000000000000000000000000000000600082015250565b6000612845600683611c57565b91506128508261280f565b602082019050919050565b6000602082019050818103600083015261287481612838565b9050919050565b600081905092915050565b600061289182611c4c565b61289b818561287b565b93506128ab818560208601611c68565b80840191505092915050565b60006128c38285612886565b91506128cf8284612886565b91508190509392505050565b7f4e487b7100000000000000000000000000000000000000000000000000000000600052601160045260246000fd5b600061291582611cfe565b91507fffffffffffffffffffffffffffffffffffffffffffffffffffffffffffffffff8203612947576129466128db565b5b600182019050919050565b7f4f776e61626c653a206e6577206f776e657220697320746865207a65726f206160008201527f6464726573730000000000000000000000000000000000000000000000000000602082015250565b60006129ae602683611c57565b91506129b982612952565b604082019050919050565b600060208201905081810360008301526129dd816129a1565b9050919050565b7f4552433732313a207472616e736665722066726f6d20696e636f72726563742060008201527f6f776e6572000000000000000000000000000000000000000000000000000000602082015250565b6000612a40602583611c57565b9150612a4b826129e4565b604082019050919050565b60006020820190508181036000830152612a6f81612a33565b9050919050565b7f4552433732313a207472616e7366657220746f20746865207a65726f2061646460008201527f7265737300000000000000000000000000000000000000000000000000000000602082015250565b6000612ad2602483611c57565b9150612add82612a76565b604082019050919050565b60006020820190508181036000830152612b0181612ac5565b9050919050565b6000612b1382611cfe565b9150612b1e83611cfe565b9250828203905081811115612b3657612b356128db565b5b92915050565b6000612b4782611cfe565b9150612b5283611cfe565b9250828201905080821115612b6a57612b696128db565b5b92915050565b7f4f776e61626c653a2063616c6c6572206973206e6f7420746865206f776e6572600082015250565b6000612ba6602083611c57565b9150612bb182612b70565b602082019050919050565b60006020820190508181036000830152612bd581612b99565b9050919050565b7f4552433732313a20617070726f766520746f2063616c6c657200000000000000600082015250565b6000612c12601983611c57565b9150612c1d82612bdc565b602082019050919050565b60006020820190508181036000830152612c4181612c05565b9050919050565b7f4552433732313a207472616e7366657220746f206e6f6e20455243373231526560008201527f63656976657220696d706c656d656e7465720000000000000000000000000000602082015250565b6000612ca4603283611c57565b9150612caf82612c48565b604082019050919050565b60006020820190508181036000830152612cd381612c97565b9050919050565b7f4e487b7100000000000000000000000000000000000000000000000000000000600052601260045260246000fd5b6000612d1482611cfe565b9150612d1f83611cfe565b925082612d2f57612d2e612cda565b5b828204905092915050565b6000612d4582611cfe565b9150612d5083611cfe565b925082612d6057612d5f612cda565b5b828206905092915050565b7f4e487b7100000000000000000000000000000000000000000000000000000000600052603260045260246000fd5b7f4552433732313a206d696e7420746f20746865207a65726f2061646472657373600082015250565b6000612dd0602083611c57565b9150612ddb82612d9a565b602082019050919050565b60006020820190508181036000830152612dff81612dc3565b9050919050565b7f4552433732313a20746f6b656e20616c7265616479206d696e74656400000000600082015250565b6000612e3c601c83611c57565b9150612e4782612e06565b602082019050919050565b60006020820190508181036000830152612e6b81612e2f565b9050919050565b600081519050919050565b600082825260208201905092915050565b6000612e9982612e72565b612ea38185612e7d565b9350612eb3818560208601611c68565b612ebc81611c92565b840191505092915050565b6000608082019050612edc6000830187611d93565b612ee96020830186611d93565b612ef66040830185612027565b8181036060830152612f088184612e8e565b905095945050505050565b600081519050612f2281611bbd565b92915050565b600060208284031215612f3e57612f3d611b87565b5b6000612f4c84828501612f13565b9150509291505056fea264697066735822122059028db436a1d102e7704d82c4841f9584f41eada0ff5ed7020cc8b666ea76b464736f6c63430008110033",
  "immutableReferences": {},
  "source": "// SPDX-License-Identifier: GPL-3.0\n\npragma solidity >=0.7.0 <0.9.0;\n\nimport \"@openzeppelin/contracts/token/ERC721/ERC721.sol\";\nimport \"@openzeppelin/contracts/access/Ownable.sol\";\n\ncontract BdlNft is ERC721, Ownable {\n    address deployer;\n    uint256 tokenID = 1;\n\n    using Strings for uint256;\n\n    mapping(uint256 => string) private tokenURIs;\n    string private baseURIextended;\n\n    constructor() ERC721(\"Buidl NFT\", \"BNFT\") {\n        deployer = msg.sender;\n    }\n\n    function setBaseURI(string memory baseURI) external onlyOwner {\n        baseURIextended = baseURI;\n    }\n\n    function _setTokenURI(uint256 tokenId, string memory _tokenURI)\n        internal\n        virtual\n    {\n        require(_exists(tokenId), \"!exist\");\n        tokenURIs[tokenId] = _tokenURI;\n    }\n\n    function _baseURI() internal view virtual override returns (string memory) {\n        return baseURIextended;\n    }\n\n    function tokenURI(uint256 tokenId)\n        public\n        view\n        virtual\n        override\n        returns (string memory)\n    {\n        require(_exists(tokenId), \"!exist\");\n\n        string memory _tokenURI = tokenURIs[tokenId];\n        string memory base = _baseURI();\n\n        // if there is no base URI, return the token URI.\n        if (bytes(base).length == 0) {\n            return _tokenURI;\n        }\n\n        // if both are set, concatenate the baseURI and tokenURI (via abi.encodePacked).\n        if (bytes(_tokenURI).length > 0) {\n            return string(abi.encodePacked(base, _tokenURI));\n        }\n\n        // if there is a baseURI but no tokenURI, concatenate the tokenID to the baseURI.\n        return string(abi.encodePacked(base, tokenId.toString()));\n    }\n\n    function mint(\n        address to,\n        string memory uri\n    ) external {\n        _mint(to, tokenID);\n        _setTokenURI(tokenID, uri);\n\n        tokenID++;\n    }\n\n    function burn(uint256 tokenId) external {\n      _burn(tokenId);\n    }\n}\n",
  "sourcePath": "C:\\Users\\Arogundade Ibrahim\\Documents\\web3\\Buidl\\contracts\\BdlNft.sol",
  "compiler": {
    "name": "solc",
    "version": "0.8.17+commit.8df45f5f.Emscripten.clang"
  },
  "schemaVersion": "3.4.10",
  "updatedAt": "2022-10-22T16:58:51.356Z",
  "networkType": "ethereum",
  "devdoc": {
    "kind": "dev",
    "methods": {
      "approve(address,uint256)": {
        "details": "See {IERC721-approve}."
      },
      "balanceOf(address)": {
        "details": "See {IERC721-balanceOf}."
      },
      "getApproved(uint256)": {
        "details": "See {IERC721-getApproved}."
      },
      "isApprovedForAll(address,address)": {
        "details": "See {IERC721-isApprovedForAll}."
      },
      "name()": {
        "details": "See {IERC721Metadata-name}."
      },
      "owner()": {
        "details": "Returns the address of the current owner."
      },
      "ownerOf(uint256)": {
        "details": "See {IERC721-ownerOf}."
      },
      "renounceOwnership()": {
        "details": "Leaves the contract without owner. It will not be possible to call `onlyOwner` functions anymore. Can only be called by the current owner. NOTE: Renouncing ownership will leave the contract without an owner, thereby removing any functionality that is only available to the owner."
      },
      "safeTransferFrom(address,address,uint256)": {
        "details": "See {IERC721-safeTransferFrom}."
      },
      "safeTransferFrom(address,address,uint256,bytes)": {
        "details": "See {IERC721-safeTransferFrom}."
      },
      "setApprovalForAll(address,bool)": {
        "details": "See {IERC721-setApprovalForAll}."
      },
      "supportsInterface(bytes4)": {
        "details": "See {IERC165-supportsInterface}."
      },
      "symbol()": {
        "details": "See {IERC721Metadata-symbol}."
      },
      "tokenURI(uint256)": {
        "details": "See {IERC721Metadata-tokenURI}."
      },
      "transferFrom(address,address,uint256)": {
        "details": "See {IERC721-transferFrom}."
      },
      "transferOwnership(address)": {
        "details": "Transfers ownership of the contract to a new account (`newOwner`). Can only be called by the current owner."
      }
    },
    "version": 1
  },
  "userdoc": {
    "kind": "user",
    "methods": {},
    "version": 1
  }
}