{
  "contractName": "BdlToken",
  "abi": [
    {
      "inputs": [
        {
          "internalType": "contract ISuperfluid",
          "name": "host",
          "type": "address"
        }
      ],
      "stateMutability": "nonpayable",
      "type": "constructor"
    },
    {
      "inputs": [
        {
          "internalType": "uint256",
          "name": "_code",
          "type": "uint256"
        }
      ],
      "name": "ALREADY_EXISTS",
      "type": "error"
    },
    {
      "inputs": [
        {
          "internalType": "uint256",
          "name": "_code",
          "type": "uint256"
        }
      ],
      "name": "DOES_NOT_EXIST",
      "type": "error"
    },
    {
      "inputs": [
        {
          "internalType": "uint256",
          "name": "_code",
          "type": "uint256"
        }
      ],
      "name": "INSUFFICIENT_BALANCE",
      "type": "error"
    },
    {
      "inputs": [
        {
          "internalType": "uint256",
          "name": "_code",
          "type": "uint256"
        }
      ],
      "name": "ONLY_HOST",
      "type": "error"
    },
    {
      "inputs": [
        {
          "internalType": "uint256",
          "name": "_code",
          "type": "uint256"
        }
      ],
      "name": "ONLY_LISTED_AGREEMENT",
      "type": "error"
    },
    {
      "inputs": [],
      "name": "SUPER_TOKEN_CALLER_IS_NOT_OPERATOR_FOR_HOLDER",
      "type": "error"
    },
    {
      "inputs": [],
      "name": "SUPER_TOKEN_INFLATIONARY_DEFLATIONARY_NOT_SUPPORTED",
      "type": "error"
    },
    {
      "inputs": [],
      "name": "SUPER_TOKEN_NOT_ERC777_TOKENS_RECIPIENT",
      "type": "error"
    },
    {
      "inputs": [],
      "name": "SUPER_TOKEN_NO_UNDERLYING_TOKEN",
      "type": "error"
    },
    {
      "inputs": [],
      "name": "SUPER_TOKEN_ONLY_SELF",
      "type": "error"
    },
    {
      "inputs": [
        {
          "internalType": "uint256",
          "name": "_code",
          "type": "uint256"
        }
      ],
      "name": "ZERO_ADDRESS",
      "type": "error"
    },
    {
      "anonymous": false,
      "inputs": [
        {
          "indexed": true,
          "internalType": "address",
          "name": "agreementClass",
          "type": "address"
        },
        {
          "indexed": false,
          "internalType": "bytes32",
          "name": "id",
          "type": "bytes32"
        },
        {
          "indexed": false,
          "internalType": "bytes32[]",
          "name": "data",
          "type": "bytes32[]"
        }
      ],
      "name": "AgreementCreated",
      "type": "event"
    },
    {
      "anonymous": false,
      "inputs": [
        {
          "indexed": true,
          "internalType": "address",
          "name": "agreementClass",
          "type": "address"
        },
        {
          "indexed": false,
          "internalType": "bytes32",
          "name": "id",
          "type": "bytes32"
        },
        {
          "indexed": true,
          "internalType": "address",
          "name": "penaltyAccount",
          "type": "address"
        },
        {
          "indexed": true,
          "internalType": "address",
          "name": "rewardAccount",
          "type": "address"
        },
        {
          "indexed": false,
          "internalType": "uint256",
          "name": "rewardAmount",
          "type": "uint256"
        }
      ],
      "name": "AgreementLiquidated",
      "type": "event"
    },
    {
      "anonymous": false,
      "inputs": [
        {
          "indexed": false,
          "internalType": "address",
          "name": "liquidatorAccount",
          "type": "address"
        },
        {
          "indexed": true,
          "internalType": "address",
          "name": "agreementClass",
          "type": "address"
        },
        {
          "indexed": false,
          "internalType": "bytes32",
          "name": "id",
          "type": "bytes32"
        },
        {
          "indexed": true,
          "internalType": "address",
          "name": "penaltyAccount",
          "type": "address"
        },
        {
          "indexed": true,
          "internalType": "address",
          "name": "bondAccount",
          "type": "address"
        },
        {
          "indexed": false,
          "internalType": "uint256",
          "name": "rewardAmount",
          "type": "uint256"
        },
        {
          "indexed": false,
          "internalType": "uint256",
          "name": "bailoutAmount",
          "type": "uint256"
        }
      ],
      "name": "AgreementLiquidatedBy",
      "type": "event"
    },
    {
      "anonymous": false,
      "inputs": [
        {
          "indexed": true,
          "internalType": "address",
          "name": "agreementClass",
          "type": "address"
        },
        {
          "indexed": false,
          "internalType": "bytes32",
          "name": "id",
          "type": "bytes32"
        },
        {
          "indexed": true,
          "internalType": "address",
          "name": "liquidatorAccount",
          "type": "address"
        },
        {
          "indexed": true,
          "internalType": "address",
          "name": "targetAccount",
          "type": "address"
        },
        {
          "indexed": false,
          "internalType": "address",
          "name": "rewardAmountReceiver",
          "type": "address"
        },
        {
          "indexed": false,
          "internalType": "uint256",
          "name": "rewardAmount",
          "type": "uint256"
        },
        {
          "indexed": false,
          "internalType": "int256",
          "name": "targetAccountBalanceDelta",
          "type": "int256"
        },
        {
          "indexed": false,
          "internalType": "bytes",
          "name": "liquidationTypeData",
          "type": "bytes"
        }
      ],
      "name": "AgreementLiquidatedV2",
      "type": "event"
    },
    {
      "anonymous": false,
      "inputs": [
        {
          "indexed": true,
          "internalType": "address",
          "name": "agreementClass",
          "type": "address"
        },
        {
          "indexed": true,
          "internalType": "address",
          "name": "account",
          "type": "address"
        },
        {
          "indexed": false,
          "internalType": "uint256",
          "name": "slotId",
          "type": "uint256"
        }
      ],
      "name": "AgreementStateUpdated",
      "type": "event"
    },
    {
      "anonymous": false,
      "inputs": [
        {
          "indexed": true,
          "internalType": "address",
          "name": "agreementClass",
          "type": "address"
        },
        {
          "indexed": false,
          "internalType": "bytes32",
          "name": "id",
          "type": "bytes32"
        }
      ],
      "name": "AgreementTerminated",
      "type": "event"
    },
    {
      "anonymous": false,
      "inputs": [
        {
          "indexed": true,
          "internalType": "address",
          "name": "agreementClass",
          "type": "address"
        },
        {
          "indexed": false,
          "internalType": "bytes32",
          "name": "id",
          "type": "bytes32"
        },
        {
          "indexed": false,
          "internalType": "bytes32[]",
          "name": "data",
          "type": "bytes32[]"
        }
      ],
      "name": "AgreementUpdated",
      "type": "event"
    },
    {
      "anonymous": false,
      "inputs": [
        {
          "indexed": true,
          "internalType": "address",
          "name": "owner",
          "type": "address"
        },
        {
          "indexed": true,
          "internalType": "address",
          "name": "spender",
          "type": "address"
        },
        {
          "indexed": false,
          "internalType": "uint256",
          "name": "value",
          "type": "uint256"
        }
      ],
      "name": "Approval",
      "type": "event"
    },
    {
      "anonymous": false,
      "inputs": [
        {
          "indexed": true,
          "internalType": "address",
          "name": "operator",
          "type": "address"
        },
        {
          "indexed": true,
          "internalType": "address",
          "name": "tokenHolder",
          "type": "address"
        }
      ],
      "name": "AuthorizedOperator",
      "type": "event"
    },
    {
      "anonymous": false,
      "inputs": [
        {
          "indexed": true,
          "internalType": "address",
          "name": "bailoutAccount",
          "type": "address"
        },
        {
          "indexed": false,
          "internalType": "uint256",
          "name": "bailoutAmount",
          "type": "uint256"
        }
      ],
      "name": "Bailout",
      "type": "event"
    },
    {
      "anonymous": false,
      "inputs": [
        {
          "indexed": true,
          "internalType": "address",
          "name": "operator",
          "type": "address"
        },
        {
          "indexed": true,
          "internalType": "address",
          "name": "from",
          "type": "address"
        },
        {
          "indexed": false,
          "internalType": "uint256",
          "name": "amount",
          "type": "uint256"
        },
        {
          "indexed": false,
          "internalType": "bytes",
          "name": "data",
          "type": "bytes"
        },
        {
          "indexed": false,
          "internalType": "bytes",
          "name": "operatorData",
          "type": "bytes"
        }
      ],
      "name": "Burned",
      "type": "event"
    },
    {
      "anonymous": false,
      "inputs": [
        {
          "indexed": false,
          "internalType": "bytes32",
          "name": "uuid",
          "type": "bytes32"
        },
        {
          "indexed": false,
          "internalType": "address",
          "name": "codeAddress",
          "type": "address"
        }
      ],
      "name": "CodeUpdated",
      "type": "event"
    },
    {
      "anonymous": false,
      "inputs": [
        {
          "indexed": false,
          "internalType": "uint8",
          "name": "version",
          "type": "uint8"
        }
      ],
      "name": "Initialized",
      "type": "event"
    },
    {
      "anonymous": false,
      "inputs": [
        {
          "indexed": true,
          "internalType": "address",
          "name": "operator",
          "type": "address"
        },
        {
          "indexed": true,
          "internalType": "address",
          "name": "to",
          "type": "address"
        },
        {
          "indexed": false,
          "internalType": "uint256",
          "name": "amount",
          "type": "uint256"
        },
        {
          "indexed": false,
          "internalType": "bytes",
          "name": "data",
          "type": "bytes"
        },
        {
          "indexed": false,
          "internalType": "bytes",
          "name": "operatorData",
          "type": "bytes"
        }
      ],
      "name": "Minted",
      "type": "event"
    },
    {
      "anonymous": false,
      "inputs": [
        {
          "indexed": true,
          "internalType": "address",
          "name": "operator",
          "type": "address"
        },
        {
          "indexed": true,
          "internalType": "address",
          "name": "tokenHolder",
          "type": "address"
        }
      ],
      "name": "RevokedOperator",
      "type": "event"
    },
    {
      "anonymous": false,
      "inputs": [
        {
          "indexed": true,
          "internalType": "address",
          "name": "operator",
          "type": "address"
        },
        {
          "indexed": true,
          "internalType": "address",
          "name": "from",
          "type": "address"
        },
        {
          "indexed": true,
          "internalType": "address",
          "name": "to",
          "type": "address"
        },
        {
          "indexed": false,
          "internalType": "uint256",
          "name": "amount",
          "type": "uint256"
        },
        {
          "indexed": false,
          "internalType": "bytes",
          "name": "data",
          "type": "bytes"
        },
        {
          "indexed": false,
          "internalType": "bytes",
          "name": "operatorData",
          "type": "bytes"
        }
      ],
      "name": "Sent",
      "type": "event"
    },
    {
      "anonymous": false,
      "inputs": [
        {
          "indexed": true,
          "internalType": "address",
          "name": "account",
          "type": "address"
        },
        {
          "indexed": false,
          "internalType": "uint256",
          "name": "amount",
          "type": "uint256"
        }
      ],
      "name": "TokenDowngraded",
      "type": "event"
    },
    {
      "anonymous": false,
      "inputs": [
        {
          "indexed": true,
          "internalType": "address",
          "name": "account",
          "type": "address"
        },
        {
          "indexed": false,
          "internalType": "uint256",
          "name": "amount",
          "type": "uint256"
        }
      ],
      "name": "TokenUpgraded",
      "type": "event"
    },
    {
      "anonymous": false,
      "inputs": [
        {
          "indexed": true,
          "internalType": "address",
          "name": "from",
          "type": "address"
        },
        {
          "indexed": true,
          "internalType": "address",
          "name": "to",
          "type": "address"
        },
        {
          "indexed": false,
          "internalType": "uint256",
          "name": "value",
          "type": "uint256"
        }
      ],
      "name": "Transfer",
      "type": "event"
    },
    {
      "inputs": [],
      "name": "castrate",
      "outputs": [],
      "stateMutability": "nonpayable",
      "type": "function"
    },
    {
      "inputs": [
        {
          "internalType": "bytes32",
          "name": "id",
          "type": "bytes32"
        },
        {
          "internalType": "bytes32[]",
          "name": "data",
          "type": "bytes32[]"
        }
      ],
      "name": "createAgreement",
      "outputs": [],
      "stateMutability": "nonpayable",
      "type": "function"
    },
    {
      "inputs": [
        {
          "internalType": "address",
          "name": "account",
          "type": "address"
        }
      ],
      "name": "getAccountActiveAgreements",
      "outputs": [
        {
          "internalType": "contract ISuperAgreement[]",
          "name": "",
          "type": "address[]"
        }
      ],
      "stateMutability": "view",
      "type": "function",
      "constant": true
    },
    {
      "inputs": [
        {
          "internalType": "address",
          "name": "agreementClass",
          "type": "address"
        },
        {
          "internalType": "bytes32",
          "name": "id",
          "type": "bytes32"
        },
        {
          "internalType": "uint256",
          "name": "dataLength",
          "type": "uint256"
        }
      ],
      "name": "getAgreementData",
      "outputs": [
        {
          "internalType": "bytes32[]",
          "name": "data",
          "type": "bytes32[]"
        }
      ],
      "stateMutability": "view",
      "type": "function",
      "constant": true
    },
    {
      "inputs": [
        {
          "internalType": "address",
          "name": "agreementClass",
          "type": "address"
        },
        {
          "internalType": "address",
          "name": "account",
          "type": "address"
        },
        {
          "internalType": "uint256",
          "name": "slotId",
          "type": "uint256"
        },
        {
          "internalType": "uint256",
          "name": "dataLength",
          "type": "uint256"
        }
      ],
      "name": "getAgreementStateSlot",
      "outputs": [
        {
          "internalType": "bytes32[]",
          "name": "slotData",
          "type": "bytes32[]"
        }
      ],
      "stateMutability": "view",
      "type": "function",
      "constant": true
    },
    {
      "inputs": [],
      "name": "getCodeAddress",
      "outputs": [
        {
          "internalType": "address",
          "name": "codeAddress",
          "type": "address"
        }
      ],
      "stateMutability": "view",
      "type": "function",
      "constant": true
    },
    {
      "inputs": [],
      "name": "getHost",
      "outputs": [
        {
          "internalType": "address",
          "name": "host",
          "type": "address"
        }
      ],
      "stateMutability": "view",
      "type": "function",
      "constant": true
    },
    {
      "inputs": [
        {
          "internalType": "address",
          "name": "account",
          "type": "address"
        },
        {
          "internalType": "uint256",
          "name": "timestamp",
          "type": "uint256"
        }
      ],
      "name": "isAccountCritical",
      "outputs": [
        {
          "internalType": "bool",
          "name": "isCritical",
          "type": "bool"
        }
      ],
      "stateMutability": "view",
      "type": "function",
      "constant": true
    },
    {
      "inputs": [
        {
          "internalType": "address",
          "name": "account",
          "type": "address"
        }
      ],
      "name": "isAccountCriticalNow",
      "outputs": [
        {
          "internalType": "bool",
          "name": "isCritical",
          "type": "bool"
        }
      ],
      "stateMutability": "view",
      "type": "function",
      "constant": true
    },
    {
      "inputs": [
        {
          "internalType": "address",
          "name": "account",
          "type": "address"
        },
        {
          "internalType": "uint256",
          "name": "timestamp",
          "type": "uint256"
        }
      ],
      "name": "isAccountSolvent",
      "outputs": [
        {
          "internalType": "bool",
          "name": "isSolvent",
          "type": "bool"
        }
      ],
      "stateMutability": "view",
      "type": "function",
      "constant": true
    },
    {
      "inputs": [
        {
          "internalType": "address",
          "name": "account",
          "type": "address"
        }
      ],
      "name": "isAccountSolventNow",
      "outputs": [
        {
          "internalType": "bool",
          "name": "isSolvent",
          "type": "bool"
        }
      ],
      "stateMutability": "view",
      "type": "function",
      "constant": true
    },
    {
      "inputs": [
        {
          "internalType": "bytes32",
          "name": "id",
          "type": "bytes32"
        },
        {
          "internalType": "bytes",
          "name": "liquidationTypeData",
          "type": "bytes"
        },
        {
          "internalType": "address",
          "name": "liquidatorAccount",
          "type": "address"
        },
        {
          "internalType": "bool",
          "name": "useDefaultRewardAccount",
          "type": "bool"
        },
        {
          "internalType": "address",
          "name": "targetAccount",
          "type": "address"
        },
        {
          "internalType": "uint256",
          "name": "rewardAmount",
          "type": "uint256"
        },
        {
          "internalType": "int256",
          "name": "targetAccountBalanceDelta",
          "type": "int256"
        }
      ],
      "name": "makeLiquidationPayoutsV2",
      "outputs": [],
      "stateMutability": "nonpayable",
      "type": "function"
    },
    {
      "inputs": [
        {
          "internalType": "address",
          "name": "account",
          "type": "address"
        },
        {
          "internalType": "uint256",
          "name": "timestamp",
          "type": "uint256"
        }
      ],
      "name": "realtimeBalanceOf",
      "outputs": [
        {
          "internalType": "int256",
          "name": "availableBalance",
          "type": "int256"
        },
        {
          "internalType": "uint256",
          "name": "deposit",
          "type": "uint256"
        },
        {
          "internalType": "uint256",
          "name": "owedDeposit",
          "type": "uint256"
        }
      ],
      "stateMutability": "view",
      "type": "function",
      "constant": true
    },
    {
      "inputs": [
        {
          "internalType": "address",
          "name": "account",
          "type": "address"
        }
      ],
      "name": "realtimeBalanceOfNow",
      "outputs": [
        {
          "internalType": "int256",
          "name": "availableBalance",
          "type": "int256"
        },
        {
          "internalType": "uint256",
          "name": "deposit",
          "type": "uint256"
        },
        {
          "internalType": "uint256",
          "name": "owedDeposit",
          "type": "uint256"
        },
        {
          "internalType": "uint256",
          "name": "timestamp",
          "type": "uint256"
        }
      ],
      "stateMutability": "view",
      "type": "function",
      "constant": true
    },
    {
      "inputs": [
        {
          "internalType": "address",
          "name": "account",
          "type": "address"
        },
        {
          "internalType": "int256",
          "name": "delta",
          "type": "int256"
        }
      ],
      "name": "settleBalance",
      "outputs": [],
      "stateMutability": "nonpayable",
      "type": "function"
    },
    {
      "inputs": [
        {
          "internalType": "bytes32",
          "name": "id",
          "type": "bytes32"
        },
        {
          "internalType": "uint256",
          "name": "dataLength",
          "type": "uint256"
        }
      ],
      "name": "terminateAgreement",
      "outputs": [],
      "stateMutability": "nonpayable",
      "type": "function"
    },
    {
      "inputs": [
        {
          "internalType": "bytes32",
          "name": "id",
          "type": "bytes32"
        },
        {
          "internalType": "bytes32[]",
          "name": "data",
          "type": "bytes32[]"
        }
      ],
      "name": "updateAgreementData",
      "outputs": [],
      "stateMutability": "nonpayable",
      "type": "function"
    },
    {
      "inputs": [
        {
          "internalType": "address",
          "name": "account",
          "type": "address"
        },
        {
          "internalType": "uint256",
          "name": "slotId",
          "type": "uint256"
        },
        {
          "internalType": "bytes32[]",
          "name": "slotData",
          "type": "bytes32[]"
        }
      ],
      "name": "updateAgreementStateSlot",
      "outputs": [],
      "stateMutability": "nonpayable",
      "type": "function"
    },
    {
      "inputs": [
        {
          "internalType": "contract IERC20",
          "name": "underlyingToken",
          "type": "address"
        },
        {
          "internalType": "uint8",
          "name": "underlyingDecimals",
          "type": "uint8"
        },
        {
          "internalType": "string",
          "name": "n",
          "type": "string"
        },
        {
          "internalType": "string",
          "name": "s",
          "type": "string"
        }
      ],
      "name": "initialize",
      "outputs": [],
      "stateMutability": "nonpayable",
      "type": "function"
    },
    {
      "inputs": [],
      "name": "proxiableUUID",
      "outputs": [
        {
          "internalType": "bytes32",
          "name": "",
          "type": "bytes32"
        }
      ],
      "stateMutability": "pure",
      "type": "function",
      "constant": true
    },
    {
      "inputs": [
        {
          "internalType": "address",
          "name": "newAddress",
          "type": "address"
        }
      ],
      "name": "updateCode",
      "outputs": [],
      "stateMutability": "nonpayable",
      "type": "function"
    },
    {
      "inputs": [],
      "name": "name",
      "outputs": [
        {
          "internalType": "string",
          "name": "",
          "type": "string"
        }
      ],
      "stateMutability": "view",
      "type": "function",
      "constant": true
    },
    {
      "inputs": [],
      "name": "symbol",
      "outputs": [
        {
          "internalType": "string",
          "name": "",
          "type": "string"
        }
      ],
      "stateMutability": "view",
      "type": "function",
      "constant": true
    },
    {
      "inputs": [],
      "name": "decimals",
      "outputs": [
        {
          "internalType": "uint8",
          "name": "",
          "type": "uint8"
        }
      ],
      "stateMutability": "pure",
      "type": "function",
      "constant": true
    },
    {
      "inputs": [],
      "name": "totalSupply",
      "outputs": [
        {
          "internalType": "uint256",
          "name": "",
          "type": "uint256"
        }
      ],
      "stateMutability": "view",
      "type": "function",
      "constant": true
    },
    {
      "inputs": [
        {
          "internalType": "address",
          "name": "account",
          "type": "address"
        }
      ],
      "name": "balanceOf",
      "outputs": [
        {
          "internalType": "uint256",
          "name": "balance",
          "type": "uint256"
        }
      ],
      "stateMutability": "view",
      "type": "function",
      "constant": true
    },
    {
      "inputs": [
        {
          "internalType": "address",
          "name": "recipient",
          "type": "address"
        },
        {
          "internalType": "uint256",
          "name": "amount",
          "type": "uint256"
        }
      ],
      "name": "transfer",
      "outputs": [
        {
          "internalType": "bool",
          "name": "",
          "type": "bool"
        }
      ],
      "stateMutability": "nonpayable",
      "type": "function"
    },
    {
      "inputs": [
        {
          "internalType": "address",
          "name": "account",
          "type": "address"
        },
        {
          "internalType": "address",
          "name": "spender",
          "type": "address"
        }
      ],
      "name": "allowance",
      "outputs": [
        {
          "internalType": "uint256",
          "name": "",
          "type": "uint256"
        }
      ],
      "stateMutability": "view",
      "type": "function",
      "constant": true
    },
    {
      "inputs": [
        {
          "internalType": "address",
          "name": "spender",
          "type": "address"
        },
        {
          "internalType": "uint256",
          "name": "amount",
          "type": "uint256"
        }
      ],
      "name": "approve",
      "outputs": [
        {
          "internalType": "bool",
          "name": "",
          "type": "bool"
        }
      ],
      "stateMutability": "nonpayable",
      "type": "function"
    },
    {
      "inputs": [
        {
          "internalType": "address",
          "name": "holder",
          "type": "address"
        },
        {
          "internalType": "address",
          "name": "recipient",
          "type": "address"
        },
        {
          "internalType": "uint256",
          "name": "amount",
          "type": "uint256"
        }
      ],
      "name": "transferFrom",
      "outputs": [
        {
          "internalType": "bool",
          "name": "",
          "type": "bool"
        }
      ],
      "stateMutability": "nonpayable",
      "type": "function"
    },
    {
      "inputs": [
        {
          "internalType": "address",
          "name": "spender",
          "type": "address"
        },
        {
          "internalType": "uint256",
          "name": "addedValue",
          "type": "uint256"
        }
      ],
      "name": "increaseAllowance",
      "outputs": [
        {
          "internalType": "bool",
          "name": "",
          "type": "bool"
        }
      ],
      "stateMutability": "nonpayable",
      "type": "function"
    },
    {
      "inputs": [
        {
          "internalType": "address",
          "name": "spender",
          "type": "address"
        },
        {
          "internalType": "uint256",
          "name": "subtractedValue",
          "type": "uint256"
        }
      ],
      "name": "decreaseAllowance",
      "outputs": [
        {
          "internalType": "bool",
          "name": "",
          "type": "bool"
        }
      ],
      "stateMutability": "nonpayable",
      "type": "function"
    },
    {
      "inputs": [],
      "name": "granularity",
      "outputs": [
        {
          "internalType": "uint256",
          "name": "",
          "type": "uint256"
        }
      ],
      "stateMutability": "pure",
      "type": "function",
      "constant": true
    },
    {
      "inputs": [
        {
          "internalType": "address",
          "name": "recipient",
          "type": "address"
        },
        {
          "internalType": "uint256",
          "name": "amount",
          "type": "uint256"
        },
        {
          "internalType": "bytes",
          "name": "data",
          "type": "bytes"
        }
      ],
      "name": "send",
      "outputs": [],
      "stateMutability": "nonpayable",
      "type": "function"
    },
    {
      "inputs": [
        {
          "internalType": "uint256",
          "name": "amount",
          "type": "uint256"
        },
        {
          "internalType": "bytes",
          "name": "data",
          "type": "bytes"
        }
      ],
      "name": "burn",
      "outputs": [],
      "stateMutability": "nonpayable",
      "type": "function"
    },
    {
      "inputs": [
        {
          "internalType": "address",
          "name": "operator",
          "type": "address"
        },
        {
          "internalType": "address",
          "name": "tokenHolder",
          "type": "address"
        }
      ],
      "name": "isOperatorFor",
      "outputs": [
        {
          "internalType": "bool",
          "name": "",
          "type": "bool"
        }
      ],
      "stateMutability": "view",
      "type": "function",
      "constant": true
    },
    {
      "inputs": [
        {
          "internalType": "address",
          "name": "operator",
          "type": "address"
        }
      ],
      "name": "authorizeOperator",
      "outputs": [],
      "stateMutability": "nonpayable",
      "type": "function"
    },
    {
      "inputs": [
        {
          "internalType": "address",
          "name": "operator",
          "type": "address"
        }
      ],
      "name": "revokeOperator",
      "outputs": [],
      "stateMutability": "nonpayable",
      "type": "function"
    },
    {
      "inputs": [],
      "name": "defaultOperators",
      "outputs": [
        {
          "internalType": "address[]",
          "name": "",
          "type": "address[]"
        }
      ],
      "stateMutability": "view",
      "type": "function",
      "constant": true
    },
    {
      "inputs": [
        {
          "internalType": "address",
          "name": "sender",
          "type": "address"
        },
        {
          "internalType": "address",
          "name": "recipient",
          "type": "address"
        },
        {
          "internalType": "uint256",
          "name": "amount",
          "type": "uint256"
        },
        {
          "internalType": "bytes",
          "name": "data",
          "type": "bytes"
        },
        {
          "internalType": "bytes",
          "name": "operatorData",
          "type": "bytes"
        }
      ],
      "name": "operatorSend",
      "outputs": [],
      "stateMutability": "nonpayable",
      "type": "function"
    },
    {
      "inputs": [
        {
          "internalType": "address",
          "name": "account",
          "type": "address"
        },
        {
          "internalType": "uint256",
          "name": "amount",
          "type": "uint256"
        },
        {
          "internalType": "bytes",
          "name": "data",
          "type": "bytes"
        },
        {
          "internalType": "bytes",
          "name": "operatorData",
          "type": "bytes"
        }
      ],
      "name": "operatorBurn",
      "outputs": [],
      "stateMutability": "nonpayable",
      "type": "function"
    },
    {
      "inputs": [
        {
          "internalType": "address",
          "name": "account",
          "type": "address"
        },
        {
          "internalType": "uint256",
          "name": "amount",
          "type": "uint256"
        },
        {
          "internalType": "bytes",
          "name": "userData",
          "type": "bytes"
        }
      ],
      "name": "selfMint",
      "outputs": [],
      "stateMutability": "nonpayable",
      "type": "function"
    },
    {
      "inputs": [
        {
          "internalType": "address",
          "name": "account",
          "type": "address"
        },
        {
          "internalType": "uint256",
          "name": "amount",
          "type": "uint256"
        },
        {
          "internalType": "bytes",
          "name": "userData",
          "type": "bytes"
        }
      ],
      "name": "selfBurn",
      "outputs": [],
      "stateMutability": "nonpayable",
      "type": "function"
    },
    {
      "inputs": [
        {
          "internalType": "address",
          "name": "account",
          "type": "address"
        },
        {
          "internalType": "address",
          "name": "spender",
          "type": "address"
        },
        {
          "internalType": "uint256",
          "name": "amount",
          "type": "uint256"
        }
      ],
      "name": "selfApproveFor",
      "outputs": [],
      "stateMutability": "nonpayable",
      "type": "function"
    },
    {
      "inputs": [
        {
          "internalType": "address",
          "name": "holder",
          "type": "address"
        },
        {
          "internalType": "address",
          "name": "spender",
          "type": "address"
        },
        {
          "internalType": "address",
          "name": "recipient",
          "type": "address"
        },
        {
          "internalType": "uint256",
          "name": "amount",
          "type": "uint256"
        }
      ],
      "name": "selfTransferFrom",
      "outputs": [],
      "stateMutability": "nonpayable",
      "type": "function"
    },
    {
      "inputs": [
        {
          "internalType": "address",
          "name": "recipient",
          "type": "address"
        }
      ],
      "name": "transferAll",
      "outputs": [],
      "stateMutability": "nonpayable",
      "type": "function"
    },
    {
      "inputs": [],
      "name": "getUnderlyingToken",
      "outputs": [
        {
          "internalType": "address",
          "name": "",
          "type": "address"
        }
      ],
      "stateMutability": "view",
      "type": "function",
      "constant": true
    },
    {
      "inputs": [
        {
          "internalType": "uint256",
          "name": "amount",
          "type": "uint256"
        }
      ],
      "name": "upgrade",
      "outputs": [],
      "stateMutability": "nonpayable",
      "type": "function"
    },
    {
      "inputs": [
        {
          "internalType": "address",
          "name": "to",
          "type": "address"
        },
        {
          "internalType": "uint256",
          "name": "amount",
          "type": "uint256"
        },
        {
          "internalType": "bytes",
          "name": "data",
          "type": "bytes"
        }
      ],
      "name": "upgradeTo",
      "outputs": [],
      "stateMutability": "nonpayable",
      "type": "function"
    },
    {
      "inputs": [
        {
          "internalType": "uint256",
          "name": "amount",
          "type": "uint256"
        }
      ],
      "name": "downgrade",
      "outputs": [],
      "stateMutability": "nonpayable",
      "type": "function"
    },
    {
      "inputs": [
        {
          "internalType": "address",
          "name": "account",
          "type": "address"
        },
        {
          "internalType": "address",
          "name": "spender",
          "type": "address"
        },
        {
          "internalType": "uint256",
          "name": "amount",
          "type": "uint256"
        }
      ],
      "name": "operationApprove",
      "outputs": [],
      "stateMutability": "nonpayable",
      "type": "function"
    },
    {
      "inputs": [
        {
          "internalType": "address",
          "name": "account",
          "type": "address"
        },
        {
          "internalType": "address",
          "name": "spender",
          "type": "address"
        },
        {
          "internalType": "address",
          "name": "recipient",
          "type": "address"
        },
        {
          "internalType": "uint256",
          "name": "amount",
          "type": "uint256"
        }
      ],
      "name": "operationTransferFrom",
      "outputs": [],
      "stateMutability": "nonpayable",
      "type": "function"
    },
    {
      "inputs": [
        {
          "internalType": "address",
          "name": "account",
          "type": "address"
        },
        {
          "internalType": "uint256",
          "name": "amount",
          "type": "uint256"
        }
      ],
      "name": "operationUpgrade",
      "outputs": [],
      "stateMutability": "nonpayable",
      "type": "function"
    },
    {
      "inputs": [
        {
          "internalType": "address",
          "name": "account",
          "type": "address"
        },
        {
          "internalType": "uint256",
          "name": "amount",
          "type": "uint256"
        }
      ],
      "name": "operationDowngrade",
      "outputs": [],
      "stateMutability": "nonpayable",
      "type": "function"
    }
  ],
  "bytecode": "0x60a06040523480156200001157600080fd5b5060405162004a2038038062004a20833981016040819052620000349162000046565b6001600160a01b031660805262000078565b6000602082840312156200005957600080fd5b81516001600160a01b03811681146200007157600080fd5b9392505050565b608051614923620000fd6000396000818161043201528181610b0901528181610b7c01528181610e2501528181610f840152818161106c01528181611335015281816114950152818161166001528181611a8401528181611b4701528181611bd3015281816123e8015281816124980152818161367f01526138d201526149236000f3fe608060405234801561001057600080fd5b50600436106103625760003560e01c806362ad1b83116101c8578063a9059cbb11610104578063d9d078d6116100a2578063ee719bc81161007c578063ee719bc8146107b2578063fad8b32a146107c3578063fc673c4f146107d6578063fe9d9303146107e957600080fd5b8063d9d078d614610738578063dd62ed3e1461074b578063eb3537cc1461078457600080fd5b8063c68d4283116100de578063c68d4283146106ec578063ca789464146106ff578063cf97256d14610712578063d95b63711461072557600080fd5b8063a9059cbb146106b3578063b84cdd4a146106c6578063bb0d196e146106d957600080fd5b806395d89b41116101715780639d8767411161014b5780639d87674114610667578063a1b2bf8b1461067a578063a3a7e7f31461068d578063a457c2d7146106a057600080fd5b806395d89b41146106445780639903ad381461064c5780639bd9bbc61461065457600080fd5b806370a08231116101a257806370a082311461060b57806379359f6f1461061e578063959b8c3f1461063157600080fd5b806362ad1b83146105d257806366a12fb6146105e55780636c2d9f2f146105f857600080fd5b80632ec8eec7116102a2578063469519541161024057806352d1902d1161021a57806352d1902d1461057f578063556f0dc7146105a55780635b9d09cc146105ac57806362aa5287146105bf57600080fd5b806346951954146105445780634b61cc331461055757806350d75d251461057757600080fd5b8063395093511161027c57806339509351146104f857806341b706be1461050b57806342fe09801461051e57806345977d031461053157600080fd5b80632ec8eec7146104a3578063313ce567146104d6578063386fa221146104e557600080fd5b806316d055d61161030f57806320bc4425116102e957806320bc44251461043057806323b872dd1461046a578063245887fc1461047d578063270483971461049057600080fd5b806316d055d6146103f857806318160ddd1461040b5780631863e8091461041d57600080fd5b8063095ea7b311610340578063095ea7b3146103af57806311bcc81e146103d257806312a6a3f8146103e557600080fd5b806306e485381461036757806306fdde0314610385578063090c415e1461039a575b600080fd5b61036f6107fc565b60405161037c9190613ae1565b60405180910390f35b61038d61080d565b60405161037c9190613b7e565b6103ad6103a8366004613bf2565b61089f565b005b6103c26103bd366004613c4e565b610999565b604051901515815260200161037c565b6103ad6103e0366004613c7a565b6109b0565b6103ad6103f3366004613c93565b6109de565b6103ad610406366004613cdf565b610b07565b6003545b60405190815260200161037c565b6103ad61042b366004613df5565b610b67565b7f00000000000000000000000000000000000000000000000000000000000000005b6040516001600160a01b03909116815260200161037c565b6103c2610478366004613e88565b610e0b565b6103ad61048b366004613c4e565b610e23565b6103ad61049e366004613ec9565b610e9f565b6104b66104b1366004613eeb565b610f7c565b60408051948552602085019390935291830152606082015260800161037c565b6040516012815260200161037c565b61036f6104f3366004613eeb565b61101f565b6103c2610506366004613c4e565b6110db565b6103ad610519366004613cdf565b611117565b6103ad61052c366004613f4a565b611143565b6103ad61053f366004613c7a565b6112fe565b6103ad610552366004613eeb565b61132a565b61056a610565366004613fe5565b611380565b60405161037c919061402b565b610452611410565b7f6bfbb132610e56cb96575dba244667b9d6dbfeffe22b68a79fa16f2d18eb001961040f565b600161040f565b6103ad6105ba366004614063565b61143a565b6103ad6105cd366004613e88565b611493565b6103ad6105e03660046140b3565b6114f0565b6103ad6105f3366004613e88565b61159e565b61056a610606366004614152565b6115be565b61040f610619366004613eeb565b611630565b6103c261062c366004613eeb565b611658565b6103ad61063f366004613eeb565b6116e0565b61038d611731565b6103ad611740565b6103ad610662366004614063565b611858565b6103ad610675366004614187565b6118ac565b6103ad610688366004613c93565b6118ec565b6103ad61069b366004613eeb565b6119ba565b6103c26106ae366004613c4e565b6119ce565b6103c26106c1366004613c4e565b611a1d565b6103c26106d4366004613c4e565b611a2b565b6103c26106e7366004613eeb565b611a7c565b6103ad6106fa366004614187565b611b04565b6103ad61070d366004613c4e565b611b45565b6103ad610720366004613c4e565b611bbe565b6103c26107333660046141e0565b611cab565b6103c2610746366004613c4e565b611cb9565b61040f6107593660046141e0565b6001600160a01b03918216600090815260116020908152604080832093909416825291909152205490565b610797610792366004613c4e565b611cd3565b6040805193845260208401929092529082015260600161037c565b600e546001600160a01b0316610452565b6103ad6107d1366004613eeb565b611e26565b6103ad6107e4366004614219565b611e77565b6103ad6107f7366004614261565b611f17565b60606108086012611f67565b905090565b6060600f805461081c906142a0565b80601f0160208091040260200160405190810160405280929190818152602001828054610848906142a0565b80156108955780601f1061086a57610100808354040283529160200191610895565b820191906000526020600020905b81548152906001019060200180831161087857829003601f168201915b5050505050905090565b60408051608060208201819052600e60a08301527f41677265656d656e74537461746500000000000000000000000000000000000060c083015233928201929092526001600160a01b038616606082015290810184905260009060e00160405160208183030381529060405280519060200120905061095181848480806020026020016040519081016040528093929190818152602001838360200280828437600092019190915250611fcd92505050565b6040518481526001600160a01b0386169033907f30f416fa68fca014a0f334464c64b000ba53e99b6d2afdea9d5ca756372d5985906020015b60405180910390a35050505050565b60006109a633848461200e565b5060015b92915050565b6109db33338360405180602001604052806000815250604051806020016040528060008152506120c6565b50565b60408051606060208201819052600d60808301526c41677265656d656e744461746160981b60a083015233928201839052810185905260009060c00160408051601f1981840301815291905280516020909101209050610a3e818461227f565b15610a7e576040517f5b5b42a500000000000000000000000000000000000000000000000000000000815261138860048201526024015b60405180910390fd5b610abb81858580806020026020016040519081016040528093929190818152602001838360200280828437600092019190915250611fcd92505050565b816001600160a01b03167f770ea40a13a4644573ed785e5c7116890709947918747febc5add46feb531e2d868686604051610af8939291906142da565b60405180910390a25050505050565b7f00000000000000000000000000000000000000000000000000000000000000006001600160a01b03163314610b5457604051632a94f67960e21b81526115186004820152602401610a75565b610b60848484846122bb565b5050505050565b604051632329212160e21b81523360048201527f00000000000000000000000000000000000000000000000000000000000000006001600160a01b031690638ca4848490602401602060405180830381865afa158015610bcb573d6000803e3d6000fd5b505050506040513d601f19601f82011682018060405250810190610bef9190614333565b610c1057604051639aca506b60e01b81526114b46004820152602401610a75565b6000610c1a6123e3565b90506001600160a01b038116610c2d5750845b600085610c3a5786610c3c565b815b905060008313610cd957610c4f83614366565b610c5885612541565b14610c6557610c6561439e565b610c6e84612541565b6001600160a01b03821660009081526002602052604081208054909190610c969084906143b4565b90915550506001600160a01b03851660009081526002602052604081208054859290610cc39084906143b4565b90915550610cd490508582866125dd565b610da3565b8515610ce757610ce761439e565b82610cf185612541565b610cfb91906143b4565b6001600160a01b03831660009081526002602052604081208054909190610d239084906143dc565b90915550610d32905084612541565b6001600160a01b03881660009081526002602052604081208054909190610d5a9084906143b4565b90915550506001600160a01b03851660009081526002602052604081208054859290610d879084906143b4565b90915550610d9890508288866125dd565b610da38286856125dd565b846001600160a01b0316876001600160a01b0316336001600160a01b03167fb8381a3ce157650e06186e3e8f4dd4dc29236f2688b6eed1893d0a60d7c6386f8c8589898f604051610df89594939291906143fc565b60405180910390a4505050505050505050565b6000610e19338585856122bb565b90505b9392505050565b7f00000000000000000000000000000000000000000000000000000000000000006001600160a01b03163314610e7057604051632a94f67960e21b81526115186004820152602401610a75565b610e9b33838360405180602001604052806000815250604051806020016040528060008152506120c6565b5050565b60408051606060208201819052600d60808301526c41677265656d656e744461746160981b60a083015233928201839052810184905260009060c001604051602081830303815290604052805190602001209050610efd818461227f565b610f37576040517f9995b0c10000000000000000000000000000000000000000000000000000000081526113896004820152602401610a75565b610f418184612622565b60405184815233907f71a63dc095de07aa5512ad57a7596a39516317e316981a1cd71000057be1537b9060200160405180910390a250505050565b6000806000807f00000000000000000000000000000000000000000000000000000000000000006001600160a01b031663bbe4fd506040518163ffffffff1660e01b8152600401602060405180830381865afa158015610fe0573d6000803e3d6000fd5b505050506040513d601f19601f820116820180604052508101906110049190614430565b90506110108582611cd3565b91979096509094509092509050565b6001600160a01b03818116600090815260016020526040908190205490517fc56a069d000000000000000000000000000000000000000000000000000000008152901960048201526060917f0000000000000000000000000000000000000000000000000000000000000000169063c56a069d90602401600060405180830381865afa1580156110b3573d6000803e3d6000fd5b505050506040513d6000823e601f3d908101601f191682016040526109aa9190810190614449565b3360008181526011602090815260408083206001600160a01b038716845290915281205490916109a69185906111129086906144fb565b61200e565b33301461113757604051630fff4cc960e31b815260040160405180910390fd5b610b60838584846122bb565b600054610100900460ff16158080156111635750600054600160ff909116105b8061117d5750303b15801561117d575060005460ff166001145b6111ef5760405162461bcd60e51b815260206004820152602e60248201527f496e697469616c697a61626c653a20636f6e747261637420697320616c72656160448201527f647920696e697469616c697a65640000000000000000000000000000000000006064820152608401610a75565b6000805460ff191660011790558015611212576000805461ff0019166101001790555b600e805460ff8816600160a01b027fffffffffffffffffffffff0000000000000000000000000000000000000000009091166001600160a01b038a1617179055600f61125f85878361455c565b50601061126d83858361455c565b5061127730612643565b60405160008082529081907fddf252ad1be2c89b69c2b068fc378daa952ba7f163c4a11628f55a4df523b3ef9060200160405180910390a380156112f5576000805461ff0019169055604051600181527f7f26b83ff96e1f2b6a682f133852f6798a09c465da95921460cefb38474024989060200160405180910390a15b50505050505050565b6109db333333846040518060200160405280600081525060405180602001604052806000815250612771565b336001600160a01b037f0000000000000000000000000000000000000000000000000000000000000000161461137757604051632a94f67960e21b81526119006004820152602401610a75565b6109db81612946565b60408051608060208201819052600e60a08301527f41677265656d656e74537461746500000000000000000000000000000000000060c08301526001600160a01b038088169383019390935291851660608281019190915291810184905260009060e0016040516020818303038152906040528051906020012090506114068184612b9a565b9695505050505050565b60006108087f360894a13ba1a3210667c828492db98dca3e2076cc3735a920a3ca505d382bbc5490565b61148d333386866040518060200160405280600081525087878080601f01602080910402602001604051908101604052809392919081815260200183838082843760009201919091525061277192505050565b50505050565b7f00000000000000000000000000000000000000000000000000000000000000006001600160a01b031633146114e057604051632a94f67960e21b81526115186004820152602401610a75565b6114eb83838361200e565b505050565b336114fd6012828a612c2a565b61151a5760405163f7f0222760e01b815260040160405180910390fd5b6115948189898989898080601f01602080910402602001604051908101604052809392919081815260200183838082843760009201919091525050604080516020601f8d018190048102820181019092528b815292508b91508a908190840183828082843760009201919091525060019250612cd3915050565b5050505050505050565b3330146114e057604051630fff4cc960e31b815260040160405180910390fd5b60408051606060208201819052600d60808301526c41677265656d656e744461746160981b60a08301526001600160a01b0386169282019290925280820184905260009060c0016040516020818303038152906040528051906020012090506116278184612b9a565b95945050505050565b60008061163c83610f7c565b50505090506000811261164f5780610e1c565b60009392505050565b60006109aa827f00000000000000000000000000000000000000000000000000000000000000006001600160a01b031663bbe4fd506040518163ffffffff1660e01b8152600401602060405180830381865afa1580156116bc573d6000803e3d6000fd5b505050506040513d601f19601f820116820180604052508101906107469190614430565b336116ed60128284612d54565b806001600160a01b0316826001600160a01b03167ff4caeb2d6ca8932a215a353d0703c326ec2d81fc68170f320eb2ab49e9df61f960405160405180910390a35050565b60606010805461081c906142a0565b600054610100900460ff16158080156117605750600054600160ff909116105b8061177a5750303b15801561177a575060005460ff166001145b6117ec5760405162461bcd60e51b815260206004820152602e60248201527f496e697469616c697a61626c653a20636f6e747261637420697320616c72656160448201527f647920696e697469616c697a65640000000000000000000000000000000000006064820152608401610a75565b6000805460ff19166001179055801561180f576000805461ff0019166101001790555b80156109db576000805461ff0019169055604051600181527f7f26b83ff96e1f2b6a682f133852f6798a09c465da95921460cefb3847402498906020015b60405180910390a150565b61148d3333868686868080601f01602080910402602001604051908101604052809392919081815260200183838082843760009201829052506040805160208101909152908152925060019150612cd39050565b3330146118cc57604051630fff4cc960e31b815260040160405180910390fd5b6040805160008152602081019091526114eb903390859085908590612e68565b60408051606060208201819052600d60808301526c41677265656d656e744461746160981b60a083015233928201839052810185905260009060c00160405160208183030381529060405280519060200120905061197d81858580806020026020016040519081016040528093929190818152602001838360200280828437600092019190915250611fcd92505050565b336001600160a01b03167f0c4c547b3a4fcaa5be8353b3111472b124155bccc86de811d4a481c9e6e9faca868686604051610af8939291906142da565b610e9b3333836119c933611630565b6122bb565b60006109a63384611112856040518060600160405280602a8152602001614897602a91393360009081526011602090815260408083206001600160a01b038d1684529091529020549190612f39565b6000610e1c333385856122bb565b600080600080611a3b8686611cd3565b9250925092506000611a63828411611a54576000612541565b611a5e838561461c565b612541565b611a6d90856143b4565b60001315979650505050505050565b60006109aa827f00000000000000000000000000000000000000000000000000000000000000006001600160a01b031663bbe4fd506040518163ffffffff1660e01b8152600401602060405180830381865afa158015611ae0573d6000803e3d6000fd5b505050506040513d601f19601f820116820180604052508101906106d49190614430565b333014611b2457604051630fff4cc960e31b815260040160405180910390fd5b604080516000808252602082019092526114eb913391869186918690612f65565b7f00000000000000000000000000000000000000000000000000000000000000006001600160a01b03163314611b9257604051632a94f67960e21b81526115186004820152602401610a75565b610e9b338384846040518060200160405280600081525060405180602001604052806000815250612771565b604051632329212160e21b81523360048201527f00000000000000000000000000000000000000000000000000000000000000006001600160a01b031690638ca4848490602401602060405180830381865afa158015611c22573d6000803e3d6000fd5b505050506040513d601f19601f82011682018060405250810190611c469190614333565b611c6757604051639aca506b60e01b81526114b46004820152602401610a75565b6001600160a01b038216600090815260026020526040902054611c8b9082906143b4565b6001600160a01b0390921660009081526002602052604090209190915550565b6000610e1c60128484612c2a565b600080611cc68484611cd3565b5050600013949350505050565b6001600160a01b038216600090815260026020526040812054908080611cf88661101f565b905060005b8151811015611e1d576000806000848481518110611d1d57611d1d61462f565b60209081029190910101516040517f9b2e48bc0000000000000000000000000000000000000000000000000000000081523060048201526001600160a01b038c81166024830152604482018c905290911690639b2e48bc90606401606060405180830381865afa158015611d95573d6000803e3d6000fd5b505050506040513d601f19601f82011682018060405250810190611db99190614645565b91945092509050611dca82886144fb565b9650611dd681876144fb565b9550611df3818311611de9576000612541565b611a5e828461461c565b611dfd848a6143b4565b611e0791906143dc565b975050505080611e1690614673565b9050611cfd565b50509250925092565b33611e3360128284613043565b806001600160a01b0316826001600160a01b03167f50546e66e5f44d728365dc3908c63bc5cfeeab470722c1677e3073a6ac294aa160405160405180910390a35050565b33611e8460128289612c2a565b611ea15760405163f7f0222760e01b815260040160405180910390fd5b6112f581888888888080601f01602080910402602001604051908101604052809392919081815260200183838082843760009201919091525050604080516020601f8c018190048102820181019092528a815292508a91508990819084018382808284376000920191909152506120c692505050565b6114eb33338585858080601f0160208091040260200160405190810160405280939291908181526020018383808284376000920182905250604080516020810190915290815292506120c6915050565b606081600001805480602002602001604051908101604052809291908181526020018280548015611fc157602002820191906000526020600020905b81546001600160a01b03168152600190910190602001808311611fa3575b50505050509050919050565b60005b81518110156114eb576000828281518110611fed57611fed61462f565b602002602001015190508082850155508061200790614673565b9050611fd0565b6001600160a01b0383166120395760405163e961d6ff60e01b81526119646004820152602401610a75565b6001600160a01b0382166120645760405163e961d6ff60e01b81526119656004820152602401610a75565b6001600160a01b0383811660008181526011602090815260408083209487168084529482529182902085905590518481527f8c5be1e5ebec7d5bd14f71427d1e84f3dd0314c0f7b2291e5b200ac8c7c3b92591015b60405180910390a3505050565b600e546001600160a01b03166120ef57604051637bce7b2b60e11b815260040160405180910390fd5b6000806120fb8561314e565b9150915061210c8787838787612e68565b600e546040516370a0823160e01b81523060048201526000916001600160a01b0316906370a0823190602401602060405180830381865afa158015612155573d6000803e3d6000fd5b505050506040513d601f19601f820116820180604052508101906121799190614430565b600e54909150612193906001600160a01b0316888561320a565b600e546040516370a0823160e01b81523060048201526000916001600160a01b0316906370a0823190602401602060405180830381865afa1580156121dc573d6000803e3d6000fd5b505050506040513d601f19601f820116820180604052508101906122009190614430565b9050600061220e828461461c565b905080851461223057604051631c7c26d360e31b815260040160405180910390fd5b886001600160a01b03167f3bc27981aebbb57f9247dc00fde9d6cd91e4b230083fec3238fedbcba1f9ab3d8560405161226b91815260200190565b60405180910390a250505050505050505050565b6000805b828110156122b1578381015480156122a0576001925050506109aa565b506122aa81614673565b9050612283565b5060009392505050565b60006001600160a01b0384166122e85760405163e961d6ff60e01b81526119686004820152602401610a75565b6001600160a01b0383166123135760405163e961d6ff60e01b81526119696004820152602401610a75565b60003390506123448186868660405180602001604052806000815250604051806020016040528060008152506132b3565b846001600160a01b0316866001600160a01b0316146123d7576123d78587611112866040518060600160405280602d81526020016148c1602d9139601160008c6001600160a01b03166001600160a01b0316815260200190815260200160002060008d6001600160a01b03166001600160a01b0316815260200190815260200160002054612f399092919063ffffffff16565b50600195945050505050565b6000807f00000000000000000000000000000000000000000000000000000000000000006001600160a01b031663289b3c0d6040518163ffffffff1660e01b8152600401602060405180830381865afa158015612444573d6000803e3d6000fd5b505050506040513d601f19601f82011682018060405250810190612468919061468c565b6040517f8369a0f10000000000000000000000000000000000000000000000000000000081526001600160a01b037f0000000000000000000000000000000000000000000000000000000000000000811660048301523060248301527f9f60ae461adf056670e03ae602566409933242392cb06744f5747c9f38b05d09604483015291925090821690638369a0f190606401602060405180830381865afa158015612517573d6000803e3d6000fd5b505050506040513d601f19601f8201168201806040525081019061253b919061468c565b91505090565b60007f7fffffffffffffffffffffffffffffffffffffffffffffffffffffffffffffff8211156125d95760405162461bcd60e51b815260206004820152602860248201527f53616665436173743a2076616c756520646f65736e27742066697420696e206160448201527f6e20696e743235360000000000000000000000000000000000000000000000006064820152608401610a75565b5090565b816001600160a01b0316836001600160a01b03167fddf252ad1be2c89b69c2b068fc378daa952ba7f163c4a11628f55a4df523b3ef836040516120b991815260200190565b60005b818110156114eb5760008382015561263c81614673565b9050612625565b6040516329965a1d60e01b81526001600160a01b03821660048201527fac7fbab5f54a3ca8194167523c6753bfeb96a445279294b6125b68cce21770546024820152306044820152731820a4b7618bde71dce8cdc73aab6c95905fad24906329965a1d90606401600060405180830381600087803b1580156126c457600080fd5b505af11580156126d8573d6000803e3d6000fd5b50506040516329965a1d60e01b81526001600160a01b03841660048201527faea199e31a596269b42cdafd93407f14436db6e4cad65417994c2eb37381e05a6024820152306044820152731820a4b7618bde71dce8cdc73aab6c95905fad2492506329965a1d9150606401600060405180830381600087803b15801561275d57600080fd5b505af1158015610b60573d6000803e3d6000fd5b600e546001600160a01b031661279a57604051637bce7b2b60e11b815260040160405180910390fd5b6000806127a68561314e565b600e546040516370a0823160e01b81523060048201529294509092506000916001600160a01b03909116906370a0823190602401602060405180830381865afa1580156127f7573d6000803e3d6000fd5b505050506040513d601f19601f8201168201806040525081019061281b9190614430565b600e54909150612836906001600160a01b0316893086613364565b600e546040516370a0823160e01b81523060048201526000916001600160a01b0316906370a0823190602401602060405180830381865afa15801561287f573d6000803e3d6000fd5b505050506040513d601f19601f820116820180604052508101906128a39190614430565b905060006128b1838361461c565b90508085146128d357604051631c7c26d360e31b815260040160405180910390fd5b6128f68b8a868c6001600160a01b03168e6001600160a01b031614158b8b612f65565b886001600160a01b03167f25ca84076773b0455db53621c459ddc84fe40840e4932a62706a032566f399df8560405161293191815260200190565b60405180910390a25050505050505050505050565b60006129707f360894a13ba1a3210667c828492db98dca3e2076cc3735a920a3ca505d382bbc5490565b6001600160a01b0316036129c65760405162461bcd60e51b815260206004820152601d60248201527f5555505350726f786961626c653a206e6f742075706772616461626c650000006044820152606401610a75565b806001600160a01b03166352d1902d6040518163ffffffff1660e01b8152600401602060405180830381865afa158015612a04573d6000803e3d6000fd5b505050506040513d601f19601f82011682018060405250810190612a289190614430565b7f6bfbb132610e56cb96575dba244667b9d6dbfeffe22b68a79fa16f2d18eb001914612abc5760405162461bcd60e51b815260206004820152602360248201527f5555505350726f786961626c653a206e6f7420636f6d70617469626c65206c6f60448201527f67696300000000000000000000000000000000000000000000000000000000006064820152608401610a75565b6001600160a01b0381163003612b145760405162461bcd60e51b815260206004820152601960248201527f5555505350726f786961626c653a2070726f7879206c6f6f70000000000000006044820152606401610a75565b612b3c817f360894a13ba1a3210667c828492db98dca3e2076cc3735a920a3ca505d382bbc55565b7fe011bc04c286c344a8fcbb8de77f953da762c3e25d8cdea984147fc4168a5dcc7f6bfbb132610e56cb96575dba244667b9d6dbfeffe22b68a79fa16f2d18eb0019604080519182526001600160a01b03841660208301520161184d565b60608167ffffffffffffffff811115612bb557612bb5613d30565b604051908082528060200260200182016040528015612bde578160200160208202803683370190505b50905060005b82811015612c2357600081850154905080838381518110612c0757612c0761462f565b602090810291909101015250612c1c81614673565b9050612be4565b5092915050565b6000816001600160a01b0316836001600160a01b03161480612c9957506001600160a01b038316600090815260018501602052604090205460ff168015612c9957506001600160a01b03808316600090815260038601602090815260408083209387168352929052205460ff16155b80610e1957506001600160a01b03808316600090815260028601602090815260408083209387168352929052205460ff1690509392505050565b6001600160a01b038616612cfe5760405163e961d6ff60e01b81526119686004820152602401610a75565b6001600160a01b038516612d295760405163e961d6ff60e01b81526119696004820152602401610a75565b612d378787878787876133b5565b612d458787878787876132b3565b6112f5878787878787876134f5565b806001600160a01b0316826001600160a01b031603612ddb5760405162461bcd60e51b815260206004820152602d60248201527f4552433737374f70657261746f72733a20617574686f72697a696e672073656c60448201527f66206173206f70657261746f72000000000000000000000000000000000000006064820152608401610a75565b6001600160a01b038116600090815260018401602052604090205460ff1615612e31576001600160a01b03918216600090815260039390930160209081526040808520929093168452529020805460ff19169055565b6001600160a01b0380831660009081526002850160209081526040808320938516835292905220805460ff19166001179055505050565b6001600160a01b038416612e935760405163e961d6ff60e01b81526119666004820152602401610a75565b612ea2858560008686866133b5565b612eac8484613677565b836001600160a01b0316856001600160a01b03167fa78a9be3a7b862d26933ad85fb11d80ef66b8f972d7cbba06621d583943a4098858585604051612ef3939291906146a9565b60405180910390a36040518381526000906001600160a01b038616907fddf252ad1be2c89b69c2b068fc378daa952ba7f163c4a11628f55a4df523b3ef9060200161098a565b60008184841115612f5d5760405162461bcd60e51b8152600401610a759190613b7e565b505050900390565b6001600160a01b038516612f905760405163e961d6ff60e01b81526119676004820152602401610a75565b612f9a858561378b565b612faa86600087878686896134f5565b846001600160a01b0316866001600160a01b03167f2fe5be0146f74c5bce36c0b80911af6c7d86ff27e89d5cfa61fc681327954e5d868585604051612ff1939291906146a9565b60405180910390a36040518481526001600160a01b038616906000907fddf252ad1be2c89b69c2b068fc378daa952ba7f163c4a11628f55a4df523b3ef906020015b60405180910390a3505050505050565b336001600160a01b038216036130c15760405162461bcd60e51b815260206004820152602a60248201527f4552433737374f70657261746f72733a207265766f6b696e672073656c66206160448201527f73206f70657261746f72000000000000000000000000000000000000000000006064820152608401610a75565b6001600160a01b038116600090815260018401602052604090205460ff161561311b576001600160a01b0380831660009081526003850160209081526040808320938516835292905220805460ff19166001179055505050565b6001600160a01b03918216600090815260029390930160209081526040808520929093168452529020805460ff19169055565b600e54600090819081906012600160a01b90910460ff1610156131ad57600e5461318390600160a01b900460ff1660126146d4565b61318e90600a6147d1565b905061319a81856147e0565b92506131a68184614802565b9150613204565b600e546012600160a01b90910460ff1611156131fd57600e546131dc90601290600160a01b900460ff166146d4565b6131e790600a6147d1565b90506131f38185614802565b9250839150613204565b8391508192505b50915091565b6040516001600160a01b0383166024820152604481018290526114eb9084907fa9059cbb00000000000000000000000000000000000000000000000000000000906064015b60408051601f198184030181529190526020810180517bffffffffffffffffffffffffffffffffffffffffffffffffffffffff167fffffffff00000000000000000000000000000000000000000000000000000000909316929092179091526137e5565b6132c685856132c186612541565b6138ca565b836001600160a01b0316856001600160a01b0316876001600160a01b03167f06b541ddaa720db2b10a4d0cdac39b8d360425fc073085fac19bc82614677987868686604051613317939291906146a9565b60405180910390a4836001600160a01b0316856001600160a01b03167fddf252ad1be2c89b69c2b068fc378daa952ba7f163c4a11628f55a4df523b3ef8560405161303391815260200190565b6040516001600160a01b038085166024830152831660448201526064810182905261148d9085907f23b872dd000000000000000000000000000000000000000000000000000000009060840161324f565b60405163555ddc6560e11b81526001600160a01b03861660048201527f29ddb589b1fb5fc7cf394961c1adf5f8c6454761adf795e67fe149f658abe8956024820152600090731820a4b7618bde71dce8cdc73aab6c95905fad249063aabbb8ca90604401602060405180830381865afa158015613436573d6000803e3d6000fd5b505050506040513d601f19601f8201168201806040525081019061345a919061468c565b90506001600160a01b038116156112f5576040517f75ab97820000000000000000000000000000000000000000000000000000000081526001600160a01b038216906375ab9782906134ba908a908a908a908a908a908a90600401614821565b600060405180830381600087803b1580156134d457600080fd5b505af11580156134e8573d6000803e3d6000fd5b5050505050505050505050565b60405163555ddc6560e11b81526001600160a01b03861660048201527fb281fc8c12954d22544db45de3159a39272895b169a852b314f9cc762e44c53b6024820152600090731820a4b7618bde71dce8cdc73aab6c95905fad249063aabbb8ca90604401602060405180830381865afa158015613576573d6000803e3d6000fd5b505050506040513d601f19601f8201168201806040525081019061359a919061468c565b90506001600160a01b0381161561362f576040517e23de290000000000000000000000000000000000000000000000000000000081526001600160a01b038216906223de29906135f8908b908b908b908b908b908b90600401614821565b600060405180830381600087803b15801561361257600080fd5b505af1158015613626573d6000803e3d6000fd5b50505050611594565b8115611594576001600160a01b0386163b15611594576040517ffe737d0500000000000000000000000000000000000000000000000000000000815260040160405180910390fd5b60006136ff837f00000000000000000000000000000000000000000000000000000000000000006001600160a01b031663bbe4fd506040518163ffffffff1660e01b8152600401602060405180830381865afa1580156136db573d6000803e3d6000fd5b505050506040513d601f19601f820116820180604052508101906107929190614430565b5050905061370c82612541565b81121561373057604051636212897360e01b81526113ec6004820152602401610a75565b61373982612541565b6001600160a01b03841660009081526002602052604090205461375c91906143dc565b6001600160a01b03841660009081526002602052604090205560035461378390839061461c565b600355505050565b61379481612541565b6001600160a01b0383166000908152600260205260409020546137b791906143b4565b6001600160a01b0383166000908152600260205260409020556003546137de9082906144fb565b6003555050565b600061383a826040518060400160405280602081526020017f5361666545524332303a206c6f772d6c6576656c2063616c6c206661696c6564815250856001600160a01b03166139cd9092919063ffffffff16565b8051909150156114eb57808060200190518101906138589190614333565b6114eb5760405162461bcd60e51b815260206004820152602a60248201527f5361666545524332303a204552433230206f7065726174696f6e20646964206e60448201527f6f742073756363656564000000000000000000000000000000000000000000006064820152608401610a75565b600061392e847f00000000000000000000000000000000000000000000000000000000000000006001600160a01b031663bbe4fd506040518163ffffffff1660e01b8152600401602060405180830381865afa1580156136db573d6000803e3d6000fd5b505090508181121561395757604051636212897360e01b81526113ed6004820152602401610a75565b6001600160a01b03841660009081526002602052604090205461397b9083906143dc565b6001600160a01b0380861660009081526002602052604080822093909355908516815220546139ab9083906143b4565b6001600160a01b03909316600090815260026020526040902092909255505050565b6060610e198484600085856001600160a01b0385163b613a2f5760405162461bcd60e51b815260206004820152601d60248201527f416464726573733a2063616c6c20746f206e6f6e2d636f6e74726163740000006044820152606401610a75565b600080866001600160a01b03168587604051613a4b919061487a565b60006040518083038185875af1925050503d8060008114613a88576040519150601f19603f3d011682016040523d82523d6000602084013e613a8d565b606091505b5091509150613a9d828286613aa8565b979650505050505050565b60608315613ab7575081610e1c565b825115613ac75782518084602001fd5b8160405162461bcd60e51b8152600401610a759190613b7e565b6020808252825182820181905260009190848201906040850190845b81811015613b225783516001600160a01b031683529284019291840191600101613afd565b50909695505050505050565b60005b83811015613b49578181015183820152602001613b31565b50506000910152565b60008151808452613b6a816020860160208601613b2e565b601f01601f19169290920160200192915050565b602081526000610e1c6020830184613b52565b6001600160a01b03811681146109db57600080fd5b60008083601f840112613bb857600080fd5b50813567ffffffffffffffff811115613bd057600080fd5b6020830191508360208260051b8501011115613beb57600080fd5b9250929050565b60008060008060608587031215613c0857600080fd5b8435613c1381613b91565b935060208501359250604085013567ffffffffffffffff811115613c3657600080fd5b613c4287828801613ba6565b95989497509550505050565b60008060408385031215613c6157600080fd5b8235613c6c81613b91565b946020939093013593505050565b600060208284031215613c8c57600080fd5b5035919050565b600080600060408486031215613ca857600080fd5b83359250602084013567ffffffffffffffff811115613cc657600080fd5b613cd286828701613ba6565b9497909650939450505050565b60008060008060808587031215613cf557600080fd5b8435613d0081613b91565b93506020850135613d1081613b91565b92506040850135613d2081613b91565b9396929550929360600135925050565b634e487b7160e01b600052604160045260246000fd5b604051601f8201601f1916810167ffffffffffffffff81118282101715613d6f57613d6f613d30565b604052919050565b600082601f830112613d8857600080fd5b813567ffffffffffffffff811115613da257613da2613d30565b613db5601f8201601f1916602001613d46565b818152846020838601011115613dca57600080fd5b816020850160208301376000918101602001919091529392505050565b80151581146109db57600080fd5b600080600080600080600060e0888a031215613e1057600080fd5b87359650602088013567ffffffffffffffff811115613e2e57600080fd5b613e3a8a828b01613d77565b9650506040880135613e4b81613b91565b94506060880135613e5b81613de7565b93506080880135613e6b81613b91565b9699959850939692959460a0840135945060c09093013592915050565b600080600060608486031215613e9d57600080fd5b8335613ea881613b91565b92506020840135613eb881613b91565b929592945050506040919091013590565b60008060408385031215613edc57600080fd5b50508035926020909101359150565b600060208284031215613efd57600080fd5b8135610e1c81613b91565b60008083601f840112613f1a57600080fd5b50813567ffffffffffffffff811115613f3257600080fd5b602083019150836020828501011115613beb57600080fd5b60008060008060008060808789031215613f6357600080fd5b8635613f6e81613b91565b9550602087013560ff81168114613f8457600080fd5b9450604087013567ffffffffffffffff80821115613fa157600080fd5b613fad8a838b01613f08565b90965094506060890135915080821115613fc657600080fd5b50613fd389828a01613f08565b979a9699509497509295939492505050565b60008060008060808587031215613ffb57600080fd5b843561400681613b91565b9350602085013561401681613b91565b93969395505050506040820135916060013590565b6020808252825182820181905260009190848201906040850190845b81811015613b2257835183529284019291840191600101614047565b6000806000806060858703121561407957600080fd5b843561408481613b91565b935060208501359250604085013567ffffffffffffffff8111156140a757600080fd5b613c4287828801613f08565b600080600080600080600060a0888a0312156140ce57600080fd5b87356140d981613b91565b965060208801356140e981613b91565b955060408801359450606088013567ffffffffffffffff8082111561410d57600080fd5b6141198b838c01613f08565b909650945060808a013591508082111561413257600080fd5b5061413f8a828b01613f08565b989b979a50959850939692959293505050565b60008060006060848603121561416757600080fd5b833561417281613b91565b95602085013595506040909401359392505050565b60008060006060848603121561419c57600080fd5b83356141a781613b91565b925060208401359150604084013567ffffffffffffffff8111156141ca57600080fd5b6141d686828701613d77565b9150509250925092565b600080604083850312156141f357600080fd5b82356141fe81613b91565b9150602083013561420e81613b91565b809150509250929050565b6000806000806000806080878903121561423257600080fd5b863561423d81613b91565b955060208701359450604087013567ffffffffffffffff80821115613fa157600080fd5b60008060006040848603121561427657600080fd5b83359250602084013567ffffffffffffffff81111561429457600080fd5b613cd286828701613f08565b600181811c908216806142b457607f821691505b6020821081036142d457634e487b7160e01b600052602260045260246000fd5b50919050565b8381526040602082015281604082015260007f07ffffffffffffffffffffffffffffffffffffffffffffffffffffffffffffff83111561431957600080fd5b8260051b8085606085013791909101606001949350505050565b60006020828403121561434557600080fd5b8151610e1c81613de7565b634e487b7160e01b600052601160045260246000fd5b60007f8000000000000000000000000000000000000000000000000000000000000000820361439757614397614350565b5060000390565b634e487b7160e01b600052600160045260246000fd5b80820182811260008312801582168215821617156143d4576143d4614350565b505092915050565b8181036000831280158383131683831282161715612c2357612c23614350565b8581526001600160a01b038516602082015283604082015282606082015260a060808201526000613a9d60a0830184613b52565b60006020828403121561444257600080fd5b5051919050565b6000602080838503121561445c57600080fd5b825167ffffffffffffffff8082111561447457600080fd5b818501915085601f83011261448857600080fd5b81518181111561449a5761449a613d30565b8060051b91506144ab848301613d46565b81815291830184019184810190888411156144c557600080fd5b938501935b838510156144ef57845192506144df83613b91565b82825293850193908501906144ca565b98975050505050505050565b808201808211156109aa576109aa614350565b601f8211156114eb57600081815260208120601f850160051c810160208610156145355750805b601f850160051c820191505b8181101561455457828155600101614541565b505050505050565b67ffffffffffffffff83111561457457614574613d30565b6145888361458283546142a0565b8361450e565b6000601f8411600181146145bc57600085156145a45750838201355b600019600387901b1c1916600186901b178355610b60565b600083815260209020601f19861690835b828110156145ed57868501358255602094850194600190920191016145cd565b508682101561460a5760001960f88860031b161c19848701351681555b505060018560011b0183555050505050565b818103818111156109aa576109aa614350565b634e487b7160e01b600052603260045260246000fd5b60008060006060848603121561465a57600080fd5b8351925060208401519150604084015190509250925092565b60006001820161468557614685614350565b5060010190565b60006020828403121561469e57600080fd5b8151610e1c81613b91565b8381526060602082015260006146c26060830185613b52565b82810360408401526114068185613b52565b60ff82811682821603908111156109aa576109aa614350565b600181815b8085111561472857816000190482111561470e5761470e614350565b8085161561471b57918102915b93841c93908002906146f2565b509250929050565b60008261473f575060016109aa565b8161474c575060006109aa565b8160018114614762576002811461476c57614788565b60019150506109aa565b60ff84111561477d5761477d614350565b50506001821b6109aa565b5060208310610133831016604e8410600b84101617156147ab575081810a6109aa565b6147b583836146ed565b80600019048211156147c9576147c9614350565b029392505050565b6000610e1c60ff841683614730565b6000826147fd57634e487b7160e01b600052601260045260246000fd5b500490565b600081600019048311821515161561481c5761481c614350565b500290565b60006001600160a01b038089168352808816602084015280871660408401525084606083015260c0608083015261485b60c0830185613b52565b82810360a084015261486d8185613b52565b9998505050505050505050565b6000825161488c818460208701613b2e565b919091019291505056fe5375706572546f6b656e3a2064656372656173656420616c6c6f77616e63652062656c6f77207a65726f5375706572546f6b656e3a207472616e7366657220616d6f756e74206578636565647320616c6c6f77616e6365a2646970667358221220df18de117ee2fbcff04d19701c35d22279dced331828c455256dd19fd4c234a164736f6c63430008100033",
  "immutableReferences": {
    "9216": [
      {
        "length": 32,
        "start": 1074
      },
      {
        "length": 32,
        "start": 2825
      },
      {
        "length": 32,
        "start": 2940
      },
      {
        "length": 32,
        "start": 3621
      },
      {
        "length": 32,
        "start": 3972
      },
      {
        "length": 32,
        "start": 4204
      },
      {
        "length": 32,
        "start": 4917
      },
      {
        "length": 32,
        "start": 5269
      },
      {
        "length": 32,
        "start": 5728
      },
      {
        "length": 32,
        "start": 6788
      },
      {
        "length": 32,
        "start": 6983
      },
      {
        "length": 32,
        "start": 7123
      },
      {
        "length": 32,
        "start": 9192
      },
      {
        "length": 32,
        "start": 9368
      },
      {
        "length": 32,
        "start": 13951
      },
      {
        "length": 32,
        "start": 14546
      }
    ]
  },
  "source": "// SPDX-License-Identifier: GPL-3.0\npragma solidity >=0.7.0 <0.9.0;\n\nimport {UUPSProxiable} from \"@superfluid-finance/ethereum-contracts/contracts/upgradability/UUPSProxiable.sol\";\n\nimport {ISuperfluid, ISuperfluidGovernance, ISuperToken, ISuperAgreement, IERC20, IERC777, TokenInfo} from \"@superfluid-finance/ethereum-contracts/contracts/interfaces/superfluid/ISuperfluid.sol\";\nimport {ISuperfluidToken, SuperfluidToken} from \"@superfluid-finance/ethereum-contracts/contracts/superfluid/SuperfluidToken.sol\";\n\nimport {ERC777Helper} from \"@superfluid-finance/ethereum-contracts/contracts/libs/ERC777Helper.sol\";\n\nimport {SafeERC20} from \"@openzeppelin/contracts/token/ERC20/utils/SafeERC20.sol\";\nimport {SafeMath} from \"@openzeppelin/contracts/utils/math/SafeMath.sol\";\nimport {SafeCast} from \"@openzeppelin/contracts/utils/math/SafeCast.sol\";\nimport {IERC777Recipient} from \"@openzeppelin/contracts/token/ERC777/IERC777Recipient.sol\";\nimport {IERC777Sender} from \"@openzeppelin/contracts/token/ERC777/IERC777Sender.sol\";\nimport {Address} from \"@openzeppelin/contracts/utils/Address.sol\";\nimport {SuperfluidErrors} from \"@superfluid-finance/ethereum-contracts/contracts/interfaces/superfluid/Definitions.sol\";\n\n/**\n * @title Superfluid's super token implementation\n *\n * @author Superfluid\n */\ncontract BdlToken is UUPSProxiable, SuperfluidToken, ISuperToken {\n    using SafeMath for uint256;\n    using SafeCast for uint256;\n    using Address for address;\n    using ERC777Helper for ERC777Helper.Operators;\n    using SafeERC20 for IERC20;\n\n    uint8 private constant _STANDARD_DECIMALS = 18;\n\n    /* WARNING: NEVER RE-ORDER VARIABLES! Including the base contracts.\n       Always double-check that new\n       variables are added APPEND-ONLY. Re-ordering variables can\n       permanently BREAK the deployed proxy contract. */\n\n    /// @dev The underlying ERC20 token\n    IERC20 internal _underlyingToken;\n\n    /// @dev Decimals of the underlying token\n    uint8 internal _underlyingDecimals;\n\n    /// @dev TokenInfo Name property\n    string internal _name;\n\n    /// @dev TokenInfo Symbol property\n    string internal _symbol;\n\n    /// @dev ERC20 Allowances Storage\n    mapping(address => mapping(address => uint256)) internal _allowances;\n\n    /// @dev ERC777 operators support data\n    ERC777Helper.Operators internal _operators;\n\n    // NOTE: for future compatibility, these are reserved solidity slots\n    // The sub-class of SuperToken solidity slot will start after _reserve22\n    uint256 internal _reserve22;\n    uint256 private _reserve23;\n    uint256 private _reserve24;\n    uint256 private _reserve25;\n    uint256 private _reserve26;\n    uint256 private _reserve27;\n    uint256 private _reserve28;\n    uint256 private _reserve29;\n    uint256 private _reserve30;\n    uint256 internal _reserve31;\n\n    constructor(ISuperfluid host)\n        SuperfluidToken(host)\n    // solhint-disable-next-line no-empty-blocks\n    {\n\n    }\n\n    function initialize(\n        IERC20 underlyingToken,\n        uint8 underlyingDecimals,\n        string calldata n,\n        string calldata s\n    )\n        external\n        override\n        initializer // OpenZeppelin Initializable\n    {\n        _underlyingToken = underlyingToken;\n        _underlyingDecimals = underlyingDecimals;\n\n        _name = n;\n        _symbol = s;\n\n        // register interfaces\n        ERC777Helper.register(address(this));\n\n        // help tools like explorers detect the token contract\n        emit Transfer(address(0), address(0), 0);\n    }\n\n    function proxiableUUID() public pure override returns (bytes32) {\n        return\n            keccak256(\n                \"org.superfluid-finance.contracts.SuperToken.implementation\"\n            );\n    }\n\n    function updateCode(address newAddress) external override {\n        if (msg.sender != address(_host))\n            revert SuperfluidErrors.ONLY_HOST(\n                SuperfluidErrors.SUPER_TOKEN_ONLY_HOST\n            );\n        UUPSProxiable._updateCodeAddress(newAddress);\n    }\n\n    /**************************************************************************\n     * ERC20 Token Info\n     *************************************************************************/\n\n    function name() external view override returns (string memory) {\n        return _name;\n    }\n\n    function symbol() external view override returns (string memory) {\n        return _symbol;\n    }\n\n    function decimals() external pure override returns (uint8) {\n        return _STANDARD_DECIMALS;\n    }\n\n    /**************************************************************************\n     * (private) Token Logics\n     *************************************************************************/\n\n    /**\n     * @notice in the original openzeppelin implementation, transfer() and transferFrom()\n     * did invoke the send and receive hooks, as required by ERC777.\n     * This hooks were removed from super tokens for ERC20 transfers in order to protect\n     * interfacing contracts which don't expect invocations of ERC20 transfers to potentially reenter.\n     * Interactions relying on ERC777 hooks need to use the ERC777 interface.\n     * For more context, see https://github.com/superfluid-finance/protocol-monorepo/wiki/About-ERC-777\n     */\n    function _transferFrom(\n        address spender,\n        address holder,\n        address recipient,\n        uint amount\n    ) internal returns (bool) {\n        if (holder == address(0)) {\n            revert SuperfluidErrors.ZERO_ADDRESS(\n                SuperfluidErrors.SUPER_TOKEN_TRANSFER_FROM_ZERO_ADDRESS\n            );\n        }\n        if (recipient == address(0)) {\n            revert SuperfluidErrors.ZERO_ADDRESS(\n                SuperfluidErrors.SUPER_TOKEN_TRANSFER_TO_ZERO_ADDRESS\n            );\n        }\n        address operator = msg.sender;\n\n        _move(operator, holder, recipient, amount, \"\", \"\");\n\n        if (spender != holder) {\n            _approve(\n                holder,\n                spender,\n                _allowances[holder][spender].sub(\n                    amount,\n                    \"SuperToken: transfer amount exceeds allowance\"\n                )\n            );\n        }\n\n        return true;\n    }\n\n    /**\n     * @dev Send tokens\n     * @param operator address operator address\n     * @param from address token holder address\n     * @param to address recipient address\n     * @param amount uint256 amount of tokens to transfer\n     * @param userData bytes extra information provided by the token holder (if any)\n     * @param operatorData bytes extra information provided by the operator (if any)\n     * @param requireReceptionAck if true, contract recipients are required to implement ERC777TokensRecipient\n     */\n    function _send(\n        address operator,\n        address from,\n        address to,\n        uint256 amount,\n        bytes memory userData,\n        bytes memory operatorData,\n        bool requireReceptionAck\n    ) private {\n        if (from == address(0)) {\n            revert SuperfluidErrors.ZERO_ADDRESS(\n                SuperfluidErrors.SUPER_TOKEN_TRANSFER_FROM_ZERO_ADDRESS\n            );\n        }\n        if (to == address(0)) {\n            revert SuperfluidErrors.ZERO_ADDRESS(\n                SuperfluidErrors.SUPER_TOKEN_TRANSFER_TO_ZERO_ADDRESS\n            );\n        }\n\n        _callTokensToSend(operator, from, to, amount, userData, operatorData);\n\n        _move(operator, from, to, amount, userData, operatorData);\n\n        _callTokensReceived(\n            operator,\n            from,\n            to,\n            amount,\n            userData,\n            operatorData,\n            requireReceptionAck\n        );\n    }\n\n    function _move(\n        address operator,\n        address from,\n        address to,\n        uint256 amount,\n        bytes memory userData,\n        bytes memory operatorData\n    ) private {\n        SuperfluidToken._move(from, to, amount.toInt256());\n\n        emit Sent(operator, from, to, amount, userData, operatorData);\n        emit Transfer(from, to, amount);\n    }\n\n    /**\n     * @dev Creates `amount` tokens and assigns them to `account`, increasing\n     * the total supply.\n     *\n     * If a send hook is registered for `account`, the corresponding function\n     * will be called with `operator`, `data` and `operatorData`.\n     *\n     * See {IERC777Sender} and {IERC777Recipient}.\n     *\n     * Emits {Minted} and {IERC20-Transfer} events.\n     *\n     * Requirements\n     *\n     * - `account` cannot be the zero address.\n     * - if `account` is a contract, it must implement the {IERC777Recipient}\n     * interface.\n     */\n    function _mint(\n        address operator,\n        address account,\n        uint256 amount,\n        bool requireReceptionAck,\n        bytes memory userData,\n        bytes memory operatorData\n    ) internal {\n        if (account == address(0)) {\n            revert SuperfluidErrors.ZERO_ADDRESS(\n                SuperfluidErrors.SUPER_TOKEN_MINT_TO_ZERO_ADDRESS\n            );\n        }\n\n        SuperfluidToken._mint(account, amount);\n\n        _callTokensReceived(\n            operator,\n            address(0),\n            account,\n            amount,\n            userData,\n            operatorData,\n            requireReceptionAck\n        );\n\n        emit Minted(operator, account, amount, userData, operatorData);\n        emit Transfer(address(0), account, amount);\n    }\n\n    /**\n     * @dev Burn tokens\n     * @param from address token holder address\n     * @param amount uint256 amount of tokens to burn\n     * @param userData bytes extra information provided by the token holder\n     * @param operatorData bytes extra information provided by the operator (if any)\n     */\n    function _burn(\n        address operator,\n        address from,\n        uint256 amount,\n        bytes memory userData,\n        bytes memory operatorData\n    ) internal {\n        if (from == address(0)) {\n            revert SuperfluidErrors.ZERO_ADDRESS(\n                SuperfluidErrors.SUPER_TOKEN_BURN_FROM_ZERO_ADDRESS\n            );\n        }\n\n        _callTokensToSend(\n            operator,\n            from,\n            address(0),\n            amount,\n            userData,\n            operatorData\n        );\n\n        SuperfluidToken._burn(from, amount);\n\n        emit Burned(operator, from, amount, userData, operatorData);\n        emit Transfer(from, address(0), amount);\n    }\n\n    /**\n     * @notice Sets `amount` as the allowance of `spender` over the `account`s tokens.\n     *\n     * This is internal function is equivalent to `approve`, and can be used to\n     * e.g. set automatic allowances for certain subsystems, etc.\n     *\n     * Emits an {Approval} event.\n     *\n     * Requirements:\n     *\n     * - `account` cannot be the zero address.\n     * - `spender` cannot be the zero address.\n     */\n    function _approve(\n        address account,\n        address spender,\n        uint256 amount\n    ) internal {\n        if (account == address(0)) {\n            revert SuperfluidErrors.ZERO_ADDRESS(\n                SuperfluidErrors.SUPER_TOKEN_APPROVE_FROM_ZERO_ADDRESS\n            );\n        }\n        if (spender == address(0)) {\n            revert SuperfluidErrors.ZERO_ADDRESS(\n                SuperfluidErrors.SUPER_TOKEN_APPROVE_TO_ZERO_ADDRESS\n            );\n        }\n\n        _allowances[account][spender] = amount;\n        emit Approval(account, spender, amount);\n    }\n\n    /**\n     * @dev Call from.tokensToSend() if the interface is registered\n     * @param operator address operator requesting the transfer\n     * @param from address token holder address\n     * @param to address recipient address\n     * @param amount uint256 amount of tokens to transfer\n     * @param userData bytes extra information provided by the token holder (if any)\n     * @param operatorData bytes extra information provided by the operator (if any)\n     */\n    function _callTokensToSend(\n        address operator,\n        address from,\n        address to,\n        uint256 amount,\n        bytes memory userData,\n        bytes memory operatorData\n    ) private {\n        address implementer = ERC777Helper\n            ._ERC1820_REGISTRY\n            .getInterfaceImplementer(\n                from,\n                ERC777Helper._TOKENS_SENDER_INTERFACE_HASH\n            );\n        if (implementer != address(0)) {\n            IERC777Sender(implementer).tokensToSend(\n                operator,\n                from,\n                to,\n                amount,\n                userData,\n                operatorData\n            );\n        }\n    }\n\n    /**\n     * @dev Call to.tokensReceived() if the interface is registered. Reverts if the recipient is a contract but\n     * tokensReceived() was not registered for the recipient\n     * @param operator address operator requesting the transfer\n     * @param from address token holder address\n     * @param to address recipient address\n     * @param amount uint256 amount of tokens to transfer\n     * @param userData bytes extra information provided by the token holder (if any)\n     * @param operatorData bytes extra information provided by the operator (if any)\n     * @param requireReceptionAck if true, contract recipients are required to implement ERC777TokensRecipient\n     */\n    function _callTokensReceived(\n        address operator,\n        address from,\n        address to,\n        uint256 amount,\n        bytes memory userData,\n        bytes memory operatorData,\n        bool requireReceptionAck\n    ) private {\n        address implementer = ERC777Helper\n            ._ERC1820_REGISTRY\n            .getInterfaceImplementer(\n                to,\n                ERC777Helper._TOKENS_RECIPIENT_INTERFACE_HASH\n            );\n        if (implementer != address(0)) {\n            IERC777Recipient(implementer).tokensReceived(\n                operator,\n                from,\n                to,\n                amount,\n                userData,\n                operatorData\n            );\n        } else if (requireReceptionAck) {\n            if (to.isContract())\n                revert SUPER_TOKEN_NOT_ERC777_TOKENS_RECIPIENT();\n        }\n    }\n\n    /**************************************************************************\n     * ERC20 Implementations\n     *************************************************************************/\n\n    function totalSupply() public view override returns (uint256) {\n        return _totalSupply;\n    }\n\n    function balanceOf(address account)\n        public\n        view\n        override\n        returns (uint256 balance)\n    {\n        // solhint-disable-next-line not-rely-on-time\n        (int256 availableBalance, , , ) = super.realtimeBalanceOfNow(account);\n        return availableBalance < 0 ? 0 : uint256(availableBalance);\n    }\n\n    function transfer(address recipient, uint256 amount)\n        public\n        override\n        returns (bool)\n    {\n        return _transferFrom(msg.sender, msg.sender, recipient, amount);\n    }\n\n    function allowance(address account, address spender)\n        public\n        view\n        override\n        returns (uint256)\n    {\n        return _allowances[account][spender];\n    }\n\n    function approve(address spender, uint256 amount)\n        public\n        override\n        returns (bool)\n    {\n        _approve(msg.sender, spender, amount);\n        return true;\n    }\n\n    function transferFrom(\n        address holder,\n        address recipient,\n        uint256 amount\n    ) public override returns (bool) {\n        return _transferFrom(msg.sender, holder, recipient, amount);\n    }\n\n    function increaseAllowance(address spender, uint256 addedValue)\n        public\n        override\n        returns (bool)\n    {\n        _approve(\n            msg.sender,\n            spender,\n            _allowances[msg.sender][spender] + addedValue\n        );\n        return true;\n    }\n\n    function decreaseAllowance(address spender, uint256 subtractedValue)\n        public\n        override\n        returns (bool)\n    {\n        _approve(\n            msg.sender,\n            spender,\n            _allowances[msg.sender][spender].sub(\n                subtractedValue,\n                \"SuperToken: decreased allowance below zero\"\n            )\n        );\n        return true;\n    }\n\n    /**************************************************************************\n     * ERC-777 functions\n     *************************************************************************/\n\n    function granularity() external pure override returns (uint256) {\n        return 1;\n    }\n\n    function send(\n        address recipient,\n        uint256 amount,\n        bytes calldata data\n    ) external override {\n        _send(msg.sender, msg.sender, recipient, amount, data, \"\", true);\n    }\n\n    function burn(uint256 amount, bytes calldata data) external override {\n        _downgrade(msg.sender, msg.sender, amount, data, \"\");\n    }\n\n    function isOperatorFor(address operator, address tokenHolder)\n        external\n        view\n        override\n        returns (bool)\n    {\n        return _operators.isOperatorFor(operator, tokenHolder);\n    }\n\n    function authorizeOperator(address operator) external override {\n        address holder = msg.sender;\n        _operators.authorizeOperator(holder, operator);\n        emit AuthorizedOperator(operator, holder);\n    }\n\n    function revokeOperator(address operator) external override {\n        address holder = msg.sender;\n        _operators.revokeOperator(holder, operator);\n        emit RevokedOperator(operator, holder);\n    }\n\n    function defaultOperators()\n        external\n        view\n        override\n        returns (address[] memory)\n    {\n        return ERC777Helper.defaultOperators(_operators);\n    }\n\n    function operatorSend(\n        address sender,\n        address recipient,\n        uint256 amount,\n        bytes calldata data,\n        bytes calldata operatorData\n    ) external override {\n        address operator = msg.sender;\n        if (!_operators.isOperatorFor(operator, sender))\n            revert SUPER_TOKEN_CALLER_IS_NOT_OPERATOR_FOR_HOLDER();\n        _send(operator, sender, recipient, amount, data, operatorData, true);\n    }\n\n    function operatorBurn(\n        address account,\n        uint256 amount,\n        bytes calldata data,\n        bytes calldata operatorData\n    ) external override {\n        address operator = msg.sender;\n        if (!_operators.isOperatorFor(operator, account))\n            revert SUPER_TOKEN_CALLER_IS_NOT_OPERATOR_FOR_HOLDER();\n        _downgrade(operator, account, amount, data, operatorData);\n    }\n\n    function _setupDefaultOperators(address[] memory operators) internal {\n        _operators.setupDefaultOperators(operators);\n    }\n\n    /**************************************************************************\n     * SuperToken custom token functions\n     *************************************************************************/\n\n    function selfMint(\n        address account,\n        uint256 amount,\n        bytes memory userData\n    ) external override onlySelf {\n        _mint(\n            msg.sender,\n            account,\n            amount,\n            false, /* requireReceptionAck */\n            userData,\n            new bytes(0)\n        );\n    }\n\n    function selfBurn(\n        address account,\n        uint256 amount,\n        bytes memory userData\n    ) external override onlySelf {\n        _burn(msg.sender, account, amount, userData, new bytes(0));\n    }\n\n    function selfApproveFor(\n        address account,\n        address spender,\n        uint256 amount\n    ) external override onlySelf {\n        _approve(account, spender, amount);\n    }\n\n    function selfTransferFrom(\n        address holder,\n        address spender,\n        address recipient,\n        uint256 amount\n    ) external override onlySelf {\n        _transferFrom(spender, holder, recipient, amount);\n    }\n\n    /**************************************************************************\n     * SuperToken extra functions\n     *************************************************************************/\n\n    function transferAll(address recipient) external override {\n        _transferFrom(msg.sender, msg.sender, recipient, balanceOf(msg.sender));\n    }\n\n    /**************************************************************************\n     * ERC20 wrapping\n     *************************************************************************/\n\n    /// @dev ISuperfluidGovernance.getUnderlyingToken implementation\n    function getUnderlyingToken() external view override returns (address) {\n        return address(_underlyingToken);\n    }\n\n    /// @dev ISuperToken.upgrade implementation\n    function upgrade(uint256 amount) external override {\n        _upgrade(msg.sender, msg.sender, msg.sender, amount, \"\", \"\");\n    }\n\n    /// @dev ISuperToken.upgradeTo implementation\n    function upgradeTo(\n        address to,\n        uint256 amount,\n        bytes calldata data\n    ) external override {\n        _upgrade(msg.sender, msg.sender, to, amount, \"\", data);\n    }\n\n    /// @dev ISuperToken.downgrade implementation\n    function downgrade(uint256 amount) external override {\n        _downgrade(msg.sender, msg.sender, amount, \"\", \"\");\n    }\n\n    function _upgrade(\n        address operator,\n        address account,\n        address to,\n        uint256 amount,\n        bytes memory userData,\n        bytes memory operatorData\n    ) private {\n        if (address(_underlyingToken) == address(0))\n            revert SUPER_TOKEN_NO_UNDERLYING_TOKEN();\n\n        (\n            uint256 underlyingAmount,\n            uint256 adjustedAmount\n        ) = _toUnderlyingAmount(amount);\n\n        uint256 amountBefore = _underlyingToken.balanceOf(address(this));\n        _underlyingToken.safeTransferFrom(\n            account,\n            address(this),\n            underlyingAmount\n        );\n        uint256 amountAfter = _underlyingToken.balanceOf(address(this));\n        uint256 actualUpgradedAmount = amountAfter - amountBefore;\n        if (underlyingAmount != actualUpgradedAmount)\n            revert SUPER_TOKEN_INFLATIONARY_DEFLATIONARY_NOT_SUPPORTED();\n\n        _mint(\n            operator,\n            to,\n            adjustedAmount,\n            // if `to` is diffferent from `account`, we requireReceptionAck\n            account != to,\n            userData,\n            operatorData\n        );\n\n        emit TokenUpgraded(to, adjustedAmount);\n    }\n\n    function _downgrade(\n        address operator,\n        address account,\n        uint256 amount,\n        bytes memory data,\n        bytes memory operatorData\n    ) private {\n        if (address(_underlyingToken) == address(0))\n            revert SUPER_TOKEN_NO_UNDERLYING_TOKEN();\n\n        (\n            uint256 underlyingAmount,\n            uint256 adjustedAmount\n        ) = _toUnderlyingAmount(amount);\n\n        // _burn will check the (actual) amount availability again\n        _burn(operator, account, adjustedAmount, data, operatorData);\n\n        uint256 amountBefore = _underlyingToken.balanceOf(address(this));\n        _underlyingToken.safeTransfer(account, underlyingAmount);\n        uint256 amountAfter = _underlyingToken.balanceOf(address(this));\n        uint256 actualDowngradedAmount = amountBefore - amountAfter;\n        if (underlyingAmount != actualDowngradedAmount)\n            revert SUPER_TOKEN_INFLATIONARY_DEFLATIONARY_NOT_SUPPORTED();\n\n        emit TokenDowngraded(account, adjustedAmount);\n    }\n\n    /**\n     * @dev Handle decimal differences between underlying token and super token\n     */\n    function _toUnderlyingAmount(uint256 amount)\n        private\n        view\n        returns (uint256 underlyingAmount, uint256 adjustedAmount)\n    {\n        uint256 factor;\n        if (_underlyingDecimals < _STANDARD_DECIMALS) {\n            // if underlying has less decimals\n            // one can upgrade less \"granualar\" amount of tokens\n            factor = 10**(_STANDARD_DECIMALS - _underlyingDecimals);\n            underlyingAmount = amount / factor;\n            // remove precision errors\n            adjustedAmount = underlyingAmount * factor;\n        } else if (_underlyingDecimals > _STANDARD_DECIMALS) {\n            // if underlying has more decimals\n            // one can upgrade more \"granualar\" amount of tokens\n            factor = 10**(_underlyingDecimals - _STANDARD_DECIMALS);\n            underlyingAmount = amount * factor;\n            adjustedAmount = amount;\n        } else {\n            underlyingAmount = adjustedAmount = amount;\n        }\n    }\n\n    /**************************************************************************\n     * Superfluid Batch Operations\n     *************************************************************************/\n\n    function operationApprove(\n        address account,\n        address spender,\n        uint256 amount\n    ) external override onlyHost {\n        _approve(account, spender, amount);\n    }\n\n    function operationTransferFrom(\n        address account,\n        address spender,\n        address recipient,\n        uint256 amount\n    ) external override onlyHost {\n        _transferFrom(account, spender, recipient, amount);\n    }\n\n    function operationUpgrade(address account, uint256 amount)\n        external\n        override\n        onlyHost\n    {\n        _upgrade(msg.sender, account, account, amount, \"\", \"\");\n    }\n\n    function operationDowngrade(address account, uint256 amount)\n        external\n        override\n        onlyHost\n    {\n        _downgrade(msg.sender, account, amount, \"\", \"\");\n    }\n\n    /**************************************************************************\n     * Modifiers\n     *************************************************************************/\n\n    modifier onlySelf() {\n        if (msg.sender != address(this)) revert SUPER_TOKEN_ONLY_SELF();\n        _;\n    }\n}\n",
  "sourcePath": "C:\\Users\\Arogundade Ibrahim\\Documents\\web3\\Buidl\\contracts\\BdlToken.sol",
  "compiler": {
    "name": "solc",
    "version": "0.8.16+commit.07a7930e.Emscripten.clang"
  },
  "schemaVersion": "3.4.10",
  "updatedAt": "2022-10-24T09:51:45.525Z",
  "networkType": "ethereum",
  "devdoc": {
    "author": "Superfluid",
    "kind": "dev",
    "methods": {
      "approve(address,uint256)": {
        "details": "Sets `amount` as the allowance of `spender` over the caller's tokens.",
        "returns": {
          "_0": "Returns Success a boolean value indicating whether the operation succeeded."
        }
      },
      "authorizeOperator(address)": {
        "details": "Make an account an operator of the caller. See {isOperatorFor}."
      },
      "balanceOf(address)": {
        "details": "Returns the amount of tokens owned by an account (`owner`)."
      },
      "burn(uint256,bytes)": {
        "details": "Destroys `amount` tokens from the caller's account, reducing the total supply. If a send hook is registered for the caller, the corresponding function will be called with `data` and empty `operatorData`. See {IERC777Sender}."
      },
      "createAgreement(bytes32,bytes32[])": {
        "details": "ISuperfluidToken.createAgreement implementation"
      },
      "decimals()": {
        "details": "Returns the number of decimals used to get its user representation. For example, if `decimals` equals `2`, a balance of `505` tokens should be displayed to a user as `5,05` (`505 / 10 ** 2`). Tokens usually opt for a value of 18, imitating the relationship between Ether and Wei. This is the value {ERC20} uses, unless {_setupDecimals} is called."
      },
      "decreaseAllowance(address,uint256)": {
        "details": "Atomically decreases the allowance granted to `spender` by the caller. This is an alternative to {approve} that can be used as a mitigation for problems described in {IERC20-approve}."
      },
      "defaultOperators()": {
        "details": "Returns the list of default operators. These accounts are operators for all token holders, even if {authorizeOperator} was never called on them. This list is immutable, but individual holders may revoke these via {revokeOperator}, in which case {isOperatorFor} will return false."
      },
      "downgrade(uint256)": {
        "details": "ISuperToken.downgrade implementation"
      },
      "getAccountActiveAgreements(address)": {
        "details": "ISuperfluidToken.getAccountActiveAgreements implementation"
      },
      "getAgreementData(address,bytes32,uint256)": {
        "details": "ISuperfluidToken.getAgreementData implementation"
      },
      "getAgreementStateSlot(address,address,uint256,uint256)": {
        "details": "ISuperfluidToken.getAgreementState implementation"
      },
      "getCodeAddress()": {
        "details": "Get current implementation code address."
      },
      "getHost()": {
        "details": "ISuperfluidToken.getHost implementation"
      },
      "getUnderlyingToken()": {
        "details": "ISuperfluidGovernance.getUnderlyingToken implementation"
      },
      "granularity()": {
        "details": "Returns the smallest part of the token that is not divisible. This         means all token operations (creation, movement and destruction) must have         amounts that are a multiple of this number."
      },
      "increaseAllowance(address,uint256)": {
        "details": "Atomically increases the allowance granted to `spender` by the caller. This is an alternative to {approve} that can be used as a mitigation for problems described in {IERC20-approve}."
      },
      "initialize(address,uint8,string,string)": {
        "details": "Initialize the contract"
      },
      "isAccountCritical(address,uint256)": {
        "details": "A critical account is when availableBalance < 0",
        "params": {
          "account": "The account to check",
          "timestamp": "The time we'd like to check if the account is critical (should use future)"
        },
        "returns": {
          "isCritical": "Whether the account is critical"
        }
      },
      "isAccountCriticalNow(address)": {
        "details": "A critical account is when availableBalance < 0",
        "params": {
          "account": "The account to check"
        },
        "returns": {
          "isCritical": "Whether the account is critical"
        }
      },
      "isAccountSolvent(address,uint256)": {
        "details": "An account is insolvent when the sum of deposits for a token can't cover the negative availableBalance",
        "params": {
          "account": "The account to check",
          "timestamp": "The time we'd like to check if the account is solvent (should use future)"
        },
        "returns": {
          "isSolvent": "True if the account is solvent, false otherwise"
        }
      },
      "isAccountSolventNow(address)": {
        "details": "An account is insolvent when the sum of deposits for a token can't cover the negative availableBalance",
        "params": {
          "account": "The account to check"
        },
        "returns": {
          "isSolvent": "True if the account is solvent, false otherwise"
        }
      },
      "isOperatorFor(address,address)": {
        "details": "Returns true if an account is an operator of `tokenHolder`. Operators can send and burn tokens on behalf of their owners. All accounts are their own operator. See {operatorSend} and {operatorBurn}."
      },
      "makeLiquidationPayoutsV2(bytes32,bytes,address,bool,address,uint256,int256)": {
        "details": "ISuperfluidToken.makeLiquidationPayoutsV2 implementation"
      },
      "name()": {
        "details": "Returns the name of the token."
      },
      "operationApprove(address,address,uint256)": {
        "details": "Perform ERC20 approve by host contract.",
        "params": {
          "account": "The account owner to be approved.",
          "amount": "Number of tokens to be approved.",
          "spender": "The spender of account owner's funds."
        }
      },
      "operationDowngrade(address,uint256)": {
        "details": "Downgrade ERC20 to SuperToken by host contract.",
        "params": {
          "account": "The account to be changed.",
          "amount": "Number of tokens to be downgraded (in 18 decimals)"
        }
      },
      "operationTransferFrom(address,address,address,uint256)": {
        "details": "Perform ERC20 transfer from by host contract.",
        "params": {
          "account": "The account to spend sender's funds.",
          "amount": "Number of tokens to be transferred.",
          "recipient": "The recipient of thefunds.",
          "spender": "The account where the funds is sent from."
        }
      },
      "operationUpgrade(address,uint256)": {
        "details": "Upgrade ERC20 to SuperToken by host contract.",
        "params": {
          "account": "The account to be changed.",
          "amount": "Number of tokens to be upgraded (in 18 decimals)"
        }
      },
      "operatorBurn(address,uint256,bytes,bytes)": {
        "details": "Destroys `amount` tokens from `account`, reducing the total supply. The caller must be an operator of `account`. If a send hook is registered for `account`, the corresponding function will be called with `data` and `operatorData`. See {IERC777Sender}."
      },
      "operatorSend(address,address,uint256,bytes,bytes)": {
        "details": "Moves `amount` tokens from `sender` to `recipient`. The caller must be an operator of `sender`. If send or receive hooks are registered for `sender` and `recipient`, the corresponding functions will be called with `data` and `operatorData`. See {IERC777Sender} and {IERC777Recipient}."
      },
      "proxiableUUID()": {
        "details": "Proxiable UUID marker function, this would help to avoid wrong logic      contract to be used for upgrading. NOTE: The semantics of the UUID deviates from the actual UUPS standard,       where it is equivalent of _IMPLEMENTATION_SLOT."
      },
      "realtimeBalanceOf(address,uint256)": {
        "details": "ISuperfluidToken.realtimeBalanceOf implementation"
      },
      "realtimeBalanceOfNow(address)": {
        "details": "ISuperfluidToken.realtimeBalanceOfNow implementation"
      },
      "revokeOperator(address)": {
        "details": "Revoke an account's operator status for the caller. See {isOperatorFor} and {defaultOperators}."
      },
      "selfApproveFor(address,address,uint256)": {
        "details": "Give `spender`, `amount` allowance to spend the tokens of `account`."
      },
      "selfBurn(address,uint256,bytes)": {
        "details": "Burn existing tokens for the account"
      },
      "selfMint(address,uint256,bytes)": {
        "details": "Mint new tokens for the account"
      },
      "send(address,uint256,bytes)": {
        "details": "Moves `amount` tokens from the caller's account to `recipient`.If send or receive hooks are registered for the caller and `recipient`,      the corresponding functions will be called with `data` and empty      `operatorData`. See {IERC777Sender} and {IERC777Recipient}."
      },
      "settleBalance(address,int256)": {
        "details": "ISuperfluidToken.settleBalance implementation"
      },
      "symbol()": {
        "details": "Returns the symbol of the token, usually a shorter version of the name."
      },
      "terminateAgreement(bytes32,uint256)": {
        "details": "ISuperfluidToken.terminateAgreement implementation"
      },
      "totalSupply()": {
        "details": "See {IERC20-totalSupply}."
      },
      "transfer(address,uint256)": {
        "details": "Moves `amount` tokens from the caller's account to `recipient`.",
        "returns": {
          "_0": "Returns Success a boolean value indicating whether the operation succeeded."
        }
      },
      "transferAll(address)": {
        "details": "Transfer all available balance from `msg.sender` to `recipient`"
      },
      "updateAgreementData(bytes32,bytes32[])": {
        "details": "ISuperfluidToken.updateAgreementData implementation"
      },
      "updateAgreementStateSlot(address,uint256,bytes32[])": {
        "details": "ISuperfluidToken.updateAgreementState implementation"
      },
      "upgrade(uint256)": {
        "details": "ISuperToken.upgrade implementation"
      },
      "upgradeTo(address,uint256,bytes)": {
        "details": "ISuperToken.upgradeTo implementation"
      }
    },
    "stateVariables": {
      "_allowances": {
        "details": "ERC20 Allowances Storage"
      },
      "_name": {
        "details": "TokenInfo Name property"
      },
      "_operators": {
        "details": "ERC777 operators support data"
      },
      "_symbol": {
        "details": "TokenInfo Symbol property"
      },
      "_underlyingDecimals": {
        "details": "Decimals of the underlying token"
      },
      "_underlyingToken": {
        "details": "The underlying ERC20 token"
      }
    },
    "title": "Superfluid's super token implementation",
    "version": 1
  },
  "userdoc": {
    "kind": "user",
    "methods": {
      "isAccountCritical(address,uint256)": {
        "notice": "Check if account is critical"
      },
      "isAccountCriticalNow(address)": {
        "notice": "Check if account is critical now (current host.getNow())"
      },
      "isAccountSolvent(address,uint256)": {
        "notice": "Check if account is solvent"
      },
      "isAccountSolventNow(address)": {
        "notice": "Check if account is solvent now"
      }
    },
    "version": 1
  }
}