{
  "contractName": "BdlToken",
  "abi": [
    {
      "inputs": [
        {
          "internalType": "contract ISuperfluid",
          "name": "host",
          "type": "address"
        }
      ],
      "stateMutability": "nonpayable",
      "type": "constructor"
    },
    {
      "inputs": [
        {
          "internalType": "uint256",
          "name": "_code",
          "type": "uint256"
        }
      ],
      "name": "ALREADY_EXISTS",
      "type": "error"
    },
    {
      "inputs": [
        {
          "internalType": "uint256",
          "name": "_code",
          "type": "uint256"
        }
      ],
      "name": "DOES_NOT_EXIST",
      "type": "error"
    },
    {
      "inputs": [
        {
          "internalType": "uint256",
          "name": "_code",
          "type": "uint256"
        }
      ],
      "name": "INSUFFICIENT_BALANCE",
      "type": "error"
    },
    {
      "inputs": [
        {
          "internalType": "uint256",
          "name": "_code",
          "type": "uint256"
        }
      ],
      "name": "ONLY_HOST",
      "type": "error"
    },
    {
      "inputs": [
        {
          "internalType": "uint256",
          "name": "_code",
          "type": "uint256"
        }
      ],
      "name": "ONLY_LISTED_AGREEMENT",
      "type": "error"
    },
    {
      "inputs": [],
      "name": "SUPER_TOKEN_CALLER_IS_NOT_OPERATOR_FOR_HOLDER",
      "type": "error"
    },
    {
      "inputs": [],
      "name": "SUPER_TOKEN_INFLATIONARY_DEFLATIONARY_NOT_SUPPORTED",
      "type": "error"
    },
    {
      "inputs": [],
      "name": "SUPER_TOKEN_NOT_ERC777_TOKENS_RECIPIENT",
      "type": "error"
    },
    {
      "inputs": [],
      "name": "SUPER_TOKEN_NO_UNDERLYING_TOKEN",
      "type": "error"
    },
    {
      "inputs": [],
      "name": "SUPER_TOKEN_ONLY_SELF",
      "type": "error"
    },
    {
      "inputs": [
        {
          "internalType": "uint256",
          "name": "_code",
          "type": "uint256"
        }
      ],
      "name": "ZERO_ADDRESS",
      "type": "error"
    },
    {
      "anonymous": false,
      "inputs": [
        {
          "indexed": true,
          "internalType": "address",
          "name": "agreementClass",
          "type": "address"
        },
        {
          "indexed": false,
          "internalType": "bytes32",
          "name": "id",
          "type": "bytes32"
        },
        {
          "indexed": false,
          "internalType": "bytes32[]",
          "name": "data",
          "type": "bytes32[]"
        }
      ],
      "name": "AgreementCreated",
      "type": "event"
    },
    {
      "anonymous": false,
      "inputs": [
        {
          "indexed": true,
          "internalType": "address",
          "name": "agreementClass",
          "type": "address"
        },
        {
          "indexed": false,
          "internalType": "bytes32",
          "name": "id",
          "type": "bytes32"
        },
        {
          "indexed": true,
          "internalType": "address",
          "name": "penaltyAccount",
          "type": "address"
        },
        {
          "indexed": true,
          "internalType": "address",
          "name": "rewardAccount",
          "type": "address"
        },
        {
          "indexed": false,
          "internalType": "uint256",
          "name": "rewardAmount",
          "type": "uint256"
        }
      ],
      "name": "AgreementLiquidated",
      "type": "event"
    },
    {
      "anonymous": false,
      "inputs": [
        {
          "indexed": false,
          "internalType": "address",
          "name": "liquidatorAccount",
          "type": "address"
        },
        {
          "indexed": true,
          "internalType": "address",
          "name": "agreementClass",
          "type": "address"
        },
        {
          "indexed": false,
          "internalType": "bytes32",
          "name": "id",
          "type": "bytes32"
        },
        {
          "indexed": true,
          "internalType": "address",
          "name": "penaltyAccount",
          "type": "address"
        },
        {
          "indexed": true,
          "internalType": "address",
          "name": "bondAccount",
          "type": "address"
        },
        {
          "indexed": false,
          "internalType": "uint256",
          "name": "rewardAmount",
          "type": "uint256"
        },
        {
          "indexed": false,
          "internalType": "uint256",
          "name": "bailoutAmount",
          "type": "uint256"
        }
      ],
      "name": "AgreementLiquidatedBy",
      "type": "event"
    },
    {
      "anonymous": false,
      "inputs": [
        {
          "indexed": true,
          "internalType": "address",
          "name": "agreementClass",
          "type": "address"
        },
        {
          "indexed": false,
          "internalType": "bytes32",
          "name": "id",
          "type": "bytes32"
        },
        {
          "indexed": true,
          "internalType": "address",
          "name": "liquidatorAccount",
          "type": "address"
        },
        {
          "indexed": true,
          "internalType": "address",
          "name": "targetAccount",
          "type": "address"
        },
        {
          "indexed": false,
          "internalType": "address",
          "name": "rewardAmountReceiver",
          "type": "address"
        },
        {
          "indexed": false,
          "internalType": "uint256",
          "name": "rewardAmount",
          "type": "uint256"
        },
        {
          "indexed": false,
          "internalType": "int256",
          "name": "targetAccountBalanceDelta",
          "type": "int256"
        },
        {
          "indexed": false,
          "internalType": "bytes",
          "name": "liquidationTypeData",
          "type": "bytes"
        }
      ],
      "name": "AgreementLiquidatedV2",
      "type": "event"
    },
    {
      "anonymous": false,
      "inputs": [
        {
          "indexed": true,
          "internalType": "address",
          "name": "agreementClass",
          "type": "address"
        },
        {
          "indexed": true,
          "internalType": "address",
          "name": "account",
          "type": "address"
        },
        {
          "indexed": false,
          "internalType": "uint256",
          "name": "slotId",
          "type": "uint256"
        }
      ],
      "name": "AgreementStateUpdated",
      "type": "event"
    },
    {
      "anonymous": false,
      "inputs": [
        {
          "indexed": true,
          "internalType": "address",
          "name": "agreementClass",
          "type": "address"
        },
        {
          "indexed": false,
          "internalType": "bytes32",
          "name": "id",
          "type": "bytes32"
        }
      ],
      "name": "AgreementTerminated",
      "type": "event"
    },
    {
      "anonymous": false,
      "inputs": [
        {
          "indexed": true,
          "internalType": "address",
          "name": "agreementClass",
          "type": "address"
        },
        {
          "indexed": false,
          "internalType": "bytes32",
          "name": "id",
          "type": "bytes32"
        },
        {
          "indexed": false,
          "internalType": "bytes32[]",
          "name": "data",
          "type": "bytes32[]"
        }
      ],
      "name": "AgreementUpdated",
      "type": "event"
    },
    {
      "anonymous": false,
      "inputs": [
        {
          "indexed": true,
          "internalType": "address",
          "name": "owner",
          "type": "address"
        },
        {
          "indexed": true,
          "internalType": "address",
          "name": "spender",
          "type": "address"
        },
        {
          "indexed": false,
          "internalType": "uint256",
          "name": "value",
          "type": "uint256"
        }
      ],
      "name": "Approval",
      "type": "event"
    },
    {
      "anonymous": false,
      "inputs": [
        {
          "indexed": true,
          "internalType": "address",
          "name": "operator",
          "type": "address"
        },
        {
          "indexed": true,
          "internalType": "address",
          "name": "tokenHolder",
          "type": "address"
        }
      ],
      "name": "AuthorizedOperator",
      "type": "event"
    },
    {
      "anonymous": false,
      "inputs": [
        {
          "indexed": true,
          "internalType": "address",
          "name": "bailoutAccount",
          "type": "address"
        },
        {
          "indexed": false,
          "internalType": "uint256",
          "name": "bailoutAmount",
          "type": "uint256"
        }
      ],
      "name": "Bailout",
      "type": "event"
    },
    {
      "anonymous": false,
      "inputs": [
        {
          "indexed": true,
          "internalType": "address",
          "name": "operator",
          "type": "address"
        },
        {
          "indexed": true,
          "internalType": "address",
          "name": "from",
          "type": "address"
        },
        {
          "indexed": false,
          "internalType": "uint256",
          "name": "amount",
          "type": "uint256"
        },
        {
          "indexed": false,
          "internalType": "bytes",
          "name": "data",
          "type": "bytes"
        },
        {
          "indexed": false,
          "internalType": "bytes",
          "name": "operatorData",
          "type": "bytes"
        }
      ],
      "name": "Burned",
      "type": "event"
    },
    {
      "anonymous": false,
      "inputs": [
        {
          "indexed": false,
          "internalType": "bytes32",
          "name": "uuid",
          "type": "bytes32"
        },
        {
          "indexed": false,
          "internalType": "address",
          "name": "codeAddress",
          "type": "address"
        }
      ],
      "name": "CodeUpdated",
      "type": "event"
    },
    {
      "anonymous": false,
      "inputs": [
        {
          "indexed": false,
          "internalType": "uint8",
          "name": "version",
          "type": "uint8"
        }
      ],
      "name": "Initialized",
      "type": "event"
    },
    {
      "anonymous": false,
      "inputs": [
        {
          "indexed": true,
          "internalType": "address",
          "name": "operator",
          "type": "address"
        },
        {
          "indexed": true,
          "internalType": "address",
          "name": "to",
          "type": "address"
        },
        {
          "indexed": false,
          "internalType": "uint256",
          "name": "amount",
          "type": "uint256"
        },
        {
          "indexed": false,
          "internalType": "bytes",
          "name": "data",
          "type": "bytes"
        },
        {
          "indexed": false,
          "internalType": "bytes",
          "name": "operatorData",
          "type": "bytes"
        }
      ],
      "name": "Minted",
      "type": "event"
    },
    {
      "anonymous": false,
      "inputs": [
        {
          "indexed": true,
          "internalType": "address",
          "name": "operator",
          "type": "address"
        },
        {
          "indexed": true,
          "internalType": "address",
          "name": "tokenHolder",
          "type": "address"
        }
      ],
      "name": "RevokedOperator",
      "type": "event"
    },
    {
      "anonymous": false,
      "inputs": [
        {
          "indexed": true,
          "internalType": "address",
          "name": "operator",
          "type": "address"
        },
        {
          "indexed": true,
          "internalType": "address",
          "name": "from",
          "type": "address"
        },
        {
          "indexed": true,
          "internalType": "address",
          "name": "to",
          "type": "address"
        },
        {
          "indexed": false,
          "internalType": "uint256",
          "name": "amount",
          "type": "uint256"
        },
        {
          "indexed": false,
          "internalType": "bytes",
          "name": "data",
          "type": "bytes"
        },
        {
          "indexed": false,
          "internalType": "bytes",
          "name": "operatorData",
          "type": "bytes"
        }
      ],
      "name": "Sent",
      "type": "event"
    },
    {
      "anonymous": false,
      "inputs": [
        {
          "indexed": true,
          "internalType": "address",
          "name": "account",
          "type": "address"
        },
        {
          "indexed": false,
          "internalType": "uint256",
          "name": "amount",
          "type": "uint256"
        }
      ],
      "name": "TokenDowngraded",
      "type": "event"
    },
    {
      "anonymous": false,
      "inputs": [
        {
          "indexed": true,
          "internalType": "address",
          "name": "account",
          "type": "address"
        },
        {
          "indexed": false,
          "internalType": "uint256",
          "name": "amount",
          "type": "uint256"
        }
      ],
      "name": "TokenUpgraded",
      "type": "event"
    },
    {
      "anonymous": false,
      "inputs": [
        {
          "indexed": true,
          "internalType": "address",
          "name": "from",
          "type": "address"
        },
        {
          "indexed": true,
          "internalType": "address",
          "name": "to",
          "type": "address"
        },
        {
          "indexed": false,
          "internalType": "uint256",
          "name": "value",
          "type": "uint256"
        }
      ],
      "name": "Transfer",
      "type": "event"
    },
    {
      "inputs": [
        {
          "internalType": "address",
          "name": "account",
          "type": "address"
        },
        {
          "internalType": "address",
          "name": "spender",
          "type": "address"
        }
      ],
      "name": "allowance",
      "outputs": [
        {
          "internalType": "uint256",
          "name": "",
          "type": "uint256"
        }
      ],
      "stateMutability": "view",
      "type": "function",
      "constant": true
    },
    {
      "inputs": [
        {
          "internalType": "address",
          "name": "spender",
          "type": "address"
        },
        {
          "internalType": "uint256",
          "name": "amount",
          "type": "uint256"
        }
      ],
      "name": "approve",
      "outputs": [
        {
          "internalType": "bool",
          "name": "",
          "type": "bool"
        }
      ],
      "stateMutability": "nonpayable",
      "type": "function"
    },
    {
      "inputs": [
        {
          "internalType": "address",
          "name": "operator",
          "type": "address"
        }
      ],
      "name": "authorizeOperator",
      "outputs": [],
      "stateMutability": "nonpayable",
      "type": "function"
    },
    {
      "inputs": [
        {
          "internalType": "address",
          "name": "account",
          "type": "address"
        }
      ],
      "name": "balanceOf",
      "outputs": [
        {
          "internalType": "uint256",
          "name": "balance",
          "type": "uint256"
        }
      ],
      "stateMutability": "view",
      "type": "function",
      "constant": true
    },
    {
      "inputs": [
        {
          "internalType": "uint256",
          "name": "amount",
          "type": "uint256"
        },
        {
          "internalType": "bytes",
          "name": "data",
          "type": "bytes"
        }
      ],
      "name": "burn",
      "outputs": [],
      "stateMutability": "nonpayable",
      "type": "function"
    },
    {
      "inputs": [],
      "name": "castrate",
      "outputs": [],
      "stateMutability": "nonpayable",
      "type": "function"
    },
    {
      "inputs": [
        {
          "internalType": "bytes32",
          "name": "id",
          "type": "bytes32"
        },
        {
          "internalType": "bytes32[]",
          "name": "data",
          "type": "bytes32[]"
        }
      ],
      "name": "createAgreement",
      "outputs": [],
      "stateMutability": "nonpayable",
      "type": "function"
    },
    {
      "inputs": [],
      "name": "decimals",
      "outputs": [
        {
          "internalType": "uint8",
          "name": "",
          "type": "uint8"
        }
      ],
      "stateMutability": "pure",
      "type": "function",
      "constant": true
    },
    {
      "inputs": [
        {
          "internalType": "address",
          "name": "spender",
          "type": "address"
        },
        {
          "internalType": "uint256",
          "name": "subtractedValue",
          "type": "uint256"
        }
      ],
      "name": "decreaseAllowance",
      "outputs": [
        {
          "internalType": "bool",
          "name": "",
          "type": "bool"
        }
      ],
      "stateMutability": "nonpayable",
      "type": "function"
    },
    {
      "inputs": [],
      "name": "defaultOperators",
      "outputs": [
        {
          "internalType": "address[]",
          "name": "",
          "type": "address[]"
        }
      ],
      "stateMutability": "view",
      "type": "function",
      "constant": true
    },
    {
      "inputs": [
        {
          "internalType": "uint256",
          "name": "amount",
          "type": "uint256"
        }
      ],
      "name": "downgrade",
      "outputs": [],
      "stateMutability": "nonpayable",
      "type": "function"
    },
    {
      "inputs": [
        {
          "internalType": "address",
          "name": "account",
          "type": "address"
        }
      ],
      "name": "getAccountActiveAgreements",
      "outputs": [
        {
          "internalType": "contract ISuperAgreement[]",
          "name": "",
          "type": "address[]"
        }
      ],
      "stateMutability": "view",
      "type": "function",
      "constant": true
    },
    {
      "inputs": [
        {
          "internalType": "address",
          "name": "agreementClass",
          "type": "address"
        },
        {
          "internalType": "bytes32",
          "name": "id",
          "type": "bytes32"
        },
        {
          "internalType": "uint256",
          "name": "dataLength",
          "type": "uint256"
        }
      ],
      "name": "getAgreementData",
      "outputs": [
        {
          "internalType": "bytes32[]",
          "name": "data",
          "type": "bytes32[]"
        }
      ],
      "stateMutability": "view",
      "type": "function",
      "constant": true
    },
    {
      "inputs": [
        {
          "internalType": "address",
          "name": "agreementClass",
          "type": "address"
        },
        {
          "internalType": "address",
          "name": "account",
          "type": "address"
        },
        {
          "internalType": "uint256",
          "name": "slotId",
          "type": "uint256"
        },
        {
          "internalType": "uint256",
          "name": "dataLength",
          "type": "uint256"
        }
      ],
      "name": "getAgreementStateSlot",
      "outputs": [
        {
          "internalType": "bytes32[]",
          "name": "slotData",
          "type": "bytes32[]"
        }
      ],
      "stateMutability": "view",
      "type": "function",
      "constant": true
    },
    {
      "inputs": [],
      "name": "getCodeAddress",
      "outputs": [
        {
          "internalType": "address",
          "name": "codeAddress",
          "type": "address"
        }
      ],
      "stateMutability": "view",
      "type": "function",
      "constant": true
    },
    {
      "inputs": [],
      "name": "getHost",
      "outputs": [
        {
          "internalType": "address",
          "name": "host",
          "type": "address"
        }
      ],
      "stateMutability": "view",
      "type": "function",
      "constant": true
    },
    {
      "inputs": [],
      "name": "getUnderlyingToken",
      "outputs": [
        {
          "internalType": "address",
          "name": "",
          "type": "address"
        }
      ],
      "stateMutability": "view",
      "type": "function",
      "constant": true
    },
    {
      "inputs": [],
      "name": "granularity",
      "outputs": [
        {
          "internalType": "uint256",
          "name": "",
          "type": "uint256"
        }
      ],
      "stateMutability": "pure",
      "type": "function",
      "constant": true
    },
    {
      "inputs": [
        {
          "internalType": "contract IERC20",
          "name": "underlyingToken",
          "type": "address"
        },
        {
          "internalType": "uint8",
          "name": "underlyingDecimals",
          "type": "uint8"
        },
        {
          "internalType": "string",
          "name": "n",
          "type": "string"
        },
        {
          "internalType": "string",
          "name": "s",
          "type": "string"
        }
      ],
      "name": "initialize",
      "outputs": [],
      "stateMutability": "nonpayable",
      "type": "function"
    },
    {
      "inputs": [
        {
          "internalType": "address",
          "name": "account",
          "type": "address"
        },
        {
          "internalType": "uint256",
          "name": "timestamp",
          "type": "uint256"
        }
      ],
      "name": "isAccountCritical",
      "outputs": [
        {
          "internalType": "bool",
          "name": "isCritical",
          "type": "bool"
        }
      ],
      "stateMutability": "view",
      "type": "function",
      "constant": true
    },
    {
      "inputs": [
        {
          "internalType": "address",
          "name": "account",
          "type": "address"
        }
      ],
      "name": "isAccountCriticalNow",
      "outputs": [
        {
          "internalType": "bool",
          "name": "isCritical",
          "type": "bool"
        }
      ],
      "stateMutability": "view",
      "type": "function",
      "constant": true
    },
    {
      "inputs": [
        {
          "internalType": "address",
          "name": "account",
          "type": "address"
        },
        {
          "internalType": "uint256",
          "name": "timestamp",
          "type": "uint256"
        }
      ],
      "name": "isAccountSolvent",
      "outputs": [
        {
          "internalType": "bool",
          "name": "isSolvent",
          "type": "bool"
        }
      ],
      "stateMutability": "view",
      "type": "function",
      "constant": true
    },
    {
      "inputs": [
        {
          "internalType": "address",
          "name": "account",
          "type": "address"
        }
      ],
      "name": "isAccountSolventNow",
      "outputs": [
        {
          "internalType": "bool",
          "name": "isSolvent",
          "type": "bool"
        }
      ],
      "stateMutability": "view",
      "type": "function",
      "constant": true
    },
    {
      "inputs": [
        {
          "internalType": "address",
          "name": "operator",
          "type": "address"
        },
        {
          "internalType": "address",
          "name": "tokenHolder",
          "type": "address"
        }
      ],
      "name": "isOperatorFor",
      "outputs": [
        {
          "internalType": "bool",
          "name": "",
          "type": "bool"
        }
      ],
      "stateMutability": "view",
      "type": "function",
      "constant": true
    },
    {
      "inputs": [
        {
          "internalType": "bytes32",
          "name": "id",
          "type": "bytes32"
        },
        {
          "internalType": "bytes",
          "name": "liquidationTypeData",
          "type": "bytes"
        },
        {
          "internalType": "address",
          "name": "liquidatorAccount",
          "type": "address"
        },
        {
          "internalType": "bool",
          "name": "useDefaultRewardAccount",
          "type": "bool"
        },
        {
          "internalType": "address",
          "name": "targetAccount",
          "type": "address"
        },
        {
          "internalType": "uint256",
          "name": "rewardAmount",
          "type": "uint256"
        },
        {
          "internalType": "int256",
          "name": "targetAccountBalanceDelta",
          "type": "int256"
        }
      ],
      "name": "makeLiquidationPayoutsV2",
      "outputs": [],
      "stateMutability": "nonpayable",
      "type": "function"
    },
    {
      "inputs": [],
      "name": "name",
      "outputs": [
        {
          "internalType": "string",
          "name": "",
          "type": "string"
        }
      ],
      "stateMutability": "view",
      "type": "function",
      "constant": true
    },
    {
      "inputs": [
        {
          "internalType": "address",
          "name": "account",
          "type": "address"
        },
        {
          "internalType": "address",
          "name": "spender",
          "type": "address"
        },
        {
          "internalType": "uint256",
          "name": "amount",
          "type": "uint256"
        }
      ],
      "name": "operationApprove",
      "outputs": [],
      "stateMutability": "nonpayable",
      "type": "function"
    },
    {
      "inputs": [
        {
          "internalType": "address",
          "name": "account",
          "type": "address"
        },
        {
          "internalType": "uint256",
          "name": "amount",
          "type": "uint256"
        }
      ],
      "name": "operationDowngrade",
      "outputs": [],
      "stateMutability": "nonpayable",
      "type": "function"
    },
    {
      "inputs": [
        {
          "internalType": "address",
          "name": "account",
          "type": "address"
        },
        {
          "internalType": "address",
          "name": "spender",
          "type": "address"
        },
        {
          "internalType": "address",
          "name": "recipient",
          "type": "address"
        },
        {
          "internalType": "uint256",
          "name": "amount",
          "type": "uint256"
        }
      ],
      "name": "operationTransferFrom",
      "outputs": [],
      "stateMutability": "nonpayable",
      "type": "function"
    },
    {
      "inputs": [
        {
          "internalType": "address",
          "name": "account",
          "type": "address"
        },
        {
          "internalType": "uint256",
          "name": "amount",
          "type": "uint256"
        }
      ],
      "name": "operationUpgrade",
      "outputs": [],
      "stateMutability": "nonpayable",
      "type": "function"
    },
    {
      "inputs": [
        {
          "internalType": "address",
          "name": "account",
          "type": "address"
        },
        {
          "internalType": "uint256",
          "name": "amount",
          "type": "uint256"
        },
        {
          "internalType": "bytes",
          "name": "data",
          "type": "bytes"
        },
        {
          "internalType": "bytes",
          "name": "operatorData",
          "type": "bytes"
        }
      ],
      "name": "operatorBurn",
      "outputs": [],
      "stateMutability": "nonpayable",
      "type": "function"
    },
    {
      "inputs": [
        {
          "internalType": "address",
          "name": "sender",
          "type": "address"
        },
        {
          "internalType": "address",
          "name": "recipient",
          "type": "address"
        },
        {
          "internalType": "uint256",
          "name": "amount",
          "type": "uint256"
        },
        {
          "internalType": "bytes",
          "name": "data",
          "type": "bytes"
        },
        {
          "internalType": "bytes",
          "name": "operatorData",
          "type": "bytes"
        }
      ],
      "name": "operatorSend",
      "outputs": [],
      "stateMutability": "nonpayable",
      "type": "function"
    },
    {
      "inputs": [],
      "name": "proxiableUUID",
      "outputs": [
        {
          "internalType": "bytes32",
          "name": "",
          "type": "bytes32"
        }
      ],
      "stateMutability": "pure",
      "type": "function",
      "constant": true
    },
    {
      "inputs": [
        {
          "internalType": "address",
          "name": "account",
          "type": "address"
        },
        {
          "internalType": "uint256",
          "name": "timestamp",
          "type": "uint256"
        }
      ],
      "name": "realtimeBalanceOf",
      "outputs": [
        {
          "internalType": "int256",
          "name": "availableBalance",
          "type": "int256"
        },
        {
          "internalType": "uint256",
          "name": "deposit",
          "type": "uint256"
        },
        {
          "internalType": "uint256",
          "name": "owedDeposit",
          "type": "uint256"
        }
      ],
      "stateMutability": "view",
      "type": "function",
      "constant": true
    },
    {
      "inputs": [
        {
          "internalType": "address",
          "name": "account",
          "type": "address"
        }
      ],
      "name": "realtimeBalanceOfNow",
      "outputs": [
        {
          "internalType": "int256",
          "name": "availableBalance",
          "type": "int256"
        },
        {
          "internalType": "uint256",
          "name": "deposit",
          "type": "uint256"
        },
        {
          "internalType": "uint256",
          "name": "owedDeposit",
          "type": "uint256"
        },
        {
          "internalType": "uint256",
          "name": "timestamp",
          "type": "uint256"
        }
      ],
      "stateMutability": "view",
      "type": "function",
      "constant": true
    },
    {
      "inputs": [
        {
          "internalType": "address",
          "name": "operator",
          "type": "address"
        }
      ],
      "name": "revokeOperator",
      "outputs": [],
      "stateMutability": "nonpayable",
      "type": "function"
    },
    {
      "inputs": [
        {
          "internalType": "address",
          "name": "account",
          "type": "address"
        },
        {
          "internalType": "address",
          "name": "spender",
          "type": "address"
        },
        {
          "internalType": "uint256",
          "name": "amount",
          "type": "uint256"
        }
      ],
      "name": "selfApproveFor",
      "outputs": [],
      "stateMutability": "nonpayable",
      "type": "function"
    },
    {
      "inputs": [
        {
          "internalType": "address",
          "name": "account",
          "type": "address"
        },
        {
          "internalType": "uint256",
          "name": "amount",
          "type": "uint256"
        },
        {
          "internalType": "bytes",
          "name": "userData",
          "type": "bytes"
        }
      ],
      "name": "selfBurn",
      "outputs": [],
      "stateMutability": "nonpayable",
      "type": "function"
    },
    {
      "inputs": [
        {
          "internalType": "address",
          "name": "account",
          "type": "address"
        },
        {
          "internalType": "uint256",
          "name": "amount",
          "type": "uint256"
        },
        {
          "internalType": "bytes",
          "name": "userData",
          "type": "bytes"
        }
      ],
      "name": "selfMint",
      "outputs": [],
      "stateMutability": "nonpayable",
      "type": "function"
    },
    {
      "inputs": [
        {
          "internalType": "address",
          "name": "holder",
          "type": "address"
        },
        {
          "internalType": "address",
          "name": "spender",
          "type": "address"
        },
        {
          "internalType": "address",
          "name": "recipient",
          "type": "address"
        },
        {
          "internalType": "uint256",
          "name": "amount",
          "type": "uint256"
        }
      ],
      "name": "selfTransferFrom",
      "outputs": [],
      "stateMutability": "nonpayable",
      "type": "function"
    },
    {
      "inputs": [
        {
          "internalType": "address",
          "name": "recipient",
          "type": "address"
        },
        {
          "internalType": "uint256",
          "name": "amount",
          "type": "uint256"
        },
        {
          "internalType": "bytes",
          "name": "data",
          "type": "bytes"
        }
      ],
      "name": "send",
      "outputs": [],
      "stateMutability": "nonpayable",
      "type": "function"
    },
    {
      "inputs": [
        {
          "internalType": "address",
          "name": "account",
          "type": "address"
        },
        {
          "internalType": "int256",
          "name": "delta",
          "type": "int256"
        }
      ],
      "name": "settleBalance",
      "outputs": [],
      "stateMutability": "nonpayable",
      "type": "function"
    },
    {
      "inputs": [],
      "name": "symbol",
      "outputs": [
        {
          "internalType": "string",
          "name": "",
          "type": "string"
        }
      ],
      "stateMutability": "view",
      "type": "function",
      "constant": true
    },
    {
      "inputs": [
        {
          "internalType": "bytes32",
          "name": "id",
          "type": "bytes32"
        },
        {
          "internalType": "uint256",
          "name": "dataLength",
          "type": "uint256"
        }
      ],
      "name": "terminateAgreement",
      "outputs": [],
      "stateMutability": "nonpayable",
      "type": "function"
    },
    {
      "inputs": [],
      "name": "totalSupply",
      "outputs": [
        {
          "internalType": "uint256",
          "name": "",
          "type": "uint256"
        }
      ],
      "stateMutability": "view",
      "type": "function",
      "constant": true
    },
    {
      "inputs": [
        {
          "internalType": "address",
          "name": "recipient",
          "type": "address"
        },
        {
          "internalType": "uint256",
          "name": "amount",
          "type": "uint256"
        }
      ],
      "name": "transfer",
      "outputs": [
        {
          "internalType": "bool",
          "name": "",
          "type": "bool"
        }
      ],
      "stateMutability": "nonpayable",
      "type": "function"
    },
    {
      "inputs": [
        {
          "internalType": "address",
          "name": "recipient",
          "type": "address"
        }
      ],
      "name": "transferAll",
      "outputs": [],
      "stateMutability": "nonpayable",
      "type": "function"
    },
    {
      "inputs": [
        {
          "internalType": "address",
          "name": "holder",
          "type": "address"
        },
        {
          "internalType": "address",
          "name": "recipient",
          "type": "address"
        },
        {
          "internalType": "uint256",
          "name": "amount",
          "type": "uint256"
        }
      ],
      "name": "transferFrom",
      "outputs": [
        {
          "internalType": "bool",
          "name": "",
          "type": "bool"
        }
      ],
      "stateMutability": "nonpayable",
      "type": "function"
    },
    {
      "inputs": [
        {
          "internalType": "bytes32",
          "name": "id",
          "type": "bytes32"
        },
        {
          "internalType": "bytes32[]",
          "name": "data",
          "type": "bytes32[]"
        }
      ],
      "name": "updateAgreementData",
      "outputs": [],
      "stateMutability": "nonpayable",
      "type": "function"
    },
    {
      "inputs": [
        {
          "internalType": "address",
          "name": "account",
          "type": "address"
        },
        {
          "internalType": "uint256",
          "name": "slotId",
          "type": "uint256"
        },
        {
          "internalType": "bytes32[]",
          "name": "slotData",
          "type": "bytes32[]"
        }
      ],
      "name": "updateAgreementStateSlot",
      "outputs": [],
      "stateMutability": "nonpayable",
      "type": "function"
    },
    {
      "inputs": [
        {
          "internalType": "address",
          "name": "newAddress",
          "type": "address"
        }
      ],
      "name": "updateCode",
      "outputs": [],
      "stateMutability": "nonpayable",
      "type": "function"
    },
    {
      "inputs": [
        {
          "internalType": "uint256",
          "name": "amount",
          "type": "uint256"
        }
      ],
      "name": "upgrade",
      "outputs": [],
      "stateMutability": "nonpayable",
      "type": "function"
    },
    {
      "inputs": [
        {
          "internalType": "address",
          "name": "to",
          "type": "address"
        },
        {
          "internalType": "uint256",
          "name": "amount",
          "type": "uint256"
        },
        {
          "internalType": "bytes",
          "name": "data",
          "type": "bytes"
        }
      ],
      "name": "upgradeTo",
      "outputs": [],
      "stateMutability": "nonpayable",
      "type": "function"
    },
    {
      "inputs": [
        {
          "internalType": "address",
          "name": "owner",
          "type": "address"
        },
        {
          "internalType": "uint256",
          "name": "amount",
          "type": "uint256"
        }
      ],
      "name": "mint",
      "outputs": [
        {
          "internalType": "bool",
          "name": "",
          "type": "bool"
        }
      ],
      "stateMutability": "nonpayable",
      "type": "function"
    },
    {
      "inputs": [
        {
          "internalType": "address",
          "name": "spender",
          "type": "address"
        },
        {
          "internalType": "uint256",
          "name": "addedValue",
          "type": "uint256"
        }
      ],
      "name": "increaseAllowance",
      "outputs": [
        {
          "internalType": "bool",
          "name": "",
          "type": "bool"
        }
      ],
      "stateMutability": "nonpayable",
      "type": "function"
    },
    {
      "inputs": [
        {
          "internalType": "address",
          "name": "owner",
          "type": "address"
        },
        {
          "internalType": "address",
          "name": "spender",
          "type": "address"
        },
        {
          "internalType": "uint256",
          "name": "addedValue",
          "type": "uint256"
        }
      ],
      "name": "increaseAllowance",
      "outputs": [
        {
          "internalType": "bool",
          "name": "",
          "type": "bool"
        }
      ],
      "stateMutability": "nonpayable",
      "type": "function"
    }
  ],
  "bytecode": "0x60e0604052600960a090815268213236102a37b5b2b760b91b60c0526018906200002a9082620002b3565b5060408051808201909152600381526210911360ea1b6020820152601990620000549082620002b3565b506c7e37be2022c0914b2680000000601a553480156200007357600080fd5b5060405162004d0f38038062004d0f83398101604081905262000096916200037f565b8060188054620000a69062000224565b80601f0160208091040260200160405190810160405280929190818152602001828054620000d49062000224565b8015620001255780601f10620000f95761010080835404028352916020019162000125565b820191906000526020600020905b8154815290600101906020018083116200010757829003601f168201915b505050505060198054620001399062000224565b80601f0160208091040260200160405190810160405280929190818152602001828054620001679062000224565b8015620001b85780601f106200018c57610100808354040283529160200191620001b8565b820191906000526020600020905b8154815290600101906020018083116200019a57829003601f168201915b5050601a546001600160a01b038716608052600e80546001600160a01b03191633179055925060109150620001f090508482620002b3565b506011620001ff8382620002b3565b5060035550620003b192505050565b634e487b7160e01b600052604160045260246000fd5b600181811c908216806200023957607f821691505b6020821081036200025a57634e487b7160e01b600052602260045260246000fd5b50919050565b601f821115620002ae57600081815260208120601f850160051c81016020861015620002895750805b601f850160051c820191505b81811015620002aa5782815560010162000295565b5050505b505050565b81516001600160401b03811115620002cf57620002cf6200020e565b620002e781620002e0845462000224565b8462000260565b602080601f8311600181146200031f5760008415620003065750858301515b600019600386901b1c1916600185901b178555620002aa565b600085815260208120601f198616915b8281101562000350578886015182559484019460019091019084016200032f565b50858210156200036f5787850151600019600388901b60f8161c191681555b5050505050600190811b01905550565b6000602082840312156200039257600080fd5b81516001600160a01b0381168114620003aa57600080fd5b9392505050565b6080516148d9620004366000396000818161044801528181610b4501528181610bb801528181610e6101528181610fc0015281816110a8015281816113b4015281816115140152818161172401528181611b4801528181611c0b01528181611c97015281816124ac0152818161255c0152818161379d015261399601526148d96000f3fe608060405234801561001057600080fd5b50600436106103785760003560e01c806362ad1b83116101d3578063a9059cbb11610104578063d9d078d6116100a2578063ee719bc81161007c578063ee719bc8146107ee578063fad8b32a146107ff578063fc673c4f14610812578063fe9d93031461082557600080fd5b8063d9d078d614610774578063dd62ed3e14610787578063eb3537cc146107c057600080fd5b8063c68d4283116100de578063c68d428314610728578063ca7894641461073b578063cf97256d1461074e578063d95b63711461076157600080fd5b8063a9059cbb146106ef578063b84cdd4a14610702578063bb0d196e1461071557600080fd5b806395d89b41116101715780639d8767411161014b5780639d876741146106a3578063a1b2bf8b146106b6578063a3a7e7f3146106c9578063a457c2d7146106dc57600080fd5b806395d89b41146106805780639903ad38146106885780639bd9bbc61461069057600080fd5b80636c43a2ca116101ad5780636c43a2ca1461063457806370a082311461064757806379359f6f1461065a578063959b8c3f1461066d57600080fd5b806362ad1b83146105fb57806366a12fb61461060e5780636c2d9f2f1461062157600080fd5b8063313ce567116102ad578063469519541161024b57806352d1902d1161022557806352d1902d146105a8578063556f0dc7146105ce5780635b9d09cc146105d557806362aa5287146105e857600080fd5b8063469519541461056d5780634b61cc331461058057806350d75d25146105a057600080fd5b806340c10f191161028757806340c10f191461052157806341b706be1461053457806342fe09801461054757806345977d031461055a57600080fd5b8063313ce567146104ec578063386fa221146104fb578063395093511461050e57600080fd5b806318160ddd1161031a57806323b872dd116102f457806323b872dd14610480578063245887fc1461049357806327048397146104a65780632ec8eec7146104b957600080fd5b806318160ddd146104215780631863e8091461043357806320bc44251461044657600080fd5b8063095ea7b311610356578063095ea7b3146103c557806311bcc81e146103e857806312a6a3f8146103fb57806316d055d61461040e57600080fd5b806306e485381461037d57806306fdde031461039b578063090c415e146103b0575b600080fd5b610385610838565b6040516103929190613ba5565b60405180910390f35b6103a3610849565b6040516103929190613c42565b6103c36103be366004613cb6565b6108db565b005b6103d86103d3366004613d12565b6109d5565b6040519015158152602001610392565b6103c36103f6366004613d3e565b6109ec565b6103c3610409366004613d57565b610a1a565b6103c361041c366004613da3565b610b43565b6003545b604051908152602001610392565b6103c3610441366004613eb9565b610ba3565b7f00000000000000000000000000000000000000000000000000000000000000005b6040516001600160a01b039091168152602001610392565b6103d861048e366004613f4c565b610e47565b6103c36104a1366004613d12565b610e5f565b6103c36104b4366004613f8d565b610edb565b6104cc6104c7366004613faf565b610fb8565b604080519485526020850193909352918301526060820152608001610392565b60405160128152602001610392565b610385610509366004613faf565b61105b565b6103d861051c366004613d12565b611117565b6103d861052f366004613d12565b611153565b6103c3610542366004613da3565b61116e565b6103c361055536600461400e565b61119a565b6103c3610568366004613d3e565b61137d565b6103c361057b366004613faf565b6113a9565b61059361058e3660046140a9565b6113ff565b60405161039291906140ef565b61046861148f565b7f6bfbb132610e56cb96575dba244667b9d6dbfeffe22b68a79fa16f2d18eb0019610425565b6001610425565b6103c36105e3366004614127565b6114b9565b6103c36105f6366004613f4c565b611512565b6103c3610609366004614177565b61156f565b6103c361061c366004613f4c565b61161d565b61059361062f366004614216565b61163d565b6103d8610642366004613f4c565b6116af565b610425610655366004613faf565b6116f4565b6103d8610668366004613faf565b61171c565b6103c361067b366004613faf565b6117a4565b6103a36117f5565b6103c3611804565b6103c361069e366004614127565b61191c565b6103c36106b136600461424b565b611970565b6103c36106c4366004613d57565b6119b0565b6103c36106d7366004613faf565b611a7e565b6103d86106ea366004613d12565b611a92565b6103d86106fd366004613d12565b611ae1565b6103d8610710366004613d12565b611aef565b6103d8610723366004613faf565b611b40565b6103c361073636600461424b565b611bc8565b6103c3610749366004613d12565b611c09565b6103c361075c366004613d12565b611c82565b6103d861076f3660046142a4565b611d6f565b6103d8610782366004613d12565b611d7d565b6104256107953660046142a4565b6001600160a01b03918216600090815260126020908152604080832093909416825291909152205490565b6107d36107ce366004613d12565b611d97565b60408051938452602084019290925290820152606001610392565b600f546001600160a01b0316610468565b6103c361080d366004613faf565b611eea565b6103c36108203660046142dd565b611f3b565b6103c3610833366004614325565b611fdb565b6060610844601361202b565b905090565b60606010805461085890614364565b80601f016020809104026020016040519081016040528092919081815260200182805461088490614364565b80156108d15780601f106108a6576101008083540402835291602001916108d1565b820191906000526020600020905b8154815290600101906020018083116108b457829003601f168201915b5050505050905090565b60408051608060208201819052600e60a08301527f41677265656d656e74537461746500000000000000000000000000000000000060c083015233928201929092526001600160a01b038616606082015290810184905260009060e00160405160208183030381529060405280519060200120905061098d8184848080602002602001604051908101604052809392919081815260200183836020028082843760009201919091525061209192505050565b6040518481526001600160a01b0386169033907f30f416fa68fca014a0f334464c64b000ba53e99b6d2afdea9d5ca756372d5985906020015b60405180910390a35050505050565b60006109e23384846120d2565b5060015b92915050565b610a17333383604051806020016040528060008152506040518060200160405280600081525061218a565b50565b60408051606060208201819052600d60808301526c41677265656d656e744461746160981b60a083015233928201839052810185905260009060c00160408051601f1981840301815291905280516020909101209050610a7a8184612343565b15610aba576040517f5b5b42a500000000000000000000000000000000000000000000000000000000815261138860048201526024015b60405180910390fd5b610af78185858080602002602001604051908101604052809392919081815260200183836020028082843760009201919091525061209192505050565b816001600160a01b03167f770ea40a13a4644573ed785e5c7116890709947918747febc5add46feb531e2d868686604051610b349392919061439e565b60405180910390a25050505050565b7f00000000000000000000000000000000000000000000000000000000000000006001600160a01b03163314610b9057604051632a94f67960e21b81526115186004820152602401610ab1565b610b9c8484848461237f565b5050505050565b604051632329212160e21b81523360048201527f00000000000000000000000000000000000000000000000000000000000000006001600160a01b031690638ca4848490602401602060405180830381865afa158015610c07573d6000803e3d6000fd5b505050506040513d601f19601f82011682018060405250810190610c2b91906143f7565b610c4c57604051639aca506b60e01b81526114b46004820152602401610ab1565b6000610c566124a7565b90506001600160a01b038116610c695750845b600085610c765786610c78565b815b905060008313610d1557610c8b8361442a565b610c9485612605565b14610ca157610ca1614462565b610caa84612605565b6001600160a01b03821660009081526002602052604081208054909190610cd2908490614478565b90915550506001600160a01b03851660009081526002602052604081208054859290610cff908490614478565b90915550610d1090508582866126a1565b610ddf565b8515610d2357610d23614462565b82610d2d85612605565b610d379190614478565b6001600160a01b03831660009081526002602052604081208054909190610d5f9084906144a0565b90915550610d6e905084612605565b6001600160a01b03881660009081526002602052604081208054909190610d96908490614478565b90915550506001600160a01b03851660009081526002602052604081208054859290610dc3908490614478565b90915550610dd490508288866126a1565b610ddf8286856126a1565b846001600160a01b0316876001600160a01b0316336001600160a01b03167fb8381a3ce157650e06186e3e8f4dd4dc29236f2688b6eed1893d0a60d7c6386f8c8589898f604051610e349594939291906144c0565b60405180910390a4505050505050505050565b6000610e553385858561237f565b90505b9392505050565b7f00000000000000000000000000000000000000000000000000000000000000006001600160a01b03163314610eac57604051632a94f67960e21b81526115186004820152602401610ab1565b610ed7338383604051806020016040528060008152506040518060200160405280600081525061218a565b5050565b60408051606060208201819052600d60808301526c41677265656d656e744461746160981b60a083015233928201839052810184905260009060c001604051602081830303815290604052805190602001209050610f398184612343565b610f73576040517f9995b0c10000000000000000000000000000000000000000000000000000000081526113896004820152602401610ab1565b610f7d81846126e6565b60405184815233907f71a63dc095de07aa5512ad57a7596a39516317e316981a1cd71000057be1537b9060200160405180910390a250505050565b6000806000807f00000000000000000000000000000000000000000000000000000000000000006001600160a01b031663bbe4fd506040518163ffffffff1660e01b8152600401602060405180830381865afa15801561101c573d6000803e3d6000fd5b505050506040513d601f19601f8201168201806040525081019061104091906144f4565b905061104c8582611d97565b91979096509094509092509050565b6001600160a01b03818116600090815260016020526040908190205490517fc56a069d000000000000000000000000000000000000000000000000000000008152901960048201526060917f0000000000000000000000000000000000000000000000000000000000000000169063c56a069d90602401600060405180830381865afa1580156110ef573d6000803e3d6000fd5b505050506040513d6000823e601f3d908101601f191682016040526109e6919081019061450d565b3360008181526012602090815260408083206001600160a01b038716845290915281205490916109e291859061114e9086906145bf565b6120d2565b601754600090610e58906001600160a01b031680858561237f565b33301461118e57604051630fff4cc960e31b815260040160405180910390fd5b610b9c8385848461237f565b600054610100900460ff16158080156111ba5750600054600160ff909116105b806111d45750303b1580156111d4575060005460ff166001145b6112465760405162461bcd60e51b815260206004820152602e60248201527f496e697469616c697a61626c653a20636f6e747261637420697320616c72656160448201527f647920696e697469616c697a65640000000000000000000000000000000000006064820152608401610ab1565b6000805460ff191660011790558015611269576000805461ff0019166101001790555b600f805460ff8816600160a01b027fffffffffffffffffffffff0000000000000000000000000000000000000000009091166001600160a01b038a16171790556112b230612707565b60405160008082529081907fddf252ad1be2c89b69c2b068fc378daa952ba7f163c4a11628f55a4df523b3ef9060200160405180910390a361132e30600e60009054906101000a90046001600160a01b031660035460006040518060200160405280600081525060405180602001604052806000815250612835565b8015611374576000805461ff0019169055604051600181527f7f26b83ff96e1f2b6a682f133852f6798a09c465da95921460cefb38474024989060200160405180910390a15b50505050505050565b610a17333333846040518060200160405280600081525060405180602001604052806000815250612913565b336001600160a01b037f000000000000000000000000000000000000000000000000000000000000000016146113f657604051632a94f67960e21b81526119006004820152602401610ab1565b610a1781612ae8565b60408051608060208201819052600e60a08301527f41677265656d656e74537461746500000000000000000000000000000000000060c08301526001600160a01b038088169383019390935291851660608281019190915291810184905260009060e0016040516020818303038152906040528051906020012090506114858184612d3c565b9695505050505050565b60006108447f360894a13ba1a3210667c828492db98dca3e2076cc3735a920a3ca505d382bbc5490565b61150c333386866040518060200160405280600081525087878080601f01602080910402602001604051908101604052809392919081815260200183838082843760009201919091525061291392505050565b50505050565b7f00000000000000000000000000000000000000000000000000000000000000006001600160a01b0316331461155f57604051632a94f67960e21b81526115186004820152602401610ab1565b61156a8383836120d2565b505050565b3361157c6013828a612dcc565b6115995760405163f7f0222760e01b815260040160405180910390fd5b6116138189898989898080601f01602080910402602001604051908101604052809392919081815260200183838082843760009201919091525050604080516020601f8d018190048102820181019092528b815292508b91508a908190840183828082843760009201919091525060019250612e75915050565b5050505050505050565b33301461155f57604051630fff4cc960e31b815260040160405180910390fd5b60408051606060208201819052600d60808301526c41677265656d656e744461746160981b60a08301526001600160a01b0386169282019290925280820184905260009060c0016040516020818303038152906040528051906020012090506116a68184612d3c565b95945050505050565b6001600160a01b0380841660009081526012602090815260408083209386168352929052908120546116ea903390859061114e9086906145bf565b5060019392505050565b60008061170083610fb8565b5050509050600081126117135780610e58565b60009392505050565b60006109e6827f00000000000000000000000000000000000000000000000000000000000000006001600160a01b031663bbe4fd506040518163ffffffff1660e01b8152600401602060405180830381865afa158015611780573d6000803e3d6000fd5b505050506040513d601f19601f8201168201806040525081019061078291906144f4565b336117b160138284612ef6565b806001600160a01b0316826001600160a01b03167ff4caeb2d6ca8932a215a353d0703c326ec2d81fc68170f320eb2ab49e9df61f960405160405180910390a35050565b60606011805461085890614364565b600054610100900460ff16158080156118245750600054600160ff909116105b8061183e5750303b15801561183e575060005460ff166001145b6118b05760405162461bcd60e51b815260206004820152602e60248201527f496e697469616c697a61626c653a20636f6e747261637420697320616c72656160448201527f647920696e697469616c697a65640000000000000000000000000000000000006064820152608401610ab1565b6000805460ff1916600117905580156118d3576000805461ff0019166101001790555b8015610a17576000805461ff0019169055604051600181527f7f26b83ff96e1f2b6a682f133852f6798a09c465da95921460cefb3847402498906020015b60405180910390a150565b61150c3333868686868080601f01602080910402602001604051908101604052809392919081815260200183838082843760009201829052506040805160208101909152908152925060019150612e759050565b33301461199057604051630fff4cc960e31b815260040160405180910390fd5b60408051600081526020810190915261156a90339085908590859061300a565b60408051606060208201819052600d60808301526c41677265656d656e744461746160981b60a083015233928201839052810185905260009060c001604051602081830303815290604052805190602001209050611a418185858080602002602001604051908101604052809392919081815260200183836020028082843760009201919091525061209192505050565b336001600160a01b03167f0c4c547b3a4fcaa5be8353b3111472b124155bccc86de811d4a481c9e6e9faca868686604051610b349392919061439e565b610ed7333383611a8d336116f4565b61237f565b60006109e2338461114e856040518060600160405280602a815260200161484d602a91393360009081526012602090815260408083206001600160a01b038d16845290915290205491906130db565b6000610e583333858561237f565b600080600080611aff8686611d97565b9250925092506000611b27828411611b18576000612605565b611b2283856145d2565b612605565b611b319085614478565b60001315979650505050505050565b60006109e6827f00000000000000000000000000000000000000000000000000000000000000006001600160a01b031663bbe4fd506040518163ffffffff1660e01b8152600401602060405180830381865afa158015611ba4573d6000803e3d6000fd5b505050506040513d601f19601f8201168201806040525081019061071091906144f4565b333014611be857604051630fff4cc960e31b815260040160405180910390fd5b6040805160008082526020820190925261156a913391869186918690612835565b7f00000000000000000000000000000000000000000000000000000000000000006001600160a01b03163314611c5657604051632a94f67960e21b81526115186004820152602401610ab1565b610ed7338384846040518060200160405280600081525060405180602001604052806000815250612913565b604051632329212160e21b81523360048201527f00000000000000000000000000000000000000000000000000000000000000006001600160a01b031690638ca4848490602401602060405180830381865afa158015611ce6573d6000803e3d6000fd5b505050506040513d601f19601f82011682018060405250810190611d0a91906143f7565b611d2b57604051639aca506b60e01b81526114b46004820152602401610ab1565b6001600160a01b038216600090815260026020526040902054611d4f908290614478565b6001600160a01b0390921660009081526002602052604090209190915550565b6000610e5860138484612dcc565b600080611d8a8484611d97565b5050600013949350505050565b6001600160a01b038216600090815260026020526040812054908080611dbc8661105b565b905060005b8151811015611ee1576000806000848481518110611de157611de16145e5565b60209081029190910101516040517f9b2e48bc0000000000000000000000000000000000000000000000000000000081523060048201526001600160a01b038c81166024830152604482018c905290911690639b2e48bc90606401606060405180830381865afa158015611e59573d6000803e3d6000fd5b505050506040513d601f19601f82011682018060405250810190611e7d91906145fb565b91945092509050611e8e82886145bf565b9650611e9a81876145bf565b9550611eb7818311611ead576000612605565b611b2282846145d2565b611ec1848a614478565b611ecb91906144a0565b975050505080611eda90614629565b9050611dc1565b50509250925092565b33611ef760138284613107565b806001600160a01b0316826001600160a01b03167f50546e66e5f44d728365dc3908c63bc5cfeeab470722c1677e3073a6ac294aa160405160405180910390a35050565b33611f4860138289612dcc565b611f655760405163f7f0222760e01b815260040160405180910390fd5b61137481888888888080601f01602080910402602001604051908101604052809392919081815260200183838082843760009201919091525050604080516020601f8c018190048102820181019092528a815292508a915089908190840183828082843760009201919091525061218a92505050565b61156a33338585858080601f01602080910402602001604051908101604052809392919081815260200183838082843760009201829052506040805160208101909152908152925061218a915050565b60608160000180548060200260200160405190810160405280929190818152602001828054801561208557602002820191906000526020600020905b81546001600160a01b03168152600190910190602001808311612067575b50505050509050919050565b60005b815181101561156a5760008282815181106120b1576120b16145e5565b60200260200101519050808285015550806120cb90614629565b9050612094565b6001600160a01b0383166120fd5760405163e961d6ff60e01b81526119646004820152602401610ab1565b6001600160a01b0382166121285760405163e961d6ff60e01b81526119656004820152602401610ab1565b6001600160a01b0383811660008181526012602090815260408083209487168084529482529182902085905590518481527f8c5be1e5ebec7d5bd14f71427d1e84f3dd0314c0f7b2291e5b200ac8c7c3b92591015b60405180910390a3505050565b600f546001600160a01b03166121b357604051637bce7b2b60e11b815260040160405180910390fd5b6000806121bf85613212565b915091506121d0878783878761300a565b600f546040516370a0823160e01b81523060048201526000916001600160a01b0316906370a0823190602401602060405180830381865afa158015612219573d6000803e3d6000fd5b505050506040513d601f19601f8201168201806040525081019061223d91906144f4565b600f54909150612257906001600160a01b031688856132ce565b600f546040516370a0823160e01b81523060048201526000916001600160a01b0316906370a0823190602401602060405180830381865afa1580156122a0573d6000803e3d6000fd5b505050506040513d601f19601f820116820180604052508101906122c491906144f4565b905060006122d282846145d2565b90508085146122f457604051631c7c26d360e31b815260040160405180910390fd5b886001600160a01b03167f3bc27981aebbb57f9247dc00fde9d6cd91e4b230083fec3238fedbcba1f9ab3d8560405161232f91815260200190565b60405180910390a250505050505050505050565b6000805b8281101561237557838101548015612364576001925050506109e6565b5061236e81614629565b9050612347565b5060009392505050565b60006001600160a01b0384166123ac5760405163e961d6ff60e01b81526119686004820152602401610ab1565b6001600160a01b0383166123d75760405163e961d6ff60e01b81526119696004820152602401610ab1565b6000339050612408818686866040518060200160405280600081525060405180602001604052806000815250613377565b846001600160a01b0316866001600160a01b03161461249b5761249b858761114e866040518060600160405280602d8152602001614877602d9139601260008c6001600160a01b03166001600160a01b0316815260200190815260200160002060008d6001600160a01b03166001600160a01b03168152602001908152602001600020546130db9092919063ffffffff16565b50600195945050505050565b6000807f00000000000000000000000000000000000000000000000000000000000000006001600160a01b031663289b3c0d6040518163ffffffff1660e01b8152600401602060405180830381865afa158015612508573d6000803e3d6000fd5b505050506040513d601f19601f8201168201806040525081019061252c9190614642565b6040517f8369a0f10000000000000000000000000000000000000000000000000000000081526001600160a01b037f0000000000000000000000000000000000000000000000000000000000000000811660048301523060248301527f9f60ae461adf056670e03ae602566409933242392cb06744f5747c9f38b05d09604483015291925090821690638369a0f190606401602060405180830381865afa1580156125db573d6000803e3d6000fd5b505050506040513d601f19601f820116820180604052508101906125ff9190614642565b91505090565b60007f7fffffffffffffffffffffffffffffffffffffffffffffffffffffffffffffff82111561269d5760405162461bcd60e51b815260206004820152602860248201527f53616665436173743a2076616c756520646f65736e27742066697420696e206160448201527f6e20696e743235360000000000000000000000000000000000000000000000006064820152608401610ab1565b5090565b816001600160a01b0316836001600160a01b03167fddf252ad1be2c89b69c2b068fc378daa952ba7f163c4a11628f55a4df523b3ef8360405161217d91815260200190565b60005b8181101561156a5760008382015561270081614629565b90506126e9565b6040516329965a1d60e01b81526001600160a01b03821660048201527fac7fbab5f54a3ca8194167523c6753bfeb96a445279294b6125b68cce21770546024820152306044820152731820a4b7618bde71dce8cdc73aab6c95905fad24906329965a1d90606401600060405180830381600087803b15801561278857600080fd5b505af115801561279c573d6000803e3d6000fd5b50506040516329965a1d60e01b81526001600160a01b03841660048201527faea199e31a596269b42cdafd93407f14436db6e4cad65417994c2eb37381e05a6024820152306044820152731820a4b7618bde71dce8cdc73aab6c95905fad2492506329965a1d9150606401600060405180830381600087803b15801561282157600080fd5b505af1158015610b9c573d6000803e3d6000fd5b6001600160a01b0385166128605760405163e961d6ff60e01b81526119676004820152602401610ab1565b61286a8585613428565b61287a8660008787868689613482565b846001600160a01b0316866001600160a01b03167f2fe5be0146f74c5bce36c0b80911af6c7d86ff27e89d5cfa61fc681327954e5d8685856040516128c19392919061465f565b60405180910390a36040518481526001600160a01b038616906000907fddf252ad1be2c89b69c2b068fc378daa952ba7f163c4a11628f55a4df523b3ef906020015b60405180910390a3505050505050565b600f546001600160a01b031661293c57604051637bce7b2b60e11b815260040160405180910390fd5b60008061294885613212565b600f546040516370a0823160e01b81523060048201529294509092506000916001600160a01b03909116906370a0823190602401602060405180830381865afa158015612999573d6000803e3d6000fd5b505050506040513d601f19601f820116820180604052508101906129bd91906144f4565b600f549091506129d8906001600160a01b0316893086613604565b600f546040516370a0823160e01b81523060048201526000916001600160a01b0316906370a0823190602401602060405180830381865afa158015612a21573d6000803e3d6000fd5b505050506040513d601f19601f82011682018060405250810190612a4591906144f4565b90506000612a5383836145d2565b9050808514612a7557604051631c7c26d360e31b815260040160405180910390fd5b612a988b8a868c6001600160a01b03168e6001600160a01b031614158b8b612835565b886001600160a01b03167f25ca84076773b0455db53621c459ddc84fe40840e4932a62706a032566f399df85604051612ad391815260200190565b60405180910390a25050505050505050505050565b6000612b127f360894a13ba1a3210667c828492db98dca3e2076cc3735a920a3ca505d382bbc5490565b6001600160a01b031603612b685760405162461bcd60e51b815260206004820152601d60248201527f5555505350726f786961626c653a206e6f742075706772616461626c650000006044820152606401610ab1565b806001600160a01b03166352d1902d6040518163ffffffff1660e01b8152600401602060405180830381865afa158015612ba6573d6000803e3d6000fd5b505050506040513d601f19601f82011682018060405250810190612bca91906144f4565b7f6bfbb132610e56cb96575dba244667b9d6dbfeffe22b68a79fa16f2d18eb001914612c5e5760405162461bcd60e51b815260206004820152602360248201527f5555505350726f786961626c653a206e6f7420636f6d70617469626c65206c6f60448201527f67696300000000000000000000000000000000000000000000000000000000006064820152608401610ab1565b6001600160a01b0381163003612cb65760405162461bcd60e51b815260206004820152601960248201527f5555505350726f786961626c653a2070726f7879206c6f6f70000000000000006044820152606401610ab1565b612cde817f360894a13ba1a3210667c828492db98dca3e2076cc3735a920a3ca505d382bbc55565b7fe011bc04c286c344a8fcbb8de77f953da762c3e25d8cdea984147fc4168a5dcc7f6bfbb132610e56cb96575dba244667b9d6dbfeffe22b68a79fa16f2d18eb0019604080519182526001600160a01b038416602083015201611911565b60608167ffffffffffffffff811115612d5757612d57613df4565b604051908082528060200260200182016040528015612d80578160200160208202803683370190505b50905060005b82811015612dc557600081850154905080838381518110612da957612da96145e5565b602090810291909101015250612dbe81614629565b9050612d86565b5092915050565b6000816001600160a01b0316836001600160a01b03161480612e3b57506001600160a01b038316600090815260018501602052604090205460ff168015612e3b57506001600160a01b03808316600090815260038601602090815260408083209387168352929052205460ff16155b80610e5557506001600160a01b03808316600090815260028601602090815260408083209387168352929052205460ff1690509392505050565b6001600160a01b038616612ea05760405163e961d6ff60e01b81526119686004820152602401610ab1565b6001600160a01b038516612ecb5760405163e961d6ff60e01b81526119696004820152602401610ab1565b612ed9878787878787613655565b612ee7878787878787613377565b61137487878787878787613482565b806001600160a01b0316826001600160a01b031603612f7d5760405162461bcd60e51b815260206004820152602d60248201527f4552433737374f70657261746f72733a20617574686f72697a696e672073656c60448201527f66206173206f70657261746f72000000000000000000000000000000000000006064820152608401610ab1565b6001600160a01b038116600090815260018401602052604090205460ff1615612fd3576001600160a01b03918216600090815260039390930160209081526040808520929093168452529020805460ff19169055565b6001600160a01b0380831660009081526002850160209081526040808320938516835292905220805460ff19166001179055505050565b6001600160a01b0384166130355760405163e961d6ff60e01b81526119666004820152602401610ab1565b61304485856000868686613655565b61304e8484613795565b836001600160a01b0316856001600160a01b03167fa78a9be3a7b862d26933ad85fb11d80ef66b8f972d7cbba06621d583943a40988585856040516130959392919061465f565b60405180910390a36040518381526000906001600160a01b038616907fddf252ad1be2c89b69c2b068fc378daa952ba7f163c4a11628f55a4df523b3ef906020016109c6565b600081848411156130ff5760405162461bcd60e51b8152600401610ab19190613c42565b505050900390565b336001600160a01b038216036131855760405162461bcd60e51b815260206004820152602a60248201527f4552433737374f70657261746f72733a207265766f6b696e672073656c66206160448201527f73206f70657261746f72000000000000000000000000000000000000000000006064820152608401610ab1565b6001600160a01b038116600090815260018401602052604090205460ff16156131df576001600160a01b0380831660009081526003850160209081526040808320938516835292905220805460ff19166001179055505050565b6001600160a01b03918216600090815260029390930160209081526040808520929093168452529020805460ff19169055565b600f54600090819081906012600160a01b90910460ff16101561327157600f5461324790600160a01b900460ff16601261468a565b61325290600a614787565b905061325e8185614796565b925061326a81846147b8565b91506132c8565b600f546012600160a01b90910460ff1611156132c157600f546132a090601290600160a01b900460ff1661468a565b6132ab90600a614787565b90506132b781856147b8565b92508391506132c8565b8391508192505b50915091565b6040516001600160a01b03831660248201526044810182905261156a9084907fa9059cbb00000000000000000000000000000000000000000000000000000000906064015b60408051601f198184030181529190526020810180517bffffffffffffffffffffffffffffffffffffffffffffffffffffffff167fffffffff00000000000000000000000000000000000000000000000000000000909316929092179091526138a9565b61338a858561338586612605565b61398e565b836001600160a01b0316856001600160a01b0316876001600160a01b03167f06b541ddaa720db2b10a4d0cdac39b8d360425fc073085fac19bc826146779878686866040516133db9392919061465f565b60405180910390a4836001600160a01b0316856001600160a01b03167fddf252ad1be2c89b69c2b068fc378daa952ba7f163c4a11628f55a4df523b3ef8560405161290391815260200190565b61343181612605565b6001600160a01b0383166000908152600260205260409020546134549190614478565b6001600160a01b03831660009081526002602052604090205560035461347b9082906145bf565b6003555050565b60405163555ddc6560e11b81526001600160a01b03861660048201527fb281fc8c12954d22544db45de3159a39272895b169a852b314f9cc762e44c53b6024820152600090731820a4b7618bde71dce8cdc73aab6c95905fad249063aabbb8ca90604401602060405180830381865afa158015613503573d6000803e3d6000fd5b505050506040513d601f19601f820116820180604052508101906135279190614642565b90506001600160a01b038116156135bc576040517e23de290000000000000000000000000000000000000000000000000000000081526001600160a01b038216906223de2990613585908b908b908b908b908b908b906004016147d7565b600060405180830381600087803b15801561359f57600080fd5b505af11580156135b3573d6000803e3d6000fd5b50505050611613565b8115611613576001600160a01b0386163b15611613576040517ffe737d0500000000000000000000000000000000000000000000000000000000815260040160405180910390fd5b6040516001600160a01b038085166024830152831660448201526064810182905261150c9085907f23b872dd0000000000000000000000000000000000000000000000000000000090608401613313565b60405163555ddc6560e11b81526001600160a01b03861660048201527f29ddb589b1fb5fc7cf394961c1adf5f8c6454761adf795e67fe149f658abe8956024820152600090731820a4b7618bde71dce8cdc73aab6c95905fad249063aabbb8ca90604401602060405180830381865afa1580156136d6573d6000803e3d6000fd5b505050506040513d601f19601f820116820180604052508101906136fa9190614642565b90506001600160a01b03811615611374576040517f75ab97820000000000000000000000000000000000000000000000000000000081526001600160a01b038216906375ab97829061375a908a908a908a908a908a908a906004016147d7565b600060405180830381600087803b15801561377457600080fd5b505af1158015613788573d6000803e3d6000fd5b5050505050505050505050565b600061381d837f00000000000000000000000000000000000000000000000000000000000000006001600160a01b031663bbe4fd506040518163ffffffff1660e01b8152600401602060405180830381865afa1580156137f9573d6000803e3d6000fd5b505050506040513d601f19601f820116820180604052508101906107ce91906144f4565b5050905061382a82612605565b81121561384e57604051636212897360e01b81526113ec6004820152602401610ab1565b61385782612605565b6001600160a01b03841660009081526002602052604090205461387a91906144a0565b6001600160a01b0384166000908152600260205260409020556003546138a19083906145d2565b600355505050565b60006138fe826040518060400160405280602081526020017f5361666545524332303a206c6f772d6c6576656c2063616c6c206661696c6564815250856001600160a01b0316613a919092919063ffffffff16565b80519091501561156a578080602001905181019061391c91906143f7565b61156a5760405162461bcd60e51b815260206004820152602a60248201527f5361666545524332303a204552433230206f7065726174696f6e20646964206e60448201527f6f742073756363656564000000000000000000000000000000000000000000006064820152608401610ab1565b60006139f2847f00000000000000000000000000000000000000000000000000000000000000006001600160a01b031663bbe4fd506040518163ffffffff1660e01b8152600401602060405180830381865afa1580156137f9573d6000803e3d6000fd5b5050905081811215613a1b57604051636212897360e01b81526113ed6004820152602401610ab1565b6001600160a01b038416600090815260026020526040902054613a3f9083906144a0565b6001600160a01b038086166000908152600260205260408082209390935590851681522054613a6f908390614478565b6001600160a01b03909316600090815260026020526040902092909255505050565b6060610e558484600085856001600160a01b0385163b613af35760405162461bcd60e51b815260206004820152601d60248201527f416464726573733a2063616c6c20746f206e6f6e2d636f6e74726163740000006044820152606401610ab1565b600080866001600160a01b03168587604051613b0f9190614830565b60006040518083038185875af1925050503d8060008114613b4c576040519150601f19603f3d011682016040523d82523d6000602084013e613b51565b606091505b5091509150613b61828286613b6c565b979650505050505050565b60608315613b7b575081610e58565b825115613b8b5782518084602001fd5b8160405162461bcd60e51b8152600401610ab19190613c42565b6020808252825182820181905260009190848201906040850190845b81811015613be65783516001600160a01b031683529284019291840191600101613bc1565b50909695505050505050565b60005b83811015613c0d578181015183820152602001613bf5565b50506000910152565b60008151808452613c2e816020860160208601613bf2565b601f01601f19169290920160200192915050565b602081526000610e586020830184613c16565b6001600160a01b0381168114610a1757600080fd5b60008083601f840112613c7c57600080fd5b50813567ffffffffffffffff811115613c9457600080fd5b6020830191508360208260051b8501011115613caf57600080fd5b9250929050565b60008060008060608587031215613ccc57600080fd5b8435613cd781613c55565b935060208501359250604085013567ffffffffffffffff811115613cfa57600080fd5b613d0687828801613c6a565b95989497509550505050565b60008060408385031215613d2557600080fd5b8235613d3081613c55565b946020939093013593505050565b600060208284031215613d5057600080fd5b5035919050565b600080600060408486031215613d6c57600080fd5b83359250602084013567ffffffffffffffff811115613d8a57600080fd5b613d9686828701613c6a565b9497909650939450505050565b60008060008060808587031215613db957600080fd5b8435613dc481613c55565b93506020850135613dd481613c55565b92506040850135613de481613c55565b9396929550929360600135925050565b634e487b7160e01b600052604160045260246000fd5b604051601f8201601f1916810167ffffffffffffffff81118282101715613e3357613e33613df4565b604052919050565b600082601f830112613e4c57600080fd5b813567ffffffffffffffff811115613e6657613e66613df4565b613e79601f8201601f1916602001613e0a565b818152846020838601011115613e8e57600080fd5b816020850160208301376000918101602001919091529392505050565b8015158114610a1757600080fd5b600080600080600080600060e0888a031215613ed457600080fd5b87359650602088013567ffffffffffffffff811115613ef257600080fd5b613efe8a828b01613e3b565b9650506040880135613f0f81613c55565b94506060880135613f1f81613eab565b93506080880135613f2f81613c55565b9699959850939692959460a0840135945060c09093013592915050565b600080600060608486031215613f6157600080fd5b8335613f6c81613c55565b92506020840135613f7c81613c55565b929592945050506040919091013590565b60008060408385031215613fa057600080fd5b50508035926020909101359150565b600060208284031215613fc157600080fd5b8135610e5881613c55565b60008083601f840112613fde57600080fd5b50813567ffffffffffffffff811115613ff657600080fd5b602083019150836020828501011115613caf57600080fd5b6000806000806000806080878903121561402757600080fd5b863561403281613c55565b9550602087013560ff8116811461404857600080fd5b9450604087013567ffffffffffffffff8082111561406557600080fd5b6140718a838b01613fcc565b9096509450606089013591508082111561408a57600080fd5b5061409789828a01613fcc565b979a9699509497509295939492505050565b600080600080608085870312156140bf57600080fd5b84356140ca81613c55565b935060208501356140da81613c55565b93969395505050506040820135916060013590565b6020808252825182820181905260009190848201906040850190845b81811015613be65783518352928401929184019160010161410b565b6000806000806060858703121561413d57600080fd5b843561414881613c55565b935060208501359250604085013567ffffffffffffffff81111561416b57600080fd5b613d0687828801613fcc565b600080600080600080600060a0888a03121561419257600080fd5b873561419d81613c55565b965060208801356141ad81613c55565b955060408801359450606088013567ffffffffffffffff808211156141d157600080fd5b6141dd8b838c01613fcc565b909650945060808a01359150808211156141f657600080fd5b506142038a828b01613fcc565b989b979a50959850939692959293505050565b60008060006060848603121561422b57600080fd5b833561423681613c55565b95602085013595506040909401359392505050565b60008060006060848603121561426057600080fd5b833561426b81613c55565b925060208401359150604084013567ffffffffffffffff81111561428e57600080fd5b61429a86828701613e3b565b9150509250925092565b600080604083850312156142b757600080fd5b82356142c281613c55565b915060208301356142d281613c55565b809150509250929050565b600080600080600080608087890312156142f657600080fd5b863561430181613c55565b955060208701359450604087013567ffffffffffffffff8082111561406557600080fd5b60008060006040848603121561433a57600080fd5b83359250602084013567ffffffffffffffff81111561435857600080fd5b613d9686828701613fcc565b600181811c9082168061437857607f821691505b60208210810361439857634e487b7160e01b600052602260045260246000fd5b50919050565b8381526040602082015281604082015260007f07ffffffffffffffffffffffffffffffffffffffffffffffffffffffffffffff8311156143dd57600080fd5b8260051b8085606085013791909101606001949350505050565b60006020828403121561440957600080fd5b8151610e5881613eab565b634e487b7160e01b600052601160045260246000fd5b60007f8000000000000000000000000000000000000000000000000000000000000000820361445b5761445b614414565b5060000390565b634e487b7160e01b600052600160045260246000fd5b808201828112600083128015821682158216171561449857614498614414565b505092915050565b8181036000831280158383131683831282161715612dc557612dc5614414565b8581526001600160a01b038516602082015283604082015282606082015260a060808201526000613b6160a0830184613c16565b60006020828403121561450657600080fd5b5051919050565b6000602080838503121561452057600080fd5b825167ffffffffffffffff8082111561453857600080fd5b818501915085601f83011261454c57600080fd5b81518181111561455e5761455e613df4565b8060051b915061456f848301613e0a565b818152918301840191848101908884111561458957600080fd5b938501935b838510156145b357845192506145a383613c55565b828252938501939085019061458e565b98975050505050505050565b808201808211156109e6576109e6614414565b818103818111156109e6576109e6614414565b634e487b7160e01b600052603260045260246000fd5b60008060006060848603121561461057600080fd5b8351925060208401519150604084015190509250925092565b60006001820161463b5761463b614414565b5060010190565b60006020828403121561465457600080fd5b8151610e5881613c55565b8381526060602082015260006146786060830185613c16565b82810360408401526114858185613c16565b60ff82811682821603908111156109e6576109e6614414565b600181815b808511156146de5781600019048211156146c4576146c4614414565b808516156146d157918102915b93841c93908002906146a8565b509250929050565b6000826146f5575060016109e6565b81614702575060006109e6565b816001811461471857600281146147225761473e565b60019150506109e6565b60ff84111561473357614733614414565b50506001821b6109e6565b5060208310610133831016604e8410600b8410161715614761575081810a6109e6565b61476b83836146a3565b806000190482111561477f5761477f614414565b029392505050565b6000610e5860ff8416836146e6565b6000826147b357634e487b7160e01b600052601260045260246000fd5b500490565b60008160001904831182151516156147d2576147d2614414565b500290565b60006001600160a01b038089168352808816602084015280871660408401525084606083015260c0608083015261481160c0830185613c16565b82810360a08401526148238185613c16565b9998505050505050505050565b60008251614842818460208701613bf2565b919091019291505056fe5375706572546f6b656e3a2064656372656173656420616c6c6f77616e63652062656c6f77207a65726f5375706572546f6b656e3a207472616e7366657220616d6f756e74206578636565647320616c6c6f77616e6365a264697066735822122057562c65816b04e0629dd59f7ecd5808abc238c4c3826b8663a762c21fbb066364736f6c63430008100033",
  "immutableReferences": {
    "9216": [
      {
        "length": 32,
        "start": 1096
      },
      {
        "length": 32,
        "start": 2885
      },
      {
        "length": 32,
        "start": 3000
      },
      {
        "length": 32,
        "start": 3681
      },
      {
        "length": 32,
        "start": 4032
      },
      {
        "length": 32,
        "start": 4264
      },
      {
        "length": 32,
        "start": 5044
      },
      {
        "length": 32,
        "start": 5396
      },
      {
        "length": 32,
        "start": 5924
      },
      {
        "length": 32,
        "start": 6984
      },
      {
        "length": 32,
        "start": 7179
      },
      {
        "length": 32,
        "start": 7319
      },
      {
        "length": 32,
        "start": 9388
      },
      {
        "length": 32,
        "start": 9564
      },
      {
        "length": 32,
        "start": 14237
      },
      {
        "length": 32,
        "start": 14742
      }
    ]
  },
  "source": "// SPDX-License-Identifier: GPL-3.0\npragma solidity >=0.7.0 <0.9.0;\n\nimport {BaseSuperToken} from \"./BaseSuperToken.sol\";\nimport {ISuperfluid} from \"@superfluid-finance/ethereum-contracts/contracts/interfaces/superfluid/ISuperfluid.sol\";\n\n\ncontract BdlToken is BaseSuperToken {\n    address private deployer;\n\n    string private tokenName = \"Bdl Token\";\n    string private tokenSymbol = \"BDL\";\n    uint256 private tokenTotalSupply = 10000000000000000000000000000000;\n\n    constructor(ISuperfluid host) BaseSuperToken(host, tokenName, tokenSymbol, tokenTotalSupply) {}\n\n    function mint(address owner, uint256 amount) public returns (bool) {\n        return _transferFrom(deployer, deployer, owner, amount);\n    }\n\n    function increaseAllowance(\n        address owner,\n        address spender,\n        uint256 addedValue\n    ) public returns (bool) {\n        _approve(msg.sender, spender, _allowances[owner][spender] + addedValue);\n        return true;\n    }\n}\n",
  "sourcePath": "C:\\Users\\Arogundade Ibrahim\\Documents\\web3\\Buidl\\contracts\\BdlToken.sol",
  "compiler": {
    "name": "solc",
    "version": "0.8.16+commit.07a7930e.Emscripten.clang"
  },
  "schemaVersion": "3.4.10",
  "updatedAt": "2022-10-23T20:34:21.214Z",
  "networkType": "ethereum",
  "devdoc": {
    "kind": "dev",
    "methods": {
      "approve(address,uint256)": {
        "details": "Sets `amount` as the allowance of `spender` over the caller's tokens.",
        "returns": {
          "_0": "Returns Success a boolean value indicating whether the operation succeeded."
        }
      },
      "authorizeOperator(address)": {
        "details": "Make an account an operator of the caller. See {isOperatorFor}."
      },
      "balanceOf(address)": {
        "details": "Returns the amount of tokens owned by an account (`owner`)."
      },
      "burn(uint256,bytes)": {
        "details": "Destroys `amount` tokens from the caller's account, reducing the total supply. If a send hook is registered for the caller, the corresponding function will be called with `data` and empty `operatorData`. See {IERC777Sender}."
      },
      "createAgreement(bytes32,bytes32[])": {
        "details": "ISuperfluidToken.createAgreement implementation"
      },
      "decimals()": {
        "details": "Returns the number of decimals used to get its user representation. For example, if `decimals` equals `2`, a balance of `505` tokens should be displayed to a user as `5,05` (`505 / 10 ** 2`). Tokens usually opt for a value of 18, imitating the relationship between Ether and Wei. This is the value {ERC20} uses, unless {_setupDecimals} is called."
      },
      "decreaseAllowance(address,uint256)": {
        "details": "Atomically decreases the allowance granted to `spender` by the caller. This is an alternative to {approve} that can be used as a mitigation for problems described in {IERC20-approve}."
      },
      "defaultOperators()": {
        "details": "Returns the list of default operators. These accounts are operators for all token holders, even if {authorizeOperator} was never called on them. This list is immutable, but individual holders may revoke these via {revokeOperator}, in which case {isOperatorFor} will return false."
      },
      "downgrade(uint256)": {
        "details": "ISuperToken.downgrade implementation"
      },
      "getAccountActiveAgreements(address)": {
        "details": "ISuperfluidToken.getAccountActiveAgreements implementation"
      },
      "getAgreementData(address,bytes32,uint256)": {
        "details": "ISuperfluidToken.getAgreementData implementation"
      },
      "getAgreementStateSlot(address,address,uint256,uint256)": {
        "details": "ISuperfluidToken.getAgreementState implementation"
      },
      "getCodeAddress()": {
        "details": "Get current implementation code address."
      },
      "getHost()": {
        "details": "ISuperfluidToken.getHost implementation"
      },
      "getUnderlyingToken()": {
        "details": "ISuperfluidGovernance.getUnderlyingToken implementation"
      },
      "granularity()": {
        "details": "Returns the smallest part of the token that is not divisible. This         means all token operations (creation, movement and destruction) must have         amounts that are a multiple of this number."
      },
      "increaseAllowance(address,uint256)": {
        "details": "Atomically increases the allowance granted to `spender` by the caller. This is an alternative to {approve} that can be used as a mitigation for problems described in {IERC20-approve}."
      },
      "initialize(address,uint8,string,string)": {
        "details": "Initialize the contract"
      },
      "isAccountCritical(address,uint256)": {
        "details": "A critical account is when availableBalance < 0",
        "params": {
          "account": "The account to check",
          "timestamp": "The time we'd like to check if the account is critical (should use future)"
        },
        "returns": {
          "isCritical": "Whether the account is critical"
        }
      },
      "isAccountCriticalNow(address)": {
        "details": "A critical account is when availableBalance < 0",
        "params": {
          "account": "The account to check"
        },
        "returns": {
          "isCritical": "Whether the account is critical"
        }
      },
      "isAccountSolvent(address,uint256)": {
        "details": "An account is insolvent when the sum of deposits for a token can't cover the negative availableBalance",
        "params": {
          "account": "The account to check",
          "timestamp": "The time we'd like to check if the account is solvent (should use future)"
        },
        "returns": {
          "isSolvent": "True if the account is solvent, false otherwise"
        }
      },
      "isAccountSolventNow(address)": {
        "details": "An account is insolvent when the sum of deposits for a token can't cover the negative availableBalance",
        "params": {
          "account": "The account to check"
        },
        "returns": {
          "isSolvent": "True if the account is solvent, false otherwise"
        }
      },
      "isOperatorFor(address,address)": {
        "details": "Returns true if an account is an operator of `tokenHolder`. Operators can send and burn tokens on behalf of their owners. All accounts are their own operator. See {operatorSend} and {operatorBurn}."
      },
      "makeLiquidationPayoutsV2(bytes32,bytes,address,bool,address,uint256,int256)": {
        "details": "ISuperfluidToken.makeLiquidationPayoutsV2 implementation"
      },
      "name()": {
        "details": "Returns the name of the token."
      },
      "operationApprove(address,address,uint256)": {
        "details": "Perform ERC20 approve by host contract.",
        "params": {
          "account": "The account owner to be approved.",
          "amount": "Number of tokens to be approved.",
          "spender": "The spender of account owner's funds."
        }
      },
      "operationDowngrade(address,uint256)": {
        "details": "Downgrade ERC20 to SuperToken by host contract.",
        "params": {
          "account": "The account to be changed.",
          "amount": "Number of tokens to be downgraded (in 18 decimals)"
        }
      },
      "operationTransferFrom(address,address,address,uint256)": {
        "details": "Perform ERC20 transfer from by host contract.",
        "params": {
          "account": "The account to spend sender's funds.",
          "amount": "Number of tokens to be transferred.",
          "recipient": "The recipient of thefunds.",
          "spender": "The account where the funds is sent from."
        }
      },
      "operationUpgrade(address,uint256)": {
        "details": "Upgrade ERC20 to SuperToken by host contract.",
        "params": {
          "account": "The account to be changed.",
          "amount": "Number of tokens to be upgraded (in 18 decimals)"
        }
      },
      "operatorBurn(address,uint256,bytes,bytes)": {
        "details": "Destroys `amount` tokens from `account`, reducing the total supply. The caller must be an operator of `account`. If a send hook is registered for `account`, the corresponding function will be called with `data` and `operatorData`. See {IERC777Sender}."
      },
      "operatorSend(address,address,uint256,bytes,bytes)": {
        "details": "Moves `amount` tokens from `sender` to `recipient`. The caller must be an operator of `sender`. If send or receive hooks are registered for `sender` and `recipient`, the corresponding functions will be called with `data` and `operatorData`. See {IERC777Sender} and {IERC777Recipient}."
      },
      "proxiableUUID()": {
        "details": "Proxiable UUID marker function, this would help to avoid wrong logic      contract to be used for upgrading. NOTE: The semantics of the UUID deviates from the actual UUPS standard,       where it is equivalent of _IMPLEMENTATION_SLOT."
      },
      "realtimeBalanceOf(address,uint256)": {
        "details": "ISuperfluidToken.realtimeBalanceOf implementation"
      },
      "realtimeBalanceOfNow(address)": {
        "details": "ISuperfluidToken.realtimeBalanceOfNow implementation"
      },
      "revokeOperator(address)": {
        "details": "Revoke an account's operator status for the caller. See {isOperatorFor} and {defaultOperators}."
      },
      "selfApproveFor(address,address,uint256)": {
        "details": "Give `spender`, `amount` allowance to spend the tokens of `account`."
      },
      "selfBurn(address,uint256,bytes)": {
        "details": "Burn existing tokens for the account"
      },
      "selfMint(address,uint256,bytes)": {
        "details": "Mint new tokens for the account"
      },
      "send(address,uint256,bytes)": {
        "details": "Moves `amount` tokens from the caller's account to `recipient`.If send or receive hooks are registered for the caller and `recipient`,      the corresponding functions will be called with `data` and empty      `operatorData`. See {IERC777Sender} and {IERC777Recipient}."
      },
      "settleBalance(address,int256)": {
        "details": "ISuperfluidToken.settleBalance implementation"
      },
      "symbol()": {
        "details": "Returns the symbol of the token, usually a shorter version of the name."
      },
      "terminateAgreement(bytes32,uint256)": {
        "details": "ISuperfluidToken.terminateAgreement implementation"
      },
      "totalSupply()": {
        "details": "See {IERC20-totalSupply}."
      },
      "transfer(address,uint256)": {
        "details": "Moves `amount` tokens from the caller's account to `recipient`.",
        "returns": {
          "_0": "Returns Success a boolean value indicating whether the operation succeeded."
        }
      },
      "transferAll(address)": {
        "details": "Transfer all available balance from `msg.sender` to `recipient`"
      },
      "updateAgreementData(bytes32,bytes32[])": {
        "details": "ISuperfluidToken.updateAgreementData implementation"
      },
      "updateAgreementStateSlot(address,uint256,bytes32[])": {
        "details": "ISuperfluidToken.updateAgreementState implementation"
      },
      "upgrade(uint256)": {
        "details": "ISuperToken.upgrade implementation"
      },
      "upgradeTo(address,uint256,bytes)": {
        "details": "ISuperToken.upgradeTo implementation"
      }
    },
    "version": 1
  },
  "userdoc": {
    "kind": "user",
    "methods": {
      "isAccountCritical(address,uint256)": {
        "notice": "Check if account is critical"
      },
      "isAccountCriticalNow(address)": {
        "notice": "Check if account is critical now (current host.getNow())"
      },
      "isAccountSolvent(address,uint256)": {
        "notice": "Check if account is solvent"
      },
      "isAccountSolventNow(address)": {
        "notice": "Check if account is solvent now"
      }
    },
    "version": 1
  }
}