{
  "contractName": "BdlToken",
  "abi": [
    {
      "inputs": [],
      "stateMutability": "nonpayable",
      "type": "constructor"
    },
    {
      "anonymous": false,
      "inputs": [
        {
          "indexed": true,
          "internalType": "address",
          "name": "owner",
          "type": "address"
        },
        {
          "indexed": true,
          "internalType": "address",
          "name": "spender",
          "type": "address"
        },
        {
          "indexed": false,
          "internalType": "uint256",
          "name": "value",
          "type": "uint256"
        }
      ],
      "name": "Approval",
      "type": "event"
    },
    {
      "anonymous": false,
      "inputs": [
        {
          "indexed": false,
          "internalType": "address",
          "name": "",
          "type": "address"
        },
        {
          "indexed": false,
          "internalType": "uint256",
          "name": "",
          "type": "uint256"
        }
      ],
      "name": "Charged",
      "type": "event"
    },
    {
      "anonymous": false,
      "inputs": [
        {
          "indexed": false,
          "internalType": "address",
          "name": "",
          "type": "address"
        },
        {
          "indexed": false,
          "internalType": "uint256",
          "name": "",
          "type": "uint256"
        }
      ],
      "name": "Minted",
      "type": "event"
    },
    {
      "anonymous": false,
      "inputs": [
        {
          "indexed": true,
          "internalType": "address",
          "name": "from",
          "type": "address"
        },
        {
          "indexed": true,
          "internalType": "address",
          "name": "to",
          "type": "address"
        },
        {
          "indexed": false,
          "internalType": "uint256",
          "name": "value",
          "type": "uint256"
        }
      ],
      "name": "Transfer",
      "type": "event"
    },
    {
      "inputs": [
        {
          "internalType": "address",
          "name": "owner",
          "type": "address"
        },
        {
          "internalType": "address",
          "name": "spender",
          "type": "address"
        }
      ],
      "name": "allowance",
      "outputs": [
        {
          "internalType": "uint256",
          "name": "",
          "type": "uint256"
        }
      ],
      "stateMutability": "view",
      "type": "function",
      "constant": true
    },
    {
      "inputs": [
        {
          "internalType": "address",
          "name": "spender",
          "type": "address"
        },
        {
          "internalType": "uint256",
          "name": "amount",
          "type": "uint256"
        }
      ],
      "name": "approve",
      "outputs": [
        {
          "internalType": "bool",
          "name": "",
          "type": "bool"
        }
      ],
      "stateMutability": "nonpayable",
      "type": "function"
    },
    {
      "inputs": [
        {
          "internalType": "address",
          "name": "account",
          "type": "address"
        }
      ],
      "name": "balanceOf",
      "outputs": [
        {
          "internalType": "uint256",
          "name": "",
          "type": "uint256"
        }
      ],
      "stateMutability": "view",
      "type": "function",
      "constant": true
    },
    {
      "inputs": [],
      "name": "decimals",
      "outputs": [
        {
          "internalType": "uint8",
          "name": "",
          "type": "uint8"
        }
      ],
      "stateMutability": "view",
      "type": "function",
      "constant": true
    },
    {
      "inputs": [
        {
          "internalType": "address",
          "name": "spender",
          "type": "address"
        },
        {
          "internalType": "uint256",
          "name": "subtractedValue",
          "type": "uint256"
        }
      ],
      "name": "decreaseAllowance",
      "outputs": [
        {
          "internalType": "bool",
          "name": "",
          "type": "bool"
        }
      ],
      "stateMutability": "nonpayable",
      "type": "function"
    },
    {
      "inputs": [
        {
          "internalType": "address",
          "name": "spender",
          "type": "address"
        },
        {
          "internalType": "uint256",
          "name": "addedValue",
          "type": "uint256"
        }
      ],
      "name": "increaseAllowance",
      "outputs": [
        {
          "internalType": "bool",
          "name": "",
          "type": "bool"
        }
      ],
      "stateMutability": "nonpayable",
      "type": "function"
    },
    {
      "inputs": [],
      "name": "mintAllocation",
      "outputs": [
        {
          "internalType": "uint256",
          "name": "",
          "type": "uint256"
        }
      ],
      "stateMutability": "view",
      "type": "function",
      "constant": true
    },
    {
      "inputs": [
        {
          "internalType": "address",
          "name": "",
          "type": "address"
        }
      ],
      "name": "mints",
      "outputs": [
        {
          "internalType": "uint256",
          "name": "",
          "type": "uint256"
        }
      ],
      "stateMutability": "view",
      "type": "function",
      "constant": true
    },
    {
      "inputs": [],
      "name": "name",
      "outputs": [
        {
          "internalType": "string",
          "name": "",
          "type": "string"
        }
      ],
      "stateMutability": "view",
      "type": "function",
      "constant": true
    },
    {
      "inputs": [],
      "name": "symbol",
      "outputs": [
        {
          "internalType": "string",
          "name": "",
          "type": "string"
        }
      ],
      "stateMutability": "view",
      "type": "function",
      "constant": true
    },
    {
      "inputs": [],
      "name": "totalSupply",
      "outputs": [
        {
          "internalType": "uint256",
          "name": "",
          "type": "uint256"
        }
      ],
      "stateMutability": "view",
      "type": "function",
      "constant": true
    },
    {
      "inputs": [
        {
          "internalType": "address",
          "name": "to",
          "type": "address"
        },
        {
          "internalType": "uint256",
          "name": "amount",
          "type": "uint256"
        }
      ],
      "name": "transfer",
      "outputs": [
        {
          "internalType": "bool",
          "name": "",
          "type": "bool"
        }
      ],
      "stateMutability": "nonpayable",
      "type": "function"
    },
    {
      "inputs": [
        {
          "internalType": "address",
          "name": "from",
          "type": "address"
        },
        {
          "internalType": "address",
          "name": "to",
          "type": "address"
        },
        {
          "internalType": "uint256",
          "name": "amount",
          "type": "uint256"
        }
      ],
      "name": "transferFrom",
      "outputs": [
        {
          "internalType": "bool",
          "name": "",
          "type": "bool"
        }
      ],
      "stateMutability": "nonpayable",
      "type": "function"
    },
    {
      "inputs": [
        {
          "internalType": "address",
          "name": "_address",
          "type": "address"
        }
      ],
      "name": "mint",
      "outputs": [],
      "stateMutability": "nonpayable",
      "type": "function"
    },
    {
      "inputs": [
        {
          "internalType": "address",
          "name": "from",
          "type": "address"
        },
        {
          "internalType": "uint256",
          "name": "amount",
          "type": "uint256"
        }
      ],
      "name": "charge",
      "outputs": [],
      "stateMutability": "nonpayable",
      "type": "function"
    }
  ],
  "bytecode": "0x6080604052620000146200015a60201b60201c565b600a62000022919062000474565b60c8620000309190620004c5565b6006553480156200004057600080fd5b506040518060400160405280600b81526020017f427569646c20546f6b656e0000000000000000000000000000000000000000008152506040518060400160405280600381526020017f42444c00000000000000000000000000000000000000000000000000000000008152508160039081620000be919062000780565b508060049081620000d0919062000780565b50505033600560006101000a81548173ffffffffffffffffffffffffffffffffffffffff021916908373ffffffffffffffffffffffffffffffffffffffff1602179055506200015433620001296200015a60201b60201c565b600a62000137919062000474565b633b9aca00620001489190620004c5565b6200016360201b60201c565b62000953565b60006012905090565b600073ffffffffffffffffffffffffffffffffffffffff168273ffffffffffffffffffffffffffffffffffffffff1603620001d5576040517f08c379a0000000000000000000000000000000000000000000000000000000008152600401620001cc90620008c8565b60405180910390fd5b620001e960008383620002d060201b60201c565b8060026000828254620001fd9190620008ea565b92505081905550806000808473ffffffffffffffffffffffffffffffffffffffff1673ffffffffffffffffffffffffffffffffffffffff168152602001908152602001600020600082825401925050819055508173ffffffffffffffffffffffffffffffffffffffff16600073ffffffffffffffffffffffffffffffffffffffff167fddf252ad1be2c89b69c2b068fc378daa952ba7f163c4a11628f55a4df523b3ef83604051620002b0919062000936565b60405180910390a3620002cc60008383620002d560201b60201c565b5050565b505050565b505050565b7f4e487b7100000000000000000000000000000000000000000000000000000000600052601160045260246000fd5b60008160011c9050919050565b6000808291508390505b6001851115620003685780860481111562000340576200033f620002da565b5b6001851615620003505780820291505b8081029050620003608562000309565b945062000320565b94509492505050565b60008262000383576001905062000456565b8162000393576000905062000456565b8160018114620003ac5760028114620003b757620003ed565b600191505062000456565b60ff841115620003cc57620003cb620002da565b5b8360020a915084821115620003e657620003e5620002da565b5b5062000456565b5060208310610133831016604e8410600b8410161715620004275782820a905083811115620004215762000420620002da565b5b62000456565b62000436848484600162000316565b9250905081840481111562000450576200044f620002da565b5b81810290505b9392505050565b6000819050919050565b600060ff82169050919050565b600062000481826200045d565b91506200048e8362000467565b9250620004bd7fffffffffffffffffffffffffffffffffffffffffffffffffffffffffffffffff848462000371565b905092915050565b6000620004d2826200045d565b9150620004df836200045d565b9250828202620004ef816200045d565b91508282048414831517620005095762000508620002da565b5b5092915050565b600081519050919050565b7f4e487b7100000000000000000000000000000000000000000000000000000000600052604160045260246000fd5b7f4e487b7100000000000000000000000000000000000000000000000000000000600052602260045260246000fd5b600060028204905060018216806200059257607f821691505b602082108103620005a857620005a76200054a565b5b50919050565b60008190508160005260206000209050919050565b60006020601f8301049050919050565b600082821b905092915050565b600060088302620006127fffffffffffffffffffffffffffffffffffffffffffffffffffffffffffffffff82620005d3565b6200061e8683620005d3565b95508019841693508086168417925050509392505050565b6000819050919050565b6000620006616200065b62000655846200045d565b62000636565b6200045d565b9050919050565b6000819050919050565b6200067d8362000640565b620006956200068c8262000668565b848454620005e0565b825550505050565b600090565b620006ac6200069d565b620006b981848462000672565b505050565b5b81811015620006e157620006d5600082620006a2565b600181019050620006bf565b5050565b601f8211156200073057620006fa81620005ae565b6200070584620005c3565b8101602085101562000715578190505b6200072d6200072485620005c3565b830182620006be565b50505b505050565b600082821c905092915050565b6000620007556000198460080262000735565b1980831691505092915050565b600062000770838362000742565b9150826002028217905092915050565b6200078b8262000510565b67ffffffffffffffff811115620007a757620007a66200051b565b5b620007b3825462000579565b620007c0828285620006e5565b600060209050601f831160018114620007f85760008415620007e3578287015190505b620007ef858262000762565b8655506200085f565b601f1984166200080886620005ae565b60005b8281101562000832578489015182556001820191506020850194506020810190506200080b565b868310156200085257848901516200084e601f89168262000742565b8355505b6001600288020188555050505b505050505050565b600082825260208201905092915050565b7f45524332303a206d696e7420746f20746865207a65726f206164647265737300600082015250565b6000620008b0601f8362000867565b9150620008bd8262000878565b602082019050919050565b60006020820190508181036000830152620008e381620008a1565b9050919050565b6000620008f7826200045d565b915062000904836200045d565b92508282019050808211156200091f576200091e620002da565b5b92915050565b62000930816200045d565b82525050565b60006020820190506200094d600083018462000925565b92915050565b61156380620009636000396000f3fe608060405234801561001057600080fd5b50600436106100f55760003560e01c80636a62784211610097578063a457c2d711610066578063a457c2d71461029a578063a9059cbb146102ca578063bc64a54d146102fa578063dd62ed3e14610318576100f5565b80636a6278421461021457806370a082311461023057806395d89b4114610260578063a3ffa9cd1461027e576100f5565b806323b872dd116100d357806323b872dd14610166578063313ce5671461019657806339509351146101b45780635660f851146101e4576100f5565b806306fdde03146100fa578063095ea7b31461011857806318160ddd14610148575b600080fd5b610102610348565b60405161010f9190610d9c565b60405180910390f35b610132600480360381019061012d9190610e57565b6103da565b60405161013f9190610eb2565b60405180910390f35b6101506103fd565b60405161015d9190610edc565b60405180910390f35b610180600480360381019061017b9190610ef7565b610407565b60405161018d9190610eb2565b60405180910390f35b61019e610436565b6040516101ab9190610f66565b60405180910390f35b6101ce60048036038101906101c99190610e57565b61043f565b6040516101db9190610eb2565b60405180910390f35b6101fe60048036038101906101f99190610f81565b610476565b60405161020b9190610edc565b60405180910390f35b61022e60048036038101906102299190610f81565b61048e565b005b61024a60048036038101906102459190610f81565b6105c4565b6040516102579190610edc565b60405180910390f35b61026861060c565b6040516102759190610d9c565b60405180910390f35b61029860048036038101906102939190610e57565b61069e565b005b6102b460048036038101906102af9190610e57565b610708565b6040516102c19190610eb2565b60405180910390f35b6102e460048036038101906102df9190610e57565b61077f565b6040516102f19190610eb2565b60405180910390f35b6103026107a2565b60405161030f9190610edc565b60405180910390f35b610332600480360381019061032d9190610fae565b6107a8565b60405161033f9190610edc565b60405180910390f35b6060600380546103579061101d565b80601f01602080910402602001604051908101604052809291908181526020018280546103839061101d565b80156103d05780601f106103a5576101008083540402835291602001916103d0565b820191906000526020600020905b8154815290600101906020018083116103b357829003601f168201915b5050505050905090565b6000806103e561082f565b90506103f2818585610837565b600191505092915050565b6000600254905090565b60008061041261082f565b905061041f858285610a00565b61042a858585610a8c565b60019150509392505050565b60006012905090565b60008061044a61082f565b905061046b81858561045c85896107a8565b610466919061107d565b610837565b600191505092915050565b60076020528060005260406000206000915090505481565b600654600760008373ffffffffffffffffffffffffffffffffffffffff1673ffffffffffffffffffffffffffffffffffffffff1681526020019081526020016000205410610511576040517f08c379a0000000000000000000000000000000000000000000000000000000008152600401610508906110fd565b60405180910390fd5b610540600560009054906101000a900473ffffffffffffffffffffffffffffffffffffffff1682600654610a8c565b600654600760008373ffffffffffffffffffffffffffffffffffffffff1673ffffffffffffffffffffffffffffffffffffffff168152602001908152602001600020819055507f30385c845b448a36257a6a1716e6ad2e1bc2cbe333cde1e69fe849ad6511adfe816006546040516105b992919061112c565b60405180910390a150565b60008060008373ffffffffffffffffffffffffffffffffffffffff1673ffffffffffffffffffffffffffffffffffffffff168152602001908152602001600020549050919050565b60606004805461061b9061101d565b80601f01602080910402602001604051908101604052809291908181526020018280546106479061101d565b80156106945780601f1061066957610100808354040283529160200191610694565b820191906000526020600020905b81548152906001019060200180831161067757829003601f168201915b5050505050905090565b6106cb82600560009054906101000a900473ffffffffffffffffffffffffffffffffffffffff1683610a8c565b7ff1c444ccb4378dbb8659f4ea38920ec0f501fc70c8299cc202055f62f33f190e82826040516106fc92919061112c565b60405180910390a15050565b60008061071361082f565b9050600061072182866107a8565b905083811015610766576040517f08c379a000000000000000000000000000000000000000000000000000000000815260040161075d906111c7565b60405180910390fd5b6107738286868403610837565b60019250505092915050565b60008061078a61082f565b9050610797818585610a8c565b600191505092915050565b60065481565b6000600160008473ffffffffffffffffffffffffffffffffffffffff1673ffffffffffffffffffffffffffffffffffffffff16815260200190815260200160002060008373ffffffffffffffffffffffffffffffffffffffff1673ffffffffffffffffffffffffffffffffffffffff16815260200190815260200160002054905092915050565b600033905090565b600073ffffffffffffffffffffffffffffffffffffffff168373ffffffffffffffffffffffffffffffffffffffff16036108a6576040517f08c379a000000000000000000000000000000000000000000000000000000000815260040161089d90611259565b60405180910390fd5b600073ffffffffffffffffffffffffffffffffffffffff168273ffffffffffffffffffffffffffffffffffffffff1603610915576040517f08c379a000000000000000000000000000000000000000000000000000000000815260040161090c906112eb565b60405180910390fd5b80600160008573ffffffffffffffffffffffffffffffffffffffff1673ffffffffffffffffffffffffffffffffffffffff16815260200190815260200160002060008473ffffffffffffffffffffffffffffffffffffffff1673ffffffffffffffffffffffffffffffffffffffff168152602001908152602001600020819055508173ffffffffffffffffffffffffffffffffffffffff168373ffffffffffffffffffffffffffffffffffffffff167f8c5be1e5ebec7d5bd14f71427d1e84f3dd0314c0f7b2291e5b200ac8c7c3b925836040516109f39190610edc565b60405180910390a3505050565b6000610a0c84846107a8565b90507fffffffffffffffffffffffffffffffffffffffffffffffffffffffffffffffff8114610a865781811015610a78576040517f08c379a0000000000000000000000000000000000000000000000000000000008152600401610a6f90611357565b60405180910390fd5b610a858484848403610837565b5b50505050565b600073ffffffffffffffffffffffffffffffffffffffff168373ffffffffffffffffffffffffffffffffffffffff1603610afb576040517f08c379a0000000000000000000000000000000000000000000000000000000008152600401610af2906113e9565b60405180910390fd5b600073ffffffffffffffffffffffffffffffffffffffff168273ffffffffffffffffffffffffffffffffffffffff1603610b6a576040517f08c379a0000000000000000000000000000000000000000000000000000000008152600401610b619061147b565b60405180910390fd5b610b75838383610d02565b60008060008573ffffffffffffffffffffffffffffffffffffffff1673ffffffffffffffffffffffffffffffffffffffff16815260200190815260200160002054905081811015610bfb576040517f08c379a0000000000000000000000000000000000000000000000000000000008152600401610bf29061150d565b60405180910390fd5b8181036000808673ffffffffffffffffffffffffffffffffffffffff1673ffffffffffffffffffffffffffffffffffffffff16815260200190815260200160002081905550816000808573ffffffffffffffffffffffffffffffffffffffff1673ffffffffffffffffffffffffffffffffffffffff168152602001908152602001600020600082825401925050819055508273ffffffffffffffffffffffffffffffffffffffff168473ffffffffffffffffffffffffffffffffffffffff167fddf252ad1be2c89b69c2b068fc378daa952ba7f163c4a11628f55a4df523b3ef84604051610ce99190610edc565b60405180910390a3610cfc848484610d07565b50505050565b505050565b505050565b600081519050919050565b600082825260208201905092915050565b60005b83811015610d46578082015181840152602081019050610d2b565b60008484015250505050565b6000601f19601f8301169050919050565b6000610d6e82610d0c565b610d788185610d17565b9350610d88818560208601610d28565b610d9181610d52565b840191505092915050565b60006020820190508181036000830152610db68184610d63565b905092915050565b600080fd5b600073ffffffffffffffffffffffffffffffffffffffff82169050919050565b6000610dee82610dc3565b9050919050565b610dfe81610de3565b8114610e0957600080fd5b50565b600081359050610e1b81610df5565b92915050565b6000819050919050565b610e3481610e21565b8114610e3f57600080fd5b50565b600081359050610e5181610e2b565b92915050565b60008060408385031215610e6e57610e6d610dbe565b5b6000610e7c85828601610e0c565b9250506020610e8d85828601610e42565b9150509250929050565b60008115159050919050565b610eac81610e97565b82525050565b6000602082019050610ec76000830184610ea3565b92915050565b610ed681610e21565b82525050565b6000602082019050610ef16000830184610ecd565b92915050565b600080600060608486031215610f1057610f0f610dbe565b5b6000610f1e86828701610e0c565b9350506020610f2f86828701610e0c565b9250506040610f4086828701610e42565b9150509250925092565b600060ff82169050919050565b610f6081610f4a565b82525050565b6000602082019050610f7b6000830184610f57565b92915050565b600060208284031215610f9757610f96610dbe565b5b6000610fa584828501610e0c565b91505092915050565b60008060408385031215610fc557610fc4610dbe565b5b6000610fd385828601610e0c565b9250506020610fe485828601610e0c565b9150509250929050565b7f4e487b7100000000000000000000000000000000000000000000000000000000600052602260045260246000fd5b6000600282049050600182168061103557607f821691505b60208210810361104857611047610fee565b5b50919050565b7f4e487b7100000000000000000000000000000000000000000000000000000000600052601160045260246000fd5b600061108882610e21565b915061109383610e21565b92508282019050808211156110ab576110aa61104e565b5b92915050565b7f596f752063616e2774206d696e74206d6f726520746f6b656e73000000000000600082015250565b60006110e7601a83610d17565b91506110f2826110b1565b602082019050919050565b60006020820190508181036000830152611116816110da565b9050919050565b61112681610de3565b82525050565b6000604082019050611141600083018561111d565b61114e6020830184610ecd565b9392505050565b7f45524332303a2064656372656173656420616c6c6f77616e63652062656c6f7760008201527f207a65726f000000000000000000000000000000000000000000000000000000602082015250565b60006111b1602583610d17565b91506111bc82611155565b604082019050919050565b600060208201905081810360008301526111e0816111a4565b9050919050565b7f45524332303a20617070726f76652066726f6d20746865207a65726f2061646460008201527f7265737300000000000000000000000000000000000000000000000000000000602082015250565b6000611243602483610d17565b915061124e826111e7565b604082019050919050565b6000602082019050818103600083015261127281611236565b9050919050565b7f45524332303a20617070726f766520746f20746865207a65726f20616464726560008201527f7373000000000000000000000000000000000000000000000000000000000000602082015250565b60006112d5602283610d17565b91506112e082611279565b604082019050919050565b60006020820190508181036000830152611304816112c8565b9050919050565b7f45524332303a20696e73756666696369656e7420616c6c6f77616e6365000000600082015250565b6000611341601d83610d17565b915061134c8261130b565b602082019050919050565b6000602082019050818103600083015261137081611334565b9050919050565b7f45524332303a207472616e736665722066726f6d20746865207a65726f20616460008201527f6472657373000000000000000000000000000000000000000000000000000000602082015250565b60006113d3602583610d17565b91506113de82611377565b604082019050919050565b60006020820190508181036000830152611402816113c6565b9050919050565b7f45524332303a207472616e7366657220746f20746865207a65726f206164647260008201527f6573730000000000000000000000000000000000000000000000000000000000602082015250565b6000611465602383610d17565b915061147082611409565b604082019050919050565b6000602082019050818103600083015261149481611458565b9050919050565b7f45524332303a207472616e7366657220616d6f756e742065786365656473206260008201527f616c616e63650000000000000000000000000000000000000000000000000000602082015250565b60006114f7602683610d17565b91506115028261149b565b604082019050919050565b60006020820190508181036000830152611526816114ea565b905091905056fea2646970667358221220071b68e02a11599ecb1a01bfbbadbc27a376beb915ad8a8b033912866092798664736f6c63430008110033",
  "immutableReferences": {},
  "source": "// SPDX-License-Identifier: MIT\r\npragma solidity ^0.8.17;\r\n\r\nimport \"./ERC20.sol\";\r\n\r\ncontract BdlToken is ERC20 {\r\n\r\n    address deployer;\r\n    uint256 public mintAllocation = 200 * 10 ** decimals();\r\n\r\n    mapping(address => uint256) public mints;\r\n\r\n    constructor() ERC20(\"Buidl Token\", \"BDL\") {\r\n        deployer = msg.sender;\r\n        _mint(msg.sender, 1000000000 * 10 ** decimals());\r\n    }\r\n\r\n    function mint(address _address) public {\r\n        require((mints[_address] < mintAllocation), \"You can't mint more tokens\");\r\n        _transfer(deployer, _address, mintAllocation);\r\n        mints[_address] = mintAllocation;\r\n        emit Minted(_address, mintAllocation);\r\n    }\r\n\r\n    // deducts token from user for a particular service\r\n    function charge(address from, uint256 amount) public {\r\n        _transfer(from, deployer, amount);\r\n        emit Charged(from, amount);\r\n    }\r\n\r\n    event Minted(address, uint256);\r\n    event Charged(address, uint256);\r\n\r\n}\r\n",
  "sourcePath": "C:\\Users\\Arogundade Ibrahim\\Documents\\web3\\Buidl\\contracts\\BdlToken.sol",
  "compiler": {
    "name": "solc",
    "version": "0.8.17+commit.8df45f5f.Emscripten.clang"
  },
  "schemaVersion": "3.4.10",
  "updatedAt": "2022-10-09T10:13:07.923Z",
  "networkType": "ethereum",
  "devdoc": {
    "kind": "dev",
    "methods": {
      "allowance(address,address)": {
        "details": "See {IERC20-allowance}."
      },
      "approve(address,uint256)": {
        "details": "See {IERC20-approve}. NOTE: If `amount` is the maximum `uint256`, the allowance is not updated on `transferFrom`. This is semantically equivalent to an infinite approval. Requirements: - `spender` cannot be the zero address."
      },
      "balanceOf(address)": {
        "details": "See {IERC20-balanceOf}."
      },
      "decimals()": {
        "details": "Returns the number of decimals used to get its user representation. For example, if `decimals` equals `2`, a balance of `505` tokens should be displayed to a user as `5.05` (`505 / 10 ** 2`). Tokens usually opt for a value of 18, imitating the relationship between Ether and Wei. This is the value {ERC20} uses, unless this function is overridden; NOTE: This information is only used for _display_ purposes: it in no way affects any of the arithmetic of the contract, including {IERC20-balanceOf} and {IERC20-transfer}."
      },
      "decreaseAllowance(address,uint256)": {
        "details": "Atomically decreases the allowance granted to `spender` by the caller. This is an alternative to {approve} that can be used as a mitigation for problems described in {IERC20-approve}. Emits an {Approval} event indicating the updated allowance. Requirements: - `spender` cannot be the zero address. - `spender` must have allowance for the caller of at least `subtractedValue`."
      },
      "increaseAllowance(address,uint256)": {
        "details": "Atomically increases the allowance granted to `spender` by the caller. This is an alternative to {approve} that can be used as a mitigation for problems described in {IERC20-approve}. Emits an {Approval} event indicating the updated allowance. Requirements: - `spender` cannot be the zero address."
      },
      "name()": {
        "details": "Returns the name of the token."
      },
      "symbol()": {
        "details": "Returns the symbol of the token, usually a shorter version of the name."
      },
      "totalSupply()": {
        "details": "See {IERC20-totalSupply}."
      },
      "transfer(address,uint256)": {
        "details": "See {IERC20-transfer}. Requirements: - `to` cannot be the zero address. - the caller must have a balance of at least `amount`."
      },
      "transferFrom(address,address,uint256)": {
        "details": "See {IERC20-transferFrom}. Emits an {Approval} event indicating the updated allowance. This is not required by the EIP. See the note at the beginning of {ERC20}. NOTE: Does not update the allowance if the current allowance is the maximum `uint256`. Requirements: - `from` and `to` cannot be the zero address. - `from` must have a balance of at least `amount`. - the caller must have allowance for ``from``'s tokens of at least `amount`."
      }
    },
    "version": 1
  },
  "userdoc": {
    "kind": "user",
    "methods": {},
    "version": 1
  }
}