{
  "contractName": "BdlToken",
  "abi": [
    {
      "inputs": [
        {
          "internalType": "contract ISuperfluid",
          "name": "host",
          "type": "address"
        }
      ],
      "stateMutability": "nonpayable",
      "type": "constructor"
    },
    {
      "inputs": [
        {
          "internalType": "uint256",
          "name": "_code",
          "type": "uint256"
        }
      ],
      "name": "ALREADY_EXISTS",
      "type": "error"
    },
    {
      "inputs": [
        {
          "internalType": "uint256",
          "name": "_code",
          "type": "uint256"
        }
      ],
      "name": "DOES_NOT_EXIST",
      "type": "error"
    },
    {
      "inputs": [
        {
          "internalType": "uint256",
          "name": "_code",
          "type": "uint256"
        }
      ],
      "name": "INSUFFICIENT_BALANCE",
      "type": "error"
    },
    {
      "inputs": [
        {
          "internalType": "uint256",
          "name": "_code",
          "type": "uint256"
        }
      ],
      "name": "ONLY_HOST",
      "type": "error"
    },
    {
      "inputs": [
        {
          "internalType": "uint256",
          "name": "_code",
          "type": "uint256"
        }
      ],
      "name": "ONLY_LISTED_AGREEMENT",
      "type": "error"
    },
    {
      "inputs": [],
      "name": "SUPER_TOKEN_CALLER_IS_NOT_OPERATOR_FOR_HOLDER",
      "type": "error"
    },
    {
      "inputs": [],
      "name": "SUPER_TOKEN_INFLATIONARY_DEFLATIONARY_NOT_SUPPORTED",
      "type": "error"
    },
    {
      "inputs": [],
      "name": "SUPER_TOKEN_NOT_ERC777_TOKENS_RECIPIENT",
      "type": "error"
    },
    {
      "inputs": [],
      "name": "SUPER_TOKEN_NO_UNDERLYING_TOKEN",
      "type": "error"
    },
    {
      "inputs": [],
      "name": "SUPER_TOKEN_ONLY_SELF",
      "type": "error"
    },
    {
      "inputs": [
        {
          "internalType": "uint256",
          "name": "_code",
          "type": "uint256"
        }
      ],
      "name": "ZERO_ADDRESS",
      "type": "error"
    },
    {
      "anonymous": false,
      "inputs": [
        {
          "indexed": true,
          "internalType": "address",
          "name": "agreementClass",
          "type": "address"
        },
        {
          "indexed": false,
          "internalType": "bytes32",
          "name": "id",
          "type": "bytes32"
        },
        {
          "indexed": false,
          "internalType": "bytes32[]",
          "name": "data",
          "type": "bytes32[]"
        }
      ],
      "name": "AgreementCreated",
      "type": "event"
    },
    {
      "anonymous": false,
      "inputs": [
        {
          "indexed": true,
          "internalType": "address",
          "name": "agreementClass",
          "type": "address"
        },
        {
          "indexed": false,
          "internalType": "bytes32",
          "name": "id",
          "type": "bytes32"
        },
        {
          "indexed": true,
          "internalType": "address",
          "name": "penaltyAccount",
          "type": "address"
        },
        {
          "indexed": true,
          "internalType": "address",
          "name": "rewardAccount",
          "type": "address"
        },
        {
          "indexed": false,
          "internalType": "uint256",
          "name": "rewardAmount",
          "type": "uint256"
        }
      ],
      "name": "AgreementLiquidated",
      "type": "event"
    },
    {
      "anonymous": false,
      "inputs": [
        {
          "indexed": false,
          "internalType": "address",
          "name": "liquidatorAccount",
          "type": "address"
        },
        {
          "indexed": true,
          "internalType": "address",
          "name": "agreementClass",
          "type": "address"
        },
        {
          "indexed": false,
          "internalType": "bytes32",
          "name": "id",
          "type": "bytes32"
        },
        {
          "indexed": true,
          "internalType": "address",
          "name": "penaltyAccount",
          "type": "address"
        },
        {
          "indexed": true,
          "internalType": "address",
          "name": "bondAccount",
          "type": "address"
        },
        {
          "indexed": false,
          "internalType": "uint256",
          "name": "rewardAmount",
          "type": "uint256"
        },
        {
          "indexed": false,
          "internalType": "uint256",
          "name": "bailoutAmount",
          "type": "uint256"
        }
      ],
      "name": "AgreementLiquidatedBy",
      "type": "event"
    },
    {
      "anonymous": false,
      "inputs": [
        {
          "indexed": true,
          "internalType": "address",
          "name": "agreementClass",
          "type": "address"
        },
        {
          "indexed": false,
          "internalType": "bytes32",
          "name": "id",
          "type": "bytes32"
        },
        {
          "indexed": true,
          "internalType": "address",
          "name": "liquidatorAccount",
          "type": "address"
        },
        {
          "indexed": true,
          "internalType": "address",
          "name": "targetAccount",
          "type": "address"
        },
        {
          "indexed": false,
          "internalType": "address",
          "name": "rewardAmountReceiver",
          "type": "address"
        },
        {
          "indexed": false,
          "internalType": "uint256",
          "name": "rewardAmount",
          "type": "uint256"
        },
        {
          "indexed": false,
          "internalType": "int256",
          "name": "targetAccountBalanceDelta",
          "type": "int256"
        },
        {
          "indexed": false,
          "internalType": "bytes",
          "name": "liquidationTypeData",
          "type": "bytes"
        }
      ],
      "name": "AgreementLiquidatedV2",
      "type": "event"
    },
    {
      "anonymous": false,
      "inputs": [
        {
          "indexed": true,
          "internalType": "address",
          "name": "agreementClass",
          "type": "address"
        },
        {
          "indexed": true,
          "internalType": "address",
          "name": "account",
          "type": "address"
        },
        {
          "indexed": false,
          "internalType": "uint256",
          "name": "slotId",
          "type": "uint256"
        }
      ],
      "name": "AgreementStateUpdated",
      "type": "event"
    },
    {
      "anonymous": false,
      "inputs": [
        {
          "indexed": true,
          "internalType": "address",
          "name": "agreementClass",
          "type": "address"
        },
        {
          "indexed": false,
          "internalType": "bytes32",
          "name": "id",
          "type": "bytes32"
        }
      ],
      "name": "AgreementTerminated",
      "type": "event"
    },
    {
      "anonymous": false,
      "inputs": [
        {
          "indexed": true,
          "internalType": "address",
          "name": "agreementClass",
          "type": "address"
        },
        {
          "indexed": false,
          "internalType": "bytes32",
          "name": "id",
          "type": "bytes32"
        },
        {
          "indexed": false,
          "internalType": "bytes32[]",
          "name": "data",
          "type": "bytes32[]"
        }
      ],
      "name": "AgreementUpdated",
      "type": "event"
    },
    {
      "anonymous": false,
      "inputs": [
        {
          "indexed": true,
          "internalType": "address",
          "name": "owner",
          "type": "address"
        },
        {
          "indexed": true,
          "internalType": "address",
          "name": "spender",
          "type": "address"
        },
        {
          "indexed": false,
          "internalType": "uint256",
          "name": "value",
          "type": "uint256"
        }
      ],
      "name": "Approval",
      "type": "event"
    },
    {
      "anonymous": false,
      "inputs": [
        {
          "indexed": true,
          "internalType": "address",
          "name": "operator",
          "type": "address"
        },
        {
          "indexed": true,
          "internalType": "address",
          "name": "tokenHolder",
          "type": "address"
        }
      ],
      "name": "AuthorizedOperator",
      "type": "event"
    },
    {
      "anonymous": false,
      "inputs": [
        {
          "indexed": true,
          "internalType": "address",
          "name": "bailoutAccount",
          "type": "address"
        },
        {
          "indexed": false,
          "internalType": "uint256",
          "name": "bailoutAmount",
          "type": "uint256"
        }
      ],
      "name": "Bailout",
      "type": "event"
    },
    {
      "anonymous": false,
      "inputs": [
        {
          "indexed": true,
          "internalType": "address",
          "name": "operator",
          "type": "address"
        },
        {
          "indexed": true,
          "internalType": "address",
          "name": "from",
          "type": "address"
        },
        {
          "indexed": false,
          "internalType": "uint256",
          "name": "amount",
          "type": "uint256"
        },
        {
          "indexed": false,
          "internalType": "bytes",
          "name": "data",
          "type": "bytes"
        },
        {
          "indexed": false,
          "internalType": "bytes",
          "name": "operatorData",
          "type": "bytes"
        }
      ],
      "name": "Burned",
      "type": "event"
    },
    {
      "anonymous": false,
      "inputs": [
        {
          "indexed": false,
          "internalType": "bytes32",
          "name": "uuid",
          "type": "bytes32"
        },
        {
          "indexed": false,
          "internalType": "address",
          "name": "codeAddress",
          "type": "address"
        }
      ],
      "name": "CodeUpdated",
      "type": "event"
    },
    {
      "anonymous": false,
      "inputs": [
        {
          "indexed": false,
          "internalType": "uint8",
          "name": "version",
          "type": "uint8"
        }
      ],
      "name": "Initialized",
      "type": "event"
    },
    {
      "anonymous": false,
      "inputs": [
        {
          "indexed": true,
          "internalType": "address",
          "name": "operator",
          "type": "address"
        },
        {
          "indexed": true,
          "internalType": "address",
          "name": "to",
          "type": "address"
        },
        {
          "indexed": false,
          "internalType": "uint256",
          "name": "amount",
          "type": "uint256"
        },
        {
          "indexed": false,
          "internalType": "bytes",
          "name": "data",
          "type": "bytes"
        },
        {
          "indexed": false,
          "internalType": "bytes",
          "name": "operatorData",
          "type": "bytes"
        }
      ],
      "name": "Minted",
      "type": "event"
    },
    {
      "anonymous": false,
      "inputs": [
        {
          "indexed": true,
          "internalType": "address",
          "name": "operator",
          "type": "address"
        },
        {
          "indexed": true,
          "internalType": "address",
          "name": "tokenHolder",
          "type": "address"
        }
      ],
      "name": "RevokedOperator",
      "type": "event"
    },
    {
      "anonymous": false,
      "inputs": [
        {
          "indexed": true,
          "internalType": "address",
          "name": "operator",
          "type": "address"
        },
        {
          "indexed": true,
          "internalType": "address",
          "name": "from",
          "type": "address"
        },
        {
          "indexed": true,
          "internalType": "address",
          "name": "to",
          "type": "address"
        },
        {
          "indexed": false,
          "internalType": "uint256",
          "name": "amount",
          "type": "uint256"
        },
        {
          "indexed": false,
          "internalType": "bytes",
          "name": "data",
          "type": "bytes"
        },
        {
          "indexed": false,
          "internalType": "bytes",
          "name": "operatorData",
          "type": "bytes"
        }
      ],
      "name": "Sent",
      "type": "event"
    },
    {
      "anonymous": false,
      "inputs": [
        {
          "indexed": true,
          "internalType": "address",
          "name": "account",
          "type": "address"
        },
        {
          "indexed": false,
          "internalType": "uint256",
          "name": "amount",
          "type": "uint256"
        }
      ],
      "name": "TokenDowngraded",
      "type": "event"
    },
    {
      "anonymous": false,
      "inputs": [
        {
          "indexed": true,
          "internalType": "address",
          "name": "account",
          "type": "address"
        },
        {
          "indexed": false,
          "internalType": "uint256",
          "name": "amount",
          "type": "uint256"
        }
      ],
      "name": "TokenUpgraded",
      "type": "event"
    },
    {
      "anonymous": false,
      "inputs": [
        {
          "indexed": true,
          "internalType": "address",
          "name": "from",
          "type": "address"
        },
        {
          "indexed": true,
          "internalType": "address",
          "name": "to",
          "type": "address"
        },
        {
          "indexed": false,
          "internalType": "uint256",
          "name": "value",
          "type": "uint256"
        }
      ],
      "name": "Transfer",
      "type": "event"
    },
    {
      "inputs": [],
      "name": "castrate",
      "outputs": [],
      "stateMutability": "nonpayable",
      "type": "function"
    },
    {
      "inputs": [
        {
          "internalType": "bytes32",
          "name": "id",
          "type": "bytes32"
        },
        {
          "internalType": "bytes32[]",
          "name": "data",
          "type": "bytes32[]"
        }
      ],
      "name": "createAgreement",
      "outputs": [],
      "stateMutability": "nonpayable",
      "type": "function"
    },
    {
      "inputs": [
        {
          "internalType": "address",
          "name": "account",
          "type": "address"
        }
      ],
      "name": "getAccountActiveAgreements",
      "outputs": [
        {
          "internalType": "contract ISuperAgreement[]",
          "name": "",
          "type": "address[]"
        }
      ],
      "stateMutability": "view",
      "type": "function"
    },
    {
      "inputs": [
        {
          "internalType": "address",
          "name": "agreementClass",
          "type": "address"
        },
        {
          "internalType": "bytes32",
          "name": "id",
          "type": "bytes32"
        },
        {
          "internalType": "uint256",
          "name": "dataLength",
          "type": "uint256"
        }
      ],
      "name": "getAgreementData",
      "outputs": [
        {
          "internalType": "bytes32[]",
          "name": "data",
          "type": "bytes32[]"
        }
      ],
      "stateMutability": "view",
      "type": "function"
    },
    {
      "inputs": [
        {
          "internalType": "address",
          "name": "agreementClass",
          "type": "address"
        },
        {
          "internalType": "address",
          "name": "account",
          "type": "address"
        },
        {
          "internalType": "uint256",
          "name": "slotId",
          "type": "uint256"
        },
        {
          "internalType": "uint256",
          "name": "dataLength",
          "type": "uint256"
        }
      ],
      "name": "getAgreementStateSlot",
      "outputs": [
        {
          "internalType": "bytes32[]",
          "name": "slotData",
          "type": "bytes32[]"
        }
      ],
      "stateMutability": "view",
      "type": "function"
    },
    {
      "inputs": [],
      "name": "getCodeAddress",
      "outputs": [
        {
          "internalType": "address",
          "name": "codeAddress",
          "type": "address"
        }
      ],
      "stateMutability": "view",
      "type": "function"
    },
    {
      "inputs": [],
      "name": "getHost",
      "outputs": [
        {
          "internalType": "address",
          "name": "host",
          "type": "address"
        }
      ],
      "stateMutability": "view",
      "type": "function"
    },
    {
      "inputs": [
        {
          "internalType": "address",
          "name": "account",
          "type": "address"
        },
        {
          "internalType": "uint256",
          "name": "timestamp",
          "type": "uint256"
        }
      ],
      "name": "isAccountCritical",
      "outputs": [
        {
          "internalType": "bool",
          "name": "isCritical",
          "type": "bool"
        }
      ],
      "stateMutability": "view",
      "type": "function"
    },
    {
      "inputs": [
        {
          "internalType": "address",
          "name": "account",
          "type": "address"
        }
      ],
      "name": "isAccountCriticalNow",
      "outputs": [
        {
          "internalType": "bool",
          "name": "isCritical",
          "type": "bool"
        }
      ],
      "stateMutability": "view",
      "type": "function"
    },
    {
      "inputs": [
        {
          "internalType": "address",
          "name": "account",
          "type": "address"
        },
        {
          "internalType": "uint256",
          "name": "timestamp",
          "type": "uint256"
        }
      ],
      "name": "isAccountSolvent",
      "outputs": [
        {
          "internalType": "bool",
          "name": "isSolvent",
          "type": "bool"
        }
      ],
      "stateMutability": "view",
      "type": "function"
    },
    {
      "inputs": [
        {
          "internalType": "address",
          "name": "account",
          "type": "address"
        }
      ],
      "name": "isAccountSolventNow",
      "outputs": [
        {
          "internalType": "bool",
          "name": "isSolvent",
          "type": "bool"
        }
      ],
      "stateMutability": "view",
      "type": "function"
    },
    {
      "inputs": [
        {
          "internalType": "bytes32",
          "name": "id",
          "type": "bytes32"
        },
        {
          "internalType": "bytes",
          "name": "liquidationTypeData",
          "type": "bytes"
        },
        {
          "internalType": "address",
          "name": "liquidatorAccount",
          "type": "address"
        },
        {
          "internalType": "bool",
          "name": "useDefaultRewardAccount",
          "type": "bool"
        },
        {
          "internalType": "address",
          "name": "targetAccount",
          "type": "address"
        },
        {
          "internalType": "uint256",
          "name": "rewardAmount",
          "type": "uint256"
        },
        {
          "internalType": "int256",
          "name": "targetAccountBalanceDelta",
          "type": "int256"
        }
      ],
      "name": "makeLiquidationPayoutsV2",
      "outputs": [],
      "stateMutability": "nonpayable",
      "type": "function"
    },
    {
      "inputs": [
        {
          "internalType": "address",
          "name": "account",
          "type": "address"
        },
        {
          "internalType": "uint256",
          "name": "timestamp",
          "type": "uint256"
        }
      ],
      "name": "realtimeBalanceOf",
      "outputs": [
        {
          "internalType": "int256",
          "name": "availableBalance",
          "type": "int256"
        },
        {
          "internalType": "uint256",
          "name": "deposit",
          "type": "uint256"
        },
        {
          "internalType": "uint256",
          "name": "owedDeposit",
          "type": "uint256"
        }
      ],
      "stateMutability": "view",
      "type": "function"
    },
    {
      "inputs": [
        {
          "internalType": "address",
          "name": "account",
          "type": "address"
        }
      ],
      "name": "realtimeBalanceOfNow",
      "outputs": [
        {
          "internalType": "int256",
          "name": "availableBalance",
          "type": "int256"
        },
        {
          "internalType": "uint256",
          "name": "deposit",
          "type": "uint256"
        },
        {
          "internalType": "uint256",
          "name": "owedDeposit",
          "type": "uint256"
        },
        {
          "internalType": "uint256",
          "name": "timestamp",
          "type": "uint256"
        }
      ],
      "stateMutability": "view",
      "type": "function"
    },
    {
      "inputs": [
        {
          "internalType": "address",
          "name": "account",
          "type": "address"
        },
        {
          "internalType": "int256",
          "name": "delta",
          "type": "int256"
        }
      ],
      "name": "settleBalance",
      "outputs": [],
      "stateMutability": "nonpayable",
      "type": "function"
    },
    {
      "inputs": [
        {
          "internalType": "bytes32",
          "name": "id",
          "type": "bytes32"
        },
        {
          "internalType": "uint256",
          "name": "dataLength",
          "type": "uint256"
        }
      ],
      "name": "terminateAgreement",
      "outputs": [],
      "stateMutability": "nonpayable",
      "type": "function"
    },
    {
      "inputs": [
        {
          "internalType": "bytes32",
          "name": "id",
          "type": "bytes32"
        },
        {
          "internalType": "bytes32[]",
          "name": "data",
          "type": "bytes32[]"
        }
      ],
      "name": "updateAgreementData",
      "outputs": [],
      "stateMutability": "nonpayable",
      "type": "function"
    },
    {
      "inputs": [
        {
          "internalType": "address",
          "name": "account",
          "type": "address"
        },
        {
          "internalType": "uint256",
          "name": "slotId",
          "type": "uint256"
        },
        {
          "internalType": "bytes32[]",
          "name": "slotData",
          "type": "bytes32[]"
        }
      ],
      "name": "updateAgreementStateSlot",
      "outputs": [],
      "stateMutability": "nonpayable",
      "type": "function"
    },
    {
      "inputs": [
        {
          "internalType": "contract IERC20",
          "name": "underlyingToken",
          "type": "address"
        },
        {
          "internalType": "uint8",
          "name": "underlyingDecimals",
          "type": "uint8"
        },
        {
          "internalType": "string",
          "name": "n",
          "type": "string"
        },
        {
          "internalType": "string",
          "name": "s",
          "type": "string"
        }
      ],
      "name": "initialize",
      "outputs": [],
      "stateMutability": "nonpayable",
      "type": "function"
    },
    {
      "inputs": [],
      "name": "proxiableUUID",
      "outputs": [
        {
          "internalType": "bytes32",
          "name": "",
          "type": "bytes32"
        }
      ],
      "stateMutability": "pure",
      "type": "function"
    },
    {
      "inputs": [
        {
          "internalType": "address",
          "name": "newAddress",
          "type": "address"
        }
      ],
      "name": "updateCode",
      "outputs": [],
      "stateMutability": "nonpayable",
      "type": "function"
    },
    {
      "inputs": [],
      "name": "name",
      "outputs": [
        {
          "internalType": "string",
          "name": "",
          "type": "string"
        }
      ],
      "stateMutability": "view",
      "type": "function"
    },
    {
      "inputs": [],
      "name": "symbol",
      "outputs": [
        {
          "internalType": "string",
          "name": "",
          "type": "string"
        }
      ],
      "stateMutability": "view",
      "type": "function"
    },
    {
      "inputs": [],
      "name": "decimals",
      "outputs": [
        {
          "internalType": "uint8",
          "name": "",
          "type": "uint8"
        }
      ],
      "stateMutability": "pure",
      "type": "function"
    },
    {
      "inputs": [],
      "name": "totalSupply",
      "outputs": [
        {
          "internalType": "uint256",
          "name": "",
          "type": "uint256"
        }
      ],
      "stateMutability": "view",
      "type": "function"
    },
    {
      "inputs": [
        {
          "internalType": "address",
          "name": "account",
          "type": "address"
        }
      ],
      "name": "balanceOf",
      "outputs": [
        {
          "internalType": "uint256",
          "name": "balance",
          "type": "uint256"
        }
      ],
      "stateMutability": "view",
      "type": "function"
    },
    {
      "inputs": [
        {
          "internalType": "address",
          "name": "recipient",
          "type": "address"
        },
        {
          "internalType": "uint256",
          "name": "amount",
          "type": "uint256"
        }
      ],
      "name": "transfer",
      "outputs": [
        {
          "internalType": "bool",
          "name": "",
          "type": "bool"
        }
      ],
      "stateMutability": "nonpayable",
      "type": "function"
    },
    {
      "inputs": [
        {
          "internalType": "address",
          "name": "account",
          "type": "address"
        },
        {
          "internalType": "address",
          "name": "spender",
          "type": "address"
        }
      ],
      "name": "allowance",
      "outputs": [
        {
          "internalType": "uint256",
          "name": "",
          "type": "uint256"
        }
      ],
      "stateMutability": "view",
      "type": "function"
    },
    {
      "inputs": [
        {
          "internalType": "address",
          "name": "spender",
          "type": "address"
        },
        {
          "internalType": "uint256",
          "name": "amount",
          "type": "uint256"
        }
      ],
      "name": "approve",
      "outputs": [
        {
          "internalType": "bool",
          "name": "",
          "type": "bool"
        }
      ],
      "stateMutability": "nonpayable",
      "type": "function"
    },
    {
      "inputs": [
        {
          "internalType": "address",
          "name": "owner",
          "type": "address"
        },
        {
          "internalType": "address",
          "name": "spender",
          "type": "address"
        },
        {
          "internalType": "uint256",
          "name": "amount",
          "type": "uint256"
        }
      ],
      "name": "approve",
      "outputs": [],
      "stateMutability": "nonpayable",
      "type": "function"
    },
    {
      "inputs": [
        {
          "internalType": "address",
          "name": "holder",
          "type": "address"
        },
        {
          "internalType": "address",
          "name": "recipient",
          "type": "address"
        },
        {
          "internalType": "uint256",
          "name": "amount",
          "type": "uint256"
        }
      ],
      "name": "transferFrom",
      "outputs": [
        {
          "internalType": "bool",
          "name": "",
          "type": "bool"
        }
      ],
      "stateMutability": "nonpayable",
      "type": "function"
    },
    {
      "inputs": [
        {
          "internalType": "address",
          "name": "spender",
          "type": "address"
        },
        {
          "internalType": "uint256",
          "name": "addedValue",
          "type": "uint256"
        }
      ],
      "name": "increaseAllowance",
      "outputs": [
        {
          "internalType": "bool",
          "name": "",
          "type": "bool"
        }
      ],
      "stateMutability": "nonpayable",
      "type": "function"
    },
    {
      "inputs": [
        {
          "internalType": "address",
          "name": "spender",
          "type": "address"
        },
        {
          "internalType": "uint256",
          "name": "subtractedValue",
          "type": "uint256"
        }
      ],
      "name": "decreaseAllowance",
      "outputs": [
        {
          "internalType": "bool",
          "name": "",
          "type": "bool"
        }
      ],
      "stateMutability": "nonpayable",
      "type": "function"
    },
    {
      "inputs": [],
      "name": "granularity",
      "outputs": [
        {
          "internalType": "uint256",
          "name": "",
          "type": "uint256"
        }
      ],
      "stateMutability": "pure",
      "type": "function"
    },
    {
      "inputs": [
        {
          "internalType": "address",
          "name": "recipient",
          "type": "address"
        },
        {
          "internalType": "uint256",
          "name": "amount",
          "type": "uint256"
        },
        {
          "internalType": "bytes",
          "name": "data",
          "type": "bytes"
        }
      ],
      "name": "send",
      "outputs": [],
      "stateMutability": "nonpayable",
      "type": "function"
    },
    {
      "inputs": [
        {
          "internalType": "uint256",
          "name": "amount",
          "type": "uint256"
        },
        {
          "internalType": "bytes",
          "name": "data",
          "type": "bytes"
        }
      ],
      "name": "burn",
      "outputs": [],
      "stateMutability": "nonpayable",
      "type": "function"
    },
    {
      "inputs": [
        {
          "internalType": "address",
          "name": "operator",
          "type": "address"
        },
        {
          "internalType": "address",
          "name": "tokenHolder",
          "type": "address"
        }
      ],
      "name": "isOperatorFor",
      "outputs": [
        {
          "internalType": "bool",
          "name": "",
          "type": "bool"
        }
      ],
      "stateMutability": "view",
      "type": "function"
    },
    {
      "inputs": [
        {
          "internalType": "address",
          "name": "operator",
          "type": "address"
        }
      ],
      "name": "authorizeOperator",
      "outputs": [],
      "stateMutability": "nonpayable",
      "type": "function"
    },
    {
      "inputs": [
        {
          "internalType": "address",
          "name": "operator",
          "type": "address"
        }
      ],
      "name": "revokeOperator",
      "outputs": [],
      "stateMutability": "nonpayable",
      "type": "function"
    },
    {
      "inputs": [],
      "name": "defaultOperators",
      "outputs": [
        {
          "internalType": "address[]",
          "name": "",
          "type": "address[]"
        }
      ],
      "stateMutability": "view",
      "type": "function"
    },
    {
      "inputs": [
        {
          "internalType": "address",
          "name": "sender",
          "type": "address"
        },
        {
          "internalType": "address",
          "name": "recipient",
          "type": "address"
        },
        {
          "internalType": "uint256",
          "name": "amount",
          "type": "uint256"
        },
        {
          "internalType": "bytes",
          "name": "data",
          "type": "bytes"
        },
        {
          "internalType": "bytes",
          "name": "operatorData",
          "type": "bytes"
        }
      ],
      "name": "operatorSend",
      "outputs": [],
      "stateMutability": "nonpayable",
      "type": "function"
    },
    {
      "inputs": [
        {
          "internalType": "address",
          "name": "account",
          "type": "address"
        },
        {
          "internalType": "uint256",
          "name": "amount",
          "type": "uint256"
        },
        {
          "internalType": "bytes",
          "name": "data",
          "type": "bytes"
        },
        {
          "internalType": "bytes",
          "name": "operatorData",
          "type": "bytes"
        }
      ],
      "name": "operatorBurn",
      "outputs": [],
      "stateMutability": "nonpayable",
      "type": "function"
    },
    {
      "inputs": [
        {
          "internalType": "address",
          "name": "account",
          "type": "address"
        },
        {
          "internalType": "uint256",
          "name": "amount",
          "type": "uint256"
        },
        {
          "internalType": "bytes",
          "name": "userData",
          "type": "bytes"
        }
      ],
      "name": "selfMint",
      "outputs": [],
      "stateMutability": "nonpayable",
      "type": "function"
    },
    {
      "inputs": [
        {
          "internalType": "address",
          "name": "account",
          "type": "address"
        },
        {
          "internalType": "uint256",
          "name": "amount",
          "type": "uint256"
        },
        {
          "internalType": "bytes",
          "name": "userData",
          "type": "bytes"
        }
      ],
      "name": "selfBurn",
      "outputs": [],
      "stateMutability": "nonpayable",
      "type": "function"
    },
    {
      "inputs": [
        {
          "internalType": "address",
          "name": "account",
          "type": "address"
        },
        {
          "internalType": "address",
          "name": "spender",
          "type": "address"
        },
        {
          "internalType": "uint256",
          "name": "amount",
          "type": "uint256"
        }
      ],
      "name": "selfApproveFor",
      "outputs": [],
      "stateMutability": "nonpayable",
      "type": "function"
    },
    {
      "inputs": [
        {
          "internalType": "address",
          "name": "holder",
          "type": "address"
        },
        {
          "internalType": "address",
          "name": "spender",
          "type": "address"
        },
        {
          "internalType": "address",
          "name": "recipient",
          "type": "address"
        },
        {
          "internalType": "uint256",
          "name": "amount",
          "type": "uint256"
        }
      ],
      "name": "selfTransferFrom",
      "outputs": [],
      "stateMutability": "nonpayable",
      "type": "function"
    },
    {
      "inputs": [
        {
          "internalType": "address",
          "name": "recipient",
          "type": "address"
        }
      ],
      "name": "transferAll",
      "outputs": [],
      "stateMutability": "nonpayable",
      "type": "function"
    },
    {
      "inputs": [],
      "name": "getUnderlyingToken",
      "outputs": [
        {
          "internalType": "address",
          "name": "",
          "type": "address"
        }
      ],
      "stateMutability": "view",
      "type": "function"
    },
    {
      "inputs": [
        {
          "internalType": "uint256",
          "name": "amount",
          "type": "uint256"
        }
      ],
      "name": "upgrade",
      "outputs": [],
      "stateMutability": "nonpayable",
      "type": "function"
    },
    {
      "inputs": [
        {
          "internalType": "address",
          "name": "to",
          "type": "address"
        },
        {
          "internalType": "uint256",
          "name": "amount",
          "type": "uint256"
        },
        {
          "internalType": "bytes",
          "name": "data",
          "type": "bytes"
        }
      ],
      "name": "upgradeTo",
      "outputs": [],
      "stateMutability": "nonpayable",
      "type": "function"
    },
    {
      "inputs": [
        {
          "internalType": "uint256",
          "name": "amount",
          "type": "uint256"
        }
      ],
      "name": "downgrade",
      "outputs": [],
      "stateMutability": "nonpayable",
      "type": "function"
    },
    {
      "inputs": [
        {
          "internalType": "address",
          "name": "account",
          "type": "address"
        },
        {
          "internalType": "address",
          "name": "spender",
          "type": "address"
        },
        {
          "internalType": "uint256",
          "name": "amount",
          "type": "uint256"
        }
      ],
      "name": "operationApprove",
      "outputs": [],
      "stateMutability": "nonpayable",
      "type": "function"
    },
    {
      "inputs": [
        {
          "internalType": "address",
          "name": "account",
          "type": "address"
        },
        {
          "internalType": "address",
          "name": "spender",
          "type": "address"
        },
        {
          "internalType": "address",
          "name": "recipient",
          "type": "address"
        },
        {
          "internalType": "uint256",
          "name": "amount",
          "type": "uint256"
        }
      ],
      "name": "operationTransferFrom",
      "outputs": [],
      "stateMutability": "nonpayable",
      "type": "function"
    },
    {
      "inputs": [
        {
          "internalType": "address",
          "name": "account",
          "type": "address"
        },
        {
          "internalType": "uint256",
          "name": "amount",
          "type": "uint256"
        }
      ],
      "name": "operationUpgrade",
      "outputs": [],
      "stateMutability": "nonpayable",
      "type": "function"
    },
    {
      "inputs": [
        {
          "internalType": "address",
          "name": "account",
          "type": "address"
        },
        {
          "internalType": "uint256",
          "name": "amount",
          "type": "uint256"
        }
      ],
      "name": "operationDowngrade",
      "outputs": [],
      "stateMutability": "nonpayable",
      "type": "function"
    }
  ],
  "bytecode": "0x60a06040523480156200001157600080fd5b5060405162004a7238038062004a72833981016040819052620000349162000058565b6001600160a01b0316608052601680546001600160a01b031916331790556200008a565b6000602082840312156200006b57600080fd5b81516001600160a01b03811681146200008357600080fd5b9392505050565b6080516149636200010f6000396000818161043d01528181610b2701528181610b9a01528181610e4301528181610fa20152818161108a01528181611375015281816114d5015281816116a001528181611ac401528181611b8701528181611c1301528181612428015281816124d801528181613719015261391201526149636000f3fe608060405234801561001057600080fd5b506004361061036d5760003560e01c806362ad1b83116101d3578063b84cdd4a11610104578063dd62ed3e116100a2578063ee719bc81161007c578063ee719bc8146107d0578063fad8b32a146107e1578063fc673c4f146107f4578063fe9d93031461080757600080fd5b8063dd62ed3e14610756578063e1f21c671461078f578063eb3537cc146107a257600080fd5b8063ca789464116100de578063ca7894641461070a578063cf97256d1461071d578063d95b637114610730578063d9d078d61461074357600080fd5b8063b84cdd4a146106d1578063bb0d196e146106e4578063c68d4283146106f757600080fd5b80639903ad3811610171578063a1b2bf8b1161014b578063a1b2bf8b14610685578063a3a7e7f314610698578063a457c2d7146106ab578063a9059cbb146106be57600080fd5b80639903ad38146106575780639bd9bbc61461065f5780639d8767411461067257600080fd5b806370a08231116101ad57806370a082311461061657806379359f6f14610629578063959b8c3f1461063c57806395d89b411461064f57600080fd5b806362ad1b83146105dd57806366a12fb6146105f05780636c2d9f2f1461060357600080fd5b80632ec8eec7116102ad578063469519541161024b57806352d1902d1161022557806352d1902d1461058a578063556f0dc7146105b05780635b9d09cc146105b757806362aa5287146105ca57600080fd5b8063469519541461054f5780634b61cc331461056257806350d75d251461058257600080fd5b80633950935111610287578063395093511461050357806341b706be1461051657806342fe09801461052957806345977d031461053c57600080fd5b80632ec8eec7146104ae578063313ce567146104e1578063386fa221146104f057600080fd5b806316d055d61161031a57806320bc4425116102f457806320bc44251461043b57806323b872dd14610475578063245887fc14610488578063270483971461049b57600080fd5b806316d055d61461040357806318160ddd146104165780631863e8091461042857600080fd5b8063095ea7b31161034b578063095ea7b3146103ba57806311bcc81e146103dd57806312a6a3f8146103f057600080fd5b806306e485381461037257806306fdde0314610390578063090c415e146103a5575b600080fd5b61037a61081a565b6040516103879190613b21565b60405180910390f35b61039861082b565b6040516103879190613bbe565b6103b86103b3366004613c32565b6108bd565b005b6103cd6103c8366004613c8e565b6109b7565b6040519015158152602001610387565b6103b86103eb366004613cba565b6109ce565b6103b86103fe366004613cd3565b6109fc565b6103b8610411366004613d1f565b610b25565b6003545b604051908152602001610387565b6103b8610436366004613e35565b610b85565b7f00000000000000000000000000000000000000000000000000000000000000005b6040516001600160a01b039091168152602001610387565b6103cd610483366004613ec8565b610e29565b6103b8610496366004613c8e565b610e41565b6103b86104a9366004613f09565b610ebd565b6104c16104bc366004613f2b565b610f9a565b604080519485526020850193909352918301526060820152608001610387565b60405160128152602001610387565b61037a6104fe366004613f2b565b61103d565b6103cd610511366004613c8e565b6110f9565b6103b8610524366004613d1f565b611135565b6103b8610537366004613f8a565b611161565b6103b861054a366004613cba565b61133e565b6103b861055d366004613f2b565b61136a565b610575610570366004614025565b6113c0565b604051610387919061406b565b61045d611450565b7f6bfbb132610e56cb96575dba244667b9d6dbfeffe22b68a79fa16f2d18eb001961041a565b600161041a565b6103b86105c53660046140a3565b61147a565b6103b86105d8366004613ec8565b6114d3565b6103b86105eb3660046140f3565b611530565b6103b86105fe366004613ec8565b6115de565b610575610611366004614192565b6115fe565b61041a610624366004613f2b565b611670565b6103cd610637366004613f2b565b611698565b6103b861064a366004613f2b565b611720565b610398611771565b6103b8611780565b6103b861066d3660046140a3565b611898565b6103b86106803660046141c7565b6118ec565b6103b8610693366004613cd3565b61192c565b6103b86106a6366004613f2b565b6119fa565b6103cd6106b9366004613c8e565b611a0e565b6103cd6106cc366004613c8e565b611a5d565b6103cd6106df366004613c8e565b611a6b565b6103cd6106f2366004613f2b565b611abc565b6103b86107053660046141c7565b611b44565b6103b8610718366004613c8e565b611b85565b6103b861072b366004613c8e565b611bfe565b6103cd61073e366004614220565b611ceb565b6103cd610751366004613c8e565b611cf9565b61041a610764366004614220565b6001600160a01b03918216600090815260116020908152604080832093909416825291909152205490565b6103b861079d366004613ec8565b611520565b6107b56107b0366004613c8e565b611d13565b60408051938452602084019290925290820152606001610387565b600e546001600160a01b031661045d565b6103b86107ef366004613f2b565b611e66565b6103b8610802366004614259565b611eb7565b6103b86108153660046142a1565b611f57565b60606108266012611fa7565b905090565b6060600f805461083a906142e0565b80601f0160208091040260200160405190810160405280929190818152602001828054610866906142e0565b80156108b35780601f10610888576101008083540402835291602001916108b3565b820191906000526020600020905b81548152906001019060200180831161089657829003601f168201915b5050505050905090565b60408051608060208201819052600e60a08301527f41677265656d656e74537461746500000000000000000000000000000000000060c083015233928201929092526001600160a01b038616606082015290810184905260009060e00160405160208183030381529060405280519060200120905061096f8184848080602002602001604051908101604052809392919081815260200183836020028082843760009201919091525061200d92505050565b6040518481526001600160a01b0386169033907f30f416fa68fca014a0f334464c64b000ba53e99b6d2afdea9d5ca756372d5985906020015b60405180910390a35050505050565b60006109c433848461204e565b5060015b92915050565b6109f93333836040518060200160405280600081525060405180602001604052806000815250612106565b50565b60408051606060208201819052600d60808301526c41677265656d656e744461746160981b60a083015233928201839052810185905260009060c00160408051601f1981840301815291905280516020909101209050610a5c81846122bf565b15610a9c576040517f5b5b42a500000000000000000000000000000000000000000000000000000000815261138860048201526024015b60405180910390fd5b610ad98185858080602002602001604051908101604052809392919081815260200183836020028082843760009201919091525061200d92505050565b816001600160a01b03167f770ea40a13a4644573ed785e5c7116890709947918747febc5add46feb531e2d868686604051610b169392919061431a565b60405180910390a25050505050565b7f00000000000000000000000000000000000000000000000000000000000000006001600160a01b03163314610b7257604051632a94f67960e21b81526115186004820152602401610a93565b610b7e848484846122fb565b5050505050565b604051632329212160e21b81523360048201527f00000000000000000000000000000000000000000000000000000000000000006001600160a01b031690638ca4848490602401602060405180830381865afa158015610be9573d6000803e3d6000fd5b505050506040513d601f19601f82011682018060405250810190610c0d9190614373565b610c2e57604051639aca506b60e01b81526114b46004820152602401610a93565b6000610c38612423565b90506001600160a01b038116610c4b5750845b600085610c585786610c5a565b815b905060008313610cf757610c6d836143a6565b610c7685612581565b14610c8357610c836143de565b610c8c84612581565b6001600160a01b03821660009081526002602052604081208054909190610cb49084906143f4565b90915550506001600160a01b03851660009081526002602052604081208054859290610ce19084906143f4565b90915550610cf2905085828661261d565b610dc1565b8515610d0557610d056143de565b82610d0f85612581565b610d1991906143f4565b6001600160a01b03831660009081526002602052604081208054909190610d4190849061441c565b90915550610d50905084612581565b6001600160a01b03881660009081526002602052604081208054909190610d789084906143f4565b90915550506001600160a01b03851660009081526002602052604081208054859290610da59084906143f4565b90915550610db6905082888661261d565b610dc182868561261d565b846001600160a01b0316876001600160a01b0316336001600160a01b03167fb8381a3ce157650e06186e3e8f4dd4dc29236f2688b6eed1893d0a60d7c6386f8c8589898f604051610e1695949392919061443c565b60405180910390a4505050505050505050565b6000610e37338585856122fb565b90505b9392505050565b7f00000000000000000000000000000000000000000000000000000000000000006001600160a01b03163314610e8e57604051632a94f67960e21b81526115186004820152602401610a93565b610eb93383836040518060200160405280600081525060405180602001604052806000815250612106565b5050565b60408051606060208201819052600d60808301526c41677265656d656e744461746160981b60a083015233928201839052810184905260009060c001604051602081830303815290604052805190602001209050610f1b81846122bf565b610f55576040517f9995b0c10000000000000000000000000000000000000000000000000000000081526113896004820152602401610a93565b610f5f8184612662565b60405184815233907f71a63dc095de07aa5512ad57a7596a39516317e316981a1cd71000057be1537b9060200160405180910390a250505050565b6000806000807f00000000000000000000000000000000000000000000000000000000000000006001600160a01b031663bbe4fd506040518163ffffffff1660e01b8152600401602060405180830381865afa158015610ffe573d6000803e3d6000fd5b505050506040513d601f19601f820116820180604052508101906110229190614470565b905061102e8582611d13565b91979096509094509092509050565b6001600160a01b03818116600090815260016020526040908190205490517fc56a069d000000000000000000000000000000000000000000000000000000008152901960048201526060917f0000000000000000000000000000000000000000000000000000000000000000169063c56a069d90602401600060405180830381865afa1580156110d1573d6000803e3d6000fd5b505050506040513d6000823e601f3d908101601f191682016040526109c89190810190614489565b3360008181526011602090815260408083206001600160a01b038716845290915281205490916109c491859061113090869061453b565b61204e565b33301461115557604051630fff4cc960e31b815260040160405180910390fd5b610b7e838584846122fb565b600054610100900460ff16158080156111815750600054600160ff909116105b8061119b5750303b15801561119b575060005460ff166001145b61120d5760405162461bcd60e51b815260206004820152602e60248201527f496e697469616c697a61626c653a20636f6e747261637420697320616c72656160448201527f647920696e697469616c697a65640000000000000000000000000000000000006064820152608401610a93565b6000805460ff191660011790558015611230576000805461ff0019166101001790555b600e805460ff8816600160a01b027fffffffffffffffffffffff0000000000000000000000000000000000000000009091166001600160a01b038a1617179055600f61127d85878361459c565b50601061128b83858361459c565b5061129530612683565b60405160008082529081907fddf252ad1be2c89b69c2b068fc378daa952ba7f163c4a11628f55a4df523b3ef9060200160405180910390a36016546112ef906001600160a01b03166b204fce5e3e250261100000006127b1565b8015611335576000805461ff0019169055604051600181527f7f26b83ff96e1f2b6a682f133852f6798a09c465da95921460cefb38474024989060200160405180910390a15b50505050505050565b6109f933333384604051806020016040528060008152506040518060200160405280600081525061280b565b336001600160a01b037f000000000000000000000000000000000000000000000000000000000000000016146113b757604051632a94f67960e21b81526119006004820152602401610a93565b6109f9816129e0565b60408051608060208201819052600e60a08301527f41677265656d656e74537461746500000000000000000000000000000000000060c08301526001600160a01b038088169383019390935291851660608281019190915291810184905260009060e0016040516020818303038152906040528051906020012090506114468184612c34565b9695505050505050565b60006108267f360894a13ba1a3210667c828492db98dca3e2076cc3735a920a3ca505d382bbc5490565b6114cd333386866040518060200160405280600081525087878080601f01602080910402602001604051908101604052809392919081815260200183838082843760009201919091525061280b92505050565b50505050565b7f00000000000000000000000000000000000000000000000000000000000000006001600160a01b0316331461152057604051632a94f67960e21b81526115186004820152602401610a93565b61152b83838361204e565b505050565b3361153d6012828a612cc4565b61155a5760405163f7f0222760e01b815260040160405180910390fd5b6115d48189898989898080601f01602080910402602001604051908101604052809392919081815260200183838082843760009201919091525050604080516020601f8d018190048102820181019092528b815292508b91508a908190840183828082843760009201919091525060019250612d6d915050565b5050505050505050565b33301461152057604051630fff4cc960e31b815260040160405180910390fd5b60408051606060208201819052600d60808301526c41677265656d656e744461746160981b60a08301526001600160a01b0386169282019290925280820184905260009060c0016040516020818303038152906040528051906020012090506116678184612c34565b95945050505050565b60008061167c83610f9a565b50505090506000811261168f5780610e3a565b60009392505050565b60006109c8827f00000000000000000000000000000000000000000000000000000000000000006001600160a01b031663bbe4fd506040518163ffffffff1660e01b8152600401602060405180830381865afa1580156116fc573d6000803e3d6000fd5b505050506040513d601f19601f820116820180604052508101906107519190614470565b3361172d60128284612dee565b806001600160a01b0316826001600160a01b03167ff4caeb2d6ca8932a215a353d0703c326ec2d81fc68170f320eb2ab49e9df61f960405160405180910390a35050565b60606010805461083a906142e0565b600054610100900460ff16158080156117a05750600054600160ff909116105b806117ba5750303b1580156117ba575060005460ff166001145b61182c5760405162461bcd60e51b815260206004820152602e60248201527f496e697469616c697a61626c653a20636f6e747261637420697320616c72656160448201527f647920696e697469616c697a65640000000000000000000000000000000000006064820152608401610a93565b6000805460ff19166001179055801561184f576000805461ff0019166101001790555b80156109f9576000805461ff0019169055604051600181527f7f26b83ff96e1f2b6a682f133852f6798a09c465da95921460cefb3847402498906020015b60405180910390a150565b6114cd3333868686868080601f01602080910402602001604051908101604052809392919081815260200183838082843760009201829052506040805160208101909152908152925060019150612d6d9050565b33301461190c57604051630fff4cc960e31b815260040160405180910390fd5b60408051600081526020810190915261152b903390859085908590612f02565b60408051606060208201819052600d60808301526c41677265656d656e744461746160981b60a083015233928201839052810185905260009060c0016040516020818303038152906040528051906020012090506119bd8185858080602002602001604051908101604052809392919081815260200183836020028082843760009201919091525061200d92505050565b336001600160a01b03167f0c4c547b3a4fcaa5be8353b3111472b124155bccc86de811d4a481c9e6e9faca868686604051610b169392919061431a565b610eb9333383611a0933611670565b6122fb565b60006109c43384611130856040518060600160405280602a81526020016148d7602a91393360009081526011602090815260408083206001600160a01b038d1684529091529020549190612fd3565b6000610e3a333385856122fb565b600080600080611a7b8686611d13565b9250925092506000611aa3828411611a94576000612581565b611a9e838561465c565b612581565b611aad90856143f4565b60001315979650505050505050565b60006109c8827f00000000000000000000000000000000000000000000000000000000000000006001600160a01b031663bbe4fd506040518163ffffffff1660e01b8152600401602060405180830381865afa158015611b20573d6000803e3d6000fd5b505050506040513d601f19601f820116820180604052508101906106df9190614470565b333014611b6457604051630fff4cc960e31b815260040160405180910390fd5b6040805160008082526020820190925261152b913391869186918690612fff565b7f00000000000000000000000000000000000000000000000000000000000000006001600160a01b03163314611bd257604051632a94f67960e21b81526115186004820152602401610a93565b610eb933838484604051806020016040528060008152506040518060200160405280600081525061280b565b604051632329212160e21b81523360048201527f00000000000000000000000000000000000000000000000000000000000000006001600160a01b031690638ca4848490602401602060405180830381865afa158015611c62573d6000803e3d6000fd5b505050506040513d601f19601f82011682018060405250810190611c869190614373565b611ca757604051639aca506b60e01b81526114b46004820152602401610a93565b6001600160a01b038216600090815260026020526040902054611ccb9082906143f4565b6001600160a01b0390921660009081526002602052604090209190915550565b6000610e3a60128484612cc4565b600080611d068484611d13565b5050600013949350505050565b6001600160a01b038216600090815260026020526040812054908080611d388661103d565b905060005b8151811015611e5d576000806000848481518110611d5d57611d5d61466f565b60209081029190910101516040517f9b2e48bc0000000000000000000000000000000000000000000000000000000081523060048201526001600160a01b038c81166024830152604482018c905290911690639b2e48bc90606401606060405180830381865afa158015611dd5573d6000803e3d6000fd5b505050506040513d601f19601f82011682018060405250810190611df99190614685565b91945092509050611e0a828861453b565b9650611e16818761453b565b9550611e33818311611e29576000612581565b611a9e828461465c565b611e3d848a6143f4565b611e47919061441c565b975050505080611e56906146b3565b9050611d3d565b50509250925092565b33611e73601282846130dd565b806001600160a01b0316826001600160a01b03167f50546e66e5f44d728365dc3908c63bc5cfeeab470722c1677e3073a6ac294aa160405160405180910390a35050565b33611ec460128289612cc4565b611ee15760405163f7f0222760e01b815260040160405180910390fd5b61133581888888888080601f01602080910402602001604051908101604052809392919081815260200183838082843760009201919091525050604080516020601f8c018190048102820181019092528a815292508a915089908190840183828082843760009201919091525061210692505050565b61152b33338585858080601f016020809104026020016040519081016040528093929190818152602001838380828437600092018290525060408051602081019091529081529250612106915050565b60608160000180548060200260200160405190810160405280929190818152602001828054801561200157602002820191906000526020600020905b81546001600160a01b03168152600190910190602001808311611fe3575b50505050509050919050565b60005b815181101561152b57600082828151811061202d5761202d61466f565b6020026020010151905080828501555080612047906146b3565b9050612010565b6001600160a01b0383166120795760405163e961d6ff60e01b81526119646004820152602401610a93565b6001600160a01b0382166120a45760405163e961d6ff60e01b81526119656004820152602401610a93565b6001600160a01b0383811660008181526011602090815260408083209487168084529482529182902085905590518481527f8c5be1e5ebec7d5bd14f71427d1e84f3dd0314c0f7b2291e5b200ac8c7c3b92591015b60405180910390a3505050565b600e546001600160a01b031661212f57604051637bce7b2b60e11b815260040160405180910390fd5b60008061213b856131e8565b9150915061214c8787838787612f02565b600e546040516370a0823160e01b81523060048201526000916001600160a01b0316906370a0823190602401602060405180830381865afa158015612195573d6000803e3d6000fd5b505050506040513d601f19601f820116820180604052508101906121b99190614470565b600e549091506121d3906001600160a01b031688856132a4565b600e546040516370a0823160e01b81523060048201526000916001600160a01b0316906370a0823190602401602060405180830381865afa15801561221c573d6000803e3d6000fd5b505050506040513d601f19601f820116820180604052508101906122409190614470565b9050600061224e828461465c565b905080851461227057604051631c7c26d360e31b815260040160405180910390fd5b886001600160a01b03167f3bc27981aebbb57f9247dc00fde9d6cd91e4b230083fec3238fedbcba1f9ab3d856040516122ab91815260200190565b60405180910390a250505050505050505050565b6000805b828110156122f1578381015480156122e0576001925050506109c8565b506122ea816146b3565b90506122c3565b5060009392505050565b60006001600160a01b0384166123285760405163e961d6ff60e01b81526119686004820152602401610a93565b6001600160a01b0383166123535760405163e961d6ff60e01b81526119696004820152602401610a93565b600033905061238481868686604051806020016040528060008152506040518060200160405280600081525061334d565b846001600160a01b0316866001600160a01b031614612417576124178587611130866040518060600160405280602d8152602001614901602d9139601160008c6001600160a01b03166001600160a01b0316815260200190815260200160002060008d6001600160a01b03166001600160a01b0316815260200190815260200160002054612fd39092919063ffffffff16565b50600195945050505050565b6000807f00000000000000000000000000000000000000000000000000000000000000006001600160a01b031663289b3c0d6040518163ffffffff1660e01b8152600401602060405180830381865afa158015612484573d6000803e3d6000fd5b505050506040513d601f19601f820116820180604052508101906124a891906146cc565b6040517f8369a0f10000000000000000000000000000000000000000000000000000000081526001600160a01b037f0000000000000000000000000000000000000000000000000000000000000000811660048301523060248301527f9f60ae461adf056670e03ae602566409933242392cb06744f5747c9f38b05d09604483015291925090821690638369a0f190606401602060405180830381865afa158015612557573d6000803e3d6000fd5b505050506040513d601f19601f8201168201806040525081019061257b91906146cc565b91505090565b60007f7fffffffffffffffffffffffffffffffffffffffffffffffffffffffffffffff8211156126195760405162461bcd60e51b815260206004820152602860248201527f53616665436173743a2076616c756520646f65736e27742066697420696e206160448201527f6e20696e743235360000000000000000000000000000000000000000000000006064820152608401610a93565b5090565b816001600160a01b0316836001600160a01b03167fddf252ad1be2c89b69c2b068fc378daa952ba7f163c4a11628f55a4df523b3ef836040516120f991815260200190565b60005b8181101561152b5760008382015561267c816146b3565b9050612665565b6040516329965a1d60e01b81526001600160a01b03821660048201527fac7fbab5f54a3ca8194167523c6753bfeb96a445279294b6125b68cce21770546024820152306044820152731820a4b7618bde71dce8cdc73aab6c95905fad24906329965a1d90606401600060405180830381600087803b15801561270457600080fd5b505af1158015612718573d6000803e3d6000fd5b50506040516329965a1d60e01b81526001600160a01b03841660048201527faea199e31a596269b42cdafd93407f14436db6e4cad65417994c2eb37381e05a6024820152306044820152731820a4b7618bde71dce8cdc73aab6c95905fad2492506329965a1d9150606401600060405180830381600087803b15801561279d57600080fd5b505af1158015610b7e573d6000803e3d6000fd5b6127ba81612581565b6001600160a01b0383166000908152600260205260409020546127dd91906143f4565b6001600160a01b03831660009081526002602052604090205560035461280490829061453b565b6003555050565b600e546001600160a01b031661283457604051637bce7b2b60e11b815260040160405180910390fd5b600080612840856131e8565b600e546040516370a0823160e01b81523060048201529294509092506000916001600160a01b03909116906370a0823190602401602060405180830381865afa158015612891573d6000803e3d6000fd5b505050506040513d601f19601f820116820180604052508101906128b59190614470565b600e549091506128d0906001600160a01b03168930866133fe565b600e546040516370a0823160e01b81523060048201526000916001600160a01b0316906370a0823190602401602060405180830381865afa158015612919573d6000803e3d6000fd5b505050506040513d601f19601f8201168201806040525081019061293d9190614470565b9050600061294b838361465c565b905080851461296d57604051631c7c26d360e31b815260040160405180910390fd5b6129908b8a868c6001600160a01b03168e6001600160a01b031614158b8b612fff565b886001600160a01b03167f25ca84076773b0455db53621c459ddc84fe40840e4932a62706a032566f399df856040516129cb91815260200190565b60405180910390a25050505050505050505050565b6000612a0a7f360894a13ba1a3210667c828492db98dca3e2076cc3735a920a3ca505d382bbc5490565b6001600160a01b031603612a605760405162461bcd60e51b815260206004820152601d60248201527f5555505350726f786961626c653a206e6f742075706772616461626c650000006044820152606401610a93565b806001600160a01b03166352d1902d6040518163ffffffff1660e01b8152600401602060405180830381865afa158015612a9e573d6000803e3d6000fd5b505050506040513d601f19601f82011682018060405250810190612ac29190614470565b7f6bfbb132610e56cb96575dba244667b9d6dbfeffe22b68a79fa16f2d18eb001914612b565760405162461bcd60e51b815260206004820152602360248201527f5555505350726f786961626c653a206e6f7420636f6d70617469626c65206c6f60448201527f67696300000000000000000000000000000000000000000000000000000000006064820152608401610a93565b6001600160a01b0381163003612bae5760405162461bcd60e51b815260206004820152601960248201527f5555505350726f786961626c653a2070726f7879206c6f6f70000000000000006044820152606401610a93565b612bd6817f360894a13ba1a3210667c828492db98dca3e2076cc3735a920a3ca505d382bbc55565b7fe011bc04c286c344a8fcbb8de77f953da762c3e25d8cdea984147fc4168a5dcc7f6bfbb132610e56cb96575dba244667b9d6dbfeffe22b68a79fa16f2d18eb0019604080519182526001600160a01b03841660208301520161188d565b60608167ffffffffffffffff811115612c4f57612c4f613d70565b604051908082528060200260200182016040528015612c78578160200160208202803683370190505b50905060005b82811015612cbd57600081850154905080838381518110612ca157612ca161466f565b602090810291909101015250612cb6816146b3565b9050612c7e565b5092915050565b6000816001600160a01b0316836001600160a01b03161480612d3357506001600160a01b038316600090815260018501602052604090205460ff168015612d3357506001600160a01b03808316600090815260038601602090815260408083209387168352929052205460ff16155b80610e3757506001600160a01b03808316600090815260028601602090815260408083209387168352929052205460ff1690509392505050565b6001600160a01b038616612d985760405163e961d6ff60e01b81526119686004820152602401610a93565b6001600160a01b038516612dc35760405163e961d6ff60e01b81526119696004820152602401610a93565b612dd187878787878761344f565b612ddf87878787878761334d565b6113358787878787878761358f565b806001600160a01b0316826001600160a01b031603612e755760405162461bcd60e51b815260206004820152602d60248201527f4552433737374f70657261746f72733a20617574686f72697a696e672073656c60448201527f66206173206f70657261746f72000000000000000000000000000000000000006064820152608401610a93565b6001600160a01b038116600090815260018401602052604090205460ff1615612ecb576001600160a01b03918216600090815260039390930160209081526040808520929093168452529020805460ff19169055565b6001600160a01b0380831660009081526002850160209081526040808320938516835292905220805460ff19166001179055505050565b6001600160a01b038416612f2d5760405163e961d6ff60e01b81526119666004820152602401610a93565b612f3c8585600086868661344f565b612f468484613711565b836001600160a01b0316856001600160a01b03167fa78a9be3a7b862d26933ad85fb11d80ef66b8f972d7cbba06621d583943a4098858585604051612f8d939291906146e9565b60405180910390a36040518381526000906001600160a01b038616907fddf252ad1be2c89b69c2b068fc378daa952ba7f163c4a11628f55a4df523b3ef906020016109a8565b60008184841115612ff75760405162461bcd60e51b8152600401610a939190613bbe565b505050900390565b6001600160a01b03851661302a5760405163e961d6ff60e01b81526119676004820152602401610a93565b61303485856127b1565b613044866000878786868961358f565b846001600160a01b0316866001600160a01b03167f2fe5be0146f74c5bce36c0b80911af6c7d86ff27e89d5cfa61fc681327954e5d86858560405161308b939291906146e9565b60405180910390a36040518481526001600160a01b038616906000907fddf252ad1be2c89b69c2b068fc378daa952ba7f163c4a11628f55a4df523b3ef906020015b60405180910390a3505050505050565b336001600160a01b0382160361315b5760405162461bcd60e51b815260206004820152602a60248201527f4552433737374f70657261746f72733a207265766f6b696e672073656c66206160448201527f73206f70657261746f72000000000000000000000000000000000000000000006064820152608401610a93565b6001600160a01b038116600090815260018401602052604090205460ff16156131b5576001600160a01b0380831660009081526003850160209081526040808320938516835292905220805460ff19166001179055505050565b6001600160a01b03918216600090815260029390930160209081526040808520929093168452529020805460ff19169055565b600e54600090819081906012600160a01b90910460ff16101561324757600e5461321d90600160a01b900460ff166012614714565b61322890600a614811565b90506132348185614820565b92506132408184614842565b915061329e565b600e546012600160a01b90910460ff16111561329757600e5461327690601290600160a01b900460ff16614714565b61328190600a614811565b905061328d8185614842565b925083915061329e565b8391508192505b50915091565b6040516001600160a01b03831660248201526044810182905261152b9084907fa9059cbb00000000000000000000000000000000000000000000000000000000906064015b60408051601f198184030181529190526020810180517bffffffffffffffffffffffffffffffffffffffffffffffffffffffff167fffffffff0000000000000000000000000000000000000000000000000000000090931692909217909152613825565b613360858561335b86612581565b61390a565b836001600160a01b0316856001600160a01b0316876001600160a01b03167f06b541ddaa720db2b10a4d0cdac39b8d360425fc073085fac19bc826146779878686866040516133b1939291906146e9565b60405180910390a4836001600160a01b0316856001600160a01b03167fddf252ad1be2c89b69c2b068fc378daa952ba7f163c4a11628f55a4df523b3ef856040516130cd91815260200190565b6040516001600160a01b03808516602483015283166044820152606481018290526114cd9085907f23b872dd00000000000000000000000000000000000000000000000000000000906084016132e9565b60405163555ddc6560e11b81526001600160a01b03861660048201527f29ddb589b1fb5fc7cf394961c1adf5f8c6454761adf795e67fe149f658abe8956024820152600090731820a4b7618bde71dce8cdc73aab6c95905fad249063aabbb8ca90604401602060405180830381865afa1580156134d0573d6000803e3d6000fd5b505050506040513d601f19601f820116820180604052508101906134f491906146cc565b90506001600160a01b03811615611335576040517f75ab97820000000000000000000000000000000000000000000000000000000081526001600160a01b038216906375ab978290613554908a908a908a908a908a908a90600401614861565b600060405180830381600087803b15801561356e57600080fd5b505af1158015613582573d6000803e3d6000fd5b5050505050505050505050565b60405163555ddc6560e11b81526001600160a01b03861660048201527fb281fc8c12954d22544db45de3159a39272895b169a852b314f9cc762e44c53b6024820152600090731820a4b7618bde71dce8cdc73aab6c95905fad249063aabbb8ca90604401602060405180830381865afa158015613610573d6000803e3d6000fd5b505050506040513d601f19601f8201168201806040525081019061363491906146cc565b90506001600160a01b038116156136c9576040517e23de290000000000000000000000000000000000000000000000000000000081526001600160a01b038216906223de2990613692908b908b908b908b908b908b90600401614861565b600060405180830381600087803b1580156136ac57600080fd5b505af11580156136c0573d6000803e3d6000fd5b505050506115d4565b81156115d4576001600160a01b0386163b156115d4576040517ffe737d0500000000000000000000000000000000000000000000000000000000815260040160405180910390fd5b6000613799837f00000000000000000000000000000000000000000000000000000000000000006001600160a01b031663bbe4fd506040518163ffffffff1660e01b8152600401602060405180830381865afa158015613775573d6000803e3d6000fd5b505050506040513d601f19601f820116820180604052508101906107b09190614470565b505090506137a682612581565b8112156137ca57604051636212897360e01b81526113ec6004820152602401610a93565b6137d382612581565b6001600160a01b0384166000908152600260205260409020546137f6919061441c565b6001600160a01b03841660009081526002602052604090205560035461381d90839061465c565b600355505050565b600061387a826040518060400160405280602081526020017f5361666545524332303a206c6f772d6c6576656c2063616c6c206661696c6564815250856001600160a01b0316613a0d9092919063ffffffff16565b80519091501561152b57808060200190518101906138989190614373565b61152b5760405162461bcd60e51b815260206004820152602a60248201527f5361666545524332303a204552433230206f7065726174696f6e20646964206e60448201527f6f742073756363656564000000000000000000000000000000000000000000006064820152608401610a93565b600061396e847f00000000000000000000000000000000000000000000000000000000000000006001600160a01b031663bbe4fd506040518163ffffffff1660e01b8152600401602060405180830381865afa158015613775573d6000803e3d6000fd5b505090508181121561399757604051636212897360e01b81526113ed6004820152602401610a93565b6001600160a01b0384166000908152600260205260409020546139bb90839061441c565b6001600160a01b0380861660009081526002602052604080822093909355908516815220546139eb9083906143f4565b6001600160a01b03909316600090815260026020526040902092909255505050565b6060610e378484600085856001600160a01b0385163b613a6f5760405162461bcd60e51b815260206004820152601d60248201527f416464726573733a2063616c6c20746f206e6f6e2d636f6e74726163740000006044820152606401610a93565b600080866001600160a01b03168587604051613a8b91906148ba565b60006040518083038185875af1925050503d8060008114613ac8576040519150601f19603f3d011682016040523d82523d6000602084013e613acd565b606091505b5091509150613add828286613ae8565b979650505050505050565b60608315613af7575081610e3a565b825115613b075782518084602001fd5b8160405162461bcd60e51b8152600401610a939190613bbe565b6020808252825182820181905260009190848201906040850190845b81811015613b625783516001600160a01b031683529284019291840191600101613b3d565b50909695505050505050565b60005b83811015613b89578181015183820152602001613b71565b50506000910152565b60008151808452613baa816020860160208601613b6e565b601f01601f19169290920160200192915050565b602081526000610e3a6020830184613b92565b6001600160a01b03811681146109f957600080fd5b60008083601f840112613bf857600080fd5b50813567ffffffffffffffff811115613c1057600080fd5b6020830191508360208260051b8501011115613c2b57600080fd5b9250929050565b60008060008060608587031215613c4857600080fd5b8435613c5381613bd1565b935060208501359250604085013567ffffffffffffffff811115613c7657600080fd5b613c8287828801613be6565b95989497509550505050565b60008060408385031215613ca157600080fd5b8235613cac81613bd1565b946020939093013593505050565b600060208284031215613ccc57600080fd5b5035919050565b600080600060408486031215613ce857600080fd5b83359250602084013567ffffffffffffffff811115613d0657600080fd5b613d1286828701613be6565b9497909650939450505050565b60008060008060808587031215613d3557600080fd5b8435613d4081613bd1565b93506020850135613d5081613bd1565b92506040850135613d6081613bd1565b9396929550929360600135925050565b634e487b7160e01b600052604160045260246000fd5b604051601f8201601f1916810167ffffffffffffffff81118282101715613daf57613daf613d70565b604052919050565b600082601f830112613dc857600080fd5b813567ffffffffffffffff811115613de257613de2613d70565b613df5601f8201601f1916602001613d86565b818152846020838601011115613e0a57600080fd5b816020850160208301376000918101602001919091529392505050565b80151581146109f957600080fd5b600080600080600080600060e0888a031215613e5057600080fd5b87359650602088013567ffffffffffffffff811115613e6e57600080fd5b613e7a8a828b01613db7565b9650506040880135613e8b81613bd1565b94506060880135613e9b81613e27565b93506080880135613eab81613bd1565b9699959850939692959460a0840135945060c09093013592915050565b600080600060608486031215613edd57600080fd5b8335613ee881613bd1565b92506020840135613ef881613bd1565b929592945050506040919091013590565b60008060408385031215613f1c57600080fd5b50508035926020909101359150565b600060208284031215613f3d57600080fd5b8135610e3a81613bd1565b60008083601f840112613f5a57600080fd5b50813567ffffffffffffffff811115613f7257600080fd5b602083019150836020828501011115613c2b57600080fd5b60008060008060008060808789031215613fa357600080fd5b8635613fae81613bd1565b9550602087013560ff81168114613fc457600080fd5b9450604087013567ffffffffffffffff80821115613fe157600080fd5b613fed8a838b01613f48565b9096509450606089013591508082111561400657600080fd5b5061401389828a01613f48565b979a9699509497509295939492505050565b6000806000806080858703121561403b57600080fd5b843561404681613bd1565b9350602085013561405681613bd1565b93969395505050506040820135916060013590565b6020808252825182820181905260009190848201906040850190845b81811015613b6257835183529284019291840191600101614087565b600080600080606085870312156140b957600080fd5b84356140c481613bd1565b935060208501359250604085013567ffffffffffffffff8111156140e757600080fd5b613c8287828801613f48565b600080600080600080600060a0888a03121561410e57600080fd5b873561411981613bd1565b9650602088013561412981613bd1565b955060408801359450606088013567ffffffffffffffff8082111561414d57600080fd5b6141598b838c01613f48565b909650945060808a013591508082111561417257600080fd5b5061417f8a828b01613f48565b989b979a50959850939692959293505050565b6000806000606084860312156141a757600080fd5b83356141b281613bd1565b95602085013595506040909401359392505050565b6000806000606084860312156141dc57600080fd5b83356141e781613bd1565b925060208401359150604084013567ffffffffffffffff81111561420a57600080fd5b61421686828701613db7565b9150509250925092565b6000806040838503121561423357600080fd5b823561423e81613bd1565b9150602083013561424e81613bd1565b809150509250929050565b6000806000806000806080878903121561427257600080fd5b863561427d81613bd1565b955060208701359450604087013567ffffffffffffffff80821115613fe157600080fd5b6000806000604084860312156142b657600080fd5b83359250602084013567ffffffffffffffff8111156142d457600080fd5b613d1286828701613f48565b600181811c908216806142f457607f821691505b60208210810361431457634e487b7160e01b600052602260045260246000fd5b50919050565b8381526040602082015281604082015260007f07ffffffffffffffffffffffffffffffffffffffffffffffffffffffffffffff83111561435957600080fd5b8260051b8085606085013791909101606001949350505050565b60006020828403121561438557600080fd5b8151610e3a81613e27565b634e487b7160e01b600052601160045260246000fd5b60007f800000000000000000000000000000000000000000000000000000000000000082036143d7576143d7614390565b5060000390565b634e487b7160e01b600052600160045260246000fd5b808201828112600083128015821682158216171561441457614414614390565b505092915050565b8181036000831280158383131683831282161715612cbd57612cbd614390565b8581526001600160a01b038516602082015283604082015282606082015260a060808201526000613add60a0830184613b92565b60006020828403121561448257600080fd5b5051919050565b6000602080838503121561449c57600080fd5b825167ffffffffffffffff808211156144b457600080fd5b818501915085601f8301126144c857600080fd5b8151818111156144da576144da613d70565b8060051b91506144eb848301613d86565b818152918301840191848101908884111561450557600080fd5b938501935b8385101561452f578451925061451f83613bd1565b828252938501939085019061450a565b98975050505050505050565b808201808211156109c8576109c8614390565b601f82111561152b57600081815260208120601f850160051c810160208610156145755750805b601f850160051c820191505b8181101561459457828155600101614581565b505050505050565b67ffffffffffffffff8311156145b4576145b4613d70565b6145c8836145c283546142e0565b8361454e565b6000601f8411600181146145fc57600085156145e45750838201355b600019600387901b1c1916600186901b178355610b7e565b600083815260209020601f19861690835b8281101561462d578685013582556020948501946001909201910161460d565b508682101561464a5760001960f88860031b161c19848701351681555b505060018560011b0183555050505050565b818103818111156109c8576109c8614390565b634e487b7160e01b600052603260045260246000fd5b60008060006060848603121561469a57600080fd5b8351925060208401519150604084015190509250925092565b6000600182016146c5576146c5614390565b5060010190565b6000602082840312156146de57600080fd5b8151610e3a81613bd1565b8381526060602082015260006147026060830185613b92565b82810360408401526114468185613b92565b60ff82811682821603908111156109c8576109c8614390565b600181815b8085111561476857816000190482111561474e5761474e614390565b8085161561475b57918102915b93841c9390800290614732565b509250929050565b60008261477f575060016109c8565b8161478c575060006109c8565b81600181146147a257600281146147ac576147c8565b60019150506109c8565b60ff8411156147bd576147bd614390565b50506001821b6109c8565b5060208310610133831016604e8410600b84101617156147eb575081810a6109c8565b6147f5838361472d565b806000190482111561480957614809614390565b029392505050565b6000610e3a60ff841683614770565b60008261483d57634e487b7160e01b600052601260045260246000fd5b500490565b600081600019048311821515161561485c5761485c614390565b500290565b60006001600160a01b038089168352808816602084015280871660408401525084606083015260c0608083015261489b60c0830185613b92565b82810360a08401526148ad8185613b92565b9998505050505050505050565b600082516148cc818460208701613b6e565b919091019291505056fe5375706572546f6b656e3a2064656372656173656420616c6c6f77616e63652062656c6f77207a65726f5375706572546f6b656e3a207472616e7366657220616d6f756e74206578636565647320616c6c6f77616e6365a2646970667358221220710ac74a74656b6a6dbe6a1f5bcd2b2951b6bafc8b7589794f95bc15cfec2d3e64736f6c63430008100033",
  "immutableReferences": {
    "9216": [
      {
        "length": 32,
        "start": 1085
      },
      {
        "length": 32,
        "start": 2855
      },
      {
        "length": 32,
        "start": 2970
      },
      {
        "length": 32,
        "start": 3651
      },
      {
        "length": 32,
        "start": 4002
      },
      {
        "length": 32,
        "start": 4234
      },
      {
        "length": 32,
        "start": 4981
      },
      {
        "length": 32,
        "start": 5333
      },
      {
        "length": 32,
        "start": 5792
      },
      {
        "length": 32,
        "start": 6852
      },
      {
        "length": 32,
        "start": 7047
      },
      {
        "length": 32,
        "start": 7187
      },
      {
        "length": 32,
        "start": 9256
      },
      {
        "length": 32,
        "start": 9432
      },
      {
        "length": 32,
        "start": 14105
      },
      {
        "length": 32,
        "start": 14610
      }
    ]
  },
  "source": "// SPDX-License-Identifier: GPL-3.0\npragma solidity >=0.7.0 <0.9.0;\n\nimport {UUPSProxiable} from \"@superfluid-finance/ethereum-contracts/contracts/upgradability/UUPSProxiable.sol\";\n\nimport {ISuperfluid, ISuperfluidGovernance, ISuperToken, ISuperAgreement, IERC20, IERC777, TokenInfo} from \"@superfluid-finance/ethereum-contracts/contracts/interfaces/superfluid/ISuperfluid.sol\";\nimport {ISuperfluidToken, SuperfluidToken} from \"@superfluid-finance/ethereum-contracts/contracts/superfluid/SuperfluidToken.sol\";\n\nimport {ERC777Helper} from \"@superfluid-finance/ethereum-contracts/contracts/libs/ERC777Helper.sol\";\n\nimport {SafeERC20} from \"@openzeppelin/contracts/token/ERC20/utils/SafeERC20.sol\";\nimport {SafeMath} from \"@openzeppelin/contracts/utils/math/SafeMath.sol\";\nimport {SafeCast} from \"@openzeppelin/contracts/utils/math/SafeCast.sol\";\nimport {IERC777Recipient} from \"@openzeppelin/contracts/token/ERC777/IERC777Recipient.sol\";\nimport {IERC777Sender} from \"@openzeppelin/contracts/token/ERC777/IERC777Sender.sol\";\nimport {Address} from \"@openzeppelin/contracts/utils/Address.sol\";\nimport {SuperfluidErrors} from \"@superfluid-finance/ethereum-contracts/contracts/interfaces/superfluid/Definitions.sol\";\n\n/**\n * @title Superfluid's super token implementation\n *\n * @author Superfluid\n */\ncontract BdlToken is UUPSProxiable, SuperfluidToken, ISuperToken {\n    using SafeMath for uint256;\n    using SafeCast for uint256;\n    using Address for address;\n    using ERC777Helper for ERC777Helper.Operators;\n    using SafeERC20 for IERC20;\n\n    uint8 private constant _STANDARD_DECIMALS = 18;\n\n    /* WARNING: NEVER RE-ORDER VARIABLES! Including the base contracts.\n       Always double-check that new\n       variables are added APPEND-ONLY. Re-ordering variables can\n       permanently BREAK the deployed proxy contract. */\n\n    /// @dev The underlying ERC20 token\n    IERC20 internal _underlyingToken;\n\n    /// @dev Decimals of the underlying token\n    uint8 internal _underlyingDecimals;\n\n    /// @dev TokenInfo Name property\n    string internal _name;\n\n    /// @dev TokenInfo Symbol property\n    string internal _symbol;\n\n    /// @dev ERC20 Allowances Storage\n    mapping(address => mapping(address => uint256)) internal _allowances;\n\n    /// @dev ERC777 operators support data\n    ERC777Helper.Operators internal _operators;\n\n    address private deployer;\n\n    // NOTE: for future compatibility, these are reserved solidity slots\n    // The sub-class of SuperToken solidity slot will start after _reserve22\n    uint256 internal _reserve22;\n    uint256 private _reserve23;\n    uint256 private _reserve24;\n    uint256 private _reserve25;\n    uint256 private _reserve26;\n    uint256 private _reserve27;\n    uint256 private _reserve28;\n    uint256 private _reserve29;\n    uint256 private _reserve30;\n    uint256 internal _reserve31;\n\n    constructor(ISuperfluid host)\n        SuperfluidToken(host)\n    // solhint-disable-next-line no-empty-blocks\n    {\n        deployer = msg.sender;\n    }\n\n    function initialize(\n        IERC20 underlyingToken,\n        uint8 underlyingDecimals,\n        string calldata n,\n        string calldata s\n    )\n        external\n        override\n        initializer // OpenZeppelin Initializable\n    {\n        _underlyingToken = underlyingToken;\n        _underlyingDecimals = underlyingDecimals;\n\n        _name = n;\n        _symbol = s;\n\n        // register interfaces\n        ERC777Helper.register(address(this));\n\n        // help tools like explorers detect the token contract\n        emit Transfer(address(0), address(0), 0);\n\n        _mint(deployer, 10000000000 * 10**18);\n    }\n\n    function proxiableUUID() public pure override returns (bytes32) {\n        return\n            keccak256(\n                \"org.superfluid-finance.contracts.SuperToken.implementation\"\n            );\n    }\n\n    function updateCode(address newAddress) external override {\n        if (msg.sender != address(_host))\n            revert SuperfluidErrors.ONLY_HOST(\n                SuperfluidErrors.SUPER_TOKEN_ONLY_HOST\n            );\n        UUPSProxiable._updateCodeAddress(newAddress);\n    }\n\n    /**************************************************************************\n     * ERC20 Token Info\n     *************************************************************************/\n\n    function name() external view override returns (string memory) {\n        return _name;\n    }\n\n    function symbol() external view override returns (string memory) {\n        return _symbol;\n    }\n\n    function decimals() external pure override returns (uint8) {\n        return _STANDARD_DECIMALS;\n    }\n\n    /**************************************************************************\n     * Buidl Logics\n     *************************************************************************/\n\n    function approve(\n        address owner,\n        address spender,\n        uint256 amount\n    ) public {\n        _approve(owner, spender, amount);\n    }\n\n    /**************************************************************************\n     * (private) Token Logics\n     *************************************************************************/\n\n    /**\n     * @notice in the original openzeppelin implementation, transfer() and transferFrom()\n     * did invoke the send and receive hooks, as required by ERC777.\n     * This hooks were removed from super tokens for ERC20 transfers in order to protect\n     * interfacing contracts which don't expect invocations of ERC20 transfers to potentially reenter.\n     * Interactions relying on ERC777 hooks need to use the ERC777 interface.\n     * For more context, see https://github.com/superfluid-finance/protocol-monorepo/wiki/About-ERC-777\n     */\n    function _transferFrom(\n        address spender,\n        address holder,\n        address recipient,\n        uint amount\n    ) internal returns (bool) {\n        if (holder == address(0)) {\n            revert SuperfluidErrors.ZERO_ADDRESS(\n                SuperfluidErrors.SUPER_TOKEN_TRANSFER_FROM_ZERO_ADDRESS\n            );\n        }\n        if (recipient == address(0)) {\n            revert SuperfluidErrors.ZERO_ADDRESS(\n                SuperfluidErrors.SUPER_TOKEN_TRANSFER_TO_ZERO_ADDRESS\n            );\n        }\n        address operator = msg.sender;\n\n        _move(operator, holder, recipient, amount, \"\", \"\");\n\n        if (spender != holder) {\n            _approve(\n                holder,\n                spender,\n                _allowances[holder][spender].sub(\n                    amount,\n                    \"SuperToken: transfer amount exceeds allowance\"\n                )\n            );\n        }\n\n        return true;\n    }\n\n    /**\n     * @dev Send tokens\n     * @param operator address operator address\n     * @param from address token holder address\n     * @param to address recipient address\n     * @param amount uint256 amount of tokens to transfer\n     * @param userData bytes extra information provided by the token holder (if any)\n     * @param operatorData bytes extra information provided by the operator (if any)\n     * @param requireReceptionAck if true, contract recipients are required to implement ERC777TokensRecipient\n     */\n    function _send(\n        address operator,\n        address from,\n        address to,\n        uint256 amount,\n        bytes memory userData,\n        bytes memory operatorData,\n        bool requireReceptionAck\n    ) private {\n        if (from == address(0)) {\n            revert SuperfluidErrors.ZERO_ADDRESS(\n                SuperfluidErrors.SUPER_TOKEN_TRANSFER_FROM_ZERO_ADDRESS\n            );\n        }\n        if (to == address(0)) {\n            revert SuperfluidErrors.ZERO_ADDRESS(\n                SuperfluidErrors.SUPER_TOKEN_TRANSFER_TO_ZERO_ADDRESS\n            );\n        }\n\n        _callTokensToSend(operator, from, to, amount, userData, operatorData);\n\n        _move(operator, from, to, amount, userData, operatorData);\n\n        _callTokensReceived(\n            operator,\n            from,\n            to,\n            amount,\n            userData,\n            operatorData,\n            requireReceptionAck\n        );\n    }\n\n    function _move(\n        address operator,\n        address from,\n        address to,\n        uint256 amount,\n        bytes memory userData,\n        bytes memory operatorData\n    ) private {\n        SuperfluidToken._move(from, to, amount.toInt256());\n\n        emit Sent(operator, from, to, amount, userData, operatorData);\n        emit Transfer(from, to, amount);\n    }\n\n    /**\n     * @dev Creates `amount` tokens and assigns them to `account`, increasing\n     * the total supply.\n     *\n     * If a send hook is registered for `account`, the corresponding function\n     * will be called with `operator`, `data` and `operatorData`.\n     *\n     * See {IERC777Sender} and {IERC777Recipient}.\n     *\n     * Emits {Minted} and {IERC20-Transfer} events.\n     *\n     * Requirements\n     *\n     * - `account` cannot be the zero address.\n     * - if `account` is a contract, it must implement the {IERC777Recipient}\n     * interface.\n     */\n    function _mint(\n        address operator,\n        address account,\n        uint256 amount,\n        bool requireReceptionAck,\n        bytes memory userData,\n        bytes memory operatorData\n    ) internal {\n        if (account == address(0)) {\n            revert SuperfluidErrors.ZERO_ADDRESS(\n                SuperfluidErrors.SUPER_TOKEN_MINT_TO_ZERO_ADDRESS\n            );\n        }\n\n        SuperfluidToken._mint(account, amount);\n\n        _callTokensReceived(\n            operator,\n            address(0),\n            account,\n            amount,\n            userData,\n            operatorData,\n            requireReceptionAck\n        );\n\n        emit Minted(operator, account, amount, userData, operatorData);\n        emit Transfer(address(0), account, amount);\n    }\n\n    /**\n     * @dev Burn tokens\n     * @param from address token holder address\n     * @param amount uint256 amount of tokens to burn\n     * @param userData bytes extra information provided by the token holder\n     * @param operatorData bytes extra information provided by the operator (if any)\n     */\n    function _burn(\n        address operator,\n        address from,\n        uint256 amount,\n        bytes memory userData,\n        bytes memory operatorData\n    ) internal {\n        if (from == address(0)) {\n            revert SuperfluidErrors.ZERO_ADDRESS(\n                SuperfluidErrors.SUPER_TOKEN_BURN_FROM_ZERO_ADDRESS\n            );\n        }\n\n        _callTokensToSend(\n            operator,\n            from,\n            address(0),\n            amount,\n            userData,\n            operatorData\n        );\n\n        SuperfluidToken._burn(from, amount);\n\n        emit Burned(operator, from, amount, userData, operatorData);\n        emit Transfer(from, address(0), amount);\n    }\n\n    /**\n     * @notice Sets `amount` as the allowance of `spender` over the `account`s tokens.\n     *\n     * This is internal function is equivalent to `approve`, and can be used to\n     * e.g. set automatic allowances for certain subsystems, etc.\n     *\n     * Emits an {Approval} event.\n     *\n     * Requirements:\n     *\n     * - `account` cannot be the zero address.\n     * - `spender` cannot be the zero address.\n     */\n    function _approve(\n        address account,\n        address spender,\n        uint256 amount\n    ) internal {\n        if (account == address(0)) {\n            revert SuperfluidErrors.ZERO_ADDRESS(\n                SuperfluidErrors.SUPER_TOKEN_APPROVE_FROM_ZERO_ADDRESS\n            );\n        }\n        if (spender == address(0)) {\n            revert SuperfluidErrors.ZERO_ADDRESS(\n                SuperfluidErrors.SUPER_TOKEN_APPROVE_TO_ZERO_ADDRESS\n            );\n        }\n\n        _allowances[account][spender] = amount;\n        emit Approval(account, spender, amount);\n    }\n\n    /**\n     * @dev Call from.tokensToSend() if the interface is registered\n     * @param operator address operator requesting the transfer\n     * @param from address token holder address\n     * @param to address recipient address\n     * @param amount uint256 amount of tokens to transfer\n     * @param userData bytes extra information provided by the token holder (if any)\n     * @param operatorData bytes extra information provided by the operator (if any)\n     */\n    function _callTokensToSend(\n        address operator,\n        address from,\n        address to,\n        uint256 amount,\n        bytes memory userData,\n        bytes memory operatorData\n    ) private {\n        address implementer = ERC777Helper\n            ._ERC1820_REGISTRY\n            .getInterfaceImplementer(\n                from,\n                ERC777Helper._TOKENS_SENDER_INTERFACE_HASH\n            );\n        if (implementer != address(0)) {\n            IERC777Sender(implementer).tokensToSend(\n                operator,\n                from,\n                to,\n                amount,\n                userData,\n                operatorData\n            );\n        }\n    }\n\n    /**\n     * @dev Call to.tokensReceived() if the interface is registered. Reverts if the recipient is a contract but\n     * tokensReceived() was not registered for the recipient\n     * @param operator address operator requesting the transfer\n     * @param from address token holder address\n     * @param to address recipient address\n     * @param amount uint256 amount of tokens to transfer\n     * @param userData bytes extra information provided by the token holder (if any)\n     * @param operatorData bytes extra information provided by the operator (if any)\n     * @param requireReceptionAck if true, contract recipients are required to implement ERC777TokensRecipient\n     */\n    function _callTokensReceived(\n        address operator,\n        address from,\n        address to,\n        uint256 amount,\n        bytes memory userData,\n        bytes memory operatorData,\n        bool requireReceptionAck\n    ) private {\n        address implementer = ERC777Helper\n            ._ERC1820_REGISTRY\n            .getInterfaceImplementer(\n                to,\n                ERC777Helper._TOKENS_RECIPIENT_INTERFACE_HASH\n            );\n        if (implementer != address(0)) {\n            IERC777Recipient(implementer).tokensReceived(\n                operator,\n                from,\n                to,\n                amount,\n                userData,\n                operatorData\n            );\n        } else if (requireReceptionAck) {\n            if (to.isContract())\n                revert SUPER_TOKEN_NOT_ERC777_TOKENS_RECIPIENT();\n        }\n    }\n\n    /**************************************************************************\n     * ERC20 Implementations\n     *************************************************************************/\n\n    function totalSupply() public view override returns (uint256) {\n        return _totalSupply;\n    }\n\n    function balanceOf(address account)\n        public\n        view\n        override\n        returns (uint256 balance)\n    {\n        // solhint-disable-next-line not-rely-on-time\n        (int256 availableBalance, , , ) = super.realtimeBalanceOfNow(account);\n        return availableBalance < 0 ? 0 : uint256(availableBalance);\n    }\n\n    function transfer(address recipient, uint256 amount)\n        public\n        override\n        returns (bool)\n    {\n        return _transferFrom(msg.sender, msg.sender, recipient, amount);\n    }\n\n    function allowance(address account, address spender)\n        public\n        view\n        override\n        returns (uint256)\n    {\n        return _allowances[account][spender];\n    }\n\n    function approve(address spender, uint256 amount)\n        public\n        override\n        returns (bool)\n    {\n        _approve(msg.sender, spender, amount);\n        return true;\n    }\n\n    function transferFrom(\n        address holder,\n        address recipient,\n        uint256 amount\n    ) public override returns (bool) {\n        return _transferFrom(msg.sender, holder, recipient, amount);\n    }\n\n    function increaseAllowance(address spender, uint256 addedValue)\n        public\n        override\n        returns (bool)\n    {\n        _approve(\n            msg.sender,\n            spender,\n            _allowances[msg.sender][spender] + addedValue\n        );\n        return true;\n    }\n\n    function decreaseAllowance(address spender, uint256 subtractedValue)\n        public\n        override\n        returns (bool)\n    {\n        _approve(\n            msg.sender,\n            spender,\n            _allowances[msg.sender][spender].sub(\n                subtractedValue,\n                \"SuperToken: decreased allowance below zero\"\n            )\n        );\n        return true;\n    }\n\n    /**************************************************************************\n     * ERC-777 functions\n     *************************************************************************/\n\n    function granularity() external pure override returns (uint256) {\n        return 1;\n    }\n\n    function send(\n        address recipient,\n        uint256 amount,\n        bytes calldata data\n    ) external override {\n        _send(msg.sender, msg.sender, recipient, amount, data, \"\", true);\n    }\n\n    function burn(uint256 amount, bytes calldata data) external override {\n        _downgrade(msg.sender, msg.sender, amount, data, \"\");\n    }\n\n    function isOperatorFor(address operator, address tokenHolder)\n        external\n        view\n        override\n        returns (bool)\n    {\n        return _operators.isOperatorFor(operator, tokenHolder);\n    }\n\n    function authorizeOperator(address operator) external override {\n        address holder = msg.sender;\n        _operators.authorizeOperator(holder, operator);\n        emit AuthorizedOperator(operator, holder);\n    }\n\n    function revokeOperator(address operator) external override {\n        address holder = msg.sender;\n        _operators.revokeOperator(holder, operator);\n        emit RevokedOperator(operator, holder);\n    }\n\n    function defaultOperators()\n        external\n        view\n        override\n        returns (address[] memory)\n    {\n        return ERC777Helper.defaultOperators(_operators);\n    }\n\n    function operatorSend(\n        address sender,\n        address recipient,\n        uint256 amount,\n        bytes calldata data,\n        bytes calldata operatorData\n    ) external override {\n        address operator = msg.sender;\n        if (!_operators.isOperatorFor(operator, sender))\n            revert SUPER_TOKEN_CALLER_IS_NOT_OPERATOR_FOR_HOLDER();\n        _send(operator, sender, recipient, amount, data, operatorData, true);\n    }\n\n    function operatorBurn(\n        address account,\n        uint256 amount,\n        bytes calldata data,\n        bytes calldata operatorData\n    ) external override {\n        address operator = msg.sender;\n        if (!_operators.isOperatorFor(operator, account))\n            revert SUPER_TOKEN_CALLER_IS_NOT_OPERATOR_FOR_HOLDER();\n        _downgrade(operator, account, amount, data, operatorData);\n    }\n\n    function _setupDefaultOperators(address[] memory operators) internal {\n        _operators.setupDefaultOperators(operators);\n    }\n\n    /**************************************************************************\n     * SuperToken custom token functions\n     *************************************************************************/\n\n    function selfMint(\n        address account,\n        uint256 amount,\n        bytes memory userData\n    ) external override onlySelf {\n        _mint(\n            msg.sender,\n            account,\n            amount,\n            false, /* requireReceptionAck */\n            userData,\n            new bytes(0)\n        );\n    }\n\n    function selfBurn(\n        address account,\n        uint256 amount,\n        bytes memory userData\n    ) external override onlySelf {\n        _burn(msg.sender, account, amount, userData, new bytes(0));\n    }\n\n    function selfApproveFor(\n        address account,\n        address spender,\n        uint256 amount\n    ) external override onlySelf {\n        _approve(account, spender, amount);\n    }\n\n    function selfTransferFrom(\n        address holder,\n        address spender,\n        address recipient,\n        uint256 amount\n    ) external override onlySelf {\n        _transferFrom(spender, holder, recipient, amount);\n    }\n\n    /**************************************************************************\n     * SuperToken extra functions\n     *************************************************************************/\n\n    function transferAll(address recipient) external override {\n        _transferFrom(msg.sender, msg.sender, recipient, balanceOf(msg.sender));\n    }\n\n    /**************************************************************************\n     * ERC20 wrapping\n     *************************************************************************/\n\n    /// @dev ISuperfluidGovernance.getUnderlyingToken implementation\n    function getUnderlyingToken() external view override returns (address) {\n        return address(_underlyingToken);\n    }\n\n    /// @dev ISuperToken.upgrade implementation\n    function upgrade(uint256 amount) external override {\n        _upgrade(msg.sender, msg.sender, msg.sender, amount, \"\", \"\");\n    }\n\n    /// @dev ISuperToken.upgradeTo implementation\n    function upgradeTo(\n        address to,\n        uint256 amount,\n        bytes calldata data\n    ) external override {\n        _upgrade(msg.sender, msg.sender, to, amount, \"\", data);\n    }\n\n    /// @dev ISuperToken.downgrade implementation\n    function downgrade(uint256 amount) external override {\n        _downgrade(msg.sender, msg.sender, amount, \"\", \"\");\n    }\n\n    function _upgrade(\n        address operator,\n        address account,\n        address to,\n        uint256 amount,\n        bytes memory userData,\n        bytes memory operatorData\n    ) private {\n        if (address(_underlyingToken) == address(0))\n            revert SUPER_TOKEN_NO_UNDERLYING_TOKEN();\n\n        (\n            uint256 underlyingAmount,\n            uint256 adjustedAmount\n        ) = _toUnderlyingAmount(amount);\n\n        uint256 amountBefore = _underlyingToken.balanceOf(address(this));\n        _underlyingToken.safeTransferFrom(\n            account,\n            address(this),\n            underlyingAmount\n        );\n        uint256 amountAfter = _underlyingToken.balanceOf(address(this));\n        uint256 actualUpgradedAmount = amountAfter - amountBefore;\n        if (underlyingAmount != actualUpgradedAmount)\n            revert SUPER_TOKEN_INFLATIONARY_DEFLATIONARY_NOT_SUPPORTED();\n\n        _mint(\n            operator,\n            to,\n            adjustedAmount,\n            // if `to` is diffferent from `account`, we requireReceptionAck\n            account != to,\n            userData,\n            operatorData\n        );\n\n        emit TokenUpgraded(to, adjustedAmount);\n    }\n\n    function _downgrade(\n        address operator,\n        address account,\n        uint256 amount,\n        bytes memory data,\n        bytes memory operatorData\n    ) private {\n        if (address(_underlyingToken) == address(0))\n            revert SUPER_TOKEN_NO_UNDERLYING_TOKEN();\n\n        (\n            uint256 underlyingAmount,\n            uint256 adjustedAmount\n        ) = _toUnderlyingAmount(amount);\n\n        // _burn will check the (actual) amount availability again\n        _burn(operator, account, adjustedAmount, data, operatorData);\n\n        uint256 amountBefore = _underlyingToken.balanceOf(address(this));\n        _underlyingToken.safeTransfer(account, underlyingAmount);\n        uint256 amountAfter = _underlyingToken.balanceOf(address(this));\n        uint256 actualDowngradedAmount = amountBefore - amountAfter;\n        if (underlyingAmount != actualDowngradedAmount)\n            revert SUPER_TOKEN_INFLATIONARY_DEFLATIONARY_NOT_SUPPORTED();\n\n        emit TokenDowngraded(account, adjustedAmount);\n    }\n\n    /**\n     * @dev Handle decimal differences between underlying token and super token\n     */\n    function _toUnderlyingAmount(uint256 amount)\n        private\n        view\n        returns (uint256 underlyingAmount, uint256 adjustedAmount)\n    {\n        uint256 factor;\n        if (_underlyingDecimals < _STANDARD_DECIMALS) {\n            // if underlying has less decimals\n            // one can upgrade less \"granualar\" amount of tokens\n            factor = 10**(_STANDARD_DECIMALS - _underlyingDecimals);\n            underlyingAmount = amount / factor;\n            // remove precision errors\n            adjustedAmount = underlyingAmount * factor;\n        } else if (_underlyingDecimals > _STANDARD_DECIMALS) {\n            // if underlying has more decimals\n            // one can upgrade more \"granualar\" amount of tokens\n            factor = 10**(_underlyingDecimals - _STANDARD_DECIMALS);\n            underlyingAmount = amount * factor;\n            adjustedAmount = amount;\n        } else {\n            underlyingAmount = adjustedAmount = amount;\n        }\n    }\n\n    /**************************************************************************\n     * Superfluid Batch Operations\n     *************************************************************************/\n\n    function operationApprove(\n        address account,\n        address spender,\n        uint256 amount\n    ) external override onlyHost {\n        _approve(account, spender, amount);\n    }\n\n    function operationTransferFrom(\n        address account,\n        address spender,\n        address recipient,\n        uint256 amount\n    ) external override onlyHost {\n        _transferFrom(account, spender, recipient, amount);\n    }\n\n    function operationUpgrade(address account, uint256 amount)\n        external\n        override\n        onlyHost\n    {\n        _upgrade(msg.sender, account, account, amount, \"\", \"\");\n    }\n\n    function operationDowngrade(address account, uint256 amount)\n        external\n        override\n        onlyHost\n    {\n        _downgrade(msg.sender, account, amount, \"\", \"\");\n    }\n\n    /**************************************************************************\n     * Modifiers\n     *************************************************************************/\n\n    modifier onlySelf() {\n        if (msg.sender != address(this)) revert SUPER_TOKEN_ONLY_SELF();\n        _;\n    }\n}\n",
  "sourcePath": "C:\\Users\\Arogundade Ibrahim\\Documents\\web3\\Buidl\\contracts\\BdlToken.sol",
  "compiler": {
    "name": "solc",
    "version": "0.8.16+commit.07a7930e.Emscripten.clang"
  },
  "schemaVersion": "3.4.10",
  "updatedAt": "2022-10-24T10:30:54.021Z",
  "devdoc": {
    "author": "Superfluid",
    "kind": "dev",
    "methods": {
      "approve(address,uint256)": {
        "details": "Sets `amount` as the allowance of `spender` over the caller's tokens.",
        "returns": {
          "_0": "Returns Success a boolean value indicating whether the operation succeeded."
        }
      },
      "authorizeOperator(address)": {
        "details": "Make an account an operator of the caller. See {isOperatorFor}."
      },
      "balanceOf(address)": {
        "details": "Returns the amount of tokens owned by an account (`owner`)."
      },
      "burn(uint256,bytes)": {
        "details": "Destroys `amount` tokens from the caller's account, reducing the total supply. If a send hook is registered for the caller, the corresponding function will be called with `data` and empty `operatorData`. See {IERC777Sender}."
      },
      "createAgreement(bytes32,bytes32[])": {
        "details": "ISuperfluidToken.createAgreement implementation"
      },
      "decimals()": {
        "details": "Returns the number of decimals used to get its user representation. For example, if `decimals` equals `2`, a balance of `505` tokens should be displayed to a user as `5,05` (`505 / 10 ** 2`). Tokens usually opt for a value of 18, imitating the relationship between Ether and Wei. This is the value {ERC20} uses, unless {_setupDecimals} is called."
      },
      "decreaseAllowance(address,uint256)": {
        "details": "Atomically decreases the allowance granted to `spender` by the caller. This is an alternative to {approve} that can be used as a mitigation for problems described in {IERC20-approve}."
      },
      "defaultOperators()": {
        "details": "Returns the list of default operators. These accounts are operators for all token holders, even if {authorizeOperator} was never called on them. This list is immutable, but individual holders may revoke these via {revokeOperator}, in which case {isOperatorFor} will return false."
      },
      "downgrade(uint256)": {
        "details": "ISuperToken.downgrade implementation"
      },
      "getAccountActiveAgreements(address)": {
        "details": "ISuperfluidToken.getAccountActiveAgreements implementation"
      },
      "getAgreementData(address,bytes32,uint256)": {
        "details": "ISuperfluidToken.getAgreementData implementation"
      },
      "getAgreementStateSlot(address,address,uint256,uint256)": {
        "details": "ISuperfluidToken.getAgreementState implementation"
      },
      "getCodeAddress()": {
        "details": "Get current implementation code address."
      },
      "getHost()": {
        "details": "ISuperfluidToken.getHost implementation"
      },
      "getUnderlyingToken()": {
        "details": "ISuperfluidGovernance.getUnderlyingToken implementation"
      },
      "granularity()": {
        "details": "Returns the smallest part of the token that is not divisible. This         means all token operations (creation, movement and destruction) must have         amounts that are a multiple of this number."
      },
      "increaseAllowance(address,uint256)": {
        "details": "Atomically increases the allowance granted to `spender` by the caller. This is an alternative to {approve} that can be used as a mitigation for problems described in {IERC20-approve}."
      },
      "initialize(address,uint8,string,string)": {
        "details": "Initialize the contract"
      },
      "isAccountCritical(address,uint256)": {
        "details": "A critical account is when availableBalance < 0",
        "params": {
          "account": "The account to check",
          "timestamp": "The time we'd like to check if the account is critical (should use future)"
        },
        "returns": {
          "isCritical": "Whether the account is critical"
        }
      },
      "isAccountCriticalNow(address)": {
        "details": "A critical account is when availableBalance < 0",
        "params": {
          "account": "The account to check"
        },
        "returns": {
          "isCritical": "Whether the account is critical"
        }
      },
      "isAccountSolvent(address,uint256)": {
        "details": "An account is insolvent when the sum of deposits for a token can't cover the negative availableBalance",
        "params": {
          "account": "The account to check",
          "timestamp": "The time we'd like to check if the account is solvent (should use future)"
        },
        "returns": {
          "isSolvent": "True if the account is solvent, false otherwise"
        }
      },
      "isAccountSolventNow(address)": {
        "details": "An account is insolvent when the sum of deposits for a token can't cover the negative availableBalance",
        "params": {
          "account": "The account to check"
        },
        "returns": {
          "isSolvent": "True if the account is solvent, false otherwise"
        }
      },
      "isOperatorFor(address,address)": {
        "details": "Returns true if an account is an operator of `tokenHolder`. Operators can send and burn tokens on behalf of their owners. All accounts are their own operator. See {operatorSend} and {operatorBurn}."
      },
      "makeLiquidationPayoutsV2(bytes32,bytes,address,bool,address,uint256,int256)": {
        "details": "ISuperfluidToken.makeLiquidationPayoutsV2 implementation"
      },
      "name()": {
        "details": "Returns the name of the token."
      },
      "operationApprove(address,address,uint256)": {
        "details": "Perform ERC20 approve by host contract.",
        "params": {
          "account": "The account owner to be approved.",
          "amount": "Number of tokens to be approved.",
          "spender": "The spender of account owner's funds."
        }
      },
      "operationDowngrade(address,uint256)": {
        "details": "Downgrade ERC20 to SuperToken by host contract.",
        "params": {
          "account": "The account to be changed.",
          "amount": "Number of tokens to be downgraded (in 18 decimals)"
        }
      },
      "operationTransferFrom(address,address,address,uint256)": {
        "details": "Perform ERC20 transfer from by host contract.",
        "params": {
          "account": "The account to spend sender's funds.",
          "amount": "Number of tokens to be transferred.",
          "recipient": "The recipient of thefunds.",
          "spender": "The account where the funds is sent from."
        }
      },
      "operationUpgrade(address,uint256)": {
        "details": "Upgrade ERC20 to SuperToken by host contract.",
        "params": {
          "account": "The account to be changed.",
          "amount": "Number of tokens to be upgraded (in 18 decimals)"
        }
      },
      "operatorBurn(address,uint256,bytes,bytes)": {
        "details": "Destroys `amount` tokens from `account`, reducing the total supply. The caller must be an operator of `account`. If a send hook is registered for `account`, the corresponding function will be called with `data` and `operatorData`. See {IERC777Sender}."
      },
      "operatorSend(address,address,uint256,bytes,bytes)": {
        "details": "Moves `amount` tokens from `sender` to `recipient`. The caller must be an operator of `sender`. If send or receive hooks are registered for `sender` and `recipient`, the corresponding functions will be called with `data` and `operatorData`. See {IERC777Sender} and {IERC777Recipient}."
      },
      "proxiableUUID()": {
        "details": "Proxiable UUID marker function, this would help to avoid wrong logic      contract to be used for upgrading. NOTE: The semantics of the UUID deviates from the actual UUPS standard,       where it is equivalent of _IMPLEMENTATION_SLOT."
      },
      "realtimeBalanceOf(address,uint256)": {
        "details": "ISuperfluidToken.realtimeBalanceOf implementation"
      },
      "realtimeBalanceOfNow(address)": {
        "details": "ISuperfluidToken.realtimeBalanceOfNow implementation"
      },
      "revokeOperator(address)": {
        "details": "Revoke an account's operator status for the caller. See {isOperatorFor} and {defaultOperators}."
      },
      "selfApproveFor(address,address,uint256)": {
        "details": "Give `spender`, `amount` allowance to spend the tokens of `account`."
      },
      "selfBurn(address,uint256,bytes)": {
        "details": "Burn existing tokens for the account"
      },
      "selfMint(address,uint256,bytes)": {
        "details": "Mint new tokens for the account"
      },
      "send(address,uint256,bytes)": {
        "details": "Moves `amount` tokens from the caller's account to `recipient`.If send or receive hooks are registered for the caller and `recipient`,      the corresponding functions will be called with `data` and empty      `operatorData`. See {IERC777Sender} and {IERC777Recipient}."
      },
      "settleBalance(address,int256)": {
        "details": "ISuperfluidToken.settleBalance implementation"
      },
      "symbol()": {
        "details": "Returns the symbol of the token, usually a shorter version of the name."
      },
      "terminateAgreement(bytes32,uint256)": {
        "details": "ISuperfluidToken.terminateAgreement implementation"
      },
      "totalSupply()": {
        "details": "See {IERC20-totalSupply}."
      },
      "transfer(address,uint256)": {
        "details": "Moves `amount` tokens from the caller's account to `recipient`.",
        "returns": {
          "_0": "Returns Success a boolean value indicating whether the operation succeeded."
        }
      },
      "transferAll(address)": {
        "details": "Transfer all available balance from `msg.sender` to `recipient`"
      },
      "updateAgreementData(bytes32,bytes32[])": {
        "details": "ISuperfluidToken.updateAgreementData implementation"
      },
      "updateAgreementStateSlot(address,uint256,bytes32[])": {
        "details": "ISuperfluidToken.updateAgreementState implementation"
      },
      "upgrade(uint256)": {
        "details": "ISuperToken.upgrade implementation"
      },
      "upgradeTo(address,uint256,bytes)": {
        "details": "ISuperToken.upgradeTo implementation"
      }
    },
    "stateVariables": {
      "_allowances": {
        "details": "ERC20 Allowances Storage"
      },
      "_name": {
        "details": "TokenInfo Name property"
      },
      "_operators": {
        "details": "ERC777 operators support data"
      },
      "_symbol": {
        "details": "TokenInfo Symbol property"
      },
      "_underlyingDecimals": {
        "details": "Decimals of the underlying token"
      },
      "_underlyingToken": {
        "details": "The underlying ERC20 token"
      }
    },
    "title": "Superfluid's super token implementation",
    "version": 1
  },
  "userdoc": {
    "kind": "user",
    "methods": {
      "isAccountCritical(address,uint256)": {
        "notice": "Check if account is critical"
      },
      "isAccountCriticalNow(address)": {
        "notice": "Check if account is critical now (current host.getNow())"
      },
      "isAccountSolvent(address,uint256)": {
        "notice": "Check if account is solvent"
      },
      "isAccountSolventNow(address)": {
        "notice": "Check if account is solvent now"
      }
    },
    "version": 1
  }
}