{
  "contractName": "BdlToken",
  "abi": [
    {
      "inputs": [],
      "stateMutability": "nonpayable",
      "type": "constructor"
    },
    {
      "anonymous": false,
      "inputs": [
        {
          "indexed": true,
          "internalType": "address",
          "name": "owner",
          "type": "address"
        },
        {
          "indexed": true,
          "internalType": "address",
          "name": "spender",
          "type": "address"
        },
        {
          "indexed": false,
          "internalType": "uint256",
          "name": "value",
          "type": "uint256"
        }
      ],
      "name": "Approval",
      "type": "event"
    },
    {
      "anonymous": false,
      "inputs": [
        {
          "indexed": false,
          "internalType": "address",
          "name": "",
          "type": "address"
        },
        {
          "indexed": false,
          "internalType": "uint256",
          "name": "",
          "type": "uint256"
        }
      ],
      "name": "Charged",
      "type": "event"
    },
    {
      "anonymous": false,
      "inputs": [
        {
          "indexed": false,
          "internalType": "address",
          "name": "",
          "type": "address"
        },
        {
          "indexed": false,
          "internalType": "uint256",
          "name": "",
          "type": "uint256"
        }
      ],
      "name": "Minted",
      "type": "event"
    },
    {
      "anonymous": false,
      "inputs": [
        {
          "indexed": true,
          "internalType": "address",
          "name": "from",
          "type": "address"
        },
        {
          "indexed": true,
          "internalType": "address",
          "name": "to",
          "type": "address"
        },
        {
          "indexed": false,
          "internalType": "uint256",
          "name": "value",
          "type": "uint256"
        }
      ],
      "name": "Transfer",
      "type": "event"
    },
    {
      "inputs": [
        {
          "internalType": "address",
          "name": "owner",
          "type": "address"
        },
        {
          "internalType": "address",
          "name": "spender",
          "type": "address"
        }
      ],
      "name": "allowance",
      "outputs": [
        {
          "internalType": "uint256",
          "name": "",
          "type": "uint256"
        }
      ],
      "stateMutability": "view",
      "type": "function",
      "constant": true
    },
    {
      "inputs": [
        {
          "internalType": "address",
          "name": "spender",
          "type": "address"
        },
        {
          "internalType": "uint256",
          "name": "amount",
          "type": "uint256"
        }
      ],
      "name": "approve",
      "outputs": [
        {
          "internalType": "bool",
          "name": "",
          "type": "bool"
        }
      ],
      "stateMutability": "nonpayable",
      "type": "function"
    },
    {
      "inputs": [
        {
          "internalType": "address",
          "name": "account",
          "type": "address"
        }
      ],
      "name": "balanceOf",
      "outputs": [
        {
          "internalType": "uint256",
          "name": "",
          "type": "uint256"
        }
      ],
      "stateMutability": "view",
      "type": "function",
      "constant": true
    },
    {
      "inputs": [],
      "name": "decimals",
      "outputs": [
        {
          "internalType": "uint8",
          "name": "",
          "type": "uint8"
        }
      ],
      "stateMutability": "view",
      "type": "function",
      "constant": true
    },
    {
      "inputs": [
        {
          "internalType": "address",
          "name": "spender",
          "type": "address"
        },
        {
          "internalType": "uint256",
          "name": "subtractedValue",
          "type": "uint256"
        }
      ],
      "name": "decreaseAllowance",
      "outputs": [
        {
          "internalType": "bool",
          "name": "",
          "type": "bool"
        }
      ],
      "stateMutability": "nonpayable",
      "type": "function"
    },
    {
      "inputs": [],
      "name": "mintAllocation",
      "outputs": [
        {
          "internalType": "uint256",
          "name": "",
          "type": "uint256"
        }
      ],
      "stateMutability": "view",
      "type": "function",
      "constant": true
    },
    {
      "inputs": [
        {
          "internalType": "address",
          "name": "",
          "type": "address"
        }
      ],
      "name": "mints",
      "outputs": [
        {
          "internalType": "uint256",
          "name": "",
          "type": "uint256"
        }
      ],
      "stateMutability": "view",
      "type": "function",
      "constant": true
    },
    {
      "inputs": [],
      "name": "name",
      "outputs": [
        {
          "internalType": "string",
          "name": "",
          "type": "string"
        }
      ],
      "stateMutability": "view",
      "type": "function",
      "constant": true
    },
    {
      "inputs": [],
      "name": "symbol",
      "outputs": [
        {
          "internalType": "string",
          "name": "",
          "type": "string"
        }
      ],
      "stateMutability": "view",
      "type": "function",
      "constant": true
    },
    {
      "inputs": [],
      "name": "totalSupply",
      "outputs": [
        {
          "internalType": "uint256",
          "name": "",
          "type": "uint256"
        }
      ],
      "stateMutability": "view",
      "type": "function",
      "constant": true
    },
    {
      "inputs": [
        {
          "internalType": "address",
          "name": "to",
          "type": "address"
        },
        {
          "internalType": "uint256",
          "name": "amount",
          "type": "uint256"
        }
      ],
      "name": "transfer",
      "outputs": [
        {
          "internalType": "bool",
          "name": "",
          "type": "bool"
        }
      ],
      "stateMutability": "nonpayable",
      "type": "function"
    },
    {
      "inputs": [
        {
          "internalType": "address",
          "name": "from",
          "type": "address"
        },
        {
          "internalType": "address",
          "name": "to",
          "type": "address"
        },
        {
          "internalType": "uint256",
          "name": "amount",
          "type": "uint256"
        }
      ],
      "name": "transferFrom",
      "outputs": [
        {
          "internalType": "bool",
          "name": "",
          "type": "bool"
        }
      ],
      "stateMutability": "nonpayable",
      "type": "function"
    },
    {
      "inputs": [
        {
          "internalType": "address",
          "name": "_address",
          "type": "address"
        }
      ],
      "name": "mint",
      "outputs": [],
      "stateMutability": "nonpayable",
      "type": "function"
    },
    {
      "inputs": [
        {
          "internalType": "address",
          "name": "from",
          "type": "address"
        },
        {
          "internalType": "uint256",
          "name": "amount",
          "type": "uint256"
        }
      ],
      "name": "charge",
      "outputs": [],
      "stateMutability": "nonpayable",
      "type": "function"
    },
    {
      "inputs": [
        {
          "internalType": "address",
          "name": "spender",
          "type": "address"
        },
        {
          "internalType": "uint256",
          "name": "addedValue",
          "type": "uint256"
        }
      ],
      "name": "increaseAllowance",
      "outputs": [
        {
          "internalType": "bool",
          "name": "",
          "type": "bool"
        }
      ],
      "stateMutability": "nonpayable",
      "type": "function"
    },
    {
      "inputs": [
        {
          "internalType": "address",
          "name": "owner",
          "type": "address"
        },
        {
          "internalType": "address",
          "name": "spender",
          "type": "address"
        },
        {
          "internalType": "uint256",
          "name": "amount",
          "type": "uint256"
        }
      ],
      "name": "increaseAllowance",
      "outputs": [
        {
          "internalType": "bool",
          "name": "",
          "type": "bool"
        }
      ],
      "stateMutability": "nonpayable",
      "type": "function"
    }
  ],
  "bytecode": "0x6080604052620000146200015b60201b60201c565b600a62000022919062000480565b60c8620000309190620004d1565b6006553480156200004057600080fd5b506040518060400160405280600b81526020017f427569646c20546f6b656e0000000000000000000000000000000000000000008152506040518060400160405280600381526020017f42444c00000000000000000000000000000000000000000000000000000000008152508160039081620000be91906200078c565b508060049081620000d091906200078c565b50505033600560006101000a81548173ffffffffffffffffffffffffffffffffffffffff021916908373ffffffffffffffffffffffffffffffffffffffff1602179055506200015533620001296200015b60201b60201c565b600a62000137919062000480565b6402540be400620001499190620004d1565b6200016460201b60201c565b6200095f565b60006012905090565b600073ffffffffffffffffffffffffffffffffffffffff168273ffffffffffffffffffffffffffffffffffffffff1603620001d6576040517f08c379a0000000000000000000000000000000000000000000000000000000008152600401620001cd90620008d4565b60405180910390fd5b620001ea60008383620002dc60201b60201c565b8060026000828254620001fe9190620008f6565b92505081905550806000808473ffffffffffffffffffffffffffffffffffffffff1673ffffffffffffffffffffffffffffffffffffffff1681526020019081526020016000206000828254620002559190620008f6565b925050819055508173ffffffffffffffffffffffffffffffffffffffff16600073ffffffffffffffffffffffffffffffffffffffff167fddf252ad1be2c89b69c2b068fc378daa952ba7f163c4a11628f55a4df523b3ef83604051620002bc919062000942565b60405180910390a3620002d860008383620002e160201b60201c565b5050565b505050565b505050565b7f4e487b7100000000000000000000000000000000000000000000000000000000600052601160045260246000fd5b60008160011c9050919050565b6000808291508390505b600185111562000374578086048111156200034c576200034b620002e6565b5b60018516156200035c5780820291505b80810290506200036c8562000315565b94506200032c565b94509492505050565b6000826200038f576001905062000462565b816200039f576000905062000462565b8160018114620003b85760028114620003c357620003f9565b600191505062000462565b60ff841115620003d857620003d7620002e6565b5b8360020a915084821115620003f257620003f1620002e6565b5b5062000462565b5060208310610133831016604e8410600b8410161715620004335782820a9050838111156200042d576200042c620002e6565b5b62000462565b62000442848484600162000322565b925090508184048111156200045c576200045b620002e6565b5b81810290505b9392505050565b6000819050919050565b600060ff82169050919050565b60006200048d8262000469565b91506200049a8362000473565b9250620004c97fffffffffffffffffffffffffffffffffffffffffffffffffffffffffffffffff84846200037d565b905092915050565b6000620004de8262000469565b9150620004eb8362000469565b9250828202620004fb8162000469565b91508282048414831517620005155762000514620002e6565b5b5092915050565b600081519050919050565b7f4e487b7100000000000000000000000000000000000000000000000000000000600052604160045260246000fd5b7f4e487b7100000000000000000000000000000000000000000000000000000000600052602260045260246000fd5b600060028204905060018216806200059e57607f821691505b602082108103620005b457620005b362000556565b5b50919050565b60008190508160005260206000209050919050565b60006020601f8301049050919050565b600082821b905092915050565b6000600883026200061e7fffffffffffffffffffffffffffffffffffffffffffffffffffffffffffffffff82620005df565b6200062a8683620005df565b95508019841693508086168417925050509392505050565b6000819050919050565b60006200066d62000667620006618462000469565b62000642565b62000469565b9050919050565b6000819050919050565b62000689836200064c565b620006a1620006988262000674565b848454620005ec565b825550505050565b600090565b620006b8620006a9565b620006c58184846200067e565b505050565b5b81811015620006ed57620006e1600082620006ae565b600181019050620006cb565b5050565b601f8211156200073c576200070681620005ba565b6200071184620005cf565b8101602085101562000721578190505b620007396200073085620005cf565b830182620006ca565b50505b505050565b600082821c905092915050565b6000620007616000198460080262000741565b1980831691505092915050565b60006200077c83836200074e565b9150826002028217905092915050565b62000797826200051c565b67ffffffffffffffff811115620007b357620007b262000527565b5b620007bf825462000585565b620007cc828285620006f1565b600060209050601f831160018114620008045760008415620007ef578287015190505b620007fb85826200076e565b8655506200086b565b601f1984166200081486620005ba565b60005b828110156200083e5784890151825560018201915060208501945060208101905062000817565b868310156200085e57848901516200085a601f8916826200074e565b8355505b6001600288020188555050505b505050505050565b600082825260208201905092915050565b7f45524332303a206d696e7420746f20746865207a65726f206164647265737300600082015250565b6000620008bc601f8362000873565b9150620008c98262000884565b602082019050919050565b60006020820190508181036000830152620008ef81620008ad565b9050919050565b6000620009038262000469565b9150620009108362000469565b92508282019050808211156200092b576200092a620002e6565b5b92915050565b6200093c8162000469565b82525050565b600060208201905062000959600083018462000931565b92915050565b6115d3806200096f6000396000f3fe608060405234801561001057600080fd5b50600436106101005760003560e01c80636c43a2ca11610097578063a457c2d711610066578063a457c2d7146102d5578063a9059cbb14610305578063bc64a54d14610335578063dd62ed3e1461035357610100565b80636c43a2ca1461023b57806370a082311461026b57806395d89b411461029b578063a3ffa9cd146102b957610100565b8063313ce567116100d3578063313ce567146101a157806339509351146101bf5780635660f851146101ef5780636a6278421461021f57610100565b806306fdde0314610105578063095ea7b31461012357806318160ddd1461015357806323b872dd14610171575b600080fd5b61010d610383565b60405161011a9190610e0c565b60405180910390f35b61013d60048036038101906101389190610ec7565b610415565b60405161014a9190610f22565b60405180910390f35b61015b610438565b6040516101689190610f4c565b60405180910390f35b61018b60048036038101906101869190610f67565b610442565b6040516101989190610f22565b60405180910390f35b6101a9610471565b6040516101b69190610fd6565b60405180910390f35b6101d960048036038101906101d49190610ec7565b61047a565b6040516101e69190610f22565b60405180910390f35b61020960048036038101906102049190610ff1565b6104b1565b6040516102169190610f4c565b60405180910390f35b61023960048036038101906102349190610ff1565b6104c9565b005b61025560048036038101906102509190610f67565b6105ff565b6040516102629190610f22565b60405180910390f35b61028560048036038101906102809190610ff1565b61062b565b6040516102929190610f4c565b60405180910390f35b6102a3610673565b6040516102b09190610e0c565b60405180910390f35b6102d360048036038101906102ce9190610ec7565b610705565b005b6102ef60048036038101906102ea9190610ec7565b61076f565b6040516102fc9190610f22565b60405180910390f35b61031f600480360381019061031a9190610ec7565b6107e6565b60405161032c9190610f22565b60405180910390f35b61033d610809565b60405161034a9190610f4c565b60405180910390f35b61036d6004803603810190610368919061101e565b61080f565b60405161037a9190610f4c565b60405180910390f35b6060600380546103929061108d565b80601f01602080910402602001604051908101604052809291908181526020018280546103be9061108d565b801561040b5780601f106103e05761010080835404028352916020019161040b565b820191906000526020600020905b8154815290600101906020018083116103ee57829003601f168201915b5050505050905090565b600080610420610896565b905061042d81858561089e565b600191505092915050565b6000600254905090565b60008061044d610896565b905061045a858285610a67565b610465858585610af3565b60019150509392505050565b60006012905090565b600080610485610896565b90506104a6818585610497858961080f565b6104a191906110ed565b61089e565b600191505092915050565b60076020528060005260406000206000915090505481565b600654600760008373ffffffffffffffffffffffffffffffffffffffff1673ffffffffffffffffffffffffffffffffffffffff168152602001908152602001600020541061054c576040517f08c379a00000000000000000000000000000000000000000000000000000000081526004016105439061116d565b60405180910390fd5b61057b600560009054906101000a900473ffffffffffffffffffffffffffffffffffffffff1682600654610af3565b600654600760008373ffffffffffffffffffffffffffffffffffffffff1673ffffffffffffffffffffffffffffffffffffffff168152602001908152602001600020819055507f30385c845b448a36257a6a1716e6ad2e1bc2cbe333cde1e69fe849ad6511adfe816006546040516105f492919061119c565b60405180910390a150565b6000610620848484610611888861080f565b61061b91906110ed565b61089e565b600190509392505050565b60008060008373ffffffffffffffffffffffffffffffffffffffff1673ffffffffffffffffffffffffffffffffffffffff168152602001908152602001600020549050919050565b6060600480546106829061108d565b80601f01602080910402602001604051908101604052809291908181526020018280546106ae9061108d565b80156106fb5780601f106106d0576101008083540402835291602001916106fb565b820191906000526020600020905b8154815290600101906020018083116106de57829003601f168201915b5050505050905090565b61073282600560009054906101000a900473ffffffffffffffffffffffffffffffffffffffff1683610af3565b7ff1c444ccb4378dbb8659f4ea38920ec0f501fc70c8299cc202055f62f33f190e828260405161076392919061119c565b60405180910390a15050565b60008061077a610896565b90506000610788828661080f565b9050838110156107cd576040517f08c379a00000000000000000000000000000000000000000000000000000000081526004016107c490611237565b60405180910390fd5b6107da828686840361089e565b60019250505092915050565b6000806107f1610896565b90506107fe818585610af3565b600191505092915050565b60065481565b6000600160008473ffffffffffffffffffffffffffffffffffffffff1673ffffffffffffffffffffffffffffffffffffffff16815260200190815260200160002060008373ffffffffffffffffffffffffffffffffffffffff1673ffffffffffffffffffffffffffffffffffffffff16815260200190815260200160002054905092915050565b600033905090565b600073ffffffffffffffffffffffffffffffffffffffff168373ffffffffffffffffffffffffffffffffffffffff160361090d576040517f08c379a0000000000000000000000000000000000000000000000000000000008152600401610904906112c9565b60405180910390fd5b600073ffffffffffffffffffffffffffffffffffffffff168273ffffffffffffffffffffffffffffffffffffffff160361097c576040517f08c379a00000000000000000000000000000000000000000000000000000000081526004016109739061135b565b60405180910390fd5b80600160008573ffffffffffffffffffffffffffffffffffffffff1673ffffffffffffffffffffffffffffffffffffffff16815260200190815260200160002060008473ffffffffffffffffffffffffffffffffffffffff1673ffffffffffffffffffffffffffffffffffffffff168152602001908152602001600020819055508173ffffffffffffffffffffffffffffffffffffffff168373ffffffffffffffffffffffffffffffffffffffff167f8c5be1e5ebec7d5bd14f71427d1e84f3dd0314c0f7b2291e5b200ac8c7c3b92583604051610a5a9190610f4c565b60405180910390a3505050565b6000610a73848461080f565b90507fffffffffffffffffffffffffffffffffffffffffffffffffffffffffffffffff8114610aed5781811015610adf576040517f08c379a0000000000000000000000000000000000000000000000000000000008152600401610ad6906113c7565b60405180910390fd5b610aec848484840361089e565b5b50505050565b600073ffffffffffffffffffffffffffffffffffffffff168373ffffffffffffffffffffffffffffffffffffffff1603610b62576040517f08c379a0000000000000000000000000000000000000000000000000000000008152600401610b5990611459565b60405180910390fd5b600073ffffffffffffffffffffffffffffffffffffffff168273ffffffffffffffffffffffffffffffffffffffff1603610bd1576040517f08c379a0000000000000000000000000000000000000000000000000000000008152600401610bc8906114eb565b60405180910390fd5b610bdc838383610d72565b60008060008573ffffffffffffffffffffffffffffffffffffffff1673ffffffffffffffffffffffffffffffffffffffff16815260200190815260200160002054905081811015610c62576040517f08c379a0000000000000000000000000000000000000000000000000000000008152600401610c599061157d565b60405180910390fd5b8181036000808673ffffffffffffffffffffffffffffffffffffffff1673ffffffffffffffffffffffffffffffffffffffff16815260200190815260200160002081905550816000808573ffffffffffffffffffffffffffffffffffffffff1673ffffffffffffffffffffffffffffffffffffffff1681526020019081526020016000206000828254610cf591906110ed565b925050819055508273ffffffffffffffffffffffffffffffffffffffff168473ffffffffffffffffffffffffffffffffffffffff167fddf252ad1be2c89b69c2b068fc378daa952ba7f163c4a11628f55a4df523b3ef84604051610d599190610f4c565b60405180910390a3610d6c848484610d77565b50505050565b505050565b505050565b600081519050919050565b600082825260208201905092915050565b60005b83811015610db6578082015181840152602081019050610d9b565b60008484015250505050565b6000601f19601f8301169050919050565b6000610dde82610d7c565b610de88185610d87565b9350610df8818560208601610d98565b610e0181610dc2565b840191505092915050565b60006020820190508181036000830152610e268184610dd3565b905092915050565b600080fd5b600073ffffffffffffffffffffffffffffffffffffffff82169050919050565b6000610e5e82610e33565b9050919050565b610e6e81610e53565b8114610e7957600080fd5b50565b600081359050610e8b81610e65565b92915050565b6000819050919050565b610ea481610e91565b8114610eaf57600080fd5b50565b600081359050610ec181610e9b565b92915050565b60008060408385031215610ede57610edd610e2e565b5b6000610eec85828601610e7c565b9250506020610efd85828601610eb2565b9150509250929050565b60008115159050919050565b610f1c81610f07565b82525050565b6000602082019050610f376000830184610f13565b92915050565b610f4681610e91565b82525050565b6000602082019050610f616000830184610f3d565b92915050565b600080600060608486031215610f8057610f7f610e2e565b5b6000610f8e86828701610e7c565b9350506020610f9f86828701610e7c565b9250506040610fb086828701610eb2565b9150509250925092565b600060ff82169050919050565b610fd081610fba565b82525050565b6000602082019050610feb6000830184610fc7565b92915050565b60006020828403121561100757611006610e2e565b5b600061101584828501610e7c565b91505092915050565b6000806040838503121561103557611034610e2e565b5b600061104385828601610e7c565b925050602061105485828601610e7c565b9150509250929050565b7f4e487b7100000000000000000000000000000000000000000000000000000000600052602260045260246000fd5b600060028204905060018216806110a557607f821691505b6020821081036110b8576110b761105e565b5b50919050565b7f4e487b7100000000000000000000000000000000000000000000000000000000600052601160045260246000fd5b60006110f882610e91565b915061110383610e91565b925082820190508082111561111b5761111a6110be565b5b92915050565b7f596f752063616e2774206d696e74206d6f726520746f6b656e73000000000000600082015250565b6000611157601a83610d87565b915061116282611121565b602082019050919050565b600060208201905081810360008301526111868161114a565b9050919050565b61119681610e53565b82525050565b60006040820190506111b1600083018561118d565b6111be6020830184610f3d565b9392505050565b7f45524332303a2064656372656173656420616c6c6f77616e63652062656c6f7760008201527f207a65726f000000000000000000000000000000000000000000000000000000602082015250565b6000611221602583610d87565b915061122c826111c5565b604082019050919050565b6000602082019050818103600083015261125081611214565b9050919050565b7f45524332303a20617070726f76652066726f6d20746865207a65726f2061646460008201527f7265737300000000000000000000000000000000000000000000000000000000602082015250565b60006112b3602483610d87565b91506112be82611257565b604082019050919050565b600060208201905081810360008301526112e2816112a6565b9050919050565b7f45524332303a20617070726f766520746f20746865207a65726f20616464726560008201527f7373000000000000000000000000000000000000000000000000000000000000602082015250565b6000611345602283610d87565b9150611350826112e9565b604082019050919050565b6000602082019050818103600083015261137481611338565b9050919050565b7f45524332303a20696e73756666696369656e7420616c6c6f77616e6365000000600082015250565b60006113b1601d83610d87565b91506113bc8261137b565b602082019050919050565b600060208201905081810360008301526113e0816113a4565b9050919050565b7f45524332303a207472616e736665722066726f6d20746865207a65726f20616460008201527f6472657373000000000000000000000000000000000000000000000000000000602082015250565b6000611443602583610d87565b915061144e826113e7565b604082019050919050565b6000602082019050818103600083015261147281611436565b9050919050565b7f45524332303a207472616e7366657220746f20746865207a65726f206164647260008201527f6573730000000000000000000000000000000000000000000000000000000000602082015250565b60006114d5602383610d87565b91506114e082611479565b604082019050919050565b60006020820190508181036000830152611504816114c8565b9050919050565b7f45524332303a207472616e7366657220616d6f756e742065786365656473206260008201527f616c616e63650000000000000000000000000000000000000000000000000000602082015250565b6000611567602683610d87565b91506115728261150b565b604082019050919050565b600060208201905081810360008301526115968161155a565b905091905056fea26469706673582212206dcf2ee1a62e946b2eba5faee488478473a1d72b085b5b4d9e481a6b479e7a3064736f6c63430008110033",
  "immutableReferences": {},
  "source": "// SPDX-License-Identifier: GPL-3.0\n\npragma solidity >=0.7.0 <0.9.0;\n\nimport \"@openzeppelin/contracts/token/ERC20/ERC20.sol\";\n\ncontract BdlToken is ERC20 {\n\n    address deployer;\n    uint256 public mintAllocation = 200 * 10 ** decimals();\n\n    mapping(address => uint256) public mints;\n\n    constructor() ERC20(\"Buidl Token\", \"BDL\") {\n        deployer = msg.sender;\n        _mint(msg.sender, 10000000000 * 10 ** decimals()); // ten billion\n    }\n\n    function mint(address _address) public {\n        require((mints[_address] < mintAllocation), \"You can't mint more tokens\");\n        _transfer(deployer, _address, mintAllocation);\n        mints[_address] = mintAllocation;\n        emit Minted(_address, mintAllocation);\n    }\n\n    // deducts token from user for a particular service\n    function charge(address from, uint256 amount) public {\n        _transfer(from, deployer, amount);\n        emit Charged(from, amount);\n    }\n\n    function increaseAllowance(address owner, address spender, uint256 amount) public virtual returns (bool) {\n        _approve(owner, spender, allowance(owner, spender) + amount);\n        return true;\n    }\n\n    event Minted(address, uint256);\n    event Charged(address, uint256);\n\n}\n",
  "sourcePath": "C:\\Users\\Arogundade Ibrahim\\Documents\\web3\\Buidl\\contracts\\BdlToken.sol",
  "compiler": {
    "name": "solc",
    "version": "0.8.17+commit.8df45f5f.Emscripten.clang"
  },
  "schemaVersion": "3.4.10",
  "updatedAt": "2022-10-18T12:29:43.103Z",
  "networkType": "ethereum",
  "devdoc": {
    "kind": "dev",
    "methods": {
      "allowance(address,address)": {
        "details": "See {IERC20-allowance}."
      },
      "approve(address,uint256)": {
        "details": "See {IERC20-approve}. NOTE: If `amount` is the maximum `uint256`, the allowance is not updated on `transferFrom`. This is semantically equivalent to an infinite approval. Requirements: - `spender` cannot be the zero address."
      },
      "balanceOf(address)": {
        "details": "See {IERC20-balanceOf}."
      },
      "decimals()": {
        "details": "Returns the number of decimals used to get its user representation. For example, if `decimals` equals `2`, a balance of `505` tokens should be displayed to a user as `5.05` (`505 / 10 ** 2`). Tokens usually opt for a value of 18, imitating the relationship between Ether and Wei. This is the value {ERC20} uses, unless this function is overridden; NOTE: This information is only used for _display_ purposes: it in no way affects any of the arithmetic of the contract, including {IERC20-balanceOf} and {IERC20-transfer}."
      },
      "decreaseAllowance(address,uint256)": {
        "details": "Atomically decreases the allowance granted to `spender` by the caller. This is an alternative to {approve} that can be used as a mitigation for problems described in {IERC20-approve}. Emits an {Approval} event indicating the updated allowance. Requirements: - `spender` cannot be the zero address. - `spender` must have allowance for the caller of at least `subtractedValue`."
      },
      "increaseAllowance(address,uint256)": {
        "details": "Atomically increases the allowance granted to `spender` by the caller. This is an alternative to {approve} that can be used as a mitigation for problems described in {IERC20-approve}. Emits an {Approval} event indicating the updated allowance. Requirements: - `spender` cannot be the zero address."
      },
      "name()": {
        "details": "Returns the name of the token."
      },
      "symbol()": {
        "details": "Returns the symbol of the token, usually a shorter version of the name."
      },
      "totalSupply()": {
        "details": "See {IERC20-totalSupply}."
      },
      "transfer(address,uint256)": {
        "details": "See {IERC20-transfer}. Requirements: - `to` cannot be the zero address. - the caller must have a balance of at least `amount`."
      },
      "transferFrom(address,address,uint256)": {
        "details": "See {IERC20-transferFrom}. Emits an {Approval} event indicating the updated allowance. This is not required by the EIP. See the note at the beginning of {ERC20}. NOTE: Does not update the allowance if the current allowance is the maximum `uint256`. Requirements: - `from` and `to` cannot be the zero address. - `from` must have a balance of at least `amount`. - the caller must have allowance for ``from``'s tokens of at least `amount`."
      }
    },
    "version": 1
  },
  "userdoc": {
    "kind": "user",
    "methods": {},
    "version": 1
  }
}