{
  "contractName": "Buidl",
  "abi": [
    {
      "inputs": [
        {
          "internalType": "address",
          "name": "bdlToken",
          "type": "address"
        },
        {
          "internalType": "address",
          "name": "bdlNft",
          "type": "address"
        },
        {
          "internalType": "address",
          "name": "bdlCertificate",
          "type": "address"
        },
        {
          "internalType": "address",
          "name": "bdlCourse",
          "type": "address"
        },
        {
          "internalType": "address",
          "name": "staking",
          "type": "address"
        },
        {
          "internalType": "address",
          "name": "gateway_",
          "type": "address"
        }
      ],
      "stateMutability": "nonpayable",
      "type": "constructor"
    },
    {
      "inputs": [],
      "name": "InvalidAddress",
      "type": "error"
    },
    {
      "inputs": [],
      "name": "NotApprovedByGateway",
      "type": "error"
    },
    {
      "anonymous": false,
      "inputs": [
        {
          "indexed": false,
          "internalType": "address",
          "name": "owner",
          "type": "address"
        },
        {
          "indexed": false,
          "internalType": "bool",
          "name": "verified",
          "type": "bool"
        }
      ],
      "name": "Creator",
      "type": "event"
    },
    {
      "anonymous": false,
      "inputs": [
        {
          "indexed": false,
          "internalType": "address",
          "name": "owner",
          "type": "address"
        },
        {
          "indexed": false,
          "internalType": "string",
          "name": "name",
          "type": "string"
        },
        {
          "indexed": false,
          "internalType": "string",
          "name": "photo",
          "type": "string"
        },
        {
          "indexed": false,
          "internalType": "bool",
          "name": "verified",
          "type": "bool"
        }
      ],
      "name": "User",
      "type": "event"
    },
    {
      "inputs": [
        {
          "internalType": "bytes32",
          "name": "commandId",
          "type": "bytes32"
        },
        {
          "internalType": "string",
          "name": "sourceChain",
          "type": "string"
        },
        {
          "internalType": "string",
          "name": "sourceAddress",
          "type": "string"
        },
        {
          "internalType": "bytes",
          "name": "payload",
          "type": "bytes"
        }
      ],
      "name": "execute",
      "outputs": [],
      "stateMutability": "nonpayable",
      "type": "function"
    },
    {
      "inputs": [
        {
          "internalType": "bytes32",
          "name": "commandId",
          "type": "bytes32"
        },
        {
          "internalType": "string",
          "name": "sourceChain",
          "type": "string"
        },
        {
          "internalType": "string",
          "name": "sourceAddress",
          "type": "string"
        },
        {
          "internalType": "bytes",
          "name": "payload",
          "type": "bytes"
        },
        {
          "internalType": "string",
          "name": "tokenSymbol",
          "type": "string"
        },
        {
          "internalType": "uint256",
          "name": "amount",
          "type": "uint256"
        }
      ],
      "name": "executeWithToken",
      "outputs": [],
      "stateMutability": "nonpayable",
      "type": "function"
    },
    {
      "inputs": [],
      "name": "gateway",
      "outputs": [
        {
          "internalType": "contract IAxelarGateway",
          "name": "",
          "type": "address"
        }
      ],
      "stateMutability": "view",
      "type": "function"
    },
    {
      "inputs": [
        {
          "internalType": "address",
          "name": "",
          "type": "address"
        }
      ],
      "name": "revenues",
      "outputs": [
        {
          "internalType": "uint256",
          "name": "unclaimed",
          "type": "uint256"
        },
        {
          "internalType": "uint256",
          "name": "claimable",
          "type": "uint256"
        },
        {
          "internalType": "uint256",
          "name": "claimed",
          "type": "uint256"
        }
      ],
      "stateMutability": "view",
      "type": "function"
    },
    {
      "inputs": [
        {
          "internalType": "address",
          "name": "",
          "type": "address"
        }
      ],
      "name": "users",
      "outputs": [
        {
          "internalType": "uint256",
          "name": "id",
          "type": "uint256"
        },
        {
          "internalType": "bool",
          "name": "verified",
          "type": "bool"
        },
        {
          "internalType": "string",
          "name": "photo",
          "type": "string"
        },
        {
          "internalType": "uint256",
          "name": "createdAt",
          "type": "uint256"
        }
      ],
      "stateMutability": "view",
      "type": "function"
    },
    {
      "inputs": [
        {
          "internalType": "string",
          "name": "name",
          "type": "string"
        },
        {
          "internalType": "string",
          "name": "photo",
          "type": "string"
        }
      ],
      "name": "setAccount",
      "outputs": [],
      "stateMutability": "nonpayable",
      "type": "function"
    },
    {
      "inputs": [
        {
          "internalType": "uint256",
          "name": "amount",
          "type": "uint256"
        }
      ],
      "name": "stake",
      "outputs": [],
      "stateMutability": "nonpayable",
      "type": "function"
    },
    {
      "inputs": [],
      "name": "unlockCreator",
      "outputs": [],
      "stateMutability": "nonpayable",
      "type": "function"
    },
    {
      "inputs": [],
      "name": "removeCreator",
      "outputs": [],
      "stateMutability": "nonpayable",
      "type": "function"
    },
    {
      "inputs": [
        {
          "internalType": "uint256",
          "name": "id",
          "type": "uint256"
        }
      ],
      "name": "subscribe",
      "outputs": [],
      "stateMutability": "nonpayable",
      "type": "function"
    },
    {
      "inputs": [
        {
          "internalType": "uint256",
          "name": "id",
          "type": "uint256"
        }
      ],
      "name": "unSubscribe",
      "outputs": [],
      "stateMutability": "nonpayable",
      "type": "function"
    },
    {
      "inputs": [
        {
          "internalType": "uint256",
          "name": "amount",
          "type": "uint256"
        }
      ],
      "name": "withdrawPlatformFee",
      "outputs": [],
      "stateMutability": "nonpayable",
      "type": "function"
    }
  ],
  "bytecode": "0x60c0604052600a600055686c6b935b8bbd4000006006556301e1338060075560006008553480156200003057600080fd5b50604051620016e8380380620016e8833981016040819052620000539162000107565b806001600160a01b0381166200007c5760405163e6c4247b60e01b815260040160405180910390fd5b6001600160a01b039081166080523360a052600180549682166001600160a01b03199788161790556002805497821697871697909717909655506003805493861693851693909317909255600480549185169184169190911790556005805491909316911617905562000188565b80516001600160a01b03811681146200010257600080fd5b919050565b60008060008060008060c087890312156200012157600080fd5b6200012c87620000ea565b95506200013c60208801620000ea565b94506200014c60408801620000ea565b93506200015c60608801620000ea565b92506200016c60808801620000ea565b91506200017c60a08801620000ea565b90509295509295509295565b60805160a05161151f620001c960003960008181610cad01528181610d910152610e1b01526000818160f301528181610418015261071c015261151f6000f3fe608060405234801561001057600080fd5b50600436106100d45760003560e01c80637f26fc7d11610081578063a87430ba1161005b578063a87430ba146101e3578063c193b2e414610206578063dde7c1901461020e57600080fd5b80637f26fc7d146101b557806390bf70b0146101bd578063a694fc3a146101d057600080fd5b80632796b030116100b25780632796b03014610145578063491606581461015857806378ae98c81461016b57600080fd5b80630f574ba7146100d9578063116191b6146100ee5780631a98b2e014610132575b600080fd5b6100ec6100e7366004610f15565b610221565b005b6101157f000000000000000000000000000000000000000000000000000000000000000081565b6040516001600160a01b0390911681526020015b60405180910390f35b6100ec610140366004610f77565b6103ce565b6100ec610153366004610f15565b6104ca565b6100ec610166366004611051565b6106d2565b61019a61017936600461110d565b600a6020526000908152604090208054600182015460029092015490919083565b60408051938452602084019290925290820152606001610129565b6100ec6107d3565b6100ec6101cb3660046111d4565b61087f565b6100ec6101de366004610f15565b6108d9565b6101f66101f136600461110d565b610a6d565b604051610129949392919061127e565b6100ec610b22565b6100ec61021c366004610f15565b610ca2565b600480546040517f59e6951d00000000000000000000000000000000000000000000000000000000815291820183905233602483015260009182916001600160a01b0316906359e6951d9060440160408051808303816000875af115801561028d573d6000803e3d6000fd5b505050506040513d601f19601f820116820180604052508101906102b191906112b0565b6001600160a01b0381166000908152600a60205260408120805493955091935084926102de9084906112f6565b909155505060025460405163e1f21c6760e01b8152336004820152306024820152604481018490526001600160a01b039091169063e1f21c6790606401600060405180830381600087803b15801561033557600080fd5b505af1158015610349573d6000803e3d6000fd5b50506002546040516323b872dd60e01b8152336004820152306024820152604481018690526001600160a01b0390911692506323b872dd91506064016020604051808303816000875af11580156103a4573d6000803e3d6000fd5b505050506040513d601f19601f820116820180604052508101906103c8919061130f565b50505050565b600085856040516103e0929190611331565b6040519081900381207f1876eed900000000000000000000000000000000000000000000000000000000825291506001600160a01b037f00000000000000000000000000000000000000000000000000000000000000001690631876eed99061045d908e908e908e908e908e9089908d908d908d9060040161136a565b6020604051808303816000875af115801561047c573d6000803e3d6000fd5b505050506040513d601f19601f820116820180604052508101906104a0919061130f565b6104bd57604051631403112d60e21b815260040160405180910390fd5b5050505050505050505050565b600480546040517ff30e6e9b00000000000000000000000000000000000000000000000000000000815291820183905233602483015260009182918291829182916001600160a01b039091169063f30e6e9b9060440160a0604051808303816000875af115801561053f573d6000803e3d6000fd5b505050506040513d601f19601f8201168201806040525081019061056391906113c9565b60025460405163e1f21c6760e01b815230600482015233602482015260448101879052959a50939850919650945092506001600160a01b03169063e1f21c6790606401600060405180830381600087803b1580156105c057600080fd5b505af11580156105d4573d6000803e3d6000fd5b50506002546040516323b872dd60e01b8152306004820152336024820152604481018990526001600160a01b0390911692506323b872dd91506064016020604051808303816000875af115801561062f573d6000803e3d6000fd5b505050506040513d601f19601f82011682018060405250810190610653919061130f565b506001600160a01b0383166000908152600a60205260408120805484929061067c908490611413565b90915550506001600160a01b0383166000908152600a6020526040812060010180548692906106ac9084906112f6565b9250508190555080600860008282546106c591906112f6565b9091555050505050505050565b600082826040516106e4929190611331565b6040519081900381207f5f6970c300000000000000000000000000000000000000000000000000000000825291506001600160a01b037f00000000000000000000000000000000000000000000000000000000000000001690635f6970c39061075b908b908b908b908b908b908990600401611426565b6020604051808303816000875af115801561077a573d6000803e3d6000fd5b505050506040513d601f19601f8201168201806040525081019061079e919061130f565b6107bb57604051631403112d60e21b815260040160405180910390fd5b6107c9878787878787610e9e565b5050505050505050565b3360009081526009602052604090206001015460ff166108285760405162461bcd60e51b815260206004820152600b60248201526a08585d5d1a1bdc9a5e995960aa1b60448201526064015b60405180910390fd5b336000818152600960209081526040808320600101805460ff191690558051938452908301919091527fb5763ba23a8384e26e9f2f5bfcd8e3795e4248ce7bb99a61c9ee6488d352a5b191015b60405180910390a1565b33600081815260096020526040908190206001015490517f2d3804f6670a9e165ddef24bb7f7345753423a96b66b32c302cfefcda19ad467926108cd9290918691869160ff90911690611467565b60405180910390a15050565b60025460405163e1f21c6760e01b8152336004820152306024820152604481018390526001600160a01b039091169063e1f21c6790606401600060405180830381600087803b15801561092b57600080fd5b505af115801561093f573d6000803e3d6000fd5b50506002546040516323b872dd60e01b8152336004820152306024820152604481018590526001600160a01b0390911692506323b872dd91506064016020604051808303816000875af115801561099a573d6000803e3d6000fd5b505050506040513d601f19601f820116820180604052508101906109be919061130f565b506005546007546001600160a01b039091169063ab84bb7890339084906109e590426112f6565b6040517fffffffff0000000000000000000000000000000000000000000000000000000060e086901b1681526001600160a01b0390931660048401526024830191909152604482015260006064820152608401600060405180830381600087803b158015610a5257600080fd5b505af1158015610a66573d6000803e3d6000fd5b5050505050565b600960205260009081526040902080546001820154600283018054929360ff90921692610a99906114af565b80601f0160208091040260200160405190810160405280929190818152602001828054610ac5906114af565b8015610b125780601f10610ae757610100808354040283529160200191610b12565b820191906000526020600020905b815481529060010190602001808311610af557829003601f168201915b5050505050908060040154905084565b3360009081526009602052604090206001015460ff1615610b735760405162461bcd60e51b815260206004820152600b60248201526a08585d5d1a1bdc9a5e995960aa1b604482015260640161081f565b6005546006546040517fde36071500000000000000000000000000000000000000000000000000000000815260048101919091523360248201526001600160a01b039091169063de36071590604401602060405180830381865afa158015610bdf573d6000803e3d6000fd5b505050506040513d601f19601f82011682018060405250810190610c03919061130f565b610c4f5760405162461bcd60e51b815260206004820152601860248201527f217374616b655f726571756972656d656e745f66697273740000000000000000604482015260640161081f565b336000818152600960209081526040918290206001908101805460ff1916821790558251938452908301527fb5763ba23a8384e26e9f2f5bfcd8e3795e4248ce7bb99a61c9ee6488d352a5b19101610875565b336001600160a01b037f00000000000000000000000000000000000000000000000000000000000000001614610d085760405162461bcd60e51b815260206004820152600b60248201526a08585d5d1a1bdc9a5e995960aa1b604482015260640161081f565b806008541015610d5a5760405162461bcd60e51b815260206004820152601360248201527f696e73756669636369656e7420746f6b656e7300000000000000000000000000604482015260640161081f565b8060086000828254610d6c9190611413565b909155505060025460405163e1f21c6760e01b81523060048201526001600160a01b037f000000000000000000000000000000000000000000000000000000000000000081166024830152604482018490529091169063e1f21c6790606401600060405180830381600087803b158015610de557600080fd5b505af1158015610df9573d6000803e3d6000fd5b50506002546040516323b872dd60e01b81523060048201526001600160a01b037f0000000000000000000000000000000000000000000000000000000000000000811660248301526044820186905290911692506323b872dd91506064016020604051808303816000875af1158015610e76573d6000803e3d6000fd5b505050506040513d601f19601f82011682018060405250810190610e9a919061130f565b5050565b6000610eac82840184610f15565b6040517f0f574ba7000000000000000000000000000000000000000000000000000000008152600481018290529091503090630f574ba790602401600060405180830381600087803b158015610f0157600080fd5b505af11580156104bd573d6000803e3d6000fd5b600060208284031215610f2757600080fd5b5035919050565b60008083601f840112610f4057600080fd5b50813567ffffffffffffffff811115610f5857600080fd5b602083019150836020828501011115610f7057600080fd5b9250929050565b60008060008060008060008060008060c08b8d031215610f9657600080fd5b8a35995060208b013567ffffffffffffffff80821115610fb557600080fd5b610fc18e838f01610f2e565b909b50995060408d0135915080821115610fda57600080fd5b610fe68e838f01610f2e565b909950975060608d0135915080821115610fff57600080fd5b61100b8e838f01610f2e565b909750955060808d013591508082111561102457600080fd5b506110318d828e01610f2e565b9150809450508092505060a08b013590509295989b9194979a5092959850565b60008060008060008060006080888a03121561106c57600080fd5b87359650602088013567ffffffffffffffff8082111561108b57600080fd5b6110978b838c01610f2e565b909850965060408a01359150808211156110b057600080fd5b6110bc8b838c01610f2e565b909650945060608a01359150808211156110d557600080fd5b506110e28a828b01610f2e565b989b979a50959850939692959293505050565b6001600160a01b038116811461110a57600080fd5b50565b60006020828403121561111f57600080fd5b813561112a816110f5565b9392505050565b634e487b7160e01b600052604160045260246000fd5b600082601f83011261115857600080fd5b813567ffffffffffffffff8082111561117357611173611131565b604051601f8301601f19908116603f0116810190828211818310171561119b5761119b611131565b816040528381528660208588010111156111b457600080fd5b836020870160208301376000602085830101528094505050505092915050565b600080604083850312156111e757600080fd5b823567ffffffffffffffff808211156111ff57600080fd5b61120b86838701611147565b9350602085013591508082111561122157600080fd5b5061122e85828601611147565b9150509250929050565b6000815180845260005b8181101561125e57602081850181015186830182015201611242565b506000602082860101526020601f19601f83011685010191505092915050565b848152831515602082015260806040820152600061129f6080830185611238565b905082606083015295945050505050565b600080604083850312156112c357600080fd5b8251915060208301516112d5816110f5565b809150509250929050565b634e487b7160e01b600052601160045260246000fd5b80820180821115611309576113096112e0565b92915050565b60006020828403121561132157600080fd5b8151801515811461112a57600080fd5b8183823760009101908152919050565b81835281816020850137506000828201602090810191909152601f909101601f19169091010190565b89815260c06020820152600061138460c083018a8c611341565b828103604084015261139781898b611341565b905086606084015282810360808401526113b2818688611341565b9150508260a08301529a9950505050505050505050565b600080600080600060a086880312156113e157600080fd5b855194506020860151935060408601516113fa816110f5565b6060870151608090970151959894975095949392505050565b81810381811115611309576113096112e0565b868152608060208201526000611440608083018789611341565b8281036040840152611453818688611341565b915050826060830152979650505050505050565b6001600160a01b03851681526080602082015260006114896080830186611238565b828103604084015261149b8186611238565b915050821515606083015295945050505050565b600181811c908216806114c357607f821691505b6020821081036114e357634e487b7160e01b600052602260045260246000fd5b5091905056fea2646970667358221220dbeb9c01563433fba43e955aca38da55bd2fc4f2c57cf0c9288e54855028445264736f6c63430008100033",
  "immutableReferences": {
    "10": [
      {
        "length": 32,
        "start": 243
      },
      {
        "length": 32,
        "start": 1048
      },
      {
        "length": 32,
        "start": 1820
      }
    ],
    "4359": [
      {
        "length": 32,
        "start": 3245
      },
      {
        "length": 32,
        "start": 3473
      },
      {
        "length": 32,
        "start": 3611
      }
    ]
  },
  "source": "// SPDX-License-Identifier: GPL-3.0\npragma solidity >=0.7.0 <0.9.0;\n\nimport {AxelarExecutable} from \"@axelar-network/axelar-gmp-sdk-solidity/contracts/executables/AxelarExecutable.sol\";\nimport {IAxelarGateway} from \"@axelar-network/axelar-gmp-sdk-solidity/contracts/interfaces/IAxelarGateway.sol\";\nimport {IAxelarGasService} from \"@axelar-network/axelar-gmp-sdk-solidity/contracts/interfaces/IAxelarGasService.sol\";\n\nimport {BdlNft} from \"./BdlNft.sol\";\nimport {BdlCertificate} from \"./BdlCertificate.sol\";\nimport {Models} from \"./base/Models.sol\";\nimport {BdlToken} from \"./BdlToken.sol\";\nimport {BdlCourse} from \"./BdlCourse.sol\";\nimport {Staking} from \"./Staking.sol\";\n\ncontract Buidl is AxelarExecutable {\n    address private immutable deployer;\n\n    /* fee charged on every succesful subscription made */\n    uint256 private subscriptionFee = 10; // percentage rate\n\n    BdlNft private _bdlNft; // nft reward (coupon) contract\n    BdlToken private _bdlToken; // erc20(streamable token) contract\n    BdlCertificate private _bdlCertificate; // erc4973 certificate contract\n    BdlCourse private _bdlCourse; // course contract\n    Staking private _staking; // staking contract\n\n    // creators requirement\n    // these requirement helps us to filter fuds\n    // and abuse of the ecosystem\n    uint256 private creatorStakingFee = 2000 * 10**18;\n    uint256 private creatorStakingDuration = 365 days;\n\n    // earnings made on the platform so far\n    uint256 private platformEarnings = 0;\n\n    // ecosystem users\n    mapping(address => Models.User) public users;\n    mapping(address => Models.Revenue) public revenues;\n\n    // contructor\n    constructor(\n        address bdlToken,\n        address bdlNft,\n        address bdlCertificate,\n        address bdlCourse,\n        address staking,\n        address gateway_\n    ) AxelarExecutable(gateway_) {\n        deployer = msg.sender;\n\n        _bdlNft = BdlNft(bdlNft);\n        _bdlToken = BdlToken(bdlToken);\n        _bdlCertificate = BdlCertificate(bdlCertificate);\n        _bdlCourse = BdlCourse(bdlCourse);\n        _staking = Staking(staking);\n    }\n\n    /* creates user metadata */\n    function setAccount(string memory name, string memory photo) public {\n        emit User(msg.sender, name, photo, users[msg.sender].verified);\n    }\n\n    /* stake in the smart contract */\n    function stake(uint256 amount) public {\n        _bdlToken.approve(msg.sender, address(this), amount);\n        _bdlToken.transferFrom(msg.sender, address(this), amount);\n        _staking.stake(msg.sender, amount, block.timestamp + creatorStakingDuration, 0);\n    }\n\n    /* unlock creator */\n    function unlockCreator() public notVerified {\n        // check if user has staked min requirement\n        require(\n            _staking.hasStaked(creatorStakingFee, msg.sender),\n            \"!stake_requirement_first\"\n        );\n\n        users[msg.sender].verified = true;\n        emit Creator(msg.sender, true);\n    }\n\n    /* remove creator */\n    function removeCreator() public onlyVerified {\n        users[msg.sender].verified = false;\n        emit Creator(msg.sender, false);\n    }\n\n    /* subscribe to a course */\n    /* params course id */\n    function subscribe(uint id) public {\n        (uint256 price, address creator) = _bdlCourse.subscribe(id, msg.sender);\n\n        /* payment are locked in the smart contract */\n        /* the course creator will be able to claim it after two weeks */\n        /* if the course wasn't refunded by the subscriber */\n\n        /* increase creator's unclaimed revenue */\n        revenues[creator].unclaimed += price;\n\n        _bdlToken.approve(msg.sender, address(this), price);\n        _bdlToken.transferFrom(msg.sender, address(this), price);\n    }\n\n    /* subscribe to a course */\n    /* params course id */\n    function unSubscribe(uint id) public {\n        (\n            uint256 payableAmount,\n            uint256 earnings,\n            address creator,\n            uint256 price,\n            uint256 _platformEarnings\n        ) = _bdlCourse.unSubscribe(id, msg.sender);\n\n        // refund the user from the contract\n        _bdlToken.approve(address(this), msg.sender, payableAmount);\n        _bdlToken.transferFrom(address(this), msg.sender, payableAmount);\n\n        // deduct creator's unclaimed revenue\n        revenues[creator].unclaimed -= price;\n\n        // credit creator earnings from the refunded course\n        revenues[creator].claimable += earnings;\n\n        // credit platform from the refunded course\n        platformEarnings += _platformEarnings;\n    }\n\n    /* deployer to cashout earnings */\n    function withdrawPlatformFee(uint256 amount) public onlyDeployer {\n        require(platformEarnings >= amount, \"insuficcient tokens\");\n        platformEarnings -= amount;\n        _bdlToken.approve(address(this), deployer, amount);\n        _bdlToken.transferFrom(address(this), deployer, amount);\n    }\n\n    function _execute(\n        string calldata sourceChain_,\n        string calldata sourceAddress_,\n        bytes calldata payload_\n    ) internal override {\n        uint id = abi.decode(payload_, (uint));\n        // sourceChain = sourceChain_;\n        // sourceAddress = sourceAddress_;\n        this.subscribe(id);\n    }\n\n    modifier onlyVerified() {\n        /* only account that has staked atleast 2000 BDL token */\n        require(users[msg.sender].verified, \"!authorized\");\n        _;\n    }\n\n    modifier notVerified() {\n        /* only account that hasn't staked atleast 2000 BDL token */\n        require(!users[msg.sender].verified, \"!authorized\");\n        _;\n    }\n\n    modifier onlyDeployer() {\n        /* only account that deployed the contract */\n        require(msg.sender == deployer, \"!authorized\");\n        _;\n    }\n\n    // == events == //\n    event User(address owner, string name, string photo, bool verified);\n    event Creator(address owner, bool verified);\n}\n",
  "sourcePath": "C:\\Users\\Arogundade Ibrahim\\Documents\\web3\\Buidl\\contracts\\Buidl.sol",
  "compiler": {
    "name": "solc",
    "version": "0.8.16+commit.07a7930e.Emscripten.clang"
  },
  "schemaVersion": "3.4.10",
  "updatedAt": "2022-11-01T18:13:48.416Z",
  "devdoc": {
    "kind": "dev",
    "methods": {},
    "version": 1
  },
  "userdoc": {
    "kind": "user",
    "methods": {},
    "version": 1
  }
}