{
  "contractName": "Buidl",
  "abi": [
    {
      "inputs": [
        {
          "internalType": "address",
          "name": "bdlToken",
          "type": "address"
        },
        {
          "internalType": "address",
          "name": "bdlNft",
          "type": "address"
        },
        {
          "internalType": "address",
          "name": "bdlCertificate",
          "type": "address"
        },
        {
          "internalType": "address",
          "name": "bdlCourse",
          "type": "address"
        },
        {
          "internalType": "address",
          "name": "staking",
          "type": "address"
        }
      ],
      "stateMutability": "nonpayable",
      "type": "constructor"
    },
    {
      "anonymous": false,
      "inputs": [
        {
          "indexed": false,
          "internalType": "string",
          "name": "name",
          "type": "string"
        },
        {
          "indexed": false,
          "internalType": "string",
          "name": "photo",
          "type": "string"
        },
        {
          "indexed": false,
          "internalType": "address",
          "name": "owner",
          "type": "address"
        }
      ],
      "name": "CreateAccount",
      "type": "event"
    },
    {
      "inputs": [
        {
          "internalType": "address",
          "name": "",
          "type": "address"
        }
      ],
      "name": "revenues",
      "outputs": [
        {
          "internalType": "uint256",
          "name": "unclaimed",
          "type": "uint256"
        },
        {
          "internalType": "uint256",
          "name": "claimable",
          "type": "uint256"
        },
        {
          "internalType": "uint256",
          "name": "claimed",
          "type": "uint256"
        }
      ],
      "stateMutability": "view",
      "type": "function"
    },
    {
      "inputs": [
        {
          "internalType": "address",
          "name": "",
          "type": "address"
        }
      ],
      "name": "users",
      "outputs": [
        {
          "internalType": "uint256",
          "name": "id",
          "type": "uint256"
        },
        {
          "internalType": "bool",
          "name": "verified",
          "type": "bool"
        },
        {
          "internalType": "string",
          "name": "photo",
          "type": "string"
        },
        {
          "internalType": "uint256",
          "name": "createdAt",
          "type": "uint256"
        }
      ],
      "stateMutability": "view",
      "type": "function"
    },
    {
      "inputs": [
        {
          "internalType": "string",
          "name": "name",
          "type": "string"
        },
        {
          "internalType": "string",
          "name": "photo",
          "type": "string"
        }
      ],
      "name": "createAccount",
      "outputs": [],
      "stateMutability": "nonpayable",
      "type": "function"
    },
    {
      "inputs": [],
      "name": "unlockCreator",
      "outputs": [],
      "stateMutability": "nonpayable",
      "type": "function"
    },
    {
      "inputs": [
        {
          "internalType": "uint256",
          "name": "id",
          "type": "uint256"
        }
      ],
      "name": "subscribe",
      "outputs": [],
      "stateMutability": "nonpayable",
      "type": "function"
    },
    {
      "inputs": [
        {
          "internalType": "uint256",
          "name": "id",
          "type": "uint256"
        },
        {
          "internalType": "uint256",
          "name": "sId",
          "type": "uint256"
        },
        {
          "internalType": "uint256",
          "name": "weight",
          "type": "uint256"
        }
      ],
      "name": "unSubscribe",
      "outputs": [],
      "stateMutability": "nonpayable",
      "type": "function"
    }
  ],
  "bytecode": "0x60a0604052600a600055686c6b935b8bbd400000600655600060075534801561002757600080fd5b50604051610ce2380380610ce2833981016040819052610046916100c5565b33608052600180546001600160a01b03199081166001600160a01b0396871617909155600280548216968616969096179095556003805486169385169390931790925560048054851691841691909117905560058054909316911617905561012a565b80516001600160a01b03811681146100c057600080fd5b919050565b600080600080600060a086880312156100dd57600080fd5b6100e6866100a9565b94506100f4602087016100a9565b9350610102604087016100a9565b9250610110606087016100a9565b915061011e608087016100a9565b90509295509295909350565b608051610ba061014260003960005050610ba06000f3fe608060405234801561001057600080fd5b50600436106100725760003560e01c8063a87430ba11610050578063a87430ba146100ee578063c193b2e414610111578063e282b9a41461011957600080fd5b80630f574ba714610077578063192892871461008c57806378ae98c81461009f575b600080fd5b61008a61008536600461081c565b61012c565b005b61008a61009a3660046108d8565b6102d9565b6100ce6100ad366004610954565b60096020526000908152604090208054600182015460029092015490919083565b604080519384526020840192909252908201526060015b60405180910390f35b6101016100fc366004610954565b610318565b6040516100e594939291906109be565b61008a6103cd565b61008a6101273660046109f0565b6105ed565b600480546040517f59e6951d00000000000000000000000000000000000000000000000000000000815291820183905233602483015260009182916001600160a01b0316906359e6951d9060440160408051808303816000875af1158015610198573d6000803e3d6000fd5b505050506040513d601f19601f820116820180604052508101906101bc9190610a1c565b6001600160a01b0381166000908152600960205260408120805493955091935084926101e9908490610a62565b909155505060025460405163e1f21c6760e01b8152336004820152306024820152604481018490526001600160a01b039091169063e1f21c6790606401600060405180830381600087803b15801561024057600080fd5b505af1158015610254573d6000803e3d6000fd5b50506002546040516323b872dd60e01b8152336004820152306024820152604481018690526001600160a01b0390911692506323b872dd91506064016020604051808303816000875af11580156102af573d6000803e3d6000fd5b505050506040513d601f19601f820116820180604052508101906102d39190610a7b565b50505050565b7f50fd3eed642e5245d4cff2cdb43da32c0271f953aca75fa46292ea122b32d1b482823360405161030c93929190610a9d565b60405180910390a15050565b600860205260009081526040902080546001820154600283018054929360ff9092169261034490610adc565b80601f016020809104026020016040519081016040528092919081815260200182805461037090610adc565b80156103bd5780601f10610392576101008083540402835291602001916103bd565b820191906000526020600020905b8154815290600101906020018083116103a057829003601f168201915b5050505050908060040154905084565b3360009081526008602052604090206001015460ff161561044e576040517f08c379a000000000000000000000000000000000000000000000000000000000815260206004820152600b60248201527f21617574686f72697a6564000000000000000000000000000000000000000000604482015260640160405180910390fd5b60025460065460405163e1f21c6760e01b815233600482015230602482015260448101919091526001600160a01b039091169063e1f21c6790606401600060405180830381600087803b1580156104a457600080fd5b505af11580156104b8573d6000803e3d6000fd5b50506002546006546040516323b872dd60e01b815233600482015230602482015260448101919091526001600160a01b0390911692506323b872dd91506064016020604051808303816000875af1158015610517573d6000803e3d6000fd5b505050506040513d601f19601f8201168201806040525081019061053b9190610a7b565b506005546006546007546040517fab84bb7800000000000000000000000000000000000000000000000000000000815233600482015260248101929092526044820152600060648201526001600160a01b039091169063ab84bb7890608401600060405180830381600087803b1580156105b457600080fd5b505af11580156105c8573d6000803e3d6000fd5b50503360009081526008602052604090206001908101805460ff191690911790555050565b600480546040517fcc7a56a00000000000000000000000000000000000000000000000000000000081529182018590526024820184905233604483015260009182916001600160a01b03169063cc7a56a09060640160408051808303816000875af1158015610660573d6000803e3d6000fd5b505050506040513d601f19601f820116820180604052508101906106849190610a1c565b909250905060006106958385610b16565b905060006106a38285610b35565b90506000816006546106b59190610b48565b6106c0906064610b16565b6106ca9083610b35565b6001600160a01b0385166000908152600960205260408120805492935083929091906106f7908490610a62565b90915550506001600160a01b03841660009081526009602052604081206001018054839290610727908490610a62565b909155505060025460405163e1f21c6760e01b8152306004820152336024820152604481018590526001600160a01b039091169063e1f21c6790606401600060405180830381600087803b15801561077e57600080fd5b505af1158015610792573d6000803e3d6000fd5b50506002546040516323b872dd60e01b8152306004820152336024820152604481018790526001600160a01b0390911692506323b872dd91506064016020604051808303816000875af11580156107ed573d6000803e3d6000fd5b505050506040513d601f19601f820116820180604052508101906108119190610a7b565b505050505050505050565b60006020828403121561082e57600080fd5b5035919050565b634e487b7160e01b600052604160045260246000fd5b600082601f83011261085c57600080fd5b813567ffffffffffffffff8082111561087757610877610835565b604051601f8301601f19908116603f0116810190828211818310171561089f5761089f610835565b816040528381528660208588010111156108b857600080fd5b836020870160208301376000602085830101528094505050505092915050565b600080604083850312156108eb57600080fd5b823567ffffffffffffffff8082111561090357600080fd5b61090f8683870161084b565b9350602085013591508082111561092557600080fd5b506109328582860161084b565b9150509250929050565b6001600160a01b038116811461095157600080fd5b50565b60006020828403121561096657600080fd5b81356109718161093c565b9392505050565b6000815180845260005b8181101561099e57602081850181015186830182015201610982565b506000602082860101526020601f19601f83011685010191505092915050565b84815283151560208201526080604082015260006109df6080830185610978565b905082606083015295945050505050565b600080600060608486031215610a0557600080fd5b505081359360208301359350604090920135919050565b60008060408385031215610a2f57600080fd5b825191506020830151610a418161093c565b809150509250929050565b634e487b7160e01b600052601160045260246000fd5b80820180821115610a7557610a75610a4c565b92915050565b600060208284031215610a8d57600080fd5b8151801515811461097157600080fd5b606081526000610ab06060830186610978565b8281036020840152610ac28186610978565b9150506001600160a01b0383166040830152949350505050565b600181811c90821680610af057607f821691505b602082108103610b1057634e487b7160e01b600052602260045260246000fd5b50919050565b6000816000190483118215151615610b3057610b30610a4c565b500290565b81810381811115610a7557610a75610a4c565b600082610b6557634e487b7160e01b600052601260045260246000fd5b50049056fea2646970667358221220de5cadfb4cbd52bb5b1788f5ea292865a11049413f3d76b683d61070b656dfb064736f6c63430008100033",
  "immutableReferences": {},
  "source": "// SPDX-License-Identifier: GPL-3.0\npragma solidity >=0.7.0 <0.9.0;\n\nimport {BdlNft} from \"./BdlNft.sol\";\nimport {BdlCertificate} from \"./BdlCertificate.sol\";\nimport {Models} from \"./base/Models.sol\";\n// import {PaymentFlow} from \"./PaymentFlow.sol\";\n// import {BdlToken} from \"./BdlToken.sol\";\nimport {BdlTestToken} from \"./BdlTestToken.sol\";\nimport {BdlCourse} from \"./BdlCourse.sol\";\nimport {Staking} from \"./Staking.sol\";\n\ncontract Buidl {\n    address private immutable deployer;\n\n    /* fee charged on every succesful subscription made */\n    uint256 private subscriptionFee = 10; // percentage rate\n\n    BdlNft private _bdlNft; // nft reward (coupon) contract\n    // BdlToken private _bdlToken; // erc20(streamable token) contract\n    BdlTestToken private _bdlToken; // erc20(streamable token) contract\n    BdlCertificate private _bdlCertificate; // erc4973 certificate contract\n    BdlCourse private _bdlCourse; // course contract\n    // PaymentFlow private _paymentFlow; // flow (erc20 streaming) contract\n    Staking private _staking; // staking contract\n\n    // creators requirement\n    // these requirement helps us to filter fuds\n    // and abuse of the ecosystem\n    uint256 private creatorStakingFee = 2000 * 10**18;\n    uint256 private creatorStakingDuration = 365 * 0;\n\n    // ecosystem users\n    mapping(address => Models.User) public users;\n    mapping(address => Models.Revenue) public revenues;\n\n    // contructor\n    constructor(\n        address bdlToken,\n        address bdlNft,\n        address bdlCertificate,\n        address bdlCourse,\n        // address paymentFlow,\n        address staking\n    ) {\n        deployer = msg.sender;\n\n        _bdlNft = BdlNft(bdlNft);\n        _bdlToken = BdlTestToken(bdlToken);\n        // _bdlToken = BdlToken(bdlToken);\n        _bdlCertificate = BdlCertificate(bdlCertificate);\n        _bdlCourse = BdlCourse(bdlCourse);\n        // _paymentFlow = PaymentFlow(paymentFlow);\n        _staking = Staking(staking);\n    }\n\n    /* creates user metadata */\n    function createAccount(string memory name, string memory photo) public {\n        emit CreateAccount(name, photo, msg.sender);\n    }\n\n    /* unlock creator */\n    function unlockCreator() public notVerified {\n        _bdlToken.approve(msg.sender, address(this), creatorStakingFee);\n        _bdlToken.transferFrom(msg.sender, address(this), creatorStakingFee);\n        _staking.stake(\n            msg.sender,\n            creatorStakingFee,\n            creatorStakingDuration,\n            0 /* no reward for creator's account staking */\n        );\n        users[msg.sender].verified = true;\n    }\n\n    /* subscribe to a course */\n    /* params course id */\n    function subscribe(uint id) public {\n        (uint256 price, address creator) = _bdlCourse.subscribe(id, msg.sender);\n\n        /* payment are locked in the smart contract */\n        /* the course creator will be able to claim it after two weeks */\n        /* if the course wasn't refunded by the subscriber */\n\n        /* increase creator's unclaimed revenue */\n        revenues[creator].unclaimed += price;\n\n        _bdlToken.approve(msg.sender, address(this), price);\n        _bdlToken.transferFrom(msg.sender, address(this), price);\n    }\n\n    /* subscribe to a course */\n    /* params course id, subscription id, refundable percentage */\n    function unSubscribe(uint id, uint sId, uint weight) public {\n        (uint256 price, address creator) = _bdlCourse.unSubscribe(id, sId, msg.sender);\n\n        uint256 refundable = weight * price; /* amount learner will receive back */\n        uint256 nonRefundable = (price - refundable); /* not refundable due to learner activity on the course */\n        uint256 creatorRevenue = nonRefundable -\n            ((creatorStakingFee / nonRefundable) * 100); /* amount creator will earn */\n\n        /* increase creator's unclaimed & claimable revenue */\n        revenues[creator].unclaimed += creatorRevenue;\n        revenues[creator].claimable += creatorRevenue;\n\n        _bdlToken.approve(address(this), msg.sender, refundable);\n        _bdlToken.transferFrom(address(this), msg.sender, refundable);\n    }\n\n    modifier onlyVerified() {\n        /* only account that has staked atleast 2000 BDL token */\n        require(users[msg.sender].verified, \"!authorized\");\n        _;\n    }\n\n    modifier notVerified() {\n        /* only account that hasn't staked atleast 2000 BDL token */\n        require(!users[msg.sender].verified, \"!authorized\");\n        _;\n    }\n\n    // == events == //\n    event CreateAccount(string name, string photo, address owner);\n}\n",
  "sourcePath": "C:\\Users\\Arogundade Ibrahim\\Documents\\web3\\Buidl\\contracts\\Buidl.sol",
  "compiler": {
    "name": "solc",
    "version": "0.8.16+commit.07a7930e.Emscripten.clang"
  },
  "schemaVersion": "3.4.10",
  "updatedAt": "2022-10-25T14:36:18.030Z",
  "networkType": "ethereum",
  "devdoc": {
    "kind": "dev",
    "methods": {},
    "version": 1
  },
  "userdoc": {
    "kind": "user",
    "methods": {},
    "version": 1
  }
}