{
  "contractName": "Buidl",
  "abi": [
    {
      "inputs": [
        {
          "internalType": "address",
          "name": "bdlToken",
          "type": "address"
        },
        {
          "internalType": "address",
          "name": "bdlNft",
          "type": "address"
        },
        {
          "internalType": "address",
          "name": "bdlCertificate",
          "type": "address"
        },
        {
          "internalType": "address",
          "name": "paymentFlow",
          "type": "address"
        }
      ],
      "stateMutability": "nonpayable",
      "type": "constructor"
    },
    {
      "anonymous": false,
      "inputs": [
        {
          "indexed": false,
          "internalType": "address",
          "name": "student",
          "type": "address"
        },
        {
          "indexed": false,
          "internalType": "uint256",
          "name": "courseId",
          "type": "uint256"
        }
      ],
      "name": "CourseCompletion",
      "type": "event"
    },
    {
      "anonymous": false,
      "inputs": [
        {
          "indexed": false,
          "internalType": "address",
          "name": "intructor",
          "type": "address"
        },
        {
          "indexed": false,
          "internalType": "address",
          "name": "student",
          "type": "address"
        },
        {
          "indexed": false,
          "internalType": "uint256",
          "name": "courseId",
          "type": "uint256"
        }
      ],
      "name": "CoursePurchased",
      "type": "event"
    },
    {
      "anonymous": false,
      "inputs": [
        {
          "indexed": false,
          "internalType": "address",
          "name": "student",
          "type": "address"
        },
        {
          "indexed": false,
          "internalType": "uint256",
          "name": "courseId",
          "type": "uint256"
        },
        {
          "indexed": false,
          "internalType": "uint256",
          "name": "sectionsViewed",
          "type": "uint256"
        }
      ],
      "name": "CourseRefunded",
      "type": "event"
    },
    {
      "inputs": [
        {
          "internalType": "uint256",
          "name": "",
          "type": "uint256"
        }
      ],
      "name": "categories",
      "outputs": [
        {
          "internalType": "uint256",
          "name": "id",
          "type": "uint256"
        },
        {
          "internalType": "string",
          "name": "name",
          "type": "string"
        },
        {
          "internalType": "string",
          "name": "image",
          "type": "string"
        }
      ],
      "stateMutability": "view",
      "type": "function",
      "constant": true
    },
    {
      "inputs": [
        {
          "internalType": "uint256",
          "name": "",
          "type": "uint256"
        },
        {
          "internalType": "uint256",
          "name": "",
          "type": "uint256"
        }
      ],
      "name": "courseSections",
      "outputs": [
        {
          "internalType": "uint256",
          "name": "id",
          "type": "uint256"
        },
        {
          "internalType": "string",
          "name": "title",
          "type": "string"
        },
        {
          "internalType": "string",
          "name": "src",
          "type": "string"
        },
        {
          "internalType": "string",
          "name": "content",
          "type": "string"
        }
      ],
      "stateMutability": "view",
      "type": "function",
      "constant": true
    },
    {
      "inputs": [
        {
          "internalType": "uint256",
          "name": "",
          "type": "uint256"
        }
      ],
      "name": "courses",
      "outputs": [
        {
          "internalType": "uint256",
          "name": "id",
          "type": "uint256"
        },
        {
          "internalType": "string",
          "name": "name",
          "type": "string"
        },
        {
          "internalType": "string",
          "name": "description",
          "type": "string"
        },
        {
          "internalType": "uint256",
          "name": "categoryId",
          "type": "uint256"
        },
        {
          "internalType": "string",
          "name": "ipfsPhoto",
          "type": "string"
        },
        {
          "internalType": "address",
          "name": "instructor",
          "type": "address"
        },
        {
          "internalType": "uint256",
          "name": "price",
          "type": "uint256"
        },
        {
          "internalType": "bool",
          "name": "isPublished",
          "type": "bool"
        },
        {
          "internalType": "uint256",
          "name": "createdAt",
          "type": "uint256"
        },
        {
          "internalType": "uint256",
          "name": "updatedAt",
          "type": "uint256"
        }
      ],
      "stateMutability": "view",
      "type": "function",
      "constant": true
    },
    {
      "inputs": [
        {
          "internalType": "address",
          "name": "",
          "type": "address"
        }
      ],
      "name": "instructors",
      "outputs": [
        {
          "internalType": "uint256",
          "name": "id",
          "type": "uint256"
        },
        {
          "internalType": "string",
          "name": "firstName",
          "type": "string"
        },
        {
          "internalType": "string",
          "name": "lastName",
          "type": "string"
        },
        {
          "internalType": "string",
          "name": "location",
          "type": "string"
        },
        {
          "internalType": "uint256",
          "name": "gender",
          "type": "uint256"
        },
        {
          "internalType": "bool",
          "name": "isVerified",
          "type": "bool"
        },
        {
          "internalType": "string",
          "name": "ipfsPhoto",
          "type": "string"
        },
        {
          "internalType": "string",
          "name": "twitter",
          "type": "string"
        },
        {
          "internalType": "string",
          "name": "linkedin",
          "type": "string"
        },
        {
          "internalType": "uint256",
          "name": "createdAt",
          "type": "uint256"
        }
      ],
      "stateMutability": "view",
      "type": "function",
      "constant": true
    },
    {
      "inputs": [
        {
          "internalType": "address",
          "name": "",
          "type": "address"
        },
        {
          "internalType": "uint256",
          "name": "",
          "type": "uint256"
        }
      ],
      "name": "studentCourses",
      "outputs": [
        {
          "internalType": "uint256",
          "name": "courseId",
          "type": "uint256"
        },
        {
          "internalType": "uint256",
          "name": "purchasedAt",
          "type": "uint256"
        },
        {
          "internalType": "uint256",
          "name": "priceBought",
          "type": "uint256"
        }
      ],
      "stateMutability": "view",
      "type": "function",
      "constant": true
    },
    {
      "inputs": [
        {
          "internalType": "address",
          "name": "",
          "type": "address"
        }
      ],
      "name": "students",
      "outputs": [
        {
          "internalType": "uint256",
          "name": "id",
          "type": "uint256"
        },
        {
          "internalType": "string",
          "name": "name",
          "type": "string"
        },
        {
          "internalType": "string",
          "name": "emailAddress",
          "type": "string"
        },
        {
          "internalType": "uint256",
          "name": "gender",
          "type": "uint256"
        },
        {
          "internalType": "string",
          "name": "ipfsPhoto",
          "type": "string"
        },
        {
          "internalType": "string",
          "name": "country",
          "type": "string"
        },
        {
          "internalType": "uint256",
          "name": "createdAt",
          "type": "uint256"
        }
      ],
      "stateMutability": "view",
      "type": "function",
      "constant": true
    },
    {
      "inputs": [
        {
          "internalType": "uint256",
          "name": "amount",
          "type": "uint256"
        }
      ],
      "name": "setInstructorRegistrationFee",
      "outputs": [],
      "stateMutability": "nonpayable",
      "type": "function"
    },
    {
      "inputs": [
        {
          "internalType": "string",
          "name": "name",
          "type": "string"
        },
        {
          "internalType": "string",
          "name": "image",
          "type": "string"
        }
      ],
      "name": "addCategory",
      "outputs": [],
      "stateMutability": "nonpayable",
      "type": "function"
    },
    {
      "inputs": [
        {
          "internalType": "string",
          "name": "name",
          "type": "string"
        },
        {
          "internalType": "string",
          "name": "description",
          "type": "string"
        },
        {
          "internalType": "uint256",
          "name": "categoryId",
          "type": "uint256"
        }
      ],
      "name": "createCourse",
      "outputs": [],
      "stateMutability": "nonpayable",
      "type": "function"
    },
    {
      "inputs": [
        {
          "internalType": "string",
          "name": "name",
          "type": "string"
        },
        {
          "internalType": "string",
          "name": "description",
          "type": "string"
        },
        {
          "internalType": "string",
          "name": "ipfsPhoto",
          "type": "string"
        },
        {
          "internalType": "uint256",
          "name": "categoryId",
          "type": "uint256"
        },
        {
          "internalType": "uint256",
          "name": "price",
          "type": "uint256"
        },
        {
          "internalType": "uint256",
          "name": "courseId",
          "type": "uint256"
        },
        {
          "internalType": "bool",
          "name": "publish",
          "type": "bool"
        }
      ],
      "name": "updateCourse",
      "outputs": [],
      "stateMutability": "nonpayable",
      "type": "function"
    },
    {
      "inputs": [
        {
          "internalType": "uint256",
          "name": "courseId",
          "type": "uint256"
        },
        {
          "internalType": "string",
          "name": "title",
          "type": "string"
        },
        {
          "internalType": "string",
          "name": "src",
          "type": "string"
        },
        {
          "internalType": "string",
          "name": "content",
          "type": "string"
        },
        {
          "internalType": "uint256",
          "name": "updateFor",
          "type": "uint256"
        }
      ],
      "name": "addSectionToCourse",
      "outputs": [],
      "stateMutability": "nonpayable",
      "type": "function"
    },
    {
      "inputs": [
        {
          "internalType": "uint256",
          "name": "courseId",
          "type": "uint256"
        },
        {
          "internalType": "uint256",
          "name": "sectionIndex",
          "type": "uint256"
        }
      ],
      "name": "deleteCourseSection",
      "outputs": [],
      "stateMutability": "nonpayable",
      "type": "function"
    },
    {
      "inputs": [
        {
          "internalType": "address",
          "name": "instructor",
          "type": "address"
        }
      ],
      "name": "getInstructorCoursesLength",
      "outputs": [
        {
          "internalType": "uint256",
          "name": "",
          "type": "uint256"
        }
      ],
      "stateMutability": "view",
      "type": "function",
      "constant": true
    },
    {
      "inputs": [
        {
          "internalType": "address",
          "name": "instructor",
          "type": "address"
        },
        {
          "internalType": "uint256",
          "name": "index",
          "type": "uint256"
        }
      ],
      "name": "getInstructorCourseIdAtIndex",
      "outputs": [
        {
          "internalType": "uint256",
          "name": "",
          "type": "uint256"
        }
      ],
      "stateMutability": "view",
      "type": "function",
      "constant": true
    },
    {
      "inputs": [
        {
          "internalType": "string",
          "name": "firstName",
          "type": "string"
        },
        {
          "internalType": "string",
          "name": "lastName",
          "type": "string"
        },
        {
          "internalType": "string",
          "name": "location",
          "type": "string"
        },
        {
          "internalType": "uint256",
          "name": "gender",
          "type": "uint256"
        }
      ],
      "name": "createInstructorAccount",
      "outputs": [],
      "stateMutability": "nonpayable",
      "type": "function"
    },
    {
      "inputs": [
        {
          "internalType": "string",
          "name": "name",
          "type": "string"
        },
        {
          "internalType": "string",
          "name": "email",
          "type": "string"
        },
        {
          "internalType": "uint256",
          "name": "gender",
          "type": "uint256"
        }
      ],
      "name": "createStudentAccount",
      "outputs": [],
      "stateMutability": "nonpayable",
      "type": "function"
    },
    {
      "inputs": [
        {
          "internalType": "uint256",
          "name": "courseId",
          "type": "uint256"
        },
        {
          "internalType": "uint256",
          "name": "nftId",
          "type": "uint256"
        },
        {
          "internalType": "uint256",
          "name": "discount",
          "type": "uint256"
        }
      ],
      "name": "purchaseCourse",
      "outputs": [],
      "stateMutability": "nonpayable",
      "type": "function"
    },
    {
      "inputs": [
        {
          "internalType": "uint256",
          "name": "courseId",
          "type": "uint256"
        },
        {
          "internalType": "uint256",
          "name": "sections",
          "type": "uint256"
        },
        {
          "internalType": "uint256",
          "name": "sectionsViewed",
          "type": "uint256"
        }
      ],
      "name": "rejectCourse",
      "outputs": [],
      "stateMutability": "nonpayable",
      "type": "function"
    },
    {
      "inputs": [
        {
          "internalType": "uint256",
          "name": "courseId",
          "type": "uint256"
        },
        {
          "internalType": "string",
          "name": "certificateUri",
          "type": "string"
        },
        {
          "internalType": "string",
          "name": "nftUri",
          "type": "string"
        }
      ],
      "name": "onCompletedCourse",
      "outputs": [],
      "stateMutability": "nonpayable",
      "type": "function"
    },
    {
      "inputs": [],
      "name": "faucetMint",
      "outputs": [],
      "stateMutability": "nonpayable",
      "type": "function"
    }
  ],
  "bytecode": "0x60806040526001600555600160065560016007556001600855686c6b935b8bbd4000006009553480156200003257600080fd5b50604051620046cc380380620046cc8339810160408190526200005591620004f5565b60008054336001600160a01b0319918216179091556002805482166001600160a01b038781169190911790915560038054831686831617905560048054831685831617905560018054909216908316179055620000b1620000bb565b50505050620006eb565b620001076040518060400160405280600f81526020016e15d9588811195d995b1bdc1b595b9d608a1b815250604051806060016040528060278152602001620046606027913962000411565b6200016d60405180604001604052806007815260200166436f6f6b696e6760c81b8152506040518060400160405280601f81526020017f2f696d616765732f63617465676f726965732f636f6f6b696e672e77656270008152506200041160201b60201c565b620001db6040518060400160405280600f81526020016e55492f55582044657369676e696e6760881b8152506040518060400160405280601d81526020017f2f696d616765732f63617465676f726965732f75692d75782e776562700000008152506200041160201b60201c565b620002246040518060400160405280600c81526020016b19a21020b734b6b0ba34b7b760a11b8152506040518060600160405280602181526020016200461c6021913962000411565b6200026d6040518060400160405280600c81526020016b24b6363ab9ba3930ba34b7b760a11b815250604051806060016040528060248152602001620045f86024913962000411565b620002b66040518060400160405280600c81526020016b4461746120536369656e636560a01b815250604051806060016040528060248152602001620046876024913962000411565b6200031d60405180604001604052806008815260200167537065616b696e6760c01b8152506040518060400160405280602081526020017f2f696d616765732f63617465676f726965732f737065616b696e672e776562708152506200041160201b60201c565b62000381604051806040016040528060058152602001644d7573696360d81b8152506040518060400160405280601d81526020017f2f696d616765732f63617465676f726965732f6d757369632e776562700000008152506200041160201b60201c565b620003c96040518060400160405280600b81526020016a50686f746f67726170687960a81b8152506040518060600160405280602381526020016200463d6023913962000411565b6200040f604051806040016040528060098152602001684d61726b6574696e6760b81b815250604051806060016040528060218152602001620046ab6021913962000411565b565b6000546001600160a01b031633146200045e5760405162461bcd60e51b815260206004820152600b60248201526a08585d5d1a1bdc9a5e995960aa1b604482015260640160405180910390fd5b6040805160608101825260085480825260208083018681528385018690526000928352600a9091529290208151815591519091906001820190620004a39082620005f7565b5060408201516002820190620004ba9082620005f7565b50506008805491506000620004cf83620006c3565b91905055505050565b80516001600160a01b0381168114620004f057600080fd5b919050565b600080600080608085870312156200050c57600080fd5b6200051785620004d8565b93506200052760208601620004d8565b92506200053760408601620004d8565b91506200054760608601620004d8565b905092959194509250565b634e487b7160e01b600052604160045260246000fd5b600181811c908216806200057d57607f821691505b6020821081036200059e57634e487b7160e01b600052602260045260246000fd5b50919050565b601f821115620005f257600081815260208120601f850160051c81016020861015620005cd5750805b601f850160051c820191505b81811015620005ee57828155600101620005d9565b5050505b505050565b81516001600160401b0381111562000613576200061362000552565b6200062b8162000624845462000568565b84620005a4565b602080601f8311600181146200066357600084156200064a5750858301515b600019600386901b1c1916600185901b178555620005ee565b600085815260208120601f198616915b82811015620006945788860151825594840194600190910190840162000673565b5085821015620006b35787850151600019600388901b60f8161c191681555b5050505050600190811b01905550565b600060018201620006e457634e487b7160e01b600052601160045260246000fd5b5060010190565b613efd80620006fb6000396000f3fe608060405234801561001057600080fd5b506004361061016c5760003560e01c806396f979d2116100cd578063d031a83411610081578063eaa1612f11610066578063eaa1612f14610339578063f48a5bc81461034c578063fd95cc511461035f57600080fd5b8063d031a834146102fa578063e4bcf87d1461032657600080fd5b8063a6c807a9116100b2578063a6c807a91461029f578063b0f8158c146102c5578063c6cdbe5e146102d857600080fd5b806396f979d214610263578063a4adb24b1461028c57600080fd5b806318222d5e116101245780632a47d91c116101095780632a47d91c146102145780635a6373841461023d5780638f2f3fdd1461025057600080fd5b806318222d5e146101e05780631bf703b21461020157600080fd5b80630da079b4116101555780630da079b4146101b25780630f77df91146101c557806313eda8fc146101d857600080fd5b80630226b0b214610171578063097167ba1461019d575b600080fd5b61018461017f36600461359b565b61038d565b6040516101949493929190613603565b60405180910390f35b6101b06101ab36600461364d565b610572565b005b6101b06101c0366004613709565b6105c4565b6101b06101d3366004613776565b610a03565b6101b0610b94565b6101f36101ee3660046137f8565b610c26565b604051908152602001610194565b6101b061020f366004613824565b610c67565b610227610222366004613888565b610d23565b6040516101949a999897969594939291906138ac565b6101b061024b366004613952565b6110a8565b6101b061025e3660046139f0565b61177e565b61027661027136600461364d565b611a14565b6040516101949a99989796959493929190613aaa565b6101b061029a366004613709565b611c07565b6102b26102ad366004613888565b6120fd565b6040516101949796959493929190613b2b565b6101b06102d336600461359b565b612358565b6102eb6102e636600461364d565b6127dd565b60405161019493929190613b99565b6101f3610308366004613888565b6001600160a01b03166000908152600b602052604090206009015490565b6101b0610334366004613bce565b612910565b6101b0610347366004613c68565b612e20565b6101b061035a366004613c68565b6130ad565b61037261036d3660046137f8565b613461565b60408051938452602084019290925290820152606001610194565b600f60205281600052604060002081815481106103a957600080fd5b9060005260206000209060040201600091509150508060000154908060010180546103d390613c94565b80601f01602080910402602001604051908101604052809291908181526020018280546103ff90613c94565b801561044c5780601f106104215761010080835404028352916020019161044c565b820191906000526020600020905b81548152906001019060200180831161042f57829003601f168201915b50505050509080600201805461046190613c94565b80601f016020809104026020016040519081016040528092919081815260200182805461048d90613c94565b80156104da5780601f106104af576101008083540402835291602001916104da565b820191906000526020600020905b8154815290600101906020018083116104bd57829003601f168201915b5050505050908060030180546104ef90613c94565b80601f016020809104026020016040519081016040528092919081815260200182805461051b90613c94565b80156105685780601f1061053d57610100808354040283529160200191610568565b820191906000526020600020905b81548152906001019060200180831161054b57829003601f168201915b5050505050905084565b6000546001600160a01b031633146105bf5760405162461bcd60e51b815260206004820152600b60248201526a08585d5d1a1bdc9a5e995960aa1b60448201526064015b60405180910390fd5b600955565b336000908152600c60205260409020541580156105ee5750336000908152600b6020526040902054155b6106285760405162461bcd60e51b815260206004820152600b60248201526a08585d5d1a1bdc9a5e995960aa1b60448201526064016105b6565b336000908152600c602090815260408083208151610100810190925280548252600181018054929391929184019161065f90613c94565b80601f016020809104026020016040519081016040528092919081815260200182805461068b90613c94565b80156106d85780601f106106ad576101008083540402835291602001916106d8565b820191906000526020600020905b8154815290600101906020018083116106bb57829003601f168201915b505050505081526020016002820180546106f190613c94565b80601f016020809104026020016040519081016040528092919081815260200182805461071d90613c94565b801561076a5780601f1061073f5761010080835404028352916020019161076a565b820191906000526020600020905b81548152906001019060200180831161074d57829003601f168201915b505050505081526020016003820154815260200160048201805461078d90613c94565b80601f01602080910402602001604051908101604052809291908181526020018280546107b990613c94565b80156108065780601f106107db57610100808354040283529160200191610806565b820191906000526020600020905b8154815290600101906020018083116107e957829003601f168201915b5050505050815260200160058201805461081f90613c94565b80601f016020809104026020016040519081016040528092919081815260200182805461084b90613c94565b80156108985780601f1061086d57610100808354040283529160200191610898565b820191906000526020600020905b81548152906001019060200180831161087b57829003601f168201915b5050505050815260200160068201548152602001600782018054806020026020016040519081016040528092919081815260200182805480156108fa57602002820191906000526020600020905b8154815260200190600101908083116108e6575b505050919092525050604080516101008101825260065481526020808201898152828401899052606083018890526080808701519084015260a080870151908401524260c084015260e08087015190840152336000908152600c9092529290208151815591519394509290915060018201906109769082613d19565b506040820151600282019061098b9082613d19565b5060608201516003820155608082015160048201906109aa9082613d19565b5060a082015160058201906109bf9082613d19565b5060c0820151600682015560e082015180516109e59160078401916020909101906134a3565b505060068054915060006109f883613def565b919050555050505050565b336000908152600c60205260408120549003610a4f5760405162461bcd60e51b815260206004820152600b60248201526a08585d5d1a1bdc9a5e995960aa1b60448201526064016105b6565b6000838152600d60205260408120549003610a965760405162461bcd60e51b81526020600482015260076024820152662165786973747360c81b60448201526064016105b6565b600480546040517f04b444d90000000000000000000000000000000000000000000000000000000081526001600160a01b03909116916304b444d991610ae0913391879101613e08565b600060405180830381600087803b158015610afa57600080fd5b505af1158015610b0e573d6000803e3d6000fd5b50506003546040517fd0def5210000000000000000000000000000000000000000000000000000000081526001600160a01b03909116925063d0def5219150610b5d9033908590600401613e08565b600060405180830381600087803b158015610b7757600080fd5b505af1158015610b8b573d6000803e3d6000fd5b50505050505050565b6002546040517f40c10f1900000000000000000000000000000000000000000000000000000000815233600482015261138860248201526001600160a01b03909116906340c10f19906044016020604051808303816000875af1158015610bff573d6000803e3d6000fd5b505050506040513d601f19601f82011682018060405250810190610c239190613e32565b50565b6001600160a01b0382166000908152600b60205260408120600901805483908110610c5357610c53613e4f565b906000526020600020015490505b92915050565b6000546001600160a01b03163314610caf5760405162461bcd60e51b815260206004820152600b60248201526a08585d5d1a1bdc9a5e995960aa1b60448201526064016105b6565b6040805160608101825260085480825260208083018681528385018690526000928352600a9091529290208151815591519091906001820190610cf29082613d19565b5060408201516002820190610d079082613d19565b50506008805491506000610d1a83613def565b91905055505050565b600b6020526000908152604090208054600182018054919291610d4590613c94565b80601f0160208091040260200160405190810160405280929190818152602001828054610d7190613c94565b8015610dbe5780601f10610d9357610100808354040283529160200191610dbe565b820191906000526020600020905b815481529060010190602001808311610da157829003601f168201915b505050505090806002018054610dd390613c94565b80601f0160208091040260200160405190810160405280929190818152602001828054610dff90613c94565b8015610e4c5780601f10610e2157610100808354040283529160200191610e4c565b820191906000526020600020905b815481529060010190602001808311610e2f57829003601f168201915b505050505090806003018054610e6190613c94565b80601f0160208091040260200160405190810160405280929190818152602001828054610e8d90613c94565b8015610eda5780601f10610eaf57610100808354040283529160200191610eda565b820191906000526020600020905b815481529060010190602001808311610ebd57829003601f168201915b50505050600483015460058401546006850180549495929460ff909216935090610f0390613c94565b80601f0160208091040260200160405190810160405280929190818152602001828054610f2f90613c94565b8015610f7c5780601f10610f5157610100808354040283529160200191610f7c565b820191906000526020600020905b815481529060010190602001808311610f5f57829003601f168201915b505050505090806007018054610f9190613c94565b80601f0160208091040260200160405190810160405280929190818152602001828054610fbd90613c94565b801561100a5780601f10610fdf5761010080835404028352916020019161100a565b820191906000526020600020905b815481529060010190602001808311610fed57829003601f168201915b50505050509080600801805461101f90613c94565b80601f016020809104026020016040519081016040528092919081815260200182805461104b90613c94565b80156110985780601f1061106d57610100808354040283529160200191611098565b820191906000526020600020905b81548152906001019060200180831161107b57829003601f168201915b50505050509080600a015490508a565b336000908152600c60205260409020541580156110d25750336000908152600b6020526040902054155b61110c5760405162461bcd60e51b815260206004820152600b60248201526a08585d5d1a1bdc9a5e995960aa1b60448201526064016105b6565b600254600954604051633621d16560e11b815233600482015230602482015260448101919091526001600160a01b0390911690636c43a2ca906064016020604051808303816000875af1158015611167573d6000803e3d6000fd5b505050506040513d601f19601f8201168201806040525081019061118b9190613e32565b506002546009546040516323b872dd60e01b815233600482015230602482015260448101919091526001600160a01b03909116906323b872dd906064016020604051808303816000875af11580156111e7573d6000803e3d6000fd5b505050506040513d601f19601f8201168201806040525081019061120b9190613e32565b50336000908152600b602090815260408083208151610160810190925280548252600181018054929391929184019161124390613c94565b80601f016020809104026020016040519081016040528092919081815260200182805461126f90613c94565b80156112bc5780601f10611291576101008083540402835291602001916112bc565b820191906000526020600020905b81548152906001019060200180831161129f57829003601f168201915b505050505081526020016002820180546112d590613c94565b80601f016020809104026020016040519081016040528092919081815260200182805461130190613c94565b801561134e5780601f106113235761010080835404028352916020019161134e565b820191906000526020600020905b81548152906001019060200180831161133157829003601f168201915b5050505050815260200160038201805461136790613c94565b80601f016020809104026020016040519081016040528092919081815260200182805461139390613c94565b80156113e05780601f106113b5576101008083540402835291602001916113e0565b820191906000526020600020905b8154815290600101906020018083116113c357829003601f168201915b505050918352505060048201546020820152600582015460ff161515604082015260068201805460609092019161141690613c94565b80601f016020809104026020016040519081016040528092919081815260200182805461144290613c94565b801561148f5780601f106114645761010080835404028352916020019161148f565b820191906000526020600020905b81548152906001019060200180831161147257829003601f168201915b505050505081526020016007820180546114a890613c94565b80601f01602080910402602001604051908101604052809291908181526020018280546114d490613c94565b80156115215780601f106114f657610100808354040283529160200191611521565b820191906000526020600020905b81548152906001019060200180831161150457829003601f168201915b5050505050815260200160088201805461153a90613c94565b80601f016020809104026020016040519081016040528092919081815260200182805461156690613c94565b80156115b35780601f10611588576101008083540402835291602001916115b3565b820191906000526020600020905b81548152906001019060200180831161159657829003601f168201915b505050505081526020016009820180548060200260200160405190810160405280929190818152602001828054801561160b57602002820191906000526020600020905b8154815260200190600101908083116115f7575b5050509183525050600a9190910154602091820152604080516101608101825260055481528083018981528183018990526060820188905260808201879052600060a0830181905260c0808701519084015260e080870151908401526101008087015190840152610120808701519084015242610140840152338152600b90945291909220825181559051929350909160018201906116aa9082613d19565b50604082015160028201906116bf9082613d19565b50606082015160038201906116d49082613d19565b506080820151600482015560a082015160058201805460ff191691151591909117905560c0820151600682019061170b9082613d19565b5060e082015160078201906117209082613d19565b5061010082015160088201906117369082613d19565b5061012082015180516117539160098401916020909101906134a3565b506101409190910151600a909101556005805490600061177283613def565b91905055505050505050565b336000908152600b602052604081205490036117ca5760405162461bcd60e51b815260206004820152600b60248201526a08585d5d1a1bdc9a5e995960aa1b60448201526064016105b6565b604051806101800160405280838152602001888152602001878152602001858152602001868152602001336001600160a01b03168152602001600d600085815260200190815260200160002060060180548060200260200160405190810160405280929190818152602001828054801561186d57602002820191906000526020600020905b81546001600160a01b0316815260019091019060200180831161184f575b50505050508152602001600d60008581526020019081526020016000206007018054806020026020016040519081016040528092919081815260200182805480156118d757602002820191906000526020600020905b8154815260200190600101908083116118c3575b505050918352505060208082018690528315156040808401919091526000868152600d808452918120600a810154606086015242608090950194909452869052815282518255820151600182019061192f9082613d19565b50604082015160028201906119449082613d19565b5060608201516003820155608082015160048201906119639082613d19565b5060a082015160058201805473ffffffffffffffffffffffffffffffffffffffff19166001600160a01b0390921691909117905560c082015180516119b29160068401916020909101906134ee565b5060e082015180516119ce9160078401916020909101906134a3565b50610100820151600882015561012082015160098201805460ff1916911515919091179055610140820151600a82015561016090910151600b9091015550505050505050565b600d6020526000908152604090208054600182018054919291611a3690613c94565b80601f0160208091040260200160405190810160405280929190818152602001828054611a6290613c94565b8015611aaf5780601f10611a8457610100808354040283529160200191611aaf565b820191906000526020600020905b815481529060010190602001808311611a9257829003601f168201915b505050505090806002018054611ac490613c94565b80601f0160208091040260200160405190810160405280929190818152602001828054611af090613c94565b8015611b3d5780601f10611b1257610100808354040283529160200191611b3d565b820191906000526020600020905b815481529060010190602001808311611b2057829003601f168201915b505050505090806003015490806004018054611b5890613c94565b80601f0160208091040260200160405190810160405280929190818152602001828054611b8490613c94565b8015611bd15780601f10611ba657610100808354040283529160200191611bd1565b820191906000526020600020905b815481529060010190602001808311611bb457829003601f168201915b505050600584015460088501546009860154600a870154600b9097015495966001600160a01b039093169591945060ff1692508a565b336000908152600b60205260408120549003611c535760405162461bcd60e51b815260206004820152600b60248201526a08585d5d1a1bdc9a5e995960aa1b60448201526064016105b6565b6000600d600060075481526020019081526020016000206040518061018001604052908160008201548152602001600182018054611c9090613c94565b80601f0160208091040260200160405190810160405280929190818152602001828054611cbc90613c94565b8015611d095780601f10611cde57610100808354040283529160200191611d09565b820191906000526020600020905b815481529060010190602001808311611cec57829003601f168201915b50505050508152602001600282018054611d2290613c94565b80601f0160208091040260200160405190810160405280929190818152602001828054611d4e90613c94565b8015611d9b5780601f10611d7057610100808354040283529160200191611d9b565b820191906000526020600020905b815481529060010190602001808311611d7e57829003601f168201915b5050505050815260200160038201548152602001600482018054611dbe90613c94565b80601f0160208091040260200160405190810160405280929190818152602001828054611dea90613c94565b8015611e375780601f10611e0c57610100808354040283529160200191611e37565b820191906000526020600020905b815481529060010190602001808311611e1a57829003601f168201915b505050918352505060058201546001600160a01b03166020808301919091526006830180546040805182850281018501825282815294019392830182828015611ea957602002820191906000526020600020905b81546001600160a01b03168152600190910190602001808311611e8b575b5050505050815260200160078201805480602002602001604051908101604052809291908181526020018280548015611f0157602002820191906000526020600020905b815481526020019060010190808311611eed575b50505050508152602001600882015481526020016009820160009054906101000a900460ff16151515158152602001600a8201548152602001600b820154815250509050604051806101800160405280600754815260200185815260200184815260200183815260200182608001518152602001336001600160a01b031681526020018260c0015181526020018260e0015181526020016000815260200160001515815260200142815260200142815250600d60006007548152602001908152602001600020600082015181600001556020820151816001019081611fe69190613d19565b5060408201516002820190611ffb9082613d19565b50606082015160038201556080820151600482019061201a9082613d19565b5060a082015160058201805473ffffffffffffffffffffffffffffffffffffffff19166001600160a01b0390921691909117905560c082015180516120699160068401916020909101906134ee565b5060e082015180516120859160078401916020909101906134a3565b5061010082015160088201556101208201516009808301805460ff191692151592909217909155610140830151600a83015561016090920151600b918201553360009081526020918252604081206007805491909401805460018101825590835292822090920191909155815491906109f883613def565b600c602052600090815260409020805460018201805491929161211f90613c94565b80601f016020809104026020016040519081016040528092919081815260200182805461214b90613c94565b80156121985780601f1061216d57610100808354040283529160200191612198565b820191906000526020600020905b81548152906001019060200180831161217b57829003601f168201915b5050505050908060020180546121ad90613c94565b80601f01602080910402602001604051908101604052809291908181526020018280546121d990613c94565b80156122265780601f106121fb57610100808354040283529160200191612226565b820191906000526020600020905b81548152906001019060200180831161220957829003601f168201915b50505050509080600301549080600401805461224190613c94565b80601f016020809104026020016040519081016040528092919081815260200182805461226d90613c94565b80156122ba5780601f1061228f576101008083540402835291602001916122ba565b820191906000526020600020905b81548152906001019060200180831161229d57829003601f168201915b5050505050908060050180546122cf90613c94565b80601f01602080910402602001604051908101604052809291908181526020018280546122fb90613c94565b80156123485780601f1061231d57610100808354040283529160200191612348565b820191906000526020600020905b81548152906001019060200180831161232b57829003601f168201915b5050505050908060060154905087565b336000908152600b602052604081205490036123a45760405162461bcd60e51b815260206004820152600b60248201526a08585d5d1a1bdc9a5e995960aa1b60448201526064016105b6565b6000600d600084815260200190815260200160002060405180610180016040529081600082015481526020016001820180546123df90613c94565b80601f016020809104026020016040519081016040528092919081815260200182805461240b90613c94565b80156124585780601f1061242d57610100808354040283529160200191612458565b820191906000526020600020905b81548152906001019060200180831161243b57829003601f168201915b5050505050815260200160028201805461247190613c94565b80601f016020809104026020016040519081016040528092919081815260200182805461249d90613c94565b80156124ea5780601f106124bf576101008083540402835291602001916124ea565b820191906000526020600020905b8154815290600101906020018083116124cd57829003601f168201915b505050505081526020016003820154815260200160048201805461250d90613c94565b80601f016020809104026020016040519081016040528092919081815260200182805461253990613c94565b80156125865780601f1061255b57610100808354040283529160200191612586565b820191906000526020600020905b81548152906001019060200180831161256957829003601f168201915b505050918352505060058201546001600160a01b031660208083019190915260068301805460408051828502810185018252828152940193928301828280156125f857602002820191906000526020600020905b81546001600160a01b031681526001909101906020018083116125da575b505050505081526020016007820180548060200260200160405190810160405280929190818152602001828054801561265057602002820191906000526020600020905b81548152602001906001019080831161263c575b505050918352505060088201546020820152600982015460ff1615156040820152600a8201546060820152600b9091015460809091015280519091506000036126c55760405162461bcd60e51b81526020600482015260076024820152662165786973747360c81b60448201526064016105b6565b60a08101516001600160a01b0316331461270f5760405162461bcd60e51b815260206004820152600b60248201526a08585d5d1a1bdc9a5e995960aa1b60448201526064016105b6565b6000838152600f6020526040902080548390811061272f5761272f613e4f565b90600052602060002090600402016000015460000361277a5760405162461bcd60e51b81526020600482015260076024820152662165786973747360c81b60448201526064016105b6565b6000838152600f6020526040902080548390811061279a5761279a613e4f565b600091825260208220600490910201818155906127ba6001830182613550565b6127c8600283016000613550565b6127d6600383016000613550565b5050505050565b600a60205260009081526040902080546001820180549192916127ff90613c94565b80601f016020809104026020016040519081016040528092919081815260200182805461282b90613c94565b80156128785780601f1061284d57610100808354040283529160200191612878565b820191906000526020600020905b81548152906001019060200180831161285b57829003601f168201915b50505050509080600201805461288d90613c94565b80601f01602080910402602001604051908101604052809291908181526020018280546128b990613c94565b80156129065780601f106128db57610100808354040283529160200191612906565b820191906000526020600020905b8154815290600101906020018083116128e957829003601f168201915b5050505050905083565b336000908152600b6020526040812054900361295c5760405162461bcd60e51b815260206004820152600b60248201526a08585d5d1a1bdc9a5e995960aa1b60448201526064016105b6565b6000600d6000878152602001908152602001600020604051806101800160405290816000820154815260200160018201805461299790613c94565b80601f01602080910402602001604051908101604052809291908181526020018280546129c390613c94565b8015612a105780601f106129e557610100808354040283529160200191612a10565b820191906000526020600020905b8154815290600101906020018083116129f357829003601f168201915b50505050508152602001600282018054612a2990613c94565b80601f0160208091040260200160405190810160405280929190818152602001828054612a5590613c94565b8015612aa25780601f10612a7757610100808354040283529160200191612aa2565b820191906000526020600020905b815481529060010190602001808311612a8557829003601f168201915b5050505050815260200160038201548152602001600482018054612ac590613c94565b80601f0160208091040260200160405190810160405280929190818152602001828054612af190613c94565b8015612b3e5780601f10612b1357610100808354040283529160200191612b3e565b820191906000526020600020905b815481529060010190602001808311612b2157829003601f168201915b505050918352505060058201546001600160a01b03166020808301919091526006830180546040805182850281018501825282815294019392830182828015612bb057602002820191906000526020600020905b81546001600160a01b03168152600190910190602001808311612b92575b5050505050815260200160078201805480602002602001604051908101604052809291908181526020018280548015612c0857602002820191906000526020600020905b815481526020019060010190808311612bf4575b505050918352505060088201546020820152600982015460ff1615156040820152600a8201546060820152600b909101546080909101528051909150600003612c7d5760405162461bcd60e51b81526020600482015260076024820152662165786973747360c81b60448201526064016105b6565b60a08101516001600160a01b03163314612cc75760405162461bcd60e51b815260206004820152600b60248201526a08585d5d1a1bdc9a5e995960aa1b60448201526064016105b6565b81600003612d78576000868152600f60205260409081902081516080810190925280549091908190612cfa906001613e65565b815260208082018990526040820188905260609091018690528254600181810185556000948552938290208351600490920201908155908201519192909190820190612d469082613d19565b5060408201516002820190612d5b9082613d19565b5060608201516003820190612d709082613d19565b505050612e18565b604051806080016040528083815260200186815260200185815260200184815250600f60008881526020019081526020016000208381548110612dbd57612dbd613e4f565b9060005260206000209060040201600082015181600001556020820151816001019081612dea9190613d19565b5060408201516002820190612dff9082613d19565b5060608201516003820190612e149082613d19565b5050505b505050505050565b336000908152600c60205260408120549003612e6c5760405162461bcd60e51b815260206004820152600b60248201526a08585d5d1a1bdc9a5e995960aa1b60448201526064016105b6565b336000908152600e60205260408120805485908110612e8d57612e8d613e4f565b9060005260206000209060030201600101546348190800612eae9190613e65565b336000908152600e602052604081208054929350909186908110612ed457612ed4613e4f565b9060005260206000209060030201600201549050814210612f375760405162461bcd60e51b815260206004820152600760248201527f3e327765656b730000000000000000000000000000000000000000000000000060448201526064016105b6565b6000612f438486613e78565b905060008111612f955760405162461bcd60e51b815260206004820152600b60248201527f21726566756e6461626c6500000000000000000000000000000000000000000060448201526064016105b6565b6000612fa18383613e8b565b336000908152600e6020526040902080549192509088908110612fc657612fc6613e4f565b6000918252602082206003919091020181815560018101829055600290810191909155546040516323b872dd60e01b8152306004820152336024820152604481018390526001600160a01b03909116906323b872dd906064016020604051808303816000875af115801561303e573d6000803e3d6000fd5b505050506040513d601f19601f820116820180604052508101906130629190613e32565b5060408051338152602081018990529081018690527fb51fb992b7d4733d1ea94729ea1cad9c8ef10506a0aef7c79a532754f57fe88a9060600160405180910390a150505050505050565b336000908152600c602052604081205490036130f95760405162461bcd60e51b815260206004820152600b60248201526a08585d5d1a1bdc9a5e995960aa1b60448201526064016105b6565b6000838152600d6020526040812080549091036131425760405162461bcd60e51b81526020600482015260076024820152662165786973747360c81b60448201526064016105b6565b6008810154831580159061315557508215155b156132bc576003546040517f6352211e0000000000000000000000000000000000000000000000000000000081526004810186905233916001600160a01b031690636352211e90602401602060405180830381865afa1580156131bc573d6000803e3d6000fd5b505050506040513d601f19601f820116820180604052508101906131e09190613eaa565b6001600160a01b0316146132365760405162461bcd60e51b815260206004820152600660248201527f216f776e6572000000000000000000000000000000000000000000000000000060448201526064016105b6565b6003546040517f42966c68000000000000000000000000000000000000000000000000000000008152600481018690526001600160a01b03909116906342966c6890602401600060405180830381600087803b15801561329557600080fd5b505af11580156132a9573d6000803e3d6000fd5b5050505082816132b99190613e78565b90505b600254604051633621d16560e11b8152336004820152306024820152604481018390526001600160a01b0390911690636c43a2ca906064016020604051808303816000875af1158015613313573d6000803e3d6000fd5b505050506040513d601f19601f820116820180604052508101906133379190613e32565b506002546040516323b872dd60e01b8152336004820152306024820152604481018390526001600160a01b03909116906323b872dd906064016020604051808303816000875af115801561338f573d6000803e3d6000fd5b505050506040513d601f19601f820116820180604052508101906133b39190613e32565b50336000818152600e602090815260408083208151606080820184528b8252428286019081528285018981528454600180820187559589529787902093516003909802909301968755519286019290925551600290940193909355600586015481516001600160a01b039091168152918201939093529182018790527fba05698ffe932ba01d3d70f62a2e48d6719cc5df3bdcf9118015af495c4a39b1910160405180910390a15050505050565b600e602052816000526040600020818154811061347d57600080fd5b600091825260209091206003909102018054600182015460029092015490935090915083565b8280548282559060005260206000209081019282156134de579160200282015b828111156134de5782518255916020019190600101906134c3565b506134ea929150613586565b5090565b8280548282559060005260206000209081019282156134de579160200282015b828111156134de578251825473ffffffffffffffffffffffffffffffffffffffff19166001600160a01b0390911617825560209092019160019091019061350e565b50805461355c90613c94565b6000825580601f1061356c575050565b601f016020900490600052602060002090810190610c2391905b5b808211156134ea5760008155600101613587565b600080604083850312156135ae57600080fd5b50508035926020909101359150565b6000815180845260005b818110156135e3576020818501810151868301820152016135c7565b506000602082860101526020601f19601f83011685010191505092915050565b84815260806020820152600061361c60808301866135bd565b828103604084015261362e81866135bd565b9050828103606084015261364281856135bd565b979650505050505050565b60006020828403121561365f57600080fd5b5035919050565b634e487b7160e01b600052604160045260246000fd5b600082601f83011261368d57600080fd5b813567ffffffffffffffff808211156136a8576136a8613666565b604051601f8301601f19908116603f011681019082821181831017156136d0576136d0613666565b816040528381528660208588010111156136e957600080fd5b836020870160208301376000602085830101528094505050505092915050565b60008060006060848603121561371e57600080fd5b833567ffffffffffffffff8082111561373657600080fd5b6137428783880161367c565b9450602086013591508082111561375857600080fd5b506137658682870161367c565b925050604084013590509250925092565b60008060006060848603121561378b57600080fd5b83359250602084013567ffffffffffffffff808211156137aa57600080fd5b6137b68783880161367c565b935060408601359150808211156137cc57600080fd5b506137d98682870161367c565b9150509250925092565b6001600160a01b0381168114610c2357600080fd5b6000806040838503121561380b57600080fd5b8235613816816137e3565b946020939093013593505050565b6000806040838503121561383757600080fd5b823567ffffffffffffffff8082111561384f57600080fd5b61385b8683870161367c565b9350602085013591508082111561387157600080fd5b5061387e8582860161367c565b9150509250929050565b60006020828403121561389a57600080fd5b81356138a5816137e3565b9392505050565b60006101408c83528060208401526138c68184018d6135bd565b905082810360408401526138da818c6135bd565b905082810360608401526138ee818b6135bd565b905088608084015287151560a084015282810360c084015261391081886135bd565b905082810360e084015261392481876135bd565b905082810361010084015261393981866135bd565b915050826101208301529b9a5050505050505050505050565b6000806000806080858703121561396857600080fd5b843567ffffffffffffffff8082111561398057600080fd5b61398c8883890161367c565b955060208701359150808211156139a257600080fd5b6139ae8883890161367c565b945060408701359150808211156139c457600080fd5b506139d18782880161367c565b949793965093946060013593505050565b8015158114610c2357600080fd5b600080600080600080600060e0888a031215613a0b57600080fd5b873567ffffffffffffffff80821115613a2357600080fd5b613a2f8b838c0161367c565b985060208a0135915080821115613a4557600080fd5b613a518b838c0161367c565b975060408a0135915080821115613a6757600080fd5b50613a748a828b0161367c565b955050606088013593506080880135925060a0880135915060c0880135613a9a816139e2565b8091505092959891949750929550565b60006101408c8352806020840152613ac48184018d6135bd565b90508281036040840152613ad8818c6135bd565b90508960608401528281036080840152613af2818a6135bd565b6001600160a01b039890981660a0840152505060c081019490945291151560e08401526101008301526101209091015295945050505050565b87815260e060208201526000613b4460e08301896135bd565b8281036040840152613b5681896135bd565b90508660608401528281036080840152613b7081876135bd565b905082810360a0840152613b8481866135bd565b9150508260c083015298975050505050505050565b838152606060208201526000613bb260608301856135bd565b8281036040840152613bc481856135bd565b9695505050505050565b600080600080600060a08688031215613be657600080fd5b85359450602086013567ffffffffffffffff80821115613c0557600080fd5b613c1189838a0161367c565b95506040880135915080821115613c2757600080fd5b613c3389838a0161367c565b94506060880135915080821115613c4957600080fd5b50613c568882890161367c565b95989497509295608001359392505050565b600080600060608486031215613c7d57600080fd5b505081359360208301359350604090920135919050565b600181811c90821680613ca857607f821691505b602082108103613cc857634e487b7160e01b600052602260045260246000fd5b50919050565b601f821115613d1457600081815260208120601f850160051c81016020861015613cf55750805b601f850160051c820191505b81811015612e1857828155600101613d01565b505050565b815167ffffffffffffffff811115613d3357613d33613666565b613d4781613d418454613c94565b84613cce565b602080601f831160018114613d7c5760008415613d645750858301515b600019600386901b1c1916600185901b178555612e18565b600085815260208120601f198616915b82811015613dab57888601518255948401946001909101908401613d8c565b5085821015613dc95787850151600019600388901b60f8161c191681555b5050505050600190811b01905550565b634e487b7160e01b600052601160045260246000fd5b600060018201613e0157613e01613dd9565b5060010190565b6001600160a01b0383168152604060208201526000613e2a60408301846135bd565b949350505050565b600060208284031215613e4457600080fd5b81516138a5816139e2565b634e487b7160e01b600052603260045260246000fd5b80820180821115610c6157610c61613dd9565b81810381811115610c6157610c61613dd9565b6000816000190483118215151615613ea557613ea5613dd9565b500290565b600060208284031215613ebc57600080fd5b81516138a5816137e356fea26469706673582212207f41c57e36a8a51faabd541d7f7666493b10af0d2b910557df94f4ad7bf3c6d764736f6c634300081000332f696d616765732f63617465676f726965732f696c6c757374726174696f6e2e776562702f696d616765732f63617465676f726965732f616e696d6174696f6e2e776562702f696d616765732f63617465676f726965732f70686f746f6772617068792e776562702f696d616765732f63617465676f726965732f7765622d646576656c6f706d656e742e776562702f696d616765732f63617465676f726965732f646174612d736369656e63652e776562702f696d616765732f63617465676f726965732f6d61726b6574696e672e77656270",
  "immutableReferences": {},
  "source": "// SPDX-License-Identifier: GPL-3.0\npragma solidity >=0.7.0 <0.9.0;\n\nimport \"./BdlNft.sol\";\nimport \"./BdlCertificate.sol\";\nimport \"./Models.sol\";\nimport {PaymentFlow} from \"./PaymentFlow.sol\";\nimport {BdlToken} from \"./BdlToken.sol\";\n\ncontract Buidl {\n    // state variables\n    address deployer;\n\n    PaymentFlow private _paymentFlow;\n    BdlToken private _bdlToken;\n    BdlNft private _bdlNft;\n    BdlCertificate private _bdlCertificate;\n\n    uint256 private contractInstructorID = 1;\n    uint256 private contractStudentID = 1;\n    uint256 private contractCourseID = 1;\n    uint256 private contractCategoryID = 1;\n\n    // minimum to stake for a duration of 1year\n    uint256 private instructorRegistrationFee = 2000 * 10**18;\n\n    mapping(uint => Models.Category) public categories;\n    mapping(address => Models.Instructor) public instructors;\n    mapping(address => Models.Student) public students;\n    mapping(uint => Models.Course) public courses;\n    mapping(address => Models.StudentCourse[]) public studentCourses;\n    mapping(uint => Models.CourseSection[]) public courseSections;\n\n    // contructor\n    constructor(\n        address bdlToken,\n        address bdlNft,\n        address bdlCertificate,\n        address paymentFlow\n    ) {\n        deployer = msg.sender;\n\n        _bdlToken = BdlToken(bdlToken);\n        _bdlNft = BdlNft(bdlNft);\n        _bdlCertificate = BdlCertificate(bdlCertificate);\n        _paymentFlow = PaymentFlow(paymentFlow);\n\n        addTestCategories();\n    }\n\n    // ========= Administation ========= //\n\n    function setInstructorRegistrationFee(uint256 amount) public onlyOwner {\n        instructorRegistrationFee = amount;\n    }\n\n    function addCategory(string memory name, string memory image)\n        public\n        onlyOwner\n    {\n        categories[contractCategoryID] = Models.Category(\n            contractCategoryID,\n            name,\n            image\n        );\n\n        contractCategoryID++;\n    }\n\n    // ========= Instructors =========== //\n\n    function createCourse(\n        string memory name,\n        string memory description,\n        uint categoryId\n    ) public onlyInstructor {\n        Models.Course memory course = courses[contractCourseID];\n\n        // create new freah course\n        courses[contractCourseID] = Models.Course(\n            contractCourseID,\n            name,\n            description,\n            categoryId,\n            course.ipfsPhoto,\n            msg.sender,\n            course.students,\n            course.ratings,\n            0,\n            false,\n            block.timestamp,\n            block.timestamp\n        );\n\n        // assign course ownership to intructor\n        instructors[msg.sender].courses.push(contractCourseID);\n\n        // increment id\n        contractCourseID++;\n    }\n\n    function updateCourse(\n        string memory name,\n        string memory description,\n        string memory ipfsPhoto,\n        uint categoryId,\n        uint price,\n        uint courseId,\n        bool publish\n    ) public onlyInstructor {\n        courses[courseId] = Models.Course(\n            courseId,\n            name,\n            description,\n            categoryId,\n            ipfsPhoto,\n            msg.sender,\n            courses[courseId].students,\n            courses[courseId].ratings,\n            price,\n            publish,\n            courses[courseId].createdAt,\n            block.timestamp\n        );\n    }\n\n    function addSectionToCourse(\n        uint courseId,\n        string memory title,\n        string memory src,\n        string memory content,\n        uint updateFor\n    ) public onlyInstructor {\n        Models.Course memory course = courses[courseId];\n\n        require(course.id != 0, \"!exists\");\n        require(course.instructor == msg.sender, \"!authorized\");\n\n        if (updateFor == 0) {\n            courseSections[courseId].push(\n                Models.CourseSection(\n                    courseSections[courseId].length + 1,\n                    title,\n                    src,\n                    content\n                )\n            );\n        } else {\n            courseSections[courseId][updateFor] = Models.CourseSection(\n                updateFor,\n                title,\n                src,\n                content\n            );\n        }\n    }\n\n    function deleteCourseSection(uint courseId, uint sectionIndex)\n        public\n        onlyInstructor\n    {\n        Models.Course memory course = courses[courseId];\n\n        require(course.id != 0, \"!exists\");\n        require(course.instructor == msg.sender, \"!authorized\");\n        require(courseSections[courseId][sectionIndex].id != 0, \"!exists\");\n\n        delete courseSections[courseId][sectionIndex];\n    }\n\n    function getInstructorCoursesLength(address instructor)\n        public\n        view\n        returns (uint)\n    {\n        return instructors[instructor].courses.length;\n    }\n\n    function getInstructorCourseIdAtIndex(address instructor, uint index)\n        public\n        view\n        returns (uint)\n    {\n        return instructors[instructor].courses[index];\n    }\n\n    function createInstructorAccount(\n        string memory firstName,\n        string memory lastName,\n        string memory location,\n        uint gender\n    ) public notAnyone {\n        // stake instruction fee\n        _bdlToken.increaseAllowance(\n            msg.sender,\n            address(this),\n            instructorRegistrationFee\n        );\n\n        _bdlToken.transferFrom(\n            msg.sender,\n            address(this),\n            instructorRegistrationFee\n        );\n\n        Models.Instructor memory instructor = instructors[msg.sender];\n\n        instructors[msg.sender] = Models.Instructor(\n            contractInstructorID,\n            firstName,\n            lastName,\n            location,\n            gender,\n            false,\n            instructor.ipfsPhoto,\n            instructor.twitter,\n            instructor.linkedin,\n            instructor.courses,\n            block.timestamp\n        );\n\n        contractInstructorID++;\n    }\n\n    // function getUnclaimableRevenue() public returns(uint256) {\n    //   uint256 unclaimed = 0;\n\n    //   for (uint index = 0; index < studentCourses.length; index++) {\n    //       if (studentsCourse[])\n    //   }\n\n    // }\n\n    // ========= Students ========== //\n\n    function createStudentAccount(\n        string memory name,\n        string memory email,\n        uint gender\n    ) public notAnyone {\n        Models.Student memory student = students[msg.sender];\n\n        students[msg.sender] = Models.Student(\n            contractStudentID,\n            name,\n            email,\n            gender,\n            student.ipfsPhoto,\n            student.country,\n            block.timestamp,\n            student.courses\n        );\n\n        contractStudentID++;\n    }\n\n    function purchaseCourse(uint courseId, uint nftId, uint discount) public onlyStudent {\n        Models.Course storage course = courses[courseId];\n\n        require(course.id != 0, \"!exists\");\n        uint price = course.price;\n\n        if (nftId != 0 && discount != 0) {\n            require(_bdlNft.ownerOf(nftId) == msg.sender, \"!owner\");\n\n            _bdlNft.burn(nftId);\n            price -= discount;\n        }\n\n        // lock the student funds to smart contract\n        _bdlToken.increaseAllowance(msg.sender, address(this), price);\n        _bdlToken.transferFrom(msg.sender, address(this), price);\n\n        // create course for student\n        studentCourses[msg.sender].push(\n            Models.StudentCourse(courseId, block.timestamp, price)\n        );\n\n        emit CoursePurchased(course.instructor, msg.sender, courseId);\n    }\n\n    function rejectCourse(\n        uint courseId,\n        uint sections,\n        uint sectionsViewed\n    ) public onlyStudent {\n        // check is course is not over 2 weeks\n        uint expireTime = studentCourses[msg.sender][courseId].purchasedAt +\n            (20160 * 60000);\n        uint priceBought = studentCourses[msg.sender][courseId].priceBought;\n\n        require(block.timestamp < expireTime, \">2weeks\");\n\n        uint refundableSections = (sections - sectionsViewed);\n\n        require(refundableSections > 0, \"!refundable\");\n\n        uint256 refundableAmount = (refundableSections * priceBought);\n\n        // terminate student course\n        delete studentCourses[msg.sender][courseId];\n\n        // refund the student\n        _bdlToken.transferFrom(address(this), msg.sender, refundableAmount);\n\n        emit CourseRefunded(msg.sender, courseId, sectionsViewed);\n    }\n\n    function onCompletedCourse(\n        uint courseId,\n        string memory certificateUri,\n        string memory nftUri\n    ) public onlyStudent {\n        require(courses[courseId].id != 0, \"!exists\");\n        // check if student has purchase the course\n        // require(studentCourses[msg.sender][] != 0, \"!exists\");\n        _bdlCertificate.issue(msg.sender, certificateUri);\n        _bdlNft.mint(msg.sender, nftUri);\n    }\n\n    modifier onlyInstructor() {\n        require(instructors[msg.sender].id != 0, \"!authorized\");\n        _;\n    }\n\n    modifier onlyStudent() {\n        require(students[msg.sender].id != 0, \"!authorized\");\n        _;\n    }\n\n    modifier onlyOwner() {\n        require(msg.sender == deployer, \"!authorized\");\n        _;\n    }\n\n    modifier notAnyone() {\n        require(\n            (students[msg.sender].id == 0 && instructors[msg.sender].id == 0),\n            \"!authorized\"\n        );\n        _;\n    }\n\n    // ========== Events ========== //\n\n    event CourseCompletion(address student, uint courseId);\n    event CoursePurchased(address intructor, address student, uint courseId);\n    event CourseRefunded(address student, uint courseId, uint sectionsViewed);\n\n    // ========== Development ========== //\n\n    function faucetMint() public {\n        _bdlToken.mint(msg.sender, 5000);\n    }\n\n    function addTestCategories() private {\n        addCategory(\n            \"Web Development\",\n            \"/images/categories/web-development.webp\"\n        );\n        addCategory(\"Cooking\", \"/images/categories/cooking.webp\");\n        addCategory(\"UI/UX Designing\", \"/images/categories/ui-ux.webp\");\n        addCategory(\"3D Animation\", \"/images/categories/animation.webp\");\n        addCategory(\"Illustration\", \"/images/categories/illustration.webp\");\n        addCategory(\"Data Science\", \"/images/categories/data-science.webp\");\n        addCategory(\"Speaking\", \"/images/categories/speaking.webp\");\n        addCategory(\"Music\", \"/images/categories/music.webp\");\n        addCategory(\"Photography\", \"/images/categories/photography.webp\");\n        addCategory(\"Marketing\", \"/images/categories/marketing.webp\");\n    }\n}\n",
  "sourcePath": "C:\\Users\\Arogundade Ibrahim\\Documents\\web3\\Buidl\\contracts\\Buidl.sol",
  "compiler": {
    "name": "solc",
    "version": "0.8.16+commit.07a7930e.Emscripten.clang"
  },
  "schemaVersion": "3.4.10",
  "updatedAt": "2022-10-23T20:34:21.320Z",
  "networkType": "ethereum",
  "devdoc": {
    "kind": "dev",
    "methods": {},
    "version": 1
  },
  "userdoc": {
    "kind": "user",
    "methods": {},
    "version": 1
  }
}