{
  "contractName": "Buidl",
  "abi": [
    {
      "inputs": [
        {
          "internalType": "address",
          "name": "_bdlToken",
          "type": "address"
        },
        {
          "internalType": "address",
          "name": "_bdlNft",
          "type": "address"
        },
        {
          "internalType": "address",
          "name": "_bdlCertificate",
          "type": "address"
        }
      ],
      "stateMutability": "nonpayable",
      "type": "constructor"
    },
    {
      "anonymous": false,
      "inputs": [
        {
          "indexed": false,
          "internalType": "address",
          "name": "student",
          "type": "address"
        },
        {
          "indexed": false,
          "internalType": "uint256",
          "name": "courseId",
          "type": "uint256"
        }
      ],
      "name": "CertificateIssued",
      "type": "event"
    },
    {
      "anonymous": false,
      "inputs": [
        {
          "indexed": false,
          "internalType": "address",
          "name": "student",
          "type": "address"
        },
        {
          "indexed": false,
          "internalType": "uint256",
          "name": "courseId",
          "type": "uint256"
        }
      ],
      "name": "CourseCompletion",
      "type": "event"
    },
    {
      "anonymous": false,
      "inputs": [
        {
          "indexed": false,
          "internalType": "address",
          "name": "intructor",
          "type": "address"
        },
        {
          "indexed": false,
          "internalType": "address",
          "name": "student",
          "type": "address"
        },
        {
          "indexed": false,
          "internalType": "uint256",
          "name": "courseId",
          "type": "uint256"
        }
      ],
      "name": "CoursePurchased",
      "type": "event"
    },
    {
      "anonymous": false,
      "inputs": [
        {
          "indexed": false,
          "internalType": "address",
          "name": "student",
          "type": "address"
        },
        {
          "indexed": false,
          "internalType": "uint256",
          "name": "courseId",
          "type": "uint256"
        },
        {
          "indexed": false,
          "internalType": "uint256",
          "name": "sectionsViewed",
          "type": "uint256"
        }
      ],
      "name": "CourseRejected",
      "type": "event"
    },
    {
      "inputs": [
        {
          "internalType": "uint256",
          "name": "",
          "type": "uint256"
        }
      ],
      "name": "categories",
      "outputs": [
        {
          "internalType": "uint256",
          "name": "id",
          "type": "uint256"
        },
        {
          "internalType": "string",
          "name": "name",
          "type": "string"
        },
        {
          "internalType": "string",
          "name": "image",
          "type": "string"
        }
      ],
      "stateMutability": "view",
      "type": "function"
    },
    {
      "inputs": [],
      "name": "contractCategoryID",
      "outputs": [
        {
          "internalType": "uint256",
          "name": "",
          "type": "uint256"
        }
      ],
      "stateMutability": "view",
      "type": "function"
    },
    {
      "inputs": [],
      "name": "contractCourseID",
      "outputs": [
        {
          "internalType": "uint256",
          "name": "",
          "type": "uint256"
        }
      ],
      "stateMutability": "view",
      "type": "function"
    },
    {
      "inputs": [],
      "name": "contractInstructorID",
      "outputs": [
        {
          "internalType": "uint256",
          "name": "",
          "type": "uint256"
        }
      ],
      "stateMutability": "view",
      "type": "function"
    },
    {
      "inputs": [],
      "name": "contractStudentID",
      "outputs": [
        {
          "internalType": "uint256",
          "name": "",
          "type": "uint256"
        }
      ],
      "stateMutability": "view",
      "type": "function"
    },
    {
      "inputs": [
        {
          "internalType": "uint256",
          "name": "",
          "type": "uint256"
        },
        {
          "internalType": "uint256",
          "name": "",
          "type": "uint256"
        }
      ],
      "name": "courseSections",
      "outputs": [
        {
          "internalType": "uint256",
          "name": "id",
          "type": "uint256"
        },
        {
          "internalType": "string",
          "name": "title",
          "type": "string"
        },
        {
          "internalType": "string",
          "name": "src",
          "type": "string"
        },
        {
          "internalType": "string",
          "name": "content",
          "type": "string"
        }
      ],
      "stateMutability": "view",
      "type": "function"
    },
    {
      "inputs": [
        {
          "internalType": "uint256",
          "name": "",
          "type": "uint256"
        }
      ],
      "name": "courses",
      "outputs": [
        {
          "internalType": "uint256",
          "name": "id",
          "type": "uint256"
        },
        {
          "internalType": "string",
          "name": "name",
          "type": "string"
        },
        {
          "internalType": "string",
          "name": "description",
          "type": "string"
        },
        {
          "internalType": "uint256",
          "name": "categoryId",
          "type": "uint256"
        },
        {
          "internalType": "string",
          "name": "ipfsPhoto",
          "type": "string"
        },
        {
          "internalType": "address",
          "name": "instructor",
          "type": "address"
        },
        {
          "internalType": "uint256",
          "name": "price",
          "type": "uint256"
        },
        {
          "internalType": "string",
          "name": "metadata",
          "type": "string"
        },
        {
          "internalType": "bool",
          "name": "isPublished",
          "type": "bool"
        },
        {
          "internalType": "uint256",
          "name": "createdAt",
          "type": "uint256"
        },
        {
          "internalType": "uint256",
          "name": "updatedAt",
          "type": "uint256"
        }
      ],
      "stateMutability": "view",
      "type": "function"
    },
    {
      "inputs": [
        {
          "internalType": "address",
          "name": "",
          "type": "address"
        }
      ],
      "name": "instructors",
      "outputs": [
        {
          "internalType": "uint256",
          "name": "id",
          "type": "uint256"
        },
        {
          "internalType": "string",
          "name": "firstName",
          "type": "string"
        },
        {
          "internalType": "string",
          "name": "lastName",
          "type": "string"
        },
        {
          "internalType": "string",
          "name": "location",
          "type": "string"
        },
        {
          "internalType": "uint256",
          "name": "gender",
          "type": "uint256"
        },
        {
          "internalType": "bool",
          "name": "isVerified",
          "type": "bool"
        },
        {
          "internalType": "string",
          "name": "ipfsPhoto",
          "type": "string"
        },
        {
          "internalType": "string",
          "name": "twitter",
          "type": "string"
        },
        {
          "internalType": "string",
          "name": "linkedin",
          "type": "string"
        },
        {
          "internalType": "uint256",
          "name": "createdAt",
          "type": "uint256"
        }
      ],
      "stateMutability": "view",
      "type": "function"
    },
    {
      "inputs": [
        {
          "internalType": "address",
          "name": "",
          "type": "address"
        },
        {
          "internalType": "uint256",
          "name": "",
          "type": "uint256"
        }
      ],
      "name": "studentCourses",
      "outputs": [
        {
          "internalType": "uint256",
          "name": "courseId",
          "type": "uint256"
        },
        {
          "internalType": "bool",
          "name": "isActive",
          "type": "bool"
        },
        {
          "internalType": "uint256",
          "name": "unlocked",
          "type": "uint256"
        },
        {
          "internalType": "uint256",
          "name": "sectionsViewed",
          "type": "uint256"
        },
        {
          "internalType": "uint256",
          "name": "purchasedAt",
          "type": "uint256"
        }
      ],
      "stateMutability": "view",
      "type": "function"
    },
    {
      "inputs": [
        {
          "internalType": "address",
          "name": "",
          "type": "address"
        }
      ],
      "name": "students",
      "outputs": [
        {
          "internalType": "uint256",
          "name": "id",
          "type": "uint256"
        },
        {
          "internalType": "string",
          "name": "name",
          "type": "string"
        },
        {
          "internalType": "string",
          "name": "emailAddress",
          "type": "string"
        },
        {
          "internalType": "uint256",
          "name": "gender",
          "type": "uint256"
        },
        {
          "internalType": "string",
          "name": "ipfsPhoto",
          "type": "string"
        },
        {
          "internalType": "string",
          "name": "country",
          "type": "string"
        },
        {
          "internalType": "uint256",
          "name": "createdAt",
          "type": "uint256"
        }
      ],
      "stateMutability": "view",
      "type": "function"
    },
    {
      "inputs": [
        {
          "internalType": "uint256",
          "name": "amount",
          "type": "uint256"
        }
      ],
      "name": "setInstructorRegistrationFee",
      "outputs": [],
      "stateMutability": "nonpayable",
      "type": "function"
    },
    {
      "inputs": [
        {
          "internalType": "string",
          "name": "name",
          "type": "string"
        },
        {
          "internalType": "string",
          "name": "image",
          "type": "string"
        }
      ],
      "name": "addCategory",
      "outputs": [],
      "stateMutability": "nonpayable",
      "type": "function"
    },
    {
      "inputs": [],
      "name": "mint",
      "outputs": [],
      "stateMutability": "nonpayable",
      "type": "function"
    },
    {
      "inputs": [],
      "name": "faucetMint",
      "outputs": [],
      "stateMutability": "nonpayable",
      "type": "function"
    },
    {
      "inputs": [
        {
          "internalType": "string",
          "name": "name",
          "type": "string"
        },
        {
          "internalType": "string",
          "name": "description",
          "type": "string"
        },
        {
          "internalType": "uint256",
          "name": "categoryId",
          "type": "uint256"
        }
      ],
      "name": "createCourse",
      "outputs": [],
      "stateMutability": "nonpayable",
      "type": "function"
    },
    {
      "inputs": [
        {
          "internalType": "uint256",
          "name": "courseId",
          "type": "uint256"
        },
        {
          "internalType": "string",
          "name": "title",
          "type": "string"
        },
        {
          "internalType": "string",
          "name": "src",
          "type": "string"
        },
        {
          "internalType": "string",
          "name": "content",
          "type": "string"
        },
        {
          "internalType": "uint256",
          "name": "updateFor",
          "type": "uint256"
        }
      ],
      "name": "addSectionToCourse",
      "outputs": [],
      "stateMutability": "nonpayable",
      "type": "function"
    },
    {
      "inputs": [
        {
          "internalType": "uint256",
          "name": "courseId",
          "type": "uint256"
        },
        {
          "internalType": "uint256",
          "name": "sectionIndex",
          "type": "uint256"
        }
      ],
      "name": "deleteCourseSection",
      "outputs": [],
      "stateMutability": "nonpayable",
      "type": "function"
    },
    {
      "inputs": [
        {
          "internalType": "address",
          "name": "instructor",
          "type": "address"
        }
      ],
      "name": "getInstructorCoursesLength",
      "outputs": [
        {
          "internalType": "uint256",
          "name": "",
          "type": "uint256"
        }
      ],
      "stateMutability": "view",
      "type": "function"
    },
    {
      "inputs": [
        {
          "internalType": "address",
          "name": "instructor",
          "type": "address"
        },
        {
          "internalType": "uint256",
          "name": "index",
          "type": "uint256"
        }
      ],
      "name": "getInstructorCourseIdAtIndex",
      "outputs": [
        {
          "internalType": "uint256",
          "name": "",
          "type": "uint256"
        }
      ],
      "stateMutability": "view",
      "type": "function"
    },
    {
      "inputs": [
        {
          "internalType": "string",
          "name": "firstName",
          "type": "string"
        },
        {
          "internalType": "string",
          "name": "lastName",
          "type": "string"
        },
        {
          "internalType": "string",
          "name": "location",
          "type": "string"
        },
        {
          "internalType": "uint256",
          "name": "gender",
          "type": "uint256"
        }
      ],
      "name": "createInstructorAccount",
      "outputs": [],
      "stateMutability": "nonpayable",
      "type": "function"
    },
    {
      "inputs": [
        {
          "internalType": "string",
          "name": "name",
          "type": "string"
        },
        {
          "internalType": "string",
          "name": "email",
          "type": "string"
        },
        {
          "internalType": "uint256",
          "name": "gender",
          "type": "uint256"
        }
      ],
      "name": "createStudentAccount",
      "outputs": [],
      "stateMutability": "nonpayable",
      "type": "function"
    },
    {
      "inputs": [
        {
          "internalType": "uint256",
          "name": "courseId",
          "type": "uint256"
        }
      ],
      "name": "purchaseCourse",
      "outputs": [],
      "stateMutability": "nonpayable",
      "type": "function"
    },
    {
      "inputs": [
        {
          "internalType": "uint256",
          "name": "courseId",
          "type": "uint256"
        },
        {
          "internalType": "uint256",
          "name": "sections",
          "type": "uint256"
        }
      ],
      "name": "rejectCourse",
      "outputs": [],
      "stateMutability": "nonpayable",
      "type": "function"
    },
    {
      "inputs": [
        {
          "internalType": "uint256",
          "name": "courseId",
          "type": "uint256"
        },
        {
          "internalType": "string",
          "name": "uri",
          "type": "string"
        }
      ],
      "name": "onCompletedCourse",
      "outputs": [],
      "stateMutability": "nonpayable",
      "type": "function"
    }
  ],
  "bytecode": "0x60806040526001600455600160055560016006556001600755686c6b935b8bbd4000006008553480156200003257600080fd5b50604051620060da380380620060da83398181016040528101906200005891906200072e565b336000806101000a81548173ffffffffffffffffffffffffffffffffffffffff021916908373ffffffffffffffffffffffffffffffffffffffff16021790555082600160006101000a81548173ffffffffffffffffffffffffffffffffffffffff021916908373ffffffffffffffffffffffffffffffffffffffff16021790555081600260006101000a81548173ffffffffffffffffffffffffffffffffffffffff021916908373ffffffffffffffffffffffffffffffffffffffff16021790555080600360006101000a81548173ffffffffffffffffffffffffffffffffffffffff021916908373ffffffffffffffffffffffffffffffffffffffff1602179055506200016b6200017460201b60201c565b50505062000bea565b620001d46040518060400160405280600f81526020017f57656220446576656c6f706d656e7400000000000000000000000000000000008152506040518060600160405280602781526020016200606e60279139620005a660201b60201c565b620002506040518060400160405280600781526020017f436f6f6b696e67000000000000000000000000000000000000000000000000008152506040518060400160405280601f81526020017f2f696d616765732f63617465676f726965732f636f6f6b696e672e7765627000815250620005a660201b60201c565b620002cc6040518060400160405280600f81526020017f55492f55582044657369676e696e6700000000000000000000000000000000008152506040518060400160405280601d81526020017f2f696d616765732f63617465676f726965732f75692d75782e77656270000000815250620005a660201b60201c565b6200032c6040518060400160405280600c81526020017f334420416e696d6174696f6e00000000000000000000000000000000000000008152506040518060600160405280602181526020016200602a60219139620005a660201b60201c565b6200038c6040518060400160405280600c81526020017f496c6c757374726174696f6e00000000000000000000000000000000000000008152506040518060600160405280602481526020016200600660249139620005a660201b60201c565b620003ec6040518060400160405280600c81526020017f4461746120536369656e636500000000000000000000000000000000000000008152506040518060600160405280602481526020016200609560249139620005a660201b60201c565b620004686040518060400160405280600881526020017f537065616b696e670000000000000000000000000000000000000000000000008152506040518060400160405280602081526020017f2f696d616765732f63617465676f726965732f737065616b696e672e77656270815250620005a660201b60201c565b620004e46040518060400160405280600581526020017f4d757369630000000000000000000000000000000000000000000000000000008152506040518060400160405280601d81526020017f2f696d616765732f63617465676f726965732f6d757369632e77656270000000815250620005a660201b60201c565b620005446040518060400160405280600b81526020017f50686f746f6772617068790000000000000000000000000000000000000000008152506040518060600160405280602381526020016200604b60239139620005a660201b60201c565b620005a46040518060400160405280600981526020017f4d61726b6574696e670000000000000000000000000000000000000000000000815250604051806060016040528060218152602001620060b960219139620005a660201b60201c565b565b60008054906101000a900473ffffffffffffffffffffffffffffffffffffffff1673ffffffffffffffffffffffffffffffffffffffff163373ffffffffffffffffffffffffffffffffffffffff161462000637576040517f08c379a00000000000000000000000000000000000000000000000000000000081526004016200062e90620007eb565b60405180910390fd5b60405180606001604052806007548152602001838152602001828152506009600060075481526020019081526020016000206000820151816000015560208201518160010190816200068a919062000a87565b506040820151816002019081620006a2919062000a87565b5090505060076000815480929190620006bb9062000b9d565b91905055505050565b600080fd5b600073ffffffffffffffffffffffffffffffffffffffff82169050919050565b6000620006f682620006c9565b9050919050565b6200070881620006e9565b81146200071457600080fd5b50565b6000815190506200072881620006fd565b92915050565b6000806000606084860312156200074a5762000749620006c4565b5b60006200075a8682870162000717565b93505060206200076d8682870162000717565b9250506040620007808682870162000717565b9150509250925092565b600082825260208201905092915050565b7f21617574686f72697a6564000000000000000000000000000000000000000000600082015250565b6000620007d3600b836200078a565b9150620007e0826200079b565b602082019050919050565b600060208201905081810360008301526200080681620007c4565b9050919050565b600081519050919050565b7f4e487b7100000000000000000000000000000000000000000000000000000000600052604160045260246000fd5b7f4e487b7100000000000000000000000000000000000000000000000000000000600052602260045260246000fd5b600060028204905060018216806200088f57607f821691505b602082108103620008a557620008a462000847565b5b50919050565b60008190508160005260206000209050919050565b60006020601f8301049050919050565b600082821b905092915050565b6000600883026200090f7fffffffffffffffffffffffffffffffffffffffffffffffffffffffffffffffff82620008d0565b6200091b8683620008d0565b95508019841693508086168417925050509392505050565b6000819050919050565b6000819050919050565b600062000968620009626200095c8462000933565b6200093d565b62000933565b9050919050565b6000819050919050565b620009848362000947565b6200099c62000993826200096f565b848454620008dd565b825550505050565b600090565b620009b3620009a4565b620009c081848462000979565b505050565b5b81811015620009e857620009dc600082620009a9565b600181019050620009c6565b5050565b601f82111562000a375762000a0181620008ab565b62000a0c84620008c0565b8101602085101562000a1c578190505b62000a3462000a2b85620008c0565b830182620009c5565b50505b505050565b600082821c905092915050565b600062000a5c6000198460080262000a3c565b1980831691505092915050565b600062000a77838362000a49565b9150826002028217905092915050565b62000a92826200080d565b67ffffffffffffffff81111562000aae5762000aad62000818565b5b62000aba825462000876565b62000ac7828285620009ec565b600060209050601f83116001811462000aff576000841562000aea578287015190505b62000af6858262000a69565b86555062000b66565b601f19841662000b0f86620008ab565b60005b8281101562000b395784890151825560018201915060208501945060208101905062000b12565b8683101562000b59578489015162000b55601f89168262000a49565b8355505b6001600288020188555050505b505050505050565b7f4e487b7100000000000000000000000000000000000000000000000000000000600052601160045260246000fd5b600062000baa8262000933565b91507fffffffffffffffffffffffffffffffffffffffffffffffffffffffffffffffff820362000bdf5762000bde62000b6e565b5b600182019050919050565b61540c8062000bfa6000396000f3fe608060405234801561001057600080fd5b50600436106101585760003560e01c8063823d5bf4116100c3578063c6cdbe5e1161007c578063c6cdbe5e146103b9578063cd131938146103eb578063d031a83414610407578063e4bcf87d14610437578063fb9da76a14610453578063fd95cc511461046f57610158565b8063823d5bf4146102d557806396f979d2146102f3578063a4adb24b1461032d578063a6c807a914610349578063aa39566c1461037f578063b0f8158c1461039d57610158565b806318222d5e1161011557806318222d5e146101fa5780631bf703b21461022a5780632a47d91c14610246578063332d90a91461027f5780635a6373841461029d5780637a1469a4146102b957610158565b80630226b0b21461015d578063097167ba1461019057806309df4f66146101ac5780630da079b4146101ca5780631249c58b146101e657806313eda8fc146101f0575b600080fd5b61017760048036038101906101729190614379565b6104a3565b6040516101879493929190614458565b60405180910390f35b6101aa60048036038101906101a591906144b2565b610688565b005b6101b4610720565b6040516101c191906144df565b60405180910390f35b6101e460048036038101906101df919061462f565b610726565b005b6101ee610c41565b005b6101f8610cd0565b005b610214600480360381019061020f9190614718565b610d5f565b60405161022191906144df565b60405180910390f35b610244600480360381019061023f9190614758565b610dc8565b005b610260600480360381019061025b91906147d0565b610edd565b6040516102769a99989796959493929190614818565b60405180910390f35b61028761126e565b60405161029491906144df565b60405180910390f35b6102b760048036038101906102b291906148de565b611274565b005b6102d360048036038101906102ce9190614999565b611a83565b005b6102dd611b70565b6040516102ea91906144df565b60405180910390f35b61030d600480360381019061030891906144b2565b611b76565b6040516103249b9a99989796959493929190614a04565b60405180910390f35b6103476004803603810190610342919061462f565b611e1d565b005b610363600480360381019061035e91906147d0565b6124ee565b6040516103769796959493929190614acb565b60405180910390f35b610387612750565b60405161039491906144df565b60405180910390f35b6103b760048036038101906103b29190614379565b612756565b005b6103d360048036038101906103ce91906144b2565b612d74565b6040516103e293929190614b56565b60405180910390f35b610405600480360381019061040091906144b2565b612eae565b005b610421600480360381019061041c91906147d0565b613223565b60405161042e91906144df565b60405180910390f35b610451600480360381019061044c9190614b9b565b613272565b005b61046d60048036038101906104689190614379565b61392a565b005b61048960048036038101906104849190614718565b6140ce565b60405161049a959493929190614c6a565b60405180910390f35b600e60205281600052604060002081815481106104bf57600080fd5b9060005260206000209060040201600091509150508060000154908060010180546104e990614cec565b80601f016020809104026020016040519081016040528092919081815260200182805461051590614cec565b80156105625780601f1061053757610100808354040283529160200191610562565b820191906000526020600020905b81548152906001019060200180831161054557829003601f168201915b50505050509080600201805461057790614cec565b80601f01602080910402602001604051908101604052809291908181526020018280546105a390614cec565b80156105f05780601f106105c5576101008083540402835291602001916105f0565b820191906000526020600020905b8154815290600101906020018083116105d357829003601f168201915b50505050509080600301805461060590614cec565b80601f016020809104026020016040519081016040528092919081815260200182805461063190614cec565b801561067e5780601f106106535761010080835404028352916020019161067e565b820191906000526020600020905b81548152906001019060200180831161066157829003601f168201915b5050505050905084565b60008054906101000a900473ffffffffffffffffffffffffffffffffffffffff1673ffffffffffffffffffffffffffffffffffffffff163373ffffffffffffffffffffffffffffffffffffffff1614610716576040517f08c379a000000000000000000000000000000000000000000000000000000000815260040161070d90614d69565b60405180910390fd5b8060088190555050565b60065481565b6000600b60003373ffffffffffffffffffffffffffffffffffffffff1673ffffffffffffffffffffffffffffffffffffffff168152602001908152602001600020600001541480156107ba57506000600a60003373ffffffffffffffffffffffffffffffffffffffff1673ffffffffffffffffffffffffffffffffffffffff16815260200190815260200160002060000154145b6107f9576040517f08c379a00000000000000000000000000000000000000000000000000000000081526004016107f090614d69565b60405180910390fd5b6000600b60003373ffffffffffffffffffffffffffffffffffffffff1673ffffffffffffffffffffffffffffffffffffffff168152602001908152602001600020604051806101000160405290816000820154815260200160018201805461086090614cec565b80601f016020809104026020016040519081016040528092919081815260200182805461088c90614cec565b80156108d95780601f106108ae576101008083540402835291602001916108d9565b820191906000526020600020905b8154815290600101906020018083116108bc57829003601f168201915b505050505081526020016002820180546108f290614cec565b80601f016020809104026020016040519081016040528092919081815260200182805461091e90614cec565b801561096b5780601f106109405761010080835404028352916020019161096b565b820191906000526020600020905b81548152906001019060200180831161094e57829003601f168201915b505050505081526020016003820154815260200160048201805461098e90614cec565b80601f01602080910402602001604051908101604052809291908181526020018280546109ba90614cec565b8015610a075780601f106109dc57610100808354040283529160200191610a07565b820191906000526020600020905b8154815290600101906020018083116109ea57829003601f168201915b50505050508152602001600582018054610a2090614cec565b80601f0160208091040260200160405190810160405280929190818152602001828054610a4c90614cec565b8015610a995780601f10610a6e57610100808354040283529160200191610a99565b820191906000526020600020905b815481529060010190602001808311610a7c57829003601f168201915b505050505081526020016006820154815260200160078201805480602002602001604051908101604052809291908181526020018280548015610afb57602002820191906000526020600020905b815481526020019060010190808311610ae7575b50505050508152505090506040518061010001604052806005548152602001858152602001848152602001838152602001826080015181526020018260a0015181526020014281526020018260e00151815250600b60003373ffffffffffffffffffffffffffffffffffffffff1673ffffffffffffffffffffffffffffffffffffffff168152602001908152602001600020600082015181600001556020820151816001019081610bac9190614f35565b506040820151816002019081610bc29190614f35565b50606082015181600301556080820151816004019081610be29190614f35565b5060a0820151816005019081610bf89190614f35565b5060c0820151816006015560e0820151816007019080519060200190610c1f9291906141fb565b5090505060056000815480929190610c3690615036565b919050555050505050565b600260009054906101000a900473ffffffffffffffffffffffffffffffffffffffff1673ffffffffffffffffffffffffffffffffffffffff16636a627842336040518263ffffffff1660e01b8152600401610c9c919061507e565b600060405180830381600087803b158015610cb657600080fd5b505af1158015610cca573d6000803e3d6000fd5b50505050565b600160009054906101000a900473ffffffffffffffffffffffffffffffffffffffff1673ffffffffffffffffffffffffffffffffffffffff16636a627842336040518263ffffffff1660e01b8152600401610d2b919061507e565b600060405180830381600087803b158015610d4557600080fd5b505af1158015610d59573d6000803e3d6000fd5b50505050565b6000600a60008473ffffffffffffffffffffffffffffffffffffffff1673ffffffffffffffffffffffffffffffffffffffff1681526020019081526020016000206009018281548110610db557610db4615099565b5b9060005260206000200154905092915050565b60008054906101000a900473ffffffffffffffffffffffffffffffffffffffff1673ffffffffffffffffffffffffffffffffffffffff163373ffffffffffffffffffffffffffffffffffffffff1614610e56576040517f08c379a0000000000000000000000000000000000000000000000000000000008152600401610e4d90614d69565b60405180910390fd5b6040518060600160405280600754815260200183815260200182815250600960006007548152602001908152602001600020600082015181600001556020820151816001019081610ea79190614f35565b506040820151816002019081610ebd9190614f35565b5090505060076000815480929190610ed490615036565b91905055505050565b600a602052806000526040600020600091509050806000015490806001018054610f0690614cec565b80601f0160208091040260200160405190810160405280929190818152602001828054610f3290614cec565b8015610f7f5780601f10610f5457610100808354040283529160200191610f7f565b820191906000526020600020905b815481529060010190602001808311610f6257829003601f168201915b505050505090806002018054610f9490614cec565b80601f0160208091040260200160405190810160405280929190818152602001828054610fc090614cec565b801561100d5780601f10610fe25761010080835404028352916020019161100d565b820191906000526020600020905b815481529060010190602001808311610ff057829003601f168201915b50505050509080600301805461102290614cec565b80601f016020809104026020016040519081016040528092919081815260200182805461104e90614cec565b801561109b5780601f106110705761010080835404028352916020019161109b565b820191906000526020600020905b81548152906001019060200180831161107e57829003601f168201915b5050505050908060040154908060050160009054906101000a900460ff16908060060180546110c990614cec565b80601f01602080910402602001604051908101604052809291908181526020018280546110f590614cec565b80156111425780601f1061111757610100808354040283529160200191611142565b820191906000526020600020905b81548152906001019060200180831161112557829003601f168201915b50505050509080600701805461115790614cec565b80601f016020809104026020016040519081016040528092919081815260200182805461118390614cec565b80156111d05780601f106111a5576101008083540402835291602001916111d0565b820191906000526020600020905b8154815290600101906020018083116111b357829003601f168201915b5050505050908060080180546111e590614cec565b80601f016020809104026020016040519081016040528092919081815260200182805461121190614cec565b801561125e5780601f106112335761010080835404028352916020019161125e565b820191906000526020600020905b81548152906001019060200180831161124157829003601f168201915b50505050509080600a015490508a565b60045481565b6000600b60003373ffffffffffffffffffffffffffffffffffffffff1673ffffffffffffffffffffffffffffffffffffffff1681526020019081526020016000206000015414801561130857506000600a60003373ffffffffffffffffffffffffffffffffffffffff1673ffffffffffffffffffffffffffffffffffffffff16815260200190815260200160002060000154145b611347576040517f08c379a000000000000000000000000000000000000000000000000000000000815260040161133e90614d69565b60405180910390fd5b600160009054906101000a900473ffffffffffffffffffffffffffffffffffffffff1673ffffffffffffffffffffffffffffffffffffffff16636c43a2ca33306008546040518463ffffffff1660e01b81526004016113a8939291906150c8565b6020604051808303816000875af11580156113c7573d6000803e3d6000fd5b505050506040513d601f19601f820116820180604052508101906113eb919061512b565b50600160009054906101000a900473ffffffffffffffffffffffffffffffffffffffff1673ffffffffffffffffffffffffffffffffffffffff166323b872dd33306008546040518463ffffffff1660e01b815260040161144d939291906150c8565b6020604051808303816000875af115801561146c573d6000803e3d6000fd5b505050506040513d601f19601f82011682018060405250810190611490919061512b565b506000600a60003373ffffffffffffffffffffffffffffffffffffffff1673ffffffffffffffffffffffffffffffffffffffff16815260200190815260200160002060405180610160016040529081600082015481526020016001820180546114f890614cec565b80601f016020809104026020016040519081016040528092919081815260200182805461152490614cec565b80156115715780601f1061154657610100808354040283529160200191611571565b820191906000526020600020905b81548152906001019060200180831161155457829003601f168201915b5050505050815260200160028201805461158a90614cec565b80601f01602080910402602001604051908101604052809291908181526020018280546115b690614cec565b80156116035780601f106115d857610100808354040283529160200191611603565b820191906000526020600020905b8154815290600101906020018083116115e657829003601f168201915b5050505050815260200160038201805461161c90614cec565b80601f016020809104026020016040519081016040528092919081815260200182805461164890614cec565b80156116955780601f1061166a57610100808354040283529160200191611695565b820191906000526020600020905b81548152906001019060200180831161167857829003601f168201915b50505050508152602001600482015481526020016005820160009054906101000a900460ff161515151581526020016006820180546116d390614cec565b80601f01602080910402602001604051908101604052809291908181526020018280546116ff90614cec565b801561174c5780601f106117215761010080835404028352916020019161174c565b820191906000526020600020905b81548152906001019060200180831161172f57829003601f168201915b5050505050815260200160078201805461176590614cec565b80601f016020809104026020016040519081016040528092919081815260200182805461179190614cec565b80156117de5780601f106117b3576101008083540402835291602001916117de565b820191906000526020600020905b8154815290600101906020018083116117c157829003601f168201915b505050505081526020016008820180546117f790614cec565b80601f016020809104026020016040519081016040528092919081815260200182805461182390614cec565b80156118705780601f1061184557610100808354040283529160200191611870565b820191906000526020600020905b81548152906001019060200180831161185357829003601f168201915b50505050508152602001600982018054806020026020016040519081016040528092919081815260200182805480156118c857602002820191906000526020600020905b8154815260200190600101908083116118b4575b50505050508152602001600a82015481525050905060405180610160016040528060045481526020018681526020018581526020018481526020018381526020016000151581526020018260c0015181526020018260e0015181526020018261010001518152602001826101200151815260200142815250600a60003373ffffffffffffffffffffffffffffffffffffffff1673ffffffffffffffffffffffffffffffffffffffff16815260200190815260200160002060008201518160000155602082015181600101908161199e9190614f35565b5060408201518160020190816119b49190614f35565b5060608201518160030190816119ca9190614f35565b506080820151816004015560a08201518160050160006101000a81548160ff02191690831515021790555060c0820151816006019081611a0a9190614f35565b5060e0820151816007019081611a209190614f35565b50610100820151816008019081611a379190614f35565b50610120820151816009019080519060200190611a559291906141fb565b5061014082015181600a015590505060046000815480929190611a7790615036565b91905055505050505050565b6000600b60003373ffffffffffffffffffffffffffffffffffffffff1673ffffffffffffffffffffffffffffffffffffffff1681526020019081526020016000206000015403611b08576040517f08c379a0000000000000000000000000000000000000000000000000000000008152600401611aff90614d69565b60405180910390fd5b6000600c60008481526020019081526020016000206000015403611b61576040517f08c379a0000000000000000000000000000000000000000000000000000000008152600401611b58906151a4565b60405180910390fd5b611b6c82338361412e565b5050565b60055481565b600c602052806000526040600020600091509050806000015490806001018054611b9f90614cec565b80601f0160208091040260200160405190810160405280929190818152602001828054611bcb90614cec565b8015611c185780601f10611bed57610100808354040283529160200191611c18565b820191906000526020600020905b815481529060010190602001808311611bfb57829003601f168201915b505050505090806002018054611c2d90614cec565b80601f0160208091040260200160405190810160405280929190818152602001828054611c5990614cec565b8015611ca65780601f10611c7b57610100808354040283529160200191611ca6565b820191906000526020600020905b815481529060010190602001808311611c8957829003601f168201915b505050505090806003015490806004018054611cc190614cec565b80601f0160208091040260200160405190810160405280929190818152602001828054611ced90614cec565b8015611d3a5780601f10611d0f57610100808354040283529160200191611d3a565b820191906000526020600020905b815481529060010190602001808311611d1d57829003601f168201915b5050505050908060050160009054906101000a900473ffffffffffffffffffffffffffffffffffffffff1690806008015490806009018054611d7b90614cec565b80601f0160208091040260200160405190810160405280929190818152602001828054611da790614cec565b8015611df45780601f10611dc957610100808354040283529160200191611df4565b820191906000526020600020905b815481529060010190602001808311611dd757829003601f168201915b50505050509080600a0160009054906101000a900460ff169080600b01549080600c015490508b565b6000600a60003373ffffffffffffffffffffffffffffffffffffffff1673ffffffffffffffffffffffffffffffffffffffff1681526020019081526020016000206000015403611ea2576040517f08c379a0000000000000000000000000000000000000000000000000000000008152600401611e9990614d69565b60405180910390fd5b6000600c60006006548152602001908152602001600020604051806101a001604052908160008201548152602001600182018054611edf90614cec565b80601f0160208091040260200160405190810160405280929190818152602001828054611f0b90614cec565b8015611f585780601f10611f2d57610100808354040283529160200191611f58565b820191906000526020600020905b815481529060010190602001808311611f3b57829003601f168201915b50505050508152602001600282018054611f7190614cec565b80601f0160208091040260200160405190810160405280929190818152602001828054611f9d90614cec565b8015611fea5780601f10611fbf57610100808354040283529160200191611fea565b820191906000526020600020905b815481529060010190602001808311611fcd57829003601f168201915b505050505081526020016003820154815260200160048201805461200d90614cec565b80601f016020809104026020016040519081016040528092919081815260200182805461203990614cec565b80156120865780601f1061205b57610100808354040283529160200191612086565b820191906000526020600020905b81548152906001019060200180831161206957829003601f168201915b505050505081526020016005820160009054906101000a900473ffffffffffffffffffffffffffffffffffffffff1673ffffffffffffffffffffffffffffffffffffffff1673ffffffffffffffffffffffffffffffffffffffff1681526020016006820180548060200260200160405190810160405280929190818152602001828054801561216a57602002820191906000526020600020905b8160009054906101000a900473ffffffffffffffffffffffffffffffffffffffff1673ffffffffffffffffffffffffffffffffffffffff1681526020019060010190808311612120575b50505050508152602001600782018054806020026020016040519081016040528092919081815260200182805480156121c257602002820191906000526020600020905b8154815260200190600101908083116121ae575b50505050508152602001600882015481526020016009820180546121e590614cec565b80601f016020809104026020016040519081016040528092919081815260200182805461221190614cec565b801561225e5780601f106122335761010080835404028352916020019161225e565b820191906000526020600020905b81548152906001019060200180831161224157829003601f168201915b50505050508152602001600a820160009054906101000a900460ff16151515158152602001600b8201548152602001600c820154815250509050604051806101a001604052806006548152602001858152602001848152602001838152602001826080015181526020013373ffffffffffffffffffffffffffffffffffffffff1681526020018260c0015181526020018260e00151815260200160008152602001826101200151815260200160001515815260200142815260200142815250600c600060065481526020019081526020016000206000820151816000015560208201518160010190816123519190614f35565b5060408201518160020190816123679190614f35565b506060820151816003015560808201518160040190816123879190614f35565b5060a08201518160050160006101000a81548173ffffffffffffffffffffffffffffffffffffffff021916908373ffffffffffffffffffffffffffffffffffffffff16021790555060c08201518160060190805190602001906123eb929190614248565b5060e08201518160070190805190602001906124089291906141fb565b50610100820151816008015561012082015181600901908161242a9190614f35565b5061014082015181600a0160006101000a81548160ff02191690831515021790555061016082015181600b015561018082015181600c0155905050600a60003373ffffffffffffffffffffffffffffffffffffffff1673ffffffffffffffffffffffffffffffffffffffff1681526020019081526020016000206009016006549080600181540180825580915050600190039060005260206000200160009091909190915055600660008154809291906124e390615036565b919050555050505050565b600b60205280600052604060002060009150905080600001549080600101805461251790614cec565b80601f016020809104026020016040519081016040528092919081815260200182805461254390614cec565b80156125905780601f1061256557610100808354040283529160200191612590565b820191906000526020600020905b81548152906001019060200180831161257357829003601f168201915b5050505050908060020180546125a590614cec565b80601f01602080910402602001604051908101604052809291908181526020018280546125d190614cec565b801561261e5780601f106125f35761010080835404028352916020019161261e565b820191906000526020600020905b81548152906001019060200180831161260157829003601f168201915b50505050509080600301549080600401805461263990614cec565b80601f016020809104026020016040519081016040528092919081815260200182805461266590614cec565b80156126b25780601f10612687576101008083540402835291602001916126b2565b820191906000526020600020905b81548152906001019060200180831161269557829003601f168201915b5050505050908060050180546126c790614cec565b80601f01602080910402602001604051908101604052809291908181526020018280546126f390614cec565b80156127405780601f1061271557610100808354040283529160200191612740565b820191906000526020600020905b81548152906001019060200180831161272357829003601f168201915b5050505050908060060154905087565b60075481565b6000600a60003373ffffffffffffffffffffffffffffffffffffffff1673ffffffffffffffffffffffffffffffffffffffff16815260200190815260200160002060000154036127db576040517f08c379a00000000000000000000000000000000000000000000000000000000081526004016127d290614d69565b60405180910390fd5b6000600c6000848152602001908152602001600020604051806101a00160405290816000820154815260200160018201805461281690614cec565b80601f016020809104026020016040519081016040528092919081815260200182805461284290614cec565b801561288f5780601f106128645761010080835404028352916020019161288f565b820191906000526020600020905b81548152906001019060200180831161287257829003601f168201915b505050505081526020016002820180546128a890614cec565b80601f01602080910402602001604051908101604052809291908181526020018280546128d490614cec565b80156129215780601f106128f657610100808354040283529160200191612921565b820191906000526020600020905b81548152906001019060200180831161290457829003601f168201915b505050505081526020016003820154815260200160048201805461294490614cec565b80601f016020809104026020016040519081016040528092919081815260200182805461297090614cec565b80156129bd5780601f10612992576101008083540402835291602001916129bd565b820191906000526020600020905b8154815290600101906020018083116129a057829003601f168201915b505050505081526020016005820160009054906101000a900473ffffffffffffffffffffffffffffffffffffffff1673ffffffffffffffffffffffffffffffffffffffff1673ffffffffffffffffffffffffffffffffffffffff16815260200160068201805480602002602001604051908101604052809291908181526020018280548015612aa157602002820191906000526020600020905b8160009054906101000a900473ffffffffffffffffffffffffffffffffffffffff1673ffffffffffffffffffffffffffffffffffffffff1681526020019060010190808311612a57575b5050505050815260200160078201805480602002602001604051908101604052809291908181526020018280548015612af957602002820191906000526020600020905b815481526020019060010190808311612ae5575b5050505050815260200160088201548152602001600982018054612b1c90614cec565b80601f0160208091040260200160405190810160405280929190818152602001828054612b4890614cec565b8015612b955780601f10612b6a57610100808354040283529160200191612b95565b820191906000526020600020905b815481529060010190602001808311612b7857829003601f168201915b50505050508152602001600a820160009054906101000a900460ff16151515158152602001600b8201548152602001600c8201548152505090506000816000015103612c16576040517f08c379a0000000000000000000000000000000000000000000000000000000008152600401612c0d906151a4565b60405180910390fd5b3373ffffffffffffffffffffffffffffffffffffffff168160a0015173ffffffffffffffffffffffffffffffffffffffff1614612c88576040517f08c379a0000000000000000000000000000000000000000000000000000000008152600401612c7f90614d69565b60405180910390fd5b6000600e60008581526020019081526020016000208381548110612caf57612cae615099565b5b90600052602060002090600402016000015403612d01576040517f08c379a0000000000000000000000000000000000000000000000000000000008152600401612cf8906151a4565b60405180910390fd5b600e60008481526020019081526020016000208281548110612d2657612d25615099565b5b9060005260206000209060040201600080820160009055600182016000612d4d91906142d2565b600282016000612d5d91906142d2565b600382016000612d6d91906142d2565b5050505050565b6009602052806000526040600020600091509050806000015490806001018054612d9d90614cec565b80601f0160208091040260200160405190810160405280929190818152602001828054612dc990614cec565b8015612e165780601f10612deb57610100808354040283529160200191612e16565b820191906000526020600020905b815481529060010190602001808311612df957829003601f168201915b505050505090806002018054612e2b90614cec565b80601f0160208091040260200160405190810160405280929190818152602001828054612e5790614cec565b8015612ea45780601f10612e7957610100808354040283529160200191612ea4565b820191906000526020600020905b815481529060010190602001808311612e8757829003601f168201915b5050505050905083565b6000600b60003373ffffffffffffffffffffffffffffffffffffffff1673ffffffffffffffffffffffffffffffffffffffff1681526020019081526020016000206000015403612f33576040517f08c379a0000000000000000000000000000000000000000000000000000000008152600401612f2a90614d69565b60405180910390fd5b6000600c600083815260200190815260200160002090506000816000015403612f91576040517f08c379a0000000000000000000000000000000000000000000000000000000008152600401612f88906151a4565b60405180910390fd5b600160009054906101000a900473ffffffffffffffffffffffffffffffffffffffff1673ffffffffffffffffffffffffffffffffffffffff16636c43a2ca333084600801546040518463ffffffff1660e01b8152600401612ff4939291906150c8565b6020604051808303816000875af1158015613013573d6000803e3d6000fd5b505050506040513d601f19601f82011682018060405250810190613037919061512b565b50600160009054906101000a900473ffffffffffffffffffffffffffffffffffffffff1673ffffffffffffffffffffffffffffffffffffffff166323b872dd333084600801546040518463ffffffff1660e01b815260040161309b939291906150c8565b6020604051808303816000875af11580156130ba573d6000803e3d6000fd5b505050506040513d601f19601f820116820180604052508101906130de919061512b565b50600d60003373ffffffffffffffffffffffffffffffffffffffff1673ffffffffffffffffffffffffffffffffffffffff1681526020019081526020016000206040518060a0016040528084815260200160011515815260200183600801548152602001600081526020014281525090806001815401808255809150506001900390600052602060002090600502016000909190919091506000820151816000015560208201518160010160006101000a81548160ff02191690831515021790555060408201518160020155606082015181600301556080820151816004015550507fba05698ffe932ba01d3d70f62a2e48d6719cc5df3bdcf9118015af495c4a39b18160050160009054906101000a900473ffffffffffffffffffffffffffffffffffffffff163384604051613217939291906150c8565b60405180910390a15050565b6000600a60008373ffffffffffffffffffffffffffffffffffffffff1673ffffffffffffffffffffffffffffffffffffffff168152602001908152602001600020600901805490509050919050565b6000600a60003373ffffffffffffffffffffffffffffffffffffffff1673ffffffffffffffffffffffffffffffffffffffff16815260200190815260200160002060000154036132f7576040517f08c379a00000000000000000000000000000000000000000000000000000000081526004016132ee90614d69565b60405180910390fd5b6000600c6000878152602001908152602001600020604051806101a00160405290816000820154815260200160018201805461333290614cec565b80601f016020809104026020016040519081016040528092919081815260200182805461335e90614cec565b80156133ab5780601f10613380576101008083540402835291602001916133ab565b820191906000526020600020905b81548152906001019060200180831161338e57829003601f168201915b505050505081526020016002820180546133c490614cec565b80601f01602080910402602001604051908101604052809291908181526020018280546133f090614cec565b801561343d5780601f106134125761010080835404028352916020019161343d565b820191906000526020600020905b81548152906001019060200180831161342057829003601f168201915b505050505081526020016003820154815260200160048201805461346090614cec565b80601f016020809104026020016040519081016040528092919081815260200182805461348c90614cec565b80156134d95780601f106134ae576101008083540402835291602001916134d9565b820191906000526020600020905b8154815290600101906020018083116134bc57829003601f168201915b505050505081526020016005820160009054906101000a900473ffffffffffffffffffffffffffffffffffffffff1673ffffffffffffffffffffffffffffffffffffffff1673ffffffffffffffffffffffffffffffffffffffff168152602001600682018054806020026020016040519081016040528092919081815260200182805480156135bd57602002820191906000526020600020905b8160009054906101000a900473ffffffffffffffffffffffffffffffffffffffff1673ffffffffffffffffffffffffffffffffffffffff1681526020019060010190808311613573575b505050505081526020016007820180548060200260200160405190810160405280929190818152602001828054801561361557602002820191906000526020600020905b815481526020019060010190808311613601575b505050505081526020016008820154815260200160098201805461363890614cec565b80601f016020809104026020016040519081016040528092919081815260200182805461366490614cec565b80156136b15780601f10613686576101008083540402835291602001916136b1565b820191906000526020600020905b81548152906001019060200180831161369457829003601f168201915b50505050508152602001600a820160009054906101000a900460ff16151515158152602001600b8201548152602001600c8201548152505090506000816000015103613732576040517f08c379a0000000000000000000000000000000000000000000000000000000008152600401613729906151a4565b60405180910390fd5b3373ffffffffffffffffffffffffffffffffffffffff168160a0015173ffffffffffffffffffffffffffffffffffffffff16146137a4576040517f08c379a000000000000000000000000000000000000000000000000000000000815260040161379b90614d69565b60405180910390fd5b6000820361387e57600e600087815260200190815260200160002060405180608001604052806001600e60008b8152602001908152602001600020805490506137ed91906151c4565b815260200187815260200186815260200185815250908060018154018082558091505060019003906000526020600020906004020160009091909190915060008201518160000155602082015181600101908161384a9190614f35565b5060408201518160020190816138609190614f35565b5060608201518160030190816138769190614f35565b505050613922565b604051806080016040528083815260200186815260200185815260200184815250600e600088815260200190815260200160002083815481106138c4576138c3615099565b5b90600052602060002090600402016000820151816000015560208201518160010190816138f19190614f35565b5060408201518160020190816139079190614f35565b50606082015181600301908161391d9190614f35565b509050505b505050505050565b6000600b60003373ffffffffffffffffffffffffffffffffffffffff1673ffffffffffffffffffffffffffffffffffffffff16815260200190815260200160002060000154036139af576040517f08c379a00000000000000000000000000000000000000000000000000000000081526004016139a690614d69565b60405180910390fd5b6000600d60003373ffffffffffffffffffffffffffffffffffffffff1673ffffffffffffffffffffffffffffffffffffffff1681526020019081526020016000208381548110613a0257613a01615099565b5b90600052602060002090600502016040518060a0016040529081600082015481526020016001820160009054906101000a900460ff16151515158152602001600282015481526020016003820154815260200160048201548152505090506000600c6000858152602001908152602001600020604051806101a001604052908160008201548152602001600182018054613a9b90614cec565b80601f0160208091040260200160405190810160405280929190818152602001828054613ac790614cec565b8015613b145780601f10613ae957610100808354040283529160200191613b14565b820191906000526020600020905b815481529060010190602001808311613af757829003601f168201915b50505050508152602001600282018054613b2d90614cec565b80601f0160208091040260200160405190810160405280929190818152602001828054613b5990614cec565b8015613ba65780601f10613b7b57610100808354040283529160200191613ba6565b820191906000526020600020905b815481529060010190602001808311613b8957829003601f168201915b5050505050815260200160038201548152602001600482018054613bc990614cec565b80601f0160208091040260200160405190810160405280929190818152602001828054613bf590614cec565b8015613c425780601f10613c1757610100808354040283529160200191613c42565b820191906000526020600020905b815481529060010190602001808311613c2557829003601f168201915b505050505081526020016005820160009054906101000a900473ffffffffffffffffffffffffffffffffffffffff1673ffffffffffffffffffffffffffffffffffffffff1673ffffffffffffffffffffffffffffffffffffffff16815260200160068201805480602002602001604051908101604052809291908181526020018280548015613d2657602002820191906000526020600020905b8160009054906101000a900473ffffffffffffffffffffffffffffffffffffffff1673ffffffffffffffffffffffffffffffffffffffff1681526020019060010190808311613cdc575b5050505050815260200160078201805480602002602001604051908101604052809291908181526020018280548015613d7e57602002820191906000526020600020905b815481526020019060010190808311613d6a575b5050505050815260200160088201548152602001600982018054613da190614cec565b80601f0160208091040260200160405190810160405280929190818152602001828054613dcd90614cec565b8015613e1a5780601f10613def57610100808354040283529160200191613e1a565b820191906000526020600020905b815481529060010190602001808311613dfd57829003601f168201915b50505050508152602001600a820160009054906101000a900460ff16151515158152602001600b8201548152602001600c8201548152505090506000816000015103613e9b576040517f08c379a0000000000000000000000000000000000000000000000000000000008152600401613e92906151a4565b60405180910390fd5b6002826080015111613ee2576040517f08c379a0000000000000000000000000000000000000000000000000000000008152600401613ed990615244565b60405180910390fd5b6000838360600151613ef49190615264565b905060008111613f39576040517f08c379a0000000000000000000000000000000000000000000000000000000008152600401613f30906152e4565b60405180910390fd5b600082610100015182613f4c9190615304565b9050600d60003373ffffffffffffffffffffffffffffffffffffffff1673ffffffffffffffffffffffffffffffffffffffff1681526020019081526020016000208681548110613f9f57613f9e615099565b5b90600052602060002090600502016000808201600090556001820160006101000a81549060ff02191690556002820160009055600382016000905560048201600090555050600160009054906101000a900473ffffffffffffffffffffffffffffffffffffffff1673ffffffffffffffffffffffffffffffffffffffff166323b872dd3033846040518463ffffffff1660e01b8152600401614043939291906150c8565b6020604051808303816000875af1158015614062573d6000803e3d6000fd5b505050506040513d601f19601f82011682018060405250810190614086919061512b565b507fdc66f972de0418acb83d72185cdafd8f63206f06f26f08008effbcf11495f2fd338786606001516040516140be93929190615346565b60405180910390a1505050505050565b600d60205281600052604060002081815481106140ea57600080fd5b9060005260206000209060050201600091509150508060000154908060010160009054906101000a900460ff16908060020154908060030154908060040154905085565b600360009054906101000a900473ffffffffffffffffffffffffffffffffffffffff1673ffffffffffffffffffffffffffffffffffffffff166304b444d983836040518363ffffffff1660e01b815260040161418b92919061537d565b600060405180830381600087803b1580156141a557600080fd5b505af11580156141b9573d6000803e3d6000fd5b505050507ffec61b9ec0e29047dbeea981617649d79f187d172cfd492695a3d0bfee28883e82846040516141ee9291906153ad565b60405180910390a1505050565b828054828255906000526020600020908101928215614237579160200282015b8281111561423657825182559160200191906001019061421b565b5b5090506142449190614312565b5090565b8280548282559060005260206000209081019282156142c1579160200282015b828111156142c05782518260006101000a81548173ffffffffffffffffffffffffffffffffffffffff021916908373ffffffffffffffffffffffffffffffffffffffff16021790555091602001919060010190614268565b5b5090506142ce9190614312565b5090565b5080546142de90614cec565b6000825580601f106142f0575061430f565b601f01602090049060005260206000209081019061430e9190614312565b5b50565b5b8082111561432b576000816000905550600101614313565b5090565b6000604051905090565b600080fd5b600080fd5b6000819050919050565b61435681614343565b811461436157600080fd5b50565b6000813590506143738161434d565b92915050565b600080604083850312156143905761438f614339565b5b600061439e85828601614364565b92505060206143af85828601614364565b9150509250929050565b6143c281614343565b82525050565b600081519050919050565b600082825260208201905092915050565b60005b838110156144025780820151818401526020810190506143e7565b60008484015250505050565b6000601f19601f8301169050919050565b600061442a826143c8565b61443481856143d3565b93506144448185602086016143e4565b61444d8161440e565b840191505092915050565b600060808201905061446d60008301876143b9565b818103602083015261447f818661441f565b90508181036040830152614493818561441f565b905081810360608301526144a7818461441f565b905095945050505050565b6000602082840312156144c8576144c7614339565b5b60006144d684828501614364565b91505092915050565b60006020820190506144f460008301846143b9565b92915050565b600080fd5b600080fd5b7f4e487b7100000000000000000000000000000000000000000000000000000000600052604160045260246000fd5b61453c8261440e565b810181811067ffffffffffffffff8211171561455b5761455a614504565b5b80604052505050565b600061456e61432f565b905061457a8282614533565b919050565b600067ffffffffffffffff82111561459a57614599614504565b5b6145a38261440e565b9050602081019050919050565b82818337600083830152505050565b60006145d26145cd8461457f565b614564565b9050828152602081018484840111156145ee576145ed6144ff565b5b6145f98482856145b0565b509392505050565b600082601f830112614616576146156144fa565b5b81356146268482602086016145bf565b91505092915050565b60008060006060848603121561464857614647614339565b5b600084013567ffffffffffffffff8111156146665761466561433e565b5b61467286828701614601565b935050602084013567ffffffffffffffff8111156146935761469261433e565b5b61469f86828701614601565b92505060406146b086828701614364565b9150509250925092565b600073ffffffffffffffffffffffffffffffffffffffff82169050919050565b60006146e5826146ba565b9050919050565b6146f5816146da565b811461470057600080fd5b50565b600081359050614712816146ec565b92915050565b6000806040838503121561472f5761472e614339565b5b600061473d85828601614703565b925050602061474e85828601614364565b9150509250929050565b6000806040838503121561476f5761476e614339565b5b600083013567ffffffffffffffff81111561478d5761478c61433e565b5b61479985828601614601565b925050602083013567ffffffffffffffff8111156147ba576147b961433e565b5b6147c685828601614601565b9150509250929050565b6000602082840312156147e6576147e5614339565b5b60006147f484828501614703565b91505092915050565b60008115159050919050565b614812816147fd565b82525050565b60006101408201905061482e600083018d6143b9565b8181036020830152614840818c61441f565b90508181036040830152614854818b61441f565b90508181036060830152614868818a61441f565b905061487760808301896143b9565b61488460a0830188614809565b81810360c0830152614896818761441f565b905081810360e08301526148aa818661441f565b90508181036101008301526148bf818561441f565b90506148cf6101208301846143b9565b9b9a5050505050505050505050565b600080600080608085870312156148f8576148f7614339565b5b600085013567ffffffffffffffff8111156149165761491561433e565b5b61492287828801614601565b945050602085013567ffffffffffffffff8111156149435761494261433e565b5b61494f87828801614601565b935050604085013567ffffffffffffffff8111156149705761496f61433e565b5b61497c87828801614601565b925050606061498d87828801614364565b91505092959194509250565b600080604083850312156149b0576149af614339565b5b60006149be85828601614364565b925050602083013567ffffffffffffffff8111156149df576149de61433e565b5b6149eb85828601614601565b9150509250929050565b6149fe816146da565b82525050565b600061016082019050614a1a600083018e6143b9565b8181036020830152614a2c818d61441f565b90508181036040830152614a40818c61441f565b9050614a4f606083018b6143b9565b8181036080830152614a61818a61441f565b9050614a7060a08301896149f5565b614a7d60c08301886143b9565b81810360e0830152614a8f818761441f565b9050614a9f610100830186614809565b614aad6101208301856143b9565b614abb6101408301846143b9565b9c9b505050505050505050505050565b600060e082019050614ae0600083018a6143b9565b8181036020830152614af2818961441f565b90508181036040830152614b06818861441f565b9050614b1560608301876143b9565b8181036080830152614b27818661441f565b905081810360a0830152614b3b818561441f565b9050614b4a60c08301846143b9565b98975050505050505050565b6000606082019050614b6b60008301866143b9565b8181036020830152614b7d818561441f565b90508181036040830152614b91818461441f565b9050949350505050565b600080600080600060a08688031215614bb757614bb6614339565b5b6000614bc588828901614364565b955050602086013567ffffffffffffffff811115614be657614be561433e565b5b614bf288828901614601565b945050604086013567ffffffffffffffff811115614c1357614c1261433e565b5b614c1f88828901614601565b935050606086013567ffffffffffffffff811115614c4057614c3f61433e565b5b614c4c88828901614601565b9250506080614c5d88828901614364565b9150509295509295909350565b600060a082019050614c7f60008301886143b9565b614c8c6020830187614809565b614c9960408301866143b9565b614ca660608301856143b9565b614cb360808301846143b9565b9695505050505050565b7f4e487b7100000000000000000000000000000000000000000000000000000000600052602260045260246000fd5b60006002820490506001821680614d0457607f821691505b602082108103614d1757614d16614cbd565b5b50919050565b7f21617574686f72697a6564000000000000000000000000000000000000000000600082015250565b6000614d53600b836143d3565b9150614d5e82614d1d565b602082019050919050565b60006020820190508181036000830152614d8281614d46565b9050919050565b60008190508160005260206000209050919050565b60006020601f8301049050919050565b600082821b905092915050565b600060088302614deb7fffffffffffffffffffffffffffffffffffffffffffffffffffffffffffffffff82614dae565b614df58683614dae565b95508019841693508086168417925050509392505050565b6000819050919050565b6000614e32614e2d614e2884614343565b614e0d565b614343565b9050919050565b6000819050919050565b614e4c83614e17565b614e60614e5882614e39565b848454614dbb565b825550505050565b600090565b614e75614e68565b614e80818484614e43565b505050565b5b81811015614ea457614e99600082614e6d565b600181019050614e86565b5050565b601f821115614ee957614eba81614d89565b614ec384614d9e565b81016020851015614ed2578190505b614ee6614ede85614d9e565b830182614e85565b50505b505050565b600082821c905092915050565b6000614f0c60001984600802614eee565b1980831691505092915050565b6000614f258383614efb565b9150826002028217905092915050565b614f3e826143c8565b67ffffffffffffffff811115614f5757614f56614504565b5b614f618254614cec565b614f6c828285614ea8565b600060209050601f831160018114614f9f5760008415614f8d578287015190505b614f978582614f19565b865550614fff565b601f198416614fad86614d89565b60005b82811015614fd557848901518255600182019150602085019450602081019050614fb0565b86831015614ff25784890151614fee601f891682614efb565b8355505b6001600288020188555050505b505050505050565b7f4e487b7100000000000000000000000000000000000000000000000000000000600052601160045260246000fd5b600061504182614343565b91507fffffffffffffffffffffffffffffffffffffffffffffffffffffffffffffffff820361507357615072615007565b5b600182019050919050565b600060208201905061509360008301846149f5565b92915050565b7f4e487b7100000000000000000000000000000000000000000000000000000000600052603260045260246000fd5b60006060820190506150dd60008301866149f5565b6150ea60208301856149f5565b6150f760408301846143b9565b949350505050565b615108816147fd565b811461511357600080fd5b50565b600081519050615125816150ff565b92915050565b60006020828403121561514157615140614339565b5b600061514f84828501615116565b91505092915050565b7f2165786973747300000000000000000000000000000000000000000000000000600082015250565b600061518e6007836143d3565b915061519982615158565b602082019050919050565b600060208201905081810360008301526151bd81615181565b9050919050565b60006151cf82614343565b91506151da83614343565b92508282019050808211156151f2576151f1615007565b5b92915050565b7f3e327765656b732e000000000000000000000000000000000000000000000000600082015250565b600061522e6008836143d3565b9150615239826151f8565b602082019050919050565b6000602082019050818103600083015261525d81615221565b9050919050565b600061526f82614343565b915061527a83614343565b925082820390508181111561529257615291615007565b5b92915050565b7f21726566756e61626c6500000000000000000000000000000000000000000000600082015250565b60006152ce600a836143d3565b91506152d982615298565b602082019050919050565b600060208201905081810360008301526152fd816152c1565b9050919050565b600061530f82614343565b915061531a83614343565b925082820261532881614343565b9150828204841483151761533f5761533e615007565b5b5092915050565b600060608201905061535b60008301866149f5565b61536860208301856143b9565b61537560408301846143b9565b949350505050565b600060408201905061539260008301856149f5565b81810360208301526153a4818461441f565b90509392505050565b60006040820190506153c260008301856149f5565b6153cf60208301846143b9565b939250505056fea264697066735822122024426eb57dd004dcb02abf7705efcc803005e60a3884013ad91173fa052d530c64736f6c634300081100332f696d616765732f63617465676f726965732f696c6c757374726174696f6e2e776562702f696d616765732f63617465676f726965732f616e696d6174696f6e2e776562702f696d616765732f63617465676f726965732f70686f746f6772617068792e776562702f696d616765732f63617465676f726965732f7765622d646576656c6f706d656e742e776562702f696d616765732f63617465676f726965732f646174612d736369656e63652e776562702f696d616765732f63617465676f726965732f6d61726b6574696e672e77656270",
  "immutableReferences": {},
  "source": "// SPDX-License-Identifier: GPL-3.0\n\npragma solidity >=0.7.0 <0.9.0;\n\nimport \"./BdlToken.sol\";\nimport \"./BdlNft.sol\";\nimport \"./BdlCertificate.sol\";\nimport \"./Models.sol\";\n\ncontract Buidl {\n    // state variables\n    address deployer;\n\n    BdlToken bdlToken;\n    BdlNft bdlNft;\n    BdlCertificate bdlCertificate;\n\n    uint256 public contractInstructorID = 1;\n    uint256 public contractStudentID = 1;\n    uint256 public contractCourseID = 1;\n    uint256 public contractCategoryID = 1;\n\n    // minimum to stake for a duration of 1year\n    uint256 instructorRegistrationFee = 2000 * 10**18;\n\n    mapping(uint => Models.Category) public categories;\n    mapping(address => Models.Instructor) public instructors;\n    mapping(address => Models.Student) public students;\n    mapping(uint => Models.Course) public courses;\n    mapping(address => Models.StudentCourse[]) public studentCourses;\n    mapping(uint => Models.CourseSection[]) public courseSections;\n\n    // contructor\n    constructor(\n        address _bdlToken,\n        address _bdlNft,\n        address _bdlCertificate\n    ) {\n        deployer = msg.sender;\n        bdlToken = BdlToken(_bdlToken);\n        bdlNft = BdlNft(_bdlNft);\n        bdlCertificate = BdlCertificate(_bdlCertificate);\n\n        addTestCategories();\n    }\n\n    // ========= Administation ========= //\n\n    function setInstructorRegistrationFee(uint256 amount) public onlyOwner {\n        instructorRegistrationFee = amount;\n    }\n\n    function addCategory(string memory name, string memory image)\n        public\n        onlyOwner\n    {\n        categories[contractCategoryID] = Models.Category(\n            contractCategoryID,\n            name,\n            image\n        );\n\n        contractCategoryID++;\n    }\n\n    // test\n    function mint() public {\n        bdlNft.mint(msg.sender);\n    }\n\n    // ========== Testing ========== //\n    function faucetMint() public {\n        bdlToken.mint(msg.sender);\n    }\n\n    // ========= Instructors =========== //\n\n    function createCourse(\n        string memory name,\n        string memory description,\n        uint categoryId\n    ) public onlyInstructor {\n        Models.Course memory course = courses[contractCourseID];\n\n        // create new freah course\n        courses[contractCourseID] = Models.Course(\n            contractCourseID,\n            name,\n            description,\n            categoryId,\n            course.ipfsPhoto,\n            msg.sender,\n            course.students,\n            course.ratings,\n            0,\n            course.metadata,\n            false,\n            block.timestamp,\n            block.timestamp\n        );\n\n        // assign course ownership to intructor\n        instructors[msg.sender].courses.push(contractCourseID);\n\n        // increment id\n        contractCourseID++;\n    }\n\n    function addSectionToCourse(\n        uint courseId,\n        string memory title,\n        string memory src,\n        string memory content,\n        uint updateFor\n    ) public onlyInstructor {\n        Models.Course memory course = courses[courseId];\n\n        require(course.id != 0, \"!exists\");\n        require(course.instructor == msg.sender, \"!authorized\");\n\n        if (updateFor == 0) {\n            courseSections[courseId].push(\n                Models.CourseSection(\n                    courseSections[courseId].length + 1,\n                    title,\n                    src,\n                    content\n                )\n            );\n        } else {\n            courseSections[courseId][updateFor] = Models.CourseSection(\n                updateFor,\n                title,\n                src,\n                content\n            );\n        }\n    }\n\n    function deleteCourseSection(uint courseId, uint sectionIndex)\n        public\n        onlyInstructor\n    {\n        Models.Course memory course = courses[courseId];\n\n        require(course.id != 0, \"!exists\");\n        require(course.instructor == msg.sender, \"!authorized\");\n        require(courseSections[courseId][sectionIndex].id != 0, \"!exists\");\n\n        delete courseSections[courseId][sectionIndex];\n    }\n\n    function getInstructorCoursesLength(address instructor)\n        public\n        view\n        returns (uint)\n    {\n        return instructors[instructor].courses.length;\n    }\n\n    function getInstructorCourseIdAtIndex(address instructor, uint index)\n        public\n        view\n        returns (uint)\n    {\n        return instructors[instructor].courses[index];\n    }\n\n    function createInstructorAccount(\n        string memory firstName,\n        string memory lastName,\n        string memory location,\n        uint gender\n    ) public notAnyone {\n        // stake instruction fee\n        bdlToken.increaseAllowance(\n            msg.sender,\n            address(this),\n            instructorRegistrationFee\n        );\n\n        bdlToken.transferFrom(\n            msg.sender,\n            address(this),\n            instructorRegistrationFee\n        );\n\n        Models.Instructor memory instructor = instructors[msg.sender];\n\n        instructors[msg.sender] = Models.Instructor(\n            contractInstructorID,\n            firstName,\n            lastName,\n            location,\n            gender,\n            false,\n            instructor.ipfsPhoto,\n            instructor.twitter,\n            instructor.linkedin,\n            instructor.courses,\n            block.timestamp\n        );\n\n        contractInstructorID++;\n    }\n\n    // ========= Students ========== //\n\n    function createStudentAccount(\n        string memory name,\n        string memory email,\n        uint gender\n    ) public notAnyone {\n        Models.Student memory student = students[msg.sender];\n\n        students[msg.sender] = Models.Student(\n            contractStudentID,\n            name,\n            email,\n            gender,\n            student.ipfsPhoto,\n            student.country,\n            block.timestamp,\n            student.courses\n        );\n\n        contractStudentID++;\n    }\n\n    function purchaseCourse(uint courseId) public onlyStudent {\n        Models.Course storage course = courses[courseId];\n\n        require(course.id != 0, \"!exists\");\n\n        // lock the student funds to smart contract\n        bdlToken.increaseAllowance(msg.sender, address(this), course.price);\n        bdlToken.transferFrom(msg.sender, address(this), course.price);\n\n        // create course for student\n        studentCourses[msg.sender].push(\n            Models.StudentCourse(\n                courseId,\n                true,\n                course.price,\n                0,\n                block.timestamp\n            )\n        );\n\n        emit CoursePurchased(course.instructor, msg.sender, courseId);\n    }\n\n    function rejectCourse(uint courseId, uint sections) public onlyStudent {\n        Models.StudentCourse memory studentCourse = studentCourses[msg.sender][\n            courseId\n        ];\n\n        Models.Course memory course = courses[courseId];\n\n        require(course.id != 0, \"!exists\");\n\n        // check is course is not over 2 weeks\n        require(studentCourse.purchasedAt > 2, \">2weeks.\");\n\n        uint refundableSections = (studentCourse.sectionsViewed - sections);\n\n        require(refundableSections > 0, \"!refunable\");\n\n        uint256 refundableAmount = (refundableSections * course.price);\n\n        // terminate student course\n        delete studentCourses[msg.sender][courseId];\n\n        // refund the student\n        bdlToken.transferFrom(address(this), msg.sender, refundableAmount);\n\n        emit CourseRejected(msg.sender, courseId, studentCourse.sectionsViewed);\n    }\n\n    // function onNextCourseSection(\n    //     uint courseId,\n    //     uint sections,\n    //     string memory uri\n    // ) public onlyStudent returns (string memory) {\n    //     Models.Course storage course = courses[courseId];\n\n    //     require(course.id != 0, \"!exists\");\n\n    //     Models.StudentCourse storage studentCourse = studentCourses[msg.sender][\n    //         courseId\n    //     ];\n\n    //     // students moved to another section of the course\n    //     // unlock part payment to the instructor (conditionally)\n    //     uint pricePerSection = (course.price / sections);\n\n    //     if (studentCourse.unlocked >= pricePerSection) {\n    //         studentCourse.unlocked -= pricePerSection;\n    //         bdlToken.transferFrom(\n    //             address(this),\n    //             course.instructor,\n    //             pricePerSection\n    //         );\n    //     }\n\n    //     // checks if students has completed the course\n    //     uint progress = (studentCourse.sectionsViewed / sections);\n\n    //     if (progress >= 1) {\n    //         onCompletedCourse(msg.sender, courseId, uri);\n    //         return \"course_completed\";\n    //     } else {\n    //         studentCourse.sectionsViewed++;\n    //         return \"course_next_section\";\n    //     }\n    // }\n\n    function onCompletedCourse(\n        uint courseId,\n        string memory uri\n    ) public onlyStudent {\n        require(courses[courseId].id != 0, \"!exists\");\n        generateCerticate(courseId, msg.sender, uri);\n        // bdlNft.mint(msg.sender);\n    }\n\n    function generateCerticate(\n        uint courseId,\n        address student,\n        string memory uri\n    ) private {\n        bdlCertificate.issue(student, uri);\n        emit CertificateIssued(student, courseId);\n    }\n\n    modifier onlyInstructor() {\n        require(instructors[msg.sender].id != 0, \"!authorized\");\n        _;\n    }\n\n    modifier onlyStudent() {\n        require(students[msg.sender].id != 0, \"!authorized\");\n        _;\n    }\n\n    modifier onlyOwner() {\n        require(msg.sender == deployer, \"!authorized\");\n        _;\n    }\n\n    modifier notAnyone() {\n        require(\n            (students[msg.sender].id == 0 && instructors[msg.sender].id == 0),\n            \"!authorized\"\n        );\n        _;\n    }\n\n    // ========== events ========== //\n    event CourseCompletion(address student, uint courseId);\n    event CertificateIssued(address student, uint courseId);\n    event CoursePurchased(address intructor, address student, uint courseId);\n    event CourseRejected(address student, uint courseId, uint sectionsViewed);\n\n    // ========== test =========== //\n    function addTestCategories() private {\n        addCategory(\n            \"Web Development\",\n            \"/images/categories/web-development.webp\"\n        );\n        addCategory(\"Cooking\", \"/images/categories/cooking.webp\");\n        addCategory(\"UI/UX Designing\", \"/images/categories/ui-ux.webp\");\n        addCategory(\"3D Animation\", \"/images/categories/animation.webp\");\n        addCategory(\"Illustration\", \"/images/categories/illustration.webp\");\n        addCategory(\"Data Science\", \"/images/categories/data-science.webp\");\n        addCategory(\"Speaking\", \"/images/categories/speaking.webp\");\n        addCategory(\"Music\", \"/images/categories/music.webp\");\n        addCategory(\"Photography\", \"/images/categories/photography.webp\");\n        addCategory(\"Marketing\", \"/images/categories/marketing.webp\");\n    }\n}\n",
  "sourcePath": "C:\\Users\\Arogundade Ibrahim\\Documents\\web3\\Buidl\\contracts\\Buidl.sol",
  "compiler": {
    "name": "solc",
    "version": "0.8.17+commit.8df45f5f.Emscripten.clang"
  },
  "schemaVersion": "3.4.10",
  "updatedAt": "2022-10-21T09:29:58.446Z",
  "devdoc": {
    "kind": "dev",
    "methods": {},
    "version": 1
  },
  "userdoc": {
    "kind": "user",
    "methods": {},
    "version": 1
  }
}