{
  "contractName": "Buidl",
  "abi": [
    {
      "inputs": [
        {
          "internalType": "address",
          "name": "bdlToken",
          "type": "address"
        },
        {
          "internalType": "address",
          "name": "bdlNft",
          "type": "address"
        },
        {
          "internalType": "address",
          "name": "bdlCertificate",
          "type": "address"
        },
        {
          "internalType": "address",
          "name": "bdlCourse",
          "type": "address"
        },
        {
          "internalType": "address",
          "name": "staking",
          "type": "address"
        },
        {
          "internalType": "address",
          "name": "gateway_",
          "type": "address"
        }
      ],
      "stateMutability": "nonpayable",
      "type": "constructor"
    },
    {
      "inputs": [],
      "name": "InvalidAddress",
      "type": "error"
    },
    {
      "inputs": [],
      "name": "NotApprovedByGateway",
      "type": "error"
    },
    {
      "anonymous": false,
      "inputs": [
        {
          "indexed": false,
          "internalType": "address",
          "name": "owner",
          "type": "address"
        },
        {
          "indexed": false,
          "internalType": "bool",
          "name": "verified",
          "type": "bool"
        }
      ],
      "name": "Creator",
      "type": "event"
    },
    {
      "anonymous": false,
      "inputs": [
        {
          "indexed": false,
          "internalType": "address",
          "name": "owner",
          "type": "address"
        },
        {
          "indexed": false,
          "internalType": "string",
          "name": "name",
          "type": "string"
        },
        {
          "indexed": false,
          "internalType": "string",
          "name": "photo",
          "type": "string"
        },
        {
          "indexed": false,
          "internalType": "bool",
          "name": "verified",
          "type": "bool"
        }
      ],
      "name": "User",
      "type": "event"
    },
    {
      "inputs": [
        {
          "internalType": "bytes32",
          "name": "commandId",
          "type": "bytes32"
        },
        {
          "internalType": "string",
          "name": "sourceChain",
          "type": "string"
        },
        {
          "internalType": "string",
          "name": "sourceAddress",
          "type": "string"
        },
        {
          "internalType": "bytes",
          "name": "payload",
          "type": "bytes"
        }
      ],
      "name": "execute",
      "outputs": [],
      "stateMutability": "nonpayable",
      "type": "function"
    },
    {
      "inputs": [
        {
          "internalType": "bytes32",
          "name": "commandId",
          "type": "bytes32"
        },
        {
          "internalType": "string",
          "name": "sourceChain",
          "type": "string"
        },
        {
          "internalType": "string",
          "name": "sourceAddress",
          "type": "string"
        },
        {
          "internalType": "bytes",
          "name": "payload",
          "type": "bytes"
        },
        {
          "internalType": "string",
          "name": "tokenSymbol",
          "type": "string"
        },
        {
          "internalType": "uint256",
          "name": "amount",
          "type": "uint256"
        }
      ],
      "name": "executeWithToken",
      "outputs": [],
      "stateMutability": "nonpayable",
      "type": "function"
    },
    {
      "inputs": [],
      "name": "gateway",
      "outputs": [
        {
          "internalType": "contract IAxelarGateway",
          "name": "",
          "type": "address"
        }
      ],
      "stateMutability": "view",
      "type": "function"
    },
    {
      "inputs": [
        {
          "internalType": "address",
          "name": "",
          "type": "address"
        }
      ],
      "name": "revenues",
      "outputs": [
        {
          "internalType": "uint256",
          "name": "unclaimed",
          "type": "uint256"
        },
        {
          "internalType": "uint256",
          "name": "claimable",
          "type": "uint256"
        },
        {
          "internalType": "uint256",
          "name": "claimed",
          "type": "uint256"
        }
      ],
      "stateMutability": "view",
      "type": "function"
    },
    {
      "inputs": [
        {
          "internalType": "address",
          "name": "",
          "type": "address"
        }
      ],
      "name": "users",
      "outputs": [
        {
          "internalType": "uint256",
          "name": "id",
          "type": "uint256"
        },
        {
          "internalType": "bool",
          "name": "verified",
          "type": "bool"
        },
        {
          "internalType": "string",
          "name": "photo",
          "type": "string"
        },
        {
          "internalType": "uint256",
          "name": "createdAt",
          "type": "uint256"
        }
      ],
      "stateMutability": "view",
      "type": "function"
    },
    {
      "inputs": [
        {
          "internalType": "string",
          "name": "name",
          "type": "string"
        },
        {
          "internalType": "string",
          "name": "photo",
          "type": "string"
        }
      ],
      "name": "setAccount",
      "outputs": [],
      "stateMutability": "nonpayable",
      "type": "function"
    },
    {
      "inputs": [
        {
          "internalType": "uint256",
          "name": "amount",
          "type": "uint256"
        }
      ],
      "name": "stake",
      "outputs": [],
      "stateMutability": "nonpayable",
      "type": "function"
    },
    {
      "inputs": [],
      "name": "unlockCreator",
      "outputs": [],
      "stateMutability": "nonpayable",
      "type": "function"
    },
    {
      "inputs": [],
      "name": "removeCreator",
      "outputs": [],
      "stateMutability": "nonpayable",
      "type": "function"
    },
    {
      "inputs": [
        {
          "internalType": "uint256",
          "name": "id",
          "type": "uint256"
        },
        {
          "internalType": "uint256",
          "name": "nftId",
          "type": "uint256"
        },
        {
          "internalType": "uint256",
          "name": "discount",
          "type": "uint256"
        }
      ],
      "name": "subscribe",
      "outputs": [],
      "stateMutability": "nonpayable",
      "type": "function"
    },
    {
      "inputs": [
        {
          "internalType": "uint256",
          "name": "id",
          "type": "uint256"
        }
      ],
      "name": "unSubscribe",
      "outputs": [],
      "stateMutability": "nonpayable",
      "type": "function"
    },
    {
      "inputs": [
        {
          "internalType": "uint256",
          "name": "amount",
          "type": "uint256"
        }
      ],
      "name": "withdrawPlatformFee",
      "outputs": [],
      "stateMutability": "nonpayable",
      "type": "function"
    },
    {
      "inputs": [
        {
          "internalType": "uint256",
          "name": "id",
          "type": "uint256"
        },
        {
          "internalType": "string",
          "name": "certificateUri",
          "type": "string"
        }
      ],
      "name": "onCourseComplete",
      "outputs": [],
      "stateMutability": "nonpayable",
      "type": "function"
    }
  ],
  "bytecode": "0x60c060405260008055600a600155686c6b935b8bbd4000006007556301e1338060085560006009553480156200003457600080fd5b5060405162001e5b38038062001e5b83398101604081905262000057916200010b565b806001600160a01b038116620000805760405163e6c4247b60e01b815260040160405180910390fd5b6001600160a01b039081166080523360a052600280549682166001600160a01b0319978816179055600380549782169787169790971790965550600480549386169385169390931790925560058054918516918416919091179055600680549190931691161790556200018c565b80516001600160a01b03811681146200010657600080fd5b919050565b60008060008060008060c087890312156200012557600080fd5b6200013087620000ee565b95506200014060208801620000ee565b94506200015060408801620000ee565b93506200016060608801620000ee565b92506200017060808801620000ee565b91506200018060a08801620000ee565b90509295509295509295565b60805160a051611c95620001c660003960008181610c640152610d4201526000818160e901528181610289015261051b0152611c956000f3fe608060405234801561001057600080fd5b50600436106100df5760003560e01c80637f26fc7d1161008c578063a87430ba11610066578063a87430ba146101ee578063c193b2e414610211578063d8d6bfde14610219578063dde7c1901461022c57600080fd5b80637f26fc7d146101c057806390bf70b0146101c8578063a694fc3a146101db57600080fd5b806349160658116100bd57806349160658146101505780636c9eb7741461016357806378ae98c81461017657600080fd5b8063116191b6146100e45780631a98b2e0146101285780632796b0301461013d575b600080fd5b61010b7f000000000000000000000000000000000000000000000000000000000000000081565b6040516001600160a01b0390911681526020015b60405180910390f35b61013b61013636600461144b565b61023f565b005b61013b61014b366004611525565b61033b565b61013b61015e36600461153e565b6104d1565b61013b6101713660046115e2565b6105d2565b6101a5610184366004611626565b600b6020526000908152604090208054600182015460029092015490919083565b6040805193845260208401929092529082015260600161011f565b61013b6105e3565b61013b6101d636600461170f565b61068f565b61013b6101e9366004611525565b6106e9565b6102016101fc366004611626565b61087d565b60405161011f94939291906117c3565b61013b610932565b61013b6102273660046117f5565b610ab2565b61013b61023a366004611525565b610c59565b60008585604051610251929190611832565b6040519081900381207f1876eed900000000000000000000000000000000000000000000000000000000825291506001600160a01b037f00000000000000000000000000000000000000000000000000000000000000001690631876eed9906102ce908e908e908e908e908e9089908d908d908d9060040161186b565b6020604051808303816000875af11580156102ed573d6000803e3d6000fd5b505050506040513d601f19601f8201168201806040525081019061031191906118df565b61032e57604051631403112d60e21b815260040160405180910390fd5b5050505050505050505050565b6005546040517ff30e6e9b0000000000000000000000000000000000000000000000000000000081526004810183905233602482015260009182918291829182916001600160a01b03169063f30e6e9b9060440160a0604051808303816000875af11580156103ae573d6000803e3d6000fd5b505050506040513d601f19601f820116820180604052508101906103d291906118fa565b60035460405163a9059cbb60e01b815233600482015260248101879052959a50939850919650945092506001600160a01b03169063a9059cbb906044016020604051808303816000875af115801561042e573d6000803e3d6000fd5b505050506040513d601f19601f8201168201806040525081019061045291906118df565b506001600160a01b0383166000908152600b60205260408120805484929061047b90849061195a565b90915550506001600160a01b0383166000908152600b6020526040812060010180548692906104ab908490611973565b9250508190555080600960008282546104c49190611973565b9091555050505050505050565b600082826040516104e3929190611832565b6040519081900381207f5f6970c300000000000000000000000000000000000000000000000000000000825291506001600160a01b037f00000000000000000000000000000000000000000000000000000000000000001690635f6970c39061055a908b908b908b908b908b908990600401611986565b6020604051808303816000875af1158015610579573d6000803e3d6000fd5b505050506040513d601f19601f8201168201806040525081019061059d91906118df565b6105ba57604051631403112d60e21b815260040160405180910390fd5b6105c8878787878787610dc3565b5050505050505050565b6105de83838333610eaa565b505050565b336000908152600a602052604090206001015460ff166106385760405162461bcd60e51b815260206004820152600b60248201526a08585d5d1a1bdc9a5e995960aa1b60448201526064015b60405180910390fd5b336000818152600a60209081526040808320600101805460ff191690558051938452908301919091527fb5763ba23a8384e26e9f2f5bfcd8e3795e4248ce7bb99a61c9ee6488d352a5b191015b60405180910390a1565b336000818152600a6020526040908190206001015490517f2d3804f6670a9e165ddef24bb7f7345753423a96b66b32c302cfefcda19ad467926106dd9290918691869160ff909116906119c7565b60405180910390a15050565b60035460405163e1f21c6760e01b8152336004820152306024820152604481018390526001600160a01b039091169063e1f21c6790606401600060405180830381600087803b15801561073b57600080fd5b505af115801561074f573d6000803e3d6000fd5b50506003546040516323b872dd60e01b8152336004820152306024820152604481018590526001600160a01b0390911692506323b872dd91506064016020604051808303816000875af11580156107aa573d6000803e3d6000fd5b505050506040513d601f19601f820116820180604052508101906107ce91906118df565b506006546008546001600160a01b039091169063ab84bb7890339084906107f59042611973565b6040517fffffffff0000000000000000000000000000000000000000000000000000000060e086901b1681526001600160a01b0390931660048401526024830191909152604482015260006064820152608401600060405180830381600087803b15801561086257600080fd5b505af1158015610876573d6000803e3d6000fd5b5050505050565b600a60205260009081526040902080546001820154600283018054929360ff909216926108a990611a0f565b80601f01602080910402602001604051908101604052809291908181526020018280546108d590611a0f565b80156109225780601f106108f757610100808354040283529160200191610922565b820191906000526020600020905b81548152906001019060200180831161090557829003601f168201915b5050505050908060040154905084565b336000908152600a602052604090206001015460ff16156109835760405162461bcd60e51b815260206004820152600b60248201526a08585d5d1a1bdc9a5e995960aa1b604482015260640161062f565b6006546007546040517fde36071500000000000000000000000000000000000000000000000000000000815260048101919091523360248201526001600160a01b039091169063de36071590604401602060405180830381865afa1580156109ef573d6000803e3d6000fd5b505050506040513d601f19601f82011682018060405250810190610a1391906118df565b610a5f5760405162461bcd60e51b815260206004820152601860248201527f217374616b655f726571756972656d656e745f66697273740000000000000000604482015260640161062f565b336000818152600a60209081526040918290206001908101805460ff1916821790558251938452908301527fb5763ba23a8384e26e9f2f5bfcd8e3795e4248ce7bb99a61c9ee6488d352a5b19101610685565b6005546040517f0172a3430000000000000000000000000000000000000000000000000000000081526004810184905233602482015260009182916001600160a01b0390911690630172a343906044016040805180830381865afa158015610b1e573d6000803e3d6000fd5b505050506040513d601f19601f82011682018060405250810190610b429190611a49565b915091508115610bc957600480546040517f04b444d90000000000000000000000000000000000000000000000000000000081526001600160a01b03909116916304b444d991610b96913391889101611a75565b600060405180830381600087803b158015610bb057600080fd5b505af1158015610bc4573d6000803e3d6000fd5b505050505b6000610bd4826111a9565b6002546040517fd0def5210000000000000000000000000000000000000000000000000000000081529192506001600160a01b03169063d0def52190610c209033908590600401611a75565b600060405180830381600087803b158015610c3a57600080fd5b505af1158015610c4e573d6000803e3d6000fd5b505050505050505050565b336001600160a01b037f00000000000000000000000000000000000000000000000000000000000000001614610cbf5760405162461bcd60e51b815260206004820152600b60248201526a08585d5d1a1bdc9a5e995960aa1b604482015260640161062f565b806009541015610d115760405162461bcd60e51b815260206004820152601360248201527f696e73756669636369656e7420746f6b656e7300000000000000000000000000604482015260640161062f565b8060096000828254610d23919061195a565b909155505060035460405163a9059cbb60e01b81526001600160a01b037f000000000000000000000000000000000000000000000000000000000000000081166004830152602482018490529091169063a9059cbb906044016020604051808303816000875af1158015610d9b573d6000803e3d6000fd5b505050506040513d601f19601f82011682018060405250810190610dbf91906118df565b5050565b600080549080610dd283611a9f565b919050555060008073__Message_______________________________63ba43ec8685856040518363ffffffff1660e01b8152600401610e13929190611ab8565b600060405180830381865af4158015610e30573d6000803e3d6000fd5b505050506040513d6000823e601f3d908101601f19168201604052610e589190810190611afc565b9092509050600082600a811115610e7157610e71611b5b565b036105c85760008082806020019051810190610e8d9190611b71565b91509150610e9e8260008084610eaa565b50505050505050505050565b6005546040517f59e6951d000000000000000000000000000000000000000000000000000000008152600481018690526001600160a01b03838116602483015260009283929116906359e6951d9060440160408051808303816000875af1158015610f19573d6000803e3d6000fd5b505050506040513d601f19601f82011682018060405250810190610f3d9190611b71565b6001600160a01b0381166000908152600b6020526040812080549395509193508492610f6a908490611973565b9091555082905085156110c4576002546040517f6352211e0000000000000000000000000000000000000000000000000000000081526004810188905233916001600160a01b031690636352211e90602401602060405180830381865afa158015610fd9573d6000803e3d6000fd5b505050506040513d601f19601f82011682018060405250810190610ffd9190611ba1565b6001600160a01b0316146110415760405162461bcd60e51b815260206004820152600b60248201526a08585d5d1a1bdc9a5e995960aa1b604482015260640161062f565b61104b858461195a565b6002546040517f42966c68000000000000000000000000000000000000000000000000000000008152600481018990529192506001600160a01b0316906342966c6890602401600060405180830381600087803b1580156110ab57600080fd5b505af11580156110bf573d6000803e3d6000fd5b505050505b60035460405163e1f21c6760e01b8152336004820152306024820152604481018390526001600160a01b039091169063e1f21c6790606401600060405180830381600087803b15801561111657600080fd5b505af115801561112a573d6000803e3d6000fd5b50506003546040516323b872dd60e01b8152336004820152306024820152604481018590526001600160a01b0390911692506323b872dd91506064016020604051808303816000875af1158015611185573d6000803e3d6000fd5b505050506040513d601f19601f820116820180604052508101906105c891906118df565b60606000604051602001611336907f7b226e616d65223a20224d72204d6f6e6b65790000000000000000000000000081527f222c2022696d616765223a202268747470733a2f2f627569646c2e6e65746c6960138201527f66792e6170702f696d616765732f6e6674322e6a7067222c202264657363726960338201527f7074696f6e223a202254686973206973204e46542069732061206d6f6e6b657960538201527f204e465420666f7220427569646c20636f75706f6e222c20226174747269627560738201527f746573223a00000000000000000000000000000000000000000000000000000060938201527f5b7b22646973706c61795f74797065223a22626f6f73745f6e756d626572222c60988201527f2274726169745f74797065223a2250657263656e74616765222c2276616c756560b88201527f223a2234227d5d0000000000000000000000000000000000000000000000000060d88201527f7d0000000000000000000000000000000000000000000000000000000000000060df82015260e00190565b60408051601f19818403018152908290527fdaa68c21000000000000000000000000000000000000000000000000000000008252915073__Base64________________________________9063daa68c2190611396908490600401611bbe565b600060405180830381865af41580156113b3573d6000803e3d6000fd5b505050506040513d6000823e601f3d908101601f191682016040526113db9190810190611bd1565b6040516020016113eb9190611c1a565b604051602081830303815290604052915050919050565b60008083601f84011261141457600080fd5b50813567ffffffffffffffff81111561142c57600080fd5b60208301915083602082850101111561144457600080fd5b9250929050565b60008060008060008060008060008060c08b8d03121561146a57600080fd5b8a35995060208b013567ffffffffffffffff8082111561148957600080fd5b6114958e838f01611402565b909b50995060408d01359150808211156114ae57600080fd5b6114ba8e838f01611402565b909950975060608d01359150808211156114d357600080fd5b6114df8e838f01611402565b909750955060808d01359150808211156114f857600080fd5b506115058d828e01611402565b9150809450508092505060a08b013590509295989b9194979a5092959850565b60006020828403121561153757600080fd5b5035919050565b60008060008060008060006080888a03121561155957600080fd5b87359650602088013567ffffffffffffffff8082111561157857600080fd5b6115848b838c01611402565b909850965060408a013591508082111561159d57600080fd5b6115a98b838c01611402565b909650945060608a01359150808211156115c257600080fd5b506115cf8a828b01611402565b989b979a50959850939692959293505050565b6000806000606084860312156115f757600080fd5b505081359360208301359350604090920135919050565b6001600160a01b038116811461162357600080fd5b50565b60006020828403121561163857600080fd5b81356116438161160e565b9392505050565b634e487b7160e01b600052604160045260246000fd5b604051601f8201601f1916810167ffffffffffffffff811182821017156116895761168961164a565b604052919050565b600067ffffffffffffffff8211156116ab576116ab61164a565b50601f01601f191660200190565b600082601f8301126116ca57600080fd5b81356116dd6116d882611691565b611660565b8181528460208386010111156116f257600080fd5b816020850160208301376000918101602001919091529392505050565b6000806040838503121561172257600080fd5b823567ffffffffffffffff8082111561173a57600080fd5b611746868387016116b9565b9350602085013591508082111561175c57600080fd5b50611769858286016116b9565b9150509250929050565b60005b8381101561178e578181015183820152602001611776565b50506000910152565b600081518084526117af816020860160208601611773565b601f01601f19169290920160200192915050565b84815283151560208201526080604082015260006117e46080830185611797565b905082606083015295945050505050565b6000806040838503121561180857600080fd5b82359150602083013567ffffffffffffffff81111561182657600080fd5b611769858286016116b9565b8183823760009101908152919050565b81835281816020850137506000828201602090810191909152601f909101601f19169091010190565b89815260c06020820152600061188560c083018a8c611842565b828103604084015261189881898b611842565b905086606084015282810360808401526118b3818688611842565b9150508260a08301529a9950505050505050505050565b805180151581146118da57600080fd5b919050565b6000602082840312156118f157600080fd5b611643826118ca565b600080600080600060a0868803121561191257600080fd5b8551945060208601519350604086015161192b8161160e565b6060870151608090970151959894975095949392505050565b634e487b7160e01b600052601160045260246000fd5b8181038181111561196d5761196d611944565b92915050565b8082018082111561196d5761196d611944565b8681526080602082015260006119a0608083018789611842565b82810360408401526119b3818688611842565b915050826060830152979650505050505050565b6001600160a01b03851681526080602082015260006119e96080830186611797565b82810360408401526119fb8186611797565b915050821515606083015295945050505050565b600181811c90821680611a2357607f821691505b602082108103611a4357634e487b7160e01b600052602260045260246000fd5b50919050565b60008060408385031215611a5c57600080fd5b611a65836118ca565b9150602083015190509250929050565b6001600160a01b0383168152604060208201526000611a976040830184611797565b949350505050565b600060018201611ab157611ab1611944565b5060010190565b602081526000611a97602083018486611842565b6000611ada6116d884611691565b9050828152838383011115611aee57600080fd5b611643836020830184611773565b60008060408385031215611b0f57600080fd5b8251600b8110611b1e57600080fd5b602084015190925067ffffffffffffffff811115611b3b57600080fd5b8301601f81018513611b4c57600080fd5b61176985825160208401611acc565b634e487b7160e01b600052602160045260246000fd5b60008060408385031215611b8457600080fd5b825191506020830151611b968161160e565b809150509250929050565b600060208284031215611bb357600080fd5b81516116438161160e565b6020815260006116436020830184611797565b600060208284031215611be357600080fd5b815167ffffffffffffffff811115611bfa57600080fd5b8201601f81018413611c0b57600080fd5b611a9784825160208401611acc565b7f646174613a6170706c69636174696f6e2f6a736f6e3b6261736536342c000000815260008251611c5281601d850160208701611773565b91909101601d019291505056fea26469706673582212205141dcc6e6d3eb8bb3221ced44f09482828a8bc68d83a4decfca4b8e9505c54b64736f6c63430008100033",
  "immutableReferences": {
    "241": [
      {
        "length": 32,
        "start": 233
      },
      {
        "length": 32,
        "start": 649
      },
      {
        "length": 32,
        "start": 1307
      }
    ],
    "5251": [
      {
        "length": 32,
        "start": 3172
      },
      {
        "length": 32,
        "start": 3394
      }
    ]
  },
  "source": "// SPDX-License-Identifier: GPL-3.0\npragma solidity >=0.7.0 <0.9.0;\n\nimport {BdlNft} from \"./BdlNft.sol\";\nimport {BdlCertificate} from \"./BdlCertificate.sol\";\nimport {BdlToken} from \"./BdlToken.sol\";\nimport {BdlCourse} from \"./BdlCourse.sol\";\nimport {Staking} from \"./Staking.sol\";\n\nimport {Models} from \"./../base/Models.sol\";\nimport {Base64} from \"./../base/Base64.sol\";\nimport {Message} from \"./../axelar/Message.sol\";\n\nimport {AxelarExecutable} from \"@axelar-network/axelar-gmp-sdk-solidity/contracts/executables/AxelarExecutable.sol\";\n\ncontract Buidl is AxelarExecutable {\n    uint testCount = 0;\n\n    address private immutable deployer;\n\n    /* fee charged on every succesful subscription made */\n    uint256 private subscriptionFee = 10; // percentage rate\n\n    BdlNft private _bdlNft; // nft reward (coupon) contract\n    BdlToken private _bdlToken; // erc20(streamable token) contract\n    BdlCertificate private _bdlCertificate; // erc4973 certificate contract\n    BdlCourse private _bdlCourse; // course contract\n    Staking private _staking; // staking contract\n\n    // creators requirement\n    // these requirement helps us to filter fuds\n    // and abuse of the ecosystem\n    uint256 private creatorStakingFee = 2000 * 10**18;\n    uint256 private creatorStakingDuration = 365 days;\n\n    // earnings made on the platform so far\n    uint256 private platformEarnings = 0;\n\n    // ecosystem users\n    mapping(address => Models.User) public users;\n    mapping(address => Models.Revenue) public revenues;\n\n    // contructor\n    constructor(\n        address bdlToken,\n        address bdlNft,\n        address bdlCertificate,\n        address bdlCourse,\n        address staking,\n        address gateway_\n    ) AxelarExecutable(gateway_) {\n        deployer = msg.sender;\n\n        _bdlNft = BdlNft(bdlNft);\n        _bdlToken = BdlToken(bdlToken);\n        _bdlCertificate = BdlCertificate(bdlCertificate);\n        _bdlCourse = BdlCourse(bdlCourse);\n        _staking = Staking(staking);\n    }\n\n    /* creates user metadata */\n    function setAccount(string memory name, string memory photo) public {\n        emit User(msg.sender, name, photo, users[msg.sender].verified);\n    }\n\n    /* stake in the smart contract */\n    function stake(uint256 amount) public {\n        _bdlToken.approve(msg.sender, address(this), amount);\n        _bdlToken.transferFrom(msg.sender, address(this), amount);\n        _staking.stake(\n            msg.sender,\n            amount,\n            block.timestamp + creatorStakingDuration,\n            0\n        );\n    }\n\n    /* unlock creator */\n    function unlockCreator() public notVerified {\n        // check if user has staked min requirement\n        require(\n            _staking.hasStaked(creatorStakingFee, msg.sender),\n            \"!stake_requirement_first\"\n        );\n\n        users[msg.sender].verified = true;\n        emit Creator(msg.sender, true);\n    }\n\n    /* remove creator */\n    function removeCreator() public onlyVerified {\n        users[msg.sender].verified = false;\n        emit Creator(msg.sender, false);\n    }\n\n    /* subscribe to a course */\n    /* params course id */\n    function subscribe(\n        uint id,\n        uint nftId,\n        uint256 discount\n    ) public {\n        _subscribe(id, nftId, discount, msg.sender);\n    }\n\n    /* subscribe to a course */\n    /* params course id */\n    function unSubscribe(uint id) public {\n        (\n            uint256 payableAmount,\n            uint256 earnings,\n            address creator,\n            uint256 price,\n            uint256 _platformEarnings\n        ) = _bdlCourse.unSubscribe(id, msg.sender);\n\n        // refund the user from the contract\n        _bdlToken.transfer(msg.sender, payableAmount);\n\n        // deduct creator's unclaimed revenue\n        revenues[creator].unclaimed -= price;\n\n        // credit creator earnings from the refunded course\n        revenues[creator].claimable += earnings;\n\n        // credit platform from the refunded course\n        platformEarnings += _platformEarnings;\n    }\n\n    /* deployer to cashout earnings */\n    function withdrawPlatformFee(uint256 amount) public onlyDeployer {\n        require(platformEarnings >= amount, \"insuficcient tokens\");\n        platformEarnings -= amount;\n        _bdlToken.transfer(deployer, amount);\n    }\n\n    function onCourseComplete(uint id, string memory certificateUri) public {\n        (bool isCertificate, uint256 coursePrice) = _bdlCourse.onCourseComplete(\n            id,\n            msg.sender\n        );\n\n        if (isCertificate) {\n            /* issue certificate to subscriber */\n            _bdlCertificate.issue(msg.sender, certificateUri);\n        }\n\n        /* generate a random nft based on price as reward to subscriber */\n        string memory nftUri = generateNftMetadata(coursePrice);\n\n        /* mint the nft */\n        _bdlNft.mint(msg.sender, nftUri);\n    }\n\n    function generateNftMetadata(uint coursePrice)\n        private\n        pure\n        returns (string memory)\n    {\n        string memory metadata = string(\n            abi.encodePacked(\n                '{\"name\": \"Mr Monkey',\n                '\", \"image\": \"https://buidl.netlify.app/images/nft2.jpg\", \"description\": \"This is NFT is a monkey NFT for Buidl coupon\", \"attributes\":',\n                '[{\"display_type\":\"boost_number\",\"trait_type\":\"Percentage\",\"value\":\"4\"}]',\n                \"}\"\n            )\n        );\n\n        return\n            string(\n                abi.encodePacked(\n                    \"data:application/json;base64,\",\n                    Base64.base64(bytes(metadata))\n                )\n            );\n    }\n\n    // ========== CORE IMPLEMENTIONS\n\n    /* subscribe to a course */\n    /* params course id */\n    function _subscribe(\n        uint id,\n        uint nftId,\n        uint256 discount,\n        address subscriber\n    ) private {\n        (uint256 price, address creator) = _bdlCourse.subscribe(id, subscriber);\n\n        /* payment are locked in the smart contract */\n        /* the course creator will be able to claim it after two weeks */\n        /* if the course wasn't refunded by the subscriber */\n\n        /* increase creator's unclaimed revenue */\n        revenues[creator].unclaimed += price;\n\n        uint256 priceCharge = price;\n        if (nftId > 0) {\n            // coupon detected\n            require(_bdlNft.ownerOf(nftId) == msg.sender, \"!authorized\");\n            priceCharge = price - discount;\n            _bdlNft.burn(nftId);\n        }\n\n        _bdlToken.approve(msg.sender, address(this), priceCharge);\n        _bdlToken.transferFrom(msg.sender, address(this), priceCharge);\n    }\n\n    // ========== AXELAR\n\n    /* Axelar message reciever function */\n    function _execute(\n        string calldata, /* sourceChain */\n        string calldata, /* sourceAddress */\n        bytes calldata payload\n    ) internal override {\n        //  require(sourceAddress.toAddress() == _sourceAddress, '!unathorized');\n\n        testCount++;\n\n        (Message.Title messageTitle, bytes memory _payload) = Message\n            .unPackMessage(payload);\n\n        /* message is a subscribe call */\n        if (messageTitle == Message.Title.SUBSCRIBE) {\n            (uint courseId, address subscriber) = abi.decode(\n                _payload,\n                (uint, address)\n            );\n\n            _subscribe(courseId, 0, 0, subscriber);\n        }\n    }\n\n    modifier onlyVerified() {\n        /* only account that has staked atleast 2000 BDL token */\n        require(users[msg.sender].verified, \"!authorized\");\n        _;\n    }\n\n    modifier notVerified() {\n        /* only account that hasn't staked atleast 2000 BDL token */\n        require(!users[msg.sender].verified, \"!authorized\");\n        _;\n    }\n\n    modifier onlyDeployer() {\n        /* only account that deployed the contract */\n        require(msg.sender == deployer, \"!authorized\");\n        _;\n    }\n\n    // == events == //\n    event User(address owner, string name, string photo, bool verified);\n    event Creator(address owner, bool verified);\n}\n",
  "sourcePath": "C:\\Users\\Arogundade Ibrahim\\Documents\\web3\\Buidl\\contracts\\buidl\\Buidl.sol",
  "compiler": {
    "name": "solc",
    "version": "0.8.16+commit.07a7930e.Emscripten.clang"
  },
  "schemaVersion": "3.4.10",
  "updatedAt": "2022-11-07T20:36:46.551Z",
  "devdoc": {
    "kind": "dev",
    "methods": {},
    "version": 1
  },
  "userdoc": {
    "kind": "user",
    "methods": {},
    "version": 1
  }
}