{
  "contractName": "Buidl",
  "abi": [
    {
      "inputs": [
        {
          "internalType": "address",
          "name": "_bdlToken",
          "type": "address"
        },
        {
          "internalType": "address",
          "name": "_bdlNft",
          "type": "address"
        },
        {
          "internalType": "address",
          "name": "_bdlCertificate",
          "type": "address"
        }
      ],
      "stateMutability": "nonpayable",
      "type": "constructor"
    },
    {
      "anonymous": false,
      "inputs": [
        {
          "indexed": false,
          "internalType": "address",
          "name": "student",
          "type": "address"
        },
        {
          "indexed": false,
          "internalType": "uint256",
          "name": "courseId",
          "type": "uint256"
        }
      ],
      "name": "CertificateIssued",
      "type": "event"
    },
    {
      "anonymous": false,
      "inputs": [
        {
          "indexed": false,
          "internalType": "address",
          "name": "student",
          "type": "address"
        },
        {
          "indexed": false,
          "internalType": "uint256",
          "name": "courseId",
          "type": "uint256"
        }
      ],
      "name": "CourseCompletion",
      "type": "event"
    },
    {
      "anonymous": false,
      "inputs": [
        {
          "indexed": false,
          "internalType": "address",
          "name": "intructor",
          "type": "address"
        },
        {
          "indexed": false,
          "internalType": "address",
          "name": "student",
          "type": "address"
        },
        {
          "indexed": false,
          "internalType": "uint256",
          "name": "courseId",
          "type": "uint256"
        }
      ],
      "name": "CoursePurchased",
      "type": "event"
    },
    {
      "anonymous": false,
      "inputs": [
        {
          "indexed": false,
          "internalType": "address",
          "name": "student",
          "type": "address"
        },
        {
          "indexed": false,
          "internalType": "uint256",
          "name": "courseId",
          "type": "uint256"
        },
        {
          "indexed": false,
          "internalType": "uint256",
          "name": "sectionsViewed",
          "type": "uint256"
        }
      ],
      "name": "CourseRejected",
      "type": "event"
    },
    {
      "inputs": [
        {
          "internalType": "uint256",
          "name": "",
          "type": "uint256"
        }
      ],
      "name": "categories",
      "outputs": [
        {
          "internalType": "uint256",
          "name": "id",
          "type": "uint256"
        },
        {
          "internalType": "string",
          "name": "name",
          "type": "string"
        },
        {
          "internalType": "string",
          "name": "image",
          "type": "string"
        }
      ],
      "stateMutability": "view",
      "type": "function",
      "constant": true
    },
    {
      "inputs": [],
      "name": "contractCategoryID",
      "outputs": [
        {
          "internalType": "uint256",
          "name": "",
          "type": "uint256"
        }
      ],
      "stateMutability": "view",
      "type": "function",
      "constant": true
    },
    {
      "inputs": [],
      "name": "contractCourseID",
      "outputs": [
        {
          "internalType": "uint256",
          "name": "",
          "type": "uint256"
        }
      ],
      "stateMutability": "view",
      "type": "function",
      "constant": true
    },
    {
      "inputs": [],
      "name": "contractInstructorID",
      "outputs": [
        {
          "internalType": "uint256",
          "name": "",
          "type": "uint256"
        }
      ],
      "stateMutability": "view",
      "type": "function",
      "constant": true
    },
    {
      "inputs": [],
      "name": "contractStudentID",
      "outputs": [
        {
          "internalType": "uint256",
          "name": "",
          "type": "uint256"
        }
      ],
      "stateMutability": "view",
      "type": "function",
      "constant": true
    },
    {
      "inputs": [
        {
          "internalType": "uint256",
          "name": "",
          "type": "uint256"
        }
      ],
      "name": "courses",
      "outputs": [
        {
          "internalType": "uint256",
          "name": "id",
          "type": "uint256"
        },
        {
          "internalType": "string",
          "name": "name",
          "type": "string"
        },
        {
          "internalType": "string",
          "name": "description",
          "type": "string"
        },
        {
          "internalType": "uint256",
          "name": "categoryId",
          "type": "uint256"
        },
        {
          "internalType": "string",
          "name": "ipfsPhoto",
          "type": "string"
        },
        {
          "internalType": "address",
          "name": "instructor",
          "type": "address"
        },
        {
          "internalType": "uint256",
          "name": "price",
          "type": "uint256"
        },
        {
          "internalType": "string",
          "name": "metadata",
          "type": "string"
        },
        {
          "internalType": "bool",
          "name": "isPublished",
          "type": "bool"
        },
        {
          "internalType": "uint256",
          "name": "createdAt",
          "type": "uint256"
        },
        {
          "internalType": "uint256",
          "name": "updatedAt",
          "type": "uint256"
        }
      ],
      "stateMutability": "view",
      "type": "function",
      "constant": true
    },
    {
      "inputs": [
        {
          "internalType": "address",
          "name": "",
          "type": "address"
        }
      ],
      "name": "instructors",
      "outputs": [
        {
          "internalType": "uint256",
          "name": "id",
          "type": "uint256"
        },
        {
          "internalType": "string",
          "name": "firstName",
          "type": "string"
        },
        {
          "internalType": "string",
          "name": "lastName",
          "type": "string"
        },
        {
          "internalType": "string",
          "name": "location",
          "type": "string"
        },
        {
          "internalType": "uint256",
          "name": "gender",
          "type": "uint256"
        },
        {
          "internalType": "bool",
          "name": "isVerified",
          "type": "bool"
        },
        {
          "internalType": "string",
          "name": "ipfsPhoto",
          "type": "string"
        },
        {
          "internalType": "string",
          "name": "twitter",
          "type": "string"
        },
        {
          "internalType": "string",
          "name": "linkedin",
          "type": "string"
        },
        {
          "internalType": "uint256",
          "name": "createdAt",
          "type": "uint256"
        }
      ],
      "stateMutability": "view",
      "type": "function",
      "constant": true
    },
    {
      "inputs": [
        {
          "internalType": "address",
          "name": "",
          "type": "address"
        },
        {
          "internalType": "uint256",
          "name": "",
          "type": "uint256"
        }
      ],
      "name": "studentCourses",
      "outputs": [
        {
          "internalType": "uint256",
          "name": "courseId",
          "type": "uint256"
        },
        {
          "internalType": "bool",
          "name": "isActive",
          "type": "bool"
        },
        {
          "internalType": "uint256",
          "name": "unlocked",
          "type": "uint256"
        },
        {
          "internalType": "uint256",
          "name": "sectionsViewed",
          "type": "uint256"
        },
        {
          "internalType": "uint256",
          "name": "purchasedAt",
          "type": "uint256"
        }
      ],
      "stateMutability": "view",
      "type": "function",
      "constant": true
    },
    {
      "inputs": [
        {
          "internalType": "address",
          "name": "",
          "type": "address"
        }
      ],
      "name": "students",
      "outputs": [
        {
          "internalType": "uint256",
          "name": "id",
          "type": "uint256"
        },
        {
          "internalType": "string",
          "name": "name",
          "type": "string"
        },
        {
          "internalType": "string",
          "name": "emailAddress",
          "type": "string"
        },
        {
          "internalType": "uint256",
          "name": "gender",
          "type": "uint256"
        },
        {
          "internalType": "string",
          "name": "ipfsPhoto",
          "type": "string"
        },
        {
          "internalType": "string",
          "name": "country",
          "type": "string"
        },
        {
          "internalType": "uint256",
          "name": "createdAt",
          "type": "uint256"
        }
      ],
      "stateMutability": "view",
      "type": "function",
      "constant": true
    },
    {
      "inputs": [
        {
          "internalType": "uint256",
          "name": "amount",
          "type": "uint256"
        }
      ],
      "name": "setInstructorRegistrationFee",
      "outputs": [],
      "stateMutability": "nonpayable",
      "type": "function"
    },
    {
      "inputs": [
        {
          "internalType": "string",
          "name": "name",
          "type": "string"
        },
        {
          "internalType": "string",
          "name": "image",
          "type": "string"
        }
      ],
      "name": "addCategory",
      "outputs": [],
      "stateMutability": "nonpayable",
      "type": "function"
    },
    {
      "inputs": [
        {
          "internalType": "string",
          "name": "name",
          "type": "string"
        },
        {
          "internalType": "string",
          "name": "description",
          "type": "string"
        },
        {
          "internalType": "uint256",
          "name": "categoryId",
          "type": "uint256"
        }
      ],
      "name": "createCourse",
      "outputs": [],
      "stateMutability": "nonpayable",
      "type": "function"
    },
    {
      "inputs": [
        {
          "internalType": "address",
          "name": "instructor",
          "type": "address"
        }
      ],
      "name": "getInstructorCoursesLength",
      "outputs": [
        {
          "internalType": "uint256",
          "name": "",
          "type": "uint256"
        }
      ],
      "stateMutability": "view",
      "type": "function",
      "constant": true
    },
    {
      "inputs": [
        {
          "internalType": "address",
          "name": "instructor",
          "type": "address"
        },
        {
          "internalType": "uint256",
          "name": "index",
          "type": "uint256"
        }
      ],
      "name": "getInstructorCourseIdAtIndex",
      "outputs": [
        {
          "internalType": "uint256",
          "name": "",
          "type": "uint256"
        }
      ],
      "stateMutability": "view",
      "type": "function",
      "constant": true
    },
    {
      "inputs": [
        {
          "internalType": "string",
          "name": "firstName",
          "type": "string"
        },
        {
          "internalType": "string",
          "name": "lastName",
          "type": "string"
        },
        {
          "internalType": "string",
          "name": "location",
          "type": "string"
        },
        {
          "internalType": "uint256",
          "name": "gender",
          "type": "uint256"
        }
      ],
      "name": "createInstructorAccount",
      "outputs": [],
      "stateMutability": "nonpayable",
      "type": "function"
    },
    {
      "inputs": [
        {
          "internalType": "string",
          "name": "name",
          "type": "string"
        },
        {
          "internalType": "string",
          "name": "email",
          "type": "string"
        },
        {
          "internalType": "uint256",
          "name": "gender",
          "type": "uint256"
        }
      ],
      "name": "createStudentAccount",
      "outputs": [],
      "stateMutability": "nonpayable",
      "type": "function"
    },
    {
      "inputs": [
        {
          "internalType": "address",
          "name": "student",
          "type": "address"
        }
      ],
      "name": "getStudentCoursesLength",
      "outputs": [
        {
          "internalType": "uint256",
          "name": "",
          "type": "uint256"
        }
      ],
      "stateMutability": "view",
      "type": "function",
      "constant": true
    },
    {
      "inputs": [
        {
          "internalType": "address",
          "name": "student",
          "type": "address"
        },
        {
          "internalType": "uint256",
          "name": "index",
          "type": "uint256"
        }
      ],
      "name": "getStudentourseIdAtIndex",
      "outputs": [
        {
          "internalType": "uint256",
          "name": "",
          "type": "uint256"
        }
      ],
      "stateMutability": "view",
      "type": "function",
      "constant": true
    },
    {
      "inputs": [
        {
          "internalType": "uint256",
          "name": "courseId",
          "type": "uint256"
        }
      ],
      "name": "purchaseCourse",
      "outputs": [],
      "stateMutability": "nonpayable",
      "type": "function"
    },
    {
      "inputs": [
        {
          "internalType": "uint256",
          "name": "courseId",
          "type": "uint256"
        },
        {
          "internalType": "uint256",
          "name": "sections",
          "type": "uint256"
        }
      ],
      "name": "rejectCourse",
      "outputs": [],
      "stateMutability": "nonpayable",
      "type": "function"
    },
    {
      "inputs": [
        {
          "internalType": "uint256",
          "name": "courseId",
          "type": "uint256"
        },
        {
          "internalType": "uint256",
          "name": "sections",
          "type": "uint256"
        },
        {
          "internalType": "string",
          "name": "uri",
          "type": "string"
        }
      ],
      "name": "onNextCourseSection",
      "outputs": [
        {
          "internalType": "string",
          "name": "",
          "type": "string"
        }
      ],
      "stateMutability": "nonpayable",
      "type": "function"
    }
  ],
  "bytecode": "0x60806040526001600455600160055560016006556001600755686c6b935b8bbd4000006008553480156200003257600080fd5b5060405162005c6138038062005c6183398181016040528101906200005891906200072e565b336000806101000a81548173ffffffffffffffffffffffffffffffffffffffff021916908373ffffffffffffffffffffffffffffffffffffffff16021790555082600160006101000a81548173ffffffffffffffffffffffffffffffffffffffff021916908373ffffffffffffffffffffffffffffffffffffffff16021790555081600260006101000a81548173ffffffffffffffffffffffffffffffffffffffff021916908373ffffffffffffffffffffffffffffffffffffffff16021790555080600360006101000a81548173ffffffffffffffffffffffffffffffffffffffff021916908373ffffffffffffffffffffffffffffffffffffffff1602179055506200016b6200017460201b60201c565b50505062000bea565b620001d46040518060400160405280600f81526020017f57656220446576656c6f706d656e74000000000000000000000000000000000081525060405180606001604052806027815260200162005bf560279139620005a660201b60201c565b620002506040518060400160405280600781526020017f436f6f6b696e67000000000000000000000000000000000000000000000000008152506040518060400160405280601f81526020017f2f696d616765732f63617465676f726965732f636f6f6b696e672e7765627000815250620005a660201b60201c565b620002cc6040518060400160405280600f81526020017f55492f55582044657369676e696e6700000000000000000000000000000000008152506040518060400160405280601d81526020017f2f696d616765732f63617465676f726965732f75692d75782e77656270000000815250620005a660201b60201c565b6200032c6040518060400160405280600c81526020017f334420416e696d6174696f6e000000000000000000000000000000000000000081525060405180606001604052806021815260200162005bb160219139620005a660201b60201c565b6200038c6040518060400160405280600c81526020017f496c6c757374726174696f6e000000000000000000000000000000000000000081525060405180606001604052806024815260200162005b8d60249139620005a660201b60201c565b620003ec6040518060400160405280600c81526020017f4461746120536369656e6365000000000000000000000000000000000000000081525060405180606001604052806024815260200162005c1c60249139620005a660201b60201c565b620004686040518060400160405280600881526020017f537065616b696e670000000000000000000000000000000000000000000000008152506040518060400160405280602081526020017f2f696d616765732f63617465676f726965732f737065616b696e672e77656270815250620005a660201b60201c565b620004e46040518060400160405280600581526020017f4d757369630000000000000000000000000000000000000000000000000000008152506040518060400160405280601d81526020017f2f696d616765732f63617465676f726965732f6d757369632e77656270000000815250620005a660201b60201c565b620005446040518060400160405280600b81526020017f50686f746f67726170687900000000000000000000000000000000000000000081525060405180606001604052806023815260200162005bd260239139620005a660201b60201c565b620005a46040518060400160405280600981526020017f4d61726b6574696e67000000000000000000000000000000000000000000000081525060405180606001604052806021815260200162005c4060219139620005a660201b60201c565b565b60008054906101000a900473ffffffffffffffffffffffffffffffffffffffff1673ffffffffffffffffffffffffffffffffffffffff163373ffffffffffffffffffffffffffffffffffffffff161462000637576040517f08c379a00000000000000000000000000000000000000000000000000000000081526004016200062e90620007eb565b60405180910390fd5b60405180606001604052806007548152602001838152602001828152506009600060075481526020019081526020016000206000820151816000015560208201518160010190816200068a919062000a87565b506040820151816002019081620006a2919062000a87565b5090505060076000815480929190620006bb9062000b9d565b91905055505050565b600080fd5b600073ffffffffffffffffffffffffffffffffffffffff82169050919050565b6000620006f682620006c9565b9050919050565b6200070881620006e9565b81146200071457600080fd5b50565b6000815190506200072881620006fd565b92915050565b6000806000606084860312156200074a5762000749620006c4565b5b60006200075a8682870162000717565b93505060206200076d8682870162000717565b9250506040620007808682870162000717565b9150509250925092565b600082825260208201905092915050565b7f556e617574686f72697a65640000000000000000000000000000000000000000600082015250565b6000620007d3600c836200078a565b9150620007e0826200079b565b602082019050919050565b600060208201905081810360008301526200080681620007c4565b9050919050565b600081519050919050565b7f4e487b7100000000000000000000000000000000000000000000000000000000600052604160045260246000fd5b7f4e487b7100000000000000000000000000000000000000000000000000000000600052602260045260246000fd5b600060028204905060018216806200088f57607f821691505b602082108103620008a557620008a462000847565b5b50919050565b60008190508160005260206000209050919050565b60006020601f8301049050919050565b600082821b905092915050565b6000600883026200090f7fffffffffffffffffffffffffffffffffffffffffffffffffffffffffffffffff82620008d0565b6200091b8683620008d0565b95508019841693508086168417925050509392505050565b6000819050919050565b6000819050919050565b600062000968620009626200095c8462000933565b6200093d565b62000933565b9050919050565b6000819050919050565b620009848362000947565b6200099c62000993826200096f565b848454620008dd565b825550505050565b600090565b620009b3620009a4565b620009c081848462000979565b505050565b5b81811015620009e857620009dc600082620009a9565b600181019050620009c6565b5050565b601f82111562000a375762000a0181620008ab565b62000a0c84620008c0565b8101602085101562000a1c578190505b62000a3462000a2b85620008c0565b830182620009c5565b50505b505050565b600082821c905092915050565b600062000a5c6000198460080262000a3c565b1980831691505092915050565b600062000a77838362000a49565b9150826002028217905092915050565b62000a92826200080d565b67ffffffffffffffff81111562000aae5762000aad62000818565b5b62000aba825462000876565b62000ac7828285620009ec565b600060209050601f83116001811462000aff576000841562000aea578287015190505b62000af6858262000a69565b86555062000b66565b601f19841662000b0f86620008ab565b60005b8281101562000b395784890151825560018201915060208501945060208101905062000b12565b8683101562000b59578489015162000b55601f89168262000a49565b8355505b6001600288020188555050505b505050505050565b7f4e487b7100000000000000000000000000000000000000000000000000000000600052601160045260246000fd5b600062000baa8262000933565b91507fffffffffffffffffffffffffffffffffffffffffffffffffffffffffffffffff820362000bdf5762000bde62000b6e565b5b600182019050919050565b614f938062000bfa6000396000f3fe608060405234801561001057600080fd5b50600436106101375760003560e01c8063823d5bf4116100b8578063c3de1bb21161007c578063c3de1bb214610379578063c6cdbe5e146103a9578063cd131938146103db578063d031a834146103f7578063fb9da76a14610427578063fd95cc511461044357610137565b8063823d5bf4146102b157806396f979d2146102cf578063a4adb24b14610309578063a6c807a914610325578063aa39566c1461035b57610137565b80632a47d91c116100ff5780632a47d91c146101de578063332d90a91461021757806333e54bf91461023557806345eb84a3146102655780635a6373841461029557610137565b8063097167ba1461013c57806309df4f66146101585780630da079b41461017657806318222d5e146101925780631bf703b2146101c2575b600080fd5b61015660048036038101906101519190613f32565b610477565b005b61016061050f565b60405161016d9190613f6e565b60405180910390f35b610190600480360381019061018b91906140cf565b610515565b005b6101ac60048036038101906101a791906141b8565b610a30565b6040516101b99190613f6e565b60405180910390f35b6101dc60048036038101906101d791906141f8565b610a99565b005b6101f860048036038101906101f39190614270565b610bae565b60405161020e9a99989796959493929190614337565b60405180910390f35b61021f610f3f565b60405161022c9190613f6e565b60405180910390f35b61024f600480360381019061024a9190614270565b610f45565b60405161025c9190613f6e565b60405180910390f35b61027f600480360381019061027a91906141b8565b610f94565b60405161028c9190613f6e565b60405180910390f35b6102af60048036038101906102aa91906143fd565b610ffd565b005b6102b961180c565b6040516102c69190613f6e565b60405180910390f35b6102e960048036038101906102e49190613f32565b611812565b6040516103009b9a999897969594939291906144c7565b60405180910390f35b610323600480360381019061031e91906140cf565b611ab9565b005b61033f600480360381019061033a9190614270565b61218a565b604051610352979695949392919061458e565b60405180910390f35b6103636123ec565b6040516103709190613f6e565b60405180910390f35b610393600480360381019061038e9190614619565b6123f2565b6040516103a09190614688565b60405180910390f35b6103c360048036038101906103be9190613f32565b612702565b6040516103d2939291906146aa565b60405180910390f35b6103f560048036038101906103f09190613f32565b61283c565b005b610411600480360381019061040c9190614270565b612bb1565b60405161041e9190613f6e565b60405180910390f35b610441600480360381019061043c91906146ef565b612c00565b005b61045d600480360381019061045891906141b8565b6133a4565b60405161046e95949392919061472f565b60405180910390f35b60008054906101000a900473ffffffffffffffffffffffffffffffffffffffff1673ffffffffffffffffffffffffffffffffffffffff163373ffffffffffffffffffffffffffffffffffffffff1614610505576040517f08c379a00000000000000000000000000000000000000000000000000000000081526004016104fc906147ce565b60405180910390fd5b8060088190555050565b60065481565b6000600b60003373ffffffffffffffffffffffffffffffffffffffff1673ffffffffffffffffffffffffffffffffffffffff168152602001908152602001600020600001541480156105a957506000600a60003373ffffffffffffffffffffffffffffffffffffffff1673ffffffffffffffffffffffffffffffffffffffff16815260200190815260200160002060000154145b6105e8576040517f08c379a00000000000000000000000000000000000000000000000000000000081526004016105df906147ce565b60405180910390fd5b6000600b60003373ffffffffffffffffffffffffffffffffffffffff1673ffffffffffffffffffffffffffffffffffffffff168152602001908152602001600020604051806101000160405290816000820154815260200160018201805461064f9061481d565b80601f016020809104026020016040519081016040528092919081815260200182805461067b9061481d565b80156106c85780601f1061069d576101008083540402835291602001916106c8565b820191906000526020600020905b8154815290600101906020018083116106ab57829003601f168201915b505050505081526020016002820180546106e19061481d565b80601f016020809104026020016040519081016040528092919081815260200182805461070d9061481d565b801561075a5780601f1061072f5761010080835404028352916020019161075a565b820191906000526020600020905b81548152906001019060200180831161073d57829003601f168201915b505050505081526020016003820154815260200160048201805461077d9061481d565b80601f01602080910402602001604051908101604052809291908181526020018280546107a99061481d565b80156107f65780601f106107cb576101008083540402835291602001916107f6565b820191906000526020600020905b8154815290600101906020018083116107d957829003601f168201915b5050505050815260200160058201805461080f9061481d565b80601f016020809104026020016040519081016040528092919081815260200182805461083b9061481d565b80156108885780601f1061085d57610100808354040283529160200191610888565b820191906000526020600020905b81548152906001019060200180831161086b57829003601f168201915b5050505050815260200160068201548152602001600782018054806020026020016040519081016040528092919081815260200182805480156108ea57602002820191906000526020600020905b8154815260200190600101908083116108d6575b50505050508152505090506040518061010001604052806005548152602001858152602001848152602001838152602001826080015181526020018260a0015181526020014281526020018260e00151815250600b60003373ffffffffffffffffffffffffffffffffffffffff1673ffffffffffffffffffffffffffffffffffffffff16815260200190815260200160002060008201518160000155602082015181600101908161099b91906149fa565b5060408201518160020190816109b191906149fa565b506060820151816003015560808201518160040190816109d191906149fa565b5060a08201518160050190816109e791906149fa565b5060c0820151816006015560e0820151816007019080519060200190610a0e929190613df4565b5090505060056000815480929190610a2590614afb565b919050555050505050565b6000600a60008473ffffffffffffffffffffffffffffffffffffffff1673ffffffffffffffffffffffffffffffffffffffff1681526020019081526020016000206009018281548110610a8657610a85614b43565b5b9060005260206000200154905092915050565b60008054906101000a900473ffffffffffffffffffffffffffffffffffffffff1673ffffffffffffffffffffffffffffffffffffffff163373ffffffffffffffffffffffffffffffffffffffff1614610b27576040517f08c379a0000000000000000000000000000000000000000000000000000000008152600401610b1e906147ce565b60405180910390fd5b6040518060600160405280600754815260200183815260200182815250600960006007548152602001908152602001600020600082015181600001556020820151816001019081610b7891906149fa565b506040820151816002019081610b8e91906149fa565b5090505060076000815480929190610ba590614afb565b91905055505050565b600a602052806000526040600020600091509050806000015490806001018054610bd79061481d565b80601f0160208091040260200160405190810160405280929190818152602001828054610c039061481d565b8015610c505780601f10610c2557610100808354040283529160200191610c50565b820191906000526020600020905b815481529060010190602001808311610c3357829003601f168201915b505050505090806002018054610c659061481d565b80601f0160208091040260200160405190810160405280929190818152602001828054610c919061481d565b8015610cde5780601f10610cb357610100808354040283529160200191610cde565b820191906000526020600020905b815481529060010190602001808311610cc157829003601f168201915b505050505090806003018054610cf39061481d565b80601f0160208091040260200160405190810160405280929190818152602001828054610d1f9061481d565b8015610d6c5780601f10610d4157610100808354040283529160200191610d6c565b820191906000526020600020905b815481529060010190602001808311610d4f57829003601f168201915b5050505050908060040154908060050160009054906101000a900460ff1690806006018054610d9a9061481d565b80601f0160208091040260200160405190810160405280929190818152602001828054610dc69061481d565b8015610e135780601f10610de857610100808354040283529160200191610e13565b820191906000526020600020905b815481529060010190602001808311610df657829003601f168201915b505050505090806007018054610e289061481d565b80601f0160208091040260200160405190810160405280929190818152602001828054610e549061481d565b8015610ea15780601f10610e7657610100808354040283529160200191610ea1565b820191906000526020600020905b815481529060010190602001808311610e8457829003601f168201915b505050505090806008018054610eb69061481d565b80601f0160208091040260200160405190810160405280929190818152602001828054610ee29061481d565b8015610f2f5780601f10610f0457610100808354040283529160200191610f2f565b820191906000526020600020905b815481529060010190602001808311610f1257829003601f168201915b50505050509080600a015490508a565b60045481565b6000600b60008373ffffffffffffffffffffffffffffffffffffffff1673ffffffffffffffffffffffffffffffffffffffff168152602001908152602001600020600701805490509050919050565b6000600b60008473ffffffffffffffffffffffffffffffffffffffff1673ffffffffffffffffffffffffffffffffffffffff1681526020019081526020016000206007018281548110610fea57610fe9614b43565b5b9060005260206000200154905092915050565b6000600b60003373ffffffffffffffffffffffffffffffffffffffff1673ffffffffffffffffffffffffffffffffffffffff1681526020019081526020016000206000015414801561109157506000600a60003373ffffffffffffffffffffffffffffffffffffffff1673ffffffffffffffffffffffffffffffffffffffff16815260200190815260200160002060000154145b6110d0576040517f08c379a00000000000000000000000000000000000000000000000000000000081526004016110c7906147ce565b60405180910390fd5b600160009054906101000a900473ffffffffffffffffffffffffffffffffffffffff1673ffffffffffffffffffffffffffffffffffffffff16636c43a2ca33306008546040518463ffffffff1660e01b815260040161113193929190614b72565b6020604051808303816000875af1158015611150573d6000803e3d6000fd5b505050506040513d601f19601f820116820180604052508101906111749190614bd5565b50600160009054906101000a900473ffffffffffffffffffffffffffffffffffffffff1673ffffffffffffffffffffffffffffffffffffffff166323b872dd33306008546040518463ffffffff1660e01b81526004016111d693929190614b72565b6020604051808303816000875af11580156111f5573d6000803e3d6000fd5b505050506040513d601f19601f820116820180604052508101906112199190614bd5565b506000600a60003373ffffffffffffffffffffffffffffffffffffffff1673ffffffffffffffffffffffffffffffffffffffff16815260200190815260200160002060405180610160016040529081600082015481526020016001820180546112819061481d565b80601f01602080910402602001604051908101604052809291908181526020018280546112ad9061481d565b80156112fa5780601f106112cf576101008083540402835291602001916112fa565b820191906000526020600020905b8154815290600101906020018083116112dd57829003601f168201915b505050505081526020016002820180546113139061481d565b80601f016020809104026020016040519081016040528092919081815260200182805461133f9061481d565b801561138c5780601f106113615761010080835404028352916020019161138c565b820191906000526020600020905b81548152906001019060200180831161136f57829003601f168201915b505050505081526020016003820180546113a59061481d565b80601f01602080910402602001604051908101604052809291908181526020018280546113d19061481d565b801561141e5780601f106113f35761010080835404028352916020019161141e565b820191906000526020600020905b81548152906001019060200180831161140157829003601f168201915b50505050508152602001600482015481526020016005820160009054906101000a900460ff1615151515815260200160068201805461145c9061481d565b80601f01602080910402602001604051908101604052809291908181526020018280546114889061481d565b80156114d55780601f106114aa576101008083540402835291602001916114d5565b820191906000526020600020905b8154815290600101906020018083116114b857829003601f168201915b505050505081526020016007820180546114ee9061481d565b80601f016020809104026020016040519081016040528092919081815260200182805461151a9061481d565b80156115675780601f1061153c57610100808354040283529160200191611567565b820191906000526020600020905b81548152906001019060200180831161154a57829003601f168201915b505050505081526020016008820180546115809061481d565b80601f01602080910402602001604051908101604052809291908181526020018280546115ac9061481d565b80156115f95780601f106115ce576101008083540402835291602001916115f9565b820191906000526020600020905b8154815290600101906020018083116115dc57829003601f168201915b505050505081526020016009820180548060200260200160405190810160405280929190818152602001828054801561165157602002820191906000526020600020905b81548152602001906001019080831161163d575b50505050508152602001600a82015481525050905060405180610160016040528060045481526020018681526020018581526020018481526020018381526020016000151581526020018260c0015181526020018260e0015181526020018261010001518152602001826101200151815260200142815250600a60003373ffffffffffffffffffffffffffffffffffffffff1673ffffffffffffffffffffffffffffffffffffffff16815260200190815260200160002060008201518160000155602082015181600101908161172791906149fa565b50604082015181600201908161173d91906149fa565b50606082015181600301908161175391906149fa565b506080820151816004015560a08201518160050160006101000a81548160ff02191690831515021790555060c082015181600601908161179391906149fa565b5060e08201518160070190816117a991906149fa565b506101008201518160080190816117c091906149fa565b506101208201518160090190805190602001906117de929190613df4565b5061014082015181600a01559050506004600081548092919061180090614afb565b91905055505050505050565b60055481565b600c60205280600052604060002060009150905080600001549080600101805461183b9061481d565b80601f01602080910402602001604051908101604052809291908181526020018280546118679061481d565b80156118b45780601f10611889576101008083540402835291602001916118b4565b820191906000526020600020905b81548152906001019060200180831161189757829003601f168201915b5050505050908060020180546118c99061481d565b80601f01602080910402602001604051908101604052809291908181526020018280546118f59061481d565b80156119425780601f1061191757610100808354040283529160200191611942565b820191906000526020600020905b81548152906001019060200180831161192557829003601f168201915b50505050509080600301549080600401805461195d9061481d565b80601f01602080910402602001604051908101604052809291908181526020018280546119899061481d565b80156119d65780601f106119ab576101008083540402835291602001916119d6565b820191906000526020600020905b8154815290600101906020018083116119b957829003601f168201915b5050505050908060050160009054906101000a900473ffffffffffffffffffffffffffffffffffffffff1690806008015490806009018054611a179061481d565b80601f0160208091040260200160405190810160405280929190818152602001828054611a439061481d565b8015611a905780601f10611a6557610100808354040283529160200191611a90565b820191906000526020600020905b815481529060010190602001808311611a7357829003601f168201915b50505050509080600a0160009054906101000a900460ff169080600b01549080600c015490508b565b6000600a60003373ffffffffffffffffffffffffffffffffffffffff1673ffffffffffffffffffffffffffffffffffffffff1681526020019081526020016000206000015403611b3e576040517f08c379a0000000000000000000000000000000000000000000000000000000008152600401611b35906147ce565b60405180910390fd5b6000600c60006006548152602001908152602001600020604051806101a001604052908160008201548152602001600182018054611b7b9061481d565b80601f0160208091040260200160405190810160405280929190818152602001828054611ba79061481d565b8015611bf45780601f10611bc957610100808354040283529160200191611bf4565b820191906000526020600020905b815481529060010190602001808311611bd757829003601f168201915b50505050508152602001600282018054611c0d9061481d565b80601f0160208091040260200160405190810160405280929190818152602001828054611c399061481d565b8015611c865780601f10611c5b57610100808354040283529160200191611c86565b820191906000526020600020905b815481529060010190602001808311611c6957829003601f168201915b5050505050815260200160038201548152602001600482018054611ca99061481d565b80601f0160208091040260200160405190810160405280929190818152602001828054611cd59061481d565b8015611d225780601f10611cf757610100808354040283529160200191611d22565b820191906000526020600020905b815481529060010190602001808311611d0557829003601f168201915b505050505081526020016005820160009054906101000a900473ffffffffffffffffffffffffffffffffffffffff1673ffffffffffffffffffffffffffffffffffffffff1673ffffffffffffffffffffffffffffffffffffffff16815260200160068201805480602002602001604051908101604052809291908181526020018280548015611e0657602002820191906000526020600020905b8160009054906101000a900473ffffffffffffffffffffffffffffffffffffffff1673ffffffffffffffffffffffffffffffffffffffff1681526020019060010190808311611dbc575b5050505050815260200160078201805480602002602001604051908101604052809291908181526020018280548015611e5e57602002820191906000526020600020905b815481526020019060010190808311611e4a575b5050505050815260200160088201548152602001600982018054611e819061481d565b80601f0160208091040260200160405190810160405280929190818152602001828054611ead9061481d565b8015611efa5780601f10611ecf57610100808354040283529160200191611efa565b820191906000526020600020905b815481529060010190602001808311611edd57829003601f168201915b50505050508152602001600a820160009054906101000a900460ff16151515158152602001600b8201548152602001600c820154815250509050604051806101a001604052806006548152602001858152602001848152602001838152602001826080015181526020013373ffffffffffffffffffffffffffffffffffffffff1681526020018260c0015181526020018260e00151815260200160008152602001826101200151815260200160001515815260200142815260200142815250600c60006006548152602001908152602001600020600082015181600001556020820151816001019081611fed91906149fa565b50604082015181600201908161200391906149fa565b5060608201518160030155608082015181600401908161202391906149fa565b5060a08201518160050160006101000a81548173ffffffffffffffffffffffffffffffffffffffff021916908373ffffffffffffffffffffffffffffffffffffffff16021790555060c0820151816006019080519060200190612087929190613e41565b5060e08201518160070190805190602001906120a4929190613df4565b5061010082015181600801556101208201518160090190816120c691906149fa565b5061014082015181600a0160006101000a81548160ff02191690831515021790555061016082015181600b015561018082015181600c0155905050600a60003373ffffffffffffffffffffffffffffffffffffffff1673ffffffffffffffffffffffffffffffffffffffff16815260200190815260200160002060090160065490806001815401808255809150506001900390600052602060002001600090919091909150556006600081548092919061217f90614afb565b919050555050505050565b600b6020528060005260406000206000915090508060000154908060010180546121b39061481d565b80601f01602080910402602001604051908101604052809291908181526020018280546121df9061481d565b801561222c5780601f106122015761010080835404028352916020019161222c565b820191906000526020600020905b81548152906001019060200180831161220f57829003601f168201915b5050505050908060020180546122419061481d565b80601f016020809104026020016040519081016040528092919081815260200182805461226d9061481d565b80156122ba5780601f1061228f576101008083540402835291602001916122ba565b820191906000526020600020905b81548152906001019060200180831161229d57829003601f168201915b5050505050908060030154908060040180546122d59061481d565b80601f01602080910402602001604051908101604052809291908181526020018280546123019061481d565b801561234e5780601f106123235761010080835404028352916020019161234e565b820191906000526020600020905b81548152906001019060200180831161233157829003601f168201915b5050505050908060050180546123639061481d565b80601f016020809104026020016040519081016040528092919081815260200182805461238f9061481d565b80156123dc5780601f106123b1576101008083540402835291602001916123dc565b820191906000526020600020905b8154815290600101906020018083116123bf57829003601f168201915b5050505050908060060154905087565b60075481565b60606000600b60003373ffffffffffffffffffffffffffffffffffffffff1673ffffffffffffffffffffffffffffffffffffffff1681526020019081526020016000206000015403612479576040517f08c379a0000000000000000000000000000000000000000000000000000000008152600401612470906147ce565b60405180910390fd5b6000600c6000868152602001908152602001600020905060008160000154036124d7576040517f08c379a00000000000000000000000000000000000000000000000000000000081526004016124ce90614c4e565b60405180910390fd5b6000600d60003373ffffffffffffffffffffffffffffffffffffffff1673ffffffffffffffffffffffffffffffffffffffff168152602001908152602001600020868154811061252a57612529614b43565b5b90600052602060002090600502019050600085836008015461254c9190614c9d565b90508082600201541061263c578082600201600082825461256d9190614cce565b92505081905550600160009054906101000a900473ffffffffffffffffffffffffffffffffffffffff1673ffffffffffffffffffffffffffffffffffffffff166323b872dd308560050160009054906101000a900473ffffffffffffffffffffffffffffffffffffffff16846040518463ffffffff1660e01b81526004016125f793929190614b72565b6020604051808303816000875af1158015612616573d6000803e3d6000fd5b505050506040513d601f19601f8201168201806040525081019061263a9190614bd5565b505b600086836003015461264e9190614c9d565b9050600181106126a457612663338988613404565b6040518060400160405280601081526020017f636f757273655f636f6d706c65746564000000000000000000000000000000008152509450505050506126fb565b8260030160008154809291906126b990614afb565b91905055506040518060400160405280601381526020017f636f757273655f6e6578745f73656374696f6e000000000000000000000000008152509450505050505b9392505050565b600960205280600052604060002060009150905080600001549080600101805461272b9061481d565b80601f01602080910402602001604051908101604052809291908181526020018280546127579061481d565b80156127a45780601f10612779576101008083540402835291602001916127a4565b820191906000526020600020905b81548152906001019060200180831161278757829003601f168201915b5050505050908060020180546127b99061481d565b80601f01602080910402602001604051908101604052809291908181526020018280546127e59061481d565b80156128325780601f1061280757610100808354040283529160200191612832565b820191906000526020600020905b81548152906001019060200180831161281557829003601f168201915b5050505050905083565b6000600b60003373ffffffffffffffffffffffffffffffffffffffff1673ffffffffffffffffffffffffffffffffffffffff16815260200190815260200160002060000154036128c1576040517f08c379a00000000000000000000000000000000000000000000000000000000081526004016128b8906147ce565b60405180910390fd5b6000600c60008381526020019081526020016000209050600081600001540361291f576040517f08c379a000000000000000000000000000000000000000000000000000000000815260040161291690614c4e565b60405180910390fd5b600160009054906101000a900473ffffffffffffffffffffffffffffffffffffffff1673ffffffffffffffffffffffffffffffffffffffff16636c43a2ca333084600801546040518463ffffffff1660e01b815260040161298293929190614b72565b6020604051808303816000875af11580156129a1573d6000803e3d6000fd5b505050506040513d601f19601f820116820180604052508101906129c59190614bd5565b50600160009054906101000a900473ffffffffffffffffffffffffffffffffffffffff1673ffffffffffffffffffffffffffffffffffffffff166323b872dd333084600801546040518463ffffffff1660e01b8152600401612a2993929190614b72565b6020604051808303816000875af1158015612a48573d6000803e3d6000fd5b505050506040513d601f19601f82011682018060405250810190612a6c9190614bd5565b50600d60003373ffffffffffffffffffffffffffffffffffffffff1673ffffffffffffffffffffffffffffffffffffffff1681526020019081526020016000206040518060a0016040528084815260200160011515815260200183600801548152602001600081526020014281525090806001815401808255809150506001900390600052602060002090600502016000909190919091506000820151816000015560208201518160010160006101000a81548160ff02191690831515021790555060408201518160020155606082015181600301556080820151816004015550507fba05698ffe932ba01d3d70f62a2e48d6719cc5df3bdcf9118015af495c4a39b18160050160009054906101000a900473ffffffffffffffffffffffffffffffffffffffff163384604051612ba593929190614b72565b60405180910390a15050565b6000600a60008373ffffffffffffffffffffffffffffffffffffffff1673ffffffffffffffffffffffffffffffffffffffff168152602001908152602001600020600901805490509050919050565b6000600b60003373ffffffffffffffffffffffffffffffffffffffff1673ffffffffffffffffffffffffffffffffffffffff1681526020019081526020016000206000015403612c85576040517f08c379a0000000000000000000000000000000000000000000000000000000008152600401612c7c906147ce565b60405180910390fd5b6000600d60003373ffffffffffffffffffffffffffffffffffffffff1673ffffffffffffffffffffffffffffffffffffffff1681526020019081526020016000208381548110612cd857612cd7614b43565b5b90600052602060002090600502016040518060a0016040529081600082015481526020016001820160009054906101000a900460ff16151515158152602001600282015481526020016003820154815260200160048201548152505090506000600c6000858152602001908152602001600020604051806101a001604052908160008201548152602001600182018054612d719061481d565b80601f0160208091040260200160405190810160405280929190818152602001828054612d9d9061481d565b8015612dea5780601f10612dbf57610100808354040283529160200191612dea565b820191906000526020600020905b815481529060010190602001808311612dcd57829003601f168201915b50505050508152602001600282018054612e039061481d565b80601f0160208091040260200160405190810160405280929190818152602001828054612e2f9061481d565b8015612e7c5780601f10612e5157610100808354040283529160200191612e7c565b820191906000526020600020905b815481529060010190602001808311612e5f57829003601f168201915b5050505050815260200160038201548152602001600482018054612e9f9061481d565b80601f0160208091040260200160405190810160405280929190818152602001828054612ecb9061481d565b8015612f185780601f10612eed57610100808354040283529160200191612f18565b820191906000526020600020905b815481529060010190602001808311612efb57829003601f168201915b505050505081526020016005820160009054906101000a900473ffffffffffffffffffffffffffffffffffffffff1673ffffffffffffffffffffffffffffffffffffffff1673ffffffffffffffffffffffffffffffffffffffff16815260200160068201805480602002602001604051908101604052809291908181526020018280548015612ffc57602002820191906000526020600020905b8160009054906101000a900473ffffffffffffffffffffffffffffffffffffffff1673ffffffffffffffffffffffffffffffffffffffff1681526020019060010190808311612fb2575b505050505081526020016007820180548060200260200160405190810160405280929190818152602001828054801561305457602002820191906000526020600020905b815481526020019060010190808311613040575b50505050508152602001600882015481526020016009820180546130779061481d565b80601f01602080910402602001604051908101604052809291908181526020018280546130a39061481d565b80156130f05780601f106130c5576101008083540402835291602001916130f0565b820191906000526020600020905b8154815290600101906020018083116130d357829003601f168201915b50505050508152602001600a820160009054906101000a900460ff16151515158152602001600b8201548152602001600c8201548152505090506000816000015103613171576040517f08c379a000000000000000000000000000000000000000000000000000000000815260040161316890614c4e565b60405180910390fd5b60028260800151116131b8576040517f08c379a00000000000000000000000000000000000000000000000000000000081526004016131af90614d74565b60405180910390fd5b60008383606001516131ca9190614cce565b90506000811161320f576040517f08c379a000000000000000000000000000000000000000000000000000000000815260040161320690614e06565b60405180910390fd5b6000826101000151826132229190614e26565b9050600d60003373ffffffffffffffffffffffffffffffffffffffff1673ffffffffffffffffffffffffffffffffffffffff168152602001908152602001600020868154811061327557613274614b43565b5b90600052602060002090600502016000808201600090556001820160006101000a81549060ff02191690556002820160009055600382016000905560048201600090555050600160009054906101000a900473ffffffffffffffffffffffffffffffffffffffff1673ffffffffffffffffffffffffffffffffffffffff166323b872dd3033846040518463ffffffff1660e01b815260040161331993929190614b72565b6020604051808303816000875af1158015613338573d6000803e3d6000fd5b505050506040513d601f19601f8201168201806040525081019061335c9190614bd5565b507fdc66f972de0418acb83d72185cdafd8f63206f06f26f08008effbcf11495f2fd3387866060015160405161339493929190614e68565b60405180910390a1505050505050565b600d60205281600052604060002081815481106133c057600080fd5b9060005260206000209060050201600091509150508060000154908060010160009054906101000a900460ff16908060020154908060030154908060040154905085565b61340f82848361341e565b6134198284613927565b505050565b6000600c6000858152602001908152602001600020604051806101a0016040529081600082015481526020016001820180546134599061481d565b80601f01602080910402602001604051908101604052809291908181526020018280546134859061481d565b80156134d25780601f106134a7576101008083540402835291602001916134d2565b820191906000526020600020905b8154815290600101906020018083116134b557829003601f168201915b505050505081526020016002820180546134eb9061481d565b80601f01602080910402602001604051908101604052809291908181526020018280546135179061481d565b80156135645780601f1061353957610100808354040283529160200191613564565b820191906000526020600020905b81548152906001019060200180831161354757829003601f168201915b50505050508152602001600382015481526020016004820180546135879061481d565b80601f01602080910402602001604051908101604052809291908181526020018280546135b39061481d565b80156136005780601f106135d557610100808354040283529160200191613600565b820191906000526020600020905b8154815290600101906020018083116135e357829003601f168201915b505050505081526020016005820160009054906101000a900473ffffffffffffffffffffffffffffffffffffffff1673ffffffffffffffffffffffffffffffffffffffff1673ffffffffffffffffffffffffffffffffffffffff168152602001600682018054806020026020016040519081016040528092919081815260200182805480156136e457602002820191906000526020600020905b8160009054906101000a900473ffffffffffffffffffffffffffffffffffffffff1673ffffffffffffffffffffffffffffffffffffffff168152602001906001019080831161369a575b505050505081526020016007820180548060200260200160405190810160405280929190818152602001828054801561373c57602002820191906000526020600020905b815481526020019060010190808311613728575b505050505081526020016008820154815260200160098201805461375f9061481d565b80601f016020809104026020016040519081016040528092919081815260200182805461378b9061481d565b80156137d85780601f106137ad576101008083540402835291602001916137d8565b820191906000526020600020905b8154815290600101906020018083116137bb57829003601f168201915b50505050508152602001600a820160009054906101000a900460ff16151515158152602001600b8201548152602001600c8201548152505090506000816000015103613859576040517f08c379a000000000000000000000000000000000000000000000000000000000815260040161385090614c4e565b60405180910390fd5b600360009054906101000a900473ffffffffffffffffffffffffffffffffffffffff1673ffffffffffffffffffffffffffffffffffffffff166304b444d984846040518363ffffffff1660e01b81526004016138b6929190614e9f565b600060405180830381600087803b1580156138d057600080fd5b505af11580156138e4573d6000803e3d6000fd5b505050507ffec61b9ec0e29047dbeea981617649d79f187d172cfd492695a3d0bfee28883e8385604051613919929190614ecf565b60405180910390a150505050565b6000600c6000848152602001908152602001600020604051806101a0016040529081600082015481526020016001820180546139629061481d565b80601f016020809104026020016040519081016040528092919081815260200182805461398e9061481d565b80156139db5780601f106139b0576101008083540402835291602001916139db565b820191906000526020600020905b8154815290600101906020018083116139be57829003601f168201915b505050505081526020016002820180546139f49061481d565b80601f0160208091040260200160405190810160405280929190818152602001828054613a209061481d565b8015613a6d5780601f10613a4257610100808354040283529160200191613a6d565b820191906000526020600020905b815481529060010190602001808311613a5057829003601f168201915b5050505050815260200160038201548152602001600482018054613a909061481d565b80601f0160208091040260200160405190810160405280929190818152602001828054613abc9061481d565b8015613b095780601f10613ade57610100808354040283529160200191613b09565b820191906000526020600020905b815481529060010190602001808311613aec57829003601f168201915b505050505081526020016005820160009054906101000a900473ffffffffffffffffffffffffffffffffffffffff1673ffffffffffffffffffffffffffffffffffffffff1673ffffffffffffffffffffffffffffffffffffffff16815260200160068201805480602002602001604051908101604052809291908181526020018280548015613bed57602002820191906000526020600020905b8160009054906101000a900473ffffffffffffffffffffffffffffffffffffffff1673ffffffffffffffffffffffffffffffffffffffff1681526020019060010190808311613ba3575b5050505050815260200160078201805480602002602001604051908101604052809291908181526020018280548015613c4557602002820191906000526020600020905b815481526020019060010190808311613c31575b5050505050815260200160088201548152602001600982018054613c689061481d565b80601f0160208091040260200160405190810160405280929190818152602001828054613c949061481d565b8015613ce15780601f10613cb657610100808354040283529160200191613ce1565b820191906000526020600020905b815481529060010190602001808311613cc457829003601f168201915b50505050508152602001600a820160009054906101000a900460ff16151515158152602001600b8201548152602001600c8201548152505090506000816000015103613d62576040517f08c379a0000000000000000000000000000000000000000000000000000000008152600401613d5990614c4e565b60405180910390fd5b600260009054906101000a900473ffffffffffffffffffffffffffffffffffffffff1673ffffffffffffffffffffffffffffffffffffffff1663b510391f836040518263ffffffff1660e01b8152600401613dbd9190614f2f565b600060405180830381600087803b158015613dd757600080fd5b505af1158015613deb573d6000803e3d6000fd5b50505050505050565b828054828255906000526020600020908101928215613e30579160200282015b82811115613e2f578251825591602001919060010190613e14565b5b509050613e3d9190613ecb565b5090565b828054828255906000526020600020908101928215613eba579160200282015b82811115613eb95782518260006101000a81548173ffffffffffffffffffffffffffffffffffffffff021916908373ffffffffffffffffffffffffffffffffffffffff16021790555091602001919060010190613e61565b5b509050613ec79190613ecb565b5090565b5b80821115613ee4576000816000905550600101613ecc565b5090565b6000604051905090565b600080fd5b600080fd5b6000819050919050565b613f0f81613efc565b8114613f1a57600080fd5b50565b600081359050613f2c81613f06565b92915050565b600060208284031215613f4857613f47613ef2565b5b6000613f5684828501613f1d565b91505092915050565b613f6881613efc565b82525050565b6000602082019050613f836000830184613f5f565b92915050565b600080fd5b600080fd5b6000601f19601f8301169050919050565b7f4e487b7100000000000000000000000000000000000000000000000000000000600052604160045260246000fd5b613fdc82613f93565b810181811067ffffffffffffffff82111715613ffb57613ffa613fa4565b5b80604052505050565b600061400e613ee8565b905061401a8282613fd3565b919050565b600067ffffffffffffffff82111561403a57614039613fa4565b5b61404382613f93565b9050602081019050919050565b82818337600083830152505050565b600061407261406d8461401f565b614004565b90508281526020810184848401111561408e5761408d613f8e565b5b614099848285614050565b509392505050565b600082601f8301126140b6576140b5613f89565b5b81356140c684826020860161405f565b91505092915050565b6000806000606084860312156140e8576140e7613ef2565b5b600084013567ffffffffffffffff81111561410657614105613ef7565b5b614112868287016140a1565b935050602084013567ffffffffffffffff81111561413357614132613ef7565b5b61413f868287016140a1565b925050604061415086828701613f1d565b9150509250925092565b600073ffffffffffffffffffffffffffffffffffffffff82169050919050565b60006141858261415a565b9050919050565b6141958161417a565b81146141a057600080fd5b50565b6000813590506141b28161418c565b92915050565b600080604083850312156141cf576141ce613ef2565b5b60006141dd858286016141a3565b92505060206141ee85828601613f1d565b9150509250929050565b6000806040838503121561420f5761420e613ef2565b5b600083013567ffffffffffffffff81111561422d5761422c613ef7565b5b614239858286016140a1565b925050602083013567ffffffffffffffff81111561425a57614259613ef7565b5b614266858286016140a1565b9150509250929050565b60006020828403121561428657614285613ef2565b5b6000614294848285016141a3565b91505092915050565b600081519050919050565b600082825260208201905092915050565b60005b838110156142d75780820151818401526020810190506142bc565b60008484015250505050565b60006142ee8261429d565b6142f881856142a8565b93506143088185602086016142b9565b61431181613f93565b840191505092915050565b60008115159050919050565b6143318161431c565b82525050565b60006101408201905061434d600083018d613f5f565b818103602083015261435f818c6142e3565b90508181036040830152614373818b6142e3565b90508181036060830152614387818a6142e3565b90506143966080830189613f5f565b6143a360a0830188614328565b81810360c08301526143b581876142e3565b905081810360e08301526143c981866142e3565b90508181036101008301526143de81856142e3565b90506143ee610120830184613f5f565b9b9a5050505050505050505050565b6000806000806080858703121561441757614416613ef2565b5b600085013567ffffffffffffffff81111561443557614434613ef7565b5b614441878288016140a1565b945050602085013567ffffffffffffffff81111561446257614461613ef7565b5b61446e878288016140a1565b935050604085013567ffffffffffffffff81111561448f5761448e613ef7565b5b61449b878288016140a1565b92505060606144ac87828801613f1d565b91505092959194509250565b6144c18161417a565b82525050565b6000610160820190506144dd600083018e613f5f565b81810360208301526144ef818d6142e3565b90508181036040830152614503818c6142e3565b9050614512606083018b613f5f565b8181036080830152614524818a6142e3565b905061453360a08301896144b8565b61454060c0830188613f5f565b81810360e083015261455281876142e3565b9050614562610100830186614328565b614570610120830185613f5f565b61457e610140830184613f5f565b9c9b505050505050505050505050565b600060e0820190506145a3600083018a613f5f565b81810360208301526145b581896142e3565b905081810360408301526145c981886142e3565b90506145d86060830187613f5f565b81810360808301526145ea81866142e3565b905081810360a08301526145fe81856142e3565b905061460d60c0830184613f5f565b98975050505050505050565b60008060006060848603121561463257614631613ef2565b5b600061464086828701613f1d565b935050602061465186828701613f1d565b925050604084013567ffffffffffffffff81111561467257614671613ef7565b5b61467e868287016140a1565b9150509250925092565b600060208201905081810360008301526146a281846142e3565b905092915050565b60006060820190506146bf6000830186613f5f565b81810360208301526146d181856142e3565b905081810360408301526146e581846142e3565b9050949350505050565b6000806040838503121561470657614705613ef2565b5b600061471485828601613f1d565b925050602061472585828601613f1d565b9150509250929050565b600060a0820190506147446000830188613f5f565b6147516020830187614328565b61475e6040830186613f5f565b61476b6060830185613f5f565b6147786080830184613f5f565b9695505050505050565b7f556e617574686f72697a65640000000000000000000000000000000000000000600082015250565b60006147b8600c836142a8565b91506147c382614782565b602082019050919050565b600060208201905081810360008301526147e7816147ab565b9050919050565b7f4e487b7100000000000000000000000000000000000000000000000000000000600052602260045260246000fd5b6000600282049050600182168061483557607f821691505b602082108103614848576148476147ee565b5b50919050565b60008190508160005260206000209050919050565b60006020601f8301049050919050565b600082821b905092915050565b6000600883026148b07fffffffffffffffffffffffffffffffffffffffffffffffffffffffffffffffff82614873565b6148ba8683614873565b95508019841693508086168417925050509392505050565b6000819050919050565b60006148f76148f26148ed84613efc565b6148d2565b613efc565b9050919050565b6000819050919050565b614911836148dc565b61492561491d826148fe565b848454614880565b825550505050565b600090565b61493a61492d565b614945818484614908565b505050565b5b818110156149695761495e600082614932565b60018101905061494b565b5050565b601f8211156149ae5761497f8161484e565b61498884614863565b81016020851015614997578190505b6149ab6149a385614863565b83018261494a565b50505b505050565b600082821c905092915050565b60006149d1600019846008026149b3565b1980831691505092915050565b60006149ea83836149c0565b9150826002028217905092915050565b614a038261429d565b67ffffffffffffffff811115614a1c57614a1b613fa4565b5b614a26825461481d565b614a3182828561496d565b600060209050601f831160018114614a645760008415614a52578287015190505b614a5c85826149de565b865550614ac4565b601f198416614a728661484e565b60005b82811015614a9a57848901518255600182019150602085019450602081019050614a75565b86831015614ab75784890151614ab3601f8916826149c0565b8355505b6001600288020188555050505b505050505050565b7f4e487b7100000000000000000000000000000000000000000000000000000000600052601160045260246000fd5b6000614b0682613efc565b91507fffffffffffffffffffffffffffffffffffffffffffffffffffffffffffffffff8203614b3857614b37614acc565b5b600182019050919050565b7f4e487b7100000000000000000000000000000000000000000000000000000000600052603260045260246000fd5b6000606082019050614b8760008301866144b8565b614b9460208301856144b8565b614ba16040830184613f5f565b949350505050565b614bb28161431c565b8114614bbd57600080fd5b50565b600081519050614bcf81614ba9565b92915050565b600060208284031215614beb57614bea613ef2565b5b6000614bf984828501614bc0565b91505092915050565b7f436f7572736520646f65736e2774206578697374730000000000000000000000600082015250565b6000614c386015836142a8565b9150614c4382614c02565b602082019050919050565b60006020820190508181036000830152614c6781614c2b565b9050919050565b7f4e487b7100000000000000000000000000000000000000000000000000000000600052601260045260246000fd5b6000614ca882613efc565b9150614cb383613efc565b925082614cc357614cc2614c6e565b5b828204905092915050565b6000614cd982613efc565b9150614ce483613efc565b9250828203905081811115614cfc57614cfb614acc565b5b92915050565b7f596f752063616e27742072656a656374206120636f75727365206f766572203260008201527f207765656b732e00000000000000000000000000000000000000000000000000602082015250565b6000614d5e6027836142a8565b9150614d6982614d02565b604082019050919050565b60006020820190508181036000830152614d8d81614d51565b9050919050565b7f4e6f6e65206f662074686520636f757273652073656374696f6e73206973207260008201527f6566756e6461626c650000000000000000000000000000000000000000000000602082015250565b6000614df06029836142a8565b9150614dfb82614d94565b604082019050919050565b60006020820190508181036000830152614e1f81614de3565b9050919050565b6000614e3182613efc565b9150614e3c83613efc565b9250828202614e4a81613efc565b91508282048414831517614e6157614e60614acc565b5b5092915050565b6000606082019050614e7d60008301866144b8565b614e8a6020830185613f5f565b614e976040830184613f5f565b949350505050565b6000604082019050614eb460008301856144b8565b8181036020830152614ec681846142e3565b90509392505050565b6000604082019050614ee460008301856144b8565b614ef16020830184613f5f565b9392505050565b600082825260208201905092915050565b50565b6000614f19600083614ef8565b9150614f2482614f09565b600082019050919050565b6000604082019050614f4460008301846144b8565b8181036020830152614f5581614f0c565b90509291505056fea2646970667358221220f11cf8f922178207f28444039391c9c59cbc9e7aafd91f423ff285873cb4297764736f6c634300081100332f696d616765732f63617465676f726965732f696c6c757374726174696f6e2e776562702f696d616765732f63617465676f726965732f616e696d6174696f6e2e776562702f696d616765732f63617465676f726965732f70686f746f6772617068792e776562702f696d616765732f63617465676f726965732f7765622d646576656c6f706d656e742e776562702f696d616765732f63617465676f726965732f646174612d736369656e63652e776562702f696d616765732f63617465676f726965732f6d61726b6574696e672e77656270",
  "immutableReferences": {},
  "source": "// SPDX-License-Identifier: GPL-3.0\n\npragma solidity >=0.7.0 <0.9.0;\n\nimport \"./BdlToken.sol\";\nimport \"./BdlNft.sol\";\nimport \"./BdlCertificate.sol\";\n\ncontract Buidl {\n    // state variables\n    address deployer;\n\n    BdlToken bdlToken;\n    BdlNft bdlNft;\n    BdlCertificate bdlCertificate;\n\n    uint256 public contractInstructorID = 1;\n    uint256 public contractStudentID = 1;\n    uint256 public contractCourseID = 1;\n    uint256 public contractCategoryID = 1;\n\n    // minimum to stake for a duration of 1year\n    uint256 instructorRegistrationFee = 2000 * 10**18;\n\n    mapping(uint => Category) public categories;\n    mapping(address => Instructor) public instructors;\n    mapping(address => Student) public students;\n    mapping(uint => Course) public courses;\n    mapping(address => StudentCourse[]) public studentCourses;\n\n    // contructor\n    constructor(\n        address _bdlToken,\n        address _bdlNft,\n        address _bdlCertificate\n    ) {\n        deployer = msg.sender;\n        bdlToken = BdlToken(_bdlToken);\n        bdlNft = BdlNft(_bdlNft);\n        bdlCertificate = BdlCertificate(_bdlCertificate);\n\n        addTestCategories();\n    }\n\n    // structs\n    struct Category {\n        uint id;\n        string name;\n        string image;\n    }\n\n    struct Instructor {\n        uint id;\n        string firstName;\n        string lastName;\n        string location;\n        uint gender;\n        bool isVerified;\n        string ipfsPhoto;\n        string twitter;\n        string linkedin;\n        uint[] courses;\n        uint createdAt;\n    }\n\n    struct Course {\n        uint id;\n        string name;\n        string description;\n        uint categoryId;\n        string ipfsPhoto;\n        address instructor;\n        address[] students;\n        uint[] ratings;\n        uint256 price;\n        string metadata; // course metadata\n        bool isPublished;\n        uint createdAt;\n        uint updatedAt;\n    }\n\n    struct Student {\n        uint id;\n        string name;\n        string emailAddress;\n        uint gender;\n        string ipfsPhoto;\n        string country;\n        uint createdAt;\n        uint[] courses;\n    }\n\n    struct StudentCourse {\n        uint courseId;\n        bool isActive; // paid or rejected\n        uint unlocked; // initially equals to price of course\n        // then sequentially unlocked to the instructor\n        uint sectionsViewed;\n        uint purchasedAt;\n    }\n\n    // ========= Administation ========= //\n\n    function setInstructorRegistrationFee(uint256 amount) public onlyOwner {\n        instructorRegistrationFee = amount;\n    }\n\n    function addCategory(string memory name, string memory image)\n        public\n        onlyOwner\n    {\n        categories[contractCategoryID] = Category(\n            contractCategoryID,\n            name,\n            image\n        );\n\n        contractCategoryID++;\n    }\n\n    // ========= Instructors =========== //\n\n    function createCourse(string memory name, string memory description, uint categoryId) public onlyInstructor {\n        Course memory course = courses[contractCourseID];\n\n        // create new freah course\n        courses[contractCourseID] = Course(\n            contractCourseID,\n            name,\n            description,\n            categoryId,\n            course.ipfsPhoto,\n            msg.sender,\n            course.students,\n            course.ratings,\n            0,\n            course.metadata,\n            false,\n            block.timestamp,\n            block.timestamp\n        );\n\n        // assign course ownership to intructor\n        instructors[msg.sender].courses.push(contractCourseID);\n\n        // increment id\n        contractCourseID++;\n    }\n\n    function getInstructorCoursesLength(address instructor)\n        public\n        view\n        returns (uint)\n    {\n        return instructors[instructor].courses.length;\n    }\n\n    function getInstructorCourseIdAtIndex(address instructor, uint index)\n        public\n        view\n        returns (uint)\n    {\n        return instructors[instructor].courses[index];\n    }\n\n    function createInstructorAccount(\n        string memory firstName,\n        string memory lastName,\n        string memory location,\n        uint gender\n    ) public notAnyone {\n        // stake instruction fee\n        bdlToken.increaseAllowance(\n            msg.sender,\n            address(this),\n            instructorRegistrationFee\n        );\n\n        bdlToken.transferFrom(\n            msg.sender,\n            address(this),\n            instructorRegistrationFee\n        );\n\n        Instructor memory instructor = instructors[msg.sender];\n\n        instructors[msg.sender] = Instructor(\n            contractInstructorID,\n            firstName,\n            lastName,\n            location,\n            gender,\n            false,\n            instructor.ipfsPhoto,\n            instructor.twitter,\n            instructor.linkedin,\n            instructor.courses,\n            block.timestamp\n        );\n\n        contractInstructorID++;\n    }\n\n    // ========= Students ========== //\n\n    function createStudentAccount(\n        string memory name,\n        string memory email,\n        uint gender\n    ) public notAnyone {\n        Student memory student = students[msg.sender];\n\n        students[msg.sender] = Student(\n            contractStudentID,\n            name,\n            email,\n            gender,\n            student.ipfsPhoto,\n            student.country,\n            block.timestamp,\n            student.courses\n        );\n\n        contractStudentID++;\n    }\n\n    function getStudentCoursesLength(address student)\n        public\n        view\n        returns (uint)\n    {\n        return students[student].courses.length;\n    }\n\n    function getStudentourseIdAtIndex(address student, uint index)\n        public\n        view\n        returns (uint)\n    {\n        return students[student].courses[index];\n    }\n\n    function purchaseCourse(uint courseId) public onlyStudent {\n        Course storage course = courses[courseId];\n\n        require(course.id != 0, \"Course doesn't exists\");\n\n        // lock the student funds to smart contract\n        bdlToken.increaseAllowance(msg.sender, address(this), course.price);\n        bdlToken.transferFrom(msg.sender, address(this), course.price);\n\n        // create course for student\n        studentCourses[msg.sender].push(\n            StudentCourse(\n                courseId,\n                true,\n                course.price,\n                0,\n                block.timestamp\n            )\n        );\n\n        emit CoursePurchased(course.instructor, msg.sender, courseId);\n    }\n\n    function rejectCourse(uint courseId, uint sections) public onlyStudent {\n        StudentCourse memory studentCourse = studentCourses[msg.sender][\n            courseId\n        ];\n\n        Course memory course = courses[courseId];\n\n        require(course.id != 0, \"Course doesn't exists\");\n\n        // check is course is not over 2 weeks\n        require(\n            studentCourse.purchasedAt > 2,\n            \"You can't reject a course over 2 weeks.\"\n        );\n\n        uint refundableSections = (studentCourse.sectionsViewed - sections);\n\n        require(\n            refundableSections > 0,\n            \"None of the course sections is refundable\"\n        );\n\n        uint256 refundableAmount = (refundableSections * course.price);\n\n        // terminate student course\n        delete studentCourses[msg.sender][courseId];\n\n        // refund the student\n        bdlToken.transferFrom(address(this), msg.sender, refundableAmount);\n\n        emit CourseRejected(msg.sender, courseId, studentCourse.sectionsViewed);\n    }\n\n    function onNextCourseSection(uint courseId, uint sections, string memory uri)\n        public\n        onlyStudent\n        returns (string memory)\n    {\n        Course storage course = courses[courseId];\n\n        require(course.id != 0, \"Course doesn't exists\");\n\n        StudentCourse storage studentCourse = studentCourses[msg.sender][\n            courseId\n        ];\n\n        // students moved to another section of the course\n        // unlock part payment to the instructor (conditionally)\n        uint pricePerSection = (course.price / sections);\n\n        if (studentCourse.unlocked >= pricePerSection) {\n            studentCourse.unlocked -= pricePerSection;\n            bdlToken.transferFrom(\n                address(this),\n                course.instructor,\n                pricePerSection\n            );\n        }\n\n        // checks if students has completed the course\n        uint progress = (studentCourse.sectionsViewed / sections);\n\n        if (progress >= 1) {\n            onCompletedCourse(msg.sender, courseId, uri);\n            return \"course_completed\";\n        } else {\n            studentCourse.sectionsViewed++;\n            return \"course_next_section\";\n        }\n    }\n\n    function onCompletedCourse(\n        address student,\n        uint courseId,\n        string memory uri\n    ) private {\n        generateCerticate(courseId, student, uri);\n        mintNftForStudent(courseId, student);\n    }\n\n    function generateCerticate(\n        uint courseId,\n        address student,\n        string memory uri\n    ) private {\n        Course memory course = courses[courseId];\n\n        require(course.id != 0, \"Course doesn't exists\");\n        // {\n        //     \"name\":\"Android Certificate\",\n        //     \"description\":\"Mastering Koitlin\",\n        //     \"image\":\"https://buidl.com/pic/xxxx.jpg\",\n        //     \"external_url\":\"https://originalsite.io/2\",\n        //     \"attributes\":[\n        //          {\n        //              \"trait_type\":\"Rarity Class\",\n        //              \"value\":\"Normal\"\n        //          },\n        //     ]\n        // }\n        bdlCertificate.issue(student, uri);\n\n        emit CertificateIssued(student, courseId);\n    }\n\n    function mintNftForStudent(uint courseId, address student) private {\n        Course memory course = courses[courseId];\n\n        require(course.id != 0, \"Course doesn't exists\");\n\n        bdlNft.mint(student, \"\");\n    }\n\n    modifier onlyInstructor() {\n        require(instructors[msg.sender].id != 0, \"Unauthorized\");\n        _;\n    }\n\n    modifier onlyStudent() {\n        require(students[msg.sender].id != 0, \"Unauthorized\");\n        _;\n    }\n\n    modifier onlyOwner() {\n        require(msg.sender == deployer, \"Unauthorized\");\n        _;\n    }\n\n    modifier notAnyone() {\n        require(\n            (students[msg.sender].id == 0 && instructors[msg.sender].id == 0),\n            \"Unauthorized\"\n        );\n        _;\n    }\n\n    // ========== events ========== //\n    event CourseCompletion(address student, uint courseId);\n    event CertificateIssued(address student, uint courseId);\n    event CoursePurchased(address intructor, address student, uint courseId);\n    event CourseRejected(address student, uint courseId, uint sectionsViewed);\n\n    // ========== test =========== //\n    function addTestCategories() private {\n        addCategory(\n            \"Web Development\",\n            \"/images/categories/web-development.webp\"\n        );\n        addCategory(\"Cooking\", \"/images/categories/cooking.webp\");\n        addCategory(\"UI/UX Designing\", \"/images/categories/ui-ux.webp\");\n        addCategory(\"3D Animation\", \"/images/categories/animation.webp\");\n        addCategory(\"Illustration\", \"/images/categories/illustration.webp\");\n        addCategory(\"Data Science\", \"/images/categories/data-science.webp\");\n        addCategory(\"Speaking\", \"/images/categories/speaking.webp\");\n        addCategory(\"Music\", \"/images/categories/music.webp\");\n        addCategory(\"Photography\", \"/images/categories/photography.webp\");\n        addCategory(\"Marketing\", \"/images/categories/marketing.webp\");\n    }\n}\n",
  "sourcePath": "C:\\Users\\Arogundade Ibrahim\\Documents\\web3\\Buidl\\contracts\\Buidl.sol",
  "compiler": {
    "name": "solc",
    "version": "0.8.17+commit.8df45f5f.Emscripten.clang"
  },
  "schemaVersion": "3.4.10",
  "updatedAt": "2022-10-18T16:19:54.318Z",
  "networkType": "ethereum",
  "devdoc": {
    "kind": "dev",
    "methods": {},
    "version": 1
  },
  "userdoc": {
    "kind": "user",
    "methods": {},
    "version": 1
  }
}