{
  "contractName": "Buidl",
  "abi": [
    {
      "inputs": [
        {
          "internalType": "address",
          "name": "bdlToken",
          "type": "address"
        },
        {
          "internalType": "address",
          "name": "bdlNft",
          "type": "address"
        },
        {
          "internalType": "address",
          "name": "bdlCertificate",
          "type": "address"
        },
        {
          "internalType": "address",
          "name": "bdlCourse",
          "type": "address"
        },
        {
          "internalType": "address",
          "name": "paymentFlow",
          "type": "address"
        },
        {
          "internalType": "address",
          "name": "staking",
          "type": "address"
        }
      ],
      "stateMutability": "nonpayable",
      "type": "constructor"
    },
    {
      "inputs": [
        {
          "internalType": "address",
          "name": "",
          "type": "address"
        }
      ],
      "name": "users",
      "outputs": [
        {
          "internalType": "uint256",
          "name": "id",
          "type": "uint256"
        },
        {
          "internalType": "bool",
          "name": "verified",
          "type": "bool"
        },
        {
          "internalType": "string",
          "name": "photo",
          "type": "string"
        },
        {
          "internalType": "uint256",
          "name": "createdAt",
          "type": "uint256"
        }
      ],
      "stateMutability": "view",
      "type": "function"
    },
    {
      "inputs": [],
      "name": "unlockCreator",
      "outputs": [],
      "stateMutability": "nonpayable",
      "type": "function"
    },
    {
      "inputs": [
        {
          "internalType": "uint256",
          "name": "id",
          "type": "uint256"
        },
        {
          "internalType": "uint256",
          "name": "category",
          "type": "uint256"
        },
        {
          "internalType": "uint256",
          "name": "price",
          "type": "uint256"
        }
      ],
      "name": "createCourse",
      "outputs": [],
      "stateMutability": "nonpayable",
      "type": "function"
    }
  ],
  "bytecode": "0x60a0604052686c6b935b8bbd400000600655600060075534801561002257600080fd5b50604051610779380380610779833981016040819052610041916100d0565b33608052600080546001600160a01b03199081166001600160a01b0397881617909155600180548216978716979097179096556002805487169486169490941790935560038054861692851692909217909155600480548516918416919091179055600580549093169116179055610144565b80516001600160a01b03811681146100cb57600080fd5b919050565b60008060008060008060c087890312156100e957600080fd5b6100f2876100b4565b9550610100602088016100b4565b945061010e604088016100b4565b935061011c606088016100b4565b925061012a608088016100b4565b915061013860a088016100b4565b90509295509295509295565b60805161061d61015c6000396000505061061d6000f3fe608060405234801561001057600080fd5b50600436106100415760003560e01c8063a87430ba14610046578063bb07c8ec14610072578063c193b2e414610087575b600080fd5b6100596100543660046104a3565b61008f565b60405161006994939291906104e0565b60405180910390f35b610085610080366004610546565b610144565b005b610085610248565b600860205260009081526040902080546001820154600283018054929360ff909216926100bb90610572565b80601f01602080910402602001604051908101604052809291908181526020018280546100e790610572565b80156101345780601f1061010957610100808354040283529160200191610134565b820191906000526020600020905b81548152906001019060200180831161011757829003601f168201915b5050505050908060040154905084565b3360009081526008602052604090206001015460ff166101ab5760405162461bcd60e51b815260206004820152600b60248201527f21617574686f72697a656400000000000000000000000000000000000000000060448201526064015b60405180910390fd5b6003546040517fa6bdd81500000000000000000000000000000000000000000000000000000000815260048101859052602481018490526044810183905233606482015273ffffffffffffffffffffffffffffffffffffffff9091169063a6bdd81590608401600060405180830381600087803b15801561022b57600080fd5b505af115801561023f573d6000803e3d6000fd5b50505050505050565b3360009081526008602052604090206001015460ff16156102ab5760405162461bcd60e51b815260206004820152600b60248201527f21617574686f72697a656400000000000000000000000000000000000000000060448201526064016101a2565b6001546006546040517fe1f21c67000000000000000000000000000000000000000000000000000000008152336004820152306024820152604481019190915273ffffffffffffffffffffffffffffffffffffffff9091169063e1f21c6790606401600060405180830381600087803b15801561032757600080fd5b505af115801561033b573d6000803e3d6000fd5b50506001546006546040517f23b872dd000000000000000000000000000000000000000000000000000000008152336004820152306024820152604481019190915273ffffffffffffffffffffffffffffffffffffffff90911692506323b872dd91506064016020604051808303816000875af11580156103c0573d6000803e3d6000fd5b505050506040513d601f19601f820116820180604052508101906103e491906105c5565b506005546006546007546040517f110bddd3000000000000000000000000000000000000000000000000000000008152336004820152602481019290925260448201526000606482015273ffffffffffffffffffffffffffffffffffffffff9091169063110bddd390608401600060405180830381600087803b15801561046a57600080fd5b505af115801561047e573d6000803e3d6000fd5b50503360009081526008602052604090206001908101805460ff191690911790555050565b6000602082840312156104b557600080fd5b813573ffffffffffffffffffffffffffffffffffffffff811681146104d957600080fd5b9392505050565b848152600060208515158184015260806040840152845180608085015260005b8181101561051c5786810183015185820160a001528201610500565b50600060a0828601015260a0601f19601f8301168501019250505082606083015295945050505050565b60008060006060848603121561055b57600080fd5b505081359360208301359350604090920135919050565b600181811c9082168061058657607f821691505b6020821081036105bf577f4e487b7100000000000000000000000000000000000000000000000000000000600052602260045260246000fd5b50919050565b6000602082840312156105d757600080fd5b815180151581146104d957600080fdfea26469706673582212200f21c22bce3a0384f93c38ec274e7b8357f5d14eddfb51fbbae2a7245b4e8dae64736f6c63430008100033",
  "immutableReferences": {},
  "source": "// SPDX-License-Identifier: GPL-3.0\npragma solidity >=0.7.0 <0.9.0;\n\nimport {BdlNft} from \"./BdlNft.sol\";\nimport {BdlCertificate} from \"./BdlCertificate.sol\";\nimport {Models} from \"./base/Models.sol\";\nimport {PaymentFlow} from \"./PaymentFlow.sol\";\nimport {BdlToken} from \"./BdlToken.sol\";\nimport {BdlCourse} from \"./BdlCourse.sol\";\nimport {Staking} from \"./Staking.sol\";\n\ncontract Buidl {\n    address private immutable deployer;\n\n    BdlNft private _bdlNft; // nft reward (coupon) contract\n    BdlToken private _bdlToken; // erc20(streamable token) contract\n    BdlCertificate private _bdlCertificate; // erc4973 certificate contract\n    BdlCourse private _bdlCourse; // course contract\n    PaymentFlow private _paymentFlow; // flow (erc20 streaming) contract\n    Staking private _staking; // staking contract\n\n    // creators requirement\n    // these requirement helps us to filter fuds\n    // and abuse of the ecosystem\n    uint256 private creatorStakingFee = 2000 * 10**18;\n    uint256 private creatorStakingDuration = 365 * 0;\n\n    // ecosystem users\n    mapping(address => Models.User) public users;\n\n    // contructor\n    constructor(\n        address bdlToken,\n        address bdlNft,\n        address bdlCertificate,\n        address bdlCourse,\n        address paymentFlow,\n        address staking\n    ) {\n        deployer = msg.sender;\n\n        _bdlNft = BdlNft(bdlNft);\n        _bdlToken = BdlToken(bdlToken);\n        _bdlCertificate = BdlCertificate(bdlCertificate);\n        _bdlCourse = BdlCourse(bdlCourse);\n        _paymentFlow = PaymentFlow(paymentFlow);\n        _staking = Staking(staking);\n    }\n\n    /* unlock creator */\n    function unlockCreator() public notVerified {\n        _bdlToken.approve(msg.sender, address(this), creatorStakingFee);\n        _bdlToken.transferFrom(msg.sender, address(this), creatorStakingFee);\n        _staking.stake(msg.sender, creatorStakingFee, creatorStakingDuration, 0);\n        users[msg.sender].verified = true;\n    }\n\n    // bdlCourse\n    function createCourse(\n        uint id,\n        uint category,\n        uint256 price\n    ) public onlyVerified {\n        _bdlCourse.createCourse(id, category, price, msg.sender);\n    }\n\n    modifier onlyVerified() {\n        require(users[msg.sender].verified, \"!authorized\");\n        _;\n    }\n\n     modifier notVerified() {\n        require(!users[msg.sender].verified, \"!authorized\");\n        _;\n    }\n}\n",
  "sourcePath": "C:\\Users\\Arogundade Ibrahim\\Documents\\web3\\Buidl\\contracts\\Buidl.sol",
  "compiler": {
    "name": "solc",
    "version": "0.8.16+commit.07a7930e.Emscripten.clang"
  },
  "schemaVersion": "3.4.10",
  "updatedAt": "2022-10-24T19:11:16.786Z",
  "devdoc": {
    "kind": "dev",
    "methods": {},
    "version": 1
  },
  "userdoc": {
    "kind": "user",
    "methods": {},
    "version": 1
  }
}