{
  "contractName": "Buidl",
  "abi": [
    {
      "inputs": [
        {
          "internalType": "address",
          "name": "bdlToken",
          "type": "address"
        },
        {
          "internalType": "address",
          "name": "bdlNft",
          "type": "address"
        },
        {
          "internalType": "address",
          "name": "bdlCertificate",
          "type": "address"
        },
        {
          "internalType": "address",
          "name": "bdlCourse",
          "type": "address"
        },
        {
          "internalType": "address",
          "name": "paymentFlow",
          "type": "address"
        }
      ],
      "stateMutability": "nonpayable",
      "type": "constructor"
    },
    {
      "inputs": [
        {
          "internalType": "address",
          "name": "",
          "type": "address"
        }
      ],
      "name": "users",
      "outputs": [
        {
          "internalType": "uint256",
          "name": "id",
          "type": "uint256"
        },
        {
          "internalType": "bool",
          "name": "verified",
          "type": "bool"
        },
        {
          "internalType": "string",
          "name": "photo",
          "type": "string"
        },
        {
          "internalType": "uint256",
          "name": "createdAt",
          "type": "uint256"
        }
      ],
      "stateMutability": "view",
      "type": "function"
    },
    {
      "inputs": [
        {
          "internalType": "uint256",
          "name": "id",
          "type": "uint256"
        },
        {
          "internalType": "uint256",
          "name": "category",
          "type": "uint256"
        },
        {
          "internalType": "uint256",
          "name": "price",
          "type": "uint256"
        }
      ],
      "name": "createCourse",
      "outputs": [],
      "stateMutability": "nonpayable",
      "type": "function"
    }
  ],
  "bytecode": "0x60a0604052686c6b935b8bbd400000600555600060065534801561002257600080fd5b506040516104e33803806104e3833981016040819052610041916100c0565b33608052600080546001600160a01b03199081166001600160a01b03968716179091556001805482169686169690961790955560028054861693851693909317909255600380548516918416919091179055600480549093169116179055610125565b80516001600160a01b03811681146100bb57600080fd5b919050565b600080600080600060a086880312156100d857600080fd5b6100e1866100a4565b94506100ef602087016100a4565b93506100fd604087016100a4565b925061010b606087016100a4565b9150610119608087016100a4565b90509295509295909350565b6080516103a661013d600039600050506103a66000f3fe608060405234801561001057600080fd5b50600436106100365760003560e01c8063a87430ba1461003b578063bb07c8ec14610067575b600080fd5b61004e61004936600461024e565b61007c565b60405161005e949392919061028b565b60405180910390f35b61007a6100753660046102f1565b610131565b005b600760205260009081526040902080546001820154600283018054929360ff909216926100a89061031d565b80601f01602080910402602001604051908101604052809291908181526020018280546100d49061031d565b80156101215780601f106100f657610100808354040283529160200191610121565b820191906000526020600020905b81548152906001019060200180831161010457829003601f168201915b5050505050908060040154905084565b3360009081526007602052604090206001015460ff166101b1576040517f08c379a000000000000000000000000000000000000000000000000000000000815260206004820152600b60248201527f21617574686f72697a6564000000000000000000000000000000000000000000604482015260640160405180910390fd5b6003546040517fa6bdd81500000000000000000000000000000000000000000000000000000000815260048101859052602481018490526044810183905233606482015273ffffffffffffffffffffffffffffffffffffffff9091169063a6bdd81590608401600060405180830381600087803b15801561023157600080fd5b505af1158015610245573d6000803e3d6000fd5b50505050505050565b60006020828403121561026057600080fd5b813573ffffffffffffffffffffffffffffffffffffffff8116811461028457600080fd5b9392505050565b848152600060208515158184015260806040840152845180608085015260005b818110156102c75786810183015185820160a0015282016102ab565b50600060a0828601015260a0601f19601f8301168501019250505082606083015295945050505050565b60008060006060848603121561030657600080fd5b505081359360208301359350604090920135919050565b600181811c9082168061033157607f821691505b60208210810361036a577f4e487b7100000000000000000000000000000000000000000000000000000000600052602260045260246000fd5b5091905056fea26469706673582212208254a63c1948bd1249e64f5a336c84322b34e93492aa407e50fcc64a1ad165fe64736f6c63430008100033",
  "immutableReferences": {},
  "source": "// SPDX-License-Identifier: GPL-3.0\npragma solidity >=0.7.0 <0.9.0;\n\nimport {BdlNft} from \"./BdlNft.sol\";\nimport {BdlCertificate} from \"./BdlCertificate.sol\";\nimport {Models} from \"./base/Models.sol\";\nimport {PaymentFlow} from \"./PaymentFlow.sol\";\nimport {BdlToken} from \"./BdlToken.sol\";\nimport {BdlCourse} from \"./BdlCourse.sol\";\n\ncontract Buidl {\n    address private immutable deployer;\n\n    BdlNft private _bdlNft; // nft reward (coupon) contract\n    BdlToken private _bdlToken; // erc20(streamable token) contract\n    BdlCertificate private _bdlCertificate; // erc4973 certificate contract\n    BdlCourse private _bdlCourse; // course contract\n    PaymentFlow private _paymentFlow; // flow (erc20 streaming) contract\n\n    // creators requirement\n    // these requirement helps us to filter fuds\n    // and abuse of the ecosystem\n    uint256 private creatorStakingFee = 2000 * 10**18;\n    uint256 private creatorStakingDuration = 365 * 0;\n\n    // ecosystem users\n    mapping(address => Models.User) public users;\n\n    // contructor\n    constructor(\n        address bdlToken,\n        address bdlNft,\n        address bdlCertificate,\n        address bdlCourse,\n        address paymentFlow\n    ) {\n        deployer = msg.sender;\n\n        _bdlNft = BdlNft(bdlNft);\n        _bdlToken = BdlToken(bdlToken);\n        _bdlCertificate = BdlCertificate(bdlCertificate);\n        _bdlCourse = BdlCourse(bdlCourse);\n        _paymentFlow = PaymentFlow(paymentFlow);\n    }\n\n    // bdlCourse\n    function createCourse(uint id, uint category, uint256 price) public onlyVerified {\n        _bdlCourse.createCourse(id, category, price, msg.sender);\n    }\n\n    modifier onlyVerified() {\n        require(users[msg.sender].verified, \"!authorized\");\n        _;\n    }\n}\n",
  "sourcePath": "C:\\Users\\Arogundade Ibrahim\\Documents\\web3\\Buidl\\contracts\\Buidl.sol",
  "compiler": {
    "name": "solc",
    "version": "0.8.16+commit.07a7930e.Emscripten.clang"
  },
  "schemaVersion": "3.4.10",
  "updatedAt": "2022-10-24T18:30:09.317Z",
  "devdoc": {
    "kind": "dev",
    "methods": {},
    "version": 1
  },
  "userdoc": {
    "kind": "user",
    "methods": {},
    "version": 1
  }
}