{
  "contractName": "Buidl",
  "abi": [
    {
      "inputs": [
        {
          "internalType": "address",
          "name": "_bdlToken",
          "type": "address"
        },
        {
          "internalType": "address",
          "name": "_bdlNft",
          "type": "address"
        },
        {
          "internalType": "address",
          "name": "_bdlCertificate",
          "type": "address"
        }
      ],
      "stateMutability": "nonpayable",
      "type": "constructor"
    },
    {
      "anonymous": false,
      "inputs": [
        {
          "indexed": false,
          "internalType": "address",
          "name": "student",
          "type": "address"
        },
        {
          "indexed": false,
          "internalType": "uint256",
          "name": "courseId",
          "type": "uint256"
        }
      ],
      "name": "CourseCompletion",
      "type": "event"
    },
    {
      "anonymous": false,
      "inputs": [
        {
          "indexed": false,
          "internalType": "address",
          "name": "intructor",
          "type": "address"
        },
        {
          "indexed": false,
          "internalType": "address",
          "name": "student",
          "type": "address"
        },
        {
          "indexed": false,
          "internalType": "uint256",
          "name": "courseId",
          "type": "uint256"
        }
      ],
      "name": "CoursePurchased",
      "type": "event"
    },
    {
      "anonymous": false,
      "inputs": [
        {
          "indexed": false,
          "internalType": "address",
          "name": "student",
          "type": "address"
        },
        {
          "indexed": false,
          "internalType": "uint256",
          "name": "courseId",
          "type": "uint256"
        },
        {
          "indexed": false,
          "internalType": "uint256",
          "name": "sectionsViewed",
          "type": "uint256"
        }
      ],
      "name": "CourseRejected",
      "type": "event"
    },
    {
      "inputs": [
        {
          "internalType": "uint256",
          "name": "",
          "type": "uint256"
        }
      ],
      "name": "categories",
      "outputs": [
        {
          "internalType": "uint256",
          "name": "id",
          "type": "uint256"
        },
        {
          "internalType": "string",
          "name": "name",
          "type": "string"
        },
        {
          "internalType": "string",
          "name": "image",
          "type": "string"
        }
      ],
      "stateMutability": "view",
      "type": "function"
    },
    {
      "inputs": [
        {
          "internalType": "uint256",
          "name": "",
          "type": "uint256"
        },
        {
          "internalType": "uint256",
          "name": "",
          "type": "uint256"
        }
      ],
      "name": "courseSections",
      "outputs": [
        {
          "internalType": "uint256",
          "name": "id",
          "type": "uint256"
        },
        {
          "internalType": "string",
          "name": "title",
          "type": "string"
        },
        {
          "internalType": "string",
          "name": "src",
          "type": "string"
        },
        {
          "internalType": "string",
          "name": "content",
          "type": "string"
        }
      ],
      "stateMutability": "view",
      "type": "function"
    },
    {
      "inputs": [
        {
          "internalType": "uint256",
          "name": "",
          "type": "uint256"
        }
      ],
      "name": "courses",
      "outputs": [
        {
          "internalType": "uint256",
          "name": "id",
          "type": "uint256"
        },
        {
          "internalType": "string",
          "name": "name",
          "type": "string"
        },
        {
          "internalType": "string",
          "name": "description",
          "type": "string"
        },
        {
          "internalType": "uint256",
          "name": "categoryId",
          "type": "uint256"
        },
        {
          "internalType": "string",
          "name": "ipfsPhoto",
          "type": "string"
        },
        {
          "internalType": "address",
          "name": "instructor",
          "type": "address"
        },
        {
          "internalType": "uint256",
          "name": "price",
          "type": "uint256"
        },
        {
          "internalType": "string",
          "name": "metadata",
          "type": "string"
        },
        {
          "internalType": "bool",
          "name": "isPublished",
          "type": "bool"
        },
        {
          "internalType": "uint256",
          "name": "createdAt",
          "type": "uint256"
        },
        {
          "internalType": "uint256",
          "name": "updatedAt",
          "type": "uint256"
        }
      ],
      "stateMutability": "view",
      "type": "function"
    },
    {
      "inputs": [
        {
          "internalType": "address",
          "name": "",
          "type": "address"
        }
      ],
      "name": "instructors",
      "outputs": [
        {
          "internalType": "uint256",
          "name": "id",
          "type": "uint256"
        },
        {
          "internalType": "string",
          "name": "firstName",
          "type": "string"
        },
        {
          "internalType": "string",
          "name": "lastName",
          "type": "string"
        },
        {
          "internalType": "string",
          "name": "location",
          "type": "string"
        },
        {
          "internalType": "uint256",
          "name": "gender",
          "type": "uint256"
        },
        {
          "internalType": "bool",
          "name": "isVerified",
          "type": "bool"
        },
        {
          "internalType": "string",
          "name": "ipfsPhoto",
          "type": "string"
        },
        {
          "internalType": "string",
          "name": "twitter",
          "type": "string"
        },
        {
          "internalType": "string",
          "name": "linkedin",
          "type": "string"
        },
        {
          "internalType": "uint256",
          "name": "createdAt",
          "type": "uint256"
        }
      ],
      "stateMutability": "view",
      "type": "function"
    },
    {
      "inputs": [
        {
          "internalType": "address",
          "name": "",
          "type": "address"
        },
        {
          "internalType": "uint256",
          "name": "",
          "type": "uint256"
        }
      ],
      "name": "studentCourses",
      "outputs": [
        {
          "internalType": "uint256",
          "name": "courseId",
          "type": "uint256"
        },
        {
          "internalType": "bool",
          "name": "isActive",
          "type": "bool"
        },
        {
          "internalType": "uint256",
          "name": "unlocked",
          "type": "uint256"
        },
        {
          "internalType": "uint256",
          "name": "sectionsViewed",
          "type": "uint256"
        },
        {
          "internalType": "uint256",
          "name": "purchasedAt",
          "type": "uint256"
        }
      ],
      "stateMutability": "view",
      "type": "function"
    },
    {
      "inputs": [
        {
          "internalType": "address",
          "name": "",
          "type": "address"
        }
      ],
      "name": "students",
      "outputs": [
        {
          "internalType": "uint256",
          "name": "id",
          "type": "uint256"
        },
        {
          "internalType": "string",
          "name": "name",
          "type": "string"
        },
        {
          "internalType": "string",
          "name": "emailAddress",
          "type": "string"
        },
        {
          "internalType": "uint256",
          "name": "gender",
          "type": "uint256"
        },
        {
          "internalType": "string",
          "name": "ipfsPhoto",
          "type": "string"
        },
        {
          "internalType": "string",
          "name": "country",
          "type": "string"
        },
        {
          "internalType": "uint256",
          "name": "createdAt",
          "type": "uint256"
        }
      ],
      "stateMutability": "view",
      "type": "function"
    },
    {
      "inputs": [
        {
          "internalType": "uint256",
          "name": "amount",
          "type": "uint256"
        }
      ],
      "name": "setInstructorRegistrationFee",
      "outputs": [],
      "stateMutability": "nonpayable",
      "type": "function"
    },
    {
      "inputs": [
        {
          "internalType": "string",
          "name": "name",
          "type": "string"
        },
        {
          "internalType": "string",
          "name": "image",
          "type": "string"
        }
      ],
      "name": "addCategory",
      "outputs": [],
      "stateMutability": "nonpayable",
      "type": "function"
    },
    {
      "inputs": [
        {
          "internalType": "string",
          "name": "uri",
          "type": "string"
        }
      ],
      "name": "mint",
      "outputs": [],
      "stateMutability": "nonpayable",
      "type": "function"
    },
    {
      "inputs": [],
      "name": "faucetMint",
      "outputs": [],
      "stateMutability": "nonpayable",
      "type": "function"
    },
    {
      "inputs": [
        {
          "internalType": "string",
          "name": "name",
          "type": "string"
        },
        {
          "internalType": "string",
          "name": "description",
          "type": "string"
        },
        {
          "internalType": "uint256",
          "name": "categoryId",
          "type": "uint256"
        }
      ],
      "name": "createCourse",
      "outputs": [],
      "stateMutability": "nonpayable",
      "type": "function"
    },
    {
      "inputs": [
        {
          "internalType": "uint256",
          "name": "courseId",
          "type": "uint256"
        },
        {
          "internalType": "string",
          "name": "title",
          "type": "string"
        },
        {
          "internalType": "string",
          "name": "src",
          "type": "string"
        },
        {
          "internalType": "string",
          "name": "content",
          "type": "string"
        },
        {
          "internalType": "uint256",
          "name": "updateFor",
          "type": "uint256"
        }
      ],
      "name": "addSectionToCourse",
      "outputs": [],
      "stateMutability": "nonpayable",
      "type": "function"
    },
    {
      "inputs": [
        {
          "internalType": "uint256",
          "name": "courseId",
          "type": "uint256"
        },
        {
          "internalType": "uint256",
          "name": "sectionIndex",
          "type": "uint256"
        }
      ],
      "name": "deleteCourseSection",
      "outputs": [],
      "stateMutability": "nonpayable",
      "type": "function"
    },
    {
      "inputs": [
        {
          "internalType": "address",
          "name": "instructor",
          "type": "address"
        }
      ],
      "name": "getInstructorCoursesLength",
      "outputs": [
        {
          "internalType": "uint256",
          "name": "",
          "type": "uint256"
        }
      ],
      "stateMutability": "view",
      "type": "function"
    },
    {
      "inputs": [
        {
          "internalType": "address",
          "name": "instructor",
          "type": "address"
        },
        {
          "internalType": "uint256",
          "name": "index",
          "type": "uint256"
        }
      ],
      "name": "getInstructorCourseIdAtIndex",
      "outputs": [
        {
          "internalType": "uint256",
          "name": "",
          "type": "uint256"
        }
      ],
      "stateMutability": "view",
      "type": "function"
    },
    {
      "inputs": [
        {
          "internalType": "string",
          "name": "firstName",
          "type": "string"
        },
        {
          "internalType": "string",
          "name": "lastName",
          "type": "string"
        },
        {
          "internalType": "string",
          "name": "location",
          "type": "string"
        },
        {
          "internalType": "uint256",
          "name": "gender",
          "type": "uint256"
        }
      ],
      "name": "createInstructorAccount",
      "outputs": [],
      "stateMutability": "nonpayable",
      "type": "function"
    },
    {
      "inputs": [
        {
          "internalType": "string",
          "name": "name",
          "type": "string"
        },
        {
          "internalType": "string",
          "name": "email",
          "type": "string"
        },
        {
          "internalType": "uint256",
          "name": "gender",
          "type": "uint256"
        }
      ],
      "name": "createStudentAccount",
      "outputs": [],
      "stateMutability": "nonpayable",
      "type": "function"
    },
    {
      "inputs": [
        {
          "internalType": "uint256",
          "name": "courseId",
          "type": "uint256"
        }
      ],
      "name": "purchaseCourse",
      "outputs": [],
      "stateMutability": "nonpayable",
      "type": "function"
    },
    {
      "inputs": [
        {
          "internalType": "uint256",
          "name": "courseId",
          "type": "uint256"
        },
        {
          "internalType": "uint256",
          "name": "sections",
          "type": "uint256"
        }
      ],
      "name": "rejectCourse",
      "outputs": [],
      "stateMutability": "nonpayable",
      "type": "function"
    },
    {
      "inputs": [
        {
          "internalType": "uint256",
          "name": "courseId",
          "type": "uint256"
        },
        {
          "internalType": "string",
          "name": "uri",
          "type": "string"
        }
      ],
      "name": "onCompletedCourse",
      "outputs": [],
      "stateMutability": "nonpayable",
      "type": "function"
    }
  ],
  "bytecode": "0x60806040526001600455600160055560016006556001600755686c6b935b8bbd4000006008553480156200003257600080fd5b50604051620060183803806200601883398181016040528101906200005891906200072e565b336000806101000a81548173ffffffffffffffffffffffffffffffffffffffff021916908373ffffffffffffffffffffffffffffffffffffffff16021790555082600160006101000a81548173ffffffffffffffffffffffffffffffffffffffff021916908373ffffffffffffffffffffffffffffffffffffffff16021790555081600260006101000a81548173ffffffffffffffffffffffffffffffffffffffff021916908373ffffffffffffffffffffffffffffffffffffffff16021790555080600360006101000a81548173ffffffffffffffffffffffffffffffffffffffff021916908373ffffffffffffffffffffffffffffffffffffffff1602179055506200016b6200017460201b60201c565b50505062000bea565b620001d46040518060400160405280600f81526020017f57656220446576656c6f706d656e74000000000000000000000000000000000081525060405180606001604052806027815260200162005fac60279139620005a660201b60201c565b620002506040518060400160405280600781526020017f436f6f6b696e67000000000000000000000000000000000000000000000000008152506040518060400160405280601f81526020017f2f696d616765732f63617465676f726965732f636f6f6b696e672e7765627000815250620005a660201b60201c565b620002cc6040518060400160405280600f81526020017f55492f55582044657369676e696e6700000000000000000000000000000000008152506040518060400160405280601d81526020017f2f696d616765732f63617465676f726965732f75692d75782e77656270000000815250620005a660201b60201c565b6200032c6040518060400160405280600c81526020017f334420416e696d6174696f6e000000000000000000000000000000000000000081525060405180606001604052806021815260200162005f6860219139620005a660201b60201c565b6200038c6040518060400160405280600c81526020017f496c6c757374726174696f6e000000000000000000000000000000000000000081525060405180606001604052806024815260200162005f4460249139620005a660201b60201c565b620003ec6040518060400160405280600c81526020017f4461746120536369656e6365000000000000000000000000000000000000000081525060405180606001604052806024815260200162005fd360249139620005a660201b60201c565b620004686040518060400160405280600881526020017f537065616b696e670000000000000000000000000000000000000000000000008152506040518060400160405280602081526020017f2f696d616765732f63617465676f726965732f737065616b696e672e77656270815250620005a660201b60201c565b620004e46040518060400160405280600581526020017f4d757369630000000000000000000000000000000000000000000000000000008152506040518060400160405280601d81526020017f2f696d616765732f63617465676f726965732f6d757369632e77656270000000815250620005a660201b60201c565b620005446040518060400160405280600b81526020017f50686f746f67726170687900000000000000000000000000000000000000000081525060405180606001604052806023815260200162005f8960239139620005a660201b60201c565b620005a46040518060400160405280600981526020017f4d61726b6574696e67000000000000000000000000000000000000000000000081525060405180606001604052806021815260200162005ff760219139620005a660201b60201c565b565b60008054906101000a900473ffffffffffffffffffffffffffffffffffffffff1673ffffffffffffffffffffffffffffffffffffffff163373ffffffffffffffffffffffffffffffffffffffff161462000637576040517f08c379a00000000000000000000000000000000000000000000000000000000081526004016200062e90620007eb565b60405180910390fd5b60405180606001604052806007548152602001838152602001828152506009600060075481526020019081526020016000206000820151816000015560208201518160010190816200068a919062000a87565b506040820151816002019081620006a2919062000a87565b5090505060076000815480929190620006bb9062000b9d565b91905055505050565b600080fd5b600073ffffffffffffffffffffffffffffffffffffffff82169050919050565b6000620006f682620006c9565b9050919050565b6200070881620006e9565b81146200071457600080fd5b50565b6000815190506200072881620006fd565b92915050565b6000806000606084860312156200074a5762000749620006c4565b5b60006200075a8682870162000717565b93505060206200076d8682870162000717565b9250506040620007808682870162000717565b9150509250925092565b600082825260208201905092915050565b7f21617574686f72697a6564000000000000000000000000000000000000000000600082015250565b6000620007d3600b836200078a565b9150620007e0826200079b565b602082019050919050565b600060208201905081810360008301526200080681620007c4565b9050919050565b600081519050919050565b7f4e487b7100000000000000000000000000000000000000000000000000000000600052604160045260246000fd5b7f4e487b7100000000000000000000000000000000000000000000000000000000600052602260045260246000fd5b600060028204905060018216806200088f57607f821691505b602082108103620008a557620008a462000847565b5b50919050565b60008190508160005260206000209050919050565b60006020601f8301049050919050565b600082821b905092915050565b6000600883026200090f7fffffffffffffffffffffffffffffffffffffffffffffffffffffffffffffffff82620008d0565b6200091b8683620008d0565b95508019841693508086168417925050509392505050565b6000819050919050565b6000819050919050565b600062000968620009626200095c8462000933565b6200093d565b62000933565b9050919050565b6000819050919050565b620009848362000947565b6200099c62000993826200096f565b848454620008dd565b825550505050565b600090565b620009b3620009a4565b620009c081848462000979565b505050565b5b81811015620009e857620009dc600082620009a9565b600181019050620009c6565b5050565b601f82111562000a375762000a0181620008ab565b62000a0c84620008c0565b8101602085101562000a1c578190505b62000a3462000a2b85620008c0565b830182620009c5565b50505b505050565b600082821c905092915050565b600062000a5c6000198460080262000a3c565b1980831691505092915050565b600062000a77838362000a49565b9150826002028217905092915050565b62000a92826200080d565b67ffffffffffffffff81111562000aae5762000aad62000818565b5b62000aba825462000876565b62000ac7828285620009ec565b600060209050601f83116001811462000aff576000841562000aea578287015190505b62000af6858262000a69565b86555062000b66565b601f19841662000b0f86620008ab565b60005b8281101562000b395784890151825560018201915060208501945060208101905062000b12565b8683101562000b59578489015162000b55601f89168262000a49565b8355505b6001600288020188555050505b505050505050565b7f4e487b7100000000000000000000000000000000000000000000000000000000600052601160045260246000fd5b600062000baa8262000933565b91507fffffffffffffffffffffffffffffffffffffffffffffffffffffffffffffffff820362000bdf5762000bde62000b6e565b5b600182019050919050565b61534a8062000bfa6000396000f3fe608060405234801561001057600080fd5b506004361061012c5760003560e01c8063a4adb24b116100ad578063d031a83411610071578063d031a83414610359578063d85d3d2714610389578063e4bcf87d146103a5578063fb9da76a146103c1578063fd95cc51146103dd5761012c565b8063a4adb24b1461029d578063a6c807a9146102b9578063b0f8158c146102ef578063c6cdbe5e1461030b578063cd1319381461033d5761012c565b80631bf703b2116100f45780631bf703b2146101d65780632a47d91c146101f25780635a6373841461022b5780637a1469a41461024757806396f979d2146102635761012c565b80630226b0b214610131578063097167ba146101645780630da079b41461018057806313eda8fc1461019c57806318222d5e146101a6575b600080fd5b61014b60048036038101906101469190614297565b610411565b60405161015b9493929190614376565b60405180910390f35b61017e600480360381019061017991906143d0565b6105f6565b005b61019a60048036038101906101959190614532565b61068e565b005b6101a4610ba9565b005b6101c060048036038101906101bb919061461b565b610c38565b6040516101cd919061465b565b60405180910390f35b6101f060048036038101906101eb9190614676565b610ca1565b005b61020c600480360381019061020791906146ee565b610db6565b6040516102229a99989796959493929190614736565b60405180910390f35b610245600480360381019061024091906147fc565b611147565b005b610261600480360381019061025c91906148b7565b611956565b005b61027d600480360381019061027891906143d0565b611a42565b6040516102949b9a99989796959493929190614922565b60405180910390f35b6102b760048036038101906102b29190614532565b611ce9565b005b6102d360048036038101906102ce91906146ee565b6123ba565b6040516102e697969594939291906149e9565b60405180910390f35b61030960048036038101906103049190614297565b61261c565b005b610325600480360381019061032091906143d0565b612c3a565b60405161033493929190614a74565b60405180910390f35b610357600480360381019061035291906143d0565b612d74565b005b610373600480360381019061036e91906146ee565b6130e9565b604051610380919061465b565b60405180910390f35b6103a3600480360381019061039e9190614ab9565b613138565b005b6103bf60048036038101906103ba9190614b02565b6131ca565b005b6103db60048036038101906103d69190614297565b613882565b005b6103f760048036038101906103f2919061461b565b614026565b604051610408959493929190614bd1565b60405180910390f35b600e602052816000526040600020818154811061042d57600080fd5b90600052602060002090600402016000915091505080600001549080600101805461045790614c53565b80601f016020809104026020016040519081016040528092919081815260200182805461048390614c53565b80156104d05780601f106104a5576101008083540402835291602001916104d0565b820191906000526020600020905b8154815290600101906020018083116104b357829003601f168201915b5050505050908060020180546104e590614c53565b80601f016020809104026020016040519081016040528092919081815260200182805461051190614c53565b801561055e5780601f106105335761010080835404028352916020019161055e565b820191906000526020600020905b81548152906001019060200180831161054157829003601f168201915b50505050509080600301805461057390614c53565b80601f016020809104026020016040519081016040528092919081815260200182805461059f90614c53565b80156105ec5780601f106105c1576101008083540402835291602001916105ec565b820191906000526020600020905b8154815290600101906020018083116105cf57829003601f168201915b5050505050905084565b60008054906101000a900473ffffffffffffffffffffffffffffffffffffffff1673ffffffffffffffffffffffffffffffffffffffff163373ffffffffffffffffffffffffffffffffffffffff1614610684576040517f08c379a000000000000000000000000000000000000000000000000000000000815260040161067b90614cd0565b60405180910390fd5b8060088190555050565b6000600b60003373ffffffffffffffffffffffffffffffffffffffff1673ffffffffffffffffffffffffffffffffffffffff1681526020019081526020016000206000015414801561072257506000600a60003373ffffffffffffffffffffffffffffffffffffffff1673ffffffffffffffffffffffffffffffffffffffff16815260200190815260200160002060000154145b610761576040517f08c379a000000000000000000000000000000000000000000000000000000000815260040161075890614cd0565b60405180910390fd5b6000600b60003373ffffffffffffffffffffffffffffffffffffffff1673ffffffffffffffffffffffffffffffffffffffff16815260200190815260200160002060405180610100016040529081600082015481526020016001820180546107c890614c53565b80601f01602080910402602001604051908101604052809291908181526020018280546107f490614c53565b80156108415780601f1061081657610100808354040283529160200191610841565b820191906000526020600020905b81548152906001019060200180831161082457829003601f168201915b5050505050815260200160028201805461085a90614c53565b80601f016020809104026020016040519081016040528092919081815260200182805461088690614c53565b80156108d35780601f106108a8576101008083540402835291602001916108d3565b820191906000526020600020905b8154815290600101906020018083116108b657829003601f168201915b50505050508152602001600382015481526020016004820180546108f690614c53565b80601f016020809104026020016040519081016040528092919081815260200182805461092290614c53565b801561096f5780601f106109445761010080835404028352916020019161096f565b820191906000526020600020905b81548152906001019060200180831161095257829003601f168201915b5050505050815260200160058201805461098890614c53565b80601f01602080910402602001604051908101604052809291908181526020018280546109b490614c53565b8015610a015780601f106109d657610100808354040283529160200191610a01565b820191906000526020600020905b8154815290600101906020018083116109e457829003601f168201915b505050505081526020016006820154815260200160078201805480602002602001604051908101604052809291908181526020018280548015610a6357602002820191906000526020600020905b815481526020019060010190808311610a4f575b50505050508152505090506040518061010001604052806005548152602001858152602001848152602001838152602001826080015181526020018260a0015181526020014281526020018260e00151815250600b60003373ffffffffffffffffffffffffffffffffffffffff1673ffffffffffffffffffffffffffffffffffffffff168152602001908152602001600020600082015181600001556020820151816001019081610b149190614e9c565b506040820151816002019081610b2a9190614e9c565b50606082015181600301556080820151816004019081610b4a9190614e9c565b5060a0820151816005019081610b609190614e9c565b5060c0820151816006015560e0820151816007019080519060200190610b87929190614119565b5090505060056000815480929190610b9e90614f9d565b919050555050505050565b600160009054906101000a900473ffffffffffffffffffffffffffffffffffffffff1673ffffffffffffffffffffffffffffffffffffffff16636a627842336040518263ffffffff1660e01b8152600401610c049190614fe5565b600060405180830381600087803b158015610c1e57600080fd5b505af1158015610c32573d6000803e3d6000fd5b50505050565b6000600a60008473ffffffffffffffffffffffffffffffffffffffff1673ffffffffffffffffffffffffffffffffffffffff1681526020019081526020016000206009018281548110610c8e57610c8d615000565b5b9060005260206000200154905092915050565b60008054906101000a900473ffffffffffffffffffffffffffffffffffffffff1673ffffffffffffffffffffffffffffffffffffffff163373ffffffffffffffffffffffffffffffffffffffff1614610d2f576040517f08c379a0000000000000000000000000000000000000000000000000000000008152600401610d2690614cd0565b60405180910390fd5b6040518060600160405280600754815260200183815260200182815250600960006007548152602001908152602001600020600082015181600001556020820151816001019081610d809190614e9c565b506040820151816002019081610d969190614e9c565b5090505060076000815480929190610dad90614f9d565b91905055505050565b600a602052806000526040600020600091509050806000015490806001018054610ddf90614c53565b80601f0160208091040260200160405190810160405280929190818152602001828054610e0b90614c53565b8015610e585780601f10610e2d57610100808354040283529160200191610e58565b820191906000526020600020905b815481529060010190602001808311610e3b57829003601f168201915b505050505090806002018054610e6d90614c53565b80601f0160208091040260200160405190810160405280929190818152602001828054610e9990614c53565b8015610ee65780601f10610ebb57610100808354040283529160200191610ee6565b820191906000526020600020905b815481529060010190602001808311610ec957829003601f168201915b505050505090806003018054610efb90614c53565b80601f0160208091040260200160405190810160405280929190818152602001828054610f2790614c53565b8015610f745780601f10610f4957610100808354040283529160200191610f74565b820191906000526020600020905b815481529060010190602001808311610f5757829003601f168201915b5050505050908060040154908060050160009054906101000a900460ff1690806006018054610fa290614c53565b80601f0160208091040260200160405190810160405280929190818152602001828054610fce90614c53565b801561101b5780601f10610ff05761010080835404028352916020019161101b565b820191906000526020600020905b815481529060010190602001808311610ffe57829003601f168201915b50505050509080600701805461103090614c53565b80601f016020809104026020016040519081016040528092919081815260200182805461105c90614c53565b80156110a95780601f1061107e576101008083540402835291602001916110a9565b820191906000526020600020905b81548152906001019060200180831161108c57829003601f168201915b5050505050908060080180546110be90614c53565b80601f01602080910402602001604051908101604052809291908181526020018280546110ea90614c53565b80156111375780601f1061110c57610100808354040283529160200191611137565b820191906000526020600020905b81548152906001019060200180831161111a57829003601f168201915b50505050509080600a015490508a565b6000600b60003373ffffffffffffffffffffffffffffffffffffffff1673ffffffffffffffffffffffffffffffffffffffff168152602001908152602001600020600001541480156111db57506000600a60003373ffffffffffffffffffffffffffffffffffffffff1673ffffffffffffffffffffffffffffffffffffffff16815260200190815260200160002060000154145b61121a576040517f08c379a000000000000000000000000000000000000000000000000000000000815260040161121190614cd0565b60405180910390fd5b600160009054906101000a900473ffffffffffffffffffffffffffffffffffffffff1673ffffffffffffffffffffffffffffffffffffffff16636c43a2ca33306008546040518463ffffffff1660e01b815260040161127b9392919061502f565b6020604051808303816000875af115801561129a573d6000803e3d6000fd5b505050506040513d601f19601f820116820180604052508101906112be9190615092565b50600160009054906101000a900473ffffffffffffffffffffffffffffffffffffffff1673ffffffffffffffffffffffffffffffffffffffff166323b872dd33306008546040518463ffffffff1660e01b81526004016113209392919061502f565b6020604051808303816000875af115801561133f573d6000803e3d6000fd5b505050506040513d601f19601f820116820180604052508101906113639190615092565b506000600a60003373ffffffffffffffffffffffffffffffffffffffff1673ffffffffffffffffffffffffffffffffffffffff16815260200190815260200160002060405180610160016040529081600082015481526020016001820180546113cb90614c53565b80601f01602080910402602001604051908101604052809291908181526020018280546113f790614c53565b80156114445780601f1061141957610100808354040283529160200191611444565b820191906000526020600020905b81548152906001019060200180831161142757829003601f168201915b5050505050815260200160028201805461145d90614c53565b80601f016020809104026020016040519081016040528092919081815260200182805461148990614c53565b80156114d65780601f106114ab576101008083540402835291602001916114d6565b820191906000526020600020905b8154815290600101906020018083116114b957829003601f168201915b505050505081526020016003820180546114ef90614c53565b80601f016020809104026020016040519081016040528092919081815260200182805461151b90614c53565b80156115685780601f1061153d57610100808354040283529160200191611568565b820191906000526020600020905b81548152906001019060200180831161154b57829003601f168201915b50505050508152602001600482015481526020016005820160009054906101000a900460ff161515151581526020016006820180546115a690614c53565b80601f01602080910402602001604051908101604052809291908181526020018280546115d290614c53565b801561161f5780601f106115f45761010080835404028352916020019161161f565b820191906000526020600020905b81548152906001019060200180831161160257829003601f168201915b5050505050815260200160078201805461163890614c53565b80601f016020809104026020016040519081016040528092919081815260200182805461166490614c53565b80156116b15780601f10611686576101008083540402835291602001916116b1565b820191906000526020600020905b81548152906001019060200180831161169457829003601f168201915b505050505081526020016008820180546116ca90614c53565b80601f01602080910402602001604051908101604052809291908181526020018280546116f690614c53565b80156117435780601f1061171857610100808354040283529160200191611743565b820191906000526020600020905b81548152906001019060200180831161172657829003601f168201915b505050505081526020016009820180548060200260200160405190810160405280929190818152602001828054801561179b57602002820191906000526020600020905b815481526020019060010190808311611787575b50505050508152602001600a82015481525050905060405180610160016040528060045481526020018681526020018581526020018481526020018381526020016000151581526020018260c0015181526020018260e0015181526020018261010001518152602001826101200151815260200142815250600a60003373ffffffffffffffffffffffffffffffffffffffff1673ffffffffffffffffffffffffffffffffffffffff1681526020019081526020016000206000820151816000015560208201518160010190816118719190614e9c565b5060408201518160020190816118879190614e9c565b50606082015181600301908161189d9190614e9c565b506080820151816004015560a08201518160050160006101000a81548160ff02191690831515021790555060c08201518160060190816118dd9190614e9c565b5060e08201518160070190816118f39190614e9c565b5061010082015181600801908161190a9190614e9c565b50610120820151816009019080519060200190611928929190614119565b5061014082015181600a01559050506004600081548092919061194a90614f9d565b91905055505050505050565b6000600b60003373ffffffffffffffffffffffffffffffffffffffff1673ffffffffffffffffffffffffffffffffffffffff16815260200190815260200160002060000154036119db576040517f08c379a00000000000000000000000000000000000000000000000000000000081526004016119d290614cd0565b60405180910390fd5b6000600c60008481526020019081526020016000206000015403611a34576040517f08c379a0000000000000000000000000000000000000000000000000000000008152600401611a2b9061510b565b60405180910390fd5b611a3e3382614086565b5050565b600c602052806000526040600020600091509050806000015490806001018054611a6b90614c53565b80601f0160208091040260200160405190810160405280929190818152602001828054611a9790614c53565b8015611ae45780601f10611ab957610100808354040283529160200191611ae4565b820191906000526020600020905b815481529060010190602001808311611ac757829003601f168201915b505050505090806002018054611af990614c53565b80601f0160208091040260200160405190810160405280929190818152602001828054611b2590614c53565b8015611b725780601f10611b4757610100808354040283529160200191611b72565b820191906000526020600020905b815481529060010190602001808311611b5557829003601f168201915b505050505090806003015490806004018054611b8d90614c53565b80601f0160208091040260200160405190810160405280929190818152602001828054611bb990614c53565b8015611c065780601f10611bdb57610100808354040283529160200191611c06565b820191906000526020600020905b815481529060010190602001808311611be957829003601f168201915b5050505050908060050160009054906101000a900473ffffffffffffffffffffffffffffffffffffffff1690806008015490806009018054611c4790614c53565b80601f0160208091040260200160405190810160405280929190818152602001828054611c7390614c53565b8015611cc05780601f10611c9557610100808354040283529160200191611cc0565b820191906000526020600020905b815481529060010190602001808311611ca357829003601f168201915b50505050509080600a0160009054906101000a900460ff169080600b01549080600c015490508b565b6000600a60003373ffffffffffffffffffffffffffffffffffffffff1673ffffffffffffffffffffffffffffffffffffffff1681526020019081526020016000206000015403611d6e576040517f08c379a0000000000000000000000000000000000000000000000000000000008152600401611d6590614cd0565b60405180910390fd5b6000600c60006006548152602001908152602001600020604051806101a001604052908160008201548152602001600182018054611dab90614c53565b80601f0160208091040260200160405190810160405280929190818152602001828054611dd790614c53565b8015611e245780601f10611df957610100808354040283529160200191611e24565b820191906000526020600020905b815481529060010190602001808311611e0757829003601f168201915b50505050508152602001600282018054611e3d90614c53565b80601f0160208091040260200160405190810160405280929190818152602001828054611e6990614c53565b8015611eb65780601f10611e8b57610100808354040283529160200191611eb6565b820191906000526020600020905b815481529060010190602001808311611e9957829003601f168201915b5050505050815260200160038201548152602001600482018054611ed990614c53565b80601f0160208091040260200160405190810160405280929190818152602001828054611f0590614c53565b8015611f525780601f10611f2757610100808354040283529160200191611f52565b820191906000526020600020905b815481529060010190602001808311611f3557829003601f168201915b505050505081526020016005820160009054906101000a900473ffffffffffffffffffffffffffffffffffffffff1673ffffffffffffffffffffffffffffffffffffffff1673ffffffffffffffffffffffffffffffffffffffff1681526020016006820180548060200260200160405190810160405280929190818152602001828054801561203657602002820191906000526020600020905b8160009054906101000a900473ffffffffffffffffffffffffffffffffffffffff1673ffffffffffffffffffffffffffffffffffffffff1681526020019060010190808311611fec575b505050505081526020016007820180548060200260200160405190810160405280929190818152602001828054801561208e57602002820191906000526020600020905b81548152602001906001019080831161207a575b50505050508152602001600882015481526020016009820180546120b190614c53565b80601f01602080910402602001604051908101604052809291908181526020018280546120dd90614c53565b801561212a5780601f106120ff5761010080835404028352916020019161212a565b820191906000526020600020905b81548152906001019060200180831161210d57829003601f168201915b50505050508152602001600a820160009054906101000a900460ff16151515158152602001600b8201548152602001600c820154815250509050604051806101a001604052806006548152602001858152602001848152602001838152602001826080015181526020013373ffffffffffffffffffffffffffffffffffffffff1681526020018260c0015181526020018260e00151815260200160008152602001826101200151815260200160001515815260200142815260200142815250600c6000600654815260200190815260200160002060008201518160000155602082015181600101908161221d9190614e9c565b5060408201518160020190816122339190614e9c565b506060820151816003015560808201518160040190816122539190614e9c565b5060a08201518160050160006101000a81548173ffffffffffffffffffffffffffffffffffffffff021916908373ffffffffffffffffffffffffffffffffffffffff16021790555060c08201518160060190805190602001906122b7929190614166565b5060e08201518160070190805190602001906122d4929190614119565b5061010082015181600801556101208201518160090190816122f69190614e9c565b5061014082015181600a0160006101000a81548160ff02191690831515021790555061016082015181600b015561018082015181600c0155905050600a60003373ffffffffffffffffffffffffffffffffffffffff1673ffffffffffffffffffffffffffffffffffffffff1681526020019081526020016000206009016006549080600181540180825580915050600190039060005260206000200160009091909190915055600660008154809291906123af90614f9d565b919050555050505050565b600b6020528060005260406000206000915090508060000154908060010180546123e390614c53565b80601f016020809104026020016040519081016040528092919081815260200182805461240f90614c53565b801561245c5780601f106124315761010080835404028352916020019161245c565b820191906000526020600020905b81548152906001019060200180831161243f57829003601f168201915b50505050509080600201805461247190614c53565b80601f016020809104026020016040519081016040528092919081815260200182805461249d90614c53565b80156124ea5780601f106124bf576101008083540402835291602001916124ea565b820191906000526020600020905b8154815290600101906020018083116124cd57829003601f168201915b50505050509080600301549080600401805461250590614c53565b80601f016020809104026020016040519081016040528092919081815260200182805461253190614c53565b801561257e5780601f106125535761010080835404028352916020019161257e565b820191906000526020600020905b81548152906001019060200180831161256157829003601f168201915b50505050509080600501805461259390614c53565b80601f01602080910402602001604051908101604052809291908181526020018280546125bf90614c53565b801561260c5780601f106125e15761010080835404028352916020019161260c565b820191906000526020600020905b8154815290600101906020018083116125ef57829003601f168201915b5050505050908060060154905087565b6000600a60003373ffffffffffffffffffffffffffffffffffffffff1673ffffffffffffffffffffffffffffffffffffffff16815260200190815260200160002060000154036126a1576040517f08c379a000000000000000000000000000000000000000000000000000000000815260040161269890614cd0565b60405180910390fd5b6000600c6000848152602001908152602001600020604051806101a0016040529081600082015481526020016001820180546126dc90614c53565b80601f016020809104026020016040519081016040528092919081815260200182805461270890614c53565b80156127555780601f1061272a57610100808354040283529160200191612755565b820191906000526020600020905b81548152906001019060200180831161273857829003601f168201915b5050505050815260200160028201805461276e90614c53565b80601f016020809104026020016040519081016040528092919081815260200182805461279a90614c53565b80156127e75780601f106127bc576101008083540402835291602001916127e7565b820191906000526020600020905b8154815290600101906020018083116127ca57829003601f168201915b505050505081526020016003820154815260200160048201805461280a90614c53565b80601f016020809104026020016040519081016040528092919081815260200182805461283690614c53565b80156128835780601f1061285857610100808354040283529160200191612883565b820191906000526020600020905b81548152906001019060200180831161286657829003601f168201915b505050505081526020016005820160009054906101000a900473ffffffffffffffffffffffffffffffffffffffff1673ffffffffffffffffffffffffffffffffffffffff1673ffffffffffffffffffffffffffffffffffffffff1681526020016006820180548060200260200160405190810160405280929190818152602001828054801561296757602002820191906000526020600020905b8160009054906101000a900473ffffffffffffffffffffffffffffffffffffffff1673ffffffffffffffffffffffffffffffffffffffff168152602001906001019080831161291d575b50505050508152602001600782018054806020026020016040519081016040528092919081815260200182805480156129bf57602002820191906000526020600020905b8154815260200190600101908083116129ab575b50505050508152602001600882015481526020016009820180546129e290614c53565b80601f0160208091040260200160405190810160405280929190818152602001828054612a0e90614c53565b8015612a5b5780601f10612a3057610100808354040283529160200191612a5b565b820191906000526020600020905b815481529060010190602001808311612a3e57829003601f168201915b50505050508152602001600a820160009054906101000a900460ff16151515158152602001600b8201548152602001600c8201548152505090506000816000015103612adc576040517f08c379a0000000000000000000000000000000000000000000000000000000008152600401612ad39061510b565b60405180910390fd5b3373ffffffffffffffffffffffffffffffffffffffff168160a0015173ffffffffffffffffffffffffffffffffffffffff1614612b4e576040517f08c379a0000000000000000000000000000000000000000000000000000000008152600401612b4590614cd0565b60405180910390fd5b6000600e60008581526020019081526020016000208381548110612b7557612b74615000565b5b90600052602060002090600402016000015403612bc7576040517f08c379a0000000000000000000000000000000000000000000000000000000008152600401612bbe9061510b565b60405180910390fd5b600e60008481526020019081526020016000208281548110612bec57612beb615000565b5b9060005260206000209060040201600080820160009055600182016000612c1391906141f0565b600282016000612c2391906141f0565b600382016000612c3391906141f0565b5050505050565b6009602052806000526040600020600091509050806000015490806001018054612c6390614c53565b80601f0160208091040260200160405190810160405280929190818152602001828054612c8f90614c53565b8015612cdc5780601f10612cb157610100808354040283529160200191612cdc565b820191906000526020600020905b815481529060010190602001808311612cbf57829003601f168201915b505050505090806002018054612cf190614c53565b80601f0160208091040260200160405190810160405280929190818152602001828054612d1d90614c53565b8015612d6a5780601f10612d3f57610100808354040283529160200191612d6a565b820191906000526020600020905b815481529060010190602001808311612d4d57829003601f168201915b5050505050905083565b6000600b60003373ffffffffffffffffffffffffffffffffffffffff1673ffffffffffffffffffffffffffffffffffffffff1681526020019081526020016000206000015403612df9576040517f08c379a0000000000000000000000000000000000000000000000000000000008152600401612df090614cd0565b60405180910390fd5b6000600c600083815260200190815260200160002090506000816000015403612e57576040517f08c379a0000000000000000000000000000000000000000000000000000000008152600401612e4e9061510b565b60405180910390fd5b600160009054906101000a900473ffffffffffffffffffffffffffffffffffffffff1673ffffffffffffffffffffffffffffffffffffffff16636c43a2ca333084600801546040518463ffffffff1660e01b8152600401612eba9392919061502f565b6020604051808303816000875af1158015612ed9573d6000803e3d6000fd5b505050506040513d601f19601f82011682018060405250810190612efd9190615092565b50600160009054906101000a900473ffffffffffffffffffffffffffffffffffffffff1673ffffffffffffffffffffffffffffffffffffffff166323b872dd333084600801546040518463ffffffff1660e01b8152600401612f619392919061502f565b6020604051808303816000875af1158015612f80573d6000803e3d6000fd5b505050506040513d601f19601f82011682018060405250810190612fa49190615092565b50600d60003373ffffffffffffffffffffffffffffffffffffffff1673ffffffffffffffffffffffffffffffffffffffff1681526020019081526020016000206040518060a0016040528084815260200160011515815260200183600801548152602001600081526020014281525090806001815401808255809150506001900390600052602060002090600502016000909190919091506000820151816000015560208201518160010160006101000a81548160ff02191690831515021790555060408201518160020155606082015181600301556080820151816004015550507fba05698ffe932ba01d3d70f62a2e48d6719cc5df3bdcf9118015af495c4a39b18160050160009054906101000a900473ffffffffffffffffffffffffffffffffffffffff1633846040516130dd9392919061502f565b60405180910390a15050565b6000600a60008373ffffffffffffffffffffffffffffffffffffffff1673ffffffffffffffffffffffffffffffffffffffff168152602001908152602001600020600901805490509050919050565b600260009054906101000a900473ffffffffffffffffffffffffffffffffffffffff1673ffffffffffffffffffffffffffffffffffffffff1663d0def52133836040518363ffffffff1660e01b815260040161319592919061512b565b600060405180830381600087803b1580156131af57600080fd5b505af11580156131c3573d6000803e3d6000fd5b5050505050565b6000600a60003373ffffffffffffffffffffffffffffffffffffffff1673ffffffffffffffffffffffffffffffffffffffff168152602001908152602001600020600001540361324f576040517f08c379a000000000000000000000000000000000000000000000000000000000815260040161324690614cd0565b60405180910390fd5b6000600c6000878152602001908152602001600020604051806101a00160405290816000820154815260200160018201805461328a90614c53565b80601f01602080910402602001604051908101604052809291908181526020018280546132b690614c53565b80156133035780601f106132d857610100808354040283529160200191613303565b820191906000526020600020905b8154815290600101906020018083116132e657829003601f168201915b5050505050815260200160028201805461331c90614c53565b80601f016020809104026020016040519081016040528092919081815260200182805461334890614c53565b80156133955780601f1061336a57610100808354040283529160200191613395565b820191906000526020600020905b81548152906001019060200180831161337857829003601f168201915b50505050508152602001600382015481526020016004820180546133b890614c53565b80601f01602080910402602001604051908101604052809291908181526020018280546133e490614c53565b80156134315780601f1061340657610100808354040283529160200191613431565b820191906000526020600020905b81548152906001019060200180831161341457829003601f168201915b505050505081526020016005820160009054906101000a900473ffffffffffffffffffffffffffffffffffffffff1673ffffffffffffffffffffffffffffffffffffffff1673ffffffffffffffffffffffffffffffffffffffff1681526020016006820180548060200260200160405190810160405280929190818152602001828054801561351557602002820191906000526020600020905b8160009054906101000a900473ffffffffffffffffffffffffffffffffffffffff1673ffffffffffffffffffffffffffffffffffffffff16815260200190600101908083116134cb575b505050505081526020016007820180548060200260200160405190810160405280929190818152602001828054801561356d57602002820191906000526020600020905b815481526020019060010190808311613559575b505050505081526020016008820154815260200160098201805461359090614c53565b80601f01602080910402602001604051908101604052809291908181526020018280546135bc90614c53565b80156136095780601f106135de57610100808354040283529160200191613609565b820191906000526020600020905b8154815290600101906020018083116135ec57829003601f168201915b50505050508152602001600a820160009054906101000a900460ff16151515158152602001600b8201548152602001600c820154815250509050600081600001510361368a576040517f08c379a00000000000000000000000000000000000000000000000000000000081526004016136819061510b565b60405180910390fd5b3373ffffffffffffffffffffffffffffffffffffffff168160a0015173ffffffffffffffffffffffffffffffffffffffff16146136fc576040517f08c379a00000000000000000000000000000000000000000000000000000000081526004016136f390614cd0565b60405180910390fd5b600082036137d657600e600087815260200190815260200160002060405180608001604052806001600e60008b815260200190815260200160002080549050613745919061515b565b81526020018781526020018681526020018581525090806001815401808255809150506001900390600052602060002090600402016000909190919091506000820151816000015560208201518160010190816137a29190614e9c565b5060408201518160020190816137b89190614e9c565b5060608201518160030190816137ce9190614e9c565b50505061387a565b604051806080016040528083815260200186815260200185815260200184815250600e6000888152602001908152602001600020838154811061381c5761381b615000565b5b90600052602060002090600402016000820151816000015560208201518160010190816138499190614e9c565b50604082015181600201908161385f9190614e9c565b5060608201518160030190816138759190614e9c565b509050505b505050505050565b6000600b60003373ffffffffffffffffffffffffffffffffffffffff1673ffffffffffffffffffffffffffffffffffffffff1681526020019081526020016000206000015403613907576040517f08c379a00000000000000000000000000000000000000000000000000000000081526004016138fe90614cd0565b60405180910390fd5b6000600d60003373ffffffffffffffffffffffffffffffffffffffff1673ffffffffffffffffffffffffffffffffffffffff168152602001908152602001600020838154811061395a57613959615000565b5b90600052602060002090600502016040518060a0016040529081600082015481526020016001820160009054906101000a900460ff16151515158152602001600282015481526020016003820154815260200160048201548152505090506000600c6000858152602001908152602001600020604051806101a0016040529081600082015481526020016001820180546139f390614c53565b80601f0160208091040260200160405190810160405280929190818152602001828054613a1f90614c53565b8015613a6c5780601f10613a4157610100808354040283529160200191613a6c565b820191906000526020600020905b815481529060010190602001808311613a4f57829003601f168201915b50505050508152602001600282018054613a8590614c53565b80601f0160208091040260200160405190810160405280929190818152602001828054613ab190614c53565b8015613afe5780601f10613ad357610100808354040283529160200191613afe565b820191906000526020600020905b815481529060010190602001808311613ae157829003601f168201915b5050505050815260200160038201548152602001600482018054613b2190614c53565b80601f0160208091040260200160405190810160405280929190818152602001828054613b4d90614c53565b8015613b9a5780601f10613b6f57610100808354040283529160200191613b9a565b820191906000526020600020905b815481529060010190602001808311613b7d57829003601f168201915b505050505081526020016005820160009054906101000a900473ffffffffffffffffffffffffffffffffffffffff1673ffffffffffffffffffffffffffffffffffffffff1673ffffffffffffffffffffffffffffffffffffffff16815260200160068201805480602002602001604051908101604052809291908181526020018280548015613c7e57602002820191906000526020600020905b8160009054906101000a900473ffffffffffffffffffffffffffffffffffffffff1673ffffffffffffffffffffffffffffffffffffffff1681526020019060010190808311613c34575b5050505050815260200160078201805480602002602001604051908101604052809291908181526020018280548015613cd657602002820191906000526020600020905b815481526020019060010190808311613cc2575b5050505050815260200160088201548152602001600982018054613cf990614c53565b80601f0160208091040260200160405190810160405280929190818152602001828054613d2590614c53565b8015613d725780601f10613d4757610100808354040283529160200191613d72565b820191906000526020600020905b815481529060010190602001808311613d5557829003601f168201915b50505050508152602001600a820160009054906101000a900460ff16151515158152602001600b8201548152602001600c8201548152505090506000816000015103613df3576040517f08c379a0000000000000000000000000000000000000000000000000000000008152600401613dea9061510b565b60405180910390fd5b6002826080015111613e3a576040517f08c379a0000000000000000000000000000000000000000000000000000000008152600401613e31906151db565b60405180910390fd5b6000838360600151613e4c91906151fb565b905060008111613e91576040517f08c379a0000000000000000000000000000000000000000000000000000000008152600401613e889061527b565b60405180910390fd5b600082610100015182613ea4919061529b565b9050600d60003373ffffffffffffffffffffffffffffffffffffffff1673ffffffffffffffffffffffffffffffffffffffff1681526020019081526020016000208681548110613ef757613ef6615000565b5b90600052602060002090600502016000808201600090556001820160006101000a81549060ff02191690556002820160009055600382016000905560048201600090555050600160009054906101000a900473ffffffffffffffffffffffffffffffffffffffff1673ffffffffffffffffffffffffffffffffffffffff166323b872dd3033846040518463ffffffff1660e01b8152600401613f9b9392919061502f565b6020604051808303816000875af1158015613fba573d6000803e3d6000fd5b505050506040513d601f19601f82011682018060405250810190613fde9190615092565b507fdc66f972de0418acb83d72185cdafd8f63206f06f26f08008effbcf11495f2fd33878660600151604051614016939291906152dd565b60405180910390a1505050505050565b600d602052816000526040600020818154811061404257600080fd5b9060005260206000209060050201600091509150508060000154908060010160009054906101000a900460ff16908060020154908060030154908060040154905085565b600360009054906101000a900473ffffffffffffffffffffffffffffffffffffffff1673ffffffffffffffffffffffffffffffffffffffff166304b444d983836040518363ffffffff1660e01b81526004016140e392919061512b565b600060405180830381600087803b1580156140fd57600080fd5b505af1158015614111573d6000803e3d6000fd5b505050505050565b828054828255906000526020600020908101928215614155579160200282015b82811115614154578251825591602001919060010190614139565b5b5090506141629190614230565b5090565b8280548282559060005260206000209081019282156141df579160200282015b828111156141de5782518260006101000a81548173ffffffffffffffffffffffffffffffffffffffff021916908373ffffffffffffffffffffffffffffffffffffffff16021790555091602001919060010190614186565b5b5090506141ec9190614230565b5090565b5080546141fc90614c53565b6000825580601f1061420e575061422d565b601f01602090049060005260206000209081019061422c9190614230565b5b50565b5b80821115614249576000816000905550600101614231565b5090565b6000604051905090565b600080fd5b600080fd5b6000819050919050565b61427481614261565b811461427f57600080fd5b50565b6000813590506142918161426b565b92915050565b600080604083850312156142ae576142ad614257565b5b60006142bc85828601614282565b92505060206142cd85828601614282565b9150509250929050565b6142e081614261565b82525050565b600081519050919050565b600082825260208201905092915050565b60005b83811015614320578082015181840152602081019050614305565b60008484015250505050565b6000601f19601f8301169050919050565b6000614348826142e6565b61435281856142f1565b9350614362818560208601614302565b61436b8161432c565b840191505092915050565b600060808201905061438b60008301876142d7565b818103602083015261439d818661433d565b905081810360408301526143b1818561433d565b905081810360608301526143c5818461433d565b905095945050505050565b6000602082840312156143e6576143e5614257565b5b60006143f484828501614282565b91505092915050565b600080fd5b600080fd5b7f4e487b7100000000000000000000000000000000000000000000000000000000600052604160045260246000fd5b61443f8261432c565b810181811067ffffffffffffffff8211171561445e5761445d614407565b5b80604052505050565b600061447161424d565b905061447d8282614436565b919050565b600067ffffffffffffffff82111561449d5761449c614407565b5b6144a68261432c565b9050602081019050919050565b82818337600083830152505050565b60006144d56144d084614482565b614467565b9050828152602081018484840111156144f1576144f0614402565b5b6144fc8482856144b3565b509392505050565b600082601f830112614519576145186143fd565b5b81356145298482602086016144c2565b91505092915050565b60008060006060848603121561454b5761454a614257565b5b600084013567ffffffffffffffff8111156145695761456861425c565b5b61457586828701614504565b935050602084013567ffffffffffffffff8111156145965761459561425c565b5b6145a286828701614504565b92505060406145b386828701614282565b9150509250925092565b600073ffffffffffffffffffffffffffffffffffffffff82169050919050565b60006145e8826145bd565b9050919050565b6145f8816145dd565b811461460357600080fd5b50565b600081359050614615816145ef565b92915050565b6000806040838503121561463257614631614257565b5b600061464085828601614606565b925050602061465185828601614282565b9150509250929050565b600060208201905061467060008301846142d7565b92915050565b6000806040838503121561468d5761468c614257565b5b600083013567ffffffffffffffff8111156146ab576146aa61425c565b5b6146b785828601614504565b925050602083013567ffffffffffffffff8111156146d8576146d761425c565b5b6146e485828601614504565b9150509250929050565b60006020828403121561470457614703614257565b5b600061471284828501614606565b91505092915050565b60008115159050919050565b6147308161471b565b82525050565b60006101408201905061474c600083018d6142d7565b818103602083015261475e818c61433d565b90508181036040830152614772818b61433d565b90508181036060830152614786818a61433d565b905061479560808301896142d7565b6147a260a0830188614727565b81810360c08301526147b4818761433d565b905081810360e08301526147c8818661433d565b90508181036101008301526147dd818561433d565b90506147ed6101208301846142d7565b9b9a5050505050505050505050565b6000806000806080858703121561481657614815614257565b5b600085013567ffffffffffffffff8111156148345761483361425c565b5b61484087828801614504565b945050602085013567ffffffffffffffff8111156148615761486061425c565b5b61486d87828801614504565b935050604085013567ffffffffffffffff81111561488e5761488d61425c565b5b61489a87828801614504565b92505060606148ab87828801614282565b91505092959194509250565b600080604083850312156148ce576148cd614257565b5b60006148dc85828601614282565b925050602083013567ffffffffffffffff8111156148fd576148fc61425c565b5b61490985828601614504565b9150509250929050565b61491c816145dd565b82525050565b600061016082019050614938600083018e6142d7565b818103602083015261494a818d61433d565b9050818103604083015261495e818c61433d565b905061496d606083018b6142d7565b818103608083015261497f818a61433d565b905061498e60a0830189614913565b61499b60c08301886142d7565b81810360e08301526149ad818761433d565b90506149bd610100830186614727565b6149cb6101208301856142d7565b6149d96101408301846142d7565b9c9b505050505050505050505050565b600060e0820190506149fe600083018a6142d7565b8181036020830152614a10818961433d565b90508181036040830152614a24818861433d565b9050614a3360608301876142d7565b8181036080830152614a45818661433d565b905081810360a0830152614a59818561433d565b9050614a6860c08301846142d7565b98975050505050505050565b6000606082019050614a8960008301866142d7565b8181036020830152614a9b818561433d565b90508181036040830152614aaf818461433d565b9050949350505050565b600060208284031215614acf57614ace614257565b5b600082013567ffffffffffffffff811115614aed57614aec61425c565b5b614af984828501614504565b91505092915050565b600080600080600060a08688031215614b1e57614b1d614257565b5b6000614b2c88828901614282565b955050602086013567ffffffffffffffff811115614b4d57614b4c61425c565b5b614b5988828901614504565b945050604086013567ffffffffffffffff811115614b7a57614b7961425c565b5b614b8688828901614504565b935050606086013567ffffffffffffffff811115614ba757614ba661425c565b5b614bb388828901614504565b9250506080614bc488828901614282565b9150509295509295909350565b600060a082019050614be660008301886142d7565b614bf36020830187614727565b614c0060408301866142d7565b614c0d60608301856142d7565b614c1a60808301846142d7565b9695505050505050565b7f4e487b7100000000000000000000000000000000000000000000000000000000600052602260045260246000fd5b60006002820490506001821680614c6b57607f821691505b602082108103614c7e57614c7d614c24565b5b50919050565b7f21617574686f72697a6564000000000000000000000000000000000000000000600082015250565b6000614cba600b836142f1565b9150614cc582614c84565b602082019050919050565b60006020820190508181036000830152614ce981614cad565b9050919050565b60008190508160005260206000209050919050565b60006020601f8301049050919050565b600082821b905092915050565b600060088302614d527fffffffffffffffffffffffffffffffffffffffffffffffffffffffffffffffff82614d15565b614d5c8683614d15565b95508019841693508086168417925050509392505050565b6000819050919050565b6000614d99614d94614d8f84614261565b614d74565b614261565b9050919050565b6000819050919050565b614db383614d7e565b614dc7614dbf82614da0565b848454614d22565b825550505050565b600090565b614ddc614dcf565b614de7818484614daa565b505050565b5b81811015614e0b57614e00600082614dd4565b600181019050614ded565b5050565b601f821115614e5057614e2181614cf0565b614e2a84614d05565b81016020851015614e39578190505b614e4d614e4585614d05565b830182614dec565b50505b505050565b600082821c905092915050565b6000614e7360001984600802614e55565b1980831691505092915050565b6000614e8c8383614e62565b9150826002028217905092915050565b614ea5826142e6565b67ffffffffffffffff811115614ebe57614ebd614407565b5b614ec88254614c53565b614ed3828285614e0f565b600060209050601f831160018114614f065760008415614ef4578287015190505b614efe8582614e80565b865550614f66565b601f198416614f1486614cf0565b60005b82811015614f3c57848901518255600182019150602085019450602081019050614f17565b86831015614f595784890151614f55601f891682614e62565b8355505b6001600288020188555050505b505050505050565b7f4e487b7100000000000000000000000000000000000000000000000000000000600052601160045260246000fd5b6000614fa882614261565b91507fffffffffffffffffffffffffffffffffffffffffffffffffffffffffffffffff8203614fda57614fd9614f6e565b5b600182019050919050565b6000602082019050614ffa6000830184614913565b92915050565b7f4e487b7100000000000000000000000000000000000000000000000000000000600052603260045260246000fd5b60006060820190506150446000830186614913565b6150516020830185614913565b61505e60408301846142d7565b949350505050565b61506f8161471b565b811461507a57600080fd5b50565b60008151905061508c81615066565b92915050565b6000602082840312156150a8576150a7614257565b5b60006150b68482850161507d565b91505092915050565b7f2165786973747300000000000000000000000000000000000000000000000000600082015250565b60006150f56007836142f1565b9150615100826150bf565b602082019050919050565b60006020820190508181036000830152615124816150e8565b9050919050565b60006040820190506151406000830185614913565b8181036020830152615152818461433d565b90509392505050565b600061516682614261565b915061517183614261565b925082820190508082111561518957615188614f6e565b5b92915050565b7f3e327765656b732e000000000000000000000000000000000000000000000000600082015250565b60006151c56008836142f1565b91506151d08261518f565b602082019050919050565b600060208201905081810360008301526151f4816151b8565b9050919050565b600061520682614261565b915061521183614261565b925082820390508181111561522957615228614f6e565b5b92915050565b7f21726566756e61626c6500000000000000000000000000000000000000000000600082015250565b6000615265600a836142f1565b91506152708261522f565b602082019050919050565b6000602082019050818103600083015261529481615258565b9050919050565b60006152a682614261565b91506152b183614261565b92508282026152bf81614261565b915082820484148315176152d6576152d5614f6e565b5b5092915050565b60006060820190506152f26000830186614913565b6152ff60208301856142d7565b61530c60408301846142d7565b94935050505056fea264697066735822122070747c91c5c1b7911c4912ceb2c184b66716e475db058b7f2a229c00c0c8c0e364736f6c634300081100332f696d616765732f63617465676f726965732f696c6c757374726174696f6e2e776562702f696d616765732f63617465676f726965732f616e696d6174696f6e2e776562702f696d616765732f63617465676f726965732f70686f746f6772617068792e776562702f696d616765732f63617465676f726965732f7765622d646576656c6f706d656e742e776562702f696d616765732f63617465676f726965732f646174612d736369656e63652e776562702f696d616765732f63617465676f726965732f6d61726b6574696e672e77656270",
  "immutableReferences": {},
  "source": "// SPDX-License-Identifier: GPL-3.0\n\npragma solidity >=0.7.0 <0.9.0;\n\nimport \"./BdlToken.sol\";\nimport \"./BdlNft.sol\";\nimport \"./BdlCertificate.sol\";\nimport \"./Models.sol\";\n\ncontract Buidl {\n    // state variables\n    address deployer;\n\n    BdlToken bdlToken;\n    BdlNft bdlNft;\n    BdlCertificate bdlCertificate;\n\n    uint256 contractInstructorID = 1;\n    uint256 contractStudentID = 1;\n    uint256 contractCourseID = 1;\n    uint256 contractCategoryID = 1;\n\n    // minimum to stake for a duration of 1year\n    uint256 instructorRegistrationFee = 2000 * 10**18;\n\n    mapping(uint => Models.Category) public categories;\n    mapping(address => Models.Instructor) public instructors;\n    mapping(address => Models.Student) public students;\n    mapping(uint => Models.Course) public courses;\n    mapping(address => Models.StudentCourse[]) public studentCourses;\n    mapping(uint => Models.CourseSection[]) public courseSections;\n\n    // contructor\n    constructor(\n        address _bdlToken,\n        address _bdlNft,\n        address _bdlCertificate\n    ) {\n        deployer = msg.sender;\n        bdlToken = BdlToken(_bdlToken);\n        bdlNft = BdlNft(_bdlNft);\n        bdlCertificate = BdlCertificate(_bdlCertificate);\n\n        addTestCategories();\n    }\n\n    // ========= Administation ========= //\n\n    function setInstructorRegistrationFee(uint256 amount) public onlyOwner {\n        instructorRegistrationFee = amount;\n    }\n\n    function addCategory(string memory name, string memory image)\n        public\n        onlyOwner\n    {\n        categories[contractCategoryID] = Models.Category(\n            contractCategoryID,\n            name,\n            image\n        );\n\n        contractCategoryID++;\n    }\n\n    // test\n    function mint(string memory uri) public {\n        bdlNft.mint(msg.sender, uri);\n    }\n\n    // ========== Testing ========== //\n    function faucetMint() public {\n        bdlToken.mint(msg.sender);\n    }\n\n    // ========= Instructors =========== //\n\n    function createCourse(\n        string memory name,\n        string memory description,\n        uint categoryId\n    ) public onlyInstructor {\n        Models.Course memory course = courses[contractCourseID];\n\n        // create new freah course\n        courses[contractCourseID] = Models.Course(\n            contractCourseID,\n            name,\n            description,\n            categoryId,\n            course.ipfsPhoto,\n            msg.sender,\n            course.students,\n            course.ratings,\n            0,\n            course.metadata,\n            false,\n            block.timestamp,\n            block.timestamp\n        );\n\n        // assign course ownership to intructor\n        instructors[msg.sender].courses.push(contractCourseID);\n\n        // increment id\n        contractCourseID++;\n    }\n\n    function addSectionToCourse(\n        uint courseId,\n        string memory title,\n        string memory src,\n        string memory content,\n        uint updateFor\n    ) public onlyInstructor {\n        Models.Course memory course = courses[courseId];\n\n        require(course.id != 0, \"!exists\");\n        require(course.instructor == msg.sender, \"!authorized\");\n\n        if (updateFor == 0) {\n            courseSections[courseId].push(\n                Models.CourseSection(\n                    courseSections[courseId].length + 1,\n                    title,\n                    src,\n                    content\n                )\n            );\n        } else {\n            courseSections[courseId][updateFor] = Models.CourseSection(\n                updateFor,\n                title,\n                src,\n                content\n            );\n        }\n    }\n\n    function deleteCourseSection(uint courseId, uint sectionIndex)\n        public\n        onlyInstructor\n    {\n        Models.Course memory course = courses[courseId];\n\n        require(course.id != 0, \"!exists\");\n        require(course.instructor == msg.sender, \"!authorized\");\n        require(courseSections[courseId][sectionIndex].id != 0, \"!exists\");\n\n        delete courseSections[courseId][sectionIndex];\n    }\n\n    function getInstructorCoursesLength(address instructor)\n        public\n        view\n        returns (uint)\n    {\n        return instructors[instructor].courses.length;\n    }\n\n    function getInstructorCourseIdAtIndex(address instructor, uint index)\n        public\n        view\n        returns (uint)\n    {\n        return instructors[instructor].courses[index];\n    }\n\n    function createInstructorAccount(\n        string memory firstName,\n        string memory lastName,\n        string memory location,\n        uint gender\n    ) public notAnyone {\n        // stake instruction fee\n        bdlToken.increaseAllowance(\n            msg.sender,\n            address(this),\n            instructorRegistrationFee\n        );\n\n        bdlToken.transferFrom(\n            msg.sender,\n            address(this),\n            instructorRegistrationFee\n        );\n\n        Models.Instructor memory instructor = instructors[msg.sender];\n\n        instructors[msg.sender] = Models.Instructor(\n            contractInstructorID,\n            firstName,\n            lastName,\n            location,\n            gender,\n            false,\n            instructor.ipfsPhoto,\n            instructor.twitter,\n            instructor.linkedin,\n            instructor.courses,\n            block.timestamp\n        );\n\n        contractInstructorID++;\n    }\n\n    // ========= Students ========== //\n\n    function createStudentAccount(\n        string memory name,\n        string memory email,\n        uint gender\n    ) public notAnyone {\n        Models.Student memory student = students[msg.sender];\n\n        students[msg.sender] = Models.Student(\n            contractStudentID,\n            name,\n            email,\n            gender,\n            student.ipfsPhoto,\n            student.country,\n            block.timestamp,\n            student.courses\n        );\n\n        contractStudentID++;\n    }\n\n    function purchaseCourse(uint courseId) public onlyStudent {\n        Models.Course storage course = courses[courseId];\n\n        require(course.id != 0, \"!exists\");\n\n        // lock the student funds to smart contract\n        bdlToken.increaseAllowance(msg.sender, address(this), course.price);\n        bdlToken.transferFrom(msg.sender, address(this), course.price);\n\n        // create course for student\n        studentCourses[msg.sender].push(\n            Models.StudentCourse(\n                courseId,\n                true,\n                course.price,\n                0,\n                block.timestamp\n            )\n        );\n\n        emit CoursePurchased(course.instructor, msg.sender, courseId);\n    }\n\n    function rejectCourse(uint courseId, uint sections) public onlyStudent {\n        Models.StudentCourse memory studentCourse = studentCourses[msg.sender][\n            courseId\n        ];\n\n        Models.Course memory course = courses[courseId];\n\n        require(course.id != 0, \"!exists\");\n\n        // check is course is not over 2 weeks\n        require(studentCourse.purchasedAt > 2, \">2weeks.\");\n\n        uint refundableSections = (studentCourse.sectionsViewed - sections);\n\n        require(refundableSections > 0, \"!refunable\");\n\n        uint256 refundableAmount = (refundableSections * course.price);\n\n        // terminate student course\n        delete studentCourses[msg.sender][courseId];\n\n        // refund the student\n        bdlToken.transferFrom(address(this), msg.sender, refundableAmount);\n\n        emit CourseRejected(msg.sender, courseId, studentCourse.sectionsViewed);\n    }\n\n    function onCompletedCourse(\n        uint courseId,\n        string memory uri\n    ) public onlyStudent {\n        require(courses[courseId].id != 0, \"!exists\");\n        // check if student has purchase the course\n        // require(studentCourses[msg.sender][] != 0, \"!exists\");\n        generateCerticate(msg.sender, uri);\n        // bdlNft.mint(msg.sender);\n    }\n\n    function generateCerticate(\n        address student,\n        string memory uri\n    ) private {\n        bdlCertificate.issue(student, uri);\n    }\n\n    modifier onlyInstructor() {\n        require(instructors[msg.sender].id != 0, \"!authorized\");\n        _;\n    }\n\n    modifier onlyStudent() {\n        require(students[msg.sender].id != 0, \"!authorized\");\n        _;\n    }\n\n    modifier onlyOwner() {\n        require(msg.sender == deployer, \"!authorized\");\n        _;\n    }\n\n    modifier notAnyone() {\n        require(\n            (students[msg.sender].id == 0 && instructors[msg.sender].id == 0),\n            \"!authorized\"\n        );\n        _;\n    }\n\n    // ========== events ========== //\n    event CourseCompletion(address student, uint courseId);\n    event CoursePurchased(address intructor, address student, uint courseId);\n    event CourseRejected(address student, uint courseId, uint sectionsViewed);\n\n    // ========== test =========== //\n    function addTestCategories() private {\n        addCategory(\n            \"Web Development\",\n            \"/images/categories/web-development.webp\"\n        );\n        addCategory(\"Cooking\", \"/images/categories/cooking.webp\");\n        addCategory(\"UI/UX Designing\", \"/images/categories/ui-ux.webp\");\n        addCategory(\"3D Animation\", \"/images/categories/animation.webp\");\n        addCategory(\"Illustration\", \"/images/categories/illustration.webp\");\n        addCategory(\"Data Science\", \"/images/categories/data-science.webp\");\n        addCategory(\"Speaking\", \"/images/categories/speaking.webp\");\n        addCategory(\"Music\", \"/images/categories/music.webp\");\n        addCategory(\"Photography\", \"/images/categories/photography.webp\");\n        addCategory(\"Marketing\", \"/images/categories/marketing.webp\");\n    }\n}\n",
  "sourcePath": "C:\\Users\\Arogundade Ibrahim\\Documents\\web3\\Buidl\\contracts\\Buidl.sol",
  "compiler": {
    "name": "solc",
    "version": "0.8.17+commit.8df45f5f.Emscripten.clang"
  },
  "schemaVersion": "3.4.10",
  "updatedAt": "2022-10-21T12:08:39.944Z",
  "devdoc": {
    "kind": "dev",
    "methods": {},
    "version": 1
  },
  "userdoc": {
    "kind": "user",
    "methods": {},
    "version": 1
  }
}