{
  "contractName": "Buidl",
  "abi": [
    {
      "inputs": [
        {
          "internalType": "address",
          "name": "bdlToken",
          "type": "address"
        },
        {
          "internalType": "address",
          "name": "bdlNft",
          "type": "address"
        },
        {
          "internalType": "address",
          "name": "bdlCertificate",
          "type": "address"
        },
        {
          "internalType": "address",
          "name": "bdlCourse",
          "type": "address"
        },
        {
          "internalType": "address",
          "name": "staking",
          "type": "address"
        }
      ],
      "stateMutability": "nonpayable",
      "type": "constructor"
    },
    {
      "anonymous": false,
      "inputs": [
        {
          "indexed": false,
          "internalType": "address",
          "name": "owner",
          "type": "address"
        },
        {
          "indexed": false,
          "internalType": "bool",
          "name": "verified",
          "type": "bool"
        }
      ],
      "name": "Creator",
      "type": "event"
    },
    {
      "anonymous": false,
      "inputs": [
        {
          "indexed": false,
          "internalType": "address",
          "name": "owner",
          "type": "address"
        },
        {
          "indexed": false,
          "internalType": "string",
          "name": "name",
          "type": "string"
        },
        {
          "indexed": false,
          "internalType": "string",
          "name": "photo",
          "type": "string"
        },
        {
          "indexed": false,
          "internalType": "bool",
          "name": "verified",
          "type": "bool"
        }
      ],
      "name": "User",
      "type": "event"
    },
    {
      "inputs": [
        {
          "internalType": "address",
          "name": "",
          "type": "address"
        }
      ],
      "name": "revenues",
      "outputs": [
        {
          "internalType": "uint256",
          "name": "unclaimed",
          "type": "uint256"
        },
        {
          "internalType": "uint256",
          "name": "claimable",
          "type": "uint256"
        },
        {
          "internalType": "uint256",
          "name": "claimed",
          "type": "uint256"
        }
      ],
      "stateMutability": "view",
      "type": "function",
      "constant": true
    },
    {
      "inputs": [
        {
          "internalType": "address",
          "name": "",
          "type": "address"
        }
      ],
      "name": "users",
      "outputs": [
        {
          "internalType": "uint256",
          "name": "id",
          "type": "uint256"
        },
        {
          "internalType": "bool",
          "name": "verified",
          "type": "bool"
        },
        {
          "internalType": "string",
          "name": "photo",
          "type": "string"
        },
        {
          "internalType": "uint256",
          "name": "createdAt",
          "type": "uint256"
        }
      ],
      "stateMutability": "view",
      "type": "function",
      "constant": true
    },
    {
      "inputs": [
        {
          "internalType": "string",
          "name": "name",
          "type": "string"
        },
        {
          "internalType": "string",
          "name": "photo",
          "type": "string"
        }
      ],
      "name": "setAccount",
      "outputs": [],
      "stateMutability": "nonpayable",
      "type": "function"
    },
    {
      "inputs": [
        {
          "internalType": "uint256",
          "name": "amount",
          "type": "uint256"
        }
      ],
      "name": "stake",
      "outputs": [],
      "stateMutability": "nonpayable",
      "type": "function"
    },
    {
      "inputs": [],
      "name": "unlockCreator",
      "outputs": [],
      "stateMutability": "nonpayable",
      "type": "function"
    },
    {
      "inputs": [],
      "name": "removeCreator",
      "outputs": [],
      "stateMutability": "nonpayable",
      "type": "function"
    },
    {
      "inputs": [
        {
          "internalType": "uint256",
          "name": "id",
          "type": "uint256"
        }
      ],
      "name": "subscribe",
      "outputs": [],
      "stateMutability": "nonpayable",
      "type": "function"
    },
    {
      "inputs": [
        {
          "internalType": "uint256",
          "name": "id",
          "type": "uint256"
        },
        {
          "internalType": "uint256",
          "name": "sId",
          "type": "uint256"
        }
      ],
      "name": "unSubscribe",
      "outputs": [],
      "stateMutability": "nonpayable",
      "type": "function"
    }
  ],
  "bytecode": "0x60a0604052600a600055686c6b935b8bbd400000600655600060075534801561002757600080fd5b50604051610f18380380610f18833981016040819052610046916100c5565b33608052600180546001600160a01b03199081166001600160a01b0396871617909155600280548216968616969096179095556003805486169385169390931790925560048054851691841691909117905560058054909316911617905561012a565b80516001600160a01b03811681146100c057600080fd5b919050565b600080600080600060a086880312156100dd57600080fd5b6100e6866100a9565b94506100f4602087016100a9565b9350610102604087016100a9565b9250610110606087016100a9565b915061011e608087016100a9565b90509295509295909350565b608051610dd661014260003960005050610dd66000f3fe608060405234801561001057600080fd5b50600436106100885760003560e01c806390bf70b01161005b57806390bf70b01461010c578063a694fc3a1461011f578063a87430ba14610132578063c193b2e41461015557600080fd5b80630f574ba71461008d57806340971e83146100a257806378ae98c8146100b55780637f26fc7d14610104575b600080fd5b6100a061009b366004610a1a565b61015d565b005b6100a06100b0366004610a33565b61030a565b6100e46100c3366004610a6d565b60096020526000908152604090208054600182015460029092015490919083565b604080519384526020840192909252908201526060015b60405180910390f35b6100a0610540565b6100a061011a366004610b34565b6105ff565b6100a061012d366004610a1a565b610659565b610145610140366004610a6d565b6107d1565b6040516100fb9493929190610bde565b6100a0610886565b600480546040517f59e6951d00000000000000000000000000000000000000000000000000000000815291820183905233602483015260009182916001600160a01b0316906359e6951d9060440160408051808303816000875af11580156101c9573d6000803e3d6000fd5b505050506040513d601f19601f820116820180604052508101906101ed9190610c10565b6001600160a01b03811660009081526009602052604081208054939550919350849261021a908490610c56565b909155505060025460405163e1f21c6760e01b8152336004820152306024820152604481018490526001600160a01b039091169063e1f21c6790606401600060405180830381600087803b15801561027157600080fd5b505af1158015610285573d6000803e3d6000fd5b50506002546040516323b872dd60e01b8152336004820152306024820152604481018690526001600160a01b0390911692506323b872dd91506064016020604051808303816000875af11580156102e0573d6000803e3d6000fd5b505050506040513d601f19601f820116820180604052508101906103049190610c6f565b50505050565b600480546040517fcc7a56a000000000000000000000000000000000000000000000000000000000815291820184905260248201839052336044830152600091829182916001600160a01b039091169063cc7a56a0906064016060604051808303816000875af1158015610382573d6000803e3d6000fd5b505050506040513d601f19601f820116820180604052508101906103a69190610c91565b9194509250905060006103b98483610cca565b905060006103c78286610ce9565b90506000816006546103d99190610cfc565b6103e4906064610cca565b6103ee9083610ce9565b6001600160a01b03861660009081526009602052604081208054929350839290919061041b908490610c56565b90915550506001600160a01b0385166000908152600960205260408120600101805483929061044b908490610c56565b909155505060025460405163e1f21c6760e01b8152306004820152336024820152604481018590526001600160a01b039091169063e1f21c6790606401600060405180830381600087803b1580156104a257600080fd5b505af11580156104b6573d6000803e3d6000fd5b50506002546040516323b872dd60e01b8152306004820152336024820152604481018790526001600160a01b0390911692506323b872dd91506064016020604051808303816000875af1158015610511573d6000803e3d6000fd5b505050506040513d601f19601f820116820180604052508101906105359190610c6f565b505050505050505050565b3360009081526008602052604090206001015460ff16156105a85760405162461bcd60e51b815260206004820152600b60248201527f21617574686f72697a656400000000000000000000000000000000000000000060448201526064015b60405180910390fd5b336000818152600860209081526040808320600101805460ff191690558051938452908301919091527fb5763ba23a8384e26e9f2f5bfcd8e3795e4248ce7bb99a61c9ee6488d352a5b191015b60405180910390a1565b33600081815260086020526040908190206001015490517f2d3804f6670a9e165ddef24bb7f7345753423a96b66b32c302cfefcda19ad4679261064d9290918691869160ff90911690610d1e565b60405180910390a15050565b60025460405163e1f21c6760e01b8152336004820152306024820152604481018390526001600160a01b039091169063e1f21c6790606401600060405180830381600087803b1580156106ab57600080fd5b505af11580156106bf573d6000803e3d6000fd5b50506002546040516323b872dd60e01b8152336004820152306024820152604481018590526001600160a01b0390911692506323b872dd91506064016020604051808303816000875af115801561071a573d6000803e3d6000fd5b505050506040513d601f19601f8201168201806040525081019061073e9190610c6f565b506005546007546040517fab84bb78000000000000000000000000000000000000000000000000000000008152336004820152602481018490526044810191909152600060648201526001600160a01b039091169063ab84bb7890608401600060405180830381600087803b1580156107b657600080fd5b505af11580156107ca573d6000803e3d6000fd5b5050505050565b600860205260009081526040902080546001820154600283018054929360ff909216926107fd90610d66565b80601f016020809104026020016040519081016040528092919081815260200182805461082990610d66565b80156108765780601f1061084b57610100808354040283529160200191610876565b820191906000526020600020905b81548152906001019060200180831161085957829003601f168201915b5050505050908060040154905084565b3360009081526008602052604090206001015460ff16156108e95760405162461bcd60e51b815260206004820152600b60248201527f21617574686f72697a6564000000000000000000000000000000000000000000604482015260640161059f565b6005546006546040517fde36071500000000000000000000000000000000000000000000000000000000815260048101919091523360248201526001600160a01b039091169063de360715906044016020604051808303816000875af1158015610957573d6000803e3d6000fd5b505050506040513d601f19601f8201168201806040525081019061097b9190610c6f565b6109c75760405162461bcd60e51b815260206004820152601860248201527f217374616b655f726571756972656d656e745f66697273740000000000000000604482015260640161059f565b336000818152600860209081526040918290206001908101805460ff1916821790558251938452908301527fb5763ba23a8384e26e9f2f5bfcd8e3795e4248ce7bb99a61c9ee6488d352a5b191016105f5565b600060208284031215610a2c57600080fd5b5035919050565b60008060408385031215610a4657600080fd5b50508035926020909101359150565b6001600160a01b0381168114610a6a57600080fd5b50565b600060208284031215610a7f57600080fd5b8135610a8a81610a55565b9392505050565b634e487b7160e01b600052604160045260246000fd5b600082601f830112610ab857600080fd5b813567ffffffffffffffff80821115610ad357610ad3610a91565b604051601f8301601f19908116603f01168101908282118183101715610afb57610afb610a91565b81604052838152866020858801011115610b1457600080fd5b836020870160208301376000602085830101528094505050505092915050565b60008060408385031215610b4757600080fd5b823567ffffffffffffffff80821115610b5f57600080fd5b610b6b86838701610aa7565b93506020850135915080821115610b8157600080fd5b50610b8e85828601610aa7565b9150509250929050565b6000815180845260005b81811015610bbe57602081850181015186830182015201610ba2565b506000602082860101526020601f19601f83011685010191505092915050565b8481528315156020820152608060408201526000610bff6080830185610b98565b905082606083015295945050505050565b60008060408385031215610c2357600080fd5b825191506020830151610c3581610a55565b809150509250929050565b634e487b7160e01b600052601160045260246000fd5b80820180821115610c6957610c69610c40565b92915050565b600060208284031215610c8157600080fd5b81518015158114610a8a57600080fd5b600080600060608486031215610ca657600080fd5b835192506020840151610cb881610a55565b80925050604084015190509250925092565b6000816000190483118215151615610ce457610ce4610c40565b500290565b81810381811115610c6957610c69610c40565b600082610d1957634e487b7160e01b600052601260045260246000fd5b500490565b6001600160a01b0385168152608060208201526000610d406080830186610b98565b8281036040840152610d528186610b98565b915050821515606083015295945050505050565b600181811c90821680610d7a57607f821691505b602082108103610d9a57634e487b7160e01b600052602260045260246000fd5b5091905056fea2646970667358221220e1c0eccb4efd21ae7a5f346131310d4ab34d745ad66e7f80950fe262be3fcea264736f6c63430008100033",
  "immutableReferences": {},
  "source": "// SPDX-License-Identifier: GPL-3.0\npragma solidity >=0.7.0 <0.9.0;\n\nimport {BdlNft} from \"./BdlNft.sol\";\nimport {BdlCertificate} from \"./BdlCertificate.sol\";\nimport {Models} from \"./base/Models.sol\";\nimport {BdlToken} from \"./BdlToken.sol\";\nimport {BdlCourse} from \"./BdlCourse.sol\";\nimport {Staking} from \"./Staking.sol\";\n\ncontract Buidl {\n    address private immutable deployer;\n\n    /* fee charged on every succesful subscription made */\n    uint256 private subscriptionFee = 10; // percentage rate\n\n    BdlNft private _bdlNft; // nft reward (coupon) contract\n    BdlToken private _bdlToken; // erc20(streamable token) contract\n    BdlCertificate private _bdlCertificate; // erc4973 certificate contract\n    BdlCourse private _bdlCourse; // course contract\n    Staking private _staking; // staking contract\n\n    // creators requirement\n    // these requirement helps us to filter fuds\n    // and abuse of the ecosystem\n    uint256 private creatorStakingFee = 2000 * 10**18;\n    uint256 private creatorStakingDuration = 365 * 0;\n\n    // ecosystem users\n    mapping(address => Models.User) public users;\n    mapping(address => Models.Revenue) public revenues;\n\n    // contructor\n    constructor(\n        address bdlToken,\n        address bdlNft,\n        address bdlCertificate,\n        address bdlCourse,\n        address staking\n    ) {\n        deployer = msg.sender;\n\n        _bdlNft = BdlNft(bdlNft);\n        _bdlToken = BdlToken(bdlToken);\n        _bdlCertificate = BdlCertificate(bdlCertificate);\n        _bdlCourse = BdlCourse(bdlCourse);\n        _staking = Staking(staking);\n    }\n\n    /* creates user metadata */\n    function setAccount(string memory name, string memory photo) public {\n        emit User(msg.sender, name, photo, users[msg.sender].verified);\n    }\n\n    /* stake in the smart contract */\n    function stake(uint256 amount) public {\n        _bdlToken.approve(msg.sender, address(this), amount);\n        _bdlToken.transferFrom(msg.sender, address(this), amount);\n        _staking.stake(msg.sender, amount, creatorStakingDuration, 0);\n    }\n\n    /* unlock creator */\n    function unlockCreator() public notVerified {\n        // check if user has staked min requirement\n        require(\n            _staking.hasStaked(creatorStakingFee, msg.sender),\n            \"!stake_requirement_first\"\n        );\n\n        users[msg.sender].verified = true;\n        emit Creator(msg.sender, true);\n    }\n\n    /* remove creator */\n    function removeCreator() public notVerified {\n        users[msg.sender].verified = false;\n        emit Creator(msg.sender, false);\n    }\n\n    /* subscribe to a course */\n    /* params course id */\n    function subscribe(uint id) public {\n        (uint256 price, address creator) = _bdlCourse.subscribe(id, msg.sender);\n\n        /* payment are locked in the smart contract */\n        /* the course creator will be able to claim it after two weeks */\n        /* if the course wasn't refunded by the subscriber */\n\n        /* increase creator's unclaimed revenue */\n        revenues[creator].unclaimed += price;\n\n        _bdlToken.approve(msg.sender, address(this), price);\n        _bdlToken.transferFrom(msg.sender, address(this), price);\n    }\n\n    /* subscribe to a course */\n    /* params course id, subscription id, refundable percentage */\n    function unSubscribe(\n        uint id,\n        uint sId\n    ) public {\n        (uint256 price, address creator, uint weight) = _bdlCourse.unSubscribe(\n            id,\n            sId,\n            msg.sender\n        );\n\n        uint256 refundable = weight * price; /* amount learner will receive back */\n        uint256 nonRefundable = (price - refundable); /* not refundable due to learner activity on the course */\n        uint256 creatorRevenue = nonRefundable -\n            ((creatorStakingFee / nonRefundable) * 100); /* amount creator will earn */\n\n        /* increase creator's unclaimed & claimable revenue */\n        revenues[creator].unclaimed += creatorRevenue;\n        revenues[creator].claimable += creatorRevenue;\n\n        _bdlToken.approve(address(this), msg.sender, refundable);\n        _bdlToken.transferFrom(address(this), msg.sender, refundable);\n    }\n\n    modifier onlyVerified() {\n        /* only account that has staked atleast 2000 BDL token */\n        require(users[msg.sender].verified, \"!authorized\");\n        _;\n    }\n\n    modifier notVerified() {\n        /* only account that hasn't staked atleast 2000 BDL token */\n        require(!users[msg.sender].verified, \"!authorized\");\n        _;\n    }\n\n    // == events == //\n    event User(address owner, string name, string photo, bool verified);\n    event Creator(address owner, bool verified);\n}\n",
  "sourcePath": "C:\\Users\\Arogundade Ibrahim\\Documents\\web3\\Buidl\\contracts\\Buidl.sol",
  "compiler": {
    "name": "solc",
    "version": "0.8.16+commit.07a7930e.Emscripten.clang"
  },
  "schemaVersion": "3.4.10",
  "updatedAt": "2022-10-30T06:47:57.037Z",
  "networkType": "ethereum",
  "devdoc": {
    "kind": "dev",
    "methods": {},
    "version": 1
  },
  "userdoc": {
    "kind": "user",
    "methods": {},
    "version": 1
  }
}