{
  "contractName": "Buidl",
  "abi": [
    {
      "inputs": [
        {
          "internalType": "address",
          "name": "_bdlToken",
          "type": "address"
        },
        {
          "internalType": "address",
          "name": "_bdlNft",
          "type": "address"
        },
        {
          "internalType": "address",
          "name": "_bdlCertificate",
          "type": "address"
        }
      ],
      "stateMutability": "nonpayable",
      "type": "constructor"
    },
    {
      "anonymous": false,
      "inputs": [
        {
          "indexed": false,
          "internalType": "address",
          "name": "student",
          "type": "address"
        },
        {
          "indexed": false,
          "internalType": "uint256",
          "name": "courseId",
          "type": "uint256"
        }
      ],
      "name": "CourseCompletion",
      "type": "event"
    },
    {
      "anonymous": false,
      "inputs": [
        {
          "indexed": false,
          "internalType": "address",
          "name": "intructor",
          "type": "address"
        },
        {
          "indexed": false,
          "internalType": "address",
          "name": "student",
          "type": "address"
        },
        {
          "indexed": false,
          "internalType": "uint256",
          "name": "courseId",
          "type": "uint256"
        }
      ],
      "name": "CoursePurchased",
      "type": "event"
    },
    {
      "anonymous": false,
      "inputs": [
        {
          "indexed": false,
          "internalType": "address",
          "name": "student",
          "type": "address"
        },
        {
          "indexed": false,
          "internalType": "uint256",
          "name": "courseId",
          "type": "uint256"
        },
        {
          "indexed": false,
          "internalType": "uint256",
          "name": "sectionsViewed",
          "type": "uint256"
        }
      ],
      "name": "CourseRejected",
      "type": "event"
    },
    {
      "inputs": [
        {
          "internalType": "uint256",
          "name": "",
          "type": "uint256"
        }
      ],
      "name": "categories",
      "outputs": [
        {
          "internalType": "uint256",
          "name": "id",
          "type": "uint256"
        },
        {
          "internalType": "string",
          "name": "name",
          "type": "string"
        },
        {
          "internalType": "string",
          "name": "image",
          "type": "string"
        }
      ],
      "stateMutability": "view",
      "type": "function"
    },
    {
      "inputs": [
        {
          "internalType": "uint256",
          "name": "",
          "type": "uint256"
        },
        {
          "internalType": "uint256",
          "name": "",
          "type": "uint256"
        }
      ],
      "name": "courseSections",
      "outputs": [
        {
          "internalType": "uint256",
          "name": "id",
          "type": "uint256"
        },
        {
          "internalType": "string",
          "name": "title",
          "type": "string"
        },
        {
          "internalType": "string",
          "name": "src",
          "type": "string"
        },
        {
          "internalType": "string",
          "name": "content",
          "type": "string"
        }
      ],
      "stateMutability": "view",
      "type": "function"
    },
    {
      "inputs": [
        {
          "internalType": "uint256",
          "name": "",
          "type": "uint256"
        }
      ],
      "name": "courses",
      "outputs": [
        {
          "internalType": "uint256",
          "name": "id",
          "type": "uint256"
        },
        {
          "internalType": "string",
          "name": "name",
          "type": "string"
        },
        {
          "internalType": "string",
          "name": "description",
          "type": "string"
        },
        {
          "internalType": "uint256",
          "name": "categoryId",
          "type": "uint256"
        },
        {
          "internalType": "string",
          "name": "ipfsPhoto",
          "type": "string"
        },
        {
          "internalType": "address",
          "name": "instructor",
          "type": "address"
        },
        {
          "internalType": "uint256",
          "name": "price",
          "type": "uint256"
        },
        {
          "internalType": "string",
          "name": "metadata",
          "type": "string"
        },
        {
          "internalType": "bool",
          "name": "isPublished",
          "type": "bool"
        },
        {
          "internalType": "uint256",
          "name": "createdAt",
          "type": "uint256"
        },
        {
          "internalType": "uint256",
          "name": "updatedAt",
          "type": "uint256"
        }
      ],
      "stateMutability": "view",
      "type": "function"
    },
    {
      "inputs": [
        {
          "internalType": "address",
          "name": "",
          "type": "address"
        }
      ],
      "name": "instructors",
      "outputs": [
        {
          "internalType": "uint256",
          "name": "id",
          "type": "uint256"
        },
        {
          "internalType": "string",
          "name": "firstName",
          "type": "string"
        },
        {
          "internalType": "string",
          "name": "lastName",
          "type": "string"
        },
        {
          "internalType": "string",
          "name": "location",
          "type": "string"
        },
        {
          "internalType": "uint256",
          "name": "gender",
          "type": "uint256"
        },
        {
          "internalType": "bool",
          "name": "isVerified",
          "type": "bool"
        },
        {
          "internalType": "string",
          "name": "ipfsPhoto",
          "type": "string"
        },
        {
          "internalType": "string",
          "name": "twitter",
          "type": "string"
        },
        {
          "internalType": "string",
          "name": "linkedin",
          "type": "string"
        },
        {
          "internalType": "uint256",
          "name": "createdAt",
          "type": "uint256"
        }
      ],
      "stateMutability": "view",
      "type": "function"
    },
    {
      "inputs": [
        {
          "internalType": "address",
          "name": "",
          "type": "address"
        },
        {
          "internalType": "uint256",
          "name": "",
          "type": "uint256"
        }
      ],
      "name": "studentCourses",
      "outputs": [
        {
          "internalType": "uint256",
          "name": "courseId",
          "type": "uint256"
        },
        {
          "internalType": "bool",
          "name": "isActive",
          "type": "bool"
        },
        {
          "internalType": "uint256",
          "name": "unlocked",
          "type": "uint256"
        },
        {
          "internalType": "uint256",
          "name": "sectionsViewed",
          "type": "uint256"
        },
        {
          "internalType": "uint256",
          "name": "purchasedAt",
          "type": "uint256"
        }
      ],
      "stateMutability": "view",
      "type": "function"
    },
    {
      "inputs": [
        {
          "internalType": "address",
          "name": "",
          "type": "address"
        }
      ],
      "name": "students",
      "outputs": [
        {
          "internalType": "uint256",
          "name": "id",
          "type": "uint256"
        },
        {
          "internalType": "string",
          "name": "name",
          "type": "string"
        },
        {
          "internalType": "string",
          "name": "emailAddress",
          "type": "string"
        },
        {
          "internalType": "uint256",
          "name": "gender",
          "type": "uint256"
        },
        {
          "internalType": "string",
          "name": "ipfsPhoto",
          "type": "string"
        },
        {
          "internalType": "string",
          "name": "country",
          "type": "string"
        },
        {
          "internalType": "uint256",
          "name": "createdAt",
          "type": "uint256"
        }
      ],
      "stateMutability": "view",
      "type": "function"
    },
    {
      "inputs": [
        {
          "internalType": "uint256",
          "name": "amount",
          "type": "uint256"
        }
      ],
      "name": "setInstructorRegistrationFee",
      "outputs": [],
      "stateMutability": "nonpayable",
      "type": "function"
    },
    {
      "inputs": [
        {
          "internalType": "string",
          "name": "name",
          "type": "string"
        },
        {
          "internalType": "string",
          "name": "image",
          "type": "string"
        }
      ],
      "name": "addCategory",
      "outputs": [],
      "stateMutability": "nonpayable",
      "type": "function"
    },
    {
      "inputs": [],
      "name": "mint",
      "outputs": [],
      "stateMutability": "nonpayable",
      "type": "function"
    },
    {
      "inputs": [],
      "name": "faucetMint",
      "outputs": [],
      "stateMutability": "nonpayable",
      "type": "function"
    },
    {
      "inputs": [
        {
          "internalType": "string",
          "name": "name",
          "type": "string"
        },
        {
          "internalType": "string",
          "name": "description",
          "type": "string"
        },
        {
          "internalType": "uint256",
          "name": "categoryId",
          "type": "uint256"
        }
      ],
      "name": "createCourse",
      "outputs": [],
      "stateMutability": "nonpayable",
      "type": "function"
    },
    {
      "inputs": [
        {
          "internalType": "uint256",
          "name": "courseId",
          "type": "uint256"
        },
        {
          "internalType": "string",
          "name": "title",
          "type": "string"
        },
        {
          "internalType": "string",
          "name": "src",
          "type": "string"
        },
        {
          "internalType": "string",
          "name": "content",
          "type": "string"
        },
        {
          "internalType": "uint256",
          "name": "updateFor",
          "type": "uint256"
        }
      ],
      "name": "addSectionToCourse",
      "outputs": [],
      "stateMutability": "nonpayable",
      "type": "function"
    },
    {
      "inputs": [
        {
          "internalType": "uint256",
          "name": "courseId",
          "type": "uint256"
        },
        {
          "internalType": "uint256",
          "name": "sectionIndex",
          "type": "uint256"
        }
      ],
      "name": "deleteCourseSection",
      "outputs": [],
      "stateMutability": "nonpayable",
      "type": "function"
    },
    {
      "inputs": [
        {
          "internalType": "address",
          "name": "instructor",
          "type": "address"
        }
      ],
      "name": "getInstructorCoursesLength",
      "outputs": [
        {
          "internalType": "uint256",
          "name": "",
          "type": "uint256"
        }
      ],
      "stateMutability": "view",
      "type": "function"
    },
    {
      "inputs": [
        {
          "internalType": "address",
          "name": "instructor",
          "type": "address"
        },
        {
          "internalType": "uint256",
          "name": "index",
          "type": "uint256"
        }
      ],
      "name": "getInstructorCourseIdAtIndex",
      "outputs": [
        {
          "internalType": "uint256",
          "name": "",
          "type": "uint256"
        }
      ],
      "stateMutability": "view",
      "type": "function"
    },
    {
      "inputs": [
        {
          "internalType": "string",
          "name": "firstName",
          "type": "string"
        },
        {
          "internalType": "string",
          "name": "lastName",
          "type": "string"
        },
        {
          "internalType": "string",
          "name": "location",
          "type": "string"
        },
        {
          "internalType": "uint256",
          "name": "gender",
          "type": "uint256"
        }
      ],
      "name": "createInstructorAccount",
      "outputs": [],
      "stateMutability": "nonpayable",
      "type": "function"
    },
    {
      "inputs": [
        {
          "internalType": "string",
          "name": "name",
          "type": "string"
        },
        {
          "internalType": "string",
          "name": "email",
          "type": "string"
        },
        {
          "internalType": "uint256",
          "name": "gender",
          "type": "uint256"
        }
      ],
      "name": "createStudentAccount",
      "outputs": [],
      "stateMutability": "nonpayable",
      "type": "function"
    },
    {
      "inputs": [
        {
          "internalType": "uint256",
          "name": "courseId",
          "type": "uint256"
        }
      ],
      "name": "purchaseCourse",
      "outputs": [],
      "stateMutability": "nonpayable",
      "type": "function"
    },
    {
      "inputs": [
        {
          "internalType": "uint256",
          "name": "courseId",
          "type": "uint256"
        },
        {
          "internalType": "uint256",
          "name": "sections",
          "type": "uint256"
        }
      ],
      "name": "rejectCourse",
      "outputs": [],
      "stateMutability": "nonpayable",
      "type": "function"
    },
    {
      "inputs": [
        {
          "internalType": "uint256",
          "name": "courseId",
          "type": "uint256"
        },
        {
          "internalType": "string",
          "name": "uri",
          "type": "string"
        }
      ],
      "name": "onCompletedCourse",
      "outputs": [],
      "stateMutability": "nonpayable",
      "type": "function"
    }
  ],
  "bytecode": "0x60806040526001600455600160055560016006556001600755686c6b935b8bbd4000006008553480156200003257600080fd5b5060405162005fba38038062005fba83398181016040528101906200005891906200072e565b336000806101000a81548173ffffffffffffffffffffffffffffffffffffffff021916908373ffffffffffffffffffffffffffffffffffffffff16021790555082600160006101000a81548173ffffffffffffffffffffffffffffffffffffffff021916908373ffffffffffffffffffffffffffffffffffffffff16021790555081600260006101000a81548173ffffffffffffffffffffffffffffffffffffffff021916908373ffffffffffffffffffffffffffffffffffffffff16021790555080600360006101000a81548173ffffffffffffffffffffffffffffffffffffffff021916908373ffffffffffffffffffffffffffffffffffffffff1602179055506200016b6200017460201b60201c565b50505062000bea565b620001d46040518060400160405280600f81526020017f57656220446576656c6f706d656e74000000000000000000000000000000000081525060405180606001604052806027815260200162005f4e60279139620005a660201b60201c565b620002506040518060400160405280600781526020017f436f6f6b696e67000000000000000000000000000000000000000000000000008152506040518060400160405280601f81526020017f2f696d616765732f63617465676f726965732f636f6f6b696e672e7765627000815250620005a660201b60201c565b620002cc6040518060400160405280600f81526020017f55492f55582044657369676e696e6700000000000000000000000000000000008152506040518060400160405280601d81526020017f2f696d616765732f63617465676f726965732f75692d75782e77656270000000815250620005a660201b60201c565b6200032c6040518060400160405280600c81526020017f334420416e696d6174696f6e000000000000000000000000000000000000000081525060405180606001604052806021815260200162005f0a60219139620005a660201b60201c565b6200038c6040518060400160405280600c81526020017f496c6c757374726174696f6e000000000000000000000000000000000000000081525060405180606001604052806024815260200162005ee660249139620005a660201b60201c565b620003ec6040518060400160405280600c81526020017f4461746120536369656e6365000000000000000000000000000000000000000081525060405180606001604052806024815260200162005f7560249139620005a660201b60201c565b620004686040518060400160405280600881526020017f537065616b696e670000000000000000000000000000000000000000000000008152506040518060400160405280602081526020017f2f696d616765732f63617465676f726965732f737065616b696e672e77656270815250620005a660201b60201c565b620004e46040518060400160405280600581526020017f4d757369630000000000000000000000000000000000000000000000000000008152506040518060400160405280601d81526020017f2f696d616765732f63617465676f726965732f6d757369632e77656270000000815250620005a660201b60201c565b620005446040518060400160405280600b81526020017f50686f746f67726170687900000000000000000000000000000000000000000081525060405180606001604052806023815260200162005f2b60239139620005a660201b60201c565b620005a46040518060400160405280600981526020017f4d61726b6574696e67000000000000000000000000000000000000000000000081525060405180606001604052806021815260200162005f9960219139620005a660201b60201c565b565b60008054906101000a900473ffffffffffffffffffffffffffffffffffffffff1673ffffffffffffffffffffffffffffffffffffffff163373ffffffffffffffffffffffffffffffffffffffff161462000637576040517f08c379a00000000000000000000000000000000000000000000000000000000081526004016200062e90620007eb565b60405180910390fd5b60405180606001604052806007548152602001838152602001828152506009600060075481526020019081526020016000206000820151816000015560208201518160010190816200068a919062000a87565b506040820151816002019081620006a2919062000a87565b5090505060076000815480929190620006bb9062000b9d565b91905055505050565b600080fd5b600073ffffffffffffffffffffffffffffffffffffffff82169050919050565b6000620006f682620006c9565b9050919050565b6200070881620006e9565b81146200071457600080fd5b50565b6000815190506200072881620006fd565b92915050565b6000806000606084860312156200074a5762000749620006c4565b5b60006200075a8682870162000717565b93505060206200076d8682870162000717565b9250506040620007808682870162000717565b9150509250925092565b600082825260208201905092915050565b7f21617574686f72697a6564000000000000000000000000000000000000000000600082015250565b6000620007d3600b836200078a565b9150620007e0826200079b565b602082019050919050565b600060208201905081810360008301526200080681620007c4565b9050919050565b600081519050919050565b7f4e487b7100000000000000000000000000000000000000000000000000000000600052604160045260246000fd5b7f4e487b7100000000000000000000000000000000000000000000000000000000600052602260045260246000fd5b600060028204905060018216806200088f57607f821691505b602082108103620008a557620008a462000847565b5b50919050565b60008190508160005260206000209050919050565b60006020601f8301049050919050565b600082821b905092915050565b6000600883026200090f7fffffffffffffffffffffffffffffffffffffffffffffffffffffffffffffffff82620008d0565b6200091b8683620008d0565b95508019841693508086168417925050509392505050565b6000819050919050565b6000819050919050565b600062000968620009626200095c8462000933565b6200093d565b62000933565b9050919050565b6000819050919050565b620009848362000947565b6200099c62000993826200096f565b848454620008dd565b825550505050565b600090565b620009b3620009a4565b620009c081848462000979565b505050565b5b81811015620009e857620009dc600082620009a9565b600181019050620009c6565b5050565b601f82111562000a375762000a0181620008ab565b62000a0c84620008c0565b8101602085101562000a1c578190505b62000a3462000a2b85620008c0565b830182620009c5565b50505b505050565b600082821c905092915050565b600062000a5c6000198460080262000a3c565b1980831691505092915050565b600062000a77838362000a49565b9150826002028217905092915050565b62000a92826200080d565b67ffffffffffffffff81111562000aae5762000aad62000818565b5b62000aba825462000876565b62000ac7828285620009ec565b600060209050601f83116001811462000aff576000841562000aea578287015190505b62000af6858262000a69565b86555062000b66565b601f19841662000b0f86620008ab565b60005b8281101562000b395784890151825560018201915060208501945060208101905062000b12565b8683101562000b59578489015162000b55601f89168262000a49565b8355505b6001600288020188555050505b505050505050565b7f4e487b7100000000000000000000000000000000000000000000000000000000600052601160045260246000fd5b600062000baa8262000933565b91507fffffffffffffffffffffffffffffffffffffffffffffffffffffffffffffffff820362000bdf5762000bde62000b6e565b5b600182019050919050565b6152ec8062000bfa6000396000f3fe608060405234801561001057600080fd5b506004361061012c5760003560e01c806396f979d2116100ad578063cd13193811610071578063cd13193814610347578063d031a83414610363578063e4bcf87d14610393578063fb9da76a146103af578063fd95cc51146103cb5761012c565b806396f979d21461026d578063a4adb24b146102a7578063a6c807a9146102c3578063b0f8158c146102f9578063c6cdbe5e146103155761012c565b806318222d5e116100f457806318222d5e146101b05780631bf703b2146101e05780632a47d91c146101fc5780635a637384146102355780637a1469a4146102515761012c565b80630226b0b214610131578063097167ba146101645780630da079b4146101805780631249c58b1461019c57806313eda8fc146101a6575b600080fd5b61014b60048036038101906101469190614282565b6103ff565b60405161015b9493929190614361565b60405180910390f35b61017e600480360381019061017991906143bb565b6105e4565b005b61019a6004803603810190610195919061451d565b61067c565b005b6101a4610b97565b005b6101ae610c26565b005b6101ca60048036038101906101c59190614606565b610cb5565b6040516101d79190614646565b60405180910390f35b6101fa60048036038101906101f59190614661565b610d1e565b005b610216600480360381019061021191906146d9565b610e33565b60405161022c9a99989796959493929190614721565b60405180910390f35b61024f600480360381019061024a91906147e7565b6111c4565b005b61026b600480360381019061026691906148a2565b6119d3565b005b610287600480360381019061028291906143bb565b611abf565b60405161029e9b9a9998979695949392919061490d565b60405180910390f35b6102c160048036038101906102bc919061451d565b611d66565b005b6102dd60048036038101906102d891906146d9565b612437565b6040516102f097969594939291906149d4565b60405180910390f35b610313600480360381019061030e9190614282565b612699565b005b61032f600480360381019061032a91906143bb565b612cb7565b60405161033e93929190614a5f565b60405180910390f35b610361600480360381019061035c91906143bb565b612df1565b005b61037d600480360381019061037891906146d9565b613166565b60405161038a9190614646565b60405180910390f35b6103ad60048036038101906103a89190614aa4565b6131b5565b005b6103c960048036038101906103c49190614282565b61386d565b005b6103e560048036038101906103e09190614606565b614011565b6040516103f6959493929190614b73565b60405180910390f35b600e602052816000526040600020818154811061041b57600080fd5b90600052602060002090600402016000915091505080600001549080600101805461044590614bf5565b80601f016020809104026020016040519081016040528092919081815260200182805461047190614bf5565b80156104be5780601f10610493576101008083540402835291602001916104be565b820191906000526020600020905b8154815290600101906020018083116104a157829003601f168201915b5050505050908060020180546104d390614bf5565b80601f01602080910402602001604051908101604052809291908181526020018280546104ff90614bf5565b801561054c5780601f106105215761010080835404028352916020019161054c565b820191906000526020600020905b81548152906001019060200180831161052f57829003601f168201915b50505050509080600301805461056190614bf5565b80601f016020809104026020016040519081016040528092919081815260200182805461058d90614bf5565b80156105da5780601f106105af576101008083540402835291602001916105da565b820191906000526020600020905b8154815290600101906020018083116105bd57829003601f168201915b5050505050905084565b60008054906101000a900473ffffffffffffffffffffffffffffffffffffffff1673ffffffffffffffffffffffffffffffffffffffff163373ffffffffffffffffffffffffffffffffffffffff1614610672576040517f08c379a000000000000000000000000000000000000000000000000000000000815260040161066990614c72565b60405180910390fd5b8060088190555050565b6000600b60003373ffffffffffffffffffffffffffffffffffffffff1673ffffffffffffffffffffffffffffffffffffffff1681526020019081526020016000206000015414801561071057506000600a60003373ffffffffffffffffffffffffffffffffffffffff1673ffffffffffffffffffffffffffffffffffffffff16815260200190815260200160002060000154145b61074f576040517f08c379a000000000000000000000000000000000000000000000000000000000815260040161074690614c72565b60405180910390fd5b6000600b60003373ffffffffffffffffffffffffffffffffffffffff1673ffffffffffffffffffffffffffffffffffffffff16815260200190815260200160002060405180610100016040529081600082015481526020016001820180546107b690614bf5565b80601f01602080910402602001604051908101604052809291908181526020018280546107e290614bf5565b801561082f5780601f106108045761010080835404028352916020019161082f565b820191906000526020600020905b81548152906001019060200180831161081257829003601f168201915b5050505050815260200160028201805461084890614bf5565b80601f016020809104026020016040519081016040528092919081815260200182805461087490614bf5565b80156108c15780601f10610896576101008083540402835291602001916108c1565b820191906000526020600020905b8154815290600101906020018083116108a457829003601f168201915b50505050508152602001600382015481526020016004820180546108e490614bf5565b80601f016020809104026020016040519081016040528092919081815260200182805461091090614bf5565b801561095d5780601f106109325761010080835404028352916020019161095d565b820191906000526020600020905b81548152906001019060200180831161094057829003601f168201915b5050505050815260200160058201805461097690614bf5565b80601f01602080910402602001604051908101604052809291908181526020018280546109a290614bf5565b80156109ef5780601f106109c4576101008083540402835291602001916109ef565b820191906000526020600020905b8154815290600101906020018083116109d257829003601f168201915b505050505081526020016006820154815260200160078201805480602002602001604051908101604052809291908181526020018280548015610a5157602002820191906000526020600020905b815481526020019060010190808311610a3d575b50505050508152505090506040518061010001604052806005548152602001858152602001848152602001838152602001826080015181526020018260a0015181526020014281526020018260e00151815250600b60003373ffffffffffffffffffffffffffffffffffffffff1673ffffffffffffffffffffffffffffffffffffffff168152602001908152602001600020600082015181600001556020820151816001019081610b029190614e3e565b506040820151816002019081610b189190614e3e565b50606082015181600301556080820151816004019081610b389190614e3e565b5060a0820151816005019081610b4e9190614e3e565b5060c0820151816006015560e0820151816007019080519060200190610b75929190614104565b5090505060056000815480929190610b8c90614f3f565b919050555050505050565b600260009054906101000a900473ffffffffffffffffffffffffffffffffffffffff1673ffffffffffffffffffffffffffffffffffffffff16636a627842336040518263ffffffff1660e01b8152600401610bf29190614f87565b600060405180830381600087803b158015610c0c57600080fd5b505af1158015610c20573d6000803e3d6000fd5b50505050565b600160009054906101000a900473ffffffffffffffffffffffffffffffffffffffff1673ffffffffffffffffffffffffffffffffffffffff16636a627842336040518263ffffffff1660e01b8152600401610c819190614f87565b600060405180830381600087803b158015610c9b57600080fd5b505af1158015610caf573d6000803e3d6000fd5b50505050565b6000600a60008473ffffffffffffffffffffffffffffffffffffffff1673ffffffffffffffffffffffffffffffffffffffff1681526020019081526020016000206009018281548110610d0b57610d0a614fa2565b5b9060005260206000200154905092915050565b60008054906101000a900473ffffffffffffffffffffffffffffffffffffffff1673ffffffffffffffffffffffffffffffffffffffff163373ffffffffffffffffffffffffffffffffffffffff1614610dac576040517f08c379a0000000000000000000000000000000000000000000000000000000008152600401610da390614c72565b60405180910390fd5b6040518060600160405280600754815260200183815260200182815250600960006007548152602001908152602001600020600082015181600001556020820151816001019081610dfd9190614e3e565b506040820151816002019081610e139190614e3e565b5090505060076000815480929190610e2a90614f3f565b91905055505050565b600a602052806000526040600020600091509050806000015490806001018054610e5c90614bf5565b80601f0160208091040260200160405190810160405280929190818152602001828054610e8890614bf5565b8015610ed55780601f10610eaa57610100808354040283529160200191610ed5565b820191906000526020600020905b815481529060010190602001808311610eb857829003601f168201915b505050505090806002018054610eea90614bf5565b80601f0160208091040260200160405190810160405280929190818152602001828054610f1690614bf5565b8015610f635780601f10610f3857610100808354040283529160200191610f63565b820191906000526020600020905b815481529060010190602001808311610f4657829003601f168201915b505050505090806003018054610f7890614bf5565b80601f0160208091040260200160405190810160405280929190818152602001828054610fa490614bf5565b8015610ff15780601f10610fc657610100808354040283529160200191610ff1565b820191906000526020600020905b815481529060010190602001808311610fd457829003601f168201915b5050505050908060040154908060050160009054906101000a900460ff169080600601805461101f90614bf5565b80601f016020809104026020016040519081016040528092919081815260200182805461104b90614bf5565b80156110985780601f1061106d57610100808354040283529160200191611098565b820191906000526020600020905b81548152906001019060200180831161107b57829003601f168201915b5050505050908060070180546110ad90614bf5565b80601f01602080910402602001604051908101604052809291908181526020018280546110d990614bf5565b80156111265780601f106110fb57610100808354040283529160200191611126565b820191906000526020600020905b81548152906001019060200180831161110957829003601f168201915b50505050509080600801805461113b90614bf5565b80601f016020809104026020016040519081016040528092919081815260200182805461116790614bf5565b80156111b45780601f10611189576101008083540402835291602001916111b4565b820191906000526020600020905b81548152906001019060200180831161119757829003601f168201915b50505050509080600a015490508a565b6000600b60003373ffffffffffffffffffffffffffffffffffffffff1673ffffffffffffffffffffffffffffffffffffffff1681526020019081526020016000206000015414801561125857506000600a60003373ffffffffffffffffffffffffffffffffffffffff1673ffffffffffffffffffffffffffffffffffffffff16815260200190815260200160002060000154145b611297576040517f08c379a000000000000000000000000000000000000000000000000000000000815260040161128e90614c72565b60405180910390fd5b600160009054906101000a900473ffffffffffffffffffffffffffffffffffffffff1673ffffffffffffffffffffffffffffffffffffffff16636c43a2ca33306008546040518463ffffffff1660e01b81526004016112f893929190614fd1565b6020604051808303816000875af1158015611317573d6000803e3d6000fd5b505050506040513d601f19601f8201168201806040525081019061133b9190615034565b50600160009054906101000a900473ffffffffffffffffffffffffffffffffffffffff1673ffffffffffffffffffffffffffffffffffffffff166323b872dd33306008546040518463ffffffff1660e01b815260040161139d93929190614fd1565b6020604051808303816000875af11580156113bc573d6000803e3d6000fd5b505050506040513d601f19601f820116820180604052508101906113e09190615034565b506000600a60003373ffffffffffffffffffffffffffffffffffffffff1673ffffffffffffffffffffffffffffffffffffffff168152602001908152602001600020604051806101600160405290816000820154815260200160018201805461144890614bf5565b80601f016020809104026020016040519081016040528092919081815260200182805461147490614bf5565b80156114c15780601f10611496576101008083540402835291602001916114c1565b820191906000526020600020905b8154815290600101906020018083116114a457829003601f168201915b505050505081526020016002820180546114da90614bf5565b80601f016020809104026020016040519081016040528092919081815260200182805461150690614bf5565b80156115535780601f1061152857610100808354040283529160200191611553565b820191906000526020600020905b81548152906001019060200180831161153657829003601f168201915b5050505050815260200160038201805461156c90614bf5565b80601f016020809104026020016040519081016040528092919081815260200182805461159890614bf5565b80156115e55780601f106115ba576101008083540402835291602001916115e5565b820191906000526020600020905b8154815290600101906020018083116115c857829003601f168201915b50505050508152602001600482015481526020016005820160009054906101000a900460ff1615151515815260200160068201805461162390614bf5565b80601f016020809104026020016040519081016040528092919081815260200182805461164f90614bf5565b801561169c5780601f106116715761010080835404028352916020019161169c565b820191906000526020600020905b81548152906001019060200180831161167f57829003601f168201915b505050505081526020016007820180546116b590614bf5565b80601f01602080910402602001604051908101604052809291908181526020018280546116e190614bf5565b801561172e5780601f106117035761010080835404028352916020019161172e565b820191906000526020600020905b81548152906001019060200180831161171157829003601f168201915b5050505050815260200160088201805461174790614bf5565b80601f016020809104026020016040519081016040528092919081815260200182805461177390614bf5565b80156117c05780601f10611795576101008083540402835291602001916117c0565b820191906000526020600020905b8154815290600101906020018083116117a357829003601f168201915b505050505081526020016009820180548060200260200160405190810160405280929190818152602001828054801561181857602002820191906000526020600020905b815481526020019060010190808311611804575b50505050508152602001600a82015481525050905060405180610160016040528060045481526020018681526020018581526020018481526020018381526020016000151581526020018260c0015181526020018260e0015181526020018261010001518152602001826101200151815260200142815250600a60003373ffffffffffffffffffffffffffffffffffffffff1673ffffffffffffffffffffffffffffffffffffffff1681526020019081526020016000206000820151816000015560208201518160010190816118ee9190614e3e565b5060408201518160020190816119049190614e3e565b50606082015181600301908161191a9190614e3e565b506080820151816004015560a08201518160050160006101000a81548160ff02191690831515021790555060c082015181600601908161195a9190614e3e565b5060e08201518160070190816119709190614e3e565b506101008201518160080190816119879190614e3e565b506101208201518160090190805190602001906119a5929190614104565b5061014082015181600a0155905050600460008154809291906119c790614f3f565b91905055505050505050565b6000600b60003373ffffffffffffffffffffffffffffffffffffffff1673ffffffffffffffffffffffffffffffffffffffff1681526020019081526020016000206000015403611a58576040517f08c379a0000000000000000000000000000000000000000000000000000000008152600401611a4f90614c72565b60405180910390fd5b6000600c60008481526020019081526020016000206000015403611ab1576040517f08c379a0000000000000000000000000000000000000000000000000000000008152600401611aa8906150ad565b60405180910390fd5b611abb3382614071565b5050565b600c602052806000526040600020600091509050806000015490806001018054611ae890614bf5565b80601f0160208091040260200160405190810160405280929190818152602001828054611b1490614bf5565b8015611b615780601f10611b3657610100808354040283529160200191611b61565b820191906000526020600020905b815481529060010190602001808311611b4457829003601f168201915b505050505090806002018054611b7690614bf5565b80601f0160208091040260200160405190810160405280929190818152602001828054611ba290614bf5565b8015611bef5780601f10611bc457610100808354040283529160200191611bef565b820191906000526020600020905b815481529060010190602001808311611bd257829003601f168201915b505050505090806003015490806004018054611c0a90614bf5565b80601f0160208091040260200160405190810160405280929190818152602001828054611c3690614bf5565b8015611c835780601f10611c5857610100808354040283529160200191611c83565b820191906000526020600020905b815481529060010190602001808311611c6657829003601f168201915b5050505050908060050160009054906101000a900473ffffffffffffffffffffffffffffffffffffffff1690806008015490806009018054611cc490614bf5565b80601f0160208091040260200160405190810160405280929190818152602001828054611cf090614bf5565b8015611d3d5780601f10611d1257610100808354040283529160200191611d3d565b820191906000526020600020905b815481529060010190602001808311611d2057829003601f168201915b50505050509080600a0160009054906101000a900460ff169080600b01549080600c015490508b565b6000600a60003373ffffffffffffffffffffffffffffffffffffffff1673ffffffffffffffffffffffffffffffffffffffff1681526020019081526020016000206000015403611deb576040517f08c379a0000000000000000000000000000000000000000000000000000000008152600401611de290614c72565b60405180910390fd5b6000600c60006006548152602001908152602001600020604051806101a001604052908160008201548152602001600182018054611e2890614bf5565b80601f0160208091040260200160405190810160405280929190818152602001828054611e5490614bf5565b8015611ea15780601f10611e7657610100808354040283529160200191611ea1565b820191906000526020600020905b815481529060010190602001808311611e8457829003601f168201915b50505050508152602001600282018054611eba90614bf5565b80601f0160208091040260200160405190810160405280929190818152602001828054611ee690614bf5565b8015611f335780601f10611f0857610100808354040283529160200191611f33565b820191906000526020600020905b815481529060010190602001808311611f1657829003601f168201915b5050505050815260200160038201548152602001600482018054611f5690614bf5565b80601f0160208091040260200160405190810160405280929190818152602001828054611f8290614bf5565b8015611fcf5780601f10611fa457610100808354040283529160200191611fcf565b820191906000526020600020905b815481529060010190602001808311611fb257829003601f168201915b505050505081526020016005820160009054906101000a900473ffffffffffffffffffffffffffffffffffffffff1673ffffffffffffffffffffffffffffffffffffffff1673ffffffffffffffffffffffffffffffffffffffff168152602001600682018054806020026020016040519081016040528092919081815260200182805480156120b357602002820191906000526020600020905b8160009054906101000a900473ffffffffffffffffffffffffffffffffffffffff1673ffffffffffffffffffffffffffffffffffffffff1681526020019060010190808311612069575b505050505081526020016007820180548060200260200160405190810160405280929190818152602001828054801561210b57602002820191906000526020600020905b8154815260200190600101908083116120f7575b505050505081526020016008820154815260200160098201805461212e90614bf5565b80601f016020809104026020016040519081016040528092919081815260200182805461215a90614bf5565b80156121a75780601f1061217c576101008083540402835291602001916121a7565b820191906000526020600020905b81548152906001019060200180831161218a57829003601f168201915b50505050508152602001600a820160009054906101000a900460ff16151515158152602001600b8201548152602001600c820154815250509050604051806101a001604052806006548152602001858152602001848152602001838152602001826080015181526020013373ffffffffffffffffffffffffffffffffffffffff1681526020018260c0015181526020018260e00151815260200160008152602001826101200151815260200160001515815260200142815260200142815250600c6000600654815260200190815260200160002060008201518160000155602082015181600101908161229a9190614e3e565b5060408201518160020190816122b09190614e3e565b506060820151816003015560808201518160040190816122d09190614e3e565b5060a08201518160050160006101000a81548173ffffffffffffffffffffffffffffffffffffffff021916908373ffffffffffffffffffffffffffffffffffffffff16021790555060c0820151816006019080519060200190612334929190614151565b5060e0820151816007019080519060200190612351929190614104565b5061010082015181600801556101208201518160090190816123739190614e3e565b5061014082015181600a0160006101000a81548160ff02191690831515021790555061016082015181600b015561018082015181600c0155905050600a60003373ffffffffffffffffffffffffffffffffffffffff1673ffffffffffffffffffffffffffffffffffffffff16815260200190815260200160002060090160065490806001815401808255809150506001900390600052602060002001600090919091909150556006600081548092919061242c90614f3f565b919050555050505050565b600b60205280600052604060002060009150905080600001549080600101805461246090614bf5565b80601f016020809104026020016040519081016040528092919081815260200182805461248c90614bf5565b80156124d95780601f106124ae576101008083540402835291602001916124d9565b820191906000526020600020905b8154815290600101906020018083116124bc57829003601f168201915b5050505050908060020180546124ee90614bf5565b80601f016020809104026020016040519081016040528092919081815260200182805461251a90614bf5565b80156125675780601f1061253c57610100808354040283529160200191612567565b820191906000526020600020905b81548152906001019060200180831161254a57829003601f168201915b50505050509080600301549080600401805461258290614bf5565b80601f01602080910402602001604051908101604052809291908181526020018280546125ae90614bf5565b80156125fb5780601f106125d0576101008083540402835291602001916125fb565b820191906000526020600020905b8154815290600101906020018083116125de57829003601f168201915b50505050509080600501805461261090614bf5565b80601f016020809104026020016040519081016040528092919081815260200182805461263c90614bf5565b80156126895780601f1061265e57610100808354040283529160200191612689565b820191906000526020600020905b81548152906001019060200180831161266c57829003601f168201915b5050505050908060060154905087565b6000600a60003373ffffffffffffffffffffffffffffffffffffffff1673ffffffffffffffffffffffffffffffffffffffff168152602001908152602001600020600001540361271e576040517f08c379a000000000000000000000000000000000000000000000000000000000815260040161271590614c72565b60405180910390fd5b6000600c6000848152602001908152602001600020604051806101a00160405290816000820154815260200160018201805461275990614bf5565b80601f016020809104026020016040519081016040528092919081815260200182805461278590614bf5565b80156127d25780601f106127a7576101008083540402835291602001916127d2565b820191906000526020600020905b8154815290600101906020018083116127b557829003601f168201915b505050505081526020016002820180546127eb90614bf5565b80601f016020809104026020016040519081016040528092919081815260200182805461281790614bf5565b80156128645780601f1061283957610100808354040283529160200191612864565b820191906000526020600020905b81548152906001019060200180831161284757829003601f168201915b505050505081526020016003820154815260200160048201805461288790614bf5565b80601f01602080910402602001604051908101604052809291908181526020018280546128b390614bf5565b80156129005780601f106128d557610100808354040283529160200191612900565b820191906000526020600020905b8154815290600101906020018083116128e357829003601f168201915b505050505081526020016005820160009054906101000a900473ffffffffffffffffffffffffffffffffffffffff1673ffffffffffffffffffffffffffffffffffffffff1673ffffffffffffffffffffffffffffffffffffffff168152602001600682018054806020026020016040519081016040528092919081815260200182805480156129e457602002820191906000526020600020905b8160009054906101000a900473ffffffffffffffffffffffffffffffffffffffff1673ffffffffffffffffffffffffffffffffffffffff168152602001906001019080831161299a575b5050505050815260200160078201805480602002602001604051908101604052809291908181526020018280548015612a3c57602002820191906000526020600020905b815481526020019060010190808311612a28575b5050505050815260200160088201548152602001600982018054612a5f90614bf5565b80601f0160208091040260200160405190810160405280929190818152602001828054612a8b90614bf5565b8015612ad85780601f10612aad57610100808354040283529160200191612ad8565b820191906000526020600020905b815481529060010190602001808311612abb57829003601f168201915b50505050508152602001600a820160009054906101000a900460ff16151515158152602001600b8201548152602001600c8201548152505090506000816000015103612b59576040517f08c379a0000000000000000000000000000000000000000000000000000000008152600401612b50906150ad565b60405180910390fd5b3373ffffffffffffffffffffffffffffffffffffffff168160a0015173ffffffffffffffffffffffffffffffffffffffff1614612bcb576040517f08c379a0000000000000000000000000000000000000000000000000000000008152600401612bc290614c72565b60405180910390fd5b6000600e60008581526020019081526020016000208381548110612bf257612bf1614fa2565b5b90600052602060002090600402016000015403612c44576040517f08c379a0000000000000000000000000000000000000000000000000000000008152600401612c3b906150ad565b60405180910390fd5b600e60008481526020019081526020016000208281548110612c6957612c68614fa2565b5b9060005260206000209060040201600080820160009055600182016000612c9091906141db565b600282016000612ca091906141db565b600382016000612cb091906141db565b5050505050565b6009602052806000526040600020600091509050806000015490806001018054612ce090614bf5565b80601f0160208091040260200160405190810160405280929190818152602001828054612d0c90614bf5565b8015612d595780601f10612d2e57610100808354040283529160200191612d59565b820191906000526020600020905b815481529060010190602001808311612d3c57829003601f168201915b505050505090806002018054612d6e90614bf5565b80601f0160208091040260200160405190810160405280929190818152602001828054612d9a90614bf5565b8015612de75780601f10612dbc57610100808354040283529160200191612de7565b820191906000526020600020905b815481529060010190602001808311612dca57829003601f168201915b5050505050905083565b6000600b60003373ffffffffffffffffffffffffffffffffffffffff1673ffffffffffffffffffffffffffffffffffffffff1681526020019081526020016000206000015403612e76576040517f08c379a0000000000000000000000000000000000000000000000000000000008152600401612e6d90614c72565b60405180910390fd5b6000600c600083815260200190815260200160002090506000816000015403612ed4576040517f08c379a0000000000000000000000000000000000000000000000000000000008152600401612ecb906150ad565b60405180910390fd5b600160009054906101000a900473ffffffffffffffffffffffffffffffffffffffff1673ffffffffffffffffffffffffffffffffffffffff16636c43a2ca333084600801546040518463ffffffff1660e01b8152600401612f3793929190614fd1565b6020604051808303816000875af1158015612f56573d6000803e3d6000fd5b505050506040513d601f19601f82011682018060405250810190612f7a9190615034565b50600160009054906101000a900473ffffffffffffffffffffffffffffffffffffffff1673ffffffffffffffffffffffffffffffffffffffff166323b872dd333084600801546040518463ffffffff1660e01b8152600401612fde93929190614fd1565b6020604051808303816000875af1158015612ffd573d6000803e3d6000fd5b505050506040513d601f19601f820116820180604052508101906130219190615034565b50600d60003373ffffffffffffffffffffffffffffffffffffffff1673ffffffffffffffffffffffffffffffffffffffff1681526020019081526020016000206040518060a0016040528084815260200160011515815260200183600801548152602001600081526020014281525090806001815401808255809150506001900390600052602060002090600502016000909190919091506000820151816000015560208201518160010160006101000a81548160ff02191690831515021790555060408201518160020155606082015181600301556080820151816004015550507fba05698ffe932ba01d3d70f62a2e48d6719cc5df3bdcf9118015af495c4a39b18160050160009054906101000a900473ffffffffffffffffffffffffffffffffffffffff16338460405161315a93929190614fd1565b60405180910390a15050565b6000600a60008373ffffffffffffffffffffffffffffffffffffffff1673ffffffffffffffffffffffffffffffffffffffff168152602001908152602001600020600901805490509050919050565b6000600a60003373ffffffffffffffffffffffffffffffffffffffff1673ffffffffffffffffffffffffffffffffffffffff168152602001908152602001600020600001540361323a576040517f08c379a000000000000000000000000000000000000000000000000000000000815260040161323190614c72565b60405180910390fd5b6000600c6000878152602001908152602001600020604051806101a00160405290816000820154815260200160018201805461327590614bf5565b80601f01602080910402602001604051908101604052809291908181526020018280546132a190614bf5565b80156132ee5780601f106132c3576101008083540402835291602001916132ee565b820191906000526020600020905b8154815290600101906020018083116132d157829003601f168201915b5050505050815260200160028201805461330790614bf5565b80601f016020809104026020016040519081016040528092919081815260200182805461333390614bf5565b80156133805780601f1061335557610100808354040283529160200191613380565b820191906000526020600020905b81548152906001019060200180831161336357829003601f168201915b50505050508152602001600382015481526020016004820180546133a390614bf5565b80601f01602080910402602001604051908101604052809291908181526020018280546133cf90614bf5565b801561341c5780601f106133f15761010080835404028352916020019161341c565b820191906000526020600020905b8154815290600101906020018083116133ff57829003601f168201915b505050505081526020016005820160009054906101000a900473ffffffffffffffffffffffffffffffffffffffff1673ffffffffffffffffffffffffffffffffffffffff1673ffffffffffffffffffffffffffffffffffffffff1681526020016006820180548060200260200160405190810160405280929190818152602001828054801561350057602002820191906000526020600020905b8160009054906101000a900473ffffffffffffffffffffffffffffffffffffffff1673ffffffffffffffffffffffffffffffffffffffff16815260200190600101908083116134b6575b505050505081526020016007820180548060200260200160405190810160405280929190818152602001828054801561355857602002820191906000526020600020905b815481526020019060010190808311613544575b505050505081526020016008820154815260200160098201805461357b90614bf5565b80601f01602080910402602001604051908101604052809291908181526020018280546135a790614bf5565b80156135f45780601f106135c9576101008083540402835291602001916135f4565b820191906000526020600020905b8154815290600101906020018083116135d757829003601f168201915b50505050508152602001600a820160009054906101000a900460ff16151515158152602001600b8201548152602001600c8201548152505090506000816000015103613675576040517f08c379a000000000000000000000000000000000000000000000000000000000815260040161366c906150ad565b60405180910390fd5b3373ffffffffffffffffffffffffffffffffffffffff168160a0015173ffffffffffffffffffffffffffffffffffffffff16146136e7576040517f08c379a00000000000000000000000000000000000000000000000000000000081526004016136de90614c72565b60405180910390fd5b600082036137c157600e600087815260200190815260200160002060405180608001604052806001600e60008b81526020019081526020016000208054905061373091906150cd565b815260200187815260200186815260200185815250908060018154018082558091505060019003906000526020600020906004020160009091909190915060008201518160000155602082015181600101908161378d9190614e3e565b5060408201518160020190816137a39190614e3e565b5060608201518160030190816137b99190614e3e565b505050613865565b604051806080016040528083815260200186815260200185815260200184815250600e6000888152602001908152602001600020838154811061380757613806614fa2565b5b90600052602060002090600402016000820151816000015560208201518160010190816138349190614e3e565b50604082015181600201908161384a9190614e3e565b5060608201518160030190816138609190614e3e565b509050505b505050505050565b6000600b60003373ffffffffffffffffffffffffffffffffffffffff1673ffffffffffffffffffffffffffffffffffffffff16815260200190815260200160002060000154036138f2576040517f08c379a00000000000000000000000000000000000000000000000000000000081526004016138e990614c72565b60405180910390fd5b6000600d60003373ffffffffffffffffffffffffffffffffffffffff1673ffffffffffffffffffffffffffffffffffffffff168152602001908152602001600020838154811061394557613944614fa2565b5b90600052602060002090600502016040518060a0016040529081600082015481526020016001820160009054906101000a900460ff16151515158152602001600282015481526020016003820154815260200160048201548152505090506000600c6000858152602001908152602001600020604051806101a0016040529081600082015481526020016001820180546139de90614bf5565b80601f0160208091040260200160405190810160405280929190818152602001828054613a0a90614bf5565b8015613a575780601f10613a2c57610100808354040283529160200191613a57565b820191906000526020600020905b815481529060010190602001808311613a3a57829003601f168201915b50505050508152602001600282018054613a7090614bf5565b80601f0160208091040260200160405190810160405280929190818152602001828054613a9c90614bf5565b8015613ae95780601f10613abe57610100808354040283529160200191613ae9565b820191906000526020600020905b815481529060010190602001808311613acc57829003601f168201915b5050505050815260200160038201548152602001600482018054613b0c90614bf5565b80601f0160208091040260200160405190810160405280929190818152602001828054613b3890614bf5565b8015613b855780601f10613b5a57610100808354040283529160200191613b85565b820191906000526020600020905b815481529060010190602001808311613b6857829003601f168201915b505050505081526020016005820160009054906101000a900473ffffffffffffffffffffffffffffffffffffffff1673ffffffffffffffffffffffffffffffffffffffff1673ffffffffffffffffffffffffffffffffffffffff16815260200160068201805480602002602001604051908101604052809291908181526020018280548015613c6957602002820191906000526020600020905b8160009054906101000a900473ffffffffffffffffffffffffffffffffffffffff1673ffffffffffffffffffffffffffffffffffffffff1681526020019060010190808311613c1f575b5050505050815260200160078201805480602002602001604051908101604052809291908181526020018280548015613cc157602002820191906000526020600020905b815481526020019060010190808311613cad575b5050505050815260200160088201548152602001600982018054613ce490614bf5565b80601f0160208091040260200160405190810160405280929190818152602001828054613d1090614bf5565b8015613d5d5780601f10613d3257610100808354040283529160200191613d5d565b820191906000526020600020905b815481529060010190602001808311613d4057829003601f168201915b50505050508152602001600a820160009054906101000a900460ff16151515158152602001600b8201548152602001600c8201548152505090506000816000015103613dde576040517f08c379a0000000000000000000000000000000000000000000000000000000008152600401613dd5906150ad565b60405180910390fd5b6002826080015111613e25576040517f08c379a0000000000000000000000000000000000000000000000000000000008152600401613e1c9061514d565b60405180910390fd5b6000838360600151613e37919061516d565b905060008111613e7c576040517f08c379a0000000000000000000000000000000000000000000000000000000008152600401613e73906151ed565b60405180910390fd5b600082610100015182613e8f919061520d565b9050600d60003373ffffffffffffffffffffffffffffffffffffffff1673ffffffffffffffffffffffffffffffffffffffff1681526020019081526020016000208681548110613ee257613ee1614fa2565b5b90600052602060002090600502016000808201600090556001820160006101000a81549060ff02191690556002820160009055600382016000905560048201600090555050600160009054906101000a900473ffffffffffffffffffffffffffffffffffffffff1673ffffffffffffffffffffffffffffffffffffffff166323b872dd3033846040518463ffffffff1660e01b8152600401613f8693929190614fd1565b6020604051808303816000875af1158015613fa5573d6000803e3d6000fd5b505050506040513d601f19601f82011682018060405250810190613fc99190615034565b507fdc66f972de0418acb83d72185cdafd8f63206f06f26f08008effbcf11495f2fd338786606001516040516140019392919061524f565b60405180910390a1505050505050565b600d602052816000526040600020818154811061402d57600080fd5b9060005260206000209060050201600091509150508060000154908060010160009054906101000a900460ff16908060020154908060030154908060040154905085565b600360009054906101000a900473ffffffffffffffffffffffffffffffffffffffff1673ffffffffffffffffffffffffffffffffffffffff166304b444d983836040518363ffffffff1660e01b81526004016140ce929190615286565b600060405180830381600087803b1580156140e857600080fd5b505af11580156140fc573d6000803e3d6000fd5b505050505050565b828054828255906000526020600020908101928215614140579160200282015b8281111561413f578251825591602001919060010190614124565b5b50905061414d919061421b565b5090565b8280548282559060005260206000209081019282156141ca579160200282015b828111156141c95782518260006101000a81548173ffffffffffffffffffffffffffffffffffffffff021916908373ffffffffffffffffffffffffffffffffffffffff16021790555091602001919060010190614171565b5b5090506141d7919061421b565b5090565b5080546141e790614bf5565b6000825580601f106141f95750614218565b601f016020900490600052602060002090810190614217919061421b565b5b50565b5b8082111561423457600081600090555060010161421c565b5090565b6000604051905090565b600080fd5b600080fd5b6000819050919050565b61425f8161424c565b811461426a57600080fd5b50565b60008135905061427c81614256565b92915050565b6000806040838503121561429957614298614242565b5b60006142a78582860161426d565b92505060206142b88582860161426d565b9150509250929050565b6142cb8161424c565b82525050565b600081519050919050565b600082825260208201905092915050565b60005b8381101561430b5780820151818401526020810190506142f0565b60008484015250505050565b6000601f19601f8301169050919050565b6000614333826142d1565b61433d81856142dc565b935061434d8185602086016142ed565b61435681614317565b840191505092915050565b600060808201905061437660008301876142c2565b81810360208301526143888186614328565b9050818103604083015261439c8185614328565b905081810360608301526143b08184614328565b905095945050505050565b6000602082840312156143d1576143d0614242565b5b60006143df8482850161426d565b91505092915050565b600080fd5b600080fd5b7f4e487b7100000000000000000000000000000000000000000000000000000000600052604160045260246000fd5b61442a82614317565b810181811067ffffffffffffffff82111715614449576144486143f2565b5b80604052505050565b600061445c614238565b90506144688282614421565b919050565b600067ffffffffffffffff821115614488576144876143f2565b5b61449182614317565b9050602081019050919050565b82818337600083830152505050565b60006144c06144bb8461446d565b614452565b9050828152602081018484840111156144dc576144db6143ed565b5b6144e784828561449e565b509392505050565b600082601f830112614504576145036143e8565b5b81356145148482602086016144ad565b91505092915050565b60008060006060848603121561453657614535614242565b5b600084013567ffffffffffffffff81111561455457614553614247565b5b614560868287016144ef565b935050602084013567ffffffffffffffff81111561458157614580614247565b5b61458d868287016144ef565b925050604061459e8682870161426d565b9150509250925092565b600073ffffffffffffffffffffffffffffffffffffffff82169050919050565b60006145d3826145a8565b9050919050565b6145e3816145c8565b81146145ee57600080fd5b50565b600081359050614600816145da565b92915050565b6000806040838503121561461d5761461c614242565b5b600061462b858286016145f1565b925050602061463c8582860161426d565b9150509250929050565b600060208201905061465b60008301846142c2565b92915050565b6000806040838503121561467857614677614242565b5b600083013567ffffffffffffffff81111561469657614695614247565b5b6146a2858286016144ef565b925050602083013567ffffffffffffffff8111156146c3576146c2614247565b5b6146cf858286016144ef565b9150509250929050565b6000602082840312156146ef576146ee614242565b5b60006146fd848285016145f1565b91505092915050565b60008115159050919050565b61471b81614706565b82525050565b600061014082019050614737600083018d6142c2565b8181036020830152614749818c614328565b9050818103604083015261475d818b614328565b90508181036060830152614771818a614328565b905061478060808301896142c2565b61478d60a0830188614712565b81810360c083015261479f8187614328565b905081810360e08301526147b38186614328565b90508181036101008301526147c88185614328565b90506147d86101208301846142c2565b9b9a5050505050505050505050565b6000806000806080858703121561480157614800614242565b5b600085013567ffffffffffffffff81111561481f5761481e614247565b5b61482b878288016144ef565b945050602085013567ffffffffffffffff81111561484c5761484b614247565b5b614858878288016144ef565b935050604085013567ffffffffffffffff81111561487957614878614247565b5b614885878288016144ef565b92505060606148968782880161426d565b91505092959194509250565b600080604083850312156148b9576148b8614242565b5b60006148c78582860161426d565b925050602083013567ffffffffffffffff8111156148e8576148e7614247565b5b6148f4858286016144ef565b9150509250929050565b614907816145c8565b82525050565b600061016082019050614923600083018e6142c2565b8181036020830152614935818d614328565b90508181036040830152614949818c614328565b9050614958606083018b6142c2565b818103608083015261496a818a614328565b905061497960a08301896148fe565b61498660c08301886142c2565b81810360e08301526149988187614328565b90506149a8610100830186614712565b6149b66101208301856142c2565b6149c46101408301846142c2565b9c9b505050505050505050505050565b600060e0820190506149e9600083018a6142c2565b81810360208301526149fb8189614328565b90508181036040830152614a0f8188614328565b9050614a1e60608301876142c2565b8181036080830152614a308186614328565b905081810360a0830152614a448185614328565b9050614a5360c08301846142c2565b98975050505050505050565b6000606082019050614a7460008301866142c2565b8181036020830152614a868185614328565b90508181036040830152614a9a8184614328565b9050949350505050565b600080600080600060a08688031215614ac057614abf614242565b5b6000614ace8882890161426d565b955050602086013567ffffffffffffffff811115614aef57614aee614247565b5b614afb888289016144ef565b945050604086013567ffffffffffffffff811115614b1c57614b1b614247565b5b614b28888289016144ef565b935050606086013567ffffffffffffffff811115614b4957614b48614247565b5b614b55888289016144ef565b9250506080614b668882890161426d565b9150509295509295909350565b600060a082019050614b8860008301886142c2565b614b956020830187614712565b614ba260408301866142c2565b614baf60608301856142c2565b614bbc60808301846142c2565b9695505050505050565b7f4e487b7100000000000000000000000000000000000000000000000000000000600052602260045260246000fd5b60006002820490506001821680614c0d57607f821691505b602082108103614c2057614c1f614bc6565b5b50919050565b7f21617574686f72697a6564000000000000000000000000000000000000000000600082015250565b6000614c5c600b836142dc565b9150614c6782614c26565b602082019050919050565b60006020820190508181036000830152614c8b81614c4f565b9050919050565b60008190508160005260206000209050919050565b60006020601f8301049050919050565b600082821b905092915050565b600060088302614cf47fffffffffffffffffffffffffffffffffffffffffffffffffffffffffffffffff82614cb7565b614cfe8683614cb7565b95508019841693508086168417925050509392505050565b6000819050919050565b6000614d3b614d36614d318461424c565b614d16565b61424c565b9050919050565b6000819050919050565b614d5583614d20565b614d69614d6182614d42565b848454614cc4565b825550505050565b600090565b614d7e614d71565b614d89818484614d4c565b505050565b5b81811015614dad57614da2600082614d76565b600181019050614d8f565b5050565b601f821115614df257614dc381614c92565b614dcc84614ca7565b81016020851015614ddb578190505b614def614de785614ca7565b830182614d8e565b50505b505050565b600082821c905092915050565b6000614e1560001984600802614df7565b1980831691505092915050565b6000614e2e8383614e04565b9150826002028217905092915050565b614e47826142d1565b67ffffffffffffffff811115614e6057614e5f6143f2565b5b614e6a8254614bf5565b614e75828285614db1565b600060209050601f831160018114614ea85760008415614e96578287015190505b614ea08582614e22565b865550614f08565b601f198416614eb686614c92565b60005b82811015614ede57848901518255600182019150602085019450602081019050614eb9565b86831015614efb5784890151614ef7601f891682614e04565b8355505b6001600288020188555050505b505050505050565b7f4e487b7100000000000000000000000000000000000000000000000000000000600052601160045260246000fd5b6000614f4a8261424c565b91507fffffffffffffffffffffffffffffffffffffffffffffffffffffffffffffffff8203614f7c57614f7b614f10565b5b600182019050919050565b6000602082019050614f9c60008301846148fe565b92915050565b7f4e487b7100000000000000000000000000000000000000000000000000000000600052603260045260246000fd5b6000606082019050614fe660008301866148fe565b614ff360208301856148fe565b61500060408301846142c2565b949350505050565b61501181614706565b811461501c57600080fd5b50565b60008151905061502e81615008565b92915050565b60006020828403121561504a57615049614242565b5b60006150588482850161501f565b91505092915050565b7f2165786973747300000000000000000000000000000000000000000000000000600082015250565b60006150976007836142dc565b91506150a282615061565b602082019050919050565b600060208201905081810360008301526150c68161508a565b9050919050565b60006150d88261424c565b91506150e38361424c565b92508282019050808211156150fb576150fa614f10565b5b92915050565b7f3e327765656b732e000000000000000000000000000000000000000000000000600082015250565b60006151376008836142dc565b915061514282615101565b602082019050919050565b600060208201905081810360008301526151668161512a565b9050919050565b60006151788261424c565b91506151838361424c565b925082820390508181111561519b5761519a614f10565b5b92915050565b7f21726566756e61626c6500000000000000000000000000000000000000000000600082015250565b60006151d7600a836142dc565b91506151e2826151a1565b602082019050919050565b60006020820190508181036000830152615206816151ca565b9050919050565b60006152188261424c565b91506152238361424c565b92508282026152318161424c565b9150828204841483151761524857615247614f10565b5b5092915050565b600060608201905061526460008301866148fe565b61527160208301856142c2565b61527e60408301846142c2565b949350505050565b600060408201905061529b60008301856148fe565b81810360208301526152ad8184614328565b9050939250505056fea26469706673582212201a6e44d949cc084bc7d0429cdef69528cb93809c2929905a67a9b4b9e28cf97464736f6c634300081100332f696d616765732f63617465676f726965732f696c6c757374726174696f6e2e776562702f696d616765732f63617465676f726965732f616e696d6174696f6e2e776562702f696d616765732f63617465676f726965732f70686f746f6772617068792e776562702f696d616765732f63617465676f726965732f7765622d646576656c6f706d656e742e776562702f696d616765732f63617465676f726965732f646174612d736369656e63652e776562702f696d616765732f63617465676f726965732f6d61726b6574696e672e77656270",
  "immutableReferences": {},
  "source": "// SPDX-License-Identifier: GPL-3.0\n\npragma solidity >=0.7.0 <0.9.0;\n\nimport \"./BdlToken.sol\";\nimport \"./BdlNft.sol\";\nimport \"./BdlCertificate.sol\";\nimport \"./Models.sol\";\n\ncontract Buidl {\n    // state variables\n    address deployer;\n\n    BdlToken bdlToken;\n    BdlNft bdlNft;\n    BdlCertificate bdlCertificate;\n\n    uint256 contractInstructorID = 1;\n    uint256 contractStudentID = 1;\n    uint256 contractCourseID = 1;\n    uint256 contractCategoryID = 1;\n\n    // minimum to stake for a duration of 1year\n    uint256 instructorRegistrationFee = 2000 * 10**18;\n\n    mapping(uint => Models.Category) public categories;\n    mapping(address => Models.Instructor) public instructors;\n    mapping(address => Models.Student) public students;\n    mapping(uint => Models.Course) public courses;\n    mapping(address => Models.StudentCourse[]) public studentCourses;\n    mapping(uint => Models.CourseSection[]) public courseSections;\n\n    // contructor\n    constructor(\n        address _bdlToken,\n        address _bdlNft,\n        address _bdlCertificate\n    ) {\n        deployer = msg.sender;\n        bdlToken = BdlToken(_bdlToken);\n        bdlNft = BdlNft(_bdlNft);\n        bdlCertificate = BdlCertificate(_bdlCertificate);\n\n        addTestCategories();\n    }\n\n    // ========= Administation ========= //\n\n    function setInstructorRegistrationFee(uint256 amount) public onlyOwner {\n        instructorRegistrationFee = amount;\n    }\n\n    function addCategory(string memory name, string memory image)\n        public\n        onlyOwner\n    {\n        categories[contractCategoryID] = Models.Category(\n            contractCategoryID,\n            name,\n            image\n        );\n\n        contractCategoryID++;\n    }\n\n    // test\n    function mint() public {\n        bdlNft.mint(msg.sender);\n    }\n\n    // ========== Testing ========== //\n    function faucetMint() public {\n        bdlToken.mint(msg.sender);\n    }\n\n    // ========= Instructors =========== //\n\n    function createCourse(\n        string memory name,\n        string memory description,\n        uint categoryId\n    ) public onlyInstructor {\n        Models.Course memory course = courses[contractCourseID];\n\n        // create new freah course\n        courses[contractCourseID] = Models.Course(\n            contractCourseID,\n            name,\n            description,\n            categoryId,\n            course.ipfsPhoto,\n            msg.sender,\n            course.students,\n            course.ratings,\n            0,\n            course.metadata,\n            false,\n            block.timestamp,\n            block.timestamp\n        );\n\n        // assign course ownership to intructor\n        instructors[msg.sender].courses.push(contractCourseID);\n\n        // increment id\n        contractCourseID++;\n    }\n\n    function addSectionToCourse(\n        uint courseId,\n        string memory title,\n        string memory src,\n        string memory content,\n        uint updateFor\n    ) public onlyInstructor {\n        Models.Course memory course = courses[courseId];\n\n        require(course.id != 0, \"!exists\");\n        require(course.instructor == msg.sender, \"!authorized\");\n\n        if (updateFor == 0) {\n            courseSections[courseId].push(\n                Models.CourseSection(\n                    courseSections[courseId].length + 1,\n                    title,\n                    src,\n                    content\n                )\n            );\n        } else {\n            courseSections[courseId][updateFor] = Models.CourseSection(\n                updateFor,\n                title,\n                src,\n                content\n            );\n        }\n    }\n\n    function deleteCourseSection(uint courseId, uint sectionIndex)\n        public\n        onlyInstructor\n    {\n        Models.Course memory course = courses[courseId];\n\n        require(course.id != 0, \"!exists\");\n        require(course.instructor == msg.sender, \"!authorized\");\n        require(courseSections[courseId][sectionIndex].id != 0, \"!exists\");\n\n        delete courseSections[courseId][sectionIndex];\n    }\n\n    function getInstructorCoursesLength(address instructor)\n        public\n        view\n        returns (uint)\n    {\n        return instructors[instructor].courses.length;\n    }\n\n    function getInstructorCourseIdAtIndex(address instructor, uint index)\n        public\n        view\n        returns (uint)\n    {\n        return instructors[instructor].courses[index];\n    }\n\n    function createInstructorAccount(\n        string memory firstName,\n        string memory lastName,\n        string memory location,\n        uint gender\n    ) public notAnyone {\n        // stake instruction fee\n        bdlToken.increaseAllowance(\n            msg.sender,\n            address(this),\n            instructorRegistrationFee\n        );\n\n        bdlToken.transferFrom(\n            msg.sender,\n            address(this),\n            instructorRegistrationFee\n        );\n\n        Models.Instructor memory instructor = instructors[msg.sender];\n\n        instructors[msg.sender] = Models.Instructor(\n            contractInstructorID,\n            firstName,\n            lastName,\n            location,\n            gender,\n            false,\n            instructor.ipfsPhoto,\n            instructor.twitter,\n            instructor.linkedin,\n            instructor.courses,\n            block.timestamp\n        );\n\n        contractInstructorID++;\n    }\n\n    // ========= Students ========== //\n\n    function createStudentAccount(\n        string memory name,\n        string memory email,\n        uint gender\n    ) public notAnyone {\n        Models.Student memory student = students[msg.sender];\n\n        students[msg.sender] = Models.Student(\n            contractStudentID,\n            name,\n            email,\n            gender,\n            student.ipfsPhoto,\n            student.country,\n            block.timestamp,\n            student.courses\n        );\n\n        contractStudentID++;\n    }\n\n    function purchaseCourse(uint courseId) public onlyStudent {\n        Models.Course storage course = courses[courseId];\n\n        require(course.id != 0, \"!exists\");\n\n        // lock the student funds to smart contract\n        bdlToken.increaseAllowance(msg.sender, address(this), course.price);\n        bdlToken.transferFrom(msg.sender, address(this), course.price);\n\n        // create course for student\n        studentCourses[msg.sender].push(\n            Models.StudentCourse(\n                courseId,\n                true,\n                course.price,\n                0,\n                block.timestamp\n            )\n        );\n\n        emit CoursePurchased(course.instructor, msg.sender, courseId);\n    }\n\n    function rejectCourse(uint courseId, uint sections) public onlyStudent {\n        Models.StudentCourse memory studentCourse = studentCourses[msg.sender][\n            courseId\n        ];\n\n        Models.Course memory course = courses[courseId];\n\n        require(course.id != 0, \"!exists\");\n\n        // check is course is not over 2 weeks\n        require(studentCourse.purchasedAt > 2, \">2weeks.\");\n\n        uint refundableSections = (studentCourse.sectionsViewed - sections);\n\n        require(refundableSections > 0, \"!refunable\");\n\n        uint256 refundableAmount = (refundableSections * course.price);\n\n        // terminate student course\n        delete studentCourses[msg.sender][courseId];\n\n        // refund the student\n        bdlToken.transferFrom(address(this), msg.sender, refundableAmount);\n\n        emit CourseRejected(msg.sender, courseId, studentCourse.sectionsViewed);\n    }\n\n    // function onNextCourseSection(\n    //     uint courseId,\n    //     uint sections,\n    //     string memory uri\n    // ) public onlyStudent returns (string memory) {\n    //     Models.Course storage course = courses[courseId];\n\n    //     require(course.id != 0, \"!exists\");\n\n    //     Models.StudentCourse storage studentCourse = studentCourses[msg.sender][\n    //         courseId\n    //     ];\n\n    //     // students moved to another section of the course\n    //     // unlock part payment to the instructor (conditionally)\n    //     uint pricePerSection = (course.price / sections);\n\n    //     if (studentCourse.unlocked >= pricePerSection) {\n    //         studentCourse.unlocked -= pricePerSection;\n    //         bdlToken.transferFrom(\n    //             address(this),\n    //             course.instructor,\n    //             pricePerSection\n    //         );\n    //     }\n\n    //     // checks if students has completed the course\n    //     uint progress = (studentCourse.sectionsViewed / sections);\n\n    //     if (progress >= 1) {\n    //         onCompletedCourse(msg.sender, courseId, uri);\n    //         return \"course_completed\";\n    //     } else {\n    //         studentCourse.sectionsViewed++;\n    //         return \"course_next_section\";\n    //     }\n    // }\n\n    function onCompletedCourse(\n        uint courseId,\n        string memory uri\n    ) public onlyStudent {\n        require(courses[courseId].id != 0, \"!exists\");\n        generateCerticate(msg.sender, uri);\n        // bdlNft.mint(msg.sender);\n    }\n\n    function generateCerticate(\n        address student,\n        string memory uri\n    ) private {\n        bdlCertificate.issue(student, uri);\n    }\n\n    modifier onlyInstructor() {\n        require(instructors[msg.sender].id != 0, \"!authorized\");\n        _;\n    }\n\n    modifier onlyStudent() {\n        require(students[msg.sender].id != 0, \"!authorized\");\n        _;\n    }\n\n    modifier onlyOwner() {\n        require(msg.sender == deployer, \"!authorized\");\n        _;\n    }\n\n    modifier notAnyone() {\n        require(\n            (students[msg.sender].id == 0 && instructors[msg.sender].id == 0),\n            \"!authorized\"\n        );\n        _;\n    }\n\n    // ========== events ========== //\n    event CourseCompletion(address student, uint courseId);\n    event CoursePurchased(address intructor, address student, uint courseId);\n    event CourseRejected(address student, uint courseId, uint sectionsViewed);\n\n    // ========== test =========== //\n    function addTestCategories() private {\n        addCategory(\n            \"Web Development\",\n            \"/images/categories/web-development.webp\"\n        );\n        addCategory(\"Cooking\", \"/images/categories/cooking.webp\");\n        addCategory(\"UI/UX Designing\", \"/images/categories/ui-ux.webp\");\n        addCategory(\"3D Animation\", \"/images/categories/animation.webp\");\n        addCategory(\"Illustration\", \"/images/categories/illustration.webp\");\n        addCategory(\"Data Science\", \"/images/categories/data-science.webp\");\n        addCategory(\"Speaking\", \"/images/categories/speaking.webp\");\n        addCategory(\"Music\", \"/images/categories/music.webp\");\n        addCategory(\"Photography\", \"/images/categories/photography.webp\");\n        addCategory(\"Marketing\", \"/images/categories/marketing.webp\");\n    }\n}\n",
  "sourcePath": "C:\\Users\\Arogundade Ibrahim\\Documents\\web3\\Buidl\\contracts\\Buidl.sol",
  "compiler": {
    "name": "solc",
    "version": "0.8.17+commit.8df45f5f.Emscripten.clang"
  },
  "schemaVersion": "3.4.10",
  "updatedAt": "2022-10-21T10:03:42.302Z",
  "devdoc": {
    "kind": "dev",
    "methods": {},
    "version": 1
  },
  "userdoc": {
    "kind": "user",
    "methods": {},
    "version": 1
  }
}