{
  "contractName": "Buidl",
  "abi": [
    {
      "inputs": [
        {
          "internalType": "address",
          "name": "_bdlToken",
          "type": "address"
        },
        {
          "internalType": "address",
          "name": "_bdlNft",
          "type": "address"
        },
        {
          "internalType": "address",
          "name": "_bdlCertificate",
          "type": "address"
        }
      ],
      "stateMutability": "nonpayable",
      "type": "constructor"
    },
    {
      "anonymous": false,
      "inputs": [
        {
          "indexed": false,
          "internalType": "address",
          "name": "student",
          "type": "address"
        },
        {
          "indexed": false,
          "internalType": "uint256",
          "name": "courseId",
          "type": "uint256"
        }
      ],
      "name": "CertificateIssued",
      "type": "event"
    },
    {
      "anonymous": false,
      "inputs": [
        {
          "indexed": false,
          "internalType": "address",
          "name": "student",
          "type": "address"
        },
        {
          "indexed": false,
          "internalType": "uint256",
          "name": "courseId",
          "type": "uint256"
        }
      ],
      "name": "CourseCompletion",
      "type": "event"
    },
    {
      "anonymous": false,
      "inputs": [
        {
          "indexed": false,
          "internalType": "address",
          "name": "intructor",
          "type": "address"
        },
        {
          "indexed": false,
          "internalType": "address",
          "name": "student",
          "type": "address"
        },
        {
          "indexed": false,
          "internalType": "uint256",
          "name": "courseId",
          "type": "uint256"
        }
      ],
      "name": "CoursePurchased",
      "type": "event"
    },
    {
      "anonymous": false,
      "inputs": [
        {
          "indexed": false,
          "internalType": "address",
          "name": "student",
          "type": "address"
        },
        {
          "indexed": false,
          "internalType": "uint256",
          "name": "courseId",
          "type": "uint256"
        },
        {
          "indexed": false,
          "internalType": "uint256",
          "name": "sectionsViewed",
          "type": "uint256"
        }
      ],
      "name": "CourseRejected",
      "type": "event"
    },
    {
      "inputs": [
        {
          "internalType": "uint256",
          "name": "",
          "type": "uint256"
        }
      ],
      "name": "courses",
      "outputs": [
        {
          "internalType": "uint256",
          "name": "id",
          "type": "uint256"
        },
        {
          "internalType": "address",
          "name": "instructor",
          "type": "address"
        },
        {
          "internalType": "uint256",
          "name": "price",
          "type": "uint256"
        },
        {
          "internalType": "string",
          "name": "level",
          "type": "string"
        },
        {
          "internalType": "string",
          "name": "ipfsHash",
          "type": "string"
        },
        {
          "internalType": "bool",
          "name": "isPublished",
          "type": "bool"
        },
        {
          "internalType": "uint256",
          "name": "sections",
          "type": "uint256"
        },
        {
          "internalType": "uint256",
          "name": "category",
          "type": "uint256"
        },
        {
          "internalType": "uint256",
          "name": "createdAt",
          "type": "uint256"
        },
        {
          "internalType": "uint256",
          "name": "updatedAt",
          "type": "uint256"
        }
      ],
      "stateMutability": "view",
      "type": "function"
    },
    {
      "inputs": [
        {
          "internalType": "address",
          "name": "",
          "type": "address"
        }
      ],
      "name": "instructors",
      "outputs": [
        {
          "internalType": "uint256",
          "name": "id",
          "type": "uint256"
        },
        {
          "internalType": "string",
          "name": "firstName",
          "type": "string"
        },
        {
          "internalType": "string",
          "name": "lastName",
          "type": "string"
        },
        {
          "internalType": "string",
          "name": "location",
          "type": "string"
        },
        {
          "internalType": "uint256",
          "name": "gender",
          "type": "uint256"
        },
        {
          "internalType": "bool",
          "name": "isVerified",
          "type": "bool"
        },
        {
          "internalType": "string",
          "name": "ipfsPhoto",
          "type": "string"
        },
        {
          "internalType": "string",
          "name": "twitter",
          "type": "string"
        },
        {
          "internalType": "string",
          "name": "linkedin",
          "type": "string"
        },
        {
          "internalType": "uint256",
          "name": "createdAt",
          "type": "uint256"
        }
      ],
      "stateMutability": "view",
      "type": "function"
    },
    {
      "inputs": [
        {
          "internalType": "address",
          "name": "",
          "type": "address"
        }
      ],
      "name": "students",
      "outputs": [
        {
          "internalType": "uint256",
          "name": "id",
          "type": "uint256"
        },
        {
          "internalType": "string",
          "name": "name",
          "type": "string"
        },
        {
          "internalType": "string",
          "name": "emailAddress",
          "type": "string"
        },
        {
          "internalType": "string",
          "name": "gender",
          "type": "string"
        },
        {
          "internalType": "string",
          "name": "ipfsPhoto",
          "type": "string"
        },
        {
          "internalType": "string",
          "name": "country",
          "type": "string"
        },
        {
          "internalType": "uint256",
          "name": "createdAt",
          "type": "uint256"
        }
      ],
      "stateMutability": "view",
      "type": "function"
    },
    {
      "inputs": [
        {
          "internalType": "uint256",
          "name": "amount",
          "type": "uint256"
        }
      ],
      "name": "setInstructorRegistrationFee",
      "outputs": [],
      "stateMutability": "nonpayable",
      "type": "function"
    },
    {
      "inputs": [
        {
          "internalType": "string",
          "name": "ipfsHash",
          "type": "string"
        },
        {
          "internalType": "string",
          "name": "level",
          "type": "string"
        },
        {
          "internalType": "uint256",
          "name": "courseCategory",
          "type": "uint256"
        }
      ],
      "name": "createCourse",
      "outputs": [],
      "stateMutability": "nonpayable",
      "type": "function"
    },
    {
      "inputs": [
        {
          "internalType": "string",
          "name": "firstName",
          "type": "string"
        },
        {
          "internalType": "string",
          "name": "lastName",
          "type": "string"
        },
        {
          "internalType": "string",
          "name": "location",
          "type": "string"
        },
        {
          "internalType": "uint256",
          "name": "gender",
          "type": "uint256"
        }
      ],
      "name": "createInstructorAccount",
      "outputs": [],
      "stateMutability": "nonpayable",
      "type": "function"
    },
    {
      "inputs": [
        {
          "internalType": "uint256",
          "name": "courseId",
          "type": "uint256"
        }
      ],
      "name": "purchaseCourse",
      "outputs": [],
      "stateMutability": "nonpayable",
      "type": "function"
    },
    {
      "inputs": [
        {
          "internalType": "uint256",
          "name": "courseId",
          "type": "uint256"
        }
      ],
      "name": "rejectCourse",
      "outputs": [],
      "stateMutability": "nonpayable",
      "type": "function"
    },
    {
      "inputs": [
        {
          "internalType": "uint256",
          "name": "courseId",
          "type": "uint256"
        }
      ],
      "name": "onNextCourseSection",
      "outputs": [
        {
          "internalType": "string",
          "name": "",
          "type": "string"
        }
      ],
      "stateMutability": "nonpayable",
      "type": "function"
    }
  ],
  "bytecode": "0x6080604052600160045560016005556127106006553480156200002157600080fd5b5060405162003930380380620039308339818101604052810190620000479190620001bd565b336000806101000a81548173ffffffffffffffffffffffffffffffffffffffff021916908373ffffffffffffffffffffffffffffffffffffffff16021790555082600160006101000a81548173ffffffffffffffffffffffffffffffffffffffff021916908373ffffffffffffffffffffffffffffffffffffffff16021790555081600260006101000a81548173ffffffffffffffffffffffffffffffffffffffff021916908373ffffffffffffffffffffffffffffffffffffffff16021790555080600360006101000a81548173ffffffffffffffffffffffffffffffffffffffff021916908373ffffffffffffffffffffffffffffffffffffffff16021790555050505062000219565b600080fd5b600073ffffffffffffffffffffffffffffffffffffffff82169050919050565b6000620001858262000158565b9050919050565b620001978162000178565b8114620001a357600080fd5b50565b600081519050620001b7816200018c565b92915050565b600080600060608486031215620001d957620001d862000153565b5b6000620001e986828701620001a6565b9350506020620001fc86828701620001a6565b92505060406200020f86828701620001a6565b9150509250925092565b61370780620002296000396000f3fe608060405234801561001057600080fd5b50600436106100935760003560e01c806396f979d21161006657806396f979d214610125578063a4adb24b1461015e578063a6c807a91461017a578063c5e4ed93146101b0578063cd131938146101e057610093565b8063097167ba1461009857806313a017e7146100b45780632a47d91c146100d05780635a63738414610109575b600080fd5b6100b260048036038101906100ad9190612971565b6101fc565b005b6100ce60048036038101906100c99190612971565b610206565b005b6100ea60048036038101906100e591906129fc565b6107ed565b6040516101009a99989796959493929190612ae3565b60405180910390f35b610123600480360381019061011e9190612cde565b610b7e565b005b61013f600480360381019061013a9190612971565b6112e8565b6040516101559a99989796959493929190612da8565b60405180910390f35b61017860048036038101906101739190612e52565b611479565b005b610194600480360381019061018f91906129fc565b61197f565b6040516101a79796959493929190612edd565b60405180910390f35b6101ca60048036038101906101c59190612971565b611c69565b6040516101d79190612f6f565b60405180910390f35b6101fa60048036038101906101f59190612971565b611f2b565b005b8060068190555050565b6000600860003373ffffffffffffffffffffffffffffffffffffffff1673ffffffffffffffffffffffffffffffffffffffff168152602001908152602001600020600001540361028b576040517f08c379a000000000000000000000000000000000000000000000000000000000815260040161028290612fdd565b60405180910390fd5b6000600860003373ffffffffffffffffffffffffffffffffffffffff1673ffffffffffffffffffffffffffffffffffffffff16815260200190815260200160002060070160008381526020019081526020016000206040518060c001604052908160008201548152602001600182015481526020016002820160009054906101000a900460ff161515151581526020016003820154815260200160048201548152602001600582015481525050905060006009600084815260200190815260200160002060405180610160016040529081600082015481526020016001820160009054906101000a900473ffffffffffffffffffffffffffffffffffffffff1673ffffffffffffffffffffffffffffffffffffffff1673ffffffffffffffffffffffffffffffffffffffff1681526020016002820180548060200260200160405190810160405280929190818152602001828054801561044057602002820191906000526020600020905b8160009054906101000a900473ffffffffffffffffffffffffffffffffffffffff1673ffffffffffffffffffffffffffffffffffffffff16815260200190600101908083116103f6575b50505050508152602001600382015481526020016004820180546104639061302c565b80601f016020809104026020016040519081016040528092919081815260200182805461048f9061302c565b80156104dc5780601f106104b1576101008083540402835291602001916104dc565b820191906000526020600020905b8154815290600101906020018083116104bf57829003601f168201915b505050505081526020016005820180546104f59061302c565b80601f01602080910402602001604051908101604052809291908181526020018280546105219061302c565b801561056e5780601f106105435761010080835404028352916020019161056e565b820191906000526020600020905b81548152906001019060200180831161055157829003601f168201915b505050505081526020016006820160009054906101000a900460ff16151515158152602001600782015481526020016008820154815260200160098201548152602001600a82015481525050905060028260a0015111610603576040517f08c379a00000000000000000000000000000000000000000000000000000000081526004016105fa906130cf565b60405180910390fd5b60008160e001518360800151610619919061311e565b90506000811161065e576040517f08c379a0000000000000000000000000000000000000000000000000000000008152600401610655906131c4565b60405180910390fd5b600082606001518261067091906131e4565b9050600860003373ffffffffffffffffffffffffffffffffffffffff1673ffffffffffffffffffffffffffffffffffffffff168152602001908152602001600020600701600086815260200190815260200160002060008082016000905560018201600090556002820160006101000a81549060ff02191690556003820160009055600482016000905560058201600090555050600160009054906101000a900473ffffffffffffffffffffffffffffffffffffffff1673ffffffffffffffffffffffffffffffffffffffff166323b872dd3033846040518463ffffffff1660e01b815260040161076393929190613226565b6020604051808303816000875af1158015610782573d6000803e3d6000fd5b505050506040513d601f19601f820116820180604052508101906107a69190613289565b507fdc66f972de0418acb83d72185cdafd8f63206f06f26f08008effbcf11495f2fd338686608001516040516107de939291906132b6565b60405180910390a15050505050565b60076020528060005260406000206000915090508060000154908060010180546108169061302c565b80601f01602080910402602001604051908101604052809291908181526020018280546108429061302c565b801561088f5780601f106108645761010080835404028352916020019161088f565b820191906000526020600020905b81548152906001019060200180831161087257829003601f168201915b5050505050908060020180546108a49061302c565b80601f01602080910402602001604051908101604052809291908181526020018280546108d09061302c565b801561091d5780601f106108f25761010080835404028352916020019161091d565b820191906000526020600020905b81548152906001019060200180831161090057829003601f168201915b5050505050908060030180546109329061302c565b80601f016020809104026020016040519081016040528092919081815260200182805461095e9061302c565b80156109ab5780601f10610980576101008083540402835291602001916109ab565b820191906000526020600020905b81548152906001019060200180831161098e57829003601f168201915b5050505050908060040154908060050160009054906101000a900460ff16908060060180546109d99061302c565b80601f0160208091040260200160405190810160405280929190818152602001828054610a059061302c565b8015610a525780601f10610a2757610100808354040283529160200191610a52565b820191906000526020600020905b815481529060010190602001808311610a3557829003601f168201915b505050505090806007018054610a679061302c565b80601f0160208091040260200160405190810160405280929190818152602001828054610a939061302c565b8015610ae05780601f10610ab557610100808354040283529160200191610ae0565b820191906000526020600020905b815481529060010190602001808311610ac357829003601f168201915b505050505090806008018054610af59061302c565b80601f0160208091040260200160405190810160405280929190818152602001828054610b219061302c565b8015610b6e5780601f10610b4357610100808354040283529160200191610b6e565b820191906000526020600020905b815481529060010190602001808311610b5157829003601f168201915b50505050509080600a015490508a565b6000600860003373ffffffffffffffffffffffffffffffffffffffff1673ffffffffffffffffffffffffffffffffffffffff16815260200190815260200160002060000154148015610c1257506000600760003373ffffffffffffffffffffffffffffffffffffffff1673ffffffffffffffffffffffffffffffffffffffff16815260200190815260200160002060000154145b610c51576040517f08c379a0000000000000000000000000000000000000000000000000000000008152600401610c4890612fdd565b60405180910390fd5b600160009054906101000a900473ffffffffffffffffffffffffffffffffffffffff1673ffffffffffffffffffffffffffffffffffffffff166323b872dd33306006546040518463ffffffff1660e01b8152600401610cb293929190613226565b6020604051808303816000875af1158015610cd1573d6000803e3d6000fd5b505050506040513d601f19601f82011682018060405250810190610cf59190613289565b506000600760003373ffffffffffffffffffffffffffffffffffffffff1673ffffffffffffffffffffffffffffffffffffffff1681526020019081526020016000206040518061016001604052908160008201548152602001600182018054610d5d9061302c565b80601f0160208091040260200160405190810160405280929190818152602001828054610d899061302c565b8015610dd65780601f10610dab57610100808354040283529160200191610dd6565b820191906000526020600020905b815481529060010190602001808311610db957829003601f168201915b50505050508152602001600282018054610def9061302c565b80601f0160208091040260200160405190810160405280929190818152602001828054610e1b9061302c565b8015610e685780601f10610e3d57610100808354040283529160200191610e68565b820191906000526020600020905b815481529060010190602001808311610e4b57829003601f168201915b50505050508152602001600382018054610e819061302c565b80601f0160208091040260200160405190810160405280929190818152602001828054610ead9061302c565b8015610efa5780601f10610ecf57610100808354040283529160200191610efa565b820191906000526020600020905b815481529060010190602001808311610edd57829003601f168201915b50505050508152602001600482015481526020016005820160009054906101000a900460ff16151515158152602001600682018054610f389061302c565b80601f0160208091040260200160405190810160405280929190818152602001828054610f649061302c565b8015610fb15780601f10610f8657610100808354040283529160200191610fb1565b820191906000526020600020905b815481529060010190602001808311610f9457829003601f168201915b50505050508152602001600782018054610fca9061302c565b80601f0160208091040260200160405190810160405280929190818152602001828054610ff69061302c565b80156110435780601f1061101857610100808354040283529160200191611043565b820191906000526020600020905b81548152906001019060200180831161102657829003601f168201915b5050505050815260200160088201805461105c9061302c565b80601f01602080910402602001604051908101604052809291908181526020018280546110889061302c565b80156110d55780601f106110aa576101008083540402835291602001916110d5565b820191906000526020600020905b8154815290600101906020018083116110b857829003601f168201915b505050505081526020016009820180548060200260200160405190810160405280929190818152602001828054801561112d57602002820191906000526020600020905b815481526020019060010190808311611119575b50505050508152602001600a82015481525050905060405180610160016040528060045481526020018681526020018581526020018481526020018381526020016000151581526020018260c0015181526020018260e0015181526020018261010001518152602001826101200151815260200142815250600760003373ffffffffffffffffffffffffffffffffffffffff1673ffffffffffffffffffffffffffffffffffffffff1681526020019081526020016000206000820151816000015560208201518160010190816112039190613499565b5060408201518160020190816112199190613499565b50606082015181600301908161122f9190613499565b506080820151816004015560a08201518160050160006101000a81548160ff02191690831515021790555060c082015181600601908161126f9190613499565b5060e08201518160070190816112859190613499565b5061010082015181600801908161129c9190613499565b506101208201518160090190805190602001906112ba929190612833565b5061014082015181600a0155905050600460008154809291906112dc9061356b565b91905055505050505050565b60096020528060005260406000206000915090508060000154908060010160009054906101000a900473ffffffffffffffffffffffffffffffffffffffff169080600301549080600401805461133d9061302c565b80601f01602080910402602001604051908101604052809291908181526020018280546113699061302c565b80156113b65780601f1061138b576101008083540402835291602001916113b6565b820191906000526020600020905b81548152906001019060200180831161139957829003601f168201915b5050505050908060050180546113cb9061302c565b80601f01602080910402602001604051908101604052809291908181526020018280546113f79061302c565b80156114445780601f1061141957610100808354040283529160200191611444565b820191906000526020600020905b81548152906001019060200180831161142757829003601f168201915b5050505050908060060160009054906101000a900460ff169080600701549080600801549080600901549080600a015490508a565b6000600760003373ffffffffffffffffffffffffffffffffffffffff1673ffffffffffffffffffffffffffffffffffffffff16815260200190815260200160002060000154036114fe576040517f08c379a00000000000000000000000000000000000000000000000000000000081526004016114f590612fdd565b60405180910390fd5b600060096000600554815260200190815260200160002060405180610160016040529081600082015481526020016001820160009054906101000a900473ffffffffffffffffffffffffffffffffffffffff1673ffffffffffffffffffffffffffffffffffffffff1673ffffffffffffffffffffffffffffffffffffffff1681526020016002820180548060200260200160405190810160405280929190818152602001828054801561160657602002820191906000526020600020905b8160009054906101000a900473ffffffffffffffffffffffffffffffffffffffff1673ffffffffffffffffffffffffffffffffffffffff16815260200190600101908083116115bc575b50505050508152602001600382015481526020016004820180546116299061302c565b80601f01602080910402602001604051908101604052809291908181526020018280546116559061302c565b80156116a25780601f10611677576101008083540402835291602001916116a2565b820191906000526020600020905b81548152906001019060200180831161168557829003601f168201915b505050505081526020016005820180546116bb9061302c565b80601f01602080910402602001604051908101604052809291908181526020018280546116e79061302c565b80156117345780601f1061170957610100808354040283529160200191611734565b820191906000526020600020905b81548152906001019060200180831161171757829003601f168201915b505050505081526020016006820160009054906101000a900460ff16151515158152602001600782015481526020016008820154815260200160098201548152602001600a82015481525050905060405180610160016040528060055481526020013373ffffffffffffffffffffffffffffffffffffffff168152602001826040015181526020016000815260200184815260200185815260200160001515815260200160008152602001838152602001428152602001428152506009600060055481526020019081526020016000206000820151816000015560208201518160010160006101000a81548173ffffffffffffffffffffffffffffffffffffffff021916908373ffffffffffffffffffffffffffffffffffffffff1602179055506040820151816002019080519060200190611871929190612880565b506060820151816003015560808201518160040190816118919190613499565b5060a08201518160050190816118a79190613499565b5060c08201518160060160006101000a81548160ff02191690831515021790555060e082015181600701556101008201518160080155610120820151816009015561014082015181600a0155905050600760003373ffffffffffffffffffffffffffffffffffffffff1673ffffffffffffffffffffffffffffffffffffffff1681526020019081526020016000206009016005549080600181540180825580915050600190039060005260206000200160009091909190915055600560008154809291906119749061356b565b919050555050505050565b60086020528060005260406000206000915090508060000154908060010180546119a89061302c565b80601f01602080910402602001604051908101604052809291908181526020018280546119d49061302c565b8015611a215780601f106119f657610100808354040283529160200191611a21565b820191906000526020600020905b815481529060010190602001808311611a0457829003601f168201915b505050505090806002018054611a369061302c565b80601f0160208091040260200160405190810160405280929190818152602001828054611a629061302c565b8015611aaf5780601f10611a8457610100808354040283529160200191611aaf565b820191906000526020600020905b815481529060010190602001808311611a9257829003601f168201915b505050505090806003018054611ac49061302c565b80601f0160208091040260200160405190810160405280929190818152602001828054611af09061302c565b8015611b3d5780601f10611b1257610100808354040283529160200191611b3d565b820191906000526020600020905b815481529060010190602001808311611b2057829003601f168201915b505050505090806004018054611b529061302c565b80601f0160208091040260200160405190810160405280929190818152602001828054611b7e9061302c565b8015611bcb5780601f10611ba057610100808354040283529160200191611bcb565b820191906000526020600020905b815481529060010190602001808311611bae57829003601f168201915b505050505090806005018054611be09061302c565b80601f0160208091040260200160405190810160405280929190818152602001828054611c0c9061302c565b8015611c595780601f10611c2e57610100808354040283529160200191611c59565b820191906000526020600020905b815481529060010190602001808311611c3c57829003601f168201915b5050505050908060060154905087565b60606000600860003373ffffffffffffffffffffffffffffffffffffffff1673ffffffffffffffffffffffffffffffffffffffff1681526020019081526020016000206000015403611cf0576040517f08c379a0000000000000000000000000000000000000000000000000000000008152600401611ce790612fdd565b60405180910390fd5b60006009600084815260200190815260200160002090506000600860003373ffffffffffffffffffffffffffffffffffffffff1673ffffffffffffffffffffffffffffffffffffffff16815260200190815260200160002060070160008581526020019081526020016000209050600082600701548360030154611d7491906135e2565b905080826003015410611e645780826003016000828254611d95919061311e565b92505081905550600160009054906101000a900473ffffffffffffffffffffffffffffffffffffffff1673ffffffffffffffffffffffffffffffffffffffff166323b872dd308560010160009054906101000a900473ffffffffffffffffffffffffffffffffffffffff16846040518463ffffffff1660e01b8152600401611e1f93929190613226565b6020604051808303816000875af1158015611e3e573d6000803e3d6000fd5b505050506040513d601f19601f82011682018060405250810190611e629190613289565b505b600083600701548360040154611e7a91906135e2565b905060018110611ecf57611e8e33876121ae565b6040518060400160405280601081526020017f636f757273655f636f6d706c6574656400000000000000000000000000000000815250945050505050611f26565b826004016000815480929190611ee49061356b565b91905055506040518060400160405280601381526020017f636f757273655f6e6578745f73656374696f6e000000000000000000000000008152509450505050505b919050565b6000600860003373ffffffffffffffffffffffffffffffffffffffff1673ffffffffffffffffffffffffffffffffffffffff1681526020019081526020016000206000015403611fb0576040517f08c379a0000000000000000000000000000000000000000000000000000000008152600401611fa790612fdd565b60405180910390fd5b6000600960008381526020019081526020016000209050600160009054906101000a900473ffffffffffffffffffffffffffffffffffffffff1673ffffffffffffffffffffffffffffffffffffffff166323b872dd333084600301546040518463ffffffff1660e01b815260040161202a93929190613226565b6020604051808303816000875af1158015612049573d6000803e3d6000fd5b505050506040513d601f19601f8201168201806040525081019061206d9190613289565b506040518060c00160405280838152602001838152602001600115158152602001826003015481526020016000815260200142815250600860003373ffffffffffffffffffffffffffffffffffffffff1673ffffffffffffffffffffffffffffffffffffffff1681526020019081526020016000206007016000848152602001908152602001600020600082015181600001556020820151816001015560408201518160020160006101000a81548160ff021916908315150217905550606082015181600301556080820151816004015560a082015181600501559050507fba05698ffe932ba01d3d70f62a2e48d6719cc5df3bdcf9118015af495c4a39b18160010160009054906101000a900473ffffffffffffffffffffffffffffffffffffffff1633846040516121a293929190613226565b60405180910390a15050565b6121b881836121c6565b6121c2818361251f565b5050565b60006009600084815260200190815260200160002060405180610160016040529081600082015481526020016001820160009054906101000a900473ffffffffffffffffffffffffffffffffffffffff1673ffffffffffffffffffffffffffffffffffffffff1673ffffffffffffffffffffffffffffffffffffffff168152602001600282018054806020026020016040519081016040528092919081815260200182805480156122cc57602002820191906000526020600020905b8160009054906101000a900473ffffffffffffffffffffffffffffffffffffffff1673ffffffffffffffffffffffffffffffffffffffff1681526020019060010190808311612282575b50505050508152602001600382015481526020016004820180546122ef9061302c565b80601f016020809104026020016040519081016040528092919081815260200182805461231b9061302c565b80156123685780601f1061233d57610100808354040283529160200191612368565b820191906000526020600020905b81548152906001019060200180831161234b57829003601f168201915b505050505081526020016005820180546123819061302c565b80601f01602080910402602001604051908101604052809291908181526020018280546123ad9061302c565b80156123fa5780601f106123cf576101008083540402835291602001916123fa565b820191906000526020600020905b8154815290600101906020018083116123dd57829003601f168201915b505050505081526020016006820160009054906101000a900460ff16151515158152602001600782015481526020016008820154815260200160098201548152602001600a820154815250509050600081608001519050600360009054906101000a900473ffffffffffffffffffffffffffffffffffffffff1673ffffffffffffffffffffffffffffffffffffffff166304b444d984836040518363ffffffff1660e01b81526004016124ae929190613613565b600060405180830381600087803b1580156124c857600080fd5b505af11580156124dc573d6000803e3d6000fd5b505050507ffec61b9ec0e29047dbeea981617649d79f187d172cfd492695a3d0bfee28883e8385604051612511929190613643565b60405180910390a150505050565b60006009600084815260200190815260200160002060405180610160016040529081600082015481526020016001820160009054906101000a900473ffffffffffffffffffffffffffffffffffffffff1673ffffffffffffffffffffffffffffffffffffffff1673ffffffffffffffffffffffffffffffffffffffff1681526020016002820180548060200260200160405190810160405280929190818152602001828054801561262557602002820191906000526020600020905b8160009054906101000a900473ffffffffffffffffffffffffffffffffffffffff1673ffffffffffffffffffffffffffffffffffffffff16815260200190600101908083116125db575b50505050508152602001600382015481526020016004820180546126489061302c565b80601f01602080910402602001604051908101604052809291908181526020018280546126749061302c565b80156126c15780601f10612696576101008083540402835291602001916126c1565b820191906000526020600020905b8154815290600101906020018083116126a457829003601f168201915b505050505081526020016005820180546126da9061302c565b80601f01602080910402602001604051908101604052809291908181526020018280546127069061302c565b80156127535780601f1061272857610100808354040283529160200191612753565b820191906000526020600020905b81548152906001019060200180831161273657829003601f168201915b505050505081526020016006820160009054906101000a900460ff16151515158152602001600782015481526020016008820154815260200160098201548152602001600a820154815250509050600260009054906101000a900473ffffffffffffffffffffffffffffffffffffffff1673ffffffffffffffffffffffffffffffffffffffff1663b510391f836040518263ffffffff1660e01b81526004016127fc91906136a3565b600060405180830381600087803b15801561281657600080fd5b505af115801561282a573d6000803e3d6000fd5b50505050505050565b82805482825590600052602060002090810192821561286f579160200282015b8281111561286e578251825591602001919060010190612853565b5b50905061287c919061290a565b5090565b8280548282559060005260206000209081019282156128f9579160200282015b828111156128f85782518260006101000a81548173ffffffffffffffffffffffffffffffffffffffff021916908373ffffffffffffffffffffffffffffffffffffffff160217905550916020019190600101906128a0565b5b509050612906919061290a565b5090565b5b8082111561292357600081600090555060010161290b565b5090565b6000604051905090565b600080fd5b600080fd5b6000819050919050565b61294e8161293b565b811461295957600080fd5b50565b60008135905061296b81612945565b92915050565b60006020828403121561298757612986612931565b5b60006129958482850161295c565b91505092915050565b600073ffffffffffffffffffffffffffffffffffffffff82169050919050565b60006129c98261299e565b9050919050565b6129d9816129be565b81146129e457600080fd5b50565b6000813590506129f6816129d0565b92915050565b600060208284031215612a1257612a11612931565b5b6000612a20848285016129e7565b91505092915050565b612a328161293b565b82525050565b600081519050919050565b600082825260208201905092915050565b60005b83811015612a72578082015181840152602081019050612a57565b60008484015250505050565b6000601f19601f8301169050919050565b6000612a9a82612a38565b612aa48185612a43565b9350612ab4818560208601612a54565b612abd81612a7e565b840191505092915050565b60008115159050919050565b612add81612ac8565b82525050565b600061014082019050612af9600083018d612a29565b8181036020830152612b0b818c612a8f565b90508181036040830152612b1f818b612a8f565b90508181036060830152612b33818a612a8f565b9050612b426080830189612a29565b612b4f60a0830188612ad4565b81810360c0830152612b618187612a8f565b905081810360e0830152612b758186612a8f565b9050818103610100830152612b8a8185612a8f565b9050612b9a610120830184612a29565b9b9a5050505050505050505050565b600080fd5b600080fd5b7f4e487b7100000000000000000000000000000000000000000000000000000000600052604160045260246000fd5b612beb82612a7e565b810181811067ffffffffffffffff82111715612c0a57612c09612bb3565b5b80604052505050565b6000612c1d612927565b9050612c298282612be2565b919050565b600067ffffffffffffffff821115612c4957612c48612bb3565b5b612c5282612a7e565b9050602081019050919050565b82818337600083830152505050565b6000612c81612c7c84612c2e565b612c13565b905082815260208101848484011115612c9d57612c9c612bae565b5b612ca8848285612c5f565b509392505050565b600082601f830112612cc557612cc4612ba9565b5b8135612cd5848260208601612c6e565b91505092915050565b60008060008060808587031215612cf857612cf7612931565b5b600085013567ffffffffffffffff811115612d1657612d15612936565b5b612d2287828801612cb0565b945050602085013567ffffffffffffffff811115612d4357612d42612936565b5b612d4f87828801612cb0565b935050604085013567ffffffffffffffff811115612d7057612d6f612936565b5b612d7c87828801612cb0565b9250506060612d8d8782880161295c565b91505092959194509250565b612da2816129be565b82525050565b600061014082019050612dbe600083018d612a29565b612dcb602083018c612d99565b612dd8604083018b612a29565b8181036060830152612dea818a612a8f565b90508181036080830152612dfe8189612a8f565b9050612e0d60a0830188612ad4565b612e1a60c0830187612a29565b612e2760e0830186612a29565b612e35610100830185612a29565b612e43610120830184612a29565b9b9a5050505050505050505050565b600080600060608486031215612e6b57612e6a612931565b5b600084013567ffffffffffffffff811115612e8957612e88612936565b5b612e9586828701612cb0565b935050602084013567ffffffffffffffff811115612eb657612eb5612936565b5b612ec286828701612cb0565b9250506040612ed38682870161295c565b9150509250925092565b600060e082019050612ef2600083018a612a29565b8181036020830152612f048189612a8f565b90508181036040830152612f188188612a8f565b90508181036060830152612f2c8187612a8f565b90508181036080830152612f408186612a8f565b905081810360a0830152612f548185612a8f565b9050612f6360c0830184612a29565b98975050505050505050565b60006020820190508181036000830152612f898184612a8f565b905092915050565b7f556e617574686f72697a65640000000000000000000000000000000000000000600082015250565b6000612fc7600c83612a43565b9150612fd282612f91565b602082019050919050565b60006020820190508181036000830152612ff681612fba565b9050919050565b7f4e487b7100000000000000000000000000000000000000000000000000000000600052602260045260246000fd5b6000600282049050600182168061304457607f821691505b60208210810361305757613056612ffd565b5b50919050565b7f596f752063616e27742072656a656374206120636f75727365206f766572203260008201527f207765656b732e00000000000000000000000000000000000000000000000000602082015250565b60006130b9602783612a43565b91506130c48261305d565b604082019050919050565b600060208201905081810360008301526130e8816130ac565b9050919050565b7f4e487b7100000000000000000000000000000000000000000000000000000000600052601160045260246000fd5b60006131298261293b565b91506131348361293b565b925082820390508181111561314c5761314b6130ef565b5b92915050565b7f4e6f6e65206f662074686520636f757273652073656374696f6e73206973207260008201527f6566756e6461626c650000000000000000000000000000000000000000000000602082015250565b60006131ae602983612a43565b91506131b982613152565b604082019050919050565b600060208201905081810360008301526131dd816131a1565b9050919050565b60006131ef8261293b565b91506131fa8361293b565b92508282026132088161293b565b9150828204841483151761321f5761321e6130ef565b5b5092915050565b600060608201905061323b6000830186612d99565b6132486020830185612d99565b6132556040830184612a29565b949350505050565b61326681612ac8565b811461327157600080fd5b50565b6000815190506132838161325d565b92915050565b60006020828403121561329f5761329e612931565b5b60006132ad84828501613274565b91505092915050565b60006060820190506132cb6000830186612d99565b6132d86020830185612a29565b6132e56040830184612a29565b949350505050565b60008190508160005260206000209050919050565b60006020601f8301049050919050565b600082821b905092915050565b60006008830261334f7fffffffffffffffffffffffffffffffffffffffffffffffffffffffffffffffff82613312565b6133598683613312565b95508019841693508086168417925050509392505050565b6000819050919050565b600061339661339161338c8461293b565b613371565b61293b565b9050919050565b6000819050919050565b6133b08361337b565b6133c46133bc8261339d565b84845461331f565b825550505050565b600090565b6133d96133cc565b6133e48184846133a7565b505050565b5b81811015613408576133fd6000826133d1565b6001810190506133ea565b5050565b601f82111561344d5761341e816132ed565b61342784613302565b81016020851015613436578190505b61344a61344285613302565b8301826133e9565b50505b505050565b600082821c905092915050565b600061347060001984600802613452565b1980831691505092915050565b6000613489838361345f565b9150826002028217905092915050565b6134a282612a38565b67ffffffffffffffff8111156134bb576134ba612bb3565b5b6134c5825461302c565b6134d082828561340c565b600060209050601f83116001811461350357600084156134f1578287015190505b6134fb858261347d565b865550613563565b601f198416613511866132ed565b60005b8281101561353957848901518255600182019150602085019450602081019050613514565b868310156135565784890151613552601f89168261345f565b8355505b6001600288020188555050505b505050505050565b60006135768261293b565b91507fffffffffffffffffffffffffffffffffffffffffffffffffffffffffffffffff82036135a8576135a76130ef565b5b600182019050919050565b7f4e487b7100000000000000000000000000000000000000000000000000000000600052601260045260246000fd5b60006135ed8261293b565b91506135f88361293b565b925082613608576136076135b3565b5b828204905092915050565b60006040820190506136286000830185612d99565b818103602083015261363a8184612a8f565b90509392505050565b60006040820190506136586000830185612d99565b6136656020830184612a29565b9392505050565b600082825260208201905092915050565b50565b600061368d60008361366c565b91506136988261367d565b600082019050919050565b60006040820190506136b86000830184612d99565b81810360208301526136c981613680565b90509291505056fea2646970667358221220ed85a856f3bb3667cf10975d74174fb636002f466330f6af8f0d306b9713705a64736f6c63430008110033",
  "immutableReferences": {},
  "source": "// SPDX-License-Identifier: GPL-3.0\r\n\r\npragma solidity >=0.7.0 <0.9.0;\r\n\r\nimport \"./BdlToken.sol\";\r\nimport \"./BdlNft.sol\";\r\nimport \"./BdlCertificate.sol\";\r\n\r\ncontract Buidl {\r\n\r\n    // state variables\r\n    address deployer;\r\n\r\n    BdlToken bdlToken;\r\n    BdlNft bdlNft;\r\n    BdlCertificate bdlCertificate;\r\n\r\n    uint256 contractInstructorID = 1;\r\n    uint256 contractCourseID = 1;\r\n\r\n    // minimum to stake for a duration of 1year\r\n    uint256 instructorRegistrationFee = 10000;\r\n\r\n    mapping(address => Instructor) public instructors;\r\n    mapping(address => Student) public students;\r\n    mapping(uint => Course) public courses;\r\n\r\n    // contructor\r\n    constructor(address _bdlToken, address _bdlNft, address _bdlCertificate) {\r\n        deployer = msg.sender;\r\n        bdlToken = BdlToken(_bdlToken);\r\n        bdlNft = BdlNft(_bdlNft);\r\n        bdlCertificate = BdlCertificate(_bdlCertificate);\r\n    }   \r\n\r\n    // structs\r\n    struct Instructor {\r\n        uint id;\r\n        string firstName;\r\n        string lastName;\r\n        string location;\r\n        uint gender;\r\n        bool isVerified;\r\n        string ipfsPhoto;\r\n        string twitter;\r\n        string linkedin;\r\n        uint[] courses;\r\n        uint createdAt;\r\n    }\r\n\r\n    struct Course {\r\n        uint id;\r\n        address instructor;\r\n        address[] students; // students offering the course\r\n        uint256 price; // price in bdl token\r\n        string level; // begginer, intermediate...\r\n        string ipfsHash; // course metadata\r\n        bool isPublished; \r\n        uint sections; // number of course sections\r\n        uint category;\r\n        uint createdAt;\r\n        uint updatedAt;\r\n    }\r\n\r\n    struct Student {\r\n        uint id;\r\n        string name;\r\n        string emailAddress;\r\n        string gender;\r\n        string ipfsPhoto;\r\n        string country;\r\n        uint createdAt;\r\n        mapping(uint => StudentCourse) courses;\r\n    }\r\n\r\n    struct StudentCourse {\r\n        uint id;\r\n        uint courseId;\r\n        bool isActive; // paid or rejected\r\n        uint unlocked; // initially equals to price of course\r\n        // then sequentially unlocked to the instructor \r\n        uint sectionsViewed;\r\n        uint purchasedAt;\r\n    }\r\n\r\n    // ========= Administation ========= //\r\n\r\n    function setInstructorRegistrationFee(uint256 amount) public {\r\n        instructorRegistrationFee = amount;\r\n    }\r\n\r\n    // ========= Instructors =========== //\r\n\r\n    function createCourse(\r\n        string memory ipfsHash,\r\n        string memory level,\r\n        uint courseCategory\r\n    ) public onlyInstructor {\r\n        Course memory course = courses[contractCourseID];\r\n\r\n        // create new freah course\r\n        courses[contractCourseID] = Course(\r\n            contractCourseID, msg.sender, course.students,\r\n            0, level, ipfsHash, false, 0, courseCategory, block.timestamp,\r\n            block.timestamp\r\n        );\r\n        \r\n        // assign course ownership to intructor\r\n        instructors[msg.sender].courses.push(contractCourseID);\r\n\r\n        // increment id\r\n        contractCourseID++;\r\n    }\r\n\r\n    function createInstructorAccount(\r\n        string memory firstName,\r\n        string memory lastName,\r\n        string memory location,\r\n        uint gender\r\n    ) public notAnyone {\r\n        // stake instruction fee\r\n        bdlToken.transferFrom(msg.sender, address(this), instructorRegistrationFee);\r\n\r\n        Instructor memory instructor = instructors[msg.sender];\r\n\r\n        instructors[msg.sender] = Instructor(\r\n            contractInstructorID,\r\n            firstName, lastName, location, gender,\r\n            false, instructor.ipfsPhoto, instructor.twitter,\r\n            instructor.linkedin, instructor.courses, block.timestamp\r\n        );\r\n\r\n        contractInstructorID++;\r\n    }\r\n\r\n    // ========= Students ========== //\r\n\r\n    function purchaseCourse(uint courseId) public onlyStudent {\r\n        Course storage course = courses[courseId];\r\n\r\n        // lock the student funds to smart contract\r\n        bdlToken.transferFrom(msg.sender, address(this), course.price);\r\n\r\n        // create course for student\r\n        students[msg.sender].courses[courseId] = StudentCourse(\r\n            courseId, courseId, true, course.price, 0, block.timestamp\r\n        );\r\n\r\n\r\n        emit CoursePurchased(course.instructor, msg.sender, courseId);\r\n    }\r\n\r\n    function rejectCourse(uint courseId) public onlyStudent {\r\n        StudentCourse memory studentCourse = students[msg.sender].courses[courseId];\r\n        Course memory course = courses[courseId];\r\n\r\n        // check is course is not over 2 weeks\r\n        require(studentCourse.purchasedAt > 2, \"You can\\'t reject a course over 2 weeks.\");\r\n\r\n        uint refundableSections = (studentCourse.sectionsViewed - course.sections);\r\n        require(refundableSections > 0, \"None of the course sections is refundable\");\r\n\r\n        uint256 refundableAmount = (refundableSections * course.price);\r\n\r\n        // terminate student course\r\n        delete students[msg.sender].courses[courseId];\r\n\r\n        // refund the student\r\n        bdlToken.transferFrom(address(this), msg.sender, refundableAmount);\r\n\r\n        emit CourseRejected(msg.sender, courseId, studentCourse.sectionsViewed);\r\n    }\r\n\r\n    function onNextCourseSection(uint courseId) public onlyStudent returns(string memory) {\r\n        Course storage course = courses[courseId];\r\n        StudentCourse storage studentCourse = students[msg.sender].courses[courseId];\r\n\r\n        // students moved to another section of the course\r\n        // unlock part payment to the instructor (conditionally)\r\n        uint pricePerSection = (course.price / course.sections);\r\n        if (studentCourse.unlocked >= pricePerSection) {\r\n            studentCourse.unlocked -= pricePerSection;\r\n            bdlToken.transferFrom(address(this), course.instructor, pricePerSection);\r\n        }\r\n\r\n        // checks if students has completed the course\r\n        uint progress = (studentCourse.sectionsViewed / course.sections);\r\n\r\n        if (progress >= 1) {\r\n            onCompletedCourse(msg.sender, courseId);\r\n            return \"course_completed\";\r\n        } else {\r\n            studentCourse.sectionsViewed++;\r\n            return \"course_next_section\";\r\n        }\r\n    }\r\n\r\n    function onCompletedCourse(address student, uint courseId) private {\r\n        generateCerticate(courseId, student);\r\n        mintNftForStudent(courseId, student);\r\n    }\r\n\r\n    function generateCerticate(uint courseId, address student) private {\r\n        Course memory course = courses[courseId];\r\n        string memory uri = course.level;\r\n        // {\r\n        //     \"name\":\"Android Certificate\",\r\n        //     \"description\":\"Mastering Koitlin\",\r\n        //     \"image\":\"https://buidl.com/pic/xxxx.jpg\",\r\n        //     \"external_url\":\"https://originalsite.io/2\",\r\n        //     \"attributes\":[\r\n        //          {\r\n        //              \"trait_type\":\"Rarity Class\",\r\n        //              \"value\":\"Normal\"\r\n        //          },\r\n        //     ]\r\n        // }\r\n        bdlCertificate.issue(student, uri);\r\n\r\n        emit CertificateIssued(student, courseId);\r\n    }\r\n\r\n    function mintNftForStudent(uint courseId, address student) private {\r\n        Course memory course = courses[courseId];\r\n        \r\n        bdlNft.mint(student, \"\");\r\n    }\r\n\r\n    modifier onlyInstructor() {\r\n        require(instructors[msg.sender].id != 0, \"Unauthorized\");\r\n        _;\r\n    }\r\n\r\n    modifier onlyStudent() {\r\n        require(students[msg.sender].id != 0, \"Unauthorized\");\r\n        _;\r\n    }\r\n\r\n    modifier onlyOwner() {\r\n        require(msg.sender == deployer, \"Unauthorized\");\r\n        _;\r\n    }\r\n\r\n    modifier notAnyone() {\r\n        require((students[msg.sender].id == 0 && instructors[msg.sender].id == 0), \"Unauthorized\");\r\n        _;\r\n    }\r\n\r\n\r\n    // ========== events ========== //\r\n    event CourseCompletion(address student, uint courseId);\r\n    event CertificateIssued(address student, uint courseId);\r\n    event CoursePurchased(address intructor, address student, uint courseId);\r\n    event CourseRejected(address student, uint courseId, uint sectionsViewed);\r\n}",
  "sourcePath": "C:\\Users\\Arogundade Ibrahim\\Documents\\web3\\Buidl\\contracts\\Buidl.sol",
  "compiler": {
    "name": "solc",
    "version": "0.8.17+commit.8df45f5f.Emscripten.clang"
  },
  "schemaVersion": "3.4.10",
  "updatedAt": "2022-10-17T16:59:15.687Z",
  "devdoc": {
    "kind": "dev",
    "methods": {},
    "version": 1
  },
  "userdoc": {
    "kind": "user",
    "methods": {},
    "version": 1
  }
}