{
  "contractName": "Buidl",
  "abi": [
    {
      "inputs": [
        {
          "internalType": "address",
          "name": "bdlToken",
          "type": "address"
        },
        {
          "internalType": "address",
          "name": "bdlNft",
          "type": "address"
        },
        {
          "internalType": "address",
          "name": "bdlCertificate",
          "type": "address"
        },
        {
          "internalType": "address",
          "name": "bdlCourse",
          "type": "address"
        },
        {
          "internalType": "address",
          "name": "staking",
          "type": "address"
        }
      ],
      "stateMutability": "nonpayable",
      "type": "constructor"
    },
    {
      "anonymous": false,
      "inputs": [
        {
          "indexed": false,
          "internalType": "address",
          "name": "owner",
          "type": "address"
        },
        {
          "indexed": false,
          "internalType": "bool",
          "name": "verified",
          "type": "bool"
        }
      ],
      "name": "Creator",
      "type": "event"
    },
    {
      "anonymous": false,
      "inputs": [
        {
          "indexed": false,
          "internalType": "address",
          "name": "owner",
          "type": "address"
        },
        {
          "indexed": false,
          "internalType": "string",
          "name": "name",
          "type": "string"
        },
        {
          "indexed": false,
          "internalType": "string",
          "name": "photo",
          "type": "string"
        },
        {
          "indexed": false,
          "internalType": "bool",
          "name": "verified",
          "type": "bool"
        }
      ],
      "name": "User",
      "type": "event"
    },
    {
      "inputs": [
        {
          "internalType": "address",
          "name": "",
          "type": "address"
        }
      ],
      "name": "revenues",
      "outputs": [
        {
          "internalType": "uint256",
          "name": "unclaimed",
          "type": "uint256"
        },
        {
          "internalType": "uint256",
          "name": "claimable",
          "type": "uint256"
        },
        {
          "internalType": "uint256",
          "name": "claimed",
          "type": "uint256"
        }
      ],
      "stateMutability": "view",
      "type": "function"
    },
    {
      "inputs": [
        {
          "internalType": "address",
          "name": "",
          "type": "address"
        }
      ],
      "name": "users",
      "outputs": [
        {
          "internalType": "uint256",
          "name": "id",
          "type": "uint256"
        },
        {
          "internalType": "bool",
          "name": "verified",
          "type": "bool"
        },
        {
          "internalType": "string",
          "name": "photo",
          "type": "string"
        },
        {
          "internalType": "uint256",
          "name": "createdAt",
          "type": "uint256"
        }
      ],
      "stateMutability": "view",
      "type": "function"
    },
    {
      "inputs": [
        {
          "internalType": "string",
          "name": "name",
          "type": "string"
        },
        {
          "internalType": "string",
          "name": "photo",
          "type": "string"
        }
      ],
      "name": "setAccount",
      "outputs": [],
      "stateMutability": "nonpayable",
      "type": "function"
    },
    {
      "inputs": [
        {
          "internalType": "uint256",
          "name": "amount",
          "type": "uint256"
        }
      ],
      "name": "stake",
      "outputs": [],
      "stateMutability": "nonpayable",
      "type": "function"
    },
    {
      "inputs": [],
      "name": "unlockCreator",
      "outputs": [],
      "stateMutability": "nonpayable",
      "type": "function"
    },
    {
      "inputs": [],
      "name": "removeCreator",
      "outputs": [],
      "stateMutability": "nonpayable",
      "type": "function"
    },
    {
      "inputs": [
        {
          "internalType": "uint256",
          "name": "id",
          "type": "uint256"
        }
      ],
      "name": "subscribe",
      "outputs": [],
      "stateMutability": "nonpayable",
      "type": "function"
    },
    {
      "inputs": [
        {
          "internalType": "uint256",
          "name": "id",
          "type": "uint256"
        },
        {
          "internalType": "uint256",
          "name": "sId",
          "type": "uint256"
        }
      ],
      "name": "unSubscribe",
      "outputs": [],
      "stateMutability": "nonpayable",
      "type": "function"
    },
    {
      "inputs": [
        {
          "internalType": "uint256",
          "name": "id",
          "type": "uint256"
        }
      ],
      "name": "refund",
      "outputs": [],
      "stateMutability": "nonpayable",
      "type": "function"
    }
  ],
  "bytecode": "0x60a0604052600a600055686c6b935b8bbd40000060065560006007553480156200002857600080fd5b506040516200117b3803806200117b8339810160408190526200004b91620000cc565b33608052600180546001600160a01b03199081166001600160a01b039687161790915560028054821696861696909617909555600380548616938516939093179092556004805485169184169190911790556005805490931691161790556200013c565b80516001600160a01b0381168114620000c757600080fd5b919050565b600080600080600060a08688031215620000e557600080fd5b620000f086620000af565b94506200010060208701620000af565b93506200011060408701620000af565b92506200012060608701620000af565b91506200013060808701620000af565b90509295509295909350565b60805161102662000155600039600050506110266000f3fe608060405234801561001057600080fd5b50600436106100a35760003560e01c80637f26fc7d11610076578063a694fc3a1161005b578063a694fc3a1461014d578063a87430ba14610160578063c193b2e41461018357600080fd5b80637f26fc7d1461013257806390bf70b01461013a57600080fd5b80630f574ba7146100a8578063278ecde1146100bd57806340971e83146100d057806378ae98c8146100e3575b600080fd5b6100bb6100b6366004610c2b565b61018b565b005b6100bb6100cb366004610c2b565b610338565b6100bb6100de366004610c44565b61051e565b6101126100f1366004610c7e565b60096020526000908152604090208054600182015460029092015490919083565b604080519384526020840192909252908201526060015b60405180910390f35b6100bb610754565b6100bb610148366004610d45565b610812565b6100bb61015b366004610c2b565b61086c565b61017361016e366004610c7e565b6109e4565b6040516101299493929190610def565b6100bb610a99565b600480546040517f59e6951d00000000000000000000000000000000000000000000000000000000815291820183905233602483015260009182916001600160a01b0316906359e6951d9060440160408051808303816000875af11580156101f7573d6000803e3d6000fd5b505050506040513d601f19601f8201168201806040525081019061021b9190610e21565b6001600160a01b038116600090815260096020526040812080549395509193508492610248908490610e67565b909155505060025460405163e1f21c6760e01b8152336004820152306024820152604481018490526001600160a01b039091169063e1f21c6790606401600060405180830381600087803b15801561029f57600080fd5b505af11580156102b3573d6000803e3d6000fd5b50506002546040516323b872dd60e01b8152336004820152306024820152604481018690526001600160a01b0390911692506323b872dd91506064016020604051808303816000875af115801561030e573d6000803e3d6000fd5b505050506040513d601f19601f820116820180604052508101906103329190610e80565b50505050565b600480546040517f7ad226dc0000000000000000000000000000000000000000000000000000000081529182018390523360248301526000918291829182916001600160a01b031690637ad226dc90604401608060405180830381865afa1580156103a7573d6000803e3d6000fd5b505050506040513d601f19601f820116820180604052508101906103cb9190610ea2565b60025460405163e1f21c6760e01b81523360048201523060248201526044810186905294985092965090945092506001600160a01b03169063e1f21c6790606401600060405180830381600087803b15801561042657600080fd5b505af115801561043a573d6000803e3d6000fd5b50506002546040516323b872dd60e01b8152336004820152306024820152604481018890526001600160a01b0390911692506323b872dd91506064016020604051808303816000875af1158015610495573d6000803e3d6000fd5b505050506040513d601f19601f820116820180604052508101906104b99190610e80565b506001600160a01b038216600090815260096020526040812080548392906104e2908490610ee1565b90915550506001600160a01b03821660009081526009602052604081206001018054859290610512908490610e67565b90915550505050505050565b600480546040517fcc7a56a000000000000000000000000000000000000000000000000000000000815291820184905260248201839052336044830152600091829182916001600160a01b039091169063cc7a56a0906064016060604051808303816000875af1158015610596573d6000803e3d6000fd5b505050506040513d601f19601f820116820180604052508101906105ba9190610ef4565b9194509250905060006105cd8483610f2d565b905060006105db8286610ee1565b90506000816006546105ed9190610f4c565b6105f8906064610f2d565b6106029083610ee1565b6001600160a01b03861660009081526009602052604081208054929350839290919061062f908490610e67565b90915550506001600160a01b0385166000908152600960205260408120600101805483929061065f908490610e67565b909155505060025460405163e1f21c6760e01b8152306004820152336024820152604481018590526001600160a01b039091169063e1f21c6790606401600060405180830381600087803b1580156106b657600080fd5b505af11580156106ca573d6000803e3d6000fd5b50506002546040516323b872dd60e01b8152306004820152336024820152604481018790526001600160a01b0390911692506323b872dd91506064016020604051808303816000875af1158015610725573d6000803e3d6000fd5b505050506040513d601f19601f820116820180604052508101906107499190610e80565b505050505050505050565b3360009081526008602052604090206001015460ff166107bb5760405162461bcd60e51b815260206004820152600b60248201527f21617574686f72697a656400000000000000000000000000000000000000000060448201526064015b60405180910390fd5b336000818152600860209081526040808320600101805460ff191690558051938452908301919091527fb5763ba23a8384e26e9f2f5bfcd8e3795e4248ce7bb99a61c9ee6488d352a5b191015b60405180910390a1565b33600081815260086020526040908190206001015490517f2d3804f6670a9e165ddef24bb7f7345753423a96b66b32c302cfefcda19ad467926108609290918691869160ff90911690610f6e565b60405180910390a15050565b60025460405163e1f21c6760e01b8152336004820152306024820152604481018390526001600160a01b039091169063e1f21c6790606401600060405180830381600087803b1580156108be57600080fd5b505af11580156108d2573d6000803e3d6000fd5b50506002546040516323b872dd60e01b8152336004820152306024820152604481018590526001600160a01b0390911692506323b872dd91506064016020604051808303816000875af115801561092d573d6000803e3d6000fd5b505050506040513d601f19601f820116820180604052508101906109519190610e80565b506005546007546040517fab84bb78000000000000000000000000000000000000000000000000000000008152336004820152602481018490526044810191909152600060648201526001600160a01b039091169063ab84bb7890608401600060405180830381600087803b1580156109c957600080fd5b505af11580156109dd573d6000803e3d6000fd5b5050505050565b600860205260009081526040902080546001820154600283018054929360ff90921692610a1090610fb6565b80601f0160208091040260200160405190810160405280929190818152602001828054610a3c90610fb6565b8015610a895780601f10610a5e57610100808354040283529160200191610a89565b820191906000526020600020905b815481529060010190602001808311610a6c57829003601f168201915b5050505050908060040154905084565b3360009081526008602052604090206001015460ff1615610afc5760405162461bcd60e51b815260206004820152600b60248201527f21617574686f72697a656400000000000000000000000000000000000000000060448201526064016107b2565b6005546006546040517fde36071500000000000000000000000000000000000000000000000000000000815260048101919091523360248201526001600160a01b039091169063de36071590604401602060405180830381865afa158015610b68573d6000803e3d6000fd5b505050506040513d601f19601f82011682018060405250810190610b8c9190610e80565b610bd85760405162461bcd60e51b815260206004820152601860248201527f217374616b655f726571756972656d656e745f6669727374000000000000000060448201526064016107b2565b336000818152600860209081526040918290206001908101805460ff1916821790558251938452908301527fb5763ba23a8384e26e9f2f5bfcd8e3795e4248ce7bb99a61c9ee6488d352a5b19101610808565b600060208284031215610c3d57600080fd5b5035919050565b60008060408385031215610c5757600080fd5b50508035926020909101359150565b6001600160a01b0381168114610c7b57600080fd5b50565b600060208284031215610c9057600080fd5b8135610c9b81610c66565b9392505050565b634e487b7160e01b600052604160045260246000fd5b600082601f830112610cc957600080fd5b813567ffffffffffffffff80821115610ce457610ce4610ca2565b604051601f8301601f19908116603f01168101908282118183101715610d0c57610d0c610ca2565b81604052838152866020858801011115610d2557600080fd5b836020870160208301376000602085830101528094505050505092915050565b60008060408385031215610d5857600080fd5b823567ffffffffffffffff80821115610d7057600080fd5b610d7c86838701610cb8565b93506020850135915080821115610d9257600080fd5b50610d9f85828601610cb8565b9150509250929050565b6000815180845260005b81811015610dcf57602081850181015186830182015201610db3565b506000602082860101526020601f19601f83011685010191505092915050565b8481528315156020820152608060408201526000610e106080830185610da9565b905082606083015295945050505050565b60008060408385031215610e3457600080fd5b825191506020830151610e4681610c66565b809150509250929050565b634e487b7160e01b600052601160045260246000fd5b80820180821115610e7a57610e7a610e51565b92915050565b600060208284031215610e9257600080fd5b81518015158114610c9b57600080fd5b60008060008060808587031215610eb857600080fd5b84519350602085015192506040850151610ed181610c66565b6060959095015193969295505050565b81810381811115610e7a57610e7a610e51565b600080600060608486031215610f0957600080fd5b835192506020840151610f1b81610c66565b80925050604084015190509250925092565b6000816000190483118215151615610f4757610f47610e51565b500290565b600082610f6957634e487b7160e01b600052601260045260246000fd5b500490565b6001600160a01b0385168152608060208201526000610f906080830186610da9565b8281036040840152610fa28186610da9565b915050821515606083015295945050505050565b600181811c90821680610fca57607f821691505b602082108103610fea57634e487b7160e01b600052602260045260246000fd5b5091905056fea264697066735822122070597afbd2db84cca0217a8b6bad085a7ef141cd741dc28980cde616f95e53bd64736f6c63430008100033",
  "immutableReferences": {},
  "source": "// SPDX-License-Identifier: GPL-3.0\npragma solidity >=0.7.0 <0.9.0;\n\nimport {BdlNft} from \"./BdlNft.sol\";\nimport {BdlCertificate} from \"./BdlCertificate.sol\";\nimport {Models} from \"./base/Models.sol\";\nimport {BdlToken} from \"./BdlToken.sol\";\nimport {BdlCourse} from \"./BdlCourse.sol\";\nimport {Staking} from \"./Staking.sol\";\n\ncontract Buidl {\n    address private immutable deployer;\n\n    /* fee charged on every succesful subscription made */\n    uint256 private subscriptionFee = 10; // percentage rate\n\n    BdlNft private _bdlNft; // nft reward (coupon) contract\n    BdlToken private _bdlToken; // erc20(streamable token) contract\n    BdlCertificate private _bdlCertificate; // erc4973 certificate contract\n    BdlCourse private _bdlCourse; // course contract\n    Staking private _staking; // staking contract\n\n    // creators requirement\n    // these requirement helps us to filter fuds\n    // and abuse of the ecosystem\n    uint256 private creatorStakingFee = 2000 * 10**18;\n    uint256 private creatorStakingDuration = 365 * 0;\n\n    // ecosystem users\n    mapping(address => Models.User) public users;\n    mapping(address => Models.Revenue) public revenues;\n\n    // contructor\n    constructor(\n        address bdlToken,\n        address bdlNft,\n        address bdlCertificate,\n        address bdlCourse,\n        address staking\n    ) {\n        deployer = msg.sender;\n\n        _bdlNft = BdlNft(bdlNft);\n        _bdlToken = BdlToken(bdlToken);\n        _bdlCertificate = BdlCertificate(bdlCertificate);\n        _bdlCourse = BdlCourse(bdlCourse);\n        _staking = Staking(staking);\n    }\n\n    /* creates user metadata */\n    function setAccount(string memory name, string memory photo) public {\n        emit User(msg.sender, name, photo, users[msg.sender].verified);\n    }\n\n    /* stake in the smart contract */\n    function stake(uint256 amount) public {\n        _bdlToken.approve(msg.sender, address(this), amount);\n        _bdlToken.transferFrom(msg.sender, address(this), amount);\n        _staking.stake(msg.sender, amount, creatorStakingDuration, 0);\n    }\n\n    /* unlock creator */\n    function unlockCreator() public notVerified {\n        // check if user has staked min requirement\n        require(\n            _staking.hasStaked(creatorStakingFee, msg.sender),\n            \"!stake_requirement_first\"\n        );\n\n        users[msg.sender].verified = true;\n        emit Creator(msg.sender, true);\n    }\n\n    /* remove creator */\n    function removeCreator() public onlyVerified {\n        users[msg.sender].verified = false;\n        emit Creator(msg.sender, false);\n    }\n\n    /* subscribe to a course */\n    /* params course id */\n    function subscribe(uint id) public {\n        (uint256 price, address creator) = _bdlCourse.subscribe(id, msg.sender);\n\n        /* payment are locked in the smart contract */\n        /* the course creator will be able to claim it after two weeks */\n        /* if the course wasn't refunded by the subscriber */\n\n        /* increase creator's unclaimed revenue */\n        revenues[creator].unclaimed += price;\n\n        _bdlToken.approve(msg.sender, address(this), price);\n        _bdlToken.transferFrom(msg.sender, address(this), price);\n    }\n\n    /* subscribe to a course */\n    /* params course id, subscription id, refundable percentage */\n    function unSubscribe(uint id, uint sId) public {\n        (uint256 price, address creator, uint weight) = _bdlCourse.unSubscribe(\n            id,\n            sId,\n            msg.sender\n        );\n\n        uint256 refundable = weight * price; /* amount learner will receive back */\n        uint256 nonRefundable = (price - refundable); /* not refundable due to learner activity on the course */\n        uint256 creatorRevenue = nonRefundable -\n            ((creatorStakingFee / nonRefundable) * 100); /* amount creator will earn */\n\n        /* increase creator's unclaimed & claimable revenue */\n        revenues[creator].unclaimed += creatorRevenue;\n        revenues[creator].claimable += creatorRevenue;\n\n        _bdlToken.approve(address(this), msg.sender, refundable);\n        _bdlToken.transferFrom(address(this), msg.sender, refundable);\n    }\n\n    /* refund a course */\n    function refund(uint id) public {\n        (\n            uint256 payableAmount,\n            uint256 earnings,\n            address creator,\n            uint256 price\n        ) = _bdlCourse.refund(id, msg.sender);\n\n        _bdlToken.approve(msg.sender, address(this), payableAmount);\n        _bdlToken.transferFrom(msg.sender, address(this), payableAmount);\n        revenues[creator].unclaimed -= price;\n        revenues[creator].claimable += earnings;\n    }\n\n    modifier onlyVerified() {\n        /* only account that has staked atleast 2000 BDL token */\n        require(users[msg.sender].verified, \"!authorized\");\n        _;\n    }\n\n    modifier notVerified() {\n        /* only account that hasn't staked atleast 2000 BDL token */\n        require(!users[msg.sender].verified, \"!authorized\");\n        _;\n    }\n\n    // == events == //\n    event User(address owner, string name, string photo, bool verified);\n    event Creator(address owner, bool verified);\n}\n",
  "sourcePath": "C:\\Users\\Arogundade Ibrahim\\Documents\\web3\\Buidl\\contracts\\Buidl.sol",
  "compiler": {
    "name": "solc",
    "version": "0.8.16+commit.07a7930e.Emscripten.clang"
  },
  "schemaVersion": "3.4.10",
  "updatedAt": "2022-10-31T17:09:58.574Z",
  "devdoc": {
    "kind": "dev",
    "methods": {},
    "version": 1
  },
  "userdoc": {
    "kind": "user",
    "methods": {},
    "version": 1
  }
}