{
  "contractName": "Buidl",
  "abi": [
    {
      "inputs": [
        {
          "internalType": "address",
          "name": "bdlToken",
          "type": "address"
        },
        {
          "internalType": "address",
          "name": "bdlNft",
          "type": "address"
        },
        {
          "internalType": "address",
          "name": "bdlCertificate",
          "type": "address"
        },
        {
          "internalType": "address",
          "name": "bdlCourse",
          "type": "address"
        },
        {
          "internalType": "address",
          "name": "staking",
          "type": "address"
        },
        {
          "internalType": "address",
          "name": "gateway_",
          "type": "address"
        }
      ],
      "stateMutability": "nonpayable",
      "type": "constructor"
    },
    {
      "inputs": [],
      "name": "InvalidAddress",
      "type": "error"
    },
    {
      "inputs": [],
      "name": "NotApprovedByGateway",
      "type": "error"
    },
    {
      "anonymous": false,
      "inputs": [
        {
          "indexed": false,
          "internalType": "address",
          "name": "owner",
          "type": "address"
        },
        {
          "indexed": false,
          "internalType": "bool",
          "name": "verified",
          "type": "bool"
        }
      ],
      "name": "Creator",
      "type": "event"
    },
    {
      "anonymous": false,
      "inputs": [
        {
          "indexed": false,
          "internalType": "address",
          "name": "owner",
          "type": "address"
        },
        {
          "indexed": false,
          "internalType": "string",
          "name": "name",
          "type": "string"
        },
        {
          "indexed": false,
          "internalType": "string",
          "name": "photo",
          "type": "string"
        },
        {
          "indexed": false,
          "internalType": "bool",
          "name": "verified",
          "type": "bool"
        }
      ],
      "name": "User",
      "type": "event"
    },
    {
      "inputs": [
        {
          "internalType": "bytes32",
          "name": "commandId",
          "type": "bytes32"
        },
        {
          "internalType": "string",
          "name": "sourceChain",
          "type": "string"
        },
        {
          "internalType": "string",
          "name": "sourceAddress",
          "type": "string"
        },
        {
          "internalType": "bytes",
          "name": "payload",
          "type": "bytes"
        }
      ],
      "name": "execute",
      "outputs": [],
      "stateMutability": "nonpayable",
      "type": "function"
    },
    {
      "inputs": [
        {
          "internalType": "bytes32",
          "name": "commandId",
          "type": "bytes32"
        },
        {
          "internalType": "string",
          "name": "sourceChain",
          "type": "string"
        },
        {
          "internalType": "string",
          "name": "sourceAddress",
          "type": "string"
        },
        {
          "internalType": "bytes",
          "name": "payload",
          "type": "bytes"
        },
        {
          "internalType": "string",
          "name": "tokenSymbol",
          "type": "string"
        },
        {
          "internalType": "uint256",
          "name": "amount",
          "type": "uint256"
        }
      ],
      "name": "executeWithToken",
      "outputs": [],
      "stateMutability": "nonpayable",
      "type": "function"
    },
    {
      "inputs": [],
      "name": "gateway",
      "outputs": [
        {
          "internalType": "contract IAxelarGateway",
          "name": "",
          "type": "address"
        }
      ],
      "stateMutability": "view",
      "type": "function"
    },
    {
      "inputs": [
        {
          "internalType": "address",
          "name": "",
          "type": "address"
        }
      ],
      "name": "revenues",
      "outputs": [
        {
          "internalType": "uint256",
          "name": "unclaimed",
          "type": "uint256"
        },
        {
          "internalType": "uint256",
          "name": "claimable",
          "type": "uint256"
        },
        {
          "internalType": "uint256",
          "name": "claimed",
          "type": "uint256"
        }
      ],
      "stateMutability": "view",
      "type": "function"
    },
    {
      "inputs": [
        {
          "internalType": "address",
          "name": "",
          "type": "address"
        }
      ],
      "name": "users",
      "outputs": [
        {
          "internalType": "uint256",
          "name": "id",
          "type": "uint256"
        },
        {
          "internalType": "bool",
          "name": "verified",
          "type": "bool"
        },
        {
          "internalType": "string",
          "name": "photo",
          "type": "string"
        },
        {
          "internalType": "uint256",
          "name": "createdAt",
          "type": "uint256"
        }
      ],
      "stateMutability": "view",
      "type": "function"
    },
    {
      "inputs": [
        {
          "internalType": "string",
          "name": "name",
          "type": "string"
        },
        {
          "internalType": "string",
          "name": "photo",
          "type": "string"
        }
      ],
      "name": "setAccount",
      "outputs": [],
      "stateMutability": "nonpayable",
      "type": "function"
    },
    {
      "inputs": [
        {
          "internalType": "uint256",
          "name": "amount",
          "type": "uint256"
        }
      ],
      "name": "stake",
      "outputs": [],
      "stateMutability": "nonpayable",
      "type": "function"
    },
    {
      "inputs": [],
      "name": "unlockCreator",
      "outputs": [],
      "stateMutability": "nonpayable",
      "type": "function"
    },
    {
      "inputs": [],
      "name": "removeCreator",
      "outputs": [],
      "stateMutability": "nonpayable",
      "type": "function"
    },
    {
      "inputs": [
        {
          "internalType": "uint256",
          "name": "id",
          "type": "uint256"
        },
        {
          "internalType": "uint256",
          "name": "nftId",
          "type": "uint256"
        },
        {
          "internalType": "uint256",
          "name": "discount",
          "type": "uint256"
        }
      ],
      "name": "subscribe",
      "outputs": [],
      "stateMutability": "nonpayable",
      "type": "function"
    },
    {
      "inputs": [
        {
          "internalType": "uint256",
          "name": "id",
          "type": "uint256"
        }
      ],
      "name": "unSubscribe",
      "outputs": [],
      "stateMutability": "nonpayable",
      "type": "function"
    },
    {
      "inputs": [
        {
          "internalType": "uint256",
          "name": "amount",
          "type": "uint256"
        }
      ],
      "name": "withdrawPlatformFee",
      "outputs": [],
      "stateMutability": "nonpayable",
      "type": "function"
    },
    {
      "inputs": [
        {
          "internalType": "uint256",
          "name": "id",
          "type": "uint256"
        },
        {
          "internalType": "string",
          "name": "certificateUri",
          "type": "string"
        }
      ],
      "name": "onCourseComplete",
      "outputs": [],
      "stateMutability": "nonpayable",
      "type": "function"
    }
  ],
  "bytecode": "0x60c0604052600a600055686c6b935b8bbd4000006006556301e1338060075560006008553480156200003057600080fd5b5060405162001d3f38038062001d3f833981016040819052620000539162000107565b806001600160a01b0381166200007c5760405163e6c4247b60e01b815260040160405180910390fd5b6001600160a01b039081166080523360a052600180549682166001600160a01b03199788161790556002805497821697871697909717909655506003805493861693851693909317909255600480549185169184169190911790556005805491909316911617905562000188565b80516001600160a01b03811681146200010257600080fd5b919050565b60008060008060008060c087890312156200012157600080fd5b6200012c87620000ea565b95506200013c60208801620000ea565b94506200014c60408801620000ea565b93506200015c60608801620000ea565b92506200016c60808801620000ea565b91506200017c60a08801620000ea565b90509295509295509295565b60805160a051611b7d620001c260003960008181610bfb0152610cd901526000818160e901528181610289015261051d0152611b7d6000f3fe608060405234801561001057600080fd5b50600436106100df5760003560e01c80637f26fc7d1161008c578063a87430ba11610066578063a87430ba146101ee578063c193b2e414610211578063d8d6bfde14610219578063dde7c1901461022c57600080fd5b80637f26fc7d146101c057806390bf70b0146101c8578063a694fc3a146101db57600080fd5b806349160658116100bd57806349160658146101505780636c9eb7741461016357806378ae98c81461017657600080fd5b8063116191b6146100e45780631a98b2e0146101285780632796b0301461013d575b600080fd5b61010b7f000000000000000000000000000000000000000000000000000000000000000081565b6040516001600160a01b0390911681526020015b60405180910390f35b61013b61013636600461134c565b61023f565b005b61013b61014b366004611426565b61033b565b61013b61015e36600461143f565b6104d3565b61013b6101713660046114e3565b6105d4565b6101a5610184366004611527565b600a6020526000908152604090208054600182015460029092015490919083565b6040805193845260208401929092529082015260600161011f565b61013b6105e5565b61013b6101d6366004611610565b610691565b61013b6101e9366004611426565b6106eb565b6102016101fc366004611527565b610815565b60405161011f94939291906116c4565b61013b6108ca565b61013b6102273660046116f6565b610a4a565b61013b61023a366004611426565b610bf0565b60008585604051610251929190611733565b6040519081900381207f1876eed900000000000000000000000000000000000000000000000000000000825291506001600160a01b037f00000000000000000000000000000000000000000000000000000000000000001690631876eed9906102ce908e908e908e908e908e9089908d908d908d9060040161176c565b6020604051808303816000875af11580156102ed573d6000803e3d6000fd5b505050506040513d601f19601f8201168201806040525081019061031191906117e0565b61032e57604051631403112d60e21b815260040160405180910390fd5b5050505050505050505050565b600480546040517ff30e6e9b00000000000000000000000000000000000000000000000000000000815291820183905233602483015260009182918291829182916001600160a01b039091169063f30e6e9b9060440160a0604051808303816000875af11580156103b0573d6000803e3d6000fd5b505050506040513d601f19601f820116820180604052508101906103d491906117fb565b60025460405163a9059cbb60e01b815233600482015260248101879052959a50939850919650945092506001600160a01b03169063a9059cbb906044016020604051808303816000875af1158015610430573d6000803e3d6000fd5b505050506040513d601f19601f8201168201806040525081019061045491906117e0565b506001600160a01b0383166000908152600a60205260408120805484929061047d90849061185b565b90915550506001600160a01b0383166000908152600a6020526040812060010180548692906104ad908490611874565b9250508190555080600860008282546104c69190611874565b9091555050505050505050565b600082826040516104e5929190611733565b6040519081900381207f5f6970c300000000000000000000000000000000000000000000000000000000825291506001600160a01b037f00000000000000000000000000000000000000000000000000000000000000001690635f6970c39061055c908b908b908b908b908b908990600401611887565b6020604051808303816000875af115801561057b573d6000803e3d6000fd5b505050506040513d601f19601f8201168201806040525081019061059f91906117e0565b6105bc57604051631403112d60e21b815260040160405180910390fd5b6105ca878787878787610d5a565b5050505050505050565b6105e083838333610e2d565b505050565b3360009081526009602052604090206001015460ff1661063a5760405162461bcd60e51b815260206004820152600b60248201526a08585d5d1a1bdc9a5e995960aa1b60448201526064015b60405180910390fd5b336000818152600960209081526040808320600101805460ff191690558051938452908301919091527fb5763ba23a8384e26e9f2f5bfcd8e3795e4248ce7bb99a61c9ee6488d352a5b191015b60405180910390a1565b33600081815260096020526040908190206001015490517f2d3804f6670a9e165ddef24bb7f7345753423a96b66b32c302cfefcda19ad467926106df9290918691869160ff909116906118c8565b60405180910390a15050565b6002546040516323b872dd60e01b8152336004820152306024820152604481018390526001600160a01b03909116906323b872dd906064016020604051808303816000875af1158015610742573d6000803e3d6000fd5b505050506040513d601f19601f8201168201806040525081019061076691906117e0565b506005546007546001600160a01b039091169063ab84bb78903390849061078d9042611874565b6040517fffffffff0000000000000000000000000000000000000000000000000000000060e086901b1681526001600160a01b0390931660048401526024830191909152604482015260006064820152608401600060405180830381600087803b1580156107fa57600080fd5b505af115801561080e573d6000803e3d6000fd5b5050505050565b600960205260009081526040902080546001820154600283018054929360ff9092169261084190611910565b80601f016020809104026020016040519081016040528092919081815260200182805461086d90611910565b80156108ba5780601f1061088f576101008083540402835291602001916108ba565b820191906000526020600020905b81548152906001019060200180831161089d57829003601f168201915b5050505050908060040154905084565b3360009081526009602052604090206001015460ff161561091b5760405162461bcd60e51b815260206004820152600b60248201526a08585d5d1a1bdc9a5e995960aa1b6044820152606401610631565b6005546006546040517fde36071500000000000000000000000000000000000000000000000000000000815260048101919091523360248201526001600160a01b039091169063de36071590604401602060405180830381865afa158015610987573d6000803e3d6000fd5b505050506040513d601f19601f820116820180604052508101906109ab91906117e0565b6109f75760405162461bcd60e51b815260206004820152601860248201527f217374616b655f726571756972656d656e745f666972737400000000000000006044820152606401610631565b336000818152600960209081526040918290206001908101805460ff1916821790558251938452908301527fb5763ba23a8384e26e9f2f5bfcd8e3795e4248ce7bb99a61c9ee6488d352a5b19101610687565b600480546040517f0172a34300000000000000000000000000000000000000000000000000000000815291820184905233602483015260009182916001600160a01b031690630172a343906044016040805180830381865afa158015610ab4573d6000803e3d6000fd5b505050506040513d601f19601f82011682018060405250810190610ad8919061194a565b915091508115610b60576003546040517f04b444d90000000000000000000000000000000000000000000000000000000081526001600160a01b03909116906304b444d990610b2d9033908790600401611976565b600060405180830381600087803b158015610b4757600080fd5b505af1158015610b5b573d6000803e3d6000fd5b505050505b6000610b6b826110d0565b6001546040517fd0def5210000000000000000000000000000000000000000000000000000000081529192506001600160a01b03169063d0def52190610bb79033908590600401611976565b600060405180830381600087803b158015610bd157600080fd5b505af1158015610be5573d6000803e3d6000fd5b505050505050505050565b336001600160a01b037f00000000000000000000000000000000000000000000000000000000000000001614610c565760405162461bcd60e51b815260206004820152600b60248201526a08585d5d1a1bdc9a5e995960aa1b6044820152606401610631565b806008541015610ca85760405162461bcd60e51b815260206004820152601360248201527f696e73756669636369656e7420746f6b656e73000000000000000000000000006044820152606401610631565b8060086000828254610cba919061185b565b909155505060025460405163a9059cbb60e01b81526001600160a01b037f000000000000000000000000000000000000000000000000000000000000000081166004830152602482018490529091169063a9059cbb906044016020604051808303816000875af1158015610d32573d6000803e3d6000fd5b505050506040513d601f19601f82011682018060405250810190610d5691906117e0565b5050565b60008073__Message_______________________________63ba43ec8685856040518363ffffffff1660e01b8152600401610d969291906119a0565b600060405180830381865af4158015610db3573d6000803e3d6000fd5b505050506040513d6000823e601f3d908101601f19168201604052610ddb91908101906119e4565b9092509050600082600a811115610df457610df4611a43565b036105ca5760008082806020019051810190610e109190611a59565b91509150610e218260008084610e2d565b50505050505050505050565b600480546040517f59e6951d00000000000000000000000000000000000000000000000000000000815260009283926001600160a01b0316916359e6951d91610e8c918a918891019182526001600160a01b0316602082015260400190565b60408051808303816000875af1158015610eaa573d6000803e3d6000fd5b505050506040513d601f19601f82011682018060405250810190610ece9190611a59565b6001600160a01b0381166000908152600a6020526040812080549395509193508492610efb908490611874565b909155508290508515611055576001546040517f6352211e0000000000000000000000000000000000000000000000000000000081526004810188905233916001600160a01b031690636352211e90602401602060405180830381865afa158015610f6a573d6000803e3d6000fd5b505050506040513d601f19601f82011682018060405250810190610f8e9190611a89565b6001600160a01b031614610fd25760405162461bcd60e51b815260206004820152600b60248201526a08585d5d1a1bdc9a5e995960aa1b6044820152606401610631565b610fdc858461185b565b6001546040517f42966c68000000000000000000000000000000000000000000000000000000008152600481018990529192506001600160a01b0316906342966c6890602401600060405180830381600087803b15801561103c57600080fd5b505af1158015611050573d6000803e3d6000fd5b505050505b6002546040516323b872dd60e01b8152336004820152306024820152604481018390526001600160a01b03909116906323b872dd906064016020604051808303816000875af11580156110ac573d6000803e3d6000fd5b505050506040513d601f19601f820116820180604052508101906105ca91906117e0565b60606000604051602001611237907f7b226e616d65223a20224d72204d6f6e6b65790000000000000000000000000081527f222c2022696d616765223a20222f696d616765732f6e6674322e6a7067222c2060138201527f226465736372697074696f6e223a202254686973206973204e4654206973206160338201527f206d6f6e6b6579204e465420666f7220427569646c20636f75706f6e222c202260538201527f61747472696275746573223a000000000000000000000000000000000000000060738201527f5b7b22646973706c61795f74797065223a22626f6f73745f6e756d626572222c607f8201527f2274726169745f74797065223a2250657263656e74616765222c2276616c7565609f8201527f223a2234227d5d0000000000000000000000000000000000000000000000000060bf8201527f7d0000000000000000000000000000000000000000000000000000000000000060c682015260c70190565b60408051601f19818403018152908290527fdaa68c21000000000000000000000000000000000000000000000000000000008252915073__Base64________________________________9063daa68c2190611297908490600401611aa6565b600060405180830381865af41580156112b4573d6000803e3d6000fd5b505050506040513d6000823e601f3d908101601f191682016040526112dc9190810190611ab9565b6040516020016112ec9190611b02565b604051602081830303815290604052915050919050565b60008083601f84011261131557600080fd5b50813567ffffffffffffffff81111561132d57600080fd5b60208301915083602082850101111561134557600080fd5b9250929050565b60008060008060008060008060008060c08b8d03121561136b57600080fd5b8a35995060208b013567ffffffffffffffff8082111561138a57600080fd5b6113968e838f01611303565b909b50995060408d01359150808211156113af57600080fd5b6113bb8e838f01611303565b909950975060608d01359150808211156113d457600080fd5b6113e08e838f01611303565b909750955060808d01359150808211156113f957600080fd5b506114068d828e01611303565b9150809450508092505060a08b013590509295989b9194979a5092959850565b60006020828403121561143857600080fd5b5035919050565b60008060008060008060006080888a03121561145a57600080fd5b87359650602088013567ffffffffffffffff8082111561147957600080fd5b6114858b838c01611303565b909850965060408a013591508082111561149e57600080fd5b6114aa8b838c01611303565b909650945060608a01359150808211156114c357600080fd5b506114d08a828b01611303565b989b979a50959850939692959293505050565b6000806000606084860312156114f857600080fd5b505081359360208301359350604090920135919050565b6001600160a01b038116811461152457600080fd5b50565b60006020828403121561153957600080fd5b81356115448161150f565b9392505050565b634e487b7160e01b600052604160045260246000fd5b604051601f8201601f1916810167ffffffffffffffff8111828210171561158a5761158a61154b565b604052919050565b600067ffffffffffffffff8211156115ac576115ac61154b565b50601f01601f191660200190565b600082601f8301126115cb57600080fd5b81356115de6115d982611592565b611561565b8181528460208386010111156115f357600080fd5b816020850160208301376000918101602001919091529392505050565b6000806040838503121561162357600080fd5b823567ffffffffffffffff8082111561163b57600080fd5b611647868387016115ba565b9350602085013591508082111561165d57600080fd5b5061166a858286016115ba565b9150509250929050565b60005b8381101561168f578181015183820152602001611677565b50506000910152565b600081518084526116b0816020860160208601611674565b601f01601f19169290920160200192915050565b84815283151560208201526080604082015260006116e56080830185611698565b905082606083015295945050505050565b6000806040838503121561170957600080fd5b82359150602083013567ffffffffffffffff81111561172757600080fd5b61166a858286016115ba565b8183823760009101908152919050565b81835281816020850137506000828201602090810191909152601f909101601f19169091010190565b89815260c06020820152600061178660c083018a8c611743565b828103604084015261179981898b611743565b905086606084015282810360808401526117b4818688611743565b9150508260a08301529a9950505050505050505050565b805180151581146117db57600080fd5b919050565b6000602082840312156117f257600080fd5b611544826117cb565b600080600080600060a0868803121561181357600080fd5b8551945060208601519350604086015161182c8161150f565b6060870151608090970151959894975095949392505050565b634e487b7160e01b600052601160045260246000fd5b8181038181111561186e5761186e611845565b92915050565b8082018082111561186e5761186e611845565b8681526080602082015260006118a1608083018789611743565b82810360408401526118b4818688611743565b915050826060830152979650505050505050565b6001600160a01b03851681526080602082015260006118ea6080830186611698565b82810360408401526118fc8186611698565b915050821515606083015295945050505050565b600181811c9082168061192457607f821691505b60208210810361194457634e487b7160e01b600052602260045260246000fd5b50919050565b6000806040838503121561195d57600080fd5b611966836117cb565b9150602083015190509250929050565b6001600160a01b03831681526040602082015260006119986040830184611698565b949350505050565b602081526000611998602083018486611743565b60006119c26115d984611592565b90508281528383830111156119d657600080fd5b611544836020830184611674565b600080604083850312156119f757600080fd5b8251600b8110611a0657600080fd5b602084015190925067ffffffffffffffff811115611a2357600080fd5b8301601f81018513611a3457600080fd5b61166a858251602084016119b4565b634e487b7160e01b600052602160045260246000fd5b60008060408385031215611a6c57600080fd5b825191506020830151611a7e8161150f565b809150509250929050565b600060208284031215611a9b57600080fd5b81516115448161150f565b6020815260006115446020830184611698565b600060208284031215611acb57600080fd5b815167ffffffffffffffff811115611ae257600080fd5b8201601f81018413611af357600080fd5b611998848251602084016119b4565b7f646174613a6170706c69636174696f6e2f6a736f6e3b6261736536342c000000815260008251611b3a81601d850160208701611674565b91909101601d019291505056fea26469706673582212204c3085c29737a57afe0d3cf4d4ef32e49c7e1322c0971fb161d1938a2a5f5c4064736f6c63430008100033",
  "immutableReferences": {
    "10": [
      {
        "length": 32,
        "start": 233
      },
      {
        "length": 32,
        "start": 649
      },
      {
        "length": 32,
        "start": 1309
      }
    ],
    "4998": [
      {
        "length": 32,
        "start": 3067
      },
      {
        "length": 32,
        "start": 3289
      }
    ]
  },
  "source": "// SPDX-License-Identifier: GPL-3.0\npragma solidity >=0.7.0 <0.9.0;\n\nimport {BdlNft} from \"./BdlNft.sol\";\nimport {BdlCertificate} from \"./BdlCertificate.sol\";\nimport {BdlToken} from \"./BdlToken.sol\";\nimport {BdlCourse} from \"./BdlCourse.sol\";\nimport {Staking} from \"./Staking.sol\";\n\nimport {Models} from \"./../base/Models.sol\";\nimport {Base64} from \"./../base/Base64.sol\";\nimport {Message} from \"./../axelar/Message.sol\";\n\nimport {AxelarExecutable} from \"@axelar-network/axelar-gmp-sdk-solidity/contracts/executables/AxelarExecutable.sol\";\n\ncontract Buidl is AxelarExecutable {\n    address private immutable deployer;\n\n    /* fee charged on every succesful subscription made */\n    uint256 private subscriptionFee = 10; // percentage rate\n\n    BdlNft private _bdlNft; // nft reward (coupon) contract\n    BdlToken private _bdlToken; // erc20(streamable token) contract\n    BdlCertificate private _bdlCertificate; // erc4973 certificate contract\n    BdlCourse private _bdlCourse; // course contract\n    Staking private _staking; // staking contract\n\n    // creators requirement\n    // these requirement helps us to filter fuds\n    // and abuse of the ecosystem\n    uint256 private creatorStakingFee = 2000 * 10**18;\n    uint256 private creatorStakingDuration = 365 days;\n\n    // earnings made on the platform so far\n    uint256 private platformEarnings = 0;\n\n    // ecosystem users\n    mapping(address => Models.User) public users;\n    mapping(address => Models.Revenue) public revenues;\n\n    // contructor\n    constructor(\n        address bdlToken,\n        address bdlNft,\n        address bdlCertificate,\n        address bdlCourse,\n        address staking,\n        address gateway_\n    ) AxelarExecutable(gateway_) {\n        deployer = msg.sender;\n\n        _bdlNft = BdlNft(bdlNft);\n        _bdlToken = BdlToken(bdlToken);\n        _bdlCertificate = BdlCertificate(bdlCertificate);\n        _bdlCourse = BdlCourse(bdlCourse);\n        _staking = Staking(staking);\n    }\n\n    /* creates user metadata */\n    function setAccount(string memory name, string memory photo) public {\n        emit User(msg.sender, name, photo, users[msg.sender].verified);\n    }\n\n    /* stake in the smart contract */\n    function stake(uint256 amount) public {\n        _bdlToken.transferFrom(msg.sender, address(this), amount);\n        _staking.stake(\n            msg.sender,\n            amount,\n            block.timestamp + creatorStakingDuration,\n            0\n        );\n    }\n\n    /* unlock creator */\n    function unlockCreator() public notVerified {\n        // check if user has staked min requirement\n        require(\n            _staking.hasStaked(creatorStakingFee, msg.sender),\n            \"!stake_requirement_first\"\n        );\n\n        users[msg.sender].verified = true;\n        emit Creator(msg.sender, true);\n    }\n\n    /* remove creator */\n    function removeCreator() public onlyVerified {\n        users[msg.sender].verified = false;\n        emit Creator(msg.sender, false);\n    }\n\n    /* subscribe to a course */\n    /* params course id */\n    function subscribe(\n        uint id,\n        uint nftId,\n        uint256 discount\n    ) public {\n        _subscribe(id, nftId, discount, msg.sender);\n    }\n\n    /* subscribe to a course */\n    /* params course id */\n    function unSubscribe(uint id) public {\n        (\n            uint256 payableAmount,\n            uint256 earnings,\n            address creator,\n            uint256 price,\n            uint256 _platformEarnings\n        ) = _bdlCourse.unSubscribe(id, msg.sender);\n\n        // refund the user from the contract\n        _bdlToken.transfer(msg.sender, payableAmount);\n\n        // deduct creator's unclaimed revenue\n        revenues[creator].unclaimed -= price;\n\n        // credit creator earnings from the refunded course\n        revenues[creator].claimable += earnings;\n\n        // credit platform from the refunded course\n        platformEarnings += _platformEarnings;\n    }\n\n    /* deployer to cashout earnings */\n    function withdrawPlatformFee(uint256 amount) public onlyDeployer {\n        require(platformEarnings >= amount, \"insuficcient tokens\");\n        platformEarnings -= amount;\n        _bdlToken.transfer(deployer, amount);\n    }\n\n    function onCourseComplete(uint id, string memory certificateUri) public {\n        (bool isCertificate, uint256 coursePrice) = _bdlCourse.onCourseComplete(\n            id,\n            msg.sender\n        );\n\n        if (isCertificate) {\n            /* issue certificate to subscriber */\n            _bdlCertificate.issue(msg.sender, certificateUri);\n        }\n\n        /* generate a random nft based on price as reward to subscriber */\n        string memory nftUri = generateNftMetadata(coursePrice);\n\n        /* mint the nft */\n        _bdlNft.mint(msg.sender, nftUri);\n    }\n\n    function generateNftMetadata(uint coursePrice)\n        private\n        pure\n        returns (string memory)\n    {\n        string memory metadata = string(\n            abi.encodePacked(\n                '{\"name\": \"Mr Monkey',\n                '\", \"image\": \"/images/nft2.jpg\", \"description\": \"This is NFT is a monkey NFT for Buidl coupon\", \"attributes\":',\n                '[{\"display_type\":\"boost_number\",\"trait_type\":\"Percentage\",\"value\":\"4\"}]',\n                \"}\"\n            )\n        );\n\n        return\n            string(\n                abi.encodePacked(\n                    \"data:application/json;base64,\",\n                    Base64.base64(bytes(metadata))\n                )\n            );\n    }\n\n    // ========== CORE IMPLEMENTIONS\n\n    /* subscribe to a course */\n    /* params course id */\n    function _subscribe(\n        uint id,\n        uint nftId,\n        uint256 discount,\n        address subscriber\n    ) private {\n        (uint256 price, address creator) = _bdlCourse.subscribe(id, subscriber);\n\n        /* payment are locked in the smart contract */\n        /* the course creator will be able to claim it after two weeks */\n        /* if the course wasn't refunded by the subscriber */\n\n        /* increase creator's unclaimed revenue */\n        revenues[creator].unclaimed += price;\n\n        uint256 priceCharge = price;\n        if (nftId > 0) {\n            // coupon detected\n            require(_bdlNft.ownerOf(nftId) == msg.sender, \"!authorized\");\n            priceCharge = price - discount;\n            _bdlNft.burn(nftId);\n        }\n\n        _bdlToken.transferFrom(msg.sender, address(this), priceCharge);\n    }\n\n    // ========== AXELAR\n\n    /* Axelar message reciever function */\n    function _execute(\n        string calldata sourceChain_,\n        string calldata sourceAddress_,\n        bytes calldata payload_\n    ) internal override {\n        (Message.Title messageTitle, bytes memory payload) = Message\n            .unPackMessage(payload_);\n\n        /* message is a subscribe call */\n        if (messageTitle == Message.Title.SUBSCRIBE) {\n            (uint courseId, address subscriber) = abi.decode(\n                payload,\n                (uint, address)\n            );\n\n            _subscribe(courseId, 0, 0, subscriber);\n        }\n    }\n\n    modifier onlyVerified() {\n        /* only account that has staked atleast 2000 BDL token */\n        require(users[msg.sender].verified, \"!authorized\");\n        _;\n    }\n\n    modifier notVerified() {\n        /* only account that hasn't staked atleast 2000 BDL token */\n        require(!users[msg.sender].verified, \"!authorized\");\n        _;\n    }\n\n    modifier onlyDeployer() {\n        /* only account that deployed the contract */\n        require(msg.sender == deployer, \"!authorized\");\n        _;\n    }\n\n    // == events == //\n    event User(address owner, string name, string photo, bool verified);\n    event Creator(address owner, bool verified);\n}\n",
  "sourcePath": "C:\\Users\\Arogundade Ibrahim\\Documents\\web3\\Buidl\\contracts\\buidl\\Buidl.sol",
  "compiler": {
    "name": "solc",
    "version": "0.8.16+commit.07a7930e.Emscripten.clang"
  },
  "schemaVersion": "3.4.10",
  "updatedAt": "2022-11-04T08:15:30.625Z",
  "devdoc": {
    "kind": "dev",
    "methods": {},
    "version": 1
  },
  "userdoc": {
    "kind": "user",
    "methods": {},
    "version": 1
  }
}