{
  "contractName": "Buidl",
  "abi": [
    {
      "inputs": [
        {
          "internalType": "address",
          "name": "bdlToken",
          "type": "address"
        },
        {
          "internalType": "address",
          "name": "bdlNft",
          "type": "address"
        },
        {
          "internalType": "address",
          "name": "bdlCertificate",
          "type": "address"
        },
        {
          "internalType": "address",
          "name": "paymentFlow",
          "type": "address"
        }
      ],
      "stateMutability": "nonpayable",
      "type": "constructor"
    },
    {
      "anonymous": false,
      "inputs": [
        {
          "indexed": false,
          "internalType": "address",
          "name": "student",
          "type": "address"
        },
        {
          "indexed": false,
          "internalType": "uint256",
          "name": "courseId",
          "type": "uint256"
        }
      ],
      "name": "CourseCompletion",
      "type": "event"
    },
    {
      "anonymous": false,
      "inputs": [
        {
          "indexed": false,
          "internalType": "address",
          "name": "intructor",
          "type": "address"
        },
        {
          "indexed": false,
          "internalType": "address",
          "name": "student",
          "type": "address"
        },
        {
          "indexed": false,
          "internalType": "uint256",
          "name": "courseId",
          "type": "uint256"
        }
      ],
      "name": "CoursePurchased",
      "type": "event"
    },
    {
      "anonymous": false,
      "inputs": [
        {
          "indexed": false,
          "internalType": "address",
          "name": "student",
          "type": "address"
        },
        {
          "indexed": false,
          "internalType": "uint256",
          "name": "courseId",
          "type": "uint256"
        },
        {
          "indexed": false,
          "internalType": "uint256",
          "name": "sectionsViewed",
          "type": "uint256"
        }
      ],
      "name": "CourseRefunded",
      "type": "event"
    },
    {
      "inputs": [
        {
          "internalType": "uint256",
          "name": "",
          "type": "uint256"
        }
      ],
      "name": "categories",
      "outputs": [
        {
          "internalType": "uint256",
          "name": "id",
          "type": "uint256"
        },
        {
          "internalType": "string",
          "name": "name",
          "type": "string"
        },
        {
          "internalType": "string",
          "name": "image",
          "type": "string"
        }
      ],
      "stateMutability": "view",
      "type": "function",
      "constant": true
    },
    {
      "inputs": [
        {
          "internalType": "uint256",
          "name": "",
          "type": "uint256"
        },
        {
          "internalType": "uint256",
          "name": "",
          "type": "uint256"
        }
      ],
      "name": "courseSections",
      "outputs": [
        {
          "internalType": "uint256",
          "name": "id",
          "type": "uint256"
        },
        {
          "internalType": "string",
          "name": "title",
          "type": "string"
        },
        {
          "internalType": "string",
          "name": "src",
          "type": "string"
        },
        {
          "internalType": "string",
          "name": "content",
          "type": "string"
        }
      ],
      "stateMutability": "view",
      "type": "function",
      "constant": true
    },
    {
      "inputs": [
        {
          "internalType": "uint256",
          "name": "",
          "type": "uint256"
        }
      ],
      "name": "courses",
      "outputs": [
        {
          "internalType": "uint256",
          "name": "id",
          "type": "uint256"
        },
        {
          "internalType": "string",
          "name": "name",
          "type": "string"
        },
        {
          "internalType": "string",
          "name": "description",
          "type": "string"
        },
        {
          "internalType": "uint256",
          "name": "categoryId",
          "type": "uint256"
        },
        {
          "internalType": "string",
          "name": "ipfsPhoto",
          "type": "string"
        },
        {
          "internalType": "address",
          "name": "instructor",
          "type": "address"
        },
        {
          "internalType": "uint256",
          "name": "price",
          "type": "uint256"
        },
        {
          "internalType": "bool",
          "name": "isPublished",
          "type": "bool"
        },
        {
          "internalType": "uint256",
          "name": "createdAt",
          "type": "uint256"
        },
        {
          "internalType": "uint256",
          "name": "updatedAt",
          "type": "uint256"
        }
      ],
      "stateMutability": "view",
      "type": "function",
      "constant": true
    },
    {
      "inputs": [
        {
          "internalType": "address",
          "name": "",
          "type": "address"
        }
      ],
      "name": "instructors",
      "outputs": [
        {
          "internalType": "uint256",
          "name": "id",
          "type": "uint256"
        },
        {
          "internalType": "string",
          "name": "firstName",
          "type": "string"
        },
        {
          "internalType": "string",
          "name": "lastName",
          "type": "string"
        },
        {
          "internalType": "string",
          "name": "location",
          "type": "string"
        },
        {
          "internalType": "uint256",
          "name": "gender",
          "type": "uint256"
        },
        {
          "internalType": "bool",
          "name": "isVerified",
          "type": "bool"
        },
        {
          "internalType": "string",
          "name": "ipfsPhoto",
          "type": "string"
        },
        {
          "internalType": "string",
          "name": "twitter",
          "type": "string"
        },
        {
          "internalType": "string",
          "name": "linkedin",
          "type": "string"
        },
        {
          "internalType": "uint256",
          "name": "createdAt",
          "type": "uint256"
        }
      ],
      "stateMutability": "view",
      "type": "function",
      "constant": true
    },
    {
      "inputs": [
        {
          "internalType": "address",
          "name": "",
          "type": "address"
        },
        {
          "internalType": "uint256",
          "name": "",
          "type": "uint256"
        }
      ],
      "name": "studentCourses",
      "outputs": [
        {
          "internalType": "uint256",
          "name": "courseId",
          "type": "uint256"
        },
        {
          "internalType": "uint256",
          "name": "purchasedAt",
          "type": "uint256"
        },
        {
          "internalType": "uint256",
          "name": "priceBought",
          "type": "uint256"
        }
      ],
      "stateMutability": "view",
      "type": "function",
      "constant": true
    },
    {
      "inputs": [
        {
          "internalType": "address",
          "name": "",
          "type": "address"
        }
      ],
      "name": "students",
      "outputs": [
        {
          "internalType": "uint256",
          "name": "id",
          "type": "uint256"
        },
        {
          "internalType": "string",
          "name": "name",
          "type": "string"
        },
        {
          "internalType": "string",
          "name": "emailAddress",
          "type": "string"
        },
        {
          "internalType": "uint256",
          "name": "gender",
          "type": "uint256"
        },
        {
          "internalType": "string",
          "name": "ipfsPhoto",
          "type": "string"
        },
        {
          "internalType": "string",
          "name": "country",
          "type": "string"
        },
        {
          "internalType": "uint256",
          "name": "createdAt",
          "type": "uint256"
        }
      ],
      "stateMutability": "view",
      "type": "function",
      "constant": true
    },
    {
      "inputs": [
        {
          "internalType": "uint256",
          "name": "amount",
          "type": "uint256"
        }
      ],
      "name": "setInstructorRegistrationFee",
      "outputs": [],
      "stateMutability": "nonpayable",
      "type": "function"
    },
    {
      "inputs": [
        {
          "internalType": "string",
          "name": "name",
          "type": "string"
        },
        {
          "internalType": "string",
          "name": "image",
          "type": "string"
        }
      ],
      "name": "addCategory",
      "outputs": [],
      "stateMutability": "nonpayable",
      "type": "function"
    },
    {
      "inputs": [
        {
          "internalType": "string",
          "name": "name",
          "type": "string"
        },
        {
          "internalType": "string",
          "name": "description",
          "type": "string"
        },
        {
          "internalType": "uint256",
          "name": "categoryId",
          "type": "uint256"
        }
      ],
      "name": "createCourse",
      "outputs": [],
      "stateMutability": "nonpayable",
      "type": "function"
    },
    {
      "inputs": [
        {
          "internalType": "string",
          "name": "name",
          "type": "string"
        },
        {
          "internalType": "string",
          "name": "description",
          "type": "string"
        },
        {
          "internalType": "string",
          "name": "ipfsPhoto",
          "type": "string"
        },
        {
          "internalType": "uint256",
          "name": "categoryId",
          "type": "uint256"
        },
        {
          "internalType": "uint256",
          "name": "price",
          "type": "uint256"
        },
        {
          "internalType": "uint256",
          "name": "courseId",
          "type": "uint256"
        },
        {
          "internalType": "bool",
          "name": "publish",
          "type": "bool"
        }
      ],
      "name": "updateCourse",
      "outputs": [],
      "stateMutability": "nonpayable",
      "type": "function"
    },
    {
      "inputs": [
        {
          "internalType": "uint256",
          "name": "courseId",
          "type": "uint256"
        },
        {
          "internalType": "string",
          "name": "title",
          "type": "string"
        },
        {
          "internalType": "string",
          "name": "src",
          "type": "string"
        },
        {
          "internalType": "string",
          "name": "content",
          "type": "string"
        },
        {
          "internalType": "uint256",
          "name": "updateFor",
          "type": "uint256"
        }
      ],
      "name": "addSectionToCourse",
      "outputs": [],
      "stateMutability": "nonpayable",
      "type": "function"
    },
    {
      "inputs": [
        {
          "internalType": "uint256",
          "name": "courseId",
          "type": "uint256"
        },
        {
          "internalType": "uint256",
          "name": "sectionIndex",
          "type": "uint256"
        }
      ],
      "name": "deleteCourseSection",
      "outputs": [],
      "stateMutability": "nonpayable",
      "type": "function"
    },
    {
      "inputs": [
        {
          "internalType": "address",
          "name": "instructor",
          "type": "address"
        }
      ],
      "name": "getInstructorCoursesLength",
      "outputs": [
        {
          "internalType": "uint256",
          "name": "",
          "type": "uint256"
        }
      ],
      "stateMutability": "view",
      "type": "function",
      "constant": true
    },
    {
      "inputs": [
        {
          "internalType": "address",
          "name": "instructor",
          "type": "address"
        },
        {
          "internalType": "uint256",
          "name": "index",
          "type": "uint256"
        }
      ],
      "name": "getInstructorCourseIdAtIndex",
      "outputs": [
        {
          "internalType": "uint256",
          "name": "",
          "type": "uint256"
        }
      ],
      "stateMutability": "view",
      "type": "function",
      "constant": true
    },
    {
      "inputs": [
        {
          "internalType": "string",
          "name": "firstName",
          "type": "string"
        },
        {
          "internalType": "string",
          "name": "lastName",
          "type": "string"
        },
        {
          "internalType": "string",
          "name": "location",
          "type": "string"
        },
        {
          "internalType": "uint256",
          "name": "gender",
          "type": "uint256"
        }
      ],
      "name": "createInstructorAccount",
      "outputs": [],
      "stateMutability": "nonpayable",
      "type": "function"
    },
    {
      "inputs": [
        {
          "internalType": "string",
          "name": "name",
          "type": "string"
        },
        {
          "internalType": "string",
          "name": "email",
          "type": "string"
        },
        {
          "internalType": "uint256",
          "name": "gender",
          "type": "uint256"
        }
      ],
      "name": "createStudentAccount",
      "outputs": [],
      "stateMutability": "nonpayable",
      "type": "function"
    },
    {
      "inputs": [
        {
          "internalType": "uint256",
          "name": "courseId",
          "type": "uint256"
        },
        {
          "internalType": "uint256",
          "name": "nftId",
          "type": "uint256"
        },
        {
          "internalType": "uint256",
          "name": "discount",
          "type": "uint256"
        }
      ],
      "name": "purchaseCourse",
      "outputs": [],
      "stateMutability": "nonpayable",
      "type": "function"
    },
    {
      "inputs": [
        {
          "internalType": "uint256",
          "name": "courseId",
          "type": "uint256"
        },
        {
          "internalType": "uint256",
          "name": "sections",
          "type": "uint256"
        },
        {
          "internalType": "uint256",
          "name": "sectionsViewed",
          "type": "uint256"
        }
      ],
      "name": "rejectCourse",
      "outputs": [],
      "stateMutability": "nonpayable",
      "type": "function"
    },
    {
      "inputs": [
        {
          "internalType": "uint256",
          "name": "courseId",
          "type": "uint256"
        },
        {
          "internalType": "string",
          "name": "certificateUri",
          "type": "string"
        },
        {
          "internalType": "string",
          "name": "nftUri",
          "type": "string"
        }
      ],
      "name": "onCompletedCourse",
      "outputs": [],
      "stateMutability": "nonpayable",
      "type": "function"
    },
    {
      "inputs": [],
      "name": "faucetMint",
      "outputs": [],
      "stateMutability": "nonpayable",
      "type": "function"
    }
  ],
  "bytecode": "0x60806040526001600555600160065560016007556001600855686c6b935b8bbd4000006009553480156200003257600080fd5b5060405162004323380380620043238339810160408190526200005591620004f5565b60008054336001600160a01b0319918216179091556002805482166001600160a01b038781169190911790915560038054831686831617905560048054831685831617905560018054909216908316179055620000b1620000bb565b50505050620006eb565b620001076040518060400160405280600f81526020016e15d9588811195d995b1bdc1b595b9d608a1b815250604051806060016040528060278152602001620042b76027913962000411565b6200016d60405180604001604052806007815260200166436f6f6b696e6760c81b8152506040518060400160405280601f81526020017f2f696d616765732f63617465676f726965732f636f6f6b696e672e77656270008152506200041160201b60201c565b620001db6040518060400160405280600f81526020016e55492f55582044657369676e696e6760881b8152506040518060400160405280601d81526020017f2f696d616765732f63617465676f726965732f75692d75782e776562700000008152506200041160201b60201c565b620002246040518060400160405280600c81526020016b19a21020b734b6b0ba34b7b760a11b815250604051806060016040528060218152602001620042736021913962000411565b6200026d6040518060400160405280600c81526020016b24b6363ab9ba3930ba34b7b760a11b8152506040518060600160405280602481526020016200424f6024913962000411565b620002b66040518060400160405280600c81526020016b4461746120536369656e636560a01b815250604051806060016040528060248152602001620042de6024913962000411565b6200031d60405180604001604052806008815260200167537065616b696e6760c01b8152506040518060400160405280602081526020017f2f696d616765732f63617465676f726965732f737065616b696e672e776562708152506200041160201b60201c565b62000381604051806040016040528060058152602001644d7573696360d81b8152506040518060400160405280601d81526020017f2f696d616765732f63617465676f726965732f6d757369632e776562700000008152506200041160201b60201c565b620003c96040518060400160405280600b81526020016a50686f746f67726170687960a81b815250604051806060016040528060238152602001620042946023913962000411565b6200040f604051806040016040528060098152602001684d61726b6574696e6760b81b815250604051806060016040528060218152602001620043026021913962000411565b565b6000546001600160a01b031633146200045e5760405162461bcd60e51b815260206004820152600b60248201526a08585d5d1a1bdc9a5e995960aa1b604482015260640160405180910390fd5b6040805160608101825260085480825260208083018681528385018690526000928352600a9091529290208151815591519091906001820190620004a39082620005f7565b5060408201516002820190620004ba9082620005f7565b50506008805491506000620004cf83620006c3565b91905055505050565b80516001600160a01b0381168114620004f057600080fd5b919050565b600080600080608085870312156200050c57600080fd5b6200051785620004d8565b93506200052760208601620004d8565b92506200053760408601620004d8565b91506200054760608601620004d8565b905092959194509250565b634e487b7160e01b600052604160045260246000fd5b600181811c908216806200057d57607f821691505b6020821081036200059e57634e487b7160e01b600052602260045260246000fd5b50919050565b601f821115620005f257600081815260208120601f850160051c81016020861015620005cd5750805b601f850160051c820191505b81811015620005ee57828155600101620005d9565b5050505b505050565b81516001600160401b0381111562000613576200061362000552565b6200062b8162000624845462000568565b84620005a4565b602080601f8311600181146200066357600084156200064a5750858301515b600019600386901b1c1916600185901b178555620005ee565b600085815260208120601f198616915b82811015620006945788860151825594840194600190910190840162000673565b5085821015620006b35787850151600019600388901b60f8161c191681555b5050505050600190811b01905550565b600060018201620006e457634e487b7160e01b600052601160045260246000fd5b5060010190565b613b5480620006fb6000396000f3fe608060405234801561001057600080fd5b506004361061016c5760003560e01c806396f979d2116100cd578063d031a83411610081578063eaa1612f11610066578063eaa1612f14610331578063f48a5bc814610344578063fd95cc511461035757600080fd5b8063d031a834146102f2578063e4bcf87d1461031e57600080fd5b8063a6c807a9116100b2578063a6c807a914610297578063b0f8158c146102bd578063c6cdbe5e146102d057600080fd5b806396f979d21461025b578063a4adb24b1461028457600080fd5b806318222d5e116101245780632a47d91c116101095780632a47d91c1461020c5780635a637384146102355780638f2f3fdd1461024857600080fd5b806318222d5e146101d85780631bf703b2146101f957600080fd5b80630da079b4116101555780630da079b4146101b25780630f77df91146101c557806313eda8fc146101b057600080fd5b80630226b0b214610171578063097167ba1461019d575b600080fd5b61018461017f366004613218565b610385565b6040516101949493929190613280565b60405180910390f35b6101b06101ab3660046132ca565b61056a565b005b6101b06101c0366004613386565b6105bc565b6101b06101d33660046133f3565b6109fb565b6101eb6101e6366004613475565b610b0f565b604051908152602001610194565b6101b06102073660046134a1565b610b50565b61021f61021a366004613505565b610c0c565b6040516101949a99989796959493929190613529565b6101b06102433660046135cf565b610f91565b6101b061025636600461365f565b611567565b61026e6102693660046132ca565b6117fd565b6040516101949a9998979695949392919061371e565b6101b0610292366004613386565b6119f0565b6102aa6102a5366004613505565b611ee6565b604051610194979695949392919061379f565b6101b06102cb366004613218565b612141565b6102e36102de3660046132ca565b6125c6565b6040516101949392919061380d565b6101eb610300366004613505565b6001600160a01b03166000908152600b602052604090206009015490565b6101b061032c366004613842565b6126f9565b6101b061033f3660046138dc565b612c09565b6101b06103523660046138dc565b612e1b565b61036a610365366004613475565b6130d7565b60408051938452602084019290925290820152606001610194565b600f60205281600052604060002081815481106103a157600080fd5b9060005260206000209060040201600091509150508060000154908060010180546103cb90613908565b80601f01602080910402602001604051908101604052809291908181526020018280546103f790613908565b80156104445780601f1061041957610100808354040283529160200191610444565b820191906000526020600020905b81548152906001019060200180831161042757829003601f168201915b50505050509080600201805461045990613908565b80601f016020809104026020016040519081016040528092919081815260200182805461048590613908565b80156104d25780601f106104a7576101008083540402835291602001916104d2565b820191906000526020600020905b8154815290600101906020018083116104b557829003601f168201915b5050505050908060030180546104e790613908565b80601f016020809104026020016040519081016040528092919081815260200182805461051390613908565b80156105605780601f1061053557610100808354040283529160200191610560565b820191906000526020600020905b81548152906001019060200180831161054357829003601f168201915b5050505050905084565b6000546001600160a01b031633146105b75760405162461bcd60e51b815260206004820152600b60248201526a08585d5d1a1bdc9a5e995960aa1b60448201526064015b60405180910390fd5b600955565b336000908152600c60205260409020541580156105e65750336000908152600b6020526040902054155b6106205760405162461bcd60e51b815260206004820152600b60248201526a08585d5d1a1bdc9a5e995960aa1b60448201526064016105ae565b336000908152600c602090815260408083208151610100810190925280548252600181018054929391929184019161065790613908565b80601f016020809104026020016040519081016040528092919081815260200182805461068390613908565b80156106d05780601f106106a5576101008083540402835291602001916106d0565b820191906000526020600020905b8154815290600101906020018083116106b357829003601f168201915b505050505081526020016002820180546106e990613908565b80601f016020809104026020016040519081016040528092919081815260200182805461071590613908565b80156107625780601f1061073757610100808354040283529160200191610762565b820191906000526020600020905b81548152906001019060200180831161074557829003601f168201915b505050505081526020016003820154815260200160048201805461078590613908565b80601f01602080910402602001604051908101604052809291908181526020018280546107b190613908565b80156107fe5780601f106107d3576101008083540402835291602001916107fe565b820191906000526020600020905b8154815290600101906020018083116107e157829003601f168201915b5050505050815260200160058201805461081790613908565b80601f016020809104026020016040519081016040528092919081815260200182805461084390613908565b80156108905780601f1061086557610100808354040283529160200191610890565b820191906000526020600020905b81548152906001019060200180831161087357829003601f168201915b5050505050815260200160068201548152602001600782018054806020026020016040519081016040528092919081815260200182805480156108f257602002820191906000526020600020905b8154815260200190600101908083116108de575b505050919092525050604080516101008101825260065481526020808201898152828401899052606083018890526080808701519084015260a080870151908401524260c084015260e08087015190840152336000908152600c90925292902081518155915193945092909150600182019061096e908261398d565b5060408201516002820190610983908261398d565b5060608201516003820155608082015160048201906109a2908261398d565b5060a082015160058201906109b7908261398d565b5060c0820151600682015560e082015180516109dd916007840191602090910190613119565b505060068054915060006109f083613a63565b919050555050505050565b336000908152600c60205260408120549003610a475760405162461bcd60e51b815260206004820152600b60248201526a08585d5d1a1bdc9a5e995960aa1b60448201526064016105ae565b6000838152600d60205260408120549003610a8e5760405162461bcd60e51b81526020600482015260076024820152662165786973747360c81b60448201526064016105ae565b600480546040517f04b444d90000000000000000000000000000000000000000000000000000000081526001600160a01b03909116916304b444d991610ad8913391879101613a7c565b600060405180830381600087803b158015610af257600080fd5b505af1158015610b06573d6000803e3d6000fd5b50505050505050565b6001600160a01b0382166000908152600b60205260408120600901805483908110610b3c57610b3c613aa6565b906000526020600020015490505b92915050565b6000546001600160a01b03163314610b985760405162461bcd60e51b815260206004820152600b60248201526a08585d5d1a1bdc9a5e995960aa1b60448201526064016105ae565b6040805160608101825260085480825260208083018681528385018690526000928352600a9091529290208151815591519091906001820190610bdb908261398d565b5060408201516002820190610bf0908261398d565b50506008805491506000610c0383613a63565b91905055505050565b600b6020526000908152604090208054600182018054919291610c2e90613908565b80601f0160208091040260200160405190810160405280929190818152602001828054610c5a90613908565b8015610ca75780601f10610c7c57610100808354040283529160200191610ca7565b820191906000526020600020905b815481529060010190602001808311610c8a57829003601f168201915b505050505090806002018054610cbc90613908565b80601f0160208091040260200160405190810160405280929190818152602001828054610ce890613908565b8015610d355780601f10610d0a57610100808354040283529160200191610d35565b820191906000526020600020905b815481529060010190602001808311610d1857829003601f168201915b505050505090806003018054610d4a90613908565b80601f0160208091040260200160405190810160405280929190818152602001828054610d7690613908565b8015610dc35780601f10610d9857610100808354040283529160200191610dc3565b820191906000526020600020905b815481529060010190602001808311610da657829003601f168201915b50505050600483015460058401546006850180549495929460ff909216935090610dec90613908565b80601f0160208091040260200160405190810160405280929190818152602001828054610e1890613908565b8015610e655780601f10610e3a57610100808354040283529160200191610e65565b820191906000526020600020905b815481529060010190602001808311610e4857829003601f168201915b505050505090806007018054610e7a90613908565b80601f0160208091040260200160405190810160405280929190818152602001828054610ea690613908565b8015610ef35780601f10610ec857610100808354040283529160200191610ef3565b820191906000526020600020905b815481529060010190602001808311610ed657829003601f168201915b505050505090806008018054610f0890613908565b80601f0160208091040260200160405190810160405280929190818152602001828054610f3490613908565b8015610f815780601f10610f5657610100808354040283529160200191610f81565b820191906000526020600020905b815481529060010190602001808311610f6457829003601f168201915b50505050509080600a015490508a565b336000908152600c6020526040902054158015610fbb5750336000908152600b6020526040902054155b610ff55760405162461bcd60e51b815260206004820152600b60248201526a08585d5d1a1bdc9a5e995960aa1b60448201526064016105ae565b336000908152600b602090815260408083208151610160810190925280548252600181018054929391929184019161102c90613908565b80601f016020809104026020016040519081016040528092919081815260200182805461105890613908565b80156110a55780601f1061107a576101008083540402835291602001916110a5565b820191906000526020600020905b81548152906001019060200180831161108857829003601f168201915b505050505081526020016002820180546110be90613908565b80601f01602080910402602001604051908101604052809291908181526020018280546110ea90613908565b80156111375780601f1061110c57610100808354040283529160200191611137565b820191906000526020600020905b81548152906001019060200180831161111a57829003601f168201915b5050505050815260200160038201805461115090613908565b80601f016020809104026020016040519081016040528092919081815260200182805461117c90613908565b80156111c95780601f1061119e576101008083540402835291602001916111c9565b820191906000526020600020905b8154815290600101906020018083116111ac57829003601f168201915b505050918352505060048201546020820152600582015460ff16151560408201526006820180546060909201916111ff90613908565b80601f016020809104026020016040519081016040528092919081815260200182805461122b90613908565b80156112785780601f1061124d57610100808354040283529160200191611278565b820191906000526020600020905b81548152906001019060200180831161125b57829003601f168201915b5050505050815260200160078201805461129190613908565b80601f01602080910402602001604051908101604052809291908181526020018280546112bd90613908565b801561130a5780601f106112df5761010080835404028352916020019161130a565b820191906000526020600020905b8154815290600101906020018083116112ed57829003601f168201915b5050505050815260200160088201805461132390613908565b80601f016020809104026020016040519081016040528092919081815260200182805461134f90613908565b801561139c5780601f106113715761010080835404028352916020019161139c565b820191906000526020600020905b81548152906001019060200180831161137f57829003601f168201915b50505050508152602001600982018054806020026020016040519081016040528092919081815260200182805480156113f457602002820191906000526020600020905b8154815260200190600101908083116113e0575b5050509183525050600a9190910154602091820152604080516101608101825260055481528083018981528183018990526060820188905260808201879052600060a0830181905260c0808701519084015260e080870151908401526101008087015190840152610120808701519084015242610140840152338152600b9094529190922082518155905192935090916001820190611493908261398d565b50604082015160028201906114a8908261398d565b50606082015160038201906114bd908261398d565b506080820151600482015560a082015160058201805460ff191691151591909117905560c082015160068201906114f4908261398d565b5060e08201516007820190611509908261398d565b50610100820151600882019061151f908261398d565b50610120820151805161153c916009840191602090910190613119565b506101409190910151600a909101556005805490600061155b83613a63565b91905055505050505050565b336000908152600b602052604081205490036115b35760405162461bcd60e51b815260206004820152600b60248201526a08585d5d1a1bdc9a5e995960aa1b60448201526064016105ae565b604051806101800160405280838152602001888152602001878152602001858152602001868152602001336001600160a01b03168152602001600d600085815260200190815260200160002060060180548060200260200160405190810160405280929190818152602001828054801561165657602002820191906000526020600020905b81546001600160a01b03168152600190910190602001808311611638575b50505050508152602001600d60008581526020019081526020016000206007018054806020026020016040519081016040528092919081815260200182805480156116c057602002820191906000526020600020905b8154815260200190600101908083116116ac575b505050918352505060208082018690528315156040808401919091526000868152600d808452918120600a8101546060860152426080909501949094528690528152825182558201516001820190611718908261398d565b506040820151600282019061172d908261398d565b50606082015160038201556080820151600482019061174c908261398d565b5060a082015160058201805473ffffffffffffffffffffffffffffffffffffffff19166001600160a01b0390921691909117905560c0820151805161179b916006840191602090910190613164565b5060e082015180516117b7916007840191602090910190613119565b50610100820151600882015561012082015160098201805460ff1916911515919091179055610140820151600a82015561016090910151600b9091015550505050505050565b600d602052600090815260409020805460018201805491929161181f90613908565b80601f016020809104026020016040519081016040528092919081815260200182805461184b90613908565b80156118985780601f1061186d57610100808354040283529160200191611898565b820191906000526020600020905b81548152906001019060200180831161187b57829003601f168201915b5050505050908060020180546118ad90613908565b80601f01602080910402602001604051908101604052809291908181526020018280546118d990613908565b80156119265780601f106118fb57610100808354040283529160200191611926565b820191906000526020600020905b81548152906001019060200180831161190957829003601f168201915b50505050509080600301549080600401805461194190613908565b80601f016020809104026020016040519081016040528092919081815260200182805461196d90613908565b80156119ba5780601f1061198f576101008083540402835291602001916119ba565b820191906000526020600020905b81548152906001019060200180831161199d57829003601f168201915b505050600584015460088501546009860154600a870154600b9097015495966001600160a01b039093169591945060ff1692508a565b336000908152600b60205260408120549003611a3c5760405162461bcd60e51b815260206004820152600b60248201526a08585d5d1a1bdc9a5e995960aa1b60448201526064016105ae565b6000600d600060075481526020019081526020016000206040518061018001604052908160008201548152602001600182018054611a7990613908565b80601f0160208091040260200160405190810160405280929190818152602001828054611aa590613908565b8015611af25780601f10611ac757610100808354040283529160200191611af2565b820191906000526020600020905b815481529060010190602001808311611ad557829003601f168201915b50505050508152602001600282018054611b0b90613908565b80601f0160208091040260200160405190810160405280929190818152602001828054611b3790613908565b8015611b845780601f10611b5957610100808354040283529160200191611b84565b820191906000526020600020905b815481529060010190602001808311611b6757829003601f168201915b5050505050815260200160038201548152602001600482018054611ba790613908565b80601f0160208091040260200160405190810160405280929190818152602001828054611bd390613908565b8015611c205780601f10611bf557610100808354040283529160200191611c20565b820191906000526020600020905b815481529060010190602001808311611c0357829003601f168201915b505050918352505060058201546001600160a01b03166020808301919091526006830180546040805182850281018501825282815294019392830182828015611c9257602002820191906000526020600020905b81546001600160a01b03168152600190910190602001808311611c74575b5050505050815260200160078201805480602002602001604051908101604052809291908181526020018280548015611cea57602002820191906000526020600020905b815481526020019060010190808311611cd6575b50505050508152602001600882015481526020016009820160009054906101000a900460ff16151515158152602001600a8201548152602001600b820154815250509050604051806101800160405280600754815260200185815260200184815260200183815260200182608001518152602001336001600160a01b031681526020018260c0015181526020018260e0015181526020016000815260200160001515815260200142815260200142815250600d60006007548152602001908152602001600020600082015181600001556020820151816001019081611dcf919061398d565b5060408201516002820190611de4908261398d565b506060820151600382015560808201516004820190611e03908261398d565b5060a082015160058201805473ffffffffffffffffffffffffffffffffffffffff19166001600160a01b0390921691909117905560c08201518051611e52916006840191602090910190613164565b5060e08201518051611e6e916007840191602090910190613119565b5061010082015160088201556101208201516009808301805460ff191692151592909217909155610140830151600a83015561016090920151600b918201553360009081526020918252604081206007805491909401805460018101825590835292822090920191909155815491906109f083613a63565b600c6020526000908152604090208054600182018054919291611f0890613908565b80601f0160208091040260200160405190810160405280929190818152602001828054611f3490613908565b8015611f815780601f10611f5657610100808354040283529160200191611f81565b820191906000526020600020905b815481529060010190602001808311611f6457829003601f168201915b505050505090806002018054611f9690613908565b80601f0160208091040260200160405190810160405280929190818152602001828054611fc290613908565b801561200f5780601f10611fe45761010080835404028352916020019161200f565b820191906000526020600020905b815481529060010190602001808311611ff257829003601f168201915b50505050509080600301549080600401805461202a90613908565b80601f016020809104026020016040519081016040528092919081815260200182805461205690613908565b80156120a35780601f10612078576101008083540402835291602001916120a3565b820191906000526020600020905b81548152906001019060200180831161208657829003601f168201915b5050505050908060050180546120b890613908565b80601f01602080910402602001604051908101604052809291908181526020018280546120e490613908565b80156121315780601f1061210657610100808354040283529160200191612131565b820191906000526020600020905b81548152906001019060200180831161211457829003601f168201915b5050505050908060060154905087565b336000908152600b6020526040812054900361218d5760405162461bcd60e51b815260206004820152600b60248201526a08585d5d1a1bdc9a5e995960aa1b60448201526064016105ae565b6000600d600084815260200190815260200160002060405180610180016040529081600082015481526020016001820180546121c890613908565b80601f01602080910402602001604051908101604052809291908181526020018280546121f490613908565b80156122415780601f1061221657610100808354040283529160200191612241565b820191906000526020600020905b81548152906001019060200180831161222457829003601f168201915b5050505050815260200160028201805461225a90613908565b80601f016020809104026020016040519081016040528092919081815260200182805461228690613908565b80156122d35780601f106122a8576101008083540402835291602001916122d3565b820191906000526020600020905b8154815290600101906020018083116122b657829003601f168201915b50505050508152602001600382015481526020016004820180546122f690613908565b80601f016020809104026020016040519081016040528092919081815260200182805461232290613908565b801561236f5780601f106123445761010080835404028352916020019161236f565b820191906000526020600020905b81548152906001019060200180831161235257829003601f168201915b505050918352505060058201546001600160a01b031660208083019190915260068301805460408051828502810185018252828152940193928301828280156123e157602002820191906000526020600020905b81546001600160a01b031681526001909101906020018083116123c3575b505050505081526020016007820180548060200260200160405190810160405280929190818152602001828054801561243957602002820191906000526020600020905b815481526020019060010190808311612425575b505050918352505060088201546020820152600982015460ff1615156040820152600a8201546060820152600b9091015460809091015280519091506000036124ae5760405162461bcd60e51b81526020600482015260076024820152662165786973747360c81b60448201526064016105ae565b60a08101516001600160a01b031633146124f85760405162461bcd60e51b815260206004820152600b60248201526a08585d5d1a1bdc9a5e995960aa1b60448201526064016105ae565b6000838152600f6020526040902080548390811061251857612518613aa6565b9060005260206000209060040201600001546000036125635760405162461bcd60e51b81526020600482015260076024820152662165786973747360c81b60448201526064016105ae565b6000838152600f6020526040902080548390811061258357612583613aa6565b600091825260208220600490910201818155906125a360018301826131c6565b6125b16002830160006131c6565b6125bf6003830160006131c6565b5050505050565b600a60205260009081526040902080546001820180549192916125e890613908565b80601f016020809104026020016040519081016040528092919081815260200182805461261490613908565b80156126615780601f1061263657610100808354040283529160200191612661565b820191906000526020600020905b81548152906001019060200180831161264457829003601f168201915b50505050509080600201805461267690613908565b80601f01602080910402602001604051908101604052809291908181526020018280546126a290613908565b80156126ef5780601f106126c4576101008083540402835291602001916126ef565b820191906000526020600020905b8154815290600101906020018083116126d257829003601f168201915b5050505050905083565b336000908152600b602052604081205490036127455760405162461bcd60e51b815260206004820152600b60248201526a08585d5d1a1bdc9a5e995960aa1b60448201526064016105ae565b6000600d6000878152602001908152602001600020604051806101800160405290816000820154815260200160018201805461278090613908565b80601f01602080910402602001604051908101604052809291908181526020018280546127ac90613908565b80156127f95780601f106127ce576101008083540402835291602001916127f9565b820191906000526020600020905b8154815290600101906020018083116127dc57829003601f168201915b5050505050815260200160028201805461281290613908565b80601f016020809104026020016040519081016040528092919081815260200182805461283e90613908565b801561288b5780601f106128605761010080835404028352916020019161288b565b820191906000526020600020905b81548152906001019060200180831161286e57829003601f168201915b50505050508152602001600382015481526020016004820180546128ae90613908565b80601f01602080910402602001604051908101604052809291908181526020018280546128da90613908565b80156129275780601f106128fc57610100808354040283529160200191612927565b820191906000526020600020905b81548152906001019060200180831161290a57829003601f168201915b505050918352505060058201546001600160a01b0316602080830191909152600683018054604080518285028101850182528281529401939283018282801561299957602002820191906000526020600020905b81546001600160a01b0316815260019091019060200180831161297b575b50505050508152602001600782018054806020026020016040519081016040528092919081815260200182805480156129f157602002820191906000526020600020905b8154815260200190600101908083116129dd575b505050918352505060088201546020820152600982015460ff1615156040820152600a8201546060820152600b909101546080909101528051909150600003612a665760405162461bcd60e51b81526020600482015260076024820152662165786973747360c81b60448201526064016105ae565b60a08101516001600160a01b03163314612ab05760405162461bcd60e51b815260206004820152600b60248201526a08585d5d1a1bdc9a5e995960aa1b60448201526064016105ae565b81600003612b61576000868152600f60205260409081902081516080810190925280549091908190612ae3906001613abc565b815260208082018990526040820188905260609091018690528254600181810185556000948552938290208351600490920201908155908201519192909190820190612b2f908261398d565b5060408201516002820190612b44908261398d565b5060608201516003820190612b59908261398d565b505050612c01565b604051806080016040528083815260200186815260200185815260200184815250600f60008881526020019081526020016000208381548110612ba657612ba6613aa6565b9060005260206000209060040201600082015181600001556020820151816001019081612bd3919061398d565b5060408201516002820190612be8908261398d565b5060608201516003820190612bfd908261398d565b5050505b505050505050565b336000908152600c60205260408120549003612c555760405162461bcd60e51b815260206004820152600b60248201526a08585d5d1a1bdc9a5e995960aa1b60448201526064016105ae565b336000908152600e60205260408120805485908110612c7657612c76613aa6565b9060005260206000209060030201600101546348190800612c979190613abc565b336000908152600e602052604081208054929350909186908110612cbd57612cbd613aa6565b9060005260206000209060030201600201549050814210612d205760405162461bcd60e51b815260206004820152600760248201527f3e327765656b730000000000000000000000000000000000000000000000000060448201526064016105ae565b6000612d2c8486613acf565b905060008111612d7e5760405162461bcd60e51b815260206004820152600b60248201527f21726566756e6461626c6500000000000000000000000000000000000000000060448201526064016105ae565b6000612d8a8383613ae2565b336000908152600e6020526040902080549192509088908110612daf57612daf613aa6565b6000918252602080832060039290920290910182815560018101839055600201919091556040805133815291820189905281018690527fb51fb992b7d4733d1ea94729ea1cad9c8ef10506a0aef7c79a532754f57fe88a9060600160405180910390a150505050505050565b336000908152600c60205260408120549003612e675760405162461bcd60e51b815260206004820152600b60248201526a08585d5d1a1bdc9a5e995960aa1b60448201526064016105ae565b6000838152600d602052604081208054909103612eb05760405162461bcd60e51b81526020600482015260076024820152662165786973747360c81b60448201526064016105ae565b60088101548315801590612ec357508215155b1561302a576003546040517f6352211e0000000000000000000000000000000000000000000000000000000081526004810186905233916001600160a01b031690636352211e90602401602060405180830381865afa158015612f2a573d6000803e3d6000fd5b505050506040513d601f19601f82011682018060405250810190612f4e9190613b01565b6001600160a01b031614612fa45760405162461bcd60e51b815260206004820152600660248201527f216f776e6572000000000000000000000000000000000000000000000000000060448201526064016105ae565b6003546040517f42966c68000000000000000000000000000000000000000000000000000000008152600481018690526001600160a01b03909116906342966c6890602401600060405180830381600087803b15801561300357600080fd5b505af1158015613017573d6000803e3d6000fd5b5050505082816130279190613acf565b90505b336000818152600e602090815260408083208151606080820184528b8252428286019081528285018981528454600180820187559589529787902093516003909802909301968755519286019290925551600290940193909355600586015481516001600160a01b039091168152918201939093529182018790527fba05698ffe932ba01d3d70f62a2e48d6719cc5df3bdcf9118015af495c4a39b1910160405180910390a15050505050565b600e60205281600052604060002081815481106130f357600080fd5b600091825260209091206003909102018054600182015460029092015490935090915083565b828054828255906000526020600020908101928215613154579160200282015b82811115613154578251825591602001919060010190613139565b50613160929150613203565b5090565b828054828255906000526020600020908101928215613154579160200282015b82811115613154578251825473ffffffffffffffffffffffffffffffffffffffff19166001600160a01b03909116178255602090920191600190910190613184565b5080546131d290613908565b6000825580601f106131e2575050565b601f0160209004906000526020600020908101906132009190613203565b50565b5b808211156131605760008155600101613204565b6000806040838503121561322b57600080fd5b50508035926020909101359150565b6000815180845260005b8181101561326057602081850181015186830182015201613244565b506000602082860101526020601f19601f83011685010191505092915050565b848152608060208201526000613299608083018661323a565b82810360408401526132ab818661323a565b905082810360608401526132bf818561323a565b979650505050505050565b6000602082840312156132dc57600080fd5b5035919050565b634e487b7160e01b600052604160045260246000fd5b600082601f83011261330a57600080fd5b813567ffffffffffffffff80821115613325576133256132e3565b604051601f8301601f19908116603f0116810190828211818310171561334d5761334d6132e3565b8160405283815286602085880101111561336657600080fd5b836020870160208301376000602085830101528094505050505092915050565b60008060006060848603121561339b57600080fd5b833567ffffffffffffffff808211156133b357600080fd5b6133bf878388016132f9565b945060208601359150808211156133d557600080fd5b506133e2868287016132f9565b925050604084013590509250925092565b60008060006060848603121561340857600080fd5b83359250602084013567ffffffffffffffff8082111561342757600080fd5b613433878388016132f9565b9350604086013591508082111561344957600080fd5b50613456868287016132f9565b9150509250925092565b6001600160a01b038116811461320057600080fd5b6000806040838503121561348857600080fd5b823561349381613460565b946020939093013593505050565b600080604083850312156134b457600080fd5b823567ffffffffffffffff808211156134cc57600080fd5b6134d8868387016132f9565b935060208501359150808211156134ee57600080fd5b506134fb858286016132f9565b9150509250929050565b60006020828403121561351757600080fd5b813561352281613460565b9392505050565b60006101408c83528060208401526135438184018d61323a565b90508281036040840152613557818c61323a565b9050828103606084015261356b818b61323a565b905088608084015287151560a084015282810360c084015261358d818861323a565b905082810360e08401526135a1818761323a565b90508281036101008401526135b6818661323a565b915050826101208301529b9a5050505050505050505050565b600080600080608085870312156135e557600080fd5b843567ffffffffffffffff808211156135fd57600080fd5b613609888389016132f9565b9550602087013591508082111561361f57600080fd5b61362b888389016132f9565b9450604087013591508082111561364157600080fd5b5061364e878288016132f9565b949793965093946060013593505050565b600080600080600080600060e0888a03121561367a57600080fd5b873567ffffffffffffffff8082111561369257600080fd5b61369e8b838c016132f9565b985060208a01359150808211156136b457600080fd5b6136c08b838c016132f9565b975060408a01359150808211156136d657600080fd5b506136e38a828b016132f9565b955050606088013593506080880135925060a0880135915060c0880135801515811461370e57600080fd5b8091505092959891949750929550565b60006101408c83528060208401526137388184018d61323a565b9050828103604084015261374c818c61323a565b90508960608401528281036080840152613766818a61323a565b6001600160a01b039890981660a0840152505060c081019490945291151560e08401526101008301526101209091015295945050505050565b87815260e0602082015260006137b860e083018961323a565b82810360408401526137ca818961323a565b905086606084015282810360808401526137e4818761323a565b905082810360a08401526137f8818661323a565b9150508260c083015298975050505050505050565b838152606060208201526000613826606083018561323a565b8281036040840152613838818561323a565b9695505050505050565b600080600080600060a0868803121561385a57600080fd5b85359450602086013567ffffffffffffffff8082111561387957600080fd5b61388589838a016132f9565b9550604088013591508082111561389b57600080fd5b6138a789838a016132f9565b945060608801359150808211156138bd57600080fd5b506138ca888289016132f9565b95989497509295608001359392505050565b6000806000606084860312156138f157600080fd5b505081359360208301359350604090920135919050565b600181811c9082168061391c57607f821691505b60208210810361393c57634e487b7160e01b600052602260045260246000fd5b50919050565b601f82111561398857600081815260208120601f850160051c810160208610156139695750805b601f850160051c820191505b81811015612c0157828155600101613975565b505050565b815167ffffffffffffffff8111156139a7576139a76132e3565b6139bb816139b58454613908565b84613942565b602080601f8311600181146139f057600084156139d85750858301515b600019600386901b1c1916600185901b178555612c01565b600085815260208120601f198616915b82811015613a1f57888601518255948401946001909101908401613a00565b5085821015613a3d5787850151600019600388901b60f8161c191681555b5050505050600190811b01905550565b634e487b7160e01b600052601160045260246000fd5b600060018201613a7557613a75613a4d565b5060010190565b6001600160a01b0383168152604060208201526000613a9e604083018461323a565b949350505050565b634e487b7160e01b600052603260045260246000fd5b80820180821115610b4a57610b4a613a4d565b81810381811115610b4a57610b4a613a4d565b6000816000190483118215151615613afc57613afc613a4d565b500290565b600060208284031215613b1357600080fd5b81516135228161346056fea2646970667358221220eec8a1de2b33bb56b9008263a9dd0242be01d68087dc4f1b6474cb9a849cea0664736f6c634300081000332f696d616765732f63617465676f726965732f696c6c757374726174696f6e2e776562702f696d616765732f63617465676f726965732f616e696d6174696f6e2e776562702f696d616765732f63617465676f726965732f70686f746f6772617068792e776562702f696d616765732f63617465676f726965732f7765622d646576656c6f706d656e742e776562702f696d616765732f63617465676f726965732f646174612d736369656e63652e776562702f696d616765732f63617465676f726965732f6d61726b6574696e672e77656270",
  "immutableReferences": {},
  "source": "// SPDX-License-Identifier: GPL-3.0\npragma solidity >=0.7.0 <0.9.0;\n\nimport \"./BdlNft.sol\";\nimport \"./BdlCertificate.sol\";\nimport \"./Models.sol\";\nimport {PaymentFlow} from \"./PaymentFlow.sol\";\nimport {BdlToken} from \"./BdlToken.sol\";\n\ncontract Buidl {\n    // state variables\n    address deployer;\n\n    PaymentFlow private _paymentFlow;\n    BdlToken private _bdlToken;\n    BdlNft private _bdlNft;\n    BdlCertificate private _bdlCertificate;\n\n    uint256 private contractInstructorID = 1;\n    uint256 private contractStudentID = 1;\n    uint256 private contractCourseID = 1;\n    uint256 private contractCategoryID = 1;\n\n    // minimum to stake for a duration of 1year\n    uint256 private instructorRegistrationFee = 2000 * 10**18;\n\n    mapping(uint => Models.Category) public categories;\n    mapping(address => Models.Instructor) public instructors;\n    mapping(address => Models.Student) public students;\n    mapping(uint => Models.Course) public courses;\n    mapping(address => Models.StudentCourse[]) public studentCourses;\n    mapping(uint => Models.CourseSection[]) public courseSections;\n\n    // contructor\n    constructor(\n        address bdlToken,\n        address bdlNft,\n        address bdlCertificate,\n        address paymentFlow\n    ) {\n        deployer = msg.sender;\n\n        _bdlToken = BdlToken(bdlToken);\n        _bdlNft = BdlNft(bdlNft);\n        _bdlCertificate = BdlCertificate(bdlCertificate);\n        _paymentFlow = PaymentFlow(paymentFlow);\n\n        addTestCategories();\n    }\n\n    // ========= Administation ========= //\n\n    function setInstructorRegistrationFee(uint256 amount) public onlyOwner {\n        instructorRegistrationFee = amount;\n    }\n\n    function addCategory(string memory name, string memory image)\n        public\n        onlyOwner\n    {\n        categories[contractCategoryID] = Models.Category(\n            contractCategoryID,\n            name,\n            image\n        );\n\n        contractCategoryID++;\n    }\n\n    // ========= Instructors =========== //\n\n    function createCourse(\n        string memory name,\n        string memory description,\n        uint categoryId\n    ) public onlyInstructor {\n        Models.Course memory course = courses[contractCourseID];\n\n        // create new freah course\n        courses[contractCourseID] = Models.Course(\n            contractCourseID,\n            name,\n            description,\n            categoryId,\n            course.ipfsPhoto,\n            msg.sender,\n            course.students,\n            course.ratings,\n            0,\n            false,\n            block.timestamp,\n            block.timestamp\n        );\n\n        // assign course ownership to intructor\n        instructors[msg.sender].courses.push(contractCourseID);\n\n        // increment id\n        contractCourseID++;\n    }\n\n    function updateCourse(\n        string memory name,\n        string memory description,\n        string memory ipfsPhoto,\n        uint categoryId,\n        uint price,\n        uint courseId,\n        bool publish\n    ) public onlyInstructor {\n        courses[courseId] = Models.Course(\n            courseId,\n            name,\n            description,\n            categoryId,\n            ipfsPhoto,\n            msg.sender,\n            courses[courseId].students,\n            courses[courseId].ratings,\n            price,\n            publish,\n            courses[courseId].createdAt,\n            block.timestamp\n        );\n    }\n\n    function addSectionToCourse(\n        uint courseId,\n        string memory title,\n        string memory src,\n        string memory content,\n        uint updateFor\n    ) public onlyInstructor {\n        Models.Course memory course = courses[courseId];\n\n        require(course.id != 0, \"!exists\");\n        require(course.instructor == msg.sender, \"!authorized\");\n\n        if (updateFor == 0) {\n            courseSections[courseId].push(\n                Models.CourseSection(\n                    courseSections[courseId].length + 1,\n                    title,\n                    src,\n                    content\n                )\n            );\n        } else {\n            courseSections[courseId][updateFor] = Models.CourseSection(\n                updateFor,\n                title,\n                src,\n                content\n            );\n        }\n    }\n\n    function deleteCourseSection(uint courseId, uint sectionIndex)\n        public\n        onlyInstructor\n    {\n        Models.Course memory course = courses[courseId];\n\n        require(course.id != 0, \"!exists\");\n        require(course.instructor == msg.sender, \"!authorized\");\n        require(courseSections[courseId][sectionIndex].id != 0, \"!exists\");\n\n        delete courseSections[courseId][sectionIndex];\n    }\n\n    function getInstructorCoursesLength(address instructor)\n        public\n        view\n        returns (uint)\n    {\n        return instructors[instructor].courses.length;\n    }\n\n    function getInstructorCourseIdAtIndex(address instructor, uint index)\n        public\n        view\n        returns (uint)\n    {\n        return instructors[instructor].courses[index];\n    }\n\n    function createInstructorAccount(\n        string memory firstName,\n        string memory lastName,\n        string memory location,\n        uint gender\n    ) public notAnyone {\n        // stake instruction fee\n        // _bdlToken.increaseAllowance(\n        //     msg.sender,\n        //     address(this),\n        //     instructorRegistrationFee\n        // );\n\n        // _bdlToken.transferFrom(\n        //     msg.sender,\n        //     address(this),\n        //     instructorRegistrationFee\n        // );\n\n        Models.Instructor memory instructor = instructors[msg.sender];\n\n        instructors[msg.sender] = Models.Instructor(\n            contractInstructorID,\n            firstName,\n            lastName,\n            location,\n            gender,\n            false,\n            instructor.ipfsPhoto,\n            instructor.twitter,\n            instructor.linkedin,\n            instructor.courses,\n            block.timestamp\n        );\n\n        contractInstructorID++;\n    }\n\n    // function getUnclaimableRevenue() public returns(uint256) {\n    //   uint256 unclaimed = 0;\n\n    //   for (uint index = 0; index < studentCourses.length; index++) {\n    //       if (studentsCourse[])\n    //   }\n\n    // }\n\n    // ========= Students ========== //\n\n    function createStudentAccount(\n        string memory name,\n        string memory email,\n        uint gender\n    ) public notAnyone {\n        Models.Student memory student = students[msg.sender];\n\n        students[msg.sender] = Models.Student(\n            contractStudentID,\n            name,\n            email,\n            gender,\n            student.ipfsPhoto,\n            student.country,\n            block.timestamp,\n            student.courses\n        );\n\n        contractStudentID++;\n    }\n\n    function purchaseCourse(uint courseId, uint nftId, uint discount) public onlyStudent {\n        Models.Course storage course = courses[courseId];\n\n        require(course.id != 0, \"!exists\");\n        uint price = course.price;\n\n        if (nftId != 0 && discount != 0) {\n            require(_bdlNft.ownerOf(nftId) == msg.sender, \"!owner\");\n\n            _bdlNft.burn(nftId);\n            price -= discount;\n        }\n\n        // lock the student funds to smart contract\n        // _bdlToken.increaseAllowance(msg.sender, address(this), price);\n        // _bdlToken.transferFrom(msg.sender, address(this), price);\n\n        // create course for student\n        studentCourses[msg.sender].push(\n            Models.StudentCourse(courseId, block.timestamp, price)\n        );\n\n        emit CoursePurchased(course.instructor, msg.sender, courseId);\n    }\n\n    function rejectCourse(\n        uint courseId,\n        uint sections,\n        uint sectionsViewed\n    ) public onlyStudent {\n        // check is course is not over 2 weeks\n        uint expireTime = studentCourses[msg.sender][courseId].purchasedAt +\n            (20160 * 60000);\n        uint priceBought = studentCourses[msg.sender][courseId].priceBought;\n\n        require(block.timestamp < expireTime, \">2weeks\");\n\n        uint refundableSections = (sections - sectionsViewed);\n\n        require(refundableSections > 0, \"!refundable\");\n\n        uint256 refundableAmount = (refundableSections * priceBought);\n\n        // terminate student course\n        delete studentCourses[msg.sender][courseId];\n\n        // refund the student\n        // _bdlToken.transferFrom(address(this), msg.sender, refundableAmount);\n\n        emit CourseRefunded(msg.sender, courseId, sectionsViewed);\n    }\n\n    function onCompletedCourse(\n        uint courseId,\n        string memory certificateUri,\n        string memory nftUri\n    ) public onlyStudent {\n        require(courses[courseId].id != 0, \"!exists\");\n        // check if student has purchase the course\n        // require(studentCourses[msg.sender][] != 0, \"!exists\");\n        _bdlCertificate.issue(msg.sender, certificateUri);\n        // _bdlNft.mint(msg.sender, nftUri);\n    }\n\n    modifier onlyInstructor() {\n        require(instructors[msg.sender].id != 0, \"!authorized\");\n        _;\n    }\n\n    modifier onlyStudent() {\n        require(students[msg.sender].id != 0, \"!authorized\");\n        _;\n    }\n\n    modifier onlyOwner() {\n        require(msg.sender == deployer, \"!authorized\");\n        _;\n    }\n\n    modifier notAnyone() {\n        require(\n            (students[msg.sender].id == 0 && instructors[msg.sender].id == 0),\n            \"!authorized\"\n        );\n        _;\n    }\n\n    // ========== Events ========== //\n\n    event CourseCompletion(address student, uint courseId);\n    event CoursePurchased(address intructor, address student, uint courseId);\n    event CourseRefunded(address student, uint courseId, uint sectionsViewed);\n\n    // ========== Development ========== //\n\n    function faucetMint() public {\n        // _bdlToken.mint(msg.sender, 5000);\n    }\n\n    function addTestCategories() private {\n        addCategory(\n            \"Web Development\",\n            \"/images/categories/web-development.webp\"\n        );\n        addCategory(\"Cooking\", \"/images/categories/cooking.webp\");\n        addCategory(\"UI/UX Designing\", \"/images/categories/ui-ux.webp\");\n        addCategory(\"3D Animation\", \"/images/categories/animation.webp\");\n        addCategory(\"Illustration\", \"/images/categories/illustration.webp\");\n        addCategory(\"Data Science\", \"/images/categories/data-science.webp\");\n        addCategory(\"Speaking\", \"/images/categories/speaking.webp\");\n        addCategory(\"Music\", \"/images/categories/music.webp\");\n        addCategory(\"Photography\", \"/images/categories/photography.webp\");\n        addCategory(\"Marketing\", \"/images/categories/marketing.webp\");\n    }\n}\n",
  "sourcePath": "C:\\Users\\Arogundade Ibrahim\\Documents\\web3\\Buidl\\contracts\\Buidl.sol",
  "compiler": {
    "name": "solc",
    "version": "0.8.16+commit.07a7930e.Emscripten.clang"
  },
  "schemaVersion": "3.4.10",
  "updatedAt": "2022-10-24T09:51:45.582Z",
  "networkType": "ethereum",
  "devdoc": {
    "kind": "dev",
    "methods": {},
    "version": 1
  },
  "userdoc": {
    "kind": "user",
    "methods": {},
    "version": 1
  }
}