{
  "contractName": "Buidl",
  "abi": [
    {
      "inputs": [
        {
          "internalType": "address",
          "name": "bdlToken",
          "type": "address"
        },
        {
          "internalType": "address",
          "name": "bdlNft",
          "type": "address"
        },
        {
          "internalType": "address",
          "name": "bdlCertificate",
          "type": "address"
        },
        {
          "internalType": "address",
          "name": "bdlCourse",
          "type": "address"
        },
        {
          "internalType": "address",
          "name": "staking",
          "type": "address"
        },
        {
          "internalType": "address",
          "name": "gateway_",
          "type": "address"
        }
      ],
      "stateMutability": "nonpayable",
      "type": "constructor"
    },
    {
      "inputs": [],
      "name": "InvalidAddress",
      "type": "error"
    },
    {
      "inputs": [],
      "name": "NotApprovedByGateway",
      "type": "error"
    },
    {
      "anonymous": false,
      "inputs": [
        {
          "indexed": false,
          "internalType": "address",
          "name": "owner",
          "type": "address"
        },
        {
          "indexed": false,
          "internalType": "bool",
          "name": "verified",
          "type": "bool"
        }
      ],
      "name": "Creator",
      "type": "event"
    },
    {
      "anonymous": false,
      "inputs": [
        {
          "indexed": false,
          "internalType": "address",
          "name": "owner",
          "type": "address"
        },
        {
          "indexed": false,
          "internalType": "string",
          "name": "name",
          "type": "string"
        },
        {
          "indexed": false,
          "internalType": "string",
          "name": "photo",
          "type": "string"
        },
        {
          "indexed": false,
          "internalType": "bool",
          "name": "verified",
          "type": "bool"
        }
      ],
      "name": "User",
      "type": "event"
    },
    {
      "inputs": [
        {
          "internalType": "bytes32",
          "name": "commandId",
          "type": "bytes32"
        },
        {
          "internalType": "string",
          "name": "sourceChain",
          "type": "string"
        },
        {
          "internalType": "string",
          "name": "sourceAddress",
          "type": "string"
        },
        {
          "internalType": "bytes",
          "name": "payload",
          "type": "bytes"
        }
      ],
      "name": "execute",
      "outputs": [],
      "stateMutability": "nonpayable",
      "type": "function"
    },
    {
      "inputs": [
        {
          "internalType": "bytes32",
          "name": "commandId",
          "type": "bytes32"
        },
        {
          "internalType": "string",
          "name": "sourceChain",
          "type": "string"
        },
        {
          "internalType": "string",
          "name": "sourceAddress",
          "type": "string"
        },
        {
          "internalType": "bytes",
          "name": "payload",
          "type": "bytes"
        },
        {
          "internalType": "string",
          "name": "tokenSymbol",
          "type": "string"
        },
        {
          "internalType": "uint256",
          "name": "amount",
          "type": "uint256"
        }
      ],
      "name": "executeWithToken",
      "outputs": [],
      "stateMutability": "nonpayable",
      "type": "function"
    },
    {
      "inputs": [],
      "name": "gateway",
      "outputs": [
        {
          "internalType": "contract IAxelarGateway",
          "name": "",
          "type": "address"
        }
      ],
      "stateMutability": "view",
      "type": "function"
    },
    {
      "inputs": [
        {
          "internalType": "address",
          "name": "",
          "type": "address"
        }
      ],
      "name": "revenues",
      "outputs": [
        {
          "internalType": "uint256",
          "name": "unclaimed",
          "type": "uint256"
        },
        {
          "internalType": "uint256",
          "name": "claimable",
          "type": "uint256"
        },
        {
          "internalType": "uint256",
          "name": "claimed",
          "type": "uint256"
        }
      ],
      "stateMutability": "view",
      "type": "function"
    },
    {
      "inputs": [
        {
          "internalType": "address",
          "name": "",
          "type": "address"
        }
      ],
      "name": "users",
      "outputs": [
        {
          "internalType": "uint256",
          "name": "id",
          "type": "uint256"
        },
        {
          "internalType": "bool",
          "name": "verified",
          "type": "bool"
        },
        {
          "internalType": "string",
          "name": "photo",
          "type": "string"
        },
        {
          "internalType": "uint256",
          "name": "createdAt",
          "type": "uint256"
        }
      ],
      "stateMutability": "view",
      "type": "function"
    },
    {
      "inputs": [
        {
          "internalType": "string",
          "name": "name",
          "type": "string"
        },
        {
          "internalType": "string",
          "name": "photo",
          "type": "string"
        }
      ],
      "name": "setAccount",
      "outputs": [],
      "stateMutability": "nonpayable",
      "type": "function"
    },
    {
      "inputs": [
        {
          "internalType": "uint256",
          "name": "amount",
          "type": "uint256"
        }
      ],
      "name": "stake",
      "outputs": [],
      "stateMutability": "nonpayable",
      "type": "function"
    },
    {
      "inputs": [],
      "name": "unlockCreator",
      "outputs": [],
      "stateMutability": "nonpayable",
      "type": "function"
    },
    {
      "inputs": [],
      "name": "removeCreator",
      "outputs": [],
      "stateMutability": "nonpayable",
      "type": "function"
    },
    {
      "inputs": [
        {
          "internalType": "uint256",
          "name": "id",
          "type": "uint256"
        }
      ],
      "name": "subscribe",
      "outputs": [],
      "stateMutability": "nonpayable",
      "type": "function"
    },
    {
      "inputs": [
        {
          "internalType": "uint256",
          "name": "id",
          "type": "uint256"
        }
      ],
      "name": "unSubscribe",
      "outputs": [],
      "stateMutability": "nonpayable",
      "type": "function"
    },
    {
      "inputs": [
        {
          "internalType": "uint256",
          "name": "amount",
          "type": "uint256"
        }
      ],
      "name": "withdrawPlatformFee",
      "outputs": [],
      "stateMutability": "nonpayable",
      "type": "function"
    },
    {
      "inputs": [
        {
          "internalType": "uint256",
          "name": "id",
          "type": "uint256"
        },
        {
          "internalType": "string",
          "name": "certificateUri",
          "type": "string"
        },
        {
          "internalType": "string",
          "name": "nftUri",
          "type": "string"
        }
      ],
      "name": "onCourseComplete",
      "outputs": [],
      "stateMutability": "nonpayable",
      "type": "function"
    }
  ],
  "bytecode": "0x60c0604052600a600055686c6b935b8bbd4000006006556301e1338060075560006008553480156200003057600080fd5b506040516200197138038062001971833981016040819052620000539162000107565b806001600160a01b0381166200007c5760405163e6c4247b60e01b815260040160405180910390fd5b6001600160a01b039081166080523360a052600180549682166001600160a01b03199788161790556002805497821697871697909717909655506003805493861693851693909317909255600480549185169184169190911790556005805491909316911617905562000188565b80516001600160a01b03811681146200010257600080fd5b919050565b60008060008060008060c087890312156200012157600080fd5b6200012c87620000ea565b95506200013c60208801620000ea565b94506200014c60408801620000ea565b93506200015c60608801620000ea565b92506200016c60808801620000ea565b91506200017c60a08801620000ea565b90509295509295509295565b60805160a0516117a8620001c960003960008181610e6501528181610f490152610fd301526000818160fe0152818161043601526108d401526117a86000f3fe608060405234801561001057600080fd5b50600436106100df5760003560e01c806378ae98c81161008c578063a694fc3a11610066578063a694fc3a146101ee578063a87430ba14610201578063c193b2e414610224578063dde7c1901461022c57600080fd5b806378ae98c8146101895780637f26fc7d146101d357806390bf70b0146101db57600080fd5b80632796b030116100bd5780632796b03014610150578063394812bc14610163578063491606581461017657600080fd5b80630f574ba7146100e4578063116191b6146100f95780631a98b2e01461013d575b600080fd5b6100f76100f23660046110cd565b61023f565b005b6101207f000000000000000000000000000000000000000000000000000000000000000081565b6040516001600160a01b0390911681526020015b60405180910390f35b6100f761014b36600461112f565b6103ec565b6100f761015e3660046110cd565b6104e8565b6100f76101713660046112ac565b6106f0565b6100f7610184366004611319565b61088a565b6101b86101973660046113d5565b600a6020526000908152604090208054600182015460029092015490919083565b60408051938452602084019290925290820152606001610134565b6100f761098b565b6100f76101e93660046113f9565b610a37565b6100f76101fc3660046110cd565b610a91565b61021461020f3660046113d5565b610c25565b60405161013494939291906114a3565b6100f7610cda565b6100f761023a3660046110cd565b610e5a565b600480546040517f59e6951d00000000000000000000000000000000000000000000000000000000815291820183905233602483015260009182916001600160a01b0316906359e6951d9060440160408051808303816000875af11580156102ab573d6000803e3d6000fd5b505050506040513d601f19601f820116820180604052508101906102cf91906114d5565b6001600160a01b0381166000908152600a60205260408120805493955091935084926102fc90849061151b565b909155505060025460405163e1f21c6760e01b8152336004820152306024820152604481018490526001600160a01b039091169063e1f21c6790606401600060405180830381600087803b15801561035357600080fd5b505af1158015610367573d6000803e3d6000fd5b50506002546040516323b872dd60e01b8152336004820152306024820152604481018690526001600160a01b0390911692506323b872dd91506064016020604051808303816000875af11580156103c2573d6000803e3d6000fd5b505050506040513d601f19601f820116820180604052508101906103e69190611549565b50505050565b600085856040516103fe929190611564565b6040519081900381207f1876eed900000000000000000000000000000000000000000000000000000000825291506001600160a01b037f00000000000000000000000000000000000000000000000000000000000000001690631876eed99061047b908e908e908e908e908e9089908d908d908d9060040161159d565b6020604051808303816000875af115801561049a573d6000803e3d6000fd5b505050506040513d601f19601f820116820180604052508101906104be9190611549565b6104db57604051631403112d60e21b815260040160405180910390fd5b5050505050505050505050565b600480546040517ff30e6e9b00000000000000000000000000000000000000000000000000000000815291820183905233602483015260009182918291829182916001600160a01b039091169063f30e6e9b9060440160a0604051808303816000875af115801561055d573d6000803e3d6000fd5b505050506040513d601f19601f8201168201806040525081019061058191906115fc565b60025460405163e1f21c6760e01b815230600482015233602482015260448101879052959a50939850919650945092506001600160a01b03169063e1f21c6790606401600060405180830381600087803b1580156105de57600080fd5b505af11580156105f2573d6000803e3d6000fd5b50506002546040516323b872dd60e01b8152306004820152336024820152604481018990526001600160a01b0390911692506323b872dd91506064016020604051808303816000875af115801561064d573d6000803e3d6000fd5b505050506040513d601f19601f820116820180604052508101906106719190611549565b506001600160a01b0383166000908152600a60205260408120805484929061069a908490611646565b90915550506001600160a01b0383166000908152600a6020526040812060010180548692906106ca90849061151b565b9250508190555080600860008282546106e3919061151b565b9091555050505050505050565b600480546040517f0172a34300000000000000000000000000000000000000000000000000000000815291820185905233602483015260009182916001600160a01b031690630172a343906044016040805180830381865afa15801561075a573d6000803e3d6000fd5b505050506040513d601f19601f8201168201806040525081019061077e9190611659565b915091508115610806576003546040517f04b444d90000000000000000000000000000000000000000000000000000000081526001600160a01b03909116906304b444d9906107d39033908890600401611685565b600060405180830381600087803b1580156107ed57600080fd5b505af1158015610801573d6000803e3d6000fd5b505050505b6001546040517fd0def5210000000000000000000000000000000000000000000000000000000081526001600160a01b039091169063d0def521906108519033908790600401611685565b600060405180830381600087803b15801561086b57600080fd5b505af115801561087f573d6000803e3d6000fd5b505050505050505050565b6000828260405161089c929190611564565b6040519081900381207f5f6970c300000000000000000000000000000000000000000000000000000000825291506001600160a01b037f00000000000000000000000000000000000000000000000000000000000000001690635f6970c390610913908b908b908b908b908b9089906004016116af565b6020604051808303816000875af1158015610932573d6000803e3d6000fd5b505050506040513d601f19601f820116820180604052508101906109569190611549565b61097357604051631403112d60e21b815260040160405180910390fd5b610981878787878787611056565b5050505050505050565b3360009081526009602052604090206001015460ff166109e05760405162461bcd60e51b815260206004820152600b60248201526a08585d5d1a1bdc9a5e995960aa1b60448201526064015b60405180910390fd5b336000818152600960209081526040808320600101805460ff191690558051938452908301919091527fb5763ba23a8384e26e9f2f5bfcd8e3795e4248ce7bb99a61c9ee6488d352a5b191015b60405180910390a1565b33600081815260096020526040908190206001015490517f2d3804f6670a9e165ddef24bb7f7345753423a96b66b32c302cfefcda19ad46792610a859290918691869160ff909116906116f0565b60405180910390a15050565b60025460405163e1f21c6760e01b8152336004820152306024820152604481018390526001600160a01b039091169063e1f21c6790606401600060405180830381600087803b158015610ae357600080fd5b505af1158015610af7573d6000803e3d6000fd5b50506002546040516323b872dd60e01b8152336004820152306024820152604481018590526001600160a01b0390911692506323b872dd91506064016020604051808303816000875af1158015610b52573d6000803e3d6000fd5b505050506040513d601f19601f82011682018060405250810190610b769190611549565b506005546007546001600160a01b039091169063ab84bb789033908490610b9d904261151b565b6040517fffffffff0000000000000000000000000000000000000000000000000000000060e086901b1681526001600160a01b0390931660048401526024830191909152604482015260006064820152608401600060405180830381600087803b158015610c0a57600080fd5b505af1158015610c1e573d6000803e3d6000fd5b5050505050565b600960205260009081526040902080546001820154600283018054929360ff90921692610c5190611738565b80601f0160208091040260200160405190810160405280929190818152602001828054610c7d90611738565b8015610cca5780601f10610c9f57610100808354040283529160200191610cca565b820191906000526020600020905b815481529060010190602001808311610cad57829003601f168201915b5050505050908060040154905084565b3360009081526009602052604090206001015460ff1615610d2b5760405162461bcd60e51b815260206004820152600b60248201526a08585d5d1a1bdc9a5e995960aa1b60448201526064016109d7565b6005546006546040517fde36071500000000000000000000000000000000000000000000000000000000815260048101919091523360248201526001600160a01b039091169063de36071590604401602060405180830381865afa158015610d97573d6000803e3d6000fd5b505050506040513d601f19601f82011682018060405250810190610dbb9190611549565b610e075760405162461bcd60e51b815260206004820152601860248201527f217374616b655f726571756972656d656e745f6669727374000000000000000060448201526064016109d7565b336000818152600960209081526040918290206001908101805460ff1916821790558251938452908301527fb5763ba23a8384e26e9f2f5bfcd8e3795e4248ce7bb99a61c9ee6488d352a5b19101610a2d565b336001600160a01b037f00000000000000000000000000000000000000000000000000000000000000001614610ec05760405162461bcd60e51b815260206004820152600b60248201526a08585d5d1a1bdc9a5e995960aa1b60448201526064016109d7565b806008541015610f125760405162461bcd60e51b815260206004820152601360248201527f696e73756669636369656e7420746f6b656e730000000000000000000000000060448201526064016109d7565b8060086000828254610f249190611646565b909155505060025460405163e1f21c6760e01b81523060048201526001600160a01b037f000000000000000000000000000000000000000000000000000000000000000081166024830152604482018490529091169063e1f21c6790606401600060405180830381600087803b158015610f9d57600080fd5b505af1158015610fb1573d6000803e3d6000fd5b50506002546040516323b872dd60e01b81523060048201526001600160a01b037f0000000000000000000000000000000000000000000000000000000000000000811660248301526044820186905290911692506323b872dd91506064016020604051808303816000875af115801561102e573d6000803e3d6000fd5b505050506040513d601f19601f820116820180604052508101906110529190611549565b5050565b6000611064828401846110cd565b6040517f0f574ba7000000000000000000000000000000000000000000000000000000008152600481018290529091503090630f574ba790602401600060405180830381600087803b1580156110b957600080fd5b505af11580156104db573d6000803e3d6000fd5b6000602082840312156110df57600080fd5b5035919050565b60008083601f8401126110f857600080fd5b50813567ffffffffffffffff81111561111057600080fd5b60208301915083602082850101111561112857600080fd5b9250929050565b60008060008060008060008060008060c08b8d03121561114e57600080fd5b8a35995060208b013567ffffffffffffffff8082111561116d57600080fd5b6111798e838f016110e6565b909b50995060408d013591508082111561119257600080fd5b61119e8e838f016110e6565b909950975060608d01359150808211156111b757600080fd5b6111c38e838f016110e6565b909750955060808d01359150808211156111dc57600080fd5b506111e98d828e016110e6565b9150809450508092505060a08b013590509295989b9194979a5092959850565b634e487b7160e01b600052604160045260246000fd5b600082601f83011261123057600080fd5b813567ffffffffffffffff8082111561124b5761124b611209565b604051601f8301601f19908116603f0116810190828211818310171561127357611273611209565b8160405283815286602085880101111561128c57600080fd5b836020870160208301376000602085830101528094505050505092915050565b6000806000606084860312156112c157600080fd5b83359250602084013567ffffffffffffffff808211156112e057600080fd5b6112ec8783880161121f565b9350604086013591508082111561130257600080fd5b5061130f8682870161121f565b9150509250925092565b60008060008060008060006080888a03121561133457600080fd5b87359650602088013567ffffffffffffffff8082111561135357600080fd5b61135f8b838c016110e6565b909850965060408a013591508082111561137857600080fd5b6113848b838c016110e6565b909650945060608a013591508082111561139d57600080fd5b506113aa8a828b016110e6565b989b979a50959850939692959293505050565b6001600160a01b03811681146113d257600080fd5b50565b6000602082840312156113e757600080fd5b81356113f2816113bd565b9392505050565b6000806040838503121561140c57600080fd5b823567ffffffffffffffff8082111561142457600080fd5b6114308683870161121f565b9350602085013591508082111561144657600080fd5b506114538582860161121f565b9150509250929050565b6000815180845260005b8181101561148357602081850181015186830182015201611467565b506000602082860101526020601f19601f83011685010191505092915050565b84815283151560208201526080604082015260006114c4608083018561145d565b905082606083015295945050505050565b600080604083850312156114e857600080fd5b8251915060208301516114fa816113bd565b809150509250929050565b634e487b7160e01b600052601160045260246000fd5b8082018082111561152e5761152e611505565b92915050565b8051801515811461154457600080fd5b919050565b60006020828403121561155b57600080fd5b6113f282611534565b8183823760009101908152919050565b81835281816020850137506000828201602090810191909152601f909101601f19169091010190565b89815260c0602082015260006115b760c083018a8c611574565b82810360408401526115ca81898b611574565b905086606084015282810360808401526115e5818688611574565b9150508260a08301529a9950505050505050505050565b600080600080600060a0868803121561161457600080fd5b8551945060208601519350604086015161162d816113bd565b6060870151608090970151959894975095949392505050565b8181038181111561152e5761152e611505565b6000806040838503121561166c57600080fd5b61167583611534565b9150602083015190509250929050565b6001600160a01b03831681526040602082015260006116a7604083018461145d565b949350505050565b8681526080602082015260006116c9608083018789611574565b82810360408401526116dc818688611574565b915050826060830152979650505050505050565b6001600160a01b0385168152608060208201526000611712608083018661145d565b8281036040840152611724818661145d565b915050821515606083015295945050505050565b600181811c9082168061174c57607f821691505b60208210810361176c57634e487b7160e01b600052602260045260246000fd5b5091905056fea26469706673582212205b8603da5fbbdf683a53f5792df49ec0a2a34805925702857de043ce6a1e0ddd64736f6c63430008100033",
  "immutableReferences": {
    "10": [
      {
        "length": 32,
        "start": 254
      },
      {
        "length": 32,
        "start": 1078
      },
      {
        "length": 32,
        "start": 2260
      }
    ],
    "4484": [
      {
        "length": 32,
        "start": 3685
      },
      {
        "length": 32,
        "start": 3913
      },
      {
        "length": 32,
        "start": 4051
      }
    ]
  },
  "source": "// SPDX-License-Identifier: GPL-3.0\npragma solidity >=0.7.0 <0.9.0;\n\nimport {AxelarExecutable} from \"@axelar-network/axelar-gmp-sdk-solidity/contracts/executables/AxelarExecutable.sol\";\nimport {IAxelarGateway} from \"@axelar-network/axelar-gmp-sdk-solidity/contracts/interfaces/IAxelarGateway.sol\";\nimport {IAxelarGasService} from \"@axelar-network/axelar-gmp-sdk-solidity/contracts/interfaces/IAxelarGasService.sol\";\n\nimport {BdlNft} from \"./BdlNft.sol\";\nimport {BdlCertificate} from \"./BdlCertificate.sol\";\nimport {Models} from \"./base/Models.sol\";\nimport {BdlToken} from \"./BdlToken.sol\";\nimport {BdlCourse} from \"./BdlCourse.sol\";\nimport {Staking} from \"./Staking.sol\";\n\ncontract Buidl is AxelarExecutable {\n    address private immutable deployer;\n\n    /* fee charged on every succesful subscription made */\n    uint256 private subscriptionFee = 10; // percentage rate\n\n    BdlNft private _bdlNft; // nft reward (coupon) contract\n    BdlToken private _bdlToken; // erc20(streamable token) contract\n    BdlCertificate private _bdlCertificate; // erc4973 certificate contract\n    BdlCourse private _bdlCourse; // course contract\n    Staking private _staking; // staking contract\n\n    // creators requirement\n    // these requirement helps us to filter fuds\n    // and abuse of the ecosystem\n    uint256 private creatorStakingFee = 2000 * 10**18;\n    uint256 private creatorStakingDuration = 365 days;\n\n    // earnings made on the platform so far\n    uint256 private platformEarnings = 0;\n\n    // ecosystem users\n    mapping(address => Models.User) public users;\n    mapping(address => Models.Revenue) public revenues;\n\n    // contructor\n    constructor(\n        address bdlToken,\n        address bdlNft,\n        address bdlCertificate,\n        address bdlCourse,\n        address staking,\n        address gateway_\n    ) AxelarExecutable(gateway_) {\n        deployer = msg.sender;\n\n        _bdlNft = BdlNft(bdlNft);\n        _bdlToken = BdlToken(bdlToken);\n        _bdlCertificate = BdlCertificate(bdlCertificate);\n        _bdlCourse = BdlCourse(bdlCourse);\n        _staking = Staking(staking);\n    }\n\n    /* creates user metadata */\n    function setAccount(string memory name, string memory photo) public {\n        emit User(msg.sender, name, photo, users[msg.sender].verified);\n    }\n\n    /* stake in the smart contract */\n    function stake(uint256 amount) public {\n        _bdlToken.approve(msg.sender, address(this), amount);\n        _bdlToken.transferFrom(msg.sender, address(this), amount);\n        _staking.stake(\n            msg.sender,\n            amount,\n            block.timestamp + creatorStakingDuration,\n            0\n        );\n    }\n\n    /* unlock creator */\n    function unlockCreator() public notVerified {\n        // check if user has staked min requirement\n        require(\n            _staking.hasStaked(creatorStakingFee, msg.sender),\n            \"!stake_requirement_first\"\n        );\n\n        users[msg.sender].verified = true;\n        emit Creator(msg.sender, true);\n    }\n\n    /* remove creator */\n    function removeCreator() public onlyVerified {\n        users[msg.sender].verified = false;\n        emit Creator(msg.sender, false);\n    }\n\n    /* subscribe to a course */\n    /* params course id */\n    function subscribe(uint id) public {\n        (uint256 price, address creator) = _bdlCourse.subscribe(id, msg.sender);\n\n        /* payment are locked in the smart contract */\n        /* the course creator will be able to claim it after two weeks */\n        /* if the course wasn't refunded by the subscriber */\n\n        /* increase creator's unclaimed revenue */\n        revenues[creator].unclaimed += price;\n\n        _bdlToken.approve(msg.sender, address(this), price);\n        _bdlToken.transferFrom(msg.sender, address(this), price);\n    }\n\n    /* subscribe to a course */\n    /* params course id */\n    function unSubscribe(uint id) public {\n        (\n            uint256 payableAmount,\n            uint256 earnings,\n            address creator,\n            uint256 price,\n            uint256 _platformEarnings\n        ) = _bdlCourse.unSubscribe(id, msg.sender);\n\n        // refund the user from the contract\n        _bdlToken.approve(address(this), msg.sender, payableAmount);\n        _bdlToken.transferFrom(address(this), msg.sender, payableAmount);\n\n        // deduct creator's unclaimed revenue\n        revenues[creator].unclaimed -= price;\n\n        // credit creator earnings from the refunded course\n        revenues[creator].claimable += earnings;\n\n        // credit platform from the refunded course\n        platformEarnings += _platformEarnings;\n    }\n\n    /* deployer to cashout earnings */\n    function withdrawPlatformFee(uint256 amount) public onlyDeployer {\n        require(platformEarnings >= amount, \"insuficcient tokens\");\n        platformEarnings -= amount;\n        _bdlToken.approve(address(this), deployer, amount);\n        _bdlToken.transferFrom(address(this), deployer, amount);\n    }\n\n    function onCourseComplete(\n        uint id,\n        string memory certificateUri,\n        string memory nftUri\n    ) public {\n        (bool isPremium, uint256 coursePrice) = _bdlCourse.onCourseComplete(\n            id,\n            msg.sender\n        );\n\n        if (isPremium) {\n            _bdlCertificate.issue(msg.sender, certificateUri);\n        }\n\n        _bdlNft.mint(msg.sender, nftUri);\n    }\n\n    function _execute(\n        string calldata sourceChain_,\n        string calldata sourceAddress_,\n        bytes calldata payload_\n    ) internal override {\n        uint id = abi.decode(payload_, (uint));\n        this.subscribe(id);\n    }\n\n    modifier onlyVerified() {\n        /* only account that has staked atleast 2000 BDL token */\n        require(users[msg.sender].verified, \"!authorized\");\n        _;\n    }\n\n    modifier notVerified() {\n        /* only account that hasn't staked atleast 2000 BDL token */\n        require(!users[msg.sender].verified, \"!authorized\");\n        _;\n    }\n\n    modifier onlyDeployer() {\n        /* only account that deployed the contract */\n        require(msg.sender == deployer, \"!authorized\");\n        _;\n    }\n\n    // == events == //\n    event User(address owner, string name, string photo, bool verified);\n    event Creator(address owner, bool verified);\n}\n",
  "sourcePath": "C:\\Users\\Arogundade Ibrahim\\Documents\\web3\\Buidl\\contracts\\Buidl.sol",
  "compiler": {
    "name": "solc",
    "version": "0.8.16+commit.07a7930e.Emscripten.clang"
  },
  "schemaVersion": "3.4.10",
  "updatedAt": "2022-11-02T18:36:51.495Z",
  "devdoc": {
    "kind": "dev",
    "methods": {},
    "version": 1
  },
  "userdoc": {
    "kind": "user",
    "methods": {},
    "version": 1
  }
}