{
  "contractName": "Buidl",
  "abi": [
    {
      "inputs": [
        {
          "internalType": "address",
          "name": "_bdlToken",
          "type": "address"
        },
        {
          "internalType": "address",
          "name": "_bdlNft",
          "type": "address"
        },
        {
          "internalType": "address",
          "name": "_bdlCertificate",
          "type": "address"
        }
      ],
      "stateMutability": "nonpayable",
      "type": "constructor"
    },
    {
      "anonymous": false,
      "inputs": [
        {
          "indexed": false,
          "internalType": "address",
          "name": "student",
          "type": "address"
        },
        {
          "indexed": false,
          "internalType": "uint256",
          "name": "courseId",
          "type": "uint256"
        }
      ],
      "name": "CertificateIssued",
      "type": "event"
    },
    {
      "anonymous": false,
      "inputs": [
        {
          "indexed": false,
          "internalType": "address",
          "name": "student",
          "type": "address"
        },
        {
          "indexed": false,
          "internalType": "uint256",
          "name": "courseId",
          "type": "uint256"
        }
      ],
      "name": "CourseCompletion",
      "type": "event"
    },
    {
      "anonymous": false,
      "inputs": [
        {
          "indexed": false,
          "internalType": "address",
          "name": "intructor",
          "type": "address"
        },
        {
          "indexed": false,
          "internalType": "address",
          "name": "student",
          "type": "address"
        },
        {
          "indexed": false,
          "internalType": "uint256",
          "name": "courseId",
          "type": "uint256"
        }
      ],
      "name": "CoursePurchased",
      "type": "event"
    },
    {
      "anonymous": false,
      "inputs": [
        {
          "indexed": false,
          "internalType": "address",
          "name": "student",
          "type": "address"
        },
        {
          "indexed": false,
          "internalType": "uint256",
          "name": "courseId",
          "type": "uint256"
        },
        {
          "indexed": false,
          "internalType": "uint256",
          "name": "sectionsViewed",
          "type": "uint256"
        }
      ],
      "name": "CourseRejected",
      "type": "event"
    },
    {
      "inputs": [
        {
          "internalType": "uint256",
          "name": "",
          "type": "uint256"
        }
      ],
      "name": "categories",
      "outputs": [
        {
          "internalType": "uint256",
          "name": "id",
          "type": "uint256"
        },
        {
          "internalType": "string",
          "name": "name",
          "type": "string"
        },
        {
          "internalType": "string",
          "name": "image",
          "type": "string"
        }
      ],
      "stateMutability": "view",
      "type": "function",
      "constant": true
    },
    {
      "inputs": [],
      "name": "contractCategoryID",
      "outputs": [
        {
          "internalType": "uint256",
          "name": "",
          "type": "uint256"
        }
      ],
      "stateMutability": "view",
      "type": "function",
      "constant": true
    },
    {
      "inputs": [],
      "name": "contractCourseID",
      "outputs": [
        {
          "internalType": "uint256",
          "name": "",
          "type": "uint256"
        }
      ],
      "stateMutability": "view",
      "type": "function",
      "constant": true
    },
    {
      "inputs": [],
      "name": "contractInstructorID",
      "outputs": [
        {
          "internalType": "uint256",
          "name": "",
          "type": "uint256"
        }
      ],
      "stateMutability": "view",
      "type": "function",
      "constant": true
    },
    {
      "inputs": [],
      "name": "contractStudentID",
      "outputs": [
        {
          "internalType": "uint256",
          "name": "",
          "type": "uint256"
        }
      ],
      "stateMutability": "view",
      "type": "function",
      "constant": true
    },
    {
      "inputs": [
        {
          "internalType": "uint256",
          "name": "",
          "type": "uint256"
        },
        {
          "internalType": "uint256",
          "name": "",
          "type": "uint256"
        }
      ],
      "name": "courseSections",
      "outputs": [
        {
          "internalType": "uint256",
          "name": "id",
          "type": "uint256"
        },
        {
          "internalType": "string",
          "name": "title",
          "type": "string"
        },
        {
          "internalType": "string",
          "name": "src",
          "type": "string"
        }
      ],
      "stateMutability": "view",
      "type": "function",
      "constant": true
    },
    {
      "inputs": [
        {
          "internalType": "uint256",
          "name": "",
          "type": "uint256"
        }
      ],
      "name": "courses",
      "outputs": [
        {
          "internalType": "uint256",
          "name": "id",
          "type": "uint256"
        },
        {
          "internalType": "string",
          "name": "name",
          "type": "string"
        },
        {
          "internalType": "string",
          "name": "description",
          "type": "string"
        },
        {
          "internalType": "uint256",
          "name": "categoryId",
          "type": "uint256"
        },
        {
          "internalType": "string",
          "name": "ipfsPhoto",
          "type": "string"
        },
        {
          "internalType": "address",
          "name": "instructor",
          "type": "address"
        },
        {
          "internalType": "uint256",
          "name": "price",
          "type": "uint256"
        },
        {
          "internalType": "string",
          "name": "metadata",
          "type": "string"
        },
        {
          "internalType": "bool",
          "name": "isPublished",
          "type": "bool"
        },
        {
          "internalType": "uint256",
          "name": "createdAt",
          "type": "uint256"
        },
        {
          "internalType": "uint256",
          "name": "updatedAt",
          "type": "uint256"
        }
      ],
      "stateMutability": "view",
      "type": "function",
      "constant": true
    },
    {
      "inputs": [
        {
          "internalType": "address",
          "name": "",
          "type": "address"
        }
      ],
      "name": "instructors",
      "outputs": [
        {
          "internalType": "uint256",
          "name": "id",
          "type": "uint256"
        },
        {
          "internalType": "string",
          "name": "firstName",
          "type": "string"
        },
        {
          "internalType": "string",
          "name": "lastName",
          "type": "string"
        },
        {
          "internalType": "string",
          "name": "location",
          "type": "string"
        },
        {
          "internalType": "uint256",
          "name": "gender",
          "type": "uint256"
        },
        {
          "internalType": "bool",
          "name": "isVerified",
          "type": "bool"
        },
        {
          "internalType": "string",
          "name": "ipfsPhoto",
          "type": "string"
        },
        {
          "internalType": "string",
          "name": "twitter",
          "type": "string"
        },
        {
          "internalType": "string",
          "name": "linkedin",
          "type": "string"
        },
        {
          "internalType": "uint256",
          "name": "createdAt",
          "type": "uint256"
        }
      ],
      "stateMutability": "view",
      "type": "function",
      "constant": true
    },
    {
      "inputs": [
        {
          "internalType": "address",
          "name": "",
          "type": "address"
        },
        {
          "internalType": "uint256",
          "name": "",
          "type": "uint256"
        }
      ],
      "name": "studentCourses",
      "outputs": [
        {
          "internalType": "uint256",
          "name": "courseId",
          "type": "uint256"
        },
        {
          "internalType": "bool",
          "name": "isActive",
          "type": "bool"
        },
        {
          "internalType": "uint256",
          "name": "unlocked",
          "type": "uint256"
        },
        {
          "internalType": "uint256",
          "name": "sectionsViewed",
          "type": "uint256"
        },
        {
          "internalType": "uint256",
          "name": "purchasedAt",
          "type": "uint256"
        }
      ],
      "stateMutability": "view",
      "type": "function",
      "constant": true
    },
    {
      "inputs": [
        {
          "internalType": "address",
          "name": "",
          "type": "address"
        }
      ],
      "name": "students",
      "outputs": [
        {
          "internalType": "uint256",
          "name": "id",
          "type": "uint256"
        },
        {
          "internalType": "string",
          "name": "name",
          "type": "string"
        },
        {
          "internalType": "string",
          "name": "emailAddress",
          "type": "string"
        },
        {
          "internalType": "uint256",
          "name": "gender",
          "type": "uint256"
        },
        {
          "internalType": "string",
          "name": "ipfsPhoto",
          "type": "string"
        },
        {
          "internalType": "string",
          "name": "country",
          "type": "string"
        },
        {
          "internalType": "uint256",
          "name": "createdAt",
          "type": "uint256"
        }
      ],
      "stateMutability": "view",
      "type": "function",
      "constant": true
    },
    {
      "inputs": [
        {
          "internalType": "uint256",
          "name": "amount",
          "type": "uint256"
        }
      ],
      "name": "setInstructorRegistrationFee",
      "outputs": [],
      "stateMutability": "nonpayable",
      "type": "function"
    },
    {
      "inputs": [
        {
          "internalType": "string",
          "name": "name",
          "type": "string"
        },
        {
          "internalType": "string",
          "name": "image",
          "type": "string"
        }
      ],
      "name": "addCategory",
      "outputs": [],
      "stateMutability": "nonpayable",
      "type": "function"
    },
    {
      "inputs": [
        {
          "internalType": "string",
          "name": "name",
          "type": "string"
        },
        {
          "internalType": "string",
          "name": "description",
          "type": "string"
        },
        {
          "internalType": "uint256",
          "name": "categoryId",
          "type": "uint256"
        }
      ],
      "name": "createCourse",
      "outputs": [],
      "stateMutability": "nonpayable",
      "type": "function"
    },
    {
      "inputs": [
        {
          "internalType": "uint256",
          "name": "courseId",
          "type": "uint256"
        },
        {
          "internalType": "string",
          "name": "title",
          "type": "string"
        },
        {
          "internalType": "string",
          "name": "src",
          "type": "string"
        }
      ],
      "name": "addSectionToCourse",
      "outputs": [],
      "stateMutability": "nonpayable",
      "type": "function"
    },
    {
      "inputs": [
        {
          "internalType": "uint256",
          "name": "courseId",
          "type": "uint256"
        },
        {
          "internalType": "uint256",
          "name": "sectionIndex",
          "type": "uint256"
        },
        {
          "internalType": "string",
          "name": "title",
          "type": "string"
        },
        {
          "internalType": "string",
          "name": "src",
          "type": "string"
        }
      ],
      "name": "updateCourseSection",
      "outputs": [],
      "stateMutability": "nonpayable",
      "type": "function"
    },
    {
      "inputs": [
        {
          "internalType": "uint256",
          "name": "courseId",
          "type": "uint256"
        },
        {
          "internalType": "uint256",
          "name": "sectionIndex",
          "type": "uint256"
        }
      ],
      "name": "deleteCourseSection",
      "outputs": [],
      "stateMutability": "nonpayable",
      "type": "function"
    },
    {
      "inputs": [
        {
          "internalType": "address",
          "name": "instructor",
          "type": "address"
        }
      ],
      "name": "getInstructorCoursesLength",
      "outputs": [
        {
          "internalType": "uint256",
          "name": "",
          "type": "uint256"
        }
      ],
      "stateMutability": "view",
      "type": "function",
      "constant": true
    },
    {
      "inputs": [
        {
          "internalType": "address",
          "name": "instructor",
          "type": "address"
        },
        {
          "internalType": "uint256",
          "name": "index",
          "type": "uint256"
        }
      ],
      "name": "getInstructorCourseIdAtIndex",
      "outputs": [
        {
          "internalType": "uint256",
          "name": "",
          "type": "uint256"
        }
      ],
      "stateMutability": "view",
      "type": "function",
      "constant": true
    },
    {
      "inputs": [
        {
          "internalType": "string",
          "name": "firstName",
          "type": "string"
        },
        {
          "internalType": "string",
          "name": "lastName",
          "type": "string"
        },
        {
          "internalType": "string",
          "name": "location",
          "type": "string"
        },
        {
          "internalType": "uint256",
          "name": "gender",
          "type": "uint256"
        }
      ],
      "name": "createInstructorAccount",
      "outputs": [],
      "stateMutability": "nonpayable",
      "type": "function"
    },
    {
      "inputs": [
        {
          "internalType": "string",
          "name": "name",
          "type": "string"
        },
        {
          "internalType": "string",
          "name": "email",
          "type": "string"
        },
        {
          "internalType": "uint256",
          "name": "gender",
          "type": "uint256"
        }
      ],
      "name": "createStudentAccount",
      "outputs": [],
      "stateMutability": "nonpayable",
      "type": "function"
    },
    {
      "inputs": [
        {
          "internalType": "uint256",
          "name": "courseId",
          "type": "uint256"
        }
      ],
      "name": "purchaseCourse",
      "outputs": [],
      "stateMutability": "nonpayable",
      "type": "function"
    },
    {
      "inputs": [
        {
          "internalType": "uint256",
          "name": "courseId",
          "type": "uint256"
        },
        {
          "internalType": "uint256",
          "name": "sections",
          "type": "uint256"
        }
      ],
      "name": "rejectCourse",
      "outputs": [],
      "stateMutability": "nonpayable",
      "type": "function"
    },
    {
      "inputs": [
        {
          "internalType": "uint256",
          "name": "courseId",
          "type": "uint256"
        },
        {
          "internalType": "uint256",
          "name": "sections",
          "type": "uint256"
        },
        {
          "internalType": "string",
          "name": "uri",
          "type": "string"
        }
      ],
      "name": "onNextCourseSection",
      "outputs": [
        {
          "internalType": "string",
          "name": "",
          "type": "string"
        }
      ],
      "stateMutability": "nonpayable",
      "type": "function"
    }
  ],
  "bytecode": "0x60806040526001600455600160055560016006556001600755686c6b935b8bbd4000006008553480156200003257600080fd5b506040516200689d3803806200689d83398181016040528101906200005891906200072e565b336000806101000a81548173ffffffffffffffffffffffffffffffffffffffff021916908373ffffffffffffffffffffffffffffffffffffffff16021790555082600160006101000a81548173ffffffffffffffffffffffffffffffffffffffff021916908373ffffffffffffffffffffffffffffffffffffffff16021790555081600260006101000a81548173ffffffffffffffffffffffffffffffffffffffff021916908373ffffffffffffffffffffffffffffffffffffffff16021790555080600360006101000a81548173ffffffffffffffffffffffffffffffffffffffff021916908373ffffffffffffffffffffffffffffffffffffffff1602179055506200016b6200017460201b60201c565b50505062000bea565b620001d46040518060400160405280600f81526020017f57656220446576656c6f706d656e7400000000000000000000000000000000008152506040518060600160405280602781526020016200683160279139620005a660201b60201c565b620002506040518060400160405280600781526020017f436f6f6b696e67000000000000000000000000000000000000000000000000008152506040518060400160405280601f81526020017f2f696d616765732f63617465676f726965732f636f6f6b696e672e7765627000815250620005a660201b60201c565b620002cc6040518060400160405280600f81526020017f55492f55582044657369676e696e6700000000000000000000000000000000008152506040518060400160405280601d81526020017f2f696d616765732f63617465676f726965732f75692d75782e77656270000000815250620005a660201b60201c565b6200032c6040518060400160405280600c81526020017f334420416e696d6174696f6e0000000000000000000000000000000000000000815250604051806060016040528060218152602001620067ed60219139620005a660201b60201c565b6200038c6040518060400160405280600c81526020017f496c6c757374726174696f6e0000000000000000000000000000000000000000815250604051806060016040528060248152602001620067c960249139620005a660201b60201c565b620003ec6040518060400160405280600c81526020017f4461746120536369656e636500000000000000000000000000000000000000008152506040518060600160405280602481526020016200685860249139620005a660201b60201c565b620004686040518060400160405280600881526020017f537065616b696e670000000000000000000000000000000000000000000000008152506040518060400160405280602081526020017f2f696d616765732f63617465676f726965732f737065616b696e672e77656270815250620005a660201b60201c565b620004e46040518060400160405280600581526020017f4d757369630000000000000000000000000000000000000000000000000000008152506040518060400160405280601d81526020017f2f696d616765732f63617465676f726965732f6d757369632e77656270000000815250620005a660201b60201c565b620005446040518060400160405280600b81526020017f50686f746f6772617068790000000000000000000000000000000000000000008152506040518060600160405280602381526020016200680e60239139620005a660201b60201c565b620005a46040518060400160405280600981526020017f4d61726b6574696e6700000000000000000000000000000000000000000000008152506040518060600160405280602181526020016200687c60219139620005a660201b60201c565b565b60008054906101000a900473ffffffffffffffffffffffffffffffffffffffff1673ffffffffffffffffffffffffffffffffffffffff163373ffffffffffffffffffffffffffffffffffffffff161462000637576040517f08c379a00000000000000000000000000000000000000000000000000000000081526004016200062e90620007eb565b60405180910390fd5b60405180606001604052806007548152602001838152602001828152506009600060075481526020019081526020016000206000820151816000015560208201518160010190816200068a919062000a87565b506040820151816002019081620006a2919062000a87565b5090505060076000815480929190620006bb9062000b9d565b91905055505050565b600080fd5b600073ffffffffffffffffffffffffffffffffffffffff82169050919050565b6000620006f682620006c9565b9050919050565b6200070881620006e9565b81146200071457600080fd5b50565b6000815190506200072881620006fd565b92915050565b6000806000606084860312156200074a5762000749620006c4565b5b60006200075a8682870162000717565b93505060206200076d8682870162000717565b9250506040620007808682870162000717565b9150509250925092565b600082825260208201905092915050565b7f21617574686f72697a6564000000000000000000000000000000000000000000600082015250565b6000620007d3600b836200078a565b9150620007e0826200079b565b602082019050919050565b600060208201905081810360008301526200080681620007c4565b9050919050565b600081519050919050565b7f4e487b7100000000000000000000000000000000000000000000000000000000600052604160045260246000fd5b7f4e487b7100000000000000000000000000000000000000000000000000000000600052602260045260246000fd5b600060028204905060018216806200088f57607f821691505b602082108103620008a557620008a462000847565b5b50919050565b60008190508160005260206000209050919050565b60006020601f8301049050919050565b600082821b905092915050565b6000600883026200090f7fffffffffffffffffffffffffffffffffffffffffffffffffffffffffffffffff82620008d0565b6200091b8683620008d0565b95508019841693508086168417925050509392505050565b6000819050919050565b6000819050919050565b600062000968620009626200095c8462000933565b6200093d565b62000933565b9050919050565b6000819050919050565b620009848362000947565b6200099c62000993826200096f565b848454620008dd565b825550505050565b600090565b620009b3620009a4565b620009c081848462000979565b505050565b5b81811015620009e857620009dc600082620009a9565b600181019050620009c6565b5050565b601f82111562000a375762000a0181620008ab565b62000a0c84620008c0565b8101602085101562000a1c578190505b62000a3462000a2b85620008c0565b830182620009c5565b50505b505050565b600082821c905092915050565b600062000a5c6000198460080262000a3c565b1980831691505092915050565b600062000a77838362000a49565b9150826002028217905092915050565b62000a92826200080d565b67ffffffffffffffff81111562000aae5762000aad62000818565b5b62000aba825462000876565b62000ac7828285620009ec565b600060209050601f83116001811462000aff576000841562000aea578287015190505b62000af6858262000a69565b86555062000b66565b601f19841662000b0f86620008ab565b60005b8281101562000b395784890151825560018201915060208501945060208101905062000b12565b8683101562000b59578489015162000b55601f89168262000a49565b8355505b6001600288020188555050505b505050505050565b7f4e487b7100000000000000000000000000000000000000000000000000000000600052601160045260246000fd5b600062000baa8262000933565b91507fffffffffffffffffffffffffffffffffffffffffffffffffffffffffffffffff820362000bdf5762000bde62000b6e565b5b600182019050919050565b615bcf8062000bfa6000396000f3fe608060405234801561001057600080fd5b506004361061014d5760003560e01c8063823d5bf4116100c3578063c3de1bb21161007c578063c3de1bb2146103b5578063c6cdbe5e146103e5578063cd13193814610417578063d031a83414610433578063fb9da76a14610463578063fd95cc511461047f5761014d565b8063823d5bf4146102d157806396f979d2146102ef578063a4adb24b14610329578063a6c807a914610345578063aa39566c1461037b578063b0f8158c146103995761014d565b806318222d5e1161011557806318222d5e146101f65780631bf703b2146102265780632a47d91c14610242578063332d90a91461027b5780635a637384146102995780635dfa89b1146102b55761014d565b80630226b0b214610152578063097167ba1461018457806309df4f66146101a05780630da079b4146101be578063161a8b42146101da575b600080fd5b61016c60048036038101906101679190614a5c565b6104b3565b60405161017b93929190614b3b565b60405180910390f35b61019e60048036038101906101999190614b80565b61060a565b005b6101a86106a2565b6040516101b59190614bad565b60405180910390f35b6101d860048036038101906101d39190614cfd565b6106a8565b005b6101f460048036038101906101ef9190614d88565b610bc3565b005b610210600480360381019061020b9190614e85565b6111fc565b60405161021d9190614bad565b60405180910390f35b610240600480360381019061023b9190614ec5565b611265565b005b61025c60048036038101906102579190614f3d565b61137a565b6040516102729a99989796959493929190614f85565b60405180910390f35b61028361170b565b6040516102909190614bad565b60405180910390f35b6102b360048036038101906102ae919061504b565b611711565b005b6102cf60048036038101906102ca9190615106565b611f20565b005b6102d9612509565b6040516102e69190614bad565b60405180910390f35b61030960048036038101906103049190614b80565b61250f565b6040516103209b9a999897969594939291906151a0565b60405180910390f35b610343600480360381019061033e9190614cfd565b6127b6565b005b61035f600480360381019061035a9190614f3d565b612e87565b6040516103729796959493929190615267565b60405180910390f35b6103836130e9565b6040516103909190614bad565b60405180910390f35b6103b360048036038101906103ae9190614a5c565b6130ef565b005b6103cf60048036038101906103ca91906152f2565b6136fd565b6040516103dc9190615361565b60405180910390f35b6103ff60048036038101906103fa9190614b80565b613a0d565b60405161040e93929190614b3b565b60405180910390f35b610431600480360381019061042c9190614b80565b613b47565b005b61044d60048036038101906104489190614f3d565b613ebc565b60405161045a9190614bad565b60405180910390f35b61047d60048036038101906104789190614a5c565b613f0b565b005b61049960048036038101906104949190614e85565b6146af565b6040516104aa959493929190615383565b60405180910390f35b600e60205281600052604060002081815481106104cf57600080fd5b9060005260206000209060030201600091509150508060000154908060010180546104f990615405565b80601f016020809104026020016040519081016040528092919081815260200182805461052590615405565b80156105725780601f1061054757610100808354040283529160200191610572565b820191906000526020600020905b81548152906001019060200180831161055557829003601f168201915b50505050509080600201805461058790615405565b80601f01602080910402602001604051908101604052809291908181526020018280546105b390615405565b80156106005780601f106105d557610100808354040283529160200191610600565b820191906000526020600020905b8154815290600101906020018083116105e357829003601f168201915b5050505050905083565b60008054906101000a900473ffffffffffffffffffffffffffffffffffffffff1673ffffffffffffffffffffffffffffffffffffffff163373ffffffffffffffffffffffffffffffffffffffff1614610698576040517f08c379a000000000000000000000000000000000000000000000000000000000815260040161068f90615482565b60405180910390fd5b8060088190555050565b60065481565b6000600b60003373ffffffffffffffffffffffffffffffffffffffff1673ffffffffffffffffffffffffffffffffffffffff1681526020019081526020016000206000015414801561073c57506000600a60003373ffffffffffffffffffffffffffffffffffffffff1673ffffffffffffffffffffffffffffffffffffffff16815260200190815260200160002060000154145b61077b576040517f08c379a000000000000000000000000000000000000000000000000000000000815260040161077290615482565b60405180910390fd5b6000600b60003373ffffffffffffffffffffffffffffffffffffffff1673ffffffffffffffffffffffffffffffffffffffff16815260200190815260200160002060405180610100016040529081600082015481526020016001820180546107e290615405565b80601f016020809104026020016040519081016040528092919081815260200182805461080e90615405565b801561085b5780601f106108305761010080835404028352916020019161085b565b820191906000526020600020905b81548152906001019060200180831161083e57829003601f168201915b5050505050815260200160028201805461087490615405565b80601f01602080910402602001604051908101604052809291908181526020018280546108a090615405565b80156108ed5780601f106108c2576101008083540402835291602001916108ed565b820191906000526020600020905b8154815290600101906020018083116108d057829003601f168201915b505050505081526020016003820154815260200160048201805461091090615405565b80601f016020809104026020016040519081016040528092919081815260200182805461093c90615405565b80156109895780601f1061095e57610100808354040283529160200191610989565b820191906000526020600020905b81548152906001019060200180831161096c57829003601f168201915b505050505081526020016005820180546109a290615405565b80601f01602080910402602001604051908101604052809291908181526020018280546109ce90615405565b8015610a1b5780601f106109f057610100808354040283529160200191610a1b565b820191906000526020600020905b8154815290600101906020018083116109fe57829003601f168201915b505050505081526020016006820154815260200160078201805480602002602001604051908101604052809291908181526020018280548015610a7d57602002820191906000526020600020905b815481526020019060010190808311610a69575b50505050508152505090506040518061010001604052806005548152602001858152602001848152602001838152602001826080015181526020018260a0015181526020014281526020018260e00151815250600b60003373ffffffffffffffffffffffffffffffffffffffff1673ffffffffffffffffffffffffffffffffffffffff168152602001908152602001600020600082015181600001556020820151816001019081610b2e919061564e565b506040820151816002019081610b44919061564e565b50606082015181600301556080820151816004019081610b64919061564e565b5060a0820151816005019081610b7a919061564e565b5060c0820151816006015560e0820151816007019080519060200190610ba19291906148de565b5090505060056000815480929190610bb89061574f565b919050555050505050565b6000600a60003373ffffffffffffffffffffffffffffffffffffffff1673ffffffffffffffffffffffffffffffffffffffff1681526020019081526020016000206000015403610c48576040517f08c379a0000000000000000000000000000000000000000000000000000000008152600401610c3f90615482565b60405180910390fd5b6000600c6000868152602001908152602001600020604051806101a001604052908160008201548152602001600182018054610c8390615405565b80601f0160208091040260200160405190810160405280929190818152602001828054610caf90615405565b8015610cfc5780601f10610cd157610100808354040283529160200191610cfc565b820191906000526020600020905b815481529060010190602001808311610cdf57829003601f168201915b50505050508152602001600282018054610d1590615405565b80601f0160208091040260200160405190810160405280929190818152602001828054610d4190615405565b8015610d8e5780601f10610d6357610100808354040283529160200191610d8e565b820191906000526020600020905b815481529060010190602001808311610d7157829003601f168201915b5050505050815260200160038201548152602001600482018054610db190615405565b80601f0160208091040260200160405190810160405280929190818152602001828054610ddd90615405565b8015610e2a5780601f10610dff57610100808354040283529160200191610e2a565b820191906000526020600020905b815481529060010190602001808311610e0d57829003601f168201915b505050505081526020016005820160009054906101000a900473ffffffffffffffffffffffffffffffffffffffff1673ffffffffffffffffffffffffffffffffffffffff1673ffffffffffffffffffffffffffffffffffffffff16815260200160068201805480602002602001604051908101604052809291908181526020018280548015610f0e57602002820191906000526020600020905b8160009054906101000a900473ffffffffffffffffffffffffffffffffffffffff1673ffffffffffffffffffffffffffffffffffffffff1681526020019060010190808311610ec4575b5050505050815260200160078201805480602002602001604051908101604052809291908181526020018280548015610f6657602002820191906000526020600020905b815481526020019060010190808311610f52575b5050505050815260200160088201548152602001600982018054610f8990615405565b80601f0160208091040260200160405190810160405280929190818152602001828054610fb590615405565b80156110025780601f10610fd757610100808354040283529160200191611002565b820191906000526020600020905b815481529060010190602001808311610fe557829003601f168201915b50505050508152602001600a820160009054906101000a900460ff16151515158152602001600b8201548152602001600c8201548152505090506000816000015103611083576040517f08c379a000000000000000000000000000000000000000000000000000000000815260040161107a906157e3565b60405180910390fd5b3373ffffffffffffffffffffffffffffffffffffffff168160a0015173ffffffffffffffffffffffffffffffffffffffff16146110f5576040517f08c379a00000000000000000000000000000000000000000000000000000000081526004016110ec90615482565b60405180910390fd5b6000600e6000878152602001908152602001600020858154811061111c5761111b615803565b5b9060005260206000209060030201600001540361116e576040517f08c379a0000000000000000000000000000000000000000000000000000000008152600401611165906157e3565b60405180910390fd5b604051806060016040528085815260200184815260200183815250600e600087815260200190815260200160002085815481106111ae576111ad615803565b5b90600052602060002090600302016000820151816000015560208201518160010190816111db919061564e565b5060408201518160020190816111f1919061564e565b509050505050505050565b6000600a60008473ffffffffffffffffffffffffffffffffffffffff1673ffffffffffffffffffffffffffffffffffffffff168152602001908152602001600020600901828154811061125257611251615803565b5b9060005260206000200154905092915050565b60008054906101000a900473ffffffffffffffffffffffffffffffffffffffff1673ffffffffffffffffffffffffffffffffffffffff163373ffffffffffffffffffffffffffffffffffffffff16146112f3576040517f08c379a00000000000000000000000000000000000000000000000000000000081526004016112ea90615482565b60405180910390fd5b6040518060600160405280600754815260200183815260200182815250600960006007548152602001908152602001600020600082015181600001556020820151816001019081611344919061564e565b50604082015181600201908161135a919061564e565b50905050600760008154809291906113719061574f565b91905055505050565b600a6020528060005260406000206000915090508060000154908060010180546113a390615405565b80601f01602080910402602001604051908101604052809291908181526020018280546113cf90615405565b801561141c5780601f106113f15761010080835404028352916020019161141c565b820191906000526020600020905b8154815290600101906020018083116113ff57829003601f168201915b50505050509080600201805461143190615405565b80601f016020809104026020016040519081016040528092919081815260200182805461145d90615405565b80156114aa5780601f1061147f576101008083540402835291602001916114aa565b820191906000526020600020905b81548152906001019060200180831161148d57829003601f168201915b5050505050908060030180546114bf90615405565b80601f01602080910402602001604051908101604052809291908181526020018280546114eb90615405565b80156115385780601f1061150d57610100808354040283529160200191611538565b820191906000526020600020905b81548152906001019060200180831161151b57829003601f168201915b5050505050908060040154908060050160009054906101000a900460ff169080600601805461156690615405565b80601f016020809104026020016040519081016040528092919081815260200182805461159290615405565b80156115df5780601f106115b4576101008083540402835291602001916115df565b820191906000526020600020905b8154815290600101906020018083116115c257829003601f168201915b5050505050908060070180546115f490615405565b80601f016020809104026020016040519081016040528092919081815260200182805461162090615405565b801561166d5780601f106116425761010080835404028352916020019161166d565b820191906000526020600020905b81548152906001019060200180831161165057829003601f168201915b50505050509080600801805461168290615405565b80601f01602080910402602001604051908101604052809291908181526020018280546116ae90615405565b80156116fb5780601f106116d0576101008083540402835291602001916116fb565b820191906000526020600020905b8154815290600101906020018083116116de57829003601f168201915b50505050509080600a015490508a565b60045481565b6000600b60003373ffffffffffffffffffffffffffffffffffffffff1673ffffffffffffffffffffffffffffffffffffffff168152602001908152602001600020600001541480156117a557506000600a60003373ffffffffffffffffffffffffffffffffffffffff1673ffffffffffffffffffffffffffffffffffffffff16815260200190815260200160002060000154145b6117e4576040517f08c379a00000000000000000000000000000000000000000000000000000000081526004016117db90615482565b60405180910390fd5b600160009054906101000a900473ffffffffffffffffffffffffffffffffffffffff1673ffffffffffffffffffffffffffffffffffffffff16636c43a2ca33306008546040518463ffffffff1660e01b815260040161184593929190615832565b6020604051808303816000875af1158015611864573d6000803e3d6000fd5b505050506040513d601f19601f820116820180604052508101906118889190615895565b50600160009054906101000a900473ffffffffffffffffffffffffffffffffffffffff1673ffffffffffffffffffffffffffffffffffffffff166323b872dd33306008546040518463ffffffff1660e01b81526004016118ea93929190615832565b6020604051808303816000875af1158015611909573d6000803e3d6000fd5b505050506040513d601f19601f8201168201806040525081019061192d9190615895565b506000600a60003373ffffffffffffffffffffffffffffffffffffffff1673ffffffffffffffffffffffffffffffffffffffff168152602001908152602001600020604051806101600160405290816000820154815260200160018201805461199590615405565b80601f01602080910402602001604051908101604052809291908181526020018280546119c190615405565b8015611a0e5780601f106119e357610100808354040283529160200191611a0e565b820191906000526020600020905b8154815290600101906020018083116119f157829003601f168201915b50505050508152602001600282018054611a2790615405565b80601f0160208091040260200160405190810160405280929190818152602001828054611a5390615405565b8015611aa05780601f10611a7557610100808354040283529160200191611aa0565b820191906000526020600020905b815481529060010190602001808311611a8357829003601f168201915b50505050508152602001600382018054611ab990615405565b80601f0160208091040260200160405190810160405280929190818152602001828054611ae590615405565b8015611b325780601f10611b0757610100808354040283529160200191611b32565b820191906000526020600020905b815481529060010190602001808311611b1557829003601f168201915b50505050508152602001600482015481526020016005820160009054906101000a900460ff16151515158152602001600682018054611b7090615405565b80601f0160208091040260200160405190810160405280929190818152602001828054611b9c90615405565b8015611be95780601f10611bbe57610100808354040283529160200191611be9565b820191906000526020600020905b815481529060010190602001808311611bcc57829003601f168201915b50505050508152602001600782018054611c0290615405565b80601f0160208091040260200160405190810160405280929190818152602001828054611c2e90615405565b8015611c7b5780601f10611c5057610100808354040283529160200191611c7b565b820191906000526020600020905b815481529060010190602001808311611c5e57829003601f168201915b50505050508152602001600882018054611c9490615405565b80601f0160208091040260200160405190810160405280929190818152602001828054611cc090615405565b8015611d0d5780601f10611ce257610100808354040283529160200191611d0d565b820191906000526020600020905b815481529060010190602001808311611cf057829003601f168201915b5050505050815260200160098201805480602002602001604051908101604052809291908181526020018280548015611d6557602002820191906000526020600020905b815481526020019060010190808311611d51575b50505050508152602001600a82015481525050905060405180610160016040528060045481526020018681526020018581526020018481526020018381526020016000151581526020018260c0015181526020018260e0015181526020018261010001518152602001826101200151815260200142815250600a60003373ffffffffffffffffffffffffffffffffffffffff1673ffffffffffffffffffffffffffffffffffffffff168152602001908152602001600020600082015181600001556020820151816001019081611e3b919061564e565b506040820151816002019081611e51919061564e565b506060820151816003019081611e67919061564e565b506080820151816004015560a08201518160050160006101000a81548160ff02191690831515021790555060c0820151816006019081611ea7919061564e565b5060e0820151816007019081611ebd919061564e565b50610100820151816008019081611ed4919061564e565b50610120820151816009019080519060200190611ef29291906148de565b5061014082015181600a015590505060046000815480929190611f149061574f565b91905055505050505050565b6000600a60003373ffffffffffffffffffffffffffffffffffffffff1673ffffffffffffffffffffffffffffffffffffffff1681526020019081526020016000206000015403611fa5576040517f08c379a0000000000000000000000000000000000000000000000000000000008152600401611f9c90615482565b60405180910390fd5b6000600c6000858152602001908152602001600020604051806101a001604052908160008201548152602001600182018054611fe090615405565b80601f016020809104026020016040519081016040528092919081815260200182805461200c90615405565b80156120595780601f1061202e57610100808354040283529160200191612059565b820191906000526020600020905b81548152906001019060200180831161203c57829003601f168201915b5050505050815260200160028201805461207290615405565b80601f016020809104026020016040519081016040528092919081815260200182805461209e90615405565b80156120eb5780601f106120c0576101008083540402835291602001916120eb565b820191906000526020600020905b8154815290600101906020018083116120ce57829003601f168201915b505050505081526020016003820154815260200160048201805461210e90615405565b80601f016020809104026020016040519081016040528092919081815260200182805461213a90615405565b80156121875780601f1061215c57610100808354040283529160200191612187565b820191906000526020600020905b81548152906001019060200180831161216a57829003601f168201915b505050505081526020016005820160009054906101000a900473ffffffffffffffffffffffffffffffffffffffff1673ffffffffffffffffffffffffffffffffffffffff1673ffffffffffffffffffffffffffffffffffffffff1681526020016006820180548060200260200160405190810160405280929190818152602001828054801561226b57602002820191906000526020600020905b8160009054906101000a900473ffffffffffffffffffffffffffffffffffffffff1673ffffffffffffffffffffffffffffffffffffffff1681526020019060010190808311612221575b50505050508152602001600782018054806020026020016040519081016040528092919081815260200182805480156122c357602002820191906000526020600020905b8154815260200190600101908083116122af575b50505050508152602001600882015481526020016009820180546122e690615405565b80601f016020809104026020016040519081016040528092919081815260200182805461231290615405565b801561235f5780601f106123345761010080835404028352916020019161235f565b820191906000526020600020905b81548152906001019060200180831161234257829003601f168201915b50505050508152602001600a820160009054906101000a900460ff16151515158152602001600b8201548152602001600c82015481525050905060008160000151036123e0576040517f08c379a00000000000000000000000000000000000000000000000000000000081526004016123d7906157e3565b60405180910390fd5b3373ffffffffffffffffffffffffffffffffffffffff168160a0015173ffffffffffffffffffffffffffffffffffffffff1614612452576040517f08c379a000000000000000000000000000000000000000000000000000000000815260040161244990615482565b60405180910390fd5b600e600085815260200190815260200160002060405180606001604052806001600e60008981526020019081526020016000208054905061249391906158c2565b81526020018581526020018481525090806001815401808255809150506001900390600052602060002090600302016000909190919091506000820151816000015560208201518160010190816124ea919061564e565b506040820151816002019081612500919061564e565b50505050505050565b60055481565b600c60205280600052604060002060009150905080600001549080600101805461253890615405565b80601f016020809104026020016040519081016040528092919081815260200182805461256490615405565b80156125b15780601f10612586576101008083540402835291602001916125b1565b820191906000526020600020905b81548152906001019060200180831161259457829003601f168201915b5050505050908060020180546125c690615405565b80601f01602080910402602001604051908101604052809291908181526020018280546125f290615405565b801561263f5780601f106126145761010080835404028352916020019161263f565b820191906000526020600020905b81548152906001019060200180831161262257829003601f168201915b50505050509080600301549080600401805461265a90615405565b80601f016020809104026020016040519081016040528092919081815260200182805461268690615405565b80156126d35780601f106126a8576101008083540402835291602001916126d3565b820191906000526020600020905b8154815290600101906020018083116126b657829003601f168201915b5050505050908060050160009054906101000a900473ffffffffffffffffffffffffffffffffffffffff169080600801549080600901805461271490615405565b80601f016020809104026020016040519081016040528092919081815260200182805461274090615405565b801561278d5780601f106127625761010080835404028352916020019161278d565b820191906000526020600020905b81548152906001019060200180831161277057829003601f168201915b50505050509080600a0160009054906101000a900460ff169080600b01549080600c015490508b565b6000600a60003373ffffffffffffffffffffffffffffffffffffffff1673ffffffffffffffffffffffffffffffffffffffff168152602001908152602001600020600001540361283b576040517f08c379a000000000000000000000000000000000000000000000000000000000815260040161283290615482565b60405180910390fd5b6000600c60006006548152602001908152602001600020604051806101a00160405290816000820154815260200160018201805461287890615405565b80601f01602080910402602001604051908101604052809291908181526020018280546128a490615405565b80156128f15780601f106128c6576101008083540402835291602001916128f1565b820191906000526020600020905b8154815290600101906020018083116128d457829003601f168201915b5050505050815260200160028201805461290a90615405565b80601f016020809104026020016040519081016040528092919081815260200182805461293690615405565b80156129835780601f1061295857610100808354040283529160200191612983565b820191906000526020600020905b81548152906001019060200180831161296657829003601f168201915b50505050508152602001600382015481526020016004820180546129a690615405565b80601f01602080910402602001604051908101604052809291908181526020018280546129d290615405565b8015612a1f5780601f106129f457610100808354040283529160200191612a1f565b820191906000526020600020905b815481529060010190602001808311612a0257829003601f168201915b505050505081526020016005820160009054906101000a900473ffffffffffffffffffffffffffffffffffffffff1673ffffffffffffffffffffffffffffffffffffffff1673ffffffffffffffffffffffffffffffffffffffff16815260200160068201805480602002602001604051908101604052809291908181526020018280548015612b0357602002820191906000526020600020905b8160009054906101000a900473ffffffffffffffffffffffffffffffffffffffff1673ffffffffffffffffffffffffffffffffffffffff1681526020019060010190808311612ab9575b5050505050815260200160078201805480602002602001604051908101604052809291908181526020018280548015612b5b57602002820191906000526020600020905b815481526020019060010190808311612b47575b5050505050815260200160088201548152602001600982018054612b7e90615405565b80601f0160208091040260200160405190810160405280929190818152602001828054612baa90615405565b8015612bf75780601f10612bcc57610100808354040283529160200191612bf7565b820191906000526020600020905b815481529060010190602001808311612bda57829003601f168201915b50505050508152602001600a820160009054906101000a900460ff16151515158152602001600b8201548152602001600c820154815250509050604051806101a001604052806006548152602001858152602001848152602001838152602001826080015181526020013373ffffffffffffffffffffffffffffffffffffffff1681526020018260c0015181526020018260e00151815260200160008152602001826101200151815260200160001515815260200142815260200142815250600c60006006548152602001908152602001600020600082015181600001556020820151816001019081612cea919061564e565b506040820151816002019081612d00919061564e565b50606082015181600301556080820151816004019081612d20919061564e565b5060a08201518160050160006101000a81548173ffffffffffffffffffffffffffffffffffffffff021916908373ffffffffffffffffffffffffffffffffffffffff16021790555060c0820151816006019080519060200190612d8492919061492b565b5060e0820151816007019080519060200190612da19291906148de565b506101008201518160080155610120820151816009019081612dc3919061564e565b5061014082015181600a0160006101000a81548160ff02191690831515021790555061016082015181600b015561018082015181600c0155905050600a60003373ffffffffffffffffffffffffffffffffffffffff1673ffffffffffffffffffffffffffffffffffffffff168152602001908152602001600020600901600654908060018154018082558091505060019003906000526020600020016000909190919091505560066000815480929190612e7c9061574f565b919050555050505050565b600b602052806000526040600020600091509050806000015490806001018054612eb090615405565b80601f0160208091040260200160405190810160405280929190818152602001828054612edc90615405565b8015612f295780601f10612efe57610100808354040283529160200191612f29565b820191906000526020600020905b815481529060010190602001808311612f0c57829003601f168201915b505050505090806002018054612f3e90615405565b80601f0160208091040260200160405190810160405280929190818152602001828054612f6a90615405565b8015612fb75780601f10612f8c57610100808354040283529160200191612fb7565b820191906000526020600020905b815481529060010190602001808311612f9a57829003601f168201915b505050505090806003015490806004018054612fd290615405565b80601f0160208091040260200160405190810160405280929190818152602001828054612ffe90615405565b801561304b5780601f106130205761010080835404028352916020019161304b565b820191906000526020600020905b81548152906001019060200180831161302e57829003601f168201915b50505050509080600501805461306090615405565b80601f016020809104026020016040519081016040528092919081815260200182805461308c90615405565b80156130d95780601f106130ae576101008083540402835291602001916130d9565b820191906000526020600020905b8154815290600101906020018083116130bc57829003601f168201915b5050505050908060060154905087565b60075481565b6000600a60003373ffffffffffffffffffffffffffffffffffffffff1673ffffffffffffffffffffffffffffffffffffffff1681526020019081526020016000206000015403613174576040517f08c379a000000000000000000000000000000000000000000000000000000000815260040161316b90615482565b60405180910390fd5b6000600c6000848152602001908152602001600020604051806101a0016040529081600082015481526020016001820180546131af90615405565b80601f01602080910402602001604051908101604052809291908181526020018280546131db90615405565b80156132285780601f106131fd57610100808354040283529160200191613228565b820191906000526020600020905b81548152906001019060200180831161320b57829003601f168201915b5050505050815260200160028201805461324190615405565b80601f016020809104026020016040519081016040528092919081815260200182805461326d90615405565b80156132ba5780601f1061328f576101008083540402835291602001916132ba565b820191906000526020600020905b81548152906001019060200180831161329d57829003601f168201915b50505050508152602001600382015481526020016004820180546132dd90615405565b80601f016020809104026020016040519081016040528092919081815260200182805461330990615405565b80156133565780601f1061332b57610100808354040283529160200191613356565b820191906000526020600020905b81548152906001019060200180831161333957829003601f168201915b505050505081526020016005820160009054906101000a900473ffffffffffffffffffffffffffffffffffffffff1673ffffffffffffffffffffffffffffffffffffffff1673ffffffffffffffffffffffffffffffffffffffff1681526020016006820180548060200260200160405190810160405280929190818152602001828054801561343a57602002820191906000526020600020905b8160009054906101000a900473ffffffffffffffffffffffffffffffffffffffff1673ffffffffffffffffffffffffffffffffffffffff16815260200190600101908083116133f0575b505050505081526020016007820180548060200260200160405190810160405280929190818152602001828054801561349257602002820191906000526020600020905b81548152602001906001019080831161347e575b50505050508152602001600882015481526020016009820180546134b590615405565b80601f01602080910402602001604051908101604052809291908181526020018280546134e190615405565b801561352e5780601f106135035761010080835404028352916020019161352e565b820191906000526020600020905b81548152906001019060200180831161351157829003601f168201915b50505050508152602001600a820160009054906101000a900460ff16151515158152602001600b8201548152602001600c82015481525050905060008160000151036135af576040517f08c379a00000000000000000000000000000000000000000000000000000000081526004016135a6906157e3565b60405180910390fd5b3373ffffffffffffffffffffffffffffffffffffffff168160a0015173ffffffffffffffffffffffffffffffffffffffff1614613621576040517f08c379a000000000000000000000000000000000000000000000000000000000815260040161361890615482565b60405180910390fd5b6000600e6000858152602001908152602001600020838154811061364857613647615803565b5b9060005260206000209060030201600001540361369a576040517f08c379a0000000000000000000000000000000000000000000000000000000008152600401613691906157e3565b60405180910390fd5b600e600084815260200190815260200160002082815481106136bf576136be615803565b5b90600052602060002090600302016000808201600090556001820160006136e691906149b5565b6002820160006136f691906149b5565b5050505050565b60606000600b60003373ffffffffffffffffffffffffffffffffffffffff1673ffffffffffffffffffffffffffffffffffffffff1681526020019081526020016000206000015403613784576040517f08c379a000000000000000000000000000000000000000000000000000000000815260040161377b90615482565b60405180910390fd5b6000600c6000868152602001908152602001600020905060008160000154036137e2576040517f08c379a00000000000000000000000000000000000000000000000000000000081526004016137d9906157e3565b60405180910390fd5b6000600d60003373ffffffffffffffffffffffffffffffffffffffff1673ffffffffffffffffffffffffffffffffffffffff168152602001908152602001600020868154811061383557613834615803565b5b9060005260206000209060050201905060008583600801546138579190615925565b90508082600201541061394757808260020160008282546138789190615956565b92505081905550600160009054906101000a900473ffffffffffffffffffffffffffffffffffffffff1673ffffffffffffffffffffffffffffffffffffffff166323b872dd308560050160009054906101000a900473ffffffffffffffffffffffffffffffffffffffff16846040518463ffffffff1660e01b815260040161390293929190615832565b6020604051808303816000875af1158015613921573d6000803e3d6000fd5b505050506040513d601f19601f820116820180604052508101906139459190615895565b505b60008683600301546139599190615925565b9050600181106139af5761396e33898861470f565b6040518060400160405280601081526020017f636f757273655f636f6d706c6574656400000000000000000000000000000000815250945050505050613a06565b8260030160008154809291906139c49061574f565b91905055506040518060400160405280601381526020017f636f757273655f6e6578745f73656374696f6e000000000000000000000000008152509450505050505b9392505050565b6009602052806000526040600020600091509050806000015490806001018054613a3690615405565b80601f0160208091040260200160405190810160405280929190818152602001828054613a6290615405565b8015613aaf5780601f10613a8457610100808354040283529160200191613aaf565b820191906000526020600020905b815481529060010190602001808311613a9257829003601f168201915b505050505090806002018054613ac490615405565b80601f0160208091040260200160405190810160405280929190818152602001828054613af090615405565b8015613b3d5780601f10613b1257610100808354040283529160200191613b3d565b820191906000526020600020905b815481529060010190602001808311613b2057829003601f168201915b5050505050905083565b6000600b60003373ffffffffffffffffffffffffffffffffffffffff1673ffffffffffffffffffffffffffffffffffffffff1681526020019081526020016000206000015403613bcc576040517f08c379a0000000000000000000000000000000000000000000000000000000008152600401613bc390615482565b60405180910390fd5b6000600c600083815260200190815260200160002090506000816000015403613c2a576040517f08c379a0000000000000000000000000000000000000000000000000000000008152600401613c21906157e3565b60405180910390fd5b600160009054906101000a900473ffffffffffffffffffffffffffffffffffffffff1673ffffffffffffffffffffffffffffffffffffffff16636c43a2ca333084600801546040518463ffffffff1660e01b8152600401613c8d93929190615832565b6020604051808303816000875af1158015613cac573d6000803e3d6000fd5b505050506040513d601f19601f82011682018060405250810190613cd09190615895565b50600160009054906101000a900473ffffffffffffffffffffffffffffffffffffffff1673ffffffffffffffffffffffffffffffffffffffff166323b872dd333084600801546040518463ffffffff1660e01b8152600401613d3493929190615832565b6020604051808303816000875af1158015613d53573d6000803e3d6000fd5b505050506040513d601f19601f82011682018060405250810190613d779190615895565b50600d60003373ffffffffffffffffffffffffffffffffffffffff1673ffffffffffffffffffffffffffffffffffffffff1681526020019081526020016000206040518060a0016040528084815260200160011515815260200183600801548152602001600081526020014281525090806001815401808255809150506001900390600052602060002090600502016000909190919091506000820151816000015560208201518160010160006101000a81548160ff02191690831515021790555060408201518160020155606082015181600301556080820151816004015550507fba05698ffe932ba01d3d70f62a2e48d6719cc5df3bdcf9118015af495c4a39b18160050160009054906101000a900473ffffffffffffffffffffffffffffffffffffffff163384604051613eb093929190615832565b60405180910390a15050565b6000600a60008373ffffffffffffffffffffffffffffffffffffffff1673ffffffffffffffffffffffffffffffffffffffff168152602001908152602001600020600901805490509050919050565b6000600b60003373ffffffffffffffffffffffffffffffffffffffff1673ffffffffffffffffffffffffffffffffffffffff1681526020019081526020016000206000015403613f90576040517f08c379a0000000000000000000000000000000000000000000000000000000008152600401613f8790615482565b60405180910390fd5b6000600d60003373ffffffffffffffffffffffffffffffffffffffff1673ffffffffffffffffffffffffffffffffffffffff1681526020019081526020016000208381548110613fe357613fe2615803565b5b90600052602060002090600502016040518060a0016040529081600082015481526020016001820160009054906101000a900460ff16151515158152602001600282015481526020016003820154815260200160048201548152505090506000600c6000858152602001908152602001600020604051806101a00160405290816000820154815260200160018201805461407c90615405565b80601f01602080910402602001604051908101604052809291908181526020018280546140a890615405565b80156140f55780601f106140ca576101008083540402835291602001916140f5565b820191906000526020600020905b8154815290600101906020018083116140d857829003601f168201915b5050505050815260200160028201805461410e90615405565b80601f016020809104026020016040519081016040528092919081815260200182805461413a90615405565b80156141875780601f1061415c57610100808354040283529160200191614187565b820191906000526020600020905b81548152906001019060200180831161416a57829003601f168201915b50505050508152602001600382015481526020016004820180546141aa90615405565b80601f01602080910402602001604051908101604052809291908181526020018280546141d690615405565b80156142235780601f106141f857610100808354040283529160200191614223565b820191906000526020600020905b81548152906001019060200180831161420657829003601f168201915b505050505081526020016005820160009054906101000a900473ffffffffffffffffffffffffffffffffffffffff1673ffffffffffffffffffffffffffffffffffffffff1673ffffffffffffffffffffffffffffffffffffffff1681526020016006820180548060200260200160405190810160405280929190818152602001828054801561430757602002820191906000526020600020905b8160009054906101000a900473ffffffffffffffffffffffffffffffffffffffff1673ffffffffffffffffffffffffffffffffffffffff16815260200190600101908083116142bd575b505050505081526020016007820180548060200260200160405190810160405280929190818152602001828054801561435f57602002820191906000526020600020905b81548152602001906001019080831161434b575b505050505081526020016008820154815260200160098201805461438290615405565b80601f01602080910402602001604051908101604052809291908181526020018280546143ae90615405565b80156143fb5780601f106143d0576101008083540402835291602001916143fb565b820191906000526020600020905b8154815290600101906020018083116143de57829003601f168201915b50505050508152602001600a820160009054906101000a900460ff16151515158152602001600b8201548152602001600c820154815250509050600081600001510361447c576040517f08c379a0000000000000000000000000000000000000000000000000000000008152600401614473906157e3565b60405180910390fd5b60028260800151116144c3576040517f08c379a00000000000000000000000000000000000000000000000000000000081526004016144ba906159d6565b60405180910390fd5b60008383606001516144d59190615956565b90506000811161451a576040517f08c379a000000000000000000000000000000000000000000000000000000000815260040161451190615a42565b60405180910390fd5b60008261010001518261452d9190615a62565b9050600d60003373ffffffffffffffffffffffffffffffffffffffff1673ffffffffffffffffffffffffffffffffffffffff16815260200190815260200160002086815481106145805761457f615803565b5b90600052602060002090600502016000808201600090556001820160006101000a81549060ff02191690556002820160009055600382016000905560048201600090555050600160009054906101000a900473ffffffffffffffffffffffffffffffffffffffff1673ffffffffffffffffffffffffffffffffffffffff166323b872dd3033846040518463ffffffff1660e01b815260040161462493929190615832565b6020604051808303816000875af1158015614643573d6000803e3d6000fd5b505050506040513d601f19601f820116820180604052508101906146679190615895565b507fdc66f972de0418acb83d72185cdafd8f63206f06f26f08008effbcf11495f2fd3387866060015160405161469f93929190615aa4565b60405180910390a1505050505050565b600d60205281600052604060002081815481106146cb57600080fd5b9060005260206000209060050201600091509150508060000154908060010160009054906101000a900460ff16908060020154908060030154908060040154905085565b6000600c60008481526020019081526020016000206000015403614768576040517f08c379a000000000000000000000000000000000000000000000000000000000815260040161475f906157e3565b60405180910390fd5b614773828483614781565b61477c8361484e565b505050565b600360009054906101000a900473ffffffffffffffffffffffffffffffffffffffff1673ffffffffffffffffffffffffffffffffffffffff166304b444d983836040518363ffffffff1660e01b81526004016147de929190615adb565b600060405180830381600087803b1580156147f857600080fd5b505af115801561480c573d6000803e3d6000fd5b505050507ffec61b9ec0e29047dbeea981617649d79f187d172cfd492695a3d0bfee28883e8284604051614841929190615b0b565b60405180910390a1505050565b600260009054906101000a900473ffffffffffffffffffffffffffffffffffffffff1673ffffffffffffffffffffffffffffffffffffffff1663b510391f826040518263ffffffff1660e01b81526004016148a99190615b6b565b600060405180830381600087803b1580156148c357600080fd5b505af11580156148d7573d6000803e3d6000fd5b5050505050565b82805482825590600052602060002090810192821561491a579160200282015b828111156149195782518255916020019190600101906148fe565b5b50905061492791906149f5565b5090565b8280548282559060005260206000209081019282156149a4579160200282015b828111156149a35782518260006101000a81548173ffffffffffffffffffffffffffffffffffffffff021916908373ffffffffffffffffffffffffffffffffffffffff1602179055509160200191906001019061494b565b5b5090506149b191906149f5565b5090565b5080546149c190615405565b6000825580601f106149d357506149f2565b601f0160209004906000526020600020908101906149f191906149f5565b5b50565b5b80821115614a0e5760008160009055506001016149f6565b5090565b6000604051905090565b600080fd5b600080fd5b6000819050919050565b614a3981614a26565b8114614a4457600080fd5b50565b600081359050614a5681614a30565b92915050565b60008060408385031215614a7357614a72614a1c565b5b6000614a8185828601614a47565b9250506020614a9285828601614a47565b9150509250929050565b614aa581614a26565b82525050565b600081519050919050565b600082825260208201905092915050565b60005b83811015614ae5578082015181840152602081019050614aca565b60008484015250505050565b6000601f19601f8301169050919050565b6000614b0d82614aab565b614b178185614ab6565b9350614b27818560208601614ac7565b614b3081614af1565b840191505092915050565b6000606082019050614b506000830186614a9c565b8181036020830152614b628185614b02565b90508181036040830152614b768184614b02565b9050949350505050565b600060208284031215614b9657614b95614a1c565b5b6000614ba484828501614a47565b91505092915050565b6000602082019050614bc26000830184614a9c565b92915050565b600080fd5b600080fd5b7f4e487b7100000000000000000000000000000000000000000000000000000000600052604160045260246000fd5b614c0a82614af1565b810181811067ffffffffffffffff82111715614c2957614c28614bd2565b5b80604052505050565b6000614c3c614a12565b9050614c488282614c01565b919050565b600067ffffffffffffffff821115614c6857614c67614bd2565b5b614c7182614af1565b9050602081019050919050565b82818337600083830152505050565b6000614ca0614c9b84614c4d565b614c32565b905082815260208101848484011115614cbc57614cbb614bcd565b5b614cc7848285614c7e565b509392505050565b600082601f830112614ce457614ce3614bc8565b5b8135614cf4848260208601614c8d565b91505092915050565b600080600060608486031215614d1657614d15614a1c565b5b600084013567ffffffffffffffff811115614d3457614d33614a21565b5b614d4086828701614ccf565b935050602084013567ffffffffffffffff811115614d6157614d60614a21565b5b614d6d86828701614ccf565b9250506040614d7e86828701614a47565b9150509250925092565b60008060008060808587031215614da257614da1614a1c565b5b6000614db087828801614a47565b9450506020614dc187828801614a47565b935050604085013567ffffffffffffffff811115614de257614de1614a21565b5b614dee87828801614ccf565b925050606085013567ffffffffffffffff811115614e0f57614e0e614a21565b5b614e1b87828801614ccf565b91505092959194509250565b600073ffffffffffffffffffffffffffffffffffffffff82169050919050565b6000614e5282614e27565b9050919050565b614e6281614e47565b8114614e6d57600080fd5b50565b600081359050614e7f81614e59565b92915050565b60008060408385031215614e9c57614e9b614a1c565b5b6000614eaa85828601614e70565b9250506020614ebb85828601614a47565b9150509250929050565b60008060408385031215614edc57614edb614a1c565b5b600083013567ffffffffffffffff811115614efa57614ef9614a21565b5b614f0685828601614ccf565b925050602083013567ffffffffffffffff811115614f2757614f26614a21565b5b614f3385828601614ccf565b9150509250929050565b600060208284031215614f5357614f52614a1c565b5b6000614f6184828501614e70565b91505092915050565b60008115159050919050565b614f7f81614f6a565b82525050565b600061014082019050614f9b600083018d614a9c565b8181036020830152614fad818c614b02565b90508181036040830152614fc1818b614b02565b90508181036060830152614fd5818a614b02565b9050614fe46080830189614a9c565b614ff160a0830188614f76565b81810360c08301526150038187614b02565b905081810360e08301526150178186614b02565b905081810361010083015261502c8185614b02565b905061503c610120830184614a9c565b9b9a5050505050505050505050565b6000806000806080858703121561506557615064614a1c565b5b600085013567ffffffffffffffff81111561508357615082614a21565b5b61508f87828801614ccf565b945050602085013567ffffffffffffffff8111156150b0576150af614a21565b5b6150bc87828801614ccf565b935050604085013567ffffffffffffffff8111156150dd576150dc614a21565b5b6150e987828801614ccf565b92505060606150fa87828801614a47565b91505092959194509250565b60008060006060848603121561511f5761511e614a1c565b5b600061512d86828701614a47565b935050602084013567ffffffffffffffff81111561514e5761514d614a21565b5b61515a86828701614ccf565b925050604084013567ffffffffffffffff81111561517b5761517a614a21565b5b61518786828701614ccf565b9150509250925092565b61519a81614e47565b82525050565b6000610160820190506151b6600083018e614a9c565b81810360208301526151c8818d614b02565b905081810360408301526151dc818c614b02565b90506151eb606083018b614a9c565b81810360808301526151fd818a614b02565b905061520c60a0830189615191565b61521960c0830188614a9c565b81810360e083015261522b8187614b02565b905061523b610100830186614f76565b615249610120830185614a9c565b615257610140830184614a9c565b9c9b505050505050505050505050565b600060e08201905061527c600083018a614a9c565b818103602083015261528e8189614b02565b905081810360408301526152a28188614b02565b90506152b16060830187614a9c565b81810360808301526152c38186614b02565b905081810360a08301526152d78185614b02565b90506152e660c0830184614a9c565b98975050505050505050565b60008060006060848603121561530b5761530a614a1c565b5b600061531986828701614a47565b935050602061532a86828701614a47565b925050604084013567ffffffffffffffff81111561534b5761534a614a21565b5b61535786828701614ccf565b9150509250925092565b6000602082019050818103600083015261537b8184614b02565b905092915050565b600060a0820190506153986000830188614a9c565b6153a56020830187614f76565b6153b26040830186614a9c565b6153bf6060830185614a9c565b6153cc6080830184614a9c565b9695505050505050565b7f4e487b7100000000000000000000000000000000000000000000000000000000600052602260045260246000fd5b6000600282049050600182168061541d57607f821691505b6020821081036154305761542f6153d6565b5b50919050565b7f21617574686f72697a6564000000000000000000000000000000000000000000600082015250565b600061546c600b83614ab6565b915061547782615436565b602082019050919050565b6000602082019050818103600083015261549b8161545f565b9050919050565b60008190508160005260206000209050919050565b60006020601f8301049050919050565b600082821b905092915050565b6000600883026155047fffffffffffffffffffffffffffffffffffffffffffffffffffffffffffffffff826154c7565b61550e86836154c7565b95508019841693508086168417925050509392505050565b6000819050919050565b600061554b61554661554184614a26565b615526565b614a26565b9050919050565b6000819050919050565b61556583615530565b61557961557182615552565b8484546154d4565b825550505050565b600090565b61558e615581565b61559981848461555c565b505050565b5b818110156155bd576155b2600082615586565b60018101905061559f565b5050565b601f821115615602576155d3816154a2565b6155dc846154b7565b810160208510156155eb578190505b6155ff6155f7856154b7565b83018261559e565b50505b505050565b600082821c905092915050565b600061562560001984600802615607565b1980831691505092915050565b600061563e8383615614565b9150826002028217905092915050565b61565782614aab565b67ffffffffffffffff8111156156705761566f614bd2565b5b61567a8254615405565b6156858282856155c1565b600060209050601f8311600181146156b857600084156156a6578287015190505b6156b08582615632565b865550615718565b601f1984166156c6866154a2565b60005b828110156156ee578489015182556001820191506020850194506020810190506156c9565b8683101561570b5784890151615707601f891682615614565b8355505b6001600288020188555050505b505050505050565b7f4e487b7100000000000000000000000000000000000000000000000000000000600052601160045260246000fd5b600061575a82614a26565b91507fffffffffffffffffffffffffffffffffffffffffffffffffffffffffffffffff820361578c5761578b615720565b5b600182019050919050565b7f2165786973747300000000000000000000000000000000000000000000000000600082015250565b60006157cd600783614ab6565b91506157d882615797565b602082019050919050565b600060208201905081810360008301526157fc816157c0565b9050919050565b7f4e487b7100000000000000000000000000000000000000000000000000000000600052603260045260246000fd5b60006060820190506158476000830186615191565b6158546020830185615191565b6158616040830184614a9c565b949350505050565b61587281614f6a565b811461587d57600080fd5b50565b60008151905061588f81615869565b92915050565b6000602082840312156158ab576158aa614a1c565b5b60006158b984828501615880565b91505092915050565b60006158cd82614a26565b91506158d883614a26565b92508282019050808211156158f0576158ef615720565b5b92915050565b7f4e487b7100000000000000000000000000000000000000000000000000000000600052601260045260246000fd5b600061593082614a26565b915061593b83614a26565b92508261594b5761594a6158f6565b5b828204905092915050565b600061596182614a26565b915061596c83614a26565b925082820390508181111561598457615983615720565b5b92915050565b7f3e327765656b732e000000000000000000000000000000000000000000000000600082015250565b60006159c0600883614ab6565b91506159cb8261598a565b602082019050919050565b600060208201905081810360008301526159ef816159b3565b9050919050565b7f21726566756e61626c6500000000000000000000000000000000000000000000600082015250565b6000615a2c600a83614ab6565b9150615a37826159f6565b602082019050919050565b60006020820190508181036000830152615a5b81615a1f565b9050919050565b6000615a6d82614a26565b9150615a7883614a26565b9250828202615a8681614a26565b91508282048414831517615a9d57615a9c615720565b5b5092915050565b6000606082019050615ab96000830186615191565b615ac66020830185614a9c565b615ad36040830184614a9c565b949350505050565b6000604082019050615af06000830185615191565b8181036020830152615b028184614b02565b90509392505050565b6000604082019050615b206000830185615191565b615b2d6020830184614a9c565b9392505050565b600082825260208201905092915050565b50565b6000615b55600083615b34565b9150615b6082615b45565b600082019050919050565b6000604082019050615b806000830184615191565b8181036020830152615b9181615b48565b90509291505056fea26469706673582212209e57a37684772372a8d14a51b8a5f4a495671b8062659ab0a5dc27cd6cd5860f64736f6c634300081100332f696d616765732f63617465676f726965732f696c6c757374726174696f6e2e776562702f696d616765732f63617465676f726965732f616e696d6174696f6e2e776562702f696d616765732f63617465676f726965732f70686f746f6772617068792e776562702f696d616765732f63617465676f726965732f7765622d646576656c6f706d656e742e776562702f696d616765732f63617465676f726965732f646174612d736369656e63652e776562702f696d616765732f63617465676f726965732f6d61726b6574696e672e77656270",
  "immutableReferences": {},
  "source": "// SPDX-License-Identifier: GPL-3.0\n\npragma solidity >=0.7.0 <0.9.0;\n\nimport \"./BdlToken.sol\";\nimport \"./BdlNft.sol\";\nimport \"./BdlCertificate.sol\";\nimport \"./Models.sol\";\n\ncontract Buidl {\n    // state variables\n    address deployer;\n\n    BdlToken bdlToken;\n    BdlNft bdlNft;\n    BdlCertificate bdlCertificate;\n\n    uint256 public contractInstructorID = 1;\n    uint256 public contractStudentID = 1;\n    uint256 public contractCourseID = 1;\n    uint256 public contractCategoryID = 1;\n\n    // minimum to stake for a duration of 1year\n    uint256 instructorRegistrationFee = 2000 * 10**18;\n\n    mapping(uint => Models.Category) public categories;\n    mapping(address => Models.Instructor) public instructors;\n    mapping(address => Models.Student) public students;\n    mapping(uint => Models.Course) public courses;\n    mapping(address => Models.StudentCourse[]) public studentCourses;\n    mapping(uint => Models.CourseSection[]) public courseSections;\n\n    // contructor\n    constructor(\n        address _bdlToken,\n        address _bdlNft,\n        address _bdlCertificate\n    ) {\n        deployer = msg.sender;\n        bdlToken = BdlToken(_bdlToken);\n        bdlNft = BdlNft(_bdlNft);\n        bdlCertificate = BdlCertificate(_bdlCertificate);\n\n        addTestCategories();\n    }\n\n    // ========= Administation ========= //\n\n    function setInstructorRegistrationFee(uint256 amount) public onlyOwner {\n        instructorRegistrationFee = amount;\n    }\n\n    function addCategory(string memory name, string memory image)\n        public\n        onlyOwner\n    {\n        categories[contractCategoryID] = Models.Category(\n            contractCategoryID,\n            name,\n            image\n        );\n\n        contractCategoryID++;\n    }\n\n    // ========= Instructors =========== //\n\n    function createCourse(\n        string memory name,\n        string memory description,\n        uint categoryId\n    ) public onlyInstructor {\n        Models.Course memory course = courses[contractCourseID];\n\n        // create new freah course\n        courses[contractCourseID] = Models.Course(\n            contractCourseID,\n            name,\n            description,\n            categoryId,\n            course.ipfsPhoto,\n            msg.sender,\n            course.students,\n            course.ratings,\n            0,\n            course.metadata,\n            false,\n            block.timestamp,\n            block.timestamp\n        );\n\n        // assign course ownership to intructor\n        instructors[msg.sender].courses.push(contractCourseID);\n\n        // increment id\n        contractCourseID++;\n    }\n\n    function addSectionToCourse(\n        uint courseId,\n        string memory title,\n        string memory src\n    ) public onlyInstructor {\n        Models.Course memory course = courses[courseId];\n\n        require(course.id != 0, \"!exists\");\n        require(course.instructor == msg.sender, \"!authorized\");\n\n        courseSections[courseId].push(\n            Models.CourseSection(courseSections[courseId].length + 1, title, src)\n        );\n    }\n\n    function updateCourseSection(\n        uint courseId,\n        uint sectionIndex,\n        string memory title,\n        string memory src\n    ) public onlyInstructor {\n        Models.Course memory course = courses[courseId];\n\n        require(course.id != 0, \"!exists\");\n        require(course.instructor == msg.sender, \"!authorized\");\n        require(\n            courseSections[courseId][sectionIndex].id != 0,\n            \"!exists\"\n        );\n\n        courseSections[courseId][sectionIndex] = Models.CourseSection(\n            sectionIndex,\n            title,\n            src\n        );\n    }\n\n    function deleteCourseSection(uint courseId, uint sectionIndex)\n        public\n        onlyInstructor\n    {\n        Models.Course memory course = courses[courseId];\n\n        require(course.id != 0, \"!exists\");\n        require(course.instructor == msg.sender, \"!authorized\");\n        require(\n            courseSections[courseId][sectionIndex].id != 0,\n            \"!exists\"\n        );\n\n        delete courseSections[courseId][sectionIndex];\n    }\n\n    function getInstructorCoursesLength(address instructor)\n        public\n        view\n        returns (uint)\n    {\n        return instructors[instructor].courses.length;\n    }\n\n    function getInstructorCourseIdAtIndex(address instructor, uint index)\n        public\n        view\n        returns (uint)\n    {\n        return instructors[instructor].courses[index];\n    }\n\n    function createInstructorAccount(\n        string memory firstName,\n        string memory lastName,\n        string memory location,\n        uint gender\n    ) public notAnyone {\n        // stake instruction fee\n        bdlToken.increaseAllowance(\n            msg.sender,\n            address(this),\n            instructorRegistrationFee\n        );\n\n        bdlToken.transferFrom(\n            msg.sender,\n            address(this),\n            instructorRegistrationFee\n        );\n\n        Models.Instructor memory instructor = instructors[msg.sender];\n\n        instructors[msg.sender] = Models.Instructor(\n            contractInstructorID,\n            firstName,\n            lastName,\n            location,\n            gender,\n            false,\n            instructor.ipfsPhoto,\n            instructor.twitter,\n            instructor.linkedin,\n            instructor.courses,\n            block.timestamp\n        );\n\n        contractInstructorID++;\n    }\n\n    // ========= Students ========== //\n\n    function createStudentAccount(\n        string memory name,\n        string memory email,\n        uint gender\n    ) public notAnyone {\n        Models.Student memory student = students[msg.sender];\n\n        students[msg.sender] = Models.Student(\n            contractStudentID,\n            name,\n            email,\n            gender,\n            student.ipfsPhoto,\n            student.country,\n            block.timestamp,\n            student.courses\n        );\n\n        contractStudentID++;\n    }\n\n    function purchaseCourse(uint courseId) public onlyStudent {\n        Models.Course storage course = courses[courseId];\n\n        require(course.id != 0, \"!exists\");\n\n        // lock the student funds to smart contract\n        bdlToken.increaseAllowance(msg.sender, address(this), course.price);\n        bdlToken.transferFrom(msg.sender, address(this), course.price);\n\n        // create course for student\n        studentCourses[msg.sender].push(\n            Models.StudentCourse(courseId, true, course.price, 0, block.timestamp)\n        );\n\n        emit CoursePurchased(course.instructor, msg.sender, courseId);\n    }\n\n    function rejectCourse(uint courseId, uint sections) public onlyStudent {\n        Models.StudentCourse memory studentCourse = studentCourses[msg.sender][\n            courseId\n        ];\n\n        Models.Course memory course = courses[courseId];\n\n        require(course.id != 0, \"!exists\");\n\n        // check is course is not over 2 weeks\n        require(\n            studentCourse.purchasedAt > 2,\n            \">2weeks.\"\n        );\n\n        uint refundableSections = (studentCourse.sectionsViewed - sections);\n\n        require(\n            refundableSections > 0,\n            \"!refunable\"\n        );\n\n        uint256 refundableAmount = (refundableSections * course.price);\n\n        // terminate student course\n        delete studentCourses[msg.sender][courseId];\n\n        // refund the student\n        bdlToken.transferFrom(address(this), msg.sender, refundableAmount);\n\n        emit CourseRejected(msg.sender, courseId, studentCourse.sectionsViewed);\n    }\n\n    function onNextCourseSection(\n        uint courseId,\n        uint sections,\n        string memory uri\n    ) public onlyStudent returns (string memory) {\n        Models.Course storage course = courses[courseId];\n\n        require(course.id != 0, \"!exists\");\n\n        Models.StudentCourse storage studentCourse = studentCourses[msg.sender][\n            courseId\n        ];\n\n        // students moved to another section of the course\n        // unlock part payment to the instructor (conditionally)\n        uint pricePerSection = (course.price / sections);\n\n        if (studentCourse.unlocked >= pricePerSection) {\n            studentCourse.unlocked -= pricePerSection;\n            bdlToken.transferFrom(\n                address(this),\n                course.instructor,\n                pricePerSection\n            );\n        }\n\n        // checks if students has completed the course\n        uint progress = (studentCourse.sectionsViewed / sections);\n\n        if (progress >= 1) {\n            onCompletedCourse(msg.sender, courseId, uri);\n            return \"course_completed\";\n        } else {\n            studentCourse.sectionsViewed++;\n            return \"course_next_section\";\n        }\n    }\n\n    function onCompletedCourse(\n        address student,\n        uint courseId,\n        string memory uri\n    ) private {\n        require(courses[courseId].id != 0, \"!exists\");\n        generateCerticate(courseId, student, uri);\n        mintNftForStudent(student);\n    }\n\n    function generateCerticate(\n        uint courseId,\n        address student,\n        string memory uri\n    ) private {\n        bdlCertificate.issue(student, uri);\n        emit CertificateIssued(student, courseId);\n    }\n\n    function mintNftForStudent(address student) private {\n        bdlNft.mint(student, \"\");\n    }\n\n    modifier onlyInstructor() {\n        require(instructors[msg.sender].id != 0, \"!authorized\");\n        _;\n    }\n\n    modifier onlyStudent() {\n        require(students[msg.sender].id != 0, \"!authorized\");\n        _;\n    }\n\n    modifier onlyOwner() {\n        require(msg.sender == deployer, \"!authorized\");\n        _;\n    }\n\n    modifier notAnyone() {\n        require(\n            (students[msg.sender].id == 0 && instructors[msg.sender].id == 0),\n            \"!authorized\"\n        );\n        _;\n    }\n\n    // ========== events ========== //\n    event CourseCompletion(address student, uint courseId);\n    event CertificateIssued(address student, uint courseId);\n    event CoursePurchased(address intructor, address student, uint courseId);\n    event CourseRejected(address student, uint courseId, uint sectionsViewed);\n\n    // ========== test =========== //\n    function addTestCategories() private {\n        addCategory(\n            \"Web Development\",\n            \"/images/categories/web-development.webp\"\n        );\n        addCategory(\"Cooking\", \"/images/categories/cooking.webp\");\n        addCategory(\"UI/UX Designing\", \"/images/categories/ui-ux.webp\");\n        addCategory(\"3D Animation\", \"/images/categories/animation.webp\");\n        addCategory(\"Illustration\", \"/images/categories/illustration.webp\");\n        addCategory(\"Data Science\", \"/images/categories/data-science.webp\");\n        addCategory(\"Speaking\", \"/images/categories/speaking.webp\");\n        addCategory(\"Music\", \"/images/categories/music.webp\");\n        addCategory(\"Photography\", \"/images/categories/photography.webp\");\n        addCategory(\"Marketing\", \"/images/categories/marketing.webp\");\n    }\n}\n",
  "sourcePath": "C:\\Users\\Arogundade Ibrahim\\Documents\\web3\\Buidl\\contracts\\Buidl.sol",
  "compiler": {
    "name": "solc",
    "version": "0.8.17+commit.8df45f5f.Emscripten.clang"
  },
  "schemaVersion": "3.4.10",
  "updatedAt": "2022-10-19T13:54:42.866Z",
  "networkType": "ethereum",
  "devdoc": {
    "kind": "dev",
    "methods": {},
    "version": 1
  },
  "userdoc": {
    "kind": "user",
    "methods": {},
    "version": 1
  }
}