{
  "contractName": "Buidl",
  "abi": [
    {
      "inputs": [
        {
          "internalType": "address",
          "name": "bdlToken",
          "type": "address"
        },
        {
          "internalType": "address",
          "name": "bdlNft",
          "type": "address"
        },
        {
          "internalType": "address",
          "name": "bdlCertificate",
          "type": "address"
        },
        {
          "internalType": "address",
          "name": "bdlCourse",
          "type": "address"
        },
        {
          "internalType": "address",
          "name": "staking",
          "type": "address"
        },
        {
          "internalType": "address",
          "name": "gateway_",
          "type": "address"
        },
        {
          "internalType": "address",
          "name": "gasReceiver_",
          "type": "address"
        }
      ],
      "stateMutability": "nonpayable",
      "type": "constructor"
    },
    {
      "inputs": [],
      "name": "InvalidAddress",
      "type": "error"
    },
    {
      "inputs": [],
      "name": "NotApprovedByGateway",
      "type": "error"
    },
    {
      "anonymous": false,
      "inputs": [
        {
          "indexed": false,
          "internalType": "address",
          "name": "owner",
          "type": "address"
        },
        {
          "indexed": false,
          "internalType": "bool",
          "name": "verified",
          "type": "bool"
        }
      ],
      "name": "Creator",
      "type": "event"
    },
    {
      "anonymous": false,
      "inputs": [
        {
          "indexed": false,
          "internalType": "address",
          "name": "owner",
          "type": "address"
        },
        {
          "indexed": false,
          "internalType": "string",
          "name": "name",
          "type": "string"
        },
        {
          "indexed": false,
          "internalType": "string",
          "name": "photo",
          "type": "string"
        },
        {
          "indexed": false,
          "internalType": "bool",
          "name": "verified",
          "type": "bool"
        }
      ],
      "name": "User",
      "type": "event"
    },
    {
      "inputs": [
        {
          "internalType": "bytes32",
          "name": "commandId",
          "type": "bytes32"
        },
        {
          "internalType": "string",
          "name": "sourceChain",
          "type": "string"
        },
        {
          "internalType": "string",
          "name": "sourceAddress",
          "type": "string"
        },
        {
          "internalType": "bytes",
          "name": "payload",
          "type": "bytes"
        }
      ],
      "name": "execute",
      "outputs": [],
      "stateMutability": "nonpayable",
      "type": "function"
    },
    {
      "inputs": [
        {
          "internalType": "bytes32",
          "name": "commandId",
          "type": "bytes32"
        },
        {
          "internalType": "string",
          "name": "sourceChain",
          "type": "string"
        },
        {
          "internalType": "string",
          "name": "sourceAddress",
          "type": "string"
        },
        {
          "internalType": "bytes",
          "name": "payload",
          "type": "bytes"
        },
        {
          "internalType": "string",
          "name": "tokenSymbol",
          "type": "string"
        },
        {
          "internalType": "uint256",
          "name": "amount",
          "type": "uint256"
        }
      ],
      "name": "executeWithToken",
      "outputs": [],
      "stateMutability": "nonpayable",
      "type": "function"
    },
    {
      "inputs": [],
      "name": "gasReceiver",
      "outputs": [
        {
          "internalType": "contract IAxelarGasService",
          "name": "",
          "type": "address"
        }
      ],
      "stateMutability": "view",
      "type": "function"
    },
    {
      "inputs": [],
      "name": "gateway",
      "outputs": [
        {
          "internalType": "contract IAxelarGateway",
          "name": "",
          "type": "address"
        }
      ],
      "stateMutability": "view",
      "type": "function"
    },
    {
      "inputs": [
        {
          "internalType": "address",
          "name": "",
          "type": "address"
        }
      ],
      "name": "revenues",
      "outputs": [
        {
          "internalType": "uint256",
          "name": "unclaimed",
          "type": "uint256"
        },
        {
          "internalType": "uint256",
          "name": "claimable",
          "type": "uint256"
        },
        {
          "internalType": "uint256",
          "name": "claimed",
          "type": "uint256"
        }
      ],
      "stateMutability": "view",
      "type": "function"
    },
    {
      "inputs": [],
      "name": "testCount",
      "outputs": [
        {
          "internalType": "uint256",
          "name": "",
          "type": "uint256"
        }
      ],
      "stateMutability": "view",
      "type": "function"
    },
    {
      "inputs": [
        {
          "internalType": "address",
          "name": "",
          "type": "address"
        }
      ],
      "name": "users",
      "outputs": [
        {
          "internalType": "uint256",
          "name": "id",
          "type": "uint256"
        },
        {
          "internalType": "bool",
          "name": "verified",
          "type": "bool"
        },
        {
          "internalType": "string",
          "name": "photo",
          "type": "string"
        },
        {
          "internalType": "uint256",
          "name": "createdAt",
          "type": "uint256"
        }
      ],
      "stateMutability": "view",
      "type": "function"
    },
    {
      "inputs": [
        {
          "internalType": "string",
          "name": "name",
          "type": "string"
        },
        {
          "internalType": "string",
          "name": "photo",
          "type": "string"
        }
      ],
      "name": "setAccount",
      "outputs": [],
      "stateMutability": "nonpayable",
      "type": "function"
    },
    {
      "inputs": [
        {
          "internalType": "uint256",
          "name": "amount",
          "type": "uint256"
        }
      ],
      "name": "stake",
      "outputs": [],
      "stateMutability": "nonpayable",
      "type": "function"
    },
    {
      "inputs": [],
      "name": "unlockCreator",
      "outputs": [],
      "stateMutability": "nonpayable",
      "type": "function"
    },
    {
      "inputs": [],
      "name": "removeCreator",
      "outputs": [],
      "stateMutability": "nonpayable",
      "type": "function"
    },
    {
      "inputs": [
        {
          "internalType": "uint256",
          "name": "id",
          "type": "uint256"
        },
        {
          "internalType": "uint256",
          "name": "nftId",
          "type": "uint256"
        }
      ],
      "name": "subscribe",
      "outputs": [],
      "stateMutability": "nonpayable",
      "type": "function"
    },
    {
      "inputs": [
        {
          "internalType": "uint256",
          "name": "id",
          "type": "uint256"
        }
      ],
      "name": "unSubscribe",
      "outputs": [],
      "stateMutability": "nonpayable",
      "type": "function"
    },
    {
      "inputs": [
        {
          "internalType": "uint256",
          "name": "amount",
          "type": "uint256"
        }
      ],
      "name": "withdrawPlatformFee",
      "outputs": [],
      "stateMutability": "nonpayable",
      "type": "function"
    },
    {
      "inputs": [
        {
          "internalType": "uint256",
          "name": "id",
          "type": "uint256"
        },
        {
          "internalType": "string",
          "name": "certificateUri",
          "type": "string"
        }
      ],
      "name": "onCourseComplete",
      "outputs": [],
      "stateMutability": "nonpayable",
      "type": "function"
    }
  ],
  "bytecode": "0x60c0604052600080556008600255686c6b935b8bbd4000006008556301e133806009556000600a553480156200003457600080fd5b5060405162001be138038062001be1833981016040819052620000579162000119565b816001600160a01b038116620000805760405163e6c4247b60e01b815260040160405180910390fd5b6001600160a01b0390811660805260018054336001600160a01b031991821617909155600380548216988316989098179097556004805488169882169890981790975560058054871695881695909517909455506006805485169286169290921790915560078054909316908416179091551660a052620001ae565b80516001600160a01b03811681146200011457600080fd5b919050565b600080600080600080600060e0888a0312156200013557600080fd5b6200014088620000fc565b96506200015060208901620000fc565b95506200016060408901620000fc565b94506200017060608901620000fc565b93506200018060808901620000fc565b92506200019060a08901620000fc565b9150620001a060c08901620000fc565b905092959891949750929550565b60805160a051611a00620001e160003960006101d001526000818160ff015281816102dd01526105740152611a006000f3fe608060405234801561001057600080fd5b50600436106100f55760003560e01c80638437081311610097578063a87430ba11610066578063a87430ba14610242578063c193b2e414610265578063d8d6bfde1461026d578063dde7c1901461028057600080fd5b806384370813146101f257806390bf70b0146102055780639590d4b914610218578063a694fc3a1461022f57600080fd5b806349160658116100d3578063491606581461016657806378ae98c8146101795780637f26fc7d146101c357806380d14b4a146101cb57600080fd5b8063116191b6146100fa5780631a98b2e01461013e5780632796b03014610153575b600080fd5b6101217f000000000000000000000000000000000000000000000000000000000000000081565b6040516001600160a01b0390911681526020015b60405180910390f35b61015161014c366004611209565b610293565b005b6101516101613660046112e3565b61038f565b6101516101743660046112fc565b61052a565b6101a86101873660046113b8565b600c6020526000908152604090208054600182015460029092015490919083565b60408051938452602084019290925290820152606001610135565b61015161062b565b6101217f000000000000000000000000000000000000000000000000000000000000000081565b6101516102003660046113dc565b6106d7565b6101516102133660046114c3565b6106ea565b61022160005481565b604051908152602001610135565b61015161023d3660046112e3565b610744565b6102556102503660046113b8565b6108da565b6040516101359493929190611577565b61015161098f565b61015161027b3660046115a9565b610b0f565b61015161028e3660046112e3565b610ca0565b600085856040516102a59291906115e6565b6040519081900381207f1876eed900000000000000000000000000000000000000000000000000000000825291506001600160a01b037f00000000000000000000000000000000000000000000000000000000000000001690631876eed990610322908e908e908e908e908e9089908d908d908d9060040161161f565b6020604051808303816000875af1158015610341573d6000803e3d6000fd5b505050506040513d601f19601f820116820180604052508101906103659190611693565b61038257604051631403112d60e21b815260040160405180910390fd5b5050505050505050505050565b6006546040517ff30e6e9b0000000000000000000000000000000000000000000000000000000081526004810183905233602482015260009182918291829182916001600160a01b03169063f30e6e9b9060440160a0604051808303816000875af1158015610402573d6000803e3d6000fd5b505050506040513d601f19601f8201168201806040525081019061042691906116ae565b6004805460405163a9059cbb60e01b8152339281019290925260248201879052959a50939850919650945092506001600160a01b039091169063a9059cbb906044016020604051808303816000875af1158015610487573d6000803e3d6000fd5b505050506040513d601f19601f820116820180604052508101906104ab9190611693565b506001600160a01b0383166000908152600c6020526040812080548492906104d490849061170e565b90915550506001600160a01b0383166000908152600c602052604081206001018054869290610504908490611727565b9250508190555080600a600082825461051d9190611727565b9091555050505050505050565b6000828260405161053c9291906115e6565b6040519081900381207f5f6970c300000000000000000000000000000000000000000000000000000000825291506001600160a01b037f00000000000000000000000000000000000000000000000000000000000000001690635f6970c3906105b3908b908b908b908b908b90899060040161173a565b6020604051808303816000875af11580156105d2573d6000803e3d6000fd5b505050506040513d601f19601f820116820180604052508101906105f69190611693565b61061357604051631403112d60e21b815260040160405180910390fd5b610621878787878787610dd0565b5050505050505050565b336000908152600b602052604090206001015460ff166106805760405162461bcd60e51b815260206004820152600b60248201526a08585d5d1a1bdc9a5e995960aa1b60448201526064015b60405180910390fd5b336000818152600b60209081526040808320600101805460ff191690558051938452908301919091527fb5763ba23a8384e26e9f2f5bfcd8e3795e4248ce7bb99a61c9ee6488d352a5b191015b60405180910390a1565b60006106e583838333610eac565b505050565b336000818152600b6020526040908190206001015490517f2d3804f6670a9e165ddef24bb7f7345753423a96b66b32c302cfefcda19ad467926107389290918691869160ff9091169061177b565b60405180910390a15050565b6004805460405163e1f21c6760e01b81523392810192909252306024830152604482018390526001600160a01b03169063e1f21c6790606401600060405180830381600087803b15801561079757600080fd5b505af11580156107ab573d6000803e3d6000fd5b5050600480546040516323b872dd60e01b81523392810192909252306024830152604482018590526001600160a01b031692506323b872dd91506064016020604051808303816000875af1158015610807573d6000803e3d6000fd5b505050506040513d601f19601f8201168201806040525081019061082b9190611693565b506007546009546001600160a01b039091169063ab84bb7890339084906108529042611727565b6040517fffffffff0000000000000000000000000000000000000000000000000000000060e086901b1681526001600160a01b0390931660048401526024830191909152604482015260006064820152608401600060405180830381600087803b1580156108bf57600080fd5b505af11580156108d3573d6000803e3d6000fd5b5050505050565b600b60205260009081526040902080546001820154600283018054929360ff90921692610906906117c3565b80601f0160208091040260200160405190810160405280929190818152602001828054610932906117c3565b801561097f5780601f106109545761010080835404028352916020019161097f565b820191906000526020600020905b81548152906001019060200180831161096257829003601f168201915b5050505050908060040154905084565b336000908152600b602052604090206001015460ff16156109e05760405162461bcd60e51b815260206004820152600b60248201526a08585d5d1a1bdc9a5e995960aa1b6044820152606401610677565b6007546008546040517fde36071500000000000000000000000000000000000000000000000000000000815260048101919091523360248201526001600160a01b039091169063de36071590604401602060405180830381865afa158015610a4c573d6000803e3d6000fd5b505050506040513d601f19601f82011682018060405250810190610a709190611693565b610abc5760405162461bcd60e51b815260206004820152601860248201527f217374616b655f726571756972656d656e745f666972737400000000000000006044820152606401610677565b336000818152600b60209081526040918290206001908101805460ff1916821790558251938452908301527fb5763ba23a8384e26e9f2f5bfcd8e3795e4248ce7bb99a61c9ee6488d352a5b191016106cd565b6006546040517f0172a3430000000000000000000000000000000000000000000000000000000081526004810184905233602482015260009182916001600160a01b0390911690630172a343906044016040805180830381865afa158015610b7b573d6000803e3d6000fd5b505050506040513d601f19601f82011682018060405250810190610b9f91906117fd565b915091508115610c27576005546040517f04b444d90000000000000000000000000000000000000000000000000000000081526001600160a01b03909116906304b444d990610bf49033908790600401611829565b600060405180830381600087803b158015610c0e57600080fd5b505af1158015610c22573d6000803e3d6000fd5b505050505b6003546040517f40c10f19000000000000000000000000000000000000000000000000000000008152336004820152602481018390526001600160a01b03909116906340c10f1990604401600060405180830381600087803b158015610c8c57600080fd5b505af1158015610621573d6000803e3d6000fd5b6001546001600160a01b03163314610ce85760405162461bcd60e51b815260206004820152600b60248201526a08585d5d1a1bdc9a5e995960aa1b6044820152606401610677565b80600a541015610d3a5760405162461bcd60e51b815260206004820152601360248201527f696e73756669636369656e7420746f6b656e73000000000000000000000000006044820152606401610677565b80600a6000828254610d4c919061170e565b90915550506004805460015460405163a9059cbb60e01b81526001600160a01b039182169381019390935260248301849052169063a9059cbb906044016020604051808303816000875af1158015610da8573d6000803e3d6000fd5b505050506040513d601f19601f82011682018060405250810190610dcc9190611693565b5050565b600080549080610ddf83611853565b919050555060008073__Message_______________________________63ba43ec8685856040518363ffffffff1660e01b8152600401610e2092919061186c565b600060405180830381865af4158015610e3d573d6000803e3d6000fd5b505050506040513d6000823e601f3d908101601f19168201604052610e659190810190611880565b915091506001820361062157600080600083806020019051810190610e8a9190611903565b9250925092506000610e9e84848385610eac565b505050505050505050505050565b6006546040517f59e6951d000000000000000000000000000000000000000000000000000000008152600481018690526001600160a01b03838116602483015260009283929116906359e6951d9060440160408051808303816000875af1158015610f1b573d6000803e3d6000fd5b505050506040513d601f19601f82011682018060405250810190610f3f919061193c565b6001600160a01b0381166000908152600c6020526040812080549395509193508492610f6c908490611727565b9091555082905085156110d3576003546040517f6352211e000000000000000000000000000000000000000000000000000000008152600481018890526001600160a01b03868116921690636352211e90602401602060405180830381865afa158015610fdd573d6000803e3d6000fd5b505050506040513d601f19601f82011682018060405250810190611001919061196c565b6001600160a01b0316146110455760405162461bcd60e51b815260206004820152600b60248201526a08585d5d1a1bdc9a5e995960aa1b6044820152606401610677565b611050606486611989565b61105a90846119ab565b6003546040517f42966c68000000000000000000000000000000000000000000000000000000008152600481018990529192506001600160a01b0316906342966c6890602401600060405180830381600087803b1580156110ba57600080fd5b505af11580156110ce573d6000803e3d6000fd5b505050505b6004805460405163e1f21c6760e01b81526001600160a01b03878116938201939093523060248201526044810184905291169063e1f21c6790606401600060405180830381600087803b15801561112957600080fd5b505af115801561113d573d6000803e3d6000fd5b5050600480546040516323b872dd60e01b81526001600160a01b038981169382019390935230602482015260448101869052911692506323b872dd91506064016020604051808303816000875af115801561119c573d6000803e3d6000fd5b505050506040513d601f19601f820116820180604052508101906106219190611693565b60008083601f8401126111d257600080fd5b50813567ffffffffffffffff8111156111ea57600080fd5b60208301915083602082850101111561120257600080fd5b9250929050565b60008060008060008060008060008060c08b8d03121561122857600080fd5b8a35995060208b013567ffffffffffffffff8082111561124757600080fd5b6112538e838f016111c0565b909b50995060408d013591508082111561126c57600080fd5b6112788e838f016111c0565b909950975060608d013591508082111561129157600080fd5b61129d8e838f016111c0565b909750955060808d01359150808211156112b657600080fd5b506112c38d828e016111c0565b9150809450508092505060a08b013590509295989b9194979a5092959850565b6000602082840312156112f557600080fd5b5035919050565b60008060008060008060006080888a03121561131757600080fd5b87359650602088013567ffffffffffffffff8082111561133657600080fd5b6113428b838c016111c0565b909850965060408a013591508082111561135b57600080fd5b6113678b838c016111c0565b909650945060608a013591508082111561138057600080fd5b5061138d8a828b016111c0565b989b979a50959850939692959293505050565b6001600160a01b03811681146113b557600080fd5b50565b6000602082840312156113ca57600080fd5b81356113d5816113a0565b9392505050565b600080604083850312156113ef57600080fd5b50508035926020909101359150565b634e487b7160e01b600052604160045260246000fd5b604051601f8201601f1916810167ffffffffffffffff8111828210171561143d5761143d6113fe565b604052919050565b600067ffffffffffffffff82111561145f5761145f6113fe565b50601f01601f191660200190565b600082601f83011261147e57600080fd5b813561149161148c82611445565b611414565b8181528460208386010111156114a657600080fd5b816020850160208301376000918101602001919091529392505050565b600080604083850312156114d657600080fd5b823567ffffffffffffffff808211156114ee57600080fd5b6114fa8683870161146d565b9350602085013591508082111561151057600080fd5b5061151d8582860161146d565b9150509250929050565b60005b8381101561154257818101518382015260200161152a565b50506000910152565b60008151808452611563816020860160208601611527565b601f01601f19169290920160200192915050565b8481528315156020820152608060408201526000611598608083018561154b565b905082606083015295945050505050565b600080604083850312156115bc57600080fd5b82359150602083013567ffffffffffffffff8111156115da57600080fd5b61151d8582860161146d565b8183823760009101908152919050565b81835281816020850137506000828201602090810191909152601f909101601f19169091010190565b89815260c06020820152600061163960c083018a8c6115f6565b828103604084015261164c81898b6115f6565b905086606084015282810360808401526116678186886115f6565b9150508260a08301529a9950505050505050505050565b8051801515811461168e57600080fd5b919050565b6000602082840312156116a557600080fd5b6113d58261167e565b600080600080600060a086880312156116c657600080fd5b855194506020860151935060408601516116df816113a0565b6060870151608090970151959894975095949392505050565b634e487b7160e01b600052601160045260246000fd5b81810381811115611721576117216116f8565b92915050565b80820180821115611721576117216116f8565b8681526080602082015260006117546080830187896115f6565b82810360408401526117678186886115f6565b915050826060830152979650505050505050565b6001600160a01b038516815260806020820152600061179d608083018661154b565b82810360408401526117af818661154b565b915050821515606083015295945050505050565b600181811c908216806117d757607f821691505b6020821081036117f757634e487b7160e01b600052602260045260246000fd5b50919050565b6000806040838503121561181057600080fd5b6118198361167e565b9150602083015190509250929050565b6001600160a01b038316815260406020820152600061184b604083018461154b565b949350505050565b600060018201611865576118656116f8565b5060010190565b60208152600061184b6020830184866115f6565b6000806040838503121561189357600080fd5b82519150602083015167ffffffffffffffff8111156118b157600080fd5b8301601f810185136118c257600080fd5b80516118d061148c82611445565b8181528660208385010111156118e557600080fd5b6118f6826020830160208601611527565b8093505050509250929050565b60008060006060848603121561191857600080fd5b83519250602084015191506040840151611931816113a0565b809150509250925092565b6000806040838503121561194f57600080fd5b825191506020830151611961816113a0565b809150509250929050565b60006020828403121561197e57600080fd5b81516113d5816113a0565b6000826119a657634e487b7160e01b600052601260045260246000fd5b500490565b60008160001904831182151516156119c5576119c56116f8565b50029056fea26469706673582212200546d7920e5911f68725e031efc3cecc2a41bcd95f927639ab89665830072c9464736f6c63430008100033",
  "immutableReferences": {
    "10": [
      {
        "length": 32,
        "start": 255
      },
      {
        "length": 32,
        "start": 733
      },
      {
        "length": 32,
        "start": 1396
      }
    ],
    "5092": [
      {
        "length": 32,
        "start": 464
      }
    ]
  },
  "source": "// SPDX-License-Identifier: GPL-3.0\npragma solidity >=0.7.0 <0.9.0;\n\nimport {BdlNft} from \"./BdlNft.sol\";\nimport {BdlCertificate} from \"./BdlCertificate.sol\";\nimport {BdlToken} from \"./BdlToken.sol\";\nimport {BdlCourse} from \"./BdlCourse.sol\";\nimport {Staking} from \"./Staking.sol\";\n\nimport {Models} from \"./../base/Models.sol\";\nimport {Base64} from \"./../base/Base64.sol\";\nimport {Message} from \"./../axelar/Message.sol\";\n\nimport { AxelarExecutable } from '@axelar-network/axelar-gmp-sdk-solidity/contracts/executables/AxelarExecutable.sol';\nimport { IAxelarGateway } from '@axelar-network/axelar-gmp-sdk-solidity/contracts/interfaces/IAxelarGateway.sol';\nimport { IAxelarGasService } from '@axelar-network/axelar-gmp-sdk-solidity/contracts/interfaces/IAxelarGasService.sol';\n\ncontract Buidl is AxelarExecutable {\n    uint public testCount = 0;\n\n    address private deployer;\n\n    /* fee charged on every succesful subscription made */\n    uint256 private subscriptionFee = 8; // percentage rate\n\n    BdlNft private _bdlNft; // nft reward (coupon) contract\n    BdlToken private _bdlToken; // erc20(streamable token) contract\n    BdlCertificate private _bdlCertificate; // erc4973 certificate contract\n    BdlCourse private _bdlCourse; // course contract\n    Staking private _staking; // staking contract\n\n    // creators requirement\n    // these requirement helps us to filter fuds\n    // and abuse of the ecosystem\n    uint256 private creatorStakingFee = 2000 * 10**18;\n    uint256 private creatorStakingDuration = 365 days;\n\n    // earnings made on the platform so far\n    uint256 private platformEarnings = 0;\n\n    // ecosystem users\n    mapping(address => Models.User) public users;\n    mapping(address => Models.Revenue) public revenues;\n\n    IAxelarGasService public immutable gasReceiver;\n\n    // contructor\n    constructor(\n        address bdlToken,\n        address bdlNft,\n        address bdlCertificate,\n        address bdlCourse,\n        address staking,\n        address gateway_,\n        address gasReceiver_\n    ) AxelarExecutable(gateway_) {\n        deployer = msg.sender;\n\n        _bdlNft = BdlNft(bdlNft);\n        _bdlToken = BdlToken(bdlToken);\n        _bdlCertificate = BdlCertificate(bdlCertificate);\n        _bdlCourse = BdlCourse(bdlCourse);\n        _staking = Staking(staking);\n\n        gasReceiver = IAxelarGasService(gasReceiver_);\n    }\n\n    /* creates user metadata */\n    function setAccount(string memory name, string memory photo) public {\n        emit User(msg.sender, name, photo, users[msg.sender].verified);\n    }\n\n    /* stake in the smart contract */\n    function stake(uint256 amount) public {\n        _bdlToken.approve(msg.sender, address(this), amount);\n        _bdlToken.transferFrom(msg.sender, address(this), amount);\n        _staking.stake(\n            msg.sender,\n            amount,\n            block.timestamp + creatorStakingDuration,\n            0\n        );\n    }\n\n    /* unlock creator */\n    function unlockCreator() public notVerified {\n        // check if user has staked min requirement\n        require(\n            _staking.hasStaked(creatorStakingFee, msg.sender),\n            \"!stake_requirement_first\"\n        );\n\n        users[msg.sender].verified = true;\n        emit Creator(msg.sender, true);\n    }\n\n    /* remove creator */\n    function removeCreator() public onlyVerified {\n        users[msg.sender].verified = false;\n        emit Creator(msg.sender, false);\n    }\n\n    /* subscribe to a course */\n    /* params course id */\n    function subscribe(uint id, uint256 nftId) public {\n        uint offPercentage = 0;\n        if (nftId != 0) {\n            // offPercentage = _bdlNft.tokenPercentages[nftId];\n        }\n        _subscribe(id, nftId, offPercentage, msg.sender);\n    }\n\n    /* subscribe to a course */\n    /* params course id */\n    function unSubscribe(uint id) public {\n        (\n            uint256 payableAmount,\n            uint256 earnings,\n            address creator,\n            uint256 price,\n            uint256 _platformEarnings\n        ) = _bdlCourse.unSubscribe(id, msg.sender);\n\n        // refund the user from the contract\n        _bdlToken.transfer(msg.sender, payableAmount);\n\n        // deduct creator's unclaimed revenue\n        revenues[creator].unclaimed -= price;\n\n        // credit creator earnings from the refunded course\n        revenues[creator].claimable += earnings;\n\n        // credit platform from the refunded course\n        platformEarnings += _platformEarnings;\n    }\n\n    /* deployer to cashout earnings */\n    function withdrawPlatformFee(uint256 amount) public onlyDeployer {\n        require(platformEarnings >= amount, \"insuficcient tokens\");\n        platformEarnings -= amount;\n        _bdlToken.transfer(deployer, amount);\n    }\n\n    function onCourseComplete(uint id, string memory certificateUri) public {\n        (bool isCertificate, uint256 coursePrice) = _bdlCourse.onCourseComplete(\n            id,\n            msg.sender\n        );\n\n        // checks if contents will award subscriber\n        // a certificate for completing their study\n        if (isCertificate) {\n            /* issue certificate to subscriber */\n            _bdlCertificate.issue(msg.sender, certificateUri);\n        }\n\n        /*\n         mint the coupon reward nft for\n         user for completion\n        */\n        _bdlNft.mint(msg.sender, coursePrice);\n    }\n\n    // ========== CORE IMPLEMENTIONS\n\n    /* subscribe to a course */\n    /* params course id */\n    function _subscribe(\n        uint id,\n        uint256 nftId,\n        uint offPercentage,\n        address subscriber\n    ) private {\n        (uint256 price, address creator) = _bdlCourse.subscribe(id, subscriber);\n\n        /* payment are locked in the smart contract */\n        /* the course creator will be able to claim it after two weeks */\n        /* if the course wasn't refunded by the subscriber */\n\n        /* increase creator's unclaimed revenue */\n        revenues[creator].unclaimed += price;\n        uint256 priceCharge = price;\n\n        if (nftId > 0) {\n            // coupon detected\n            // verifies the sender id the true owner\n            require(_bdlNft.ownerOf(nftId) == subscriber, \"!authorized\");\n\n            priceCharge = (price * (offPercentage / 100));\n\n            // burn the nft\n            _bdlNft.burn(nftId);\n        }\n\n        _bdlToken.approve(subscriber, address(this), priceCharge);\n        _bdlToken.transferFrom(subscriber, address(this), priceCharge);\n    }\n\n    // ========== AXELAR MESSAGE RECEIVER ============== //\n\n    /* Axelar message reciever function */\n    function _execute(\n        string calldata, /* sourceChain */\n        string calldata, /* sourceAddress */\n        bytes calldata payload\n    ) internal override {\n        //  require(sourceAddress.toAddress() == _sourceAddress, '!unathorized');\n\n        testCount++;\n\n        (uint topic, bytes memory _payload) = Message.unPackMessage(payload);\n\n        /* message is a subscribe call */\n        if (topic == Message.SUBSCRIBE) {\n            (uint courseId, uint256 nftId, address subscriber) = abi.decode(\n                _payload,\n                (uint, uint256, address)\n            );\n\n            uint offPercentage = 0;\n            if (nftId != 0) {\n                // offPercentage = _bdlNft.tokenPercentages[nftId];\n            }\n            _subscribe(courseId, nftId, offPercentage, subscriber);\n        }\n    }\n\n    modifier onlyVerified() {\n        /* only account that has staked atleast 2000 BDL token */\n        require(users[msg.sender].verified, \"!authorized\");\n        _;\n    }\n\n    modifier notVerified() {\n        /* only account that hasn't staked atleast 2000 BDL token */\n        require(!users[msg.sender].verified, \"!authorized\");\n        _;\n    }\n\n    modifier onlyDeployer() {\n        /* only account that deployed the contract */\n        require(msg.sender == deployer, \"!authorized\");\n        _;\n    }\n\n    // == events == //\n    event User(address owner, string name, string photo, bool verified);\n    event Creator(address owner, bool verified);\n}\n",
  "sourcePath": "C:\\Users\\Arogundade Ibrahim\\Documents\\web3\\Buidl\\contracts\\buidl\\Buidl.sol",
  "compiler": {
    "name": "solc",
    "version": "0.8.16+commit.07a7930e.Emscripten.clang"
  },
  "schemaVersion": "3.4.10",
  "updatedAt": "2022-11-09T03:20:17.085Z",
  "devdoc": {
    "kind": "dev",
    "methods": {},
    "version": 1
  },
  "userdoc": {
    "kind": "user",
    "methods": {},
    "version": 1
  }
}