{
  "contractName": "Buidl",
  "abi": [
    {
      "inputs": [
        {
          "internalType": "address",
          "name": "_bdlToken",
          "type": "address"
        },
        {
          "internalType": "address",
          "name": "_bdlNft",
          "type": "address"
        },
        {
          "internalType": "address",
          "name": "_bdlCertificate",
          "type": "address"
        }
      ],
      "stateMutability": "nonpayable",
      "type": "constructor"
    },
    {
      "anonymous": false,
      "inputs": [
        {
          "indexed": false,
          "internalType": "address",
          "name": "student",
          "type": "address"
        },
        {
          "indexed": false,
          "internalType": "uint256",
          "name": "courseId",
          "type": "uint256"
        }
      ],
      "name": "CourseCompletion",
      "type": "event"
    },
    {
      "anonymous": false,
      "inputs": [
        {
          "indexed": false,
          "internalType": "address",
          "name": "intructor",
          "type": "address"
        },
        {
          "indexed": false,
          "internalType": "address",
          "name": "student",
          "type": "address"
        },
        {
          "indexed": false,
          "internalType": "uint256",
          "name": "courseId",
          "type": "uint256"
        }
      ],
      "name": "CoursePurchased",
      "type": "event"
    },
    {
      "anonymous": false,
      "inputs": [
        {
          "indexed": false,
          "internalType": "address",
          "name": "student",
          "type": "address"
        },
        {
          "indexed": false,
          "internalType": "uint256",
          "name": "courseId",
          "type": "uint256"
        },
        {
          "indexed": false,
          "internalType": "uint256",
          "name": "sectionsViewed",
          "type": "uint256"
        }
      ],
      "name": "CourseRefunded",
      "type": "event"
    },
    {
      "inputs": [
        {
          "internalType": "uint256",
          "name": "",
          "type": "uint256"
        }
      ],
      "name": "categories",
      "outputs": [
        {
          "internalType": "uint256",
          "name": "id",
          "type": "uint256"
        },
        {
          "internalType": "string",
          "name": "name",
          "type": "string"
        },
        {
          "internalType": "string",
          "name": "image",
          "type": "string"
        }
      ],
      "stateMutability": "view",
      "type": "function",
      "constant": true
    },
    {
      "inputs": [
        {
          "internalType": "uint256",
          "name": "",
          "type": "uint256"
        },
        {
          "internalType": "uint256",
          "name": "",
          "type": "uint256"
        }
      ],
      "name": "courseSections",
      "outputs": [
        {
          "internalType": "uint256",
          "name": "id",
          "type": "uint256"
        },
        {
          "internalType": "string",
          "name": "title",
          "type": "string"
        },
        {
          "internalType": "string",
          "name": "src",
          "type": "string"
        },
        {
          "internalType": "string",
          "name": "content",
          "type": "string"
        }
      ],
      "stateMutability": "view",
      "type": "function",
      "constant": true
    },
    {
      "inputs": [
        {
          "internalType": "uint256",
          "name": "",
          "type": "uint256"
        }
      ],
      "name": "courses",
      "outputs": [
        {
          "internalType": "uint256",
          "name": "id",
          "type": "uint256"
        },
        {
          "internalType": "string",
          "name": "name",
          "type": "string"
        },
        {
          "internalType": "string",
          "name": "description",
          "type": "string"
        },
        {
          "internalType": "uint256",
          "name": "categoryId",
          "type": "uint256"
        },
        {
          "internalType": "string",
          "name": "ipfsPhoto",
          "type": "string"
        },
        {
          "internalType": "address",
          "name": "instructor",
          "type": "address"
        },
        {
          "internalType": "uint256",
          "name": "price",
          "type": "uint256"
        },
        {
          "internalType": "string",
          "name": "metadata",
          "type": "string"
        },
        {
          "internalType": "bool",
          "name": "isPublished",
          "type": "bool"
        },
        {
          "internalType": "uint256",
          "name": "createdAt",
          "type": "uint256"
        },
        {
          "internalType": "uint256",
          "name": "updatedAt",
          "type": "uint256"
        }
      ],
      "stateMutability": "view",
      "type": "function",
      "constant": true
    },
    {
      "inputs": [
        {
          "internalType": "address",
          "name": "",
          "type": "address"
        }
      ],
      "name": "instructors",
      "outputs": [
        {
          "internalType": "uint256",
          "name": "id",
          "type": "uint256"
        },
        {
          "internalType": "string",
          "name": "firstName",
          "type": "string"
        },
        {
          "internalType": "string",
          "name": "lastName",
          "type": "string"
        },
        {
          "internalType": "string",
          "name": "location",
          "type": "string"
        },
        {
          "internalType": "uint256",
          "name": "gender",
          "type": "uint256"
        },
        {
          "internalType": "bool",
          "name": "isVerified",
          "type": "bool"
        },
        {
          "internalType": "string",
          "name": "ipfsPhoto",
          "type": "string"
        },
        {
          "internalType": "string",
          "name": "twitter",
          "type": "string"
        },
        {
          "internalType": "string",
          "name": "linkedin",
          "type": "string"
        },
        {
          "internalType": "uint256",
          "name": "createdAt",
          "type": "uint256"
        }
      ],
      "stateMutability": "view",
      "type": "function",
      "constant": true
    },
    {
      "inputs": [
        {
          "internalType": "address",
          "name": "",
          "type": "address"
        },
        {
          "internalType": "uint256",
          "name": "",
          "type": "uint256"
        }
      ],
      "name": "studentCourses",
      "outputs": [
        {
          "internalType": "uint256",
          "name": "courseId",
          "type": "uint256"
        },
        {
          "internalType": "uint256",
          "name": "purchasedAt",
          "type": "uint256"
        },
        {
          "internalType": "uint256",
          "name": "priceBought",
          "type": "uint256"
        }
      ],
      "stateMutability": "view",
      "type": "function",
      "constant": true
    },
    {
      "inputs": [
        {
          "internalType": "address",
          "name": "",
          "type": "address"
        }
      ],
      "name": "students",
      "outputs": [
        {
          "internalType": "uint256",
          "name": "id",
          "type": "uint256"
        },
        {
          "internalType": "string",
          "name": "name",
          "type": "string"
        },
        {
          "internalType": "string",
          "name": "emailAddress",
          "type": "string"
        },
        {
          "internalType": "uint256",
          "name": "gender",
          "type": "uint256"
        },
        {
          "internalType": "string",
          "name": "ipfsPhoto",
          "type": "string"
        },
        {
          "internalType": "string",
          "name": "country",
          "type": "string"
        },
        {
          "internalType": "uint256",
          "name": "createdAt",
          "type": "uint256"
        }
      ],
      "stateMutability": "view",
      "type": "function",
      "constant": true
    },
    {
      "inputs": [
        {
          "internalType": "uint256",
          "name": "amount",
          "type": "uint256"
        }
      ],
      "name": "setInstructorRegistrationFee",
      "outputs": [],
      "stateMutability": "nonpayable",
      "type": "function"
    },
    {
      "inputs": [
        {
          "internalType": "string",
          "name": "name",
          "type": "string"
        },
        {
          "internalType": "string",
          "name": "image",
          "type": "string"
        }
      ],
      "name": "addCategory",
      "outputs": [],
      "stateMutability": "nonpayable",
      "type": "function"
    },
    {
      "inputs": [
        {
          "internalType": "string",
          "name": "name",
          "type": "string"
        },
        {
          "internalType": "string",
          "name": "description",
          "type": "string"
        },
        {
          "internalType": "uint256",
          "name": "categoryId",
          "type": "uint256"
        }
      ],
      "name": "createCourse",
      "outputs": [],
      "stateMutability": "nonpayable",
      "type": "function"
    },
    {
      "inputs": [
        {
          "internalType": "string",
          "name": "name",
          "type": "string"
        },
        {
          "internalType": "string",
          "name": "description",
          "type": "string"
        },
        {
          "internalType": "uint256",
          "name": "categoryId",
          "type": "uint256"
        },
        {
          "internalType": "uint256",
          "name": "price",
          "type": "uint256"
        },
        {
          "internalType": "uint256",
          "name": "courseId",
          "type": "uint256"
        },
        {
          "internalType": "bool",
          "name": "publish",
          "type": "bool"
        }
      ],
      "name": "updateCourse",
      "outputs": [],
      "stateMutability": "nonpayable",
      "type": "function"
    },
    {
      "inputs": [
        {
          "internalType": "uint256",
          "name": "courseId",
          "type": "uint256"
        },
        {
          "internalType": "string",
          "name": "title",
          "type": "string"
        },
        {
          "internalType": "string",
          "name": "src",
          "type": "string"
        },
        {
          "internalType": "string",
          "name": "content",
          "type": "string"
        },
        {
          "internalType": "uint256",
          "name": "updateFor",
          "type": "uint256"
        }
      ],
      "name": "addSectionToCourse",
      "outputs": [],
      "stateMutability": "nonpayable",
      "type": "function"
    },
    {
      "inputs": [
        {
          "internalType": "uint256",
          "name": "courseId",
          "type": "uint256"
        },
        {
          "internalType": "uint256",
          "name": "sectionIndex",
          "type": "uint256"
        }
      ],
      "name": "deleteCourseSection",
      "outputs": [],
      "stateMutability": "nonpayable",
      "type": "function"
    },
    {
      "inputs": [
        {
          "internalType": "address",
          "name": "instructor",
          "type": "address"
        }
      ],
      "name": "getInstructorCoursesLength",
      "outputs": [
        {
          "internalType": "uint256",
          "name": "",
          "type": "uint256"
        }
      ],
      "stateMutability": "view",
      "type": "function",
      "constant": true
    },
    {
      "inputs": [
        {
          "internalType": "address",
          "name": "instructor",
          "type": "address"
        },
        {
          "internalType": "uint256",
          "name": "index",
          "type": "uint256"
        }
      ],
      "name": "getInstructorCourseIdAtIndex",
      "outputs": [
        {
          "internalType": "uint256",
          "name": "",
          "type": "uint256"
        }
      ],
      "stateMutability": "view",
      "type": "function",
      "constant": true
    },
    {
      "inputs": [
        {
          "internalType": "string",
          "name": "firstName",
          "type": "string"
        },
        {
          "internalType": "string",
          "name": "lastName",
          "type": "string"
        },
        {
          "internalType": "string",
          "name": "location",
          "type": "string"
        },
        {
          "internalType": "uint256",
          "name": "gender",
          "type": "uint256"
        }
      ],
      "name": "createInstructorAccount",
      "outputs": [],
      "stateMutability": "nonpayable",
      "type": "function"
    },
    {
      "inputs": [
        {
          "internalType": "string",
          "name": "name",
          "type": "string"
        },
        {
          "internalType": "string",
          "name": "email",
          "type": "string"
        },
        {
          "internalType": "uint256",
          "name": "gender",
          "type": "uint256"
        }
      ],
      "name": "createStudentAccount",
      "outputs": [],
      "stateMutability": "nonpayable",
      "type": "function"
    },
    {
      "inputs": [
        {
          "internalType": "uint256",
          "name": "courseId",
          "type": "uint256"
        }
      ],
      "name": "purchaseCourse",
      "outputs": [],
      "stateMutability": "nonpayable",
      "type": "function"
    },
    {
      "inputs": [
        {
          "internalType": "uint256",
          "name": "courseId",
          "type": "uint256"
        },
        {
          "internalType": "uint256",
          "name": "sections",
          "type": "uint256"
        },
        {
          "internalType": "uint256",
          "name": "sectionsViewed",
          "type": "uint256"
        }
      ],
      "name": "rejectCourse",
      "outputs": [],
      "stateMutability": "nonpayable",
      "type": "function"
    },
    {
      "inputs": [
        {
          "internalType": "uint256",
          "name": "courseId",
          "type": "uint256"
        },
        {
          "internalType": "string",
          "name": "certificateUri",
          "type": "string"
        },
        {
          "internalType": "string",
          "name": "nftUri",
          "type": "string"
        }
      ],
      "name": "onCompletedCourse",
      "outputs": [],
      "stateMutability": "nonpayable",
      "type": "function"
    },
    {
      "inputs": [],
      "name": "faucetMint",
      "outputs": [],
      "stateMutability": "nonpayable",
      "type": "function"
    }
  ],
  "bytecode": "0x60806040526001600455600160055560016006556001600755686c6b935b8bbd4000006008553480156200003257600080fd5b50604051620061013803806200610183398181016040528101906200005891906200072e565b336000806101000a81548173ffffffffffffffffffffffffffffffffffffffff021916908373ffffffffffffffffffffffffffffffffffffffff16021790555082600160006101000a81548173ffffffffffffffffffffffffffffffffffffffff021916908373ffffffffffffffffffffffffffffffffffffffff16021790555081600260006101000a81548173ffffffffffffffffffffffffffffffffffffffff021916908373ffffffffffffffffffffffffffffffffffffffff16021790555080600360006101000a81548173ffffffffffffffffffffffffffffffffffffffff021916908373ffffffffffffffffffffffffffffffffffffffff1602179055506200016b6200017460201b60201c565b50505062000bea565b620001d46040518060400160405280600f81526020017f57656220446576656c6f706d656e7400000000000000000000000000000000008152506040518060600160405280602781526020016200609560279139620005a660201b60201c565b620002506040518060400160405280600781526020017f436f6f6b696e67000000000000000000000000000000000000000000000000008152506040518060400160405280601f81526020017f2f696d616765732f63617465676f726965732f636f6f6b696e672e7765627000815250620005a660201b60201c565b620002cc6040518060400160405280600f81526020017f55492f55582044657369676e696e6700000000000000000000000000000000008152506040518060400160405280601d81526020017f2f696d616765732f63617465676f726965732f75692d75782e77656270000000815250620005a660201b60201c565b6200032c6040518060400160405280600c81526020017f334420416e696d6174696f6e00000000000000000000000000000000000000008152506040518060600160405280602181526020016200605160219139620005a660201b60201c565b6200038c6040518060400160405280600c81526020017f496c6c757374726174696f6e00000000000000000000000000000000000000008152506040518060600160405280602481526020016200602d60249139620005a660201b60201c565b620003ec6040518060400160405280600c81526020017f4461746120536369656e63650000000000000000000000000000000000000000815250604051806060016040528060248152602001620060bc60249139620005a660201b60201c565b620004686040518060400160405280600881526020017f537065616b696e670000000000000000000000000000000000000000000000008152506040518060400160405280602081526020017f2f696d616765732f63617465676f726965732f737065616b696e672e77656270815250620005a660201b60201c565b620004e46040518060400160405280600581526020017f4d757369630000000000000000000000000000000000000000000000000000008152506040518060400160405280601d81526020017f2f696d616765732f63617465676f726965732f6d757369632e77656270000000815250620005a660201b60201c565b620005446040518060400160405280600b81526020017f50686f746f6772617068790000000000000000000000000000000000000000008152506040518060600160405280602381526020016200607260239139620005a660201b60201c565b620005a46040518060400160405280600981526020017f4d61726b6574696e670000000000000000000000000000000000000000000000815250604051806060016040528060218152602001620060e060219139620005a660201b60201c565b565b60008054906101000a900473ffffffffffffffffffffffffffffffffffffffff1673ffffffffffffffffffffffffffffffffffffffff163373ffffffffffffffffffffffffffffffffffffffff161462000637576040517f08c379a00000000000000000000000000000000000000000000000000000000081526004016200062e90620007eb565b60405180910390fd5b60405180606001604052806007548152602001838152602001828152506009600060075481526020019081526020016000206000820151816000015560208201518160010190816200068a919062000a87565b506040820151816002019081620006a2919062000a87565b5090505060076000815480929190620006bb9062000b9d565b91905055505050565b600080fd5b600073ffffffffffffffffffffffffffffffffffffffff82169050919050565b6000620006f682620006c9565b9050919050565b6200070881620006e9565b81146200071457600080fd5b50565b6000815190506200072881620006fd565b92915050565b6000806000606084860312156200074a5762000749620006c4565b5b60006200075a8682870162000717565b93505060206200076d8682870162000717565b9250506040620007808682870162000717565b9150509250925092565b600082825260208201905092915050565b7f21617574686f72697a6564000000000000000000000000000000000000000000600082015250565b6000620007d3600b836200078a565b9150620007e0826200079b565b602082019050919050565b600060208201905081810360008301526200080681620007c4565b9050919050565b600081519050919050565b7f4e487b7100000000000000000000000000000000000000000000000000000000600052604160045260246000fd5b7f4e487b7100000000000000000000000000000000000000000000000000000000600052602260045260246000fd5b600060028204905060018216806200088f57607f821691505b602082108103620008a557620008a462000847565b5b50919050565b60008190508160005260206000209050919050565b60006020601f8301049050919050565b600082821b905092915050565b6000600883026200090f7fffffffffffffffffffffffffffffffffffffffffffffffffffffffffffffffff82620008d0565b6200091b8683620008d0565b95508019841693508086168417925050509392505050565b6000819050919050565b6000819050919050565b600062000968620009626200095c8462000933565b6200093d565b62000933565b9050919050565b6000819050919050565b620009848362000947565b6200099c62000993826200096f565b848454620008dd565b825550505050565b600090565b620009b3620009a4565b620009c081848462000979565b505050565b5b81811015620009e857620009dc600082620009a9565b600181019050620009c6565b5050565b601f82111562000a375762000a0181620008ab565b62000a0c84620008c0565b8101602085101562000a1c578190505b62000a3462000a2b85620008c0565b830182620009c5565b50505b505050565b600082821c905092915050565b600062000a5c6000198460080262000a3c565b1980831691505092915050565b600062000a77838362000a49565b9150826002028217905092915050565b62000a92826200080d565b67ffffffffffffffff81111562000aae5762000aad62000818565b5b62000aba825462000876565b62000ac7828285620009ec565b600060209050601f83116001811462000aff576000841562000aea578287015190505b62000af6858262000a69565b86555062000b66565b601f19841662000b0f86620008ab565b60005b8281101562000b395784890151825560018201915060208501945060208101905062000b12565b8683101562000b59578489015162000b55601f89168262000a49565b8355505b6001600288020188555050505b505050505050565b7f4e487b7100000000000000000000000000000000000000000000000000000000600052601160045260246000fd5b600062000baa8262000933565b91507fffffffffffffffffffffffffffffffffffffffffffffffffffffffffffffffff820362000bdf5762000bde62000b6e565b5b600182019050919050565b6154338062000bfa6000396000f3fe608060405234801561001057600080fd5b506004361061012c5760003560e01c8063a4adb24b116100ad578063d031a83411610071578063d031a83414610359578063e4bcf87d14610389578063eaa1612f146103a5578063fd95cc51146103c1578063ffb119ef146103f35761012c565b8063a4adb24b1461029d578063a6c807a9146102b9578063b0f8158c146102ef578063c6cdbe5e1461030b578063cd1319381461033d5761012c565b806318222d5e116100f457806318222d5e146101c25780631bf703b2146101f25780632a47d91c1461020e5780635a6373841461024757806396f979d2146102635761012c565b80630226b0b214610131578063097167ba146101645780630da079b4146101805780630f77df911461019c57806313eda8fc146101b8575b600080fd5b61014b60048036038101906101469190614289565b61040f565b60405161015b9493929190614368565b60405180910390f35b61017e600480360381019061017991906143c2565b6105f4565b005b61019a60048036038101906101959190614524565b61068c565b005b6101b660048036038101906101b191906145af565b610ba7565b005b6101c0610da8565b005b6101dc60048036038101906101d79190614698565b610e37565b6040516101e991906146d8565b60405180910390f35b61020c600480360381019061020791906146f3565b610ea0565b005b6102286004803603810190610223919061476b565b610fb5565b60405161023e9a999897969594939291906147b3565b60405180910390f35b610261600480360381019061025c9190614879565b611346565b005b61027d600480360381019061027891906143c2565b611b55565b6040516102949b9a99989796959493929190614943565b60405180910390f35b6102b760048036038101906102b29190614524565b611dfc565b005b6102d360048036038101906102ce919061476b565b6124cd565b6040516102e69796959493929190614a0a565b60405180910390f35b61030960048036038101906103049190614289565b61272f565b005b610325600480360381019061032091906143c2565b612d4d565b60405161033493929190614a95565b60405180910390f35b610357600480360381019061035291906143c2565b612e87565b005b610373600480360381019061036e919061476b565b6131c2565b60405161038091906146d8565b60405180910390f35b6103a3600480360381019061039e9190614ada565b613211565b005b6103bf60048036038101906103ba9190614ba9565b6138c9565b005b6103db60048036038101906103d69190614698565b613c31565b6040516103ea93929190614bfc565b60405180910390f35b61040d60048036038101906104089190614c5f565b613c78565b005b600e602052816000526040600020818154811061042b57600080fd5b90600052602060002090600402016000915091505080600001549080600101805461045590614d53565b80601f016020809104026020016040519081016040528092919081815260200182805461048190614d53565b80156104ce5780601f106104a3576101008083540402835291602001916104ce565b820191906000526020600020905b8154815290600101906020018083116104b157829003601f168201915b5050505050908060020180546104e390614d53565b80601f016020809104026020016040519081016040528092919081815260200182805461050f90614d53565b801561055c5780601f106105315761010080835404028352916020019161055c565b820191906000526020600020905b81548152906001019060200180831161053f57829003601f168201915b50505050509080600301805461057190614d53565b80601f016020809104026020016040519081016040528092919081815260200182805461059d90614d53565b80156105ea5780601f106105bf576101008083540402835291602001916105ea565b820191906000526020600020905b8154815290600101906020018083116105cd57829003601f168201915b5050505050905084565b60008054906101000a900473ffffffffffffffffffffffffffffffffffffffff1673ffffffffffffffffffffffffffffffffffffffff163373ffffffffffffffffffffffffffffffffffffffff1614610682576040517f08c379a000000000000000000000000000000000000000000000000000000000815260040161067990614dd0565b60405180910390fd5b8060088190555050565b6000600b60003373ffffffffffffffffffffffffffffffffffffffff1673ffffffffffffffffffffffffffffffffffffffff1681526020019081526020016000206000015414801561072057506000600a60003373ffffffffffffffffffffffffffffffffffffffff1673ffffffffffffffffffffffffffffffffffffffff16815260200190815260200160002060000154145b61075f576040517f08c379a000000000000000000000000000000000000000000000000000000000815260040161075690614dd0565b60405180910390fd5b6000600b60003373ffffffffffffffffffffffffffffffffffffffff1673ffffffffffffffffffffffffffffffffffffffff16815260200190815260200160002060405180610100016040529081600082015481526020016001820180546107c690614d53565b80601f01602080910402602001604051908101604052809291908181526020018280546107f290614d53565b801561083f5780601f106108145761010080835404028352916020019161083f565b820191906000526020600020905b81548152906001019060200180831161082257829003601f168201915b5050505050815260200160028201805461085890614d53565b80601f016020809104026020016040519081016040528092919081815260200182805461088490614d53565b80156108d15780601f106108a6576101008083540402835291602001916108d1565b820191906000526020600020905b8154815290600101906020018083116108b457829003601f168201915b50505050508152602001600382015481526020016004820180546108f490614d53565b80601f016020809104026020016040519081016040528092919081815260200182805461092090614d53565b801561096d5780601f106109425761010080835404028352916020019161096d565b820191906000526020600020905b81548152906001019060200180831161095057829003601f168201915b5050505050815260200160058201805461098690614d53565b80601f01602080910402602001604051908101604052809291908181526020018280546109b290614d53565b80156109ff5780601f106109d4576101008083540402835291602001916109ff565b820191906000526020600020905b8154815290600101906020018083116109e257829003601f168201915b505050505081526020016006820154815260200160078201805480602002602001604051908101604052809291908181526020018280548015610a6157602002820191906000526020600020905b815481526020019060010190808311610a4d575b50505050508152505090506040518061010001604052806005548152602001858152602001848152602001838152602001826080015181526020018260a0015181526020014281526020018260e00151815250600b60003373ffffffffffffffffffffffffffffffffffffffff1673ffffffffffffffffffffffffffffffffffffffff168152602001908152602001600020600082015181600001556020820151816001019081610b129190614f9c565b506040820151816002019081610b289190614f9c565b50606082015181600301556080820151816004019081610b489190614f9c565b5060a0820151816005019081610b5e9190614f9c565b5060c0820151816006015560e0820151816007019080519060200190610b8592919061410b565b5090505060056000815480929190610b9c9061509d565b919050555050505050565b6000600b60003373ffffffffffffffffffffffffffffffffffffffff1673ffffffffffffffffffffffffffffffffffffffff1681526020019081526020016000206000015403610c2c576040517f08c379a0000000000000000000000000000000000000000000000000000000008152600401610c2390614dd0565b60405180910390fd5b6000600c60008581526020019081526020016000206000015403610c85576040517f08c379a0000000000000000000000000000000000000000000000000000000008152600401610c7c90615131565b60405180910390fd5b600360009054906101000a900473ffffffffffffffffffffffffffffffffffffffff1673ffffffffffffffffffffffffffffffffffffffff166304b444d933846040518363ffffffff1660e01b8152600401610ce2929190615151565b600060405180830381600087803b158015610cfc57600080fd5b505af1158015610d10573d6000803e3d6000fd5b50505050600260009054906101000a900473ffffffffffffffffffffffffffffffffffffffff1673ffffffffffffffffffffffffffffffffffffffff1663d0def52133836040518363ffffffff1660e01b8152600401610d71929190615151565b600060405180830381600087803b158015610d8b57600080fd5b505af1158015610d9f573d6000803e3d6000fd5b50505050505050565b600160009054906101000a900473ffffffffffffffffffffffffffffffffffffffff1673ffffffffffffffffffffffffffffffffffffffff16636a627842336040518263ffffffff1660e01b8152600401610e039190615181565b600060405180830381600087803b158015610e1d57600080fd5b505af1158015610e31573d6000803e3d6000fd5b50505050565b6000600a60008473ffffffffffffffffffffffffffffffffffffffff1673ffffffffffffffffffffffffffffffffffffffff1681526020019081526020016000206009018281548110610e8d57610e8c61519c565b5b9060005260206000200154905092915050565b60008054906101000a900473ffffffffffffffffffffffffffffffffffffffff1673ffffffffffffffffffffffffffffffffffffffff163373ffffffffffffffffffffffffffffffffffffffff1614610f2e576040517f08c379a0000000000000000000000000000000000000000000000000000000008152600401610f2590614dd0565b60405180910390fd5b6040518060600160405280600754815260200183815260200182815250600960006007548152602001908152602001600020600082015181600001556020820151816001019081610f7f9190614f9c565b506040820151816002019081610f959190614f9c565b5090505060076000815480929190610fac9061509d565b91905055505050565b600a602052806000526040600020600091509050806000015490806001018054610fde90614d53565b80601f016020809104026020016040519081016040528092919081815260200182805461100a90614d53565b80156110575780601f1061102c57610100808354040283529160200191611057565b820191906000526020600020905b81548152906001019060200180831161103a57829003601f168201915b50505050509080600201805461106c90614d53565b80601f016020809104026020016040519081016040528092919081815260200182805461109890614d53565b80156110e55780601f106110ba576101008083540402835291602001916110e5565b820191906000526020600020905b8154815290600101906020018083116110c857829003601f168201915b5050505050908060030180546110fa90614d53565b80601f016020809104026020016040519081016040528092919081815260200182805461112690614d53565b80156111735780601f1061114857610100808354040283529160200191611173565b820191906000526020600020905b81548152906001019060200180831161115657829003601f168201915b5050505050908060040154908060050160009054906101000a900460ff16908060060180546111a190614d53565b80601f01602080910402602001604051908101604052809291908181526020018280546111cd90614d53565b801561121a5780601f106111ef5761010080835404028352916020019161121a565b820191906000526020600020905b8154815290600101906020018083116111fd57829003601f168201915b50505050509080600701805461122f90614d53565b80601f016020809104026020016040519081016040528092919081815260200182805461125b90614d53565b80156112a85780601f1061127d576101008083540402835291602001916112a8565b820191906000526020600020905b81548152906001019060200180831161128b57829003601f168201915b5050505050908060080180546112bd90614d53565b80601f01602080910402602001604051908101604052809291908181526020018280546112e990614d53565b80156113365780601f1061130b57610100808354040283529160200191611336565b820191906000526020600020905b81548152906001019060200180831161131957829003601f168201915b50505050509080600a015490508a565b6000600b60003373ffffffffffffffffffffffffffffffffffffffff1673ffffffffffffffffffffffffffffffffffffffff168152602001908152602001600020600001541480156113da57506000600a60003373ffffffffffffffffffffffffffffffffffffffff1673ffffffffffffffffffffffffffffffffffffffff16815260200190815260200160002060000154145b611419576040517f08c379a000000000000000000000000000000000000000000000000000000000815260040161141090614dd0565b60405180910390fd5b600160009054906101000a900473ffffffffffffffffffffffffffffffffffffffff1673ffffffffffffffffffffffffffffffffffffffff16636c43a2ca33306008546040518463ffffffff1660e01b815260040161147a939291906151cb565b6020604051808303816000875af1158015611499573d6000803e3d6000fd5b505050506040513d601f19601f820116820180604052508101906114bd9190615217565b50600160009054906101000a900473ffffffffffffffffffffffffffffffffffffffff1673ffffffffffffffffffffffffffffffffffffffff166323b872dd33306008546040518463ffffffff1660e01b815260040161151f939291906151cb565b6020604051808303816000875af115801561153e573d6000803e3d6000fd5b505050506040513d601f19601f820116820180604052508101906115629190615217565b506000600a60003373ffffffffffffffffffffffffffffffffffffffff1673ffffffffffffffffffffffffffffffffffffffff16815260200190815260200160002060405180610160016040529081600082015481526020016001820180546115ca90614d53565b80601f01602080910402602001604051908101604052809291908181526020018280546115f690614d53565b80156116435780601f1061161857610100808354040283529160200191611643565b820191906000526020600020905b81548152906001019060200180831161162657829003601f168201915b5050505050815260200160028201805461165c90614d53565b80601f016020809104026020016040519081016040528092919081815260200182805461168890614d53565b80156116d55780601f106116aa576101008083540402835291602001916116d5565b820191906000526020600020905b8154815290600101906020018083116116b857829003601f168201915b505050505081526020016003820180546116ee90614d53565b80601f016020809104026020016040519081016040528092919081815260200182805461171a90614d53565b80156117675780601f1061173c57610100808354040283529160200191611767565b820191906000526020600020905b81548152906001019060200180831161174a57829003601f168201915b50505050508152602001600482015481526020016005820160009054906101000a900460ff161515151581526020016006820180546117a590614d53565b80601f01602080910402602001604051908101604052809291908181526020018280546117d190614d53565b801561181e5780601f106117f35761010080835404028352916020019161181e565b820191906000526020600020905b81548152906001019060200180831161180157829003601f168201915b5050505050815260200160078201805461183790614d53565b80601f016020809104026020016040519081016040528092919081815260200182805461186390614d53565b80156118b05780601f10611885576101008083540402835291602001916118b0565b820191906000526020600020905b81548152906001019060200180831161189357829003601f168201915b505050505081526020016008820180546118c990614d53565b80601f01602080910402602001604051908101604052809291908181526020018280546118f590614d53565b80156119425780601f1061191757610100808354040283529160200191611942565b820191906000526020600020905b81548152906001019060200180831161192557829003601f168201915b505050505081526020016009820180548060200260200160405190810160405280929190818152602001828054801561199a57602002820191906000526020600020905b815481526020019060010190808311611986575b50505050508152602001600a82015481525050905060405180610160016040528060045481526020018681526020018581526020018481526020018381526020016000151581526020018260c0015181526020018260e0015181526020018261010001518152602001826101200151815260200142815250600a60003373ffffffffffffffffffffffffffffffffffffffff1673ffffffffffffffffffffffffffffffffffffffff168152602001908152602001600020600082015181600001556020820151816001019081611a709190614f9c565b506040820151816002019081611a869190614f9c565b506060820151816003019081611a9c9190614f9c565b506080820151816004015560a08201518160050160006101000a81548160ff02191690831515021790555060c0820151816006019081611adc9190614f9c565b5060e0820151816007019081611af29190614f9c565b50610100820151816008019081611b099190614f9c565b50610120820151816009019080519060200190611b2792919061410b565b5061014082015181600a015590505060046000815480929190611b499061509d565b91905055505050505050565b600c602052806000526040600020600091509050806000015490806001018054611b7e90614d53565b80601f0160208091040260200160405190810160405280929190818152602001828054611baa90614d53565b8015611bf75780601f10611bcc57610100808354040283529160200191611bf7565b820191906000526020600020905b815481529060010190602001808311611bda57829003601f168201915b505050505090806002018054611c0c90614d53565b80601f0160208091040260200160405190810160405280929190818152602001828054611c3890614d53565b8015611c855780601f10611c5a57610100808354040283529160200191611c85565b820191906000526020600020905b815481529060010190602001808311611c6857829003601f168201915b505050505090806003015490806004018054611ca090614d53565b80601f0160208091040260200160405190810160405280929190818152602001828054611ccc90614d53565b8015611d195780601f10611cee57610100808354040283529160200191611d19565b820191906000526020600020905b815481529060010190602001808311611cfc57829003601f168201915b5050505050908060050160009054906101000a900473ffffffffffffffffffffffffffffffffffffffff1690806008015490806009018054611d5a90614d53565b80601f0160208091040260200160405190810160405280929190818152602001828054611d8690614d53565b8015611dd35780601f10611da857610100808354040283529160200191611dd3565b820191906000526020600020905b815481529060010190602001808311611db657829003601f168201915b50505050509080600a0160009054906101000a900460ff169080600b01549080600c015490508b565b6000600a60003373ffffffffffffffffffffffffffffffffffffffff1673ffffffffffffffffffffffffffffffffffffffff1681526020019081526020016000206000015403611e81576040517f08c379a0000000000000000000000000000000000000000000000000000000008152600401611e7890614dd0565b60405180910390fd5b6000600c60006006548152602001908152602001600020604051806101a001604052908160008201548152602001600182018054611ebe90614d53565b80601f0160208091040260200160405190810160405280929190818152602001828054611eea90614d53565b8015611f375780601f10611f0c57610100808354040283529160200191611f37565b820191906000526020600020905b815481529060010190602001808311611f1a57829003601f168201915b50505050508152602001600282018054611f5090614d53565b80601f0160208091040260200160405190810160405280929190818152602001828054611f7c90614d53565b8015611fc95780601f10611f9e57610100808354040283529160200191611fc9565b820191906000526020600020905b815481529060010190602001808311611fac57829003601f168201915b5050505050815260200160038201548152602001600482018054611fec90614d53565b80601f016020809104026020016040519081016040528092919081815260200182805461201890614d53565b80156120655780601f1061203a57610100808354040283529160200191612065565b820191906000526020600020905b81548152906001019060200180831161204857829003601f168201915b505050505081526020016005820160009054906101000a900473ffffffffffffffffffffffffffffffffffffffff1673ffffffffffffffffffffffffffffffffffffffff1673ffffffffffffffffffffffffffffffffffffffff1681526020016006820180548060200260200160405190810160405280929190818152602001828054801561214957602002820191906000526020600020905b8160009054906101000a900473ffffffffffffffffffffffffffffffffffffffff1673ffffffffffffffffffffffffffffffffffffffff16815260200190600101908083116120ff575b50505050508152602001600782018054806020026020016040519081016040528092919081815260200182805480156121a157602002820191906000526020600020905b81548152602001906001019080831161218d575b50505050508152602001600882015481526020016009820180546121c490614d53565b80601f01602080910402602001604051908101604052809291908181526020018280546121f090614d53565b801561223d5780601f106122125761010080835404028352916020019161223d565b820191906000526020600020905b81548152906001019060200180831161222057829003601f168201915b50505050508152602001600a820160009054906101000a900460ff16151515158152602001600b8201548152602001600c820154815250509050604051806101a001604052806006548152602001858152602001848152602001838152602001826080015181526020013373ffffffffffffffffffffffffffffffffffffffff1681526020018260c0015181526020018260e00151815260200160008152602001826101200151815260200160001515815260200142815260200142815250600c600060065481526020019081526020016000206000820151816000015560208201518160010190816123309190614f9c565b5060408201518160020190816123469190614f9c565b506060820151816003015560808201518160040190816123669190614f9c565b5060a08201518160050160006101000a81548173ffffffffffffffffffffffffffffffffffffffff021916908373ffffffffffffffffffffffffffffffffffffffff16021790555060c08201518160060190805190602001906123ca929190614158565b5060e08201518160070190805190602001906123e792919061410b565b5061010082015181600801556101208201518160090190816124099190614f9c565b5061014082015181600a0160006101000a81548160ff02191690831515021790555061016082015181600b015561018082015181600c0155905050600a60003373ffffffffffffffffffffffffffffffffffffffff1673ffffffffffffffffffffffffffffffffffffffff1681526020019081526020016000206009016006549080600181540180825580915050600190039060005260206000200160009091909190915055600660008154809291906124c29061509d565b919050555050505050565b600b6020528060005260406000206000915090508060000154908060010180546124f690614d53565b80601f016020809104026020016040519081016040528092919081815260200182805461252290614d53565b801561256f5780601f106125445761010080835404028352916020019161256f565b820191906000526020600020905b81548152906001019060200180831161255257829003601f168201915b50505050509080600201805461258490614d53565b80601f01602080910402602001604051908101604052809291908181526020018280546125b090614d53565b80156125fd5780601f106125d2576101008083540402835291602001916125fd565b820191906000526020600020905b8154815290600101906020018083116125e057829003601f168201915b50505050509080600301549080600401805461261890614d53565b80601f016020809104026020016040519081016040528092919081815260200182805461264490614d53565b80156126915780601f1061266657610100808354040283529160200191612691565b820191906000526020600020905b81548152906001019060200180831161267457829003601f168201915b5050505050908060050180546126a690614d53565b80601f01602080910402602001604051908101604052809291908181526020018280546126d290614d53565b801561271f5780601f106126f45761010080835404028352916020019161271f565b820191906000526020600020905b81548152906001019060200180831161270257829003601f168201915b5050505050908060060154905087565b6000600a60003373ffffffffffffffffffffffffffffffffffffffff1673ffffffffffffffffffffffffffffffffffffffff16815260200190815260200160002060000154036127b4576040517f08c379a00000000000000000000000000000000000000000000000000000000081526004016127ab90614dd0565b60405180910390fd5b6000600c6000848152602001908152602001600020604051806101a0016040529081600082015481526020016001820180546127ef90614d53565b80601f016020809104026020016040519081016040528092919081815260200182805461281b90614d53565b80156128685780601f1061283d57610100808354040283529160200191612868565b820191906000526020600020905b81548152906001019060200180831161284b57829003601f168201915b5050505050815260200160028201805461288190614d53565b80601f01602080910402602001604051908101604052809291908181526020018280546128ad90614d53565b80156128fa5780601f106128cf576101008083540402835291602001916128fa565b820191906000526020600020905b8154815290600101906020018083116128dd57829003601f168201915b505050505081526020016003820154815260200160048201805461291d90614d53565b80601f016020809104026020016040519081016040528092919081815260200182805461294990614d53565b80156129965780601f1061296b57610100808354040283529160200191612996565b820191906000526020600020905b81548152906001019060200180831161297957829003601f168201915b505050505081526020016005820160009054906101000a900473ffffffffffffffffffffffffffffffffffffffff1673ffffffffffffffffffffffffffffffffffffffff1673ffffffffffffffffffffffffffffffffffffffff16815260200160068201805480602002602001604051908101604052809291908181526020018280548015612a7a57602002820191906000526020600020905b8160009054906101000a900473ffffffffffffffffffffffffffffffffffffffff1673ffffffffffffffffffffffffffffffffffffffff1681526020019060010190808311612a30575b5050505050815260200160078201805480602002602001604051908101604052809291908181526020018280548015612ad257602002820191906000526020600020905b815481526020019060010190808311612abe575b5050505050815260200160088201548152602001600982018054612af590614d53565b80601f0160208091040260200160405190810160405280929190818152602001828054612b2190614d53565b8015612b6e5780601f10612b4357610100808354040283529160200191612b6e565b820191906000526020600020905b815481529060010190602001808311612b5157829003601f168201915b50505050508152602001600a820160009054906101000a900460ff16151515158152602001600b8201548152602001600c8201548152505090506000816000015103612bef576040517f08c379a0000000000000000000000000000000000000000000000000000000008152600401612be690615131565b60405180910390fd5b3373ffffffffffffffffffffffffffffffffffffffff168160a0015173ffffffffffffffffffffffffffffffffffffffff1614612c61576040517f08c379a0000000000000000000000000000000000000000000000000000000008152600401612c5890614dd0565b60405180910390fd5b6000600e60008581526020019081526020016000208381548110612c8857612c8761519c565b5b90600052602060002090600402016000015403612cda576040517f08c379a0000000000000000000000000000000000000000000000000000000008152600401612cd190615131565b60405180910390fd5b600e60008481526020019081526020016000208281548110612cff57612cfe61519c565b5b9060005260206000209060040201600080820160009055600182016000612d2691906141e2565b600282016000612d3691906141e2565b600382016000612d4691906141e2565b5050505050565b6009602052806000526040600020600091509050806000015490806001018054612d7690614d53565b80601f0160208091040260200160405190810160405280929190818152602001828054612da290614d53565b8015612def5780601f10612dc457610100808354040283529160200191612def565b820191906000526020600020905b815481529060010190602001808311612dd257829003601f168201915b505050505090806002018054612e0490614d53565b80601f0160208091040260200160405190810160405280929190818152602001828054612e3090614d53565b8015612e7d5780601f10612e5257610100808354040283529160200191612e7d565b820191906000526020600020905b815481529060010190602001808311612e6057829003601f168201915b5050505050905083565b6000600b60003373ffffffffffffffffffffffffffffffffffffffff1673ffffffffffffffffffffffffffffffffffffffff1681526020019081526020016000206000015403612f0c576040517f08c379a0000000000000000000000000000000000000000000000000000000008152600401612f0390614dd0565b60405180910390fd5b6000600c600083815260200190815260200160002090506000816000015403612f6a576040517f08c379a0000000000000000000000000000000000000000000000000000000008152600401612f6190615131565b60405180910390fd5b600160009054906101000a900473ffffffffffffffffffffffffffffffffffffffff1673ffffffffffffffffffffffffffffffffffffffff16636c43a2ca333084600801546040518463ffffffff1660e01b8152600401612fcd939291906151cb565b6020604051808303816000875af1158015612fec573d6000803e3d6000fd5b505050506040513d601f19601f820116820180604052508101906130109190615217565b50600160009054906101000a900473ffffffffffffffffffffffffffffffffffffffff1673ffffffffffffffffffffffffffffffffffffffff166323b872dd333084600801546040518463ffffffff1660e01b8152600401613074939291906151cb565b6020604051808303816000875af1158015613093573d6000803e3d6000fd5b505050506040513d601f19601f820116820180604052508101906130b79190615217565b50600d60003373ffffffffffffffffffffffffffffffffffffffff1673ffffffffffffffffffffffffffffffffffffffff16815260200190815260200160002060405180606001604052808481526020014281526020018360080154815250908060018154018082558091505060019003906000526020600020906003020160009091909190915060008201518160000155602082015181600101556040820151816002015550507fba05698ffe932ba01d3d70f62a2e48d6719cc5df3bdcf9118015af495c4a39b18160050160009054906101000a900473ffffffffffffffffffffffffffffffffffffffff1633846040516131b6939291906151cb565b60405180910390a15050565b6000600a60008373ffffffffffffffffffffffffffffffffffffffff1673ffffffffffffffffffffffffffffffffffffffff168152602001908152602001600020600901805490509050919050565b6000600a60003373ffffffffffffffffffffffffffffffffffffffff1673ffffffffffffffffffffffffffffffffffffffff1681526020019081526020016000206000015403613296576040517f08c379a000000000000000000000000000000000000000000000000000000000815260040161328d90614dd0565b60405180910390fd5b6000600c6000878152602001908152602001600020604051806101a0016040529081600082015481526020016001820180546132d190614d53565b80601f01602080910402602001604051908101604052809291908181526020018280546132fd90614d53565b801561334a5780601f1061331f5761010080835404028352916020019161334a565b820191906000526020600020905b81548152906001019060200180831161332d57829003601f168201915b5050505050815260200160028201805461336390614d53565b80601f016020809104026020016040519081016040528092919081815260200182805461338f90614d53565b80156133dc5780601f106133b1576101008083540402835291602001916133dc565b820191906000526020600020905b8154815290600101906020018083116133bf57829003601f168201915b50505050508152602001600382015481526020016004820180546133ff90614d53565b80601f016020809104026020016040519081016040528092919081815260200182805461342b90614d53565b80156134785780601f1061344d57610100808354040283529160200191613478565b820191906000526020600020905b81548152906001019060200180831161345b57829003601f168201915b505050505081526020016005820160009054906101000a900473ffffffffffffffffffffffffffffffffffffffff1673ffffffffffffffffffffffffffffffffffffffff1673ffffffffffffffffffffffffffffffffffffffff1681526020016006820180548060200260200160405190810160405280929190818152602001828054801561355c57602002820191906000526020600020905b8160009054906101000a900473ffffffffffffffffffffffffffffffffffffffff1673ffffffffffffffffffffffffffffffffffffffff1681526020019060010190808311613512575b50505050508152602001600782018054806020026020016040519081016040528092919081815260200182805480156135b457602002820191906000526020600020905b8154815260200190600101908083116135a0575b50505050508152602001600882015481526020016009820180546135d790614d53565b80601f016020809104026020016040519081016040528092919081815260200182805461360390614d53565b80156136505780601f1061362557610100808354040283529160200191613650565b820191906000526020600020905b81548152906001019060200180831161363357829003601f168201915b50505050508152602001600a820160009054906101000a900460ff16151515158152602001600b8201548152602001600c82015481525050905060008160000151036136d1576040517f08c379a00000000000000000000000000000000000000000000000000000000081526004016136c890615131565b60405180910390fd5b3373ffffffffffffffffffffffffffffffffffffffff168160a0015173ffffffffffffffffffffffffffffffffffffffff1614613743576040517f08c379a000000000000000000000000000000000000000000000000000000000815260040161373a90614dd0565b60405180910390fd5b6000820361381d57600e600087815260200190815260200160002060405180608001604052806001600e60008b81526020019081526020016000208054905061378c9190615244565b81526020018781526020018681526020018581525090806001815401808255809150506001900390600052602060002090600402016000909190919091506000820151816000015560208201518160010190816137e99190614f9c565b5060408201518160020190816137ff9190614f9c565b5060608201518160030190816138159190614f9c565b5050506138c1565b604051806080016040528083815260200186815260200185815260200184815250600e600088815260200190815260200160002083815481106138635761386261519c565b5b90600052602060002090600402016000820151816000015560208201518160010190816138909190614f9c565b5060408201518160020190816138a69190614f9c565b5060608201518160030190816138bc9190614f9c565b509050505b505050505050565b6000600b60003373ffffffffffffffffffffffffffffffffffffffff1673ffffffffffffffffffffffffffffffffffffffff168152602001908152602001600020600001540361394e576040517f08c379a000000000000000000000000000000000000000000000000000000000815260040161394590614dd0565b60405180910390fd5b60006348190800600d60003373ffffffffffffffffffffffffffffffffffffffff1673ffffffffffffffffffffffffffffffffffffffff16815260200190815260200160002085815481106139a6576139a561519c565b5b9060005260206000209060030201600101546139c29190615244565b90506000600d60003373ffffffffffffffffffffffffffffffffffffffff1673ffffffffffffffffffffffffffffffffffffffff1681526020019081526020016000208581548110613a1757613a1661519c565b5b9060005260206000209060030201600201549050814210613a6d576040517f08c379a0000000000000000000000000000000000000000000000000000000008152600401613a64906152c4565b60405180910390fd5b60008385613a7b91906152e4565b905060008111613ac0576040517f08c379a0000000000000000000000000000000000000000000000000000000008152600401613ab790615364565b60405180910390fd5b60008282613ace9190615384565b9050600d60003373ffffffffffffffffffffffffffffffffffffffff1673ffffffffffffffffffffffffffffffffffffffff1681526020019081526020016000208781548110613b2157613b2061519c565b5b9060005260206000209060030201600080820160009055600182016000905560028201600090555050600160009054906101000a900473ffffffffffffffffffffffffffffffffffffffff1673ffffffffffffffffffffffffffffffffffffffff166323b872dd3033846040518463ffffffff1660e01b8152600401613ba9939291906151cb565b6020604051808303816000875af1158015613bc8573d6000803e3d6000fd5b505050506040513d601f19601f82011682018060405250810190613bec9190615217565b507fb51fb992b7d4733d1ea94729ea1cad9c8ef10506a0aef7c79a532754f57fe88a338887604051613c20939291906153c6565b60405180910390a150505050505050565b600d6020528160005260406000208181548110613c4d57600080fd5b9060005260206000209060030201600091509150508060000154908060010154908060020154905083565b6000600a60003373ffffffffffffffffffffffffffffffffffffffff1673ffffffffffffffffffffffffffffffffffffffff1681526020019081526020016000206000015403613cfd576040517f08c379a0000000000000000000000000000000000000000000000000000000008152600401613cf490614dd0565b60405180910390fd5b604051806101a00160405280838152602001878152602001868152602001858152602001600c60008581526020019081526020016000206004018054613d4290614d53565b80601f0160208091040260200160405190810160405280929190818152602001828054613d6e90614d53565b8015613dbb5780601f10613d9057610100808354040283529160200191613dbb565b820191906000526020600020905b815481529060010190602001808311613d9e57829003601f168201915b505050505081526020013373ffffffffffffffffffffffffffffffffffffffff168152602001600c6000858152602001908152602001600020600601805480602002602001604051908101604052809291908181526020018280548015613e7757602002820191906000526020600020905b8160009054906101000a900473ffffffffffffffffffffffffffffffffffffffff1673ffffffffffffffffffffffffffffffffffffffff1681526020019060010190808311613e2d575b50505050508152602001600c6000858152602001908152602001600020600701805480602002602001604051908101604052809291908181526020018280548015613ee157602002820191906000526020600020905b815481526020019060010190808311613ecd575b50505050508152602001848152602001600c60008581526020019081526020016000206009018054613f1290614d53565b80601f0160208091040260200160405190810160405280929190818152602001828054613f3e90614d53565b8015613f8b5780601f10613f6057610100808354040283529160200191613f8b565b820191906000526020600020905b815481529060010190602001808311613f6e57829003601f168201915b505050505081526020018215158152602001600c6000858152602001908152602001600020600b0154815260200142815250600c6000848152602001908152602001600020600082015181600001556020820151816001019081613fef9190614f9c565b5060408201518160020190816140059190614f9c565b506060820151816003015560808201518160040190816140259190614f9c565b5060a08201518160050160006101000a81548173ffffffffffffffffffffffffffffffffffffffff021916908373ffffffffffffffffffffffffffffffffffffffff16021790555060c0820151816006019080519060200190614089929190614158565b5060e08201518160070190805190602001906140a692919061410b565b5061010082015181600801556101208201518160090190816140c89190614f9c565b5061014082015181600a0160006101000a81548160ff02191690831515021790555061016082015181600b015561018082015181600c0155905050505050505050565b828054828255906000526020600020908101928215614147579160200282015b8281111561414657825182559160200191906001019061412b565b5b5090506141549190614222565b5090565b8280548282559060005260206000209081019282156141d1579160200282015b828111156141d05782518260006101000a81548173ffffffffffffffffffffffffffffffffffffffff021916908373ffffffffffffffffffffffffffffffffffffffff16021790555091602001919060010190614178565b5b5090506141de9190614222565b5090565b5080546141ee90614d53565b6000825580601f10614200575061421f565b601f01602090049060005260206000209081019061421e9190614222565b5b50565b5b8082111561423b576000816000905550600101614223565b5090565b6000604051905090565b600080fd5b600080fd5b6000819050919050565b61426681614253565b811461427157600080fd5b50565b6000813590506142838161425d565b92915050565b600080604083850312156142a05761429f614249565b5b60006142ae85828601614274565b92505060206142bf85828601614274565b9150509250929050565b6142d281614253565b82525050565b600081519050919050565b600082825260208201905092915050565b60005b838110156143125780820151818401526020810190506142f7565b60008484015250505050565b6000601f19601f8301169050919050565b600061433a826142d8565b61434481856142e3565b93506143548185602086016142f4565b61435d8161431e565b840191505092915050565b600060808201905061437d60008301876142c9565b818103602083015261438f818661432f565b905081810360408301526143a3818561432f565b905081810360608301526143b7818461432f565b905095945050505050565b6000602082840312156143d8576143d7614249565b5b60006143e684828501614274565b91505092915050565b600080fd5b600080fd5b7f4e487b7100000000000000000000000000000000000000000000000000000000600052604160045260246000fd5b6144318261431e565b810181811067ffffffffffffffff821117156144505761444f6143f9565b5b80604052505050565b600061446361423f565b905061446f8282614428565b919050565b600067ffffffffffffffff82111561448f5761448e6143f9565b5b6144988261431e565b9050602081019050919050565b82818337600083830152505050565b60006144c76144c284614474565b614459565b9050828152602081018484840111156144e3576144e26143f4565b5b6144ee8482856144a5565b509392505050565b600082601f83011261450b5761450a6143ef565b5b813561451b8482602086016144b4565b91505092915050565b60008060006060848603121561453d5761453c614249565b5b600084013567ffffffffffffffff81111561455b5761455a61424e565b5b614567868287016144f6565b935050602084013567ffffffffffffffff8111156145885761458761424e565b5b614594868287016144f6565b92505060406145a586828701614274565b9150509250925092565b6000806000606084860312156145c8576145c7614249565b5b60006145d686828701614274565b935050602084013567ffffffffffffffff8111156145f7576145f661424e565b5b614603868287016144f6565b925050604084013567ffffffffffffffff8111156146245761462361424e565b5b614630868287016144f6565b9150509250925092565b600073ffffffffffffffffffffffffffffffffffffffff82169050919050565b60006146658261463a565b9050919050565b6146758161465a565b811461468057600080fd5b50565b6000813590506146928161466c565b92915050565b600080604083850312156146af576146ae614249565b5b60006146bd85828601614683565b92505060206146ce85828601614274565b9150509250929050565b60006020820190506146ed60008301846142c9565b92915050565b6000806040838503121561470a57614709614249565b5b600083013567ffffffffffffffff8111156147285761472761424e565b5b614734858286016144f6565b925050602083013567ffffffffffffffff8111156147555761475461424e565b5b614761858286016144f6565b9150509250929050565b60006020828403121561478157614780614249565b5b600061478f84828501614683565b91505092915050565b60008115159050919050565b6147ad81614798565b82525050565b6000610140820190506147c9600083018d6142c9565b81810360208301526147db818c61432f565b905081810360408301526147ef818b61432f565b90508181036060830152614803818a61432f565b905061481260808301896142c9565b61481f60a08301886147a4565b81810360c0830152614831818761432f565b905081810360e0830152614845818661432f565b905081810361010083015261485a818561432f565b905061486a6101208301846142c9565b9b9a5050505050505050505050565b6000806000806080858703121561489357614892614249565b5b600085013567ffffffffffffffff8111156148b1576148b061424e565b5b6148bd878288016144f6565b945050602085013567ffffffffffffffff8111156148de576148dd61424e565b5b6148ea878288016144f6565b935050604085013567ffffffffffffffff81111561490b5761490a61424e565b5b614917878288016144f6565b925050606061492887828801614274565b91505092959194509250565b61493d8161465a565b82525050565b600061016082019050614959600083018e6142c9565b818103602083015261496b818d61432f565b9050818103604083015261497f818c61432f565b905061498e606083018b6142c9565b81810360808301526149a0818a61432f565b90506149af60a0830189614934565b6149bc60c08301886142c9565b81810360e08301526149ce818761432f565b90506149de6101008301866147a4565b6149ec6101208301856142c9565b6149fa6101408301846142c9565b9c9b505050505050505050505050565b600060e082019050614a1f600083018a6142c9565b8181036020830152614a31818961432f565b90508181036040830152614a45818861432f565b9050614a5460608301876142c9565b8181036080830152614a66818661432f565b905081810360a0830152614a7a818561432f565b9050614a8960c08301846142c9565b98975050505050505050565b6000606082019050614aaa60008301866142c9565b8181036020830152614abc818561432f565b90508181036040830152614ad0818461432f565b9050949350505050565b600080600080600060a08688031215614af657614af5614249565b5b6000614b0488828901614274565b955050602086013567ffffffffffffffff811115614b2557614b2461424e565b5b614b31888289016144f6565b945050604086013567ffffffffffffffff811115614b5257614b5161424e565b5b614b5e888289016144f6565b935050606086013567ffffffffffffffff811115614b7f57614b7e61424e565b5b614b8b888289016144f6565b9250506080614b9c88828901614274565b9150509295509295909350565b600080600060608486031215614bc257614bc1614249565b5b6000614bd086828701614274565b9350506020614be186828701614274565b9250506040614bf286828701614274565b9150509250925092565b6000606082019050614c1160008301866142c9565b614c1e60208301856142c9565b614c2b60408301846142c9565b949350505050565b614c3c81614798565b8114614c4757600080fd5b50565b600081359050614c5981614c33565b92915050565b60008060008060008060c08789031215614c7c57614c7b614249565b5b600087013567ffffffffffffffff811115614c9a57614c9961424e565b5b614ca689828a016144f6565b965050602087013567ffffffffffffffff811115614cc757614cc661424e565b5b614cd389828a016144f6565b9550506040614ce489828a01614274565b9450506060614cf589828a01614274565b9350506080614d0689828a01614274565b92505060a0614d1789828a01614c4a565b9150509295509295509295565b7f4e487b7100000000000000000000000000000000000000000000000000000000600052602260045260246000fd5b60006002820490506001821680614d6b57607f821691505b602082108103614d7e57614d7d614d24565b5b50919050565b7f21617574686f72697a6564000000000000000000000000000000000000000000600082015250565b6000614dba600b836142e3565b9150614dc582614d84565b602082019050919050565b60006020820190508181036000830152614de981614dad565b9050919050565b60008190508160005260206000209050919050565b60006020601f8301049050919050565b600082821b905092915050565b600060088302614e527fffffffffffffffffffffffffffffffffffffffffffffffffffffffffffffffff82614e15565b614e5c8683614e15565b95508019841693508086168417925050509392505050565b6000819050919050565b6000614e99614e94614e8f84614253565b614e74565b614253565b9050919050565b6000819050919050565b614eb383614e7e565b614ec7614ebf82614ea0565b848454614e22565b825550505050565b600090565b614edc614ecf565b614ee7818484614eaa565b505050565b5b81811015614f0b57614f00600082614ed4565b600181019050614eed565b5050565b601f821115614f5057614f2181614df0565b614f2a84614e05565b81016020851015614f39578190505b614f4d614f4585614e05565b830182614eec565b50505b505050565b600082821c905092915050565b6000614f7360001984600802614f55565b1980831691505092915050565b6000614f8c8383614f62565b9150826002028217905092915050565b614fa5826142d8565b67ffffffffffffffff811115614fbe57614fbd6143f9565b5b614fc88254614d53565b614fd3828285614f0f565b600060209050601f8311600181146150065760008415614ff4578287015190505b614ffe8582614f80565b865550615066565b601f19841661501486614df0565b60005b8281101561503c57848901518255600182019150602085019450602081019050615017565b868310156150595784890151615055601f891682614f62565b8355505b6001600288020188555050505b505050505050565b7f4e487b7100000000000000000000000000000000000000000000000000000000600052601160045260246000fd5b60006150a882614253565b91507fffffffffffffffffffffffffffffffffffffffffffffffffffffffffffffffff82036150da576150d961506e565b5b600182019050919050565b7f2165786973747300000000000000000000000000000000000000000000000000600082015250565b600061511b6007836142e3565b9150615126826150e5565b602082019050919050565b6000602082019050818103600083015261514a8161510e565b9050919050565b60006040820190506151666000830185614934565b8181036020830152615178818461432f565b90509392505050565b60006020820190506151966000830184614934565b92915050565b7f4e487b7100000000000000000000000000000000000000000000000000000000600052603260045260246000fd5b60006060820190506151e06000830186614934565b6151ed6020830185614934565b6151fa60408301846142c9565b949350505050565b60008151905061521181614c33565b92915050565b60006020828403121561522d5761522c614249565b5b600061523b84828501615202565b91505092915050565b600061524f82614253565b915061525a83614253565b92508282019050808211156152725761527161506e565b5b92915050565b7f3e327765656b7300000000000000000000000000000000000000000000000000600082015250565b60006152ae6007836142e3565b91506152b982615278565b602082019050919050565b600060208201905081810360008301526152dd816152a1565b9050919050565b60006152ef82614253565b91506152fa83614253565b92508282039050818111156153125761531161506e565b5b92915050565b7f21726566756e6461626c65000000000000000000000000000000000000000000600082015250565b600061534e600b836142e3565b915061535982615318565b602082019050919050565b6000602082019050818103600083015261537d81615341565b9050919050565b600061538f82614253565b915061539a83614253565b92508282026153a881614253565b915082820484148315176153bf576153be61506e565b5b5092915050565b60006060820190506153db6000830186614934565b6153e860208301856142c9565b6153f560408301846142c9565b94935050505056fea26469706673582212200f3ce4dc416c5ada739138538c78b3589fe274fea0f05a2d8aafbc1d0d97101964736f6c634300081100332f696d616765732f63617465676f726965732f696c6c757374726174696f6e2e776562702f696d616765732f63617465676f726965732f616e696d6174696f6e2e776562702f696d616765732f63617465676f726965732f70686f746f6772617068792e776562702f696d616765732f63617465676f726965732f7765622d646576656c6f706d656e742e776562702f696d616765732f63617465676f726965732f646174612d736369656e63652e776562702f696d616765732f63617465676f726965732f6d61726b6574696e672e77656270",
  "immutableReferences": {},
  "source": "// SPDX-License-Identifier: GPL-3.0\n\npragma solidity >=0.7.0 <0.9.0;\n\nimport \"./BdlToken.sol\";\nimport \"./BdlNft.sol\";\nimport \"./BdlCertificate.sol\";\nimport \"./Models.sol\";\n\ncontract Buidl {\n    // state variables\n    address deployer;\n\n    BdlToken private bdlToken;\n    BdlNft private bdlNft;\n    BdlCertificate private bdlCertificate;\n\n    uint256 private contractInstructorID = 1;\n    uint256 private contractStudentID = 1;\n    uint256 private contractCourseID = 1;\n    uint256 private contractCategoryID = 1;\n\n    // minimum to stake for a duration of 1year\n    uint256 private instructorRegistrationFee = 2000 * 10**18;\n\n    mapping(uint => Models.Category) public categories;\n    mapping(address => Models.Instructor) public instructors;\n    mapping(address => Models.Student) public students;\n    mapping(uint => Models.Course) public courses;\n    mapping(address => Models.StudentCourse[]) public studentCourses;\n    mapping(uint => Models.CourseSection[]) public courseSections;\n\n    // contructor\n    constructor(\n        address _bdlToken,\n        address _bdlNft,\n        address _bdlCertificate\n    ) {\n        deployer = msg.sender;\n        bdlToken = BdlToken(_bdlToken);\n        bdlNft = BdlNft(_bdlNft);\n        bdlCertificate = BdlCertificate(_bdlCertificate);\n\n        addTestCategories();\n    }\n\n    // ========= Administation ========= //\n\n    function setInstructorRegistrationFee(uint256 amount) public onlyOwner {\n        instructorRegistrationFee = amount;\n    }\n\n    function addCategory(string memory name, string memory image)\n        public\n        onlyOwner\n    {\n        categories[contractCategoryID] = Models.Category(\n            contractCategoryID,\n            name,\n            image\n        );\n\n        contractCategoryID++;\n    }\n\n    // ========= Instructors =========== //\n\n    function createCourse(\n        string memory name,\n        string memory description,\n        uint categoryId\n    ) public onlyInstructor {\n        Models.Course memory course = courses[contractCourseID];\n\n        // create new freah course\n        courses[contractCourseID] = Models.Course(\n            contractCourseID,\n            name,\n            description,\n            categoryId,\n            course.ipfsPhoto,\n            msg.sender,\n            course.students,\n            course.ratings,\n            0,\n            course.metadata,\n            false,\n            block.timestamp,\n            block.timestamp\n        );\n\n        // assign course ownership to intructor\n        instructors[msg.sender].courses.push(contractCourseID);\n\n        // increment id\n        contractCourseID++;\n    }\n\n    function updateCourse(\n        string memory name,\n        string memory description,\n        uint categoryId,\n        uint price,\n        uint courseId,\n        bool publish\n    ) public onlyInstructor {\n        courses[courseId] = Models.Course(\n            courseId,\n            name,\n            description,\n            categoryId,\n            courses[courseId].ipfsPhoto,\n            msg.sender,\n            courses[courseId].students,\n            courses[courseId].ratings,\n            price,\n            courses[courseId].metadata,\n            publish,\n            courses[courseId].createdAt,\n            block.timestamp\n        );\n    }\n\n    function addSectionToCourse(\n        uint courseId,\n        string memory title,\n        string memory src,\n        string memory content,\n        uint updateFor\n    ) public onlyInstructor {\n        Models.Course memory course = courses[courseId];\n\n        require(course.id != 0, \"!exists\");\n        require(course.instructor == msg.sender, \"!authorized\");\n\n        if (updateFor == 0) {\n            courseSections[courseId].push(\n                Models.CourseSection(\n                    courseSections[courseId].length + 1,\n                    title,\n                    src,\n                    content\n                )\n            );\n        } else {\n            courseSections[courseId][updateFor] = Models.CourseSection(\n                updateFor,\n                title,\n                src,\n                content\n            );\n        }\n    }\n\n    function deleteCourseSection(uint courseId, uint sectionIndex)\n        public\n        onlyInstructor\n    {\n        Models.Course memory course = courses[courseId];\n\n        require(course.id != 0, \"!exists\");\n        require(course.instructor == msg.sender, \"!authorized\");\n        require(courseSections[courseId][sectionIndex].id != 0, \"!exists\");\n\n        delete courseSections[courseId][sectionIndex];\n    }\n\n    function getInstructorCoursesLength(address instructor)\n        public\n        view\n        returns (uint)\n    {\n        return instructors[instructor].courses.length;\n    }\n\n    function getInstructorCourseIdAtIndex(address instructor, uint index)\n        public\n        view\n        returns (uint)\n    {\n        return instructors[instructor].courses[index];\n    }\n\n    function createInstructorAccount(\n        string memory firstName,\n        string memory lastName,\n        string memory location,\n        uint gender\n    ) public notAnyone {\n        // stake instruction fee\n        bdlToken.increaseAllowance(\n            msg.sender,\n            address(this),\n            instructorRegistrationFee\n        );\n\n        bdlToken.transferFrom(\n            msg.sender,\n            address(this),\n            instructorRegistrationFee\n        );\n\n        Models.Instructor memory instructor = instructors[msg.sender];\n\n        instructors[msg.sender] = Models.Instructor(\n            contractInstructorID,\n            firstName,\n            lastName,\n            location,\n            gender,\n            false,\n            instructor.ipfsPhoto,\n            instructor.twitter,\n            instructor.linkedin,\n            instructor.courses,\n            block.timestamp\n        );\n\n        contractInstructorID++;\n    }\n\n    // ========= Students ========== //\n\n    function createStudentAccount(\n        string memory name,\n        string memory email,\n        uint gender\n    ) public notAnyone {\n        Models.Student memory student = students[msg.sender];\n\n        students[msg.sender] = Models.Student(\n            contractStudentID,\n            name,\n            email,\n            gender,\n            student.ipfsPhoto,\n            student.country,\n            block.timestamp,\n            student.courses\n        );\n\n        contractStudentID++;\n    }\n\n    function purchaseCourse(uint courseId) public onlyStudent {\n        Models.Course storage course = courses[courseId];\n\n        require(course.id != 0, \"!exists\");\n\n        // lock the student funds to smart contract\n        bdlToken.increaseAllowance(msg.sender, address(this), course.price);\n        bdlToken.transferFrom(msg.sender, address(this), course.price);\n\n        // create course for student\n        studentCourses[msg.sender].push(\n            Models.StudentCourse(courseId, block.timestamp, course.price)\n        );\n\n        emit CoursePurchased(course.instructor, msg.sender, courseId);\n    }\n\n    function rejectCourse(\n        uint courseId,\n        uint sections,\n        uint sectionsViewed\n    ) public onlyStudent {\n        // check is course is not over 2 weeks\n        uint expireTime = studentCourses[msg.sender][courseId].purchasedAt +\n            (20160 * 60000);\n        uint priceBought = studentCourses[msg.sender][courseId].priceBought;\n\n        require(block.timestamp < expireTime, \">2weeks\");\n\n        uint refundableSections = (sections - sectionsViewed);\n\n        require(refundableSections > 0, \"!refundable\");\n\n        uint256 refundableAmount = (refundableSections * priceBought);\n\n        // terminate student course\n        delete studentCourses[msg.sender][courseId];\n\n        // refund the student\n        bdlToken.transferFrom(address(this), msg.sender, refundableAmount);\n\n        emit CourseRefunded(msg.sender, courseId, sectionsViewed);\n    }\n\n    function onCompletedCourse(\n        uint courseId,\n        string memory certificateUri,\n        string memory nftUri\n    ) public onlyStudent {\n        require(courses[courseId].id != 0, \"!exists\");\n        // check if student has purchase the course\n        // require(studentCourses[msg.sender][] != 0, \"!exists\");\n        bdlCertificate.issue(msg.sender, certificateUri);\n        bdlNft.mint(msg.sender, nftUri);\n    }\n\n    modifier onlyInstructor() {\n        require(instructors[msg.sender].id != 0, \"!authorized\");\n        _;\n    }\n\n    modifier onlyStudent() {\n        require(students[msg.sender].id != 0, \"!authorized\");\n        _;\n    }\n\n    modifier onlyOwner() {\n        require(msg.sender == deployer, \"!authorized\");\n        _;\n    }\n\n    modifier notAnyone() {\n        require(\n            (students[msg.sender].id == 0 && instructors[msg.sender].id == 0),\n            \"!authorized\"\n        );\n        _;\n    }\n\n    // ========== Events ========== //\n\n    event CourseCompletion(address student, uint courseId);\n    event CoursePurchased(address intructor, address student, uint courseId);\n    event CourseRefunded(address student, uint courseId, uint sectionsViewed);\n\n    // ========== Development ========== //\n\n    function faucetMint() public {\n        bdlToken.mint(msg.sender);\n    }\n\n    function addTestCategories() private {\n        addCategory(\n            \"Web Development\",\n            \"/images/categories/web-development.webp\"\n        );\n        addCategory(\"Cooking\", \"/images/categories/cooking.webp\");\n        addCategory(\"UI/UX Designing\", \"/images/categories/ui-ux.webp\");\n        addCategory(\"3D Animation\", \"/images/categories/animation.webp\");\n        addCategory(\"Illustration\", \"/images/categories/illustration.webp\");\n        addCategory(\"Data Science\", \"/images/categories/data-science.webp\");\n        addCategory(\"Speaking\", \"/images/categories/speaking.webp\");\n        addCategory(\"Music\", \"/images/categories/music.webp\");\n        addCategory(\"Photography\", \"/images/categories/photography.webp\");\n        addCategory(\"Marketing\", \"/images/categories/marketing.webp\");\n    }\n}\n",
  "sourcePath": "C:\\Users\\Arogundade Ibrahim\\Documents\\web3\\Buidl\\contracts\\Buidl.sol",
  "compiler": {
    "name": "solc",
    "version": "0.8.17+commit.8df45f5f.Emscripten.clang"
  },
  "schemaVersion": "3.4.10",
  "updatedAt": "2022-10-22T09:55:55.169Z",
  "networkType": "ethereum",
  "devdoc": {
    "kind": "dev",
    "methods": {},
    "version": 1
  },
  "userdoc": {
    "kind": "user",
    "methods": {},
    "version": 1
  }
}