{
  "contractName": "Buidl",
  "abi": [
    {
      "inputs": [
        {
          "internalType": "address",
          "name": "bdlToken",
          "type": "address"
        },
        {
          "internalType": "address",
          "name": "bdlNft",
          "type": "address"
        },
        {
          "internalType": "address",
          "name": "bdlCertificate",
          "type": "address"
        },
        {
          "internalType": "address",
          "name": "bdlCourse",
          "type": "address"
        },
        {
          "internalType": "address",
          "name": "staking",
          "type": "address"
        },
        {
          "internalType": "address",
          "name": "gateway_",
          "type": "address"
        }
      ],
      "stateMutability": "nonpayable",
      "type": "constructor"
    },
    {
      "inputs": [],
      "name": "InvalidAddress",
      "type": "error"
    },
    {
      "inputs": [],
      "name": "NotApprovedByGateway",
      "type": "error"
    },
    {
      "anonymous": false,
      "inputs": [
        {
          "indexed": false,
          "internalType": "address",
          "name": "owner",
          "type": "address"
        },
        {
          "indexed": false,
          "internalType": "bool",
          "name": "verified",
          "type": "bool"
        }
      ],
      "name": "Creator",
      "type": "event"
    },
    {
      "anonymous": false,
      "inputs": [
        {
          "indexed": false,
          "internalType": "address",
          "name": "owner",
          "type": "address"
        },
        {
          "indexed": false,
          "internalType": "string",
          "name": "name",
          "type": "string"
        },
        {
          "indexed": false,
          "internalType": "string",
          "name": "photo",
          "type": "string"
        },
        {
          "indexed": false,
          "internalType": "bool",
          "name": "verified",
          "type": "bool"
        }
      ],
      "name": "User",
      "type": "event"
    },
    {
      "inputs": [
        {
          "internalType": "bytes32",
          "name": "commandId",
          "type": "bytes32"
        },
        {
          "internalType": "string",
          "name": "sourceChain",
          "type": "string"
        },
        {
          "internalType": "string",
          "name": "sourceAddress",
          "type": "string"
        },
        {
          "internalType": "bytes",
          "name": "payload",
          "type": "bytes"
        }
      ],
      "name": "execute",
      "outputs": [],
      "stateMutability": "nonpayable",
      "type": "function"
    },
    {
      "inputs": [
        {
          "internalType": "bytes32",
          "name": "commandId",
          "type": "bytes32"
        },
        {
          "internalType": "string",
          "name": "sourceChain",
          "type": "string"
        },
        {
          "internalType": "string",
          "name": "sourceAddress",
          "type": "string"
        },
        {
          "internalType": "bytes",
          "name": "payload",
          "type": "bytes"
        },
        {
          "internalType": "string",
          "name": "tokenSymbol",
          "type": "string"
        },
        {
          "internalType": "uint256",
          "name": "amount",
          "type": "uint256"
        }
      ],
      "name": "executeWithToken",
      "outputs": [],
      "stateMutability": "nonpayable",
      "type": "function"
    },
    {
      "inputs": [],
      "name": "gateway",
      "outputs": [
        {
          "internalType": "contract IAxelarGateway",
          "name": "",
          "type": "address"
        }
      ],
      "stateMutability": "view",
      "type": "function"
    },
    {
      "inputs": [
        {
          "internalType": "address",
          "name": "",
          "type": "address"
        }
      ],
      "name": "revenues",
      "outputs": [
        {
          "internalType": "uint256",
          "name": "unclaimed",
          "type": "uint256"
        },
        {
          "internalType": "uint256",
          "name": "claimable",
          "type": "uint256"
        },
        {
          "internalType": "uint256",
          "name": "claimed",
          "type": "uint256"
        }
      ],
      "stateMutability": "view",
      "type": "function"
    },
    {
      "inputs": [
        {
          "internalType": "address",
          "name": "",
          "type": "address"
        }
      ],
      "name": "users",
      "outputs": [
        {
          "internalType": "uint256",
          "name": "id",
          "type": "uint256"
        },
        {
          "internalType": "bool",
          "name": "verified",
          "type": "bool"
        },
        {
          "internalType": "string",
          "name": "photo",
          "type": "string"
        },
        {
          "internalType": "uint256",
          "name": "createdAt",
          "type": "uint256"
        }
      ],
      "stateMutability": "view",
      "type": "function"
    },
    {
      "inputs": [
        {
          "internalType": "string",
          "name": "name",
          "type": "string"
        },
        {
          "internalType": "string",
          "name": "photo",
          "type": "string"
        }
      ],
      "name": "setAccount",
      "outputs": [],
      "stateMutability": "nonpayable",
      "type": "function"
    },
    {
      "inputs": [
        {
          "internalType": "uint256",
          "name": "amount",
          "type": "uint256"
        }
      ],
      "name": "stake",
      "outputs": [],
      "stateMutability": "nonpayable",
      "type": "function"
    },
    {
      "inputs": [],
      "name": "unlockCreator",
      "outputs": [],
      "stateMutability": "nonpayable",
      "type": "function"
    },
    {
      "inputs": [],
      "name": "removeCreator",
      "outputs": [],
      "stateMutability": "nonpayable",
      "type": "function"
    },
    {
      "inputs": [
        {
          "internalType": "uint256",
          "name": "id",
          "type": "uint256"
        },
        {
          "internalType": "uint256",
          "name": "nftId",
          "type": "uint256"
        },
        {
          "internalType": "uint256",
          "name": "discount",
          "type": "uint256"
        }
      ],
      "name": "subscribe",
      "outputs": [],
      "stateMutability": "nonpayable",
      "type": "function"
    },
    {
      "inputs": [
        {
          "internalType": "uint256",
          "name": "id",
          "type": "uint256"
        }
      ],
      "name": "unSubscribe",
      "outputs": [],
      "stateMutability": "nonpayable",
      "type": "function"
    },
    {
      "inputs": [
        {
          "internalType": "uint256",
          "name": "amount",
          "type": "uint256"
        }
      ],
      "name": "withdrawPlatformFee",
      "outputs": [],
      "stateMutability": "nonpayable",
      "type": "function"
    },
    {
      "inputs": [
        {
          "internalType": "uint256",
          "name": "id",
          "type": "uint256"
        },
        {
          "internalType": "string",
          "name": "certificateUri",
          "type": "string"
        },
        {
          "internalType": "string",
          "name": "nftUri",
          "type": "string"
        }
      ],
      "name": "onCourseComplete",
      "outputs": [],
      "stateMutability": "nonpayable",
      "type": "function"
    }
  ],
  "bytecode": "0x60c0604052600a600055686c6b935b8bbd4000006006556301e1338060075560006008553480156200003057600080fd5b5060405162001b2038038062001b20833981016040819052620000539162000107565b806001600160a01b0381166200007c5760405163e6c4247b60e01b815260040160405180910390fd5b6001600160a01b039081166080523360a052600180549682166001600160a01b03199788161790556002805497821697871697909717909655506003805493861693851693909317909255600480549185169184169190911790556005805491909316911617905562000188565b80516001600160a01b03811681146200010257600080fd5b919050565b60008060008060008060c087890312156200012157600080fd5b6200012c87620000ea565b95506200013c60208801620000ea565b94506200014c60408801620000ea565b93506200015c60608801620000ea565b92506200016c60808801620000ea565b91506200017c60a08801620000ea565b90509295509295509295565b60805160a051611957620001c960003960008181610fbd015281816110a1015261112b01526000818160e901528181610289015261072701526119576000f3fe608060405234801561001057600080fd5b50600436106100df5760003560e01c806378ae98c81161008c578063a694fc3a11610066578063a694fc3a146101ee578063a87430ba14610201578063c193b2e414610224578063dde7c1901461022c57600080fd5b806378ae98c8146101895780637f26fc7d146101d357806390bf70b0146101db57600080fd5b8063394812bc116100bd578063394812bc1461015057806349160658146101635780636c9eb7741461017657600080fd5b8063116191b6146100e45780631a98b2e0146101285780632796b0301461013d575b600080fd5b61010b7f000000000000000000000000000000000000000000000000000000000000000081565b6040516001600160a01b0390911681526020015b60405180910390f35b61013b61013636600461127c565b61023f565b005b61013b61014b366004611356565b61033b565b61013b61015e366004611412565b610543565b61013b61017136600461147f565b6106dd565b61013b610184366004611523565b6107de565b6101b8610197366004611567565b600a6020526000908152604090208054600182015460029092015490919083565b6040805193845260208401929092529082015260600161011f565b61013b610ae8565b61013b6101e936600461158b565b610b8f565b61013b6101fc366004611356565b610be9565b61021461020f366004611567565b610d7d565b60405161011f9493929190611635565b61013b610e32565b61013b61023a366004611356565b610fb2565b60008585604051610251929190611667565b6040519081900381207f1876eed900000000000000000000000000000000000000000000000000000000825291506001600160a01b037f00000000000000000000000000000000000000000000000000000000000000001690631876eed9906102ce908e908e908e908e908e9089908d908d908d906004016116a0565b6020604051808303816000875af11580156102ed573d6000803e3d6000fd5b505050506040513d601f19601f820116820180604052508101906103119190611714565b61032e57604051631403112d60e21b815260040160405180910390fd5b5050505050505050505050565b600480546040517ff30e6e9b00000000000000000000000000000000000000000000000000000000815291820183905233602483015260009182918291829182916001600160a01b039091169063f30e6e9b9060440160a0604051808303816000875af11580156103b0573d6000803e3d6000fd5b505050506040513d601f19601f820116820180604052508101906103d4919061172f565b60025460405163e1f21c6760e01b815230600482015233602482015260448101879052959a50939850919650945092506001600160a01b03169063e1f21c6790606401600060405180830381600087803b15801561043157600080fd5b505af1158015610445573d6000803e3d6000fd5b50506002546040516323b872dd60e01b8152306004820152336024820152604481018990526001600160a01b0390911692506323b872dd91506064016020604051808303816000875af11580156104a0573d6000803e3d6000fd5b505050506040513d601f19601f820116820180604052508101906104c49190611714565b506001600160a01b0383166000908152600a6020526040812080548492906104ed90849061178f565b90915550506001600160a01b0383166000908152600a60205260408120600101805486929061051d9084906117a8565b92505081905550806008600082825461053691906117a8565b9091555050505050505050565b600480546040517f0172a34300000000000000000000000000000000000000000000000000000000815291820185905233602483015260009182916001600160a01b031690630172a343906044016040805180830381865afa1580156105ad573d6000803e3d6000fd5b505050506040513d601f19601f820116820180604052508101906105d191906117bb565b915091508115610659576003546040517f04b444d90000000000000000000000000000000000000000000000000000000081526001600160a01b03909116906304b444d99061062690339088906004016117e7565b600060405180830381600087803b15801561064057600080fd5b505af1158015610654573d6000803e3d6000fd5b505050505b6001546040517fd0def5210000000000000000000000000000000000000000000000000000000081526001600160a01b039091169063d0def521906106a490339087906004016117e7565b600060405180830381600087803b1580156106be57600080fd5b505af11580156106d2573d6000803e3d6000fd5b505050505050505050565b600082826040516106ef929190611667565b6040519081900381207f5f6970c300000000000000000000000000000000000000000000000000000000825291506001600160a01b037f00000000000000000000000000000000000000000000000000000000000000001690635f6970c390610766908b908b908b908b908b908990600401611811565b6020604051808303816000875af1158015610785573d6000803e3d6000fd5b505050506040513d601f19601f820116820180604052508101906107a99190611714565b6107c657604051631403112d60e21b815260040160405180910390fd5b6107d48787878787876111ae565b5050505050505050565b600480546040517f59e6951d00000000000000000000000000000000000000000000000000000000815291820185905233602483015260009182916001600160a01b0316906359e6951d9060440160408051808303816000875af115801561084a573d6000803e3d6000fd5b505050506040513d601f19601f8201168201806040525081019061086e9190611852565b6001600160a01b0381166000908152600a602052604081208054939550919350849261089b9084906117a8565b9091555082905084156109fa576001546040517f6352211e0000000000000000000000000000000000000000000000000000000081526004810187905233916001600160a01b031690636352211e90602401602060405180830381865afa15801561090a573d6000803e3d6000fd5b505050506040513d601f19601f8201168201806040525081019061092e9190611882565b6001600160a01b0316146109775760405162461bcd60e51b815260206004820152600b60248201526a08585d5d1a1bdc9a5e995960aa1b60448201526064015b60405180910390fd5b610981848461178f565b6001546040517f42966c68000000000000000000000000000000000000000000000000000000008152600481018890529192506001600160a01b0316906342966c6890602401600060405180830381600087803b1580156109e157600080fd5b505af11580156109f5573d6000803e3d6000fd5b505050505b60025460405163e1f21c6760e01b8152336004820152306024820152604481018390526001600160a01b039091169063e1f21c6790606401600060405180830381600087803b158015610a4c57600080fd5b505af1158015610a60573d6000803e3d6000fd5b50506002546040516323b872dd60e01b8152336004820152306024820152604481018590526001600160a01b0390911692506323b872dd91506064016020604051808303816000875af1158015610abb573d6000803e3d6000fd5b505050506040513d601f19601f82011682018060405250810190610adf9190611714565b50505050505050565b3360009081526009602052604090206001015460ff16610b385760405162461bcd60e51b815260206004820152600b60248201526a08585d5d1a1bdc9a5e995960aa1b604482015260640161096e565b336000818152600960209081526040808320600101805460ff191690558051938452908301919091527fb5763ba23a8384e26e9f2f5bfcd8e3795e4248ce7bb99a61c9ee6488d352a5b191015b60405180910390a1565b33600081815260096020526040908190206001015490517f2d3804f6670a9e165ddef24bb7f7345753423a96b66b32c302cfefcda19ad46792610bdd9290918691869160ff9091169061189f565b60405180910390a15050565b60025460405163e1f21c6760e01b8152336004820152306024820152604481018390526001600160a01b039091169063e1f21c6790606401600060405180830381600087803b158015610c3b57600080fd5b505af1158015610c4f573d6000803e3d6000fd5b50506002546040516323b872dd60e01b8152336004820152306024820152604481018590526001600160a01b0390911692506323b872dd91506064016020604051808303816000875af1158015610caa573d6000803e3d6000fd5b505050506040513d601f19601f82011682018060405250810190610cce9190611714565b506005546007546001600160a01b039091169063ab84bb789033908490610cf590426117a8565b6040517fffffffff0000000000000000000000000000000000000000000000000000000060e086901b1681526001600160a01b0390931660048401526024830191909152604482015260006064820152608401600060405180830381600087803b158015610d6257600080fd5b505af1158015610d76573d6000803e3d6000fd5b5050505050565b600960205260009081526040902080546001820154600283018054929360ff90921692610da9906118e7565b80601f0160208091040260200160405190810160405280929190818152602001828054610dd5906118e7565b8015610e225780601f10610df757610100808354040283529160200191610e22565b820191906000526020600020905b815481529060010190602001808311610e0557829003601f168201915b5050505050908060040154905084565b3360009081526009602052604090206001015460ff1615610e835760405162461bcd60e51b815260206004820152600b60248201526a08585d5d1a1bdc9a5e995960aa1b604482015260640161096e565b6005546006546040517fde36071500000000000000000000000000000000000000000000000000000000815260048101919091523360248201526001600160a01b039091169063de36071590604401602060405180830381865afa158015610eef573d6000803e3d6000fd5b505050506040513d601f19601f82011682018060405250810190610f139190611714565b610f5f5760405162461bcd60e51b815260206004820152601860248201527f217374616b655f726571756972656d656e745f66697273740000000000000000604482015260640161096e565b336000818152600960209081526040918290206001908101805460ff1916821790558251938452908301527fb5763ba23a8384e26e9f2f5bfcd8e3795e4248ce7bb99a61c9ee6488d352a5b19101610b85565b336001600160a01b037f000000000000000000000000000000000000000000000000000000000000000016146110185760405162461bcd60e51b815260206004820152600b60248201526a08585d5d1a1bdc9a5e995960aa1b604482015260640161096e565b80600854101561106a5760405162461bcd60e51b815260206004820152601360248201527f696e73756669636369656e7420746f6b656e7300000000000000000000000000604482015260640161096e565b806008600082825461107c919061178f565b909155505060025460405163e1f21c6760e01b81523060048201526001600160a01b037f000000000000000000000000000000000000000000000000000000000000000081166024830152604482018490529091169063e1f21c6790606401600060405180830381600087803b1580156110f557600080fd5b505af1158015611109573d6000803e3d6000fd5b50506002546040516323b872dd60e01b81523060048201526001600160a01b037f0000000000000000000000000000000000000000000000000000000000000000811660248301526044820186905290911692506323b872dd91506064016020604051808303816000875af1158015611186573d6000803e3d6000fd5b505050506040513d601f19601f820116820180604052508101906111aa9190611714565b5050565b60006111bc82840184611356565b6040517f6c9eb7740000000000000000000000000000000000000000000000000000000081526004810182905260006024820181905260448201529091503090636c9eb77490606401600060405180830381600087803b15801561121f57600080fd5b505af115801561032e573d6000803e3d6000fd5b60008083601f84011261124557600080fd5b50813567ffffffffffffffff81111561125d57600080fd5b60208301915083602082850101111561127557600080fd5b9250929050565b60008060008060008060008060008060c08b8d03121561129b57600080fd5b8a35995060208b013567ffffffffffffffff808211156112ba57600080fd5b6112c68e838f01611233565b909b50995060408d01359150808211156112df57600080fd5b6112eb8e838f01611233565b909950975060608d013591508082111561130457600080fd5b6113108e838f01611233565b909750955060808d013591508082111561132957600080fd5b506113368d828e01611233565b9150809450508092505060a08b013590509295989b9194979a5092959850565b60006020828403121561136857600080fd5b5035919050565b634e487b7160e01b600052604160045260246000fd5b600082601f83011261139657600080fd5b813567ffffffffffffffff808211156113b1576113b161136f565b604051601f8301601f19908116603f011681019082821181831017156113d9576113d961136f565b816040528381528660208588010111156113f257600080fd5b836020870160208301376000602085830101528094505050505092915050565b60008060006060848603121561142757600080fd5b83359250602084013567ffffffffffffffff8082111561144657600080fd5b61145287838801611385565b9350604086013591508082111561146857600080fd5b5061147586828701611385565b9150509250925092565b60008060008060008060006080888a03121561149a57600080fd5b87359650602088013567ffffffffffffffff808211156114b957600080fd5b6114c58b838c01611233565b909850965060408a01359150808211156114de57600080fd5b6114ea8b838c01611233565b909650945060608a013591508082111561150357600080fd5b506115108a828b01611233565b989b979a50959850939692959293505050565b60008060006060848603121561153857600080fd5b505081359360208301359350604090920135919050565b6001600160a01b038116811461156457600080fd5b50565b60006020828403121561157957600080fd5b81356115848161154f565b9392505050565b6000806040838503121561159e57600080fd5b823567ffffffffffffffff808211156115b657600080fd5b6115c286838701611385565b935060208501359150808211156115d857600080fd5b506115e585828601611385565b9150509250929050565b6000815180845260005b81811015611615576020818501810151868301820152016115f9565b506000602082860101526020601f19601f83011685010191505092915050565b848152831515602082015260806040820152600061165660808301856115ef565b905082606083015295945050505050565b8183823760009101908152919050565b81835281816020850137506000828201602090810191909152601f909101601f19169091010190565b89815260c0602082015260006116ba60c083018a8c611677565b82810360408401526116cd81898b611677565b905086606084015282810360808401526116e8818688611677565b9150508260a08301529a9950505050505050505050565b8051801515811461170f57600080fd5b919050565b60006020828403121561172657600080fd5b611584826116ff565b600080600080600060a0868803121561174757600080fd5b855194506020860151935060408601516117608161154f565b6060870151608090970151959894975095949392505050565b634e487b7160e01b600052601160045260246000fd5b818103818111156117a2576117a2611779565b92915050565b808201808211156117a2576117a2611779565b600080604083850312156117ce57600080fd5b6117d7836116ff565b9150602083015190509250929050565b6001600160a01b038316815260406020820152600061180960408301846115ef565b949350505050565b86815260806020820152600061182b608083018789611677565b828103604084015261183e818688611677565b915050826060830152979650505050505050565b6000806040838503121561186557600080fd5b8251915060208301516118778161154f565b809150509250929050565b60006020828403121561189457600080fd5b81516115848161154f565b6001600160a01b03851681526080602082015260006118c160808301866115ef565b82810360408401526118d381866115ef565b915050821515606083015295945050505050565b600181811c908216806118fb57607f821691505b60208210810361191b57634e487b7160e01b600052602260045260246000fd5b5091905056fea264697066735822122090bcc35472e3a954ccafc4e667fdaf550d49c597335dab140a3403736a3c3fda64736f6c63430008100033",
  "immutableReferences": {
    "10": [
      {
        "length": 32,
        "start": 233
      },
      {
        "length": 32,
        "start": 649
      },
      {
        "length": 32,
        "start": 1831
      }
    ],
    "4484": [
      {
        "length": 32,
        "start": 4029
      },
      {
        "length": 32,
        "start": 4257
      },
      {
        "length": 32,
        "start": 4395
      }
    ]
  },
  "source": "// SPDX-License-Identifier: GPL-3.0\npragma solidity >=0.7.0 <0.9.0;\n\nimport {AxelarExecutable} from \"@axelar-network/axelar-gmp-sdk-solidity/contracts/executables/AxelarExecutable.sol\";\nimport {IAxelarGateway} from \"@axelar-network/axelar-gmp-sdk-solidity/contracts/interfaces/IAxelarGateway.sol\";\nimport {IAxelarGasService} from \"@axelar-network/axelar-gmp-sdk-solidity/contracts/interfaces/IAxelarGasService.sol\";\n\nimport {BdlNft} from \"./BdlNft.sol\";\nimport {BdlCertificate} from \"./BdlCertificate.sol\";\nimport {Models} from \"./base/Models.sol\";\nimport {BdlToken} from \"./BdlToken.sol\";\nimport {BdlCourse} from \"./BdlCourse.sol\";\nimport {Staking} from \"./Staking.sol\";\n\ncontract Buidl is AxelarExecutable {\n    address private immutable deployer;\n\n    /* fee charged on every succesful subscription made */\n    uint256 private subscriptionFee = 10; // percentage rate\n\n    BdlNft private _bdlNft; // nft reward (coupon) contract\n    BdlToken private _bdlToken; // erc20(streamable token) contract\n    BdlCertificate private _bdlCertificate; // erc4973 certificate contract\n    BdlCourse private _bdlCourse; // course contract\n    Staking private _staking; // staking contract\n\n    // creators requirement\n    // these requirement helps us to filter fuds\n    // and abuse of the ecosystem\n    uint256 private creatorStakingFee = 2000 * 10**18;\n    uint256 private creatorStakingDuration = 365 days;\n\n    // earnings made on the platform so far\n    uint256 private platformEarnings = 0;\n\n    // ecosystem users\n    mapping(address => Models.User) public users;\n    mapping(address => Models.Revenue) public revenues;\n\n    // contructor\n    constructor(\n        address bdlToken,\n        address bdlNft,\n        address bdlCertificate,\n        address bdlCourse,\n        address staking,\n        address gateway_\n    ) AxelarExecutable(gateway_) {\n        deployer = msg.sender;\n\n        _bdlNft = BdlNft(bdlNft);\n        _bdlToken = BdlToken(bdlToken);\n        _bdlCertificate = BdlCertificate(bdlCertificate);\n        _bdlCourse = BdlCourse(bdlCourse);\n        _staking = Staking(staking);\n    }\n\n    /* creates user metadata */\n    function setAccount(string memory name, string memory photo) public {\n        emit User(msg.sender, name, photo, users[msg.sender].verified);\n    }\n\n    /* stake in the smart contract */\n    function stake(uint256 amount) public {\n        _bdlToken.approve(msg.sender, address(this), amount);\n        _bdlToken.transferFrom(msg.sender, address(this), amount);\n        _staking.stake(\n            msg.sender,\n            amount,\n            block.timestamp + creatorStakingDuration,\n            0\n        );\n    }\n\n    /* unlock creator */\n    function unlockCreator() public notVerified {\n        // check if user has staked min requirement\n        require(\n            _staking.hasStaked(creatorStakingFee, msg.sender),\n            \"!stake_requirement_first\"\n        );\n\n        users[msg.sender].verified = true;\n        emit Creator(msg.sender, true);\n    }\n\n    /* remove creator */\n    function removeCreator() public onlyVerified {\n        users[msg.sender].verified = false;\n        emit Creator(msg.sender, false);\n    }\n\n    /* subscribe to a course */\n    /* params course id */\n    function subscribe(\n        uint id,\n        uint nftId,\n        uint256 discount\n    ) public {\n        (uint256 price, address creator) = _bdlCourse.subscribe(id, msg.sender);\n\n        /* payment are locked in the smart contract */\n        /* the course creator will be able to claim it after two weeks */\n        /* if the course wasn't refunded by the subscriber */\n\n        /* increase creator's unclaimed revenue */\n        revenues[creator].unclaimed += price;\n\n        uint256 priceCharge = price;\n        if (nftId > 0) {\n            // coupon detected\n            require(_bdlNft.ownerOf(nftId) == msg.sender, \"!authorized\");\n            priceCharge = price - discount;\n            _bdlNft.burn(nftId);\n        }\n\n        _bdlToken.approve(msg.sender, address(this), priceCharge);\n        _bdlToken.transferFrom(msg.sender, address(this), priceCharge);\n    }\n\n    /* subscribe to a course */\n    /* params course id */\n    function unSubscribe(uint id) public {\n        (\n            uint256 payableAmount,\n            uint256 earnings,\n            address creator,\n            uint256 price,\n            uint256 _platformEarnings\n        ) = _bdlCourse.unSubscribe(id, msg.sender);\n\n        // refund the user from the contract\n        _bdlToken.approve(address(this), msg.sender, payableAmount);\n        _bdlToken.transferFrom(address(this), msg.sender, payableAmount);\n\n        // deduct creator's unclaimed revenue\n        revenues[creator].unclaimed -= price;\n\n        // credit creator earnings from the refunded course\n        revenues[creator].claimable += earnings;\n\n        // credit platform from the refunded course\n        platformEarnings += _platformEarnings;\n    }\n\n    /* deployer to cashout earnings */\n    function withdrawPlatformFee(uint256 amount) public onlyDeployer {\n        require(platformEarnings >= amount, \"insuficcient tokens\");\n        platformEarnings -= amount;\n        _bdlToken.approve(address(this), deployer, amount);\n        _bdlToken.transferFrom(address(this), deployer, amount);\n    }\n\n    function onCourseComplete(\n        uint id,\n        string memory certificateUri,\n        string memory nftUri\n    ) public {\n        (bool isPremium, uint256 coursePrice) = _bdlCourse.onCourseComplete(\n            id,\n            msg.sender\n        );\n\n        if (isPremium) {\n            _bdlCertificate.issue(msg.sender, certificateUri);\n        }\n\n        _bdlNft.mint(msg.sender, nftUri);\n    }\n\n    function _execute(\n        string calldata sourceChain_,\n        string calldata sourceAddress_,\n        bytes calldata payload_\n    ) internal override {\n        uint id = abi.decode(payload_, (uint));\n        this.subscribe(id, 0, 0);\n    }\n\n    modifier onlyVerified() {\n        /* only account that has staked atleast 2000 BDL token */\n        require(users[msg.sender].verified, \"!authorized\");\n        _;\n    }\n\n    modifier notVerified() {\n        /* only account that hasn't staked atleast 2000 BDL token */\n        require(!users[msg.sender].verified, \"!authorized\");\n        _;\n    }\n\n    modifier onlyDeployer() {\n        /* only account that deployed the contract */\n        require(msg.sender == deployer, \"!authorized\");\n        _;\n    }\n\n    // == events == //\n    event User(address owner, string name, string photo, bool verified);\n    event Creator(address owner, bool verified);\n}\n",
  "sourcePath": "C:\\Users\\Arogundade Ibrahim\\Documents\\web3\\Buidl\\contracts\\Buidl.sol",
  "compiler": {
    "name": "solc",
    "version": "0.8.16+commit.07a7930e.Emscripten.clang"
  },
  "schemaVersion": "3.4.10",
  "updatedAt": "2022-11-03T04:00:07.841Z",
  "devdoc": {
    "kind": "dev",
    "methods": {},
    "version": 1
  },
  "userdoc": {
    "kind": "user",
    "methods": {},
    "version": 1
  }
}