{
  "contractName": "Buidl",
  "abi": [
    {
      "inputs": [
        {
          "internalType": "address",
          "name": "_bdlToken",
          "type": "address"
        },
        {
          "internalType": "address",
          "name": "_bdlNft",
          "type": "address"
        },
        {
          "internalType": "address",
          "name": "_bdlCertificate",
          "type": "address"
        }
      ],
      "stateMutability": "nonpayable",
      "type": "constructor"
    },
    {
      "anonymous": false,
      "inputs": [
        {
          "indexed": false,
          "internalType": "address",
          "name": "student",
          "type": "address"
        },
        {
          "indexed": false,
          "internalType": "uint256",
          "name": "courseId",
          "type": "uint256"
        }
      ],
      "name": "CertificateIssued",
      "type": "event"
    },
    {
      "anonymous": false,
      "inputs": [
        {
          "indexed": false,
          "internalType": "address",
          "name": "student",
          "type": "address"
        },
        {
          "indexed": false,
          "internalType": "uint256",
          "name": "courseId",
          "type": "uint256"
        }
      ],
      "name": "CourseCompletion",
      "type": "event"
    },
    {
      "anonymous": false,
      "inputs": [
        {
          "indexed": false,
          "internalType": "address",
          "name": "intructor",
          "type": "address"
        },
        {
          "indexed": false,
          "internalType": "address",
          "name": "student",
          "type": "address"
        },
        {
          "indexed": false,
          "internalType": "uint256",
          "name": "courseId",
          "type": "uint256"
        }
      ],
      "name": "CoursePurchased",
      "type": "event"
    },
    {
      "anonymous": false,
      "inputs": [
        {
          "indexed": false,
          "internalType": "address",
          "name": "student",
          "type": "address"
        },
        {
          "indexed": false,
          "internalType": "uint256",
          "name": "courseId",
          "type": "uint256"
        },
        {
          "indexed": false,
          "internalType": "uint256",
          "name": "sectionsViewed",
          "type": "uint256"
        }
      ],
      "name": "CourseRejected",
      "type": "event"
    },
    {
      "inputs": [
        {
          "internalType": "uint256",
          "name": "",
          "type": "uint256"
        }
      ],
      "name": "categories",
      "outputs": [
        {
          "internalType": "uint256",
          "name": "id",
          "type": "uint256"
        },
        {
          "internalType": "string",
          "name": "name",
          "type": "string"
        },
        {
          "internalType": "string",
          "name": "image",
          "type": "string"
        }
      ],
      "stateMutability": "view",
      "type": "function",
      "constant": true
    },
    {
      "inputs": [],
      "name": "contractCategoryID",
      "outputs": [
        {
          "internalType": "uint256",
          "name": "",
          "type": "uint256"
        }
      ],
      "stateMutability": "view",
      "type": "function",
      "constant": true
    },
    {
      "inputs": [],
      "name": "contractCourseID",
      "outputs": [
        {
          "internalType": "uint256",
          "name": "",
          "type": "uint256"
        }
      ],
      "stateMutability": "view",
      "type": "function",
      "constant": true
    },
    {
      "inputs": [],
      "name": "contractInstructorID",
      "outputs": [
        {
          "internalType": "uint256",
          "name": "",
          "type": "uint256"
        }
      ],
      "stateMutability": "view",
      "type": "function",
      "constant": true
    },
    {
      "inputs": [],
      "name": "contractStudentID",
      "outputs": [
        {
          "internalType": "uint256",
          "name": "",
          "type": "uint256"
        }
      ],
      "stateMutability": "view",
      "type": "function",
      "constant": true
    },
    {
      "inputs": [
        {
          "internalType": "uint256",
          "name": "",
          "type": "uint256"
        }
      ],
      "name": "courses",
      "outputs": [
        {
          "internalType": "uint256",
          "name": "id",
          "type": "uint256"
        },
        {
          "internalType": "address",
          "name": "instructor",
          "type": "address"
        },
        {
          "internalType": "uint256",
          "name": "price",
          "type": "uint256"
        },
        {
          "internalType": "string",
          "name": "ipfsHash",
          "type": "string"
        },
        {
          "internalType": "bool",
          "name": "isPublished",
          "type": "bool"
        },
        {
          "internalType": "uint256",
          "name": "sections",
          "type": "uint256"
        },
        {
          "internalType": "uint256",
          "name": "createdAt",
          "type": "uint256"
        },
        {
          "internalType": "uint256",
          "name": "updatedAt",
          "type": "uint256"
        }
      ],
      "stateMutability": "view",
      "type": "function",
      "constant": true
    },
    {
      "inputs": [
        {
          "internalType": "address",
          "name": "",
          "type": "address"
        }
      ],
      "name": "instructors",
      "outputs": [
        {
          "internalType": "uint256",
          "name": "id",
          "type": "uint256"
        },
        {
          "internalType": "string",
          "name": "firstName",
          "type": "string"
        },
        {
          "internalType": "string",
          "name": "lastName",
          "type": "string"
        },
        {
          "internalType": "string",
          "name": "location",
          "type": "string"
        },
        {
          "internalType": "uint256",
          "name": "gender",
          "type": "uint256"
        },
        {
          "internalType": "bool",
          "name": "isVerified",
          "type": "bool"
        },
        {
          "internalType": "string",
          "name": "ipfsPhoto",
          "type": "string"
        },
        {
          "internalType": "string",
          "name": "twitter",
          "type": "string"
        },
        {
          "internalType": "string",
          "name": "linkedin",
          "type": "string"
        },
        {
          "internalType": "uint256",
          "name": "createdAt",
          "type": "uint256"
        }
      ],
      "stateMutability": "view",
      "type": "function",
      "constant": true
    },
    {
      "inputs": [
        {
          "internalType": "address",
          "name": "",
          "type": "address"
        },
        {
          "internalType": "uint256",
          "name": "",
          "type": "uint256"
        }
      ],
      "name": "studentCourses",
      "outputs": [
        {
          "internalType": "uint256",
          "name": "id",
          "type": "uint256"
        },
        {
          "internalType": "uint256",
          "name": "courseId",
          "type": "uint256"
        },
        {
          "internalType": "bool",
          "name": "isActive",
          "type": "bool"
        },
        {
          "internalType": "uint256",
          "name": "unlocked",
          "type": "uint256"
        },
        {
          "internalType": "uint256",
          "name": "sectionsViewed",
          "type": "uint256"
        },
        {
          "internalType": "uint256",
          "name": "purchasedAt",
          "type": "uint256"
        }
      ],
      "stateMutability": "view",
      "type": "function",
      "constant": true
    },
    {
      "inputs": [
        {
          "internalType": "address",
          "name": "",
          "type": "address"
        }
      ],
      "name": "students",
      "outputs": [
        {
          "internalType": "uint256",
          "name": "id",
          "type": "uint256"
        },
        {
          "internalType": "string",
          "name": "name",
          "type": "string"
        },
        {
          "internalType": "string",
          "name": "emailAddress",
          "type": "string"
        },
        {
          "internalType": "uint256",
          "name": "gender",
          "type": "uint256"
        },
        {
          "internalType": "string",
          "name": "ipfsPhoto",
          "type": "string"
        },
        {
          "internalType": "string",
          "name": "country",
          "type": "string"
        },
        {
          "internalType": "uint256",
          "name": "createdAt",
          "type": "uint256"
        }
      ],
      "stateMutability": "view",
      "type": "function",
      "constant": true
    },
    {
      "inputs": [
        {
          "internalType": "uint256",
          "name": "amount",
          "type": "uint256"
        }
      ],
      "name": "setInstructorRegistrationFee",
      "outputs": [],
      "stateMutability": "nonpayable",
      "type": "function"
    },
    {
      "inputs": [
        {
          "internalType": "string",
          "name": "name",
          "type": "string"
        },
        {
          "internalType": "string",
          "name": "image",
          "type": "string"
        }
      ],
      "name": "addCategory",
      "outputs": [],
      "stateMutability": "nonpayable",
      "type": "function"
    },
    {
      "inputs": [
        {
          "internalType": "string",
          "name": "ipfsHash",
          "type": "string"
        }
      ],
      "name": "createCourse",
      "outputs": [],
      "stateMutability": "nonpayable",
      "type": "function"
    },
    {
      "inputs": [],
      "name": "getInstructorCoursesLength",
      "outputs": [
        {
          "internalType": "uint256",
          "name": "",
          "type": "uint256"
        }
      ],
      "stateMutability": "view",
      "type": "function",
      "constant": true
    },
    {
      "inputs": [
        {
          "internalType": "uint256",
          "name": "index",
          "type": "uint256"
        }
      ],
      "name": "getInstructorCourseIdAtIndex",
      "outputs": [
        {
          "internalType": "uint256",
          "name": "",
          "type": "uint256"
        }
      ],
      "stateMutability": "view",
      "type": "function",
      "constant": true
    },
    {
      "inputs": [
        {
          "internalType": "string",
          "name": "firstName",
          "type": "string"
        },
        {
          "internalType": "string",
          "name": "lastName",
          "type": "string"
        },
        {
          "internalType": "string",
          "name": "location",
          "type": "string"
        },
        {
          "internalType": "uint256",
          "name": "gender",
          "type": "uint256"
        }
      ],
      "name": "createInstructorAccount",
      "outputs": [],
      "stateMutability": "nonpayable",
      "type": "function"
    },
    {
      "inputs": [
        {
          "internalType": "string",
          "name": "name",
          "type": "string"
        },
        {
          "internalType": "string",
          "name": "email",
          "type": "string"
        },
        {
          "internalType": "uint256",
          "name": "gender",
          "type": "uint256"
        }
      ],
      "name": "createStudentAccount",
      "outputs": [],
      "stateMutability": "nonpayable",
      "type": "function"
    },
    {
      "inputs": [
        {
          "internalType": "uint256",
          "name": "courseId",
          "type": "uint256"
        }
      ],
      "name": "purchaseCourse",
      "outputs": [],
      "stateMutability": "nonpayable",
      "type": "function"
    },
    {
      "inputs": [
        {
          "internalType": "uint256",
          "name": "courseId",
          "type": "uint256"
        }
      ],
      "name": "rejectCourse",
      "outputs": [],
      "stateMutability": "nonpayable",
      "type": "function"
    },
    {
      "inputs": [
        {
          "internalType": "uint256",
          "name": "courseId",
          "type": "uint256"
        },
        {
          "internalType": "string",
          "name": "uri",
          "type": "string"
        }
      ],
      "name": "onNextCourseSection",
      "outputs": [
        {
          "internalType": "string",
          "name": "",
          "type": "string"
        }
      ],
      "stateMutability": "nonpayable",
      "type": "function"
    }
  ],
  "bytecode": "0x60806040526001600455600160055560016006556001600755686c6b935b8bbd4000006008553480156200003257600080fd5b5060405162004f3638038062004f3683398181016040528101906200005891906200072e565b336000806101000a81548173ffffffffffffffffffffffffffffffffffffffff021916908373ffffffffffffffffffffffffffffffffffffffff16021790555082600160006101000a81548173ffffffffffffffffffffffffffffffffffffffff021916908373ffffffffffffffffffffffffffffffffffffffff16021790555081600260006101000a81548173ffffffffffffffffffffffffffffffffffffffff021916908373ffffffffffffffffffffffffffffffffffffffff16021790555080600360006101000a81548173ffffffffffffffffffffffffffffffffffffffff021916908373ffffffffffffffffffffffffffffffffffffffff1602179055506200016b6200017460201b60201c565b50505062000bea565b620001d46040518060400160405280600f81526020017f57656220446576656c6f706d656e74000000000000000000000000000000000081525060405180606001604052806027815260200162004eca60279139620005a660201b60201c565b620002506040518060400160405280600781526020017f436f6f6b696e67000000000000000000000000000000000000000000000000008152506040518060400160405280601f81526020017f2f696d616765732f63617465676f726965732f636f6f6b696e672e7765627000815250620005a660201b60201c565b620002cc6040518060400160405280600f81526020017f55492f55582044657369676e696e6700000000000000000000000000000000008152506040518060400160405280601d81526020017f2f696d616765732f63617465676f726965732f75692d75782e77656270000000815250620005a660201b60201c565b6200032c6040518060400160405280600c81526020017f334420416e696d6174696f6e000000000000000000000000000000000000000081525060405180606001604052806021815260200162004e8660219139620005a660201b60201c565b6200038c6040518060400160405280600c81526020017f496c6c757374726174696f6e000000000000000000000000000000000000000081525060405180606001604052806024815260200162004e6260249139620005a660201b60201c565b620003ec6040518060400160405280600c81526020017f4461746120536369656e6365000000000000000000000000000000000000000081525060405180606001604052806024815260200162004ef160249139620005a660201b60201c565b620004686040518060400160405280600881526020017f537065616b696e670000000000000000000000000000000000000000000000008152506040518060400160405280602081526020017f2f696d616765732f63617465676f726965732f737065616b696e672e77656270815250620005a660201b60201c565b620004e46040518060400160405280600581526020017f4d757369630000000000000000000000000000000000000000000000000000008152506040518060400160405280601d81526020017f2f696d616765732f63617465676f726965732f6d757369632e77656270000000815250620005a660201b60201c565b620005446040518060400160405280600b81526020017f50686f746f67726170687900000000000000000000000000000000000000000081525060405180606001604052806023815260200162004ea760239139620005a660201b60201c565b620005a46040518060400160405280600981526020017f4d61726b6574696e67000000000000000000000000000000000000000000000081525060405180606001604052806021815260200162004f1560219139620005a660201b60201c565b565b60008054906101000a900473ffffffffffffffffffffffffffffffffffffffff1673ffffffffffffffffffffffffffffffffffffffff163373ffffffffffffffffffffffffffffffffffffffff161462000637576040517f08c379a00000000000000000000000000000000000000000000000000000000081526004016200062e90620007eb565b60405180910390fd5b60405180606001604052806007548152602001838152602001828152506009600060075481526020019081526020016000206000820151816000015560208201518160010190816200068a919062000a87565b506040820151816002019081620006a2919062000a87565b5090505060076000815480929190620006bb9062000b9d565b91905055505050565b600080fd5b600073ffffffffffffffffffffffffffffffffffffffff82169050919050565b6000620006f682620006c9565b9050919050565b6200070881620006e9565b81146200071457600080fd5b50565b6000815190506200072881620006fd565b92915050565b6000806000606084860312156200074a5762000749620006c4565b5b60006200075a8682870162000717565b93505060206200076d8682870162000717565b9250506040620007808682870162000717565b9150509250925092565b600082825260208201905092915050565b7f556e617574686f72697a65640000000000000000000000000000000000000000600082015250565b6000620007d3600c836200078a565b9150620007e0826200079b565b602082019050919050565b600060208201905081810360008301526200080681620007c4565b9050919050565b600081519050919050565b7f4e487b7100000000000000000000000000000000000000000000000000000000600052604160045260246000fd5b7f4e487b7100000000000000000000000000000000000000000000000000000000600052602260045260246000fd5b600060028204905060018216806200088f57607f821691505b602082108103620008a557620008a462000847565b5b50919050565b60008190508160005260206000209050919050565b60006020601f8301049050919050565b600082821b905092915050565b6000600883026200090f7fffffffffffffffffffffffffffffffffffffffffffffffffffffffffffffffff82620008d0565b6200091b8683620008d0565b95508019841693508086168417925050509392505050565b6000819050919050565b6000819050919050565b600062000968620009626200095c8462000933565b6200093d565b62000933565b9050919050565b6000819050919050565b620009848362000947565b6200099c62000993826200096f565b848454620008dd565b825550505050565b600090565b620009b3620009a4565b620009c081848462000979565b505050565b5b81811015620009e857620009dc600082620009a9565b600181019050620009c6565b5050565b601f82111562000a375762000a0181620008ab565b62000a0c84620008c0565b8101602085101562000a1c578190505b62000a3462000a2b85620008c0565b830182620009c5565b50505b505050565b600082821c905092915050565b600062000a5c6000198460080262000a3c565b1980831691505092915050565b600062000a77838362000a49565b9150826002028217905092915050565b62000a92826200080d565b67ffffffffffffffff81111562000aae5762000aad62000818565b5b62000aba825462000876565b62000ac7828285620009ec565b600060209050601f83116001811462000aff576000841562000aea578287015190505b62000af6858262000a69565b86555062000b66565b601f19841662000b0f86620008ab565b60005b8281101562000b395784890151825560018201915060208501945060208101905062000b12565b8683101562000b59578489015162000b55601f89168262000a49565b8355505b6001600288020188555050505b505050505050565b7f4e487b7100000000000000000000000000000000000000000000000000000000600052601160045260246000fd5b600062000baa8262000933565b91507fffffffffffffffffffffffffffffffffffffffffffffffffffffffffffffffff820362000bdf5762000bde62000b6e565b5b600182019050919050565b6142688062000bfa6000396000f3fe608060405234801561001057600080fd5b50600436106101215760003560e01c8063823d5bf4116100ad578063a6c807a911610071578063a6c807a914610316578063aa39566c1461034c578063c6cdbe5e1461036a578063cd1319381461039c578063fd95cc51146103b857610121565b8063823d5bf41461025757806388e62230146102755780638a38ab2c146102a557806392ae6528146102c157806396f979d2146102df57610121565b80631bf703b2116100f45780631bf703b2146101985780632a47d91c146101b4578063332d90a9146101ed5780634b44bb211461020b5780635a6373841461023b57610121565b8063097167ba1461012657806309df4f66146101425780630da079b41461016057806313a017e71461017c575b600080fd5b610140600480360381019061013b91906132b1565b6103ed565b005b61014a610485565b60405161015791906132ed565b60405180910390f35b61017a6004803603810190610175919061344e565b61048b565b005b610196600480360381019061019191906132b1565b6109a6565b005b6101b260048036038101906101ad91906134d9565b610f09565b005b6101ce60048036038101906101c991906135af565b61101e565b6040516101e49a99989796959493929190613676565b60405180910390f35b6101f56113af565b60405161020291906132ed565b60405180910390f35b6102256004803603810190610220919061373c565b6113b5565b6040516102329190613798565b60405180910390f35b610255600480360381019061025091906137ba565b611685565b005b61025f611e94565b60405161026c91906132ed565b60405180910390f35b61028f600480360381019061028a91906132b1565b611e9a565b60405161029c91906132ed565b60405180910390f35b6102bf60048036038101906102ba9190613875565b611f86565b005b6102c96123c0565b6040516102d691906132ed565b60405180910390f35b6102f960048036038101906102f491906132b1565b612491565b60405161030d9897969594939291906138cd565b60405180910390f35b610330600480360381019061032b91906135af565b61258e565b6040516103439796959493929190613952565b60405180910390f35b6103546127f0565b60405161036191906132ed565b60405180910390f35b610384600480360381019061037f91906132b1565b6127f6565b604051610393939291906139dd565b60405180910390f35b6103b660048036038101906103b191906132b1565b612930565b005b6103d260048036038101906103cd9190613a22565b612bc7565b6040516103e496959493929190613a62565b60405180910390f35b60008054906101000a900473ffffffffffffffffffffffffffffffffffffffff1673ffffffffffffffffffffffffffffffffffffffff163373ffffffffffffffffffffffffffffffffffffffff161461047b576040517f08c379a000000000000000000000000000000000000000000000000000000000815260040161047290613b0f565b60405180910390fd5b8060088190555050565b60065481565b6000600b60003373ffffffffffffffffffffffffffffffffffffffff1673ffffffffffffffffffffffffffffffffffffffff1681526020019081526020016000206000015414801561051f57506000600a60003373ffffffffffffffffffffffffffffffffffffffff1673ffffffffffffffffffffffffffffffffffffffff16815260200190815260200160002060000154145b61055e576040517f08c379a000000000000000000000000000000000000000000000000000000000815260040161055590613b0f565b60405180910390fd5b6000600b60003373ffffffffffffffffffffffffffffffffffffffff1673ffffffffffffffffffffffffffffffffffffffff16815260200190815260200160002060405180610100016040529081600082015481526020016001820180546105c590613b5e565b80601f01602080910402602001604051908101604052809291908181526020018280546105f190613b5e565b801561063e5780601f106106135761010080835404028352916020019161063e565b820191906000526020600020905b81548152906001019060200180831161062157829003601f168201915b5050505050815260200160028201805461065790613b5e565b80601f016020809104026020016040519081016040528092919081815260200182805461068390613b5e565b80156106d05780601f106106a5576101008083540402835291602001916106d0565b820191906000526020600020905b8154815290600101906020018083116106b357829003601f168201915b50505050508152602001600382015481526020016004820180546106f390613b5e565b80601f016020809104026020016040519081016040528092919081815260200182805461071f90613b5e565b801561076c5780601f106107415761010080835404028352916020019161076c565b820191906000526020600020905b81548152906001019060200180831161074f57829003601f168201915b5050505050815260200160058201805461078590613b5e565b80601f01602080910402602001604051908101604052809291908181526020018280546107b190613b5e565b80156107fe5780601f106107d3576101008083540402835291602001916107fe565b820191906000526020600020905b8154815290600101906020018083116107e157829003601f168201915b50505050508152602001600682015481526020016007820180548060200260200160405190810160405280929190818152602001828054801561086057602002820191906000526020600020905b81548152602001906001019080831161084c575b50505050508152505090506040518061010001604052806005548152602001858152602001848152602001838152602001826080015181526020018260a0015181526020014281526020018260e00151815250600b60003373ffffffffffffffffffffffffffffffffffffffff1673ffffffffffffffffffffffffffffffffffffffff1681526020019081526020016000206000820151816000015560208201518160010190816109119190613d3b565b5060408201518160020190816109279190613d3b565b506060820151816003015560808201518160040190816109479190613d3b565b5060a082015181600501908161095d9190613d3b565b5060c0820151816006015560e0820151816007019080519060200190610984929190613173565b509050506005600081548092919061099b90613e3c565b919050555050505050565b6000600b60003373ffffffffffffffffffffffffffffffffffffffff1673ffffffffffffffffffffffffffffffffffffffff1681526020019081526020016000206000015403610a2b576040517f08c379a0000000000000000000000000000000000000000000000000000000008152600401610a2290613b0f565b60405180910390fd5b6000600d60003373ffffffffffffffffffffffffffffffffffffffff1673ffffffffffffffffffffffffffffffffffffffff1681526020019081526020016000208281548110610a7e57610a7d613e84565b5b90600052602060002090600602016040518060c001604052908160008201548152602001600182015481526020016002820160009054906101000a900460ff16151515158152602001600382015481526020016004820154815260200160058201548152505090506000600c600084815260200190815260200160002060405180610120016040529081600082015481526020016001820160009054906101000a900473ffffffffffffffffffffffffffffffffffffffff1673ffffffffffffffffffffffffffffffffffffffff1673ffffffffffffffffffffffffffffffffffffffff16815260200160028201805480602002602001604051908101604052809291908181526020018280548015610bec57602002820191906000526020600020905b8160009054906101000a900473ffffffffffffffffffffffffffffffffffffffff1673ffffffffffffffffffffffffffffffffffffffff1681526020019060010190808311610ba2575b5050505050815260200160038201548152602001600482018054610c0f90613b5e565b80601f0160208091040260200160405190810160405280929190818152602001828054610c3b90613b5e565b8015610c885780601f10610c5d57610100808354040283529160200191610c88565b820191906000526020600020905b815481529060010190602001808311610c6b57829003601f168201915b505050505081526020016005820160009054906101000a900460ff161515151581526020016006820154815260200160078201548152602001600882015481525050905060028260a0015111610d13576040517f08c379a0000000000000000000000000000000000000000000000000000000008152600401610d0a90613f25565b60405180910390fd5b60008160c001518360800151610d299190613f45565b905060008111610d6e576040517f08c379a0000000000000000000000000000000000000000000000000000000008152600401610d6590613feb565b60405180910390fd5b6000826060015182610d80919061400b565b9050600d60003373ffffffffffffffffffffffffffffffffffffffff1673ffffffffffffffffffffffffffffffffffffffff1681526020019081526020016000208581548110610dd357610dd2613e84565b5b906000526020600020906006020160008082016000905560018201600090556002820160006101000a81549060ff02191690556003820160009055600482016000905560058201600090555050600160009054906101000a900473ffffffffffffffffffffffffffffffffffffffff1673ffffffffffffffffffffffffffffffffffffffff166323b872dd3033846040518463ffffffff1660e01b8152600401610e7f9392919061404d565b6020604051808303816000875af1158015610e9e573d6000803e3d6000fd5b505050506040513d601f19601f82011682018060405250810190610ec291906140b0565b507fdc66f972de0418acb83d72185cdafd8f63206f06f26f08008effbcf11495f2fd33868660800151604051610efa939291906140dd565b60405180910390a15050505050565b60008054906101000a900473ffffffffffffffffffffffffffffffffffffffff1673ffffffffffffffffffffffffffffffffffffffff163373ffffffffffffffffffffffffffffffffffffffff1614610f97576040517f08c379a0000000000000000000000000000000000000000000000000000000008152600401610f8e90613b0f565b60405180910390fd5b6040518060600160405280600754815260200183815260200182815250600960006007548152602001908152602001600020600082015181600001556020820151816001019081610fe89190613d3b565b506040820151816002019081610ffe9190613d3b565b509050506007600081548092919061101590613e3c565b91905055505050565b600a60205280600052604060002060009150905080600001549080600101805461104790613b5e565b80601f016020809104026020016040519081016040528092919081815260200182805461107390613b5e565b80156110c05780601f10611095576101008083540402835291602001916110c0565b820191906000526020600020905b8154815290600101906020018083116110a357829003601f168201915b5050505050908060020180546110d590613b5e565b80601f016020809104026020016040519081016040528092919081815260200182805461110190613b5e565b801561114e5780601f106111235761010080835404028352916020019161114e565b820191906000526020600020905b81548152906001019060200180831161113157829003601f168201915b50505050509080600301805461116390613b5e565b80601f016020809104026020016040519081016040528092919081815260200182805461118f90613b5e565b80156111dc5780601f106111b1576101008083540402835291602001916111dc565b820191906000526020600020905b8154815290600101906020018083116111bf57829003601f168201915b5050505050908060040154908060050160009054906101000a900460ff169080600601805461120a90613b5e565b80601f016020809104026020016040519081016040528092919081815260200182805461123690613b5e565b80156112835780601f1061125857610100808354040283529160200191611283565b820191906000526020600020905b81548152906001019060200180831161126657829003601f168201915b50505050509080600701805461129890613b5e565b80601f01602080910402602001604051908101604052809291908181526020018280546112c490613b5e565b80156113115780601f106112e657610100808354040283529160200191611311565b820191906000526020600020905b8154815290600101906020018083116112f457829003601f168201915b50505050509080600801805461132690613b5e565b80601f016020809104026020016040519081016040528092919081815260200182805461135290613b5e565b801561139f5780601f106113745761010080835404028352916020019161139f565b820191906000526020600020905b81548152906001019060200180831161138257829003601f168201915b50505050509080600a015490508a565b60045481565b60606000600b60003373ffffffffffffffffffffffffffffffffffffffff1673ffffffffffffffffffffffffffffffffffffffff168152602001908152602001600020600001540361143c576040517f08c379a000000000000000000000000000000000000000000000000000000000815260040161143390613b0f565b60405180910390fd5b6000600c600085815260200190815260200160002090506000600d60003373ffffffffffffffffffffffffffffffffffffffff1673ffffffffffffffffffffffffffffffffffffffff16815260200190815260200160002085815481106114a6576114a5613e84565b5b906000526020600020906006020190506000826006015483600301546114cc9190614143565b9050808260030154106115bc57808260030160008282546114ed9190613f45565b92505081905550600160009054906101000a900473ffffffffffffffffffffffffffffffffffffffff1673ffffffffffffffffffffffffffffffffffffffff166323b872dd308560010160009054906101000a900473ffffffffffffffffffffffffffffffffffffffff16846040518463ffffffff1660e01b81526004016115779392919061404d565b6020604051808303816000875af1158015611596573d6000803e3d6000fd5b505050506040513d601f19601f820116820180604052508101906115ba91906140b0565b505b6000836006015483600401546115d29190614143565b905060018110611628576115e7338888612c2d565b6040518060400160405280601081526020017f636f757273655f636f6d706c657465640000000000000000000000000000000081525094505050505061167f565b82600401600081548092919061163d90613e3c565b91905055506040518060400160405280601381526020017f636f757273655f6e6578745f73656374696f6e000000000000000000000000008152509450505050505b92915050565b6000600b60003373ffffffffffffffffffffffffffffffffffffffff1673ffffffffffffffffffffffffffffffffffffffff1681526020019081526020016000206000015414801561171957506000600a60003373ffffffffffffffffffffffffffffffffffffffff1673ffffffffffffffffffffffffffffffffffffffff16815260200190815260200160002060000154145b611758576040517f08c379a000000000000000000000000000000000000000000000000000000000815260040161174f90613b0f565b60405180910390fd5b600160009054906101000a900473ffffffffffffffffffffffffffffffffffffffff1673ffffffffffffffffffffffffffffffffffffffff16636c43a2ca33306008546040518463ffffffff1660e01b81526004016117b99392919061404d565b6020604051808303816000875af11580156117d8573d6000803e3d6000fd5b505050506040513d601f19601f820116820180604052508101906117fc91906140b0565b50600160009054906101000a900473ffffffffffffffffffffffffffffffffffffffff1673ffffffffffffffffffffffffffffffffffffffff166323b872dd33306008546040518463ffffffff1660e01b815260040161185e9392919061404d565b6020604051808303816000875af115801561187d573d6000803e3d6000fd5b505050506040513d601f19601f820116820180604052508101906118a191906140b0565b506000600a60003373ffffffffffffffffffffffffffffffffffffffff1673ffffffffffffffffffffffffffffffffffffffff168152602001908152602001600020604051806101600160405290816000820154815260200160018201805461190990613b5e565b80601f016020809104026020016040519081016040528092919081815260200182805461193590613b5e565b80156119825780601f1061195757610100808354040283529160200191611982565b820191906000526020600020905b81548152906001019060200180831161196557829003601f168201915b5050505050815260200160028201805461199b90613b5e565b80601f01602080910402602001604051908101604052809291908181526020018280546119c790613b5e565b8015611a145780601f106119e957610100808354040283529160200191611a14565b820191906000526020600020905b8154815290600101906020018083116119f757829003601f168201915b50505050508152602001600382018054611a2d90613b5e565b80601f0160208091040260200160405190810160405280929190818152602001828054611a5990613b5e565b8015611aa65780601f10611a7b57610100808354040283529160200191611aa6565b820191906000526020600020905b815481529060010190602001808311611a8957829003601f168201915b50505050508152602001600482015481526020016005820160009054906101000a900460ff16151515158152602001600682018054611ae490613b5e565b80601f0160208091040260200160405190810160405280929190818152602001828054611b1090613b5e565b8015611b5d5780601f10611b3257610100808354040283529160200191611b5d565b820191906000526020600020905b815481529060010190602001808311611b4057829003601f168201915b50505050508152602001600782018054611b7690613b5e565b80601f0160208091040260200160405190810160405280929190818152602001828054611ba290613b5e565b8015611bef5780601f10611bc457610100808354040283529160200191611bef565b820191906000526020600020905b815481529060010190602001808311611bd257829003601f168201915b50505050508152602001600882018054611c0890613b5e565b80601f0160208091040260200160405190810160405280929190818152602001828054611c3490613b5e565b8015611c815780601f10611c5657610100808354040283529160200191611c81565b820191906000526020600020905b815481529060010190602001808311611c6457829003601f168201915b5050505050815260200160098201805480602002602001604051908101604052809291908181526020018280548015611cd957602002820191906000526020600020905b815481526020019060010190808311611cc5575b50505050508152602001600a82015481525050905060405180610160016040528060045481526020018681526020018581526020018481526020018381526020016000151581526020018260c0015181526020018260e0015181526020018261010001518152602001826101200151815260200142815250600a60003373ffffffffffffffffffffffffffffffffffffffff1673ffffffffffffffffffffffffffffffffffffffff168152602001908152602001600020600082015181600001556020820151816001019081611daf9190613d3b565b506040820151816002019081611dc59190613d3b565b506060820151816003019081611ddb9190613d3b565b506080820151816004015560a08201518160050160006101000a81548160ff02191690831515021790555060c0820151816006019081611e1b9190613d3b565b5060e0820151816007019081611e319190613d3b565b50610100820151816008019081611e489190613d3b565b50610120820151816009019080519060200190611e66929190613173565b5061014082015181600a015590505060046000815480929190611e8890613e3c565b91905055505050505050565b60055481565b600080600a60003373ffffffffffffffffffffffffffffffffffffffff1673ffffffffffffffffffffffffffffffffffffffff1681526020019081526020016000206000015403611f20576040517f08c379a0000000000000000000000000000000000000000000000000000000008152600401611f1790613b0f565b60405180910390fd5b600a60003373ffffffffffffffffffffffffffffffffffffffff1673ffffffffffffffffffffffffffffffffffffffff1681526020019081526020016000206009018281548110611f7457611f73613e84565b5b90600052602060002001549050919050565b6000600a60003373ffffffffffffffffffffffffffffffffffffffff1673ffffffffffffffffffffffffffffffffffffffff168152602001908152602001600020600001540361200b576040517f08c379a000000000000000000000000000000000000000000000000000000000815260040161200290613b0f565b60405180910390fd5b6000600c6000600654815260200190815260200160002060405180610120016040529081600082015481526020016001820160009054906101000a900473ffffffffffffffffffffffffffffffffffffffff1673ffffffffffffffffffffffffffffffffffffffff1673ffffffffffffffffffffffffffffffffffffffff1681526020016002820180548060200260200160405190810160405280929190818152602001828054801561211357602002820191906000526020600020905b8160009054906101000a900473ffffffffffffffffffffffffffffffffffffffff1673ffffffffffffffffffffffffffffffffffffffff16815260200190600101908083116120c9575b505050505081526020016003820154815260200160048201805461213690613b5e565b80601f016020809104026020016040519081016040528092919081815260200182805461216290613b5e565b80156121af5780601f10612184576101008083540402835291602001916121af565b820191906000526020600020905b81548152906001019060200180831161219257829003601f168201915b505050505081526020016005820160009054906101000a900460ff161515151581526020016006820154815260200160078201548152602001600882015481525050905060405180610120016040528060065481526020013373ffffffffffffffffffffffffffffffffffffffff16815260200182604001518152602001600081526020018381526020016000151581526020016000815260200142815260200142815250600c600060065481526020019081526020016000206000820151816000015560208201518160010160006101000a81548173ffffffffffffffffffffffffffffffffffffffff021916908373ffffffffffffffffffffffffffffffffffffffff16021790555060408201518160020190805190602001906122d69291906131c0565b506060820151816003015560808201518160040190816122f69190613d3b565b5060a08201518160050160006101000a81548160ff02191690831515021790555060c0820151816006015560e082015181600701556101008201518160080155905050600a60003373ffffffffffffffffffffffffffffffffffffffff1673ffffffffffffffffffffffffffffffffffffffff1681526020019081526020016000206009016006549080600181540180825580915050600190039060005260206000200160009091909190915055600660008154809291906123b790613e3c565b91905055505050565b600080600a60003373ffffffffffffffffffffffffffffffffffffffff1673ffffffffffffffffffffffffffffffffffffffff1681526020019081526020016000206000015403612446576040517f08c379a000000000000000000000000000000000000000000000000000000000815260040161243d90613b0f565b60405180910390fd5b600a60003373ffffffffffffffffffffffffffffffffffffffff1673ffffffffffffffffffffffffffffffffffffffff16815260200190815260200160002060090180549050905090565b600c6020528060005260406000206000915090508060000154908060010160009054906101000a900473ffffffffffffffffffffffffffffffffffffffff16908060030154908060040180546124e690613b5e565b80601f016020809104026020016040519081016040528092919081815260200182805461251290613b5e565b801561255f5780601f106125345761010080835404028352916020019161255f565b820191906000526020600020905b81548152906001019060200180831161254257829003601f168201915b5050505050908060050160009054906101000a900460ff16908060060154908060070154908060080154905088565b600b6020528060005260406000206000915090508060000154908060010180546125b790613b5e565b80601f01602080910402602001604051908101604052809291908181526020018280546125e390613b5e565b80156126305780601f1061260557610100808354040283529160200191612630565b820191906000526020600020905b81548152906001019060200180831161261357829003601f168201915b50505050509080600201805461264590613b5e565b80601f016020809104026020016040519081016040528092919081815260200182805461267190613b5e565b80156126be5780601f10612693576101008083540402835291602001916126be565b820191906000526020600020905b8154815290600101906020018083116126a157829003601f168201915b5050505050908060030154908060040180546126d990613b5e565b80601f016020809104026020016040519081016040528092919081815260200182805461270590613b5e565b80156127525780601f1061272757610100808354040283529160200191612752565b820191906000526020600020905b81548152906001019060200180831161273557829003601f168201915b50505050509080600501805461276790613b5e565b80601f016020809104026020016040519081016040528092919081815260200182805461279390613b5e565b80156127e05780601f106127b5576101008083540402835291602001916127e0565b820191906000526020600020905b8154815290600101906020018083116127c357829003601f168201915b5050505050908060060154905087565b60075481565b600960205280600052604060002060009150905080600001549080600101805461281f90613b5e565b80601f016020809104026020016040519081016040528092919081815260200182805461284b90613b5e565b80156128985780601f1061286d57610100808354040283529160200191612898565b820191906000526020600020905b81548152906001019060200180831161287b57829003601f168201915b5050505050908060020180546128ad90613b5e565b80601f01602080910402602001604051908101604052809291908181526020018280546128d990613b5e565b80156129265780601f106128fb57610100808354040283529160200191612926565b820191906000526020600020905b81548152906001019060200180831161290957829003601f168201915b5050505050905083565b6000600b60003373ffffffffffffffffffffffffffffffffffffffff1673ffffffffffffffffffffffffffffffffffffffff16815260200190815260200160002060000154036129b5576040517f08c379a00000000000000000000000000000000000000000000000000000000081526004016129ac90613b0f565b60405180910390fd5b6000600c60008381526020019081526020016000209050600160009054906101000a900473ffffffffffffffffffffffffffffffffffffffff1673ffffffffffffffffffffffffffffffffffffffff166323b872dd333084600301546040518463ffffffff1660e01b8152600401612a2f9392919061404d565b6020604051808303816000875af1158015612a4e573d6000803e3d6000fd5b505050506040513d601f19601f82011682018060405250810190612a7291906140b0565b50600d60003373ffffffffffffffffffffffffffffffffffffffff1673ffffffffffffffffffffffffffffffffffffffff1681526020019081526020016000206040518060c001604052808481526020018481526020016001151581526020018360030154815260200160008152602001428152509080600181540180825580915050600190039060005260206000209060060201600090919091909150600082015181600001556020820151816001015560408201518160020160006101000a81548160ff021916908315150217905550606082015181600301556080820151816004015560a0820151816005015550507fba05698ffe932ba01d3d70f62a2e48d6719cc5df3bdcf9118015af495c4a39b18160010160009054906101000a900473ffffffffffffffffffffffffffffffffffffffff163384604051612bbb9392919061404d565b60405180910390a15050565b600d6020528160005260406000208181548110612be357600080fd5b9060005260206000209060060201600091509150508060000154908060010154908060020160009054906101000a900460ff16908060030154908060040154908060050154905086565b612c38828483612c47565b612c428284612efb565b505050565b6000600c600085815260200190815260200160002060405180610120016040529081600082015481526020016001820160009054906101000a900473ffffffffffffffffffffffffffffffffffffffff1673ffffffffffffffffffffffffffffffffffffffff1673ffffffffffffffffffffffffffffffffffffffff16815260200160028201805480602002602001604051908101604052809291908181526020018280548015612d4d57602002820191906000526020600020905b8160009054906101000a900473ffffffffffffffffffffffffffffffffffffffff1673ffffffffffffffffffffffffffffffffffffffff1681526020019060010190808311612d03575b5050505050815260200160038201548152602001600482018054612d7090613b5e565b80601f0160208091040260200160405190810160405280929190818152602001828054612d9c90613b5e565b8015612de95780601f10612dbe57610100808354040283529160200191612de9565b820191906000526020600020905b815481529060010190602001808311612dcc57829003601f168201915b505050505081526020016005820160009054906101000a900460ff1615151515815260200160068201548152602001600782015481526020016008820154815250509050600360009054906101000a900473ffffffffffffffffffffffffffffffffffffffff1673ffffffffffffffffffffffffffffffffffffffff166304b444d984846040518363ffffffff1660e01b8152600401612e8a929190614174565b600060405180830381600087803b158015612ea457600080fd5b505af1158015612eb8573d6000803e3d6000fd5b505050507ffec61b9ec0e29047dbeea981617649d79f187d172cfd492695a3d0bfee28883e8385604051612eed9291906141a4565b60405180910390a150505050565b6000600c600084815260200190815260200160002060405180610120016040529081600082015481526020016001820160009054906101000a900473ffffffffffffffffffffffffffffffffffffffff1673ffffffffffffffffffffffffffffffffffffffff1673ffffffffffffffffffffffffffffffffffffffff1681526020016002820180548060200260200160405190810160405280929190818152602001828054801561300157602002820191906000526020600020905b8160009054906101000a900473ffffffffffffffffffffffffffffffffffffffff1673ffffffffffffffffffffffffffffffffffffffff1681526020019060010190808311612fb7575b505050505081526020016003820154815260200160048201805461302490613b5e565b80601f016020809104026020016040519081016040528092919081815260200182805461305090613b5e565b801561309d5780601f106130725761010080835404028352916020019161309d565b820191906000526020600020905b81548152906001019060200180831161308057829003601f168201915b505050505081526020016005820160009054906101000a900460ff1615151515815260200160068201548152602001600782015481526020016008820154815250509050600260009054906101000a900473ffffffffffffffffffffffffffffffffffffffff1673ffffffffffffffffffffffffffffffffffffffff1663b510391f836040518263ffffffff1660e01b815260040161313c9190614204565b600060405180830381600087803b15801561315657600080fd5b505af115801561316a573d6000803e3d6000fd5b50505050505050565b8280548282559060005260206000209081019282156131af579160200282015b828111156131ae578251825591602001919060010190613193565b5b5090506131bc919061324a565b5090565b828054828255906000526020600020908101928215613239579160200282015b828111156132385782518260006101000a81548173ffffffffffffffffffffffffffffffffffffffff021916908373ffffffffffffffffffffffffffffffffffffffff160217905550916020019190600101906131e0565b5b509050613246919061324a565b5090565b5b8082111561326357600081600090555060010161324b565b5090565b6000604051905090565b600080fd5b600080fd5b6000819050919050565b61328e8161327b565b811461329957600080fd5b50565b6000813590506132ab81613285565b92915050565b6000602082840312156132c7576132c6613271565b5b60006132d58482850161329c565b91505092915050565b6132e78161327b565b82525050565b600060208201905061330260008301846132de565b92915050565b600080fd5b600080fd5b6000601f19601f8301169050919050565b7f4e487b7100000000000000000000000000000000000000000000000000000000600052604160045260246000fd5b61335b82613312565b810181811067ffffffffffffffff8211171561337a57613379613323565b5b80604052505050565b600061338d613267565b90506133998282613352565b919050565b600067ffffffffffffffff8211156133b9576133b8613323565b5b6133c282613312565b9050602081019050919050565b82818337600083830152505050565b60006133f16133ec8461339e565b613383565b90508281526020810184848401111561340d5761340c61330d565b5b6134188482856133cf565b509392505050565b600082601f83011261343557613434613308565b5b81356134458482602086016133de565b91505092915050565b60008060006060848603121561346757613466613271565b5b600084013567ffffffffffffffff81111561348557613484613276565b5b61349186828701613420565b935050602084013567ffffffffffffffff8111156134b2576134b1613276565b5b6134be86828701613420565b92505060406134cf8682870161329c565b9150509250925092565b600080604083850312156134f0576134ef613271565b5b600083013567ffffffffffffffff81111561350e5761350d613276565b5b61351a85828601613420565b925050602083013567ffffffffffffffff81111561353b5761353a613276565b5b61354785828601613420565b9150509250929050565b600073ffffffffffffffffffffffffffffffffffffffff82169050919050565b600061357c82613551565b9050919050565b61358c81613571565b811461359757600080fd5b50565b6000813590506135a981613583565b92915050565b6000602082840312156135c5576135c4613271565b5b60006135d38482850161359a565b91505092915050565b600081519050919050565b600082825260208201905092915050565b60005b838110156136165780820151818401526020810190506135fb565b60008484015250505050565b600061362d826135dc565b61363781856135e7565b93506136478185602086016135f8565b61365081613312565b840191505092915050565b60008115159050919050565b6136708161365b565b82525050565b60006101408201905061368c600083018d6132de565b818103602083015261369e818c613622565b905081810360408301526136b2818b613622565b905081810360608301526136c6818a613622565b90506136d560808301896132de565b6136e260a0830188613667565b81810360c08301526136f48187613622565b905081810360e08301526137088186613622565b905081810361010083015261371d8185613622565b905061372d6101208301846132de565b9b9a5050505050505050505050565b6000806040838503121561375357613752613271565b5b60006137618582860161329c565b925050602083013567ffffffffffffffff81111561378257613781613276565b5b61378e85828601613420565b9150509250929050565b600060208201905081810360008301526137b28184613622565b905092915050565b600080600080608085870312156137d4576137d3613271565b5b600085013567ffffffffffffffff8111156137f2576137f1613276565b5b6137fe87828801613420565b945050602085013567ffffffffffffffff81111561381f5761381e613276565b5b61382b87828801613420565b935050604085013567ffffffffffffffff81111561384c5761384b613276565b5b61385887828801613420565b92505060606138698782880161329c565b91505092959194509250565b60006020828403121561388b5761388a613271565b5b600082013567ffffffffffffffff8111156138a9576138a8613276565b5b6138b584828501613420565b91505092915050565b6138c781613571565b82525050565b6000610100820190506138e3600083018b6132de565b6138f0602083018a6138be565b6138fd60408301896132de565b818103606083015261390f8188613622565b905061391e6080830187613667565b61392b60a08301866132de565b61393860c08301856132de565b61394560e08301846132de565b9998505050505050505050565b600060e082019050613967600083018a6132de565b81810360208301526139798189613622565b9050818103604083015261398d8188613622565b905061399c60608301876132de565b81810360808301526139ae8186613622565b905081810360a08301526139c28185613622565b90506139d160c08301846132de565b98975050505050505050565b60006060820190506139f260008301866132de565b8181036020830152613a048185613622565b90508181036040830152613a188184613622565b9050949350505050565b60008060408385031215613a3957613a38613271565b5b6000613a478582860161359a565b9250506020613a588582860161329c565b9150509250929050565b600060c082019050613a7760008301896132de565b613a8460208301886132de565b613a916040830187613667565b613a9e60608301866132de565b613aab60808301856132de565b613ab860a08301846132de565b979650505050505050565b7f556e617574686f72697a65640000000000000000000000000000000000000000600082015250565b6000613af9600c836135e7565b9150613b0482613ac3565b602082019050919050565b60006020820190508181036000830152613b2881613aec565b9050919050565b7f4e487b7100000000000000000000000000000000000000000000000000000000600052602260045260246000fd5b60006002820490506001821680613b7657607f821691505b602082108103613b8957613b88613b2f565b5b50919050565b60008190508160005260206000209050919050565b60006020601f8301049050919050565b600082821b905092915050565b600060088302613bf17fffffffffffffffffffffffffffffffffffffffffffffffffffffffffffffffff82613bb4565b613bfb8683613bb4565b95508019841693508086168417925050509392505050565b6000819050919050565b6000613c38613c33613c2e8461327b565b613c13565b61327b565b9050919050565b6000819050919050565b613c5283613c1d565b613c66613c5e82613c3f565b848454613bc1565b825550505050565b600090565b613c7b613c6e565b613c86818484613c49565b505050565b5b81811015613caa57613c9f600082613c73565b600181019050613c8c565b5050565b601f821115613cef57613cc081613b8f565b613cc984613ba4565b81016020851015613cd8578190505b613cec613ce485613ba4565b830182613c8b565b50505b505050565b600082821c905092915050565b6000613d1260001984600802613cf4565b1980831691505092915050565b6000613d2b8383613d01565b9150826002028217905092915050565b613d44826135dc565b67ffffffffffffffff811115613d5d57613d5c613323565b5b613d678254613b5e565b613d72828285613cae565b600060209050601f831160018114613da55760008415613d93578287015190505b613d9d8582613d1f565b865550613e05565b601f198416613db386613b8f565b60005b82811015613ddb57848901518255600182019150602085019450602081019050613db6565b86831015613df85784890151613df4601f891682613d01565b8355505b6001600288020188555050505b505050505050565b7f4e487b7100000000000000000000000000000000000000000000000000000000600052601160045260246000fd5b6000613e478261327b565b91507fffffffffffffffffffffffffffffffffffffffffffffffffffffffffffffffff8203613e7957613e78613e0d565b5b600182019050919050565b7f4e487b7100000000000000000000000000000000000000000000000000000000600052603260045260246000fd5b7f596f752063616e27742072656a656374206120636f75727365206f766572203260008201527f207765656b732e00000000000000000000000000000000000000000000000000602082015250565b6000613f0f6027836135e7565b9150613f1a82613eb3565b604082019050919050565b60006020820190508181036000830152613f3e81613f02565b9050919050565b6000613f508261327b565b9150613f5b8361327b565b9250828203905081811115613f7357613f72613e0d565b5b92915050565b7f4e6f6e65206f662074686520636f757273652073656374696f6e73206973207260008201527f6566756e6461626c650000000000000000000000000000000000000000000000602082015250565b6000613fd56029836135e7565b9150613fe082613f79565b604082019050919050565b6000602082019050818103600083015261400481613fc8565b9050919050565b60006140168261327b565b91506140218361327b565b925082820261402f8161327b565b9150828204841483151761404657614045613e0d565b5b5092915050565b600060608201905061406260008301866138be565b61406f60208301856138be565b61407c60408301846132de565b949350505050565b61408d8161365b565b811461409857600080fd5b50565b6000815190506140aa81614084565b92915050565b6000602082840312156140c6576140c5613271565b5b60006140d48482850161409b565b91505092915050565b60006060820190506140f260008301866138be565b6140ff60208301856132de565b61410c60408301846132de565b949350505050565b7f4e487b7100000000000000000000000000000000000000000000000000000000600052601260045260246000fd5b600061414e8261327b565b91506141598361327b565b92508261416957614168614114565b5b828204905092915050565b600060408201905061418960008301856138be565b818103602083015261419b8184613622565b90509392505050565b60006040820190506141b960008301856138be565b6141c660208301846132de565b9392505050565b600082825260208201905092915050565b50565b60006141ee6000836141cd565b91506141f9826141de565b600082019050919050565b600060408201905061421960008301846138be565b818103602083015261422a816141e1565b90509291505056fea26469706673582212207c2a4239fd8cd7f3f67c37574fc59fb318b8ff113092542ab2dcaf53a46e60b164736f6c634300081100332f696d616765732f63617465676f726965732f696c6c757374726174696f6e2e776562702f696d616765732f63617465676f726965732f616e696d6174696f6e2e776562702f696d616765732f63617465676f726965732f70686f746f6772617068792e776562702f696d616765732f63617465676f726965732f7765622d646576656c6f706d656e742e776562702f696d616765732f63617465676f726965732f646174612d736369656e63652e776562702f696d616765732f63617465676f726965732f6d61726b6574696e672e77656270",
  "immutableReferences": {},
  "source": "// SPDX-License-Identifier: GPL-3.0\n\npragma solidity >=0.7.0 <0.9.0;\n\nimport \"./BdlToken.sol\";\nimport \"./BdlNft.sol\";\nimport \"./BdlCertificate.sol\";\n\ncontract Buidl {\n    // state variables\n    address deployer;\n\n    BdlToken bdlToken;\n    BdlNft bdlNft;\n    BdlCertificate bdlCertificate;\n\n    uint256 public contractInstructorID = 1;\n    uint256 public contractStudentID = 1;\n    uint256 public contractCourseID = 1;\n    uint256 public contractCategoryID = 1;\n\n    // minimum to stake for a duration of 1year\n    uint256 instructorRegistrationFee = 2000 * 10**18;\n\n    mapping(uint => Category) public categories;\n    mapping(address => Instructor) public instructors;\n    mapping(address => Student) public students;\n    mapping(uint => Course) public courses;\n    mapping(address => StudentCourse[]) public studentCourses;\n\n    // contructor\n    constructor(\n        address _bdlToken,\n        address _bdlNft,\n        address _bdlCertificate\n    ) {\n        deployer = msg.sender;\n        bdlToken = BdlToken(_bdlToken);\n        bdlNft = BdlNft(_bdlNft);\n        bdlCertificate = BdlCertificate(_bdlCertificate);\n\n        addTestCategories();\n    }\n\n    // structs\n    struct Category {\n        uint id;\n        string name;\n        string image;\n    }\n\n    struct Instructor {\n        uint id;\n        string firstName;\n        string lastName;\n        string location;\n        uint gender;\n        bool isVerified;\n        string ipfsPhoto;\n        string twitter;\n        string linkedin;\n        uint[] courses;\n        uint createdAt;\n    }\n\n    struct Course {\n        uint id;\n        address instructor;\n        address[] students; // students offering the course\n        uint256 price; // price in bdl token\n        string ipfsHash; // course metadata\n        bool isPublished;\n        uint sections; // number of course sections\n        uint createdAt;\n        uint updatedAt;\n    }\n\n    struct Student {\n        uint id;\n        string name;\n        string emailAddress;\n        uint gender;\n        string ipfsPhoto;\n        string country;\n        uint createdAt;\n        uint[] courses;\n    }\n\n    struct StudentCourse {\n        uint id;\n        uint courseId;\n        bool isActive; // paid or rejected\n        uint unlocked; // initially equals to price of course\n        // then sequentially unlocked to the instructor\n        uint sectionsViewed;\n        uint purchasedAt;\n    }\n\n    // ========= Administation ========= //\n\n    function setInstructorRegistrationFee(uint256 amount) public onlyOwner {\n        instructorRegistrationFee = amount;\n    }\n\n    function addCategory(string memory name, string memory image)\n        public\n        onlyOwner\n    {\n        categories[contractCategoryID] = Category(\n            contractCategoryID,\n            name,\n            image\n        );\n\n        contractCategoryID++;\n    }\n\n    // ========= Instructors =========== //\n\n    function createCourse(\n        string memory ipfsHash\n    ) public onlyInstructor {\n        Course memory course = courses[contractCourseID];\n\n        // create new freah course\n        courses[contractCourseID] = Course(\n            contractCourseID,\n            msg.sender,\n            course.students,\n            0,\n            ipfsHash,\n            false,\n            0,\n            block.timestamp,\n            block.timestamp\n        );\n\n        // assign course ownership to intructor\n        instructors[msg.sender].courses.push(contractCourseID);\n\n        // increment id\n        contractCourseID++;\n    }\n\n    function getInstructorCoursesLength() public view onlyInstructor  returns(uint) {\n        return instructors[msg.sender].courses.length;\n    }\n\n    function getInstructorCourseIdAtIndex(uint index) public view onlyInstructor returns(uint) {\n        return instructors[msg.sender].courses[index];\n    }\n\n    function createInstructorAccount(\n        string memory firstName,\n        string memory lastName,\n        string memory location,\n        uint gender\n    ) public notAnyone {\n        // stake instruction fee\n        bdlToken.increaseAllowance(\n            msg.sender,\n            address(this),\n            instructorRegistrationFee\n        );\n\n        bdlToken.transferFrom(\n            msg.sender,\n            address(this),\n            instructorRegistrationFee\n        );\n\n        Instructor memory instructor = instructors[msg.sender];\n\n        instructors[msg.sender] = Instructor(\n            contractInstructorID,\n            firstName,\n            lastName,\n            location,\n            gender,\n            false,\n            instructor.ipfsPhoto,\n            instructor.twitter,\n            instructor.linkedin,\n            instructor.courses,\n            block.timestamp\n        );\n\n        contractInstructorID++;\n    }\n\n    // ========= Students ========== //\n\n    function createStudentAccount(\n        string memory name,\n        string memory email,\n        uint gender\n    ) public notAnyone {\n        Student memory student = students[msg.sender];\n\n        students[msg.sender] = Student(\n            contractStudentID,\n            name,\n            email,\n            gender,\n            student.ipfsPhoto,\n            student.country,\n            block.timestamp,\n            student.courses\n        );\n\n        contractStudentID++;\n    }\n\n    function purchaseCourse(uint courseId) public onlyStudent {\n        Course storage course = courses[courseId];\n\n        // lock the student funds to smart contract\n        bdlToken.transferFrom(msg.sender, address(this), course.price);\n\n        // create course for student\n        studentCourses[msg.sender].push(\n            StudentCourse(\n                courseId,\n                courseId,\n                true,\n                course.price,\n                0,\n                block.timestamp\n            )\n        );\n\n        emit CoursePurchased(course.instructor, msg.sender, courseId);\n    }\n\n    function rejectCourse(uint courseId) public onlyStudent {\n        StudentCourse memory studentCourse = studentCourses[msg.sender][\n            courseId\n        ];\n\n        Course memory course = courses[courseId];\n\n        // check is course is not over 2 weeks\n        require(\n            studentCourse.purchasedAt > 2,\n            \"You can't reject a course over 2 weeks.\"\n        );\n\n        uint refundableSections = (studentCourse.sectionsViewed -\n            course.sections);\n        require(\n            refundableSections > 0,\n            \"None of the course sections is refundable\"\n        );\n\n        uint256 refundableAmount = (refundableSections * course.price);\n\n        // terminate student course\n        delete studentCourses[msg.sender][courseId];\n\n        // refund the student\n        bdlToken.transferFrom(address(this), msg.sender, refundableAmount);\n\n        emit CourseRejected(msg.sender, courseId, studentCourse.sectionsViewed);\n    }\n\n    function onNextCourseSection(uint courseId, string memory uri)\n        public\n        onlyStudent\n        returns (string memory)\n    {\n        Course storage course = courses[courseId];\n        StudentCourse storage studentCourse = studentCourses[msg.sender][\n            courseId\n        ];\n\n        // students moved to another section of the course\n        // unlock part payment to the instructor (conditionally)\n        uint pricePerSection = (course.price / course.sections);\n        if (studentCourse.unlocked >= pricePerSection) {\n            studentCourse.unlocked -= pricePerSection;\n            bdlToken.transferFrom(\n                address(this),\n                course.instructor,\n                pricePerSection\n            );\n        }\n\n        // checks if students has completed the course\n        uint progress = (studentCourse.sectionsViewed / course.sections);\n\n        if (progress >= 1) {\n            onCompletedCourse(msg.sender, courseId, uri);\n            return \"course_completed\";\n        } else {\n            studentCourse.sectionsViewed++;\n            return \"course_next_section\";\n        }\n    }\n\n    function onCompletedCourse(address student, uint courseId, string memory uri) private {\n        generateCerticate(courseId, student, uri);\n        mintNftForStudent(courseId, student);\n    }\n\n    function generateCerticate(uint courseId, address student, string memory uri) private {\n        Course memory course = courses[courseId];\n        // {\n        //     \"name\":\"Android Certificate\",\n        //     \"description\":\"Mastering Koitlin\",\n        //     \"image\":\"https://buidl.com/pic/xxxx.jpg\",\n        //     \"external_url\":\"https://originalsite.io/2\",\n        //     \"attributes\":[\n        //          {\n        //              \"trait_type\":\"Rarity Class\",\n        //              \"value\":\"Normal\"\n        //          },\n        //     ]\n        // }\n        bdlCertificate.issue(student, uri);\n\n        emit CertificateIssued(student, courseId);\n    }\n\n    function mintNftForStudent(uint courseId, address student) private {\n        Course memory course = courses[courseId];\n\n        bdlNft.mint(student, \"\");\n    }\n\n    modifier onlyInstructor() {\n        require(instructors[msg.sender].id != 0, \"Unauthorized\");\n        _;\n    }\n\n    modifier onlyStudent() {\n        require(students[msg.sender].id != 0, \"Unauthorized\");\n        _;\n    }\n\n    modifier onlyOwner() {\n        require(msg.sender == deployer, \"Unauthorized\");\n        _;\n    }\n\n    modifier notAnyone() {\n        require(\n            (students[msg.sender].id == 0 && instructors[msg.sender].id == 0),\n            \"Unauthorized\"\n        );\n        _;\n    }\n\n    // ========== events ========== //\n    event CourseCompletion(address student, uint courseId);\n    event CertificateIssued(address student, uint courseId);\n    event CoursePurchased(address intructor, address student, uint courseId);\n    event CourseRejected(address student, uint courseId, uint sectionsViewed);\n\n    // ========== test =========== //\n    function addTestCategories() private {\n        addCategory(\"Web Development\", \"/images/categories/web-development.webp\");\n        addCategory(\"Cooking\", \"/images/categories/cooking.webp\");\n        addCategory(\"UI/UX Designing\", \"/images/categories/ui-ux.webp\");\n        addCategory(\"3D Animation\", \"/images/categories/animation.webp\");\n        addCategory(\"Illustration\", \"/images/categories/illustration.webp\");\n        addCategory(\"Data Science\", \"/images/categories/data-science.webp\");\n        addCategory(\"Speaking\", \"/images/categories/speaking.webp\");\n        addCategory(\"Music\", \"/images/categories/music.webp\");\n        addCategory(\"Photography\", \"/images/categories/photography.webp\");\n        addCategory(\"Marketing\", \"/images/categories/marketing.webp\");\n    }\n}\n",
  "sourcePath": "C:\\Users\\Arogundade Ibrahim\\Documents\\web3\\Buidl\\contracts\\Buidl.sol",
  "compiler": {
    "name": "solc",
    "version": "0.8.17+commit.8df45f5f.Emscripten.clang"
  },
  "schemaVersion": "3.4.10",
  "updatedAt": "2022-10-18T11:35:36.327Z",
  "networkType": "ethereum",
  "devdoc": {
    "kind": "dev",
    "methods": {},
    "version": 1
  },
  "userdoc": {
    "kind": "user",
    "methods": {},
    "version": 1
  }
}