{
  "contractName": "Buidl",
  "abi": [
    {
      "inputs": [
        {
          "internalType": "address",
          "name": "_bdlToken",
          "type": "address"
        },
        {
          "internalType": "address",
          "name": "_bdlNft",
          "type": "address"
        },
        {
          "internalType": "address",
          "name": "_bdlCertificate",
          "type": "address"
        }
      ],
      "stateMutability": "nonpayable",
      "type": "constructor"
    },
    {
      "anonymous": false,
      "inputs": [
        {
          "indexed": false,
          "internalType": "address",
          "name": "student",
          "type": "address"
        },
        {
          "indexed": false,
          "internalType": "uint256",
          "name": "courseId",
          "type": "uint256"
        }
      ],
      "name": "CertificateIssued",
      "type": "event"
    },
    {
      "anonymous": false,
      "inputs": [
        {
          "indexed": false,
          "internalType": "address",
          "name": "student",
          "type": "address"
        },
        {
          "indexed": false,
          "internalType": "uint256",
          "name": "courseId",
          "type": "uint256"
        }
      ],
      "name": "CourseCompletion",
      "type": "event"
    },
    {
      "anonymous": false,
      "inputs": [
        {
          "indexed": false,
          "internalType": "address",
          "name": "intructor",
          "type": "address"
        },
        {
          "indexed": false,
          "internalType": "address",
          "name": "student",
          "type": "address"
        },
        {
          "indexed": false,
          "internalType": "uint256",
          "name": "courseId",
          "type": "uint256"
        }
      ],
      "name": "CoursePurchased",
      "type": "event"
    },
    {
      "anonymous": false,
      "inputs": [
        {
          "indexed": false,
          "internalType": "address",
          "name": "student",
          "type": "address"
        },
        {
          "indexed": false,
          "internalType": "uint256",
          "name": "courseId",
          "type": "uint256"
        },
        {
          "indexed": false,
          "internalType": "uint256",
          "name": "sectionsViewed",
          "type": "uint256"
        }
      ],
      "name": "CourseRejected",
      "type": "event"
    },
    {
      "inputs": [
        {
          "internalType": "uint256",
          "name": "",
          "type": "uint256"
        }
      ],
      "name": "categories",
      "outputs": [
        {
          "internalType": "uint256",
          "name": "id",
          "type": "uint256"
        },
        {
          "internalType": "string",
          "name": "name",
          "type": "string"
        },
        {
          "internalType": "string",
          "name": "image",
          "type": "string"
        }
      ],
      "stateMutability": "view",
      "type": "function",
      "constant": true
    },
    {
      "inputs": [],
      "name": "contractCategoryID",
      "outputs": [
        {
          "internalType": "uint256",
          "name": "",
          "type": "uint256"
        }
      ],
      "stateMutability": "view",
      "type": "function",
      "constant": true
    },
    {
      "inputs": [],
      "name": "contractCourseID",
      "outputs": [
        {
          "internalType": "uint256",
          "name": "",
          "type": "uint256"
        }
      ],
      "stateMutability": "view",
      "type": "function",
      "constant": true
    },
    {
      "inputs": [],
      "name": "contractInstructorID",
      "outputs": [
        {
          "internalType": "uint256",
          "name": "",
          "type": "uint256"
        }
      ],
      "stateMutability": "view",
      "type": "function",
      "constant": true
    },
    {
      "inputs": [],
      "name": "contractStudentID",
      "outputs": [
        {
          "internalType": "uint256",
          "name": "",
          "type": "uint256"
        }
      ],
      "stateMutability": "view",
      "type": "function",
      "constant": true
    },
    {
      "inputs": [
        {
          "internalType": "uint256",
          "name": "",
          "type": "uint256"
        }
      ],
      "name": "courses",
      "outputs": [
        {
          "internalType": "uint256",
          "name": "id",
          "type": "uint256"
        },
        {
          "internalType": "address",
          "name": "instructor",
          "type": "address"
        },
        {
          "internalType": "uint256",
          "name": "price",
          "type": "uint256"
        },
        {
          "internalType": "string",
          "name": "ipfsHash",
          "type": "string"
        },
        {
          "internalType": "bool",
          "name": "isPublished",
          "type": "bool"
        },
        {
          "internalType": "uint256",
          "name": "sections",
          "type": "uint256"
        },
        {
          "internalType": "uint256",
          "name": "createdAt",
          "type": "uint256"
        },
        {
          "internalType": "uint256",
          "name": "updatedAt",
          "type": "uint256"
        }
      ],
      "stateMutability": "view",
      "type": "function",
      "constant": true
    },
    {
      "inputs": [
        {
          "internalType": "address",
          "name": "",
          "type": "address"
        }
      ],
      "name": "instructors",
      "outputs": [
        {
          "internalType": "uint256",
          "name": "id",
          "type": "uint256"
        },
        {
          "internalType": "string",
          "name": "firstName",
          "type": "string"
        },
        {
          "internalType": "string",
          "name": "lastName",
          "type": "string"
        },
        {
          "internalType": "string",
          "name": "location",
          "type": "string"
        },
        {
          "internalType": "uint256",
          "name": "gender",
          "type": "uint256"
        },
        {
          "internalType": "bool",
          "name": "isVerified",
          "type": "bool"
        },
        {
          "internalType": "string",
          "name": "ipfsPhoto",
          "type": "string"
        },
        {
          "internalType": "string",
          "name": "twitter",
          "type": "string"
        },
        {
          "internalType": "string",
          "name": "linkedin",
          "type": "string"
        },
        {
          "internalType": "uint256",
          "name": "createdAt",
          "type": "uint256"
        }
      ],
      "stateMutability": "view",
      "type": "function",
      "constant": true
    },
    {
      "inputs": [
        {
          "internalType": "address",
          "name": "",
          "type": "address"
        },
        {
          "internalType": "uint256",
          "name": "",
          "type": "uint256"
        }
      ],
      "name": "studentCourses",
      "outputs": [
        {
          "internalType": "uint256",
          "name": "id",
          "type": "uint256"
        },
        {
          "internalType": "uint256",
          "name": "courseId",
          "type": "uint256"
        },
        {
          "internalType": "bool",
          "name": "isActive",
          "type": "bool"
        },
        {
          "internalType": "uint256",
          "name": "unlocked",
          "type": "uint256"
        },
        {
          "internalType": "uint256",
          "name": "sectionsViewed",
          "type": "uint256"
        },
        {
          "internalType": "uint256",
          "name": "purchasedAt",
          "type": "uint256"
        }
      ],
      "stateMutability": "view",
      "type": "function",
      "constant": true
    },
    {
      "inputs": [
        {
          "internalType": "address",
          "name": "",
          "type": "address"
        }
      ],
      "name": "students",
      "outputs": [
        {
          "internalType": "uint256",
          "name": "id",
          "type": "uint256"
        },
        {
          "internalType": "string",
          "name": "name",
          "type": "string"
        },
        {
          "internalType": "string",
          "name": "emailAddress",
          "type": "string"
        },
        {
          "internalType": "uint256",
          "name": "gender",
          "type": "uint256"
        },
        {
          "internalType": "string",
          "name": "ipfsPhoto",
          "type": "string"
        },
        {
          "internalType": "string",
          "name": "country",
          "type": "string"
        },
        {
          "internalType": "uint256",
          "name": "createdAt",
          "type": "uint256"
        }
      ],
      "stateMutability": "view",
      "type": "function",
      "constant": true
    },
    {
      "inputs": [
        {
          "internalType": "uint256",
          "name": "amount",
          "type": "uint256"
        }
      ],
      "name": "setInstructorRegistrationFee",
      "outputs": [],
      "stateMutability": "nonpayable",
      "type": "function"
    },
    {
      "inputs": [
        {
          "internalType": "string",
          "name": "name",
          "type": "string"
        },
        {
          "internalType": "string",
          "name": "image",
          "type": "string"
        }
      ],
      "name": "addCategory",
      "outputs": [],
      "stateMutability": "nonpayable",
      "type": "function"
    },
    {
      "inputs": [
        {
          "internalType": "string",
          "name": "ipfsHash",
          "type": "string"
        }
      ],
      "name": "createCourse",
      "outputs": [],
      "stateMutability": "nonpayable",
      "type": "function"
    },
    {
      "inputs": [
        {
          "internalType": "address",
          "name": "instructor",
          "type": "address"
        }
      ],
      "name": "getInstructorCoursesLength",
      "outputs": [
        {
          "internalType": "uint256",
          "name": "",
          "type": "uint256"
        }
      ],
      "stateMutability": "view",
      "type": "function",
      "constant": true
    },
    {
      "inputs": [
        {
          "internalType": "address",
          "name": "instructor",
          "type": "address"
        },
        {
          "internalType": "uint256",
          "name": "index",
          "type": "uint256"
        }
      ],
      "name": "getInstructorCourseIdAtIndex",
      "outputs": [
        {
          "internalType": "uint256",
          "name": "",
          "type": "uint256"
        }
      ],
      "stateMutability": "view",
      "type": "function",
      "constant": true
    },
    {
      "inputs": [
        {
          "internalType": "string",
          "name": "firstName",
          "type": "string"
        },
        {
          "internalType": "string",
          "name": "lastName",
          "type": "string"
        },
        {
          "internalType": "string",
          "name": "location",
          "type": "string"
        },
        {
          "internalType": "uint256",
          "name": "gender",
          "type": "uint256"
        }
      ],
      "name": "createInstructorAccount",
      "outputs": [],
      "stateMutability": "nonpayable",
      "type": "function"
    },
    {
      "inputs": [
        {
          "internalType": "string",
          "name": "name",
          "type": "string"
        },
        {
          "internalType": "string",
          "name": "email",
          "type": "string"
        },
        {
          "internalType": "uint256",
          "name": "gender",
          "type": "uint256"
        }
      ],
      "name": "createStudentAccount",
      "outputs": [],
      "stateMutability": "nonpayable",
      "type": "function"
    },
    {
      "inputs": [
        {
          "internalType": "address",
          "name": "student",
          "type": "address"
        }
      ],
      "name": "getStudentCoursesLength",
      "outputs": [
        {
          "internalType": "uint256",
          "name": "",
          "type": "uint256"
        }
      ],
      "stateMutability": "view",
      "type": "function",
      "constant": true
    },
    {
      "inputs": [
        {
          "internalType": "address",
          "name": "student",
          "type": "address"
        },
        {
          "internalType": "uint256",
          "name": "index",
          "type": "uint256"
        }
      ],
      "name": "getStudentourseIdAtIndex",
      "outputs": [
        {
          "internalType": "uint256",
          "name": "",
          "type": "uint256"
        }
      ],
      "stateMutability": "view",
      "type": "function",
      "constant": true
    },
    {
      "inputs": [
        {
          "internalType": "uint256",
          "name": "courseId",
          "type": "uint256"
        }
      ],
      "name": "purchaseCourse",
      "outputs": [],
      "stateMutability": "nonpayable",
      "type": "function"
    },
    {
      "inputs": [
        {
          "internalType": "uint256",
          "name": "courseId",
          "type": "uint256"
        }
      ],
      "name": "rejectCourse",
      "outputs": [],
      "stateMutability": "nonpayable",
      "type": "function"
    },
    {
      "inputs": [
        {
          "internalType": "uint256",
          "name": "courseId",
          "type": "uint256"
        },
        {
          "internalType": "string",
          "name": "uri",
          "type": "string"
        }
      ],
      "name": "onNextCourseSection",
      "outputs": [
        {
          "internalType": "string",
          "name": "",
          "type": "string"
        }
      ],
      "stateMutability": "nonpayable",
      "type": "function"
    }
  ],
  "bytecode": "0x60806040526001600455600160055560016006556001600755686c6b935b8bbd4000006008553480156200003257600080fd5b50604051620051813803806200518183398181016040528101906200005891906200072e565b336000806101000a81548173ffffffffffffffffffffffffffffffffffffffff021916908373ffffffffffffffffffffffffffffffffffffffff16021790555082600160006101000a81548173ffffffffffffffffffffffffffffffffffffffff021916908373ffffffffffffffffffffffffffffffffffffffff16021790555081600260006101000a81548173ffffffffffffffffffffffffffffffffffffffff021916908373ffffffffffffffffffffffffffffffffffffffff16021790555080600360006101000a81548173ffffffffffffffffffffffffffffffffffffffff021916908373ffffffffffffffffffffffffffffffffffffffff1602179055506200016b6200017460201b60201c565b50505062000bea565b620001d46040518060400160405280600f81526020017f57656220446576656c6f706d656e7400000000000000000000000000000000008152506040518060600160405280602781526020016200511560279139620005a660201b60201c565b620002506040518060400160405280600781526020017f436f6f6b696e67000000000000000000000000000000000000000000000000008152506040518060400160405280601f81526020017f2f696d616765732f63617465676f726965732f636f6f6b696e672e7765627000815250620005a660201b60201c565b620002cc6040518060400160405280600f81526020017f55492f55582044657369676e696e6700000000000000000000000000000000008152506040518060400160405280601d81526020017f2f696d616765732f63617465676f726965732f75692d75782e77656270000000815250620005a660201b60201c565b6200032c6040518060400160405280600c81526020017f334420416e696d6174696f6e0000000000000000000000000000000000000000815250604051806060016040528060218152602001620050d160219139620005a660201b60201c565b6200038c6040518060400160405280600c81526020017f496c6c757374726174696f6e0000000000000000000000000000000000000000815250604051806060016040528060248152602001620050ad60249139620005a660201b60201c565b620003ec6040518060400160405280600c81526020017f4461746120536369656e636500000000000000000000000000000000000000008152506040518060600160405280602481526020016200513c60249139620005a660201b60201c565b620004686040518060400160405280600881526020017f537065616b696e670000000000000000000000000000000000000000000000008152506040518060400160405280602081526020017f2f696d616765732f63617465676f726965732f737065616b696e672e77656270815250620005a660201b60201c565b620004e46040518060400160405280600581526020017f4d757369630000000000000000000000000000000000000000000000000000008152506040518060400160405280601d81526020017f2f696d616765732f63617465676f726965732f6d757369632e77656270000000815250620005a660201b60201c565b620005446040518060400160405280600b81526020017f50686f746f677261706879000000000000000000000000000000000000000000815250604051806060016040528060238152602001620050f260239139620005a660201b60201c565b620005a46040518060400160405280600981526020017f4d61726b6574696e6700000000000000000000000000000000000000000000008152506040518060600160405280602181526020016200516060219139620005a660201b60201c565b565b60008054906101000a900473ffffffffffffffffffffffffffffffffffffffff1673ffffffffffffffffffffffffffffffffffffffff163373ffffffffffffffffffffffffffffffffffffffff161462000637576040517f08c379a00000000000000000000000000000000000000000000000000000000081526004016200062e90620007eb565b60405180910390fd5b60405180606001604052806007548152602001838152602001828152506009600060075481526020019081526020016000206000820151816000015560208201518160010190816200068a919062000a87565b506040820151816002019081620006a2919062000a87565b5090505060076000815480929190620006bb9062000b9d565b91905055505050565b600080fd5b600073ffffffffffffffffffffffffffffffffffffffff82169050919050565b6000620006f682620006c9565b9050919050565b6200070881620006e9565b81146200071457600080fd5b50565b6000815190506200072881620006fd565b92915050565b6000806000606084860312156200074a5762000749620006c4565b5b60006200075a8682870162000717565b93505060206200076d8682870162000717565b9250506040620007808682870162000717565b9150509250925092565b600082825260208201905092915050565b7f556e617574686f72697a65640000000000000000000000000000000000000000600082015250565b6000620007d3600c836200078a565b9150620007e0826200079b565b602082019050919050565b600060208201905081810360008301526200080681620007c4565b9050919050565b600081519050919050565b7f4e487b7100000000000000000000000000000000000000000000000000000000600052604160045260246000fd5b7f4e487b7100000000000000000000000000000000000000000000000000000000600052602260045260246000fd5b600060028204905060018216806200088f57607f821691505b602082108103620008a557620008a462000847565b5b50919050565b60008190508160005260206000209050919050565b60006020601f8301049050919050565b600082821b905092915050565b6000600883026200090f7fffffffffffffffffffffffffffffffffffffffffffffffffffffffffffffffff82620008d0565b6200091b8683620008d0565b95508019841693508086168417925050509392505050565b6000819050919050565b6000819050919050565b600062000968620009626200095c8462000933565b6200093d565b62000933565b9050919050565b6000819050919050565b620009848362000947565b6200099c62000993826200096f565b848454620008dd565b825550505050565b600090565b620009b3620009a4565b620009c081848462000979565b505050565b5b81811015620009e857620009dc600082620009a9565b600181019050620009c6565b5050565b601f82111562000a375762000a0181620008ab565b62000a0c84620008c0565b8101602085101562000a1c578190505b62000a3462000a2b85620008c0565b830182620009c5565b50505b505050565b600082821c905092915050565b600062000a5c6000198460080262000a3c565b1980831691505092915050565b600062000a77838362000a49565b9150826002028217905092915050565b62000a92826200080d565b67ffffffffffffffff81111562000aae5762000aad62000818565b5b62000aba825462000876565b62000ac7828285620009ec565b600060209050601f83116001811462000aff576000841562000aea578287015190505b62000af6858262000a69565b86555062000b66565b601f19841662000b0f86620008ab565b60005b8281101562000b395784890151825560018201915060208501945060208101905062000b12565b8683101562000b59578489015162000b55601f89168262000a49565b8355505b6001600288020188555050505b505050505050565b7f4e487b7100000000000000000000000000000000000000000000000000000000600052601160045260246000fd5b600062000baa8262000933565b91507fffffffffffffffffffffffffffffffffffffffffffffffffffffffffffffffff820362000bdf5762000bde62000b6e565b5b600182019050919050565b6144b38062000bfa6000396000f3fe608060405234801561001057600080fd5b50600436106101375760003560e01c80634b44bb21116100b8578063a6c807a91161007c578063a6c807a91461036e578063aa39566c146103a4578063c6cdbe5e146103c2578063cd131938146103f4578063d031a83414610410578063fd95cc511461044057610137565b80634b44bb21146102b15780635a637384146102e1578063823d5bf4146102fd5780638a38ab2c1461031b57806396f979d21461033757610137565b80631bf703b2116100ff5780631bf703b2146101de5780632a47d91c146101fa578063332d90a91461023357806333e54bf91461025157806345eb84a31461028157610137565b8063097167ba1461013c57806309df4f66146101585780630da079b41461017657806313a017e71461019257806318222d5e146101ae575b600080fd5b610156600480360381019061015191906134fc565b610475565b005b61016061050d565b60405161016d9190613538565b60405180910390f35b610190600480360381019061018b9190613699565b610513565b005b6101ac60048036038101906101a791906134fc565b610a2e565b005b6101c860048036038101906101c39190613782565b610f91565b6040516101d59190613538565b60405180910390f35b6101f860048036038101906101f391906137c2565b61107e565b005b610214600480360381019061020f919061383a565b611193565b60405161022a9a99989796959493929190613901565b60405180910390f35b61023b611524565b6040516102489190613538565b60405180910390f35b61026b6004803603810190610266919061383a565b61152a565b6040516102789190613538565b60405180910390f35b61029b60048036038101906102969190613782565b6115fd565b6040516102a89190613538565b60405180910390f35b6102cb60048036038101906102c691906139c7565b6116ea565b6040516102d89190613a23565b60405180910390f35b6102fb60048036038101906102f69190613a45565b6119ba565b005b6103056121c9565b6040516103129190613538565b60405180910390f35b61033560048036038101906103309190613b00565b6121cf565b005b610351600480360381019061034c91906134fc565b612609565b604051610365989796959493929190613b58565b60405180910390f35b6103886004803603810190610383919061383a565b612706565b60405161039b9796959493929190613bdd565b60405180910390f35b6103ac612968565b6040516103b99190613538565b60405180910390f35b6103dc60048036038101906103d791906134fc565b61296e565b6040516103eb93929190613c68565b60405180910390f35b61040e600480360381019061040991906134fc565b612aa8565b005b61042a6004803603810190610425919061383a565b612d3f565b6040516104379190613538565b60405180910390f35b61045a60048036038101906104559190613782565b612e12565b60405161046c96959493929190613cad565b60405180910390f35b60008054906101000a900473ffffffffffffffffffffffffffffffffffffffff1673ffffffffffffffffffffffffffffffffffffffff163373ffffffffffffffffffffffffffffffffffffffff1614610503576040517f08c379a00000000000000000000000000000000000000000000000000000000081526004016104fa90613d5a565b60405180910390fd5b8060088190555050565b60065481565b6000600b60003373ffffffffffffffffffffffffffffffffffffffff1673ffffffffffffffffffffffffffffffffffffffff168152602001908152602001600020600001541480156105a757506000600a60003373ffffffffffffffffffffffffffffffffffffffff1673ffffffffffffffffffffffffffffffffffffffff16815260200190815260200160002060000154145b6105e6576040517f08c379a00000000000000000000000000000000000000000000000000000000081526004016105dd90613d5a565b60405180910390fd5b6000600b60003373ffffffffffffffffffffffffffffffffffffffff1673ffffffffffffffffffffffffffffffffffffffff168152602001908152602001600020604051806101000160405290816000820154815260200160018201805461064d90613da9565b80601f016020809104026020016040519081016040528092919081815260200182805461067990613da9565b80156106c65780601f1061069b576101008083540402835291602001916106c6565b820191906000526020600020905b8154815290600101906020018083116106a957829003601f168201915b505050505081526020016002820180546106df90613da9565b80601f016020809104026020016040519081016040528092919081815260200182805461070b90613da9565b80156107585780601f1061072d57610100808354040283529160200191610758565b820191906000526020600020905b81548152906001019060200180831161073b57829003601f168201915b505050505081526020016003820154815260200160048201805461077b90613da9565b80601f01602080910402602001604051908101604052809291908181526020018280546107a790613da9565b80156107f45780601f106107c9576101008083540402835291602001916107f4565b820191906000526020600020905b8154815290600101906020018083116107d757829003601f168201915b5050505050815260200160058201805461080d90613da9565b80601f016020809104026020016040519081016040528092919081815260200182805461083990613da9565b80156108865780601f1061085b57610100808354040283529160200191610886565b820191906000526020600020905b81548152906001019060200180831161086957829003601f168201915b5050505050815260200160068201548152602001600782018054806020026020016040519081016040528092919081815260200182805480156108e857602002820191906000526020600020905b8154815260200190600101908083116108d4575b50505050508152505090506040518061010001604052806005548152602001858152602001848152602001838152602001826080015181526020018260a0015181526020014281526020018260e00151815250600b60003373ffffffffffffffffffffffffffffffffffffffff1673ffffffffffffffffffffffffffffffffffffffff1681526020019081526020016000206000820151816000015560208201518160010190816109999190613f86565b5060408201518160020190816109af9190613f86565b506060820151816003015560808201518160040190816109cf9190613f86565b5060a08201518160050190816109e59190613f86565b5060c0820151816006015560e0820151816007019080519060200190610a0c9291906133be565b5090505060056000815480929190610a2390614087565b919050555050505050565b6000600b60003373ffffffffffffffffffffffffffffffffffffffff1673ffffffffffffffffffffffffffffffffffffffff1681526020019081526020016000206000015403610ab3576040517f08c379a0000000000000000000000000000000000000000000000000000000008152600401610aaa90613d5a565b60405180910390fd5b6000600d60003373ffffffffffffffffffffffffffffffffffffffff1673ffffffffffffffffffffffffffffffffffffffff1681526020019081526020016000208281548110610b0657610b056140cf565b5b90600052602060002090600602016040518060c001604052908160008201548152602001600182015481526020016002820160009054906101000a900460ff16151515158152602001600382015481526020016004820154815260200160058201548152505090506000600c600084815260200190815260200160002060405180610120016040529081600082015481526020016001820160009054906101000a900473ffffffffffffffffffffffffffffffffffffffff1673ffffffffffffffffffffffffffffffffffffffff1673ffffffffffffffffffffffffffffffffffffffff16815260200160028201805480602002602001604051908101604052809291908181526020018280548015610c7457602002820191906000526020600020905b8160009054906101000a900473ffffffffffffffffffffffffffffffffffffffff1673ffffffffffffffffffffffffffffffffffffffff1681526020019060010190808311610c2a575b5050505050815260200160038201548152602001600482018054610c9790613da9565b80601f0160208091040260200160405190810160405280929190818152602001828054610cc390613da9565b8015610d105780601f10610ce557610100808354040283529160200191610d10565b820191906000526020600020905b815481529060010190602001808311610cf357829003601f168201915b505050505081526020016005820160009054906101000a900460ff161515151581526020016006820154815260200160078201548152602001600882015481525050905060028260a0015111610d9b576040517f08c379a0000000000000000000000000000000000000000000000000000000008152600401610d9290614170565b60405180910390fd5b60008160c001518360800151610db19190614190565b905060008111610df6576040517f08c379a0000000000000000000000000000000000000000000000000000000008152600401610ded90614236565b60405180910390fd5b6000826060015182610e089190614256565b9050600d60003373ffffffffffffffffffffffffffffffffffffffff1673ffffffffffffffffffffffffffffffffffffffff1681526020019081526020016000208581548110610e5b57610e5a6140cf565b5b906000526020600020906006020160008082016000905560018201600090556002820160006101000a81549060ff02191690556003820160009055600482016000905560058201600090555050600160009054906101000a900473ffffffffffffffffffffffffffffffffffffffff1673ffffffffffffffffffffffffffffffffffffffff166323b872dd3033846040518463ffffffff1660e01b8152600401610f0793929190614298565b6020604051808303816000875af1158015610f26573d6000803e3d6000fd5b505050506040513d601f19601f82011682018060405250810190610f4a91906142fb565b507fdc66f972de0418acb83d72185cdafd8f63206f06f26f08008effbcf11495f2fd33868660800151604051610f8293929190614328565b60405180910390a15050505050565b600080600a60003373ffffffffffffffffffffffffffffffffffffffff1673ffffffffffffffffffffffffffffffffffffffff1681526020019081526020016000206000015403611017576040517f08c379a000000000000000000000000000000000000000000000000000000000815260040161100e90613d5a565b60405180910390fd5b600a60008473ffffffffffffffffffffffffffffffffffffffff1673ffffffffffffffffffffffffffffffffffffffff168152602001908152602001600020600901828154811061106b5761106a6140cf565b5b9060005260206000200154905092915050565b60008054906101000a900473ffffffffffffffffffffffffffffffffffffffff1673ffffffffffffffffffffffffffffffffffffffff163373ffffffffffffffffffffffffffffffffffffffff161461110c576040517f08c379a000000000000000000000000000000000000000000000000000000000815260040161110390613d5a565b60405180910390fd5b604051806060016040528060075481526020018381526020018281525060096000600754815260200190815260200160002060008201518160000155602082015181600101908161115d9190613f86565b5060408201518160020190816111739190613f86565b509050506007600081548092919061118a90614087565b91905055505050565b600a6020528060005260406000206000915090508060000154908060010180546111bc90613da9565b80601f01602080910402602001604051908101604052809291908181526020018280546111e890613da9565b80156112355780601f1061120a57610100808354040283529160200191611235565b820191906000526020600020905b81548152906001019060200180831161121857829003601f168201915b50505050509080600201805461124a90613da9565b80601f016020809104026020016040519081016040528092919081815260200182805461127690613da9565b80156112c35780601f10611298576101008083540402835291602001916112c3565b820191906000526020600020905b8154815290600101906020018083116112a657829003601f168201915b5050505050908060030180546112d890613da9565b80601f016020809104026020016040519081016040528092919081815260200182805461130490613da9565b80156113515780601f1061132657610100808354040283529160200191611351565b820191906000526020600020905b81548152906001019060200180831161133457829003601f168201915b5050505050908060040154908060050160009054906101000a900460ff169080600601805461137f90613da9565b80601f01602080910402602001604051908101604052809291908181526020018280546113ab90613da9565b80156113f85780601f106113cd576101008083540402835291602001916113f8565b820191906000526020600020905b8154815290600101906020018083116113db57829003601f168201915b50505050509080600701805461140d90613da9565b80601f016020809104026020016040519081016040528092919081815260200182805461143990613da9565b80156114865780601f1061145b57610100808354040283529160200191611486565b820191906000526020600020905b81548152906001019060200180831161146957829003601f168201915b50505050509080600801805461149b90613da9565b80601f01602080910402602001604051908101604052809291908181526020018280546114c790613da9565b80156115145780601f106114e957610100808354040283529160200191611514565b820191906000526020600020905b8154815290600101906020018083116114f757829003601f168201915b50505050509080600a015490508a565b60045481565b600080600b60003373ffffffffffffffffffffffffffffffffffffffff1673ffffffffffffffffffffffffffffffffffffffff16815260200190815260200160002060000154036115b0576040517f08c379a00000000000000000000000000000000000000000000000000000000081526004016115a790613d5a565b60405180910390fd5b600b60008373ffffffffffffffffffffffffffffffffffffffff1673ffffffffffffffffffffffffffffffffffffffff168152602001908152602001600020600701805490509050919050565b600080600b60003373ffffffffffffffffffffffffffffffffffffffff1673ffffffffffffffffffffffffffffffffffffffff1681526020019081526020016000206000015403611683576040517f08c379a000000000000000000000000000000000000000000000000000000000815260040161167a90613d5a565b60405180910390fd5b600b60008473ffffffffffffffffffffffffffffffffffffffff1673ffffffffffffffffffffffffffffffffffffffff16815260200190815260200160002060070182815481106116d7576116d66140cf565b5b9060005260206000200154905092915050565b60606000600b60003373ffffffffffffffffffffffffffffffffffffffff1673ffffffffffffffffffffffffffffffffffffffff1681526020019081526020016000206000015403611771576040517f08c379a000000000000000000000000000000000000000000000000000000000815260040161176890613d5a565b60405180910390fd5b6000600c600085815260200190815260200160002090506000600d60003373ffffffffffffffffffffffffffffffffffffffff1673ffffffffffffffffffffffffffffffffffffffff16815260200190815260200160002085815481106117db576117da6140cf565b5b90600052602060002090600602019050600082600601548360030154611801919061438e565b9050808260030154106118f157808260030160008282546118229190614190565b92505081905550600160009054906101000a900473ffffffffffffffffffffffffffffffffffffffff1673ffffffffffffffffffffffffffffffffffffffff166323b872dd308560010160009054906101000a900473ffffffffffffffffffffffffffffffffffffffff16846040518463ffffffff1660e01b81526004016118ac93929190614298565b6020604051808303816000875af11580156118cb573d6000803e3d6000fd5b505050506040513d601f19601f820116820180604052508101906118ef91906142fb565b505b600083600601548360040154611907919061438e565b90506001811061195d5761191c338888612e78565b6040518060400160405280601081526020017f636f757273655f636f6d706c65746564000000000000000000000000000000008152509450505050506119b4565b82600401600081548092919061197290614087565b91905055506040518060400160405280601381526020017f636f757273655f6e6578745f73656374696f6e000000000000000000000000008152509450505050505b92915050565b6000600b60003373ffffffffffffffffffffffffffffffffffffffff1673ffffffffffffffffffffffffffffffffffffffff16815260200190815260200160002060000154148015611a4e57506000600a60003373ffffffffffffffffffffffffffffffffffffffff1673ffffffffffffffffffffffffffffffffffffffff16815260200190815260200160002060000154145b611a8d576040517f08c379a0000000000000000000000000000000000000000000000000000000008152600401611a8490613d5a565b60405180910390fd5b600160009054906101000a900473ffffffffffffffffffffffffffffffffffffffff1673ffffffffffffffffffffffffffffffffffffffff16636c43a2ca33306008546040518463ffffffff1660e01b8152600401611aee93929190614298565b6020604051808303816000875af1158015611b0d573d6000803e3d6000fd5b505050506040513d601f19601f82011682018060405250810190611b3191906142fb565b50600160009054906101000a900473ffffffffffffffffffffffffffffffffffffffff1673ffffffffffffffffffffffffffffffffffffffff166323b872dd33306008546040518463ffffffff1660e01b8152600401611b9393929190614298565b6020604051808303816000875af1158015611bb2573d6000803e3d6000fd5b505050506040513d601f19601f82011682018060405250810190611bd691906142fb565b506000600a60003373ffffffffffffffffffffffffffffffffffffffff1673ffffffffffffffffffffffffffffffffffffffff1681526020019081526020016000206040518061016001604052908160008201548152602001600182018054611c3e90613da9565b80601f0160208091040260200160405190810160405280929190818152602001828054611c6a90613da9565b8015611cb75780601f10611c8c57610100808354040283529160200191611cb7565b820191906000526020600020905b815481529060010190602001808311611c9a57829003601f168201915b50505050508152602001600282018054611cd090613da9565b80601f0160208091040260200160405190810160405280929190818152602001828054611cfc90613da9565b8015611d495780601f10611d1e57610100808354040283529160200191611d49565b820191906000526020600020905b815481529060010190602001808311611d2c57829003601f168201915b50505050508152602001600382018054611d6290613da9565b80601f0160208091040260200160405190810160405280929190818152602001828054611d8e90613da9565b8015611ddb5780601f10611db057610100808354040283529160200191611ddb565b820191906000526020600020905b815481529060010190602001808311611dbe57829003601f168201915b50505050508152602001600482015481526020016005820160009054906101000a900460ff16151515158152602001600682018054611e1990613da9565b80601f0160208091040260200160405190810160405280929190818152602001828054611e4590613da9565b8015611e925780601f10611e6757610100808354040283529160200191611e92565b820191906000526020600020905b815481529060010190602001808311611e7557829003601f168201915b50505050508152602001600782018054611eab90613da9565b80601f0160208091040260200160405190810160405280929190818152602001828054611ed790613da9565b8015611f245780601f10611ef957610100808354040283529160200191611f24565b820191906000526020600020905b815481529060010190602001808311611f0757829003601f168201915b50505050508152602001600882018054611f3d90613da9565b80601f0160208091040260200160405190810160405280929190818152602001828054611f6990613da9565b8015611fb65780601f10611f8b57610100808354040283529160200191611fb6565b820191906000526020600020905b815481529060010190602001808311611f9957829003601f168201915b505050505081526020016009820180548060200260200160405190810160405280929190818152602001828054801561200e57602002820191906000526020600020905b815481526020019060010190808311611ffa575b50505050508152602001600a82015481525050905060405180610160016040528060045481526020018681526020018581526020018481526020018381526020016000151581526020018260c0015181526020018260e0015181526020018261010001518152602001826101200151815260200142815250600a60003373ffffffffffffffffffffffffffffffffffffffff1673ffffffffffffffffffffffffffffffffffffffff1681526020019081526020016000206000820151816000015560208201518160010190816120e49190613f86565b5060408201518160020190816120fa9190613f86565b5060608201518160030190816121109190613f86565b506080820151816004015560a08201518160050160006101000a81548160ff02191690831515021790555060c08201518160060190816121509190613f86565b5060e08201518160070190816121669190613f86565b5061010082015181600801908161217d9190613f86565b5061012082015181600901908051906020019061219b9291906133be565b5061014082015181600a0155905050600460008154809291906121bd90614087565b91905055505050505050565b60055481565b6000600a60003373ffffffffffffffffffffffffffffffffffffffff1673ffffffffffffffffffffffffffffffffffffffff1681526020019081526020016000206000015403612254576040517f08c379a000000000000000000000000000000000000000000000000000000000815260040161224b90613d5a565b60405180910390fd5b6000600c6000600654815260200190815260200160002060405180610120016040529081600082015481526020016001820160009054906101000a900473ffffffffffffffffffffffffffffffffffffffff1673ffffffffffffffffffffffffffffffffffffffff1673ffffffffffffffffffffffffffffffffffffffff1681526020016002820180548060200260200160405190810160405280929190818152602001828054801561235c57602002820191906000526020600020905b8160009054906101000a900473ffffffffffffffffffffffffffffffffffffffff1673ffffffffffffffffffffffffffffffffffffffff1681526020019060010190808311612312575b505050505081526020016003820154815260200160048201805461237f90613da9565b80601f01602080910402602001604051908101604052809291908181526020018280546123ab90613da9565b80156123f85780601f106123cd576101008083540402835291602001916123f8565b820191906000526020600020905b8154815290600101906020018083116123db57829003601f168201915b505050505081526020016005820160009054906101000a900460ff161515151581526020016006820154815260200160078201548152602001600882015481525050905060405180610120016040528060065481526020013373ffffffffffffffffffffffffffffffffffffffff16815260200182604001518152602001600081526020018381526020016000151581526020016000815260200142815260200142815250600c600060065481526020019081526020016000206000820151816000015560208201518160010160006101000a81548173ffffffffffffffffffffffffffffffffffffffff021916908373ffffffffffffffffffffffffffffffffffffffff160217905550604082015181600201908051906020019061251f92919061340b565b5060608201518160030155608082015181600401908161253f9190613f86565b5060a08201518160050160006101000a81548160ff02191690831515021790555060c0820151816006015560e082015181600701556101008201518160080155905050600a60003373ffffffffffffffffffffffffffffffffffffffff1673ffffffffffffffffffffffffffffffffffffffff16815260200190815260200160002060090160065490806001815401808255809150506001900390600052602060002001600090919091909150556006600081548092919061260090614087565b91905055505050565b600c6020528060005260406000206000915090508060000154908060010160009054906101000a900473ffffffffffffffffffffffffffffffffffffffff169080600301549080600401805461265e90613da9565b80601f016020809104026020016040519081016040528092919081815260200182805461268a90613da9565b80156126d75780601f106126ac576101008083540402835291602001916126d7565b820191906000526020600020905b8154815290600101906020018083116126ba57829003601f168201915b5050505050908060050160009054906101000a900460ff16908060060154908060070154908060080154905088565b600b60205280600052604060002060009150905080600001549080600101805461272f90613da9565b80601f016020809104026020016040519081016040528092919081815260200182805461275b90613da9565b80156127a85780601f1061277d576101008083540402835291602001916127a8565b820191906000526020600020905b81548152906001019060200180831161278b57829003601f168201915b5050505050908060020180546127bd90613da9565b80601f01602080910402602001604051908101604052809291908181526020018280546127e990613da9565b80156128365780601f1061280b57610100808354040283529160200191612836565b820191906000526020600020905b81548152906001019060200180831161281957829003601f168201915b50505050509080600301549080600401805461285190613da9565b80601f016020809104026020016040519081016040528092919081815260200182805461287d90613da9565b80156128ca5780601f1061289f576101008083540402835291602001916128ca565b820191906000526020600020905b8154815290600101906020018083116128ad57829003601f168201915b5050505050908060050180546128df90613da9565b80601f016020809104026020016040519081016040528092919081815260200182805461290b90613da9565b80156129585780601f1061292d57610100808354040283529160200191612958565b820191906000526020600020905b81548152906001019060200180831161293b57829003601f168201915b5050505050908060060154905087565b60075481565b600960205280600052604060002060009150905080600001549080600101805461299790613da9565b80601f01602080910402602001604051908101604052809291908181526020018280546129c390613da9565b8015612a105780601f106129e557610100808354040283529160200191612a10565b820191906000526020600020905b8154815290600101906020018083116129f357829003601f168201915b505050505090806002018054612a2590613da9565b80601f0160208091040260200160405190810160405280929190818152602001828054612a5190613da9565b8015612a9e5780601f10612a7357610100808354040283529160200191612a9e565b820191906000526020600020905b815481529060010190602001808311612a8157829003601f168201915b5050505050905083565b6000600b60003373ffffffffffffffffffffffffffffffffffffffff1673ffffffffffffffffffffffffffffffffffffffff1681526020019081526020016000206000015403612b2d576040517f08c379a0000000000000000000000000000000000000000000000000000000008152600401612b2490613d5a565b60405180910390fd5b6000600c60008381526020019081526020016000209050600160009054906101000a900473ffffffffffffffffffffffffffffffffffffffff1673ffffffffffffffffffffffffffffffffffffffff166323b872dd333084600301546040518463ffffffff1660e01b8152600401612ba793929190614298565b6020604051808303816000875af1158015612bc6573d6000803e3d6000fd5b505050506040513d601f19601f82011682018060405250810190612bea91906142fb565b50600d60003373ffffffffffffffffffffffffffffffffffffffff1673ffffffffffffffffffffffffffffffffffffffff1681526020019081526020016000206040518060c001604052808481526020018481526020016001151581526020018360030154815260200160008152602001428152509080600181540180825580915050600190039060005260206000209060060201600090919091909150600082015181600001556020820151816001015560408201518160020160006101000a81548160ff021916908315150217905550606082015181600301556080820151816004015560a0820151816005015550507fba05698ffe932ba01d3d70f62a2e48d6719cc5df3bdcf9118015af495c4a39b18160010160009054906101000a900473ffffffffffffffffffffffffffffffffffffffff163384604051612d3393929190614298565b60405180910390a15050565b600080600a60003373ffffffffffffffffffffffffffffffffffffffff1673ffffffffffffffffffffffffffffffffffffffff1681526020019081526020016000206000015403612dc5576040517f08c379a0000000000000000000000000000000000000000000000000000000008152600401612dbc90613d5a565b60405180910390fd5b600a60008373ffffffffffffffffffffffffffffffffffffffff1673ffffffffffffffffffffffffffffffffffffffff168152602001908152602001600020600901805490509050919050565b600d6020528160005260406000208181548110612e2e57600080fd5b9060005260206000209060060201600091509150508060000154908060010154908060020160009054906101000a900460ff16908060030154908060040154908060050154905086565b612e83828483612e92565b612e8d8284613146565b505050565b6000600c600085815260200190815260200160002060405180610120016040529081600082015481526020016001820160009054906101000a900473ffffffffffffffffffffffffffffffffffffffff1673ffffffffffffffffffffffffffffffffffffffff1673ffffffffffffffffffffffffffffffffffffffff16815260200160028201805480602002602001604051908101604052809291908181526020018280548015612f9857602002820191906000526020600020905b8160009054906101000a900473ffffffffffffffffffffffffffffffffffffffff1673ffffffffffffffffffffffffffffffffffffffff1681526020019060010190808311612f4e575b5050505050815260200160038201548152602001600482018054612fbb90613da9565b80601f0160208091040260200160405190810160405280929190818152602001828054612fe790613da9565b80156130345780601f1061300957610100808354040283529160200191613034565b820191906000526020600020905b81548152906001019060200180831161301757829003601f168201915b505050505081526020016005820160009054906101000a900460ff1615151515815260200160068201548152602001600782015481526020016008820154815250509050600360009054906101000a900473ffffffffffffffffffffffffffffffffffffffff1673ffffffffffffffffffffffffffffffffffffffff166304b444d984846040518363ffffffff1660e01b81526004016130d59291906143bf565b600060405180830381600087803b1580156130ef57600080fd5b505af1158015613103573d6000803e3d6000fd5b505050507ffec61b9ec0e29047dbeea981617649d79f187d172cfd492695a3d0bfee28883e83856040516131389291906143ef565b60405180910390a150505050565b6000600c600084815260200190815260200160002060405180610120016040529081600082015481526020016001820160009054906101000a900473ffffffffffffffffffffffffffffffffffffffff1673ffffffffffffffffffffffffffffffffffffffff1673ffffffffffffffffffffffffffffffffffffffff1681526020016002820180548060200260200160405190810160405280929190818152602001828054801561324c57602002820191906000526020600020905b8160009054906101000a900473ffffffffffffffffffffffffffffffffffffffff1673ffffffffffffffffffffffffffffffffffffffff1681526020019060010190808311613202575b505050505081526020016003820154815260200160048201805461326f90613da9565b80601f016020809104026020016040519081016040528092919081815260200182805461329b90613da9565b80156132e85780601f106132bd576101008083540402835291602001916132e8565b820191906000526020600020905b8154815290600101906020018083116132cb57829003601f168201915b505050505081526020016005820160009054906101000a900460ff1615151515815260200160068201548152602001600782015481526020016008820154815250509050600260009054906101000a900473ffffffffffffffffffffffffffffffffffffffff1673ffffffffffffffffffffffffffffffffffffffff1663b510391f836040518263ffffffff1660e01b8152600401613387919061444f565b600060405180830381600087803b1580156133a157600080fd5b505af11580156133b5573d6000803e3d6000fd5b50505050505050565b8280548282559060005260206000209081019282156133fa579160200282015b828111156133f95782518255916020019190600101906133de565b5b5090506134079190613495565b5090565b828054828255906000526020600020908101928215613484579160200282015b828111156134835782518260006101000a81548173ffffffffffffffffffffffffffffffffffffffff021916908373ffffffffffffffffffffffffffffffffffffffff1602179055509160200191906001019061342b565b5b5090506134919190613495565b5090565b5b808211156134ae576000816000905550600101613496565b5090565b6000604051905090565b600080fd5b600080fd5b6000819050919050565b6134d9816134c6565b81146134e457600080fd5b50565b6000813590506134f6816134d0565b92915050565b600060208284031215613512576135116134bc565b5b6000613520848285016134e7565b91505092915050565b613532816134c6565b82525050565b600060208201905061354d6000830184613529565b92915050565b600080fd5b600080fd5b6000601f19601f8301169050919050565b7f4e487b7100000000000000000000000000000000000000000000000000000000600052604160045260246000fd5b6135a68261355d565b810181811067ffffffffffffffff821117156135c5576135c461356e565b5b80604052505050565b60006135d86134b2565b90506135e4828261359d565b919050565b600067ffffffffffffffff8211156136045761360361356e565b5b61360d8261355d565b9050602081019050919050565b82818337600083830152505050565b600061363c613637846135e9565b6135ce565b90508281526020810184848401111561365857613657613558565b5b61366384828561361a565b509392505050565b600082601f8301126136805761367f613553565b5b8135613690848260208601613629565b91505092915050565b6000806000606084860312156136b2576136b16134bc565b5b600084013567ffffffffffffffff8111156136d0576136cf6134c1565b5b6136dc8682870161366b565b935050602084013567ffffffffffffffff8111156136fd576136fc6134c1565b5b6137098682870161366b565b925050604061371a868287016134e7565b9150509250925092565b600073ffffffffffffffffffffffffffffffffffffffff82169050919050565b600061374f82613724565b9050919050565b61375f81613744565b811461376a57600080fd5b50565b60008135905061377c81613756565b92915050565b60008060408385031215613799576137986134bc565b5b60006137a78582860161376d565b92505060206137b8858286016134e7565b9150509250929050565b600080604083850312156137d9576137d86134bc565b5b600083013567ffffffffffffffff8111156137f7576137f66134c1565b5b6138038582860161366b565b925050602083013567ffffffffffffffff811115613824576138236134c1565b5b6138308582860161366b565b9150509250929050565b6000602082840312156138505761384f6134bc565b5b600061385e8482850161376d565b91505092915050565b600081519050919050565b600082825260208201905092915050565b60005b838110156138a1578082015181840152602081019050613886565b60008484015250505050565b60006138b882613867565b6138c28185613872565b93506138d2818560208601613883565b6138db8161355d565b840191505092915050565b60008115159050919050565b6138fb816138e6565b82525050565b600061014082019050613917600083018d613529565b8181036020830152613929818c6138ad565b9050818103604083015261393d818b6138ad565b90508181036060830152613951818a6138ad565b90506139606080830189613529565b61396d60a08301886138f2565b81810360c083015261397f81876138ad565b905081810360e083015261399381866138ad565b90508181036101008301526139a881856138ad565b90506139b8610120830184613529565b9b9a5050505050505050505050565b600080604083850312156139de576139dd6134bc565b5b60006139ec858286016134e7565b925050602083013567ffffffffffffffff811115613a0d57613a0c6134c1565b5b613a198582860161366b565b9150509250929050565b60006020820190508181036000830152613a3d81846138ad565b905092915050565b60008060008060808587031215613a5f57613a5e6134bc565b5b600085013567ffffffffffffffff811115613a7d57613a7c6134c1565b5b613a898782880161366b565b945050602085013567ffffffffffffffff811115613aaa57613aa96134c1565b5b613ab68782880161366b565b935050604085013567ffffffffffffffff811115613ad757613ad66134c1565b5b613ae38782880161366b565b9250506060613af4878288016134e7565b91505092959194509250565b600060208284031215613b1657613b156134bc565b5b600082013567ffffffffffffffff811115613b3457613b336134c1565b5b613b408482850161366b565b91505092915050565b613b5281613744565b82525050565b600061010082019050613b6e600083018b613529565b613b7b602083018a613b49565b613b886040830189613529565b8181036060830152613b9a81886138ad565b9050613ba960808301876138f2565b613bb660a0830186613529565b613bc360c0830185613529565b613bd060e0830184613529565b9998505050505050505050565b600060e082019050613bf2600083018a613529565b8181036020830152613c0481896138ad565b90508181036040830152613c1881886138ad565b9050613c276060830187613529565b8181036080830152613c3981866138ad565b905081810360a0830152613c4d81856138ad565b9050613c5c60c0830184613529565b98975050505050505050565b6000606082019050613c7d6000830186613529565b8181036020830152613c8f81856138ad565b90508181036040830152613ca381846138ad565b9050949350505050565b600060c082019050613cc26000830189613529565b613ccf6020830188613529565b613cdc60408301876138f2565b613ce96060830186613529565b613cf66080830185613529565b613d0360a0830184613529565b979650505050505050565b7f556e617574686f72697a65640000000000000000000000000000000000000000600082015250565b6000613d44600c83613872565b9150613d4f82613d0e565b602082019050919050565b60006020820190508181036000830152613d7381613d37565b9050919050565b7f4e487b7100000000000000000000000000000000000000000000000000000000600052602260045260246000fd5b60006002820490506001821680613dc157607f821691505b602082108103613dd457613dd3613d7a565b5b50919050565b60008190508160005260206000209050919050565b60006020601f8301049050919050565b600082821b905092915050565b600060088302613e3c7fffffffffffffffffffffffffffffffffffffffffffffffffffffffffffffffff82613dff565b613e468683613dff565b95508019841693508086168417925050509392505050565b6000819050919050565b6000613e83613e7e613e79846134c6565b613e5e565b6134c6565b9050919050565b6000819050919050565b613e9d83613e68565b613eb1613ea982613e8a565b848454613e0c565b825550505050565b600090565b613ec6613eb9565b613ed1818484613e94565b505050565b5b81811015613ef557613eea600082613ebe565b600181019050613ed7565b5050565b601f821115613f3a57613f0b81613dda565b613f1484613def565b81016020851015613f23578190505b613f37613f2f85613def565b830182613ed6565b50505b505050565b600082821c905092915050565b6000613f5d60001984600802613f3f565b1980831691505092915050565b6000613f768383613f4c565b9150826002028217905092915050565b613f8f82613867565b67ffffffffffffffff811115613fa857613fa761356e565b5b613fb28254613da9565b613fbd828285613ef9565b600060209050601f831160018114613ff05760008415613fde578287015190505b613fe88582613f6a565b865550614050565b601f198416613ffe86613dda565b60005b8281101561402657848901518255600182019150602085019450602081019050614001565b86831015614043578489015161403f601f891682613f4c565b8355505b6001600288020188555050505b505050505050565b7f4e487b7100000000000000000000000000000000000000000000000000000000600052601160045260246000fd5b6000614092826134c6565b91507fffffffffffffffffffffffffffffffffffffffffffffffffffffffffffffffff82036140c4576140c3614058565b5b600182019050919050565b7f4e487b7100000000000000000000000000000000000000000000000000000000600052603260045260246000fd5b7f596f752063616e27742072656a656374206120636f75727365206f766572203260008201527f207765656b732e00000000000000000000000000000000000000000000000000602082015250565b600061415a602783613872565b9150614165826140fe565b604082019050919050565b600060208201905081810360008301526141898161414d565b9050919050565b600061419b826134c6565b91506141a6836134c6565b92508282039050818111156141be576141bd614058565b5b92915050565b7f4e6f6e65206f662074686520636f757273652073656374696f6e73206973207260008201527f6566756e6461626c650000000000000000000000000000000000000000000000602082015250565b6000614220602983613872565b915061422b826141c4565b604082019050919050565b6000602082019050818103600083015261424f81614213565b9050919050565b6000614261826134c6565b915061426c836134c6565b925082820261427a816134c6565b9150828204841483151761429157614290614058565b5b5092915050565b60006060820190506142ad6000830186613b49565b6142ba6020830185613b49565b6142c76040830184613529565b949350505050565b6142d8816138e6565b81146142e357600080fd5b50565b6000815190506142f5816142cf565b92915050565b600060208284031215614311576143106134bc565b5b600061431f848285016142e6565b91505092915050565b600060608201905061433d6000830186613b49565b61434a6020830185613529565b6143576040830184613529565b949350505050565b7f4e487b7100000000000000000000000000000000000000000000000000000000600052601260045260246000fd5b6000614399826134c6565b91506143a4836134c6565b9250826143b4576143b361435f565b5b828204905092915050565b60006040820190506143d46000830185613b49565b81810360208301526143e681846138ad565b90509392505050565b60006040820190506144046000830185613b49565b6144116020830184613529565b9392505050565b600082825260208201905092915050565b50565b6000614439600083614418565b915061444482614429565b600082019050919050565b60006040820190506144646000830184613b49565b81810360208301526144758161442c565b90509291505056fea26469706673582212207e75a3213d85718c21aa3b12ffac1f1f185fef4edf212e889fad0562399709f164736f6c634300081100332f696d616765732f63617465676f726965732f696c6c757374726174696f6e2e776562702f696d616765732f63617465676f726965732f616e696d6174696f6e2e776562702f696d616765732f63617465676f726965732f70686f746f6772617068792e776562702f696d616765732f63617465676f726965732f7765622d646576656c6f706d656e742e776562702f696d616765732f63617465676f726965732f646174612d736369656e63652e776562702f696d616765732f63617465676f726965732f6d61726b6574696e672e77656270",
  "immutableReferences": {},
  "source": "// SPDX-License-Identifier: GPL-3.0\n\npragma solidity >=0.7.0 <0.9.0;\n\nimport \"./BdlToken.sol\";\nimport \"./BdlNft.sol\";\nimport \"./BdlCertificate.sol\";\n\ncontract Buidl {\n    // state variables\n    address deployer;\n\n    BdlToken bdlToken;\n    BdlNft bdlNft;\n    BdlCertificate bdlCertificate;\n\n    uint256 public contractInstructorID = 1;\n    uint256 public contractStudentID = 1;\n    uint256 public contractCourseID = 1;\n    uint256 public contractCategoryID = 1;\n\n    // minimum to stake for a duration of 1year\n    uint256 instructorRegistrationFee = 2000 * 10**18;\n\n    mapping(uint => Category) public categories;\n    mapping(address => Instructor) public instructors;\n    mapping(address => Student) public students;\n    mapping(uint => Course) public courses;\n    mapping(address => StudentCourse[]) public studentCourses;\n\n    // contructor\n    constructor(\n        address _bdlToken,\n        address _bdlNft,\n        address _bdlCertificate\n    ) {\n        deployer = msg.sender;\n        bdlToken = BdlToken(_bdlToken);\n        bdlNft = BdlNft(_bdlNft);\n        bdlCertificate = BdlCertificate(_bdlCertificate);\n\n        addTestCategories();\n    }\n\n    // structs\n    struct Category {\n        uint id;\n        string name;\n        string image;\n    }\n\n    struct Instructor {\n        uint id;\n        string firstName;\n        string lastName;\n        string location;\n        uint gender;\n        bool isVerified;\n        string ipfsPhoto;\n        string twitter;\n        string linkedin;\n        uint[] courses;\n        uint createdAt;\n    }\n\n    struct Course {\n        uint id;\n        address instructor;\n        address[] students; // students offering the course\n        uint256 price; // price in bdl token\n        string ipfsHash; // course metadata\n        bool isPublished;\n        uint sections; // number of course sections\n        uint createdAt;\n        uint updatedAt;\n    }\n\n    struct Student {\n        uint id;\n        string name;\n        string emailAddress;\n        uint gender;\n        string ipfsPhoto;\n        string country;\n        uint createdAt;\n        uint[] courses;\n    }\n\n    struct StudentCourse {\n        uint id;\n        uint courseId;\n        bool isActive; // paid or rejected\n        uint unlocked; // initially equals to price of course\n        // then sequentially unlocked to the instructor\n        uint sectionsViewed;\n        uint purchasedAt;\n    }\n\n    // ========= Administation ========= //\n\n    function setInstructorRegistrationFee(uint256 amount) public onlyOwner {\n        instructorRegistrationFee = amount;\n    }\n\n    function addCategory(string memory name, string memory image)\n        public\n        onlyOwner\n    {\n        categories[contractCategoryID] = Category(\n            contractCategoryID,\n            name,\n            image\n        );\n\n        contractCategoryID++;\n    }\n\n    // ========= Instructors =========== //\n\n    function createCourse(string memory ipfsHash) public onlyInstructor {\n        Course memory course = courses[contractCourseID];\n\n        // create new freah course\n        courses[contractCourseID] = Course(\n            contractCourseID,\n            msg.sender,\n            course.students,\n            0,\n            ipfsHash,\n            false,\n            0,\n            block.timestamp,\n            block.timestamp\n        );\n\n        // assign course ownership to intructor\n        instructors[msg.sender].courses.push(contractCourseID);\n\n        // increment id\n        contractCourseID++;\n    }\n\n    function getInstructorCoursesLength(address instructor)\n        public\n        view\n        onlyInstructor\n        returns (uint)\n    {\n        return instructors[instructor].courses.length;\n    }\n\n    function getInstructorCourseIdAtIndex(address instructor, uint index)\n        public\n        view\n        onlyInstructor\n        returns (uint)\n    {\n        return instructors[instructor].courses[index];\n    }\n\n    function createInstructorAccount(\n        string memory firstName,\n        string memory lastName,\n        string memory location,\n        uint gender\n    ) public notAnyone {\n        // stake instruction fee\n        bdlToken.increaseAllowance(\n            msg.sender,\n            address(this),\n            instructorRegistrationFee\n        );\n\n        bdlToken.transferFrom(\n            msg.sender,\n            address(this),\n            instructorRegistrationFee\n        );\n\n        Instructor memory instructor = instructors[msg.sender];\n\n        instructors[msg.sender] = Instructor(\n            contractInstructorID,\n            firstName,\n            lastName,\n            location,\n            gender,\n            false,\n            instructor.ipfsPhoto,\n            instructor.twitter,\n            instructor.linkedin,\n            instructor.courses,\n            block.timestamp\n        );\n\n        contractInstructorID++;\n    }\n\n    // ========= Students ========== //\n\n    function createStudentAccount(\n        string memory name,\n        string memory email,\n        uint gender\n    ) public notAnyone {\n        Student memory student = students[msg.sender];\n\n        students[msg.sender] = Student(\n            contractStudentID,\n            name,\n            email,\n            gender,\n            student.ipfsPhoto,\n            student.country,\n            block.timestamp,\n            student.courses\n        );\n\n        contractStudentID++;\n    }\n\n    function getStudentCoursesLength(address student)\n        public\n        view\n        onlyStudent\n        returns (uint)\n    {\n        return students[student].courses.length;\n    }\n\n    function getStudentourseIdAtIndex(address student, uint index)\n        public\n        view\n        onlyStudent\n        returns (uint)\n    {\n        return students[student].courses[index];\n    }\n\n    function purchaseCourse(uint courseId) public onlyStudent {\n        Course storage course = courses[courseId];\n\n        // lock the student funds to smart contract\n        bdlToken.transferFrom(msg.sender, address(this), course.price);\n\n        // create course for student\n        studentCourses[msg.sender].push(\n            StudentCourse(\n                courseId,\n                courseId,\n                true,\n                course.price,\n                0,\n                block.timestamp\n            )\n        );\n\n        emit CoursePurchased(course.instructor, msg.sender, courseId);\n    }\n\n    function rejectCourse(uint courseId) public onlyStudent {\n        StudentCourse memory studentCourse = studentCourses[msg.sender][\n            courseId\n        ];\n\n        Course memory course = courses[courseId];\n\n        // check is course is not over 2 weeks\n        require(\n            studentCourse.purchasedAt > 2,\n            \"You can't reject a course over 2 weeks.\"\n        );\n\n        uint refundableSections = (studentCourse.sectionsViewed -\n            course.sections);\n        require(\n            refundableSections > 0,\n            \"None of the course sections is refundable\"\n        );\n\n        uint256 refundableAmount = (refundableSections * course.price);\n\n        // terminate student course\n        delete studentCourses[msg.sender][courseId];\n\n        // refund the student\n        bdlToken.transferFrom(address(this), msg.sender, refundableAmount);\n\n        emit CourseRejected(msg.sender, courseId, studentCourse.sectionsViewed);\n    }\n\n    function onNextCourseSection(uint courseId, string memory uri)\n        public\n        onlyStudent\n        returns (string memory)\n    {\n        Course storage course = courses[courseId];\n        StudentCourse storage studentCourse = studentCourses[msg.sender][\n            courseId\n        ];\n\n        // students moved to another section of the course\n        // unlock part payment to the instructor (conditionally)\n        uint pricePerSection = (course.price / course.sections);\n        if (studentCourse.unlocked >= pricePerSection) {\n            studentCourse.unlocked -= pricePerSection;\n            bdlToken.transferFrom(\n                address(this),\n                course.instructor,\n                pricePerSection\n            );\n        }\n\n        // checks if students has completed the course\n        uint progress = (studentCourse.sectionsViewed / course.sections);\n\n        if (progress >= 1) {\n            onCompletedCourse(msg.sender, courseId, uri);\n            return \"course_completed\";\n        } else {\n            studentCourse.sectionsViewed++;\n            return \"course_next_section\";\n        }\n    }\n\n    function onCompletedCourse(\n        address student,\n        uint courseId,\n        string memory uri\n    ) private {\n        generateCerticate(courseId, student, uri);\n        mintNftForStudent(courseId, student);\n    }\n\n    function generateCerticate(\n        uint courseId,\n        address student,\n        string memory uri\n    ) private {\n        Course memory course = courses[courseId];\n        // {\n        //     \"name\":\"Android Certificate\",\n        //     \"description\":\"Mastering Koitlin\",\n        //     \"image\":\"https://buidl.com/pic/xxxx.jpg\",\n        //     \"external_url\":\"https://originalsite.io/2\",\n        //     \"attributes\":[\n        //          {\n        //              \"trait_type\":\"Rarity Class\",\n        //              \"value\":\"Normal\"\n        //          },\n        //     ]\n        // }\n        bdlCertificate.issue(student, uri);\n\n        emit CertificateIssued(student, courseId);\n    }\n\n    function mintNftForStudent(uint courseId, address student) private {\n        Course memory course = courses[courseId];\n\n        bdlNft.mint(student, \"\");\n    }\n\n    modifier onlyInstructor() {\n        require(instructors[msg.sender].id != 0, \"Unauthorized\");\n        _;\n    }\n\n    modifier onlyStudent() {\n        require(students[msg.sender].id != 0, \"Unauthorized\");\n        _;\n    }\n\n    modifier onlyOwner() {\n        require(msg.sender == deployer, \"Unauthorized\");\n        _;\n    }\n\n    modifier notAnyone() {\n        require(\n            (students[msg.sender].id == 0 && instructors[msg.sender].id == 0),\n            \"Unauthorized\"\n        );\n        _;\n    }\n\n    // ========== events ========== //\n    event CourseCompletion(address student, uint courseId);\n    event CertificateIssued(address student, uint courseId);\n    event CoursePurchased(address intructor, address student, uint courseId);\n    event CourseRejected(address student, uint courseId, uint sectionsViewed);\n\n    // ========== test =========== //\n    function addTestCategories() private {\n        addCategory(\n            \"Web Development\",\n            \"/images/categories/web-development.webp\"\n        );\n        addCategory(\"Cooking\", \"/images/categories/cooking.webp\");\n        addCategory(\"UI/UX Designing\", \"/images/categories/ui-ux.webp\");\n        addCategory(\"3D Animation\", \"/images/categories/animation.webp\");\n        addCategory(\"Illustration\", \"/images/categories/illustration.webp\");\n        addCategory(\"Data Science\", \"/images/categories/data-science.webp\");\n        addCategory(\"Speaking\", \"/images/categories/speaking.webp\");\n        addCategory(\"Music\", \"/images/categories/music.webp\");\n        addCategory(\"Photography\", \"/images/categories/photography.webp\");\n        addCategory(\"Marketing\", \"/images/categories/marketing.webp\");\n    }\n}\n",
  "sourcePath": "C:\\Users\\Arogundade Ibrahim\\Documents\\web3\\Buidl\\contracts\\Buidl.sol",
  "compiler": {
    "name": "solc",
    "version": "0.8.17+commit.8df45f5f.Emscripten.clang"
  },
  "schemaVersion": "3.4.10",
  "updatedAt": "2022-10-18T12:29:43.230Z",
  "networkType": "ethereum",
  "devdoc": {
    "kind": "dev",
    "methods": {},
    "version": 1
  },
  "userdoc": {
    "kind": "user",
    "methods": {},
    "version": 1
  }
}