{
  "contractName": "Buidl",
  "abi": [
    {
      "inputs": [
        {
          "internalType": "address",
          "name": "_bdlToken",
          "type": "address"
        },
        {
          "internalType": "address",
          "name": "_bdlNft",
          "type": "address"
        },
        {
          "internalType": "address",
          "name": "_bdlCertificate",
          "type": "address"
        }
      ],
      "stateMutability": "nonpayable",
      "type": "constructor"
    },
    {
      "anonymous": false,
      "inputs": [
        {
          "indexed": false,
          "internalType": "address",
          "name": "student",
          "type": "address"
        },
        {
          "indexed": false,
          "internalType": "uint256",
          "name": "courseId",
          "type": "uint256"
        }
      ],
      "name": "CertificateIssued",
      "type": "event"
    },
    {
      "anonymous": false,
      "inputs": [
        {
          "indexed": false,
          "internalType": "address",
          "name": "student",
          "type": "address"
        },
        {
          "indexed": false,
          "internalType": "uint256",
          "name": "courseId",
          "type": "uint256"
        }
      ],
      "name": "CourseCompletion",
      "type": "event"
    },
    {
      "anonymous": false,
      "inputs": [
        {
          "indexed": false,
          "internalType": "address",
          "name": "intructor",
          "type": "address"
        },
        {
          "indexed": false,
          "internalType": "address",
          "name": "student",
          "type": "address"
        },
        {
          "indexed": false,
          "internalType": "uint256",
          "name": "courseId",
          "type": "uint256"
        }
      ],
      "name": "CoursePurchased",
      "type": "event"
    },
    {
      "anonymous": false,
      "inputs": [
        {
          "indexed": false,
          "internalType": "address",
          "name": "student",
          "type": "address"
        },
        {
          "indexed": false,
          "internalType": "uint256",
          "name": "courseId",
          "type": "uint256"
        },
        {
          "indexed": false,
          "internalType": "uint256",
          "name": "sectionsViewed",
          "type": "uint256"
        }
      ],
      "name": "CourseRejected",
      "type": "event"
    },
    {
      "inputs": [
        {
          "internalType": "uint256",
          "name": "",
          "type": "uint256"
        }
      ],
      "name": "courses",
      "outputs": [
        {
          "internalType": "uint256",
          "name": "id",
          "type": "uint256"
        },
        {
          "internalType": "address",
          "name": "instructor",
          "type": "address"
        },
        {
          "internalType": "uint256",
          "name": "price",
          "type": "uint256"
        },
        {
          "internalType": "string",
          "name": "level",
          "type": "string"
        },
        {
          "internalType": "string",
          "name": "ipfsHash",
          "type": "string"
        },
        {
          "internalType": "bool",
          "name": "isPublished",
          "type": "bool"
        },
        {
          "internalType": "uint256",
          "name": "sections",
          "type": "uint256"
        },
        {
          "internalType": "uint256",
          "name": "category",
          "type": "uint256"
        },
        {
          "internalType": "uint256",
          "name": "createdAt",
          "type": "uint256"
        },
        {
          "internalType": "uint256",
          "name": "updatedAt",
          "type": "uint256"
        }
      ],
      "stateMutability": "view",
      "type": "function",
      "constant": true
    },
    {
      "inputs": [
        {
          "internalType": "address",
          "name": "",
          "type": "address"
        }
      ],
      "name": "instructors",
      "outputs": [
        {
          "internalType": "uint256",
          "name": "id",
          "type": "uint256"
        },
        {
          "internalType": "string",
          "name": "firstName",
          "type": "string"
        },
        {
          "internalType": "string",
          "name": "lastName",
          "type": "string"
        },
        {
          "internalType": "string",
          "name": "location",
          "type": "string"
        },
        {
          "internalType": "uint256",
          "name": "gender",
          "type": "uint256"
        },
        {
          "internalType": "bool",
          "name": "isVerified",
          "type": "bool"
        },
        {
          "internalType": "string",
          "name": "ipfsPhoto",
          "type": "string"
        },
        {
          "internalType": "string",
          "name": "twitter",
          "type": "string"
        },
        {
          "internalType": "string",
          "name": "linkedin",
          "type": "string"
        },
        {
          "internalType": "uint256",
          "name": "createdAt",
          "type": "uint256"
        }
      ],
      "stateMutability": "view",
      "type": "function",
      "constant": true
    },
    {
      "inputs": [
        {
          "internalType": "address",
          "name": "",
          "type": "address"
        },
        {
          "internalType": "uint256",
          "name": "",
          "type": "uint256"
        }
      ],
      "name": "studentCourses",
      "outputs": [
        {
          "internalType": "uint256",
          "name": "id",
          "type": "uint256"
        },
        {
          "internalType": "uint256",
          "name": "courseId",
          "type": "uint256"
        },
        {
          "internalType": "bool",
          "name": "isActive",
          "type": "bool"
        },
        {
          "internalType": "uint256",
          "name": "unlocked",
          "type": "uint256"
        },
        {
          "internalType": "uint256",
          "name": "sectionsViewed",
          "type": "uint256"
        },
        {
          "internalType": "uint256",
          "name": "purchasedAt",
          "type": "uint256"
        }
      ],
      "stateMutability": "view",
      "type": "function",
      "constant": true
    },
    {
      "inputs": [
        {
          "internalType": "address",
          "name": "",
          "type": "address"
        }
      ],
      "name": "students",
      "outputs": [
        {
          "internalType": "uint256",
          "name": "id",
          "type": "uint256"
        },
        {
          "internalType": "string",
          "name": "name",
          "type": "string"
        },
        {
          "internalType": "string",
          "name": "emailAddress",
          "type": "string"
        },
        {
          "internalType": "string",
          "name": "gender",
          "type": "string"
        },
        {
          "internalType": "string",
          "name": "ipfsPhoto",
          "type": "string"
        },
        {
          "internalType": "string",
          "name": "country",
          "type": "string"
        },
        {
          "internalType": "uint256",
          "name": "createdAt",
          "type": "uint256"
        }
      ],
      "stateMutability": "view",
      "type": "function",
      "constant": true
    },
    {
      "inputs": [
        {
          "internalType": "uint256",
          "name": "amount",
          "type": "uint256"
        }
      ],
      "name": "setInstructorRegistrationFee",
      "outputs": [],
      "stateMutability": "nonpayable",
      "type": "function"
    },
    {
      "inputs": [
        {
          "internalType": "string",
          "name": "ipfsHash",
          "type": "string"
        },
        {
          "internalType": "string",
          "name": "level",
          "type": "string"
        },
        {
          "internalType": "uint256",
          "name": "courseCategory",
          "type": "uint256"
        }
      ],
      "name": "createCourse",
      "outputs": [],
      "stateMutability": "nonpayable",
      "type": "function"
    },
    {
      "inputs": [
        {
          "internalType": "string",
          "name": "firstName",
          "type": "string"
        },
        {
          "internalType": "string",
          "name": "lastName",
          "type": "string"
        },
        {
          "internalType": "string",
          "name": "location",
          "type": "string"
        },
        {
          "internalType": "uint256",
          "name": "gender",
          "type": "uint256"
        }
      ],
      "name": "createInstructorAccount",
      "outputs": [],
      "stateMutability": "nonpayable",
      "type": "function"
    },
    {
      "inputs": [
        {
          "internalType": "string",
          "name": "name",
          "type": "string"
        },
        {
          "internalType": "string",
          "name": "email",
          "type": "string"
        },
        {
          "internalType": "string",
          "name": "gender",
          "type": "string"
        }
      ],
      "name": "createStudentAccount",
      "outputs": [],
      "stateMutability": "nonpayable",
      "type": "function"
    },
    {
      "inputs": [
        {
          "internalType": "uint256",
          "name": "courseId",
          "type": "uint256"
        }
      ],
      "name": "purchaseCourse",
      "outputs": [],
      "stateMutability": "nonpayable",
      "type": "function"
    },
    {
      "inputs": [
        {
          "internalType": "uint256",
          "name": "courseId",
          "type": "uint256"
        }
      ],
      "name": "rejectCourse",
      "outputs": [],
      "stateMutability": "nonpayable",
      "type": "function"
    },
    {
      "inputs": [
        {
          "internalType": "uint256",
          "name": "courseId",
          "type": "uint256"
        }
      ],
      "name": "onNextCourseSection",
      "outputs": [
        {
          "internalType": "string",
          "name": "",
          "type": "string"
        }
      ],
      "stateMutability": "nonpayable",
      "type": "function"
    }
  ],
  "bytecode": "0x60806040526001600455600160055560016006556127106007553480156200002657600080fd5b50604051620041603803806200416083398181016040528101906200004c9190620001c2565b336000806101000a81548173ffffffffffffffffffffffffffffffffffffffff021916908373ffffffffffffffffffffffffffffffffffffffff16021790555082600160006101000a81548173ffffffffffffffffffffffffffffffffffffffff021916908373ffffffffffffffffffffffffffffffffffffffff16021790555081600260006101000a81548173ffffffffffffffffffffffffffffffffffffffff021916908373ffffffffffffffffffffffffffffffffffffffff16021790555080600360006101000a81548173ffffffffffffffffffffffffffffffffffffffff021916908373ffffffffffffffffffffffffffffffffffffffff1602179055505050506200021e565b600080fd5b600073ffffffffffffffffffffffffffffffffffffffff82169050919050565b60006200018a826200015d565b9050919050565b6200019c816200017d565b8114620001a857600080fd5b50565b600081519050620001bc8162000191565b92915050565b600080600060608486031215620001de57620001dd62000158565b5b6000620001ee86828701620001ab565b93505060206200020186828701620001ab565b92505060406200021486828701620001ab565b9150509250925092565b613f32806200022e6000396000f3fe608060405234801561001057600080fd5b50600436106100a95760003560e01c8063a4adb24b11610071578063a4adb24b14610174578063a6c807a914610190578063c5e4ed93146101c6578063cd131938146101f6578063cf0caba414610212578063fd95cc511461022e576100a9565b8063097167ba146100ae57806313a017e7146100ca5780632a47d91c146100e65780635a6373841461011f57806396f979d21461013b575b600080fd5b6100c860048036038101906100c39190613025565b610263565b005b6100e460048036038101906100df9190613025565b61026d565b005b61010060048036038101906100fb91906130b0565b61086c565b6040516101169a99989796959493929190613197565b60405180910390f35b61013960048036038101906101349190613392565b610bfd565b005b61015560048036038101906101509190613025565b611367565b60405161016b9a9998979695949392919061345c565b60405180910390f35b61018e60048036038101906101899190613506565b6114f8565b005b6101aa60048036038101906101a591906130b0565b6119fe565b6040516101bd9796959493929190613591565b60405180910390f35b6101e060048036038101906101db9190613025565b611ce8565b6040516101ed9190613623565b60405180910390f35b610210600480360381019061020b9190613025565b611fb6565b005b61022c60048036038101906102279190613645565b61224d565b005b610248600480360381019061024391906136ec565b6127fc565b60405161025a9695949392919061372c565b60405180910390f35b8060078190555050565b6000600960003373ffffffffffffffffffffffffffffffffffffffff1673ffffffffffffffffffffffffffffffffffffffff16815260200190815260200160002060000154036102f2576040517f08c379a00000000000000000000000000000000000000000000000000000000081526004016102e9906137d9565b60405180910390fd5b6000600b60003373ffffffffffffffffffffffffffffffffffffffff1673ffffffffffffffffffffffffffffffffffffffff1681526020019081526020016000208281548110610345576103446137f9565b5b90600052602060002090600602016040518060c001604052908160008201548152602001600182015481526020016002820160009054906101000a900460ff16151515158152602001600382015481526020016004820154815260200160058201548152505090506000600a600084815260200190815260200160002060405180610160016040529081600082015481526020016001820160009054906101000a900473ffffffffffffffffffffffffffffffffffffffff1673ffffffffffffffffffffffffffffffffffffffff1673ffffffffffffffffffffffffffffffffffffffff168152602001600282018054806020026020016040519081016040528092919081815260200182805480156104b357602002820191906000526020600020905b8160009054906101000a900473ffffffffffffffffffffffffffffffffffffffff1673ffffffffffffffffffffffffffffffffffffffff1681526020019060010190808311610469575b50505050508152602001600382015481526020016004820180546104d690613857565b80601f016020809104026020016040519081016040528092919081815260200182805461050290613857565b801561054f5780601f106105245761010080835404028352916020019161054f565b820191906000526020600020905b81548152906001019060200180831161053257829003601f168201915b5050505050815260200160058201805461056890613857565b80601f016020809104026020016040519081016040528092919081815260200182805461059490613857565b80156105e15780601f106105b6576101008083540402835291602001916105e1565b820191906000526020600020905b8154815290600101906020018083116105c457829003601f168201915b505050505081526020016006820160009054906101000a900460ff16151515158152602001600782015481526020016008820154815260200160098201548152602001600a82015481525050905060028260a0015111610676576040517f08c379a000000000000000000000000000000000000000000000000000000000815260040161066d906138fa565b60405180910390fd5b60008160e00151836080015161068c9190613949565b9050600081116106d1576040517f08c379a00000000000000000000000000000000000000000000000000000000081526004016106c8906139ef565b60405180910390fd5b60008260600151826106e39190613a0f565b9050600b60003373ffffffffffffffffffffffffffffffffffffffff1673ffffffffffffffffffffffffffffffffffffffff1681526020019081526020016000208581548110610736576107356137f9565b5b906000526020600020906006020160008082016000905560018201600090556002820160006101000a81549060ff02191690556003820160009055600482016000905560058201600090555050600160009054906101000a900473ffffffffffffffffffffffffffffffffffffffff1673ffffffffffffffffffffffffffffffffffffffff166323b872dd3033846040518463ffffffff1660e01b81526004016107e293929190613a51565b6020604051808303816000875af1158015610801573d6000803e3d6000fd5b505050506040513d601f19601f820116820180604052508101906108259190613ab4565b507fdc66f972de0418acb83d72185cdafd8f63206f06f26f08008effbcf11495f2fd3386866080015160405161085d93929190613ae1565b60405180910390a15050505050565b600860205280600052604060002060009150905080600001549080600101805461089590613857565b80601f01602080910402602001604051908101604052809291908181526020018280546108c190613857565b801561090e5780601f106108e35761010080835404028352916020019161090e565b820191906000526020600020905b8154815290600101906020018083116108f157829003601f168201915b50505050509080600201805461092390613857565b80601f016020809104026020016040519081016040528092919081815260200182805461094f90613857565b801561099c5780601f106109715761010080835404028352916020019161099c565b820191906000526020600020905b81548152906001019060200180831161097f57829003601f168201915b5050505050908060030180546109b190613857565b80601f01602080910402602001604051908101604052809291908181526020018280546109dd90613857565b8015610a2a5780601f106109ff57610100808354040283529160200191610a2a565b820191906000526020600020905b815481529060010190602001808311610a0d57829003601f168201915b5050505050908060040154908060050160009054906101000a900460ff1690806006018054610a5890613857565b80601f0160208091040260200160405190810160405280929190818152602001828054610a8490613857565b8015610ad15780601f10610aa657610100808354040283529160200191610ad1565b820191906000526020600020905b815481529060010190602001808311610ab457829003601f168201915b505050505090806007018054610ae690613857565b80601f0160208091040260200160405190810160405280929190818152602001828054610b1290613857565b8015610b5f5780601f10610b3457610100808354040283529160200191610b5f565b820191906000526020600020905b815481529060010190602001808311610b4257829003601f168201915b505050505090806008018054610b7490613857565b80601f0160208091040260200160405190810160405280929190818152602001828054610ba090613857565b8015610bed5780601f10610bc257610100808354040283529160200191610bed565b820191906000526020600020905b815481529060010190602001808311610bd057829003601f168201915b50505050509080600a015490508a565b6000600960003373ffffffffffffffffffffffffffffffffffffffff1673ffffffffffffffffffffffffffffffffffffffff16815260200190815260200160002060000154148015610c9157506000600860003373ffffffffffffffffffffffffffffffffffffffff1673ffffffffffffffffffffffffffffffffffffffff16815260200190815260200160002060000154145b610cd0576040517f08c379a0000000000000000000000000000000000000000000000000000000008152600401610cc7906137d9565b60405180910390fd5b600160009054906101000a900473ffffffffffffffffffffffffffffffffffffffff1673ffffffffffffffffffffffffffffffffffffffff166323b872dd33306007546040518463ffffffff1660e01b8152600401610d3193929190613a51565b6020604051808303816000875af1158015610d50573d6000803e3d6000fd5b505050506040513d601f19601f82011682018060405250810190610d749190613ab4565b506000600860003373ffffffffffffffffffffffffffffffffffffffff1673ffffffffffffffffffffffffffffffffffffffff1681526020019081526020016000206040518061016001604052908160008201548152602001600182018054610ddc90613857565b80601f0160208091040260200160405190810160405280929190818152602001828054610e0890613857565b8015610e555780601f10610e2a57610100808354040283529160200191610e55565b820191906000526020600020905b815481529060010190602001808311610e3857829003601f168201915b50505050508152602001600282018054610e6e90613857565b80601f0160208091040260200160405190810160405280929190818152602001828054610e9a90613857565b8015610ee75780601f10610ebc57610100808354040283529160200191610ee7565b820191906000526020600020905b815481529060010190602001808311610eca57829003601f168201915b50505050508152602001600382018054610f0090613857565b80601f0160208091040260200160405190810160405280929190818152602001828054610f2c90613857565b8015610f795780601f10610f4e57610100808354040283529160200191610f79565b820191906000526020600020905b815481529060010190602001808311610f5c57829003601f168201915b50505050508152602001600482015481526020016005820160009054906101000a900460ff16151515158152602001600682018054610fb790613857565b80601f0160208091040260200160405190810160405280929190818152602001828054610fe390613857565b80156110305780601f1061100557610100808354040283529160200191611030565b820191906000526020600020905b81548152906001019060200180831161101357829003601f168201915b5050505050815260200160078201805461104990613857565b80601f016020809104026020016040519081016040528092919081815260200182805461107590613857565b80156110c25780601f10611097576101008083540402835291602001916110c2565b820191906000526020600020905b8154815290600101906020018083116110a557829003601f168201915b505050505081526020016008820180546110db90613857565b80601f016020809104026020016040519081016040528092919081815260200182805461110790613857565b80156111545780601f1061112957610100808354040283529160200191611154565b820191906000526020600020905b81548152906001019060200180831161113757829003601f168201915b50505050508152602001600982018054806020026020016040519081016040528092919081815260200182805480156111ac57602002820191906000526020600020905b815481526020019060010190808311611198575b50505050508152602001600a82015481525050905060405180610160016040528060045481526020018681526020018581526020018481526020018381526020016000151581526020018260c0015181526020018260e0015181526020018261010001518152602001826101200151815260200142815250600860003373ffffffffffffffffffffffffffffffffffffffff1673ffffffffffffffffffffffffffffffffffffffff1681526020019081526020016000206000820151816000015560208201518160010190816112829190613cc4565b5060408201518160020190816112989190613cc4565b5060608201518160030190816112ae9190613cc4565b506080820151816004015560a08201518160050160006101000a81548160ff02191690831515021790555060c08201518160060190816112ee9190613cc4565b5060e08201518160070190816113049190613cc4565b5061010082015181600801908161131b9190613cc4565b50610120820151816009019080519060200190611339929190612ee7565b5061014082015181600a01559050506004600081548092919061135b90613d96565b91905055505050505050565b600a6020528060005260406000206000915090508060000154908060010160009054906101000a900473ffffffffffffffffffffffffffffffffffffffff16908060030154908060040180546113bc90613857565b80601f01602080910402602001604051908101604052809291908181526020018280546113e890613857565b80156114355780601f1061140a57610100808354040283529160200191611435565b820191906000526020600020905b81548152906001019060200180831161141857829003601f168201915b50505050509080600501805461144a90613857565b80601f016020809104026020016040519081016040528092919081815260200182805461147690613857565b80156114c35780601f10611498576101008083540402835291602001916114c3565b820191906000526020600020905b8154815290600101906020018083116114a657829003601f168201915b5050505050908060060160009054906101000a900460ff169080600701549080600801549080600901549080600a015490508a565b6000600860003373ffffffffffffffffffffffffffffffffffffffff1673ffffffffffffffffffffffffffffffffffffffff168152602001908152602001600020600001540361157d576040517f08c379a0000000000000000000000000000000000000000000000000000000008152600401611574906137d9565b60405180910390fd5b6000600a6000600654815260200190815260200160002060405180610160016040529081600082015481526020016001820160009054906101000a900473ffffffffffffffffffffffffffffffffffffffff1673ffffffffffffffffffffffffffffffffffffffff1673ffffffffffffffffffffffffffffffffffffffff1681526020016002820180548060200260200160405190810160405280929190818152602001828054801561168557602002820191906000526020600020905b8160009054906101000a900473ffffffffffffffffffffffffffffffffffffffff1673ffffffffffffffffffffffffffffffffffffffff168152602001906001019080831161163b575b50505050508152602001600382015481526020016004820180546116a890613857565b80601f01602080910402602001604051908101604052809291908181526020018280546116d490613857565b80156117215780601f106116f657610100808354040283529160200191611721565b820191906000526020600020905b81548152906001019060200180831161170457829003601f168201915b5050505050815260200160058201805461173a90613857565b80601f016020809104026020016040519081016040528092919081815260200182805461176690613857565b80156117b35780601f10611788576101008083540402835291602001916117b3565b820191906000526020600020905b81548152906001019060200180831161179657829003601f168201915b505050505081526020016006820160009054906101000a900460ff16151515158152602001600782015481526020016008820154815260200160098201548152602001600a82015481525050905060405180610160016040528060065481526020013373ffffffffffffffffffffffffffffffffffffffff16815260200182604001518152602001600081526020018481526020018581526020016000151581526020016000815260200183815260200142815260200142815250600a600060065481526020019081526020016000206000820151816000015560208201518160010160006101000a81548173ffffffffffffffffffffffffffffffffffffffff021916908373ffffffffffffffffffffffffffffffffffffffff16021790555060408201518160020190805190602001906118f0929190612f34565b506060820151816003015560808201518160040190816119109190613cc4565b5060a08201518160050190816119269190613cc4565b5060c08201518160060160006101000a81548160ff02191690831515021790555060e082015181600701556101008201518160080155610120820151816009015561014082015181600a0155905050600860003373ffffffffffffffffffffffffffffffffffffffff1673ffffffffffffffffffffffffffffffffffffffff1681526020019081526020016000206009016006549080600181540180825580915050600190039060005260206000200160009091909190915055600660008154809291906119f390613d96565b919050555050505050565b6009602052806000526040600020600091509050806000015490806001018054611a2790613857565b80601f0160208091040260200160405190810160405280929190818152602001828054611a5390613857565b8015611aa05780601f10611a7557610100808354040283529160200191611aa0565b820191906000526020600020905b815481529060010190602001808311611a8357829003601f168201915b505050505090806002018054611ab590613857565b80601f0160208091040260200160405190810160405280929190818152602001828054611ae190613857565b8015611b2e5780601f10611b0357610100808354040283529160200191611b2e565b820191906000526020600020905b815481529060010190602001808311611b1157829003601f168201915b505050505090806003018054611b4390613857565b80601f0160208091040260200160405190810160405280929190818152602001828054611b6f90613857565b8015611bbc5780601f10611b9157610100808354040283529160200191611bbc565b820191906000526020600020905b815481529060010190602001808311611b9f57829003601f168201915b505050505090806004018054611bd190613857565b80601f0160208091040260200160405190810160405280929190818152602001828054611bfd90613857565b8015611c4a5780601f10611c1f57610100808354040283529160200191611c4a565b820191906000526020600020905b815481529060010190602001808311611c2d57829003601f168201915b505050505090806005018054611c5f90613857565b80601f0160208091040260200160405190810160405280929190818152602001828054611c8b90613857565b8015611cd85780601f10611cad57610100808354040283529160200191611cd8565b820191906000526020600020905b815481529060010190602001808311611cbb57829003601f168201915b5050505050908060060154905087565b60606000600960003373ffffffffffffffffffffffffffffffffffffffff1673ffffffffffffffffffffffffffffffffffffffff1681526020019081526020016000206000015403611d6f576040517f08c379a0000000000000000000000000000000000000000000000000000000008152600401611d66906137d9565b60405180910390fd5b6000600a600084815260200190815260200160002090506000600b60003373ffffffffffffffffffffffffffffffffffffffff1673ffffffffffffffffffffffffffffffffffffffff1681526020019081526020016000208481548110611dd957611dd86137f9565b5b90600052602060002090600602019050600082600701548360030154611dff9190613e0d565b905080826003015410611eef5780826003016000828254611e209190613949565b92505081905550600160009054906101000a900473ffffffffffffffffffffffffffffffffffffffff1673ffffffffffffffffffffffffffffffffffffffff166323b872dd308560010160009054906101000a900473ffffffffffffffffffffffffffffffffffffffff16846040518463ffffffff1660e01b8152600401611eaa93929190613a51565b6020604051808303816000875af1158015611ec9573d6000803e3d6000fd5b505050506040513d601f19601f82011682018060405250810190611eed9190613ab4565b505b600083600701548360040154611f059190613e0d565b905060018110611f5a57611f193387612862565b6040518060400160405280601081526020017f636f757273655f636f6d706c6574656400000000000000000000000000000000815250945050505050611fb1565b826004016000815480929190611f6f90613d96565b91905055506040518060400160405280601381526020017f636f757273655f6e6578745f73656374696f6e000000000000000000000000008152509450505050505b919050565b6000600960003373ffffffffffffffffffffffffffffffffffffffff1673ffffffffffffffffffffffffffffffffffffffff168152602001908152602001600020600001540361203b576040517f08c379a0000000000000000000000000000000000000000000000000000000008152600401612032906137d9565b60405180910390fd5b6000600a60008381526020019081526020016000209050600160009054906101000a900473ffffffffffffffffffffffffffffffffffffffff1673ffffffffffffffffffffffffffffffffffffffff166323b872dd333084600301546040518463ffffffff1660e01b81526004016120b593929190613a51565b6020604051808303816000875af11580156120d4573d6000803e3d6000fd5b505050506040513d601f19601f820116820180604052508101906120f89190613ab4565b50600b60003373ffffffffffffffffffffffffffffffffffffffff1673ffffffffffffffffffffffffffffffffffffffff1681526020019081526020016000206040518060c001604052808481526020018481526020016001151581526020018360030154815260200160008152602001428152509080600181540180825580915050600190039060005260206000209060060201600090919091909150600082015181600001556020820151816001015560408201518160020160006101000a81548160ff021916908315150217905550606082015181600301556080820151816004015560a0820151816005015550507fba05698ffe932ba01d3d70f62a2e48d6719cc5df3bdcf9118015af495c4a39b18160010160009054906101000a900473ffffffffffffffffffffffffffffffffffffffff16338460405161224193929190613a51565b60405180910390a15050565b6000600960003373ffffffffffffffffffffffffffffffffffffffff1673ffffffffffffffffffffffffffffffffffffffff168152602001908152602001600020600001541480156122e157506000600860003373ffffffffffffffffffffffffffffffffffffffff1673ffffffffffffffffffffffffffffffffffffffff16815260200190815260200160002060000154145b612320576040517f08c379a0000000000000000000000000000000000000000000000000000000008152600401612317906137d9565b60405180910390fd5b6000600960003373ffffffffffffffffffffffffffffffffffffffff1673ffffffffffffffffffffffffffffffffffffffff168152602001908152602001600020604051806101000160405290816000820154815260200160018201805461238790613857565b80601f01602080910402602001604051908101604052809291908181526020018280546123b390613857565b80156124005780601f106123d557610100808354040283529160200191612400565b820191906000526020600020905b8154815290600101906020018083116123e357829003601f168201915b5050505050815260200160028201805461241990613857565b80601f016020809104026020016040519081016040528092919081815260200182805461244590613857565b80156124925780601f1061246757610100808354040283529160200191612492565b820191906000526020600020905b81548152906001019060200180831161247557829003601f168201915b505050505081526020016003820180546124ab90613857565b80601f01602080910402602001604051908101604052809291908181526020018280546124d790613857565b80156125245780601f106124f957610100808354040283529160200191612524565b820191906000526020600020905b81548152906001019060200180831161250757829003601f168201915b5050505050815260200160048201805461253d90613857565b80601f016020809104026020016040519081016040528092919081815260200182805461256990613857565b80156125b65780601f1061258b576101008083540402835291602001916125b6565b820191906000526020600020905b81548152906001019060200180831161259957829003601f168201915b505050505081526020016005820180546125cf90613857565b80601f01602080910402602001604051908101604052809291908181526020018280546125fb90613857565b80156126485780601f1061261d57610100808354040283529160200191612648565b820191906000526020600020905b81548152906001019060200180831161262b57829003601f168201915b5050505050815260200160068201548152602001600782018054806020026020016040519081016040528092919081815260200182805480156126aa57602002820191906000526020600020905b815481526020019060010190808311612696575b50505050508152505090506040518061010001604052806005548152602001858152602001848152602001838152602001826080015181526020018260a0015181526020014281526020018260e00151815250600960003373ffffffffffffffffffffffffffffffffffffffff1673ffffffffffffffffffffffffffffffffffffffff16815260200190815260200160002060008201518160000155602082015181600101908161275b9190613cc4565b5060408201518160020190816127719190613cc4565b5060608201518160030190816127879190613cc4565b50608082015181600401908161279d9190613cc4565b5060a08201518160050190816127b39190613cc4565b5060c0820151816006015560e08201518160070190805190602001906127da929190612ee7565b50905050600560008154809291906127f190613d96565b919050555050505050565b600b602052816000526040600020818154811061281857600080fd5b9060005260206000209060060201600091509150508060000154908060010154908060020160009054906101000a900460ff16908060030154908060040154908060050154905086565b61286c818361287a565b6128768183612bd3565b5050565b6000600a600084815260200190815260200160002060405180610160016040529081600082015481526020016001820160009054906101000a900473ffffffffffffffffffffffffffffffffffffffff1673ffffffffffffffffffffffffffffffffffffffff1673ffffffffffffffffffffffffffffffffffffffff1681526020016002820180548060200260200160405190810160405280929190818152602001828054801561298057602002820191906000526020600020905b8160009054906101000a900473ffffffffffffffffffffffffffffffffffffffff1673ffffffffffffffffffffffffffffffffffffffff1681526020019060010190808311612936575b50505050508152602001600382015481526020016004820180546129a390613857565b80601f01602080910402602001604051908101604052809291908181526020018280546129cf90613857565b8015612a1c5780601f106129f157610100808354040283529160200191612a1c565b820191906000526020600020905b8154815290600101906020018083116129ff57829003601f168201915b50505050508152602001600582018054612a3590613857565b80601f0160208091040260200160405190810160405280929190818152602001828054612a6190613857565b8015612aae5780601f10612a8357610100808354040283529160200191612aae565b820191906000526020600020905b815481529060010190602001808311612a9157829003601f168201915b505050505081526020016006820160009054906101000a900460ff16151515158152602001600782015481526020016008820154815260200160098201548152602001600a820154815250509050600081608001519050600360009054906101000a900473ffffffffffffffffffffffffffffffffffffffff1673ffffffffffffffffffffffffffffffffffffffff166304b444d984836040518363ffffffff1660e01b8152600401612b62929190613e3e565b600060405180830381600087803b158015612b7c57600080fd5b505af1158015612b90573d6000803e3d6000fd5b505050507ffec61b9ec0e29047dbeea981617649d79f187d172cfd492695a3d0bfee28883e8385604051612bc5929190613e6e565b60405180910390a150505050565b6000600a600084815260200190815260200160002060405180610160016040529081600082015481526020016001820160009054906101000a900473ffffffffffffffffffffffffffffffffffffffff1673ffffffffffffffffffffffffffffffffffffffff1673ffffffffffffffffffffffffffffffffffffffff16815260200160028201805480602002602001604051908101604052809291908181526020018280548015612cd957602002820191906000526020600020905b8160009054906101000a900473ffffffffffffffffffffffffffffffffffffffff1673ffffffffffffffffffffffffffffffffffffffff1681526020019060010190808311612c8f575b5050505050815260200160038201548152602001600482018054612cfc90613857565b80601f0160208091040260200160405190810160405280929190818152602001828054612d2890613857565b8015612d755780601f10612d4a57610100808354040283529160200191612d75565b820191906000526020600020905b815481529060010190602001808311612d5857829003601f168201915b50505050508152602001600582018054612d8e90613857565b80601f0160208091040260200160405190810160405280929190818152602001828054612dba90613857565b8015612e075780601f10612ddc57610100808354040283529160200191612e07565b820191906000526020600020905b815481529060010190602001808311612dea57829003601f168201915b505050505081526020016006820160009054906101000a900460ff16151515158152602001600782015481526020016008820154815260200160098201548152602001600a820154815250509050600260009054906101000a900473ffffffffffffffffffffffffffffffffffffffff1673ffffffffffffffffffffffffffffffffffffffff1663b510391f836040518263ffffffff1660e01b8152600401612eb09190613ece565b600060405180830381600087803b158015612eca57600080fd5b505af1158015612ede573d6000803e3d6000fd5b50505050505050565b828054828255906000526020600020908101928215612f23579160200282015b82811115612f22578251825591602001919060010190612f07565b5b509050612f309190612fbe565b5090565b828054828255906000526020600020908101928215612fad579160200282015b82811115612fac5782518260006101000a81548173ffffffffffffffffffffffffffffffffffffffff021916908373ffffffffffffffffffffffffffffffffffffffff16021790555091602001919060010190612f54565b5b509050612fba9190612fbe565b5090565b5b80821115612fd7576000816000905550600101612fbf565b5090565b6000604051905090565b600080fd5b600080fd5b6000819050919050565b61300281612fef565b811461300d57600080fd5b50565b60008135905061301f81612ff9565b92915050565b60006020828403121561303b5761303a612fe5565b5b600061304984828501613010565b91505092915050565b600073ffffffffffffffffffffffffffffffffffffffff82169050919050565b600061307d82613052565b9050919050565b61308d81613072565b811461309857600080fd5b50565b6000813590506130aa81613084565b92915050565b6000602082840312156130c6576130c5612fe5565b5b60006130d48482850161309b565b91505092915050565b6130e681612fef565b82525050565b600081519050919050565b600082825260208201905092915050565b60005b8381101561312657808201518184015260208101905061310b565b60008484015250505050565b6000601f19601f8301169050919050565b600061314e826130ec565b61315881856130f7565b9350613168818560208601613108565b61317181613132565b840191505092915050565b60008115159050919050565b6131918161317c565b82525050565b6000610140820190506131ad600083018d6130dd565b81810360208301526131bf818c613143565b905081810360408301526131d3818b613143565b905081810360608301526131e7818a613143565b90506131f660808301896130dd565b61320360a0830188613188565b81810360c08301526132158187613143565b905081810360e08301526132298186613143565b905081810361010083015261323e8185613143565b905061324e6101208301846130dd565b9b9a5050505050505050505050565b600080fd5b600080fd5b7f4e487b7100000000000000000000000000000000000000000000000000000000600052604160045260246000fd5b61329f82613132565b810181811067ffffffffffffffff821117156132be576132bd613267565b5b80604052505050565b60006132d1612fdb565b90506132dd8282613296565b919050565b600067ffffffffffffffff8211156132fd576132fc613267565b5b61330682613132565b9050602081019050919050565b82818337600083830152505050565b6000613335613330846132e2565b6132c7565b90508281526020810184848401111561335157613350613262565b5b61335c848285613313565b509392505050565b600082601f8301126133795761337861325d565b5b8135613389848260208601613322565b91505092915050565b600080600080608085870312156133ac576133ab612fe5565b5b600085013567ffffffffffffffff8111156133ca576133c9612fea565b5b6133d687828801613364565b945050602085013567ffffffffffffffff8111156133f7576133f6612fea565b5b61340387828801613364565b935050604085013567ffffffffffffffff81111561342457613423612fea565b5b61343087828801613364565b925050606061344187828801613010565b91505092959194509250565b61345681613072565b82525050565b600061014082019050613472600083018d6130dd565b61347f602083018c61344d565b61348c604083018b6130dd565b818103606083015261349e818a613143565b905081810360808301526134b28189613143565b90506134c160a0830188613188565b6134ce60c08301876130dd565b6134db60e08301866130dd565b6134e96101008301856130dd565b6134f76101208301846130dd565b9b9a5050505050505050505050565b60008060006060848603121561351f5761351e612fe5565b5b600084013567ffffffffffffffff81111561353d5761353c612fea565b5b61354986828701613364565b935050602084013567ffffffffffffffff81111561356a57613569612fea565b5b61357686828701613364565b925050604061358786828701613010565b9150509250925092565b600060e0820190506135a6600083018a6130dd565b81810360208301526135b88189613143565b905081810360408301526135cc8188613143565b905081810360608301526135e08187613143565b905081810360808301526135f48186613143565b905081810360a08301526136088185613143565b905061361760c08301846130dd565b98975050505050505050565b6000602082019050818103600083015261363d8184613143565b905092915050565b60008060006060848603121561365e5761365d612fe5565b5b600084013567ffffffffffffffff81111561367c5761367b612fea565b5b61368886828701613364565b935050602084013567ffffffffffffffff8111156136a9576136a8612fea565b5b6136b586828701613364565b925050604084013567ffffffffffffffff8111156136d6576136d5612fea565b5b6136e286828701613364565b9150509250925092565b6000806040838503121561370357613702612fe5565b5b60006137118582860161309b565b925050602061372285828601613010565b9150509250929050565b600060c08201905061374160008301896130dd565b61374e60208301886130dd565b61375b6040830187613188565b61376860608301866130dd565b61377560808301856130dd565b61378260a08301846130dd565b979650505050505050565b7f556e617574686f72697a65640000000000000000000000000000000000000000600082015250565b60006137c3600c836130f7565b91506137ce8261378d565b602082019050919050565b600060208201905081810360008301526137f2816137b6565b9050919050565b7f4e487b7100000000000000000000000000000000000000000000000000000000600052603260045260246000fd5b7f4e487b7100000000000000000000000000000000000000000000000000000000600052602260045260246000fd5b6000600282049050600182168061386f57607f821691505b60208210810361388257613881613828565b5b50919050565b7f596f752063616e27742072656a656374206120636f75727365206f766572203260008201527f207765656b732e00000000000000000000000000000000000000000000000000602082015250565b60006138e46027836130f7565b91506138ef82613888565b604082019050919050565b60006020820190508181036000830152613913816138d7565b9050919050565b7f4e487b7100000000000000000000000000000000000000000000000000000000600052601160045260246000fd5b600061395482612fef565b915061395f83612fef565b92508282039050818111156139775761397661391a565b5b92915050565b7f4e6f6e65206f662074686520636f757273652073656374696f6e73206973207260008201527f6566756e6461626c650000000000000000000000000000000000000000000000602082015250565b60006139d96029836130f7565b91506139e48261397d565b604082019050919050565b60006020820190508181036000830152613a08816139cc565b9050919050565b6000613a1a82612fef565b9150613a2583612fef565b9250828202613a3381612fef565b91508282048414831517613a4a57613a4961391a565b5b5092915050565b6000606082019050613a66600083018661344d565b613a73602083018561344d565b613a8060408301846130dd565b949350505050565b613a918161317c565b8114613a9c57600080fd5b50565b600081519050613aae81613a88565b92915050565b600060208284031215613aca57613ac9612fe5565b5b6000613ad884828501613a9f565b91505092915050565b6000606082019050613af6600083018661344d565b613b0360208301856130dd565b613b1060408301846130dd565b949350505050565b60008190508160005260206000209050919050565b60006020601f8301049050919050565b600082821b905092915050565b600060088302613b7a7fffffffffffffffffffffffffffffffffffffffffffffffffffffffffffffffff82613b3d565b613b848683613b3d565b95508019841693508086168417925050509392505050565b6000819050919050565b6000613bc1613bbc613bb784612fef565b613b9c565b612fef565b9050919050565b6000819050919050565b613bdb83613ba6565b613bef613be782613bc8565b848454613b4a565b825550505050565b600090565b613c04613bf7565b613c0f818484613bd2565b505050565b5b81811015613c3357613c28600082613bfc565b600181019050613c15565b5050565b601f821115613c7857613c4981613b18565b613c5284613b2d565b81016020851015613c61578190505b613c75613c6d85613b2d565b830182613c14565b50505b505050565b600082821c905092915050565b6000613c9b60001984600802613c7d565b1980831691505092915050565b6000613cb48383613c8a565b9150826002028217905092915050565b613ccd826130ec565b67ffffffffffffffff811115613ce657613ce5613267565b5b613cf08254613857565b613cfb828285613c37565b600060209050601f831160018114613d2e5760008415613d1c578287015190505b613d268582613ca8565b865550613d8e565b601f198416613d3c86613b18565b60005b82811015613d6457848901518255600182019150602085019450602081019050613d3f565b86831015613d815784890151613d7d601f891682613c8a565b8355505b6001600288020188555050505b505050505050565b6000613da182612fef565b91507fffffffffffffffffffffffffffffffffffffffffffffffffffffffffffffffff8203613dd357613dd261391a565b5b600182019050919050565b7f4e487b7100000000000000000000000000000000000000000000000000000000600052601260045260246000fd5b6000613e1882612fef565b9150613e2383612fef565b925082613e3357613e32613dde565b5b828204905092915050565b6000604082019050613e53600083018561344d565b8181036020830152613e658184613143565b90509392505050565b6000604082019050613e83600083018561344d565b613e9060208301846130dd565b9392505050565b600082825260208201905092915050565b50565b6000613eb8600083613e97565b9150613ec382613ea8565b600082019050919050565b6000604082019050613ee3600083018461344d565b8181036020830152613ef481613eab565b90509291505056fea264697066735822122076894ea08716e16882e28b4883774931f32d879fc492dcd84ef69a0e671de7d064736f6c63430008110033",
  "immutableReferences": {},
  "source": "// SPDX-License-Identifier: GPL-3.0\n\npragma solidity >=0.7.0 <0.9.0;\n\nimport \"./BdlToken.sol\";\nimport \"./BdlNft.sol\";\nimport \"./BdlCertificate.sol\";\n\ncontract Buidl {\n    // state variables\n    address deployer;\n\n    BdlToken bdlToken;\n    BdlNft bdlNft;\n    BdlCertificate bdlCertificate;\n\n    uint256 contractInstructorID = 1;\n    uint256 contractStudentID = 1;\n    uint256 contractCourseID = 1;\n\n    // minimum to stake for a duration of 1year\n    uint256 instructorRegistrationFee = 10000;\n\n    mapping(address => Instructor) public instructors;\n    mapping(address => Student) public students;\n    mapping(uint => Course) public courses;\n    mapping(address => StudentCourse[]) public studentCourses;\n\n    // contructor\n    constructor(\n        address _bdlToken,\n        address _bdlNft,\n        address _bdlCertificate\n    ) {\n        deployer = msg.sender;\n        bdlToken = BdlToken(_bdlToken);\n        bdlNft = BdlNft(_bdlNft);\n        bdlCertificate = BdlCertificate(_bdlCertificate);\n    }\n\n    // structs\n    struct Instructor {\n        uint id;\n        string firstName;\n        string lastName;\n        string location;\n        uint gender;\n        bool isVerified;\n        string ipfsPhoto;\n        string twitter;\n        string linkedin;\n        uint[] courses;\n        uint createdAt;\n    }\n\n    struct Course {\n        uint id;\n        address instructor;\n        address[] students; // students offering the course\n        uint256 price; // price in bdl token\n        string level; // begginer, intermediate...\n        string ipfsHash; // course metadata\n        bool isPublished;\n        uint sections; // number of course sections\n        uint category;\n        uint createdAt;\n        uint updatedAt;\n    }\n\n    struct Student {\n        uint id;\n        string name;\n        string emailAddress;\n        string gender;\n        string ipfsPhoto;\n        string country;\n        uint createdAt;\n        uint[] courses;\n    }\n\n    struct StudentCourse {\n        uint id;\n        uint courseId;\n        bool isActive; // paid or rejected\n        uint unlocked; // initially equals to price of course\n        // then sequentially unlocked to the instructor\n        uint sectionsViewed;\n        uint purchasedAt;\n    }\n\n    // ========= Administation ========= //\n\n    function setInstructorRegistrationFee(uint256 amount) public {\n        instructorRegistrationFee = amount;\n    }\n\n    // ========= Instructors =========== //\n\n    function createCourse(\n        string memory ipfsHash,\n        string memory level,\n        uint courseCategory\n    ) public onlyInstructor {\n        Course memory course = courses[contractCourseID];\n\n        // create new freah course\n        courses[contractCourseID] = Course(\n            contractCourseID,\n            msg.sender,\n            course.students,\n            0,\n            level,\n            ipfsHash,\n            false,\n            0,\n            courseCategory,\n            block.timestamp,\n            block.timestamp\n        );\n\n        // assign course ownership to intructor\n        instructors[msg.sender].courses.push(contractCourseID);\n\n        // increment id\n        contractCourseID++;\n    }\n\n    function createInstructorAccount(\n        string memory firstName,\n        string memory lastName,\n        string memory location,\n        uint gender\n    ) public notAnyone {\n        // stake instruction fee\n        bdlToken.transferFrom(\n            msg.sender,\n            address(this),\n            instructorRegistrationFee\n        );\n\n        Instructor memory instructor = instructors[msg.sender];\n\n        instructors[msg.sender] = Instructor(\n            contractInstructorID,\n            firstName,\n            lastName,\n            location,\n            gender,\n            false,\n            instructor.ipfsPhoto,\n            instructor.twitter,\n            instructor.linkedin,\n            instructor.courses,\n            block.timestamp\n        );\n\n        contractInstructorID++;\n    }\n\n    // ========= Students ========== //\n\n    function createStudentAccount(\n        string memory name,\n        string memory email,\n        string memory gender\n    ) public notAnyone {\n        Student memory student = students[msg.sender];\n\n        students[msg.sender] = Student(\n            contractStudentID,\n            name,\n            email,\n            gender,\n            student.ipfsPhoto,\n            student.country,\n            block.timestamp,\n            student.courses\n        );\n\n        contractStudentID++;\n    }\n\n    function purchaseCourse(uint courseId) public onlyStudent {\n        Course storage course = courses[courseId];\n\n        // lock the student funds to smart contract\n        bdlToken.transferFrom(msg.sender, address(this), course.price);\n\n        // create course for student\n        studentCourses[msg.sender].push(\n            StudentCourse(\n                courseId,\n                courseId,\n                true,\n                course.price,\n                0,\n                block.timestamp\n            )\n        );\n\n        emit CoursePurchased(course.instructor, msg.sender, courseId);\n    }\n\n    function rejectCourse(uint courseId) public onlyStudent {\n        StudentCourse memory studentCourse = studentCourses[msg.sender][courseId];\n\n        Course memory course = courses[courseId];\n\n        // check is course is not over 2 weeks\n        require(\n            studentCourse.purchasedAt > 2,\n            \"You can't reject a course over 2 weeks.\"\n        );\n\n        uint refundableSections = (studentCourse.sectionsViewed -\n            course.sections);\n        require(\n            refundableSections > 0,\n            \"None of the course sections is refundable\"\n        );\n\n        uint256 refundableAmount = (refundableSections * course.price);\n\n        // terminate student course\n        delete studentCourses[msg.sender][courseId];\n\n        // refund the student\n        bdlToken.transferFrom(address(this), msg.sender, refundableAmount);\n\n        emit CourseRejected(msg.sender, courseId, studentCourse.sectionsViewed);\n    }\n\n    function onNextCourseSection(uint courseId)\n        public\n        onlyStudent\n        returns (string memory)\n    {\n        Course storage course = courses[courseId];\n        StudentCourse storage studentCourse = studentCourses[msg.sender][courseId];\n\n        // students moved to another section of the course\n        // unlock part payment to the instructor (conditionally)\n        uint pricePerSection = (course.price / course.sections);\n        if (studentCourse.unlocked >= pricePerSection) {\n            studentCourse.unlocked -= pricePerSection;\n            bdlToken.transferFrom(\n                address(this),\n                course.instructor,\n                pricePerSection\n            );\n        }\n\n        // checks if students has completed the course\n        uint progress = (studentCourse.sectionsViewed / course.sections);\n\n        if (progress >= 1) {\n            onCompletedCourse(msg.sender, courseId);\n            return \"course_completed\";\n        } else {\n            studentCourse.sectionsViewed++;\n            return \"course_next_section\";\n        }\n    }\n\n    function onCompletedCourse(address student, uint courseId) private {\n        generateCerticate(courseId, student);\n        mintNftForStudent(courseId, student);\n    }\n\n    function generateCerticate(uint courseId, address student) private {\n        Course memory course = courses[courseId];\n        string memory uri = course.level;\n        // {\n        //     \"name\":\"Android Certificate\",\n        //     \"description\":\"Mastering Koitlin\",\n        //     \"image\":\"https://buidl.com/pic/xxxx.jpg\",\n        //     \"external_url\":\"https://originalsite.io/2\",\n        //     \"attributes\":[\n        //          {\n        //              \"trait_type\":\"Rarity Class\",\n        //              \"value\":\"Normal\"\n        //          },\n        //     ]\n        // }\n        bdlCertificate.issue(student, uri);\n\n        emit CertificateIssued(student, courseId);\n    }\n\n    function mintNftForStudent(uint courseId, address student) private {\n        Course memory course = courses[courseId];\n\n        bdlNft.mint(student, \"\");\n    }\n\n    modifier onlyInstructor() {\n        require(instructors[msg.sender].id != 0, \"Unauthorized\");\n        _;\n    }\n\n    modifier onlyStudent() {\n        require(students[msg.sender].id != 0, \"Unauthorized\");\n        _;\n    }\n\n    modifier onlyOwner() {\n        require(msg.sender == deployer, \"Unauthorized\");\n        _;\n    }\n\n    modifier notAnyone() {\n        require(\n            (students[msg.sender].id == 0 && instructors[msg.sender].id == 0),\n            \"Unauthorized\"\n        );\n        _;\n    }\n\n    // ========== events ========== //\n    event CourseCompletion(address student, uint courseId);\n    event CertificateIssued(address student, uint courseId);\n    event CoursePurchased(address intructor, address student, uint courseId);\n    event CourseRejected(address student, uint courseId, uint sectionsViewed);\n}\n",
  "sourcePath": "C:\\Users\\Arogundade Ibrahim\\Documents\\web3\\Buidl\\contracts\\Buidl.sol",
  "compiler": {
    "name": "solc",
    "version": "0.8.17+commit.8df45f5f.Emscripten.clang"
  },
  "schemaVersion": "3.4.10",
  "updatedAt": "2022-10-17T19:12:19.476Z",
  "networkType": "ethereum",
  "devdoc": {
    "kind": "dev",
    "methods": {},
    "version": 1
  },
  "userdoc": {
    "kind": "user",
    "methods": {},
    "version": 1
  }
}