{
  "contractName": "Buidl",
  "abi": [
    {
      "inputs": [
        {
          "internalType": "address",
          "name": "bdlToken",
          "type": "address"
        },
        {
          "internalType": "address",
          "name": "bdlNft",
          "type": "address"
        },
        {
          "internalType": "address",
          "name": "bdlCertificate",
          "type": "address"
        },
        {
          "internalType": "address",
          "name": "bdlCourse",
          "type": "address"
        },
        {
          "internalType": "address",
          "name": "staking",
          "type": "address"
        }
      ],
      "stateMutability": "nonpayable",
      "type": "constructor"
    },
    {
      "anonymous": false,
      "inputs": [
        {
          "indexed": false,
          "internalType": "address",
          "name": "owner",
          "type": "address"
        },
        {
          "indexed": false,
          "internalType": "bool",
          "name": "verified",
          "type": "bool"
        }
      ],
      "name": "Creator",
      "type": "event"
    },
    {
      "anonymous": false,
      "inputs": [
        {
          "indexed": false,
          "internalType": "address",
          "name": "owner",
          "type": "address"
        },
        {
          "indexed": false,
          "internalType": "string",
          "name": "name",
          "type": "string"
        },
        {
          "indexed": false,
          "internalType": "string",
          "name": "photo",
          "type": "string"
        },
        {
          "indexed": false,
          "internalType": "bool",
          "name": "verified",
          "type": "bool"
        }
      ],
      "name": "User",
      "type": "event"
    },
    {
      "inputs": [
        {
          "internalType": "address",
          "name": "",
          "type": "address"
        }
      ],
      "name": "revenues",
      "outputs": [
        {
          "internalType": "uint256",
          "name": "unclaimed",
          "type": "uint256"
        },
        {
          "internalType": "uint256",
          "name": "claimable",
          "type": "uint256"
        },
        {
          "internalType": "uint256",
          "name": "claimed",
          "type": "uint256"
        }
      ],
      "stateMutability": "view",
      "type": "function"
    },
    {
      "inputs": [
        {
          "internalType": "address",
          "name": "",
          "type": "address"
        }
      ],
      "name": "users",
      "outputs": [
        {
          "internalType": "uint256",
          "name": "id",
          "type": "uint256"
        },
        {
          "internalType": "bool",
          "name": "verified",
          "type": "bool"
        },
        {
          "internalType": "string",
          "name": "photo",
          "type": "string"
        },
        {
          "internalType": "uint256",
          "name": "createdAt",
          "type": "uint256"
        }
      ],
      "stateMutability": "view",
      "type": "function"
    },
    {
      "inputs": [
        {
          "internalType": "string",
          "name": "name",
          "type": "string"
        },
        {
          "internalType": "string",
          "name": "photo",
          "type": "string"
        }
      ],
      "name": "setAccount",
      "outputs": [],
      "stateMutability": "nonpayable",
      "type": "function"
    },
    {
      "inputs": [
        {
          "internalType": "uint256",
          "name": "amount",
          "type": "uint256"
        }
      ],
      "name": "stake",
      "outputs": [],
      "stateMutability": "nonpayable",
      "type": "function"
    },
    {
      "inputs": [],
      "name": "unlockCreator",
      "outputs": [],
      "stateMutability": "nonpayable",
      "type": "function"
    },
    {
      "inputs": [],
      "name": "removeCreator",
      "outputs": [],
      "stateMutability": "nonpayable",
      "type": "function"
    },
    {
      "inputs": [
        {
          "internalType": "uint256",
          "name": "id",
          "type": "uint256"
        }
      ],
      "name": "subscribe",
      "outputs": [],
      "stateMutability": "nonpayable",
      "type": "function"
    },
    {
      "inputs": [
        {
          "internalType": "uint256",
          "name": "id",
          "type": "uint256"
        }
      ],
      "name": "unSubscribe",
      "outputs": [],
      "stateMutability": "nonpayable",
      "type": "function"
    }
  ],
  "bytecode": "0x60a0604052600a600055686c6b935b8bbd400000600655600060075534801561002757600080fd5b50604051610e6a380380610e6a833981016040819052610046916100c5565b33608052600180546001600160a01b03199081166001600160a01b0396871617909155600280548216968616969096179095556003805486169385169390931790925560048054851691841691909117905560058054909316911617905561012a565b80516001600160a01b03811681146100c057600080fd5b919050565b600080600080600060a086880312156100dd57600080fd5b6100e6866100a9565b94506100f4602087016100a9565b9350610102604087016100a9565b9250610110606087016100a9565b915061011e608087016100a9565b90509295509295909350565b608051610d2861014260003960005050610d286000f3fe608060405234801561001057600080fd5b50600436106100885760003560e01c806390bf70b01161005b57806390bf70b01461010c578063a694fc3a1461011f578063a87430ba14610132578063c193b2e41461015557600080fd5b80630f574ba71461008d5780632796b030146100a257806378ae98c8146100b55780637f26fc7d14610104575b600080fd5b6100a061009b3660046109c9565b61015d565b005b6100a06100b03660046109c9565b61030a565b6100e46100c33660046109fa565b60096020526000908152604090208054600182015460029092015490919083565b604080519384526020840192909252908201526060015b60405180910390f35b6100a06104f2565b6100a061011a366004610ac1565b6105b0565b6100a061012d3660046109c9565b61060a565b6101456101403660046109fa565b610782565b6040516100fb9493929190610b6b565b6100a0610837565b600480546040517f59e6951d00000000000000000000000000000000000000000000000000000000815291820183905233602483015260009182916001600160a01b0316906359e6951d9060440160408051808303816000875af11580156101c9573d6000803e3d6000fd5b505050506040513d601f19601f820116820180604052508101906101ed9190610b9d565b6001600160a01b03811660009081526009602052604081208054939550919350849261021a908490610be3565b909155505060025460405163e1f21c6760e01b8152336004820152306024820152604481018490526001600160a01b039091169063e1f21c6790606401600060405180830381600087803b15801561027157600080fd5b505af1158015610285573d6000803e3d6000fd5b50506002546040516323b872dd60e01b8152336004820152306024820152604481018690526001600160a01b0390911692506323b872dd91506064016020604051808303816000875af11580156102e0573d6000803e3d6000fd5b505050506040513d601f19601f820116820180604052508101906103049190610bfc565b50505050565b600480546040517ff30e6e9b0000000000000000000000000000000000000000000000000000000081529182018390523360248301526000918291829182916001600160a01b03169063f30e6e9b906044016080604051808303816000875af115801561037b573d6000803e3d6000fd5b505050506040513d601f19601f8201168201806040525081019061039f9190610c1e565b60025460405163e1f21c6760e01b81523360048201523060248201526044810186905294985092965090945092506001600160a01b03169063e1f21c6790606401600060405180830381600087803b1580156103fa57600080fd5b505af115801561040e573d6000803e3d6000fd5b50506002546040516323b872dd60e01b8152336004820152306024820152604481018890526001600160a01b0390911692506323b872dd91506064016020604051808303816000875af1158015610469573d6000803e3d6000fd5b505050506040513d601f19601f8201168201806040525081019061048d9190610bfc565b506001600160a01b038216600090815260096020526040812080548392906104b6908490610c5d565b90915550506001600160a01b038216600090815260096020526040812060010180548592906104e6908490610be3565b90915550505050505050565b3360009081526008602052604090206001015460ff166105595760405162461bcd60e51b815260206004820152600b60248201527f21617574686f72697a656400000000000000000000000000000000000000000060448201526064015b60405180910390fd5b336000818152600860209081526040808320600101805460ff191690558051938452908301919091527fb5763ba23a8384e26e9f2f5bfcd8e3795e4248ce7bb99a61c9ee6488d352a5b191015b60405180910390a1565b33600081815260086020526040908190206001015490517f2d3804f6670a9e165ddef24bb7f7345753423a96b66b32c302cfefcda19ad467926105fe9290918691869160ff90911690610c70565b60405180910390a15050565b60025460405163e1f21c6760e01b8152336004820152306024820152604481018390526001600160a01b039091169063e1f21c6790606401600060405180830381600087803b15801561065c57600080fd5b505af1158015610670573d6000803e3d6000fd5b50506002546040516323b872dd60e01b8152336004820152306024820152604481018590526001600160a01b0390911692506323b872dd91506064016020604051808303816000875af11580156106cb573d6000803e3d6000fd5b505050506040513d601f19601f820116820180604052508101906106ef9190610bfc565b506005546007546040517fab84bb78000000000000000000000000000000000000000000000000000000008152336004820152602481018490526044810191909152600060648201526001600160a01b039091169063ab84bb7890608401600060405180830381600087803b15801561076757600080fd5b505af115801561077b573d6000803e3d6000fd5b5050505050565b600860205260009081526040902080546001820154600283018054929360ff909216926107ae90610cb8565b80601f01602080910402602001604051908101604052809291908181526020018280546107da90610cb8565b80156108275780601f106107fc57610100808354040283529160200191610827565b820191906000526020600020905b81548152906001019060200180831161080a57829003601f168201915b5050505050908060040154905084565b3360009081526008602052604090206001015460ff161561089a5760405162461bcd60e51b815260206004820152600b60248201527f21617574686f72697a65640000000000000000000000000000000000000000006044820152606401610550565b6005546006546040517fde36071500000000000000000000000000000000000000000000000000000000815260048101919091523360248201526001600160a01b039091169063de36071590604401602060405180830381865afa158015610906573d6000803e3d6000fd5b505050506040513d601f19601f8201168201806040525081019061092a9190610bfc565b6109765760405162461bcd60e51b815260206004820152601860248201527f217374616b655f726571756972656d656e745f666972737400000000000000006044820152606401610550565b336000818152600860209081526040918290206001908101805460ff1916821790558251938452908301527fb5763ba23a8384e26e9f2f5bfcd8e3795e4248ce7bb99a61c9ee6488d352a5b191016105a6565b6000602082840312156109db57600080fd5b5035919050565b6001600160a01b03811681146109f757600080fd5b50565b600060208284031215610a0c57600080fd5b8135610a17816109e2565b9392505050565b634e487b7160e01b600052604160045260246000fd5b600082601f830112610a4557600080fd5b813567ffffffffffffffff80821115610a6057610a60610a1e565b604051601f8301601f19908116603f01168101908282118183101715610a8857610a88610a1e565b81604052838152866020858801011115610aa157600080fd5b836020870160208301376000602085830101528094505050505092915050565b60008060408385031215610ad457600080fd5b823567ffffffffffffffff80821115610aec57600080fd5b610af886838701610a34565b93506020850135915080821115610b0e57600080fd5b50610b1b85828601610a34565b9150509250929050565b6000815180845260005b81811015610b4b57602081850181015186830182015201610b2f565b506000602082860101526020601f19601f83011685010191505092915050565b8481528315156020820152608060408201526000610b8c6080830185610b25565b905082606083015295945050505050565b60008060408385031215610bb057600080fd5b825191506020830151610bc2816109e2565b809150509250929050565b634e487b7160e01b600052601160045260246000fd5b80820180821115610bf657610bf6610bcd565b92915050565b600060208284031215610c0e57600080fd5b81518015158114610a1757600080fd5b60008060008060808587031215610c3457600080fd5b84519350602085015192506040850151610c4d816109e2565b6060959095015193969295505050565b81810381811115610bf657610bf6610bcd565b6001600160a01b0385168152608060208201526000610c926080830186610b25565b8281036040840152610ca48186610b25565b915050821515606083015295945050505050565b600181811c90821680610ccc57607f821691505b602082108103610cec57634e487b7160e01b600052602260045260246000fd5b5091905056fea2646970667358221220b83c52046fe4aff1a5c5e3c63cfe76d3c90860ac27d8d7175476905a89d36f4e64736f6c63430008100033",
  "immutableReferences": {},
  "source": "// SPDX-License-Identifier: GPL-3.0\npragma solidity >=0.7.0 <0.9.0;\n\nimport {BdlNft} from \"./BdlNft.sol\";\nimport {BdlCertificate} from \"./BdlCertificate.sol\";\nimport {Models} from \"./base/Models.sol\";\nimport {BdlToken} from \"./BdlToken.sol\";\nimport {BdlCourse} from \"./BdlCourse.sol\";\nimport {Staking} from \"./Staking.sol\";\n\ncontract Buidl {\n    address private immutable deployer;\n\n    /* fee charged on every succesful subscription made */\n    uint256 private subscriptionFee = 10; // percentage rate\n\n    BdlNft private _bdlNft; // nft reward (coupon) contract\n    BdlToken private _bdlToken; // erc20(streamable token) contract\n    BdlCertificate private _bdlCertificate; // erc4973 certificate contract\n    BdlCourse private _bdlCourse; // course contract\n    Staking private _staking; // staking contract\n\n    // creators requirement\n    // these requirement helps us to filter fuds\n    // and abuse of the ecosystem\n    uint256 private creatorStakingFee = 2000 * 10**18;\n    uint256 private creatorStakingDuration = 365 * 0;\n\n    // ecosystem users\n    mapping(address => Models.User) public users;\n    mapping(address => Models.Revenue) public revenues;\n\n    // contructor\n    constructor(\n        address bdlToken,\n        address bdlNft,\n        address bdlCertificate,\n        address bdlCourse,\n        address staking\n    ) {\n        deployer = msg.sender;\n\n        _bdlNft = BdlNft(bdlNft);\n        _bdlToken = BdlToken(bdlToken);\n        _bdlCertificate = BdlCertificate(bdlCertificate);\n        _bdlCourse = BdlCourse(bdlCourse);\n        _staking = Staking(staking);\n    }\n\n    /* creates user metadata */\n    function setAccount(string memory name, string memory photo) public {\n        emit User(msg.sender, name, photo, users[msg.sender].verified);\n    }\n\n    /* stake in the smart contract */\n    function stake(uint256 amount) public {\n        _bdlToken.approve(msg.sender, address(this), amount);\n        _bdlToken.transferFrom(msg.sender, address(this), amount);\n        _staking.stake(msg.sender, amount, creatorStakingDuration, 0);\n    }\n\n    /* unlock creator */\n    function unlockCreator() public notVerified {\n        // check if user has staked min requirement\n        require(\n            _staking.hasStaked(creatorStakingFee, msg.sender),\n            \"!stake_requirement_first\"\n        );\n\n        users[msg.sender].verified = true;\n        emit Creator(msg.sender, true);\n    }\n\n    /* remove creator */\n    function removeCreator() public onlyVerified {\n        users[msg.sender].verified = false;\n        emit Creator(msg.sender, false);\n    }\n\n    /* subscribe to a course */\n    /* params course id */\n    function subscribe(uint id) public {\n        (uint256 price, address creator) = _bdlCourse.subscribe(id, msg.sender);\n\n        /* payment are locked in the smart contract */\n        /* the course creator will be able to claim it after two weeks */\n        /* if the course wasn't refunded by the subscriber */\n\n        /* increase creator's unclaimed revenue */\n        revenues[creator].unclaimed += price;\n\n        _bdlToken.approve(msg.sender, address(this), price);\n        _bdlToken.transferFrom(msg.sender, address(this), price);\n    }\n\n    /* subscribe to a course */\n    /* params course id */\n    function unSubscribe(uint id) public {\n        (\n            uint256 payableAmount,\n            uint256 earnings,\n            address creator,\n            uint256 price\n        ) = _bdlCourse.unSubscribe(id, msg.sender);\n\n        _bdlToken.approve(msg.sender, address(this), payableAmount);\n        _bdlToken.transferFrom(msg.sender, address(this), payableAmount);\n        revenues[creator].unclaimed -= price;\n        revenues[creator].claimable += earnings;\n    }\n\n    modifier onlyVerified() {\n        /* only account that has staked atleast 2000 BDL token */\n        require(users[msg.sender].verified, \"!authorized\");\n        _;\n    }\n\n    modifier notVerified() {\n        /* only account that hasn't staked atleast 2000 BDL token */\n        require(!users[msg.sender].verified, \"!authorized\");\n        _;\n    }\n\n    // == events == //\n    event User(address owner, string name, string photo, bool verified);\n    event Creator(address owner, bool verified);\n}\n",
  "sourcePath": "C:\\Users\\Arogundade Ibrahim\\Documents\\web3\\Buidl\\contracts\\Buidl.sol",
  "compiler": {
    "name": "solc",
    "version": "0.8.16+commit.07a7930e.Emscripten.clang"
  },
  "schemaVersion": "3.4.10",
  "updatedAt": "2022-11-01T08:40:40.830Z",
  "devdoc": {
    "kind": "dev",
    "methods": {},
    "version": 1
  },
  "userdoc": {
    "kind": "user",
    "methods": {},
    "version": 1
  }
}