{
  "contractName": "Buidl",
  "abi": [
    {
      "inputs": [
        {
          "internalType": "address",
          "name": "_bdlToken",
          "type": "address"
        },
        {
          "internalType": "address",
          "name": "_bdlNft",
          "type": "address"
        },
        {
          "internalType": "address",
          "name": "_bdlCertificate",
          "type": "address"
        }
      ],
      "stateMutability": "nonpayable",
      "type": "constructor"
    },
    {
      "anonymous": false,
      "inputs": [
        {
          "indexed": false,
          "internalType": "address",
          "name": "student",
          "type": "address"
        },
        {
          "indexed": false,
          "internalType": "uint256",
          "name": "courseId",
          "type": "uint256"
        }
      ],
      "name": "CourseCompletion",
      "type": "event"
    },
    {
      "anonymous": false,
      "inputs": [
        {
          "indexed": false,
          "internalType": "address",
          "name": "intructor",
          "type": "address"
        },
        {
          "indexed": false,
          "internalType": "address",
          "name": "student",
          "type": "address"
        },
        {
          "indexed": false,
          "internalType": "uint256",
          "name": "courseId",
          "type": "uint256"
        }
      ],
      "name": "CoursePurchased",
      "type": "event"
    },
    {
      "anonymous": false,
      "inputs": [
        {
          "indexed": false,
          "internalType": "address",
          "name": "student",
          "type": "address"
        },
        {
          "indexed": false,
          "internalType": "uint256",
          "name": "courseId",
          "type": "uint256"
        },
        {
          "indexed": false,
          "internalType": "uint256",
          "name": "sectionsViewed",
          "type": "uint256"
        }
      ],
      "name": "CourseRefunded",
      "type": "event"
    },
    {
      "inputs": [
        {
          "internalType": "uint256",
          "name": "",
          "type": "uint256"
        }
      ],
      "name": "categories",
      "outputs": [
        {
          "internalType": "uint256",
          "name": "id",
          "type": "uint256"
        },
        {
          "internalType": "string",
          "name": "name",
          "type": "string"
        },
        {
          "internalType": "string",
          "name": "image",
          "type": "string"
        }
      ],
      "stateMutability": "view",
      "type": "function",
      "constant": true
    },
    {
      "inputs": [
        {
          "internalType": "uint256",
          "name": "",
          "type": "uint256"
        },
        {
          "internalType": "uint256",
          "name": "",
          "type": "uint256"
        }
      ],
      "name": "courseSections",
      "outputs": [
        {
          "internalType": "uint256",
          "name": "id",
          "type": "uint256"
        },
        {
          "internalType": "string",
          "name": "title",
          "type": "string"
        },
        {
          "internalType": "string",
          "name": "src",
          "type": "string"
        },
        {
          "internalType": "string",
          "name": "content",
          "type": "string"
        }
      ],
      "stateMutability": "view",
      "type": "function",
      "constant": true
    },
    {
      "inputs": [
        {
          "internalType": "uint256",
          "name": "",
          "type": "uint256"
        }
      ],
      "name": "courses",
      "outputs": [
        {
          "internalType": "uint256",
          "name": "id",
          "type": "uint256"
        },
        {
          "internalType": "string",
          "name": "name",
          "type": "string"
        },
        {
          "internalType": "string",
          "name": "description",
          "type": "string"
        },
        {
          "internalType": "uint256",
          "name": "categoryId",
          "type": "uint256"
        },
        {
          "internalType": "string",
          "name": "ipfsPhoto",
          "type": "string"
        },
        {
          "internalType": "address",
          "name": "instructor",
          "type": "address"
        },
        {
          "internalType": "uint256",
          "name": "price",
          "type": "uint256"
        },
        {
          "internalType": "string",
          "name": "metadata",
          "type": "string"
        },
        {
          "internalType": "bool",
          "name": "isPublished",
          "type": "bool"
        },
        {
          "internalType": "uint256",
          "name": "createdAt",
          "type": "uint256"
        },
        {
          "internalType": "uint256",
          "name": "updatedAt",
          "type": "uint256"
        }
      ],
      "stateMutability": "view",
      "type": "function",
      "constant": true
    },
    {
      "inputs": [
        {
          "internalType": "address",
          "name": "",
          "type": "address"
        }
      ],
      "name": "instructors",
      "outputs": [
        {
          "internalType": "uint256",
          "name": "id",
          "type": "uint256"
        },
        {
          "internalType": "string",
          "name": "firstName",
          "type": "string"
        },
        {
          "internalType": "string",
          "name": "lastName",
          "type": "string"
        },
        {
          "internalType": "string",
          "name": "location",
          "type": "string"
        },
        {
          "internalType": "uint256",
          "name": "gender",
          "type": "uint256"
        },
        {
          "internalType": "bool",
          "name": "isVerified",
          "type": "bool"
        },
        {
          "internalType": "string",
          "name": "ipfsPhoto",
          "type": "string"
        },
        {
          "internalType": "string",
          "name": "twitter",
          "type": "string"
        },
        {
          "internalType": "string",
          "name": "linkedin",
          "type": "string"
        },
        {
          "internalType": "uint256",
          "name": "createdAt",
          "type": "uint256"
        }
      ],
      "stateMutability": "view",
      "type": "function",
      "constant": true
    },
    {
      "inputs": [
        {
          "internalType": "address",
          "name": "",
          "type": "address"
        },
        {
          "internalType": "uint256",
          "name": "",
          "type": "uint256"
        }
      ],
      "name": "studentCourses",
      "outputs": [
        {
          "internalType": "uint256",
          "name": "courseId",
          "type": "uint256"
        },
        {
          "internalType": "uint256",
          "name": "purchasedAt",
          "type": "uint256"
        }
      ],
      "stateMutability": "view",
      "type": "function",
      "constant": true
    },
    {
      "inputs": [
        {
          "internalType": "address",
          "name": "",
          "type": "address"
        }
      ],
      "name": "students",
      "outputs": [
        {
          "internalType": "uint256",
          "name": "id",
          "type": "uint256"
        },
        {
          "internalType": "string",
          "name": "name",
          "type": "string"
        },
        {
          "internalType": "string",
          "name": "emailAddress",
          "type": "string"
        },
        {
          "internalType": "uint256",
          "name": "gender",
          "type": "uint256"
        },
        {
          "internalType": "string",
          "name": "ipfsPhoto",
          "type": "string"
        },
        {
          "internalType": "string",
          "name": "country",
          "type": "string"
        },
        {
          "internalType": "uint256",
          "name": "createdAt",
          "type": "uint256"
        }
      ],
      "stateMutability": "view",
      "type": "function",
      "constant": true
    },
    {
      "inputs": [
        {
          "internalType": "uint256",
          "name": "amount",
          "type": "uint256"
        }
      ],
      "name": "setInstructorRegistrationFee",
      "outputs": [],
      "stateMutability": "nonpayable",
      "type": "function"
    },
    {
      "inputs": [
        {
          "internalType": "string",
          "name": "name",
          "type": "string"
        },
        {
          "internalType": "string",
          "name": "image",
          "type": "string"
        }
      ],
      "name": "addCategory",
      "outputs": [],
      "stateMutability": "nonpayable",
      "type": "function"
    },
    {
      "inputs": [
        {
          "internalType": "string",
          "name": "name",
          "type": "string"
        },
        {
          "internalType": "string",
          "name": "description",
          "type": "string"
        },
        {
          "internalType": "uint256",
          "name": "categoryId",
          "type": "uint256"
        }
      ],
      "name": "createCourse",
      "outputs": [],
      "stateMutability": "nonpayable",
      "type": "function"
    },
    {
      "inputs": [
        {
          "internalType": "uint256",
          "name": "courseId",
          "type": "uint256"
        },
        {
          "internalType": "string",
          "name": "title",
          "type": "string"
        },
        {
          "internalType": "string",
          "name": "src",
          "type": "string"
        },
        {
          "internalType": "string",
          "name": "content",
          "type": "string"
        },
        {
          "internalType": "uint256",
          "name": "updateFor",
          "type": "uint256"
        }
      ],
      "name": "addSectionToCourse",
      "outputs": [],
      "stateMutability": "nonpayable",
      "type": "function"
    },
    {
      "inputs": [
        {
          "internalType": "uint256",
          "name": "courseId",
          "type": "uint256"
        },
        {
          "internalType": "uint256",
          "name": "sectionIndex",
          "type": "uint256"
        }
      ],
      "name": "deleteCourseSection",
      "outputs": [],
      "stateMutability": "nonpayable",
      "type": "function"
    },
    {
      "inputs": [
        {
          "internalType": "address",
          "name": "instructor",
          "type": "address"
        }
      ],
      "name": "getInstructorCoursesLength",
      "outputs": [
        {
          "internalType": "uint256",
          "name": "",
          "type": "uint256"
        }
      ],
      "stateMutability": "view",
      "type": "function",
      "constant": true
    },
    {
      "inputs": [
        {
          "internalType": "address",
          "name": "instructor",
          "type": "address"
        },
        {
          "internalType": "uint256",
          "name": "index",
          "type": "uint256"
        }
      ],
      "name": "getInstructorCourseIdAtIndex",
      "outputs": [
        {
          "internalType": "uint256",
          "name": "",
          "type": "uint256"
        }
      ],
      "stateMutability": "view",
      "type": "function",
      "constant": true
    },
    {
      "inputs": [
        {
          "internalType": "string",
          "name": "firstName",
          "type": "string"
        },
        {
          "internalType": "string",
          "name": "lastName",
          "type": "string"
        },
        {
          "internalType": "string",
          "name": "location",
          "type": "string"
        },
        {
          "internalType": "uint256",
          "name": "gender",
          "type": "uint256"
        }
      ],
      "name": "createInstructorAccount",
      "outputs": [],
      "stateMutability": "nonpayable",
      "type": "function"
    },
    {
      "inputs": [
        {
          "internalType": "string",
          "name": "name",
          "type": "string"
        },
        {
          "internalType": "string",
          "name": "email",
          "type": "string"
        },
        {
          "internalType": "uint256",
          "name": "gender",
          "type": "uint256"
        }
      ],
      "name": "createStudentAccount",
      "outputs": [],
      "stateMutability": "nonpayable",
      "type": "function"
    },
    {
      "inputs": [
        {
          "internalType": "uint256",
          "name": "courseId",
          "type": "uint256"
        }
      ],
      "name": "purchaseCourse",
      "outputs": [],
      "stateMutability": "nonpayable",
      "type": "function"
    },
    {
      "inputs": [
        {
          "internalType": "uint256",
          "name": "courseId",
          "type": "uint256"
        },
        {
          "internalType": "uint256",
          "name": "sections",
          "type": "uint256"
        },
        {
          "internalType": "uint256",
          "name": "sectionsViewed",
          "type": "uint256"
        }
      ],
      "name": "rejectCourse",
      "outputs": [],
      "stateMutability": "nonpayable",
      "type": "function"
    },
    {
      "inputs": [
        {
          "internalType": "uint256",
          "name": "courseId",
          "type": "uint256"
        },
        {
          "internalType": "string",
          "name": "certificateUri",
          "type": "string"
        },
        {
          "internalType": "string",
          "name": "nftUri",
          "type": "string"
        }
      ],
      "name": "onCompletedCourse",
      "outputs": [],
      "stateMutability": "nonpayable",
      "type": "function"
    },
    {
      "inputs": [],
      "name": "faucetMint",
      "outputs": [],
      "stateMutability": "nonpayable",
      "type": "function"
    }
  ],
  "bytecode": "0x60806040526001600455600160055560016006556001600755686c6b935b8bbd4000006008553480156200003257600080fd5b5060405162005f3138038062005f3183398181016040528101906200005891906200072e565b336000806101000a81548173ffffffffffffffffffffffffffffffffffffffff021916908373ffffffffffffffffffffffffffffffffffffffff16021790555082600160006101000a81548173ffffffffffffffffffffffffffffffffffffffff021916908373ffffffffffffffffffffffffffffffffffffffff16021790555081600260006101000a81548173ffffffffffffffffffffffffffffffffffffffff021916908373ffffffffffffffffffffffffffffffffffffffff16021790555080600360006101000a81548173ffffffffffffffffffffffffffffffffffffffff021916908373ffffffffffffffffffffffffffffffffffffffff1602179055506200016b6200017460201b60201c565b50505062000bea565b620001d46040518060400160405280600f81526020017f57656220446576656c6f706d656e74000000000000000000000000000000000081525060405180606001604052806027815260200162005ec560279139620005a660201b60201c565b620002506040518060400160405280600781526020017f436f6f6b696e67000000000000000000000000000000000000000000000000008152506040518060400160405280601f81526020017f2f696d616765732f63617465676f726965732f636f6f6b696e672e7765627000815250620005a660201b60201c565b620002cc6040518060400160405280600f81526020017f55492f55582044657369676e696e6700000000000000000000000000000000008152506040518060400160405280601d81526020017f2f696d616765732f63617465676f726965732f75692d75782e77656270000000815250620005a660201b60201c565b6200032c6040518060400160405280600c81526020017f334420416e696d6174696f6e000000000000000000000000000000000000000081525060405180606001604052806021815260200162005e8160219139620005a660201b60201c565b6200038c6040518060400160405280600c81526020017f496c6c757374726174696f6e000000000000000000000000000000000000000081525060405180606001604052806024815260200162005e5d60249139620005a660201b60201c565b620003ec6040518060400160405280600c81526020017f4461746120536369656e6365000000000000000000000000000000000000000081525060405180606001604052806024815260200162005eec60249139620005a660201b60201c565b620004686040518060400160405280600881526020017f537065616b696e670000000000000000000000000000000000000000000000008152506040518060400160405280602081526020017f2f696d616765732f63617465676f726965732f737065616b696e672e77656270815250620005a660201b60201c565b620004e46040518060400160405280600581526020017f4d757369630000000000000000000000000000000000000000000000000000008152506040518060400160405280601d81526020017f2f696d616765732f63617465676f726965732f6d757369632e77656270000000815250620005a660201b60201c565b620005446040518060400160405280600b81526020017f50686f746f67726170687900000000000000000000000000000000000000000081525060405180606001604052806023815260200162005ea260239139620005a660201b60201c565b620005a46040518060400160405280600981526020017f4d61726b6574696e67000000000000000000000000000000000000000000000081525060405180606001604052806021815260200162005f1060219139620005a660201b60201c565b565b60008054906101000a900473ffffffffffffffffffffffffffffffffffffffff1673ffffffffffffffffffffffffffffffffffffffff163373ffffffffffffffffffffffffffffffffffffffff161462000637576040517f08c379a00000000000000000000000000000000000000000000000000000000081526004016200062e90620007eb565b60405180910390fd5b60405180606001604052806007548152602001838152602001828152506009600060075481526020019081526020016000206000820151816000015560208201518160010190816200068a919062000a87565b506040820151816002019081620006a2919062000a87565b5090505060076000815480929190620006bb9062000b9d565b91905055505050565b600080fd5b600073ffffffffffffffffffffffffffffffffffffffff82169050919050565b6000620006f682620006c9565b9050919050565b6200070881620006e9565b81146200071457600080fd5b50565b6000815190506200072881620006fd565b92915050565b6000806000606084860312156200074a5762000749620006c4565b5b60006200075a8682870162000717565b93505060206200076d8682870162000717565b9250506040620007808682870162000717565b9150509250925092565b600082825260208201905092915050565b7f21617574686f72697a6564000000000000000000000000000000000000000000600082015250565b6000620007d3600b836200078a565b9150620007e0826200079b565b602082019050919050565b600060208201905081810360008301526200080681620007c4565b9050919050565b600081519050919050565b7f4e487b7100000000000000000000000000000000000000000000000000000000600052604160045260246000fd5b7f4e487b7100000000000000000000000000000000000000000000000000000000600052602260045260246000fd5b600060028204905060018216806200088f57607f821691505b602082108103620008a557620008a462000847565b5b50919050565b60008190508160005260206000209050919050565b60006020601f8301049050919050565b600082821b905092915050565b6000600883026200090f7fffffffffffffffffffffffffffffffffffffffffffffffffffffffffffffffff82620008d0565b6200091b8683620008d0565b95508019841693508086168417925050509392505050565b6000819050919050565b6000819050919050565b600062000968620009626200095c8462000933565b6200093d565b62000933565b9050919050565b6000819050919050565b620009848362000947565b6200099c62000993826200096f565b848454620008dd565b825550505050565b600090565b620009b3620009a4565b620009c081848462000979565b505050565b5b81811015620009e857620009dc600082620009a9565b600181019050620009c6565b5050565b601f82111562000a375762000a0181620008ab565b62000a0c84620008c0565b8101602085101562000a1c578190505b62000a3462000a2b85620008c0565b830182620009c5565b50505b505050565b600082821c905092915050565b600062000a5c6000198460080262000a3c565b1980831691505092915050565b600062000a77838362000a49565b9150826002028217905092915050565b62000a92826200080d565b67ffffffffffffffff81111562000aae5762000aad62000818565b5b62000aba825462000876565b62000ac7828285620009ec565b600060209050601f83116001811462000aff576000841562000aea578287015190505b62000af6858262000a69565b86555062000b66565b601f19841662000b0f86620008ab565b60005b8281101562000b395784890151825560018201915060208501945060208101905062000b12565b8683101562000b59578489015162000b55601f89168262000a49565b8355505b6001600288020188555050505b505050505050565b7f4e487b7100000000000000000000000000000000000000000000000000000000600052601160045260246000fd5b600062000baa8262000933565b91507fffffffffffffffffffffffffffffffffffffffffffffffffffffffffffffffff820362000bdf5762000bde62000b6e565b5b600182019050919050565b6152638062000bfa6000396000f3fe608060405234801561001057600080fd5b50600436106101215760003560e01c806396f979d2116100ad578063cd13193811610071578063cd13193814610332578063d031a8341461034e578063e4bcf87d1461037e578063eaa1612f1461039a578063fd95cc51146103b657610121565b806396f979d214610258578063a4adb24b14610292578063a6c807a9146102ae578063b0f8158c146102e4578063c6cdbe5e1461030057610121565b806313eda8fc116100f457806313eda8fc146101ad57806318222d5e146101b75780631bf703b2146101e75780632a47d91c146102035780635a6373841461023c57610121565b80630226b0b214610126578063097167ba146101595780630da079b4146101755780630f77df9114610191575b600080fd5b610140600480360381019061013b91906141a1565b6103e7565b6040516101509493929190614280565b60405180910390f35b610173600480360381019061016e91906142da565b6105cc565b005b61018f600480360381019061018a919061443c565b610664565b005b6101ab60048036038101906101a691906144c7565b610b7f565b005b6101b5610d80565b005b6101d160048036038101906101cc91906145b0565b610e0f565b6040516101de91906145f0565b60405180910390f35b61020160048036038101906101fc919061460b565b610e78565b005b61021d60048036038101906102189190614683565b610f8d565b6040516102339a999897969594939291906146cb565b60405180910390f35b61025660048036038101906102519190614791565b61131e565b005b610272600480360381019061026d91906142da565b611b2d565b6040516102899b9a9998979695949392919061485b565b60405180910390f35b6102ac60048036038101906102a7919061443c565b611dd4565b005b6102c860048036038101906102c39190614683565b6124a5565b6040516102db9796959493929190614922565b60405180910390f35b6102fe60048036038101906102f991906141a1565b612707565b005b61031a600480360381019061031591906142da565b612d25565b604051610329939291906149ad565b60405180910390f35b61034c600480360381019061034791906142da565b612e5f565b005b61036860048036038101906103639190614683565b613186565b60405161037591906145f0565b60405180910390f35b610398600480360381019061039391906149f2565b6131d5565b005b6103b460048036038101906103af9190614ac1565b61388d565b005b6103d060048036038101906103cb91906145b0565b613fe2565b6040516103de929190614b14565b60405180910390f35b600e602052816000526040600020818154811061040357600080fd5b90600052602060002090600402016000915091505080600001549080600101805461042d90614b6c565b80601f016020809104026020016040519081016040528092919081815260200182805461045990614b6c565b80156104a65780601f1061047b576101008083540402835291602001916104a6565b820191906000526020600020905b81548152906001019060200180831161048957829003601f168201915b5050505050908060020180546104bb90614b6c565b80601f01602080910402602001604051908101604052809291908181526020018280546104e790614b6c565b80156105345780601f1061050957610100808354040283529160200191610534565b820191906000526020600020905b81548152906001019060200180831161051757829003601f168201915b50505050509080600301805461054990614b6c565b80601f016020809104026020016040519081016040528092919081815260200182805461057590614b6c565b80156105c25780601f10610597576101008083540402835291602001916105c2565b820191906000526020600020905b8154815290600101906020018083116105a557829003601f168201915b5050505050905084565b60008054906101000a900473ffffffffffffffffffffffffffffffffffffffff1673ffffffffffffffffffffffffffffffffffffffff163373ffffffffffffffffffffffffffffffffffffffff161461065a576040517f08c379a000000000000000000000000000000000000000000000000000000000815260040161065190614be9565b60405180910390fd5b8060088190555050565b6000600b60003373ffffffffffffffffffffffffffffffffffffffff1673ffffffffffffffffffffffffffffffffffffffff168152602001908152602001600020600001541480156106f857506000600a60003373ffffffffffffffffffffffffffffffffffffffff1673ffffffffffffffffffffffffffffffffffffffff16815260200190815260200160002060000154145b610737576040517f08c379a000000000000000000000000000000000000000000000000000000000815260040161072e90614be9565b60405180910390fd5b6000600b60003373ffffffffffffffffffffffffffffffffffffffff1673ffffffffffffffffffffffffffffffffffffffff168152602001908152602001600020604051806101000160405290816000820154815260200160018201805461079e90614b6c565b80601f01602080910402602001604051908101604052809291908181526020018280546107ca90614b6c565b80156108175780601f106107ec57610100808354040283529160200191610817565b820191906000526020600020905b8154815290600101906020018083116107fa57829003601f168201915b5050505050815260200160028201805461083090614b6c565b80601f016020809104026020016040519081016040528092919081815260200182805461085c90614b6c565b80156108a95780601f1061087e576101008083540402835291602001916108a9565b820191906000526020600020905b81548152906001019060200180831161088c57829003601f168201915b50505050508152602001600382015481526020016004820180546108cc90614b6c565b80601f01602080910402602001604051908101604052809291908181526020018280546108f890614b6c565b80156109455780601f1061091a57610100808354040283529160200191610945565b820191906000526020600020905b81548152906001019060200180831161092857829003601f168201915b5050505050815260200160058201805461095e90614b6c565b80601f016020809104026020016040519081016040528092919081815260200182805461098a90614b6c565b80156109d75780601f106109ac576101008083540402835291602001916109d7565b820191906000526020600020905b8154815290600101906020018083116109ba57829003601f168201915b505050505081526020016006820154815260200160078201805480602002602001604051908101604052809291908181526020018280548015610a3957602002820191906000526020600020905b815481526020019060010190808311610a25575b50505050508152505090506040518061010001604052806005548152602001858152602001848152602001838152602001826080015181526020018260a0015181526020014281526020018260e00151815250600b60003373ffffffffffffffffffffffffffffffffffffffff1673ffffffffffffffffffffffffffffffffffffffff168152602001908152602001600020600082015181600001556020820151816001019081610aea9190614db5565b506040820151816002019081610b009190614db5565b50606082015181600301556080820151816004019081610b209190614db5565b5060a0820151816005019081610b369190614db5565b5060c0820151816006015560e0820151816007019080519060200190610b5d929190614023565b5090505060056000815480929190610b7490614eb6565b919050555050505050565b6000600b60003373ffffffffffffffffffffffffffffffffffffffff1673ffffffffffffffffffffffffffffffffffffffff1681526020019081526020016000206000015403610c04576040517f08c379a0000000000000000000000000000000000000000000000000000000008152600401610bfb90614be9565b60405180910390fd5b6000600c60008581526020019081526020016000206000015403610c5d576040517f08c379a0000000000000000000000000000000000000000000000000000000008152600401610c5490614f4a565b60405180910390fd5b600360009054906101000a900473ffffffffffffffffffffffffffffffffffffffff1673ffffffffffffffffffffffffffffffffffffffff166304b444d933846040518363ffffffff1660e01b8152600401610cba929190614f6a565b600060405180830381600087803b158015610cd457600080fd5b505af1158015610ce8573d6000803e3d6000fd5b50505050600260009054906101000a900473ffffffffffffffffffffffffffffffffffffffff1673ffffffffffffffffffffffffffffffffffffffff1663d0def52133836040518363ffffffff1660e01b8152600401610d49929190614f6a565b600060405180830381600087803b158015610d6357600080fd5b505af1158015610d77573d6000803e3d6000fd5b50505050505050565b600160009054906101000a900473ffffffffffffffffffffffffffffffffffffffff1673ffffffffffffffffffffffffffffffffffffffff16636a627842336040518263ffffffff1660e01b8152600401610ddb9190614f9a565b600060405180830381600087803b158015610df557600080fd5b505af1158015610e09573d6000803e3d6000fd5b50505050565b6000600a60008473ffffffffffffffffffffffffffffffffffffffff1673ffffffffffffffffffffffffffffffffffffffff1681526020019081526020016000206009018281548110610e6557610e64614fb5565b5b9060005260206000200154905092915050565b60008054906101000a900473ffffffffffffffffffffffffffffffffffffffff1673ffffffffffffffffffffffffffffffffffffffff163373ffffffffffffffffffffffffffffffffffffffff1614610f06576040517f08c379a0000000000000000000000000000000000000000000000000000000008152600401610efd90614be9565b60405180910390fd5b6040518060600160405280600754815260200183815260200182815250600960006007548152602001908152602001600020600082015181600001556020820151816001019081610f579190614db5565b506040820151816002019081610f6d9190614db5565b5090505060076000815480929190610f8490614eb6565b91905055505050565b600a602052806000526040600020600091509050806000015490806001018054610fb690614b6c565b80601f0160208091040260200160405190810160405280929190818152602001828054610fe290614b6c565b801561102f5780601f106110045761010080835404028352916020019161102f565b820191906000526020600020905b81548152906001019060200180831161101257829003601f168201915b50505050509080600201805461104490614b6c565b80601f016020809104026020016040519081016040528092919081815260200182805461107090614b6c565b80156110bd5780601f10611092576101008083540402835291602001916110bd565b820191906000526020600020905b8154815290600101906020018083116110a057829003601f168201915b5050505050908060030180546110d290614b6c565b80601f01602080910402602001604051908101604052809291908181526020018280546110fe90614b6c565b801561114b5780601f106111205761010080835404028352916020019161114b565b820191906000526020600020905b81548152906001019060200180831161112e57829003601f168201915b5050505050908060040154908060050160009054906101000a900460ff169080600601805461117990614b6c565b80601f01602080910402602001604051908101604052809291908181526020018280546111a590614b6c565b80156111f25780601f106111c7576101008083540402835291602001916111f2565b820191906000526020600020905b8154815290600101906020018083116111d557829003601f168201915b50505050509080600701805461120790614b6c565b80601f016020809104026020016040519081016040528092919081815260200182805461123390614b6c565b80156112805780601f1061125557610100808354040283529160200191611280565b820191906000526020600020905b81548152906001019060200180831161126357829003601f168201915b50505050509080600801805461129590614b6c565b80601f01602080910402602001604051908101604052809291908181526020018280546112c190614b6c565b801561130e5780601f106112e35761010080835404028352916020019161130e565b820191906000526020600020905b8154815290600101906020018083116112f157829003601f168201915b50505050509080600a015490508a565b6000600b60003373ffffffffffffffffffffffffffffffffffffffff1673ffffffffffffffffffffffffffffffffffffffff168152602001908152602001600020600001541480156113b257506000600a60003373ffffffffffffffffffffffffffffffffffffffff1673ffffffffffffffffffffffffffffffffffffffff16815260200190815260200160002060000154145b6113f1576040517f08c379a00000000000000000000000000000000000000000000000000000000081526004016113e890614be9565b60405180910390fd5b600160009054906101000a900473ffffffffffffffffffffffffffffffffffffffff1673ffffffffffffffffffffffffffffffffffffffff16636c43a2ca33306008546040518463ffffffff1660e01b815260040161145293929190614fe4565b6020604051808303816000875af1158015611471573d6000803e3d6000fd5b505050506040513d601f19601f820116820180604052508101906114959190615047565b50600160009054906101000a900473ffffffffffffffffffffffffffffffffffffffff1673ffffffffffffffffffffffffffffffffffffffff166323b872dd33306008546040518463ffffffff1660e01b81526004016114f793929190614fe4565b6020604051808303816000875af1158015611516573d6000803e3d6000fd5b505050506040513d601f19601f8201168201806040525081019061153a9190615047565b506000600a60003373ffffffffffffffffffffffffffffffffffffffff1673ffffffffffffffffffffffffffffffffffffffff16815260200190815260200160002060405180610160016040529081600082015481526020016001820180546115a290614b6c565b80601f01602080910402602001604051908101604052809291908181526020018280546115ce90614b6c565b801561161b5780601f106115f05761010080835404028352916020019161161b565b820191906000526020600020905b8154815290600101906020018083116115fe57829003601f168201915b5050505050815260200160028201805461163490614b6c565b80601f016020809104026020016040519081016040528092919081815260200182805461166090614b6c565b80156116ad5780601f10611682576101008083540402835291602001916116ad565b820191906000526020600020905b81548152906001019060200180831161169057829003601f168201915b505050505081526020016003820180546116c690614b6c565b80601f01602080910402602001604051908101604052809291908181526020018280546116f290614b6c565b801561173f5780601f106117145761010080835404028352916020019161173f565b820191906000526020600020905b81548152906001019060200180831161172257829003601f168201915b50505050508152602001600482015481526020016005820160009054906101000a900460ff1615151515815260200160068201805461177d90614b6c565b80601f01602080910402602001604051908101604052809291908181526020018280546117a990614b6c565b80156117f65780601f106117cb576101008083540402835291602001916117f6565b820191906000526020600020905b8154815290600101906020018083116117d957829003601f168201915b5050505050815260200160078201805461180f90614b6c565b80601f016020809104026020016040519081016040528092919081815260200182805461183b90614b6c565b80156118885780601f1061185d57610100808354040283529160200191611888565b820191906000526020600020905b81548152906001019060200180831161186b57829003601f168201915b505050505081526020016008820180546118a190614b6c565b80601f01602080910402602001604051908101604052809291908181526020018280546118cd90614b6c565b801561191a5780601f106118ef5761010080835404028352916020019161191a565b820191906000526020600020905b8154815290600101906020018083116118fd57829003601f168201915b505050505081526020016009820180548060200260200160405190810160405280929190818152602001828054801561197257602002820191906000526020600020905b81548152602001906001019080831161195e575b50505050508152602001600a82015481525050905060405180610160016040528060045481526020018681526020018581526020018481526020018381526020016000151581526020018260c0015181526020018260e0015181526020018261010001518152602001826101200151815260200142815250600a60003373ffffffffffffffffffffffffffffffffffffffff1673ffffffffffffffffffffffffffffffffffffffff168152602001908152602001600020600082015181600001556020820151816001019081611a489190614db5565b506040820151816002019081611a5e9190614db5565b506060820151816003019081611a749190614db5565b506080820151816004015560a08201518160050160006101000a81548160ff02191690831515021790555060c0820151816006019081611ab49190614db5565b5060e0820151816007019081611aca9190614db5565b50610100820151816008019081611ae19190614db5565b50610120820151816009019080519060200190611aff929190614023565b5061014082015181600a015590505060046000815480929190611b2190614eb6565b91905055505050505050565b600c602052806000526040600020600091509050806000015490806001018054611b5690614b6c565b80601f0160208091040260200160405190810160405280929190818152602001828054611b8290614b6c565b8015611bcf5780601f10611ba457610100808354040283529160200191611bcf565b820191906000526020600020905b815481529060010190602001808311611bb257829003601f168201915b505050505090806002018054611be490614b6c565b80601f0160208091040260200160405190810160405280929190818152602001828054611c1090614b6c565b8015611c5d5780601f10611c3257610100808354040283529160200191611c5d565b820191906000526020600020905b815481529060010190602001808311611c4057829003601f168201915b505050505090806003015490806004018054611c7890614b6c565b80601f0160208091040260200160405190810160405280929190818152602001828054611ca490614b6c565b8015611cf15780601f10611cc657610100808354040283529160200191611cf1565b820191906000526020600020905b815481529060010190602001808311611cd457829003601f168201915b5050505050908060050160009054906101000a900473ffffffffffffffffffffffffffffffffffffffff1690806008015490806009018054611d3290614b6c565b80601f0160208091040260200160405190810160405280929190818152602001828054611d5e90614b6c565b8015611dab5780601f10611d8057610100808354040283529160200191611dab565b820191906000526020600020905b815481529060010190602001808311611d8e57829003601f168201915b50505050509080600a0160009054906101000a900460ff169080600b01549080600c015490508b565b6000600a60003373ffffffffffffffffffffffffffffffffffffffff1673ffffffffffffffffffffffffffffffffffffffff1681526020019081526020016000206000015403611e59576040517f08c379a0000000000000000000000000000000000000000000000000000000008152600401611e5090614be9565b60405180910390fd5b6000600c60006006548152602001908152602001600020604051806101a001604052908160008201548152602001600182018054611e9690614b6c565b80601f0160208091040260200160405190810160405280929190818152602001828054611ec290614b6c565b8015611f0f5780601f10611ee457610100808354040283529160200191611f0f565b820191906000526020600020905b815481529060010190602001808311611ef257829003601f168201915b50505050508152602001600282018054611f2890614b6c565b80601f0160208091040260200160405190810160405280929190818152602001828054611f5490614b6c565b8015611fa15780601f10611f7657610100808354040283529160200191611fa1565b820191906000526020600020905b815481529060010190602001808311611f8457829003601f168201915b5050505050815260200160038201548152602001600482018054611fc490614b6c565b80601f0160208091040260200160405190810160405280929190818152602001828054611ff090614b6c565b801561203d5780601f106120125761010080835404028352916020019161203d565b820191906000526020600020905b81548152906001019060200180831161202057829003601f168201915b505050505081526020016005820160009054906101000a900473ffffffffffffffffffffffffffffffffffffffff1673ffffffffffffffffffffffffffffffffffffffff1673ffffffffffffffffffffffffffffffffffffffff1681526020016006820180548060200260200160405190810160405280929190818152602001828054801561212157602002820191906000526020600020905b8160009054906101000a900473ffffffffffffffffffffffffffffffffffffffff1673ffffffffffffffffffffffffffffffffffffffff16815260200190600101908083116120d7575b505050505081526020016007820180548060200260200160405190810160405280929190818152602001828054801561217957602002820191906000526020600020905b815481526020019060010190808311612165575b505050505081526020016008820154815260200160098201805461219c90614b6c565b80601f01602080910402602001604051908101604052809291908181526020018280546121c890614b6c565b80156122155780601f106121ea57610100808354040283529160200191612215565b820191906000526020600020905b8154815290600101906020018083116121f857829003601f168201915b50505050508152602001600a820160009054906101000a900460ff16151515158152602001600b8201548152602001600c820154815250509050604051806101a001604052806006548152602001858152602001848152602001838152602001826080015181526020013373ffffffffffffffffffffffffffffffffffffffff1681526020018260c0015181526020018260e00151815260200160008152602001826101200151815260200160001515815260200142815260200142815250600c600060065481526020019081526020016000206000820151816000015560208201518160010190816123089190614db5565b50604082015181600201908161231e9190614db5565b5060608201518160030155608082015181600401908161233e9190614db5565b5060a08201518160050160006101000a81548173ffffffffffffffffffffffffffffffffffffffff021916908373ffffffffffffffffffffffffffffffffffffffff16021790555060c08201518160060190805190602001906123a2929190614070565b5060e08201518160070190805190602001906123bf929190614023565b5061010082015181600801556101208201518160090190816123e19190614db5565b5061014082015181600a0160006101000a81548160ff02191690831515021790555061016082015181600b015561018082015181600c0155905050600a60003373ffffffffffffffffffffffffffffffffffffffff1673ffffffffffffffffffffffffffffffffffffffff16815260200190815260200160002060090160065490806001815401808255809150506001900390600052602060002001600090919091909150556006600081548092919061249a90614eb6565b919050555050505050565b600b6020528060005260406000206000915090508060000154908060010180546124ce90614b6c565b80601f01602080910402602001604051908101604052809291908181526020018280546124fa90614b6c565b80156125475780601f1061251c57610100808354040283529160200191612547565b820191906000526020600020905b81548152906001019060200180831161252a57829003601f168201915b50505050509080600201805461255c90614b6c565b80601f016020809104026020016040519081016040528092919081815260200182805461258890614b6c565b80156125d55780601f106125aa576101008083540402835291602001916125d5565b820191906000526020600020905b8154815290600101906020018083116125b857829003601f168201915b5050505050908060030154908060040180546125f090614b6c565b80601f016020809104026020016040519081016040528092919081815260200182805461261c90614b6c565b80156126695780601f1061263e57610100808354040283529160200191612669565b820191906000526020600020905b81548152906001019060200180831161264c57829003601f168201915b50505050509080600501805461267e90614b6c565b80601f01602080910402602001604051908101604052809291908181526020018280546126aa90614b6c565b80156126f75780601f106126cc576101008083540402835291602001916126f7565b820191906000526020600020905b8154815290600101906020018083116126da57829003601f168201915b5050505050908060060154905087565b6000600a60003373ffffffffffffffffffffffffffffffffffffffff1673ffffffffffffffffffffffffffffffffffffffff168152602001908152602001600020600001540361278c576040517f08c379a000000000000000000000000000000000000000000000000000000000815260040161278390614be9565b60405180910390fd5b6000600c6000848152602001908152602001600020604051806101a0016040529081600082015481526020016001820180546127c790614b6c565b80601f01602080910402602001604051908101604052809291908181526020018280546127f390614b6c565b80156128405780601f1061281557610100808354040283529160200191612840565b820191906000526020600020905b81548152906001019060200180831161282357829003601f168201915b5050505050815260200160028201805461285990614b6c565b80601f016020809104026020016040519081016040528092919081815260200182805461288590614b6c565b80156128d25780601f106128a7576101008083540402835291602001916128d2565b820191906000526020600020905b8154815290600101906020018083116128b557829003601f168201915b50505050508152602001600382015481526020016004820180546128f590614b6c565b80601f016020809104026020016040519081016040528092919081815260200182805461292190614b6c565b801561296e5780601f106129435761010080835404028352916020019161296e565b820191906000526020600020905b81548152906001019060200180831161295157829003601f168201915b505050505081526020016005820160009054906101000a900473ffffffffffffffffffffffffffffffffffffffff1673ffffffffffffffffffffffffffffffffffffffff1673ffffffffffffffffffffffffffffffffffffffff16815260200160068201805480602002602001604051908101604052809291908181526020018280548015612a5257602002820191906000526020600020905b8160009054906101000a900473ffffffffffffffffffffffffffffffffffffffff1673ffffffffffffffffffffffffffffffffffffffff1681526020019060010190808311612a08575b5050505050815260200160078201805480602002602001604051908101604052809291908181526020018280548015612aaa57602002820191906000526020600020905b815481526020019060010190808311612a96575b5050505050815260200160088201548152602001600982018054612acd90614b6c565b80601f0160208091040260200160405190810160405280929190818152602001828054612af990614b6c565b8015612b465780601f10612b1b57610100808354040283529160200191612b46565b820191906000526020600020905b815481529060010190602001808311612b2957829003601f168201915b50505050508152602001600a820160009054906101000a900460ff16151515158152602001600b8201548152602001600c8201548152505090506000816000015103612bc7576040517f08c379a0000000000000000000000000000000000000000000000000000000008152600401612bbe90614f4a565b60405180910390fd5b3373ffffffffffffffffffffffffffffffffffffffff168160a0015173ffffffffffffffffffffffffffffffffffffffff1614612c39576040517f08c379a0000000000000000000000000000000000000000000000000000000008152600401612c3090614be9565b60405180910390fd5b6000600e60008581526020019081526020016000208381548110612c6057612c5f614fb5565b5b90600052602060002090600402016000015403612cb2576040517f08c379a0000000000000000000000000000000000000000000000000000000008152600401612ca990614f4a565b60405180910390fd5b600e60008481526020019081526020016000208281548110612cd757612cd6614fb5565b5b9060005260206000209060040201600080820160009055600182016000612cfe91906140fa565b600282016000612d0e91906140fa565b600382016000612d1e91906140fa565b5050505050565b6009602052806000526040600020600091509050806000015490806001018054612d4e90614b6c565b80601f0160208091040260200160405190810160405280929190818152602001828054612d7a90614b6c565b8015612dc75780601f10612d9c57610100808354040283529160200191612dc7565b820191906000526020600020905b815481529060010190602001808311612daa57829003601f168201915b505050505090806002018054612ddc90614b6c565b80601f0160208091040260200160405190810160405280929190818152602001828054612e0890614b6c565b8015612e555780601f10612e2a57610100808354040283529160200191612e55565b820191906000526020600020905b815481529060010190602001808311612e3857829003601f168201915b5050505050905083565b6000600b60003373ffffffffffffffffffffffffffffffffffffffff1673ffffffffffffffffffffffffffffffffffffffff1681526020019081526020016000206000015403612ee4576040517f08c379a0000000000000000000000000000000000000000000000000000000008152600401612edb90614be9565b60405180910390fd5b6000600c600083815260200190815260200160002090506000816000015403612f42576040517f08c379a0000000000000000000000000000000000000000000000000000000008152600401612f3990614f4a565b60405180910390fd5b600160009054906101000a900473ffffffffffffffffffffffffffffffffffffffff1673ffffffffffffffffffffffffffffffffffffffff16636c43a2ca333084600801546040518463ffffffff1660e01b8152600401612fa593929190614fe4565b6020604051808303816000875af1158015612fc4573d6000803e3d6000fd5b505050506040513d601f19601f82011682018060405250810190612fe89190615047565b50600160009054906101000a900473ffffffffffffffffffffffffffffffffffffffff1673ffffffffffffffffffffffffffffffffffffffff166323b872dd333084600801546040518463ffffffff1660e01b815260040161304c93929190614fe4565b6020604051808303816000875af115801561306b573d6000803e3d6000fd5b505050506040513d601f19601f8201168201806040525081019061308f9190615047565b50600d60003373ffffffffffffffffffffffffffffffffffffffff1673ffffffffffffffffffffffffffffffffffffffff1681526020019081526020016000206040518060400160405280848152602001428152509080600181540180825580915050600190039060005260206000209060020201600090919091909150600082015181600001556020820151816001015550507fba05698ffe932ba01d3d70f62a2e48d6719cc5df3bdcf9118015af495c4a39b18160050160009054906101000a900473ffffffffffffffffffffffffffffffffffffffff16338460405161317a93929190614fe4565b60405180910390a15050565b6000600a60008373ffffffffffffffffffffffffffffffffffffffff1673ffffffffffffffffffffffffffffffffffffffff168152602001908152602001600020600901805490509050919050565b6000600a60003373ffffffffffffffffffffffffffffffffffffffff1673ffffffffffffffffffffffffffffffffffffffff168152602001908152602001600020600001540361325a576040517f08c379a000000000000000000000000000000000000000000000000000000000815260040161325190614be9565b60405180910390fd5b6000600c6000878152602001908152602001600020604051806101a00160405290816000820154815260200160018201805461329590614b6c565b80601f01602080910402602001604051908101604052809291908181526020018280546132c190614b6c565b801561330e5780601f106132e35761010080835404028352916020019161330e565b820191906000526020600020905b8154815290600101906020018083116132f157829003601f168201915b5050505050815260200160028201805461332790614b6c565b80601f016020809104026020016040519081016040528092919081815260200182805461335390614b6c565b80156133a05780601f10613375576101008083540402835291602001916133a0565b820191906000526020600020905b81548152906001019060200180831161338357829003601f168201915b50505050508152602001600382015481526020016004820180546133c390614b6c565b80601f01602080910402602001604051908101604052809291908181526020018280546133ef90614b6c565b801561343c5780601f106134115761010080835404028352916020019161343c565b820191906000526020600020905b81548152906001019060200180831161341f57829003601f168201915b505050505081526020016005820160009054906101000a900473ffffffffffffffffffffffffffffffffffffffff1673ffffffffffffffffffffffffffffffffffffffff1673ffffffffffffffffffffffffffffffffffffffff1681526020016006820180548060200260200160405190810160405280929190818152602001828054801561352057602002820191906000526020600020905b8160009054906101000a900473ffffffffffffffffffffffffffffffffffffffff1673ffffffffffffffffffffffffffffffffffffffff16815260200190600101908083116134d6575b505050505081526020016007820180548060200260200160405190810160405280929190818152602001828054801561357857602002820191906000526020600020905b815481526020019060010190808311613564575b505050505081526020016008820154815260200160098201805461359b90614b6c565b80601f01602080910402602001604051908101604052809291908181526020018280546135c790614b6c565b80156136145780601f106135e957610100808354040283529160200191613614565b820191906000526020600020905b8154815290600101906020018083116135f757829003601f168201915b50505050508152602001600a820160009054906101000a900460ff16151515158152602001600b8201548152602001600c8201548152505090506000816000015103613695576040517f08c379a000000000000000000000000000000000000000000000000000000000815260040161368c90614f4a565b60405180910390fd5b3373ffffffffffffffffffffffffffffffffffffffff168160a0015173ffffffffffffffffffffffffffffffffffffffff1614613707576040517f08c379a00000000000000000000000000000000000000000000000000000000081526004016136fe90614be9565b60405180910390fd5b600082036137e157600e600087815260200190815260200160002060405180608001604052806001600e60008b8152602001908152602001600020805490506137509190615074565b81526020018781526020018681526020018581525090806001815401808255809150506001900390600052602060002090600402016000909190919091506000820151816000015560208201518160010190816137ad9190614db5565b5060408201518160020190816137c39190614db5565b5060608201518160030190816137d99190614db5565b505050613885565b604051806080016040528083815260200186815260200185815260200184815250600e6000888152602001908152602001600020838154811061382757613826614fb5565b5b90600052602060002090600402016000820151816000015560208201518160010190816138549190614db5565b50604082015181600201908161386a9190614db5565b5060608201518160030190816138809190614db5565b509050505b505050505050565b6000600b60003373ffffffffffffffffffffffffffffffffffffffff1673ffffffffffffffffffffffffffffffffffffffff1681526020019081526020016000206000015403613912576040517f08c379a000000000000000000000000000000000000000000000000000000000815260040161390990614be9565b60405180910390fd5b6000600d60003373ffffffffffffffffffffffffffffffffffffffff1673ffffffffffffffffffffffffffffffffffffffff168152602001908152602001600020848154811061396557613964614fb5565b5b90600052602060002090600202016040518060400160405290816000820154815260200160018201548152505090506000600c6000868152602001908152602001600020604051806101a0016040529081600082015481526020016001820180546139cf90614b6c565b80601f01602080910402602001604051908101604052809291908181526020018280546139fb90614b6c565b8015613a485780601f10613a1d57610100808354040283529160200191613a48565b820191906000526020600020905b815481529060010190602001808311613a2b57829003601f168201915b50505050508152602001600282018054613a6190614b6c565b80601f0160208091040260200160405190810160405280929190818152602001828054613a8d90614b6c565b8015613ada5780601f10613aaf57610100808354040283529160200191613ada565b820191906000526020600020905b815481529060010190602001808311613abd57829003601f168201915b5050505050815260200160038201548152602001600482018054613afd90614b6c565b80601f0160208091040260200160405190810160405280929190818152602001828054613b2990614b6c565b8015613b765780601f10613b4b57610100808354040283529160200191613b76565b820191906000526020600020905b815481529060010190602001808311613b5957829003601f168201915b505050505081526020016005820160009054906101000a900473ffffffffffffffffffffffffffffffffffffffff1673ffffffffffffffffffffffffffffffffffffffff1673ffffffffffffffffffffffffffffffffffffffff16815260200160068201805480602002602001604051908101604052809291908181526020018280548015613c5a57602002820191906000526020600020905b8160009054906101000a900473ffffffffffffffffffffffffffffffffffffffff1673ffffffffffffffffffffffffffffffffffffffff1681526020019060010190808311613c10575b5050505050815260200160078201805480602002602001604051908101604052809291908181526020018280548015613cb257602002820191906000526020600020905b815481526020019060010190808311613c9e575b5050505050815260200160088201548152602001600982018054613cd590614b6c565b80601f0160208091040260200160405190810160405280929190818152602001828054613d0190614b6c565b8015613d4e5780601f10613d2357610100808354040283529160200191613d4e565b820191906000526020600020905b815481529060010190602001808311613d3157829003601f168201915b50505050508152602001600a820160009054906101000a900460ff16151515158152602001600b8201548152602001600c8201548152505090506000816000015103613dcf576040517f08c379a0000000000000000000000000000000000000000000000000000000008152600401613dc690614f4a565b60405180910390fd5b60028260200151613de09190615074565b4211613e21576040517f08c379a0000000000000000000000000000000000000000000000000000000008152600401613e18906150f4565b60405180910390fd5b60008484613e2f9190615114565b905060008111613e74576040517f08c379a0000000000000000000000000000000000000000000000000000000008152600401613e6b90615194565b60405180910390fd5b600082610100015182613e8791906151b4565b9050600d60003373ffffffffffffffffffffffffffffffffffffffff1673ffffffffffffffffffffffffffffffffffffffff1681526020019081526020016000208781548110613eda57613ed9614fb5565b5b906000526020600020906002020160008082016000905560018201600090555050600160009054906101000a900473ffffffffffffffffffffffffffffffffffffffff1673ffffffffffffffffffffffffffffffffffffffff166323b872dd3033846040518463ffffffff1660e01b8152600401613f5a93929190614fe4565b6020604051808303816000875af1158015613f79573d6000803e3d6000fd5b505050506040513d601f19601f82011682018060405250810190613f9d9190615047565b507fb51fb992b7d4733d1ea94729ea1cad9c8ef10506a0aef7c79a532754f57fe88a338887604051613fd1939291906151f6565b60405180910390a150505050505050565b600d6020528160005260406000208181548110613ffe57600080fd5b9060005260206000209060020201600091509150508060000154908060010154905082565b82805482825590600052602060002090810192821561405f579160200282015b8281111561405e578251825591602001919060010190614043565b5b50905061406c919061413a565b5090565b8280548282559060005260206000209081019282156140e9579160200282015b828111156140e85782518260006101000a81548173ffffffffffffffffffffffffffffffffffffffff021916908373ffffffffffffffffffffffffffffffffffffffff16021790555091602001919060010190614090565b5b5090506140f6919061413a565b5090565b50805461410690614b6c565b6000825580601f106141185750614137565b601f016020900490600052602060002090810190614136919061413a565b5b50565b5b8082111561415357600081600090555060010161413b565b5090565b6000604051905090565b600080fd5b600080fd5b6000819050919050565b61417e8161416b565b811461418957600080fd5b50565b60008135905061419b81614175565b92915050565b600080604083850312156141b8576141b7614161565b5b60006141c68582860161418c565b92505060206141d78582860161418c565b9150509250929050565b6141ea8161416b565b82525050565b600081519050919050565b600082825260208201905092915050565b60005b8381101561422a57808201518184015260208101905061420f565b60008484015250505050565b6000601f19601f8301169050919050565b6000614252826141f0565b61425c81856141fb565b935061426c81856020860161420c565b61427581614236565b840191505092915050565b600060808201905061429560008301876141e1565b81810360208301526142a78186614247565b905081810360408301526142bb8185614247565b905081810360608301526142cf8184614247565b905095945050505050565b6000602082840312156142f0576142ef614161565b5b60006142fe8482850161418c565b91505092915050565b600080fd5b600080fd5b7f4e487b7100000000000000000000000000000000000000000000000000000000600052604160045260246000fd5b61434982614236565b810181811067ffffffffffffffff8211171561436857614367614311565b5b80604052505050565b600061437b614157565b90506143878282614340565b919050565b600067ffffffffffffffff8211156143a7576143a6614311565b5b6143b082614236565b9050602081019050919050565b82818337600083830152505050565b60006143df6143da8461438c565b614371565b9050828152602081018484840111156143fb576143fa61430c565b5b6144068482856143bd565b509392505050565b600082601f83011261442357614422614307565b5b81356144338482602086016143cc565b91505092915050565b60008060006060848603121561445557614454614161565b5b600084013567ffffffffffffffff81111561447357614472614166565b5b61447f8682870161440e565b935050602084013567ffffffffffffffff8111156144a05761449f614166565b5b6144ac8682870161440e565b92505060406144bd8682870161418c565b9150509250925092565b6000806000606084860312156144e0576144df614161565b5b60006144ee8682870161418c565b935050602084013567ffffffffffffffff81111561450f5761450e614166565b5b61451b8682870161440e565b925050604084013567ffffffffffffffff81111561453c5761453b614166565b5b6145488682870161440e565b9150509250925092565b600073ffffffffffffffffffffffffffffffffffffffff82169050919050565b600061457d82614552565b9050919050565b61458d81614572565b811461459857600080fd5b50565b6000813590506145aa81614584565b92915050565b600080604083850312156145c7576145c6614161565b5b60006145d58582860161459b565b92505060206145e68582860161418c565b9150509250929050565b600060208201905061460560008301846141e1565b92915050565b6000806040838503121561462257614621614161565b5b600083013567ffffffffffffffff8111156146405761463f614166565b5b61464c8582860161440e565b925050602083013567ffffffffffffffff81111561466d5761466c614166565b5b6146798582860161440e565b9150509250929050565b60006020828403121561469957614698614161565b5b60006146a78482850161459b565b91505092915050565b60008115159050919050565b6146c5816146b0565b82525050565b6000610140820190506146e1600083018d6141e1565b81810360208301526146f3818c614247565b90508181036040830152614707818b614247565b9050818103606083015261471b818a614247565b905061472a60808301896141e1565b61473760a08301886146bc565b81810360c08301526147498187614247565b905081810360e083015261475d8186614247565b90508181036101008301526147728185614247565b90506147826101208301846141e1565b9b9a5050505050505050505050565b600080600080608085870312156147ab576147aa614161565b5b600085013567ffffffffffffffff8111156147c9576147c8614166565b5b6147d58782880161440e565b945050602085013567ffffffffffffffff8111156147f6576147f5614166565b5b6148028782880161440e565b935050604085013567ffffffffffffffff81111561482357614822614166565b5b61482f8782880161440e565b92505060606148408782880161418c565b91505092959194509250565b61485581614572565b82525050565b600061016082019050614871600083018e6141e1565b8181036020830152614883818d614247565b90508181036040830152614897818c614247565b90506148a6606083018b6141e1565b81810360808301526148b8818a614247565b90506148c760a083018961484c565b6148d460c08301886141e1565b81810360e08301526148e68187614247565b90506148f66101008301866146bc565b6149046101208301856141e1565b6149126101408301846141e1565b9c9b505050505050505050505050565b600060e082019050614937600083018a6141e1565b81810360208301526149498189614247565b9050818103604083015261495d8188614247565b905061496c60608301876141e1565b818103608083015261497e8186614247565b905081810360a08301526149928185614247565b90506149a160c08301846141e1565b98975050505050505050565b60006060820190506149c260008301866141e1565b81810360208301526149d48185614247565b905081810360408301526149e88184614247565b9050949350505050565b600080600080600060a08688031215614a0e57614a0d614161565b5b6000614a1c8882890161418c565b955050602086013567ffffffffffffffff811115614a3d57614a3c614166565b5b614a498882890161440e565b945050604086013567ffffffffffffffff811115614a6a57614a69614166565b5b614a768882890161440e565b935050606086013567ffffffffffffffff811115614a9757614a96614166565b5b614aa38882890161440e565b9250506080614ab48882890161418c565b9150509295509295909350565b600080600060608486031215614ada57614ad9614161565b5b6000614ae88682870161418c565b9350506020614af98682870161418c565b9250506040614b0a8682870161418c565b9150509250925092565b6000604082019050614b2960008301856141e1565b614b3660208301846141e1565b9392505050565b7f4e487b7100000000000000000000000000000000000000000000000000000000600052602260045260246000fd5b60006002820490506001821680614b8457607f821691505b602082108103614b9757614b96614b3d565b5b50919050565b7f21617574686f72697a6564000000000000000000000000000000000000000000600082015250565b6000614bd3600b836141fb565b9150614bde82614b9d565b602082019050919050565b60006020820190508181036000830152614c0281614bc6565b9050919050565b60008190508160005260206000209050919050565b60006020601f8301049050919050565b600082821b905092915050565b600060088302614c6b7fffffffffffffffffffffffffffffffffffffffffffffffffffffffffffffffff82614c2e565b614c758683614c2e565b95508019841693508086168417925050509392505050565b6000819050919050565b6000614cb2614cad614ca88461416b565b614c8d565b61416b565b9050919050565b6000819050919050565b614ccc83614c97565b614ce0614cd882614cb9565b848454614c3b565b825550505050565b600090565b614cf5614ce8565b614d00818484614cc3565b505050565b5b81811015614d2457614d19600082614ced565b600181019050614d06565b5050565b601f821115614d6957614d3a81614c09565b614d4384614c1e565b81016020851015614d52578190505b614d66614d5e85614c1e565b830182614d05565b50505b505050565b600082821c905092915050565b6000614d8c60001984600802614d6e565b1980831691505092915050565b6000614da58383614d7b565b9150826002028217905092915050565b614dbe826141f0565b67ffffffffffffffff811115614dd757614dd6614311565b5b614de18254614b6c565b614dec828285614d28565b600060209050601f831160018114614e1f5760008415614e0d578287015190505b614e178582614d99565b865550614e7f565b601f198416614e2d86614c09565b60005b82811015614e5557848901518255600182019150602085019450602081019050614e30565b86831015614e725784890151614e6e601f891682614d7b565b8355505b6001600288020188555050505b505050505050565b7f4e487b7100000000000000000000000000000000000000000000000000000000600052601160045260246000fd5b6000614ec18261416b565b91507fffffffffffffffffffffffffffffffffffffffffffffffffffffffffffffffff8203614ef357614ef2614e87565b5b600182019050919050565b7f2165786973747300000000000000000000000000000000000000000000000000600082015250565b6000614f346007836141fb565b9150614f3f82614efe565b602082019050919050565b60006020820190508181036000830152614f6381614f27565b9050919050565b6000604082019050614f7f600083018561484c565b8181036020830152614f918184614247565b90509392505050565b6000602082019050614faf600083018461484c565b92915050565b7f4e487b7100000000000000000000000000000000000000000000000000000000600052603260045260246000fd5b6000606082019050614ff9600083018661484c565b615006602083018561484c565b61501360408301846141e1565b949350505050565b615024816146b0565b811461502f57600080fd5b50565b6000815190506150418161501b565b92915050565b60006020828403121561505d5761505c614161565b5b600061506b84828501615032565b91505092915050565b600061507f8261416b565b915061508a8361416b565b92508282019050808211156150a2576150a1614e87565b5b92915050565b7f3e327765656b7300000000000000000000000000000000000000000000000000600082015250565b60006150de6007836141fb565b91506150e9826150a8565b602082019050919050565b6000602082019050818103600083015261510d816150d1565b9050919050565b600061511f8261416b565b915061512a8361416b565b925082820390508181111561514257615141614e87565b5b92915050565b7f21726566756e61626c6500000000000000000000000000000000000000000000600082015250565b600061517e600a836141fb565b915061518982615148565b602082019050919050565b600060208201905081810360008301526151ad81615171565b9050919050565b60006151bf8261416b565b91506151ca8361416b565b92508282026151d88161416b565b915082820484148315176151ef576151ee614e87565b5b5092915050565b600060608201905061520b600083018661484c565b61521860208301856141e1565b61522560408301846141e1565b94935050505056fea2646970667358221220a74f6abb8fb3fd55539fc5fcb58a91ba65d2f4d25f0bebaaac8550eadd923d8d64736f6c634300081100332f696d616765732f63617465676f726965732f696c6c757374726174696f6e2e776562702f696d616765732f63617465676f726965732f616e696d6174696f6e2e776562702f696d616765732f63617465676f726965732f70686f746f6772617068792e776562702f696d616765732f63617465676f726965732f7765622d646576656c6f706d656e742e776562702f696d616765732f63617465676f726965732f646174612d736369656e63652e776562702f696d616765732f63617465676f726965732f6d61726b6574696e672e77656270",
  "immutableReferences": {},
  "source": "// SPDX-License-Identifier: GPL-3.0\n\npragma solidity >=0.7.0 <0.9.0;\n\nimport \"./BdlToken.sol\";\nimport \"./BdlNft.sol\";\nimport \"./BdlCertificate.sol\";\nimport \"./Models.sol\";\n\ncontract Buidl {\n    // state variables\n    address deployer;\n\n    BdlToken private bdlToken;\n    BdlNft private bdlNft;\n    BdlCertificate private bdlCertificate;\n\n    uint256 private contractInstructorID = 1;\n    uint256 private contractStudentID = 1;\n    uint256 private contractCourseID = 1;\n    uint256 private contractCategoryID = 1;\n\n    // minimum to stake for a duration of 1year\n    uint256 private instructorRegistrationFee = 2000 * 10**18;\n\n    mapping(uint => Models.Category) public categories;\n    mapping(address => Models.Instructor) public instructors;\n    mapping(address => Models.Student) public students;\n    mapping(uint => Models.Course) public courses;\n    mapping(address => Models.StudentCourse[]) public studentCourses;\n    mapping(uint => Models.CourseSection[]) public courseSections;\n\n    // contructor\n    constructor(\n        address _bdlToken,\n        address _bdlNft,\n        address _bdlCertificate\n    ) {\n        deployer = msg.sender;\n        bdlToken = BdlToken(_bdlToken);\n        bdlNft = BdlNft(_bdlNft);\n        bdlCertificate = BdlCertificate(_bdlCertificate);\n\n        addTestCategories();\n    }\n\n    // ========= Administation ========= //\n\n    function setInstructorRegistrationFee(uint256 amount) public onlyOwner {\n        instructorRegistrationFee = amount;\n    }\n\n    function addCategory(string memory name, string memory image)\n        public\n        onlyOwner\n    {\n        categories[contractCategoryID] = Models.Category(\n            contractCategoryID,\n            name,\n            image\n        );\n\n        contractCategoryID++;\n    }\n\n    // ========= Instructors =========== //\n\n    function createCourse(\n        string memory name,\n        string memory description,\n        uint categoryId\n    ) public onlyInstructor {\n        Models.Course memory course = courses[contractCourseID];\n\n        // create new freah course\n        courses[contractCourseID] = Models.Course(\n            contractCourseID,\n            name,\n            description,\n            categoryId,\n            course.ipfsPhoto,\n            msg.sender,\n            course.students,\n            course.ratings,\n            0,\n            course.metadata,\n            false,\n            block.timestamp,\n            block.timestamp\n        );\n\n        // assign course ownership to intructor\n        instructors[msg.sender].courses.push(contractCourseID);\n\n        // increment id\n        contractCourseID++;\n    }\n\n    function addSectionToCourse(\n        uint courseId,\n        string memory title,\n        string memory src,\n        string memory content,\n        uint updateFor\n    ) public onlyInstructor {\n        Models.Course memory course = courses[courseId];\n\n        require(course.id != 0, \"!exists\");\n        require(course.instructor == msg.sender, \"!authorized\");\n\n        if (updateFor == 0) {\n            courseSections[courseId].push(\n                Models.CourseSection(\n                    courseSections[courseId].length + 1,\n                    title,\n                    src,\n                    content\n                )\n            );\n        } else {\n            courseSections[courseId][updateFor] = Models.CourseSection(\n                updateFor,\n                title,\n                src,\n                content\n            );\n        }\n    }\n\n    function deleteCourseSection(uint courseId, uint sectionIndex)\n        public\n        onlyInstructor\n    {\n        Models.Course memory course = courses[courseId];\n\n        require(course.id != 0, \"!exists\");\n        require(course.instructor == msg.sender, \"!authorized\");\n        require(courseSections[courseId][sectionIndex].id != 0, \"!exists\");\n\n        delete courseSections[courseId][sectionIndex];\n    }\n\n    function getInstructorCoursesLength(address instructor)\n        public\n        view\n        returns (uint)\n    {\n        return instructors[instructor].courses.length;\n    }\n\n    function getInstructorCourseIdAtIndex(address instructor, uint index)\n        public\n        view\n        returns (uint)\n    {\n        return instructors[instructor].courses[index];\n    }\n\n    function createInstructorAccount(\n        string memory firstName,\n        string memory lastName,\n        string memory location,\n        uint gender\n    ) public notAnyone {\n        // stake instruction fee\n        bdlToken.increaseAllowance(\n            msg.sender,\n            address(this),\n            instructorRegistrationFee\n        );\n\n        bdlToken.transferFrom(\n            msg.sender,\n            address(this),\n            instructorRegistrationFee\n        );\n\n        Models.Instructor memory instructor = instructors[msg.sender];\n\n        instructors[msg.sender] = Models.Instructor(\n            contractInstructorID,\n            firstName,\n            lastName,\n            location,\n            gender,\n            false,\n            instructor.ipfsPhoto,\n            instructor.twitter,\n            instructor.linkedin,\n            instructor.courses,\n            block.timestamp\n        );\n\n        contractInstructorID++;\n    }\n\n    // ========= Students ========== //\n\n    function createStudentAccount(\n        string memory name,\n        string memory email,\n        uint gender\n    ) public notAnyone {\n        Models.Student memory student = students[msg.sender];\n\n        students[msg.sender] = Models.Student(\n            contractStudentID,\n            name,\n            email,\n            gender,\n            student.ipfsPhoto,\n            student.country,\n            block.timestamp,\n            student.courses\n        );\n\n        contractStudentID++;\n    }\n\n    function purchaseCourse(uint courseId) public onlyStudent {\n        Models.Course storage course = courses[courseId];\n\n        require(course.id != 0, \"!exists\");\n\n        // lock the student funds to smart contract\n        bdlToken.increaseAllowance(msg.sender, address(this), course.price);\n        bdlToken.transferFrom(msg.sender, address(this), course.price);\n\n        // create course for student\n        studentCourses[msg.sender].push(\n            Models.StudentCourse(\n                courseId,\n                block.timestamp\n            )\n        );\n\n        emit CoursePurchased(course.instructor, msg.sender, courseId);\n    }\n\n    function rejectCourse(uint courseId, uint sections, uint sectionsViewed) public onlyStudent {\n        Models.StudentCourse memory studentCourse = studentCourses[msg.sender][courseId];\n        Models.Course memory course = courses[courseId];\n\n        require(course.id != 0, \"!exists\");\n\n        // check is course is not over 2 weeks\n        require(block.timestamp > (studentCourse.purchasedAt + 2), \">2weeks\");\n\n        uint refundableSections = (sectionsViewed - sections);\n\n        require(refundableSections > 0, \"!refunable\");\n\n        uint256 refundableAmount = (refundableSections * course.price);\n\n        // terminate student course\n        delete studentCourses[msg.sender][courseId];\n\n        // refund the student\n        bdlToken.transferFrom(address(this), msg.sender, refundableAmount);\n\n        emit CourseRefunded(msg.sender, courseId, sectionsViewed);\n    }\n\n    function onCompletedCourse(\n        uint courseId,\n        string memory certificateUri,\n        string memory nftUri\n    ) public onlyStudent {\n        require(courses[courseId].id != 0, \"!exists\");\n        // check if student has purchase the course\n        // require(studentCourses[msg.sender][] != 0, \"!exists\");\n        bdlCertificate.issue(msg.sender, certificateUri);\n        bdlNft.mint(msg.sender, nftUri);\n    }\n\n    modifier onlyInstructor() {\n        require(instructors[msg.sender].id != 0, \"!authorized\");\n        _;\n    }\n\n    modifier onlyStudent() {\n        require(students[msg.sender].id != 0, \"!authorized\");\n        _;\n    }\n\n    modifier onlyOwner() {\n        require(msg.sender == deployer, \"!authorized\");\n        _;\n    }\n\n    modifier notAnyone() {\n        require(\n            (students[msg.sender].id == 0 && instructors[msg.sender].id == 0),\n            \"!authorized\"\n        );\n        _;\n    }\n\n    // ========== Events ========== //\n\n    event CourseCompletion(address student, uint courseId);\n    event CoursePurchased(address intructor, address student, uint courseId);\n    event CourseRefunded(address student, uint courseId, uint sectionsViewed);\n\n    // ========== Development ========== //\n\n    function faucetMint() public {\n        bdlToken.mint(msg.sender);\n    }\n\n    function addTestCategories() private {\n        addCategory(\n            \"Web Development\",\n            \"/images/categories/web-development.webp\"\n        );\n        addCategory(\"Cooking\", \"/images/categories/cooking.webp\");\n        addCategory(\"UI/UX Designing\", \"/images/categories/ui-ux.webp\");\n        addCategory(\"3D Animation\", \"/images/categories/animation.webp\");\n        addCategory(\"Illustration\", \"/images/categories/illustration.webp\");\n        addCategory(\"Data Science\", \"/images/categories/data-science.webp\");\n        addCategory(\"Speaking\", \"/images/categories/speaking.webp\");\n        addCategory(\"Music\", \"/images/categories/music.webp\");\n        addCategory(\"Photography\", \"/images/categories/photography.webp\");\n        addCategory(\"Marketing\", \"/images/categories/marketing.webp\");\n    }\n}\n",
  "sourcePath": "C:\\Users\\Arogundade Ibrahim\\Documents\\web3\\Buidl\\contracts\\Buidl.sol",
  "compiler": {
    "name": "solc",
    "version": "0.8.17+commit.8df45f5f.Emscripten.clang"
  },
  "schemaVersion": "3.4.10",
  "updatedAt": "2022-10-21T19:06:26.932Z",
  "networkType": "ethereum",
  "devdoc": {
    "kind": "dev",
    "methods": {},
    "version": 1
  },
  "userdoc": {
    "kind": "user",
    "methods": {},
    "version": 1
  }
}