{
  "contractName": "Buidl",
  "abi": [
    {
      "inputs": [
        {
          "internalType": "address",
          "name": "_bdlToken",
          "type": "address"
        },
        {
          "internalType": "address",
          "name": "_bdlNft",
          "type": "address"
        },
        {
          "internalType": "address",
          "name": "_bdlCertificate",
          "type": "address"
        }
      ],
      "stateMutability": "nonpayable",
      "type": "constructor"
    },
    {
      "anonymous": false,
      "inputs": [
        {
          "indexed": false,
          "internalType": "address",
          "name": "student",
          "type": "address"
        },
        {
          "indexed": false,
          "internalType": "uint256",
          "name": "courseId",
          "type": "uint256"
        }
      ],
      "name": "CertificateIssued",
      "type": "event"
    },
    {
      "anonymous": false,
      "inputs": [
        {
          "indexed": false,
          "internalType": "address",
          "name": "student",
          "type": "address"
        },
        {
          "indexed": false,
          "internalType": "uint256",
          "name": "courseId",
          "type": "uint256"
        }
      ],
      "name": "CourseCompletion",
      "type": "event"
    },
    {
      "anonymous": false,
      "inputs": [
        {
          "indexed": false,
          "internalType": "address",
          "name": "intructor",
          "type": "address"
        },
        {
          "indexed": false,
          "internalType": "address",
          "name": "student",
          "type": "address"
        },
        {
          "indexed": false,
          "internalType": "uint256",
          "name": "courseId",
          "type": "uint256"
        }
      ],
      "name": "CoursePurchased",
      "type": "event"
    },
    {
      "anonymous": false,
      "inputs": [
        {
          "indexed": false,
          "internalType": "address",
          "name": "student",
          "type": "address"
        },
        {
          "indexed": false,
          "internalType": "uint256",
          "name": "courseId",
          "type": "uint256"
        },
        {
          "indexed": false,
          "internalType": "uint256",
          "name": "sectionsViewed",
          "type": "uint256"
        }
      ],
      "name": "CourseRejected",
      "type": "event"
    },
    {
      "inputs": [
        {
          "internalType": "uint256",
          "name": "",
          "type": "uint256"
        }
      ],
      "name": "categories",
      "outputs": [
        {
          "internalType": "uint256",
          "name": "id",
          "type": "uint256"
        },
        {
          "internalType": "string",
          "name": "name",
          "type": "string"
        },
        {
          "internalType": "string",
          "name": "image",
          "type": "string"
        }
      ],
      "stateMutability": "view",
      "type": "function",
      "constant": true
    },
    {
      "inputs": [],
      "name": "contractCategoryID",
      "outputs": [
        {
          "internalType": "uint256",
          "name": "",
          "type": "uint256"
        }
      ],
      "stateMutability": "view",
      "type": "function",
      "constant": true
    },
    {
      "inputs": [],
      "name": "contractCourseID",
      "outputs": [
        {
          "internalType": "uint256",
          "name": "",
          "type": "uint256"
        }
      ],
      "stateMutability": "view",
      "type": "function",
      "constant": true
    },
    {
      "inputs": [],
      "name": "contractInstructorID",
      "outputs": [
        {
          "internalType": "uint256",
          "name": "",
          "type": "uint256"
        }
      ],
      "stateMutability": "view",
      "type": "function",
      "constant": true
    },
    {
      "inputs": [],
      "name": "contractStudentID",
      "outputs": [
        {
          "internalType": "uint256",
          "name": "",
          "type": "uint256"
        }
      ],
      "stateMutability": "view",
      "type": "function",
      "constant": true
    },
    {
      "inputs": [
        {
          "internalType": "uint256",
          "name": "",
          "type": "uint256"
        },
        {
          "internalType": "uint256",
          "name": "",
          "type": "uint256"
        }
      ],
      "name": "courseSections",
      "outputs": [
        {
          "internalType": "uint256",
          "name": "id",
          "type": "uint256"
        },
        {
          "internalType": "string",
          "name": "title",
          "type": "string"
        },
        {
          "internalType": "string",
          "name": "src",
          "type": "string"
        },
        {
          "internalType": "string",
          "name": "content",
          "type": "string"
        }
      ],
      "stateMutability": "view",
      "type": "function",
      "constant": true
    },
    {
      "inputs": [
        {
          "internalType": "uint256",
          "name": "",
          "type": "uint256"
        }
      ],
      "name": "courses",
      "outputs": [
        {
          "internalType": "uint256",
          "name": "id",
          "type": "uint256"
        },
        {
          "internalType": "string",
          "name": "name",
          "type": "string"
        },
        {
          "internalType": "string",
          "name": "description",
          "type": "string"
        },
        {
          "internalType": "uint256",
          "name": "categoryId",
          "type": "uint256"
        },
        {
          "internalType": "string",
          "name": "ipfsPhoto",
          "type": "string"
        },
        {
          "internalType": "address",
          "name": "instructor",
          "type": "address"
        },
        {
          "internalType": "uint256",
          "name": "price",
          "type": "uint256"
        },
        {
          "internalType": "string",
          "name": "metadata",
          "type": "string"
        },
        {
          "internalType": "bool",
          "name": "isPublished",
          "type": "bool"
        },
        {
          "internalType": "uint256",
          "name": "createdAt",
          "type": "uint256"
        },
        {
          "internalType": "uint256",
          "name": "updatedAt",
          "type": "uint256"
        }
      ],
      "stateMutability": "view",
      "type": "function",
      "constant": true
    },
    {
      "inputs": [
        {
          "internalType": "address",
          "name": "",
          "type": "address"
        }
      ],
      "name": "instructors",
      "outputs": [
        {
          "internalType": "uint256",
          "name": "id",
          "type": "uint256"
        },
        {
          "internalType": "string",
          "name": "firstName",
          "type": "string"
        },
        {
          "internalType": "string",
          "name": "lastName",
          "type": "string"
        },
        {
          "internalType": "string",
          "name": "location",
          "type": "string"
        },
        {
          "internalType": "uint256",
          "name": "gender",
          "type": "uint256"
        },
        {
          "internalType": "bool",
          "name": "isVerified",
          "type": "bool"
        },
        {
          "internalType": "string",
          "name": "ipfsPhoto",
          "type": "string"
        },
        {
          "internalType": "string",
          "name": "twitter",
          "type": "string"
        },
        {
          "internalType": "string",
          "name": "linkedin",
          "type": "string"
        },
        {
          "internalType": "uint256",
          "name": "createdAt",
          "type": "uint256"
        }
      ],
      "stateMutability": "view",
      "type": "function",
      "constant": true
    },
    {
      "inputs": [
        {
          "internalType": "address",
          "name": "",
          "type": "address"
        },
        {
          "internalType": "uint256",
          "name": "",
          "type": "uint256"
        }
      ],
      "name": "studentCourses",
      "outputs": [
        {
          "internalType": "uint256",
          "name": "courseId",
          "type": "uint256"
        },
        {
          "internalType": "bool",
          "name": "isActive",
          "type": "bool"
        },
        {
          "internalType": "uint256",
          "name": "unlocked",
          "type": "uint256"
        },
        {
          "internalType": "uint256",
          "name": "sectionsViewed",
          "type": "uint256"
        },
        {
          "internalType": "uint256",
          "name": "purchasedAt",
          "type": "uint256"
        }
      ],
      "stateMutability": "view",
      "type": "function",
      "constant": true
    },
    {
      "inputs": [
        {
          "internalType": "address",
          "name": "",
          "type": "address"
        }
      ],
      "name": "students",
      "outputs": [
        {
          "internalType": "uint256",
          "name": "id",
          "type": "uint256"
        },
        {
          "internalType": "string",
          "name": "name",
          "type": "string"
        },
        {
          "internalType": "string",
          "name": "emailAddress",
          "type": "string"
        },
        {
          "internalType": "uint256",
          "name": "gender",
          "type": "uint256"
        },
        {
          "internalType": "string",
          "name": "ipfsPhoto",
          "type": "string"
        },
        {
          "internalType": "string",
          "name": "country",
          "type": "string"
        },
        {
          "internalType": "uint256",
          "name": "createdAt",
          "type": "uint256"
        }
      ],
      "stateMutability": "view",
      "type": "function",
      "constant": true
    },
    {
      "inputs": [
        {
          "internalType": "uint256",
          "name": "amount",
          "type": "uint256"
        }
      ],
      "name": "setInstructorRegistrationFee",
      "outputs": [],
      "stateMutability": "nonpayable",
      "type": "function"
    },
    {
      "inputs": [
        {
          "internalType": "string",
          "name": "name",
          "type": "string"
        },
        {
          "internalType": "string",
          "name": "image",
          "type": "string"
        }
      ],
      "name": "addCategory",
      "outputs": [],
      "stateMutability": "nonpayable",
      "type": "function"
    },
    {
      "inputs": [],
      "name": "mint",
      "outputs": [],
      "stateMutability": "nonpayable",
      "type": "function"
    },
    {
      "inputs": [],
      "name": "faucetMint",
      "outputs": [],
      "stateMutability": "nonpayable",
      "type": "function"
    },
    {
      "inputs": [
        {
          "internalType": "string",
          "name": "name",
          "type": "string"
        },
        {
          "internalType": "string",
          "name": "description",
          "type": "string"
        },
        {
          "internalType": "uint256",
          "name": "categoryId",
          "type": "uint256"
        }
      ],
      "name": "createCourse",
      "outputs": [],
      "stateMutability": "nonpayable",
      "type": "function"
    },
    {
      "inputs": [
        {
          "internalType": "uint256",
          "name": "courseId",
          "type": "uint256"
        },
        {
          "internalType": "string",
          "name": "title",
          "type": "string"
        },
        {
          "internalType": "string",
          "name": "src",
          "type": "string"
        },
        {
          "internalType": "string",
          "name": "content",
          "type": "string"
        },
        {
          "internalType": "uint256",
          "name": "updateFor",
          "type": "uint256"
        }
      ],
      "name": "addSectionToCourse",
      "outputs": [],
      "stateMutability": "nonpayable",
      "type": "function"
    },
    {
      "inputs": [
        {
          "internalType": "uint256",
          "name": "courseId",
          "type": "uint256"
        },
        {
          "internalType": "uint256",
          "name": "sectionIndex",
          "type": "uint256"
        }
      ],
      "name": "deleteCourseSection",
      "outputs": [],
      "stateMutability": "nonpayable",
      "type": "function"
    },
    {
      "inputs": [
        {
          "internalType": "address",
          "name": "instructor",
          "type": "address"
        }
      ],
      "name": "getInstructorCoursesLength",
      "outputs": [
        {
          "internalType": "uint256",
          "name": "",
          "type": "uint256"
        }
      ],
      "stateMutability": "view",
      "type": "function",
      "constant": true
    },
    {
      "inputs": [
        {
          "internalType": "address",
          "name": "instructor",
          "type": "address"
        },
        {
          "internalType": "uint256",
          "name": "index",
          "type": "uint256"
        }
      ],
      "name": "getInstructorCourseIdAtIndex",
      "outputs": [
        {
          "internalType": "uint256",
          "name": "",
          "type": "uint256"
        }
      ],
      "stateMutability": "view",
      "type": "function",
      "constant": true
    },
    {
      "inputs": [
        {
          "internalType": "string",
          "name": "firstName",
          "type": "string"
        },
        {
          "internalType": "string",
          "name": "lastName",
          "type": "string"
        },
        {
          "internalType": "string",
          "name": "location",
          "type": "string"
        },
        {
          "internalType": "uint256",
          "name": "gender",
          "type": "uint256"
        }
      ],
      "name": "createInstructorAccount",
      "outputs": [],
      "stateMutability": "nonpayable",
      "type": "function"
    },
    {
      "inputs": [
        {
          "internalType": "string",
          "name": "name",
          "type": "string"
        },
        {
          "internalType": "string",
          "name": "email",
          "type": "string"
        },
        {
          "internalType": "uint256",
          "name": "gender",
          "type": "uint256"
        }
      ],
      "name": "createStudentAccount",
      "outputs": [],
      "stateMutability": "nonpayable",
      "type": "function"
    },
    {
      "inputs": [
        {
          "internalType": "uint256",
          "name": "courseId",
          "type": "uint256"
        }
      ],
      "name": "purchaseCourse",
      "outputs": [],
      "stateMutability": "nonpayable",
      "type": "function"
    },
    {
      "inputs": [
        {
          "internalType": "uint256",
          "name": "courseId",
          "type": "uint256"
        },
        {
          "internalType": "uint256",
          "name": "sections",
          "type": "uint256"
        }
      ],
      "name": "rejectCourse",
      "outputs": [],
      "stateMutability": "nonpayable",
      "type": "function"
    }
  ],
  "bytecode": "0x60806040526001600455600160055560016006556001600755686c6b935b8bbd4000006008553480156200003257600080fd5b5060405162005e4438038062005e4483398181016040528101906200005891906200072e565b336000806101000a81548173ffffffffffffffffffffffffffffffffffffffff021916908373ffffffffffffffffffffffffffffffffffffffff16021790555082600160006101000a81548173ffffffffffffffffffffffffffffffffffffffff021916908373ffffffffffffffffffffffffffffffffffffffff16021790555081600260006101000a81548173ffffffffffffffffffffffffffffffffffffffff021916908373ffffffffffffffffffffffffffffffffffffffff16021790555080600360006101000a81548173ffffffffffffffffffffffffffffffffffffffff021916908373ffffffffffffffffffffffffffffffffffffffff1602179055506200016b6200017460201b60201c565b50505062000bea565b620001d46040518060400160405280600f81526020017f57656220446576656c6f706d656e74000000000000000000000000000000000081525060405180606001604052806027815260200162005dd860279139620005a660201b60201c565b620002506040518060400160405280600781526020017f436f6f6b696e67000000000000000000000000000000000000000000000000008152506040518060400160405280601f81526020017f2f696d616765732f63617465676f726965732f636f6f6b696e672e7765627000815250620005a660201b60201c565b620002cc6040518060400160405280600f81526020017f55492f55582044657369676e696e6700000000000000000000000000000000008152506040518060400160405280601d81526020017f2f696d616765732f63617465676f726965732f75692d75782e77656270000000815250620005a660201b60201c565b6200032c6040518060400160405280600c81526020017f334420416e696d6174696f6e000000000000000000000000000000000000000081525060405180606001604052806021815260200162005d9460219139620005a660201b60201c565b6200038c6040518060400160405280600c81526020017f496c6c757374726174696f6e000000000000000000000000000000000000000081525060405180606001604052806024815260200162005d7060249139620005a660201b60201c565b620003ec6040518060400160405280600c81526020017f4461746120536369656e6365000000000000000000000000000000000000000081525060405180606001604052806024815260200162005dff60249139620005a660201b60201c565b620004686040518060400160405280600881526020017f537065616b696e670000000000000000000000000000000000000000000000008152506040518060400160405280602081526020017f2f696d616765732f63617465676f726965732f737065616b696e672e77656270815250620005a660201b60201c565b620004e46040518060400160405280600581526020017f4d757369630000000000000000000000000000000000000000000000000000008152506040518060400160405280601d81526020017f2f696d616765732f63617465676f726965732f6d757369632e77656270000000815250620005a660201b60201c565b620005446040518060400160405280600b81526020017f50686f746f67726170687900000000000000000000000000000000000000000081525060405180606001604052806023815260200162005db560239139620005a660201b60201c565b620005a46040518060400160405280600981526020017f4d61726b6574696e67000000000000000000000000000000000000000000000081525060405180606001604052806021815260200162005e2360219139620005a660201b60201c565b565b60008054906101000a900473ffffffffffffffffffffffffffffffffffffffff1673ffffffffffffffffffffffffffffffffffffffff163373ffffffffffffffffffffffffffffffffffffffff161462000637576040517f08c379a00000000000000000000000000000000000000000000000000000000081526004016200062e90620007eb565b60405180910390fd5b60405180606001604052806007548152602001838152602001828152506009600060075481526020019081526020016000206000820151816000015560208201518160010190816200068a919062000a87565b506040820151816002019081620006a2919062000a87565b5090505060076000815480929190620006bb9062000b9d565b91905055505050565b600080fd5b600073ffffffffffffffffffffffffffffffffffffffff82169050919050565b6000620006f682620006c9565b9050919050565b6200070881620006e9565b81146200071457600080fd5b50565b6000815190506200072881620006fd565b92915050565b6000806000606084860312156200074a5762000749620006c4565b5b60006200075a8682870162000717565b93505060206200076d8682870162000717565b9250506040620007808682870162000717565b9150509250925092565b600082825260208201905092915050565b7f21617574686f72697a6564000000000000000000000000000000000000000000600082015250565b6000620007d3600b836200078a565b9150620007e0826200079b565b602082019050919050565b600060208201905081810360008301526200080681620007c4565b9050919050565b600081519050919050565b7f4e487b7100000000000000000000000000000000000000000000000000000000600052604160045260246000fd5b7f4e487b7100000000000000000000000000000000000000000000000000000000600052602260045260246000fd5b600060028204905060018216806200088f57607f821691505b602082108103620008a557620008a462000847565b5b50919050565b60008190508160005260206000209050919050565b60006020601f8301049050919050565b600082821b905092915050565b6000600883026200090f7fffffffffffffffffffffffffffffffffffffffffffffffffffffffffffffffff82620008d0565b6200091b8683620008d0565b95508019841693508086168417925050509392505050565b6000819050919050565b6000819050919050565b600062000968620009626200095c8462000933565b6200093d565b62000933565b9050919050565b6000819050919050565b620009848362000947565b6200099c62000993826200096f565b848454620008dd565b825550505050565b600090565b620009b3620009a4565b620009c081848462000979565b505050565b5b81811015620009e857620009dc600082620009a9565b600181019050620009c6565b5050565b601f82111562000a375762000a0181620008ab565b62000a0c84620008c0565b8101602085101562000a1c578190505b62000a3462000a2b85620008c0565b830182620009c5565b50505b505050565b600082821c905092915050565b600062000a5c6000198460080262000a3c565b1980831691505092915050565b600062000a77838362000a49565b9150826002028217905092915050565b62000a92826200080d565b67ffffffffffffffff81111562000aae5762000aad62000818565b5b62000aba825462000876565b62000ac7828285620009ec565b600060209050601f83116001811462000aff576000841562000aea578287015190505b62000af6858262000a69565b86555062000b66565b601f19841662000b0f86620008ab565b60005b8281101562000b395784890151825560018201915060208501945060208101905062000b12565b8683101562000b59578489015162000b55601f89168262000a49565b8355505b6001600288020188555050505b505050505050565b7f4e487b7100000000000000000000000000000000000000000000000000000000600052601160045260246000fd5b600062000baa8262000933565b91507fffffffffffffffffffffffffffffffffffffffffffffffffffffffffffffffff820362000bdf5762000bde62000b6e565b5b600182019050919050565b6151768062000bfa6000396000f3fe608060405234801561001057600080fd5b506004361061014d5760003560e01c8063823d5bf4116100c3578063c6cdbe5e1161007c578063c6cdbe5e14610392578063cd131938146103c4578063d031a834146103e0578063e4bcf87d14610410578063fb9da76a1461042c578063fd95cc51146104485761014d565b8063823d5bf4146102ae57806396f979d2146102cc578063a4adb24b14610306578063a6c807a914610322578063aa39566c14610358578063b0f8158c146103765761014d565b806313eda8fc1161011557806313eda8fc146101e557806318222d5e146101ef5780631bf703b21461021f5780632a47d91c1461023b578063332d90a9146102745780635a637384146102925761014d565b80630226b0b214610152578063097167ba1461018557806309df4f66146101a15780630da079b4146101bf5780631249c58b146101db575b600080fd5b61016c60048036038101906101679190614198565b61047c565b60405161017c9493929190614277565b60405180910390f35b61019f600480360381019061019a91906142d1565b610661565b005b6101a96106f9565b6040516101b691906142fe565b60405180910390f35b6101d960048036038101906101d4919061444e565b6106ff565b005b6101e3610c1a565b005b6101ed610ca9565b005b61020960048036038101906102049190614537565b610d38565b60405161021691906142fe565b60405180910390f35b61023960048036038101906102349190614577565b610da1565b005b610255600480360381019061025091906145ef565b610eb6565b60405161026b9a99989796959493929190614637565b60405180910390f35b61027c611247565b60405161028991906142fe565b60405180910390f35b6102ac60048036038101906102a791906146fd565b61124d565b005b6102b6611a5c565b6040516102c391906142fe565b60405180910390f35b6102e660048036038101906102e191906142d1565b611a62565b6040516102fd9b9a999897969594939291906147c7565b60405180910390f35b610320600480360381019061031b919061444e565b611d09565b005b61033c600480360381019061033791906145ef565b6123da565b60405161034f979695949392919061488e565b60405180910390f35b61036061263c565b60405161036d91906142fe565b60405180910390f35b610390600480360381019061038b9190614198565b612642565b005b6103ac60048036038101906103a791906142d1565b612c60565b6040516103bb93929190614919565b60405180910390f35b6103de60048036038101906103d991906142d1565b612d9a565b005b6103fa60048036038101906103f591906145ef565b61310f565b60405161040791906142fe565b60405180910390f35b61042a6004803603810190610425919061495e565b61315e565b005b61044660048036038101906104419190614198565b613816565b005b610462600480360381019061045d9190614537565b613fba565b604051610473959493929190614a2d565b60405180910390f35b600e602052816000526040600020818154811061049857600080fd5b9060005260206000209060040201600091509150508060000154908060010180546104c290614aaf565b80601f01602080910402602001604051908101604052809291908181526020018280546104ee90614aaf565b801561053b5780601f106105105761010080835404028352916020019161053b565b820191906000526020600020905b81548152906001019060200180831161051e57829003601f168201915b50505050509080600201805461055090614aaf565b80601f016020809104026020016040519081016040528092919081815260200182805461057c90614aaf565b80156105c95780601f1061059e576101008083540402835291602001916105c9565b820191906000526020600020905b8154815290600101906020018083116105ac57829003601f168201915b5050505050908060030180546105de90614aaf565b80601f016020809104026020016040519081016040528092919081815260200182805461060a90614aaf565b80156106575780601f1061062c57610100808354040283529160200191610657565b820191906000526020600020905b81548152906001019060200180831161063a57829003601f168201915b5050505050905084565b60008054906101000a900473ffffffffffffffffffffffffffffffffffffffff1673ffffffffffffffffffffffffffffffffffffffff163373ffffffffffffffffffffffffffffffffffffffff16146106ef576040517f08c379a00000000000000000000000000000000000000000000000000000000081526004016106e690614b2c565b60405180910390fd5b8060088190555050565b60065481565b6000600b60003373ffffffffffffffffffffffffffffffffffffffff1673ffffffffffffffffffffffffffffffffffffffff1681526020019081526020016000206000015414801561079357506000600a60003373ffffffffffffffffffffffffffffffffffffffff1673ffffffffffffffffffffffffffffffffffffffff16815260200190815260200160002060000154145b6107d2576040517f08c379a00000000000000000000000000000000000000000000000000000000081526004016107c990614b2c565b60405180910390fd5b6000600b60003373ffffffffffffffffffffffffffffffffffffffff1673ffffffffffffffffffffffffffffffffffffffff168152602001908152602001600020604051806101000160405290816000820154815260200160018201805461083990614aaf565b80601f016020809104026020016040519081016040528092919081815260200182805461086590614aaf565b80156108b25780601f10610887576101008083540402835291602001916108b2565b820191906000526020600020905b81548152906001019060200180831161089557829003601f168201915b505050505081526020016002820180546108cb90614aaf565b80601f01602080910402602001604051908101604052809291908181526020018280546108f790614aaf565b80156109445780601f1061091957610100808354040283529160200191610944565b820191906000526020600020905b81548152906001019060200180831161092757829003601f168201915b505050505081526020016003820154815260200160048201805461096790614aaf565b80601f016020809104026020016040519081016040528092919081815260200182805461099390614aaf565b80156109e05780601f106109b5576101008083540402835291602001916109e0565b820191906000526020600020905b8154815290600101906020018083116109c357829003601f168201915b505050505081526020016005820180546109f990614aaf565b80601f0160208091040260200160405190810160405280929190818152602001828054610a2590614aaf565b8015610a725780601f10610a4757610100808354040283529160200191610a72565b820191906000526020600020905b815481529060010190602001808311610a5557829003601f168201915b505050505081526020016006820154815260200160078201805480602002602001604051908101604052809291908181526020018280548015610ad457602002820191906000526020600020905b815481526020019060010190808311610ac0575b50505050508152505090506040518061010001604052806005548152602001858152602001848152602001838152602001826080015181526020018260a0015181526020014281526020018260e00151815250600b60003373ffffffffffffffffffffffffffffffffffffffff1673ffffffffffffffffffffffffffffffffffffffff168152602001908152602001600020600082015181600001556020820151816001019081610b859190614cf8565b506040820151816002019081610b9b9190614cf8565b50606082015181600301556080820151816004019081610bbb9190614cf8565b5060a0820151816005019081610bd19190614cf8565b5060c0820151816006015560e0820151816007019080519060200190610bf892919061401a565b5090505060056000815480929190610c0f90614df9565b919050555050505050565b600260009054906101000a900473ffffffffffffffffffffffffffffffffffffffff1673ffffffffffffffffffffffffffffffffffffffff16636a627842336040518263ffffffff1660e01b8152600401610c759190614e41565b600060405180830381600087803b158015610c8f57600080fd5b505af1158015610ca3573d6000803e3d6000fd5b50505050565b600160009054906101000a900473ffffffffffffffffffffffffffffffffffffffff1673ffffffffffffffffffffffffffffffffffffffff16636a627842336040518263ffffffff1660e01b8152600401610d049190614e41565b600060405180830381600087803b158015610d1e57600080fd5b505af1158015610d32573d6000803e3d6000fd5b50505050565b6000600a60008473ffffffffffffffffffffffffffffffffffffffff1673ffffffffffffffffffffffffffffffffffffffff1681526020019081526020016000206009018281548110610d8e57610d8d614e5c565b5b9060005260206000200154905092915050565b60008054906101000a900473ffffffffffffffffffffffffffffffffffffffff1673ffffffffffffffffffffffffffffffffffffffff163373ffffffffffffffffffffffffffffffffffffffff1614610e2f576040517f08c379a0000000000000000000000000000000000000000000000000000000008152600401610e2690614b2c565b60405180910390fd5b6040518060600160405280600754815260200183815260200182815250600960006007548152602001908152602001600020600082015181600001556020820151816001019081610e809190614cf8565b506040820151816002019081610e969190614cf8565b5090505060076000815480929190610ead90614df9565b91905055505050565b600a602052806000526040600020600091509050806000015490806001018054610edf90614aaf565b80601f0160208091040260200160405190810160405280929190818152602001828054610f0b90614aaf565b8015610f585780601f10610f2d57610100808354040283529160200191610f58565b820191906000526020600020905b815481529060010190602001808311610f3b57829003601f168201915b505050505090806002018054610f6d90614aaf565b80601f0160208091040260200160405190810160405280929190818152602001828054610f9990614aaf565b8015610fe65780601f10610fbb57610100808354040283529160200191610fe6565b820191906000526020600020905b815481529060010190602001808311610fc957829003601f168201915b505050505090806003018054610ffb90614aaf565b80601f016020809104026020016040519081016040528092919081815260200182805461102790614aaf565b80156110745780601f1061104957610100808354040283529160200191611074565b820191906000526020600020905b81548152906001019060200180831161105757829003601f168201915b5050505050908060040154908060050160009054906101000a900460ff16908060060180546110a290614aaf565b80601f01602080910402602001604051908101604052809291908181526020018280546110ce90614aaf565b801561111b5780601f106110f05761010080835404028352916020019161111b565b820191906000526020600020905b8154815290600101906020018083116110fe57829003601f168201915b50505050509080600701805461113090614aaf565b80601f016020809104026020016040519081016040528092919081815260200182805461115c90614aaf565b80156111a95780601f1061117e576101008083540402835291602001916111a9565b820191906000526020600020905b81548152906001019060200180831161118c57829003601f168201915b5050505050908060080180546111be90614aaf565b80601f01602080910402602001604051908101604052809291908181526020018280546111ea90614aaf565b80156112375780601f1061120c57610100808354040283529160200191611237565b820191906000526020600020905b81548152906001019060200180831161121a57829003601f168201915b50505050509080600a015490508a565b60045481565b6000600b60003373ffffffffffffffffffffffffffffffffffffffff1673ffffffffffffffffffffffffffffffffffffffff168152602001908152602001600020600001541480156112e157506000600a60003373ffffffffffffffffffffffffffffffffffffffff1673ffffffffffffffffffffffffffffffffffffffff16815260200190815260200160002060000154145b611320576040517f08c379a000000000000000000000000000000000000000000000000000000000815260040161131790614b2c565b60405180910390fd5b600160009054906101000a900473ffffffffffffffffffffffffffffffffffffffff1673ffffffffffffffffffffffffffffffffffffffff16636c43a2ca33306008546040518463ffffffff1660e01b815260040161138193929190614e8b565b6020604051808303816000875af11580156113a0573d6000803e3d6000fd5b505050506040513d601f19601f820116820180604052508101906113c49190614eee565b50600160009054906101000a900473ffffffffffffffffffffffffffffffffffffffff1673ffffffffffffffffffffffffffffffffffffffff166323b872dd33306008546040518463ffffffff1660e01b815260040161142693929190614e8b565b6020604051808303816000875af1158015611445573d6000803e3d6000fd5b505050506040513d601f19601f820116820180604052508101906114699190614eee565b506000600a60003373ffffffffffffffffffffffffffffffffffffffff1673ffffffffffffffffffffffffffffffffffffffff16815260200190815260200160002060405180610160016040529081600082015481526020016001820180546114d190614aaf565b80601f01602080910402602001604051908101604052809291908181526020018280546114fd90614aaf565b801561154a5780601f1061151f5761010080835404028352916020019161154a565b820191906000526020600020905b81548152906001019060200180831161152d57829003601f168201915b5050505050815260200160028201805461156390614aaf565b80601f016020809104026020016040519081016040528092919081815260200182805461158f90614aaf565b80156115dc5780601f106115b1576101008083540402835291602001916115dc565b820191906000526020600020905b8154815290600101906020018083116115bf57829003601f168201915b505050505081526020016003820180546115f590614aaf565b80601f016020809104026020016040519081016040528092919081815260200182805461162190614aaf565b801561166e5780601f106116435761010080835404028352916020019161166e565b820191906000526020600020905b81548152906001019060200180831161165157829003601f168201915b50505050508152602001600482015481526020016005820160009054906101000a900460ff161515151581526020016006820180546116ac90614aaf565b80601f01602080910402602001604051908101604052809291908181526020018280546116d890614aaf565b80156117255780601f106116fa57610100808354040283529160200191611725565b820191906000526020600020905b81548152906001019060200180831161170857829003601f168201915b5050505050815260200160078201805461173e90614aaf565b80601f016020809104026020016040519081016040528092919081815260200182805461176a90614aaf565b80156117b75780601f1061178c576101008083540402835291602001916117b7565b820191906000526020600020905b81548152906001019060200180831161179a57829003601f168201915b505050505081526020016008820180546117d090614aaf565b80601f01602080910402602001604051908101604052809291908181526020018280546117fc90614aaf565b80156118495780601f1061181e57610100808354040283529160200191611849565b820191906000526020600020905b81548152906001019060200180831161182c57829003601f168201915b50505050508152602001600982018054806020026020016040519081016040528092919081815260200182805480156118a157602002820191906000526020600020905b81548152602001906001019080831161188d575b50505050508152602001600a82015481525050905060405180610160016040528060045481526020018681526020018581526020018481526020018381526020016000151581526020018260c0015181526020018260e0015181526020018261010001518152602001826101200151815260200142815250600a60003373ffffffffffffffffffffffffffffffffffffffff1673ffffffffffffffffffffffffffffffffffffffff1681526020019081526020016000206000820151816000015560208201518160010190816119779190614cf8565b50604082015181600201908161198d9190614cf8565b5060608201518160030190816119a39190614cf8565b506080820151816004015560a08201518160050160006101000a81548160ff02191690831515021790555060c08201518160060190816119e39190614cf8565b5060e08201518160070190816119f99190614cf8565b50610100820151816008019081611a109190614cf8565b50610120820151816009019080519060200190611a2e92919061401a565b5061014082015181600a015590505060046000815480929190611a5090614df9565b91905055505050505050565b60055481565b600c602052806000526040600020600091509050806000015490806001018054611a8b90614aaf565b80601f0160208091040260200160405190810160405280929190818152602001828054611ab790614aaf565b8015611b045780601f10611ad957610100808354040283529160200191611b04565b820191906000526020600020905b815481529060010190602001808311611ae757829003601f168201915b505050505090806002018054611b1990614aaf565b80601f0160208091040260200160405190810160405280929190818152602001828054611b4590614aaf565b8015611b925780601f10611b6757610100808354040283529160200191611b92565b820191906000526020600020905b815481529060010190602001808311611b7557829003601f168201915b505050505090806003015490806004018054611bad90614aaf565b80601f0160208091040260200160405190810160405280929190818152602001828054611bd990614aaf565b8015611c265780601f10611bfb57610100808354040283529160200191611c26565b820191906000526020600020905b815481529060010190602001808311611c0957829003601f168201915b5050505050908060050160009054906101000a900473ffffffffffffffffffffffffffffffffffffffff1690806008015490806009018054611c6790614aaf565b80601f0160208091040260200160405190810160405280929190818152602001828054611c9390614aaf565b8015611ce05780601f10611cb557610100808354040283529160200191611ce0565b820191906000526020600020905b815481529060010190602001808311611cc357829003601f168201915b50505050509080600a0160009054906101000a900460ff169080600b01549080600c015490508b565b6000600a60003373ffffffffffffffffffffffffffffffffffffffff1673ffffffffffffffffffffffffffffffffffffffff1681526020019081526020016000206000015403611d8e576040517f08c379a0000000000000000000000000000000000000000000000000000000008152600401611d8590614b2c565b60405180910390fd5b6000600c60006006548152602001908152602001600020604051806101a001604052908160008201548152602001600182018054611dcb90614aaf565b80601f0160208091040260200160405190810160405280929190818152602001828054611df790614aaf565b8015611e445780601f10611e1957610100808354040283529160200191611e44565b820191906000526020600020905b815481529060010190602001808311611e2757829003601f168201915b50505050508152602001600282018054611e5d90614aaf565b80601f0160208091040260200160405190810160405280929190818152602001828054611e8990614aaf565b8015611ed65780601f10611eab57610100808354040283529160200191611ed6565b820191906000526020600020905b815481529060010190602001808311611eb957829003601f168201915b5050505050815260200160038201548152602001600482018054611ef990614aaf565b80601f0160208091040260200160405190810160405280929190818152602001828054611f2590614aaf565b8015611f725780601f10611f4757610100808354040283529160200191611f72565b820191906000526020600020905b815481529060010190602001808311611f5557829003601f168201915b505050505081526020016005820160009054906101000a900473ffffffffffffffffffffffffffffffffffffffff1673ffffffffffffffffffffffffffffffffffffffff1673ffffffffffffffffffffffffffffffffffffffff1681526020016006820180548060200260200160405190810160405280929190818152602001828054801561205657602002820191906000526020600020905b8160009054906101000a900473ffffffffffffffffffffffffffffffffffffffff1673ffffffffffffffffffffffffffffffffffffffff168152602001906001019080831161200c575b50505050508152602001600782018054806020026020016040519081016040528092919081815260200182805480156120ae57602002820191906000526020600020905b81548152602001906001019080831161209a575b50505050508152602001600882015481526020016009820180546120d190614aaf565b80601f01602080910402602001604051908101604052809291908181526020018280546120fd90614aaf565b801561214a5780601f1061211f5761010080835404028352916020019161214a565b820191906000526020600020905b81548152906001019060200180831161212d57829003601f168201915b50505050508152602001600a820160009054906101000a900460ff16151515158152602001600b8201548152602001600c820154815250509050604051806101a001604052806006548152602001858152602001848152602001838152602001826080015181526020013373ffffffffffffffffffffffffffffffffffffffff1681526020018260c0015181526020018260e00151815260200160008152602001826101200151815260200160001515815260200142815260200142815250600c6000600654815260200190815260200160002060008201518160000155602082015181600101908161223d9190614cf8565b5060408201518160020190816122539190614cf8565b506060820151816003015560808201518160040190816122739190614cf8565b5060a08201518160050160006101000a81548173ffffffffffffffffffffffffffffffffffffffff021916908373ffffffffffffffffffffffffffffffffffffffff16021790555060c08201518160060190805190602001906122d7929190614067565b5060e08201518160070190805190602001906122f492919061401a565b5061010082015181600801556101208201518160090190816123169190614cf8565b5061014082015181600a0160006101000a81548160ff02191690831515021790555061016082015181600b015561018082015181600c0155905050600a60003373ffffffffffffffffffffffffffffffffffffffff1673ffffffffffffffffffffffffffffffffffffffff1681526020019081526020016000206009016006549080600181540180825580915050600190039060005260206000200160009091909190915055600660008154809291906123cf90614df9565b919050555050505050565b600b60205280600052604060002060009150905080600001549080600101805461240390614aaf565b80601f016020809104026020016040519081016040528092919081815260200182805461242f90614aaf565b801561247c5780601f106124515761010080835404028352916020019161247c565b820191906000526020600020905b81548152906001019060200180831161245f57829003601f168201915b50505050509080600201805461249190614aaf565b80601f01602080910402602001604051908101604052809291908181526020018280546124bd90614aaf565b801561250a5780601f106124df5761010080835404028352916020019161250a565b820191906000526020600020905b8154815290600101906020018083116124ed57829003601f168201915b50505050509080600301549080600401805461252590614aaf565b80601f016020809104026020016040519081016040528092919081815260200182805461255190614aaf565b801561259e5780601f106125735761010080835404028352916020019161259e565b820191906000526020600020905b81548152906001019060200180831161258157829003601f168201915b5050505050908060050180546125b390614aaf565b80601f01602080910402602001604051908101604052809291908181526020018280546125df90614aaf565b801561262c5780601f106126015761010080835404028352916020019161262c565b820191906000526020600020905b81548152906001019060200180831161260f57829003601f168201915b5050505050908060060154905087565b60075481565b6000600a60003373ffffffffffffffffffffffffffffffffffffffff1673ffffffffffffffffffffffffffffffffffffffff16815260200190815260200160002060000154036126c7576040517f08c379a00000000000000000000000000000000000000000000000000000000081526004016126be90614b2c565b60405180910390fd5b6000600c6000848152602001908152602001600020604051806101a00160405290816000820154815260200160018201805461270290614aaf565b80601f016020809104026020016040519081016040528092919081815260200182805461272e90614aaf565b801561277b5780601f106127505761010080835404028352916020019161277b565b820191906000526020600020905b81548152906001019060200180831161275e57829003601f168201915b5050505050815260200160028201805461279490614aaf565b80601f01602080910402602001604051908101604052809291908181526020018280546127c090614aaf565b801561280d5780601f106127e25761010080835404028352916020019161280d565b820191906000526020600020905b8154815290600101906020018083116127f057829003601f168201915b505050505081526020016003820154815260200160048201805461283090614aaf565b80601f016020809104026020016040519081016040528092919081815260200182805461285c90614aaf565b80156128a95780601f1061287e576101008083540402835291602001916128a9565b820191906000526020600020905b81548152906001019060200180831161288c57829003601f168201915b505050505081526020016005820160009054906101000a900473ffffffffffffffffffffffffffffffffffffffff1673ffffffffffffffffffffffffffffffffffffffff1673ffffffffffffffffffffffffffffffffffffffff1681526020016006820180548060200260200160405190810160405280929190818152602001828054801561298d57602002820191906000526020600020905b8160009054906101000a900473ffffffffffffffffffffffffffffffffffffffff1673ffffffffffffffffffffffffffffffffffffffff1681526020019060010190808311612943575b50505050508152602001600782018054806020026020016040519081016040528092919081815260200182805480156129e557602002820191906000526020600020905b8154815260200190600101908083116129d1575b5050505050815260200160088201548152602001600982018054612a0890614aaf565b80601f0160208091040260200160405190810160405280929190818152602001828054612a3490614aaf565b8015612a815780601f10612a5657610100808354040283529160200191612a81565b820191906000526020600020905b815481529060010190602001808311612a6457829003601f168201915b50505050508152602001600a820160009054906101000a900460ff16151515158152602001600b8201548152602001600c8201548152505090506000816000015103612b02576040517f08c379a0000000000000000000000000000000000000000000000000000000008152600401612af990614f67565b60405180910390fd5b3373ffffffffffffffffffffffffffffffffffffffff168160a0015173ffffffffffffffffffffffffffffffffffffffff1614612b74576040517f08c379a0000000000000000000000000000000000000000000000000000000008152600401612b6b90614b2c565b60405180910390fd5b6000600e60008581526020019081526020016000208381548110612b9b57612b9a614e5c565b5b90600052602060002090600402016000015403612bed576040517f08c379a0000000000000000000000000000000000000000000000000000000008152600401612be490614f67565b60405180910390fd5b600e60008481526020019081526020016000208281548110612c1257612c11614e5c565b5b9060005260206000209060040201600080820160009055600182016000612c3991906140f1565b600282016000612c4991906140f1565b600382016000612c5991906140f1565b5050505050565b6009602052806000526040600020600091509050806000015490806001018054612c8990614aaf565b80601f0160208091040260200160405190810160405280929190818152602001828054612cb590614aaf565b8015612d025780601f10612cd757610100808354040283529160200191612d02565b820191906000526020600020905b815481529060010190602001808311612ce557829003601f168201915b505050505090806002018054612d1790614aaf565b80601f0160208091040260200160405190810160405280929190818152602001828054612d4390614aaf565b8015612d905780601f10612d6557610100808354040283529160200191612d90565b820191906000526020600020905b815481529060010190602001808311612d7357829003601f168201915b5050505050905083565b6000600b60003373ffffffffffffffffffffffffffffffffffffffff1673ffffffffffffffffffffffffffffffffffffffff1681526020019081526020016000206000015403612e1f576040517f08c379a0000000000000000000000000000000000000000000000000000000008152600401612e1690614b2c565b60405180910390fd5b6000600c600083815260200190815260200160002090506000816000015403612e7d576040517f08c379a0000000000000000000000000000000000000000000000000000000008152600401612e7490614f67565b60405180910390fd5b600160009054906101000a900473ffffffffffffffffffffffffffffffffffffffff1673ffffffffffffffffffffffffffffffffffffffff16636c43a2ca333084600801546040518463ffffffff1660e01b8152600401612ee093929190614e8b565b6020604051808303816000875af1158015612eff573d6000803e3d6000fd5b505050506040513d601f19601f82011682018060405250810190612f239190614eee565b50600160009054906101000a900473ffffffffffffffffffffffffffffffffffffffff1673ffffffffffffffffffffffffffffffffffffffff166323b872dd333084600801546040518463ffffffff1660e01b8152600401612f8793929190614e8b565b6020604051808303816000875af1158015612fa6573d6000803e3d6000fd5b505050506040513d601f19601f82011682018060405250810190612fca9190614eee565b50600d60003373ffffffffffffffffffffffffffffffffffffffff1673ffffffffffffffffffffffffffffffffffffffff1681526020019081526020016000206040518060a0016040528084815260200160011515815260200183600801548152602001600081526020014281525090806001815401808255809150506001900390600052602060002090600502016000909190919091506000820151816000015560208201518160010160006101000a81548160ff02191690831515021790555060408201518160020155606082015181600301556080820151816004015550507fba05698ffe932ba01d3d70f62a2e48d6719cc5df3bdcf9118015af495c4a39b18160050160009054906101000a900473ffffffffffffffffffffffffffffffffffffffff16338460405161310393929190614e8b565b60405180910390a15050565b6000600a60008373ffffffffffffffffffffffffffffffffffffffff1673ffffffffffffffffffffffffffffffffffffffff168152602001908152602001600020600901805490509050919050565b6000600a60003373ffffffffffffffffffffffffffffffffffffffff1673ffffffffffffffffffffffffffffffffffffffff16815260200190815260200160002060000154036131e3576040517f08c379a00000000000000000000000000000000000000000000000000000000081526004016131da90614b2c565b60405180910390fd5b6000600c6000878152602001908152602001600020604051806101a00160405290816000820154815260200160018201805461321e90614aaf565b80601f016020809104026020016040519081016040528092919081815260200182805461324a90614aaf565b80156132975780601f1061326c57610100808354040283529160200191613297565b820191906000526020600020905b81548152906001019060200180831161327a57829003601f168201915b505050505081526020016002820180546132b090614aaf565b80601f01602080910402602001604051908101604052809291908181526020018280546132dc90614aaf565b80156133295780601f106132fe57610100808354040283529160200191613329565b820191906000526020600020905b81548152906001019060200180831161330c57829003601f168201915b505050505081526020016003820154815260200160048201805461334c90614aaf565b80601f016020809104026020016040519081016040528092919081815260200182805461337890614aaf565b80156133c55780601f1061339a576101008083540402835291602001916133c5565b820191906000526020600020905b8154815290600101906020018083116133a857829003601f168201915b505050505081526020016005820160009054906101000a900473ffffffffffffffffffffffffffffffffffffffff1673ffffffffffffffffffffffffffffffffffffffff1673ffffffffffffffffffffffffffffffffffffffff168152602001600682018054806020026020016040519081016040528092919081815260200182805480156134a957602002820191906000526020600020905b8160009054906101000a900473ffffffffffffffffffffffffffffffffffffffff1673ffffffffffffffffffffffffffffffffffffffff168152602001906001019080831161345f575b505050505081526020016007820180548060200260200160405190810160405280929190818152602001828054801561350157602002820191906000526020600020905b8154815260200190600101908083116134ed575b505050505081526020016008820154815260200160098201805461352490614aaf565b80601f016020809104026020016040519081016040528092919081815260200182805461355090614aaf565b801561359d5780601f106135725761010080835404028352916020019161359d565b820191906000526020600020905b81548152906001019060200180831161358057829003601f168201915b50505050508152602001600a820160009054906101000a900460ff16151515158152602001600b8201548152602001600c820154815250509050600081600001510361361e576040517f08c379a000000000000000000000000000000000000000000000000000000000815260040161361590614f67565b60405180910390fd5b3373ffffffffffffffffffffffffffffffffffffffff168160a0015173ffffffffffffffffffffffffffffffffffffffff1614613690576040517f08c379a000000000000000000000000000000000000000000000000000000000815260040161368790614b2c565b60405180910390fd5b6000820361376a57600e600087815260200190815260200160002060405180608001604052806001600e60008b8152602001908152602001600020805490506136d99190614f87565b81526020018781526020018681526020018581525090806001815401808255809150506001900390600052602060002090600402016000909190919091506000820151816000015560208201518160010190816137369190614cf8565b50604082015181600201908161374c9190614cf8565b5060608201518160030190816137629190614cf8565b50505061380e565b604051806080016040528083815260200186815260200185815260200184815250600e600088815260200190815260200160002083815481106137b0576137af614e5c565b5b90600052602060002090600402016000820151816000015560208201518160010190816137dd9190614cf8565b5060408201518160020190816137f39190614cf8565b5060608201518160030190816138099190614cf8565b509050505b505050505050565b6000600b60003373ffffffffffffffffffffffffffffffffffffffff1673ffffffffffffffffffffffffffffffffffffffff168152602001908152602001600020600001540361389b576040517f08c379a000000000000000000000000000000000000000000000000000000000815260040161389290614b2c565b60405180910390fd5b6000600d60003373ffffffffffffffffffffffffffffffffffffffff1673ffffffffffffffffffffffffffffffffffffffff16815260200190815260200160002083815481106138ee576138ed614e5c565b5b90600052602060002090600502016040518060a0016040529081600082015481526020016001820160009054906101000a900460ff16151515158152602001600282015481526020016003820154815260200160048201548152505090506000600c6000858152602001908152602001600020604051806101a00160405290816000820154815260200160018201805461398790614aaf565b80601f01602080910402602001604051908101604052809291908181526020018280546139b390614aaf565b8015613a005780601f106139d557610100808354040283529160200191613a00565b820191906000526020600020905b8154815290600101906020018083116139e357829003601f168201915b50505050508152602001600282018054613a1990614aaf565b80601f0160208091040260200160405190810160405280929190818152602001828054613a4590614aaf565b8015613a925780601f10613a6757610100808354040283529160200191613a92565b820191906000526020600020905b815481529060010190602001808311613a7557829003601f168201915b5050505050815260200160038201548152602001600482018054613ab590614aaf565b80601f0160208091040260200160405190810160405280929190818152602001828054613ae190614aaf565b8015613b2e5780601f10613b0357610100808354040283529160200191613b2e565b820191906000526020600020905b815481529060010190602001808311613b1157829003601f168201915b505050505081526020016005820160009054906101000a900473ffffffffffffffffffffffffffffffffffffffff1673ffffffffffffffffffffffffffffffffffffffff1673ffffffffffffffffffffffffffffffffffffffff16815260200160068201805480602002602001604051908101604052809291908181526020018280548015613c1257602002820191906000526020600020905b8160009054906101000a900473ffffffffffffffffffffffffffffffffffffffff1673ffffffffffffffffffffffffffffffffffffffff1681526020019060010190808311613bc8575b5050505050815260200160078201805480602002602001604051908101604052809291908181526020018280548015613c6a57602002820191906000526020600020905b815481526020019060010190808311613c56575b5050505050815260200160088201548152602001600982018054613c8d90614aaf565b80601f0160208091040260200160405190810160405280929190818152602001828054613cb990614aaf565b8015613d065780601f10613cdb57610100808354040283529160200191613d06565b820191906000526020600020905b815481529060010190602001808311613ce957829003601f168201915b50505050508152602001600a820160009054906101000a900460ff16151515158152602001600b8201548152602001600c8201548152505090506000816000015103613d87576040517f08c379a0000000000000000000000000000000000000000000000000000000008152600401613d7e90614f67565b60405180910390fd5b6002826080015111613dce576040517f08c379a0000000000000000000000000000000000000000000000000000000008152600401613dc590615007565b60405180910390fd5b6000838360600151613de09190615027565b905060008111613e25576040517f08c379a0000000000000000000000000000000000000000000000000000000008152600401613e1c906150a7565b60405180910390fd5b600082610100015182613e3891906150c7565b9050600d60003373ffffffffffffffffffffffffffffffffffffffff1673ffffffffffffffffffffffffffffffffffffffff1681526020019081526020016000208681548110613e8b57613e8a614e5c565b5b90600052602060002090600502016000808201600090556001820160006101000a81549060ff02191690556002820160009055600382016000905560048201600090555050600160009054906101000a900473ffffffffffffffffffffffffffffffffffffffff1673ffffffffffffffffffffffffffffffffffffffff166323b872dd3033846040518463ffffffff1660e01b8152600401613f2f93929190614e8b565b6020604051808303816000875af1158015613f4e573d6000803e3d6000fd5b505050506040513d601f19601f82011682018060405250810190613f729190614eee565b507fdc66f972de0418acb83d72185cdafd8f63206f06f26f08008effbcf11495f2fd33878660600151604051613faa93929190615109565b60405180910390a1505050505050565b600d6020528160005260406000208181548110613fd657600080fd5b9060005260206000209060050201600091509150508060000154908060010160009054906101000a900460ff16908060020154908060030154908060040154905085565b828054828255906000526020600020908101928215614056579160200282015b8281111561405557825182559160200191906001019061403a565b5b5090506140639190614131565b5090565b8280548282559060005260206000209081019282156140e0579160200282015b828111156140df5782518260006101000a81548173ffffffffffffffffffffffffffffffffffffffff021916908373ffffffffffffffffffffffffffffffffffffffff16021790555091602001919060010190614087565b5b5090506140ed9190614131565b5090565b5080546140fd90614aaf565b6000825580601f1061410f575061412e565b601f01602090049060005260206000209081019061412d9190614131565b5b50565b5b8082111561414a576000816000905550600101614132565b5090565b6000604051905090565b600080fd5b600080fd5b6000819050919050565b61417581614162565b811461418057600080fd5b50565b6000813590506141928161416c565b92915050565b600080604083850312156141af576141ae614158565b5b60006141bd85828601614183565b92505060206141ce85828601614183565b9150509250929050565b6141e181614162565b82525050565b600081519050919050565b600082825260208201905092915050565b60005b83811015614221578082015181840152602081019050614206565b60008484015250505050565b6000601f19601f8301169050919050565b6000614249826141e7565b61425381856141f2565b9350614263818560208601614203565b61426c8161422d565b840191505092915050565b600060808201905061428c60008301876141d8565b818103602083015261429e818661423e565b905081810360408301526142b2818561423e565b905081810360608301526142c6818461423e565b905095945050505050565b6000602082840312156142e7576142e6614158565b5b60006142f584828501614183565b91505092915050565b600060208201905061431360008301846141d8565b92915050565b600080fd5b600080fd5b7f4e487b7100000000000000000000000000000000000000000000000000000000600052604160045260246000fd5b61435b8261422d565b810181811067ffffffffffffffff8211171561437a57614379614323565b5b80604052505050565b600061438d61414e565b90506143998282614352565b919050565b600067ffffffffffffffff8211156143b9576143b8614323565b5b6143c28261422d565b9050602081019050919050565b82818337600083830152505050565b60006143f16143ec8461439e565b614383565b90508281526020810184848401111561440d5761440c61431e565b5b6144188482856143cf565b509392505050565b600082601f83011261443557614434614319565b5b81356144458482602086016143de565b91505092915050565b60008060006060848603121561446757614466614158565b5b600084013567ffffffffffffffff8111156144855761448461415d565b5b61449186828701614420565b935050602084013567ffffffffffffffff8111156144b2576144b161415d565b5b6144be86828701614420565b92505060406144cf86828701614183565b9150509250925092565b600073ffffffffffffffffffffffffffffffffffffffff82169050919050565b6000614504826144d9565b9050919050565b614514816144f9565b811461451f57600080fd5b50565b6000813590506145318161450b565b92915050565b6000806040838503121561454e5761454d614158565b5b600061455c85828601614522565b925050602061456d85828601614183565b9150509250929050565b6000806040838503121561458e5761458d614158565b5b600083013567ffffffffffffffff8111156145ac576145ab61415d565b5b6145b885828601614420565b925050602083013567ffffffffffffffff8111156145d9576145d861415d565b5b6145e585828601614420565b9150509250929050565b60006020828403121561460557614604614158565b5b600061461384828501614522565b91505092915050565b60008115159050919050565b6146318161461c565b82525050565b60006101408201905061464d600083018d6141d8565b818103602083015261465f818c61423e565b90508181036040830152614673818b61423e565b90508181036060830152614687818a61423e565b905061469660808301896141d8565b6146a360a0830188614628565b81810360c08301526146b5818761423e565b905081810360e08301526146c9818661423e565b90508181036101008301526146de818561423e565b90506146ee6101208301846141d8565b9b9a5050505050505050505050565b6000806000806080858703121561471757614716614158565b5b600085013567ffffffffffffffff8111156147355761473461415d565b5b61474187828801614420565b945050602085013567ffffffffffffffff8111156147625761476161415d565b5b61476e87828801614420565b935050604085013567ffffffffffffffff81111561478f5761478e61415d565b5b61479b87828801614420565b92505060606147ac87828801614183565b91505092959194509250565b6147c1816144f9565b82525050565b6000610160820190506147dd600083018e6141d8565b81810360208301526147ef818d61423e565b90508181036040830152614803818c61423e565b9050614812606083018b6141d8565b8181036080830152614824818a61423e565b905061483360a08301896147b8565b61484060c08301886141d8565b81810360e0830152614852818761423e565b9050614862610100830186614628565b6148706101208301856141d8565b61487e6101408301846141d8565b9c9b505050505050505050505050565b600060e0820190506148a3600083018a6141d8565b81810360208301526148b5818961423e565b905081810360408301526148c9818861423e565b90506148d860608301876141d8565b81810360808301526148ea818661423e565b905081810360a08301526148fe818561423e565b905061490d60c08301846141d8565b98975050505050505050565b600060608201905061492e60008301866141d8565b8181036020830152614940818561423e565b90508181036040830152614954818461423e565b9050949350505050565b600080600080600060a0868803121561497a57614979614158565b5b600061498888828901614183565b955050602086013567ffffffffffffffff8111156149a9576149a861415d565b5b6149b588828901614420565b945050604086013567ffffffffffffffff8111156149d6576149d561415d565b5b6149e288828901614420565b935050606086013567ffffffffffffffff811115614a0357614a0261415d565b5b614a0f88828901614420565b9250506080614a2088828901614183565b9150509295509295909350565b600060a082019050614a4260008301886141d8565b614a4f6020830187614628565b614a5c60408301866141d8565b614a6960608301856141d8565b614a7660808301846141d8565b9695505050505050565b7f4e487b7100000000000000000000000000000000000000000000000000000000600052602260045260246000fd5b60006002820490506001821680614ac757607f821691505b602082108103614ada57614ad9614a80565b5b50919050565b7f21617574686f72697a6564000000000000000000000000000000000000000000600082015250565b6000614b16600b836141f2565b9150614b2182614ae0565b602082019050919050565b60006020820190508181036000830152614b4581614b09565b9050919050565b60008190508160005260206000209050919050565b60006020601f8301049050919050565b600082821b905092915050565b600060088302614bae7fffffffffffffffffffffffffffffffffffffffffffffffffffffffffffffffff82614b71565b614bb88683614b71565b95508019841693508086168417925050509392505050565b6000819050919050565b6000614bf5614bf0614beb84614162565b614bd0565b614162565b9050919050565b6000819050919050565b614c0f83614bda565b614c23614c1b82614bfc565b848454614b7e565b825550505050565b600090565b614c38614c2b565b614c43818484614c06565b505050565b5b81811015614c6757614c5c600082614c30565b600181019050614c49565b5050565b601f821115614cac57614c7d81614b4c565b614c8684614b61565b81016020851015614c95578190505b614ca9614ca185614b61565b830182614c48565b50505b505050565b600082821c905092915050565b6000614ccf60001984600802614cb1565b1980831691505092915050565b6000614ce88383614cbe565b9150826002028217905092915050565b614d01826141e7565b67ffffffffffffffff811115614d1a57614d19614323565b5b614d248254614aaf565b614d2f828285614c6b565b600060209050601f831160018114614d625760008415614d50578287015190505b614d5a8582614cdc565b865550614dc2565b601f198416614d7086614b4c565b60005b82811015614d9857848901518255600182019150602085019450602081019050614d73565b86831015614db55784890151614db1601f891682614cbe565b8355505b6001600288020188555050505b505050505050565b7f4e487b7100000000000000000000000000000000000000000000000000000000600052601160045260246000fd5b6000614e0482614162565b91507fffffffffffffffffffffffffffffffffffffffffffffffffffffffffffffffff8203614e3657614e35614dca565b5b600182019050919050565b6000602082019050614e5660008301846147b8565b92915050565b7f4e487b7100000000000000000000000000000000000000000000000000000000600052603260045260246000fd5b6000606082019050614ea060008301866147b8565b614ead60208301856147b8565b614eba60408301846141d8565b949350505050565b614ecb8161461c565b8114614ed657600080fd5b50565b600081519050614ee881614ec2565b92915050565b600060208284031215614f0457614f03614158565b5b6000614f1284828501614ed9565b91505092915050565b7f2165786973747300000000000000000000000000000000000000000000000000600082015250565b6000614f516007836141f2565b9150614f5c82614f1b565b602082019050919050565b60006020820190508181036000830152614f8081614f44565b9050919050565b6000614f9282614162565b9150614f9d83614162565b9250828201905080821115614fb557614fb4614dca565b5b92915050565b7f3e327765656b732e000000000000000000000000000000000000000000000000600082015250565b6000614ff16008836141f2565b9150614ffc82614fbb565b602082019050919050565b6000602082019050818103600083015261502081614fe4565b9050919050565b600061503282614162565b915061503d83614162565b925082820390508181111561505557615054614dca565b5b92915050565b7f21726566756e61626c6500000000000000000000000000000000000000000000600082015250565b6000615091600a836141f2565b915061509c8261505b565b602082019050919050565b600060208201905081810360008301526150c081615084565b9050919050565b60006150d282614162565b91506150dd83614162565b92508282026150eb81614162565b9150828204841483151761510257615101614dca565b5b5092915050565b600060608201905061511e60008301866147b8565b61512b60208301856141d8565b61513860408301846141d8565b94935050505056fea2646970667358221220640f7f5e84118177eedfe76018125189580a7f90eab65ae754301506e79953f564736f6c634300081100332f696d616765732f63617465676f726965732f696c6c757374726174696f6e2e776562702f696d616765732f63617465676f726965732f616e696d6174696f6e2e776562702f696d616765732f63617465676f726965732f70686f746f6772617068792e776562702f696d616765732f63617465676f726965732f7765622d646576656c6f706d656e742e776562702f696d616765732f63617465676f726965732f646174612d736369656e63652e776562702f696d616765732f63617465676f726965732f6d61726b6574696e672e77656270",
  "immutableReferences": {},
  "source": "// SPDX-License-Identifier: GPL-3.0\n\npragma solidity >=0.7.0 <0.9.0;\n\nimport \"./BdlToken.sol\";\nimport \"./BdlNft.sol\";\nimport \"./BdlCertificate.sol\";\nimport \"./Models.sol\";\n\ncontract Buidl {\n    // state variables\n    address deployer;\n\n    BdlToken bdlToken;\n    BdlNft bdlNft;\n    BdlCertificate bdlCertificate;\n\n    uint256 public contractInstructorID = 1;\n    uint256 public contractStudentID = 1;\n    uint256 public contractCourseID = 1;\n    uint256 public contractCategoryID = 1;\n\n    // minimum to stake for a duration of 1year\n    uint256 instructorRegistrationFee = 2000 * 10**18;\n\n    mapping(uint => Models.Category) public categories;\n    mapping(address => Models.Instructor) public instructors;\n    mapping(address => Models.Student) public students;\n    mapping(uint => Models.Course) public courses;\n    mapping(address => Models.StudentCourse[]) public studentCourses;\n    mapping(uint => Models.CourseSection[]) public courseSections;\n\n    // contructor\n    constructor(\n        address _bdlToken,\n        address _bdlNft,\n        address _bdlCertificate\n    ) {\n        deployer = msg.sender;\n        bdlToken = BdlToken(_bdlToken);\n        bdlNft = BdlNft(_bdlNft);\n        bdlCertificate = BdlCertificate(_bdlCertificate);\n\n        addTestCategories();\n    }\n\n    // ========= Administation ========= //\n\n    function setInstructorRegistrationFee(uint256 amount) public onlyOwner {\n        instructorRegistrationFee = amount;\n    }\n\n    function addCategory(string memory name, string memory image)\n        public\n        onlyOwner\n    {\n        categories[contractCategoryID] = Models.Category(\n            contractCategoryID,\n            name,\n            image\n        );\n\n        contractCategoryID++;\n    }\n\n    // test\n    function mint() public {\n        bdlNft.mint(msg.sender);\n    }\n\n    // ========== Testing ========== //\n    function faucetMint() public {\n        bdlToken.mint(msg.sender);\n    }\n\n    // ========= Instructors =========== //\n\n    function createCourse(\n        string memory name,\n        string memory description,\n        uint categoryId\n    ) public onlyInstructor {\n        Models.Course memory course = courses[contractCourseID];\n\n        // create new freah course\n        courses[contractCourseID] = Models.Course(\n            contractCourseID,\n            name,\n            description,\n            categoryId,\n            course.ipfsPhoto,\n            msg.sender,\n            course.students,\n            course.ratings,\n            0,\n            course.metadata,\n            false,\n            block.timestamp,\n            block.timestamp\n        );\n\n        // assign course ownership to intructor\n        instructors[msg.sender].courses.push(contractCourseID);\n\n        // increment id\n        contractCourseID++;\n    }\n\n    function addSectionToCourse(\n        uint courseId,\n        string memory title,\n        string memory src,\n        string memory content,\n        uint updateFor\n    ) public onlyInstructor {\n        Models.Course memory course = courses[courseId];\n\n        require(course.id != 0, \"!exists\");\n        require(course.instructor == msg.sender, \"!authorized\");\n\n        if (updateFor == 0) {\n            courseSections[courseId].push(\n                Models.CourseSection(\n                    courseSections[courseId].length + 1,\n                    title,\n                    src,\n                    content\n                )\n            );\n        } else {\n            courseSections[courseId][updateFor] = Models.CourseSection(\n                updateFor,\n                title,\n                src,\n                content\n            );\n        }\n    }\n\n    function deleteCourseSection(uint courseId, uint sectionIndex)\n        public\n        onlyInstructor\n    {\n        Models.Course memory course = courses[courseId];\n\n        require(course.id != 0, \"!exists\");\n        require(course.instructor == msg.sender, \"!authorized\");\n        require(courseSections[courseId][sectionIndex].id != 0, \"!exists\");\n\n        delete courseSections[courseId][sectionIndex];\n    }\n\n    function getInstructorCoursesLength(address instructor)\n        public\n        view\n        returns (uint)\n    {\n        return instructors[instructor].courses.length;\n    }\n\n    function getInstructorCourseIdAtIndex(address instructor, uint index)\n        public\n        view\n        returns (uint)\n    {\n        return instructors[instructor].courses[index];\n    }\n\n    function createInstructorAccount(\n        string memory firstName,\n        string memory lastName,\n        string memory location,\n        uint gender\n    ) public notAnyone {\n        // stake instruction fee\n        bdlToken.increaseAllowance(\n            msg.sender,\n            address(this),\n            instructorRegistrationFee\n        );\n\n        bdlToken.transferFrom(\n            msg.sender,\n            address(this),\n            instructorRegistrationFee\n        );\n\n        Models.Instructor memory instructor = instructors[msg.sender];\n\n        instructors[msg.sender] = Models.Instructor(\n            contractInstructorID,\n            firstName,\n            lastName,\n            location,\n            gender,\n            false,\n            instructor.ipfsPhoto,\n            instructor.twitter,\n            instructor.linkedin,\n            instructor.courses,\n            block.timestamp\n        );\n\n        contractInstructorID++;\n    }\n\n    // ========= Students ========== //\n\n    function createStudentAccount(\n        string memory name,\n        string memory email,\n        uint gender\n    ) public notAnyone {\n        Models.Student memory student = students[msg.sender];\n\n        students[msg.sender] = Models.Student(\n            contractStudentID,\n            name,\n            email,\n            gender,\n            student.ipfsPhoto,\n            student.country,\n            block.timestamp,\n            student.courses\n        );\n\n        contractStudentID++;\n    }\n\n    function purchaseCourse(uint courseId) public onlyStudent {\n        Models.Course storage course = courses[courseId];\n\n        require(course.id != 0, \"!exists\");\n\n        // lock the student funds to smart contract\n        bdlToken.increaseAllowance(msg.sender, address(this), course.price);\n        bdlToken.transferFrom(msg.sender, address(this), course.price);\n\n        // create course for student\n        studentCourses[msg.sender].push(\n            Models.StudentCourse(\n                courseId,\n                true,\n                course.price,\n                0,\n                block.timestamp\n            )\n        );\n\n        emit CoursePurchased(course.instructor, msg.sender, courseId);\n    }\n\n    function rejectCourse(uint courseId, uint sections) public onlyStudent {\n        Models.StudentCourse memory studentCourse = studentCourses[msg.sender][\n            courseId\n        ];\n\n        Models.Course memory course = courses[courseId];\n\n        require(course.id != 0, \"!exists\");\n\n        // check is course is not over 2 weeks\n        require(studentCourse.purchasedAt > 2, \">2weeks.\");\n\n        uint refundableSections = (studentCourse.sectionsViewed - sections);\n\n        require(refundableSections > 0, \"!refunable\");\n\n        uint256 refundableAmount = (refundableSections * course.price);\n\n        // terminate student course\n        delete studentCourses[msg.sender][courseId];\n\n        // refund the student\n        bdlToken.transferFrom(address(this), msg.sender, refundableAmount);\n\n        emit CourseRejected(msg.sender, courseId, studentCourse.sectionsViewed);\n    }\n\n    // function onNextCourseSection(\n    //     uint courseId,\n    //     uint sections,\n    //     string memory uri\n    // ) public onlyStudent returns (string memory) {\n    //     Models.Course storage course = courses[courseId];\n\n    //     require(course.id != 0, \"!exists\");\n\n    //     Models.StudentCourse storage studentCourse = studentCourses[msg.sender][\n    //         courseId\n    //     ];\n\n    //     // students moved to another section of the course\n    //     // unlock part payment to the instructor (conditionally)\n    //     uint pricePerSection = (course.price / sections);\n\n    //     if (studentCourse.unlocked >= pricePerSection) {\n    //         studentCourse.unlocked -= pricePerSection;\n    //         bdlToken.transferFrom(\n    //             address(this),\n    //             course.instructor,\n    //             pricePerSection\n    //         );\n    //     }\n\n    //     // checks if students has completed the course\n    //     uint progress = (studentCourse.sectionsViewed / sections);\n\n    //     if (progress >= 1) {\n    //         onCompletedCourse(msg.sender, courseId, uri);\n    //         return \"course_completed\";\n    //     } else {\n    //         studentCourse.sectionsViewed++;\n    //         return \"course_next_section\";\n    //     }\n    // }\n\n    function onCompletedCourse(\n        address student,\n        uint courseId,\n        string memory uri\n    ) private {\n        require(courses[courseId].id != 0, \"!exists\");\n        generateCerticate(courseId, student, uri);\n        bdlNft.mint(student);\n    }\n\n    function generateCerticate(\n        uint courseId,\n        address student,\n        string memory uri\n    ) private {\n        bdlCertificate.issue(student, uri);\n        emit CertificateIssued(student, courseId);\n    }\n\n    modifier onlyInstructor() {\n        require(instructors[msg.sender].id != 0, \"!authorized\");\n        _;\n    }\n\n    modifier onlyStudent() {\n        require(students[msg.sender].id != 0, \"!authorized\");\n        _;\n    }\n\n    modifier onlyOwner() {\n        require(msg.sender == deployer, \"!authorized\");\n        _;\n    }\n\n    modifier notAnyone() {\n        require(\n            (students[msg.sender].id == 0 && instructors[msg.sender].id == 0),\n            \"!authorized\"\n        );\n        _;\n    }\n\n    // ========== events ========== //\n    event CourseCompletion(address student, uint courseId);\n    event CertificateIssued(address student, uint courseId);\n    event CoursePurchased(address intructor, address student, uint courseId);\n    event CourseRejected(address student, uint courseId, uint sectionsViewed);\n\n    // ========== test =========== //\n    function addTestCategories() private {\n        addCategory(\n            \"Web Development\",\n            \"/images/categories/web-development.webp\"\n        );\n        addCategory(\"Cooking\", \"/images/categories/cooking.webp\");\n        addCategory(\"UI/UX Designing\", \"/images/categories/ui-ux.webp\");\n        addCategory(\"3D Animation\", \"/images/categories/animation.webp\");\n        addCategory(\"Illustration\", \"/images/categories/illustration.webp\");\n        addCategory(\"Data Science\", \"/images/categories/data-science.webp\");\n        addCategory(\"Speaking\", \"/images/categories/speaking.webp\");\n        addCategory(\"Music\", \"/images/categories/music.webp\");\n        addCategory(\"Photography\", \"/images/categories/photography.webp\");\n        addCategory(\"Marketing\", \"/images/categories/marketing.webp\");\n    }\n}\n",
  "sourcePath": "C:\\Users\\Arogundade Ibrahim\\Documents\\web3\\Buidl\\contracts\\Buidl.sol",
  "compiler": {
    "name": "solc",
    "version": "0.8.17+commit.8df45f5f.Emscripten.clang"
  },
  "schemaVersion": "3.4.10",
  "updatedAt": "2022-10-20T08:19:20.276Z",
  "networkType": "ethereum",
  "devdoc": {
    "kind": "dev",
    "methods": {},
    "version": 1
  },
  "userdoc": {
    "kind": "user",
    "methods": {},
    "version": 1
  }
}