{
  "contractName": "Buidl",
  "abi": [
    {
      "inputs": [
        {
          "internalType": "address",
          "name": "bdlToken",
          "type": "address"
        },
        {
          "internalType": "address",
          "name": "bdlNft",
          "type": "address"
        },
        {
          "internalType": "address",
          "name": "bdlCertificate",
          "type": "address"
        },
        {
          "internalType": "address",
          "name": "bdlCourse",
          "type": "address"
        },
        {
          "internalType": "address",
          "name": "paymentFlow",
          "type": "address"
        },
        {
          "internalType": "address",
          "name": "staking",
          "type": "address"
        }
      ],
      "stateMutability": "nonpayable",
      "type": "constructor"
    },
    {
      "anonymous": false,
      "inputs": [
        {
          "indexed": false,
          "internalType": "string",
          "name": "name",
          "type": "string"
        },
        {
          "indexed": false,
          "internalType": "string",
          "name": "photo",
          "type": "string"
        },
        {
          "indexed": false,
          "internalType": "address",
          "name": "owner",
          "type": "address"
        }
      ],
      "name": "CreateAccount",
      "type": "event"
    },
    {
      "inputs": [
        {
          "internalType": "address",
          "name": "",
          "type": "address"
        }
      ],
      "name": "users",
      "outputs": [
        {
          "internalType": "uint256",
          "name": "id",
          "type": "uint256"
        },
        {
          "internalType": "bool",
          "name": "verified",
          "type": "bool"
        },
        {
          "internalType": "string",
          "name": "photo",
          "type": "string"
        },
        {
          "internalType": "uint256",
          "name": "createdAt",
          "type": "uint256"
        }
      ],
      "stateMutability": "view",
      "type": "function"
    },
    {
      "inputs": [
        {
          "internalType": "string",
          "name": "name",
          "type": "string"
        },
        {
          "internalType": "string",
          "name": "photo",
          "type": "string"
        }
      ],
      "name": "createAccount",
      "outputs": [],
      "stateMutability": "nonpayable",
      "type": "function"
    },
    {
      "inputs": [],
      "name": "unlockCreator",
      "outputs": [],
      "stateMutability": "nonpayable",
      "type": "function"
    },
    {
      "inputs": [
        {
          "internalType": "uint256",
          "name": "id",
          "type": "uint256"
        },
        {
          "internalType": "uint256",
          "name": "category",
          "type": "uint256"
        },
        {
          "internalType": "uint256",
          "name": "price",
          "type": "uint256"
        }
      ],
      "name": "createCourse",
      "outputs": [],
      "stateMutability": "nonpayable",
      "type": "function"
    }
  ],
  "bytecode": "0x60a0604052686c6b935b8bbd400000600655600060075534801561002257600080fd5b50604051610922380380610922833981016040819052610041916100d0565b33608052600080546001600160a01b03199081166001600160a01b0397881617909155600180548216978716979097179096556002805487169486169490941790935560038054861692851692909217909155600480548516918416919091179055600580549093169116179055610144565b80516001600160a01b03811681146100cb57600080fd5b919050565b60008060008060008060c087890312156100e957600080fd5b6100f2876100b4565b9550610100602088016100b4565b945061010e604088016100b4565b935061011c606088016100b4565b925061012a608088016100b4565b915061013860a088016100b4565b90509295509295509295565b6080516107c661015c600039600050506107c66000f3fe608060405234801561001057600080fd5b506004361061004c5760003560e01c80631928928714610051578063a87430ba14610066578063bb07c8ec14610092578063c193b2e4146100a5575b600080fd5b61006461005f3660046105a3565b6100ad565b005b610079610074366004610607565b6100ec565b604051610089949392919061068a565b60405180910390f35b6100646100a03660046106bc565b6101a1565b6100646102a5565b7f50fd3eed642e5245d4cff2cdb43da32c0271f953aca75fa46292ea122b32d1b48282336040516100e0939291906106e8565b60405180910390a15050565b600860205260009081526040902080546001820154600283018054929360ff9092169261011890610734565b80601f016020809104026020016040519081016040528092919081815260200182805461014490610734565b80156101915780601f1061016657610100808354040283529160200191610191565b820191906000526020600020905b81548152906001019060200180831161017457829003601f168201915b5050505050908060040154905084565b3360009081526008602052604090206001015460ff166102085760405162461bcd60e51b815260206004820152600b60248201527f21617574686f72697a656400000000000000000000000000000000000000000060448201526064015b60405180910390fd5b6003546040517fa6bdd81500000000000000000000000000000000000000000000000000000000815260048101859052602481018490526044810183905233606482015273ffffffffffffffffffffffffffffffffffffffff9091169063a6bdd81590608401600060405180830381600087803b15801561028857600080fd5b505af115801561029c573d6000803e3d6000fd5b50505050505050565b3360009081526008602052604090206001015460ff16156103085760405162461bcd60e51b815260206004820152600b60248201527f21617574686f72697a656400000000000000000000000000000000000000000060448201526064016101ff565b6001546006546040517fe1f21c67000000000000000000000000000000000000000000000000000000008152336004820152306024820152604481019190915273ffffffffffffffffffffffffffffffffffffffff9091169063e1f21c6790606401600060405180830381600087803b15801561038457600080fd5b505af1158015610398573d6000803e3d6000fd5b50506001546006546040517f23b872dd000000000000000000000000000000000000000000000000000000008152336004820152306024820152604481019190915273ffffffffffffffffffffffffffffffffffffffff90911692506323b872dd91506064016020604051808303816000875af115801561041d573d6000803e3d6000fd5b505050506040513d601f19601f82011682018060405250810190610441919061076e565b506005546006546007546040517f110bddd3000000000000000000000000000000000000000000000000000000008152336004820152602481019290925260448201526000606482015273ffffffffffffffffffffffffffffffffffffffff9091169063110bddd390608401600060405180830381600087803b1580156104c757600080fd5b505af11580156104db573d6000803e3d6000fd5b50503360009081526008602052604090206001908101805460ff191690911790555050565b634e487b7160e01b600052604160045260246000fd5b600082601f83011261052757600080fd5b813567ffffffffffffffff8082111561054257610542610500565b604051601f8301601f19908116603f0116810190828211818310171561056a5761056a610500565b8160405283815286602085880101111561058357600080fd5b836020870160208301376000602085830101528094505050505092915050565b600080604083850312156105b657600080fd5b823567ffffffffffffffff808211156105ce57600080fd5b6105da86838701610516565b935060208501359150808211156105f057600080fd5b506105fd85828601610516565b9150509250929050565b60006020828403121561061957600080fd5b813573ffffffffffffffffffffffffffffffffffffffff8116811461063d57600080fd5b9392505050565b6000815180845260005b8181101561066a5760208185018101518683018201520161064e565b506000602082860101526020601f19601f83011685010191505092915050565b84815283151560208201526080604082015260006106ab6080830185610644565b905082606083015295945050505050565b6000806000606084860312156106d157600080fd5b505081359360208301359350604090920135919050565b6060815260006106fb6060830186610644565b828103602084015261070d8186610644565b91505073ffffffffffffffffffffffffffffffffffffffff83166040830152949350505050565b600181811c9082168061074857607f821691505b60208210810361076857634e487b7160e01b600052602260045260246000fd5b50919050565b60006020828403121561078057600080fd5b8151801515811461063d57600080fdfea2646970667358221220cf8d3c329a5d8edde25f21867d3bc88e1a7dc4bbff60424db4c5a2f6354e892764736f6c63430008100033",
  "immutableReferences": {},
  "source": "// SPDX-License-Identifier: GPL-3.0\npragma solidity >=0.7.0 <0.9.0;\n\nimport {BdlNft} from \"./BdlNft.sol\";\nimport {BdlCertificate} from \"./BdlCertificate.sol\";\nimport {Models} from \"./base/Models.sol\";\nimport {PaymentFlow} from \"./PaymentFlow.sol\";\nimport {BdlToken} from \"./BdlToken.sol\";\nimport {BdlCourse} from \"./BdlCourse.sol\";\nimport {Staking} from \"./Staking.sol\";\n\ncontract Buidl {\n    address private immutable deployer;\n\n    BdlNft private _bdlNft; // nft reward (coupon) contract\n    BdlToken private _bdlToken; // erc20(streamable token) contract\n    BdlCertificate private _bdlCertificate; // erc4973 certificate contract\n    BdlCourse private _bdlCourse; // course contract\n    PaymentFlow private _paymentFlow; // flow (erc20 streaming) contract\n    Staking private _staking; // staking contract\n\n    // creators requirement\n    // these requirement helps us to filter fuds\n    // and abuse of the ecosystem\n    uint256 private creatorStakingFee = 2000 * 10**18;\n    uint256 private creatorStakingDuration = 365 * 0;\n\n    // ecosystem users\n    mapping(address => Models.User) public users;\n\n    // contructor\n    constructor(\n        address bdlToken,\n        address bdlNft,\n        address bdlCertificate,\n        address bdlCourse,\n        address paymentFlow,\n        address staking\n    ) {\n        deployer = msg.sender;\n\n        _bdlNft = BdlNft(bdlNft);\n        _bdlToken = BdlToken(bdlToken);\n        _bdlCertificate = BdlCertificate(bdlCertificate);\n        _bdlCourse = BdlCourse(bdlCourse);\n        _paymentFlow = PaymentFlow(paymentFlow);\n        _staking = Staking(staking);\n    }\n\n    function createAccount(string memory name, string memory photo) public {\n        emit CreateAccount(name, photo, msg.sender);\n    }\n\n    /* unlock creator */\n    function unlockCreator() public notVerified {\n        _bdlToken.approve(msg.sender, address(this), creatorStakingFee);\n        _bdlToken.transferFrom(msg.sender, address(this), creatorStakingFee);\n        _staking.stake(\n            msg.sender,\n            creatorStakingFee,\n            creatorStakingDuration,\n            0\n        );\n        users[msg.sender].verified = true;\n    }\n\n    // bdlCourse\n    function createCourse(\n        uint id,\n        uint category,\n        uint256 price\n    ) public onlyVerified {\n        _bdlCourse.createCourse(id, category, price, msg.sender);\n    }\n\n    modifier onlyVerified() {\n        require(users[msg.sender].verified, \"!authorized\");\n        _;\n    }\n\n    modifier notVerified() {\n        require(!users[msg.sender].verified, \"!authorized\");\n        _;\n    }\n\n    // == events == //\n    event CreateAccount(string name, string photo, address owner);\n}\n",
  "sourcePath": "C:\\Users\\Arogundade Ibrahim\\Documents\\web3\\Buidl\\contracts\\Buidl.sol",
  "compiler": {
    "name": "solc",
    "version": "0.8.16+commit.07a7930e.Emscripten.clang"
  },
  "schemaVersion": "3.4.10",
  "updatedAt": "2022-10-24T20:53:57.767Z",
  "networkType": "ethereum",
  "devdoc": {
    "kind": "dev",
    "methods": {},
    "version": 1
  },
  "userdoc": {
    "kind": "user",
    "methods": {},
    "version": 1
  }
}