{
  "contractName": "Buidl",
  "abi": [
    {
      "inputs": [
        {
          "internalType": "address",
          "name": "bdlToken",
          "type": "address"
        },
        {
          "internalType": "address",
          "name": "bdlNft",
          "type": "address"
        },
        {
          "internalType": "address",
          "name": "bdlCertificate",
          "type": "address"
        },
        {
          "internalType": "address",
          "name": "bdlCourse",
          "type": "address"
        },
        {
          "internalType": "address",
          "name": "staking",
          "type": "address"
        },
        {
          "internalType": "address",
          "name": "gateway_",
          "type": "address"
        }
      ],
      "stateMutability": "nonpayable",
      "type": "constructor"
    },
    {
      "inputs": [],
      "name": "InvalidAddress",
      "type": "error"
    },
    {
      "inputs": [],
      "name": "NotApprovedByGateway",
      "type": "error"
    },
    {
      "anonymous": false,
      "inputs": [
        {
          "indexed": false,
          "internalType": "address",
          "name": "owner",
          "type": "address"
        },
        {
          "indexed": false,
          "internalType": "bool",
          "name": "verified",
          "type": "bool"
        }
      ],
      "name": "Creator",
      "type": "event"
    },
    {
      "anonymous": false,
      "inputs": [
        {
          "indexed": false,
          "internalType": "address",
          "name": "owner",
          "type": "address"
        },
        {
          "indexed": false,
          "internalType": "string",
          "name": "name",
          "type": "string"
        },
        {
          "indexed": false,
          "internalType": "string",
          "name": "photo",
          "type": "string"
        },
        {
          "indexed": false,
          "internalType": "bool",
          "name": "verified",
          "type": "bool"
        }
      ],
      "name": "User",
      "type": "event"
    },
    {
      "inputs": [
        {
          "internalType": "bytes32",
          "name": "commandId",
          "type": "bytes32"
        },
        {
          "internalType": "string",
          "name": "sourceChain",
          "type": "string"
        },
        {
          "internalType": "string",
          "name": "sourceAddress",
          "type": "string"
        },
        {
          "internalType": "bytes",
          "name": "payload",
          "type": "bytes"
        }
      ],
      "name": "execute",
      "outputs": [],
      "stateMutability": "nonpayable",
      "type": "function"
    },
    {
      "inputs": [
        {
          "internalType": "bytes32",
          "name": "commandId",
          "type": "bytes32"
        },
        {
          "internalType": "string",
          "name": "sourceChain",
          "type": "string"
        },
        {
          "internalType": "string",
          "name": "sourceAddress",
          "type": "string"
        },
        {
          "internalType": "bytes",
          "name": "payload",
          "type": "bytes"
        },
        {
          "internalType": "string",
          "name": "tokenSymbol",
          "type": "string"
        },
        {
          "internalType": "uint256",
          "name": "amount",
          "type": "uint256"
        }
      ],
      "name": "executeWithToken",
      "outputs": [],
      "stateMutability": "nonpayable",
      "type": "function"
    },
    {
      "inputs": [],
      "name": "gateway",
      "outputs": [
        {
          "internalType": "contract IAxelarGateway",
          "name": "",
          "type": "address"
        }
      ],
      "stateMutability": "view",
      "type": "function"
    },
    {
      "inputs": [
        {
          "internalType": "address",
          "name": "",
          "type": "address"
        }
      ],
      "name": "revenues",
      "outputs": [
        {
          "internalType": "uint256",
          "name": "unclaimed",
          "type": "uint256"
        },
        {
          "internalType": "uint256",
          "name": "claimable",
          "type": "uint256"
        },
        {
          "internalType": "uint256",
          "name": "claimed",
          "type": "uint256"
        }
      ],
      "stateMutability": "view",
      "type": "function"
    },
    {
      "inputs": [
        {
          "internalType": "address",
          "name": "",
          "type": "address"
        }
      ],
      "name": "users",
      "outputs": [
        {
          "internalType": "uint256",
          "name": "id",
          "type": "uint256"
        },
        {
          "internalType": "bool",
          "name": "verified",
          "type": "bool"
        },
        {
          "internalType": "string",
          "name": "photo",
          "type": "string"
        },
        {
          "internalType": "uint256",
          "name": "createdAt",
          "type": "uint256"
        }
      ],
      "stateMutability": "view",
      "type": "function"
    },
    {
      "inputs": [
        {
          "internalType": "string",
          "name": "name",
          "type": "string"
        },
        {
          "internalType": "string",
          "name": "photo",
          "type": "string"
        }
      ],
      "name": "setAccount",
      "outputs": [],
      "stateMutability": "nonpayable",
      "type": "function"
    },
    {
      "inputs": [
        {
          "internalType": "uint256",
          "name": "amount",
          "type": "uint256"
        }
      ],
      "name": "stake",
      "outputs": [],
      "stateMutability": "nonpayable",
      "type": "function"
    },
    {
      "inputs": [],
      "name": "unlockCreator",
      "outputs": [],
      "stateMutability": "nonpayable",
      "type": "function"
    },
    {
      "inputs": [],
      "name": "removeCreator",
      "outputs": [],
      "stateMutability": "nonpayable",
      "type": "function"
    },
    {
      "inputs": [
        {
          "internalType": "uint256",
          "name": "id",
          "type": "uint256"
        }
      ],
      "name": "subscribe",
      "outputs": [],
      "stateMutability": "nonpayable",
      "type": "function"
    },
    {
      "inputs": [
        {
          "internalType": "uint256",
          "name": "id",
          "type": "uint256"
        }
      ],
      "name": "unSubscribe",
      "outputs": [],
      "stateMutability": "nonpayable",
      "type": "function"
    }
  ],
  "bytecode": "0x60c0604052600a600055686c6b935b8bbd40000060065560006007553480156200002857600080fd5b5060405162001425380380620014258339810160408190526200004b91620000ff565b806001600160a01b038116620000745760405163e6c4247b60e01b815260040160405180910390fd5b6001600160a01b039081166080523360a052600180549682166001600160a01b03199788161790556002805497821697871697909717909655506003805493861693851693909317909255600480549185169184169190911790556005805491909316911617905562000180565b80516001600160a01b0381168114620000fa57600080fd5b919050565b60008060008060008060c087890312156200011957600080fd5b6200012487620000e2565b95506200013460208801620000e2565b94506200014460408801620000e2565b93506200015460608801620000e2565b92506200016460808801620000e2565b91506200017460a08801620000e2565b90509295509295509295565b60805160a051611275620001b0600039600050506000818160e8015281816103fa01526106de01526112756000f3fe608060405234801561001057600080fd5b50600436106100c95760003560e01c806378ae98c811610081578063a694fc3a1161005b578063a694fc3a146101c5578063a87430ba146101d8578063c193b2e4146101fb57600080fd5b806378ae98c8146101605780637f26fc7d146101aa57806390bf70b0146101b257600080fd5b80631a98b2e0116100b25780631a98b2e0146101275780632796b0301461013a578063491606581461014d57600080fd5b80630f574ba7146100ce578063116191b6146100e3575b600080fd5b6100e16100dc366004610c76565b610203565b005b61010a7f000000000000000000000000000000000000000000000000000000000000000081565b6040516001600160a01b0390911681526020015b60405180910390f35b6100e1610135366004610cd8565b6103b0565b6100e1610148366004610c76565b6104ac565b6100e161015b366004610db2565b610694565b61018f61016e366004610e6e565b60096020526000908152604090208054600182015460029092015490919083565b6040805193845260208401929092529082015260600161011e565b6100e1610795565b6100e16101c0366004610f35565b610853565b6100e16101d3366004610c76565b6108ad565b6101eb6101e6366004610e6e565b610a25565b60405161011e9493929190610fdf565b6100e1610ada565b600480546040517f59e6951d00000000000000000000000000000000000000000000000000000000815291820183905233602483015260009182916001600160a01b0316906359e6951d9060440160408051808303816000875af115801561026f573d6000803e3d6000fd5b505050506040513d601f19601f820116820180604052508101906102939190611011565b6001600160a01b0381166000908152600960205260408120805493955091935084926102c0908490611057565b909155505060025460405163e1f21c6760e01b8152336004820152306024820152604481018490526001600160a01b039091169063e1f21c6790606401600060405180830381600087803b15801561031757600080fd5b505af115801561032b573d6000803e3d6000fd5b50506002546040516323b872dd60e01b8152336004820152306024820152604481018690526001600160a01b0390911692506323b872dd91506064016020604051808303816000875af1158015610386573d6000803e3d6000fd5b505050506040513d601f19601f820116820180604052508101906103aa9190611070565b50505050565b600085856040516103c2929190611092565b6040519081900381207f1876eed900000000000000000000000000000000000000000000000000000000825291506001600160a01b037f00000000000000000000000000000000000000000000000000000000000000001690631876eed99061043f908e908e908e908e908e9089908d908d908d906004016110cb565b6020604051808303816000875af115801561045e573d6000803e3d6000fd5b505050506040513d601f19601f820116820180604052508101906104829190611070565b61049f57604051631403112d60e21b815260040160405180910390fd5b5050505050505050505050565b600480546040517ff30e6e9b0000000000000000000000000000000000000000000000000000000081529182018390523360248301526000918291829182916001600160a01b03169063f30e6e9b906044016080604051808303816000875af115801561051d573d6000803e3d6000fd5b505050506040513d601f19601f82011682018060405250810190610541919061112a565b60025460405163e1f21c6760e01b81523360048201523060248201526044810186905294985092965090945092506001600160a01b03169063e1f21c6790606401600060405180830381600087803b15801561059c57600080fd5b505af11580156105b0573d6000803e3d6000fd5b50506002546040516323b872dd60e01b8152336004820152306024820152604481018890526001600160a01b0390911692506323b872dd91506064016020604051808303816000875af115801561060b573d6000803e3d6000fd5b505050506040513d601f19601f8201168201806040525081019061062f9190611070565b506001600160a01b03821660009081526009602052604081208054839290610658908490611169565b90915550506001600160a01b03821660009081526009602052604081206001018054859290610688908490611057565b90915550505050505050565b600082826040516106a6929190611092565b6040519081900381207f5f6970c300000000000000000000000000000000000000000000000000000000825291506001600160a01b037f00000000000000000000000000000000000000000000000000000000000000001690635f6970c39061071d908b908b908b908b908b90899060040161117c565b6020604051808303816000875af115801561073c573d6000803e3d6000fd5b505050506040513d601f19601f820116820180604052508101906107609190611070565b61077d57604051631403112d60e21b815260040160405180910390fd5b61078b878787878787610c6c565b5050505050505050565b3360009081526008602052604090206001015460ff166107fc5760405162461bcd60e51b815260206004820152600b60248201527f21617574686f72697a656400000000000000000000000000000000000000000060448201526064015b60405180910390fd5b336000818152600860209081526040808320600101805460ff191690558051938452908301919091527fb5763ba23a8384e26e9f2f5bfcd8e3795e4248ce7bb99a61c9ee6488d352a5b191015b60405180910390a1565b33600081815260086020526040908190206001015490517f2d3804f6670a9e165ddef24bb7f7345753423a96b66b32c302cfefcda19ad467926108a19290918691869160ff909116906111bd565b60405180910390a15050565b60025460405163e1f21c6760e01b8152336004820152306024820152604481018390526001600160a01b039091169063e1f21c6790606401600060405180830381600087803b1580156108ff57600080fd5b505af1158015610913573d6000803e3d6000fd5b50506002546040516323b872dd60e01b8152336004820152306024820152604481018590526001600160a01b0390911692506323b872dd91506064016020604051808303816000875af115801561096e573d6000803e3d6000fd5b505050506040513d601f19601f820116820180604052508101906109929190611070565b506005546007546040517fab84bb78000000000000000000000000000000000000000000000000000000008152336004820152602481018490526044810191909152600060648201526001600160a01b039091169063ab84bb7890608401600060405180830381600087803b158015610a0a57600080fd5b505af1158015610a1e573d6000803e3d6000fd5b5050505050565b600860205260009081526040902080546001820154600283018054929360ff90921692610a5190611205565b80601f0160208091040260200160405190810160405280929190818152602001828054610a7d90611205565b8015610aca5780601f10610a9f57610100808354040283529160200191610aca565b820191906000526020600020905b815481529060010190602001808311610aad57829003601f168201915b5050505050908060040154905084565b3360009081526008602052604090206001015460ff1615610b3d5760405162461bcd60e51b815260206004820152600b60248201527f21617574686f72697a656400000000000000000000000000000000000000000060448201526064016107f3565b6005546006546040517fde36071500000000000000000000000000000000000000000000000000000000815260048101919091523360248201526001600160a01b039091169063de36071590604401602060405180830381865afa158015610ba9573d6000803e3d6000fd5b505050506040513d601f19601f82011682018060405250810190610bcd9190611070565b610c195760405162461bcd60e51b815260206004820152601860248201527f217374616b655f726571756972656d656e745f6669727374000000000000000060448201526064016107f3565b336000818152600860209081526040918290206001908101805460ff1916821790558251938452908301527fb5763ba23a8384e26e9f2f5bfcd8e3795e4248ce7bb99a61c9ee6488d352a5b19101610849565b600061078b828401845b600060208284031215610c8857600080fd5b5035919050565b60008083601f840112610ca157600080fd5b50813567ffffffffffffffff811115610cb957600080fd5b602083019150836020828501011115610cd157600080fd5b9250929050565b60008060008060008060008060008060c08b8d031215610cf757600080fd5b8a35995060208b013567ffffffffffffffff80821115610d1657600080fd5b610d228e838f01610c8f565b909b50995060408d0135915080821115610d3b57600080fd5b610d478e838f01610c8f565b909950975060608d0135915080821115610d6057600080fd5b610d6c8e838f01610c8f565b909750955060808d0135915080821115610d8557600080fd5b50610d928d828e01610c8f565b9150809450508092505060a08b013590509295989b9194979a5092959850565b60008060008060008060006080888a031215610dcd57600080fd5b87359650602088013567ffffffffffffffff80821115610dec57600080fd5b610df88b838c01610c8f565b909850965060408a0135915080821115610e1157600080fd5b610e1d8b838c01610c8f565b909650945060608a0135915080821115610e3657600080fd5b50610e438a828b01610c8f565b989b979a50959850939692959293505050565b6001600160a01b0381168114610e6b57600080fd5b50565b600060208284031215610e8057600080fd5b8135610e8b81610e56565b9392505050565b634e487b7160e01b600052604160045260246000fd5b600082601f830112610eb957600080fd5b813567ffffffffffffffff80821115610ed457610ed4610e92565b604051601f8301601f19908116603f01168101908282118183101715610efc57610efc610e92565b81604052838152866020858801011115610f1557600080fd5b836020870160208301376000602085830101528094505050505092915050565b60008060408385031215610f4857600080fd5b823567ffffffffffffffff80821115610f6057600080fd5b610f6c86838701610ea8565b93506020850135915080821115610f8257600080fd5b50610f8f85828601610ea8565b9150509250929050565b6000815180845260005b81811015610fbf57602081850181015186830182015201610fa3565b506000602082860101526020601f19601f83011685010191505092915050565b84815283151560208201526080604082015260006110006080830185610f99565b905082606083015295945050505050565b6000806040838503121561102457600080fd5b82519150602083015161103681610e56565b809150509250929050565b634e487b7160e01b600052601160045260246000fd5b8082018082111561106a5761106a611041565b92915050565b60006020828403121561108257600080fd5b81518015158114610e8b57600080fd5b8183823760009101908152919050565b81835281816020850137506000828201602090810191909152601f909101601f19169091010190565b89815260c0602082015260006110e560c083018a8c6110a2565b82810360408401526110f881898b6110a2565b905086606084015282810360808401526111138186886110a2565b9150508260a08301529a9950505050505050505050565b6000806000806080858703121561114057600080fd5b8451935060208501519250604085015161115981610e56565b6060959095015193969295505050565b8181038181111561106a5761106a611041565b8681526080602082015260006111966080830187896110a2565b82810360408401526111a98186886110a2565b915050826060830152979650505050505050565b6001600160a01b03851681526080602082015260006111df6080830186610f99565b82810360408401526111f18186610f99565b915050821515606083015295945050505050565b600181811c9082168061121957607f821691505b60208210810361123957634e487b7160e01b600052602260045260246000fd5b5091905056fea264697066735822122020b022504f2d67873a721997ca104d7e8524ac3c5c29fbb7e8fda73fec243ee464736f6c63430008100033",
  "immutableReferences": {
    "10": [
      {
        "length": 32,
        "start": 232
      },
      {
        "length": 32,
        "start": 1018
      },
      {
        "length": 32,
        "start": 1758
      }
    ]
  },
  "source": "// SPDX-License-Identifier: GPL-3.0\npragma solidity >=0.7.0 <0.9.0;\n\nimport {AxelarExecutable} from \"@axelar-network/axelar-gmp-sdk-solidity/contracts/executables/AxelarExecutable.sol\";\nimport {IAxelarGateway} from \"@axelar-network/axelar-gmp-sdk-solidity/contracts/interfaces/IAxelarGateway.sol\";\nimport {IAxelarGasService} from \"@axelar-network/axelar-gmp-sdk-solidity/contracts/interfaces/IAxelarGasService.sol\";\n\nimport {BdlNft} from \"./BdlNft.sol\";\nimport {BdlCertificate} from \"./BdlCertificate.sol\";\nimport {Models} from \"./base/Models.sol\";\nimport {BdlToken} from \"./BdlToken.sol\";\nimport {BdlCourse} from \"./BdlCourse.sol\";\nimport {Staking} from \"./Staking.sol\";\n\ncontract Buidl is AxelarExecutable {\n    address private immutable deployer;\n\n    /* fee charged on every succesful subscription made */\n    uint256 private subscriptionFee = 10; // percentage rate\n\n    BdlNft private _bdlNft; // nft reward (coupon) contract\n    BdlToken private _bdlToken; // erc20(streamable token) contract\n    BdlCertificate private _bdlCertificate; // erc4973 certificate contract\n    BdlCourse private _bdlCourse; // course contract\n    Staking private _staking; // staking contract\n\n    // creators requirement\n    // these requirement helps us to filter fuds\n    // and abuse of the ecosystem\n    uint256 private creatorStakingFee = 2000 * 10**18;\n    uint256 private creatorStakingDuration = 365 * 0;\n\n    // ecosystem users\n    mapping(address => Models.User) public users;\n    mapping(address => Models.Revenue) public revenues;\n\n    // contructor\n    constructor(\n        address bdlToken,\n        address bdlNft,\n        address bdlCertificate,\n        address bdlCourse,\n        address staking,\n        address gateway_\n    ) AxelarExecutable(gateway_) {\n        deployer = msg.sender;\n\n        _bdlNft = BdlNft(bdlNft);\n        _bdlToken = BdlToken(bdlToken);\n        _bdlCertificate = BdlCertificate(bdlCertificate);\n        _bdlCourse = BdlCourse(bdlCourse);\n        _staking = Staking(staking);\n    }\n\n    /* creates user metadata */\n    function setAccount(string memory name, string memory photo) public {\n        emit User(msg.sender, name, photo, users[msg.sender].verified);\n    }\n\n    /* stake in the smart contract */\n    function stake(uint256 amount) public {\n        _bdlToken.approve(msg.sender, address(this), amount);\n        _bdlToken.transferFrom(msg.sender, address(this), amount);\n        _staking.stake(msg.sender, amount, creatorStakingDuration, 0);\n    }\n\n    /* unlock creator */\n    function unlockCreator() public notVerified {\n        // check if user has staked min requirement\n        require(\n            _staking.hasStaked(creatorStakingFee, msg.sender),\n            \"!stake_requirement_first\"\n        );\n\n        users[msg.sender].verified = true;\n        emit Creator(msg.sender, true);\n    }\n\n    /* remove creator */\n    function removeCreator() public onlyVerified {\n        users[msg.sender].verified = false;\n        emit Creator(msg.sender, false);\n    }\n\n    /* subscribe to a course */\n    /* params course id */\n    function subscribe(uint id) public {\n        (uint256 price, address creator) = _bdlCourse.subscribe(id, msg.sender);\n\n        /* payment are locked in the smart contract */\n        /* the course creator will be able to claim it after two weeks */\n        /* if the course wasn't refunded by the subscriber */\n\n        /* increase creator's unclaimed revenue */\n        revenues[creator].unclaimed += price;\n\n        _bdlToken.approve(msg.sender, address(this), price);\n        _bdlToken.transferFrom(msg.sender, address(this), price);\n    }\n\n    /* subscribe to a course */\n    /* params course id */\n    function unSubscribe(uint id) public {\n        (\n            uint256 payableAmount,\n            uint256 earnings,\n            address creator,\n            uint256 price\n        ) = _bdlCourse.unSubscribe(id, msg.sender);\n\n        _bdlToken.approve(msg.sender, address(this), payableAmount);\n        _bdlToken.transferFrom(msg.sender, address(this), payableAmount);\n        revenues[creator].unclaimed -= price;\n        revenues[creator].claimable += earnings;\n    }\n\n    function _execute(\n        string calldata sourceChain_,\n        string calldata sourceAddress_,\n        bytes calldata payload_\n    ) internal override {\n        (uint id) = abi.decode(payload_, (uint));\n        // sourceChain = sourceChain_;\n        // sourceAddress = sourceAddress_;\n    }\n\n    modifier onlyVerified() {\n        /* only account that has staked atleast 2000 BDL token */\n        require(users[msg.sender].verified, \"!authorized\");\n        _;\n    }\n\n    modifier notVerified() {\n        /* only account that hasn't staked atleast 2000 BDL token */\n        require(!users[msg.sender].verified, \"!authorized\");\n        _;\n    }\n\n    // == events == //\n    event User(address owner, string name, string photo, bool verified);\n    event Creator(address owner, bool verified);\n}\n",
  "sourcePath": "C:\\Users\\Arogundade Ibrahim\\Documents\\web3\\Buidl\\contracts\\Buidl.sol",
  "compiler": {
    "name": "solc",
    "version": "0.8.16+commit.07a7930e.Emscripten.clang"
  },
  "schemaVersion": "3.4.10",
  "updatedAt": "2022-11-01T14:01:29.099Z",
  "devdoc": {
    "kind": "dev",
    "methods": {},
    "version": 1
  },
  "userdoc": {
    "kind": "user",
    "methods": {},
    "version": 1
  }
}