{
  "contractName": "Executable",
  "abi": [
    {
      "inputs": [
        {
          "internalType": "address",
          "name": "gateway_",
          "type": "address"
        },
        {
          "internalType": "address",
          "name": "gasReceiver_",
          "type": "address"
        }
      ],
      "stateMutability": "nonpayable",
      "type": "constructor"
    },
    {
      "inputs": [],
      "name": "InvalidAddress",
      "type": "error"
    },
    {
      "inputs": [],
      "name": "NotApprovedByGateway",
      "type": "error"
    },
    {
      "inputs": [
        {
          "internalType": "bytes32",
          "name": "commandId",
          "type": "bytes32"
        },
        {
          "internalType": "string",
          "name": "sourceChain",
          "type": "string"
        },
        {
          "internalType": "string",
          "name": "sourceAddress",
          "type": "string"
        },
        {
          "internalType": "bytes",
          "name": "payload",
          "type": "bytes"
        }
      ],
      "name": "execute",
      "outputs": [],
      "stateMutability": "nonpayable",
      "type": "function"
    },
    {
      "inputs": [
        {
          "internalType": "bytes32",
          "name": "commandId",
          "type": "bytes32"
        },
        {
          "internalType": "string",
          "name": "sourceChain",
          "type": "string"
        },
        {
          "internalType": "string",
          "name": "sourceAddress",
          "type": "string"
        },
        {
          "internalType": "bytes",
          "name": "payload",
          "type": "bytes"
        },
        {
          "internalType": "string",
          "name": "tokenSymbol",
          "type": "string"
        },
        {
          "internalType": "uint256",
          "name": "amount",
          "type": "uint256"
        }
      ],
      "name": "executeWithToken",
      "outputs": [],
      "stateMutability": "nonpayable",
      "type": "function"
    },
    {
      "inputs": [],
      "name": "gasReceiver",
      "outputs": [
        {
          "internalType": "contract IAxelarGasService",
          "name": "",
          "type": "address"
        }
      ],
      "stateMutability": "view",
      "type": "function"
    },
    {
      "inputs": [],
      "name": "gateway",
      "outputs": [
        {
          "internalType": "contract IAxelarGateway",
          "name": "",
          "type": "address"
        }
      ],
      "stateMutability": "view",
      "type": "function"
    },
    {
      "inputs": [
        {
          "internalType": "string",
          "name": "destinationChain",
          "type": "string"
        },
        {
          "internalType": "string",
          "name": "destinationAddress",
          "type": "string"
        },
        {
          "internalType": "uint256",
          "name": "id",
          "type": "uint256"
        }
      ],
      "name": "subscribe",
      "outputs": [],
      "stateMutability": "payable",
      "type": "function"
    }
  ],
  "bytecode": "0x60c060405234801561001057600080fd5b50604051610a50380380610a5083398101604081905261002f9161008b565b816001600160a01b0381166100575760405163e6c4247b60e01b815260040160405180910390fd5b6001600160a01b039081166080521660a052506100be565b80516001600160a01b038116811461008657600080fd5b919050565b6000806040838503121561009e57600080fd5b6100a78361006f565b91506100b56020840161006f565b90509250929050565b60805160a0516109526100fe6000396000818161011001526103b801526000818160710152818161019c015281816102a5015261046b01526109526000f3fe60806040526004361061005a5760003560e01c8063491606581161004357806349160658146100de57806380d14b4a146100fe578063f4405d451461013257600080fd5b8063116191b61461005f5780631a98b2e0146100bc575b600080fd5b34801561006b57600080fd5b506100937f000000000000000000000000000000000000000000000000000000000000000081565b60405173ffffffffffffffffffffffffffffffffffffffff909116815260200160405180910390f35b3480156100c857600080fd5b506100dc6100d736600461052b565b610145565b005b3480156100ea57600080fd5b506100dc6100f9366004610605565b61024e565b34801561010a57600080fd5b506100937f000000000000000000000000000000000000000000000000000000000000000081565b6100dc6101403660046106a9565b61034e565b6000858560405161015792919061071d565b6040519081900381207f1876eed9000000000000000000000000000000000000000000000000000000008252915073ffffffffffffffffffffffffffffffffffffffff7f00000000000000000000000000000000000000000000000000000000000000001690631876eed9906101e1908e908e908e908e908e9089908d908d908d90600401610756565b6020604051808303816000875af1158015610200573d6000803e3d6000fd5b505050506040513d601f19601f8201168201806040525081019061022491906107b5565b61024157604051631403112d60e21b815260040160405180910390fd5b5050505050505050505050565b6000828260405161026092919061071d565b6040519081900381207f5f6970c3000000000000000000000000000000000000000000000000000000008252915073ffffffffffffffffffffffffffffffffffffffff7f00000000000000000000000000000000000000000000000000000000000000001690635f6970c3906102e4908b908b908b908b908b9089906004016107de565b6020604051808303816000875af1158015610303573d6000803e3d6000fd5b505050506040513d601f19601f8201168201806040525081019061032791906107b5565b61034457604051631403112d60e21b815260040160405180910390fd5b5050505050505050565b60008160405160200161036391815260200190565b60408051601f198184030181529190529050341561042e576040517f0c93e3bb00000000000000000000000000000000000000000000000000000000815273ffffffffffffffffffffffffffffffffffffffff7f00000000000000000000000000000000000000000000000000000000000000001690630c93e3bb9034906103fb9030908b908b908b908b908a903390600401610865565b6000604051808303818588803b15801561041457600080fd5b505af1158015610428573d6000803e3d6000fd5b50505050505b6040517f1c92115f00000000000000000000000000000000000000000000000000000000815273ffffffffffffffffffffffffffffffffffffffff7f00000000000000000000000000000000000000000000000000000000000000001690631c92115f906104a890899089908990899088906004016108d5565b600060405180830381600087803b1580156104c257600080fd5b505af11580156104d6573d6000803e3d6000fd5b50505050505050505050565b60008083601f8401126104f457600080fd5b50813567ffffffffffffffff81111561050c57600080fd5b60208301915083602082850101111561052457600080fd5b9250929050565b60008060008060008060008060008060c08b8d03121561054a57600080fd5b8a35995060208b013567ffffffffffffffff8082111561056957600080fd5b6105758e838f016104e2565b909b50995060408d013591508082111561058e57600080fd5b61059a8e838f016104e2565b909950975060608d01359150808211156105b357600080fd5b6105bf8e838f016104e2565b909750955060808d01359150808211156105d857600080fd5b506105e58d828e016104e2565b9150809450508092505060a08b013590509295989b9194979a5092959850565b60008060008060008060006080888a03121561062057600080fd5b87359650602088013567ffffffffffffffff8082111561063f57600080fd5b61064b8b838c016104e2565b909850965060408a013591508082111561066457600080fd5b6106708b838c016104e2565b909650945060608a013591508082111561068957600080fd5b506106968a828b016104e2565b989b979a50959850939692959293505050565b6000806000806000606086880312156106c157600080fd5b853567ffffffffffffffff808211156106d957600080fd5b6106e589838a016104e2565b909750955060208801359150808211156106fe57600080fd5b5061070b888289016104e2565b96999598509660400135949350505050565b8183823760009101908152919050565b81835281816020850137506000828201602090810191909152601f909101601f19169091010190565b89815260c06020820152600061077060c083018a8c61072d565b828103604084015261078381898b61072d565b9050866060840152828103608084015261079e81868861072d565b9150508260a08301529a9950505050505050505050565b6000602082840312156107c757600080fd5b815180151581146107d757600080fd5b9392505050565b8681526080602082015260006107f860808301878961072d565b828103604084015261080b81868861072d565b915050826060830152979650505050505050565b6000815180845260005b8181101561084557602081850181015186830182015201610829565b506000602082860101526020601f19601f83011685010191505092915050565b600073ffffffffffffffffffffffffffffffffffffffff808a16835260a0602084015261089660a08401898b61072d565b83810360408501526108a981888a61072d565b905083810360608501526108bd818761081f565b92505080841660808401525098975050505050505050565b6060815260006108e960608301878961072d565b82810360208401526108fc81868861072d565b90508281036040840152610910818561081f565b9897505050505050505056fea2646970667358221220cd4a0379e091a66ab3bb38cfd21c67c4f42021a46c04bf17faee054d2437a3fb64736f6c63430008100033",
  "immutableReferences": {
    "10": [
      {
        "length": 32,
        "start": 113
      },
      {
        "length": 32,
        "start": 412
      },
      {
        "length": 32,
        "start": 677
      },
      {
        "length": 32,
        "start": 1131
      }
    ],
    "5100": [
      {
        "length": 32,
        "start": 272
      },
      {
        "length": 32,
        "start": 952
      }
    ]
  },
  "source": "// SPDX-License-Identifier: GPL-3.0\npragma solidity >=0.7.0 <0.9.0;\n\nimport {AxelarExecutable} from \"@axelar-network/axelar-gmp-sdk-solidity/contracts/executables/AxelarExecutable.sol\";\nimport {IAxelarGateway} from \"@axelar-network/axelar-gmp-sdk-solidity/contracts/interfaces/IAxelarGateway.sol\";\nimport {IAxelarGasService} from \"@axelar-network/axelar-gmp-sdk-solidity/contracts/interfaces/IAxelarGasService.sol\";\n\ncontract Executable is AxelarExecutable {\n    IAxelarGasService public immutable gasReceiver;\n\n    constructor(address gateway_, address gasReceiver_)\n        AxelarExecutable(gateway_)\n    {\n        gasReceiver = IAxelarGasService(gasReceiver_);\n    }\n\n    function subscribe(\n        string calldata destinationChain,\n        string calldata destinationAddress,\n        uint id\n    ) payable public {\n        bytes memory payload = abi.encode(id);\n        if (msg.value > 0) {\n            gasReceiver.payNativeGasForContractCall{value: msg.value}(\n                address(this),\n                destinationChain,\n                destinationAddress,\n                payload,\n                msg.sender\n            );\n        }\n        gateway.callContract(destinationChain, destinationAddress, payload);\n    }\n}\n",
  "sourcePath": "C:\\Users\\Arogundade Ibrahim\\Documents\\web3\\Buidl\\contracts\\axelar\\Executable.sol",
  "compiler": {
    "name": "solc",
    "version": "0.8.16+commit.07a7930e.Emscripten.clang"
  },
  "schemaVersion": "3.4.10",
  "updatedAt": "2022-11-02T13:47:30.181Z",
  "devdoc": {
    "kind": "dev",
    "methods": {},
    "version": 1
  },
  "userdoc": {
    "kind": "user",
    "methods": {},
    "version": 1
  }
}