{
  "contractName": "MessageSender",
  "abi": [
    {
      "inputs": [
        {
          "internalType": "address",
          "name": "gateway_",
          "type": "address"
        },
        {
          "internalType": "address",
          "name": "gasReceiver_",
          "type": "address"
        },
        {
          "internalType": "string",
          "name": "destinationChain_",
          "type": "string"
        },
        {
          "internalType": "string",
          "name": "destinationAddress_",
          "type": "string"
        }
      ],
      "stateMutability": "nonpayable",
      "type": "constructor"
    },
    {
      "inputs": [
        {
          "internalType": "uint256",
          "name": "id",
          "type": "uint256"
        }
      ],
      "name": "subscribe",
      "outputs": [],
      "stateMutability": "payable",
      "type": "function"
    }
  ],
  "bytecode": "0x608060405234801561001057600080fd5b5060405161085538038061085583398101604081905261002f91610159565b600180546001600160a01b038087166001600160a01b0319928316179092556000805492861692909116919091179055600261006b8382610267565b5060036100788282610267565b5050505050610326565b80516001600160a01b038116811461009957600080fd5b919050565b634e487b7160e01b600052604160045260246000fd5b600082601f8301126100c557600080fd5b81516001600160401b03808211156100df576100df61009e565b604051601f8301601f19908116603f011681019082821181831017156101075761010761009e565b8160405283815260209250868385880101111561012357600080fd5b600091505b838210156101455785820183015181830184015290820190610128565b600093810190920192909252949350505050565b6000806000806080858703121561016f57600080fd5b61017885610082565b935061018660208601610082565b60408601519093506001600160401b03808211156101a357600080fd5b6101af888389016100b4565b935060608701519150808211156101c557600080fd5b506101d2878288016100b4565b91505092959194509250565b600181811c908216806101f257607f821691505b60208210810361021257634e487b7160e01b600052602260045260246000fd5b50919050565b601f82111561026257600081815260208120601f850160051c8101602086101561023f5750805b601f850160051c820191505b8181101561025e5782815560010161024b565b5050505b505050565b81516001600160401b038111156102805761028061009e565b6102948161028e84546101de565b84610218565b602080601f8311600181146102c957600084156102b15750858301515b600019600386901b1c1916600185901b17855561025e565b600085815260208120601f198616915b828110156102f8578886015182559484019460019091019084016102d9565b50858210156103165787850151600019600388901b60f8161c191681555b5050505050600190811b01905550565b610520806103356000396000f3fe60806040526004361061001e5760003560e01c80630f574ba714610023575b600080fd5b61003661003136600461022c565b610038565b005b6040805160208101839052338183015281518082038301815260608201928390527fb2b82ff50000000000000000000000000000000000000000000000000000000090925260009073__Message_______________________________9063b2b82ff5906100ac9084908690606401610295565b600060405180830381865af41580156100c9573d6000803e3d6000fd5b505050506040513d6000823e601f3d908101601f191682016040526100f191908101906102ea565b90503415610196576000546040517f0c93e3bb00000000000000000000000000000000000000000000000000000000815273ffffffffffffffffffffffffffffffffffffffff90911690630c93e3bb90349061015b9030906002906003908890339060040161043b565b6000604051808303818588803b15801561017457600080fd5b505af1158015610188573d6000803e3d6000fd5b50505050506101968161019b565b505050565b6001546040517f1c92115f00000000000000000000000000000000000000000000000000000000815273ffffffffffffffffffffffffffffffffffffffff90911690631c92115f906101f79060029060039086906004016104a7565b600060405180830381600087803b15801561021157600080fd5b505af1158015610225573d6000803e3d6000fd5b5050505050565b60006020828403121561023e57600080fd5b5035919050565b60005b83811015610260578181015183820152602001610248565b50506000910152565b60008151808452610281816020860160208601610245565b601f01601f19169290920160200192915050565b6000600b84106102b557634e487b7160e01b600052602160045260246000fd5b838252604060208301526102cc6040830184610269565b949350505050565b634e487b7160e01b600052604160045260246000fd5b6000602082840312156102fc57600080fd5b815167ffffffffffffffff8082111561031457600080fd5b818401915084601f83011261032857600080fd5b81518181111561033a5761033a6102d4565b604051601f8201601f19908116603f01168101908382118183101715610362576103626102d4565b8160405282815287602084870101111561037b57600080fd5b61038c836020830160208801610245565b979650505050505050565b8054600090600181811c90808316806103b157607f831692505b602080841082036103d257634e487b7160e01b600052602260045260246000fd5b838852602088018280156103ed57600181146104035761042e565b60ff198716825285151560051b8201975061042e565b60008981526020902060005b878110156104285781548482015290860190840161040f565b83019850505b5050505050505092915050565b600073ffffffffffffffffffffffffffffffffffffffff808816835260a0602084015261046b60a0840188610397565b838103604085015261047d8188610397565b905083810360608501526104918187610269565b9250508084166080840152509695505050505050565b6060815260006104ba6060830186610397565b82810360208401526104cc8186610397565b905082810360408401526104e08185610269565b969550505050505056fea26469706673582212202c663672c08eee4ca945791fc49f20c5d87873356104a43d9bd675cccffaf0ac64736f6c63430008100033",
  "immutableReferences": {},
  "source": "// SPDX-License-Identifier: GPL-3.0\npragma solidity >=0.7.0 <0.9.0;\n\nimport {IAxelarGateway} from \"@axelar-network/axelar-gmp-sdk-solidity/contracts/interfaces/IAxelarGateway.sol\";\nimport {IAxelarGasService} from \"@axelar-network/axelar-gmp-sdk-solidity/contracts/interfaces/IAxelarGasService.sol\";\n\nimport {Message} from \"./Message.sol\";\n\ncontract MessageSender {\n    /* axelar */\n    IAxelarGasService gasReceiver;\n    IAxelarGateway gateway;\n\n    /* destination */\n    string destinationChain;\n    string destinationAddress;\n\n    constructor(\n        address gateway_,\n        address gasReceiver_,\n        string memory destinationChain_,\n        string memory destinationAddress_\n    ) {\n        gateway = IAxelarGateway(gateway_);\n        gasReceiver = IAxelarGasService(gasReceiver_);\n        destinationChain = destinationChain_;\n        destinationAddress = destinationAddress_;\n    }\n\n    function subscribe(uint id) public payable {\n        bytes memory message = abi.encode(id, msg.sender);\n        bytes memory payload = Message.packMessage(\n            Message.Title.SUBSCRIBE,\n            message\n        );\n\n        if (msg.value > 0) {\n            gasReceiver.payNativeGasForContractCall{value: msg.value}(\n                address(this),\n                destinationChain,\n                destinationAddress,\n                payload,\n                msg.sender\n            );\n\n            call(payload);\n        }\n    }\n\n    /* sends message */\n    function call(bytes memory payload) private {\n        gateway.callContract(destinationChain, destinationAddress, payload);\n    }\n}\n",
  "sourcePath": "C:\\Users\\Arogundade Ibrahim\\Documents\\web3\\Buidl\\contracts\\axelar\\MessageSender.sol",
  "compiler": {
    "name": "solc",
    "version": "0.8.16+commit.07a7930e.Emscripten.clang"
  },
  "schemaVersion": "3.4.10",
  "updatedAt": "2022-11-04T08:15:30.479Z",
  "devdoc": {
    "kind": "dev",
    "methods": {},
    "version": 1
  },
  "userdoc": {
    "kind": "user",
    "methods": {},
    "version": 1
  }
}