{
  "contractName": "MessageSender",
  "abi": [
    {
      "inputs": [
        {
          "internalType": "address",
          "name": "gateway_",
          "type": "address"
        },
        {
          "internalType": "address",
          "name": "gasReceiver_",
          "type": "address"
        },
        {
          "internalType": "string",
          "name": "destinationChain_",
          "type": "string"
        },
        {
          "internalType": "string",
          "name": "destinationAddress_",
          "type": "string"
        }
      ],
      "stateMutability": "nonpayable",
      "type": "constructor"
    },
    {
      "inputs": [],
      "name": "InvalidAddress",
      "type": "error"
    },
    {
      "inputs": [],
      "name": "NotApprovedByGateway",
      "type": "error"
    },
    {
      "inputs": [
        {
          "internalType": "bytes32",
          "name": "commandId",
          "type": "bytes32"
        },
        {
          "internalType": "string",
          "name": "sourceChain",
          "type": "string"
        },
        {
          "internalType": "string",
          "name": "sourceAddress",
          "type": "string"
        },
        {
          "internalType": "bytes",
          "name": "payload",
          "type": "bytes"
        }
      ],
      "name": "execute",
      "outputs": [],
      "stateMutability": "nonpayable",
      "type": "function"
    },
    {
      "inputs": [
        {
          "internalType": "bytes32",
          "name": "commandId",
          "type": "bytes32"
        },
        {
          "internalType": "string",
          "name": "sourceChain",
          "type": "string"
        },
        {
          "internalType": "string",
          "name": "sourceAddress",
          "type": "string"
        },
        {
          "internalType": "bytes",
          "name": "payload",
          "type": "bytes"
        },
        {
          "internalType": "string",
          "name": "tokenSymbol",
          "type": "string"
        },
        {
          "internalType": "uint256",
          "name": "amount",
          "type": "uint256"
        }
      ],
      "name": "executeWithToken",
      "outputs": [],
      "stateMutability": "nonpayable",
      "type": "function"
    },
    {
      "inputs": [],
      "name": "gasReceiver",
      "outputs": [
        {
          "internalType": "contract IAxelarGasService",
          "name": "",
          "type": "address"
        }
      ],
      "stateMutability": "view",
      "type": "function",
      "constant": true
    },
    {
      "inputs": [],
      "name": "gateway",
      "outputs": [
        {
          "internalType": "contract IAxelarGateway",
          "name": "",
          "type": "address"
        }
      ],
      "stateMutability": "view",
      "type": "function",
      "constant": true
    },
    {
      "inputs": [
        {
          "internalType": "uint256",
          "name": "id",
          "type": "uint256"
        },
        {
          "internalType": "uint256",
          "name": "nftId",
          "type": "uint256"
        }
      ],
      "name": "subscribe",
      "outputs": [],
      "stateMutability": "payable",
      "type": "function",
      "payable": true
    }
  ],
  "bytecode": "0x60c06040523480156200001157600080fd5b5060405162000ec338038062000ec383398101604081905262000034916200017a565b836001600160a01b0381166200005d5760405163e6c4247b60e01b815260040160405180910390fd5b6001600160a01b03908116608052831660a05260006200007e838262000299565b5060016200008d828262000299565b505050505062000365565b80516001600160a01b0381168114620000b057600080fd5b919050565b634e487b7160e01b600052604160045260246000fd5b600082601f830112620000dd57600080fd5b81516001600160401b0380821115620000fa57620000fa620000b5565b604051601f8301601f19908116603f01168101908282118183101715620001255762000125620000b5565b816040528381526020925086838588010111156200014257600080fd5b600091505b8382101562000166578582018301518183018401529082019062000147565b600093810190920192909252949350505050565b600080600080608085870312156200019157600080fd5b6200019c8562000098565b9350620001ac6020860162000098565b60408601519093506001600160401b0380821115620001ca57600080fd5b620001d888838901620000cb565b93506060870151915080821115620001ef57600080fd5b50620001fe87828801620000cb565b91505092959194509250565b600181811c908216806200021f57607f821691505b6020821081036200024057634e487b7160e01b600052602260045260246000fd5b50919050565b601f8211156200029457600081815260208120601f850160051c810160208610156200026f5750805b601f850160051c820191505b8181101562000290578281556001016200027b565b5050505b505050565b81516001600160401b03811115620002b557620002b5620000b5565b620002cd81620002c684546200020a565b8462000246565b602080601f831160018114620003055760008415620002ec5750858301515b600019600386901b1c1916600185901b17855562000290565b600085815260208120601f198616915b82811015620003365788860151825594840194600190910190840162000315565b5085821015620003555787850151600019600388901b60f8161c191681555b5050505050600190811b01905550565b60805160a051610b1d620003a660003960008181610110015261045b01526000818160710152818161019c015281816102a5015261050c0152610b1d6000f3fe60806040526004361061005a5760003560e01c8063491606581161004357806349160658146100de57806380d14b4a146100fe578063843708131461013257600080fd5b8063116191b61461005f5780631a98b2e0146100bc575b600080fd5b34801561006b57600080fd5b506100937f000000000000000000000000000000000000000000000000000000000000000081565b60405173ffffffffffffffffffffffffffffffffffffffff909116815260200160405180910390f35b3480156100c857600080fd5b506100dc6100d73660046105be565b610145565b005b3480156100ea57600080fd5b506100dc6100f9366004610698565b61024e565b34801561010a57600080fd5b506100937f000000000000000000000000000000000000000000000000000000000000000081565b6100dc61014036600461073c565b61034e565b6000858560405161015792919061075e565b6040519081900381207f1876eed9000000000000000000000000000000000000000000000000000000008252915073ffffffffffffffffffffffffffffffffffffffff7f00000000000000000000000000000000000000000000000000000000000000001690631876eed9906101e1908e908e908e908e908e9089908d908d908d90600401610797565b6020604051808303816000875af1158015610200573d6000803e3d6000fd5b505050506040513d601f19601f8201168201806040525081019061022491906107f6565b61024157604051631403112d60e21b815260040160405180910390fd5b5050505050505050505050565b6000828260405161026092919061075e565b6040519081900381207f5f6970c3000000000000000000000000000000000000000000000000000000008252915073ffffffffffffffffffffffffffffffffffffffff7f00000000000000000000000000000000000000000000000000000000000000001690635f6970c3906102e4908b908b908b908b908b90899060040161081f565b6020604051808303816000875af1158015610303573d6000803e3d6000fd5b505050506040513d601f19601f8201168201806040525081019061032791906107f6565b61034457604051631403112d60e21b815260040160405180910390fd5b5050505050505050565b604080516020810184905290810182905233606082015260009060800160408051601f19818403018152908290527f58323f38000000000000000000000000000000000000000000000000000000008252915060009073__Message_______________________________906358323f38906103d19060019086906004016108b0565b600060405180830381865af41580156103ee573d6000803e3d6000fd5b505050506040513d6000823e601f3d908101601f1916820160405261041691908101906108e7565b905034156104cf576040517f0c93e3bb00000000000000000000000000000000000000000000000000000000815273ffffffffffffffffffffffffffffffffffffffff7f00000000000000000000000000000000000000000000000000000000000000001690630c93e3bb90349061049c90309060009060019088903390600401610a38565b6000604051808303818588803b1580156104b557600080fd5b505af11580156104c9573d6000803e3d6000fd5b50505050505b6040517f1c92115f00000000000000000000000000000000000000000000000000000000815273ffffffffffffffffffffffffffffffffffffffff7f00000000000000000000000000000000000000000000000000000000000000001690631c92115f90610547906000906001908690600401610aa4565b600060405180830381600087803b15801561056157600080fd5b505af1158015610344573d6000803e3d6000fd5b60008083601f84011261058757600080fd5b50813567ffffffffffffffff81111561059f57600080fd5b6020830191508360208285010111156105b757600080fd5b9250929050565b60008060008060008060008060008060c08b8d0312156105dd57600080fd5b8a35995060208b013567ffffffffffffffff808211156105fc57600080fd5b6106088e838f01610575565b909b50995060408d013591508082111561062157600080fd5b61062d8e838f01610575565b909950975060608d013591508082111561064657600080fd5b6106528e838f01610575565b909750955060808d013591508082111561066b57600080fd5b506106788d828e01610575565b9150809450508092505060a08b013590509295989b9194979a5092959850565b60008060008060008060006080888a0312156106b357600080fd5b87359650602088013567ffffffffffffffff808211156106d257600080fd5b6106de8b838c01610575565b909850965060408a01359150808211156106f757600080fd5b6107038b838c01610575565b909650945060608a013591508082111561071c57600080fd5b506107298a828b01610575565b989b979a50959850939692959293505050565b6000806040838503121561074f57600080fd5b50508035926020909101359150565b8183823760009101908152919050565b81835281816020850137506000828201602090810191909152601f909101601f19169091010190565b89815260c0602082015260006107b160c083018a8c61076e565b82810360408401526107c481898b61076e565b905086606084015282810360808401526107df81868861076e565b9150508260a08301529a9950505050505050505050565b60006020828403121561080857600080fd5b8151801515811461081857600080fd5b9392505050565b86815260806020820152600061083960808301878961076e565b828103604084015261084c81868861076e565b915050826060830152979650505050505050565b60005b8381101561087b578181015183820152602001610863565b50506000910152565b6000815180845261089c816020860160208601610860565b601f01601f19169290920160200192915050565b8281526040602082015260006108c96040830184610884565b949350505050565b634e487b7160e01b600052604160045260246000fd5b6000602082840312156108f957600080fd5b815167ffffffffffffffff8082111561091157600080fd5b818401915084601f83011261092557600080fd5b815181811115610937576109376108d1565b604051601f8201601f19908116603f0116810190838211818310171561095f5761095f6108d1565b8160405282815287602084870101111561097857600080fd5b610989836020830160208801610860565b979650505050505050565b8054600090600181811c90808316806109ae57607f831692505b602080841082036109cf57634e487b7160e01b600052602260045260246000fd5b838852602088018280156109ea5760018114610a0057610a2b565b60ff198716825285151560051b82019750610a2b565b60008981526020902060005b87811015610a2557815484820152908601908401610a0c565b83019850505b5050505050505092915050565b600073ffffffffffffffffffffffffffffffffffffffff808816835260a06020840152610a6860a0840188610994565b8381036040850152610a7a8188610994565b90508381036060850152610a8e8187610884565b9250508084166080840152509695505050505050565b606081526000610ab76060830186610994565b8281036020840152610ac98186610994565b90508281036040840152610add8185610884565b969550505050505056fea2646970667358221220cc3cde98d5cbcc79dbe295c3b626f356443c5186bc457f435bd3d6bc143880b964736f6c63430008100033",
  "immutableReferences": {
    "10": [
      {
        "length": 32,
        "start": 113
      },
      {
        "length": 32,
        "start": 412
      },
      {
        "length": 32,
        "start": 677
      },
      {
        "length": 32,
        "start": 1292
      }
    ],
    "3241": [
      {
        "length": 32,
        "start": 272
      },
      {
        "length": 32,
        "start": 1115
      }
    ]
  },
  "source": "// SPDX-License-Identifier: GPL-3.0\npragma solidity >=0.7.0 <0.9.0;\n\nimport {AxelarExecutable} from \"@axelar-network/axelar-gmp-sdk-solidity/contracts/executables/AxelarExecutable.sol\";\nimport {IAxelarGateway} from \"@axelar-network/axelar-gmp-sdk-solidity/contracts/interfaces/IAxelarGateway.sol\";\nimport {IAxelarGasService} from \"@axelar-network/axelar-gmp-sdk-solidity/contracts/interfaces/IAxelarGasService.sol\";\n\nimport {Message} from \"./Message.sol\";\n\n// message receiver @Buidl.sol\n\ncontract MessageSender is AxelarExecutable {\n    /* axelar */\n    IAxelarGasService public immutable gasReceiver;\n\n    /* destination */\n    string private destinationChain;\n    string private destinationAddress;\n\n    constructor(\n        address gateway_,\n        address gasReceiver_,\n        string memory destinationChain_,\n        string memory destinationAddress_\n    ) AxelarExecutable(gateway_) {\n        gasReceiver = IAxelarGasService(gasReceiver_);\n\n        destinationChain = destinationChain_;\n        destinationAddress = destinationAddress_;\n    }\n\n    /* @param id == the course id on bsc testnet */\n    function subscribe(uint id, uint256 nftId) public payable {\n        bytes memory message = abi.encode(id, nftId, msg.sender);\n        bytes memory payload = Message.packMessage(Message.SUBSCRIBE, message);\n\n        if (msg.value > 0) {\n            gasReceiver.payNativeGasForContractCall{value: msg.value}(\n                address(this),\n                destinationChain,\n                destinationAddress,\n                payload,\n                msg.sender\n            );\n        }\n\n        gateway.callContract(destinationChain, destinationAddress, payload);\n    }\n}\n",
  "sourcePath": "C:\\Users\\Arogundade Ibrahim\\Documents\\web3\\Buidl\\contracts\\axelar\\MessageSender.sol",
  "compiler": {
    "name": "solc",
    "version": "0.8.16+commit.07a7930e.Emscripten.clang"
  },
  "schemaVersion": "3.4.10",
  "updatedAt": "2022-11-09T03:36:50.726Z",
  "networkType": "ethereum",
  "devdoc": {
    "kind": "dev",
    "methods": {},
    "version": 1
  },
  "userdoc": {
    "kind": "user",
    "methods": {},
    "version": 1
  }
}