{
  "contractName": "Message",
  "abi": [
    {
      "inputs": [
        {
          "internalType": "enum Message.Title",
          "name": "_messageTitle",
          "type": "Message.Title"
        },
        {
          "internalType": "bytes",
          "name": "_data",
          "type": "bytes"
        }
      ],
      "name": "packMessage",
      "outputs": [
        {
          "internalType": "bytes",
          "name": "",
          "type": "bytes"
        }
      ],
      "stateMutability": "pure",
      "type": "function"
    },
    {
      "inputs": [
        {
          "internalType": "bytes",
          "name": "_data",
          "type": "bytes"
        }
      ],
      "name": "unPackMessage",
      "outputs": [
        {
          "internalType": "enum Message.Title",
          "name": "",
          "type": "Message.Title"
        },
        {
          "internalType": "bytes",
          "name": "",
          "type": "bytes"
        }
      ],
      "stateMutability": "pure",
      "type": "function"
    }
  ],
  "bytecode": "0x6103ef61003a600b82828239805160001a60731461002d57634e487b7160e01b600052600060045260246000fd5b30600052607381538281f3fe73000000000000000000000000000000000000000030146080604052600436106100405760003560e01c8063b2b82ff514610045578063ba43ec861461006e575b600080fd5b6100586100533660046101b7565b61008f565b6040516100659190610257565b60405180910390f35b61008161007c366004610271565b6100bb565b6040516100659291906102ae565b606082826040516020016100a49291906102e5565b604051602081830303815290604052905092915050565b60006060600080848060200190518101906100d6919061032c565b90969095509350505050565b600b81106100ef57600080fd5b50565b634e487b7160e01b600052604160045260246000fd5b604051601f8201601f1916810167ffffffffffffffff81118282101715610131576101316100f2565b604052919050565b600067ffffffffffffffff821115610153576101536100f2565b50601f01601f191660200190565b600082601f83011261017257600080fd5b813561018561018082610139565b610108565b81815284602083860101111561019a57600080fd5b816020850160208301376000918101602001919091529392505050565b600080604083850312156101ca57600080fd5b82356101d5816100e2565b9150602083013567ffffffffffffffff8111156101f157600080fd5b6101fd85828601610161565b9150509250929050565b60005b8381101561022257818101518382015260200161020a565b50506000910152565b60008151808452610243816020860160208601610207565b601f01601f19169290920160200192915050565b60208152600061026a602083018461022b565b9392505050565b60006020828403121561028357600080fd5b813567ffffffffffffffff81111561029a57600080fd5b6102a684828501610161565b949350505050565b6000600b84106102ce57634e487b7160e01b600052602160045260246000fd5b838252604060208301526102a6604083018461022b565b6000600b841061030557634e487b7160e01b600052602160045260246000fd5b8360f81b8252825161031e816001850160208701610207565b919091016001019392505050565b6000806040838503121561033f57600080fd5b825161034a816100e2565b602084015190925067ffffffffffffffff81111561036757600080fd5b8301601f8101851361037857600080fd5b805161038661018082610139565b81815286602083850101111561039b57600080fd5b6103ac826020830160208601610207565b809350505050925092905056fea26469706673582212201bb3ccca3ec681b6a3ab465a22de607802665889fc7827ba96b89a2e884406e764736f6c63430008100033",
  "immutableReferences": {},
  "source": "// SPDX-License-Identifier: GPL-3.0\npragma solidity >=0.7.0 <0.9.0;\n\nlibrary Message {\n    /* all messaging topics */\n    enum Title {\n        /* subscription */\n        SUBSCRIBE,\n        UN_SUBSCRIBE,\n        /* course */\n        CREATE_COURSE,\n        UPDATE_COURSE,\n        /* user */\n        CREATE_USER,\n        UN_LOCK_CREATOR,\n        LOCK_CREATOR,\n        /* staking */\n        STAKE,\n        UN_STAKE,\n        /* revenue */\n        CLAIM_REVENUE,\n        /* category */\n        CREATE_CATEGORY\n    }\n\n    /* create a new message */\n    function packMessage(Title _messageTitle, bytes memory _data)\n        public\n        pure\n        returns (bytes memory)\n    {\n        return abi.encodePacked(_messageTitle, _data);\n    }\n\n    /* reveal a message */\n    function unPackMessage(bytes memory _data)\n        public\n        pure\n        returns (Title, bytes memory)\n    {\n        (Title messageTitle, bytes memory data) = abi.decode(\n            _data,\n            (Title, bytes)\n        );\n        return (messageTitle, data);\n    }\n}\n",
  "sourcePath": "C:\\Users\\Arogundade Ibrahim\\Documents\\web3\\Buidl\\contracts\\axelar\\Message.sol",
  "compiler": {
    "name": "solc",
    "version": "0.8.16+commit.07a7930e.Emscripten.clang"
  },
  "schemaVersion": "3.4.10",
  "updatedAt": "2022-11-07T20:36:46.353Z",
  "devdoc": {
    "kind": "dev",
    "methods": {},
    "version": 1
  },
  "userdoc": {
    "kind": "user",
    "methods": {},
    "version": 1
  }
}