{
  "contractName": "Message",
  "abi": [
    {
      "inputs": [
        {
          "internalType": "uint256",
          "name": "_topic",
          "type": "uint256"
        },
        {
          "internalType": "bytes",
          "name": "_data",
          "type": "bytes"
        }
      ],
      "name": "packMessage",
      "outputs": [
        {
          "internalType": "bytes",
          "name": "",
          "type": "bytes"
        }
      ],
      "stateMutability": "pure",
      "type": "function"
    },
    {
      "inputs": [
        {
          "internalType": "bytes",
          "name": "_data",
          "type": "bytes"
        }
      ],
      "name": "unPackMessage",
      "outputs": [
        {
          "internalType": "uint256",
          "name": "",
          "type": "uint256"
        },
        {
          "internalType": "bytes",
          "name": "",
          "type": "bytes"
        }
      ],
      "stateMutability": "pure",
      "type": "function"
    }
  ],
  "bytecode": "0x6103a661003a600b82828239805160001a60731461002d57634e487b7160e01b600052600060045260246000fd5b30600052607381538281f3fe73000000000000000000000000000000000000000030146080604052600436106100405760003560e01c806358323f3814610045578063ba43ec861461006e575b600080fd5b6100586100533660046101c0565b61008f565b6040516100659190610257565b60405180910390f35b61008161007c366004610271565b6100bb565b6040516100659291906102ae565b606082826040516020016100a49291906102c7565b604051602081830303815290604052905092915050565b60006060600080848060200190518101906100d691906102ed565b90969095509350505050565b7f4e487b7100000000000000000000000000000000000000000000000000000000600052604160045260246000fd5b604051601f8201601f1916810167ffffffffffffffff8111828210171561013a5761013a6100e2565b604052919050565b600067ffffffffffffffff82111561015c5761015c6100e2565b50601f01601f191660200190565b600082601f83011261017b57600080fd5b813561018e61018982610142565b610111565b8181528460208386010111156101a357600080fd5b816020850160208301376000918101602001919091529392505050565b600080604083850312156101d357600080fd5b82359150602083013567ffffffffffffffff8111156101f157600080fd5b6101fd8582860161016a565b9150509250929050565b60005b8381101561022257818101518382015260200161020a565b50506000910152565b60008151808452610243816020860160208601610207565b601f01601f19169290920160200192915050565b60208152600061026a602083018461022b565b9392505050565b60006020828403121561028357600080fd5b813567ffffffffffffffff81111561029a57600080fd5b6102a68482850161016a565b949350505050565b8281526040602082015260006102a6604083018461022b565b828152600082516102df816020850160208701610207565b919091016020019392505050565b6000806040838503121561030057600080fd5b82519150602083015167ffffffffffffffff81111561031e57600080fd5b8301601f8101851361032f57600080fd5b805161033d61018982610142565b81815286602083850101111561035257600080fd5b610363826020830160208601610207565b809350505050925092905056fea2646970667358221220d29b37c07c33263b40285953d5952afb285df28e34be78ed7a88b4ac699604c564736f6c63430008100033",
  "immutableReferences": {},
  "source": "// SPDX-License-Identifier: GPL-3.0\npragma solidity >=0.7.0 <0.9.0;\n\nlibrary Message {\n    /* all messaging topics */\n    // ==== //\n    /* subscription */\n    uint constant SUBSCRIBE = 1;\n    uint constant UN_SUBSCRIBE = 2;\n    /* course */\n    uint constant CREATE_COURSE = 3;\n    uint constant UPDATE_COURSE = 4;\n    /* user */\n    uint constant CREATE_USER = 5;\n    uint constant UN_LOCK_CREATOR = 6;\n    uint constant LOCK_CREATOR = 7;\n    /* staking */\n    uint constant STAKE = 8;\n    uint constant UN_STAKE = 9;\n    /* revenue */\n    uint constant CLAIM_REVENUE = 10;\n    /* category */\n    uint constant CREATE_CATEGORY = 11;\n\n    /* create a new message */\n    function packMessage(uint _topic, bytes memory _data)\n        public\n        pure\n        returns (bytes memory)\n    {\n        return abi.encodePacked(_topic, _data);\n    }\n\n    /* reveal a message */\n    function unPackMessage(bytes memory _data)\n        public\n        pure\n        returns (uint, bytes memory)\n    {\n        (uint topic, bytes memory data) = abi.decode(_data, (uint, bytes));\n        return (topic, data);\n    }\n}\n",
  "sourcePath": "C:\\Users\\Arogundade Ibrahim\\Documents\\web3\\Buidl\\contracts\\axelar\\Message.sol",
  "compiler": {
    "name": "solc",
    "version": "0.8.16+commit.07a7930e.Emscripten.clang"
  },
  "schemaVersion": "3.4.10",
  "updatedAt": "2022-11-09T03:20:16.012Z",
  "devdoc": {
    "kind": "dev",
    "methods": {},
    "version": 1
  },
  "userdoc": {
    "kind": "user",
    "methods": {},
    "version": 1
  }
}