{
  "contractName": "PaymentFlow",
  "abi": [
    {
      "inputs": [
        {
          "internalType": "address",
          "name": "token",
          "type": "address"
        }
      ],
      "stateMutability": "nonpayable",
      "type": "constructor"
    },
    {
      "inputs": [
        {
          "internalType": "address",
          "name": "receiver",
          "type": "address"
        },
        {
          "internalType": "int96",
          "name": "flowRate",
          "type": "int96"
        }
      ],
      "name": "createFlow",
      "outputs": [],
      "stateMutability": "nonpayable",
      "type": "function"
    },
    {
      "inputs": [
        {
          "internalType": "address",
          "name": "receiver",
          "type": "address"
        },
        {
          "internalType": "int96",
          "name": "flowRate",
          "type": "int96"
        }
      ],
      "name": "updateFlow",
      "outputs": [],
      "stateMutability": "nonpayable",
      "type": "function"
    },
    {
      "inputs": [
        {
          "internalType": "address",
          "name": "receiver",
          "type": "address"
        }
      ],
      "name": "deleteFlow",
      "outputs": [],
      "stateMutability": "nonpayable",
      "type": "function"
    }
  ],
  "bytecode": "0x6080604052600580546001600160a01b031990811673eb796bdb90ffa0f28255275e16936d25d341860317909155600680549091167349e565ed1bdc17f3d220f72df0857c26fa83f87317905534801561005857600080fd5b50604051610686380380610686833981016040819052610077916100e9565b600280546001600160a01b039283166001600160a01b031991821617909155600554600380548316918416918217905560065460048054841691909416908117909355604080518082019091528181526020018390526000805483169091179055600180549091169091179055610119565b6000602082840312156100fb57600080fd5b81516001600160a01b038116811461011257600080fd5b9392505050565b61055e806101286000396000f3fe608060405234801561001057600080fd5b50600436106100415760003560e01c80638bf08bb614610046578063bf8d075b1461005b578063f53d93c71461006e575b600080fd5b6100596100543660046102f6565b610081565b005b6100596100693660046102f6565b6100a0565b61005961007c366004610333565b6100bb565b60025461009c9060009084906001600160a01b0316846100da565b5050565b60025461009c9060009084906001600160a01b031684610100565b6002546100d790600090309084906001600160a01b0316610120565b50565b6040805160008152602081019091526100fa908590859085908590610140565b50505050565b6040805160008152602081019091526100fa90859085908590859061026b565b6040805160008152602081019091526100fa908590859085908590610295565b845460018601546001600160a01b03918216916339255d5b9116806350209a6287898860005b6040519080825280601f01601f191660200182016040528015610190576020820181803683370190505b506040516024016101a494939291906103d4565b60408051808303601f1901815291815260208201805160e094851b7bffffffffffffffffffffffffffffffffffffffffffffffffffffffff909116179052519185901b7fffffffff0000000000000000000000000000000000000000000000000000000016825261021c939250908690600401610413565b6000604051808303816000875af115801561023b573d6000803e3d6000fd5b505050506040513d6000823e601f3d908101601f191682016040526102639190810190610447565b505050505050565b845460018601546001600160a01b03918216916339255d5b9116806362fc305e8789886000610166565b845460018601546040805160008152602081019091526001600160a01b03928316926339255d5b921690819063b4b333c6906101a49088908b908b90604481016104f4565b80356001600160a01b03811681146102f157600080fd5b919050565b6000806040838503121561030957600080fd5b610312836102da565b9150602083013580600b0b811461032857600080fd5b809150509250929050565b60006020828403121561034557600080fd5b61034e826102da565b9392505050565b7f4e487b7100000000000000000000000000000000000000000000000000000000600052604160045260246000fd5b60005b8381101561039f578181015183820152602001610387565b50506000910152565b600081518084526103c0816020860160208601610384565b601f01601f19169290920160200192915050565b60006001600160a01b03808716835280861660208401525083600b0b60408301526080606083015261040960808301846103a8565b9695505050505050565b6001600160a01b038416815260606020820152600061043560608301856103a8565b828103604084015261040981856103a8565b60006020828403121561045957600080fd5b815167ffffffffffffffff8082111561047157600080fd5b818401915084601f83011261048557600080fd5b81518181111561049757610497610355565b604051601f8201601f19908116603f011681019083821181831017156104bf576104bf610355565b816040528281528760208487010111156104d857600080fd5b6104e9836020830160208801610384565b979650505050505050565b60006001600160a01b03808716835280861660208401528085166040840152506080606083015261040960808301846103a856fea26469706673582212207fb4b936c58c7353001f7facb132094807226c9f1229b9f525ac141eff5dfc4664736f6c63430008100033",
  "immutableReferences": {},
  "source": "// SPDX-License-Identifier: GPL-3.0\npragma solidity >=0.7.0 <0.9.0;\n\nimport {ISuperfluid} from \"@superfluid-finance/ethereum-contracts/contracts/interfaces/superfluid/ISuperfluid.sol\";\nimport {CFAv1Library} from \"@superfluid-finance/ethereum-contracts/contracts/apps/CFAv1Library.sol\";\nimport {IConstantFlowAgreementV1} from \"@superfluid-finance/ethereum-contracts/contracts/interfaces/agreements/IConstantFlowAgreementV1.sol\";\nimport {BdlToken} from \"./BdlToken.sol\";\nimport {Models} from \"./base/Models.sol\";\n\ncontract PaymentFlow {\n    using CFAv1Library for CFAv1Library.InitData;\n\n    CFAv1Library.InitData private cfaV1Lib;\n\n    BdlToken private _token;\n    ISuperfluid private _superFluid;\n    IConstantFlowAgreementV1 private _agreement;\n\n    address private host = 0xEB796bdb90fFA0f28255275e16936D25d3418603; // superfluid host address\n    address private cfa = 0x49e565Ed1bdc17F3d220f72DF0857C26FA83F873; // superfluid cfa address\n\n    constructor(address token) {\n        _token = BdlToken(token);\n        _superFluid = ISuperfluid(host);\n        _agreement = IConstantFlowAgreementV1(cfa);\n\n        cfaV1Lib = CFAv1Library.InitData(_superFluid, _agreement);\n    }\n\n    function createFlow(address receiver, int96 flowRate) public {\n        cfaV1Lib.createFlow(receiver, _token, flowRate);\n    }\n\n    function updateFlow(address receiver, int96 flowRate) public {\n        cfaV1Lib.updateFlow(receiver, _token, flowRate);\n    }\n\n    function deleteFlow(address receiver) public {\n        cfaV1Lib.deleteFlow(address(this), receiver, _token);\n    }\n}\n",
  "sourcePath": "C:\\Users\\Arogundade Ibrahim\\Documents\\web3\\Buidl\\contracts\\PaymentFlow.sol",
  "compiler": {
    "name": "solc",
    "version": "0.8.16+commit.07a7930e.Emscripten.clang"
  },
  "schemaVersion": "3.4.10",
  "updatedAt": "2022-10-24T20:53:57.777Z",
  "networkType": "ethereum",
  "devdoc": {
    "kind": "dev",
    "methods": {},
    "version": 1
  },
  "userdoc": {
    "kind": "user",
    "methods": {},
    "version": 1
  }
}