{
  "contractName": "PaymentFlow",
  "abi": [
    {
      "inputs": [
        {
          "internalType": "contract ISuperfluid",
          "name": "host",
          "type": "address"
        },
        {
          "internalType": "address",
          "name": "token",
          "type": "address"
        }
      ],
      "stateMutability": "nonpayable",
      "type": "constructor"
    },
    {
      "inputs": [],
      "name": "CFA_ID",
      "outputs": [
        {
          "internalType": "bytes32",
          "name": "",
          "type": "bytes32"
        }
      ],
      "stateMutability": "view",
      "type": "function",
      "constant": true
    },
    {
      "inputs": [],
      "name": "_deployer",
      "outputs": [
        {
          "internalType": "address",
          "name": "",
          "type": "address"
        }
      ],
      "stateMutability": "view",
      "type": "function",
      "constant": true
    },
    {
      "inputs": [
        {
          "internalType": "contract ISuperToken",
          "name": "",
          "type": "address"
        },
        {
          "internalType": "address",
          "name": "",
          "type": "address"
        },
        {
          "internalType": "bytes32",
          "name": "",
          "type": "bytes32"
        },
        {
          "internalType": "bytes",
          "name": "",
          "type": "bytes"
        },
        {
          "internalType": "bytes",
          "name": "",
          "type": "bytes"
        },
        {
          "internalType": "bytes",
          "name": "",
          "type": "bytes"
        }
      ],
      "name": "afterAgreementCreated",
      "outputs": [
        {
          "internalType": "bytes",
          "name": "",
          "type": "bytes"
        }
      ],
      "stateMutability": "nonpayable",
      "type": "function"
    },
    {
      "inputs": [
        {
          "internalType": "contract ISuperToken",
          "name": "",
          "type": "address"
        },
        {
          "internalType": "address",
          "name": "",
          "type": "address"
        },
        {
          "internalType": "bytes32",
          "name": "",
          "type": "bytes32"
        },
        {
          "internalType": "bytes",
          "name": "",
          "type": "bytes"
        },
        {
          "internalType": "bytes",
          "name": "",
          "type": "bytes"
        },
        {
          "internalType": "bytes",
          "name": "",
          "type": "bytes"
        }
      ],
      "name": "afterAgreementTerminated",
      "outputs": [
        {
          "internalType": "bytes",
          "name": "",
          "type": "bytes"
        }
      ],
      "stateMutability": "nonpayable",
      "type": "function"
    },
    {
      "inputs": [
        {
          "internalType": "contract ISuperToken",
          "name": "",
          "type": "address"
        },
        {
          "internalType": "address",
          "name": "",
          "type": "address"
        },
        {
          "internalType": "bytes32",
          "name": "",
          "type": "bytes32"
        },
        {
          "internalType": "bytes",
          "name": "",
          "type": "bytes"
        },
        {
          "internalType": "bytes",
          "name": "",
          "type": "bytes"
        },
        {
          "internalType": "bytes",
          "name": "",
          "type": "bytes"
        }
      ],
      "name": "afterAgreementUpdated",
      "outputs": [
        {
          "internalType": "bytes",
          "name": "",
          "type": "bytes"
        }
      ],
      "stateMutability": "nonpayable",
      "type": "function"
    },
    {
      "inputs": [
        {
          "internalType": "contract ISuperToken",
          "name": "",
          "type": "address"
        },
        {
          "internalType": "address",
          "name": "",
          "type": "address"
        },
        {
          "internalType": "bytes32",
          "name": "",
          "type": "bytes32"
        },
        {
          "internalType": "bytes",
          "name": "",
          "type": "bytes"
        },
        {
          "internalType": "bytes",
          "name": "",
          "type": "bytes"
        }
      ],
      "name": "beforeAgreementCreated",
      "outputs": [
        {
          "internalType": "bytes",
          "name": "",
          "type": "bytes"
        }
      ],
      "stateMutability": "view",
      "type": "function",
      "constant": true
    },
    {
      "inputs": [
        {
          "internalType": "contract ISuperToken",
          "name": "",
          "type": "address"
        },
        {
          "internalType": "address",
          "name": "",
          "type": "address"
        },
        {
          "internalType": "bytes32",
          "name": "",
          "type": "bytes32"
        },
        {
          "internalType": "bytes",
          "name": "",
          "type": "bytes"
        },
        {
          "internalType": "bytes",
          "name": "",
          "type": "bytes"
        }
      ],
      "name": "beforeAgreementTerminated",
      "outputs": [
        {
          "internalType": "bytes",
          "name": "",
          "type": "bytes"
        }
      ],
      "stateMutability": "view",
      "type": "function",
      "constant": true
    },
    {
      "inputs": [
        {
          "internalType": "contract ISuperToken",
          "name": "",
          "type": "address"
        },
        {
          "internalType": "address",
          "name": "",
          "type": "address"
        },
        {
          "internalType": "bytes32",
          "name": "",
          "type": "bytes32"
        },
        {
          "internalType": "bytes",
          "name": "",
          "type": "bytes"
        },
        {
          "internalType": "bytes",
          "name": "",
          "type": "bytes"
        }
      ],
      "name": "beforeAgreementUpdated",
      "outputs": [
        {
          "internalType": "bytes",
          "name": "",
          "type": "bytes"
        }
      ],
      "stateMutability": "view",
      "type": "function",
      "constant": true
    },
    {
      "inputs": [],
      "name": "cfaV1Lib",
      "outputs": [
        {
          "internalType": "contract ISuperfluid",
          "name": "host",
          "type": "address"
        },
        {
          "internalType": "contract IConstantFlowAgreementV1",
          "name": "cfa",
          "type": "address"
        }
      ],
      "stateMutability": "view",
      "type": "function",
      "constant": true
    },
    {
      "inputs": [],
      "name": "startStreaming",
      "outputs": [],
      "stateMutability": "nonpayable",
      "type": "function"
    },
    {
      "inputs": [],
      "name": "stopStreaming",
      "outputs": [],
      "stateMutability": "nonpayable",
      "type": "function"
    }
  ],
  "bytecode": "0x608060405234801561001057600080fd5b506040516107ed3803806107ed83398101604081905261002f9161007b565b60038054336001600160a01b031991821617909155600280549091166001600160a01b0392909216919091179055506100b5565b6001600160a01b038116811461007857600080fd5b50565b6000806040838503121561008e57600080fd5b825161009981610063565b60208401519092506100aa81610063565b809150509250929050565b610729806100c46000396000f3fe608060405234801561001057600080fd5b50600436106100c95760003560e01c806355586a3111610081578063d310556b1161005b578063d310556b146101ca578063d865f1d61461013b578063d86ed3e51461020f57600080fd5b806355586a31146101505780635f9e7d77146101a4578063884d1f40146101b757600080fd5b806330d9c915116100b257806330d9c9151461012857806348f8bede1461013b57806353c11f991461013d57600080fd5b8063215eed02146100ce578063230dbd2914610108575b600080fd5b6100f57fa9214cc96615e0085d3bb077758db69497dc2dce3b2b1e97bc93c3d18d83efd381565b6040519081526020015b60405180910390f35b61011b61011636600461053b565b610222565b6040516100ff9190610606565b61011b610136366004610654565b610298565b005b61011b61014b36600461053b565b610309565b6000546001546101779173ffffffffffffffffffffffffffffffffffffffff908116911682565b6040805173ffffffffffffffffffffffffffffffffffffffff9384168152929091166020830152016100ff565b61011b6101b2366004610654565b61037a565b61011b6101c5366004610654565b6103eb565b6003546101ea9073ffffffffffffffffffffffffffffffffffffffff1681565b60405173ffffffffffffffffffffffffffffffffffffffff90911681526020016100ff565b61011b61021d36600461053b565b61045c565b60405162461bcd60e51b815260206004820152602e60248201527f556e737570706f727465642063616c6c6261636b202d2041667465722041677260448201527f65656d656e74205570646174656400000000000000000000000000000000000060648201526060906084015b60405180910390fd5b60405162461bcd60e51b815260206004820152602f60248201527f556e737570706f727465642063616c6c6261636b202d204265666f726520416760448201527f7265656d656e7420437265617465640000000000000000000000000000000000606482015260609060840161028f565b60405162461bcd60e51b815260206004820152603160248201527f556e737570706f727465642063616c6c6261636b202d2041667465722041677260448201527f65656d656e74205465726d696e61746564000000000000000000000000000000606482015260609060840161028f565b60405162461bcd60e51b815260206004820152603360248201527f556e737570706f727465642063616c6c6261636b202d20204265666f7265204160448201527f677265656d656e74205465726d696e6174656400000000000000000000000000606482015260609060840161028f565b60405162461bcd60e51b815260206004820152602f60248201527f556e737570706f727465642063616c6c6261636b202d204265666f726520416760448201527f7265656d656e7420757064617465640000000000000000000000000000000000606482015260609060840161028f565b60405162461bcd60e51b815260206004820152602e60248201527f556e737570706f727465642063616c6c6261636b202d2041667465722041677260448201527f65656d656e742043726561746564000000000000000000000000000000000000606482015260609060840161028f565b73ffffffffffffffffffffffffffffffffffffffff811681146104ef57600080fd5b50565b60008083601f84011261050457600080fd5b50813567ffffffffffffffff81111561051c57600080fd5b60208301915083602082850101111561053457600080fd5b9250929050565b600080600080600080600080600060c08a8c03121561055957600080fd5b8935610564816104cd565b985060208a0135610574816104cd565b975060408a0135965060608a013567ffffffffffffffff8082111561059857600080fd5b6105a48d838e016104f2565b909850965060808c01359150808211156105bd57600080fd5b6105c98d838e016104f2565b909650945060a08c01359150808211156105e257600080fd5b506105ef8c828d016104f2565b915080935050809150509295985092959850929598565b600060208083528351808285015260005b8181101561063357858101830151858201604001528201610617565b506000604082860101526040601f19601f8301168501019250505092915050565b600080600080600080600060a0888a03121561066f57600080fd5b873561067a816104cd565b9650602088013561068a816104cd565b955060408801359450606088013567ffffffffffffffff808211156106ae57600080fd5b6106ba8b838c016104f2565b909650945060808a01359150808211156106d357600080fd5b506106e08a828b016104f2565b989b979a5095985093969295929350505056fea2646970667358221220ca12cf035c8a5fb1b2ac752d64558834c9a61a70f24a7612000010cc9494a19464736f6c63430008100033",
  "immutableReferences": {},
  "source": "// SPDX-License-Identifier: GPL-3.0\npragma solidity >=0.7.0 <0.9.0;\n\nimport {ISuperfluid, ISuperToken, ISuperApp, ISuperAgreement, SuperAppDefinitions} from \"@superfluid-finance/ethereum-contracts/contracts/interfaces/superfluid/ISuperfluid.sol\";\nimport {CFAv1Library} from \"@superfluid-finance/ethereum-contracts/contracts/apps/CFAv1Library.sol\";\nimport {IConstantFlowAgreementV1} from \"@superfluid-finance/ethereum-contracts/contracts/interfaces/agreements/IConstantFlowAgreementV1.sol\";\nimport {SuperAppBase} from \"@superfluid-finance/ethereum-contracts/contracts/apps/SuperAppBase.sol\";\nimport {BdlToken} from \"./BdlToken.sol\";\n\ncontract PaymentFlow is SuperAppBase {\n    using CFAv1Library for CFAv1Library.InitData;\n\n    CFAv1Library.InitData public cfaV1Lib;\n    bytes32 public constant CFA_ID =\n        keccak256(\"org.superfluid-finance.agreements.ConstantFlowAgreement.v1\");\n\n    BdlToken private _token; // accepted token\n    address public _deployer;\n\n    constructor(ISuperfluid host, address token) {\n        _deployer = msg.sender;\n        _token = BdlToken(token);\n\n        // cfaV1Lib = CFAv1Library.InitData(\n        //     host,\n        //     IConstantFlowAgreementV1(address(host.getAgreementClass(CFA_ID)))\n        // );\n\n        // uint256 configWord = SuperAppDefinitions.APP_LEVEL_FINAL |\n        //     SuperAppDefinitions.BEFORE_AGREEMENT_CREATED_NOOP |\n        //     SuperAppDefinitions.BEFORE_AGREEMENT_UPDATED_NOOP |\n        //     SuperAppDefinitions.BEFORE_AGREEMENT_TERMINATED_NOOP;\n\n        // host.registerApp(configWord);\n    }\n\n    function startStreaming() public {\n\n    }\n\n    function stopStreaming() public {\n\n    }\n\n    function _isSameToken(ISuperToken superToken) private view returns (bool) {\n        return address(superToken) == address(_token);\n    }\n\n    function _isCFAv1(address agreementClass) private view returns (bool) {\n        return ISuperAgreement(agreementClass).agreementType() == CFA_ID;\n    }\n\n    modifier onlyHost() {\n        require(\n            msg.sender == address(cfaV1Lib.host),\n            \"RedirectAll: support only one host\"\n        );\n        _;\n    }\n\n    modifier onlyExpected(ISuperToken superToken, address agreementClass) {\n        require(_isSameToken(superToken), \"RedirectAll: not accepted token\");\n        require(_isCFAv1(agreementClass), \"RedirectAll: only CFAv1 supported\");\n        _;\n    }\n}\n",
  "sourcePath": "C:\\Users\\Arogundade Ibrahim\\Documents\\web3\\Buidl\\contracts\\PaymentFlow.sol",
  "compiler": {
    "name": "solc",
    "version": "0.8.16+commit.07a7930e.Emscripten.clang"
  },
  "schemaVersion": "3.4.10",
  "updatedAt": "2022-10-23T20:34:21.366Z",
  "networkType": "ethereum",
  "devdoc": {
    "kind": "dev",
    "methods": {},
    "version": 1
  },
  "userdoc": {
    "kind": "user",
    "methods": {},
    "version": 1
  }
}