{
  "contractName": "PaymentFlow",
  "abi": [
    {
      "inputs": [
        {
          "internalType": "address",
          "name": "token",
          "type": "address"
        }
      ],
      "stateMutability": "nonpayable",
      "type": "constructor"
    },
    {
      "anonymous": false,
      "inputs": [
        {
          "indexed": false,
          "internalType": "address",
          "name": "receiver",
          "type": "address"
        },
        {
          "indexed": false,
          "internalType": "int96",
          "name": "flowRate",
          "type": "int96"
        }
      ],
      "name": "PaymentFlowCreated",
      "type": "event"
    },
    {
      "anonymous": false,
      "inputs": [
        {
          "indexed": false,
          "internalType": "address",
          "name": "receiver",
          "type": "address"
        }
      ],
      "name": "PaymentFlowDeleted",
      "type": "event"
    },
    {
      "anonymous": false,
      "inputs": [
        {
          "indexed": false,
          "internalType": "address",
          "name": "receiver",
          "type": "address"
        },
        {
          "indexed": false,
          "internalType": "int96",
          "name": "flowRate",
          "type": "int96"
        }
      ],
      "name": "PaymentFlowUpdated",
      "type": "event"
    },
    {
      "inputs": [
        {
          "internalType": "address",
          "name": "receiver",
          "type": "address"
        },
        {
          "internalType": "int96",
          "name": "flowRate",
          "type": "int96"
        }
      ],
      "name": "createFlow",
      "outputs": [],
      "stateMutability": "nonpayable",
      "type": "function"
    },
    {
      "inputs": [
        {
          "internalType": "address",
          "name": "receiver",
          "type": "address"
        },
        {
          "internalType": "int96",
          "name": "flowRate",
          "type": "int96"
        }
      ],
      "name": "updateFlow",
      "outputs": [],
      "stateMutability": "nonpayable",
      "type": "function"
    },
    {
      "inputs": [
        {
          "internalType": "address",
          "name": "receiver",
          "type": "address"
        }
      ],
      "name": "deleteFlow",
      "outputs": [],
      "stateMutability": "nonpayable",
      "type": "function"
    }
  ],
  "bytecode": "0x6080604052600580546001600160a01b031990811673eb796bdb90ffa0f28255275e16936d25d341860317909155600680549091167349e565ed1bdc17f3d220f72df0857c26fa83f87317905534801561005857600080fd5b5060405161074a38038061074a833981016040819052610077916100e9565b600280546001600160a01b039283166001600160a01b031991821617909155600554600380548316918416918217905560065460048054841691909416908117909355604080518082019091528181526020018390526000805483169091179055600180549091169091179055610119565b6000602082840312156100fb57600080fd5b81516001600160a01b038116811461011257600080fd5b9392505050565b610622806101286000396000f3fe608060405234801561001057600080fd5b50600436106100415760003560e01c80638bf08bb614610046578063bf8d075b1461005b578063f53d93c71461006e575b600080fd5b6100596100543660046103ba565b610081565b005b6100596100693660046103ba565b6100e6565b61005961007c3660046103f7565b610143565b60025461009c9060009084906001600160a01b03168461019e565b604080516001600160a01b0384168152600b83900b60208201527f29a125a46b1553bccf9d5d54ad430ca7d74c214f95272981536eb943d8711bde91015b60405180910390a15050565b6002546101019060009084906001600160a01b0316846101c4565b604080516001600160a01b0384168152600b83900b60208201527f25450873b813eb5c855f5280d4577757cfa8f7849b210e81a4f55f336199546e91016100da565b60025461015f90600090309084906001600160a01b03166101e4565b6040516001600160a01b03821681527f71dbf24ca0a3ade33837ac4c4293cdec691093b6c1ec8ef87d65a47b1a1807969060200160405180910390a150565b6040805160008152602081019091526101be908590859085908590610204565b50505050565b6040805160008152602081019091526101be90859085908590859061032f565b6040805160008152602081019091526101be908590859085908590610359565b845460018601546001600160a01b03918216916339255d5b9116806350209a6287898860005b6040519080825280601f01601f191660200182016040528015610254576020820181803683370190505b506040516024016102689493929190610498565b60408051808303601f1901815291815260208201805160e094851b7bffffffffffffffffffffffffffffffffffffffffffffffffffffffff909116179052519185901b7fffffffff000000000000000000000000000000000000000000000000000000001682526102e09392509086906004016104d7565b6000604051808303816000875af11580156102ff573d6000803e3d6000fd5b505050506040513d6000823e601f3d908101601f19168201604052610327919081019061050b565b505050505050565b845460018601546001600160a01b03918216916339255d5b9116806362fc305e878988600061022a565b845460018601546040805160008152602081019091526001600160a01b03928316926339255d5b921690819063b4b333c6906102689088908b908b90604481016105b8565b80356001600160a01b03811681146103b557600080fd5b919050565b600080604083850312156103cd57600080fd5b6103d68361039e565b9150602083013580600b0b81146103ec57600080fd5b809150509250929050565b60006020828403121561040957600080fd5b6104128261039e565b9392505050565b7f4e487b7100000000000000000000000000000000000000000000000000000000600052604160045260246000fd5b60005b8381101561046357818101518382015260200161044b565b50506000910152565b60008151808452610484816020860160208601610448565b601f01601f19169290920160200192915050565b60006001600160a01b03808716835280861660208401525083600b0b6040830152608060608301526104cd608083018461046c565b9695505050505050565b6001600160a01b03841681526060602082015260006104f9606083018561046c565b82810360408401526104cd818561046c565b60006020828403121561051d57600080fd5b815167ffffffffffffffff8082111561053557600080fd5b818401915084601f83011261054957600080fd5b81518181111561055b5761055b610419565b604051601f8201601f19908116603f0116810190838211818310171561058357610583610419565b8160405282815287602084870101111561059c57600080fd5b6105ad836020830160208801610448565b979650505050505050565b60006001600160a01b0380871683528086166020840152808516604084015250608060608301526104cd608083018461046c56fea2646970667358221220214efdae97eeed3d22dedb522608dc2ab162dd9b7716cc90068d7f830a8314c264736f6c63430008100033",
  "immutableReferences": {},
  "source": "// SPDX-License-Identifier: GPL-3.0\npragma solidity >=0.7.0 <0.9.0;\n\nimport {ISuperfluid} from \"@superfluid-finance/ethereum-contracts/contracts/interfaces/superfluid/ISuperfluid.sol\";\nimport {CFAv1Library} from \"@superfluid-finance/ethereum-contracts/contracts/apps/CFAv1Library.sol\";\nimport {IConstantFlowAgreementV1} from \"@superfluid-finance/ethereum-contracts/contracts/interfaces/agreements/IConstantFlowAgreementV1.sol\";\nimport {BdlToken} from \"./BdlToken.sol\";\nimport {Models} from \"./base/Models.sol\";\n\ncontract PaymentFlow {\n    using CFAv1Library for CFAv1Library.InitData;\n\n    CFAv1Library.InitData private cfaV1Lib;\n\n    BdlToken private _token;\n    ISuperfluid private _superFluid;\n    IConstantFlowAgreementV1 private _agreement;\n\n    address private host = 0xEB796bdb90fFA0f28255275e16936D25d3418603; // superfluid host address\n    address private cfa = 0x49e565Ed1bdc17F3d220f72DF0857C26FA83F873; // superfluid cfa address\n\n    constructor(address token) {\n        _token = BdlToken(token);\n        _superFluid = ISuperfluid(host);\n        _agreement = IConstantFlowAgreementV1(cfa);\n\n        cfaV1Lib = CFAv1Library.InitData(_superFluid, _agreement);\n    }\n\n    function createFlow(address receiver, int96 flowRate) public {\n        cfaV1Lib.createFlow(receiver, _token, flowRate);\n\n        emit PaymentFlowCreated(receiver, flowRate);\n    }\n\n    function updateFlow(address receiver, int96 flowRate) public {\n        cfaV1Lib.updateFlow(receiver, _token, flowRate);\n\n        emit PaymentFlowUpdated(receiver, flowRate);\n    }\n\n    function deleteFlow(address receiver) public {\n        cfaV1Lib.deleteFlow(address(this), receiver, _token);\n\n        emit PaymentFlowDeleted(receiver);\n    }\n\n    // == events == //\n    event PaymentFlowCreated(address receiver, int96 flowRate);\n    event PaymentFlowUpdated(address receiver, int96 flowRate);\n    event PaymentFlowDeleted(address receiver);\n}\n",
  "sourcePath": "C:\\Users\\Arogundade Ibrahim\\Documents\\web3\\Buidl\\contracts\\PaymentFlow.sol",
  "compiler": {
    "name": "solc",
    "version": "0.8.16+commit.07a7930e.Emscripten.clang"
  },
  "schemaVersion": "3.4.10",
  "updatedAt": "2022-10-25T09:08:40.102Z",
  "devdoc": {
    "kind": "dev",
    "methods": {},
    "version": 1
  },
  "userdoc": {
    "kind": "user",
    "methods": {},
    "version": 1
  }
}