{
  "contractName": "PaymentFlow",
  "abi": [
    {
      "inputs": [
        {
          "internalType": "address",
          "name": "token",
          "type": "address"
        }
      ],
      "stateMutability": "nonpayable",
      "type": "constructor"
    },
    {
      "inputs": [],
      "name": "CFA_ID",
      "outputs": [
        {
          "internalType": "bytes32",
          "name": "",
          "type": "bytes32"
        }
      ],
      "stateMutability": "view",
      "type": "function"
    },
    {
      "inputs": [],
      "name": "_deployer",
      "outputs": [
        {
          "internalType": "address",
          "name": "",
          "type": "address"
        }
      ],
      "stateMutability": "view",
      "type": "function"
    },
    {
      "inputs": [
        {
          "internalType": "contract ISuperToken",
          "name": "",
          "type": "address"
        },
        {
          "internalType": "address",
          "name": "",
          "type": "address"
        },
        {
          "internalType": "bytes32",
          "name": "",
          "type": "bytes32"
        },
        {
          "internalType": "bytes",
          "name": "",
          "type": "bytes"
        },
        {
          "internalType": "bytes",
          "name": "",
          "type": "bytes"
        },
        {
          "internalType": "bytes",
          "name": "",
          "type": "bytes"
        }
      ],
      "name": "afterAgreementCreated",
      "outputs": [
        {
          "internalType": "bytes",
          "name": "",
          "type": "bytes"
        }
      ],
      "stateMutability": "nonpayable",
      "type": "function"
    },
    {
      "inputs": [
        {
          "internalType": "contract ISuperToken",
          "name": "",
          "type": "address"
        },
        {
          "internalType": "address",
          "name": "",
          "type": "address"
        },
        {
          "internalType": "bytes32",
          "name": "",
          "type": "bytes32"
        },
        {
          "internalType": "bytes",
          "name": "",
          "type": "bytes"
        },
        {
          "internalType": "bytes",
          "name": "",
          "type": "bytes"
        },
        {
          "internalType": "bytes",
          "name": "",
          "type": "bytes"
        }
      ],
      "name": "afterAgreementTerminated",
      "outputs": [
        {
          "internalType": "bytes",
          "name": "",
          "type": "bytes"
        }
      ],
      "stateMutability": "nonpayable",
      "type": "function"
    },
    {
      "inputs": [
        {
          "internalType": "contract ISuperToken",
          "name": "",
          "type": "address"
        },
        {
          "internalType": "address",
          "name": "",
          "type": "address"
        },
        {
          "internalType": "bytes32",
          "name": "",
          "type": "bytes32"
        },
        {
          "internalType": "bytes",
          "name": "",
          "type": "bytes"
        },
        {
          "internalType": "bytes",
          "name": "",
          "type": "bytes"
        },
        {
          "internalType": "bytes",
          "name": "",
          "type": "bytes"
        }
      ],
      "name": "afterAgreementUpdated",
      "outputs": [
        {
          "internalType": "bytes",
          "name": "",
          "type": "bytes"
        }
      ],
      "stateMutability": "nonpayable",
      "type": "function"
    },
    {
      "inputs": [
        {
          "internalType": "contract ISuperToken",
          "name": "",
          "type": "address"
        },
        {
          "internalType": "address",
          "name": "",
          "type": "address"
        },
        {
          "internalType": "bytes32",
          "name": "",
          "type": "bytes32"
        },
        {
          "internalType": "bytes",
          "name": "",
          "type": "bytes"
        },
        {
          "internalType": "bytes",
          "name": "",
          "type": "bytes"
        }
      ],
      "name": "beforeAgreementCreated",
      "outputs": [
        {
          "internalType": "bytes",
          "name": "",
          "type": "bytes"
        }
      ],
      "stateMutability": "view",
      "type": "function"
    },
    {
      "inputs": [
        {
          "internalType": "contract ISuperToken",
          "name": "",
          "type": "address"
        },
        {
          "internalType": "address",
          "name": "",
          "type": "address"
        },
        {
          "internalType": "bytes32",
          "name": "",
          "type": "bytes32"
        },
        {
          "internalType": "bytes",
          "name": "",
          "type": "bytes"
        },
        {
          "internalType": "bytes",
          "name": "",
          "type": "bytes"
        }
      ],
      "name": "beforeAgreementTerminated",
      "outputs": [
        {
          "internalType": "bytes",
          "name": "",
          "type": "bytes"
        }
      ],
      "stateMutability": "view",
      "type": "function"
    },
    {
      "inputs": [
        {
          "internalType": "contract ISuperToken",
          "name": "",
          "type": "address"
        },
        {
          "internalType": "address",
          "name": "",
          "type": "address"
        },
        {
          "internalType": "bytes32",
          "name": "",
          "type": "bytes32"
        },
        {
          "internalType": "bytes",
          "name": "",
          "type": "bytes"
        },
        {
          "internalType": "bytes",
          "name": "",
          "type": "bytes"
        }
      ],
      "name": "beforeAgreementUpdated",
      "outputs": [
        {
          "internalType": "bytes",
          "name": "",
          "type": "bytes"
        }
      ],
      "stateMutability": "view",
      "type": "function"
    },
    {
      "inputs": [],
      "name": "cfaV1Lib",
      "outputs": [
        {
          "internalType": "contract ISuperfluid",
          "name": "host",
          "type": "address"
        },
        {
          "internalType": "contract IConstantFlowAgreementV1",
          "name": "cfa",
          "type": "address"
        }
      ],
      "stateMutability": "view",
      "type": "function"
    },
    {
      "inputs": [
        {
          "internalType": "address",
          "name": "receiver",
          "type": "address"
        },
        {
          "internalType": "int96",
          "name": "flowRate",
          "type": "int96"
        }
      ],
      "name": "startStreaming",
      "outputs": [],
      "stateMutability": "nonpayable",
      "type": "function"
    },
    {
      "inputs": [
        {
          "internalType": "address",
          "name": "receiver",
          "type": "address"
        }
      ],
      "name": "stopStreaming",
      "outputs": [],
      "stateMutability": "nonpayable",
      "type": "function"
    }
  ],
  "bytecode": "0x6080604052600680546001600160a01b031990811673eb796bdb90ffa0f28255275e16936d25d341860317909155600780549091167349e565ed1bdc17f3d220f72df0857c26fa83f87317905534801561005857600080fd5b50604051610c6b380380610c6b8339810160408190526100779161014b565b60028054336001600160a01b0319918216179091556003805482166001600160a01b0384811691909117909155600654600480549183169184168217815560075460058054919094169085168117909355604080518082018252838152602001849052600080548616841790556001805490951690931790935590516315a722b960e31b815264150000000192810183905263ad3915c890602401600060405180830381600087803b15801561012c57600080fd5b505af1158015610140573d6000803e3d6000fd5b50505050505061017b565b60006020828403121561015d57600080fd5b81516001600160a01b038116811461017457600080fd5b9392505050565b610ae18061018a6000396000f3fe608060405234801561001057600080fd5b50600436106100c95760003560e01c80635f9e7d7711610081578063d310556b1161005b578063d310556b146101c3578063d86ed3e5146101ee578063f0ee2ce11461020157600080fd5b80635f9e7d7714610188578063884d1f401461019b578063a987a736146101ae57600080fd5b806330d9c915116100b257806330d9c9151461012857806353c11f991461013b57806355586a311461014e57600080fd5b8063215eed02146100ce578063230dbd2914610108575b600080fd5b6100f57fa9214cc96615e0085d3bb077758db69497dc2dce3b2b1e97bc93c3d18d83efd381565b6040519081526020015b60405180910390f35b61011b6101163660046106f7565b610214565b6040516100ff9190610812565b61011b61013636600461082c565b61028a565b61011b6101493660046106f7565b6102fb565b600054600154610168916001600160a01b03908116911682565b604080516001600160a01b039384168152929091166020830152016100ff565b61011b61019636600461082c565b61036c565b61011b6101a936600461082c565b6103dd565b6101c16101bc3660046108cb565b61044e565b005b6002546101d6906001600160a01b031681565b6040516001600160a01b0390911681526020016100ff565b61011b6101fc3660046106f7565b610472565b6101c161020f3660046108e8565b6104e3565b60405162461bcd60e51b815260206004820152602e60248201527f556e737570706f727465642063616c6c6261636b202d2041667465722041677260448201527f65656d656e74205570646174656400000000000000000000000000000000000060648201526060906084015b60405180910390fd5b60405162461bcd60e51b815260206004820152602f60248201527f556e737570706f727465642063616c6c6261636b202d204265666f726520416760448201527f7265656d656e74204372656174656400000000000000000000000000000000006064820152606090608401610281565b60405162461bcd60e51b815260206004820152603160248201527f556e737570706f727465642063616c6c6261636b202d2041667465722041677260448201527f65656d656e74205465726d696e617465640000000000000000000000000000006064820152606090608401610281565b60405162461bcd60e51b815260206004820152603360248201527f556e737570706f727465642063616c6c6261636b202d20204265666f7265204160448201527f677265656d656e74205465726d696e61746564000000000000000000000000006064820152606090608401610281565b60405162461bcd60e51b815260206004820152602f60248201527f556e737570706f727465642063616c6c6261636b202d204265666f726520416760448201527f7265656d656e74207570646174656400000000000000000000000000000000006064820152606090608401610281565b60025460035461046f916000916001600160a01b0391821691859116610502565b50565b60405162461bcd60e51b815260206004820152602e60248201527f556e737570706f727465642063616c6c6261636b202d2041667465722041677260448201527f65656d656e7420437265617465640000000000000000000000000000000000006064820152606090608401610281565b6003546104fe9060009084906001600160a01b031684610528565b5050565b604080516000815260208101909152610522908590859085908590610548565b50505050565b604080516000815260208101909152610522908590859085908590610654565b845460018601546040805160008152602081019091526001600160a01b03928316926339255d5b921690819063b4b333c69061058d9088908b908b9060448101610957565b60408051808303601f1901815291815260208201805160e094851b7bffffffffffffffffffffffffffffffffffffffffffffffffffffffff909116179052519185901b7fffffffff00000000000000000000000000000000000000000000000000000000168252610605939250908690600401610995565b6000604051808303816000875af1158015610624573d6000803e3d6000fd5b505050506040513d6000823e601f3d908101601f1916820160405261064c91908101906109c9565b505050505050565b845460018601546040805160008152602081019091526001600160a01b03928316926339255d5b92169081906362fc305e9061058d9089908b908a9060448101610a76565b6001600160a01b038116811461046f57600080fd5b60008083601f8401126106c057600080fd5b50813567ffffffffffffffff8111156106d857600080fd5b6020830191508360208285010111156106f057600080fd5b9250929050565b600080600080600080600080600060c08a8c03121561071557600080fd5b893561072081610699565b985060208a013561073081610699565b975060408a0135965060608a013567ffffffffffffffff8082111561075457600080fd5b6107608d838e016106ae565b909850965060808c013591508082111561077957600080fd5b6107858d838e016106ae565b909650945060a08c013591508082111561079e57600080fd5b506107ab8c828d016106ae565b915080935050809150509295985092959850929598565b60005b838110156107dd5781810151838201526020016107c5565b50506000910152565b600081518084526107fe8160208601602086016107c2565b601f01601f19169290920160200192915050565b60208152600061082560208301846107e6565b9392505050565b600080600080600080600060a0888a03121561084757600080fd5b873561085281610699565b9650602088013561086281610699565b955060408801359450606088013567ffffffffffffffff8082111561088657600080fd5b6108928b838c016106ae565b909650945060808a01359150808211156108ab57600080fd5b506108b88a828b016106ae565b989b979a50959850939692959293505050565b6000602082840312156108dd57600080fd5b813561082581610699565b600080604083850312156108fb57600080fd5b823561090681610699565b91506020830135600b81900b811461091d57600080fd5b809150509250929050565b7f4e487b7100000000000000000000000000000000000000000000000000000000600052604160045260246000fd5b60006001600160a01b03808716835280861660208401528085166040840152506080606083015261098b60808301846107e6565b9695505050505050565b6001600160a01b03841681526060602082015260006109b760608301856107e6565b828103604084015261098b81856107e6565b6000602082840312156109db57600080fd5b815167ffffffffffffffff808211156109f357600080fd5b818401915084601f830112610a0757600080fd5b815181811115610a1957610a19610928565b604051601f8201601f19908116603f01168101908382118183101715610a4157610a41610928565b81604052828152876020848701011115610a5a57600080fd5b610a6b8360208301602088016107c2565b979650505050505050565b60006001600160a01b03808716835280861660208401525083600b0b60408301526080606083015261098b60808301846107e656fea2646970667358221220f5b093a674d8d7899e029a4a7a46a4b6323d6ef1957b045d03a75b185bace09a64736f6c63430008100033",
  "immutableReferences": {},
  "source": "// SPDX-License-Identifier: GPL-3.0\npragma solidity >=0.7.0 <0.9.0;\n\nimport {ISuperfluid, ISuperToken, ISuperApp, ISuperAgreement, SuperAppDefinitions} from \"@superfluid-finance/ethereum-contracts/contracts/interfaces/superfluid/ISuperfluid.sol\";\nimport {CFAv1Library} from \"@superfluid-finance/ethereum-contracts/contracts/apps/CFAv1Library.sol\";\nimport {IConstantFlowAgreementV1} from \"@superfluid-finance/ethereum-contracts/contracts/interfaces/agreements/IConstantFlowAgreementV1.sol\";\nimport {SuperAppBase} from \"@superfluid-finance/ethereum-contracts/contracts/apps/SuperAppBase.sol\";\nimport {BdlToken} from \"./BdlToken.sol\";\n\ncontract PaymentFlow is SuperAppBase {\n    using CFAv1Library for CFAv1Library.InitData;\n\n    CFAv1Library.InitData public cfaV1Lib;\n    bytes32 public constant CFA_ID =\n        keccak256(\"org.superfluid-finance.agreements.ConstantFlowAgreement.v1\");\n\n    address public _deployer;\n\n    BdlToken private _token;\n    ISuperfluid private _superFluid;\n    IConstantFlowAgreementV1 private _agreement;\n\n    address private host = 0xEB796bdb90fFA0f28255275e16936D25d3418603;\n    address private cfa = 0x49e565Ed1bdc17F3d220f72DF0857C26FA83F873;\n\n    constructor(address token) {\n        _deployer = msg.sender;\n        _token = BdlToken(token);\n        _superFluid = ISuperfluid(host);\n        _agreement = IConstantFlowAgreementV1(cfa);\n\n        cfaV1Lib = CFAv1Library.InitData(_superFluid, _agreement);\n\n        uint256 configWord = SuperAppDefinitions.APP_LEVEL_FINAL |\n            SuperAppDefinitions.BEFORE_AGREEMENT_CREATED_NOOP |\n            SuperAppDefinitions.BEFORE_AGREEMENT_UPDATED_NOOP |\n            SuperAppDefinitions.BEFORE_AGREEMENT_TERMINATED_NOOP;\n\n        _superFluid.registerApp(configWord);\n    }\n\n    function startStreaming(address receiver, int96 flowRate) public {\n        cfaV1Lib.createFlow(receiver, _token, flowRate);\n    }\n\n    function stopStreaming(address receiver) public {\n        cfaV1Lib.deleteFlow(_deployer, receiver, _token);\n    }\n\n    function _isSameToken(ISuperToken superToken) private view returns (bool) {\n        return address(superToken) == address(_token);\n    }\n\n    function _isCFAv1(address agreementClass) private view returns (bool) {\n        return ISuperAgreement(agreementClass).agreementType() == CFA_ID;\n    }\n\n    modifier onlyHost() {\n        require(\n            msg.sender == address(cfaV1Lib.host),\n            \"RedirectAll: support only one host\"\n        );\n        _;\n    }\n\n    modifier onlyExpected(ISuperToken superToken, address agreementClass) {\n        require(_isSameToken(superToken), \"RedirectAll: not accepted token\");\n        require(_isCFAv1(agreementClass), \"RedirectAll: only CFAv1 supported\");\n        _;\n    }\n}\n",
  "sourcePath": "C:\\Users\\Arogundade Ibrahim\\Documents\\web3\\Buidl\\contracts\\PaymentFlow.sol",
  "compiler": {
    "name": "solc",
    "version": "0.8.16+commit.07a7930e.Emscripten.clang"
  },
  "schemaVersion": "3.4.10",
  "updatedAt": "2022-10-24T10:30:54.145Z",
  "devdoc": {
    "kind": "dev",
    "methods": {},
    "version": 1
  },
  "userdoc": {
    "kind": "user",
    "methods": {},
    "version": 1
  }
}