{
  "contractName": "Staking",
  "abi": [
    {
      "anonymous": false,
      "inputs": [
        {
          "indexed": false,
          "internalType": "address",
          "name": "from",
          "type": "address"
        },
        {
          "indexed": false,
          "internalType": "uint256",
          "name": "amount",
          "type": "uint256"
        }
      ],
      "name": "StakingStaked",
      "type": "event"
    },
    {
      "anonymous": false,
      "inputs": [
        {
          "indexed": false,
          "internalType": "address",
          "name": "from",
          "type": "address"
        }
      ],
      "name": "StakingUnStaked",
      "type": "event"
    },
    {
      "inputs": [
        {
          "internalType": "address",
          "name": "",
          "type": "address"
        }
      ],
      "name": "stakes",
      "outputs": [
        {
          "internalType": "uint256",
          "name": "amount",
          "type": "uint256"
        },
        {
          "internalType": "uint256",
          "name": "time",
          "type": "uint256"
        },
        {
          "internalType": "uint256",
          "name": "duration",
          "type": "uint256"
        },
        {
          "internalType": "int96",
          "name": "rewardFlowRate",
          "type": "int96"
        }
      ],
      "stateMutability": "view",
      "type": "function"
    },
    {
      "inputs": [
        {
          "internalType": "address",
          "name": "from",
          "type": "address"
        },
        {
          "internalType": "uint256",
          "name": "amount",
          "type": "uint256"
        },
        {
          "internalType": "uint256",
          "name": "duration",
          "type": "uint256"
        },
        {
          "internalType": "int96",
          "name": "rewardFlowRate",
          "type": "int96"
        }
      ],
      "name": "stake",
      "outputs": [],
      "stateMutability": "nonpayable",
      "type": "function"
    },
    {
      "inputs": [
        {
          "internalType": "address",
          "name": "from",
          "type": "address"
        }
      ],
      "name": "claim",
      "outputs": [],
      "stateMutability": "nonpayable",
      "type": "function"
    }
  ],
  "bytecode": "0x608060405234801561001057600080fd5b50610489806100206000396000f3fe608060405234801561001057600080fd5b50600436106100415760003560e01c806316934fc4146100465780631e83409a146100a5578063ab84bb78146100ba575b600080fd5b61007e6100543660046103a3565b600060208190529081526040902080546001820154600283015460039093015491929091600b0b84565b60408051948552602085019390935291830152600b0b606082015260800160405180910390f35b6100b86100b33660046103a3565b6100cd565b005b6100b86100c83660046103c5565b610264565b73ffffffffffffffffffffffffffffffffffffffff81166000908152602081815260408083208151608081018352815480825260018301549482019490945260028201549281019290925260030154600b0b606082015291036101775760405162461bcd60e51b815260206004820152600760248201527f216578697374730000000000000000000000000000000000000000000000000060448201526064015b60405180910390fd5b60008160400151826020015161018d9190610413565b9050804210156101df5760405162461bcd60e51b815260206004820152600760248201527f746f6f6561727900000000000000000000000000000000000000000000000000604482015260640161016e565b73ffffffffffffffffffffffffffffffffffffffff8316600081815260208181526040808320838155600181018490556002810193909355600390920180546bffffffffffffffffffffffff1916905590519182527fef16b1759834bc37bcd5ea73d5d84eb422053cce333dfbec59c881b5f8a4ed55910160405180910390a1505050565b600083116102b45760405162461bcd60e51b815260206004820152601260248201527f217374616b655f7a65726f5f746f6b656e730000000000000000000000000000604482015260640161016e565b60408051608081018252848152426020808301918252828401868152600b86900b6060850190815273ffffffffffffffffffffffffffffffffffffffff8a16600081815280855287902095518655935160018601559051600285015551600390930180546bffffffffffffffffffffffff19166bffffffffffffffffffffffff9094169390931790925582519081529081018590527fe5d972642b14bd3ecf400bd751200d8af1e587e1725c8bd5d96564b9f664958b910160405180910390a150505050565b803573ffffffffffffffffffffffffffffffffffffffff8116811461039e57600080fd5b919050565b6000602082840312156103b557600080fd5b6103be8261037a565b9392505050565b600080600080608085870312156103db57600080fd5b6103e48561037a565b93506020850135925060408501359150606085013580600b0b811461040857600080fd5b939692955090935050565b8082018082111561044d577f4e487b7100000000000000000000000000000000000000000000000000000000600052601160045260246000fd5b9291505056fea26469706673582212209caf79e18d4dafa110b7593ba863ee1c7a2de22801d26b2bba8b03bc5a67fd3f64736f6c63430008100033",
  "immutableReferences": {},
  "source": "// SPDX-License-Identifier: GPL-3.0\npragma solidity >=0.7.0 <0.9.0;\n\nimport {Models} from \"./base/Models.sol\";\n\ncontract Staking {\n    mapping(address => Models.Stake) public stakes;\n\n    function stake(\n        address from,\n        uint256 amount,\n        uint duration,\n        int96 rewardFlowRate\n    ) external {\n        require(amount > 0, \"!stake_zero_tokens\");\n\n        stakes[from] = Models.Stake(\n            amount,\n            block.timestamp,\n            duration,\n            rewardFlowRate\n        );\n\n        emit StakingStaked(from, amount);\n    }\n\n    function claim(address from) external {\n        Models.Stake memory _stake = stakes[from];\n        require(_stake.amount != 0, \"!exists\");\n\n        uint unlockTime = (_stake.time + _stake.duration);\n        require(block.timestamp >= unlockTime, \"tooeary\");\n\n        delete stakes[from];\n\n        emit StakingUnStaked(from);\n    }\n\n    // == events == //\n    event StakingStaked(address from, uint256 amount);\n    event StakingUnStaked(address from);\n}\n",
  "sourcePath": "C:\\Users\\Arogundade Ibrahim\\Documents\\web3\\Buidl\\contracts\\Staking.sol",
  "compiler": {
    "name": "solc",
    "version": "0.8.16+commit.07a7930e.Emscripten.clang"
  },
  "schemaVersion": "3.4.10",
  "updatedAt": "2022-10-25T14:36:18.036Z",
  "networkType": "ethereum",
  "devdoc": {
    "kind": "dev",
    "methods": {},
    "version": 1
  },
  "userdoc": {
    "kind": "user",
    "methods": {},
    "version": 1
  }
}