{
  "contractName": "Staking",
  "abi": [
    {
      "inputs": [
        {
          "internalType": "address",
          "name": "stakeAddress",
          "type": "address"
        }
      ],
      "stateMutability": "nonpayable",
      "type": "constructor"
    },
    {
      "anonymous": false,
      "inputs": [
        {
          "indexed": false,
          "internalType": "address",
          "name": "from",
          "type": "address"
        },
        {
          "indexed": false,
          "internalType": "uint256",
          "name": "amount",
          "type": "uint256"
        }
      ],
      "name": "StakingStaked",
      "type": "event"
    },
    {
      "anonymous": false,
      "inputs": [
        {
          "indexed": false,
          "internalType": "address",
          "name": "from",
          "type": "address"
        }
      ],
      "name": "StakingUnStaked",
      "type": "event"
    },
    {
      "inputs": [
        {
          "internalType": "address",
          "name": "",
          "type": "address"
        }
      ],
      "name": "stakes",
      "outputs": [
        {
          "internalType": "uint256",
          "name": "amount",
          "type": "uint256"
        },
        {
          "internalType": "uint256",
          "name": "time",
          "type": "uint256"
        },
        {
          "internalType": "uint256",
          "name": "duration",
          "type": "uint256"
        },
        {
          "internalType": "uint96",
          "name": "rewardFlowRate",
          "type": "uint96"
        }
      ],
      "stateMutability": "view",
      "type": "function"
    },
    {
      "inputs": [
        {
          "internalType": "address",
          "name": "from",
          "type": "address"
        },
        {
          "internalType": "uint256",
          "name": "amount",
          "type": "uint256"
        },
        {
          "internalType": "uint256",
          "name": "duration",
          "type": "uint256"
        },
        {
          "internalType": "uint96",
          "name": "rewardFlowRate",
          "type": "uint96"
        }
      ],
      "name": "stake",
      "outputs": [],
      "stateMutability": "nonpayable",
      "type": "function"
    },
    {
      "inputs": [
        {
          "internalType": "address",
          "name": "from",
          "type": "address"
        }
      ],
      "name": "claim",
      "outputs": [],
      "stateMutability": "nonpayable",
      "type": "function"
    }
  ],
  "bytecode": "0x608060405234801561001057600080fd5b5060405161055038038061055083398101604081905261002f91610054565b600080546001600160a01b0319166001600160a01b0392909216919091179055610084565b60006020828403121561006657600080fd5b81516001600160a01b038116811461007d57600080fd5b9392505050565b6104bd806100936000396000f3fe608060405234801561001057600080fd5b50600436106100415760003560e01c8063110bddd31461004657806316934fc41461005b5780631e83409a146100d1575b600080fd5b6100596100543660046103cc565b6100e4565b005b61009f610069366004610425565b600160208190526000918252604090912080549181015460028201546003909201549091906bffffffffffffffffffffffff1684565b604080519485526020850193909352918301526bffffffffffffffffffffffff16606082015260800160405180910390f35b6100596100df366004610425565b610204565b600083116101395760405162461bcd60e51b815260206004820152601260248201527f217374616b655f7a65726f5f746f6b656e73000000000000000000000000000060448201526064015b60405180910390fd5b604080516080810182528481524260208083019182528284018681526bffffffffffffffffffffffff8681166060860190815273ffffffffffffffffffffffffffffffffffffffff8b16600081815260018087529089902097518855955195870195909555915160028601559051600390940180546bffffffffffffffffffffffff1916949091169390931790925582519081529081018590527fe5d972642b14bd3ecf400bd751200d8af1e587e1725c8bd5d96564b9f664958b910160405180910390a150505050565b73ffffffffffffffffffffffffffffffffffffffff81166000908152600160208181526040808420815160808101835281548082529482015493810193909352600281015491830191909152600301546bffffffffffffffffffffffff16606082015291036102b55760405162461bcd60e51b815260206004820152600760248201527f21657869737473000000000000000000000000000000000000000000000000006044820152606401610130565b6000816040015182602001516102cb9190610447565b90508042101561031d5760405162461bcd60e51b815260206004820152600760248201527f746f6f65617279000000000000000000000000000000000000000000000000006044820152606401610130565b73ffffffffffffffffffffffffffffffffffffffff831660008181526001602081815260408084208481559283018490556002830193909355600390910180546bffffffffffffffffffffffff1916905590519182527fef16b1759834bc37bcd5ea73d5d84eb422053cce333dfbec59c881b5f8a4ed55910160405180910390a1505050565b803573ffffffffffffffffffffffffffffffffffffffff811681146103c757600080fd5b919050565b600080600080608085870312156103e257600080fd5b6103eb856103a3565b9350602085013592506040850135915060608501356bffffffffffffffffffffffff8116811461041a57600080fd5b939692955090935050565b60006020828403121561043757600080fd5b610440826103a3565b9392505050565b80820180821115610481577f4e487b7100000000000000000000000000000000000000000000000000000000600052601160045260246000fd5b9291505056fea26469706673582212202711479ecfc4befe593eb78648ab3da7595b1b720d931688475b23e3b4b00fbf64736f6c63430008100033",
  "immutableReferences": {},
  "source": "// SPDX-License-Identifier: GPL-3.0\npragma solidity >=0.7.0 <0.9.0;\n\nimport {Models} from \"./base/Models.sol\";\n\ncontract Staking {\n    address _stakeAddress;\n    mapping(address => Models.Stake) public stakes;\n\n    constructor(address stakeAddress) {\n        _stakeAddress = stakeAddress;\n    }\n\n    function stake(\n        address from,\n        uint256 amount,\n        uint duration,\n        uint96 rewardFlowRate\n    ) external {\n        require(amount > 0, \"!stake_zero_tokens\");\n\n        stakes[from] = Models.Stake(\n            amount,\n            block.timestamp,\n            duration,\n            rewardFlowRate\n        );\n\n        emit StakingStaked(from, amount);\n    }\n\n    function claim(address from) external {\n        Models.Stake memory _stake = stakes[from];\n        require(_stake.amount != 0, \"!exists\");\n\n        uint unlockTime = (_stake.time + _stake.duration);\n        require(block.timestamp >= unlockTime, \"tooeary\");\n\n        delete stakes[from];\n\n        emit StakingUnStaked(from);\n    }\n\n    // == events == //\n    event StakingStaked(address from, uint256 amount);\n    event StakingUnStaked(address from);\n}\n",
  "sourcePath": "C:\\Users\\Arogundade Ibrahim\\Documents\\web3\\Buidl\\contracts\\Staking.sol",
  "compiler": {
    "name": "solc",
    "version": "0.8.16+commit.07a7930e.Emscripten.clang"
  },
  "schemaVersion": "3.4.10",
  "updatedAt": "2022-10-24T19:11:16.797Z",
  "devdoc": {
    "kind": "dev",
    "methods": {},
    "version": 1
  },
  "userdoc": {
    "kind": "user",
    "methods": {},
    "version": 1
  }
}