{
  "contractName": "Staking",
  "abi": [
    {
      "anonymous": false,
      "inputs": [
        {
          "indexed": false,
          "internalType": "address",
          "name": "from",
          "type": "address"
        },
        {
          "indexed": false,
          "internalType": "uint256",
          "name": "amount",
          "type": "uint256"
        }
      ],
      "name": "StakingStaked",
      "type": "event"
    },
    {
      "anonymous": false,
      "inputs": [
        {
          "indexed": false,
          "internalType": "address",
          "name": "from",
          "type": "address"
        }
      ],
      "name": "StakingUnStaked",
      "type": "event"
    },
    {
      "inputs": [
        {
          "internalType": "address",
          "name": "",
          "type": "address"
        }
      ],
      "name": "stakes",
      "outputs": [
        {
          "internalType": "uint256",
          "name": "amount",
          "type": "uint256"
        },
        {
          "internalType": "uint256",
          "name": "time",
          "type": "uint256"
        },
        {
          "internalType": "uint256",
          "name": "duration",
          "type": "uint256"
        },
        {
          "internalType": "uint96",
          "name": "rewardFlowRate",
          "type": "uint96"
        }
      ],
      "stateMutability": "view",
      "type": "function",
      "constant": true
    },
    {
      "inputs": [
        {
          "internalType": "address",
          "name": "from",
          "type": "address"
        },
        {
          "internalType": "uint256",
          "name": "amount",
          "type": "uint256"
        },
        {
          "internalType": "uint256",
          "name": "duration",
          "type": "uint256"
        },
        {
          "internalType": "uint96",
          "name": "rewardFlowRate",
          "type": "uint96"
        }
      ],
      "name": "stake",
      "outputs": [],
      "stateMutability": "nonpayable",
      "type": "function"
    },
    {
      "inputs": [
        {
          "internalType": "address",
          "name": "from",
          "type": "address"
        }
      ],
      "name": "claim",
      "outputs": [],
      "stateMutability": "nonpayable",
      "type": "function"
    }
  ],
  "bytecode": "0x608060405234801561001057600080fd5b506104b5806100206000396000f3fe608060405234801561001057600080fd5b50600436106100415760003560e01c8063110bddd31461004657806316934fc41461005b5780631e83409a146100d0575b600080fd5b6100596100543660046103c4565b6100e3565b005b61009e61006936600461041d565b6000602081905290815260409020805460018201546002830154600390930154919290916bffffffffffffffffffffffff1684565b604080519485526020850193909352918301526bffffffffffffffffffffffff16606082015260800160405180910390f35b6100596100de36600461041d565b6101fe565b600083116101385760405162461bcd60e51b815260206004820152601260248201527f217374616b655f7a65726f5f746f6b656e73000000000000000000000000000060448201526064015b60405180910390fd5b604080516080810182528481524260208083019182528284018681526bffffffffffffffffffffffff8681166060860190815273ffffffffffffffffffffffffffffffffffffffff8b1660008181528086528890209651875594516001870155915160028601559051600390940180546bffffffffffffffffffffffff1916949091169390931790925582519081529081018590527fe5d972642b14bd3ecf400bd751200d8af1e587e1725c8bd5d96564b9f664958b910160405180910390a150505050565b73ffffffffffffffffffffffffffffffffffffffff811660009081526020818152604080832081516080810183528154808252600183015494820194909452600282015492810192909252600301546bffffffffffffffffffffffff16606082015291036102ae5760405162461bcd60e51b815260206004820152600760248201527f2165786973747300000000000000000000000000000000000000000000000000604482015260640161012f565b6000816040015182602001516102c4919061043f565b9050804210156103165760405162461bcd60e51b815260206004820152600760248201527f746f6f6561727900000000000000000000000000000000000000000000000000604482015260640161012f565b73ffffffffffffffffffffffffffffffffffffffff8316600081815260208181526040808320838155600181018490556002810193909355600390920180546bffffffffffffffffffffffff1916905590519182527fef16b1759834bc37bcd5ea73d5d84eb422053cce333dfbec59c881b5f8a4ed55910160405180910390a1505050565b803573ffffffffffffffffffffffffffffffffffffffff811681146103bf57600080fd5b919050565b600080600080608085870312156103da57600080fd5b6103e38561039b565b9350602085013592506040850135915060608501356bffffffffffffffffffffffff8116811461041257600080fd5b939692955090935050565b60006020828403121561042f57600080fd5b6104388261039b565b9392505050565b80820180821115610479577f4e487b7100000000000000000000000000000000000000000000000000000000600052601160045260246000fd5b9291505056fea2646970667358221220fcf4751d52aa72468015732bcb0da187b03383806b2bd46f4fc15d34e766b1d664736f6c63430008100033",
  "immutableReferences": {},
  "source": "// SPDX-License-Identifier: GPL-3.0\npragma solidity >=0.7.0 <0.9.0;\n\nimport {Models} from \"./base/Models.sol\";\n\ncontract Staking {\n    mapping(address => Models.Stake) public stakes;\n\n    function stake(\n        address from,\n        uint256 amount,\n        uint duration,\n        uint96 rewardFlowRate\n    ) external {\n        require(amount > 0, \"!stake_zero_tokens\");\n\n        stakes[from] = Models.Stake(\n            amount,\n            block.timestamp,\n            duration,\n            rewardFlowRate\n        );\n\n        emit StakingStaked(from, amount);\n    }\n\n    function claim(address from) external {\n        Models.Stake memory _stake = stakes[from];\n        require(_stake.amount != 0, \"!exists\");\n\n        uint unlockTime = (_stake.time + _stake.duration);\n        require(block.timestamp >= unlockTime, \"tooeary\");\n\n        delete stakes[from];\n\n        emit StakingUnStaked(from);\n    }\n\n    // == events == //\n    event StakingStaked(address from, uint256 amount);\n    event StakingUnStaked(address from);\n}\n",
  "sourcePath": "C:\\Users\\Arogundade Ibrahim\\Documents\\web3\\Buidl\\contracts\\Staking.sol",
  "compiler": {
    "name": "solc",
    "version": "0.8.16+commit.07a7930e.Emscripten.clang"
  },
  "schemaVersion": "3.4.10",
  "updatedAt": "2022-10-24T20:53:57.784Z",
  "networkType": "ethereum",
  "devdoc": {
    "kind": "dev",
    "methods": {},
    "version": 1
  },
  "userdoc": {
    "kind": "user",
    "methods": {},
    "version": 1
  }
}