{
  "contractName": "Talent",
  "abi": [
    {
      "inputs": [],
      "stateMutability": "nonpayable",
      "type": "constructor"
    },
    {
      "inputs": [],
      "name": "talentIDtrack",
      "outputs": [
        {
          "internalType": "uint256",
          "name": "",
          "type": "uint256"
        }
      ],
      "stateMutability": "view",
      "type": "function",
      "constant": true
    },
    {
      "inputs": [
        {
          "internalType": "uint256",
          "name": "",
          "type": "uint256"
        }
      ],
      "name": "talents",
      "outputs": [
        {
          "internalType": "uint256",
          "name": "id",
          "type": "uint256"
        },
        {
          "internalType": "string",
          "name": "name",
          "type": "string"
        },
        {
          "internalType": "string",
          "name": "description",
          "type": "string"
        }
      ],
      "stateMutability": "view",
      "type": "function",
      "constant": true
    },
    {
      "inputs": [
        {
          "internalType": "string",
          "name": "name",
          "type": "string"
        },
        {
          "internalType": "string",
          "name": "description",
          "type": "string"
        }
      ],
      "name": "addTalent",
      "outputs": [],
      "stateMutability": "nonpayable",
      "type": "function"
    }
  ],
  "bytecode": "0x608060405260016000553480156200001657600080fd5b5033600160006101000a81548173ffffffffffffffffffffffffffffffffffffffff021916908373ffffffffffffffffffffffffffffffffffffffff160217905550620000d46040518060400160405280600a81526020017f566f696365204f766572000000000000000000000000000000000000000000008152506040518060400160405280600d81526020017f412073696d706c65206465736300000000000000000000000000000000000000815250620007a260201b60201c565b620001506040518060400160405280600881526020017f416e696d61746f720000000000000000000000000000000000000000000000008152506040518060400160405280600d81526020017f412073696d706c65206465736300000000000000000000000000000000000000815250620007a260201b60201c565b620001cc6040518060400160405280601481526020017f426c6f636b636861696e20446576656c6f7065720000000000000000000000008152506040518060400160405280600d81526020017f412073696d706c65206465736300000000000000000000000000000000000000815250620007a260201b60201c565b620002486040518060400160405280600b81526020017f55492044657369676e65720000000000000000000000000000000000000000008152506040518060400160405280600d81526020017f412073696d706c65206465736300000000000000000000000000000000000000815250620007a260201b60201c565b620002c46040518060400160405280600d81526020017f57656220446576656c6f706572000000000000000000000000000000000000008152506040518060400160405280600d81526020017f412073696d706c65206465736300000000000000000000000000000000000000815250620007a260201b60201c565b620003406040518060400160405280600d81526020017f566964656f2045646974696e67000000000000000000000000000000000000008152506040518060400160405280600d81526020017f412073696d706c65206465736300000000000000000000000000000000000000815250620007a260201b60201c565b620003bc6040518060400160405280600e81526020017f43727970746f2041647669736f720000000000000000000000000000000000008152506040518060400160405280600d81526020017f412073696d706c65206465736300000000000000000000000000000000000000815250620007a260201b60201c565b620004386040518060400160405280600e81526020017f4461746120536369656e746973740000000000000000000000000000000000008152506040518060400160405280600d81526020017f412073696d706c65206465736300000000000000000000000000000000000000815250620007a260201b60201c565b620004b46040518060400160405280601081526020017f4d6f62696c6520446576656c6f706572000000000000000000000000000000008152506040518060400160405280600d81526020017f412073696d706c65206465736300000000000000000000000000000000000000815250620007a260201b60201c565b620005306040518060400160405280600b81526020017f5472616e736c6174696f6e0000000000000000000000000000000000000000008152506040518060400160405280600d81526020017f412073696d706c65206465736300000000000000000000000000000000000000815250620007a260201b60201c565b620005ac6040518060400160405280600f81526020017f456d61696c204d61726b6574696e6700000000000000000000000000000000008152506040518060400160405280600d81526020017f412073696d706c65206465736300000000000000000000000000000000000000815250620007a260201b60201c565b620006286040518060400160405280601081526020017f4d657461766572736520457870657274000000000000000000000000000000008152506040518060400160405280600d81526020017f412073696d706c65206465736300000000000000000000000000000000000000815250620007a260201b60201c565b620006a46040518060400160405280600c81526020017f496c6c757374726174696e6700000000000000000000000000000000000000008152506040518060400160405280600d81526020017f412073696d706c65206465736300000000000000000000000000000000000000815250620007a260201b60201c565b620007206040518060400160405280600a81526020017f4e465420417274697374000000000000000000000000000000000000000000008152506040518060400160405280600d81526020017f412073696d706c65206465736300000000000000000000000000000000000000815250620007a260201b60201c565b6200079c6040518060400160405280600d81526020017f485220436f6e73756c74696e67000000000000000000000000000000000000008152506040518060400160405280600d81526020017f412073696d706c65206465736300000000000000000000000000000000000000815250620007a260201b60201c565b62000d20565b600160009054906101000a900473ffffffffffffffffffffffffffffffffffffffff1673ffffffffffffffffffffffffffffffffffffffff163373ffffffffffffffffffffffffffffffffffffffff161462000835576040517f08c379a00000000000000000000000000000000000000000000000000000000081526004016200082c9062000921565b60405180910390fd5b6040518060600160405280600054815260200183815260200182815250600260008054815260200190815260200160002060008201518160000155602082015181600101908162000887919062000bbd565b5060408201518160020190816200089f919062000bbd565b50905050600080815480929190620008b79062000cd3565b91905055505050565b600082825260208201905092915050565b7f596f752068617665207468652072696768747300000000000000000000000000600082015250565b600062000909601383620008c0565b91506200091682620008d1565b602082019050919050565b600060208201905081810360008301526200093c81620008fa565b9050919050565b600081519050919050565b7f4e487b7100000000000000000000000000000000000000000000000000000000600052604160045260246000fd5b7f4e487b7100000000000000000000000000000000000000000000000000000000600052602260045260246000fd5b60006002820490506001821680620009c557607f821691505b602082108103620009db57620009da6200097d565b5b50919050565b60008190508160005260206000209050919050565b60006020601f8301049050919050565b600082821b905092915050565b60006008830262000a457fffffffffffffffffffffffffffffffffffffffffffffffffffffffffffffffff8262000a06565b62000a51868362000a06565b95508019841693508086168417925050509392505050565b6000819050919050565b6000819050919050565b600062000a9e62000a9862000a928462000a69565b62000a73565b62000a69565b9050919050565b6000819050919050565b62000aba8362000a7d565b62000ad262000ac98262000aa5565b84845462000a13565b825550505050565b600090565b62000ae962000ada565b62000af681848462000aaf565b505050565b5b8181101562000b1e5762000b1260008262000adf565b60018101905062000afc565b5050565b601f82111562000b6d5762000b3781620009e1565b62000b4284620009f6565b8101602085101562000b52578190505b62000b6a62000b6185620009f6565b83018262000afb565b50505b505050565b600082821c905092915050565b600062000b926000198460080262000b72565b1980831691505092915050565b600062000bad838362000b7f565b9150826002028217905092915050565b62000bc88262000943565b67ffffffffffffffff81111562000be45762000be36200094e565b5b62000bf08254620009ac565b62000bfd82828562000b22565b600060209050601f83116001811462000c35576000841562000c20578287015190505b62000c2c858262000b9f565b86555062000c9c565b601f19841662000c4586620009e1565b60005b8281101562000c6f5784890151825560018201915060208501945060208101905062000c48565b8683101562000c8f578489015162000c8b601f89168262000b7f565b8355505b6001600288020188555050505b505050505050565b7f4e487b7100000000000000000000000000000000000000000000000000000000600052601160045260246000fd5b600062000ce08262000a69565b91507fffffffffffffffffffffffffffffffffffffffffffffffffffffffffffffffff820362000d155762000d1462000ca4565b5b600182019050919050565b610a218062000d306000396000f3fe608060405234801561001057600080fd5b50600436106100415760003560e01c80631d9b4447146100465780635c5abd2114610078578063f7f951fd14610096575b600080fd5b610060600480360381019061005b9190610351565b6100b2565b60405161006f9392919061041d565b60405180910390f35b6100806101ec565b60405161008d9190610462565b60405180910390f35b6100b060048036038101906100ab91906105b2565b6101f2565b005b60026020528060005260406000206000915090508060000154908060010180546100db90610659565b80601f016020809104026020016040519081016040528092919081815260200182805461010790610659565b80156101545780601f1061012957610100808354040283529160200191610154565b820191906000526020600020905b81548152906001019060200180831161013757829003601f168201915b50505050509080600201805461016990610659565b80601f016020809104026020016040519081016040528092919081815260200182805461019590610659565b80156101e25780601f106101b7576101008083540402835291602001916101e2565b820191906000526020600020905b8154815290600101906020018083116101c557829003601f168201915b5050505050905083565b60005481565b600160009054906101000a900473ffffffffffffffffffffffffffffffffffffffff1673ffffffffffffffffffffffffffffffffffffffff163373ffffffffffffffffffffffffffffffffffffffff1614610282576040517f08c379a0000000000000000000000000000000000000000000000000000000008152600401610279906106d6565b60405180910390fd5b604051806060016040528060005481526020018381526020018281525060026000805481526020019081526020016000206000820151816000015560208201518160010190816102d291906108a2565b5060408201518160020190816102e891906108a2565b509050506000808154809291906102fe906109a3565b91905055505050565b6000604051905090565b600080fd5b600080fd5b6000819050919050565b61032e8161031b565b811461033957600080fd5b50565b60008135905061034b81610325565b92915050565b60006020828403121561036757610366610311565b5b60006103758482850161033c565b91505092915050565b6103878161031b565b82525050565b600081519050919050565b600082825260208201905092915050565b60005b838110156103c75780820151818401526020810190506103ac565b60008484015250505050565b6000601f19601f8301169050919050565b60006103ef8261038d565b6103f98185610398565b93506104098185602086016103a9565b610412816103d3565b840191505092915050565b6000606082019050610432600083018661037e565b818103602083015261044481856103e4565b9050818103604083015261045881846103e4565b9050949350505050565b6000602082019050610477600083018461037e565b92915050565b600080fd5b600080fd5b7f4e487b7100000000000000000000000000000000000000000000000000000000600052604160045260246000fd5b6104bf826103d3565b810181811067ffffffffffffffff821117156104de576104dd610487565b5b80604052505050565b60006104f1610307565b90506104fd82826104b6565b919050565b600067ffffffffffffffff82111561051d5761051c610487565b5b610526826103d3565b9050602081019050919050565b82818337600083830152505050565b600061055561055084610502565b6104e7565b90508281526020810184848401111561057157610570610482565b5b61057c848285610533565b509392505050565b600082601f8301126105995761059861047d565b5b81356105a9848260208601610542565b91505092915050565b600080604083850312156105c9576105c8610311565b5b600083013567ffffffffffffffff8111156105e7576105e6610316565b5b6105f385828601610584565b925050602083013567ffffffffffffffff81111561061457610613610316565b5b61062085828601610584565b9150509250929050565b7f4e487b7100000000000000000000000000000000000000000000000000000000600052602260045260246000fd5b6000600282049050600182168061067157607f821691505b6020821081036106845761068361062a565b5b50919050565b7f596f752068617665207468652072696768747300000000000000000000000000600082015250565b60006106c0601383610398565b91506106cb8261068a565b602082019050919050565b600060208201905081810360008301526106ef816106b3565b9050919050565b60008190508160005260206000209050919050565b60006020601f8301049050919050565b600082821b905092915050565b6000600883026107587fffffffffffffffffffffffffffffffffffffffffffffffffffffffffffffffff8261071b565b610762868361071b565b95508019841693508086168417925050509392505050565b6000819050919050565b600061079f61079a6107958461031b565b61077a565b61031b565b9050919050565b6000819050919050565b6107b983610784565b6107cd6107c5826107a6565b848454610728565b825550505050565b600090565b6107e26107d5565b6107ed8184846107b0565b505050565b5b81811015610811576108066000826107da565b6001810190506107f3565b5050565b601f82111561085657610827816106f6565b6108308461070b565b8101602085101561083f578190505b61085361084b8561070b565b8301826107f2565b50505b505050565b600082821c905092915050565b60006108796000198460080261085b565b1980831691505092915050565b60006108928383610868565b9150826002028217905092915050565b6108ab8261038d565b67ffffffffffffffff8111156108c4576108c3610487565b5b6108ce8254610659565b6108d9828285610815565b600060209050601f83116001811461090c57600084156108fa578287015190505b6109048582610886565b86555061096c565b601f19841661091a866106f6565b60005b828110156109425784890151825560018201915060208501945060208101905061091d565b8683101561095f578489015161095b601f891682610868565b8355505b6001600288020188555050505b505050505050565b7f4e487b7100000000000000000000000000000000000000000000000000000000600052601160045260246000fd5b60006109ae8261031b565b91507fffffffffffffffffffffffffffffffffffffffffffffffffffffffffffffffff82036109e0576109df610974565b5b60018201905091905056fea2646970667358221220aebf5b360f1309c850953fd05ee06e79b28df745a9ae3aa64a7a2da0ca332eeb64736f6c63430008110033",
  "immutableReferences": {},
  "source": "// SPDX-License-Identifier: MIT\r\npragma solidity ^0.8.17;\r\n\r\nimport \"./Models.sol\";\r\n\r\ncontract Talent {\r\n\r\n    uint256 public talentIDtrack = 1;\r\n\r\n    address deployer;\r\n    mapping(uint => Models.Talent) public talents;\r\n\r\n    constructor() {\r\n        deployer = msg.sender;\r\n\r\n        // this talents are added by default to saves time\r\n        addTalent(\"Voice Over\", \"A simple desc\");\r\n        addTalent(\"Animator\", \"A simple desc\");\r\n        addTalent(\"Blockchain Developer\", \"A simple desc\");\r\n        addTalent(\"UI Designer\", \"A simple desc\");\r\n        addTalent(\"Web Developer\", \"A simple desc\");\r\n        addTalent(\"Video Editing\", \"A simple desc\");\r\n        addTalent(\"Crypto Advisor\", \"A simple desc\");\r\n        addTalent(\"Data Scientist\", \"A simple desc\");\r\n        addTalent(\"Mobile Developer\", \"A simple desc\");\r\n        addTalent(\"Translation\", \"A simple desc\");\r\n        addTalent(\"Email Marketing\", \"A simple desc\");\r\n        addTalent(\"Metaverse Expert\", \"A simple desc\");\r\n        addTalent(\"Illustrating\", \"A simple desc\");\r\n        addTalent(\"NFT Artist\", \"A simple desc\");\r\n        addTalent(\"HR Consulting\", \"A simple desc\");\r\n    }\r\n\r\n    function addTalent(string memory name, string memory description) public {\r\n        require(msg.sender == deployer, \"You have the rights\");\r\n\r\n        talents[talentIDtrack] = Models.Talent(\r\n            talentIDtrack,\r\n            name,\r\n            description\r\n        );\r\n\r\n        talentIDtrack++;\r\n    }\r\n\r\n}",
  "sourcePath": "C:\\Users\\Arogundade Ibrahim\\Documents\\web3\\Buidl\\contracts\\Talent.sol",
  "compiler": {
    "name": "solc",
    "version": "0.8.17+commit.8df45f5f.Emscripten.clang"
  },
  "schemaVersion": "3.4.10",
  "updatedAt": "2022-10-09T10:13:07.965Z",
  "networkType": "ethereum",
  "devdoc": {
    "kind": "dev",
    "methods": {},
    "version": 1
  },
  "userdoc": {
    "kind": "user",
    "methods": {},
    "version": 1
  }
}