{
  "contractName": "User",
  "abi": [
    {
      "inputs": [
        {
          "internalType": "address",
          "name": "_bdlToken",
          "type": "address"
        }
      ],
      "stateMutability": "nonpayable",
      "type": "constructor"
    },
    {
      "inputs": [],
      "name": "userIDtrack",
      "outputs": [
        {
          "internalType": "uint256",
          "name": "",
          "type": "uint256"
        }
      ],
      "stateMutability": "view",
      "type": "function",
      "constant": true
    },
    {
      "inputs": [
        {
          "internalType": "address",
          "name": "",
          "type": "address"
        }
      ],
      "name": "users",
      "outputs": [
        {
          "internalType": "uint256",
          "name": "id",
          "type": "uint256"
        },
        {
          "internalType": "string",
          "name": "name",
          "type": "string"
        },
        {
          "internalType": "string",
          "name": "username",
          "type": "string"
        },
        {
          "internalType": "string",
          "name": "bio",
          "type": "string"
        },
        {
          "internalType": "string",
          "name": "phone",
          "type": "string"
        },
        {
          "internalType": "string",
          "name": "gender",
          "type": "string"
        },
        {
          "internalType": "uint256",
          "name": "createdAt",
          "type": "uint256"
        },
        {
          "internalType": "uint256",
          "name": "updatedAt",
          "type": "uint256"
        }
      ],
      "stateMutability": "view",
      "type": "function",
      "constant": true
    },
    {
      "inputs": [
        {
          "internalType": "address",
          "name": "",
          "type": "address"
        }
      ],
      "name": "usersinfo",
      "outputs": [
        {
          "internalType": "uint256",
          "name": "trustedWith",
          "type": "uint256"
        },
        {
          "internalType": "string",
          "name": "projects",
          "type": "string"
        },
        {
          "internalType": "string",
          "name": "socials",
          "type": "string"
        },
        {
          "internalType": "string",
          "name": "experiences",
          "type": "string"
        },
        {
          "internalType": "string",
          "name": "certificates",
          "type": "string"
        },
        {
          "internalType": "string",
          "name": "awards",
          "type": "string"
        },
        {
          "internalType": "string",
          "name": "blogs",
          "type": "string"
        }
      ],
      "stateMutability": "view",
      "type": "function",
      "constant": true
    },
    {
      "inputs": [
        {
          "internalType": "address",
          "name": "_address",
          "type": "address"
        },
        {
          "internalType": "string",
          "name": "name",
          "type": "string"
        },
        {
          "internalType": "string",
          "name": "username",
          "type": "string"
        },
        {
          "internalType": "string",
          "name": "gender",
          "type": "string"
        }
      ],
      "name": "createUser",
      "outputs": [],
      "stateMutability": "nonpayable",
      "type": "function"
    },
    {
      "inputs": [
        {
          "internalType": "address",
          "name": "_address",
          "type": "address"
        },
        {
          "internalType": "string",
          "name": "projects",
          "type": "string"
        },
        {
          "internalType": "string",
          "name": "socials",
          "type": "string"
        },
        {
          "internalType": "string",
          "name": "experiences",
          "type": "string"
        },
        {
          "internalType": "string",
          "name": "certificates",
          "type": "string"
        },
        {
          "internalType": "string",
          "name": "awards",
          "type": "string"
        },
        {
          "internalType": "string",
          "name": "blogs",
          "type": "string"
        }
      ],
      "name": "createUserInfo",
      "outputs": [],
      "stateMutability": "nonpayable",
      "type": "function"
    },
    {
      "inputs": [
        {
          "internalType": "address",
          "name": "_address",
          "type": "address"
        },
        {
          "internalType": "uint256",
          "name": "amount",
          "type": "uint256"
        }
      ],
      "name": "trustUser",
      "outputs": [],
      "stateMutability": "nonpayable",
      "type": "function"
    },
    {
      "inputs": [
        {
          "internalType": "address[]",
          "name": "_addresses",
          "type": "address[]"
        },
        {
          "internalType": "address",
          "name": "_address",
          "type": "address"
        }
      ],
      "name": "trustExists",
      "outputs": [
        {
          "internalType": "bool",
          "name": "",
          "type": "bool"
        }
      ],
      "stateMutability": "pure",
      "type": "function",
      "constant": true
    },
    {
      "inputs": [
        {
          "internalType": "uint256[]",
          "name": "ids",
          "type": "uint256[]"
        }
      ],
      "name": "addTalents",
      "outputs": [],
      "stateMutability": "nonpayable",
      "type": "function"
    },
    {
      "inputs": [
        {
          "internalType": "uint256",
          "name": "id",
          "type": "uint256"
        }
      ],
      "name": "addTalent",
      "outputs": [],
      "stateMutability": "nonpayable",
      "type": "function"
    },
    {
      "inputs": [
        {
          "internalType": "uint256[]",
          "name": "array",
          "type": "uint256[]"
        },
        {
          "internalType": "uint256",
          "name": "id",
          "type": "uint256"
        }
      ],
      "name": "uintExists",
      "outputs": [
        {
          "internalType": "bool",
          "name": "",
          "type": "bool"
        }
      ],
      "stateMutability": "pure",
      "type": "function",
      "constant": true
    }
  ],
  "bytecode": "0x608060405260016000553480156200001657600080fd5b5060405162002bce38038062002bce83398181016040528101906200003c91906200012f565b33600160006101000a81548173ffffffffffffffffffffffffffffffffffffffff021916908373ffffffffffffffffffffffffffffffffffffffff16021790555080600460006101000a81548173ffffffffffffffffffffffffffffffffffffffff021916908373ffffffffffffffffffffffffffffffffffffffff1602179055505062000161565b600080fd5b600073ffffffffffffffffffffffffffffffffffffffff82169050919050565b6000620000f782620000ca565b9050919050565b6200010981620000ea565b81146200011557600080fd5b50565b6000815190506200012981620000fe565b92915050565b600060208284031215620001485762000147620000c5565b5b6000620001588482850162000118565b91505092915050565b612a5d80620001716000396000f3fe608060405234801561001057600080fd5b506004361061009e5760003560e01c80638dd680ad116100665780638dd680ad14610145578063930fff041461017b57806393ffbc57146101ab578063a87430ba146101c7578063c610d2ce146101fe5761009e565b8063041d9193146100a357806308bc13d0146100bf5780630dd0968c146100ef5780631d441f141461010b5780636edb8a6314610129575b600080fd5b6100bd60048036038101906100b89190611ca1565b61021a565b005b6100d960048036038101906100d49190611eb3565b6108ab565b6040516100e69190611f2a565b60405180910390f35b61010960048036038101906101049190611f7b565b61092e565b005b610113610c61565b6040516101209190611fca565b60405180910390f35b610143600480360381019061013e91906120a8565b610c67565b005b61015f600480360381019061015a91906120f1565b610cad565b604051610172979695949392919061219d565b60405180910390f35b61019560048036038101906101909190612236565b61101f565b6040516101a29190611f2a565b60405180910390f35b6101c560048036038101906101c09190612292565b611076565b005b6101e160048036038101906101dc91906120f1565b611209565b6040516101f59897969594939291906122bf565b60405180910390f35b61021860048036038101906102139190612360565b6114f9565b005b6000600260008973ffffffffffffffffffffffffffffffffffffffff1673ffffffffffffffffffffffffffffffffffffffff168152602001908152602001600020600001540361029f576040517f08c379a000000000000000000000000000000000000000000000000000000000815260040161029690612467565b60405180910390fd5b6000600360008973ffffffffffffffffffffffffffffffffffffffff1673ffffffffffffffffffffffffffffffffffffffff168152602001908152602001600020604051806101200160405290816000820180548060200260200160405190810160405280929190818152602001828054801561033b57602002820191906000526020600020905b815481526020019060010190808311610327575b5050505050815260200160018201548152602001600282018054806020026020016040519081016040528092919081815260200182805480156103d357602002820191906000526020600020905b8160009054906101000a900473ffffffffffffffffffffffffffffffffffffffff1673ffffffffffffffffffffffffffffffffffffffff1681526020019060010190808311610389575b505050505081526020016003820180546103ec906124b6565b80601f0160208091040260200160405190810160405280929190818152602001828054610418906124b6565b80156104655780601f1061043a57610100808354040283529160200191610465565b820191906000526020600020905b81548152906001019060200180831161044857829003601f168201915b5050505050815260200160048201805461047e906124b6565b80601f01602080910402602001604051908101604052809291908181526020018280546104aa906124b6565b80156104f75780601f106104cc576101008083540402835291602001916104f7565b820191906000526020600020905b8154815290600101906020018083116104da57829003601f168201915b50505050508152602001600582018054610510906124b6565b80601f016020809104026020016040519081016040528092919081815260200182805461053c906124b6565b80156105895780601f1061055e57610100808354040283529160200191610589565b820191906000526020600020905b81548152906001019060200180831161056c57829003601f168201915b505050505081526020016006820180546105a2906124b6565b80601f01602080910402602001604051908101604052809291908181526020018280546105ce906124b6565b801561061b5780601f106105f05761010080835404028352916020019161061b565b820191906000526020600020905b8154815290600101906020018083116105fe57829003601f168201915b50505050508152602001600782018054610634906124b6565b80601f0160208091040260200160405190810160405280929190818152602001828054610660906124b6565b80156106ad5780601f10610682576101008083540402835291602001916106ad565b820191906000526020600020905b81548152906001019060200180831161069057829003601f168201915b505050505081526020016008820180546106c6906124b6565b80601f01602080910402602001604051908101604052809291908181526020018280546106f2906124b6565b801561073f5780601f106107145761010080835404028352916020019161073f565b820191906000526020600020905b81548152906001019060200180831161072257829003601f168201915b505050505081525050905060405180610120016040528082600001518152602001826020015181526020018260400151815260200188815260200187815260200186815260200185815260200184815260200183815250600360008a73ffffffffffffffffffffffffffffffffffffffff1673ffffffffffffffffffffffffffffffffffffffff16815260200190815260200160002060008201518160000190805190602001906107f19291906119f5565b50602082015181600101556040820151816002019080519060200190610818929190611a42565b50606082015181600301908161082e9190612693565b5060808201518160040190816108449190612693565b5060a082015181600501908161085a9190612693565b5060c08201518160060190816108709190612693565b5060e08201518160070190816108869190612693565b5061010082015181600801908161089d9190612693565b509050505050505050505050565b6000805b8351811015610922578273ffffffffffffffffffffffffffffffffffffffff168482815181106108e2576108e1612765565b5b602002602001015173ffffffffffffffffffffffffffffffffffffffff160361090f576001915050610928565b808061091a906127c3565b9150506108af565b50600090505b92915050565b6000600260003373ffffffffffffffffffffffffffffffffffffffff1673ffffffffffffffffffffffffffffffffffffffff16815260200190815260200160002060000154036109b3576040517f08c379a00000000000000000000000000000000000000000000000000000000081526004016109aa90612467565b60405180910390fd5b6000600260008473ffffffffffffffffffffffffffffffffffffffff1673ffffffffffffffffffffffffffffffffffffffff1681526020019081526020016000206000015403610a38576040517f08c379a0000000000000000000000000000000000000000000000000000000008152600401610a2f90612857565b60405180910390fd5b6000600360008473ffffffffffffffffffffffffffffffffffffffff1673ffffffffffffffffffffffffffffffffffffffff1681526020019081526020016000209050610b0d81600201805480602002602001604051908101604052809291908181526020018280548015610b0257602002820191906000526020600020905b8160009054906101000a900473ffffffffffffffffffffffffffffffffffffffff1673ffffffffffffffffffffffffffffffffffffffff1681526020019060010190808311610ab8575b5050505050336108ab565b15610b4d576040517f08c379a0000000000000000000000000000000000000000000000000000000008152600401610b44906128c3565b60405180910390fd5b80600201339080600181540180825580915050600190039060005260206000200160009091909190916101000a81548173ffffffffffffffffffffffffffffffffffffffff021916908373ffffffffffffffffffffffffffffffffffffffff16021790555081816001016000828254610bc691906128e3565b92505081905550600460009054906101000a900473ffffffffffffffffffffffffffffffffffffffff1673ffffffffffffffffffffffffffffffffffffffff1663a3ffa9cd33846040518363ffffffff1660e01b8152600401610c2a929190612926565b600060405180830381600087803b158015610c4457600080fd5b505af1158015610c58573d6000803e3d6000fd5b50505050505050565b60005481565b60005b8151811015610ca957610c96828281518110610c8957610c88612765565b5b6020026020010151611076565b8080610ca1906127c3565b915050610c6a565b5050565b6003602052806000526040600020600091509050806001015490806003018054610cd6906124b6565b80601f0160208091040260200160405190810160405280929190818152602001828054610d02906124b6565b8015610d4f5780601f10610d2457610100808354040283529160200191610d4f565b820191906000526020600020905b815481529060010190602001808311610d3257829003601f168201915b505050505090806004018054610d64906124b6565b80601f0160208091040260200160405190810160405280929190818152602001828054610d90906124b6565b8015610ddd5780601f10610db257610100808354040283529160200191610ddd565b820191906000526020600020905b815481529060010190602001808311610dc057829003601f168201915b505050505090806005018054610df2906124b6565b80601f0160208091040260200160405190810160405280929190818152602001828054610e1e906124b6565b8015610e6b5780601f10610e4057610100808354040283529160200191610e6b565b820191906000526020600020905b815481529060010190602001808311610e4e57829003601f168201915b505050505090806006018054610e80906124b6565b80601f0160208091040260200160405190810160405280929190818152602001828054610eac906124b6565b8015610ef95780601f10610ece57610100808354040283529160200191610ef9565b820191906000526020600020905b815481529060010190602001808311610edc57829003601f168201915b505050505090806007018054610f0e906124b6565b80601f0160208091040260200160405190810160405280929190818152602001828054610f3a906124b6565b8015610f875780601f10610f5c57610100808354040283529160200191610f87565b820191906000526020600020905b815481529060010190602001808311610f6a57829003601f168201915b505050505090806008018054610f9c906124b6565b80601f0160208091040260200160405190810160405280929190818152602001828054610fc8906124b6565b80156110155780601f10610fea57610100808354040283529160200191611015565b820191906000526020600020905b815481529060010190602001808311610ff857829003601f168201915b5050505050905087565b6000805b835181101561106a57828482815181106110405761103f612765565b5b602002602001015103611057576001915050611070565b8080611062906127c3565b915050611023565b50600090505b92915050565b6000600260003373ffffffffffffffffffffffffffffffffffffffff1673ffffffffffffffffffffffffffffffffffffffff16815260200190815260200160002060000154036110fb576040517f08c379a00000000000000000000000000000000000000000000000000000000081526004016110f290612467565b60405180910390fd5b6000600360003373ffffffffffffffffffffffffffffffffffffffff1673ffffffffffffffffffffffffffffffffffffffff168152602001908152602001600020905061119a8160000180548060200260200160405190810160405280929190818152602001828054801561118f57602002820191906000526020600020905b81548152602001906001019080831161117b575b50505050508361101f565b156111da576040517f08c379a00000000000000000000000000000000000000000000000000000000081526004016111d19061299b565b60405180910390fd5b806000018290806001815401808255809150506001900390600052602060002001600090919091909150555050565b6002602052806000526040600020600091509050806000015490806001018054611232906124b6565b80601f016020809104026020016040519081016040528092919081815260200182805461125e906124b6565b80156112ab5780601f10611280576101008083540402835291602001916112ab565b820191906000526020600020905b81548152906001019060200180831161128e57829003601f168201915b5050505050908060020180546112c0906124b6565b80601f01602080910402602001604051908101604052809291908181526020018280546112ec906124b6565b80156113395780601f1061130e57610100808354040283529160200191611339565b820191906000526020600020905b81548152906001019060200180831161131c57829003601f168201915b50505050509080600301805461134e906124b6565b80601f016020809104026020016040519081016040528092919081815260200182805461137a906124b6565b80156113c75780601f1061139c576101008083540402835291602001916113c7565b820191906000526020600020905b8154815290600101906020018083116113aa57829003601f168201915b5050505050908060040180546113dc906124b6565b80601f0160208091040260200160405190810160405280929190818152602001828054611408906124b6565b80156114555780601f1061142a57610100808354040283529160200191611455565b820191906000526020600020905b81548152906001019060200180831161143857829003601f168201915b50505050509080600501805461146a906124b6565b80601f0160208091040260200160405190810160405280929190818152602001828054611496906124b6565b80156114e35780601f106114b8576101008083540402835291602001916114e3565b820191906000526020600020905b8154815290600101906020018083116114c657829003601f168201915b5050505050908060060154908060070154905088565b6000600260008673ffffffffffffffffffffffffffffffffffffffff1673ffffffffffffffffffffffffffffffffffffffff168152602001908152602001600020600001541461157e576040517f08c379a000000000000000000000000000000000000000000000000000000000815260040161157590612a07565b60405180910390fd5b6000600260008673ffffffffffffffffffffffffffffffffffffffff1673ffffffffffffffffffffffffffffffffffffffff16815260200190815260200160002060405180610100016040529081600082015481526020016001820180546115e5906124b6565b80601f0160208091040260200160405190810160405280929190818152602001828054611611906124b6565b801561165e5780601f106116335761010080835404028352916020019161165e565b820191906000526020600020905b81548152906001019060200180831161164157829003601f168201915b50505050508152602001600282018054611677906124b6565b80601f01602080910402602001604051908101604052809291908181526020018280546116a3906124b6565b80156116f05780601f106116c5576101008083540402835291602001916116f0565b820191906000526020600020905b8154815290600101906020018083116116d357829003601f168201915b50505050508152602001600382018054611709906124b6565b80601f0160208091040260200160405190810160405280929190818152602001828054611735906124b6565b80156117825780601f1061175757610100808354040283529160200191611782565b820191906000526020600020905b81548152906001019060200180831161176557829003601f168201915b5050505050815260200160048201805461179b906124b6565b80601f01602080910402602001604051908101604052809291908181526020018280546117c7906124b6565b80156118145780601f106117e957610100808354040283529160200191611814565b820191906000526020600020905b8154815290600101906020018083116117f757829003601f168201915b5050505050815260200160058201805461182d906124b6565b80601f0160208091040260200160405190810160405280929190818152602001828054611859906124b6565b80156118a65780601f1061187b576101008083540402835291602001916118a6565b820191906000526020600020905b81548152906001019060200180831161188957829003601f168201915b505050505081526020016006820154815260200160078201548152505090506040518061010001604052806000548152602001858152602001848152602001826060015181526020018260800151815260200183815260200142815260200142815250600260008773ffffffffffffffffffffffffffffffffffffffff1673ffffffffffffffffffffffffffffffffffffffff1681526020019081526020016000206000820151816000015560208201518160010190816119679190612693565b50604082015181600201908161197d9190612693565b5060608201518160030190816119939190612693565b5060808201518160040190816119a99190612693565b5060a08201518160050190816119bf9190612693565b5060c0820151816006015560e082015181600701559050506000808154809291906119e9906127c3565b91905055505050505050565b828054828255906000526020600020908101928215611a31579160200282015b82811115611a30578251825591602001919060010190611a15565b5b509050611a3e9190611acc565b5090565b828054828255906000526020600020908101928215611abb579160200282015b82811115611aba5782518260006101000a81548173ffffffffffffffffffffffffffffffffffffffff021916908373ffffffffffffffffffffffffffffffffffffffff16021790555091602001919060010190611a62565b5b509050611ac89190611acc565b5090565b5b80821115611ae5576000816000905550600101611acd565b5090565b6000604051905090565b600080fd5b600080fd5b600073ffffffffffffffffffffffffffffffffffffffff82169050919050565b6000611b2882611afd565b9050919050565b611b3881611b1d565b8114611b4357600080fd5b50565b600081359050611b5581611b2f565b92915050565b600080fd5b600080fd5b6000601f19601f8301169050919050565b7f4e487b7100000000000000000000000000000000000000000000000000000000600052604160045260246000fd5b611bae82611b65565b810181811067ffffffffffffffff82111715611bcd57611bcc611b76565b5b80604052505050565b6000611be0611ae9565b9050611bec8282611ba5565b919050565b600067ffffffffffffffff821115611c0c57611c0b611b76565b5b611c1582611b65565b9050602081019050919050565b82818337600083830152505050565b6000611c44611c3f84611bf1565b611bd6565b905082815260208101848484011115611c6057611c5f611b60565b5b611c6b848285611c22565b509392505050565b600082601f830112611c8857611c87611b5b565b5b8135611c98848260208601611c31565b91505092915050565b600080600080600080600060e0888a031215611cc057611cbf611af3565b5b6000611cce8a828b01611b46565b975050602088013567ffffffffffffffff811115611cef57611cee611af8565b5b611cfb8a828b01611c73565b965050604088013567ffffffffffffffff811115611d1c57611d1b611af8565b5b611d288a828b01611c73565b955050606088013567ffffffffffffffff811115611d4957611d48611af8565b5b611d558a828b01611c73565b945050608088013567ffffffffffffffff811115611d7657611d75611af8565b5b611d828a828b01611c73565b93505060a088013567ffffffffffffffff811115611da357611da2611af8565b5b611daf8a828b01611c73565b92505060c088013567ffffffffffffffff811115611dd057611dcf611af8565b5b611ddc8a828b01611c73565b91505092959891949750929550565b600067ffffffffffffffff821115611e0657611e05611b76565b5b602082029050602081019050919050565b600080fd5b6000611e2f611e2a84611deb565b611bd6565b90508083825260208201905060208402830185811115611e5257611e51611e17565b5b835b81811015611e7b5780611e678882611b46565b845260208401935050602081019050611e54565b5050509392505050565b600082601f830112611e9a57611e99611b5b565b5b8135611eaa848260208601611e1c565b91505092915050565b60008060408385031215611eca57611ec9611af3565b5b600083013567ffffffffffffffff811115611ee857611ee7611af8565b5b611ef485828601611e85565b9250506020611f0585828601611b46565b9150509250929050565b60008115159050919050565b611f2481611f0f565b82525050565b6000602082019050611f3f6000830184611f1b565b92915050565b6000819050919050565b611f5881611f45565b8114611f6357600080fd5b50565b600081359050611f7581611f4f565b92915050565b60008060408385031215611f9257611f91611af3565b5b6000611fa085828601611b46565b9250506020611fb185828601611f66565b9150509250929050565b611fc481611f45565b82525050565b6000602082019050611fdf6000830184611fbb565b92915050565b600067ffffffffffffffff82111561200057611fff611b76565b5b602082029050602081019050919050565b600061202461201f84611fe5565b611bd6565b9050808382526020820190506020840283018581111561204757612046611e17565b5b835b81811015612070578061205c8882611f66565b845260208401935050602081019050612049565b5050509392505050565b600082601f83011261208f5761208e611b5b565b5b813561209f848260208601612011565b91505092915050565b6000602082840312156120be576120bd611af3565b5b600082013567ffffffffffffffff8111156120dc576120db611af8565b5b6120e88482850161207a565b91505092915050565b60006020828403121561210757612106611af3565b5b600061211584828501611b46565b91505092915050565b600081519050919050565b600082825260208201905092915050565b60005b8381101561215857808201518184015260208101905061213d565b60008484015250505050565b600061216f8261211e565b6121798185612129565b935061218981856020860161213a565b61219281611b65565b840191505092915050565b600060e0820190506121b2600083018a611fbb565b81810360208301526121c48189612164565b905081810360408301526121d88188612164565b905081810360608301526121ec8187612164565b905081810360808301526122008186612164565b905081810360a08301526122148185612164565b905081810360c08301526122288184612164565b905098975050505050505050565b6000806040838503121561224d5761224c611af3565b5b600083013567ffffffffffffffff81111561226b5761226a611af8565b5b6122778582860161207a565b925050602061228885828601611f66565b9150509250929050565b6000602082840312156122a8576122a7611af3565b5b60006122b684828501611f66565b91505092915050565b6000610100820190506122d5600083018b611fbb565b81810360208301526122e7818a612164565b905081810360408301526122fb8189612164565b9050818103606083015261230f8188612164565b905081810360808301526123238187612164565b905081810360a08301526123378186612164565b905061234660c0830185611fbb565b61235360e0830184611fbb565b9998505050505050505050565b6000806000806080858703121561237a57612379611af3565b5b600061238887828801611b46565b945050602085013567ffffffffffffffff8111156123a9576123a8611af8565b5b6123b587828801611c73565b935050604085013567ffffffffffffffff8111156123d6576123d5611af8565b5b6123e287828801611c73565b925050606085013567ffffffffffffffff81111561240357612402611af8565b5b61240f87828801611c73565b91505092959194509250565b7f596f7520646f6e2774206861766520616e206163636f756e7400000000000000600082015250565b6000612451601983612129565b915061245c8261241b565b602082019050919050565b6000602082019050818103600083015261248081612444565b9050919050565b7f4e487b7100000000000000000000000000000000000000000000000000000000600052602260045260246000fd5b600060028204905060018216806124ce57607f821691505b6020821081036124e1576124e0612487565b5b50919050565b60008190508160005260206000209050919050565b60006020601f8301049050919050565b600082821b905092915050565b6000600883026125497fffffffffffffffffffffffffffffffffffffffffffffffffffffffffffffffff8261250c565b612553868361250c565b95508019841693508086168417925050509392505050565b6000819050919050565b600061259061258b61258684611f45565b61256b565b611f45565b9050919050565b6000819050919050565b6125aa83612575565b6125be6125b682612597565b848454612519565b825550505050565b600090565b6125d36125c6565b6125de8184846125a1565b505050565b5b81811015612602576125f76000826125cb565b6001810190506125e4565b5050565b601f82111561264757612618816124e7565b612621846124fc565b81016020851015612630578190505b61264461263c856124fc565b8301826125e3565b50505b505050565b600082821c905092915050565b600061266a6000198460080261264c565b1980831691505092915050565b60006126838383612659565b9150826002028217905092915050565b61269c8261211e565b67ffffffffffffffff8111156126b5576126b4611b76565b5b6126bf82546124b6565b6126ca828285612606565b600060209050601f8311600181146126fd57600084156126eb578287015190505b6126f58582612677565b86555061275d565b601f19841661270b866124e7565b60005b828110156127335784890151825560018201915060208501945060208101905061270e565b86831015612750578489015161274c601f891682612659565b8355505b6001600288020188555050505b505050505050565b7f4e487b7100000000000000000000000000000000000000000000000000000000600052603260045260246000fd5b7f4e487b7100000000000000000000000000000000000000000000000000000000600052601160045260246000fd5b60006127ce82611f45565b91507fffffffffffffffffffffffffffffffffffffffffffffffffffffffffffffffff8203612800576127ff612794565b5b600182019050919050565b7f5573657220646f6e2774206861766520616e206163636f756e74000000000000600082015250565b6000612841601a83612129565b915061284c8261280b565b602082019050919050565b6000602082019050818103600083015261287081612834565b9050919050565b7f596f7520616c7265616479207472757374656420746869732075736572000000600082015250565b60006128ad601d83612129565b91506128b882612877565b602082019050919050565b600060208201905081810360008301526128dc816128a0565b9050919050565b60006128ee82611f45565b91506128f983611f45565b925082820190508082111561291157612910612794565b5b92915050565b61292081611b1d565b82525050565b600060408201905061293b6000830185612917565b6129486020830184611fbb565b9392505050565b7f596f7520616c726561647920616464656420746869732074616c656e74000000600082015250565b6000612985601d83612129565b91506129908261294f565b602082019050919050565b600060208201905081810360008301526129b481612978565b9050919050565b7f596f7520616c7265616479206861766520616e206163636f756e740000000000600082015250565b60006129f1601b83612129565b91506129fc826129bb565b602082019050919050565b60006020820190508181036000830152612a20816129e4565b905091905056fea26469706673582212202ab1ba2012073866518b02172e6bf6bea32793117c762f09b201b722a8a5f92764736f6c63430008110033",
  "immutableReferences": {},
  "source": "// SPDX-License-Identifier: MIT\r\npragma solidity ^0.8.17;\r\n\r\nimport \"./Models.sol\";\r\nimport \"./BdlToken.sol\";\r\n// import \"./utils/Array.sol\";\r\n\r\ncontract User {\r\n\r\n    // tracks the id to be assigned to a user\r\n    uint256 public userIDtrack = 1;\r\n\r\n    address deployer;\r\n    mapping(address => Models.User) public users;\r\n    mapping(address => Models.UserInfo) public usersinfo;\r\n    BdlToken bdlToken;\r\n\r\n    constructor(address _bdlToken) {\r\n        deployer = msg.sender;\r\n        bdlToken = BdlToken(_bdlToken);\r\n    }\r\n\r\n    struct UserModel {\r\n        uint id;\r\n        string name;\r\n        string username;\r\n        string bio;\r\n        string phone;\r\n        string gender;\r\n        uint[] talents;\r\n        address[] trustedWith;\r\n        string projects;\r\n        string socials;\r\n        string experiences;\r\n        string certificates;\r\n        string awards;\r\n        string blogs;\r\n        uint createdAt;\r\n        uint updatedAt;\r\n    }\r\n\r\n    // creates a new user if not existing\r\n    function createUser(address _address, string memory name, string memory username, string memory gender) public {\r\n        require(users[_address].id == 0, \"You already have an account\");\r\n        \r\n        Models.User memory user = users[_address];\r\n        users[_address] = Models.User(\r\n            userIDtrack,\r\n            name,\r\n            username,\r\n            user.bio,\r\n            user.phone,\r\n            gender,\r\n            block.timestamp,\r\n            block.timestamp            \r\n        );\r\n\r\n        userIDtrack++;\r\n    }\r\n\r\n    // creates a user info if user exists\r\n    function createUserInfo(address _address, string memory projects, string memory socials, string memory experiences, string memory certificates, string memory awards, string memory blogs) public {\r\n        require(users[_address].id != 0, \"You don't have an account\");\r\n        \r\n        Models.UserInfo memory userInfo = usersinfo[_address];\r\n        usersinfo[_address] = Models.UserInfo(\r\n            userInfo.talents,\r\n            userInfo.trustedWith,\r\n            userInfo.trustedBy,\r\n            projects,\r\n            socials,\r\n            experiences,\r\n            certificates,\r\n            awards,\r\n            blogs\r\n        );\r\n    }\r\n\r\n    // trust another user with tokens\r\n    function trustUser(address _address, uint256 amount) public {\r\n        require(users[msg.sender].id != 0, \"You don't have an account\");\r\n        require(users[_address].id != 0, \"User don't have an account\");\r\n\r\n        Models.UserInfo storage userInfo = usersinfo[_address];\r\n        \r\n        require(!trustExists(userInfo.trustedBy, msg.sender), \"You already trusted this user\");\r\n\r\n        userInfo.trustedBy.push(msg.sender);\r\n        userInfo.trustedWith += amount;\r\n\r\n        bdlToken.charge(msg.sender, amount);\r\n    }\r\n\r\n    // checks if the user has aleady trusted user\r\n    function trustExists(address[] memory _addresses, address _address) public pure returns (bool){\r\n        for (uint i; i < _addresses.length; i++){\r\n            if (_addresses[i] == _address)\r\n            return true;\r\n        }\r\n        return false;\r\n    }\r\n\r\n    function addTalents(uint[] memory ids) public {\r\n        for(uint i; i < ids.length; i++) {\r\n            addTalent(ids[i]);\r\n        }\r\n    }\r\n\r\n    function addTalent(uint id) public {\r\n        require(users[msg.sender].id != 0, \"You don't have an account\");\r\n\r\n        Models.UserInfo storage userInfo = usersinfo[msg.sender];\r\n\r\n        require(!uintExists(userInfo.talents, id), \"You already added this talent\");\r\n        userInfo.talents.push(id);\r\n    }\r\n            \r\n    function uintExists(uint[] memory array, uint id) public pure returns (bool){\r\n        for (uint i; i < array.length; i++){\r\n            if (array[i] == id)\r\n            return true;\r\n        }\r\n        return false;\r\n    }\r\n}\r\n",
  "sourcePath": "C:\\Users\\Arogundade Ibrahim\\Documents\\web3\\Buidl\\contracts\\User.sol",
  "compiler": {
    "name": "solc",
    "version": "0.8.17+commit.8df45f5f.Emscripten.clang"
  },
  "schemaVersion": "3.4.10",
  "updatedAt": "2022-10-12T14:06:34.641Z",
  "networkType": "ethereum",
  "devdoc": {
    "kind": "dev",
    "methods": {},
    "version": 1
  },
  "userdoc": {
    "kind": "user",
    "methods": {},
    "version": 1
  }
}